1PH60                                           EXTERNAL SYMBOL DICTIONARY                                      PAGE    1
-SYMBOL   TYPE  ID   ADDR  LENGTH LDID                                                            ASM 0201 11.03 02/14/15
0IKF601    SD  0001 000000 000A71
 PHASE6    LD       00000C        0001
 PH6       LD       00000C        0001
 IKF602    SD  0002 000A78 000E0A
 IKF603    SD  0003 001888 001000
 IKF604    SD  0004 002888 000E03
 IKF605    SD  0005 003690 000708
 IKF606    SD  0006 003D98 000C84
 IKF607    SD  0007 004A20 000D34
 IKF608    SD  0008 005758 000D26
 IKF609    SD  0009 006480 0007CA
 IKF610    SD  000A 006C50 000000
1PH60                                                                                                           PAGE    2
-  LOC  OBJECT CODE    ADDR1 ADDR2  STMT   SOURCE STATEMENT                                       ASM 0201 11.03 02/14/15
0                                      1 *$MODULE       PHASE6                                                   00010021
 000000                                2 IKF601 CSECT                                                            00020021
                             00000     3 PH6BEG EQU    *                                                         00030021
                                       4          ENTRY PHASE6                                                   00040021
                                       5        ENTRY PH6                                                        00050021
 000000 C9D2C6C3D3C2F6F0               6        DC    C'IKFCLB60'          PHASE NAME                            00060021
 000008 C2                             7        DC    C'B'             BUILD                                     00070021
 000009 1F                             8        DC    X'1F'                 BUILD NUMBER                         00080021
                                       9 *=3                                                                     00090021
                                      10 *                                                                       00100021
                                      11 *                                                                       00110021
                                      12 *                                                                       00120021
                                      13 *TITLE:                                                                 00130021
                                      14 *                                                                       00140021
                                      15 *   'IKFCBL60'                                                          00150021
                                      16 *                                                                       00160021
                                      17 *STATUS:                                                                00170021
                                      18 *                                                                       00180021
                                      19 *   CHANGE LEVEL 000                                                    00190021
                                      20 *                                                                       00200021
                                      21 *ENTRY POINTS:                                                          00210021
                                      22 *                                                                       00220021
                                      23 *        PHASE6                                                         00230021
                                      24 *                                                                       00240021
                                      25 *INPUT:                                                                 00250021
                                      26 *                                                                       00260021
                                      27 *        SYSUT1  PROCEDURE A-TEXT FROM PHASE 5                          00270021
                                      28 *        SYSUT3  OPTIMIZATION A-TEXT FROM PHASE 5                       00280021
                                      29 *        SYSUT4  LISTING A-TEXT FROM PHASE 1                            00290021
                                      30 *                DATA A-TEXT FROM PHASE 2                               00300021
                                      31 *                XREF DEF-TEXT FROM PHASES 2 + 3                        00310021
                                      32 *                E-TEXT FROM ALL PHASES                                 00320021
                                      33 *                                                                       00330021
                                      34 *OUTPUT:                                                                00340021
                                      35 *                                                                       00350021
                                      36 *        SYSPRINT - PROCEDURE LIST                                      00360021
                                      37 *        SYSLIN - OBJECT MODULE FOR LIKAGE EDITOR                       00370021
                                      38 *        SYSPUNCH - OUTPUT DECK                                         00380021
                                      39 *        SYSUT3  XREF REF-TEXT, ETEXT                                   00390021
                                      40 *        SYSUT1  XREF DEF-TEXT                                          00400021
                                      41 *                                                                       00410021
                                      42 *FUNCTION/OPERATION:                                                    00420021
                                      43 *                                                                       00430021
                                      44 *   PHASE 6 COMBINES ALL THE INFORMATION IN THE PROCEDURE A TEXT, D     00440021
                                      45 *   A-TEXT, AND OPTIMAZATION A-TEXT TO PRODUCE OBJECT MODULE SUITAB     00450021
                                      46 *   FOR INPUT TO LINKAGE EDITOR, AND PRODUCES PUNCHED OBJECT DECK       00460021
                                      47 *   AND AN OBJECT MODULE LISTING IF THEY ARE REQUESTED BY THE USER.     00470021
                                      48 *                                                                       00480021
                                      49 *EXTERNAL ROUTINES:                                                     00490021
                                      50 *                                                                       00500021
                                      51 *        PHASE 00 - LINK TO I-O AND INTERPHASE REGION                   00510021
                                      52 *        TAMEIN - TAMER INITIALIZATION                                  00520021
                                      53 *        PRIME  - ALLOCATE SPACE IN TABLE REGION                        00530021
                                      54 *        INSERT - OBTAIN ROOM FOR AN ENTRY TO BE MADE IN A TABLE        00540021
                                      55 *        STATIC - NOTES NO NEW ENTRY TO BE MADE. RELEASE UNUSED TAB     00550021
1PH60                                                                                                           PAGE    3
-  LOC  OBJECT CODE    ADDR1 ADDR2  STMT   SOURCE STATEMENT                                       ASM 0201 11.03 02/14/15
0                                     56 *        TABREL - FREE TABLE AREA IF A TABLE IS NO LONGER NEEDED        00560021
                                      57 *                                                                       00570021
                                      58 *EXITS NORMAL:                                                          00580021
                                      59 *                                                                       00590021
                                      60 *   RETURN TO PHASE 00, OR GO TO NEXT PHASE.  CALLING SEQUENCE:         00600021
                                      61 *                                                                       00610021
                                      62 *   CALL NEXT PHASE:                                                    00620021
                                      63 *   LA   1,COSADR    L   2,PH7LOD     BALR   0,2     DC   X'A0'         00630021
                                      64 *                                                                       00640021
                                      65 *   RETURN TO PHASE 00:                                                 00650021
                                      66 *   LA    1,COSADR      BALR    0,RB2      DC    X'B0'                  00660021
                                      67 *                                                                       00670021
                                      68 *EXITS-ERRORS:                                                          00680021
                                      69 *                                                                       00690021
                                      70 *   SAME AS NORMAL EXITS.                                               00700021
                                      71 *                                                                       00710021
                                      72 *TABLES/WORK AREAS:                                                     00720021
                                      73 *                                                                       00730021
                                      74 *   PNUTBL, RLDTBL, QTBL, CKPTBL, LTLTBL, CVIRTB, LVIRTB, PNTBL, GN     00740021
                                      75 *   ERRTBL, CONTBL, C6TBL, ETC.                                         00750021
                                      76 *   WORK AREAS STARTS AT PH6SAV.  ALL TABLES ARE DESCRIBED IN DETAI     00760021
                                      77 *   IN PLM AND LISTING.                                                 00770021
                                      78 *                                                                       00780021
                                      79 *ATTRIBUTES:                                                            00790021
                                      80 *                                                                       00800021
                                      81 *   NOT REUSABLE,  NOT REENTRANT                                        00810021
                                      82 *                                                                       00820021
                                      83 *NOTES:  GENERAL ORGANIZATION -                                         00830021
                                      84 *                                                                       00840021
                                      85 *   1.   STANDARD EQU'S                                                 00850021
                                      86 *   2.   SYSTEM BASED MASKS AND REGISTERS EQUATES                       00860021
                                      87 *   3.   LENGTHS OF A-TEXT ELEMENTS                                     00870021
                                      88 *   4.   HEX REPRESENTATIONS OF A-TEXT ELEMENTS                         00880021
                                      89 *   5.   REGISTERS ASSIGNMENT STATUS CODES                              00890021
                                      90 *  6.   COBOL COMMON DSECT AND TAMER EQUATES                            00900021
                                      91 *   7.   MEMORY MAP                                                     00910021
                                      92 *   8.   PHASE 6 INITIALIZATION                                         00920021
                                      93 *   9.   TGT, SGT, PGT INITIALIZATION                                   00930021
                                      94 *   10.  PROCEDURE NAME, VERB, USAGE TABLE, AND A-TEXT LIST PROCESS     00940021
                                      95 *   11.  OPTIMIZATION A-TEXT PROCESSING                                 00950021
                                      96 *   12.  PROCEDURE A-TEXT AND DATA A-TEXT PROCESSING                    00960021
                                      97 *   13.  GENERATE CHECK-POINT                                           00970021
                                      98 *   14.  GENERATE INIT2, INIT3, AND INIT1 CODING                        00980021
                                      99 *   15.  CONSTANTS                                                      00990021
                                     100 *   16.  WORK AREAS AND SWITCHES                                        01000021
                                     101 *  17.  OUTPUT AREA                                                     01010021
                                     102 *  18.  EXECUTE TABLES                                                  01020021
                                     103 *   19.  MNEMONIC TABLE                                                 01030021
                                     104 *   20.  SUBROUTINES                                                    01040021
                                     105 *   21.  SYMBOLIC OPERAND TABLE                                         01050021
                                     106 *  22.  DESCRIPTION OF PHASE 6 TABLES                                   01060021
                                     107 *  23.  INPUT AREA                                                      01070021
-
1PH60     IKFCBL60                                                                                              PAGE    4
-  LOC  OBJECT CODE    ADDR1 ADDR2  STMT   SOURCE STATEMENT                                       ASM 0201 11.03 02/14/15
0                                    110 *   GENERAL CONSIDERATION:                                              01100021
                                     111 *                                                                       01110021
                                     112 *   PHASE 6'S TABLES, A-TEXT, OBJECT MODULE, ASSIGNMENT OF              01120021
                                     113 *   PERMANENT REGISTERS TO BASE LOCATORS AND OBJECT TIME REGISTER       01130021
                                     114 *   ASSIGNMENT ARE DESCRIBED IN DETAIL IN PLM AND LISTING.              01140021
                                     115 *                                                                       01150021
1PH60     IKFCBL60                                                                                              PAGE    5
-  LOC  OBJECT CODE    ADDR1 ADDR2  STMT   SOURCE STATEMENT                                       ASM 0201 11.03 02/14/15
0                                    117 *                                                                       01170021
                                     118 *                                                                       01180021
                                     119 *   STANDARD EQUATES FOR BC INSTRUCTIONS                                01190021
                                     120 *                                                                       01200021
                             0000F   121 UNCOND EQU   15                                                         01210021
                             00002   122 HI     EQU   2                                                          01220021
                             00004   123 LO     EQU   4                                                          01230021
                             00004   124 LOW    EQU   4                                                          01240021
                             00008   125 EQ     EQU   8                                                          01250021
                             0000D   126 NOTHI  EQU   13                                                         01260021
                             0000B   127 NOTLO  EQU   11                                                         01270021
                             00007   128 NOTEQ  EQU   7                                                          01280021
                             00001   129 OV     EQU   1                                                          01290021
                             00002   130 POS    EQU   2                                                          01300021
                             00004   131 NEG    EQU   4                                                          01310021
                             00008   132 ZERO   EQU   8                                                          01320021
                             0000E   133 NOTOV  EQU   14                                                         01330021
                             0000D   134 NOTPOS EQU   13                                                         01340021
                             0000B   135 NOTNEG EQU   11                                                         01350021
                             00007   136 NOTZER EQU   7                                                          01360021
                             00001   137 ONES   EQU   1                                                          01370021
                             00004   138 MIXED  EQU   4                                                          01380021
                             0000E   139 NOTONE EQU   14                                                         01390021
                             0000B   140 NOTMXD EQU   11                                                         01400021
                             00000   141 NOP    EQU   0                                                          01410021
                             00008   142 EOF    EQU   8                                                          01420021
                                     143 *                                                                       01430021
                                     144 *      SYSTEM BASED MASKS                                               01440021
                             00040   145 NOLIST EQU   X'40'       LIST/NOLIST MASK                               01450021
                             00020   146 NODECK EQU   X'20'       DECK/NODECK MASK                               01460021
                             00010   147 NOLODU EQU   X'10'                                                      01470021
                             00008   148 SEQTST EQU   X'08'                                                      01480021
                             00004   149 FLGWRN EQU   X'04'       ON=FLAG WARNINGS  OFF=FLAG ERRORS ONLY         01490021
                             00070   150 NO6OP    EQU   X'70'               NO PHASE 6 O/P MASK                  01500021
                             00060   151 NO6OP3   EQU   X'60'      CLIST OR DMAP                             M O 01510021
                             00082   152 XANDM    EQU   X'82'               XREF  AND  SUPMAP                    01520021
                             00003   153 F4ANDPH7 EQU   X'03'               CALL PH7 TO READ F4                  01530021
                             0008F   154 NO6OPR   EQU   X'8F'               NO PH6 O/P FOR NI INST.              01540021
                             000BF   155 CLISTR   EQU   X'BF'               NO CLIST   FOR NI INST.              01550021
                             0007F   156 XREFR    EQU   X'7F'               NO XREF    FOR NI INST.              01560021
                             000FF   157 P6ERR  EQU   X'FF'                                                      01570021
                                     158 *    REGISTER EQUATES                                                   01580021
                             000C0   159 NO6OP2   EQU   X'C0'              NEITHER CLIST NOR XREF                01590021
                             00000   160 R0     EQU   0                                                          01600021
                             00001   161 R1     EQU   1                                                          01610021
                             00002   162 R2     EQU   2                                                          01620021
                             00003   163 R3     EQU   3                                                          01630021
                             00006   164 RW1    EQU   6                          PHASE 6 WORKING REGISTER        01640021
                             00007   165 RW2    EQU   7                          PHASE 6 WORKING REGISTER        01650021
                                     166 *-----NOTE RW1,RW2 MUST BE AN EVEN-ODD PAIR                             01660021
                             00005   167 RW3    EQU   5                          PHASE 6 WORKING REGISTER        01670021
                             00008   168 RB1    EQU   8                                                          01680021
                             00009   169 RB2    EQU   9                                                          01690021
                             0000A   170 RB3    EQU   10                                                         01700021
                             0000C   171 RB4    EQU   12                                                         01710021
1PH60     IKFCBL60                                                                                              PAGE    6
-  LOC  OBJECT CODE    ADDR1 ADDR2  STMT   SOURCE STATEMENT                                       ASM 0201 11.03 02/14/15
0                            0000D   172 R13    EQU   13                                                         01720021
                             0000E   173 RS1    EQU   14                         SUBROUTINE LINK REGISTER        01730021
                             0000F   174 R15    EQU   15                                                         01740021
                             00004   175 INPUTR EQU   4                                                          01750021
                             00004   176 F2REG  EQU   INPUTR                                                     01760021
                             0000B   177 F4REG  EQU   11                                                         01770021
                                     178 *                                                                       01780021
                                     179 *                                                                       01790021
                                     180 * LENGTHS OF A-TEXT ELEMENTS                                            01800021
                                     181 *                                                                       01810021
                             00003   182 LPNDEF EQU   3                                                          01820021
                             00003   183 LGNDEF EQU   3                                                          01830021
                             00003   184 LVNDEF EQU   3                                                          01840021
                             00003   185 LRPDEF EQU   3                                                          01850021
                             00002   186 LMACRO EQU   2                                                          01860021
                             00003   187 LOP    EQU   3                                                          01870021
                             00003   188 LPNREF EQU   3                                                          01880021
                             00003   189 LGNREF EQU   3                                                          01890021
                             00003   190 LVNREF EQU   3                                                          01900021
                             00003   191 LVIRRF EQU   3                                                          01910021
                             00003   192 LBLREF EQU   3                                                          01920021
                             00003   193 LGTRF1 EQU   3                                                          01930021
                             00004   194 LGTRF2 EQU   4                                                          01940021
                             00005   195 LRELAD EQU   5                                                          01950021
                             00002   196 LDC    EQU   2                PLUS CONTENTS BYTE 2                      01960021
                             00001   197 LLTLRF EQU   1                                                          01970021
                             00003   198 LBDISP EQU   3                                                          01980021
                             00003   199 LRPREF EQU   3                                                          01990021
                             00007   200 LADR   EQU   7                                                          02000021
                             00002   201 LBCD   EQU   2      PLUS CONTENTS BYTE 2                                02010021
                             00004   202 LPLUS  EQU   4                                                          02020021
                             0000C   203 LVIRDF EQU   12                                                         02030021
                             00003   204 LLTLDF EQU   3      PLUS CONTENTS BYTE 3                                02040021
                             00005   205 LDCB   EQU   5                                                          02050021
                             00009   206 LDECB  EQU   9                                                          02060021
                             00009   207 LBLK   EQU   9                                                          02070021
                             00009   208 LSA    EQU   9                                                          02080021
                             00008   209 LWS    EQU   8                                                          02090021
                             00007   210 LCON   EQU   7      PLUS CONTENTS BYTES 6-7                             02100021
                             00008   211 LACON  EQU   8                                                          02110021
                             00008   212 LIACON EQU   8                                                          02120021
                             00004   213 LSBL   EQU   4                                                          02130021
                             00007   214 LMSGDF EQU   7                                                          02140021
                             00002   215 LMSGPM EQU   2      PLUS CONTENTS BYTE 2                                02150021
                             00003   216 LCRDNO EQU   3                                                          02160021
                                     217 *                                                                       02170021
                                     218 *      HEX REPRESENTATIONS OF  A-TEXT ELEMENTS                          02180021
                                     219 *                                                                       02190021
                                     220 *      OP DESCRIPTIVES                                                  02200021
                             00020   221 ADRPLU EQU   X'20'            ADR FOLLOWED BY PLUS                      02210021
                             0001C   222 UPLUS  EQU   X'1C'                                                      02220021
                             00018   223 ULNG   EQU   X'18'                                                      02230021
                             00024   224 YINIT2 EQU   X'24'                                                      02240021
                             00028   225 PNREF  EQU   X'28'                                                      02250021
                             0002C   226 GNREF  EQU   X'2C'                                                      02260021
1PH60     IKFCBL60                                                                                              PAGE    7
-  LOC  OBJECT CODE    ADDR1 ADDR2  STMT   SOURCE STATEMENT                                       ASM 0201 11.03 02/14/15
0                            00030   227 VNREF  EQU   X'30'                                                      02270021
                             00034   228 VIRREF EQU   X'34'                                                      02280021
                             00038   229 BLREF  EQU   X'38'                                                      02290021
                             0003C   230 GTREF1 EQU   X'3C'                                                      02300021
                             00040   231 GTREF2 EQU   X'40'                                                      02310021
                             00044   232 LTLREF EQU   X'44'                                                      02320021
                             00048   233 BDISP  EQU   X'48'                                                      02330021
                             0004C   234 ADR    EQU   X'4C'                                                      02340021
                             00050   235 PLUS   EQU   X'50'                                                      02350021
                             00054   236 ZINIT2 EQU   X'54'                                                      02360021
                             00058   237 XINIT2 EQU   X'58'                                                      02370021
                             0005C   238 YHOLDA EQU   X'5C'                                                      02380021
                                     239 *      OP                                                               02390021
                             00060   240 OP     EQU   X'60'                                                      02400021
                                     241 *      NON-OP ASSOCIATED ELTS                                           02410021
                             00064   242 PNDEF  EQU   X'64'                                                      02420021
                             00068   243 GNDEF  EQU   X'68'                                                      02430021
                             0006C   244 VNDEF  EQU   X'6C'                                                      02440021
                             00070   245 PNBCD  EQU   X'70'                                                      02450021
                                     246 *      EQU   X'74'  NOT ASSIGNED                                        02460021
                             00078   247 RPDBCD EQU   X'78'                                                      02470021
                             0007C   248 RPDDEF EQU   X'7C'                                                      02480021
                             00080   249 MACRO  EQU   X'80'                                                      02490021
                             00084   250 CRDNO  EQU   X'84'                                                      02500021
                             00088   251 IDBCD  EQU   X'88'                                                      02510021
                                     252 *      SUBSEQUENT ELTS                                                  02520021
                             000EC   253 REGNO  EQU   X'EC'                                                      02530021
                             000F0   254 RPDREF EQU   X'F0'                                                      02540021
                             000F4   255 BCDREF EQU   X'F4'                                                      02550021
                             000F8   256 RELADR EQU   X'F8'                                                      02560021
                             000FC   257 DCDEF  EQU   X'FC'                                                      02570021
                             000E8   258 CSELT  EQU   X'E8'                                                      02580021
                             000E4   259 CSDPTR EQU   X'E4'                                                      02590021
                                     260 *       CALLING SEQUENCE DISP/CODE FOR OBJECT MODULE FIELD              02600021
                             0002C   261 CSLIT  EQU   X'2C'                                                      02610021
                             0000C   262 CSBLI  EQU   X'0C'                                                      02620021
                             00028   263 CSBLL  EQU   X'28'                                                      02630021
                             00064   264 CSTS   EQU   X'64'                                                      02640021
                             0001C   265 CSVLCI EQU   X'1C'                                                      02650021
                             00020   266 CSVLCO EQU   X'20'                                                      02660021
                             00060   267 CSSUB  EQU   X'60'                                                      02670021
                                     268 *        OPTIMIZATION A-TEXT ELEMENTS                                   02680021
                             00010   269 DISPLTDF EQU   X'10'                                                    02690021
                             00008   270 GNDF     EQU   X'08'                                                    02700021
                             00014   271 VNDF     EQU   X'14'                                                    02710021
                             00018   272 VIRDF    EQU   X'18'                                                    02720021
                             0000C   273 PNDF     EQU   X'0C'                                              42071 02730021
                                     274 *      OTHER A-TEXT ELTS                                                02740021
                             00000   275 VIRDEF EQU   X'00'                                                      02750021
                             00004   276 LTLDEF EQU   X'04'                                                      02760021
                             00004   277 DCBDF  EQU   X'04'                                                      02770021
                             00008   278 DECBDF EQU   X'08'                                                      02780021
                             0000C   279 BLKDF  EQU   X'0C'                                                      02790021
                             00020   280 SADF   EQU   X'20'                                                      02800021
                             00024   281 WSDF   EQU   X'24'                                                      02810021
1PH60     IKFCBL60                                                                                              PAGE    8
-  LOC  OBJECT CODE    ADDR1 ADDR2  STMT   SOURCE STATEMENT                                       ASM 0201 11.03 02/14/15
0                            00028   282 CONDF  EQU   X'28'                                                      02820021
                             0002C   283 ACONDF EQU   X'2C'                                                      02830021
                             00030   284 ICONDF EQU   X'30'                                                      02840021
                             00034   285 SBLDF  EQU   X'34'                                                      02850021
                             0004C   286 CKPTDF EQU   X'4C'                 HIGHEST DATA A-TXT ID BYTE           02860021
                             00000   287 MSGDF  EQU   X'00'                                                      02870021
                                     288 *      GTREF2 EQUS                                                      02880021
                             00000   289 DCB    EQU   X'00'                                                      02890021
                             0000C   290 PFMCT  EQU   X'0C'                                                      02900021
                             00010   291 PSVCT  EQU   X'10'                                                      02910021
                             00014   292 DECB   EQU   X'14'                                                      02920021
                             0001C   293 PARAM  EQU   X'1C'                                                      02930021
                             00018   294 XSA    EQU   X'18'                                                      02940021
                             00020   295 WC     EQU   X'20'                                                      02950021
                             00024   296 TS     EQU   X'24'                                                      02960021
                             00028   297 XSASW  EQU   X'28'                                                      02970021
                             00004   298 VLC    EQU   X'04'                                                      02980021
                             00008   299 ONCTL  EQU   X'08'                                                      02990021
                             0002C   300 SUBS   EQU     X'2C'                                                    03000021
                             00030   301 TS2    EQU   X'30'                                                      03010021
                             00034   302 RPI    EQU   X'34'                                                      03020021
                             00038   303 VLCO   EQU   X'38'                                                      03030021
                             0003C   304 SA2    EQU   X'3C'                                                      03040021
                             00040   305 SA3    EQU   X'40'                                                      03050021
                             0004C   306 DECIO  EQU   X'4C'                                                      03060021
                             00050   307 CKP      EQU   X'50'                                                    03070021
                                     308 *      MACRO CODES                                                      03080021
                             00000   309 EQUATE EQU   X'00'          MACRO CODES                                 03090021
                             00004   310 ENTRY  EQU   X'04'          MACRO CODES                                 03100021
                             00008   311 BLCHNG EQU   X'08'          MACRO CODES                                 03110021
                             0000C   312 ENDOPT EQU   X'0C'          MACRO CODES                                 03120021
                             00010   313 PROCSS EQU   X'10'          MACRO CODES                                 03130021
                             00014   314 HOLDD  EQU   X'14'          MACRO CODES                                 03140021
                             00018   315 ADCON  EQU   X'18'       MACRO CODES                                    03150021
                             0001C   316 IDENFY EQU   X'1C'       MACRO CODES                                    03160021
                             00020   317 STARTT EQU   X'20'       MACRO CODES                                    03170021
                             00024   318 DEECEE EQU   X'24'                                                      03180021
                             00028   319 RSRVE  EQU   X'28'                                                      03190021
                             0002C   320 FREE   EQU   X'2C'                                                      03200021
                             00030   321 DESTRY EQU   X'30'                                                      03210021
                             00034   322 INIT   EQU   X'34'                                                      03220021
                                     323 *                                                                       03230021
                                     324 *      REGISTER ASSIGNMENT STATUS CODES                                 03240021
                                     325 *                                                                       03250021
                             00002   326 IBLSLT EQU   X'02'                                                      03260021
                             00000   327 IBLELT EQU   X'00'                                                      03270021
                             00080   328 LAVAIL EQU   X'80'                                                      03280021
                             00001   329 AVAIL5 EQU   X'01'                                                      03290021
                             00002   330 AVAIL6 EQU   X'02'                                                      03300021
                             00003   331 AVL56  EQU   AVAIL5+AVAIL6                                              03310021
                             000FE   332 YAVAL5 EQU   X'FE'                                                      03320021
                             000FD   333 YAVAL6 EQU   X'FD'                                                      03330021
                             00020   334 LASIGN EQU   X'20'                                                      03340021
                             00010   335 PGTOVF EQU   X'10'                                                      03350021
                             000EF   336 PGTOFF EQU   X'EF'            TURN OFF PGTOVF                           03360021
1PH60     IKFCBL60                                                                                              PAGE    9
-  LOC  OBJECT CODE    ADDR1 ADDR2  STMT   SOURCE STATEMENT                                       ASM 0201 11.03 02/14/15
0                                    338        IHBCOB                                                           03380021
                                     339+*     THIS IS A MACRO GENERATING COBOL COMMON AS A DSECT USED
                                     340+*      BY EVERY PHASE OF THE COBOL COMPILER
                                     341+*
                                     342+***********************************************************************
                                     343+*      COMMON - THE COMMUNICATIONS AREA
                                     344+***********************************************************************
                                     345+*      THIS TABLE IS LOCATED IN PH0 FOLLOWING THE ENTRY POINT- COS.
                                     346+*      AT ENTRY TO EACH PHASE R1 POINTS TO THE SLOT CONTAINING COSADDR.
 000000                              347+COS    DSECT
 000000                              348+       DS    3F          EXECUTABLE CODE IN PH0
 00000C                              349+TIB0     DS    2F
 000014                              350+TIB1     DS    2F
 00001C                              351+TIB2     DS    2F
 000024                              352+TIB3     DS    2F
 00002C                              353+TIB4     DS    2F
 000034                              354+TIB5     DS    2F
 00003C                              355+TIB6     DS    2F
 000044                              356+TIB7     DS    2F
 00004C                              357+TIB8     DS    2F
 000054                              358+TIB9     DS    2F
 00005C                              359+TIB10    DS    2F
 000064                              360+TIB11    DS    2F
 00006C                              361+TIB12    DS    2F
 000074                              362+TIB13    DS    2F
 00007C                              363+TIB14    DS    2F
 000084                              364+TIB15    DS    2F
 00008C                              365+TIB16    DS    2F
 000094                              366+TIB17    DS    2F
 00009C                              367+TIB18    DS    2F
 0000A4                              368+TIB19    DS    2F
 0000AC                              369+TIB20    DS    2F
 0000B4                              370+TIB21    DS    2F
 0000BC                              371+TIB22    DS    2F
 0000C4                              372+TIB23    DS    2F
 0000CC                              373+TIB24    DS    2F
 0000D4                              374+TIB25    DS    2F
 0000DC                              375+TIB26    DS    2F
 0000E4                              376+TIB27    DS    2F
 0000EC                              377+TIB28    DS    2F
 0000F4                              378+TIB29    DS    2F
 0000FC                              379+TIB30    DS    2F
 000104                              380+TIB31    DS    2F
 00010C                              381+TIB32    DS    2F
 000114                              382+TIB33    DS    2F
 00011C                              383+TIB34    DS    2F
 000124                              384+TIB35    DS    2F
 00012C                              385+APRIME DS    F           ADDRESS OF SUBROUTINE-PRIME   IN TAMER
 000130                              386+AINSRT DS    F           ADDRESS OF SUBROUTINE-INSERT  IN TAMER
 000134                              387+ADSTAT DS    F           ADDRESS OF SUBROUTINE-STATIC  IN TAMER
 000138                              388+RELADD DS    F           ADDRESS OF SUBROUTINE-TABREL  IN TAMER
 00013C                              389+TAMNAD DS    F
 000140                              390+ACCESW DS    C           ACCESS INITIALIZATION SWITCH
 000141                              391+AMAINF   DS    CL3       POINTER TO THE MAIN FREE AREA FOR TABLES/DICT.
 000144                              392+ALSTAM DS    F           POINTER TO THE LAST ENTRY IN TAMM
1PH60     IKFCBL60                                                                                              PAGE   10
-  LOC  OBJECT CODE    ADDR1 ADDR2  STMT   SOURCE STATEMENT                                       ASM 0201 11.03 02/14/15
0000148                              393+LOCCTR DS    F           RELATIVE ADDRESS OF THE NEXT AVAILABLE LOC
 00014C                              394+LOCCTR1  DS    F
 000150                              395+PROGID   DS    CL8       PROGRAM-ID FROM THE IDENTICATION DIVISION
 000158                              396+LABELS DS    H           CONTAINS LABEL INFORMATION.
 00015A                              397+SEGCNTR  DS    H         NUMBER OF SEGMENTS HIGHER THAN SEGMENT LIMIT -
                                     398+*                        USED BY PHASE 6
 00015C                              399+PNCTR  DS    H           COUNTER FOR ASSIGNING PB NUMBERS TO PROC.NAMES
 00015E                              400+GNCTR  DS    H           CTR. ASSIGNING GN NO.TO GENERATED PROC. NAMES
 000160                              401+DCBCTR DS    H           CTR. ASSIGNING ID.NO.TO DCB'S
 000162                              402+VIRCTR DS    H           CTR. ASSIGNING ID.NO.TO VIRTUALS
 000164                              403+LTLCTR DS    H           CTR. ASSIGNING ID.NO.TO LITERALS
 000166                              404+WCMAX  DS    H           SIZE OF THE LARGEST WORK AREA FOR LIBRARY SUBR
 000168                              405+TSMAX  DS    H           SIZE OF THE TEMP. STORAGE FOR ARITHM. STMNTS
 00016A                              406+TS2MAX DS    H           SAME AS ABOVE FOR NON-ARITHMETIC STATEMENTS
 00016C                              407+ODOCTR DS    H           NUMBER OF Q-ROUTINES
 00016E                              408+CKPCTR DS    H           NUMBER OF CHECKPOINT REQUESTS
 000170                              409+INDCTR DS    H           AVAILABLE
 000172                              410+SBLOMX   DS    H                   AVAILABLE
 000174                              411+VLCOMX   DS    H                   AVAILABLE
 000176                              412+SBLIMX DS    H           SAME AS SBLOMX FOR IN-LINE PROC.
 000178                              413+VLCIMX DS    H           SAME AS VLCOMX FOR IN-LINE PROC.
 00017A                              414+SBLCTR DS    H           COUNTER FOR ASSIGNING  SBL'S
 00017C                              415+VLCCTR DS    H           USED TO DETERMINE VLCOMX AND VLCIMX
 00017E                              416+BLLCTR DS    H           CTR. FOR ASSIGNING ID. NO.TO LINKAGE SEC. BL'S
 000180                              417+SEQERR DS    H           NO. OF OUT-OF-SEQUENCE CARDS
 000182                              418+SWITCH   DS    H
                                     419+*                        BITS MARKED BY * MAY STILL BE IN USE BY
                                     420+*                        COBOLF - ASSIGN THESE AS A LAST RESORT
                             00080   421+SWTRCE EQU   X'80'       BIT 0  TRACE
                                     422+*              *         BIT 1
                                     423+*              *         BIT 2
                             00010   424+SPILL    EQU   X'10'     BIT 3  SET IF DICTIONARY SPILL
                                     425+*              *         BIT 4
                             00004   426+MQVAR    EQU   X'04'     BIT 5  SET IF PH2 BUILDS A QVAR TABLE
                                     427+*              *         BIT 6
                             00001   428+MQFILE   EQU   X'01'     BIT 7  SET IF PH2 BUILDS A QFILE TABLE
                                     429+*
                                     430+*                        SECOND BYTE OF SWITCH
                                     431+*              *         BIT 0
                                     432+*              *         BIT 1
                             00020   433+SORTRTN  EQU   X'20'     BIT 2  SORT RETURN SET BY PHASE2 USED BY PH5
                             00010   434+RERUNN   EQU   X'10'     BIT 3  RERUN USED BY PHASE 1, 2 AND 5
                             00008   435+DSOU     EQU   X'08'     BIT 4  SOURCE INDICATOR FOR STATISTICS
                             00004   436+NOFITSW  EQU   X'04'     BIT 5  SET BY PH6 IF E-TEXT ON FILE3
                                     437+*                               USED BY PH7 & PH00
                             00002   438+DOPH7    EQU   X'02'     BIT 6  PH6 LOOK AHEAD FOR PH7 YES OR NO
                             00001   439+RDERRFIL EQU   X'01'     BIT 7  PH6 INPUT INDICATOR
 000184                              440+DICND2 DS    F           DICTIONARY POINTER USED IN PH2
 000188                              441+DICND1 DS    F           DICTIONARY POINTER USED IN PH1
 00018C                              442+DATE     DS    CL15      DATE/TIME OF COMPILATION
                                     443+*                        REUSED IN PHASE1 AS FOLLOWS
                                     444+*                                  BYTES 1-4 NUMBER OF DATA NAMES
                                     445+*                                        5-8 NUMBER OF VERBS
                                     446+*                                        9-12 NUMBER OF SOURCE CARDS
                                     447+*                                       13-15 NOT USED
1PH60     IKFCBL60                                                                                              PAGE   11
-  LOC  OBJECT CODE    ADDR1 ADDR2  STMT   SOURCE STATEMENT                                       ASM 0201 11.03 02/14/15
000019B                              448+WSDEF  DS    0CL7        LAST 7 BYTES OF DATA A-TEXT EL.FOR WORK.ST.SEC
 00019B                              449+         DS    CL3
 00019E                              450+WSBL   DS    C
 00019F                              451+WSSIZE   DS    CL3
 0001A2                              452+ERRSEV DS    C           HIGHEST ERROR SEVERITY LEVEL
 0001A3                              453+PHZSW  DS    C           OPTIONS SWITCH :
                             00080   454+LIST     EQU X'80'       SOURCE(OS)
                             00040   455+LISTX    EQU   X'40'     PMAP
                             00020   456+DECK     EQU   X'20'
                             00010   457+LINK     EQU   X'10'     LOAD
                             00008   458+SEQ      EQU   X'08'
                             00004   459+FLAGW    EQU   X'04'
                             00002   460+LIBR     EQU   X'02'
                             00001   461+ZWB      EQU   X'01'
 0001A4                              462+PHZSW1 DS    C
                             00080   463+XREF     EQU   X'80'
                             00040   464+CLIST    EQU   X'40'
                             00020   465+SYM      EQU   X'20'      DMAP
                             00010   466+PDT      EQU   X'10'
                             00004   467+APOST    EQU   X'04'
                             00002   468+MAPSP    EQU     X'02'
                             00001   469+TRUNC    EQU   X'01'
 0001A5                              470+PHZSW2   DS    C         RESERVED FOR ADDITIONAL OPTIONS
                             00080   471+STAT     EQU   X'80'     RESERVED FOR STATEMENT NUMBER OPTION
                             00002   472+NO6A     EQU   X'02'     SET BY PH6 TO TELL PH7 THAT PH6A WAS BYPASSED
 0001A8                              473+DICADR DS    F
 0001AC                              474+DLSVAL DS    F           ACCESS RTN. COMMUNICATION CELL
 0001B0                              475+DICPTR DS    C           ACCESS RTN. COMMUNICATION CELL
 0001B1                              476+DCPTR  DS    3C          ACCESS RTN. COMMUNICATION CELL
 0001B4                              477+RPTSAV DS    H           REPORT SAVE AREA CELL
 0001B6                              478+BLSCTR   DS    H         AVAILABLE
 0001B8                              479+LCSECT   DS    F
 0001BC                              480+PH7LOD   DS    F
 0001C0                              481+RGNCTR DS    H           COUNT OF UNIQUE GN'S
 0001C2                              482+ERF4SW DS    C           SWITCH USED BY PH6/PH7
 0001C3                              483+PTYNO    DS    C                   CURRENT PRIORITY NO
                                     484+*                                  SET BY PH5  USED BY PH00
 0001C4                              485+COMMAD   DS    H
 0001C6                              486+PHZSW3   DS    C                   OPTION SWITCH
                             00001   487+VERBR    EQU   X'01'               LISTING A-TEXT
 0001C7                              488+PHZSW4   DS    C                   RESERVED FOR ADDITIONAL OPTIONS
 0001C8                              489+AMOVDC   DS    F
 0001CC                              490+SDSIZ    DS    F         BIGGEST SD IN PGM.
 0001D0                              491+SEGLMT   DS    C
 0001D1                              492+DTFNUM   DS    C
 0001D2                              493+CURSGN   DS    C
 0001D3                              494+PH1BYTE  DS    C         PHASE 1 COMMUNICATION TO PHASE 2
                             00001   495+UPSIBT   EQU   X'01'     PASSES INFORMATION FROM PHASE 1A TO PHASE 2
                             00002   496+EOPPH1   EQU   X'02'     PASSES INFORMATION FROM PHASE 1A TO PHASE 1B
                             00004   497+INITBIT  EQU   X'04'     PASSES INFORMATION FROM PHASE 1A TO PHASE 2
                             00008   498+BASINSQ  EQU   X'08'           PH1A TO PH1B
                             00020   499+BASIS    EQU   X'20'
                             00080   500+F3TEXT   EQU   X'80'
 0001D4                              501+DECBCT   DS    H         NO OF DECB'S FOR PGM
 0001D6                              502+INDEXS   DS    H         AVAILABLE
1PH60     IKFCBL60                                                                                              PAGE   12
-  LOC  OBJECT CODE    ADDR1 ADDR2  STMT   SOURCE STATEMENT                                       ASM 0201 11.03 02/14/15
00001D8                              503+INDEX1   DS    H        # INDEX NAMES DEFNED IN IN-LINE FILES
 0001DA                              504+CYCTOTAL DS    H         AVAILABLE
 0001DC                              505+IOPTRCTR DS    H        # I/O POINTERS FOR APPLY-WRITE-ONLY
 0001DE                              506+TS3MAX   DS    H
 0001E0                              507+TS4MAX   DS    H
 0001E4                              508+BUFSIZE  DS    F         USED FOR STATISTICS
 0001E8                              509+CORESIZE DS    F         USED FOR STATISTICS
 0001EC                              510+CNTLINE  DS    H         USED FOR STATISTICS
 0001EE                              511+CURCRD   DS    H
 0001F0                              512+SPACING  DS    C         USED FOR STATISTICS
 0001F1                              513+PDTCHR   DS    C                   SET BY PH01 USED BY PH6
 0001F2                              514+         DS    H
 0001F4                              515+BASINS   DS    1F
 0001F8                              516+         DS    1F
                                     517+*
                                     518+*
 0001FC                              519+         DS    0F
 0001FC                              520+AGETALL  DS    F                   ADDRESS OF TAMER RTN - GETALL
 000200                              521+         DS    F                   AVAILABLE
 000204                              522+RPDNUM   DS    H         AVAILABLE
 000206                              523+CYCNUM   DS    H         AVAILABLE
 000208                              524+IDENTL DS    F           REL. LOC. OF CODING IN OBJECT MODULE FOR THE
                                     525+*                        RANDOM PROC IDENTIFIED IN RPDNUM
 00020C                              526+BLCTR  DS    H           ID NO ASSIGNED TO BL'S FOR FILES
 00020E                              527+VNCTR  DS    H           COUNTER FOR ASSIGNING VN NUMBERS
 000210                              528+ONCTR  DS    H           COUNTER FOR ASSIGNING ID NO.TO ON CONTROL CELL
 000212                              529+PFMCTR DS    H           COUNTER FOR ASSIGNING ID NO.TO PERFORM CELLS
 000214                              530+PSVCTR DS    H           CTR FOR ASSIGNING ID'S TO PERFORM SAVE CELLS
 000216                              531+XSACTR DS    H           LOC  WITHIN EXHIBIT OR SORT SAVE AREA
 000218                              532+XSWCTR DS    H           CTR FOR ASSIGNING ID'S TO EXHIBIT/ON SWITCHES
 00021C                              533+RELLOC DS    F           DISPL OF TGT/SGT FROM THE BEG. OF OBJECT MOD.
 000220                              534+GTLNG  DS    H           LENGTH OF TGT OR SGT SPECIFIED IN RELLOC
 000222                              535+RPILOC   DS    H         AVAILABLE
 000224                              536+VNILOC DS    H           DISPL OF VNI FIELDS IN PGT
 000226                              537+VNLOC  DS    H           DISPL OF VN FIELDS IN TGT OR SGT
 000228                              538+SUBCTR DS    H           CTR TO ASSIGN ID'S TO SUBSCRIPTED REFERENCES
 00022A                              539+PARMAX DS    H           SIZE OF PARAMETER AREA
 00022C                              540+BLSVAL   DS    H         AVAILABLE
 00022E                              541+BLSLOC   DS    H         AVAILABLE
 000230                              542+CMTBSW   DS    H         AVAILABLE
 000232                              543+SA2CTR DS    H           SET IF OPTION 2 OF USE  SPECIFIED
 000234                              544+SA3CTR DS    H           SET IF OPTION 5 OF USE  SPECIFIED
 000236                              545+BLSEND   DS    H         AVAILABLE
 000238                              546+INDEX    DS    F
 00023C                              547+INDEX0   DS    H         AVAILABLE
 000240                              548+       DS    6F
                                     549+*
                                     550+*      END OF COMMON
                                     551+*
                                     552+*
1PH60     IKFCBL60                                                                                              PAGE   13
-  LOC  OBJECT CODE    ADDR1 ADDR2  STMT   SOURCE STATEMENT                                       ASM 0201 11.03 02/14/15
0                            00228   554 SBSCTR EQU   SUBCTR                                                     03390021
                                     555 * EQUATES FOR TAMER                                                     03400021
                             00054   556 CONTBL EQU   TIB9-COS                                                   03410021
                             0007C   557 CONDIS EQU   TIB14-COS                                                  03420021
                             0002C   558 LTLTBL   EQU   TIB4-COS                                                 03430021
                             00064   559 LVIRTB EQU   TIB11-COS                                                  03440021
                             0006C   560 CVIRTB EQU   TIB12-COS                                                  03450021
                             00074   561 VIRPTR EQU   TIB13-COS                                                  03460021
                             0005C   562 ERRTBL EQU   TIB10-COS                                                  03470021
                             00024   563 QTBL   EQU   TIB3-COS                                                   03480021
                             0003C   564 PNUTBL EQU   TIB6-COS                                                   03490021
                             00044   565 PNTBL  EQU   TIB7-COS                                                   03500021
                             0004C   566 GNTBL  EQU   TIB8-COS                                                   03510021
                             0001C   567 FILTBL EQU   TIB2-COS                                                   03520021
                             00094   568 VNPTY  EQU   TIB17-COS                                                  03530021
                             00084   569 SEGTBL EQU   TIB15-COS                                                  03540021
                                     570 * OTHER EQUATES                                                         03550021
                             00006   571 R6       EQU   6                                                        03560021
                             00002   572 VIRNBR   EQU   2                                                        03570021
                             00080   573 PGTR   EQU   X'80'                                                      03580021
                             00040   574 TSGTR  EQU   X'40'                                                      03590021
                             000FF   575 GTOVFLON EQU   X'FF'               TGT OR PGT HAS OVERFLOW CELLS        03600021
                                     576 *                                                                       03610021
                             00001   577 LTLTYP EQU   1                                                          03620021
                             00001   578 LTLBND EQU   1                POSITIONS                                 03630021
                             00002   579 LTLLNG EQU   2                IN LTLDEF                                 03640021
                             00003   580 LTLCON EQU   3                RECORDS                                   03650021
                             00001   581 VIRTYP EQU   1                DISP OF TYPE                              03660021
                             00004   582 VIRBCD EQU   4                DISP OF BCD                               03670021
                             00001   583 TARG   EQU   1                                                          03680021
                             00000   584 TARG0    EQU   0                                                        03690021
                             00005   585 RELC   EQU   5                    DISPL OF REL ADDR IN RLDTBL           03700021
                             00004   586 RELC4    EQU   4                                                        03710021
                             00008   587 RLNG   EQU   8                    LENGTH OF RLDTBL ENTRY                03720021
                                     588 *     TGT DISPLACEMENTS                                                 03730021
                             00198   589 APGTVN EQU   408                   VNI TBL ADDR IN THE TGT              03740021
                             0019C   590 ATGTVN EQU   412                   VN-I TBL ADDRESS                     03750021
                             001A0   591 TGTVCON  EQU   416                                                 STAN 03760021
                             001A4   592 VNTBLN EQU   420                   LENGTH OF VNI TBL                    03770021
                             001A8   593 PGMIDTGT EQU   424                 PROGRAM ID                           03780021
                             001B0   594 TGTINIT1 EQU   432                                                 STAN 03790021
                             001BC   595 VARTGT1  EQU   444                                                      03800021
                             001C0   596 VARTGT2  EQU   448                                                      03810021
                                     597 *                                                                       03820021
                                     598 *        BOUNDARY ALIGNMENT                                             03830021
                             00001   599 ONEBYTE  EQU   1                                                        03840021
                             00002   600 TWOBYTE  EQU   2                                                        03850021
                             00003   601 THREE    EQU   3                                                        03860021
                             00004   602 FOURBYTE EQU   4                                                        03870021
                             00006   603 SIXBYTES EQU   6                                                        03880021
                             00008   604 DW8BYTES EQU   8                                                        03890021
                             000C0   605 FOUR8ORC EQU   X'C0'               BOUNDARY                             03900021
                             00080   606 HALFWRD  EQU   X'80'                                                    03910021
                                     607 *                                                                       03920021
                                     608 * EQUATE MASKS                                                          03930021
1PH60     IKFCBL60                                                                                              PAGE   14
-  LOC  OBJECT CODE    ADDR1 ADDR2  STMT   SOURCE STATEMENT                                       ASM 0201 11.03 02/14/15
0                                    609 *                                                                       03940021
                             00080   610 HION     EQU   X'80'                                                    03950021
                             000FF   611 ALLON    EQU   X'FF'                                                    03960021
                             0F000   612 MC6M4A EQU   X'F000'                                                    03970021
                             0B000   613 MC6M4B EQU   X'B000'                                                    03980021
                             0007F   614 M7F    EQU   X'7F'                                                      03990021
                             001FF   615 M1FF   EQU   X'1FF'                                                     04000021
                             01FFF   616 M1FFF  EQU   X'1FFF'                                                    04010021
                             000F0   617 MF0    EQU   X'F0'                                                      04020021
                             00064   618 MC664  EQU   X'64'                                                      04030021
                             000F9   619 MF9    EQU   X'F9'                                                      04040021
                             00004   620 PRMFLG   EQU   X'04'                                              56154 04050021
                                     621 *                                                                       04060021
                             000C0   622 ATYP   EQU   X'C0'  TEXT - RLD - NO MATCH - VARIABLE LENGTH             04070021
                             00084   623 DTYP   EQU   X'84'  TEXT - NO RLD - NO MATCH - LENGTH 4                 04080021
                             000E0   624 ITYP   EQU   X'E0'  TEXT - RLD - MATCH AGAINST N - VARIABLE LENGTH      04090021
                             00094   625 NTYP   EQU   X'94'  TEXT - NO RLD - MATCHED BY I+V - LENGTH 4           04100021
                             000A4   626 VTYP   EQU   X'A4'  TEXT - NO RLD - MATCH AGAINST N - LENGTH 4          04110021
                                     627 *        ESD TYPES                                                      04120021
                             00000   628 ESDTYP0  EQU   0                   SD TYPE ESD                          04130021
                             00001   629 ESDTYP1  EQU   1                   LD TYPE ESD                          04140021
                             00002   630 ESDTYP2  EQU   2                   ER TYPE ESD                          04150021
                             00004   631 ESDTYP4  EQU   4                   PC TYPE ESD                          04160021
                                     632 *                                                                       04170021
                             001B0   633 CBRST  EQU   X'01B0'                                                    04180021
                             001C0   634 LVLST  EQU   X'01C0'                                                    04190021
                             00100   635 VRBST  EQU   X'0100'                                                    04200021
                             00180   636 RELST  EQU   X'0180'                                                    04210021
                             00190   637 PARST  EQU   X'0190'                                                    04220021
                             001A0   638 ARIST  EQU   X'01A0'                                                    04230021
                             001D0   639 FCOST  EQU   X'01D0'                                                    04240021
                             001F0   640 SDNST  EQU   X'01F0'                                                    04250021
                             000BF   641 INITNO6A  EQU  X'BF'                                                    04260021
                             00000   642 S6INIT00 EQU   X'00'               INITIALIZE SWITCH TO ZERO            04270021
                             00001   643 S6WON  EQU   1                                                          04280021
                             000FE   644 S6WOFF EQU   254                                                        04290021
                             00004   645 RW3M1  EQU   RW3-1                                                      04300021
                             00006   646 RW3P1  EQU   RW3+1                                                      04310021
                             00005   647 RW1M1  EQU   RW1-1                                                      04320021
                                     648 *                                                                       04330021
                             0000C   649 ELEVEL   EQU   X'0C'               E-LEVEL DIAGNOSTIC                   04340021
                             00010   650 DLEVEL   EQU   X'10'               D-LEVEL DIAGNOSTIC= PH6 LOGIC        04350021
                             00008   651 CLEVEL   EQU   X'08'               C-LEVEL DIAGNOSTIC                   04360021
                             00004   652 WLEVEL   EQU   X'04'               W-LEVEL DIAGNOSTIC                   04370021
                             000FF   653 ERF4ON   EQU   X'FF'               PH7 TO PRINT ERRMSG                  04380021
                             00000   654 ERF4SEQ  EQU   X'00'               PH7 PRINT ONLY SEQUENCE ERRORS       04390021
                             000FF   655 NOTSEGTD EQU   X'FF'               SOURCE PROGRAM NOT SEGMENTED         04400021
                             00000   656 INITOFF  EQU   X'00'               INITIALIZE SWITCHES TO ZERO          04410021
                             00007   657 SEVEN    EQU   7                                                        04420021
                             00006   658 SIXSUFFX EQU   6                                                        04430021
                             000FF   659 NEWBLOCK EQU   X'FF'                                                    04440021
                             00032   660 INDEPSEG EQU   50                                                       04450021
                             00000   661 NOPOPCD  EQU   X'00'               NOP OPERATION CODE                   04460021
                             0000E   662 REG14    EQU   14                  USE  R14                             04470021
                             0000F   663 REG15    EQU   15                  USE  R15                             04480021
1PH60     IKFCBL60                                                                                              PAGE   15
-  LOC  OBJECT CODE    ADDR1 ADDR2  STMT   SOURCE STATEMENT                                       ASM 0201 11.03 02/14/15
0                            00050   664 EIGHTY   EQU   80                  80 COLUMNS PER CARD                  04490021
                             00040   665 BLANK    EQU   X'40'                                                    04500021
                                     666 *              LETTERS                                                  04510021
                             000C5   667 EE       EQU   C'E'                                                     04520021
                             000C7   668 GEE      EQU   C'G'                                                     04530021
                             000D3   669 EL       EQU   C'L'                                                     04540021
                             000D7   670 PEE      EQU   C'P'                                                     04550021
                             000E2   671 ESS      EQU   C'S'                                                     04560021
                             000E5   672 VEE      EQU   C'V'                                                     04570021
                             000E7   673 ECKS     EQU   C'X'                                                     04580021
                             0006B   674 COMMA    EQU   C','                                                     04590021
                             0004D   675 LFTPAREN EQU   C'('                                                     04600021
                             0005D   676 RTPAREN  EQU   C')'                                                     04610021
                             0005C   677 ASTER    EQU   C'*'                                                     04620021
                             0004E   678 PLUSSIGN EQU   C'+'                                                     04630021
                             00060   679 MINUSIGN EQU   C'-'                                                     04640021
                             0007D   680 QUOTES1  EQU   C''''                                                    04650021
                                     681 *                                                                       04660021
                                     682 * LENGTH(LX), DISPLACEMENT(DX), AND PLUS BYTES(NX) FOR STANDARDS        04670021
                             00000   683 DX0      EQU   0                                                        04680021
                             00000   684 LX0      EQU   0                                                        04690021
                             00001   685 DX1      EQU   1                                                        04700021
                             00001   686 NX1      EQU   1                                                        04710021
                             00001   687 LX1      EQU   1                                                        04720021
                             00002   688 DX2      EQU   2                                                        04730021
                             00002   689 NX2      EQU   2                                                        04740021
                             00002   690 LX2      EQU   2                                                        04750021
                             00003   691 DX3      EQU   3                                                        04760021
                             00003   692 NX3      EQU   3                                                        04770021
                             00003   693 LX3      EQU   3                                                        04780021
                             00004   694 DX4      EQU   4                                                        04790021
                             00004   695 NX4      EQU   4                                                        04800021
                             00004   696 LX4      EQU   4                                                        04810021
                             00005   697 DX5      EQU   5                                                        04820021
                             00005   698 NX5      EQU   5                                                        04830021
                             00005   699 LX5      EQU   5                                                        04840021
                             00006   700 DX6      EQU   6                                                        04850021
                             00006   701 NX6      EQU   6                                                        04860021
                             00006   702 LX6      EQU   6                                                        04870021
                             00007   703 DX7      EQU   7                                                        04880021
                             00007   704 NX7      EQU   7                                                        04890021
                             00007   705 LX7      EQU   7                                                        04900021
                             00008   706 DX8      EQU   8                                                        04910021
                             00008   707 NX8      EQU   8                                                        04920021
                             00008   708 LX8      EQU   8                                                        04930021
                             00009   709 DX9      EQU   9                                                        04940021
                             00009   710 NX9      EQU   9                                                        04950021
                             00009   711 LX9      EQU   9                                                        04960021
                             0000A   712 DX10     EQU   10                                                       04970021
                             0000A   713 NX10     EQU   10                                                       04980021
                             0000A   714 LX10     EQU     10                                                     04990021
                             0000B   715 DX11     EQU   11                                                       05000021
                             0000B   716 NX11     EQU   11                                                       05010021
                             0000C   717 DX12     EQU   12                                                       05020021
                             0000C   718 NX12     EQU   12                                                       05030021
1PH60     IKFCBL60                                                                                              PAGE   16
-  LOC  OBJECT CODE    ADDR1 ADDR2  STMT   SOURCE STATEMENT                                       ASM 0201 11.03 02/14/15
0                            0000D   719 DX13     EQU   13                                                       05040021
                             0000D   720 NX13     EQU   13                                                       05050021
                             0000E   721 DX14     EQU   14                                                       05060021
                             0000F   722 DX15     EQU   15                                                       05070021
                             0000F   723 NX15     EQU   15                                                       05080021
                             00010   724 DX16     EQU   16                                                       05090021
                             00010   725 LX16     EQU   16                                                       05100021
                             00011   726 LX17     EQU   17                                                       05110021
                             00012   727 DX18     EQU   18                                                       05120021
                             0000A   728 PTY10    EQU   10                                                  2963 05130021
                             00012   729 NX18     EQU   18                                                       05140021
                             00012   730 LX18     EQU   18                                                       05150021
                             00013   731 NX19     EQU   19                                                       05160021
                             00013   732 LX19     EQU   19                                                       05170021
                             00014   733 DX20     EQU   20                                                       05180021
                             00014   734 LX20     EQU   20                                                       05190021
                             00016   735 LX22     EQU   22                                                       05200021
                             00018   736 DX24     EQU   24                                                       05210021
                             00018   737 LX24     EQU   24                                                       05220021
                             00019   738 NX25     EQU   25                                                       05230021
                             0001B   739 LX27     EQU   27                                                       05240021
                             0001C   740 DX28     EQU   28                                                       05250021
                             0001C   741 LX28     EQU   28                                                       05260021
                             0001D   742 LX29     EQU   29                                                       05270021
                             00028   743 NX40     EQU   40                                                       05280021
                             0002A   744 LX42     EQU   42                                                       05290021
                             0002C   745 NX44     EQU   44                                                       05300021
                             0002D   746 LX45   EQU   45                                                         05310021
                             0002F   747 NX47     EQU   47                                                       05320021
                             00032   748 NX50     EQU   50                                                       05330021
                             00037   749 DX55     EQU   55                                                       05340021
                             00038   750 DX56     EQU   56                                                       05350021
                             00038   751 NX56     EQU   56                                                       05360021
                             0003C   752 DX60     EQU   60                                                       05370021
                             00040   753 DX64     EQU   64                                                       05380021
                             00040   754 LX64     EQU   64                                                       05390021
                             00048   755 DX72     EQU   72                                                       05400021
                             00048   756 NX72     EQU   72                                                       05410021
                             0004B   757 LX75     EQU   75                                                       05420021
                             0004C   758 DX76     EQU   76                                                       05430021
                             0004C   759 NX76     EQU   76                                                       05440021
                             0004F   760 NX79     EQU   79                                                       05450021
                             0004F   761 LX79   EQU   79                                                         05460021
                             00050   762 DX80     EQU   80                                                       05470021
                             00054   763 DX84     EQU   84                                                       05480021
                             00058   764 DX88     EQU   88                                                       05490021
                             0005B   765 NX91     EQU   91                                                       05500021
                             0005B   766 LX91     EQU   91                                                       05510021
                             0005C   767 DX92     EQU   92                                                       05520021
                             0005C   768 NX92     EQU   92                                                       05530021
                             0005E   769 DX94     EQU   94                                                       05540021
                             0005F   770 LX95     EQU   95                                                       05550021
                             00060   771 DX96     EQU   96                                                       05560021
                             0006D   772 LX109    EQU   109                                                      05570021
                             0006E   773 LX110    EQU   110                                                47939 05580021
1PH60     IKFCBL60                                                                                              PAGE   17
-  LOC  OBJECT CODE    ADDR1 ADDR2  STMT   SOURCE STATEMENT                                       ASM 0201 11.03 02/14/15
0                            00077   774 LX119    EQU   119                                                      05590021
                             00078   775 DX120    EQU   120                                                      05600021
                             00100   776 DX256    EQU   256                                                      05610021
                             00144   777 DX324    EQU   324                                                      05620021
                             00190   778 DX400    EQU   400                                                      05630021
                             00194   779 DX404    EQU   404                                                      05640021
                             001A0   780 DX416    EQU   416                                                      05650021
                             001A6   781 DX422    EQU   422                                                      05660021
                             001A7   782 DX423    EQU   423                                                      05670021
                             001B4   783 DX436    EQU   436                                                      05680021
                             0000C   784 XX0C     EQU   X'0C'                                                    05690021
                             00004   785 XX04     EQU   X'04'                                                    05700021
                             00000   786 XX00     EQU   X'00'                                                    05710021
                             00010   787 XX10     EQU   X'10'                                                    05720021
                             00040   788 XX40     EQU   X'40'                                                    05730021
                             00020   789 XX20     EQU   X'20'                                                    05740021
                             00001   790 XX01     EQU   X'01'                                                    05750021
                             000C0   791 XXC0     EQU   X'C0'                                                    05760021
                             00080   792 XX80     EQU   X'80'                                                    05770021
                             0000F   793 XX0F     EQU   X'0F'                                                    05780021
                             00002   794 XX02     EQU   X'02'                                                    05790021
                             00003   795 XX03     EQU   X'03'                                                    05800021
                             0000B   796 XX0B     EQU   X'0B'                                                    05810021
                             0000A   797 XX0A     EQU   X'0A'                                                    05820021
                             00058   798 XX58     EQU   X'58'                                                    05830021
                             00041   799 XX41     EQU   X'41'                                                    05840021
                             000EC   800 XXEC     EQU   X'EC'                                                    05850021
                             00068   801 XX68     EQU   X'68'                                                    05860021
                             0002C   802 XX2C     EQU   X'2C'                                                    05870021
                             0007C   803 XX7C     EQU   X'7C'                                                    05880021
                             0000D   804 XX0D     EQU   X'0D'                                                    05890021
                             000DF   805 XXDF     EQU   X'DF'                                                    05900021
                             00077   806 XX77     EQU   X'77'                                                    05910021
                             0007F   807 XX7F     EQU   X'7F'                                               0657 05920021
                             00086   808 XX86     EQU   X'86'                                                    05930021
                             00091   809 XX91     EQU   X'91'                                                    05940021
                             00098   810 XX98     EQU   X'98'                                                    05950021
                             00088   811 XX88     EQU   X'88'                                                    05960021
                             00090   812 XX90     EQU   X'90'                                                    05970021
                             00084   813 XX84     EQU   X'84'                                                    05980021
                             00097   814 XX97     EQU   X'97'                                                    05990021
                             00093   815 XX93     EQU   X'93'                                                    06000021
                             000CF   816 XXCF     EQU   X'CF'                                                    06010021
                             000EF   817 XXEF     EQU   X'EF'                                                    06020021
                             00005   818 XX05     EQU   X'05'                                                    06030021
                             00034   819 XX34     EQU   X'34'                                                    06040021
                             00030   820 XX30     EQU   X'30'                                                    06050021
                             00006   821 XX06     EQU   X'06'                                                    06060021
                             00050   822 XX50     EQU   X'50'                                               2962 06070021
                             000F1   823 XC1      EQU   C'1'                                                     06080021
                             000F2   824 XC2      EQU   C'2'                                                     06090021
                             000F3   825 XC3      EQU   C'3'                                                     06100021
                             000F4   826 XC4      EQU   C'4'                                                     06110021
1PH60     IKFCBL60                                                                                              PAGE   18
-  LOC  OBJECT CODE    ADDR1 ADDR2  STMT   SOURCE STATEMENT                                       ASM 0201 11.03 02/14/15
0                                    828 *=1                     MEMORY MAP                                      06130021
                                     829 *      PHASE 6 INITIALIZATION                                           06140021
                             0000C   830        USING PHASE6,R1                                                  06150021
0
                                     832 *      TGT-SGT INITIALIZATION (COMMON AND COMTBL)                       06170021
                             002E2   833        USING TGTINT,R1                                                  06180021
0
                                     835 *      PGT INITIALIZATION                                               06200021
                             00A78   836        USING PGTINT,R1                                                  06210021
                             01056   837        USING ENO090,R1                                                  06220021
                             01164   838        USING ENO100,R1                                                  06230021
0
                                     840 *      PROCESS PROCEDURE NAME USAGE TABLE                               06250021
                             00AD6   841        USING PNUPRO,R1                                                  06260021
0
                                     843 *      OPTIMIZATION A-TEXT PROCESSING                                   06280021
                             00B8E   844        USING PRFTWO,R1                                                  06290021
                                     845 *                   LITERALS                                            06300021
                             00D7A   846        USING LTLRTN,R1                                                  06310021
                                     847 *                   VIRTUALS                                            06320021
                             00EBC   848        USING VIRRTN,R1                                                  06330021
                                     849 *                   GN EQUATE STRINGS                                   06340021
                             00F8E   850        USING GNEQUR,R1                                                  06350021
                                     851 *                   PN EQUATE STRINGS                                   06360021
                             00FD4   852        USING PNEQUR,R1                                                  06370021
                                     853 *                   RESOLVE EQUATED BRANCH POINTS                       06380021
                             00FEC   854        USING ENOPAT,R1                                                  06390021
0
                                     856 *      PROCEDURE A-TEXT PROCESSING                                      06410021
                             01AC8   857        USING SE6000,R1                                                  06420021
                                     858 *                   OPS AND ASSOCIATED ELEMENTS                         06430021
                             01AF4   859        USING R6010,R1                                                   06440021
                                     860 *                   PROCEDURE NAME DEFS                                 06450021
                             02352   861        USING PNDEFR,R1                                                  06460021
                                     862 *                   GENERATED NAME DEFS                                 06470021
                             02408   863        USING GNDEFR,R1                                                  06480021
                                     864 *                   ALTERED NAME DEFS                                   06490021
                             0242E   865        USING VNDEFR,R1                                                  06500021
                                     866 *                   MACRO ELEMENTS                                      06510021
                             024F8   867        USING MACPRO,R1                                                  06520021
                                     868 *                                  ENTRY                                06530021
                             02504   869        USING MAC010,R1                                                  06540021
                                     870 *                                  START                                06550021
                             02580   871        USING MAC080,R1                                                  06560021
                                     872 *                                  IDENTIFY                             06570021
                             025A6   873        USING MAC070,R1                                                  06580021
                                     874 *                                  BLCHNG                               06590021
                             025D4   875        USING MAC020,R1                                                  06600021
                                     876 *                                  DC                                   06610021
                             02634   877        USING MAC090,R1                                                  06620021
1PH60     IKFCBL60                                                                                              PAGE   19
-  LOC  OBJECT CODE    ADDR1 ADDR2  STMT   SOURCE STATEMENT                                       ASM 0201 11.03 02/14/15
0                                    878 *                                  ADCON                                06630021
                             0276A   879        USING MAC060,R1                                                  06640021
                                     880 *                                  RESERVE                              06650021
                             02CE4   881        USING MAC100,R1                                                  06660021
                                     882 *                                  DESTROY                              06670021
                             02CFC   883        USING MAC120,R1                                                  06680021
                                     884 *                                  FREE                                 06690021
                             02D04   885        USING MAC110,R1                                                  06700021
                                     886 *                                  INITIALIZE                           06710021
                             02D30   887        USING MAC130,R1                                                  06720021
                                     888 *                   PNBCD                                               06730021
                             02E44   889        USING PNBPRO,R1                                                  06740021
                                     890 *                   SPECIAL A-TEXT ELTS INTERNAL TO PHASE 6             06750021
                             02E78   891        USING GENIMM,R1                                                  06760021
                             02E9A   892        USING GENBD,R1                                                   06770021
                             02EB6   893        USING GIDENL,R1                                                  06780021
0
                                     895 *      PROCESS DATA A-TEXT                                              06800021
                             02F1C   896        USING PDATEX,R1                                                  06810021
                                     897 *                   CONDEF                                              06820021
                             03018   898        USING D6CON,R1                                                   06830021
                                     899 *                   DCBADEF                                             06840021
                             030B2   900        USING D6DCB,R1                                                   06850021
                                     901 *                   BLKADEF                                             06860021
                             030E6   902        USING D6BLK,R1                                                   06870021
                                     903 *                   WSADEF                                              06880021
                             030EE   904        USING D6WSA,R1                                                   06890021
                                     905 *                   DECBADEF                                            06900021
                             03100   906        USING D6DECB,R1                                                  06910021
                                     907 *                   SBLDEF                                              06920021
                             0319A   908        USING D6SBL,R1                                                   06930021
                                     909 *                   ACONDEF                                             06940021
                             031E6   910        USING D6ACON,R1                                                  06950021
0
                                     912 *      FILE 4 EOD                                                       06970021
                             0320E   913        USING PDT030,R1                                                  06980021
0
                                     915 *      PROCESS RLD ITEMS                                                07000021
                             0320E   916        USING D6RLT,R1                                                   07010021
0
                                     918 *      GENERATE CHECKPOINT ROUTINE                                      07030021
                             0335A   919        USING PCKPT,R1                                                   07040021
0
                                     921 *      GENERATE INIT2 CODING                                            07060021
                             03364   922        USING GINIT2,R1                                                  07070021
0
                                     924 *      GENERATE INIT3 CODING                                            07090021
                             03386   925        USING GINIT3,R1                                                  07100021
1PH60     IKFCBL60                                                                                              PAGE   20
-  LOC  OBJECT CODE    ADDR1 ADDR2  STMT   SOURCE STATEMENT                                       ASM 0201 11.03 02/14/15
0                                    927 *      GENERATE INIT1                                                   07120021
                             034CE   928        USING GINIT1,R1                                                  07130021
0
                                     930 *      COMPLETE DECK                                                    07150021
                             0355C   931        USING FTER,R1                                                    07160021
0
0
                                     934 *      ERROR ROUTINES                                                   07190021
                             03690   935        USING ERR010,R1                                                  07200021
0
                                     937 *         CONSTANTS                                                     07220021
                             03690   938        USING C6M1,R1                                                    07230021
                             03690   939        USING C6CNST,R1                                                  07240021
                             04169   940        USING S6BNO,R1                                                   07250021
0
                                     942 *         WORK AREAS AND SWITCHES                                       07270021
                                     943 *         PHASE 6 VALUES                                                07280021
                             03DE0   944        USING LOCPGT,R1                                                  07290021
0
                                     946 *         OUTPUT AREA                                                   07310021
                             04514   947        USING OU6REC,R1                                                  07320021
0
                                     949 *              MNEMONIC TABLE                                           07340021
                             0471C   950        USING C6TBL,R1                                                   07350021
0
0
                                     953 *         SUBROUTINES                                                   07380021
                                     954 *                   CONVERT TO PRINTED HEX                              07390021
                             04A20   955        USING S6010,R1                                                   07400021
                                     956 *                   CONVERT TO PRINTED DECIMAL                          07410021
                             04A5E   957        USING S6200,R1                                                   07420021
                                     958 *                   FORMAT AND PRINT LISTING LINE                       07430021
                             04B00   959        USING S6800,R1                                                   07440021
0
                                     961 *            GETS AND PUTS                                              07460021
                                     962 *                            GET F1 (PROCEDURE A-TEXT)                  07470021
                             0508C   963        USING GET,R1                                                     07480021
                             05162   964        USING SAVGET,R1                                                  07490021
                             05190   965        USING RESGET,R1                                                  07500021
                                     966 *                   GET RELATIVE PN OR GN NUMBER                        07510021
                             051BE   967        USING GETPN,R1                                                   07520021
                             051F6   968        USING GETGN,R1                                                   07530021
                                     969 *                   GET F4  (LISTING TEXT, DATA A-TEXT, E-TEXT)         07540021
                             05218   970        USING GETF4,R1                                                   07550021
                                     971 *                   PUT ROUTINE                                         07560021
1PH60     IKFCBL60                                                                                              PAGE   21
-  LOC  OBJECT CODE    ADDR1 ADDR2  STMT   SOURCE STATEMENT                                       ASM 0201 11.03 02/14/15
0                            054DE   972        USING PUT,R1                                                     07570021
                             054E4   973        USING PUTM,R1                                                    07580021
                                     974 *                   PUNCH TEXT                                          07590021
                             05570   975        USING TXPNCH,R1                                                  07600021
                                     976 *                   PUNCH ESD                                           07610021
                             05758   977        USING ESDCRD,R1                                                  07620021
                                     978 *                   PUNCH RLD                                           07630021
                             058B0   979        USING RLDCRD,R1                                                  07640021
                                     980 *                   FORMAT AND PRINT PGT/TGT MAP                        07650021
                             05A80   981        USING MAPLOC,R1                                                  07660021
0
                                     983 *            REGISTER ASSIGNMENT ROUTINES                               07680021
                                     984 *                   GENERATE A LOAD OF A BASE LOCATOR                   07690021
                             05B10   985        USING GENLD,R1                                                   07700021
                                     986 *                   SEARCH FOR AN ASSIGNED OR AVAILABLE REGISTER        07710021
                             05D10   987        USING SRCHR,R1                                                   07720021
                             05DFA   988        USING SRCHG,R1                                                   07730021
                                     989 *                   GENERATE LOADS OF PERMANENTLY ASSIGNED REGISTER     07740021
                             05E44   990        USING INITR,R1                                                   07750021
                                     991 *                   SET UP PERMANENT REGISTER ASSIGNMENTS               07760021
                             05EF0   992        USING USING,R1                                                   07770021
                             05FE2   993        USING ASSIGN,R1                                                  07780021
0
                                     995 *              STATISTICS ROUTINE                                       07800021
                             061A0   996        USING PRSTAT,R1                                                  07810021
0
                                     998 *      SYMBOLIC OPERAND TABLE                                           07830021
                             066FE   999        USING XSYMC,R1                                                   07840021
0
                                    1001 *      A-TEXT FOR INIT1                                                 07860021
                             06792  1002        USING INIT1,R1                                                   07870021
0
0
                                    1005 *      A-TEXT FOR INIT2                                                 07900021
                             06868  1006        USING INIT2,R1                                                   07910021
0
                                    1008 *      ADCON LISTING ELEMENTS                                           07930021
                             06981  1009        USING RLTBL,R1                                                   07940021
0
                                    1011 *      CNOP  TABLE                                                      07960021
                             06A3E  1012        USING CNOPT,R1                                                   07970021
0
                                    1014 *         COMPILER COMMON DEFINITION                                    07990021
                             00000  1015        USING COS,R1                                                     08000021
0
1PH60     IKFCBL60                                                                                              PAGE   22
-  LOC  OBJECT CODE    ADDR1 ADDR2  STMT   SOURCE STATEMENT                                       ASM 0201 11.03 02/14/15
0                                   1017 *         INPUT AREA                                                    08020021
                             00000  1018        USING A6TEXT,R1                                                  08030021
                                    1019        DROP  R1                                                         08040021
1PH60     IKFCBL60                                                                                              PAGE   23
-  LOC  OBJECT CODE    ADDR1 ADDR2  STMT   SOURCE STATEMENT                                       ASM 0201 11.03 02/14/15
0                                   1021 *=1    PHASE 6 INITIALIZATION                                           08060021
                                    1022 *=                                                                      08070021
                             00258  1023 PHASIX EQU *                                                            08080021
                                    1024 *                                                                       08090021
                                    1025 *                                                                       08100021
                                    1026 *                                                                       08110021
                                    1027 *                                                                       08120021
 000258                             1028        DS    0H                                                         08130021
 00000A                             1029 IKF601   CSECT                                                          08140021
 00000A 0700                        1030        CNOP  0,4                                                        08150021
                             0000C  1031 PH6    EQU   *                                                          08160021
                             0000C  1032 PHASE6   EQU   *                                                        08170021
                             0000C  1033 IKFCBL60 EQU   PH6                                                      08180021
 00000C 90EC D00C      0000C        1034          STM   RS1,RB4,DX12(R13)  SAVE REGISTERS IN PH0 SAVE AREA       08190021
 000010 182D                        1035        LR    R2,R13             SAVE ADDR OF PH0 SAVE AREA IN R2        08200021
 000012 05F0                        1036        BALR  R15,R0                BRANCH TO PH0                        08210021
 000014 47FF 0008      00008        1037          BC    UNCOND,DX8(R15)     SKIP AROUND DC                       08220021
 000018 00003D98                    1038        DC    A(PH6SAV)                                                  08230021
 00001C 58DF 0004      00004        1039          L     R13,DX4(R15)      SET R13 TO ADDR OF PHASE  SAVE AREA    08240021
 000020 50ED 000C      0000C        1040          ST    RS1,DX12(R13)     SAVE SYSTEM RETURN ADR IN PHASE SV     08250021
 000024 502D 0004      00004        1041          ST    R2,DX4(R13)       PUT PTR TO PH0 SV AREA IN PHASE SV     08260021
 000028 50D2 0008      00008        1042          ST    R13,DX8(R2)       PUT PTR TO PHASE SV AREA IN PH0 SV     08270021
 00002C 0580                        1043          BALR  RB1,R0              BRANCH TO PH0                        08280021
                             0002E  1044        USING *,RB1                                                      08290021
                             00A78  1045        USING PGTINT,RB3                                                 08300021
                             03690  1046        USING ERR010,RB4       EVENTUALLY ONLY CONST AND DATA AREA       08310021
                             03D98  1047          USING  PH6SAV,R13            CONSTANTS ONLY                    08320021
                             00000  1048          USING A6TEXT,INPUTR  REGISTER FOR INPUT                        08330021
                             00000  1049        USING COS,RB2                                                    08340021
                             0002E  1050 FIRST  EQU   *                                                          08350021
 00002E 58A0 8266      00294        1051        L     RB3,ADSCT1                                                 08360021
 000032 58C0 826A      00298        1052        L     RB4,ADCNST                                                 08370021
 000036 5821 0000      00000        1053          L     R2,DX0(R1)     PICK UP COSADR                            08380021
 00003A 5020 D0BC      03E54        1054        ST    R2,COSADR                                                  08390021
 00003E 5810 8262      00290        1055        L     R1,ABGPH6                                                  08400021
 000042 0502                        1056        BALR  R0,R2                 BR TO PH0                            08410021
 000044 06                          1057        DC    X'06'                 READ SYSLST FILE                     08420021
 000045 00
 000046 5860 C65C      03CEC        1058        L     RW1,APNUTB        RELOCATE PNUTBL ADCON                    08430021
 00004A 1E62                        1059        ALR   RW1,R2                                                     08440021
 00004C 5060 C65C      03CEC        1060        ST    RW1,APNUTB                                                 08450021
 000050 5890 D0BC      03E54        1061        L     RB2,COSADR                                                 08460021
 000054 0509                        1062        BALR  R0,RB2                BR TO PH0                            08470021
 000056 D6                          1063          DC    X'D6'               PAGE EJECT                           08480021
 000057 00
 000058 94BF 9182      00182        1064          NI    SWITCH,INITNO6A           INITIALIZE NO6A                08490021
-
0
                                    1066 *      COS IS HANDLING COMTBL                                           08510021
                                    1067 * SEE IF ERROR MESSAGE LIST RUN                                         08520021
 00005C D507 9150 C3CA 00150 03A5A  1068          CLC   PROGID(LX8),EMESLS                                       08530021
 000062 4780 8084      000B2        1069          BC    EQ,BYPASS6          YES, PROGID IS ERROR MESSAGE         08540021
1PH60     IKFCBL60                                                                                              PAGE   24
-  LOC  OBJECT CODE    ADDR1 ADDR2  STMT   SOURCE STATEMENT                                       ASM 0201 11.03 02/14/15
0000066 950C 91A2      001A2        1070          CLI   ERRSEV,ELEVEL       HAS AN E-LEVEL DIAGNOSTIC OCCU       08550021
 00006A 4740 8048      00076        1071          BC    LO,TSTNOOP          NO                                   08560021
 00006E 9102 91A4      001A4        1072          TM    PHZSW1,MAPSP        YES - IS MAP SUPPRESS ON             08570021
 000072 4710 80AC      000DA        1073          BC    ONES,MSGMS          YES - PRINT MSG & TURN OFF OPTIO     08580021
 000076                             1074 TSTNOOP  DS    0H                                                       08590021
 000076 9170 91A3      001A3        1075          TM    PHZSW,NO6OP         NO  - SEE IF ANY O/P NEEDED          08600021
 00007A 4770 80F2      00120        1076          BC    NOTZER,NORMAL       O/P WANTED - PROCESS NORMALLY        08610021
 00007E 91C0 91A4      001A4        1077          TM    PHZSW1,NO6OP2                  OR                        08620021
 000082 4770 80F2      00120        1078          BC    NOTZER,NORMAL       O/P WANTED - PROCESS NORMALLY        08630021
                                    1079 *  JUST PRINT STATISTICS - BYPASS REST OF PHASE 6                       08640021
 000086 58F0 C510      03BA0        1080          L     R15,APRSTAT                                              08650021
 00008A 05EF                        1081          BALR  RS1,R15             GO PRINT STATISTICS                  08660021
 00008C                             1082 NOOPTST  DS    0H                                                       08670021
 00008C 96FF 91C2      001C2        1083          OI    ERF4SW,ERF4ON       PH7 TO PRINT ERROR MSG               08680021
 000090 9504 91A2      001A2        1084          CLI   ERRSEV,WLEVEL       DO WE WANT PH7                       08690021
 000094 4720 8084      000B2        1085          BC    HI,BYPASS6          YES - C LEVEL ERROR                  08700021
 000098 4780 807C      000AA        1086          BC    EQ,TESTFL           W LEVEL - GO TEST FLAG E OR W        08710021
 00009C 9400 91C2      001C2        1087          NI    ERF4SW,ERF4SEQ      PH7 ONLY PRINT SEQUENCE ERRORS       08720021
 0000A0 1B77                        1088          SR    RW2,RW2             NO ERRORS - CHECK SEQ                08730021
 0000A2 4970 9180      00180        1089          CH    RW2,SEQERR                                               08740021
 0000A6 4780 809C      000CA        1090          BC    EQ,NOPH7            NO SEQ ERRORS THUS NO PHASE 7        08750021
 0000AA                             1091 TESTFL   DS    0H                                                       08760021
 0000AA 9104 91A3      001A3        1092          TM    PHZSW,FLGWRN                                             08770021
 0000AE 4780 809C      000CA        1093          BC    ZERO,NOPH7          FLAGE - DON'T WANT PHASE 7           08780021
 0000B2                             1094 BYPASS6  DS    0H                                                       08790021
 0000B2 9603 9183      00183        1095          OI    SWITCH+NX1,F4ANDPH7  TO INDICATE TO PH6A TO CALL PH7     08800021
 0000B6                             1096 PASS6BY  DS    0H                                                       08810021
 0000B6 91FF C522      03BB2        1097          TM    P6ESW,P6ERR         AND READ F4                          08820021
 0000BA 4780 8094      000C2        1098          BC    ZERO,PASSBY6        NO INTERNAL ERROR IN PH6             08830021
 0000BE 9210 91A2      001A2        1099          MVI   ERRSEV,DLEVEL       DO IF PH6 LOGIC ERROR                08840021
 0000C2                             1100 PASSBY6  DS    0H                                                       08850021
 0000C2 4110 D0BC      03E54        1101        LA    R1,COSADR                                                  08860021
 0000C6 0509                        1102        BALR  R0,RB2                BR TO PH0 TO ISSUE MACRO TO          08870021
 0000C8 A0                          1103        DC    X'A0'                 TERMINATE PHASE                      08880021
 0000CA                             1104 NOPH7    DS    0H                  PHASE 7 WILL NOT BE CALLED           08890021
 0000CA 91FF C522      03BB2        1105          TM    P6ESW,P6ERR                                              08900021
 0000CE 4780 80A8      000D6        1106          BC    ZERO,NOPH75         NO PHASE6 ERROR                      08910021
 0000D2 9210 91A2      001A2        1107          MVI   ERRSEV,DLEVEL       DO IF PH6 LOGIC ERROR                08920021
 0000D6                             1108 NOPH75   DS    0H                                                       08930021
 0000D6 0509                        1109          BALR  R0,RB2              BR TO PHASE0                         08940021
 0000D8 B0                          1110          DC    X'B0'               RETURN TO SYSTEM                     08950021
                                    1111 *  ROUTINE TO HANDLE MAP SUPPRESSION                                    08960021
 0000DA                             1112 MSGMS    DS    0H                                                       08970021
 0000DA 948F 91A3      001A3        1113          NI    PHZSW,NO6OPR        TURN OFF OPTIONS FOR STATISTICS      08980021
 0000DE 94BF 91A4      001A4        1114          NI    PHZSW1,CLISTR                                            08990021
 0000E2 9102 9182      00182        1115           TM    SWITCH,NO6A         HAS PH6 SET ERROR SW                09000021
 0000E6 4710 80C4      000F2        1116          BC    ONES,MSGM1         YES, DON'T DO PH6 AGAIN FOR XREF      09010021
 0000EA 9180 91A4      001A4        1117          TM    PHZSW1,XREF         PROCESS PH6 FOR XREF (WITH NO O/     09020021
 0000EE 4710 80F2      00120        1118          BC    ONES,NORMAL         BUT RETURN HERE LATER                09030021
                             000F2  1119 MSGM1    EQU   *                  NO6A SO PRETEND NO XREF               09040021
 0000F2 9601 9183      00183        1120          OI    SWITCH+NX1,RDERRFIL                                      09050021
 0000F6                             1121 MSGMS1   DS    0H                                                       09060021
 0000F6 58F0 C510      03BA0        1122          L     R15,APRSTAT                                              09070021
 0000FA 05EF                        1123          BALR  RS1,R15             GO PRINT STATISTICS                  09080021
 0000FC 9602 9183      00183        1124          OI    SWITCH+NX1,DOPH7                                         09090021
1PH60     IKFCBL60                                                                                              PAGE   25
-  LOC  OBJECT CODE    ADDR1 ADDR2  STMT   SOURCE STATEMENT                                       ASM 0201 11.03 02/14/15
0                                   1125 *  PRINT MESSAGE FOR SUPPRESSING MAP                                    09100021
 000100 D26D D77D C142 04515 037D2  1126          MVC   OU6CDN(LX110),MSMSG                                47939 09110021
 000106 58E0 C498      03B28        1127          L     RS1,APUTM                                                09120021
 00010A 58F0 C460      03AF0        1128          L     R15,APUT                                                 09130021
 00010E 05EE                        1129          BALR  RS1,RS1             PRINT MESSAGE                        09140021
 000110 91FF C522      03BB2        1130          TM    P6ESW,P6ERR                                              09150021
 000114 4710 805E      0008C        1131          BC    ONES,NOOPTST        PH6 INTERNAL ERROR                   09160021
 000118 96FF 91C2      001C2        1132          OI    ERF4SW,ERF4ON       PH7 TO PRINT ERROR MSG               09170021
 00011C 47F0 8088      000B6        1133          BC    UNCOND,PASS6BY      TO TERMINATE PH6                     09180021
 000120                             1134 NORMAL DS    0H                                                         09190021
                                    1135 *      INITIALIZE RLDCRD SWITCHES                                       09200021
 000120 9400 D56D      04305        1136          NI    RLDIF,RLDNO         RLD NOT YET CREATED                  09210021
 000124 9400 D56E      04306        1137          NI    RLDONE,RLDFST       FIRST TIME                           09220021
 000128 9400 D56F      04307        1138          NI    RLDFSW,RLDNOFRC     NOT FORCE                            09230021
                                    1139 *    INITIALIZE GETF4 SWITCH                                            09240021
 00012C 92A0 D116      03EAE        1140          MVI   F4SW,F4BLKLST       NEWBLOCK,F4REG, LISTING TEXT         09250021
                                    1141 *                                                                       09260021
                                    1142 *      INITIALIZE LINK EDIT PUNCH CARD SERIAL NUMBER                    09270021
                                    1143 *                                                                       09280021
 000130 F820 D130 C038 03EC8 036C8  1144          ZAP   CRDNUM(LX3),C6P0                                         09290021
 000136 9540 9150      00150        1145          CLI   PROGID,BLANK        IS PROGRAM NAME BLANK                09300021
 00013A 4770 811A      00148        1146        BC    NOTEQ,PROGOK          NO,BR                                09310021
 00013E 9620 D0FD      03E95        1147          OI    SEGSW,SEGNMBLK      YES, SET ASSWITCH                    09320021
 000142 D207 9150 87CB 00150 007F9  1148          MVC   PROGID(LX8),NOID    GENERATE A NAME                      09330021
 000148 95FF 91D0      001D0        1149 PROGOK   CLI   SEGLMT,NOTSEGTD     IS SOURCE PROGRAM SEGMENTED          09340021
 00014C 4780 81C4      001F2        1150          BC    EQ,NORMA1           NO, BR                               09350021
 000150 5860 C6D8      03D68        1151        L     RW1,ASGTBL            RELOCATE SEGTBL ADCON                09360021
 000154 1E69                        1152        ALR   RW1,RB2                                                    09370021
 000156 5060 C6D8      03D68        1153        ST    RW1,ASGTBL                                                 09380021
                                    1154 *  SORT SEGTBL BY PRIORITY NUMBER                                       09390021
 00015A 5810 C6D8      03D68        1155        L     R1,ASGTBL                                                  09400021
 00015E 58F0 C4AC      03B3C        1156        L     R15,ATABLE                                                 09410021
 000162 05EF                        1157        BALR  RS1,R15               GET STARTING ADDR(R1),AND SIZE(R     09420021
 000164 1861                        1158        LR    RW1,R1                                                     09430021
 000166 4151 2000      00000        1159          LA    RW3,DX0(R1,R2)       END OF SEGTBL+1                     09440021
 00016A 4176 0005      00005        1160 SEG00    LA    RW2,DX5(RW1)         COMPARE ADDR                        09450021
 00016E 1965                        1161        CR    RW1,RW3               ALL DONE                             09460021
 000170 47B0 8178      001A6        1162        BC    NOTLO,SEG20           YES,BR                               09470021
 000174 1975                        1163 SEG02  CR    RW2,RW3               IS CURRENT PASS FINISHED             09480021
 000176 4740 8154      00182        1164        BC    LO,SEG06              NO,BR                                09490021
 00017A 4166 0005      00005        1165          LA    RW1,DX5(RW1)         YES,START A NEW PASS                09500021
 00017E 47F0 813C      0016A        1166          B     SEG00               START A NEW PASS                     09510021
 000182 D500 6000 7000 00000 00000  1167 SEG06    CLC   DX0(LX1,RW1),DX0(RW2) ARE ENTRIES ALREADY ORDERED        09520021
 000188 47D0 8170      0019E        1168        BC    NOTHI,SEG10           YES,BR                               09530021
 00018C D204 D3BC 6000 04154 00000  1169          MVC   HOLD(LX5),DX0(RW1)    SWAP                               09540021
 000192 D204 6000 7000 00000 00000  1170          MVC   DX0(LX5,RW1),DX0(RW2)                                    09550021
 000198 D204 7000 D3BC 00000 04154  1171          MVC   DX0(LX5,RW2),HOLD                                        09560021
 00019E 4177 0005      00005        1172 SEG10    LA    RW2,DX5(RW2)                                             09570021
 0001A2 47F0 8146      00174        1173        B     SEG02                 CHECK CURRENT PASS                   09580021
 0001A6                             1174 SEG20  DS    0H                                                         09590021
 0001A6 1861                        1175        LR    RW1,R1                                                     09600021
 0001A8 4151 2000      00000        1176          LA    RW3,DX0(R1,R2)       END OF SEGTBL+1                     09610021
 0001AC 1B77                        1177        SR    RW2,RW2               INITIALIZE CTR OF NON-RES SEGS       09620021
 0001AE 1965                        1178 SEG22  CR    RW1,RW3               ALL DONE                             09630021
 0001B0 47B0 81AE      001DC        1179        BC    NOTLO,SEG26           YES,BR                               09640021
1PH60     IKFCBL60                                                                                              PAGE   26
-  LOC  OBJECT CODE    ADDR1 ADDR2  STMT   SOURCE STATEMENT                                       ASM 0201 11.03 02/14/15
00001B4 9500 6000      00000        1180          CLI   DX0(RW1),XX00        IGNORE SEGMENTS OF PTY 0            09650021
 0001B8 4770 8196      001C4        1181          BC    NOTEQ,SEG24         IGNORE SEGMENT OF PTY ZERO           09660021
 0001BC 4166 0005      00005        1182 SEG23    LA    RW1,DX5(RW1)         POINT TO NEXT ENTRY                 09670021
 0001C0 47F0 8180      001AE        1183        B     SEG22                 CHECK IF ALL DONE                    09680021
 0001C4 D500 D0FE 6000 03E96 00000  1184 SEG24    CLC   CURPTY(LX1),DX0(RW1)  ARE PTY NMBRS EQUAL                09690021
 0001CA 4780 818E      001BC        1185          BC    EQ,SEG23            YES, BR                              09700021
 0001CE 4177 0001      00001        1186          LA    RW2,DX1(RW2)         UPDATE CTR                          09710021
 0001D2 D200 D0FE 6000 03E96 00000  1187          MVC   CURPTY(LX1),DX0(RW1)                                     09720021
 0001D8 47F0 818E      001BC        1188        B     SEG23                 GO POINT TO NEXT ENTRY               09730021
 0001DC 4070 D066      03DFE        1189 SEG26  STH   RW2,SEGCTR            SAVE                                 09740021
 0001E0 94DF D0FD      03E95        1190          NI    SEGSW,SEGNMOK       RESET SW, SEG NAME NOT BLANK         09750021
 0001E4 58F0 C454      03AE4        1191        L     R15,AESD              GET ADDR. OF PUNCH RTN               09760021
 0001E8 41E0 81E0      0020E        1192        LA    RS1,SE5091            SPECIFY RETURN ADDR                  09770021
 0001EC 9640 D0FD      03E95        1193          OI    SEGSW,SEGNSRT       SET SW TO PUNCH INSERT CARD          09780021
 0001F0 07FF                        1194        BR    R15                   BR TO PUNCH                          09790021
                             001F2  1195 NORMA1 EQU   *                     NORMAL PROCESSING-NO SEGMENTATIO     09800021
1PH60     IKFCBL60                                                                                              PAGE   27
-  LOC  OBJECT CODE    ADDR1 ADDR2  STMT   SOURCE STATEMENT                                       ASM 0201 11.03 02/14/15
0                                   1197 *                                                                       09820021
                                    1198 *=1    PUNCH ESD CARD FOR CSECT                                         09830021
                                    1199 *                                                                       09840021
 0001F2 4100 0000      00000        1200          LA    R0,ESDTYP0          CSECT, TYPE 0 ESD                    09850021
 0001F6 1B00                        1201        SR    R0,R0                 SPECIFY TYPE=0                       09860021
 0001F8 9120 D0FD      03E95        1202          TM    SEGSW,SEGNMBLK      WAS PROGRAM NAME INITLY BLANK        09870021
 0001FC 4780 81D6      00204        1203        BC    ZERO,SE5090           NO,BR                                09880021
 000200 4100 0004      00004        1204          LA    R0,ESDTYP4          TYPE 4 ESD                           09890021
 000204 4110 9150      00150        1205 SE5090 LA    R1,PROGID         NAME OF PROGRAM                          09900021
 000208 58F0 C454      03AE4        1206        L     R15,AESD                                                   09910021
 00020C 05EF                        1207        BALR  RS1,R15               PUNCH ESD CARD                       09920021
0
                                    1209 * INITIALIZE PROGID DC FOR INIT1.                                       09940021
                             0020E  1210 SE5091 EQU   *                                                          09950021
 00020E D207 D142 9150 03EDA 00150  1211          MVC   DCPRID(LX8),PROGID                                       09960021
0
 000214                             1213 SE5110 DS    0H                                                         09980021
0
                                    1215 *     INITIALIZE E-TEXT SWITCH                                          10000021
 000214 9400 91C2      001C2        1216          NI    ERF4SW,ERF4SEQ      NO ERRORS YET                        10010021
0
                                    1218 *      INITIALIZE SWITCHES AND COUNTS                                   10030021
                                    1219 *                                                                       10040021
 000218 1B66                        1220        SR    RW1,RW1                                                    10050021
 00021A 4060 D070      03E08        1221        STH   RW1,GETLEN                                                 10060021
 00021E 4060 D0CA      03E62        1222        STH   RW1,PNUCTR                                                 10070021
 000222 4060 D0CC      03E64        1223        STH   RW1,RPNCTR                                                 10080021
 000226 4060 91C0      001C0        1224        STH   RW1,RGNCTR                                                 10090021
 00022A 4060 D29C      04034        1225        STH   RW1,NUMBLW                                                 10100021
 00022E 4060 D298      04030        1226        STH   RW1,FRSBLW                                                 10110021
 000232 4060 D14E      03EE6        1227        STH   RW1,ERRCUR                                                 10120021
 000236 9400 D3DB      04173        1228          NI    FGET,FGETNEW        GET NEW BLOCK                        10130021
 00023A 9400 D3D1      04169        1229          NI    S6BNO,S6INIT00      INIT TO DO B1                        10140021
 00023E 9400 D3D3      0416B        1230          NI    S6PLNO,S6INIT00     INIT TO DO D1                        10150021
 000242 9400 D3D4      0416C        1231          NI    VIRTSW,INITOFF      VIRTUAL TABLE KILLED SW(OK NOW       10160021
 000246 9400 D3D5      0416D        1232          NI    QRTNSW,INITOFF      NOT IN QRTNS                         10170021
 00024A 9400 D3D9      04171        1233          NI    RGNSW,INITOFF       NOT DOING INIT CODING                10180021
 00024E 9400 D3D0      04168        1234          NI    DCBSW,INITOFF       NOT PROCESSING FILTBL                10190021
 000252 9400 D3D7      0416F        1235          NI    LOADSW,INITOFF      DON'T GEN LOAD INSTR                 10200021
 000256 9400 D3D6      0416E        1236          NI    NOLOAD,INITOFF      NOT JUST SEARCH                      10210021
 00025A 9400 D3DA      04172        1237        NI  PLUSFT,S6INIT00         NOT ADDR WITH PLUS ELT               10220021
                                    1238 *      INITIALIZE ERROR SWITCHES                                        10230021
0
                                    1240 *      INITIALIZE OTHER AREAS NECESSARY                                 10250021
                                    1241 *                                                                       10260021
 00025E D708 D2EA D2EA 04082 04082  1242          XC    C6OP(LX9),C6OP  INITIALIZE INSTR CREATION AREA           10270021
 000264 5060 D314      040AC        1243        ST    RW1,C6WRK0                                                 10280021
 000268 92F0 D318      040B0        1244          MVI   C6WRK1,MF0                                               10290021
 00026C D207 D319 D318 040B1 040B0  1245          MVC   C6WRK2(LX8),C6WRK1                                       10300021
                                    1246 *                                                                       10310021
1PH60     IKFCBL60                                                                                              PAGE   28
-  LOC  OBJECT CODE    ADDR1 ADDR2  STMT   SOURCE STATEMENT                                       ASM 0201 11.03 02/14/15
0000272 4110 0060      00060        1247          LA    R1,DX96                                                  10320021
 000276 4010 9166      00166        1248        STH   R1,WCMAX         *****                                     10330021
                                    1249 ******                                                                  10340021
 00027A 4860 91B4      001B4        1250        LH    RW1,RPTSAV                                                 10350021
 00027E 1266                        1251        LTR   RW1,RW1                                                    10360021
 000280 4780 825E      0028C        1252        BC    ZERO,TAM033           BR IF REPORT SAVE AREA CELL 0        10370021
 000284 4160 0007      00007        1253          LA    RW1,SEVEN                                                10380021
 000288 4060 91B4      001B4        1254        STH   RW1,RPTSAV                                                 10390021
 00028C                             1255 TAM033 DS    0H                                                         10400021
 00028C 47F0 826E      0029C        1256          BC    UNCOND,HEADER       BR TO PRINT HEADER RTN               10410021
 000290 00000000                    1257 ABGPH6 DC    A(PH6BEG)                                                  10420021
 000294 00000A78                    1258 ADSCT1 DC    A(PGTINT)                                                  10430021
 000298 00003690                    1259 ADCNST DC    A(ERR010)                                                  10440021
1PH60     IKFCBL60                                                                                              PAGE   29
-  LOC  OBJECT CODE    ADDR1 ADDR2  STMT   SOURCE STATEMENT                                       ASM 0201 11.03 02/14/15
0                                   1261 *      PRINT PAGE HEADING AFTER SKIP                                    10460021
                                    1262 *                                                                       10470021
                                    1263 *=L    CODING FROM HERE TO NEXT *=L NOT EXECUTED IF NOLIST MODE         10480021
 00029C                             1264 HEADER DS    0H                                                         10490021
                                    1265 *      CLEAR OUTPUT AREA                                                10500021
 00029C 9240 D77C      04514        1266          MVI   OU6REC,BLANK                                             10510021
 0002A0 D276 D77D D77C 04515 04514  1267          MVC   OU6CDN(LX119),OU6REC                                     10520021
 0002A6 D217 D374 C338 0410C 039C8  1268          MVC   SB1D1C(LX24),SBDINI INITIALIZE SYMBOLIC OPERAND AREA     10530021
                             054DE  1269          USING PUT,R15                                                  10540021
 0002AC 58F0 C460      03AF0        1270          L     R15,APUT                                                 10550021
 0002B0 45E0 F006      054E4        1271          BAL   RS1,PUTM            PRINT BLANK LINE                     10560021
 0002B4 05EF                        1272        BALR  RS1,R15            PRINT BLANK LINE                        10570021
                                    1273 *                                                                       10580021
                                    1274 *      PRINT MEMORY MAP                                                 10590021
                                    1275 *                                                                       10600021
 0002B6 9140 91A4      001A4        1276          TM    PHZSW1,CLIST                                             10610021
 0002BA 4710 82A2      002D0        1277          BC    ONES,CLHDG          PRINT CLIST HEADING                  10620021
                                    1278 *                                                                       10630021
 0002BE D209 D795 87BB 0452D 007E9  1279          MVC   OU6REC+NX25(LX10),CMEMAP                                 10640021
 0002C4                             1280 CLHDG1   DS    0H                                                       10650021
 0002C4 58F0 C460      03AF0        1281        L     R15,APUT                                                   10660021
 0002C8 05EF                        1282        BALR  RS1,R15            PRINT HEADER                            10670021
 0002CA 05EF                        1283        BALR  RS1,R15            BLANK LINE                              10680021
 0002CC 47F0 82B4      002E2        1284          BC    UNCOND,TGTINT       CONTINUE WITH PH6                    10690021
                                    1285 *=L                                                                     10700021
 0002D0                             1286 CLHDG    DS    0H                                                       10710021
 0002D0 D210 D7AE 87AA 04546 007D8  1287          MVC   OU6REC+NX50(LX17),CCLIST                                 10720021
                             054DE  1288          USING PUT,R15                                                  10730021
 0002D6 58F0 C460      03AF0        1289          L     R15,APUT                                                 10740021
 0002DA 45E0 F006      054E4        1290          BAL   RS1,PUTM               PRINT LINE                        10750021
 0002DE 45E0 F006      054E4        1291          BAL   RS1,PUTM              PRINT LINE                         10760021
1PH60     IKFCBL60                                                                                              PAGE   30
-  LOC  OBJECT CODE    ADDR1 ADDR2  STMT   SOURCE STATEMENT                                       ASM 0201 11.03 02/14/15
0                                   1293 *=1    INITIALIZE COMMON AND COMTBL POINTERS FOR                        10780021
                                    1294 *=       THE TASK GLOBAL TABLE AND ANY SUBTASK                          10790021
                                    1295 *=       GLOBAL TABLES NEEDED.                                          10800021
                                    1296 *                                                                       10810021
                                    1297 *      THE COMTBL ENTRY FOR RPD=0 IS CURRENTLY IN COMMON.               10820021
                                    1298 *                                                                       10830021
                                    1299 * THE SUBROUTINE 'DSPLAC' IS USED TO CALCULATE DISPLACEMENTS.           10840021
                                    1300 *                                                                       10850021
 0002E2                             1301 TGTINT DS    0H                                                         10860021
                                    1302 *      CALCULATE NUMBER OF BL'S ASSIGNED TO WORKING STORAGE             10870021
                                    1303 *      AND BL= OF THE FIRST ONE                                         10880021
 0002E2 D202 D315 919F 040AD 0019F  1304          MVC   C6WRK0+NX1(LX3),WSSIZE                                   10890021
 0002E8 9400 D314      040AC        1305          NI    C6WRK0,INITOFF                                           10900021
 0002EC 5860 D314      040AC        1306        L     RW1,C6WRK0       LENGTH W-S/4096 + 1 IF REMAINDER NOT      10910021
 0002F0 1266                        1307        LTR   RW1,RW1                                                    10920021
 0002F2 4780 82E0      0030E        1308        BC    ZERO,TGT01            BR IF W-S CELL 0                     10930021
 0002F6 0660                        1309        BCTR  RW1,R0                SUBTRACT 1                           10940021
 0002F8 8A60 000A      0000A        1310          SRA   RW1,DX10                                                 10950021
 0002FC 4166 0001      00001        1311          LA    RW1,DX1(RW1)                                             10960021
 000300 4060 D29C      04034        1312        STH   RW1,NUMBLW                                                 10970021
 000304 1B66                        1313        SR    RW1,RW1                                                    10980021
 000306 4360 919E      0019E        1314        IC    RW1,WSBL                                                   10990021
 00030A 4060 D298      04030        1315        STH   RW1,FRSBLW                                                 11000021
 00030E                             1316 TGT01  DS    0H                                                         11010021
 00030E 5860 9148      00148        1317        L     RW1,LOCCTR       LOCCTR HAS BEEN SET                       11020021
 000312 4166 0007      00007        1318          LA    RW1,DX7(RW1)                                             11030021
 000316 8860 0003      00003        1319          SRL   RW1,DX3         TO THE END OF DATA                       11040021
 00031A 8960 0003      00003        1320          SLL   RW1,DX3         BY PHASE 2.                              11050021
                                    1321 *      RELLOC=LOCCTR ADJUSTED TO DOUBLE-WORD BOUNDARY                   11060021
 00031E                             1322 TGT02  DS    0H                                                         11070021
 00031E 5060 D054      03DEC        1323        ST    RW1,TGTLOC                                                 11080021
 000322 5060 D0D0      03E68        1324        ST    RW1,GTLOC                                                  11090021
                                    1325 * CALCULATE LENGTH OF TGT + SGT'S                                       11100021
 000326 41F0 87A2      007D0        1326        LA    R15,M4ADD     ROUTINE TO MULT RW2*4 AND ADD TO RW1         11110021
 00032A 4160 01C0      001C0        1327          LA    RW1,VARTGT2                                              11120021
 00032E 4870 920C      0020C        1328          LH    RW2,BLCTR                                                11130021
 000332 05EF                        1329          BALR  RS1,R15             BR TO MULTIPLY BY 4 AND ADD          11140021
 000334 4870 91D4      001D4        1330          LH    RW2,DECBCT                                               11150021
 000338 05EF                        1331          BALR  RS1,R15             BR TO MULTIPLY BY 4 AND ADD          11160021
 00033A 45E0 8794      007C2        1332          BAL   RS1,ROUND8          BR TO ROUND TO DW BOUNDARY           11170021
 00033E 4870 9168      00168        1333          LH    RW2,TSMAX                                                11180021
 000342 8970 0003      00003        1334          SLL   RW2,DX3                                                  11190021
 000346 1A67                        1335          AR    RW1,RW2                                                  11200021
 000348 4A60 916A      0016A        1336          AH    RW1,TS2MAX                                               11210021
 00034C 45E0 8794      007C2        1337          BAL   RS1,ROUND8          BR TO ROUND TO DW BOUNDARY           11220021
 000350 4A60 91DE      001DE        1338          AH    RW1,TS3MAX                                               11230021
 000354 45E0 8794      007C2        1339          BAL   RS1,ROUND8          BR TO ROUND TO DW BOUNDARY           11240021
 000358 4A60 91E0      001E0        1340          AH    RW1,TS4MAX                                               11250021
 00035C 45E0 8786      007B4        1341          BAL   RS1,ROUND4          BR TO ROUND TO FW BOUNDARY           11260021
 000360 4870 917E      0017E        1342          LH    RW2,BLLCTR                                               11270021
 000364 05EF                        1343          BALR  RS1,R15             BR TO MULTIPLY BY 4 AND ADD          11280021
 000366 4A60 917C      0017C        1344          AH    RW1,VLCCTR                                               11290021
 00036A 4A60 917C      0017C        1345          AH    RW1,VLCCTR                                               11300021
 00036E 45E0 8786      007B4        1346          BAL   RS1,ROUND4          BR TO ROUND TO FW BOUNDARY           11310021
 000372 4870 917A      0017A        1347          LH    RW2,SBLCTR                                               11320021
1PH60     IKFCBL60                                                                                              PAGE   31
-  LOC  OBJECT CODE    ADDR1 ADDR2  STMT   SOURCE STATEMENT                                       ASM 0201 11.03 02/14/15
0000376 05EF                        1348          BALR  RS1,R15             BR TO MULTIPLY BY 4 AND ADD          11330021
 000378 4870 91D8      001D8        1349          LH    RW2,INDEX1                                               11340021
 00037C 05EF                        1350          BALR  RS1,R15             BR TO MULTIPLY BY 4 AND ADD          11350021
 00037E 4870 9228      00228        1351        LH    RW2,SBSCTR                                                 11360021
 000382 05EF                        1352        BALR  RS1,R15               BR TO MULTIPLY BY 4 AND ADD          11370021
 000384 4870 9210      00210        1353        LH    RW2,ONCTR                                                  11380021
 000388 05EF                        1354        BALR  RS1,R15               BR TO MULTIPLY BY 4 AND ADD          11390021
 00038A 4870 9212      00212        1355        LH    RW2,PFMCTR                                                 11400021
 00038E 05EF                        1356        BALR  RS1,R15               BR TO MULTIPLY BY 4 AND ADD          11410021
 000390 4870 9214      00214        1357        LH    RW2,PSVCTR                                                 11420021
 000394 05EF                        1358        BALR  RS1,R15               BR TO MULTIPLY BY 4 AND ADD          11430021
 000396 4870 920E      0020E        1359        LH    RW2,VNCTR                                                  11440021
 00039A 05EF                        1360        BALR  RS1,R15               BR TO MULTIPLY BY 4 AND ADD          11450021
 00039C 4870 9232      00232        1361        LH    RW2,SA2CTR                                                 11460021
 0003A0 05EF                        1362        BALR  RS1,R15               BR TO MULTIPLY BY 4 AND ADD          11470021
 0003A2 4870 9234      00234        1363        LH    RW2,SA3CTR                                                 11480021
 0003A6 05EF                        1364        BALR  RS1,R15               BR TO MULTIPLY BY 4 AND ADD          11490021
 0003A8 4A60 9218      00218        1365        AH    RW1,XSWCTR                                                 11500021
 0003AC 45E0 8786      007B4        1366        BAL   RS1,ROUND4            BR TO ROUND TO FW BOUNDARY           11510021
 0003B0 4A60 9216      00216        1367        AH    RW1,XSACTR                                                 11520021
 0003B4 0660                        1368        BCTR  RW1,R0          XSACTR IS 1 TOO HIGH                       11530021
 0003B6 45E0 8786      007B4        1369        BAL   RS1,ROUND4            BR TO ROUND TO FW BOUNDARY           11540021
 0003BA 4870 922A      0022A        1370        LH    RW2,PARMAX                                                 11550021
 0003BE 05EF                        1371        BALR  RS1,R15               BR TO MULTIPLY BY 4 AND ADD          11560021
 0003C0 4870 91B4      001B4        1372 TGT04  LH    RW2,RPTSAV                                                 11570021
 0003C4 05EF                        1373        BALR  RS1,R15               BR TO MULTIPLY BY 4 AND ADD          11580021
 0003C6 4870 916E      0016E        1374          LH    RW2,CKPCTR                                               11590021
 0003CA 05EF                        1375          BALR  RS1,R15             BR TO MULTIPLY BY 4 AND ADD          11600021
 0003CC 4060 D06A      03E02        1376        STH   RW1,VCONAD            SAVE DISPL OF VCONTBL                11610021
 0003D0 4870 D066      03DFE        1377        LH    RW2,SEGCTR            GET NMBR OF NON-RESIDENT SEGMENT     11620021
 0003D4 8970 0003      00003        1378          SLL   RW2,DX3              DEVELOP SIZE OF VCON TBL            11630021
 0003D8 1A67                        1379        AR    RW1,RW2               UPDATE SIZE OF TGT                   11640021
 0003DA 4060 9220      00220        1380        STH   RW1,GTLNG        LENGTH WITHOUT OVERFLOW CELLS             11650021
 0003DE 1B77                        1381        SR    RW2,RW2                                                    11660021
 0003E0 4070 D062      03DFA        1382        STH   RW2,MAXOV        INITIAL VALUE                             11670021
                                    1383 * CALCULATE MAXIMUM NUMBER OF OVERFLOW CELLS NEEDED                     11680021
 0003E4 5960 C01C      036AC        1384 TGT05  C     RW1,C6M6         F'4095'                                   11690021
 0003E8 47D0 83CA      003F8        1385        BC    NOTHI,TGT06           NOT OVERFLOW                         11700021
 0003EC 4177 0001      00001        1386          LA    RW2,DX1(RW2)                                             11710021
 0003F0 4B60 C06A      036FA        1387        SH    RW1,CH4092                                                 11720021
 0003F4 47F0 83B6      003E4        1388          BC    UNCOND,TGT05        LOOP TO COMPARE AGAIN                11730021
 0003F8 4970 D062      03DFA        1389 TGT06  CH    RW2,MAXOV                                                  11740021
 0003FC 47D0 83DA      00408        1390          BC    NOTHI,TGT09         NO NEW MAX                           11750021
 000400 4070 D062      03DFA        1391        STH   RW2,MAXOV        NEW MAXIMUM                               11760021
 000404 4070 D060      03DF8        1392          STH   RW2,TGTOVFL         SAVE OVFL COUNT FOR SEG        0339  11770021
                                    1393 *  ALSO, PUNCH OVERFLOW INFORMATION INTO THE TGT +(SGT'S)               11780021
 000408                             1394 TGT09    DS    0H                                                       11790021
 000408 4870 9220      00220        1395          LH    RW2,GTLNG                                                11800021
 00040C 4160 01BC      001BC        1396          LA    RW1,VARTGT1                                              11810021
 000410 4820 D062      03DFA        1397          LH    R2,MAXOV                                                 11820021
 000414 4A20 920C      0020C        1398          AH    R2,BLCTR                                                 11830021
 000418 4A20 91D4      001D4        1399          AH    R2,DECBCT                                                11840021
 00041C 4220 8A42      00A70        1400          STC   R2,CALBND                                                11850021
 000420 9101 8A42      00A70        1401          TM    CALBND,SOMEDISP     IS THERE SOME COUNT,ADD IF NOT       11860021
 000424 4770 8402      00430        1402          BC    NOTZER,TGT10        YES, BRANCH                          11870021
1PH60     IKFCBL60                                                                                              PAGE   32
-  LOC  OBJECT CODE    ADDR1 ADDR2  STMT   SOURCE STATEMENT                                       ASM 0201 11.03 02/14/15
0000428 4166 0004      00004        1403          LA    RW1,DX4(RW1)                                             11880021
 00042C 4177 0004      00004        1404          LA    RW2,DX4(RW2)                                             11890021
 000430                             1405 TGT10    DS    0H                                                       11900021
 000430 5850 D054      03DEC        1406          L     RW3,TGTLOC          GET TGT START                        11910021
 000434 5050 921C      0021C        1407          ST    RW3,RELLOC          STORE IT                             11920021
 000438 5050 D150      03EE8        1408          ST    RW3,NXADDR          FOR PUNCHING OVFLO CELLS             11930021
 00043C 1A65                        1409          AR    RW1,RW3             GET ADDRESS OF OVFLO CELLS           11940021
 00043E 5060 9148      00148        1410          ST    RW1,LOCCTR          (START OF TGT + ADJUSTED             11950021
                                    1411 *                                   RELATIVE LOC OF OVFLO CELLS)        11960021
 000442 5060 D058      03DF0        1412          ST    RW1,OVFLLOC         ALSO SAVE FOR SEG              0339  11970021
 000446 1867                        1413          LR    RW1,RW2             ADJUSTED LENGTH OF TGT               11980021
 000448 4870 D062      03DFA        1414        LH    RW2,MAXOV                                                  11990021
 00044C 45E0 87A2      007D0        1415        BAL   RS1,M4ADD             BR TO MULTIPLY BY 4 AND ADD          12000021
 000450 45E0 8794      007C2        1416        BAL   RS1,ROUND8            BR TO ROUND TO DW BOUNDARY           12010021
 000454 4060 9220      00220        1417        STH   RW1,GTLNG        FINAL VALUE                               12020021
 000458 1A56                        1418        AR    RW3,RW1          RELLOC OF NEXT GT                         12030021
 00045A 5050 D048      03DE0        1419          ST    RW3,LOCPGT                                               12040021
 00045E 4140 8468      00496        1420          LA    INPUTR,SETTGT           FOR SEG BRANCH             0339  12050021
 000462 95FF 91D0      001D0        1421          CLI   SEGLMT,NOTSEGTD       IS PGM SEGMTD                0339  12060021
 000466 4770 8468      00496        1422          BC    NOTEQ,SETTGT        YES, OVFL WILL BE PUNCHED IN RT0339  12070021
 00046A                             1423 TGTOVCL    DS    0H                ENTERED FROM ROOT TO PUNCH OVFL0339  12080021
 00046A 4850 D060      03DF8        1424          LH    RW3,TGTOVFL         NUMBER OF OVERFLOW CELLS       0339  12090021
 00046E 47F0 8460      0048E        1425          BC    UNCOND,TMOROV       BR TO CHECK IF MORE CELLS            12100021
 000472 5860 D150      03EE8        1426 TPUNOV L     RW1,NXADDR                                                 12110021
 000476 4A60 C068      036F8        1427        AH    RW1,H4096                                                  12120021
 00047A 5060 D150      03EE8        1428        ST    RW1,NXADDR       NEXT OVERFLOW CELL CONTENTS               12130021
 00047E 4100 0004      00004        1429          LA    R0,ESDTYP4                                               12140021
 000482 4110 D150      03EE8        1430        LA    R1,NXADDR                                                  12150021
 000486 58F0 C46C      03AFC        1431        L     R15,ATXPNH                                                 12160021
 00048A 05EF                        1432        BALR  RS1,R15            PUNCH TEXT                              12170021
 00048C 0650                        1433        BCTR  RW3,R0                SUBTRACT 1                           12180021
 00048E 1255                        1434 TMOROV LTR   RW3,RW3          MORE OVERFLOW CELLS                       12190021
 000490 4770 8444      00472        1435        BC    NOTZER,TPUNOV    YES                                       12200021
 000494 07F4                        1436          BR    INPUTR              RET SEG OR NEXT INSTR          0339  12210021
 000496                             1437 SETTGT   DS    0H                                                 0339  12220021
                                    1438 * SET UP TGT HEADER IN MEMORY MAP                                       12230021
 000496 D202 D790 87C5 04528 007F3  1439          MVC   OU6LC(LX3),CCTGT                                         12240021
 00049C 5860 D054      03DEC        1440        L     RW1,TGTLOC                                                 12250021
 0004A0 5060 D314      040AC        1441        ST    RW1,C6WRK0                                                 12260021
 0004A4 58F0 C474      03B04        1442        L     R15,AS6010        CONVERT FOR LIST                         12270021
 0004A8 05EF                        1443        BALR  RS1,R15               BR TO CONVERT RTN                    12280021
 0004AA D204 D7A8 D31B 04540 040B3  1444          MVC   OU6REC+NX44(LX5),C6WRK4                                  12290021
 0004B0 58F0 C460      03AF0        1445        L     R15,APUT                                                   12300021
 0004B4 05EF                        1446        BALR  RS1,R15            PRINT                                   12310021
 0004B6 05EF                        1447        BALR  RS1,R15            BLANK LINE                              12320021
 0004B8 4150 87D9      00807        1448        LA    RW3,CCSAVE                                                 12330021
 0004BC 5050 D0EC      03E84        1449        ST    RW3,MAPTXT                                                 12340021
 0004C0 1B66                        1450        SR    RW1,RW1                                                    12350021
 0004C2 58F0 C494      03B24        1451        L     R15,AMAPLC        SAVE AREA                                12360021
 0004C6 05EF                        1452        BALR  RS1,R15               BR TO PRINT MEMORY MAP LINE          12370021
 0004C8 4160 0048      00048        1453          LA    RW1,DX72        SWITCH CELL                              12380021
 0004CC 05EF                        1454        BALR  RS1,R15               BR TO PRINT MEMORY MAP LINE          12390021
 0004CE 4160 004C      0004C        1455          LA    RW1,DX76        TALLY CELL                               12400021
 0004D2 05EF                        1456        BALR  RS1,R15               BR TO PRINT MEMORY MAP LINE          12410021
 0004D4 4160 0050      00050        1457          LA    RW1,DX80             SORT SAVE                           12420021
1PH60     IKFCBL60                                                                                              PAGE   33
-  LOC  OBJECT CODE    ADDR1 ADDR2  STMT   SOURCE STATEMENT                                       ASM 0201 11.03 02/14/15
00004D8 05EF                        1458        BALR  RS1,R15               BR TO PRINT MEMORY MAP LINE          12430021
 0004DA 4160 0054      00054        1459          LA    RW1,DX84            ENTRY/SAVE                           12440021
 0004DE 05EF                        1460        BALR  RS1,R15               BR TO PRINT MEMORY MAP LINE          12450021
 0004E0 4160 0058      00058        1461          LA    RW1,DX88            SORT CORE SIZE                       12460021
 0004E4 05EF                        1462        BALR    RS1,R15             BR TO PRINT MEMORY MAP LINE          12470021
 0004E6 4160 005C      0005C        1463          LA    RW1,DX92             RET CODE                            12480021
 0004EA 05EF                        1464        BALR  RS1,R15               BR TO PRINT MEMORY MAP LINE          12490021
 0004EC 4160 005E      0005E        1465          LA    RW1,DX94             SORT RET                            12500021
 0004F0 05EF                        1466        BALR  RS1,R15               BR TO PRINT MEMORY MAP LINE          12510021
 0004F2 4160 0060      00060        1467          LA    RW1,DX96             WORKING CELLS                       12520021
 0004F6 05EF                        1468        BALR  RS1,R15              PRINT A LINE                          12530021
 0004F8 4160 0190      00190        1469          LA    RW1,DX400            SORT FILE SIZE                      12540021
 0004FC 05EF                        1470        BALR  RS1,R15              PRINT A LINE                          12550021
 0004FE 4160 0194      00194        1471          LA    RW1,DX404            SORT MODE SIZE                      12560021
 000502 05EF                        1472        BALR  RS1,R15               BR TO PRINT MEMORY MAP LINE          12570021
 000504 4160 0198      00198        1473        LA    RW1,APGTVN            VNI TBL ADDRESS                      12580021
 000508 05EF                        1474        BALR  RS1,R15               BR TO PRINT MEMORY MAP LINE          12590021
 00050A 4160 019C      0019C        1475        LA    RW1,ATGTVN            VN-I TBL ADDRESS                     12600021
 00050E 05EF                        1476        BALR  RS1,R15               BR TO PRINT MEMORY MAP LINE          12610021
 000510 4160 01A0      001A0        1477        LA    RW1,TGTVCON           PTR TO A VCON TBL               STAN 12620021
 000514 05EF                        1478        BALR   RS1,R15              BR TO PRINT MEMORY MAP LINE          12630021
 000516 4160 01A4      001A4        1479        LA    RW1,VNTBLN            LENGTH OF VNI TBL                    12640021
 00051A 05EF                        1480        BALR  RS1,R15               BR TO PRINT MEMORY MAP LINE          12650021
 00051C 4160 01A6      001A6        1481          LA    RW1,DX422            LABEL RET                       STA 12660021
 000520 05EF                        1482        BALR  RS1,R15               BR TO PRINT MEMORY MAP LINE          12670021
 000522 4160 01A7      001A7        1483          LA    RW1,DX423            UNUSED                          STA 12680021
 000526 05EF                        1484        BALR  RS1,R15               BR TO PRINT MEMORY MAP LINE          12690021
 000528 4160 01B0      001B0        1485        LA    RW1,TGTINIT1          INIT1 ADCON                     STAN 12700021
 00052C 05EF                        1486        BALR  RS1,R15               BR TO PRINT MEMORY MAP LINE          12710021
 00052E 4160 01B4      001B4        1487          LA    RW1,DX436            UNUSED                          STA 12720021
 000532 05EF                        1488        BALR  RS1,R15               BR TO PRINT MEMORY MAP LINE          12730021
 000534 41F0 874C      0077A        1489        LA    R15,DSPLAC        SUBROUTINE ADDRESS                       12740021
 000538 4160 01BC      001BC        1490          LA    RW1,VARTGT1                                              12750021
                                    1491 *  CALCULATE DISPLACEMENTS.                                             12760021
 00053C 4820 D062      03DFA        1492        LH    R2,MAXOV                                                   12770021
 000540 4A20 920C      0020C        1493        AH    R2,BLCTR                                                   12780021
 000544 4A20 91D4      001D4        1494        AH    R2,DECBCT                                                  12790021
 000548 4220 8A42      00A70        1495        STC   R2,CALBND                                                  12800021
 00054C 9101 8A42      00A70        1496          TM    CALBND,SOMEDISP     IS THERE SOME COUNT,ADD IF NOT       12810021
 000550 4770 852A      00558        1497        BC    NOTZER,TGT15          YES, BR                              12820021
 000554 4166 0004      00004        1498          LA    RW1,DX4(RW1)                                             12830021
 000558                             1499 TGT15    DS    0H                                                       12840021
 000558 4120 0004      00004        1500          LA    R2,FOURBYTE                                              12850021
 00055C 4170 D062      03DFA        1501        LA    RW2,MAXOV                                                  12860021
 000560 05EF                        1502        BALR  RS1,R15               BR TO CALCULATE DISPLACEMENT         12870021
 000562 4120 0004      00004        1503          LA    R2,FOURBYTE                                              12880021
 000566 4170 920C      0020C        1504        LA    RW2,BLCTR                                                  12890021
 00056A 05EF                        1505        BALR  RS1,R15               BR TO CALCULATE DISPLACEMENT         12900021
 00056C 4120 0004      00004        1506          LA    R2,FOURBYTE                                              12910021
 000570 4170 91D4      001D4        1507        LA    RW2,DECBCT                                                 12920021
 000574 05EF                        1508        BALR  RS1,R15               BR TO CALCULATE DISPLACEMENT         12930021
 000576 4120 0008      00008        1509          LA    R2,DW8BYTES         DOUBLE-WORDS                         12940021
 00057A 4170 9168      00168        1510        LA    RW2,TSMAX        TEMPORARY STORAGE                         12950021
 00057E 05EF                        1511        BALR  RS1,R15               BR TO CALCULATE DISPLACEMENT         12960021
 000580 4120 0001      00001        1512          LA    R2,ONEBYTE                                               12970021
1PH60     IKFCBL60                                                                                              PAGE   34
-  LOC  OBJECT CODE    ADDR1 ADDR2  STMT   SOURCE STATEMENT                                       ASM 0201 11.03 02/14/15
0000584 4170 916A      0016A        1513        LA    RW2,TS2MAX                                                 12980021
 000588 05EF                        1514        BALR  RS1,R15               BR TO CALCULATE DISPLACEMENT         12990021
 00058A 45E0 8794      007C2        1515          BAL   RS1,ROUND8          GET ONTO DOUBLE-WD BOUNDRY      STAN 13000021
 00058E 4120 0001      00001        1516          LA    R2,ONEBYTE                                               13010021
 000592 4170 91DE      001DE        1517        LA    RW2,TS3MAX            TEMP STORAGE-3                       13020021
 000596 05EF                        1518          BALR  RS1,R15             BR TO CALCULATE DISPLACEMENT         13030021
 000598 45E0 8794      007C2        1519          BAL   RS1,ROUND8          GET ONTO DOUBLE-WD BOUNDRY      STAN 13040021
 00059C 4120 0001      00001        1520          LA    R2,ONEBYTE                                               13050021
 0005A0 4170 91E0      001E0        1521        LA    RW2,TS4MAX            TEMP STORAGE-4                       13060021
 0005A4 05EF                        1522          BALR  RS1,R15             BR TO CALCULATE DISPLACEMENT         13070021
 0005A6 4120 0004      00004        1523          LA    R2,FOURBYTE                                              13080021
 0005AA 4170 917E      0017E        1524        LA    RW2,BLLCTR                                                 13090021
 0005AE 05EF                        1525        BALR  RS1,R15               BR TO CALCULATE DISPLACEMENT         13100021
 0005B0 4120 0002      00002        1526          LA    R2,TWOBYTE                                               13110021
 0005B4 4170 917C      0017C        1527          LA    RW2,VLCCTR                                               13120021
 0005B8 05EF                        1528        BALR  RS1,R15               BR TO CALCULATE DISPLACEMENT         13130021
 0005BA 4120 0004      00004        1529          LA    R2,FOURBYTE                                              13140021
 0005BE 4170 917A      0017A        1530          LA    RW2,SBLCTR                                               13150021
 0005C2 05EF                        1531        BALR  RS1,R15               BR TO CALCULATE DISPLACEMENT         13160021
 0005C4 4120 0004      00004        1532          LA    R2,FOURBYTE                                              13170021
 0005C8 4170 91D8      001D8        1533        LA    RW2,INDEX1                                                 13180021
 0005CC 05EF                        1534        BALR  RS1,R15               BR TO CALCULATE DISPLACEMENT         13190021
 0005CE 4120 0004      00004        1535          LA    R2,FOURBYTE                                              13200021
 0005D2 4170 9228      00228        1536        LA    RW2,SBSCTR                                                 13210021
 0005D6 05EF                        1537        BALR  RS1,R15               BR TO CALCULATE DISPLACEMENT         13220021
 0005D8 4120 0004      00004        1538          LA    R2,FOURBYTE                                              13230021
 0005DC 4170 9210      00210        1539        LA    RW2,ONCTR                                                  13240021
 0005E0 05EF                        1540        BALR  RS1,R15               BR TO CALCULATE DISPLACEMENT         13250021
 0005E2 4120 0004      00004        1541          LA    R2,FOURBYTE                                              13260021
 0005E6 4170 9212      00212        1542        LA    RW2,PFMCTR                                                 13270021
 0005EA 05EF                        1543        BALR  RS1,R15               BR TO CALCULATE DISPLACEMENT         13280021
 0005EC 4120 0004      00004        1544          LA    R2,FOURBYTE                                              13290021
 0005F0 4170 9214      00214        1545        LA    RW2,PSVCTR                                                 13300021
 0005F4 05EF                        1546        BALR  RS1,R15               BR TO CALCULATE DISPLACEMENT         13310021
                                    1547 * SAVE VNCTR FOR LATER USE                                              13320021
 0005F6 4820 920E      0020E        1548        LH    R2,VNCTR                                                   13330021
 0005FA 4020 9226      00226        1549        STH   R2,VNLOC                                                   13340021
 0005FE 4120 0004      00004        1550          LA    R2,FOURBYTE                                              13350021
 000602 4170 9226      00226        1551        LA    RW2,VNLOC                                                  13360021
 000606 05EF                        1552        BALR  RS1,R15               BR TO CALCULATE DISPLACEMENT         13370021
 000608 4120 0004      00004        1553          LA    R2,FOURBYTE                                              13380021
 00060C 4170 9232      00232        1554        LA    RW2,SA2CTR                                                 13390021
 000610 05EF                        1555        BALR  RS1,R15               BR TO CALCULATE DISPLACEMENT         13400021
 000612 4120 0004      00004        1556          LA    R2,FOURBYTE                                              13410021
 000616 4170 9234      00234        1557        LA    RW2,SA3CTR                                                 13420021
 00061A 05EF                        1558        BALR  RS1,R15               BR TO CALCULATE DISPLACEMENT         13430021
 00061C 4120 0001      00001        1559          LA    R2,ONEBYTE                                               13440021
 000620 4170 9218      00218        1560        LA    RW2,XSWCTR                                                 13450021
 000624 05EF                        1561        BALR  RS1,R15               BR TO CALCULATE DISPLACEMENT         13460021
                                    1562 * XSACTR IS 1 TOO HIGH.                                                 13470021
 000626 4820 9216      00216        1563        LH    R2,XSACTR                                                  13480021
 00062A 4122 0002      00002        1564          LA    R2,DX2(R2)       ADD 3 TO DESIRED NUMBER OF BYTES        13490021
 00062E 8820 0002      00002        1565          SRL   R2,DX2           DIVIDE BY 4                             13500021
 000632 4020 9216      00216        1566        STH   R2,XSACTR                                                  13510021
                                    1567 * XSACTR NOW CONTAINS NUMBER OF WORDS NEEDED.                           13520021
1PH60     IKFCBL60                                                                                              PAGE   35
-  LOC  OBJECT CODE    ADDR1 ADDR2  STMT   SOURCE STATEMENT                                       ASM 0201 11.03 02/14/15
0000636 4120 0004      00004        1568          LA    R2,FOURBYTE                                              13530021
 00063A 4170 9216      00216        1569        LA    RW2,XSACTR                                                 13540021
 00063E 05EF                        1570        BALR  RS1,R15               BR TO CALCULATE DISPLACEMENT         13550021
 000640 4120 0004      00004        1571          LA    R2,FOURBYTE                                              13560021
 000644 4170 922A      0022A        1572        LA    RW2,PARMAX                                                 13570021
 000648 05EF                        1573        BALR  RS1,R15               BR TO CALCULATE DISPLACEMENT         13580021
                                    1574 *                                                                       13590021
 00064A 4120 0004      00004        1575 TGT40    LA    R2,FOURBYTE                                              13600021
 00064E 4170 91B4      001B4        1576        LA    RW2,RPTSAV                                                 13610021
 000652 05EF                        1577        BALR  RS1,R15               BR TO CALCULATE DISPLACEMENT         13620021
 000654 4120 0004      00004        1578          LA    R2,FOURBYTE                                              13630021
 000658 4170 916E      0016E        1579          LA    RW2,CKPCTR                                               13640021
 00065C 05EF                        1580          BALR  RS1,R15             BR TO CALCULATE DISPLACEMENT         13650021
 00065E 4120 0008      00008        1581          LA    R2,DW8BYTES                                              13660021
 000662 4170 D066      03DFE        1582        LA    RW2,SEGCTR            VCON TBL                        STAN 13670021
 000666 05EF                        1583        BALR  RS1,R15               BR TO CALCULATE DISPLACEMENT    STAN 13680021
 000668 4170 8748      00776        1584        LA    RW2,TGT45             RETURN ADDR                          13690021
 00066C 9140 91A3      001A3        1585          TM    PHZSW,NOLIST    PMAP IN EFFECT                           13700021
 000670 47E0 864A      00678        1586          BC    NOTONE,NOSKIP1          NO, DONT EJECT             2657  13710021
                                    1587 *DEL                                                                    13720021
                                    1588 *DEL                                                                    13730021
                                    1589 *DEL                                                                    13740021
 000674 0509                        1590          BALR    R0,RB2       BR TO PH0                                 13750021
 000676 D6                          1591          DC    X'D6'             TO EJECT PAGE                          13760021
 000678                             1592 NOSKIP1    DS    0H                                                     13770021
 000678 95FF 91D0      001D0        1593          CLI   SEGLMT,NOTSEGTD     IS PROGRAM SEGMENTED                 13780021
 00067C 4770 8748      00776        1594          BC    NOTEQ,TGT45         YES,SW WILL BE PUNCHED IN ROOT       13790021
 000680                             1595 TGT42    DS    0H                                                       13800021
 000680 5070 D314      040AC        1596          ST    RW2,C6WRK0                                               13810021
 000684 1B66                        1597          SR    RW1,RW1                                                  13820021
 000686 D700 D318 D318 040B0 040B0  1598          XC    C6WRK1(LX1),C6WRK1  INIT AREA TO X'00'                   13830021
 00068C 5860 D054      03DEC        1599          L     RW1,TGTLOC                                               13840021
 000690 5060 9148      00148        1600          ST    RW1,LOCCTR         SAVE LOCATION                         13850021
 000694 4100 0001      00001        1601          LA    R0,ONEBYTE                                               13860021
 000698 4110 D318      040B0        1602          LA    R1,C6WRK1                                                13870021
 00069C 58F0 C46C      03AFC        1603          L     R15,ATXPNH          GET SUBROUTINE ADDRESS FOR PNCH      13880021
 0006A0 05EF                        1604          BALR  RS1,R15            INIT SAVE-AREA BYTE 1 TO X'00'        13890021
 0006A2 1B66                        1605          SR    RW1,RW1                                                  13900021
 0006A4 4360 91C5      001C5        1606          IC    RW1,COMMAD+NX1                                           13910021
 0006A8 5060 D318      040B0        1607          ST  RW1,C6WRK1                                                 13920021
 0006AC 5860 D054      03DEC        1608        L     RW1,TGTLOC                                                 13930021
 0006B0 4166 0048      00048        1609          LA    RW1,DX72(RW1)                                            13940021
 0006B4 5060 9148      00148        1610        ST    RW1,LOCCTR                                                 13950021
 0006B8 4100 0004      00004        1611          LA    R0,ESDTYP4                                               13960021
 0006BC 4110 D318      040B0        1612          LA    R1,C6WRK1                                                13970021
 0006C0 58F0 C46C      03AFC        1613        L     R15,ATXPNH        INIT SWITCH CELL IN TGT                  13980021
 0006C4 05EF                        1614        BALR  RS1,R15               BR TO PUNCH                          13990021
 0006C6 D713 D318 D318 040B0 040B0  1615          XC    C6WRK1(LX20),C6WRK1                                      14000021
 0006CC 4100 0014      00014        1616          LA    R0,DX20                                                  14010021
 0006D0 4166 0004      00004        1617          LA    RW1,DX4(RW1)                                             14020021
 0006D4 5060 9148      00148        1618          ST    RW1,LOCCTR                                               14030021
 0006D8 05EF                        1619          BALR  RS1,R15             INITIALIZE TALLY THRU SORT RET       14040021
 0006DA 4100 0008      00008        1620          LA    R0,DX8                                                   14050021
 0006DE 4166 0144      00144        1621          LA    RW1,DX324(RW1)                                           14060021
 0006E2 5060 9148      00148        1622          ST    RW1,LOCCTR    INITIALIZE SORT FILE SIZE                  14070021
1PH60     IKFCBL60                                                                                              PAGE   36
-  LOC  OBJECT CODE    ADDR1 ADDR2  STMT   SOURCE STATEMENT                                       ASM 0201 11.03 02/14/15
00006E6 05EF                        1623          BALR  RS1,R15       AND SORT MODE SIZE                         14080021
 0006E8 4100 0004      00004        1624          LA    R0,FOURBYTE                                              14090021
                                    1625 *PUNCH TEXT FOR BL AND BLL CELLS                                        14100021
 0006EC 4850 91D4      001D4        1626        LH    RW3,DECBCT                                                 14110021
 0006F0 4B50 920C      0020C        1627        SH    RW3,BLCTR             ANY BL CELLS                         14120021
 0006F4 4780 86D2      00700        1628        BC    ZERO,BLLINT           NO - DO BLL CELLS                    14130021
 0006F8 4870 920C      0020C        1629        LH    RW2,BLCTR            GET DISP OF CELLS                     14140021
 0006FC 45E0 8726      00754        1630        BAL    RS1,COMINT          PUNCH TEXT                            14150021
                             00700  1631 BLLINT EQU   *                                                          14160021
 000700 4850 917C      0017C        1632        LH    RW3,VLCCTR                                                 14170021
 000704 4B50 917E      0017E        1633        SH    RW3,BLLCTR                                                 14180021
 000708 4870 917E      0017E        1634        LH    RW2,BLLCTR            GET DISP OF CELLS                    14190021
 00070C 45E0 8726      00754        1635        BAL    RS1,COMINT          PUNCH TEXT                            14200021
 000710 4850 9212      00212        1636          LH    RW3,PFMCTR                                               14210021
 000714 4B50 9210      00210        1637          SH    RW3,ONCTR                                                14220021
 000718 4780 86F6      00724        1638          BC    ZERO,XSWINT         NO ONCTL CELLS - NO PUNCH            14230021
 00071C 4870 9210      00210        1639          LH    RW2,ONCTR                                                14240021
 000720 45E0 8726      00754        1640          BAL   RS1,COMINT          GO TO COMMON CELL INIT RTE           14250021
 000724 4850 9216      00216        1641 XSWINT   LH    RW3,XSACTR                                               14260021
 000728 4B50 9218      00218        1642          SH    RW3,XSWCTR                                               14270021
 00072C 4780 870A      00738        1643          BC    ZERO,CKPINT         NO XSW  CELLS - NO PUNCH             14280021
 000730 4870 9218      00218        1644          LH    RW2,XSWCTR                                               14290021
 000734 45E0 8726      00754        1645          BAL   RS1,COMINT          GO TO COMMON CELL INIT RTE           14300021
 000738 4160 0001      00001        1646 CKPINT   LA    RW1,DX1                                                  14310021
 00073C 5060 D318      040B0        1647          ST    RW1,C6WRK1                                               14320021
 000740 4850 D066      03DFE        1648          LH    RW3,SEGCTR                                               14330021
 000744 4B50 916E      0016E        1649          SH    RW3,CKPCTR                                               14340021
 000748 4780 8742      00770        1650          BC    ZERO,STV020         NO CKPT CELLS - NO PUNCH             14350021
 00074C 4870 916E      0016E        1651          LH    RW2,CKPCTR                                               14360021
 000750 41E0 8742      00770        1652          LA    RS1,STV020                                               14370021
 000754                             1653 COMINT   DS    0H                                                       14380021
 000754 8850 0002      00002        1654          SRL   RW3,DX2              GET # OF CELLS                      14390021
 000758 5860 D054      03DEC        1655          L     RW1,TGTLOC                                               14400021
 00075C 1A67                        1656          AR    RW1,RW2                                                  14410021
 00075E 187E                        1657          LR    RW2,RS1                                                  14420021
 000760                             1658 COMINT1  DS    0H                                                       14430021
 000760 5060 9148      00148        1659          ST    RW1,LOCCTR                                               14440021
 000764 05EF                        1660          BALR  RS1,R15             GO TO PUNCH TEXT                     14450021
 000766 4166 0004      00004        1661          LA    RW1,DX4(RW1)                                             14460021
 00076A 4650 8732      00760        1662          BCT   RW3,COMINT1         LOOP TO PUNCH # OF CELLS             14470021
 00076E 07F7                        1663          BCR   UNCOND,RW2          RETURN                               14480021
 000770                             1664 STV020   DS    0H                                                       14490021
 000770 5870 D314      040AC        1665          L     RW2,C6WRK0                                               14500021
 000774 07F7                        1666        BR    RW2                   BR TO NEXT LINE                      14510021
 000776                             1667 TGT45  DS    0H                                                         14520021
                                    1668 *                                                                       14530021
                                    1669 *      SAVE BLCTR AND RELLOC OF RPD=0 SO THAT INFORMATION IS            14540021
                                    1670 *      AVAILABLE AT ALL TIMES                                           14550021
 000776 47F0 A000      00A78        1671        BC    UNCOND,PGTINT         CONTINUE WITH PH6                    14560021
1PH60     IKFCBL60                                                                                              PAGE   37
-  LOC  OBJECT CODE    ADDR1 ADDR2  STMT   SOURCE STATEMENT                                       ASM 0201 11.03 02/14/15
0                                   1673 *=2    DSPLAC       SUBR TO CALCULATE DISPLACEMENTS                     14580021
                                    1674 *            CALLED BY  BALR 14,15                                      14590021
                                    1675 *            RW1 HAS CURRENT DISPLACEMENT.                              14600021
                                    1676 *            RW2 HAS ADDRESS OF COUNTER.                                14610021
                                    1677 *            REG. 2 HAS BOUND REQUIREMENT AND LENGTH OF CELL.           14620021
                                    1678 *            RW3 USED AS WORK REGISTER.                                 14630021
 00077A                             1679 DSPLAC DS    0H                                                         14640021
 00077A 1852                        1680        LR    RW3,R2                                                     14650021
 00077C 0650                        1681        BCTR  RW3,R0            BOUNDARY MASK                            14660021
 00077E 1456                        1682 DSPL10 NR    RW3,RW1          PROPER BOUNDARY                           14670021
 000780 4780 875E      0078C        1683        BC    ZERO,DSPL20      YES                                       14680021
 000784 4166 0001      00001        1684          LA    RW1,DX1(RW1)    NO, INCREMENT                            14690021
 000788 47F0 874C      0077A        1685          BC    UNCOND,DSPLAC       AND TRY AGAIN                        14700021
 00078C 4C27 0000      00000        1686 DSPL20   MH    R2,DX0(RW2)      MULTIPLY COUNT BY LENGTH                14710021
 000790 4067 0000      00000        1687          STH   RW1,DX0(RW2)    STORE DISPLACEMENT                       14720021
 000794 90EF 8A3A      00A68        1688        STM   RS1,R15,SV1415                                             14730021
 000798 58F0 C494      03B24        1689        L     R15,AMAPLC        FOR MEMORY MAP                           14740021
 00079C 05EF                        1690        BALR  RS1,R15               BR TO PRINT LINE OF MEMORY MAP       14750021
 00079E 98EF 8A3A      00A68        1691        LM    RS1,R15,SV1415                                             14760021
 0007A2 1A62                        1692        AR    RW1,R2            NEXT DISPLACEMENT                        14770021
 0007A4 07FE                        1693          BCR   UNCOND,RS1          RETURN                               14780021
0
                                    1695 * ROUTINES TO ROUND UP CONTENTS OF RW1 TO MULTIPLE OF 2, 4 OR 8         14800021
                                    1696 *   RETURN BY  BCR  15,14                                               14810021
 0007A6                             1697        DS    0H                                                         14820021
 0007A6 4166 0001      00001        1698 ROUND2   LA    RW1,DX1(RW1)                                             14830021
 0007AA 8860 0001      00001        1699          SRL   RW1,DX1                                                  14840021
 0007AE 8960 0001      00001        1700          SLL   RW1,DX1                                                  14850021
 0007B2 07FE                        1701          BCR   UNCOND,RS1          RETURN                               14860021
 0007B4                             1702        DS    0H                                                         14870021
 0007B4 4166 0003      00003        1703 ROUND4   LA    RW1,DX3(RW1)                                             14880021
 0007B8 8860 0002      00002        1704          SRL   RW1,DX2                                                  14890021
 0007BC 8960 0002      00002        1705          SLL   RW1,DX2                                                  14900021
 0007C0 07FE                        1706          BCR   UNCOND,RS1          RETURN                               14910021
 0007C2                             1707        DS    0H                                                         14920021
 0007C2 4166 0007      00007        1708 ROUND8   LA    RW1,DX7(RW1)                                             14930021
 0007C6 8860 0003      00003        1709          SRL   RW1,DX3                                                  14940021
 0007CA 8960 0003      00003        1710          SLL   RW1,DX3                                                  14950021
 0007CE 07FE                        1711          BCR   UNCOND,RS1          RETURN                               14960021
0
                                    1713 * ROUTINE TO MULTIPLY CONTENTS OF RW2 BY 2 AND ADD TO RW1               14980021
                                    1714 *   RETURN BY  BCR  15,14                                               14990021
 0007D0                             1715        DS    0H                                                         15000021
 0007D0 8970 0002      00002        1716 M4ADD    SLL   RW2,DX2                                                  15010021
 0007D4 1A67                        1717        AR    RW1,RW2                                                    15020021
 0007D6 07FE                        1718          BCR   UNCOND,RS1          RETURN                               15030021
1PH60     IKFCBL60                                                                                              PAGE   38
-  LOC  OBJECT CODE    ADDR1 ADDR2  STMT   SOURCE STATEMENT                                       ASM 0201 11.03 02/14/15
0                                   1720 * HEADINGS AND LISTING INFORMATION                                      15050021
 0007D8 C3D6D5C4C5D5E2C5            1721 CCLIST   DC    C'CONDENSED LISTING'                                     15060021
 0007E9 D4C5D4D6D9E840D4            1722 CMEMAP DC    C'MEMORY MAP'                                              15070021
 0007F3 E3C7E3                      1723 CCTGT  DC    C'TGT'                                                     15080021
 0007F6 D7C7E3                      1724 CCPGT  DC    C'PGT'                                                     15090021
 0007F9 D5D6D7D9C7D4C9C4            1725 NOID     DC    C'NOPRGMID'                                              15100021
 000801 C3E8C3D3C57E                1726 CCYCLE DC    C'CYCLE='                                                  15110021
 000807 08                          1727 CCSAVE DC    FL1'8'                                                     15120021
 000808 E2C1E5C540C1D9C5            1728        DC    C'SAVE AREA'                                               15130021
 000811 05                          1729        DC    FL1'5'                                                     15140021
 000812 E2E6C9E3C3C8                1730        DC    C'SWITCH'                                                  15150021
 000818 04                          1731        DC    FL1'4'                                                     15160021
 000819 E3C1D3D3E8                  1732        DC    C'TALLY'                                                   15170021
 00081E 08                          1733        DC    FL1'8'                                                     15180021
 00081F E2D6D9E340E2C1E5            1734        DC    C'SORT SAVE'                                               15190021
 000828 09                          1735        DC    FL1'9'                                                     15200021
 000829 C5D5E3D9E860E2C1            1736        DC    C'ENTRY-SAVE'                                              15210021
 000833 0D                          1737 CCSORT DC    FL1'13'                                                    15220021
 000834 E2D6D9E340C3D6D9            1738        DC    C'SORT CORE SIZE'                                          15230021
 000842 07                          1739        DC    FL1'7'                                                     15240021
 000843 D9C5E340C3D6C4C5            1740        DC    C'RET CODE'                                                15250021
 00084B 07                          1741        DC    FL1'7'                                                     15260021
 00084C E2D6D9E340D9C5E3            1742        DC    C'SORT RET'                                                15270021
 000854 0C                          1743        DC    FL1'12'                                                    15280021
 000855 E6D6D9D2C9D5C740            1744        DC    C'WORKING CELLS'                                           15290021
 000862 0D                          1745        DC    FL1'13'                                                    15300021
 000863 E2D6D9E340C6C9D3            1746        DC    C'SORT FILE SIZE'                                          15310021
 000871 0D                          1747          DC    FL1'13'                                                  15320021
 000872 E2D6D9E340D4D6C4            1748          DC    C'SORT MODE SIZE'                                        15330021
 000880 09                          1749          DC    FL1'9'                                                   15340021
 000881 D7C7E360E5D540E3            1750          DC    C'PGT-VN TBL'                                            15350021
 00088B 09                          1751          DC    FL1'9'                                                   15360021
 00088C E3C7E360E5D540E3            1752          DC    C'TGT-VN TBL'                                            15370021
 000896 06                          1753        DC    FL1'6'                                                STAN 15380021
 000897 E5C3D6D5D7E3D9              1754        DC    C'VCONPTR'                                            STAN 15390021
 00089E 0F                          1755        DC    FL1'15'                                                    15400021
 00089F D3C5D5C7E3C840D6            1756          DC    C'LENGTH OF VN TBL'                                      15410021
 0008AF 08                          1757        DC    FL1'8'                                                     15420021
 0008B0 D3C1C2C5D340D9C5            1758        DC    C'LABEL RET'                                               15430021
 0008B9 05                          1759        DC    FL1'5'                                                     15440021
 0008BA E4D5E4E2C5C4                1760        DC    C'UNUSED'                                                  15450021
 0008C0 0A                          1761        DC    FL1'10'                                               STAN 15460021
 0008C1 C9D5C9E3F140C1C4            1762        DC    C'INIT1 ADCON'                                        STAN 15470021
 0008CC 05                          1763        DC    FL1'5'                                                STAN 15480021
 0008CD E4D5E4E2C5C4                1764        DC    C'UNUSED'                                             STAN 15490021
 0008D3 0D                          1765 CCOVFL DC    FL1'13'                                                    15500021
 0008D4 D6E5C5D9C6D3D6E6            1766        DC    C'OVERFLOW CELLS'                                          15510021
 0008E2 07                          1767        DC    FL1'7'                                                     15520021
 0008E3 C2D340C3C5D3D3E2            1768        DC    C'BL CELLS'                                                15530021
 0008EB 0C                          1769        DC    FL1'12'                                                    15540021
 0008EC C4C5C3C2C1C4D940            1770        DC    C'DECBADR CELLS'                                           15550021
 0008F9 0B                          1771        DC    FL1'11'                                                    15560021
 0008FA E3C5D4D740E2E3D6            1772        DC    C'TEMP STORAGE'                                            15570021
 000906 0D                          1773        DC    FL1'13'       '                                            15580021
 000907 E3C5D4D740E2E3D6            1774        DC    C'TEMP STORAGE-2'                                          15590021
1PH60     IKFCBL60                                                                                              PAGE   39
-  LOC  OBJECT CODE    ADDR1 ADDR2  STMT   SOURCE STATEMENT                                       ASM 0201 11.03 02/14/15
0000915 0D                          1775        DC    FL1'13'                                                    15600021
 000916 E3C5D4D740E2E3D6            1776        DC    C'TEMP STORAGE-3'                                          15610021
 000924 0D                          1777        DC    FL1'13'                                                    15620021
 000925 E3C5D4D740E2E3D6            1778        DC    C'TEMP STORAGE-4'                                          15630021
 000933 08                          1779        DC    FL1'8'                                                     15640021
 000934 C2D3D340C3C5D3D3            1780        DC    C'BLL CELLS'                                               15650021
 00093D 08                          1781          DC    FL1'8'                                                   15660021
 00093E E5D3C340C3C5D3D3            1782          DC    C'VLC CELLS'                                             15670021
 000947 08                          1783          DC    FL1'8'                                                   15680021
 000948 E2C2D340C3C5D3D3            1784          DC    C'SBL CELLS'                                             15690021
 000951 0A                          1785          DC    FL1'10'                                                  15700021
 000952 C9D5C4C5E740C3C5            1786          DC    C'INDEX CELLS'                                           15710021
 00095D 0B                          1787          DC    FL1'11'                                                  15720021
 00095E E2E4C2C1C4D940C3            1788          DC    C'SUBADR CELLS'                                          15730021
 00096A 0A                          1789          DC    FL1'10'                                                  15740021
 00096B D6D5C3E3D340C3C5            1790          DC    C'ONCTL CELLS'                                           15750021
 000976 0B                          1791          DC    FL1'11'                                                  15760021
 000977 D7C6D4C3E3D340C3            1792          DC    C'PFMCTL CELLS'                                          15770021
 000983 0B                          1793          DC    FL1'11'                                                  15780021
 000984 D7C6D4E2C1E540C3            1794          DC    C'PFMSAV CELLS'                                          15790021
 000990 07                          1795          DC    FL1'7'                                                   15800021
 000991 E5D540C3C5D3D3E2            1796          DC    C'VN CELLS'                                              15810021
 000999 0B                          1797        DC    FL1'11'                                                    15820021
 00099A E2C1E5C540C1D9C5            1798        DC    C'SAVE AREA =2'                                            15830021
 0009A6 0B                          1799        DC    FL1'11'                                                    15840021
 0009A7 E2C1E5C540C1D9C5            1800        DC    C'SAVE AREA =3'                                            15850021
 0009B3 0A                          1801          DC    FL1'10'                                                  15860021
 0009B4 E7E2C1E2E640C3C5            1802          DC    C'XSASW CELLS'                                           15870021
 0009BF 08                          1803          DC    FL1'8'                                                   15880021
 0009C0 E7E2C140C3C5D3D3            1804          DC    C'XSA CELLS'                                             15890021
 0009C9 0A                          1805        DC    FL1'10'                                                    15900021
 0009CA D7C1D9C1D440C3C5            1806        DC    C'PARAM CELLS'                                             15910021
 0009D5 0A                          1807        DC    FL1'10'                                                    15920021
 0009D6 D9D7E3E2C1E540C1            1808        DC    C'RPTSAV AREA'                                             15930021
 0009E1 0A                          1809        DC    FL1'10'                                                    15940021
 0009E2 C3C8C5C3D2D7E340            1810        DC    C'CHECKPT CTR'                                             15950021
 0009ED 07                          1811        DC    FL1'7'                                                STAN 15960021
 0009EE E5C3D6D540E3C2D3            1812        DC    C'VCON TBL'                                           STAN 15970021
 0009F6 0C                          1813 CCVIRT DC    FL1'12'                                                    15980021
 0009F7 E5C9D9E3E4C1D340            1814        DC    C'VIRTUAL CELLS'                                           15990021
 000A04 13                          1815        DC    FL1'19'                                                    16000021
 000A05 D7D9D6C3C5C4E4D9            1816        DC    C'PROCEDURE NAME C'                                        16010021
 000A15 C5D3D3E2                    1817        DC    C'ELLS'                                                    16020021
 000A19 13                          1818        DC    FL1'19'                                                    16030021
 000A1A C7C5D5C5D9C1E3C5            1819        DC    C'GENERATED NAME C'                                        16040021
 000A2A C5D3D3E2                    1820        DC    C'ELLS'                                                    16050021
 000A2E 10                          1821        DC    FL1'16'                                                    16060021
 000A2F C4C3C240C1C4C4D9            1822        DC    C'DCB ADDRESS CELL'                                        16070021
 000A3F E2                          1823        DC    C'S'                                                       16080021
 000A40 08                          1824        DC    FL1'8'                                                     16090021
 000A41 E5D5C940C3C5D3D3            1825        DC    C'VNI CELLS'                                               16100021
 000A4A 07                          1826        DC    FL1'7'                                                     16110021
 000A4B D3C9E3C5D9C1D3E2            1827        DC    C'LITERALS'                                                16120021
 000A53 0F                          1828        DC    FL1'15'                                                    16130021
 000A54 C4C9E2D7D3C1E840            1829 DISPLY DC    C'DISPLAY LITERALS'                                        16140021
1PH60     IKFCBL60                                                                                              PAGE   40
-  LOC  OBJECT CODE    ADDR1 ADDR2  STMT   SOURCE STATEMENT                                       ASM 0201 11.03 02/14/15
0000A64                             1830 SVRW2  DS    F                                                          16150021
 000A68                             1831 SV1415 DS    2F                                                         16160021
 000A70                             1832 CALBND DS    C                                                          16170021
                             00001  1833 SOMEDISP EQU   X'01'               THERE IS SOME COUNT                  16180021
1PH60     IKFCBL60                                                                                              PAGE   41
-  LOC  OBJECT CODE    ADDR1 ADDR2  STMT   SOURCE STATEMENT                                       ASM 0201 11.03 02/14/15
0000A78                             1835 IKF602   CSECT                                                          16200021
                                    1836 *=1    COMMON AREA POINTERS TO PROGRAM GLOBAL TABLE--PART 1             16210021
 000A78                             1837 PGTINT DS    0H                                                         16220021
 000A78 1B55                        1838        SR    RW3,RW3                                                    16230021
 000A7A 4870 9162      00162        1839        LH    RW2,VIRCTR                                                 16240021
 000A7E 4050 9162      00162        1840        STH   RW3,VIRCTR       START OF VIRTUALS IN PGT                  16250021
 000A82 8970 0001      00001        1841          SLL   RW2,DX1                                                  16260021
 000A86 4070 C69C      03D2C        1842        STH   RW2,VIRNUM       NUM OF VIRTUALS FOR TAMER                 16270021
 000A8A 4870 9164      00164        1843        LH    RW2,LTLCTR                                                 16280021
 000A8E 8970 0001      00001        1844          SLL   RW2,DX1                                                  16290021
 000A92 4070 C694      03D24        1845        STH   RW2,LTLNUM       NUM OF LITERALS FOR TAMER                 16300021
 000A96 4870 915C      0015C        1846        LH    RW2,PNCTR                                                  16310021
 000A9A 8970 0001      00001        1847          SLL   RW2,DX1                                                  16320021
 000A9E 4070 C6B4      03D44        1848        STH   RW2,PNNUM                                                  16330021
 000AA2 4870 915E      0015E        1849        LH    RW2,GNCTR                                                  16340021
 000AA6 8970 0001      00001        1850          SLL   RW2,DX1                                                  16350021
 000AAA 4070 C6BC      03D4C        1851        STH   RW2,GNNUM                                                  16360021
 000AAE 95FF 91D0      001D0        1852          CLI   SEGLMT,NOTSEGTD     IS PROGRAM SEGMENTED                 16370021
 000AB2 4780 A056      00ACE        1853          BC    EQ,NXTINS           NO, BRANCH                           16380021
 000AB6 4170 0003      00003        1854          LA    RW2,THREE           YES, GET LEN VNPTY TBL ENTRY         16390021
 000ABA 4C70 920E      0020E        1855        MH    RW2,VNCTR             GET SIZE OF VNPTY TBL                16400021
 000ABE 4177 0003      00003        1856          LA    RW2,DX3(RW2)         ROUND UP                            16410021
 000AC2 8870 0002      00002        1857          SRL   RW2,DX2              TO MULTIPLE OF 4                    16420021
 000AC6 8970 0002      00002        1858          SLL   RW2,DX2                                                  16430021
 000ACA 4070 C6D4      03D64        1859        STH   RW2,VNSIZE            INITIALIZE PARLIST                   16440021
-
-
-

 000ACE                             1861 NXTINS DS    0H                                                         16460021
 000ACE 5860 C450      03AE0        1862        L     RW1,EOF3         SET UP EOFADR FOR F3                      16470021
 000AD2 5060 D158      03EF0        1863        ST    RW1,EOFADR                                                 16480021
                                    1864 *                                                                       16490021
                                    1865 * DO NOT OPEN SYSOU                                                     16500021
1PH60     IKFCBL60                                                                                              PAGE   42
-  LOC  OBJECT CODE    ADDR1 ADDR2  STMT   SOURCE STATEMENT                                       ASM 0201 11.03 02/14/15
0                                   1867 *=1    PROCESS PROCEDURE NAME USAGE TABLE                               16520021
                                    1868 *      1 BIT/PN   IF=1 PN HAS BEEN USED SO GIVE IT A RELATIVE PN NU     16530021
                                    1869 *                      FROM RPNCTR AND PUT IT IN CORRESPONDING CELL     16540021
                                    1870 *                      IN PNTBL                                         16550021
                                    1871 *                   =0 PN HAS NOT BEEN USED, PUT ZEROS IN CORRESPON     16560021
                                    1872 *                      PNTBL CELL                                       16570021
                                    1873 *      TABLE PASSED FROM PHASE 5                                        16580021
-
0
 000AD6                             1875 PNUPRO DS    0H                                                         16600021
 000AD6 4110 C6B0      03D40        1876        LA    R1,APNTBL                                                  16610021
 000ADA 58F0 C4A0      03B30        1877        L     R15,AXPRIM                                                 16620021
 000ADE 05EF                        1878        BALR  RS1,R15               BR TO XPRIME RTN                     16630021
 000AE0 4870 D0CA      03E62        1879        LH    RW2,PNUCTR                                                 16640021
 000AE4 4070 D0CA      03E62        1880 GETPNU STH   RW2,PNUCTR                                                 16650021
 000AE8 1B66                        1881        SR    RW1,RW1                                                    16660021
 000AEA 5D60 C060      036F0        1882        D     RW1,C6F32                                                  16670021
 000AEE 5800 C064      036F4        1883        L     R0,C6M14               XL4'80000000'                       16680021
 000AF2 8800 6000      00000        1884          SRL   R0,DX0(RW1)           REMAINDER=MODULO 32                16690021
 000AF6 8970 0002      00002        1885          SLL   RW2,DX2                                                  16700021
 000AFA 5810 C65C      03CEC        1886       L     R1,APNUTB                                                   16710021
 000AFE 58F0 C4AC      03B3C        1887       L     R15,ATABLE                                                  16720021
 000B02 05EF                        1888       BALR  RS1,R15                GET TABLE ADDR AND LENGTH            16730021
 000B04 4020 C660      03CF0        1889       STH   R2,PNXNUM                                                   16740021
 000B08 1851                        1890       LR    RW3,R1         LOC OF PNUTBL                                16750021
 000B0A 5405 7000      00000        1891          N     R0,DX0(RW3,RW2)       WORD IN PNUTBL                     16760021
 000B0E 5810 C6B0      03D40        1892        L     R1,APNTBL              GET A CELL (2 BYTES) IN PNTBL       16770021
 000B12 58F0 9130      00130        1893        L     R15,AINSRT             (ADDR IN R2 ON RETURN)              16780021
 000B16 4780 A0B8      00B30        1894        BC    ZERO,STZPNT           NOT USED                             16790021
 000B1A 05EF                        1895        BALR  RS1,R15               BR TO INSERT RTN                     16800021
 000B1C 4860 D0CC      03E64        1896        LH    RW1,RPNCTR            STORE NEXT AVAILABLE RPN=            16810021
 000B20 4166 0001      00001        1897          LA    RW1,DX1(RW1)                                             16820021
 000B24 4062 0000      00000        1898          STH   RW1,DX0(R2)                                              16830021
 000B28 4060 D0CC      03E64        1899        STH   RW1,RPNCTR                                                 16840021
 000B2C 47F0 A0C0      00B38        1900        BC    UNCOND,UPPNU          BR TO INCREMENT PN NUMBER            16850021
 000B30 05EF                        1901 STZPNT BALR  RS1,R15               BR TO INSERT RTN                     16860021
 000B32 1B00                        1902        SR    R0,R0                   STORE ZERO IN PNTBL                16870021
 000B34 4002 0000      00000        1903          STH   R0,DX0(R2)                                               16880021
 000B38                             1904 UPPNU  DS    0H                                                         16890021
 000B38 4870 D0CA      03E62        1905        LH    RW2,PNUCTR                                                 16900021
 000B3C 4177 0001      00001        1906          LA    RW2,DX1(RW2)                                             16910021
 000B40 4970 915C      0015C        1907        CH    RW2,PNCTR             NO OF ITEMS IN PNUTBL                16920021
 000B44 4740 A06C      00AE4        1908        BC    LOW,GETPNU            MORE                                 16930021
1PH60     IKFCBL60                                                                                              PAGE   43
-  LOC  OBJECT CODE    ADDR1 ADDR2  STMT   SOURCE STATEMENT                                       ASM 0201 11.03 02/14/15
0                                   1910 *      RELEASE PNUTBL, MAKE PNTBL STATIC, INITIALIZE GNTBL              16950021
                                    1911 *      NOTE- RPNCTR CONTAINS REL NUMBER PNS.                            16960021
 000B48 4110 C65C      03CEC        1912        LA    R1,APNUTB                                                  16970021
 000B4C 58F0 C4A8      03B38        1913        L     R15,ATABRL                                                 16980021
 000B50 05EF                        1914        BALR  RS1,R15               BR TO RELEASE TABLE                  16990021
 000B52 4110 C6B0      03D40        1915        LA    R1,APNTBL        XSTATC WILL LOAD R1 WITH TIB ADDRESS      17000021
 000B56 58F0 C4A4      03B34        1916        L     R15,ASTATC                                                 17010021
 000B5A 05EF                        1917        BALR  RS1,R15               BR TO MAKE TABLE STATIC              17020021
 000B5C 4110 C6B8      03D48        1918        LA    R1,AGNTBL                                                  17030021
 000B60 58F0 C4A0      03B30        1919        L     R15,AXPRIM                                                 17040021
 000B64 05EF                        1920        BALR  RS1,R15               BR TO PRIME TABLE                    17050021
0
 000B66 1B66                        1922        SR    RW1,RW1                                                    17070021
 000B68 4870 915E      0015E        1923        LH    RW2,GNCTR                                                  17080021
 000B6C 1277                        1924        LTR   RW2,RW2                                                    17090021
 000B6E 4780 A10C      00B84        1925        BC    ZERO,STZGN2           NO GN'S                              17100021
 000B72 5810 C6B8      03D48        1926 STZGNT L     R1,AGNTBL                                                  17110021
 000B76 58F0 9130      00130        1927        L     R15,AINSRT             INSERT ZEROS IN ENTIRE TABLE        17120021
 000B7A 05EF                        1928        BALR  RS1,R15               BR TO INSERT RTN                     17130021
 000B7C 4062 0000      00000        1929          STH   RW1,DX0(R2)                                              17140021
 000B80 4670 A0FA      00B72        1930        BCT   RW2,STZGNT            MORE GN'S                            17150021
 000B84                             1931 STZGN2 DS    0H                                                         17160021
 000B84 4110 C6B8      03D48        1932        LA    R1,AGNTBL        XSTATC WILL LOAD R1 WITH TIB ADDRESS      17170021
 000B88 58F0 C4A4      03B34        1933        L     R15,ASTATC                                                 17180021
 000B8C 05EF                        1934        BALR  RS1,R15               BR TO MAKE TABLE STATIC              17190021
1PH60     IKFCBL60                                                                                              PAGE   44
-  LOC  OBJECT CODE    ADDR1 ADDR2  STMT   SOURCE STATEMENT                                       ASM 0201 11.03 02/14/15
0                                   1936 * PRFTWO                                                                17210021
                                    1937 *                                                                       17220021
                                    1938 *=1 PROCESS OPTIMIZATION A-TEXT                                         17230021
                                    1939 *=        (LTLDEF AND VIRDEF)                                           17240021
                                    1940 *                                                                       17250021
                             00B8E  1941 PRFTWO EQU   *                                                          17260021
                                    1942 *DEL                                                               4207 17270021
                                    1943 *DEL                                                               4207 17280021
                                    1944 *DEL                                                               4207 17290021
                                    1945 *DEL                                                               4207 17300021
                                    1946 *DEL                                                               4207 17310021
                                    1947 *DEL                                                               4207 17320021
                                    1948 *DEL                                                               4207 17330021
                                    1949 *DEL                                                               4207 17340021
 000B8E 4860 C69C      03D2C        1950          LH    RW1,VIRNUM          NO OF VIRTUALS * 2             42071 17350021
 000B92 8960 0001      00001        1951          SLL   RW1,DX1            ASSUME HALF VIRTS UNIQUE        42071 17360021
 000B96 4060 C6A4      03D34        1952          STH   RW1,ACVNUM          MAX SIZE OF CVIRTB             42071 17370021
 000B9A 9208 C6AD      03D3D        1953          MVI   ALVNUM+DX1,DX8        AND LVIRTB                   42071 17380021
                                    1954 *DEL                                                                    17390021
                                    1955 *DEL                                                                    17400021
                                    1956 *DEL                                                                    17410021
                                    1957 *DEL                                                                    17420021
                                    1958 *DEL                                                                    17430021
                                    1959 *DEL                                                                    17440021
                                    1960 *DEL                                                                    17450021
                                    1961 *DEL                                                                    17460021
                                    1962 *DEL                                                                    17470021
                                    1963 *DEL                                                                    17480021
                                    1964 *DEL                                                                    17490021
                                    1965 *DEL                                                                    17500021
                                    1966 *DEL                                                                    17510021
                                    1967 *DEL                                                                    17520021
                                    1968 *DEL                                                                    17530021
 000B9E 4860 9162      00162        1969        LH    RW1,VIRCTR                                                 17540021
 000BA2 5A60 D048      03DE0        1970        A     RW1,LOCPGT                                                 17550021
 000BA6 5060 9148      00148        1971        ST    RW1,LOCCTR       DISP OF VIRTS                             17560021
 000BAA 95FF 91D0      001D0        1972          CLI   SEGLMT,NOTSEGTD     IS PROGRAM SEGMENTED                 17570021
 000BAE 4780 A144      00BBC        1973          BC    EQ,REGPRM           NO, BRANCH                           17580021
 000BB2 4110 C6D0      03D60        1974        LA    R1,AVNPTY       YES, GET PRIME PARLIST                     17590021
 000BB6 58F0 C4A0      03B30        1975        L     R15,AXPRIM                                                 17600021
 000BBA 05EF                        1976        BALR  RS1,R15         PRIME  VNPTY TABLE                         17610021
 000BBC                             1977 REGPRM   DS    0H                                                 56154 17620021
                                    1978 *DEL                                                                    17630021
                                    1979 *DEL                                                                    17640021
                                    1980 *DEL                                                                    17650021
                                    1981 *DEL                                                                    17660021
                                    1982 *DEL                                                                    17670021
 000BBC 4110 C690      03D20        1983        LA    R1,ALTLTB                                                  17680021
 000BC0 58F0 C4A0      03B30        1984        L     R15,AXPRIM            PRIME LTLTBL                         17690021
 000BC4 05EF                        1985        BALR  RS1,R15               BR TO PRIME TABLE                    17700021
 000BC6 4110 C6C0      03D50        1986        LA    R1,AFILTB                                                  17710021
 000BCA 58F0 C4A0      03B30        1987        L     R15,AXPRIM                                                 17720021
 000BCE 05EF                        1988        BALR  RS1,R15         PRIME FILTBL                               17730021
 000BD0 4110 C6A0      03D30        1989        LA    R1,ACVIRT                                                  17740021
 000BD4 58F0 C4A0      03B30        1990        L     R15,AXPRIM            PRIME CVIRTB                         17750021
1PH60     IKFCBL60                                                                                              PAGE   45
-  LOC  OBJECT CODE    ADDR1 ADDR2  STMT   SOURCE STATEMENT                                       ASM 0201 11.03 02/14/15
0000BD8 05EF                        1991        BALR  RS1,R15               BR TO PRIME TABLE                    17760021
 000BDA 4110 C6A8      03D38        1992        LA    R1,ALVIRT                                                  17770021
 000BDE 58F0 C4A0      03B30        1993        L     R15,AXPRIM            PRIME LVIRTBL                        17780021
 000BE2 05EF                        1994        BALR  RS1,R15               BR TO PRIME TABLE                    17790021
 000BE4 4110 C698      03D28        1995        LA    R1,AVIRPT                                                  17800021
 000BE8 58F0 C4A0      03B30        1996        L     R15,AXPRIM            PRIME VIRPTR                         17810021
 000BEC 05EF                        1997        BALR  RS1,R15               BR TO PRIME TABLE                    17820021
                                    1998 *   CONTBL AND CONDIS TABLES ARE LAST TO BE PRIMED SINCE          56154 17830021
                                    1999 *   THEIR SIZES MAY INCREASE AS OPT A-TEXT IS READ.               56154 17840021
 000BEE 4110 A2D8      00D50        2000          LA    R1,ACONTB                                          56154 17850021
 000BF2 58F0 C4A0      03B30        2001          L     R15,AXPRIM                                         56154 17860021
 000BF6 05EF                        2002          BALR  RS1,R15                 PRIME CONTBL TO 3K         56154 17870021
 000BF8 4110 A2E0      00D58        2003          LA    R1,ACONDS                                          56154 17880021
 000BFC 58F0 C4A0      03B30        2004          L     R15,AXPRIM                                         56154 17890021
 000C00 05EF                        2005          BALR  RS1,R15                 PRIME CONDIS TO 3K         56154 17900021
 000C02 1B66                        2006          SR    R6,R6                                                    17910021
 000C04 4960 C69C      03D2C        2007 XXBEG    CH    R6,VIRNUM                                                17920021
 000C08 47B0 A1A6      00C1E        2008          BNL   XXOUT                   BRANCH IF NOT LOW                17930021
 000C0C 5810 C698      03D28        2009          L     R1,AVIRPT                                                17940021
 000C10 58F0 9130      00130        2010          L     R15,AINSRT                                               17950021
 000C14 05EF                        2011          BALR  RS1,R15                 BRANCH TO AINSRT                 17960021
 000C16 4166 0002      00002        2012          LA    R6,DX2(R6)                                               17970021
 000C1A 47F0 A18C      00C04        2013          B     XXBEG                   BRANCH UNCOND TO XXBEG           17980021
                             00C1E  2014 XXOUT    EQU   *                                                        17990021
 000C1E 4140 A2E8      00D60        2015        LA    F2REG,ASTOP           ENTER V(ILBOSTOP) INTO CVIRTBL       18000021
 000C22 47F0 A444      00EBC        2016        B     VIRRTN                CONTINUE WITH PHASE6                 18010021
                             00C26  2017 READF2 EQU   *                                                          18020021
 000C26 9180 91D3      001D3        2018          TM    PH1BYTE,F3TEXT        WAS THERE ANY OPT TXT WRITTEN7707  18030021
 000C2A 4780 A240      00CB8        2019          BC    ZERO,F2EOF          NO, DO EOF PROCESSING NOW      7707  18040021
 000C2E 0509                        2020        BALR  R0,RB2                BR TO PH0                            18050021
 000C30 03                          2021        DC    X'03'                 READ OPT. A-TEXT                     18060021
 000C31 00
 000C32 4780 A240      00CB8        2022        BC    ZERO,F2EOF       END OF FILE                               18070021
 000C36 1840                        2023        LR    F2REG,R0                                                   18080021
 000C38 95FF 4000      00000        2024 F2NEXT   CLI   DX0(F2REG),NEWBLOCK GET ANOTHER BLOCK                    18090021
 000C3C 4780 A1AE      00C26        2025        BC    EQ,READF2        IF NEEDED                                 18100021
 000C40 9500 4000      00000        2026 F2COD    CLI   DX0(F2REG),VIRDEF                                        18110021
 000C44 4780 A444      00EBC        2027        BC    EQ,VIRRTN   VIRTUAL ROUTINE                                18120021
 000C48 9504 4000      00000        2028          CLI   DX0(F2REG),LTLDEF                                        18130021
 000C4C 4780 A302      00D7A        2029        BC    EQ,LTLRTN   LITERAL ROUTINE                                18140021
 000C50 9510 4000      00000        2030          CLI   DX0(F2REG),DISPLTDF                                      18150021
 000C54 4780 A2F6      00D6E        2031        BC    EQ,LTLDIS        DISPLAY LITERAL                           18160021
 000C58 D201 D314 4002 040AC 00002  2032          MVC   C6WRK0(LX2),A6GNL    OR A6PNL                            18170021
 000C5E 4860 D314      040AC        2033        LH    RW1,C6WRK0                                                 18180021
 000C62 9508 4000      00000        2034          CLI   DX0(F2REG),GNDF                                          18190021
 000C66 4780 A516      00F8E        2035        BC    EQ,GNEQUR             BR TO GN EQUATE RTN                  18200021
 000C6A 9514 4000      00000        2036          CLI   DX0(F2REG),VNDF     IS THIS A VNPTY TBL ELEMENT          18210021
 000C6E 4780 A214      00C8C        2037        BC    EQ,F2VNPT             YES,CONSTRUCT VNPTY TBL              18220021
 000C72 9518 4000      00000        2038          CLI   DX0(F2REG),VIRDF                                         18230021
 000C76 4780 A4F8      00F70        2039        BC    EQ,DCVIRT             VIRTUAL POINTER ELEMENT              18240021
 000C7A 950C 4000      00000        2040          CLI   DX0(F2REG),PNDF           PN EQUATE                42071 18250021
 000C7E 4780 A55C      00FD4        2041          BC    EQ,PNEQUR           YES                            42071 18260021
 000C82 58F0 A210      00C88        2042          L     R15,AERR250         ADDRESS OF ERR250              42071 18270021
 000C86 07FF                        2043          BR    R15             BRANCH TO ERR250  RTN              42071 18280021
 000C88 00002302                    2044 AERR250  DC    A(ERR250)           ADDRESS CON FOR ERR250         42071 18290021
1PH60     IKFCBL60                                                                                              PAGE   46
-  LOC  OBJECT CODE    ADDR1 ADDR2  STMT   SOURCE STATEMENT                                       ASM 0201 11.03 02/14/15
0                            00003  2045 VNPTYL EQU   3                    LENGTH OF VNPTY TBL ENTRY             18300021
                             00004  2046 VNPTYL4   EQU   4                                                       18310021
                             00C8C  2047 F2VNPT EQU   *                                                          18320021
 000C8C 9532 4001      00001        2048          CLI   DX1(F2REG),INDEPSEG IS THIS A VN FOR INDEP SEGMENT       18330021
 000C90 4740 A228      00CA0        2049          BC    LO,F2VN05           NO, BRANCH                           18340021
 000C94 4860 D110      03EA8        2050        LH    RW1,INDVN            YES,GET CURRENT CT OF INDEP VN'S      18350021
 000C98 4166 0001      00001        2051          LA    RW1,DX1(RW1)        BUMP CTR                             18360021
 000C9C 4060 D110      03EA8        2052        STH   RW1,INDVN                                                  18370021
                             00CA0  2053 F2VN05 EQU   *                                                          18380021
 000CA0 5810 C6D0      03D60        2054        L     R1,AVNPTY             GET TIB ADDRESS                      18390021
 000CA4 58F0 9130      00130        2055        L     R15,AINSRT           GET ADDR OF INSERT SUBRT              18400021
 000CA8 05EF                        2056        BALR  RS1,R15               UPON RETURN R2=ADDR OF AVAIL SLO     18410021
 000CAA D202 2000 4001 00000 00001  2057          MVC   DX0(VNPTYL,R2),DX1(F2REG) INSERT ENTRY INTO VNPTY TBL    18420021
 000CB0 4144 0004      00004        2058          LA    F2REG,VNPTYL4(F2REG) POINT TO NEXT OPT A-TXT ELT         18430021
 000CB4 47F0 A1C0      00C38        2059        B     F2NEXT                GET NEXT ELEMENT                     18440021
                             00CB8  2060 F2EOF  EQU   *                                                          18450021
 000CB8 9180 91A4      001A4        2061        TM    PHZSW1,XREF           IS XREF REQUESTED                    18460021
 000CBC 4780 A24C      00CC4        2062          BC    EQ,F2SEG            NO, BRANCH                           18470021
 000CC0 0509                        2063        BALR  R0,RB2                BR TO PH0                            18480021
                                    2064 *                                                                       18490021
 000CC2 63                          2065        DC    X'63'                 REWIND UT3 FOR REF ELMNTS            18500021
 000CC3 00                          2066        DC    X'00'                 INDICATE-READ WAS LAST ON UT3        18510021
 000CC4 95FF 91D0      001D0        2067 F2SEG    CLI   SEGLMT,NOTSEGTD     IS PROGRAM SEGMENTED                 18520021
 000CC8 4780 A574      00FEC        2068          BC    EQ,ENOPAT           NO, BRANCH                           18530021
                                    2069 *                                                                       18540021
                                    2070 *     SORT VNPTY TBL BY PTY #                                           18550021
                                    2071 *                                                                       18560021
 000CCC 5810 C6D0      03D60        2072        L     R1,AVNPTY             GET TIB ADDRESS                      18570021
 000CD0 4111 0000      00000        2073          LA    R1,DX0(R1)                                               18580021
 000CD4 1919                        2074        CR    R1,RB2                HAS VNPTY TBL BEEN PRIME'ED          18590021
 000CD6 4740 A574      00FEC        2075        BC    LOW,ENOPAT            NO,BR                                18600021
 000CDA 58F0 9134      00134        2076        L     R15,ADSTAT            GET STATIC RTN ADDRESS               18610021
 000CDE 05EF                        2077        BALR  RS1,R15               BR TO MAKE TABLE STATIC              18620021
 000CE0 5810 C6D0      03D60        2078        L     R1,AVNPTY             GET TIB ADDRESS                      18630021
 000CE4 58F0 C4AC      03B3C        2079        L     R15,ATABLE            GET STARTING ADDR OF VNPTY IN R1     18640021
 000CE8 05EF                        2080        BALR  RS1,R15               AND SIZE IN R2                       18650021
 000CEA 1222                        2081        LTR   R2,R2                 ANY ENTRIES IN VNPTY TBL             18660021
 000CEC 4780 A574      00FEC        2082          BC    ZERO,ENOPAT         NO, BRANCH                           18670021
 000CF0 1861                        2083        LR    RW1,R1                YES,GET STARTING ADDR                18680021
 000CF2 4151 2000      00000        2084          LA    RW3,DX0(R1,R2)       END+1                               18690021
 000CF6 4176 0003      00003        2085 F2VN10 LA    RW2,VNPTYL(RW1)       NEXT ENTRY ADDR                      18700021
 000CFA 1965                        2086        CR    RW1,RW3               ALL DONE                             18710021
 000CFC 47B0 A574      00FEC        2087        BC    NOTLO,ENOPAT         YES,BR                                18720021
 000D00 1975                        2088 F2VN15 CR    RW2,RW3               IS PRESENT PASS FINISHED             18730021
 000D02 4740 A296      00D0E        2089        BC    LO,F2VN20             NO,BR                                18740021
 000D06 4166 0003      00003        2090        LA    RW1,VNPTYL(RW1)       YES,START NEXT PASS                  18750021
 000D0A 47F0 A27E      00CF6        2091        B     F2VN10                START NEXT PASS                      18760021
 000D0E D500 6000 7000 00000 00000  2092 F2VN20   CLC   DX0(LX1,RW1),DX0(RW2) ARE ENTRIES ORDERED                18770021
 000D14 47D0 A2B2      00D2A        2093        BC    NOTHI,F2VN25          YES,BR                               18780021
 000D18 D202 D0F4 6000 03E8C 00000  2094          MVC   VNHOLD(VNPTYL),DX0(RW1) NO,MOVE HI TO SAVE AREA          18790021
 000D1E D202 6000 7000 00000 00000  2095          MVC   DX0(VNPTYL,RW1),DX0(RW2) SWAP HI AND LO                  18800021
 000D24 D202 7000 D0F4 00000 03E8C  2096          MVC   DX0(VNPTYL,RW2),VNHOLD GET HI FROM SAVE AREA             18810021
 000D2A 4177 0003      00003        2097 F2VN25 LA    RW2,VNPTYL(RW2)       BUMP POINTER                         18820021
 000D2E 47F0 A288      00D00        2098        B     F2VN15                CHECK PASS STATUS                    18830021
 000D32 47F0 A574      00FEC        2099        BC    UNCOND,ENOPAT         CONTINUE WITH PH6                    18840021
1PH60     IKFCBL60                                                                                              PAGE   47
-  LOC  OBJECT CODE    ADDR1 ADDR2  STMT   SOURCE STATEMENT                                       ASM 0201 11.03 02/14/15
0                                   2101 *      SET UP FOR NEXT RECORD ON F2                                     18860021
 000D36 1B66                        2102 PROCFL SR    RW1,RW1                                                    18870021
 000D38 4364 0002      00002        2103        IC    RW1,LTLLNG(F2REG)     LENGTH OF LITERAL                    18880021
 000D3C 4166 0003      00003        2104          LA    RW1,DX3(RW1)         FIRST THREE BYTES                   18890021
 000D40 1A46                        2105 F2INC  AR    F2REG,RW1             ADD OLD VALUE                        18900021
 000D42 47F0 A1C0      00C38        2106        BC    UNCOND,F2NEXT         READ NEXT ELEMENT                    18910021
 000D46 4160 000C      0000C        2107 PROCFV   LA    RW1,DX12             12 BYTE VIRDEF                      18920021
 000D4A 47F0 A2C8      00D40        2108        BC    UNCOND,F2INC          POINT TO NEXT ELEMENT                18930021
 000D50                             2109        DS    0F               ALIGN                                     18940021
 000D50 00                          2110 ACONTB DC    X'00'            VARIABLE-LENGTH ENTRIES                   18950021
 000D51 000054                      2111        DC    AL3(CONTBL)      IN CONTBL                                 18960021
 000D54 0C00                        2112 CONNUM   DC    X'0C00'       PRIME TO 3K                          56154 18970021
 000D56 0000                        2113        DC    H'0'                                                       18980021
 000D58                             2114        DS    0F                                                         18990021
 000D58 00                          2115 ACONDS DC    X'00'            VARIABLE-LENGTH ENTRIES                   19000021
 000D59 00007C                      2116        DC    AL3(CONDIS)                                                19010021
 000D5C 0C00                        2117 CONNU2   DC    X'0C00'       PRIME TO 3K                          56154 19020021
 000D5E 0000                        2118        DC    H'0'                                                       19030021
 000D60 0000                        2119 ASTOP  DC    H'0'                                                       19040021
 000D62 0001                        2120        DC    H'1'                                                       19050021
 000D64 C9D3C2D6E2E3D7F0            2121        DC    CL8'ILBOSTP0'                                              19060021
 000D6C FF                          2122        DC    X'FF'                                                      19070021
1PH60     IKFCBL60                                                                                              PAGE   48
-  LOC  OBJECT CODE    ADDR1 ADDR2  STMT   SOURCE STATEMENT                                       ASM 0201 11.03 02/14/15
0                                   2124 * LTLDIS + LTLRTN                                                       19090021
                                    2125 *=2    PROCESS LITERAL DEFINITION SO THAT ADDRESS OF                    19100021
                                    2126 *=  A LITERAL CAN BE FOUND BY REFERENCING                               19110021
                                    2127 *=  TAMER TABLE 'LTLTBL'                                                19120021
                                    2128 *                                                                       19130021
 000D6E                             2129 LTLDIS DS    0H                                                         19140021
 000D6E 96FF D117      03EAF        2130          OI    LTLDSW,LTLDISPL     DISPLAY TYPE                         19150021
 000D72 5810 A2E0      00D58        2131        L     R1,ACONDS                                                  19160021
 000D76 47F0 A30A      00D82        2132          BC    UNCOND,LTLR05       GET TABLE STARTING POINT             19170021
                             00D7A  2133 LTLRTN EQU   *                                                          19180021
 000D7A 9400 D117      03EAF        2134          NI    LTLDSW,LTLNODSP     NOT DISPLAY TYPE                     19190021
 000D7E 5810 A2D8      00D50        2135        L     R1,ACONTB                                                  19200021
 000D82 58F0 C4AC      03B3C        2136 LTLR05 L     R15,ATABLE                                                 19210021
 000D86 05EF                        2137        BALR  RS1,R15               GET LITERAL TABLE ADDR AND SZ        19220021
 000D88 5010 D0E0      03E78        2138        ST    R1,LSTART                                                  19230021
 000D8C 1A12                        2139        AR    R1,R2                                                      19240021
 000D8E 5010 D0E4      03E7C        2140        ST    R1,LEND                                                    19250021
 000D92 4150 0001      00001        2141          LA    RW3,ONEBYTE         BOUNDARY                             19260021
 000D96 91C0 4001      00001        2142          TM    LTLBND(F2REG),FOUR8ORC  ANY ALIGNMENT                    19270021
 000D9A 4780 A342      00DBA        2143        BC    ZERO,BOUND            NO                                   19280021
 000D9E 47E0 A332      00DAA        2144        BC    NOTONE,LTLR25         YES, FULL OR HALFWORD                19290021
 000DA2 4150 0008      00008        2145          LA    RW3,DW8BYTES        DOUBLE-WORD                          19300021
 000DA6 47F0 A342      00DBA        2146          BC    UNCOND,BOUND        NOW HAVE DW BOUNDARY                 19310021
 000DAA 4150 0002      00002        2147 LTLR25   LA    RW3,TWOBYTE                                              19320021
 000DAE 9180 4001      00001        2148          TM    LTLBND(F2REG),HALFWRD  HALF-WORD                         19330021
 000DB2 4780 A342      00DBA        2149        BC    ZERO,BOUND            YES                                  19340021
 000DB6 4150 0004      00004        2150          LA    RW3,FOURBYTE                                             19350021
 000DBA 4050 D0EA      03E82        2151 BOUND  STH   RW3,BDINCR       SAVE INCREMENT                            19360021
 000DBE 5860 D0E0      03E78        2152        L     RW1,LSTART                                                 19370021
 000DC2 5960 D0E4      03E7C        2153 OKBOUN C     RW1,LEND         STILL IN TABLE                            19380021
 000DC6 47B0 A3F2      00E6A        2154        BC    NOTLO,NOMTCH     NO                                        19390021
 000DCA 1B55                        2155        SR    RW3,RW3          MATCH COUNT ZERO                          19400021
 000DCC 4354 0002      00002        2156        IC    RW3,LTLLNG(F2REG)     SET TO SIZE OF LITERAL               19410021
 000DD0 1876                        2157        LR    RW2,RW1                                                    19420021
 000DD2 5B70 D0E0      03E78        2158        S     RW2,LSTART                                                 19430021
 000DD6 4070 D0DE      03E76        2159        STH   RW2,LMATCH       DISP OF MATCH LOCATION                    19440021
 000DDA 1876                        2160        LR    RW2,RW1         DISPLACEMENT AND START ADDR                19450021
 000DDC 1A75                        2161        AR    RW2,RW3                                                    19460021
 000DDE 5970 D0E4      03E7C        2162        C     RW2,LEND         ENOUGH ROOM IN TABLE                      19470021
 000DE2 47D0 A374      00DEC        2163        BC    NOTHI,COMP10          YES                                  19480021
 000DE6 5B70 D0E4      03E7C        2164        S     RW2,LEND         NO                                        19490021
 000DEA 1B57                        2165        SR    RW3,RW2          USE REMAINDER                             19500021
 000DEC 0650                        2166 COMP10 BCTR  RW3,R0                 DECREMENT FOR EXECUTE               19510021
 000DEE 4174 0003      00003        2167        LA    RW2,LTLCON(F2REG)                                          19520021
 000DF2 4450 A438      00EB0        2168        EX    RW3,COMPNX            COMPARE                              19530021
 000DF6 4770 A398      00E10        2169        BC    NOTEQ,CMUNEQ     NOT A MATCH                               19540021
 000DFA 4155 0001      00001        2170          LA    RW3,DX1(RW3)    UP MATCH COUNT                           19550021
 000DFE 1B00                        2171        SR    R0,R0                                                      19560021
 000E00 4304 0002      00002        2172        IC    R0,LTLLNG(F2REG)       GET LENGTH                          19570021
 000E04 1505                        2173        CLR   R0,RW3                 ALL COMPARE                         19580021
 000E06 4780 A3CC      00E44        2174        BC    EQ,SETDIS             YES, OUT                             19590021
 000E0A 1A75                        2175        AR    RW2,RW3          UP INPUT LOC                              19600021
 000E0C 47F0 A3A6      00E1E        2176        BC    UNCOND,CALCL2         NO, EXPAND TABLE                     19610021
 000E10 4A60 D0EA      03E82        2177 CMUNEQ AH    RW1,BDINCR            POSITION TO NEXT BYTE ON             19620021
 000E14 47F0 A34A      00DC2        2178        BC    UNCOND,OKBOUN    PROPER BOUNDARY                           19630021
1PH60     IKFCBL60                                                                                              PAGE   49
-  LOC  OBJECT CODE    ADDR1 ADDR2  STMT   SOURCE STATEMENT                                       ASM 0201 11.03 02/14/15
0000E18 1B00                        2179 CALCLN SR    R0,R0              END OF TABLE                            19640021
 000E1A 4304 0002      00002        2180        IC    R0,LTLLNG(F2REG)  LENGTH                                   19650021
 000E1E 1B05                        2181 CALCL2 SR    R0,RW3                 MINUS MATCHES                       19660021
 000E20 4000 D0E8      03E80        2182        STH   R0,LTLINC         SAVE                                     19670021
 000E24 5810 A2D8      00D50        2183        L     R1,ACONTB                                                  19680021
 000E28 91FF D117      03EAF        2184          TM    LTLDSW,LTLDISPL     DISPLAY TYPE                         19690021
 000E2C 4780 A3BC      00E34        2185        BC    ZERO,CALCL3           NO, BR TO GET TABLE SPACE            19700021
 000E30 5810 A2E0      00D58        2186        L     R1,ACONDS         DISPLAY TYPE                             19710021
 000E34 58F0 9130      00130        2187 CALCL3 L     R15,AINSRT                                                 19720021
 000E38 05EF                        2188        BALR  RS1,R15            GET TABLE SPACE                         19730021
 000E3A 4850 D0E8      03E80        2189        LH    RW3,LTLINC                                                 19740021
 000E3E 0650                        2190        BCTR  RW3,R0                LENGTH - 1                           19750021
 000E40 4450 A43E      00EB6        2191        EX    RW3,STRINS       MOVE DATA                                 19760021
 000E44 4850 D0DE      03E76        2192 SETDIS LH    RW3,LMATCH                                                 19770021
 000E48 5450 C024      036B4        2193        N     RW3,C15BIT                                                 19780021
 000E4C 5810 C690      03D20        2194        L     R1,ALTLTB                                                  19790021
 000E50 58F0 9130      00130        2195        L     R15,AINSRT        CALL INSERT TO                           19800021
 000E54 05EF                        2196        BALR  RS1,R15            GET TABLE SPACE                         19810021
 000E56 4052 0000      00000        2197          STH   RW3,DX0(R2)      STORE POINTER                           19820021
 000E5A 91FF D117      03EAF        2198          TM    LTLDSW,LTLDISPL     DISPLAY TYPE                         19830021
 000E5E 4780 A2BE      00D36        2199        BC    ZERO,PROCFL           NO, BACK TO READ F2                  19840021
 000E62 9680 2000      00000        2200          OI    DX0(R2),HION        HIGH-ORDER BIT ON IF DISPLAY         19850021
 000E66 47F0 A2BE      00D36        2201          BC    UNCOND,PROCFL       BACK TO READ F2                      19860021
 000E6A 5B60 D0E0      03E78        2202 NOMTCH S     RW1,LSTART                                                 19870021
 000E6E 4060 D0DE      03E76        2203        STH   RW1,LMATCH                                                 19880021
 000E72 5810 A2D8      00D50        2204        L     R1,ACONTB                                                  19890021
 000E76 91FF D117      03EAF        2205          TM    LTLDSW,LTLDISPL     DISPLAY TYPE                         19900021
 000E7A 4780 A40A      00E82        2206        BC    ZERO,NOMT02           NO, USE CONTBL ADDRESS               19910021
 000E7E 5810 A2E0      00D58        2207        L     R1,ACONDS                                                  19920021
 000E82 58F0 C4AC      03B3C        2208 NOMT02 L     R15,ATABLE                                                 19930021
                                    2209 *                                                                       19940021
 000E86 1871                        2210        LR    RW2,R1            SAVE TIB ADDRESS FOR INSERT              19950021
 000E88 05EF                        2211        BALR  RS1,R15               GET TABLE ADDR AND SIZE              19960021
 000E8A 1B62                        2212        SR    RW1,R2                                                     19970021
 000E8C 1206                        2213        LTR   R0,RW1            SLACK BYTES                              19980021
 000E8E 4780 A42E      00EA6        2214        BC    ZERO,NOMT04           NO SLACK BYTES                       19990021
 000E92 58F0 9130      00130        2215        L     R15,AINSRT        GET TABLE SPACE                          20000021
 000E96 1817                        2216        LR    R1,RW2            RESTORE TIB ADDRESS                      20010021
 000E98 05EF                        2217        BALR  RS1,R15               GET TABLE SPACE                      20020021
 000E9A 1850                        2218        LR    RW3,R0                                                     20030021
 000E9C 0650                        2219        BCTR  RW3,R0                LENGTH - 1                           20040021
 000E9E 4170 C37D      03A0D        2220        LA    RW2,ZERO7X                                                 20050021
 000EA2 4450 A43E      00EB6        2221        EX    RW3,STRINS                                                 20060021
 000EA6 4174 0003      00003        2222 NOMT04 LA    RW2,LTLCON(F2REG)                                          20070021
 000EAA 1B55                        2223        SR    RW3,RW3                                                    20080021
 000EAC 47F0 A3A0      00E18        2224        BC    UNCOND,CALCLN         NEXT ENTRY                           20090021
 000EB0 D500 6000 7000 00000 00000  2225 COMPNX   CLC   DX0(LX1,RW1),DX0(RW2)                                    20100021
 000EB6 D200 2000 7000 00000 00000  2226 STRINS   MVC   DX0(LX1,R2),DX0(RW2)                                     20110021
1PH60     IKFCBL60                                                                                              PAGE   50
-  LOC  OBJECT CODE    ADDR1 ADDR2  STMT   SOURCE STATEMENT                                       ASM 0201 11.03 02/14/15
0                                   2228 *VIRRTN                                                                 20130021
                                    2229 *=2    PROCESS VIRTUAL DEFINITION                                       20140021
                                    2230 *=         FOUND ON F2                                                  20150021
                                    2231 *                                                                       20160021
 000EBC                             2232 VIRRTN DS    0H                                                         20170021
 000EBC 9400 D118      03EB0        2233          NI    VRCSW,VRCLNK        LINK TYPE                            20180021
 000EC0 5810 C6A8      03D38        2234        L     R1,ALVIRT                                                  20190021
 000EC4 91FF 4001      00001        2235          TM    VIRTYP(F2REG),ALLON                                      20200021
 000EC8 4770 A45C      00ED4        2236        BC    NOTZER,VIRTAB    LINK TYPE                                 20210021
 000ECC 9680 D118      03EB0        2237          OI    VRCSW,VRCCALL       CALL TYPE                            20220021
 000ED0 5810 C6A0      03D30        2238        L     R1,ACVIRT         CALL TYPE                                20230021
 000ED4 58F0 C4AC      03B3C        2239 VIRTAB L     R15,ATABLE                                                 20240021
 000ED8 05EF                        2240        BALR  RS1,R15               GET TABLE ADDR AND SIZE              20250021
 000EDA 5010 D0E0      03E78        2241        ST    R1,LSTART                                                  20260021
 000EDE 1A12                        2242        AR    R1,R2                                                      20270021
 000EE0 5010 D0E4      03E7C        2243        ST    R1,LEND                                                    20280021
 000EE4 5870 D0E0      03E78        2244        L     RW2,LSTART                                                 20290021
 000EE8 5B70 D0E0      03E78        2245 VRUNEQ S     RW2,LSTART                                                 20300021
 000EEC 5470 C024      036B4        2246        N     RW2,C15BIT                                                 20310021
 000EF0 4070 D0DE      03E76        2247        STH   RW2,LMATCH       DISP OF COMPARE LOC                       20320021
 000EF4 5A70 D0E0      03E78        2248        A     RW2,LSTART                                                 20330021
 000EF8 5970 D0E4      03E7C        2249        C     RW2,LEND                                                   20340021
 000EFC 47B0 A49A      00F12        2250        BC    NOTLO,VRTNOT     NOT IN TABLE                              20350021
 000F00 D507 7000 4004 00000 00004  2251          CLC   DX0(LX8,RW2),VIRBCD(F2REG)                               20360021
 000F06 4780 A4C6      00F3E        2252        BC    EQ,VRFOUN        MATCH                                     20370021
 000F0A 4177 0008      00008        2253          LA    RW2,DX8(RW2)     NEXT ENTRY                              20380021
 000F0E 47F0 A470      00EE8        2254        BC    UNCOND,VRUNEQ         LOOP FOR NEXT ENTRY                  20390021
 000F12 4860 9162      00162        2255 VRTNOT LH    RW1,VIRCTR                                                 20400021
 000F16 4166 0004      00004        2256          LA    RW1,DX4(RW1)                                             20410021
 000F1A 5810 C6A0      03D30        2257        L     R1,ACVIRT                                                  20420021
 000F1E 91FF 4001      00001        2258          TM    VIRTYP(F2REG),ALLON                                      20430021
 000F22 4780 A4B6      00F2E        2259        BC    ZERO,VRBCDX           NO, NOT END OF BLOCK                 20440021
 000F26 4166 0004      00004        2260          LA    RW1,DX4(RW1)                                             20450021
 000F2A 5810 C6A8      03D38        2261        L     R1,ALVIRT                                                  20460021
 000F2E 4060 9162      00162        2262 VRBCDX STH   RW1,VIRCTR                                                 20470021
 000F32 58F0 9130      00130        2263        L     R15,AINSRT                                                 20480021
 000F36 05EF                        2264        BALR  RS1,R15               BR TO INSERT RTN                     20490021
 000F38 D207 2000 4004 00000 00004  2265          MVC   DX0(LX8,R2),VIRBCD(F2REG) STORE BCD                      20500021
 000F3E 5810 C698      03D28        2266 VRFOUN L     R1,AVIRPT                                                  20510021
 000F42 58F0 C4AC      03B3C        2267          L     R15,ATABLE                                               20520021
 000F46 05EF                        2268        BALR  RS1,R15               BR TO INSERT RTN                     20530021
 000F48 D201 D314 4002 040AC 00002  2269          MVC   C6WRK0(LX2),VIRNBR(F2REG)    GET VIR NUM                 20540021
 000F4E 4820 D314      040AC        2270          LH    R2,C6WRK0                                                20550021
 000F52 0620                        2271          BCTR  R2,R0              SUBTRACT  1                           20560021
 000F54 8920 0001      00001        2272          SLL   R2,DX1                  DEVELOP INDEX                    20570021
 000F58 1A21                        2273          AR    R2,R1                   POINT TO CORRECT ENTRY           20580021
 000F5A 4860 D0DE      03E76        2274        LH    RW1,LMATCH                                                 20590021
 000F5E 5460 C024      036B4        2275        N     RW1,C15BIT                                                 20600021
 000F62 4062 0000      00000        2276          STH   RW1,DX0(R2)      DISPLACEMENT IN TABLE (BITS 1-15)       20610021
 000F66 D600 2000 D118 00000 03EB0  2277          OC    DX0(LX1,R2),VRCSW BIT 0 ON IF CALL TYPE                  20620021
 000F6C 47F0 A2CE      00D46        2278        BC    UNCOND,PROCFV    GET NEXT F2 ELEMENT                       20630021
1PH60     IKFCBL60                                                                                              PAGE   51
-  LOC  OBJECT CODE    ADDR1 ADDR2  STMT   SOURCE STATEMENT                                       ASM 0201 11.03 02/14/15
0                                   2280 *  VIRTUAL POINTER ROUTINE                                              20650021
                                    2281 *  PROCESS VIRTUAL CONNECTED TO DCB                                     20660021
                                    2282 *                                                                       20670021
                             00F70  2283 DCVIRT EQU   *                                                          20680021
 000F70 9400 4000      00000        2284          NI    DX0(F2REG),INITOFF  CLEAR HIGH-ORDER BYTE                20690021
 000F74 5810 C6C0      03D50        2285        L     R1,AFILTB                                                  20700021
 000F78 58F0 9130      00130        2286        L     R15,AINSRT       CALL TO INSERT                            20710021
 000F7C 05EF                        2287        BALR  RS1,R15               BR TO INSERT RTN                     20720021
 000F7E D207 2000 4004 00000 00004  2288          MVC   DX0(LX8,R2),DX4(F2REG) STORE ELEMENT WITH NAME FIRST     20730021
 000F84 D203 2008 4000 00008 00000  2289          MVC   DX8(LX4,R2),DX0(F2REG)                                   20740021
 000F8A 47F0 A2CE      00D46        2290        BC    UNCOND,PROCFV    GET NEXT F2 ELEMENT                       20750021
1PH60     IKFCBL60                                                                                              PAGE   52
-  LOC  OBJECT CODE    ADDR1 ADDR2  STMT   SOURCE STATEMENT                                       ASM 0201 11.03 02/14/15
0                                   2292 *=1    PROCESS GN EQUATE STRINGS                                        20770021
                                    2293 *      FORMAT //08 NN LLLL RRRR RRRR ...//                              20780021
                                    2294 *                                                                       20790021
                                    2295 *             LLLL GN= TO WHICH OTHERS ARE TO BE EQUATED                20800021
                                    2296 *             RRRR GN=S WHICH ARE TO BE EQUATED TO LLLL                 20810021
                                    2297 *             NN   NUMBER OF GN='S IN STRING                            20820021
                                    2298 *                                                                       20830021
 000F8E                             2299 GNEQUR DS    0H                                                         20840021
 000F8E 4A60 D0CC      03E64        2300        AH    RW1,RPNCTR            KEEP COUNT OF GN'S FROM END OF P     20850021
 000F92 1B77                        2301 GNE020 SR    RW2,RW2                                                    20860021
 000F94 4370 4001      00001        2302        IC    RW2,A6GNCT                                                 20870021
 000F98 0670                        2303        BCTR  RW2,R0                 NO OF RR GN'S                       20880021
 000F9A 5040 D2AC      04044        2304        ST    F2REG,DCSAVI     SAVE POINTER TO INPUT RECORD              20890021
 000F9E 5810 C6B8      03D48        2305 GNE040 L     R1,AGNTBL                                                  20900021
 000FA2 58F0 C4AC      03B3C        2306        L     R15,ATABLE                                                 20910021
 000FA6 05EF                        2307        BALR  RS1,R15            TABLE ADDRESS IN R1                     20920021
 000FA8 D201 D314 4004 040AC 00004  2308          MVC   C6WRK0(LX2),A6GNR                                        20930021
 000FAE 4850 D314      040AC        2309        LH    RW3,C6WRK0                                                 20940021
 000FB2 0650                        2310        BCTR  RW3,R0                SUBTRACT 1                           20950021
 000FB4 8950 0001      00001        2311          SLL   RW3,DX1              PROPER LOC IN GNTBL                 20960021
 000FB8 4065 1000      00000        2312          STH   RW1,DX0(RW3,R1)       STORE RGN NUMBER                   20970021
 000FBC 4144 0002      00002        2313          LA    F2REG,DX2(F2REG) POINT TO NEXT RRRR                      20980021
 000FC0 4670 A526      00F9E        2314        BCT   RW2,GNE040            ANY MORE RR'S                        20990021
 000FC4 5840 D2AC      04044        2315        L     F2REG,DCSAVI     RESTORE INPUT POINTER                     21000021
 000FC8 4370 4001      00001        2316        IC    RW2,A6GNCT            LENGTH OF STRING                     21010021
 000FCC 4167 7002      00002        2317          LA    RW1,DX2(RW2,RW2)                                         21020021
 000FD0 47F0 A2C8      00D40        2318        BC    UNCOND,F2INC          GO GET NEXT F2 ELEMENT               21030021
-
0
                                    2320 *=1    PROCESS PN EQUATE STRINGS                                        21050021
                                    2321 *      FORMAT //0C NN PPPP RRRR RRRR ...//                              21060021
                                    2322 *                                                                       21070021
                                    2323 *             PPPP IS PN= TO WHICH RR'S ARE TO BE EQUATED               21080021
                                    2324 *             RRRR IS A GN=                                             21090021
                                    2325 *             NN   IS NO OF ITEMS FOLLOWING                             21100021
                                    2326 *                                                                       21110021
                                    2327 *      GET RPN= OF PN GIVEN AND INSERT INTO PROPER LOCATION IN GNTB     21120021
                                    2328 *                                                                       21130021
 000FD4                             2329 PNEQUR DS    0H                                                         21140021
 000FD4 0660                        2330        BCTR  RW1,R0                POINT TO PROPER LOCATION             21150021
 000FD6 8960 0001      00001        2331          SLL   RW1,DX1                                                  21160021
 000FDA 5810 C6B0      03D40        2332        L     R1,APNTBL                                                  21170021
 000FDE 58F0 C4AC      03B3C        2333        L     R15,ATABLE                                                 21180021
 000FE2 05EF                        2334        BALR  RS1,R15               GET TABLE ADDR AND SIZE              21190021
 000FE4 4866 1000      00000        2335          LH    RW1,DX0(RW1,R1)                                          21200021
 000FE8 47F0 A51A      00F92        2336        BC    UNCOND,GNE020         REL PN= TO BE PUT INTO GNTBL         21210021
1PH60     IKFCBL60                                                                                              PAGE   53
-  LOC  OBJECT CODE    ADDR1 ADDR2  STMT   SOURCE STATEMENT                                       ASM 0201 11.03 02/14/15
0                                   2338 * ENOPAT                                                                21230021
                                    2339 *=1       END OF OPTIMIZATION A-TEXT                                    21240021
                                    2340 *=     RESOLVE GNTBL SO KNOW NUM GN'S                                   21250021
 000FEC                             2341 ENOPAT DS    0H                                                         21260021
 000FEC D201 91C0 D0CC 001C0 03E64  2342        MVC   RGNCTR,RPNCTR         SAVE HI-COUNT OF USED PN'S           21270021
 000FF2 1B66                        2343        SR    RW1,RW1                                                    21280021
 000FF4 5810 C6B8      03D48        2344        L     R1,AGNTBL                                                  21290021
 000FF8 4111 0000      00000        2345          LA    R1,DX0(R1)                                               21300021
 000FFC 5910 D0BC      03E54        2346        C     R1,COSADR                                                  21310021
 001000 47D0 A5DE      01056        2347        BC    NOTHI,ENO090      NO GN'S                                  21320021
 001004 58F0 C4AC      03B3C        2348        L     R15,ATABLE                                                 21330021
 001008 05EF                        2349        BALR  RS1,R15               GET TABLE ADDR AND SIZE              21340021
 00100A 8960 0001      00001        2350 ENO020   SLL   RW1,DX1                                                  21350021
 00100E 4851 6000      00000        2351          LH    RW3,DX0(R1,RW1)  GET ITEM IN GNTBL                       21360021
 001012 1255                        2352        LTR   RW3,RW3                                                    21370021
 001014 4770 A5B4      0102C        2353        BC    NOTZER,ENO060         BRANCH IF EQUATED TO SOMETHING       21380021
 001018 4850 D0CC      03E64        2354        LH    RW3,RPNCTR            ZERO=NOT EQUATED,USE RELPN CTR       21390021
 00101C 4155 0001      00001        2355          LA    RW3,DX1(RW3)                                             21400021
 001020 4051 6000      00000        2356          STH   RW3,DX0(R1,RW1)                                          21410021
 001024 4050 D0CC      03E64        2357        STH   RW3,RPNCTR                                                 21420021
 001028 47F0 A5CE      01046        2358        BC    UNCOND,ENO080         ANY MORE ITEMS IN GNTBL              21430021
 00102C 4950 91C0      001C0        2359 ENO060 CH    RW3,RGNCTR                                                 21440021
 001030 47D0 A5CE      01046        2360        BC    NOTHI,ENO080          EQUATED TO PN, DONT CHANGE           21450021
 001034 4B50 91C0      001C0        2361        SH    RW3,RGNCTR                                                 21460021
 001038 0650                        2362        BCTR  RW3,R0                 EQUATED TO GN,GET RESOLVED VALU     21470021
 00103A 8950 0001      00001        2363          SLL   RW3,DX1              FROM CORRESPONDING CELL IN GNTBL    21480021
 00103E 4851 5000      00000        2364          LH    RW3,DX0(R1,RW3)  AND INSERT HERE                         21490021
 001042 4051 6000      00000        2365          STH   RW3,DX0(R1,RW1)                                          21500021
 001046 4166 0002      00002        2366 ENO080   LA    RW1,DX2(RW1)         UP POINTER TO GNTBL                 21510021
 00104A 8860 0001      00001        2367          SRL   RW1,DX1                                                  21520021
 00104E 4960 915E      0015E        2368        CH    RW1,GNCTR             END OF GNTBL                         21530021
 001052 4740 A592      0100A        2369        BC    LOW,ENO020            BR IF MORE ITEMS IN GNTBL            21540021
-
0
                                    2371 * CALCULATE LENGTH OF PGT                                               21560021
 001056                             2372 ENO090 DS    0H                                                         21570021
 001056 41F0 87A2      007D0        2373        LA    R15,M4ADD                                                  21580021
 00105A 4860 9162      00162        2374        LH    RW1,VIRCTR            LENGTH OF VIRTUALS                   21590021
 00105E 4870 91C0      001C0        2375        LH    RW2,RGNCTR        NUMBER OF PN CELLS                       21600021
 001062 05EF                        2376        BALR  RS1,R15               BR TO MULTIPLY BY 4 AND ADD          21610021
 001064 4870 D0CC      03E64        2377        LH    RW2,RPNCTR                                                 21620021
 001068 4B70 91C0      001C0        2378        SH    RW2,RGNCTR                                                 21630021
 00106C 4070 915E      0015E        2379        STH   RW2,GNCTR             SAVE                                 21640021
 001070 05EF                        2380        BALR  RS1,R15               BR TO MULTIPLY BY 4 AND ADD          21650021
 001072 4870 9160      00160        2381        LH    RW2,DCBCTR                                                 21660021
 001076 05EF                        2382        BALR  RS1,R15               BR TO MULTIPLY BY 4 AND ADD          21670021
 001078                             2383 PGT02  DS    0H                                                         21680021
 001078 4870 920E      0020E        2384        LH    RW2,VNCTR                                                  21690021
 00107C 05EF                        2385        BALR  RS1,R15               BR TO MULTIPLY BY 4 AND ADD          21700021
 00107E 4070 920E      0020E        2386        STH   RW2,VNCTR        SAVE NUMBER OF BYTES                      21710021
 001082 5810 A2D8      00D50        2387        L     R1,ACONTB                                                  21720021
 001086 58F0 C4AC      03B3C        2388        L     R15,ATABLE                                                 21730021
1PH60     IKFCBL60                                                                                              PAGE   54
-  LOC  OBJECT CODE    ADDR1 ADDR2  STMT   SOURCE STATEMENT                                       ASM 0201 11.03 02/14/15
000108A 05EF                        2389        BALR  RS1,R15               BR TO MULTIPLY BY 4 AND ADD          21740021
                                    2390 * CALCULATE NUMBER OF OVERFLOW CELLS NEEDED                             21750021
 00108C 1B77                        2391        SR    RW2,RW2                                                    21760021
 00108E 1856                        2392        LR    RW3,RW1                                                    21770021
 001090 1A52                        2393        AR    RW3,R2                                                     21780021
 001092 5950 C01C      036AC        2394 PGT03  C     RW3,C6M6         F'4095'                                   21790021
 001096 47D0 A62E      010A6        2395        BC    NOTHI,PGT04           NO OVERFLOW CELLS                    21800021
 00109A 4B50 C06A      036FA        2396        SH    RW3,CH4092                                                 21810021
 00109E 4177 0001      00001        2397          LA    RW2,DX1(RW2)                                             21820021
 0010A2 47F0 A61A      01092        2398          BC    UNCOND,PGT03        ANY MORE OVFL CELLS                  21830021
 0010A6 4070 D05C      03DF4        2399 PGT04  STH   RW2,PGTOV                                                  21840021
 0010AA 4070 D05E      03DF6        2400          STH   RW2,OVFCTR          SAVE OVFLCTR FOR SEG                 21850021
 0010AE 45E0 87A2      007D0        2401        BAL   RS1,M4ADD             BR TO MULTIPLY BY 4 AND ADD          21860021
 0010B2 45E0 8794      007C2        2402        BAL   RS1,ROUND8        LOC OF DISPLAY LITERALS                  21870021
 0010B6 1A62                        2403        AR    RW1,R2                                                     21880021
 0010B8 5810 A2E0      00D58        2404        L     R1,ACONDS                                                  21890021
 0010BC 58F0 C4AC      03B3C        2405        L     R15,ATABLE                                                 21900021
 0010C0 05EF                        2406        BALR  RS1,R15               GET TABLE ADDR AND SIZE              21910021
 0010C2 1A62                        2407        AR    RW1,R2            ADD LENGTH OF DISPLAY LITERALS           21920021
 0010C4 45E0 8778      007A6        2408        BAL   RS1,ROUND2            BR TO ROUND TO HALFWORD BOUND        21930021
 0010C8 5A60 D048      03DE0        2409        A     RW1,LOCPGT                                                 21940021
 0010CC 5060 D04C      03DE4        2410        ST    RW1,LOCPGM       START OF PROCEDURE                        21950021
                                    2411 * PUNCH NECESSARY OVERFLOW CELLS                                        21960021
 0010D0 4140 A694      0110C        2412        LA    INPUTR,PGT400         GET IN-LINE SRTN RET ADDR            21970021
 0010D4 95FF 91D0      001D0        2413          CLI   SEGLMT,NOTSEGTD     IS PROGRAM SEGMENTED                 21980021
 0010D8 4770 A694      0110C        2414        BC    NOTEQ,PGT400          YES,PUNCH OVFL CELLS LATER           21990021
 0010DC                             2415 PGT40  DS    0H                    ENTERED FROM SEGM CODE TO PUNCH      22000021
 0010DC 4870 D05E      03DF6        2416          LH    RW2,OVFCTR        GET OVFL CTR FOR SEG                   22010021
 0010E0 5860 D048      03DE0        2417        L     RW1,LOCPGT                                                 22020021
 0010E4 5060 9148      00148        2418        ST    RW1,LOCCTR                                                 22030021
 0010E8 47F0 A68C      01104        2419          BC    UNCOND,PGT042       BR TO CHECK OVFL CELL COUNT          22040021
 0010EC 4A60 C068      036F8        2420 PGT041 AH    RW1,H4096                                                  22050021
 0010F0 5060 D150      03EE8        2421        ST    RW1,NXADDR       CONTENTS OF OVERFLOW CELL                 22060021
 0010F4 4100 0004      00004        2422          LA    R0,FOURBYTE                                              22070021
 0010F8 4110 D150      03EE8        2423        LA    R1,NXADDR                                                  22080021
 0010FC 58F0 C46C      03AFC        2424        L     R15,ATXPNH                                                 22090021
 001100 05EF                        2425        BALR  RS1,R15            PUNCH TEXT                              22100021
 001102 0670                        2426        BCTR  RW2,R0                SUBTRACT 1                           22110021
 001104 1277                        2427 PGT042 LTR   RW2,RW2          MORE OVERFLOW CELLS                       22120021
 001106 4770 A674      010EC        2428        BC    NOTZER,PGT041    YES                                       22130021
 00110A 07F4                        2429        BR    INPUTR                BR TO NEXT INSTR,OR RET TO SEG C     22140021
 00110C                             2430 PGT400 DS    0H                                                         22150021
 00110C 1B55                        2431        SR    RW3,RW3                                                    22160021
 00110E 4870 D05C      03DF4        2432        LH    RW2,PGTOV                                                  22170021
 001112 4050 D05C      03DF4        2433        STH   RW3,PGTOV                                                  22180021
 001116 8970 0002      00002        2434          SLL   RW2,DX2                                                  22190021
 00111A 1A57                        2435        AR    RW3,RW2                                                    22200021
 00111C 4870 9162      00162        2436        LH    RW2,VIRCTR                                                 22210021
 001120 4050 9162      00162        2437        STH   RW3,VIRCTR                                                 22220021
 001124 1A57                        2438        AR    RW3,RW2                                                    22230021
 001126 4870 91C0      001C0        2439        LH    RW2,RGNCTR                                                 22240021
 00112A 4050 915C      0015C        2440        STH   RW3,PNCTR                                                  22250021
 00112E 8970 0002      00002        2441          SLL   RW2,DX2                                                  22260021
 001132 1A57                        2442        AR    RW3,RW2                                                    22270021
 001134 4870 915E      0015E        2443        LH    RW2,GNCTR                                                  22280021
1PH60     IKFCBL60                                                                                              PAGE   55
-  LOC  OBJECT CODE    ADDR1 ADDR2  STMT   SOURCE STATEMENT                                       ASM 0201 11.03 02/14/15
0001138 4050 915E      0015E        2444        STH   RW3,GNCTR                                                  22290021
 00113C 8970 0002      00002        2445          SLL   RW2,DX2                                                  22300021
 001140 1A57                        2446        AR    RW3,RW2                                                    22310021
 001142 4870 9160      00160        2447        LH    RW2,DCBCTR                                                 22320021
 001146 4050 9160      00160        2448        STH   RW3,DCBCTR                                                 22330021
 00114A 8970 0002      00002        2449          SLL   RW2,DX2                                                  22340021
 00114E                             2450 PGTIN1 DS    0H                                                         22350021
 00114E 1A57                        2451        AR    RW3,RW2                                                    22360021
 001150 4870 920E      0020E        2452          LH    RW2,VNCTR           NO VNS                               22370021
 001154 4050 9224      00224        2453          STH   RW3,VNILOC          DISP OF VNS                          22380021
 001158 4167 5000      00000        2454          LA    RW1,DX0(RW2,RW3)                                         22390021
 00115C 45E0 8794      007C2        2455        BAL   RS1,ROUND8            BR TO ROUND TO DW BOUNDARY           22400021
 001160 4060 9164      00164        2456        STH   RW1,LTLCTR                                                 22410021
 001164                             2457 ENO100 DS    0H                                                         22420021
                                    2458 *=        FINISH UP LITERALS AND VIRTUALS                               22430021
                                    2459 *  GET LENGTH OF ALVIRT                                                 22440021
 001164 5810 C6A8      03D38        2460        L     R1,ALVIRT             GET PARAM LIST ADDRESS               22450021
 001168 58F0 C4AC      03B3C        2461        L     R15,ATABLE                                                 22460021
 00116C 05EF                        2462        BALR  RS1,R15               GET LENGTH OF LINK VIRTUALS          22470021
 00116E 4020 D064      03DFC        2463        STH   R2,LNGLNK             SAVE FOR SEGMENTATION                22480021
 001172 4140 A7F8      01270        2464        LA    INPUTR,SETLTL1                                             22490021
 001176 95FF 91D0      001D0        2465          CLI   SEGLMT,NOTSEGTD     IS PROGRAM SEGMENTED                 22500021
 00117A 4770 A7F6      0126E        2466        BC    NOTEQ,SETLTL          YES,PUNCH LATER                      22510021
 00117E                             2467 PNVIRT DS    0H                    ENTERED FROM SEGM CODE               22520021
 00117E 5810 C6A8      03D38        2468        L     R1,ALVIRT                                                  22530021
 001182 58F0 C4AC      03B3C        2469        L     R15,ATABLE                                                 22540021
 001186 05EF                        2470        BALR  RS1,R15               GET TABLE ADDR AND SIZE              22550021
 001188 4020 D064      03DFC        2471        STH   R2,LNGLNK                                                  22560021
                                    2472 *  PUNCH TEXT FOR LINK VIRTUALS                                         22570021
 00118C 5860 D048      03DE0        2473 STV030 L     RW1,LOCPGT                                                 22580021
 001190 4A60 9162      00162        2474        AH    RW1,VIRCTR                                                 22590021
 001194 5060 9148      00148        2475        ST    RW1,LOCCTR                                                 22600021
 001198 1202                        2476        LTR   R0,R2                                                      22610021
 00119A 4780 A72C      011A4        2477          BC    ZERO,STV035         BR, NO LINK VIRTUALS                 22620021
 00119E 58F0 C46C      03AFC        2478        L     R15,ATXPNH                                                 22630021
 0011A2 05EF                        2479        BALR  RS1,R15               PUNCH TEXT                           22640021
                                    2480 * PUNCH ESD'S, TEXT AND RLD'S FOR VIRTUALS IN FILTBL AND CVIRT          22650021
                             011A4  2481 STV035 EQU   *                                                          22660021
 0011A4 5810 9148      00148        2482        L     R1,LOCCTR                                                  22670021
 0011A8 5010 D32C      040C4        2483        ST    R1,LOCSAV        SAVE LOCCTR                               22680021
 0011AC 96FF D3D0      04168        2484          OI    DCBSW,DCBFLTB       SET SW FOR FILTBL PROCESSING         22690021
 0011B0 5810 C6C0      03D50        2485        L     R1,AFILTB                                                  22700021
 0011B4 58F0 C4AC      03B3C        2486        L     R15,ATABLE                                                 22710021
 0011B8 05EF                        2487        BALR  RS1,R15               GET TABLE ADDR AND SIZE              22720021
                             011BA  2488 STV036 EQU   *                                                          22730021
 0011BA 1851                        2489        LR    RW3,R1           TABLE START                               22740021
 0011BC 4161 2000      00000        2490          LA    RW1,DX0(R1,R2)  TABLE END                                22750021
 0011C0 1956                        2491 STV040 CR    RW3,RW1          IN TABLE?                                 22760021
 0011C2 47B0 A7D4      0124C        2492        BC    NOTLO,STV050     NO - GO TO CHECK IF THROUGH WITH ESD'     22770021
 0011C6 91FF D3D0      04168        2493          TM    DCBSW,DCBFLTB       ARE WE PROCESSING FILTBL             22780021
 0011CA 47E0 A75E      011D6        2494        BC    NOTONE,STV041    NO - SET UP FOR ESD'S                     22790021
 0011CE 5815 0008      00008        2495          L     R1,DX8(RW3)     YES, SET UP LOCCTR                       22800021
 0011D2 5010 9148      00148        2496        ST    R1,LOCCTR                                                  22810021
 0011D6 1815                        2497 STV041 LR    R1,RW3           BCD  LOCATION                             22820021
 0011D8 4870 D068      03E00        2498        LH    RW2,ESDID                                                  22830021
1PH60     IKFCBL60                                                                                              PAGE   56
-  LOC  OBJECT CODE    ADDR1 ADDR2  STMT   SOURCE STATEMENT                                       ASM 0201 11.03 02/14/15
00011DC 4177 0001      00001        2499          LA    RW2,DX1(RW2)    UP ESD NUMBER                            22840021
 0011E0 4070 D068      03E00        2500        STH   RW2,ESDID                                                  22850021
 0011E4 4100 0002      00002        2501          LA    R0,ESDTYP2          ER TYPE                              22860021
 0011E8 58F0 C454      03AE4        2502        L     R15,AESD                                                   22870021
 0011EC 05EF                        2503        BALR  RS1,R15               PUNCH ESD                            22880021
 0011EE 4110 C37D      03A0D        2504        LA    R1,ZERO7X         ZERO TEXT                                22890021
 0011F2 4100 0004      00004        2505          LA    R0,FOURBYTE                                              22900021
 0011F6 5870 9148      00148        2506        L     RW2,LOCCTR       SAVE FOR RLD                              22910021
 0011FA 58F0 C46C      03AFC        2507        L     R15,ATXPNH                                                 22920021
 0011FE 05EF                        2508        BALR  RS1,R15            PUNCH 4 BYTES OF ZEROES                 22930021
 001200 1817                        2509        LR    R1,RW2                                                     22940021
 001202 4100 001C      0001C        2510          LA    R0,DX28          FLAG BYTE                               22950021
                                    2511 *  IF SPECIAL NAME, MAKE NON-BRANCH TYPE                                22960021
 001206 D503 5000 C384 00000 03A14  2512          CLC   DX0(LX4,RW3),VTRTBL                                      22970021
 00120C 4770 A7BA      01232        2513        BC    NOTEQ,STV060          NOT A TABLE SUBRTN                   22980021
 001210 4120 0006      00006        2514          LA    R2,SIXSUFFX                                              22990021
 001214 4170 C384      03A14        2515        LA    RW2,VTRTBL                                                 23000021
 001218 D503 5004 7004 00004 00004  2516 STV055   CLC   DX4(LX4,RW3),DX4(RW2) DOES SUFFIX MATCH                  23010021
 00121E 4780 A7B6      0122E        2517        BC    EQ,STV056             YES                                  23020021
 001222 4177 0004      00004        2518          LA    RW2,DX4(RW2)                                             23030021
 001226 4620 A7A0      01218        2519        BCT   R2,STV055             BR TO CHECK SUFFIXES                 23040021
 00122A 47F0 A7BA      01232        2520          BC    UNCOND,STV060       NO MATCH, OUT OF TABLE               23050021
 00122E 5400 C004      03694        2521 STV056 N     R0,C6M2                                                    23060021
 001232 58F0 C490      03B20        2522 STV060 L     R15,ARLD                                                   23070021
 001236 05EF                        2523        BALR  RS1,R15               PUNCH RLD CARD                       23080021
 001238 4155 0008      00008        2524          LA    RW3,DX8(RW3)    NEXT BCD LOCATION FOR CVIRT              23090021
 00123C 91FF D3D0      04168        2525          TM    DCBSW,DCBFLTB       ARE WE PROCESSING FILTBL             23100021
 001240 47E0 A7D0      01248        2526        BC    NOTONE,STV045         NOT FILTBL PROCESS, PUNCH RLD        23110021
 001244 4155 0004      00004        2527          LA    RW3,DX4(RW3)    NEXT BCD LOCATION FOR FILTBL             23120021
 001248 47F0 A748      011C0        2528 STV045 BC    UNCOND,STV040         ANY MORE ENTRIES IN TABLE            23130021
                             0124C  2529 STV050 EQU   *                                                          23140021
 00124C 91FF D3D0      04168        2530          TM    DCBSW,DCBFLTB       ARE WE PROCESSING FILTBL             23150021
 001250 47E0 A7F6      0126E        2531        BC    NOTONE,SETLTL    END OF ESD/RLD PUNCHING                   23160021
 001254 9400 D3D0      04168        2532          NI    DCBSW,INITOFF       END PROCESSING FILTBL-SW OFF         23170021
 001258 5810 D32C      040C4        2533        L     R1,LOCSAV                                                  23180021
 00125C 5010 9148      00148        2534        ST    R1,LOCCTR        RESTORE LOCCTR                            23190021
 001260 5810 C6A0      03D30        2535        L     R1,ACVIRT        PROCESS CVIRT                             23200021
 001264 58F0 C4AC      03B3C        2536        L     R15,ATABLE                                                 23210021
 001268 05EF                        2537        BALR  RS1,R15               GET TABLE ADDR AND SIZE              23220021
 00126A 47F0 A742      011BA        2538        BC    UNCOND,STV036         GO PROCESS CVIRTB                    23230021
                                    2539 * SET LITERAL POINTERS TO PROPER DISPLACEMENTS                          23240021
 00126E 07F4                        2540 SETLTL BR    INPUTR                BR TO NEXT INSTR OR RET TO SEG C     23250021
 001270 5810 A2D8      00D50        2541 SETLTL1  L     R1,ACONTB                                                23260021
 001274 58F0 C4AC      03B3C        2542        L     R15,ATABLE                                                 23270021
 001278 05EF                        2543        BALR  RS1,R15               GET TABLE ADDR AND SIZE              23280021
 00127A 4020 D114      03EAC        2544        STH   R2,DLTLCT                                                  23290021
 00127E 5810 C690      03D20        2545        L     R1,ALTLTB                                                  23300021
 001282 58F0 C4AC      03B3C        2546        L     R15,ATABLE                                                 23310021
 001286 05EF                        2547        BALR  RS1,R15               GET TABLE ADDR AND SIZE              23320021
 001288 1851                        2548        LR    RW3,R1            START                                    23330021
 00128A 4161 2000      00000        2549          LA    RW1,DX0(R1,R2)    END + 1                                23340021
 00128E 1556                        2550 ENCOMP CLR   RW3,RW1                                                    23350021
 001290 47B0 A840      012B8        2551        BC    NOTLO,LTLPNC          NO MORE ELEMENTS IN TABLE            23360021
 001294 4875 0000      00000        2552          LH    RW2,DX0(RW3)                                             23370021
 001298 5470 C024      036B4        2553        N     RW2,C15BIT                                                 23380021
1PH60     IKFCBL60                                                                                              PAGE   57
-  LOC  OBJECT CODE    ADDR1 ADDR2  STMT   SOURCE STATEMENT                                       ASM 0201 11.03 02/14/15
000129C 4A70 9164      00164        2554        AH    RW2,LTLCTR       ADD                                       23390021
 0012A0 9180 5000      00000        2555          TM    DX0(RW3),HION       IF HIGH-ORDER ON ITS DISPLAY         23400021
 0012A4 4780 A834      012AC        2556        BC    ZERO,ENCOM2           BR NOT DISPLAY LITERAL               23410021
 0012A8 4A70 D114      03EAC        2557        AH    RW2,DLTLCT       DISPLAY TYPE                              23420021
 0012AC                             2558 ENCOM2 DS    0H                                                         23430021
 0012AC 4075 0000      00000        2559          STH   RW2,DX0(RW3)                                             23440021
 0012B0 4155 0002      00002        2560          LA    RW3,DX2(RW3)    NEXT PTR                                 23450021
 0012B4 47F0 A816      0128E        2561        BC    UNCOND,ENCOMP         CHECK ELEMENTS IN TABLE              23460021
                             012B8  2562 LTLPNC EQU   *                                                          23470021
 0012B8 4140 A8DC      01354        2563          LA    INPUTR,STATABC  RET ADDR FOR IN-LINE SUBRTN              23480021
 0012BC 95FF 91D0      001D0        2564          CLI   SEGLMT,NOTSEGTD     IS PROGRAM SEGMENTED                 23490021
 0012C0 4770 A8DA      01352        2565          BC    NOTEQ,STATAB    YES,PUNCH LIT LATER(ROOT SEG)            23500021
 0012C4                             2566 PNLIT  DS    0H                    ENTERED FROM SEGMENTATION CODE       23510021
 0012C4 5860 D048      03DE0        2567        L     RW1,LOCPGT                                                 23520021
 0012C8 4A60 9164      00164        2568        AH    RW1,LTLCTR                                                 23530021
 0012CC 5060 9148      00148        2569        ST    RW1,LOCCTR                                                 23540021
 0012D0 5060 D0D4      03E6C        2570        ST    RW1,LDMLOC                                                 23550021
 0012D4 5810 A2D8      00D50        2571        L     R1,ACONTB                                                  23560021
 0012D8 58F0 C4AC      03B3C        2572        L     R15,ATABLE                                                 23570021
 0012DC 05EF                        2573        BALR  RS1,R15               GET TABLE ADDR AND SIZE              23580021
 0012DE 1202                        2574        LTR   R0,R2                                                      23590021
 0012E0 4780 A882      012FA        2575        BC    ZERO,LTLPN2           LENGTH IS ZERO                       23600021
 0012E4 5010 D0D8      03E70        2576        ST    R1,LDMVAL                                                  23610021
 0012E8 4000 D0DC      03E74        2577        STH   R0,LDMLEN                                                  23620021
 0012EC 58F0 C46C      03AFC        2578        L     R15,ATXPNH                                                 23630021
 0012F0 05EF                        2579        BALR  RS1,R15           PUNCH CONTBL                             23640021
 0012F2 1B11                        2580        SR    R1,R1              FIRST TYPE LITERAL POOL DUMP            23650021
 0012F4 58F0 C4B0      03B40        2581        L     R15,ALTDMP                                                 23660021
 0012F8 05EF                        2582        BALR  RS1,R15               GO DUMP LITERAL POOL                 23670021
 0012FA 5810 A2E0      00D58        2583 LTLPN2 L     R1,ACONDS                                                  23680021
 0012FE 58F0 C4AC      03B3C        2584        L     R15,ATABLE                                                 23690021
 001302 05EF                        2585        BALR  RS1,R15               GET TABLE ADDR AND SIZE              23700021
 001304 1202                        2586        LTR   R0,R2                                                      23710021
 001306 4780 A8B2      0132A        2587        BC    ZERO,LTLREL           GO RELEASE TABLES                    23720021
 00130A 5010 D0D8      03E70        2588        ST    R1,LDMVAL                                                  23730021
 00130E 4000 D0DC      03E74        2589        STH   R0,LDMLEN                                                  23740021
 001312 5870 9148      00148        2590        L     RW2,LOCCTR       DISPLAY                                   23750021
 001316 5070 D0D4      03E6C        2591        ST    RW2,LDMLOC                                                 23760021
 00131A 58F0 C46C      03AFC        2592        L     R15,ATXPNH                                                 23770021
 00131E 05EF                        2593        BALR  RS1,R15               PUNCH TEXT                           23780021
 001320 4110 0001      00001        2594          LA    R1,DX1           SECOND TYPE LITERAL POOL DUMP           23790021
 001324 58F0 C4B0      03B40        2595        L     R15,ALTDMP                                                 23800021
 001328 05EF                        2596          BALR  RS1,R15            GO DUMP POOL                          23810021
 00132A                             2597 LTLREL DS    0H                                                         23820021
                                    2598 * RELEASE CONTBL CONDIS + FILTBL                                        23830021
 00132A 4110 A2D8      00D50        2599          LA    R1,ACONTB          XTABRL WILL LOAD R1 WITH              23840021
 00132E 58F0 C4A8      03B38        2600          L     R15,ATABRL         TIB ADDRESS                           23850021
 001332 05EF                        2601          BALR  RS1,R15            GO RELEASE                            23860021
 001334 4110 A2E0      00D58        2602          LA    R1,ACONDS          XTABRL WILL LOAD R1 WITH              23870021
 001338 58F0 C4A8      03B38        2603          L     R15,ATABRL         TIB ADDRESS                           23880021
 00133C 05EF                        2604          BALR  RS1,R15            GO RELEASE                            23890021
 00133E 4110 C6C0      03D50        2605          LA    R1,AFILTB          XTABRL WILL LOAD R1 WITH              23900021
 001342 58F0 C4A8      03B38        2606          L     R15,ATABRL         TIB ADDRESS                           23910021
 001346 05EF                        2607        BALR  RS1,R15               GO RELEASE TABLE                     23920021
 001348 9240 D77D      04515        2608          MVI   OU6CDN,BLANK        BLANK CARD NO FIELD FOR TRACE        23930021
1PH60     IKFCBL60                                                                                              PAGE   58
-  LOC  OBJECT CODE    ADDR1 ADDR2  STMT   SOURCE STATEMENT                                       ASM 0201 11.03 02/14/15
000134C D203 D77E D77D 04516 04515  2609          MVC   OU6CDN+NX1(LX4),OU6CDN                                   23940021
 001352                             2610 STATAB   DS    0H                                                       23950021
 001352 07F4                        2611          BR    INPUTR        BR TO NEXT INSTR OR RET TO SEG C           23960021
 001354                             2612 STATABC  DS    0H                                                       23970021
                                    2613 * MAKE LTLTBL, VIRPTR, CVIRTB + LVIRTB STATIC                           23980021
 001354 4110 C690      03D20        2614          LA    R1,ALTLTB     XSTATC WILL LOAD R1 WITH TIB ADDRESS       23990021
 001358 58F0 C4A4      03B34        2615        L     R15,ASTATC                                                 24000021
 00135C 05EF                        2616        BALR  RS1,R15               BR TO MAKE TABLE STATIC              24010021
 00135E 4110 C698      03D28        2617        LA    R1,AVIRPT        XSTATC WILL LOAD R1 WITH TIB ADDRESS      24020021
 001362 58F0 C4A4      03B34        2618        L     R15,ASTATC                                                 24030021
 001366 05EF                        2619        BALR  RS1,R15               BR TO MAKE TABLE STATIC              24040021
 001368 4110 C6A0      03D30        2620        LA    R1,ACVIRT        XSTATC WILL LOAD R1 WITH TIB ADDRESS      24050021
 00136C 58F0 C4A4      03B34        2621        L     R15,ASTATC                                                 24060021
 001370 05EF                        2622        BALR  RS1,R15               BR TO MAKE TABLE STATIC              24070021
 001372 4110 C6A8      03D38        2623        LA    R1,ALVIRT        XSTATC WILL LOAD R1 WITH TIB ADDRESS      24080021
 001376 58F0 C4A4      03B34        2624        L     R15,ASTATC                                                 24090021
 00137A 05EF                        2625        BALR  RS1,R15               BR TO MAKE TABLE STATIC              24100021
                                    2626 *=1    PUT PGT INTO MEMORY MAP                                          24110021
                                    2627 *                                                                       24120021
 00137C                             2628 PRPGT  DS    0H                                                         24130021
 00137C 58F0 C460      03AF0        2629        L     R15,APUT                                                   24140021
 001380 05EF                        2630        BALR  RS1,R15               PRINT BLANK LINE                     24150021
 001382 05EF                        2631        BALR  RS1,R15               PRINT BLANK LINE                     24160021
 001384 5860 D048      03DE0        2632        L     RW1,LOCPGT                                                 24170021
 001388 5060 D0D0      03E68        2633        ST    RW1,GTLOC                                                  24180021
 00138C D202 D790 87C8 04528 007F6  2634          MVC   OU6LC(LX3),CCPGT                                         24190021
 001392 5060 D314      040AC        2635        ST    RW1,C6WRK0                                                 24200021
 001396 58F0 C474      03B04        2636        L     R15,AS6010        CONVERT FOR LIST                         24210021
 00139A 05EF                        2637        BALR  RS1,R15               BR TO CONVERT RTN                    24220021
 00139C D204 D7A8 D31B 04540 040B3  2638          MVC   OU6REC+NX44(LX5),C6WRK4                                  24230021
 0013A2 58F0 C460      03AF0        2639        L     R15,APUT                                                   24240021
 0013A6 05EF                        2640        BALR  RS1,R15               PRINT LINE                           24250021
 0013A8 05EF                        2641        BALR  RS1,R15               PRINT BLANK LINE                     24260021
 0013AA 4150 88A5      008D3        2642        LA    RW3,CCOVFL                                                 24270021
 0013AE 5050 D0EC      03E84        2643        ST    RW3,MAPTXT                                                 24280021
 0013B2 4860 D05C      03DF4        2644        LH    RW1,PGTOV                                                  24290021
 0013B6 58F0 C494      03B24        2645        L     R15,AMAPLC                                                 24300021
 0013BA 05EF                        2646        BALR  RS1,R15               PRINT A LINE OF MEMORY MAP           24310021
 0013BC 4150 89C8      009F6        2647        LA    RW3,CCVIRT                                                 24320021
 0013C0 5050 D0EC      03E84        2648        ST    RW3,MAPTXT                                                 24330021
 0013C4 4860 9162      00162        2649        LH    RW1,VIRCTR                                                 24340021
 0013C8 05EF                        2650        BALR  RS1,R15               PRINT A LINE OF MEMORY MAP           24350021
 0013CA 4860 915C      0015C        2651        LH    RW1,PNCTR                                                  24360021
 0013CE 05EF                        2652        BALR  RS1,R15               PRINT A LINE OF MEMORY MAP           24370021
 0013D0 4860 915E      0015E        2653        LH    RW1,GNCTR                                                  24380021
 0013D4 05EF                        2654        BALR  RS1,R15               PRINT A LINE OF MEMORY MAP           24390021
 0013D6 4860 9160      00160        2655        LH    RW1,DCBCTR                                                 24400021
 0013DA 05EF                        2656        BALR  RS1,R15               PRINT A LINE OF MEMORY MAP           24410021
 0013DC 4860 9224      00224        2657        LH    RW1,VNILOC                                                 24420021
 0013E0 05EF                        2658        BALR  RS1,R15               PRINT A LINE OF MEMORY MAP           24430021
 0013E2 4860 9164      00164        2659        LH    RW1,LTLCTR                                                 24440021
 0013E6 05EF                        2660        BALR  RS1,R15               PRINT A LINE OF MEMORY MAP           24450021
 0013E8 4860 9164      00164        2661        LH    RW1,LTLCTR                                                 24460021
 0013EC 4A60 D114      03EAC        2662        AH    RW1,DLTLCT                                                 24470021
 0013F0 05EF                        2663        BALR  RS1,R15               PRINT A LINE OF MEMORY MAP           24480021
1PH60     IKFCBL60                                                                                              PAGE   59
-  LOC  OBJECT CODE    ADDR1 ADDR2  STMT   SOURCE STATEMENT                                       ASM 0201 11.03 02/14/15
00013F2 58F0 C460      03AF0        2664        L     R15,APUT                                                   24490021
 0013F6 05EF                        2665        BALR  RS1,R15               PRINT BLANK LINE                     24500021
                                    2666 * PROGRAM LOCATION NOW KNOWN                                            24510021
 0013F8 5860 D04C      03DE4        2667        L     RW1,LOCPGM                                                 24520021
 0013FC 5060 9148      00148        2668        ST    RW1,LOCCTR                                                 24530021
 001400 47F0 A98C      01404        2669        BC    UNCOND,PRDONE         CONTINUE WITH PHASE6                 24540021
1PH60     IKFCBL60                                                                                              PAGE   60
-  LOC  OBJECT CODE    ADDR1 ADDR2  STMT   SOURCE STATEMENT                                       ASM 0201 11.03 02/14/15
0001404                             2671 PRDONE DS    0H                                                         24560021
                                    2672 *=L    CODING FROM HERE TO NEXT *=L CARD NOT EXECUTED IF NOLIST MOD     24570021
 001404 58F0 C460      03AF0        2673        L     R15,APUT          PRINT BLANK LINE                         24580021
 001408 05EF                        2674        BALR  RS1,R15               PRINT BLANK LINE                     24590021
                                    2675 *=L                                                                     24600021
                                    2676 *      PRIME & SET STATIC QTBL & ERRTBL IF NEEDED                       24610021
 00140A 4860 916C      0016C        2677        LH    RW1,ODOCTR                                                 24620021
 00140E 1266                        2678          LTR   RW1,RW1            ARE THERE ANY Q-RTES                  24630021
 001410 4780 A9CA      01442        2679          BC    ZERO,NOQTBL        NO-BRANCH AROUND PRIME CODE           24640021
 001414 8960 0001      00001        2680          SLL   RW1,DX1                                                  24650021
 001418 4060 C674      03D04        2681        STH   RW1,QSIZ         SIZE OF QTBL                              24660021
 00141C 4110 C670      03D00        2682        LA    R1,AQTBL                                                   24670021
 001420 58F0 C4A0      03B30        2683        L     R15,AXPRIM            PRIME QTBL                           24680021
 001424 05EF                        2684        BALR  RS1,R15            PRIME QTBL                              24690021
 001426 4110 C670      03D00        2685          LA    R1,AQTBL                                                 24700021
 00142A 58F0 C4A4      03B34        2686          L     R15,ASTATC                                               24710021
 00142E 05EF                        2687          BALR  RS1,R15             SET QTBL STATIC                      24720021
 001430 5810 C670      03D00        2688          L     R1,AQTBL           TIB ADDRESS                           24730021
 001434 4111 0000      00000        2689          LA    R1,DX0(R1)          ELIMINATE HI BYTE                    24740021
 001438 5811 0000      00000        2690          L     R1,DX0(R1)          TAMM ADDRESS                         24750021
 00143C D201 1004 C674 00004 03D04  2691          MVC   DX4(LX2,R1),QSIZ     TABLE SIZE INTO N1 OF TAMM          24760021
                                    2692 *                                                                       24770021
 001442                             2693 NOQTBL   DS    0H                                                       24780021
 001442 9504 91A2      001A2        2694          CLI   ERRSEV,WLEVEL       ANY E-TEXT                           24790021
 001446 4720 A9DE      01456        2695          BC    HI,ERRPRIM          YES - C OR HIGHER - NEED TBL         24800021
 00144A 4740 AA0C      01484        2696          BC    LO,NOEPRIM          NO  - DON'T NEED ERRTBL              24810021
 00144E 9104 91A3      001A3        2697          TM    PHZSW,FLGWRN        YES - W - TEST FLAGE OR W            24820021
 001452 4780 AA0C      01484        2698          BC    ZERO,NOEPRIM        FLAGE - DON'T NEED ERRTBL            24830021
 001456 96FF D11B      03EB3        2699 ERRPRIM  OI    NOETEXT,ETX2DO      THERE IS E-TEXT TO PROCESS           24840021
 00145A 4110 C6C8      03D58        2700          LA    R1,AERRTB                                                24850021
 00145E 58F0 C4A0      03B30        2701          L     R15,AXPRIM                                               24860021
 001462 05EF                        2702          BALR  RS1,R15             PRIME ERRTBL                         24870021
 001464 4110 C6C8      03D58        2703          LA    R1,AERRTB                                                24880021
 001468 58F0 C4A4      03B34        2704          L     R15,ASTATC                                               24890021
 00146C 05EF                        2705          BALR  RS1,R15             SET ERRTBL STATIC                    24900021
 00146E 5810 C6C8      03D58        2706          L     R1,AERRTB          TIB ADDRESS                           24910021
 001472 4111 0000      00000        2707          LA    R1,DX0(R1)          ELIMINATE HI BYTE                    24920021
 001476 5811 0000      00000        2708          L     R1,DX0(R1)          TAMM ADDRESS                         24930021
 00147A D201 1004 C086 00004 03716  2709          MVC   DX4(LX2,R1),C6256    TABLE SIZE INTO N1 OF TAMM          24940021
 001480 96FF D11C      03EB4        2710          OI    DOEOTSW,DOEOTBL     NEED END OF TABLE MARKER             24950021
 001484                             2711 NOEPRIM  DS    0H                                                       24960021
                                    2712 * SET FILTBL, CONDIS, AND CONTBL STATIC PRIOR TO GETALL           56154 24970021
 001484 4110 C6C0      03D50        2713          LA    R1,AFILTB          XSTATC WILL LOAD R1 WITH TIB ADDR     24980021
 001488 58F0 C4A4      03B34        2714          L     R15,ASTATC                                         56154 24990021
 00148C 05EF                        2715          BALR  RS1,R15            BR TO MAKE TABLE STATIC         56154 25000021
 00148E 4110 A2D8      00D50        2716          LA    R1,ACONTB          XSTATC WILL LOAD R1 WITH TIB ADDR     25010021
 001492 58F0 C4A4      03B34        2717          L     R15,ASTATC                                         56154 25020021
 001496 05EF                        2718          BALR  RS1,R15            BR TO MAKE TABLE STATIC         56154 25030021
 001498 4110 A2E0      00D58        2719          LA    R1,ACONDS          XSTATC WILL LOAD R1 WITH TIB ADDR     25040021
 00149C 58F0 C4A4      03B34        2720          L     R15,ASTATC                                         56154 25050021
 0014A0 05EF                        2721          BALR  RS1,R15            BR TO MAKE TABLE STATIC         56154 25060021
                                    2722 * GET SPACE FOR RLD TABLE                                               25070021
 0014A2 58F0 91FC      001FC        2723          L     R15,AGETALL                                              25080021
 0014A6 05EF                        2724          BALR  RS1,R15             GO TO PH0 FOR SPACE                  25090021
 0014A8 5000 C664      03CF4        2725          ST    R0,ARLDTB           R0 = STARTING ADDRESS                25100021
1PH60     IKFCBL60                                                                                              PAGE   61
-  LOC  OBJECT CODE    ADDR1 ADDR2  STMT   SOURCE STATEMENT                                       ASM 0201 11.03 02/14/15
00014AC 5010 C668      03CF8        2726          ST    R1,RLDSIZ           R1 = LENGTH                          25110021
 0014B0                             2727 REGMV1 DS    0H                                                         25120021
                                    2728 *      SET UP REGISTER ASSIGNMENTS FOR RPD=0 (INLINE CODING)            25130021
 0014B0 58F0 C50C      03B9C        2729        L     R15,AUSING                                                 25140021
 0014B4 05EF                        2730        BALR  RS1,R15               BR TO SET UP REG ASSIGNMENTS         25150021
                                    2731 * LIST REGISTERS ASSIGNED                                               25160021
 0014B6 9140 91A3      001A3        2732        TM    PHZSW,NOLIST                                               25170021
 0014BA 4780 AABE      01536        2733        BC    ZERO,NOBLST           YES, DON'T LIST BL REGS              25180021
 0014BE 9101 D119      03EB1        2734          TM    NOBLS,NOBLSON       ARE THERE ANY BL'S                   25190021
 0014C2 4780 AABE      01536        2735        BC    ZERO,NOBLST           YES, THERE ARE NO BL'S               25200021
 0014C6 D212 D77E C03A 04516 036CA  2736          MVC   OU6REC+NX2(LX19),CCREG                                   25210021
 0014CC 58F0 C460      03AF0        2737        L     R15,APUT                                                   25220021
 0014D0 05EF                        2738        BALR  RS1,R15           HEADING                                  25230021
 0014D2 05EF                        2739        BALR  RS1,R15           BLANK LINE                               25240021
 0014D4 4170 D274      0400C        2740        LA    RW2,STAT06                                                 25250021
 0014D8 4160 0006      00006        2741          LA    RW1,DX6                                                  25260021
 0014DC D202 D77F C03A 04517 036CA  2742 REGMV    MVC   OU6REC+NX3(LX3),CCREG                                    25270021
 0014E2 D203 D787 C04D 0451F 036DD  2743          MVC   OU6REC+NX11(LX4),CCBLI                                   25280021
                                    2744 * CONVERT AND MOVE REGISTER NUMBER                                      25290021
 0014E8 1827                        2745        LR    R2,RW2            SAVE RW2                                 25300021
 0014EA 58F0 C468      03AF8        2746        L     R15,AS6200                                                 25310021
 0014EE 05EF                        2747        BALR  RS1,R15               BR TO CONVERT RTN                    25320021
 0014F0 D200 D783 D31B 0451B 040B3  2748          MVC   OU6REC+NX7(LX1),C6WRK4                                   25330021
 0014F6 1872                        2749        LR    RW2,R2            RESRORE                                  25340021
                                    2750 * IF NECESSARY, CHANGE TO BLS                                           25350021
 0014F8 910F 7002      00002        2751          TM    DX2(RW2),XX0F                                            25360021
 0014FC 4780 AA8C      01504        2752        BC    ZERO,CONVBL           ONLY 1 BL                            25370021
 001500 92E2 D789      04521        2753          MVI   OU6REC+NX13,ESS                                          25380021
                                    2754 * CONVERT AND MOVE BL NUMBER                                            25390021
 001504 1816                        2755 CONVBL LR    R1,RW1           SAVE REGISTER NUMBER                      25400021
 001506 4367 0003      00003        2756          IC    RW1,DX3(RW2)                                             25410021
 00150A 1827                        2757        LR    R2,RW2            SAVE RW2                                 25420021
 00150C 58F0 C468      03AF8        2758        L     R15,AS6200                                                 25430021
 001510 05EF                        2759        BALR  RS1,R15               BR TO CONVERT RTN                    25440021
 001512 D200 D78B D31B 04523 040B3  2760          MVC   OU6REC+NX15(LX1),C6WRK4                                  25450021
 001518 1872                        2761        LR    RW2,R2            RESRORE                                  25460021
 00151A 58F0 C460      03AF0        2762        L     R15,APUT         PUT OUT LINE                              25470021
 00151E 05EF                        2763        BALR  RS1,R15               PRINT A LINE                         25480021
 001520 4161 0001      00001        2764          LA    RW1,DX1(R1)     NEXT REGISTER                            25490021
 001524 9120 7000      00000        2765          TM    DX0(RW2),XX20                                            25500021
 001528 4177 0004      00004        2766          LA    RW2,DX4(RW2)    NEXT CELL                                25510021
 00152C 4780 AA64      014DC        2767        BC    ZERO,REGMV       MORE REGISTERS ASSIGNED                   25520021
 001530 58F0 C460      03AF0        2768        L     R15,APUT                                                   25530021
 001534 05EF                        2769        BALR  RS1,R15            BLANK LINE                              25540021
 001536                             2770 NOBLST DS    0H                                                         25550021
 001536 5880 C4F8      03B88        2771        L     RB1,ARB1B                                                  25560021
 00153A 95FF 91D0      001D0        2772          CLI   SEGLMT,NOTSEGTD     IS PROGRAM SEGMENTED                 25570021
 00153E 0788                        2773          BCR   EQ,RB1              NO, BRANCH                           25580021
1PH60     IKFCBL60                                                                                              PAGE   62
-  LOC  OBJECT CODE    ADDR1 ADDR2  STMT   SOURCE STATEMENT                                       ASM 0201 11.03 02/14/15
0                                   2775 *******************************************************************     25600021
                                    2776 *    SEGMENTATION PROCESSING                                            25610021
                                    2777 *******************************************************************     25620021
                                    2778 *                                                                       25630021
                                    2779 *    COMBINE SECTIONS OF EQUAL PTY INTO SEGMENTS                        25640021
                                    2780 *                                                                       25650021
 001540                             2781 SEGPROC  DS    0H                                                       25660021
 001540 5810 C6D8      03D68        2782        L     R1,ASGTBL             SPECIFY TIB FOR SEGTBL               25670021
 001544 58F0 C4AC      03B3C        2783        L     R15,ATABLE            GET ADDR OF TABLES SUBRTN            25680021
 001548 05EF                        2784        BALR  RS1,R15               UPON RETURN R1=TBL ADDR,R2=SIZE      25690021
 00154A 5010 C6E4      03D74        2785        ST    R1,SEGTAD             SAVE TBL ADDRESS                     25700021
 00154E 4020 C6DC      03D6C        2786        STH   R2,SEGSZ              SAVE SIZE IN PARLIST                 25710021
 001552 D200 D102 1000 03E9A 00000  2787          MVC   FSTSEC(LX1),DX0(R1)   SAVE PTY OF 1ST SECTION            25720021
 001558 1861                        2788        LR    RW1,R1                GET STARTING ADDR OF SEGTBL          25730021
 00155A 1A12                        2789        AR    R1,R2                 COMPUTE END OF SEGTBL ADDRESS        25740021
 00155C 5010 C6E8      03D78        2790        ST    R1,SEGEND             SAVE                                 25750021
 001560 9500 6000      00000        2791 COMPTY   CLI   DX0(RW1),XX00        IS THIS SECTION OF PTY ZERO(ROOT    25760021
 001564 4770 AAF8      01570        2792          BC    NOTEQ,NOROOT        NO, BRANCH                           25770021
 001568 4166 0005      00005        2793          LA    RW1,DX5(RW1)         YES,IGNORE-ROOT HANDLED LAST        25780021
 00156C 47F0 AAE8      01560        2794        B     COMPTY                SEARCH FOR SECTION OF NONZERO PT     25790021
 001570 D200 D0FE 6000 03E96 00000  2795 NOROOT   MVC   CURPTY(LX1),DX0(RW1)  SAVE PTY OF SEGM BEING PROCESSED   25800021
                                    2796 *   GENERATE SEGMENT'S NAME AS A COMBINATION  OF PROG NAME AND PTY#     25810021
 001576 4140 AB48      015C0        2797        LA    INPUTR,NMOUT1                                              25820021
 00157A                             2798 SEGNM  DS    0H                                                         25830021
 00157A 4170 0006      00006        2799          LA    RW2,DX6              INITIALIZE LOOP CTRL REG            25840021
 00157E 4150 9150      00150        2800        LA    RW3,PROGID            GET PROG NAME ADDRESS                25850021
 001582 4155 0001      00001        2801 NMLOOP   LA    RW3,DX1(RW3)         BUMP POINTER                        25860021
 001586 9540 5000      00000        2802          CLI   DX0(RW3),BLANK      FOUND A BLANK TO APPEND PTY NO       25870021
 00158A 4780 AB1A      01592        2803          BC    EQ,NMOUT            YES, BRANCH                          25880021
 00158E 4670 AB0A      01582        2804        BCT   RW2,NMLOOP            NO,SCAN UNTIL  6 CHAR  PROCESSED     25890021
 001592 1806                        2805 NMOUT  LR    R0,RW1                SAVE SEGTBL ENTRY ADDR               25900021
 001594 1B66                        2806        SR    RW1,RW1                                                    25910021
 001596 4360 D0FE      03E96        2807        IC    RW1,CURPTY            GET PTY OF SECTION BEING PROCESS     25920021
 00159A 4170 000A      0000A        2808          LA    RW2,PTY10           SET  COMPARE PTY TO 10          2963 25930021
 00159E 1967                        2809          CR    RW1,RW2           IS CURPTY LESS THAN TEN           2963 25940021
 0015A0 47B0 AB3A      015B2        2810          BC    NOTLO,NMOUT0         NO, CONTINUE WITH CURPTY       2963 25950021
 0015A4 F331 D31A D0FE 040B2 03E96  2811          UNPK  C6WRK3(FOURBYTE),CURPTY(TWOBYTE)  ******            2963*25960021
                                                                 YES, UNPACK TO FOF#                        2963 25970021
 0015AA D201 5000 D31B 00000 040B3  2812          MVC   TARG0(TWOBYTE,RW3),C6WRK4  MOVE NOT EX BY CONVERT   2963 25980021
 0015B0 07F4                        2813          BCR   UNCOND,INPUTR      SKIP NEXT SECTIONOF CODE         2963 25990021
 0015B2                             2814 NMOUT0   DS    0H                                                  2963 26000021
 0015B2 58F0 C468      03AF8        2815        L     R15,AS6200            GET ADDR OF CONVERT RTN              26010021
 0015B6 05EF                        2816        BALR  RS1,R15               CONVERT FOR CLIST                    26020021
                                    2817 *  THE FOLLOWING INSTRUCTION WILL BE EXECUTED BY THE CONV RTN           26030021
 0015B8 D200 5000 D31B 00000 040B3  2818          MVC   DX0(LX1,RW3),C6WRK4   APPEND PTY# TO PROG NAME           26040021
 0015BE 07F4                        2819        BR    INPUTR                BR TO NMOUT1                         26050021
 0015C0                             2820 NMOUT1 DS    0H                                                         26060021
 0015C0 1860                        2821        LR    RW1,R0                RESTORE                              26070021
 0015C2 1876                        2822        LR    RW2,RW1               GET ADDR OF CURR ENTRY IN SEGTBL     26080021
 0015C4 91FF D0F8      03E90        2823          TM    SEGSW1,EJECT   EJECT THIS TIME                           26090021
 0015C8 4780 AB5C      015D4        2824          BC    ZERO,NMOUT2    NO,RESET FOR ALL OTHER TIMES              26100021
 0015CC 0509                        2825          BALR  R0,RB2         YES,  BRANCH TO PHASE0                    26110021
 0015CE D6                          2826          DC    X'D6'          PAGE EJECT                                26120021
 0015CF 00
 0015D0 47F0 AB68      015E0        2827          BC    UNCOND,NMOUT3  CONTINUE  PROCESSING                      26130021
1PH60     IKFCBL60                                                                                              PAGE   63
-  LOC  OBJECT CODE    ADDR1 ADDR2  STMT   SOURCE STATEMENT                                       ASM 0201 11.03 02/14/15
00015D4                             2828 NMOUT2   DS    0H                                                       26140021
 0015D4 9140 91A3      001A3        2829          TM    PHZSW,NOLIST        PMAP                                 26150021
 0015D8 4780 AB68      015E0        2830          BC    ZERO,NMOUT3    NO, NEVER EJECT                           26160021
 0015DC 96FF D0F8      03E90        2831          OI    SEGSW1,EJECT  FOR ALL OTHER SEGS                         26170021
 0015E0                             2832 NMOUT3   DS    0H                                                       26180021
 0015E0 58F0 C460      03AF0        2833        L     R15,APUT              GET PRINT RTN ADDRESS                26190021
 0015E4 05EF                        2834        BALR  RS1,R15               PRINT BLANK LINE                     26200021
 0015E6 D20D D795 ADF0 0452D 01868  2835          MVC   OU6REC+NX25(L'SEGMSG),SEGMSG                             26210021
 0015EC D201 D7A4 D31B 0453C 040B3  2836          MVC   OU6REC+NX40(LX2),C6WRK4 GET PTY NUMBER                   26220021
 0015F2 05EF                        2837        BALR  RS1,R15               PRINT HEADER LINE                    26230021
 0015F4 05EF                        2838        BALR  RS1,R15               PRINT BLANK LINE                     26240021
                                    2839 *                                                                       26250021
                                    2840 *   PUNCH OVERLAY,INSERD,ESD CARDS FOR SEGMTS OF NONZERO PTY            26260021
                                    2841 *                                                                       26270021
 0015F6 D703 9148 9148 00148 00148  2842          XC    LOCCTR(LX4),LOCCTR   INITIALIZE SEGMENTS LOC CTR         26280021
 0015FC 58F0 C454      03AE4        2843        L     R15,AESD              GET ADDR OF PUNCH RTN                26290021
 001600 9680 D0FD      03E95        2844          OI    SEGSW,SEGOVLY       SET OVERLAY CARD SW                  26300021
 001604 05EF                        2845        BALR  RS1,R15               PUNCH OVERLAY CARD                   26310021
 001606 9640 D0FD      03E95        2846          OI    SEGSW,SEGNSRT       SET INSERT CARD SW                   26320021
 00160A 05EF                        2847        BALR  RS1,R15               PUNCH INSERT CARD                    26330021
 00160C 4110 9150      00150        2848        LA    R1,PROGID             SPECIFY NAME ADDRESS                 26340021
 001610 1B00                        2849        SR    R0,R0                 SPECIFY TYPE=0                       26350021
 001612 05EF                        2850        BALR  RS1,R15               PUNCH ESP-CSECT CARD                 26360021
 001614 9120 D0FD      03E95        2851          TM    SEGSW,SEGNMBLK      WAS PROG NAME INIT'LY BLANK          26370021
 001618 4710 ABAE      01626        2852          BC    ONES,NOTFST         NO, BRANCH                           26380021
 00161C 9620 D0FD      03E95        2853          OI    SEGSW,SEGNMBLK      MARK THAT SEG NAME WAS BLANK         26390021
 001620 D207 D108 9150 03EA0 00150  2854          MVC   SEGNSA(LX8),PROGID   SAVE SEGMENTS NAME                  26400021
                             01626  2855 NOTFST EQU   *                                                          26410021
                                    2856 *                                                                       26420021
                                    2857 *  EXTRACT DISK ADDR OF SECTIONS PROC. A-TEXT AND ISSUE POINT MAC       26430021
                                    2858 *                                                                       26440021
 001626 1876                        2859 POINT0 LR    RW2,RW1               SAVE CURR ENTRY ADDR                 26450021
 001628 D203 D314 7001 040AC 00001  2860 POINT1   MVC   C6WRK0(LX4),DX1(RW2)  EXTRACT DISK ADDR FROM SEGTBL      26460021
 00162E 5810 D314      040AC        2861        L     R1,C6WRK0             INPUT REG = DISK ADDRESS             26470021
 001632 0509                        2862          BALR  R0,RB2              BR TO PH0                            26480021
 001634 91                          2863         DC    X'91'                POINT/READ                           26490021
                                    2864 *   UPON RETURN FROM PHASE 00 R0 CONTAINS ADDR OF SECTIONS A-TEXT       26500021
 001635 00
 001636 1840                        2865        LR    INPUTR,R0            SAVE A-TEXT ADDR                      26510021
 001638 9680 7000      00000        2866          OI    DX0(RW2),XX80        SET SECTION FOUND SWITCH            26520021
 00163C 9200 D3DB      04173        2867          MVI   FGET,FGETNEW        GET NEW BLOCK                        26530021
 001640 96F0 D56C      04304        2868          OI    TESTSW,TSTREAL      INIDCATE THAT A-TXT IS IN CORE       26540021
 001644 5060 C6EC      03D7C        2869        ST    RW1,SEGCOM            SAVE COMPARE ENTRY ADRESS            26550021
 001648 5070 C6F0      03D80        2870        ST    RW2,SEGCUR           SAVE CURRENT ENTRY ADDRESS            26560021
 00164C 5040 C470      03B00        2871        ST    INPUTR,ADTEST         SAVE A-TEXT ADDRESS                  26570021
 001650 07F8                        2872        BR    RB1                  BR TO MAIN LINE TO PROCESS A-TEXT     26580021
                                    2873 *******************************************************************     26590021
1PH60     IKFCBL60                                                                                              PAGE   64
-  LOC  OBJECT CODE    ADDR1 ADDR2  STMT   SOURCE STATEMENT                                       ASM 0201 11.03 02/14/15
0                                   2875 *******************************************************************     26610021
 001652                             2876 SEGBRK DS    0H                                                         26620021
 001652 58A0 C480      03B10        2877          L     RB3,APGTIN          RESTORE BASE REG                     26630021
 001656 9500 D0FE      03E96        2878          CLI   CURPTY,XX00          IS ROOT SEGM BEEING PROCESSED       26640021
 00165A 4780 ADC8      01840        2879          BC    EQ,ROOT4            YES, BR TO ROOT CODE                 26650021
 00165E 5860 C6EC      03D7C        2880        L     RW1,SEGCOM            RESTORE RW1                          26660021
 001662 5870 C6F0      03D80        2881        L     RW2,SEGCUR           SPECIFY CURRENT ENTRY ADDR            26670021
                             01666  2882 POINT2 EQU   *      ENTER HERE FROM MAIN LINE TO FIND NEXT SECTION      26680021
 001666 4177 0005      00005        2883          LA    RW2,DX5(RW2)         POINT TO NEXT ENTRY IN SEGTBL       26690021
 00166A 5970 C6E8      03D78        2884        C     RW2,SEGEND            HAS END OF SEGTBL BEEN REACHED       26700021
 00166E 47B0 AC08      01680        2885        BC    NOTLO,ENDTBL          YES,BR                               26710021
 001672 D500 D0FE 7000 03E96 00000  2886          CLC   CURPTY(LX1),DX0(RW2)  IS THIS ENTRY OF EQUAL PTY         26720021
 001678 4770 ABEE      01666        2887          BC    NOTEQ,POINT2        NO, GET NEXT ENTRY                   26730021
 00167C 47F0 ABB0      01628        2888        B     POINT1                YES,GET SECTION'S A-TEXT             26740021
                             01680  2889 ENDTBL EQU   *                     PUNCH END CARD                       26750021
 001680 9602 D0FD      03E95        2890          OI    SEGSW,SEGENDCD      GET CONTROL/PNCH END8 RTN SEG        26760021
 001684 D203 C6F8 9148 03D88 00148  2891          MVC   LNSECT(LX4),LOCCTR   SPECIFY LN OF CURRENT SEGMENT       26770021
 00168A 58F0 C484      03B14        2892        L     R15,AFTER            GET ADDR OF RTN TO PUNCH END CRD      26780021
 00168E 05EF                        2893        BALR  RS1,R15               PUNCH END CARD                       26790021
 001690 4166 0005      00005        2894 POINT3   LA    RW1,DX5(RW1)         BUMP COMPARE ADDRESS                26800021
 001694 5960 C6E8      03D78        2895        C     RW1,SEGEND            HAVE NON-ZERO PTY SECTS BEEN PRO     26810021
 001698 47B0 AC3E      016B6        2896        BC    NOTLO,ROOT0           YES,PROCESS ROOT SEGM LAST           26820021
 00169C 9180 6000      00000        2897          TM    DX0(RW1),HION       WAS THIS ENTRY ALREADY DONE          26830021
 0016A0 4710 AC18      01690        2898          BC    ONES,POINT3         YES, GET NEXT ENTRY                  26840021
 0016A4 9500 6000      00000        2899          CLI   DX0(RW1),XX00        IS THIS ENTRY FOR THE ROOT SEGM     26850021
 0016A8 4780 AC18      01690        2900          BC    EQ,POINT3           YES, BRANCH                          26860021
 0016AC D207 9150 D142 00150 03EDA  2901          MVC   PROGID(LX8),DCPRID   NO,RESTORE PROG NAME                26870021
 0016B2 47F0 AAF8      01570        2902        B     NOROOT                PROCESS NEXT SEGMENT                 26880021
                                    2903 *                                                                       26890021
                                    2904 *   PROCESS THE ROOT SEGMENT                                            26900021
                                    2905 *                                                                       26910021
 0016B6                             2906 ROOT0  DS    0H                                                         26920021
 0016B6 94FD D0FD      03E95        2907          NI    SEGSW,SEGNOEND      RESET'PNCH END & RET TO SEG'SW       26930021
 0016BA 9200 D0FE      03E96        2908          MVI   CURPTY,XX00          INDICATE ROOT PTY NMBR              26940021
 0016BE 9140 91A3      001A3        2909          TM    PHZSW,NOLIST         PNAP                                26950021
 0016C2 4780 AC52      016CA        2910          BC    ZERO,NOSKIP2    NO, DONT EJECT PAGE                      26960021
 0016C6 0509                        2911          BALR    R0,RB2      BR TO PH0                                  26970021
 0016C8 D6                          2912          DC    X'D6'         TO EJECT PAGE                              26980021
 0016CA                             2913 NOSKIP2  DS    0H                                                       26990021
 0016CA 58F0 C460      03AF0        2914          L     R15,APUT            GET PRINT RTN ADDR                   27000021
 0016CE D20B D795 ADFE 0452D 01876  2915          MVC   OU6REC+NX25(L'ROOTMG),ROOTMG                             27010021
 0016D4 05EF                        2916        BALR  RS1,R15               PRINT ROOT SEGM HEADER LINE          27020021
 0016D6 05EF                        2917        BALR  RS1,R15               PRINT BLANK LINE                     27030021
 0016D8 D207 9150 D142 00150 03EDA  2918          MVC   PROGID(LX8),DCPRID   RESTORE PROG NAME                   27040021
 0016DE 1B00                        2919        SR    R0,R0                 SPECIFY TYPE ZERO ESD                27050021
 0016E0 4110 9150      00150        2920        LA      R1,PROGID                                                27060021
 0016E4 58F0 C454      03AE4        2921        L     R15,AESD              GET PUNCH RTN ADDR                   27070021
 0016E8 05EF                        2922        BALR  RS1,R15               PUNCH ESD TYPE ZERO CARD             27080021
 0016EA 5880 C700      03D90        2923        L     RB1,AFIRST            GET BASE REG                         27090021
 0016EE 5870 D058      03DF0        2924          L     RW2,OVFLLOC         GET OVFL ADDR                  0339  27100021
 0016F2 5070 9148      00148        2925          ST    RW2,LOCCTR           SAVE AS TARGET ADDR           0339  27110021
 0016F6 4540 843C      0046A        2926          BAL   INPUTR,TGTOVCL      PUNCH OVERFLOW CELLS IN TGT    0339  27120021
 0016FA 4570 8652      00680        2927          BAL   RW2,TGT42          PUNCH SAVE-AREA AND SWITCH CELL       27130021
 0016FE 58F0 C488      03B18        2928        L     R15,ATGTCON                                                27140021
 001702 05EF                        2929        BALR  RS1,R15               PUNCH TGT CONSTANTS AND ADCONS       27150021
1PH60     IKFCBL60                                                                                              PAGE   65
-  LOC  OBJECT CODE    ADDR1 ADDR2  STMT   SOURCE STATEMENT                                       ASM 0201 11.03 02/14/15
0001704 5870 D054      03DEC        2930        L     RW2,TGTLOC            GET TGT LOC                          27160021
 001708 4177 01A0      001A0        2931          LA    RW2,DX416(RW2)       *****TEMP*****                      27170021
 00170C 5070 9148      00148        2932        ST    RW2,LOCCTR            SAVE TARGET ADDR                     27180021
 001710 5870 D054      03DEC        2933        L     RW2,TGTLOC            COMPUTE ADCON VALUE                  27190021
 001714 4A70 D06A      03E02        2934        AH    RW2,VCONAD                                                 27200021
 001718 5070 C684      03D14        2935        ST    RW2,D6REL             SAVE RELOC VALUE                     27210021
 00171C 5880 C4F8      03B88        2936          L     RB1,ARB1B           GET ADDRESSABILITY                   27220021
 001720 58F0 D12C      03EC4        2937          L     R15,ARLDRTE                                              27230021
 001724 05EF                        2938        BALR  RS1,R15               ENTER VCON TBL ADDR INTO RLDTBL      27240021
 001726 9204 2000      00000        2939          MVI   TARG0(R2),XX04       LENGTH OF ADCON                     27250021
 00172A 96C0 2000      00000        2940          OI    TARG0(R2),ATYP       SET FLAG BYTE                       27260021
 00172E D202 2001 9149 00001 00149  2941          MVC   TARG(LX3,R2),LOCCTR+NX1                                  27270021
 001734 D203 2004 C684 00004 03D14  2942          MVC   RELC4(LX4,R2),D6REL                                      27280021
                                    2943 *    PUNCH VCONS FOR NON-RESIDENT SEGMENTS                              27290021
                                    2944 *                                                                       27300021
 00173A 5870 C6E4      03D74        2945        L       RW2,SEGTAD          GET SEGTBL ADDRESS                   27310021
 00173E 5970 C6E8      03D78        2946 SEG40  C     RW2,SEGEND            ALL DONE                             27320021
 001742 47B0 AD6E      017E6        2947        BC    NOTLO,SEG50           YES,BR                               27330021
 001746 9500 7000      00000        2948          CLI   DX0(RW2),XX00        IS THIS SEG OF PTY ZSERO            27340021
 00174A 4770 ACDE      01756        2949          BC    NOTEQ,SEG42         NO, BRANCH                           27350021
 00174E 4177 0005      00005        2950          LA    RW2,DX5(RW2)         YES,IGNORE                          27360021
 001752 47F0 ACC6      0173E        2951        B     SEG40                 COMPARE AGAIN                        27370021
 001756 D200 D0FE 7000 03E96 00000  2952 SEG42    MVC   CURPTY(LX1),DX0(RW2)  GET PTY NMBR                       27380021
 00175C 947F D0FE      03E96        2953          NI    CURPTY,M7F          GET RID OF HIGH ORDER BIT            27390021
 001760 5070 C6F0      03D80        2954        ST    RW2,SEGCUR            SAVE CURRENT ENTRY ADDR              27400021
 001764 D207 9150 D142 00150 03EDA  2955          MVC   PROGID(LX8),DCPRID   RESTORE PROGRAM NAME                27410021
 00176A 4540 AB02      0157A        2956        BAL   INPUTR,SEGNM          GENERATE A NAME                      27420021
 00176E 4800 D06A      03E02        2957        LH    R0,VCONAD             GET VCON TBL ADDR                    27430021
 001772 5A00 D054      03DEC        2958        A     R0,TGTLOC                                                  27440021
 001776 5000 9148      00148        2959        ST    R0,LOCCTR             SAVE                                 27450021
 00177A 4110 D0FE      03E96        2960        LA    R1,CURPTY                                                  27460021
 00177E 4100 0004      00004        2961          LA    R0,FOURBYTE         SPECIFY LENGTH                       27470021
 001782 58F0 C46C      03AFC        2962        L     R15,ATXPNH                                                 27480021
 001786 05EF                        2963        BALR  RS1,R15               PUNCH TEXT                           27490021
 001788 5870 9148      00148        2964        L     RW2,LOCCTR            GET TARGET ADDR FOR VCON             27500021
 00178C 4100 0004      00004        2965          LA    R0,FOURBYTE         SPECIFY LENGTH                       27510021
 001790 4110 C37D      03A0D        2966        LA    R1,ZERO7X             PUNCH ZEROS                          27520021
 001794 05EF                        2967        BALR    RS1,R15             PUNCH ZEROS                          27530021
 001796 4860 D068      03E00        2968        LH    RW1,ESDID                                                  27540021
 00179A 4166 0001      00001        2969          LA    RW1,DX1(RW1)         STEP ESDID                          27550021
 00179E 4060 D068      03E00        2970        STH     RW1,ESDID                                                27560021
 0017A2 4100 0002      00002        2971          LA    R0,ESDTYP2          TYPE 2 ESD (EXTRN)                   27570021
 0017A6 4110 9150      00150        2972        LA    R1,PROGID             EXTERNAL NAME ADDRESS                27580021
 0017AA 58F0 C454      03AE4        2973        L     R15,AESD                                                   27590021
 0017AE 05EF                        2974        BALR  RS1,R15               PUNCH VCON                           27600021
 0017B0 1817                        2975        LR    R1,RW2                GET TARGET ADDR                      27610021
 0017B2 4100 001C      0001C        2976        LA      R0,X'1C'            SPECIFY FLAG BYTE                    27620021
 0017B6 58F0 C490      03B20        2977        L     R15,ARLD                                                   27630021
 0017BA 05EF                        2978        BALR  RS1,R15               PUNCH RLD CARD                       27640021
 0017BC 4810 D06A      03E02        2979        LH    R1,VCONAD             GET VCON TBL DISPL                   27650021
 0017C0 4111 0008      00008        2980          LA    R1,DX8(R1)           BUMP POINTER                        27660021
 0017C4 4010 D06A      03E02        2981        STH   R1,VCONAD                                                  27670021
 0017C8 5870 C6F0      03D80        2982        L     RW2,SEGCUR            RESTORE SEGTBL ENTRY ADDR            27680021
 0017CC D500 7000 7005 00000 00005  2983 SEG46    CLC   DX0(LX1,RW2),DX5(RW2) IS NEXT ENTRY OF THE SAME PTY      27690021
 0017D2 4770 AD66      017DE        2984          BC    NOTEQ,SEG48         NO, BRANCH                           27700021
1PH60     IKFCBL60                                                                                              PAGE   66
-  LOC  OBJECT CODE    ADDR1 ADDR2  STMT   SOURCE STATEMENT                                       ASM 0201 11.03 02/14/15
00017D6 4177 0005      00005        2985          LA    RW2,DX5(RW2)         YES,IGNORE                          27710021
 0017DA 47F0 AD54      017CC        2986        B     SEG46                 COMPARE AGAIN                        27720021
 0017DE 4177 0005      00005        2987 SEG48    LA    RW2,DX5(RW2)                                             27730021
 0017E2 47F0 ACC6      0173E        2988        B     SEG40                 COMPARE LOOP                         27740021
 0017E6                             2989 SEG50  DS    0H                                                         27750021
 0017E6 9200 D0FE      03E96        2990          MVI   CURPTY,XX00          RESTORE PTY                         27760021
 0017EA 4540 A664      010DC        2991        BAL   INPUTR,PGT40          PUNCH OVERFLOW CELLS                 27770021
 0017EE 4540 A706      0117E        2992        BAL   INPUTR,PNVIRT         PUNCH VIRTUALS                       27780021
 0017F2 4540 A84C      012C4        2993        BAL   INPUTR,PNLIT          PUNCH LITERALS                       27790021
 0017F6 D203 9148 D04C 00148 03DE4  2994          MVC   LOCCTR(LX4),LOCPGM   GET LOC CTR FOR ROOT'S PROCEDURE    27800021
 0017FC 5860 C6E4      03D74        2995        L     RW1,SEGTAD            GET SEGTBL ADDRESS                   27810021
 001800                             2996 ROOT1  DS    0H                                                         27820021
 001800 5960 C6E8      03D78        2997        C     RW1,SEGEND            HAVE ALL SECTS BEEN PROCESSED        27830021
 001804 47B0 ADD4      0184C        2998        BC    NOTLO,ROOT5           YES,BR                               27840021
 001808 9500 6000      00000        2999          CLI   DX0(RW1),XX00        IS THIS ENTRY FOR ROOT SEGM         27850021
 00180C 4780 ADA0      01818        3000          BC    EQ,ROOT3            YES, BRANCH                          27860021
                             01810  3001 ROOT2    EQU   *   ENTERED IN LINE AND AT END OF BLOCK/FILE             27870021
 001810 4166 0005      00005        3002          LA    RW1,DX5(RW1)        NO,POINT TO NEXT ENTRY               27880021
 001814 47F0 AD88      01800        3003        B     ROOT1                 NEXT ENTRY                           27890021
                             01818  3004 ROOT3  EQU   *                     EXTRACT DISK ADDR FOR ROOT SEGM      27900021
 001818 1876                        3005        LR    RW2,RW1               SAVE ENTRY ADDRESS                   27910021
 00181A D203 D314 7001 040AC 00001  3006          MVC   C6WRK0(LX4),DX1(RW2)  GET DISK ADDRESS                   27920021
 001820 5810 D314      040AC        3007        L     R1,C6WRK0             INPUT REG=DISK ADDR                  27930021
 001824 0509                        3008          BALR  R0,RB2              BRANCH TO PH0                        27940021
 001826 91                          3009         DC    X'91'                POINT/READ                           27950021
 001827 00
 001828 1840                        3010        LR    INPUTR,R0             GET A-TEXT ADDRESS                   27960021
 00182A 5040 C470      03B00        3011        ST    INPUTR,ADTEST                                              27970021
 00182E 5060 C6F0      03D80        3012        ST    RW1,SEGCUR            SAVE CURR ENTRY ADDRESS              27980021
 001832 9200 D3DB      04173        3013          MVI   FGET,FGETNEW        1ST TIME ENTRY/GET NEW BLOCK         27990021
 001836 96F0 D56C      04304        3014          OI    TESTSW,TSTREAL      INDICATE THAT A-TXT IS IN CORE       28000021
 00183A 5880 C4F8      03B88        3015        L     RB1,ARB1B             GET BASE VALUE                       28010021
 00183E 07F8                        3016        BR    RB1                  BR TO MAIN LINE TO PROCESS A-TEXT     28020021
 001840                             3017 ROOT4  DS    0H                                                         28030021
 001840 58A0 C480      03B10        3018        L     RB3,APGTIN           RESTORE BASE REG                      28040021
 001844 5860 C6F0      03D80        3019        L     RW1,SEGCUR            GET ADDR OF CURRENT ENTRY IN SET     28050021
 001848 47F0 AD98      01810        3020        B     ROOT2                 NEXT ENTRY                           28060021
                             0184C  3021 ROOT5  EQU   *      RELEASE SEGTBL-ALL SECTIONS PROCESSED               28070021
 00184C 5810 C6D8      03D68        3022        L     R1,ASGTBL             GET TIB ADDR                         28080021
 001850 58F0 9138      00138        3023        L     R15,RELADD            GET RELEASE RTN ADDRESS              28090021
 001854 05EF                        3024        BALR  RS1,R15               RELEASE SEGTBL                       28100021
                                    3025 *                                                                       28110021
                                    3026 *                                                                       28120021
                                    3027 * JOIN MAIN LINE TO PROCESS DATA A-TEXT                                 28130021
                                    3028 * TURN OFF A SWITCH SO THE FTER RTN DOES NOT RETURN TO SEGM. CODE       28140021
 001856 94FD D0FD      03E95        3029          NI    SEGSW,SEGNOEND      RESET SW'DON'T PNCH END & RET        28150021
 00185A 58A0 ADEC      01864        3030        L     RB3,ABTALL            PROVIDE BASE REG                     28160021
 00185E 58F0 C450      03AE0        3031        L     R15,EOF3                                                   28170021
 001862 07FF                        3032        BR    R15                   BR TO EOF3                           28180021
 001864                             3033        DS    0F                                                         28190021
 001864 00002888                    3034 ABTALL DC    A(BTALLY)                                                  28200021
 001868 E2C5C7D4C5D5E340            3035 SEGMSG DC    C'SEGMENT OF PTY'                                          28210021
 001876 D9D6D6E340E2C5C7            3036 ROOTMG DC    C'ROOT SEGMENT'                                            28220021
 001882                             3037        DS    0H                                                         28230021
                                    3038 *******************************************************************     28240021
1PH60     IKFCBL60                                                                                              PAGE   67
-  LOC  OBJECT CODE    ADDR1 ADDR2  STMT   SOURCE STATEMENT                                       ASM 0201 11.03 02/14/15
0001888                             3040 IKF603   CSECT                                                          28260021
                                    3041 *                                                                       28270021
                                    3042 *=1    RESET BASE REGISTER--OK BECAUSE ALL PREVIOUS CODING              28280021
                                    3043 *=     NO LONGER REFERRED TO OR EXECUTED                                28290021
                             01888  3044        USING *,RB1                                                      28300021
                             02888  3045        USING BTALLY,RB3                                                 28310021
                             01888  3046 RB1BAS EQU   *                                                          28320021
 001888 58A0 8064      018EC        3047        L     RB3,ADSCT2                                                 28330021
 00188C 9101 D11D      03EB5        3048        TM    INTSW,S6WON           HAVE WE BEEN THRU HERE BEFORE        28340021
 001890 4710 8240      01AC8        3049        BO    SE6000              YES-BRANCH-ONLY WANT TO EXEC ONCE      28350021
 001894 9601 D11D      03EB5        3050        OI    INTSW,S6WON           FIRST TIME THRU                      28360021
 001898 41E0 8040      018C8        3051          LA    RS1,AINIT1                                               28370021
 00189C                             3052 RLDRTE   DS    0H         SUBRTE TO GET ADDRESS FOR NEXT RLD ENTRY      28380021
 00189C 91FF D11A      03EB2        3053          TM    SWRLDFUL,RLDOVFL    IS TABLE FULL                        28390021
 0018A0 4780 8022      018AA        3054          BC    ZERO,RLDOK          NO - BRANCH                          28400021
 0018A4 5820 C664      03CF4        3055          L     R2,ARLDTB           YES - ALWAYS GIVE TABLE              28410021
 0018A8 07FE                        3056          BCR   UNCOND,RS1          START FOR INSERT AND RETURN          28420021
 0018AA                             3057 RLDOK    DS    0H                                                       28430021
 0018AA 5800 C66C      03CFC        3058          L     R0,RLDINDEX         # BYTES USED THUS FAR                28440021
 0018AE 1810                        3059          LR    R1,R0                                                    28450021
 0018B0 4111 0008      00008        3060          LA    R1,DX8(R1)                                               28460021
 0018B4 5510 C668      03CF8        3061          CL    R1,RLDSIZ           WILL THIS ENTRY FIT                  28470021
 0018B8 4720 8068      018F0        3062          BC    HI,RLDOVFLO         NO - GO PRINT MSG                    28480021
 0018BC 5820 C664      03CF4        3063          L     R2,ARLDTB                                                28490021
 0018C0 1A20                        3064          AR    R2,R0               ADDRESS FOR INSERT = R2              28500021
 0018C2 5010 C66C      03CFC        3065          ST    R1,RLDINDEX                                              28510021
 0018C6 07FE                        3066          BCR   UNCOND,RS1          RETURN                               28520021
                                    3067 * PUNCH INIT1 ADCON IN THE TGT                                          28530021
 0018C8                             3068 AINIT1   DS    0H                                                       28540021
 0018C8 9204 2000      00000        3069          MVI   TARG0(R2),XX04      SPECIFY LENGTH                       28550021
 0018CC 96C0 2000      00000        3070          OI    TARG0(R2),ATYP      ADCON TYPE                           28560021
 0018D0 5870 D054      03DEC        3071          L     RW2,TGTLOC          GET TGT ADDRESS                      28570021
 0018D4 4177 01B0      001B0        3072          LA    RW2,TGTINIT1(RW2)   COMPUTE TARGET ADDRESS               28580021
 0018D8 5070 D314      040AC        3073          ST    RW2,C6WRK0                                               28590021
 0018DC D202 2001 D315 00001 040AD  3074          MVC   TARG(LX3,R2),C6WRK0+NX1                                  28600021
 0018E2 D203 2004 C37D 00004 03A0D  3075          MVC   RELC4(LX4,R2),ZERO7X INIT ADDRESS (0)                    28610021
 0018E8 47F0 8240      01AC8        3076        BC    UNCOND,SE6000         GET NEXT ELEMENT                     28620021
 0018EC 00002888                    3077 ADSCT2 DC    A(BTALLY)                                                  28630021
 0018F0                             3078 RLDOVFLO DS    0H                                                       28640021
 0018F0 9210 91A2      001A2        3079          MVI   ERRSEV,DLEVEL       INDICATE DISASTER MSG                28650021
 0018F4 96FF D11A      03EB2        3080          OI    SWRLDFUL,RLDOVFL    INDICATE RLDTBL IS FULL              28660021
 0018F8 0509                        3081          BALR  R0,RB2              PAGE EJECT                           28670021
 0018FA D6                          3082          DC    X'D6'                                                    28680021
 0018FB 00
 0018FC D25E D77D C0A3 04515 03733  3083          MVC   OU6CDN(LX95),RLDMSG                                      28690021
 001902 50E0 D124      03EBC        3084          ST    RS1,RS1SAVE         SAVE RETURN REG                      28700021
 001906 58E0 C498      03B28        3085          L     RS1,APUTM                                                28710021
 00190A 58F0 C460      03AF0        3086          L     R15,APUT                                                 28720021
 00190E 05EE                        3087          BALR  RS1,RS1            PRINT MESSAGE                         28730021
 001910 9102 91A4      001A4        3088          TM    PHZSW1,MAPSP       MAPSUP                          41518 28740021
 001914 4780 8098      01920        3089          BC    ZERO,RLD4XREF         NO                           41518 28750021
 001918 948F 91A3      001A3        3090          NI    PHZSW,NO6OPR        RESET OPTIONS                  41518 28760021
 00191C 94BF 91A4      001A4        3091          NI    PHZSW1,CLISTR         HERE TOO                     41518 28770021
 001920                             3092 RLD4XREF  DS    0H                                                41518 28780021
 001920 58E0 D124      03EBC        3093          L     RS1,RS1SAVE         RESTORE RETURN REG                   28790021
1PH60     IKFCBL60                                                                                              PAGE   68
-  LOC  OBJECT CODE    ADDR1 ADDR2  STMT   SOURCE STATEMENT                                       ASM 0201 11.03 02/14/15
0001924 0509                        3094          BALR  R0,RB2              EJECT                                28800021
 001926 D6                          3095          DC    X'D6'                                                    28810021
 001927 00
 001928 91FF D11B      03EB3        3096          TM    NOETEXT,ETX2DO      IS THERE ANY E-TEXT TO PROCESS       28820021
 00192C 4710 8014      0189C        3097          BC    ONES,RLDRTE         ETEXT TO PROCESS - CONTINUE          28830021
 001930 9180 91A4      001A4        3098          TM    PHZSW1,XREF                                              28840021
 001934 4710 8014      0189C        3099          BC    ONES,RLDRTE         XREF TO PROCESS CONTINUE             28850021
 001938 9102 91A4      001A4        3100          TM    PHZSW1,MAPSP        MAPSUP                         41518 28860021
 00193C 4780 80C0      01948        3101          BC    ZERO,DOEOJ             NO                          41518 28870021
 001940 5880 C700      03D90        3102          L     RB1,AFIRST                                         41518 28880021
                             0002E  3103          USING FIRST,RB1                                          41518 28890021
 001944 47F0 80C8      000F6        3104          BC    UNCOND,MSGMS1        PRINT MAPSUP STATS            41518 28900021
                             01888  3105          USING RB1BAS,RB1                                         41518 28910021
 001948                             3106 DOEOJ    DS    0H                                                 41518 28920021
 001948 0509                        3107          BALR  R0,RB2              RETURN TO PH0 - EOJ                  28930021
 00194A B0                          3108          DC    X'B0'                                                    28940021
1PH60     IKFCBL60                                                                                              PAGE   69
-  LOC  OBJECT CODE    ADDR1 ADDR2  STMT   SOURCE STATEMENT                                       ASM 0201 11.03 02/14/15
0                                   3110 *=1          PROCEDURE STATEMENT PROCESSING                             28960021
                                    3111 *                                                                       28970021
                                    3112 *                                                                       28980021
 00194C                             3113 SE6010 DS    0H                                                         28990021
                                    3114 *=L    CODING FROM HERE TO NEXT *=L CARD NOT EXECUTED IF NOLIST MOD     29000021
 00194C 9540 D785      0451D        3115          CLI   OU6LST,BLANK        ANY LISTING TEXT LEFT IN LINE        29010021
 001950 4780 80D2      0195A        3116        BC    EQ,SE6011        NO                                        29020021
 001954 58F0 C460      03AF0        3117        L     R15,APUT                    YES,PRINT                      29030021
 001958 05EF                        3118        BALR  RS1,R15               BR TO PRINT                          29040021
                                    3119 *=L                                                                     29050021
 00195A                             3120 SE6011 DS    0H                                                         29060021
 00195A 9400 D112      03EAA        3121          NI    CLSEGSW,XX00        TURN SWITCH OFF                      29070021
 00195E 9180 4001      00001        3122          TM    A6CDNO,HION                                              29080021
 001962 4780 80E6      0196E        3123          BZ    SE6016              NO, IT'S A PN, BRANCH                29090021
 001966 9680 D112      03EAA        3124          OI    CLSEGSW,HION        TURN SWITCH ON                       29100021
 00196A 947F 4001      00001        3125          NI    A6CDNO,M7F        YES, GET RID OF HIGH-BYTE              29110021
 00196E                             3126 SE6016   DS    0H                                                       29120021
 00196E D201 C520 4001 03BB0 00001  3127          MVC   CDNOSAV(LX2),A6CDNO                                      29130021
 001974 9101 91C6      001C6        3128          TM    PHZSW3,VERBR        IS VERB ON                           29140021
 001978 4780 8110      01998        3129          BZ    SE6012              NOVERB, BRANCH                       29150021
 00197C 4170 8240      01AC8        3130        LA    RW2,SE6000       EOF RETURN                                29160021
                                    3131 *DEL                                                                    29170021
                                    3132 *DEL                                                                    29180021
 001980 5040 C518      03BA8        3133          ST    INPUTR,SAVER4                                            29190021
 001984 58F0 C458      03AE8        3134          L     R15,AGET   GET SOURCE CARD RCD                           29200021
 001988 05EF                        3135        BALR  RS1,R15               BR TO GET RECORD                     29210021
 00198A 957C 4000      00000        3136          CLI   DX0(INPUTR),XX7C    LISTING A-TEXT ?                     29220021
 00198E 4770 8246      01ACE        3137          BNE   SE6020              NO, BRANCH TO CHOOSE RTN             29230021
 001992 18B4                        3138          LR    F4REG,INPUTR        POINTS TO LISTING A-TEXT             29240021
 001994 5840 C518      03BA8        3139          L     INPUTR,SAVER4       POINTS TO A CARD NUMBER              29250021
 001998                             3140 SE6012 DS    0H                                                         29260021
 001998 9240 D77D      04515        3141          MVI   OU6CDN,BLANK                                             29270021
 00199C D204 D77E D77D 04516 04515  3142          MVC   OU6CDN+NX1,OU6CDN                                        29280021
                                    3143 *DEL                                                                    29290021
                                    3144 *DEL                                                                    29300021
                                    3145 *DEL                                                                    29310021
                                    3146 *DEL                                                                    29320021
 0019A2                             3147 SE6013   DS    0H                                                       29330021
 0019A2 D201 D314 C520 040AC 03BB0  3148          MVC   C6WRK0(LX2),CDNOSAV                                      29340021
 0019A8 D201 D0FA C520 03E92 03BB0  3149          MVC   XFCDNO,CDNOSAV      SAVE CARD NO FOR XREF TABLES BLDG.   29350021
 0019AE 4860 D314      040AC        3150        LH    RW1,C6WRK0                                                 29360021
                             04A5E  3151        USING S6200,R15                                                  29370021
 0019B2 58F0 C468      03AF8        3152        L     R15,AS6200                                                 29380021
 0019B6 45E0 F004      04A62        3153        BAL   RS1,S6210             BR TO CONVERT                        29390021
 0019BA D200 D77D D31B 04515 040B3  3154          MVC   OU6CDN(LX0),C6WRK4   EXECUTED BY SUBR                    29400021
 0019C0 9140 91A4      001A4        3155        TM    PHZSW1,CLIST                                               29410021
 0019C4 4780 8146      019CE        3156        BC    ZERO,SE6014           NOT CLIST                            29420021
 0019C8 D204 D84F D77D 045E7 04515  3157          MVC   OUCCDN(LX5),OU6CDN                                       29430021
                                    3158        DROP  R15                                                        29440021
 0019CE                             3159 SE6014 DS    0H                                                         29450021
 0019CE 9240 D2B2      0404A        3160          MVI   PNBCDS,BLANK                                             29460021
 0019D2 D21C D2B3 D2B2 0404B 0404A  3161          MVC   PNBCDS+NX1(LX29),PNBCDS                                  29470021
 0019D8 D204 D2B2 D77D 0404A 04515  3162          MVC   PNBCDS(LX5),OU6CDN   SAVE CARD NUMBER FOR TRACE          29480021
                                    3163 *DEL                                                                    29490021
                                    3164 *DEL                                                                    29500021
1PH60     IKFCBL60                                                                                              PAGE   70
-  LOC  OBJECT CODE    ADDR1 ADDR2  STMT   SOURCE STATEMENT                                       ASM 0201 11.03 02/14/15
00019DE 9101 91C6      001C6        3165          TM    PHZSW3,VERBR        IS VERB ON                           29510021
 0019E2 4780 819C      01A24        3166          BC    ZERO,SE6015         NOVERB, BRANCH                       29520021
 0019E6 436B 0001      00001        3167          IC    RW1,DX1(F4REG)                                           29530021
 0019EA 5460 C020      036B0        3168        N     RW1,C6MA                                                   29540021
 0019EE 1876                        3169          LR    RW2,RW1                                                  29550021
 0019F0 4A70 D070      03E08        3170          AH    RW2,GETLEN                                               29560021
 0019F4 4070 D070      03E08        3171          STH   RW2,GETLEN                                               29570021
 0019F8 4B60 C06C      036FC        3172          SH    RW1,C61      DECREMENT 1 FOR EX OF MVC                   29580021
 0019FC 9180 D112      03EAA        3173          TM    CLSEGSW,HION                                             29590021
 001A00 4770 81AE      01A36        3174          BNZ   VERBF4        VERB                                       29600021
1PH60     IKFCBL60                                                                                              PAGE   71
-  LOC  OBJECT CODE    ADDR1 ADDR2  STMT   SOURCE STATEMENT                                       ASM 0201 11.03 02/14/15
0                                   3176 *=2    PROCEDURE NAME (LISTING A-TEXT)                                  29620021
                                    3177 *      FORMAT //NN BCD-NAME//                                           29630021
                                    3178 *                                                                       29640021
                                    3179 *             WHERE NN=LENGTH OF ELT, BUT WITH HI-ORDER BIT=1           29650021
                                    3180 *                                                                       29660021
                                    3181 *=L    CODING FROM HERE TO NEXT *=L CARD NOT EXECUTED IF NOLIST MOD     29670021
 001A04 4460 8190      01A18        3182        EX    RW1,MVCPN             PN TO COL 9 ON                       29680021
 001A08 925C D784      0451C        3183          MVI   OU6STR,ASTER        * TO LISTING LINE                    29690021
 001A0C 58F0 C460      03AF0        3184        L     R15,APUT     PRINT LINE                                    29700021
 001A10 05EF                        3185        BALR  RS1,R15               BR TO PRINT                          29710021
                                    3186 *=L                                                                     29720021
 001A12 184B                        3187          LR    INPUTR,F4REG                                             29730021
 001A14 47F0 8240      01AC8        3188        BC    UNCOND,SE6000         GET NEXT ELEMENT                     29740021
                             01A18  3189 MVCVRB EQU     *                                                        29750021
 001A18 D200 D785 B002 0451D 00002  3190 MVCPN    MVC   OU6LST(LX0),DX2(F4REG)   PMAP MOVE                       29760021
 001A1E D200 D857 B002 045EF 00002  3191 MVCVRBC  MVC   OUCLST(LX0),DX2(F4REG)   CLIST MOVE                      29770021
 001A24                             3192 SE6015   DS    0H                                                       29780021
 001A24 9140 91A4      001A4        3193          TM    PHZSW1,CLIST        IS IT CLIST                          29790021
 001A28 4710 81DA      01A62        3194          BC    ONES,SE6030         YES, BRANCH                          29800021
 001A2C 58F0 C460      03AF0        3195          L     R15,APUT                                                 29810021
 001A30 05EF                        3196          BALR  RS1,R15                                                  29820021
 001A32 47F0 8240      01AC8        3197          BC    UNCOND,SE6000       GET NEXT ELEMENT                     29830021
-
0
                                    3199 *=2    VERB (LISTING A-TEXT)                                            29850021
                                    3200 *      FORMAT //NN VERB-NAME//                                          29860021
                                    3201 *                                                                       29870021
                                    3202 *             WHERE NN=LENGTH OF ELT                                    29880021
                                    3203 *                                                                       29890021
                                    3204 *                                                                       29900021
                                    3205 *=L    CODING FROM HERE TO NEXT *=L CARD NOT EXECUTED IF NOLIST MOD     29910021
 001A36                             3206 VERBF4   DS    0H                                                       29920021
 001A36 D201 D314 C520 040AC 03BB0  3207          MVC   C6WRK0(LX2),CDNOSAV                                      29930021
 001A3C 4960 C084      03714        3208        CH    RW1,C6H9                                                   29940021
 001A40 47D0 81C0      01A48        3209        BC    NOTHI,VER010          VERB LESS THAN 10 CHARS              29950021
 001A44 4860 C084      03714        3210        LH    RW1,C6H9         ONLY USE 10 CHARS                         29960021
                             01A48  3211 VER010 EQU   *                                                          29970021
 001A48 9140 91A4      001A4        3212          TM    PHZSW1,CLIST                                             29980021
 001A4C 4780 81D0      01A58        3213          BC    ZERO,SE6029         BYPASS CLIST CODE                    29990021
 001A50 4460 8196      01A1E        3214          EX    RW1,MVCVRBC         MOVE VERB TO O/P AREA                30000021
 001A54 47F0 81DA      01A62        3215          BC    UNCOND,SE6030       GO TO FINISH CLIST WORK              30010021
 001A58                             3216 SE6029   DS    0H                                                       30020021
 001A58 4460 8190      01A18        3217        EX    RW1,MVCVRB                                                 30030021
 001A5C 184B                        3218          LR    INPUTR,F4REG                                             30040021
 001A5E 47F0 8240      01AC8        3219          BC    UNCOND,SE6080       BYPASS CLIST CODE                    30050021
 001A62                             3220 SE6030   DS    0H                                                       30060021
                                    3221 *DEL                                                                    30070021
                                    3222 *DEL                                                                    30080021
 001A62 9180 D112      03EAA        3223          TM    CLSEGSW,HION       IS IT CARD NO. FOR VERB               30090021
 001A66 4780 8240      01AC8        3224          BC    ZERO,SE6000        BYPASS CLIST CODE                     30100021
 001A6A 947F D112      03EAA        3225          NI    CLSEGSW,X'FF'-HION RESET SWITCH                          30110021
 001A6E 9101 91C6      001C6        3226          TM    PHZSW3,VERBR        IS VERB ON                           30120021
1PH60     IKFCBL60                                                                                              PAGE   72
-  LOC  OBJECT CODE    ADDR1 ADDR2  STMT   SOURCE STATEMENT                                       ASM 0201 11.03 02/14/15
0001A72 4710 821C      01AA4        3227          BC    ONES,SE6050         YES, VERB ALREADY PRINTED, BRANCH    30130021
 001A76 D501 C51E C520 03BAE 03BB0  3228          CLC   SAVCDNO,CDNOSAV     VERB FROM SAME CARD # ?              30140021
 001A7C 4780 8204      01A8C        3229          BC    EQ,SE6040           YES                                  30150021
 001A80 D201 C51E C520 03BAE 03BB0  3230          MVC   SAVCDNO,CDNOSAV     NO - SAVE NEW CARD #                 30160021
 001A86 FB11 C51C C51C 03BAC 03BAC  3231          SP    VRBCNT,VRBCNT       REINITIALIZE VERB # COUNTER          30170021
 001A8C                             3232 SE6040   DS    0H                                                       30180021
 001A8C FA10 C51C C039 03BAC 036C9  3233          AP    VRBCNT,DECONE       ADD 1 TO VERB # COUNTER              30190021
 001A92 D203 D858 C32D 045F0 039BD  3234          MVC   OUCLST+NX1(LX4),VRBCON                                   30200021
 001A98 D203 D85C C325 045F4 039B5  3235          MVC   OUCLST+NX5(LX4),EDWD1                                    30210021
 001A9E DE03 D85C C51C 045F4 03BAC  3236          ED    OUCLST+NX5(LX4),VRBCNT                                   30220021
 001AA4                             3237 SE6050   DS    0H                                                       30230021
 001AA4 D203 D314 9148 040AC 00148  3238          MVC   C6WRK0(LX4),LOCCTR   MOVE LOCATION CTR TO WORK AREA      30240021
 001AAA 58F0 C474      03B04        3239          L     R15,AS6010                                               30250021
 001AAE 05EF                        3240          BALR  RS1,R15             CONVERT                              30260021
 001AB0 D205 D862 D31A 045FA 040B2  3241          MVC   OUCLC(LX6),C6WRK3   NOW TO O/P AREA                      30270021
 001AB6 58F0 C460      03AF0        3242          L     R15,APUT                                                 30280021
                             054DE  3243          USING PUT,R15                                                  30290021
 001ABA 45E0 F030      0550E        3244          BAL   RS1,PUTC            PUT 1/3 OF LINE                      30300021
 001ABE 9101 91C6      001C6        3245          TM    PHZSW3,VERBR                                             30310021
 001AC2 4780 8240      01AC8        3246          BC    ZERO,SE6000         GET NEXT ELEMENT                     30320021
 001AC6 184B                        3247          LR    INPUTR,F4REG                                             30330021
-
0
                                    3249 *        PROCEDURE A-TEXT ELEMENTS ARE READ FROM FILE 4; THE            30350021
                                    3250 *        CORRECT ROUTINE IS CHOSEN USING BRANCH-TABLE SE6025;           30360021
                                    3251 *              RETURN FROM EACH SUBROUTINE IS TO                        30370021
                                    3252 *                       SE6000 OR SE6080 FOR NEW RECORD                 30380021
                                    3253 *                       SE6020           FOR NEXT CODE                  30390021
                                    3254 *              END-OF-FILE EXIT FROM GET IS ENDF3                       30400021
                                    3255 *              ERROR ROUTINE FOR DIAGNOSTICS IS ERR040,ERR080,          30410021
                                    3256 *                    ERR110, OR ERR250.                                 30420021
                                    3257 *                                                                       30430021
                                    3258 *=L                                                                     30440021
 001AC8                             3259 SE6000 DS    0H                                                         30450021
                                    3260 *                                                                       30460021
 001AC8 58F0 C458      03AE8        3261 SE6080   L     R15,AGET            GET ELT FROM F1                      30470021
 001ACC 05EF                        3262        BALR  RS1,R15               GET NEXT ELEMENT                     30480021
-
-
                                    3264 *                                                                       30500021
                                    3265 *   GET NEXT CODE.  USE BRANCH TABLE SE6025                             30510021
                                    3266 *                                                                       30520021
 001ACE                             3267 SE6020 DS    0H                                                         30530021
 001ACE 1B66                        3268        SR    RW1,RW1                                                    30540021
 001AD0 4360 D308      040A0        3269        IC    RW1,GOTCOD                                                 30550021
 001AD4 47F6 D80C      045A4        3270        BC    UNCOND,SE6025-OP(RW1)    BRANCH-TABLE, CHOOSE RTN          30560021
1PH60     IKFCBL60                                                                                              PAGE   73
-  LOC  OBJECT CODE    ADDR1 ADDR2  STMT   SOURCE STATEMENT                                       ASM 0201 11.03 02/14/15
0                                   3272 *        DESCRIPTIVE ELEMENT                                            30580021
                                    3273 *                                                                       30590021
 001AD8                             3274 NONINS DS    0H                                                         30600021
 001AD8 58F0 C464      03AF4        3275        L     R15,AS6800             FORMAT AND PRINT LINE               30610021
 001ADC 05EF                        3276        BALR  RS1,R15               BR TO FORMAT/PRINT RTN               30620021
 001ADE 47F0 8246      01ACE        3277        BC    UNCOND,SE6020         GET NEXT CODE                        30630021
1PH60     IKFCBL60                                                                                              PAGE   74
-  LOC  OBJECT CODE    ADDR1 ADDR2  STMT   SOURCE STATEMENT                                       ASM 0201 11.03 02/14/15
0                                   3279 *                                                                       30650021
                                    3280 *      COMMON ENTRANCE FOR NEW BLOCK OF ASSEMBLED A-TEXT ONLY           30660021
                                    3281 *      RW1=EOF ADDR                                                     30670021
                                    3282 *      RW2=LOC OF A-TEXT BLOCK                                          30680021
 001AE2                             3283 SU6010 DS    0H                                                         30690021
 001AE2 58F0 C464      03AF4        3284        L     R15,AS6800                                                 30700021
 001AE6 05EF                        3285        BALR  RS1,R15               FORMAT AND PRINT LINE                30710021
 001AE8 5060 D158      03EF0        3286        ST    RW1,EOFADR                                                 30720021
 001AEC 5070 C470      03B00        3287        ST    RW2,ADTEST                                                 30730021
 001AF0 9400 D3DB      04173        3288          NI    FGET,FGETNEW        GET NEW BLOCK                        30740021
                                    3289 ***    BC    UNCOND,R6010     FOLLOWS SO NO BRANCH                      30750021
-
0
                                    3291 *=1   PROCESS OP AND ADDRESS ELEMENTS AND PRINT LISTING LINE            30770021
                                    3292 *     EXIT WHEN ENCOUNTER ELEMENT NOT ASSOCIATED WITH AN OP             30780021
                                    3293 *                                                                       30790021
                                    3294 *      A NOTE ON SYMBOLIC OPERANDS--                                    30800021
                                    3295 *      THERE ARE 3 FULL WORDS WHICH CORRESPOND TO THE LISTING LINE      30810021
                                    3296 *      FIELD OU6SO1 AND 3 FULL WORDS FOR OU6SO2. OU6SO1 WILL EXPLAI     30820021
                                    3297 *      THE ITEM REFERRED TO BY BASE-1, DISPLACEMENT-1 AND OU6SO2        30830021
                                    3298 *      LIKEWISE FOR BASE-2, DISPLACEMENT-2 (EXCEPT WHERE THERE IS N     30840021
                                    3299 *      B-1, D-1 FOR AN INSTR, EG RX-TYPE OR RS-TYPE, WHEN OU6SO1 WI     30850021
                                    3300 *     EXPLAIN B-2,D-2)                                                  30860021
                                    3301 *      THESE 6 FULL WORDS ARE SB1D1C- CODE FOR SYMBOLIC OPERAND 1       30870021
                                    3302 *                             SB2D2C- CODE FOR SYMBOLIC OPERAND 2       30880021
                                    3303 *                             SB1D1N- NUMBER OR DISP OF SYM OP 1        30890021
                                    3304 *                             SB2D2N- NUMBER OR DISP OF SYM OP 2        30900021
                                    3305 *                             SB1D1P- ANY PLUS VALUE TO BE ADDED TO     30910021
                                    3306 *                             SB2D2P- ANY PLUS VALUE TO BE ADDED TO     30920021
                                    3307 *      THESE FIELDS ARE FILLED AS THE ELEMENTS ARE ENCOUNTERED AND      30930021
                                    3308 *      CONVERTED TO LISTING LINE ELEMENTS BY ROUTINE S6800              30940021
 001AF4                             3309 R6010  DS    0H                                                         30950021
 001AF4 58F0 C458      03AE8        3310        L     R15,AGET                                                   30960021
 001AF8 05EF                        3311        BALR  RS1,R15               GET RECORD OF PROCEDURE-ATEXT        30970021
                             01AFA  3312 R6020  EQU   *                                                          30980021
 001AFA 9400 D3D8      04170        3313          NI    GTOVFL,INITOFF      INIT TO ZERO                         30990021
 001AFE 9560 D308      040A0        3314        CLI   GOTCOD,OP        IS ELT OP DESCRIPTIVE                     31000021
 001B02 4740 82EA      01B72        3315        BC    LOW,R6200        YES                                       31010021
 001B06 4720 8250      01AD8        3316        BC    HI,NONINS        NO                                        31020021
-
0
                                    3318 *=1                                OP ELEMENT                           31040021
                                    3319 *      FORMAT //48 CC RR //                                             31050021
                                    3320 *                                                                       31060021
                                    3321 *             WHERE CC IS MACHINE OP CODE (00 FOR CNOP)                 31070021
                                    3322 *                   RR IS VALUE TO BE PLACED IN SECOND BYTE OF INST     31080021
 001B0A 9500 D2EA      04082        3323 OPPRO    CLI   C6OP,XX00       FIRST OP ELT                             31090021
 001B0E 4780 8290      01B18        3324        BC    EQ,R6040                     YES                           31100021
 001B12 58F0 C464      03AF4        3325        L     R15,AS6800    TO PRINT ROUTINE                             31110021
1PH60     IKFCBL60                                                                                              PAGE   75
-  LOC  OBJECT CODE    ADDR1 ADDR2  STMT   SOURCE STATEMENT                                       ASM 0201 11.03 02/14/15
0001B16 05EF                        3326        BALR  RS1,R15               FORMAT AND PRINT LINE                31120021
 001B18                             3327 R6040  DS    0H                                                         31130021
 001B18 94FD D28C      04024        3328        NI    STAT14,YAVAL6         MAKE NON-PERMANENT REGS AVAILABL     31140021
 001B1C 94FD D290      04028        3329        NI    STAT15,YAVAL6         AS FAR AS PHASE6 IS CONCERNED        31150021
 001B20 9500 4001      00001        3330          CLI   A6OPCD,NOPOPCD      CNOP                                 31160021
 001B24 4780 82B2      01B3A        3331        BC    EQ,PCNOP    GO TO PROCESS CNOP IF OPCODE=0                 31170021
                                    3332 *                             OTHERWISE                                 31180021
 001B28 D201 D2EA 4001 04082 00001  3333          MVC   C6OP(LX2),A6OPCD SAVE NEW OP AND ABS VALUE               31190021
 001B2E 94FE D3D1      04169        3334        NI    S6BNO,S6WOFF               RESET HFWD 2 SW                 31200021
 001B32 94FE D3D3      0416B        3335        NI    S6PLNO,S6WOFF              RESET PL NO SW                  31210021
                                    3336 *                                                                       31220021
 001B36 47F0 826C      01AF4        3337        BC    UNCOND,R6010               PROCESS NEXT ELEMENT            31230021
                                    3338 *                                                                       31240021
-
                                    3340 *=1                         //CNOP  RR//   ALIGN TO PROPER BOUNDARY     31260021
                                    3341 *                                   WHERE RR=4   CNOP 0,4               31270021
                                    3342 *                                           =8   CNOP 2,4               31280021
                                    3343 *                                           =C   CNOP 0,8               31290021
                                    3344 *                                           =10  CNOP 2,8               31300021
                                    3345 *                                           =14  CNOP 4,8               31310021
                                    3346 *                                           =18  CNOP 6,8               31320021
                                    3347 *                                                                       31330021
 001B3A                             3348 PCNOP  DS    0H                                                         31340021
 001B3A 5870 9148      00148        3349        L     RW2,LOCCTR                                                 31350021
 001B3E 5470 C000      03690        3350        N     RW2,C6M1         GET LOW-ORDER 3 BITS OF LOCCTR/2          31360021
 001B42 8870 0001      00001        3351          SRL   RW2,DX1                                                  31370021
 001B46 5A70 C4C0      03B50        3352        A     RW2,ACNOPT                                                 31380021
 001B4A 1B66                        3353        SR    RW1,RW1                                                    31390021
 001B4C 4360 4002      00002        3354        IC    RW1,A6ABSV       RR-4 TO RW1                               31400021
 001B50 4B60 C072      03702        3355        SH    RW1,C64                                                    31410021
 001B54 4366 7000      00000        3356          IC    RW1,DX0(RW1,RW2) NO OF BCR 0,0 INSTRS TO RW1             31420021
 001B58 1266                        3357        LTR   RW1,RW1                                                    31430021
 001B5A 4780 8240      01AC8        3358        BC    ZERO,SE6080      NONE TO BE GENERATED                      31440021
 001B5E D201 D2EA C336 04082 039C6  3359 MOBCRS   MVC   C6OP(LX2),CNOPLT SET UP AS IF INPUT                      31450021
 001B64 58F0 C464      03AF4        3360        L     R15,AS6800        PRINT AND PUNCH                          31460021
 001B68 05EF                        3361        BALR  RS1,R15               FORMAT AND PRINT LINE                31470021
 001B6A 4660 82D6      01B5E        3362        BCT   RW1,MOBCRS       IF MORE, PROCESS                          31480021
 001B6E 47F0 8240      01AC8        3363        BC    UNCOND,SE6080    GET NEXT A-TEXT ELT                       31490021
1PH60     IKFCBL60                                                                                              PAGE   76
-  LOC  OBJECT CODE    ADDR1 ADDR2  STMT   SOURCE STATEMENT                                       ASM 0201 11.03 02/14/15
0                                   3365 *        PROCEDURE A-TEXT OP CODES.     BRANCH TO APPROPRIATE           31510021
                                    3366 *        ROUTINE TO PROCESS ELEMENT USING BRANCH-TABLE R6202.           31520021
                                    3367 *                                                                       31530021
                                    3368 *                                                                       31540021
 001B72                             3369 R6200  DS    0H                                                         31550021
 001B72 1B66                        3370        SR    RW1,RW1                                                    31560021
 001B74 4360 D308      040A0        3371        IC    RW1,GOTCOD                                                 31570021
 001B78 47F6 D880      04618        3372        BC  UNCOND,R6202-ULNG(RW1) USE CODE TO SELECT RTN FRM TBL        31580021
-
                                    3374 *=1                                BDISP ELEMENT                        31600021
                                    3375 *=     FORMAT //70 BDDD //                                              31610021
                                    3376 *                                                                       31620021
                                    3377 *             WHERE B IS REGISTER SPECIFICATION                         31630021
                                    3378 *                   DDDD IS DISPLACEMENT SPECIFICATION                  31640021
                                    3379 *                                                                       31650021
 001B7C D201 D314 4001 040AC 00001  3380 R6210    MVC   C6WRK0(LX2),A6BDPB WORD FOR CONVERSION                   31660021
 001B82 4860 D314      040AC        3381 R6215  LH    RW1,C6WRK0                 BD                              31670021
 001B86 4060 D314      040AC        3382 R6217  STH   RW1,C6WRK0       WORK AREA                                 31680021
 001B8A 5460 C01C      036AC        3383        N     RW1,C6M6                   DELETE B                        31690021
 001B8E 1B77                        3384        SR    RW2,RW2                    CLEAR REG                       31700021
                             01B90  3385 R6222  EQU   *                                                          31710021
 001B90 4370 D314      040AC        3386        IC    RW2,C6WRK0                 BX                              31720021
 001B94 8870 0004      00004        3387          SRL   RW2,DX4                   RIGHT-JUSTIFY B                31730021
 001B98 9101 D3D1      04169        3388        TM    S6BNO,S6WON                HAS B1 BEEN INITIALIZED         31740021
 001B9C 4710 8330      01BB8        3389        BC    ONES,R6230                   YES                           31750021
 001BA0 9601 D3D1      04169        3390        OI    S6BNO,S6WON                NO,SET 1                        31760021
 001BA4 4270 D2EC      04084        3391        STC   RW2,C6B1S                  INIT B1                         31770021
 001BA8 4060 D2EE      04086        3392        STH   RW1,C6D1S                  INIT D1                         31780021
 001BAC 4960 C068      036F8        3393        CH    RW1,H4096                                                  31790021
 001BB0 47B0 8348      01BD0        3394        BC    NOTLO,R6225           WILL OVERFLOW 4096 SO CORRECT        31800021
 001BB4 47F0 826C      01AF4        3395        BC    UNCOND,R6010               PROCESS NEXT ELEMENT            31810021
 001BB8 4270 D2F0      04088        3396 R6230  STC   RW2,C6B2S                  INIT B2                         31820021
 001BBC 4060 D2F2      0408A        3397        STH   RW1,C6D2S                  INIT D2                         31830021
 001BC0 9601 D3D3      0416B        3398        OI    S6PLNO,S6WON               SET 1                           31840021
 001BC4 4960 C068      036F8        3399        CH    RW1,H4096                                                  31850021
 001BC8 47B0 835C      01BE4        3400        BC    NOTLO,R6235           WILL OVERFLOW 4096 SO CORRECT        31860021
 001BCC 47F0 826C      01AF4        3401        BC    UNCOND,R6010               PROCESS NEXT ELEMENT            31870021
 001BD0 91FF D3D8      04170        3402 R6225    TM    GTOVFL,GTOVFLON     DID EITHER GLOBTBL OVERFLOW          31880021
 001BD4 4770 885A      020E2        3403        BC    NOTZER,R6600          GET GLOBAL TABLE OVERFLOW CELL       31890021
 001BD8 4860 D2A8      04040        3404        LH    RW1,SAVOVF                                                 31900021
 001BDC 4060 D2EE      04086        3405        STH   RW1,C6D1S                                                  31910021
 001BE0 47F0 8732      01FBA        3406        BC    UNCOND,R6520          TAKE CARE OF GREATER THAN 4096       31920021
 001BE4 91FF D3D8      04170        3407 R6235    TM    GTOVFL,GTOVFLON     DID EITHER GLOBTBL OVERFLOW          31930021
 001BE8 4770 8862      020EA        3408        BC    NOTZER,R6601          GET GLOBAL TABLE OVERFLOW CELL       31940021
 001BEC 4860 D2A8      04040        3409        LH    RW1,SAVOVF                                                 31950021
 001BF0 4060 D2F2      0408A        3410        STH   RW1,C6D2S                                                  31960021
 001BF4 47F0 8852      020DA        3411        BC    UNCOND,R6540          TAKE CARE OF GREATER THAN 4096       31970021
                                    3412 *                                  ALTERNATE ENTRY TO R6210 CODE        31980021
 001BF8                             3413 R6220  DS    0H                                                         31990021
 001BF8 4070 D314      040AC        3414        STH   RW2,C6WRK0                                                 32000021
 001BFC 47F0 8308      01B90        3415          BC    UNCOND,R6222        CONTINUE WITH BDISP ELT              32010021
0
1PH60     IKFCBL60                                                                                              PAGE   77
-  LOC  OBJECT CODE    ADDR1 ADDR2  STMT   SOURCE STATEMENT                                       ASM 0201 11.03 02/14/15
0                                   3417 *      FORMAT //AC//  USE P6LNG AS LENGTH FIELD OF INSTR                32030021
                                    3418 *                                                                       32040021
 001C00                             3419 R6240  DS    0H                                                         32050021
 001C00 4870 D170      03F08        3420        LH    RW2,P6LNG                                                  32060021
 001C04 4270 D2EB      04083        3421 R6242  STC   RW2,C6RS                                                   32070021
 001C08 47F0 826C      01AF4        3422        BC    UNCOND,R6010          GET NEXT ELT                         32080021
-
0
                                    3424 *=1                                BL ELEMENT                           32100021
                                    3425 *        FORMAT  //5C  OI  KK //                                        32110021
                                    3426 *                                                                       32120021
                                    3427 *              WHERE I=0  BL-I                                          32130021
                                    3428 *                      1  BLL                                           32140021
                                    3429 *                      4  SBL-I                                         32150021
                                    3430 *                   KK=PARTICULAZ BL OF ABOVE TYPE                      32160021
                                    3431 *                                                                       32170021
 001C0C                             3432 R6260  DS    0H                                                         32180021
 001C0C 9640 D3D8      04170        3433        OI    GTOVFL,TSGTR                                               32190021
 001C10 4150 83FC      01C84        3434        LA    RW3,R6272                                                  32200021
 001C14 1B66                        3435        SR    RW1,RW1                    CLEAR REGISTER                  32210021
 001C16 4360 4002      00002        3436        IC    RW1,A6BLK        K OF ADDR ATTR                            32220021
 001C1A 0660                        3437        BCTR  RW1,R0                SUBTRACT 1                           32230021
 001C1C 8960 0002      00002        3438          SLL   RW1,DX2                   LENGTH OF A BL IS 4 BYTES      32240021
-
                                    3440 *                                                                       32260021
                                    3441 *      FOR BL, DETERMINE TYPE, GET DISP FROM COMTBL AND INSERT          32270021
                                    3442 *      REG 13 FOR BASE                                                  32280021
                                    3443 *                                                                       32290021
 001C20 9500 4001      00001        3444          CLI   A6BLI,XX00                                               32300021
 001C24 4780 83B4      01C3C        3445        BC      EQ,BLTIBL    BL-I                                        32310021
 001C28 9501 4001      00001        3446          CLI   A6BLI,XX01                                               32320021
 001C2C 4780 83C0      01C48        3447        BC      EQ,BLTBLL    BLL                                         32330021
 001C30 9504 4001      00001        3448          CLI   A6BLI,XX04                                               32340021
 001C34 4780 83CC      01C54        3449        BC      EQ,BLTISB    SBL-I                                       32350021
 001C38 47F0 8A7A      02302        3450          BC    UNCOND,ERR040       ASYNC. PROC. ELEMENT *OUT*           32360021
-
                                    3452 *                                                                       32380021
 001C3C                             3453 BLTIBL DS      0H                                                       32390021
 001C3C 4170 0084      00084        3454        LA    RW2,XBLIC-XSYMC       SYMBOLIC FOR BL-I                    32400021
 001C40 4A60 920C      0020C        3455        AH      RW1,BLCTR    START OF BL CELLS IN TGT OR SGT             32410021
 001C44 47F0 83D4      01C5C        3456        BC    UNCOND,R6265          GO CREATE SYMBOLIC OPERANDS          32420021
-
                                    3458 *                                                                       32440021
                                    3459 *      BLL--USE BLLCTR                                                  32450021
                                    3460 *                                                                       32460021
 001C48                             3461 BLTBLL DS      0H                                                       32470021
1PH60     IKFCBL60                                                                                              PAGE   78
-  LOC  OBJECT CODE    ADDR1 ADDR2  STMT   SOURCE STATEMENT                                       ASM 0201 11.03 02/14/15
0001C48 4170 0088      00088        3463        LA      RW2,XBLLC-XSYMC    TO PICK UP SYMBOLICS                  32490021
 001C4C 4A60 917E      0017E        3464        AH      RW1,BLLCTR   START OF BLL CELLS                          32500021
 001C50 47F0 83D4      01C5C        3465        BC    UNCOND,R6265          GO CREATE SYMBOLIC OPERANDS          32510021
 001C54                             3466 BLTISB DS      0H                                                       32520021
 001C54 4170 008C      0008C        3467        LA      RW2,XSBLC-XSYMC    TO PICK UP SYMBOLICS                  32530021
 001C58 4A60 917A      0017A        3468        AH      RW1,SBLCTR   START OF SBL CELLS                          32540021
 001C5C                             3469 R6265  DS    0H                                                         32550021
                                    3470 *=L    CODING FROM HERE TO NEXT *=L CARD NOT EXECUTED IF NOLIST MOD     32560021
                                    3471 *      CREATE SYMBOLIC OPERANDS                                         32570021
 001C5C 5A70 C4BC      03B4C        3472        A       RW2,AXSYMC                                               32580021
 001C60 9101 D3D1      04169        3473        TM    S6BNO,S6WON                                                32590021
 001C64 4710 83EE      01C76        3474        BC    ONES,R6268            B1 HAS BEEN INITIALIZED              32600021
 001C68 D200 D37B 4002 04113 00002  3475          MVC   SB1D1N+NX3(LX1),A6BLK                                    32610021
 001C6E D203 D374 7000 0410C 00000  3476          MVC   SB1D1C(LX4),DX0(RW2)                                     32620021
 001C74 07F5                        3477        BCR   UNCOND,RW3            COMPLETE THIS PASS R6272             32630021
 001C76                             3478 R6268  DS    0H                                                         32640021
 001C76 D200 D387 4002 0411F 00002  3479          MVC   SB2D2N+NX3(LX1),A6BLK                                    32650021
 001C7C D203 D380 7000 04118 00000  3480          MVC   SB2D2C(LX4),DX0(RW2)                                     32660021
 001C82 07F5                        3481        BCR   UNCOND,RW3            COMPLETE THIS PASS R6272             32670021
                                    3482 *=L                                                                     32680021
 001C84                             3483 R6270  DS      0H                                                       32690021
 001C84                             3484 R6272  DS    0H                                                         32700021
 001C84 5870 C00C      0369C        3485        L     RW2,C6M4         INSERT REG 13 FOR BASE                    32710021
 001C88 47F0 8370      01BF8        3486        BC      UNCOND,R6220 GO TO CREATE BN AND DN                      32720021
                                    3487 *                                                                       32730021
 001C8C                             3488 USER15 DS    0H                                                         32740021
 001C8C 5870 C010      036A0        3489        L     RW2,C6M4A                                                  32750021
 001C90 47F0 8370      01BF8        3490        BC    UNCOND,R6220          GO CREATE BN AND DN                  32760021
                                    3491 *                                                                       32770021
-
0
                                    3493 *=1                                PN ELEMENT                           32790021
                                    3494 *      FORMAT  // 4C NNNN //                                            32800021
                                    3495 *                                                                       32810021
                                    3496 *              WHERE NNNN IS PN=                                        32820021
                                    3497 *      FROM PN= GET RPN=, THEN COMPUTE ITS DISP FROM PGT AND USE RE     32830021
                                    3498 *      IF RGNSW ON ALL REFERENCES TO GNS OR PNS MUST ALREADY BE         32840021
                                    3499 *      RELATIVE                                                         32850021
 001C94                             3500 R6300  DS    0H                                                         32860021
 001C94 9680 D3D8      04170        3501        OI    GTOVFL,PGTR                                                32870021
 001C98 D201 D314 4002 040AC 00002  3502          MVC   C6WRK0(LX2),A6PNNO                                       32880021
 001C9E 4860 D314      040AC        3503        LH    RW1,C6WRK0                                                 32890021
 001CA2 9500 D3D9      04171        3504          CLI   RGNSW,INITOFF       AREN'T WE PROCESSING INIT CODE       32900021
 001CA6 4780 8432      01CBA        3505        BC    EQ,R6304              REL GN SW IS ZERO                    32910021
 001CAA                             3506 R6303B DS    0H                                                         32920021
 001CAA 1856                        3507        LR    RW3,RW1                    SAVE NO FOR LISTING             32930021
 001CAC 0660                        3508        BCTR  RW1,R0                SUBTRACT 1                           32940021
 001CAE 8960 0002      00002        3509          SLL   RW1,DX2                                                  32950021
 001CB2 4A60 915C      0015C        3510        AH    RW1,PNCTR                                                  32960021
 001CB6 47F0 843C      01CC4        3511        BC    UNCOND,R6303D         CONTINUE                             32970021
 001CBA                             3512 R6304  DS    0H                                                         32980021
 001CBA 58F0 C4F0      03B80        3513        L     R15,AGETPN                                                 32990021
1PH60     IKFCBL60                                                                                              PAGE   79
-  LOC  OBJECT CODE    ADDR1 ADDR2  STMT   SOURCE STATEMENT                                       ASM 0201 11.03 02/14/15
0001CBE 05EF                        3514        BALR  RS1,R15               GET PN NUMBER                        33000021
 001CC0 4780 8A7A      02302        3515        BC    ZERO,ERR040      RW1=LOC IN PGT ON RETURN                  33010021
 001CC4 4960 915E      0015E        3516 R6303D CH    RW1,GNCTR                                                  33020021
 001CC8 4740 8450      01CD8        3517        BC    LOW,R6317             PGT ADDR LT GN                       33030021
 001CCC 5870 C3DC      03A6C        3518        L     RW2,XGNC                                                   33040021
 001CD0 4B50 91C0      001C0        3519        SH    RW3,RGNCTR                 USE REL GN FOR LISTING          33050021
 001CD4 47F0 8492      01D1A        3520        BC    UNCOND,R6318          R1 WILL POINT TO R6315               33060021
                                    3521 *                                                                       33070021
 001CD8                             3522 R6317  DS    0H                                                         33080021
 001CD8 9180 91A4      001A4        3523        TM    PHZSW1,XREF           IS XREF OPTION SPECIFIED             33090021
 001CDC 4780 848E      01D16        3524        BC    ZERO,R6316            NO,BR                                33100021
 001CE0 95FF D3D9      04171        3525          CLI   RGNSW,RGNINIT       ARE WE PROCESSING INIT CODE          33110021
 001CE4 4780 848E      01D16        3526          BC    EQ,R6316      YES, DON'T PRODUCE XREF ELEMEMT            33120021
 001CE8 9101 D3D5      0416D        3527          TM    QRTNSW,QRTNON       ARE WE PROCESSING Q-RTNS             33130021
 001CEC 4710 848E      01D16        3528          BC    ONES,R6316          YES, DON'T PRODUCE XREF ELEMENT      33140021
 001CF0 41E0 848E      01D16        3529        LA    RS1,R6316             SPECIFY RET ADDR FOR IN-LINE RTN     33150021
 001CF4                             3530 R6317A   DS  0H                                                         33160021
 001CF4 9200 D314      040AC        3531          MVI   C6WRK0,INITOFF                                           33170021
 001CF8 D201 D315 4002 040AD 00002  3532 R63179   MVC   C6WRK0+NX1(LX2),A6PNNO GET PN NUMBER                     33180021
 001CFE 9680 D0FA      03E92        3533          OI    XFCDNO,HION         INDICATE-THIS PN REF CRD NUMB        33190021
 001D02 4130 0005      00005        3534 R63180   LA    R3,DX5               SPECIFY LENGTH OF REF ELMNT         33200021
 001D06 4120 D314      040AC        3535        LA    R2,C6WRK0             SPECIFY ADDR OF ELEMNT               33210021
 001D0A D201 D317 D0FA 040AF 03E92  3536          MVC   C6WRK0+NX3(LX2),XFCDNO GET CARD NUMBER(REF)              33220021
 001D10 0509                        3537        BALR  R0,RB2                BR TO PH0                            33230021
 001D12 13                          3538        DC    X'13'                 WRITE ON UT3                         33240021
 001D13 00
 001D14 07FE                        3539        BR    RS1                   RETURN OR FALL THRU                  33250021
 001D16                             3540 R6316  DS    0H                                                         33260021
 001D16 5870 C3D8      03A68        3541        L     RW2,XPNC                                                   33270021
 001D1A 4110 84B4      01D3C        3542 R6318  LA    R1,R6315                                                   33280021
 001D1E                             3543 R6307  DS    0H                                                         33290021
-

                                    3545 *=L    CODING FROM HERE TO NEXT *=L CARD NOT EXECUTED IF NOLIST MOD     33310021
                                    3546 *      SET UP SYMBOLIC OPERANDS                                         33320021
                                    3547 *                                                                       33330021
 001D1E 9101 D3D1      04169        3548        TM    S6BNO,S6WON                                                33340021
 001D22 4710 84AA      01D32        3549        BC      ONES,R6320          B1 HAS BEEN INITIALIZED              33350021
 001D26 5050 D378      04110        3550        ST    RW3,SB1D1N                                                 33360021
 001D2A 5070 D374      0410C        3551        ST    RW2,SB1D1C                                                 33370021
 001D2E 47F0 84B2      01D3A        3552        BC      UNCOND,R6310        JUST INIT B1, CONTINUE               33380021
 001D32 5050 D384      0411C        3553 R6320  ST    RW3,SB2D2N                                                 33390021
 001D36 5070 D380      04118        3554        ST    RW2,SB2D2C                                                 33400021
                                    3555 *=L                                                                     33410021
                             01D3A  3556 R6310    EQU   *                                                        33420021
 001D3A 07F1                        3557          BCR   UNCOND,R1           IN-LINE RETURN TO R6315              33430021
 001D3C                             3558 R6315  DS    0H                                                         33440021
 001D3C 5870 C018      036A8        3559        L     RW2,C6M5         INSERT REG 12 FOR BASE                    33450021
 001D40 47F0 8370      01BF8        3560        BC    UNCOND,R6220               TO CREATE BN AND DN             33460021
1PH60     IKFCBL60                                                                                              PAGE   80
-  LOC  OBJECT CODE    ADDR1 ADDR2  STMT   SOURCE STATEMENT                                       ASM 0201 11.03 02/14/15
0                                   3562 *=1                                GN ELEMENT                           33480021
                                    3563 *      FORMAT  // 50 NNNN //                                            33490021
                                    3564 *              WHERE NNNN IS GN=                                        33500021
                                    3565 *      FROM GN= GET RELATIVE GN= OR EQUATED PN= TO COMPUTE DISP FRO     33510021
                                    3566 *      PGT, USE REG 12 AS BASE                                          33520021
 001D44                             3567 R6325  DS    0H                                                         33530021
 001D44 9680 D3D8      04170        3568        OI    GTOVFL,PGTR                                                33540021
 001D48 D201 D314 4001 040AC 00001  3569          MVC   C6WRK0(LX2),A6GNNO                                       33550021
 001D4E 4860 D314      040AC        3570        LH    RW1,C6WRK0                                                 33560021
 001D52 9500 D3D9      04171        3571          CLI   RGNSW,INITOFF       AREN'T WE PROCESSING INIT CODE       33570021
 001D56 4770 8422      01CAA        3572        BC    NOTEQ,R6303B          RELATIVE GN SW ON, DO PN CODE        33580021
 001D5A 58F0 C4F0      03B80        3573        L     R15,AGETPN                                                 33590021
                             051BE  3574        USING GETPN,R15                                                  33600021
 001D5E 45E0 F038      051F6        3575        BAL   RS1,GETGN             GO GET PN NUMBER                     33610021
                                    3576        DROP  R15                                                        33620021
 001D62 4780 8A7A      02302        3577        BC    ZERO,ERR040           ERROR EXIT                           33630021
 001D66 47F0 843C      01CC4        3578        BC    UNCOND,R6303D       RW1 = RELLOC IN PGT, RW3 = RGN OR      33640021
-
0
                                    3580 *=1                                    VN ELEMENT                       33660021
                                    3581 *      FORMAT  //54 NNNN //                                             33670021
                                    3582 *      WHERE NNNN=VN=                                                   33680021
 001D6A                             3583 R6350  DS    0H                                                         33690021
 001D6A 95FF 91D0      001D0        3584          CLI   SEGLMT,NOTSEGTD     IS PROGRAM SEGMENTED                 33700021
 001D6E 4770 851A      01DA2        3585          BC    NOTEQ,R6360         YES, BRANCH                          33710021
 001D72                             3586 R63501 DS    0H                                                         33720021
 001D72 9640 D3D8      04170        3587        OI    GTOVFL,TSGTR                                               33730021
 001D76 4800 9226      00226        3588        LH    R0,VNLOC                                                   33740021
 001D7A 5870 C3E0      03A70        3589        L     RW2,XVNC                                                   33750021
 001D7E 4110 83FC      01C84        3590        LA    R1,R6270                                                   33760021
 001D82 95FF 91D0      001D0        3591 R6351    CLI   SEGLMT,NOTSEGTD     IS PROGRAM SEGMENTED                 33770021
 001D86 4770 850C      01D94        3592          BC    NOTEQ,R6353         YES, USE POSITION OF VN INSTEAD      33780021
                                    3593 *                                                                       33790021
 001D8A D201 D314 4002 040AC 00002  3594 R6352    MVC   C6WRK0(LX2),A6VNNO                                       33800021
 001D90 4860 D314      040AC        3595        LH    RW1,C6WRK0                                                 33810021
 001D94 1856                        3596 R6353  LR    RW3,RW1               GET VN= IF PROGRAM NOT SEGMENTED     33820021
                                    3597 *                                  POSITION OF VN= IN VNPTY IS SEGM     33830021
 001D96 0660                        3598          BCTR  RW1,R0              COMPUTE DISPLACEMENT                 33840021
 001D98 8960 0002      00002        3599          SLL   RW1,DX2                                                  33850021
 001D9C 1A60                        3600        AR    RW1,R0                                                     33860021
                                    3601 *      REST OF PROCESSING IDENTICAL TO PNREF                            33870021
 001D9E 47F0 8496      01D1E        3602        BC    UNCOND,R6307          GO FINISH WITH PNREF CODING          33880021
-
                                    3604 *                                                                       33900021
                                    3605 *   VN REF PROCESSING IF PROGRAM IS SEGMENTED.TO COMPUTE THE DISPL      33910021
                                    3606 *   FROM THE BEGINING OF TGT THE POSITION OF THE VN NUMBER IN THE V     33920021
                                    3607 *   TABLE WILL BE USED                                                  33930021
                                    3608 *                                                                       33940021
 001DA2 9500 D0FC      03E94        3609 R6360    CLI   SPVNRF,INITOFF      IS VN NUMBER TO BE USED              33950021
 001DA6 4860 D134      03ECC        3610          LH    RW1,INITVN         NEW COUNT OF VN'S                     33960021
1PH60     IKFCBL60                                                                                              PAGE   81
-  LOC  OBJECT CODE    ADDR1 ADDR2  STMT   SOURCE STATEMENT                                       ASM 0201 11.03 02/14/15
0001DAA 4770 84EA      01D72        3611        BNE   R63501                USE VN NMBR ONE                      33970021
 001DAE 5810 C6D0      03D60        3612        L     R1,AVNPTY             USE POSITION OF VN 1 IN VNPTY TBL    33980021
 001DB2 58F0 C4AC      03B3C        3613        L     R15,ATABLE            GET ADDR OF TABLES SUBRTN            33990021
 001DB6 05EF                        3614        BALR  RS1,R15               UPON RETURN R1=TBL ADDR,R2=SIZE      34000021
 001DB8 1B66                        3615        SR    RW1,RW1               INITIALIZE VN POSITION CTR           34010021
 001DBA D501 1001 4002 00001 00002  3616 R6362    CLC   DX1(LX2,R1),A6VNNO    DO VN NUMBERS MATCH                34020021
 001DC0 4166 0001      00001        3617          LA    RW1,DX1(RW1)         BUMP POSITION CTR                   34030021
 001DC4 4111 0003      00003        3618          LA    R1,DX3(R1)           POINT TO NEXT ENTRY IN VNPTY TBL    34040021
 001DC8 4770 8532      01DBA        3619          BC    NOTEQ,R6362         NO MATCH, TRY NEXT ENTRY             34050021
 001DCC 47F0 84EA      01D72        3620        B     R63501                VN NUMBERS MATCH-BR                  34060021
-
0
                                    3622 *        FORMAT    // 90    VNI REFERENCE                               34080021
 001DD0                             3623 GENVNI DS    0H                                                         34090021
 001DD0 9680 D3D8      04170        3624        OI    GTOVFL,PGTR                                                34100021
 001DD4 4800 9224      00224        3625        LH    R0,VNILOC                                                  34110021
 001DD8 5870 C3E4      03A74        3626        L     RW2,XVNIC                                                  34120021
 001DDC 4110 84B4      01D3C        3627        LA    R1,R6315                                                   34130021
 001DE0 47F0 8502      01D8A        3628        BC    UNCOND,R6352          GO FINISH WITH VNREF CODING          34140021
-
0
                                    3630 *=1                                ADR ELEMENT                          34160021
                                    3631 *      FORMAT  //78 IDDD KK TTTTTT //                                   34170021
                                    3632 *              WHERE I=0   BL-I                                         34180021
                                    3633 *                     1   BLL                                           34190021
                                    3634 *                     2   BLS                                           34200021
                                    3635 *                     4   SBL-I                                         34210021
                                    3636 *                     6   SUBSCRIPT CELL (NOT A BL TYPE)                34220021
                                    3637 *                     3   SEE NOTE                                      34230021
                                    3638 *                                                                       34240021
                                    3639 *                   KK=NO OF CELL OF ABOVE TYPE                         34250021
                                    3640 *                   DDD=DISP OF ITEM FROM ADDR IN SPECIFIED CELL        34260021
                                    3641 *                   TTTTTT=DICTIONARY PTR   BITS 0-1  UNUSED            34270021
                                    3642 *                                                2-14 DICT SEGMENT      34280021
                                    3643 *                                                15-23 DISP IN SEGM     34290021
                                    3644 *                                                                       34300021
                                    3645 *      IN GENERAL, AN ADR ELT IS USED TO REFER TO A DATA NAME. THE      34310021
                                    3646 *      TECHNIQUE IS TO LOAD A REGISTER WITH THE BASE LOCATER (OR        34320021
                                    3647 *      SUBSCRIPT CELL) SPECIFIED (AT OBJECT TIME THAT IS) AND THEN      34330021
                                    3648 *      TO REFER TO THAT DATA NAME THROUGH THE DISP GIVEN IN THE ADR     34340021
                                    3649 *      ELEMENT AND THE GENERAL REGISTER JUST LOADED.                    34350021
                                    3650 *                                                                       34360021
                                    3651 *      THE DICTIONARY POINTER IS USED AS A SYMBOLIC OPERAND IN THE      34370021
                                    3652 *      LISTING AND HAS A CORRESPONDENCE TO THE ITEM IN THE GLOSSARY     34380021
                                    3653 *                                                                       34390021
                                    3654 *      NOTE-IF I=3, THE MEANING IS THAT THE ADDRESS OF THE DATA NAM     34400021
                                    3655 *      HAS ALREADY BEEN LOADED INTO A REGISTER. IN THIS CASE THE DA     34410021
                                    3656 *      NAME IS REFERRED TO BY MEANS OF A ZERO DISP FROM THE REGISTE     34420021
                                    3657 *      SPECIFIED IN THE LOW-ORDER 4-BITS OF DDD.                        34430021
1PH60     IKFCBL60                                                                                              PAGE   82
-  LOC  OBJECT CODE    ADDR1 ADDR2  STMT   SOURCE STATEMENT                                       ASM 0201 11.03 02/14/15
0                                   3658 *                                                                       34440021
 001DE4                             3659 R6400  DS    0H                                                         34450021
 001DE4 9601 D3DA      04172        3660        OI    PLUSFT,S6WON                                               34460021
 001DE8 4370 4001      00001        3661 R6410  IC      RW2,A6ADRI   GET I                                       34470021
 001DEC 5470 C034      036C4        3662        N     RW2,C6M10                                                  34480021
 001DF0 8870 0004      00004        3663          SRL   RW2,DX4         ADJUST TO LOW HEX DIGIT                  34490021
 001DF4 4270 D308      040A0        3664        STC   RW2,GOTCOD                                                 34500021
 001DF8 9503 D308      040A0        3665          CLI   GOTCOD,XX03                                              34510021
 001DFC 4780 8678      01F00        3666        BC      EQ,R6498           GO TO PROCESS SUBSCRIPTING            34520021
 001E00 950B D308      040A0        3667          CLI   GOTCOD,XX0B                                              34530021
 001E04 4780 8678      01F00        3668        BC    EQ,R6498              GO PROCESS SUBSCRIPTING              34540021
 001E08 950A D308      040A0        3669          CLI   GOTCOD,XX0A          CHANGE TO CONFORM                   34550021
 001E0C 4770 858C      01E14        3670        BC    NOTEQ,R6411B          NOT X'0A' SO OK FOR REG ASSIGN       34560021
 001E10 9202 D308      040A0        3671          MVI   GOTCOD,XX02                                              34570021
 001E14                             3672 R6411B DS    0H                                                         34580021
1PH60     IKFCBL60                                                                                              PAGE   83
-  LOC  OBJECT CODE    ADDR1 ADDR2  STMT   SOURCE STATEMENT                                       ASM 0201 11.03 02/14/15
0                                   3674 *------      REGISTER ASSIGNMENT                                        34600021
                                    3675 *------                                                                 34610021
                                    3676 *------                                                                 34620021
 001E14 D200 D294 D308 0402C 040A0  3677          MVC   BLELT(LX1),GOTCOD                                        34630021
 001E1A D200 D295 4003 0402D 00003  3678          MVC   BLELT+NX1(LX1),A6ADRK                                    34640021
 001E20 58F0 C504      03B94        3679        L     R15,ASRCHR        FIND AN AVAILABLE REG                    34650021
 001E24 05EF                        3680        BALR  RS1,R15               GO FIND REG                          34660021
 001E26 9500 D3D7      0416F        3681          CLI   LOADSW,INITOFF      DON'T WE NEED TO GEN LOAD INST       34670021
 001E2A 4770 85BA      01E42        3682        BC    NOTEQ,R6419A     NOT ALREADY LOADED                        34680021
 001E2E 4250 D318      040B0        3683 R6411  STC   RW3,C6WRK1                                                 34690021
                                    3684 *      SET UP    C6WRK0=RDDD                                            34700021
 001E32 D201 D314 4001 040AC 00001  3685          MVC   C6WRK0(LX2),A6ADRI                                       34710021
 001E38 D300 D314 D318 040AC 040B0  3686          MVZ   C6WRK0(LX1),C6WRK1                                       34720021
 001E3E 47F0 85FC      01E84        3687        BC    UNCOND,R6494A         GO SET UP SYMBOLIC OPERANDS          34730021
 001E42                             3688 R6419A DS    0H                                                         34740021
 001E42 9400 D3D7      0416F        3689          NI    LOADSW,INITOFF      RESET-DON'T NEED TO GEN LOAD         34750021
 001E46 D208 D2F4 D2EA 0408C 04082  3690          MVC   C6INSV(LX9),C6OP     SAVE CURRENT INSTR                  34760021
 001E4C D213 D38C D374 04124 0410C  3691          MVC   SBDSAV(LX20),SB1D1C   AND SYMBOLIC OPERANDS              34770021
 001E52 D213 D374 C338 0410C 039C8  3692          MVC   SB1D1C(LX20),SBDINI   REINITIALIZE SYMBOLIC OP AREA      34780021
 001E58 9258 D2EA      04082        3693          MVI   C6OP,XX58                 FOR CURRENT OP OF L            34790021
 001E5C 4250 D2EB      04083        3694        STC   RW3,C6RS                                                   34800021
                                    3695 *------                                                                 34810021
                                    3696 *------                                                                 34820021
                                    3697 *------                                                                 34830021
 001E60 1B66                        3698 R6420  SR    RW1,RW1                    CLEAR REGISTER                  34840021
 001E62 4360 4003      00003        3699        IC    RW1,A6ADRK                 BASE LOCATOR NUMBER             34850021
 001E66 58F0 C4FC      03B8C        3700        L     R15,AGENLD                                                 34860021
 001E6A 05EF                        3701        BALR  RS1,R15               LOAD REG SPECIFIED                   34870021
 001E6C D201 D314 4001 040AC 00001  3702          MVC   C6WRK0(LX2),A6ADRI   WORD FOR CONVERSION                 34880021
 001E72 D300 D314 D2EB 040AC 04083  3703          MVZ   C6WRK0(LX1),C6RS     REG USED FOR B                      34890021
 001E78 D208 D2EA D2F4 04082 0408C  3704          MVC   C6OP(LX9),C6INSV     RESTORE CURRENT INSTR               34900021
 001E7E D213 D374 D38C 0410C 04124  3705          MVC   SB1D1C(LX20),SBDSAV   AND SYMBOLIC OPERANDS              34910021
 001E84                             3706 R6494A DS    0H                                                         34920021
                                    3707 *=L    CODING FROM HERE TO NEXT *=L CARD NOT EXECUTED IF NOLIST MOD     34930021
                                    3708 *      SET UP SYMBOLIC OPERANDS                                         34940021
 001E84 D502 4004 C08C 00004 0371C  3709          CLC   A6ADRP,C6FFF        ALL F'S IN DICTIONARY PTR MEANS      34950021
 001E8A 4770 860E      01E96        3710          BC    NOTEQ,R6494B      NOT ALL F                        43941 34960021
 001E8E 9400 D3DA      04172        3711          NI    PLUSFT,S6INIT00     RESET PLUS ELT SWITCH          43941 34970021
 001E92 47F0 82FA      01B82        3712          BC    UNCOND,R6215         DONT PRINT ALL F DICT PTR     43941 34980021
 001E96                             3713 R6494B   DS    0H                                                 43941 34990021
 001E96 45E0 86A0      01F28        3714          BAL   RS1,TDNR10         GO DO XREF REF IF REQUIRED       PM12 35000021
 001E9A 9140 91A3      001A3        3715          TM    PHZSW,NOLIST                                        PM12 35010021
 001E9E 4780 82FA      01B82        3716          BC    ZERO,R6215         NO MAP - DON'T FORMAT PRINT LINE PM12 35020021
                                    3717 *                FOLLOWING 2 INSTS MUST NOT BE SEPARATED                35030021
 001EA2 5870 C4BC      03B4C        3718        L       RW2,AXSYMC                                               35040021
                             066FE  3719        USING   XSYMC,RW2                                                35050021
 001EA6 9101 D3D1      04169        3720        TM    S6BNO,S6WON                                                35060021
 001EAA 4710 8636      01EBE        3721        BC      ONES,R6495          B1 HAS BEEN INITIALIZED              35070021
 001EAE D202 D379 4004 04111 00004  3722          MVC   SB1D1N+NX1(LX3),A6ADRP DICT PTR                          35080021
 001EB4 D203 D374 7000 0410C 066FE  3723          MVC   SB1D1C(LX4),XDNC                                         35090021
 001EBA 47F0 8642      01ECA        3724        BC    UNCOND,R6496          B1 JUST INIT CONTINUE                35100021
 001EBE D202 D385 4004 0411D 00004  3725 R6495    MVC   SB2D2N+NX1(LX3),A6ADRP                                   35110021
 001EC4 D203 D380 7000 04118 066FE  3726          MVC   SB2D2C(LX4),XDNC                                         35120021
                                    3727        DROP    RW2                                                      35130021
 001ECA                             3728 R6496  DS    0H                                                         35140021
1PH60     IKFCBL60                                                                                              PAGE   84
-  LOC  OBJECT CODE    ADDR1 ADDR2  STMT   SOURCE STATEMENT                                       ASM 0201 11.03 02/14/15
0001ECA 9101 D3DA      04172        3729        TM    PLUSFT,S6WON                                               35150021
 001ECE 4780 82FA      01B82        3730        BC    ZERO,R6215       NO PLUS ELT FOLLOWING                     35160021
 001ED2 4860 D314      040AC        3731        LH    RW1,C6WRK0       SAVE BDISP CALCULATED IN RW1              35170021
 001ED6 9400 D3DA      04172        3732          NI    PLUSFT,S6INIT00     RESET-NOT ADR WITH PLUS ELT          35180021
                                    3733 *      PLUS AFTER ADR ELT HAS ALREADY BEEN INCLUDED IN D ADDR PARAM     35190021
                                    3734 *      AND IS ONLY PROCESSED HERE FOR SYMBOLIC REFERENCE                35200021
 001EDA 9400 D314      040AC        3735          NI    C6WRK0,INITOFF                                           35210021
 001EDE D202 D315 4007 040AD 00007  3736          MVC   C6WRK0+NX1(LX3),A6ADIN                                   35220021
 001EE4 5870 D314      040AC        3737        L     RW2,C6WRK0                                                 35230021
 001EE8 9101 D3D1      04169        3738        TM    S6BNO,S6WON                                                35240021
 001EEC 4710 8670      01EF8        3739        BC    ONES,R6497            B1 HAS BEEN INITIALIZED              35250021
 001EF0 5070 D37C      04114        3740        ST    RW2,SB1D1P                                                 35260021
 001EF4 47F0 82FE      01B86        3741          BC    UNCOND,R6217        CONTINUE WITH BDISP CODING           35270021
 001EF8                             3742 R6497  DS    0H                                                         35280021
 001EF8 5070 D388      04120        3743        ST    RW2,SB2D2P                                                 35290021
 001EFC 47F0 82FE      01B86        3744          BC    UNCOND,R6217        CONTINUE WITH BDISP CODING           35300021
                                    3745 *=L                                                                     35310021
                                    3746 *                                                                       35320021
                                    3747 *      USE REGISTER SPECIFIED (IT HAS ALREADY BEEN SET) INSTEAD         35330021
                                    3748 *      OF NORMAL LOAD REG-REG IS IN LOW ORDER 4 BITS OF D-FIELD         35340021
                                    3749 *                                                                       35350021
 001F00                             3750 R6498  DS      0H                                                       35360021
 001F00 4370 4002      00002        3751        IC    RW2,A6ADRD       REGISTER                                  35370021
 001F04 5470 C004      03694        3752        N     RW2,C6M2                                                   35380021
 001F08 8970 000C      0000C        3753          SLL   RW2,DX12                                                 35390021
 001F0C D502 4004 C08C 00004 0371C  3754          CLC   A6ADRP,C6FFF        ALL F'S IN DICT PTR MEANS      58979 35400021
 001F12 4780 869A      01F22        3755          BC    EQ,R6499            DON'T PRINT IT                 58979 35410021
 001F16 5070 C6FC      03D8C        3756          ST    RW2,RW2SAV          SAVE REGISTER 7                58979 35420021
 001F1A 45E0 86A0      01F28        3757          BAL   RS1,TDNR10          GO DO XREF IF REQUIRED         58979 35430021
 001F1E 5870 C6FC      03D8C        3758          L     RW2,RW2SAV          RESTORE REGISTER 7             58979 35440021
 001F22                             3759 R6499    DS    0H                                                 58979 35450021
 001F22 1B66                        3760        SR    RW1,RW1          DISP = 0                                  35460021
 001F24 47F0 8370      01BF8        3761        BC      UNCOND,R6220 GO TO CREATE BN AND DN                      35470021
-
                                    3763 *                                                                       35490021
                                    3764 *              PRODUCE XREF ELT IF REQUIRED                             35500021
                                    3765 *                                                                       35510021
 001F28                             3766 TDNR10 DS    0H                                                         35520021
 001F28 186E                        3767        LR    RW1,RS1                                                    35530021
 001F2A 9180 91A4      001A4        3768        TM    PHZSW1,XREF           IS XREF OPTION SPECIFIED             35540021
 001F2E 078E                        3769        BCR   ZERO,RS1              NO,RETURN                            35550021
 001F30 9101 D3D5      0416D        3770          TM    QRTNSW,QRTNON       ARE WE PROCESSING QRTNS              35560021
 001F34 071E                        3771          BCR   ONES,RS1             YES, DON'T PRODUCE XREF             35570021
 001F36 95FF D3D9      04171        3772          CLI   RGNSW,RGNINIT       ARE WE PROCESSING INIT CODE          35580021
 001F3A 078E                        3773          BCR   EQ,RS1        YES, DON'T PRODUCE XREF ELEMEMT            35590021
 001F3C 5870 D314      040AC        3774          L     RW2,C6WRK0          SAVE BDDD                            35600021
 001F40 D202 D314 4004 040AC 00004  3775          MVC   C6WRK0(LX3),A6ADRP   GET DICT PTR                        35610021
 001F46 947F D0FA      03E92        3776          NI    XFCDNO,XX7F            TURN OFF HI BIT              0657 35620021
 001F4A 45E0 847A      01D02        3777        BAL   RS1,R63180            WRITE REF ELMNT                      35630021
 001F4E 5070 D314      040AC        3778          ST    RW2,C6WRK0          RESTORE BDDD                         35640021
 001F52 07F6                        3779        BR    RW1                   RETURN                               35650021
1PH60     IKFCBL60                                                                                              PAGE   85
-  LOC  OBJECT CODE    ADDR1 ADDR2  STMT   SOURCE STATEMENT                                       ASM 0201 11.03 02/14/15
0                                   3781 *        FORMAT    //80 NNNNNN //   PLUS ELEMENT                        35670021
                                    3782 *        WHERE    NNNNNN= VALUE TO MODIFY AN ADDR                       35680021
 001F54                             3783 R6500  DS    0H                                                         35690021
 001F54 9200 D314      040AC        3784          MVI   C6WRK0,INITOFF                                           35700021
 001F58 D202 D315 4001 040AD 00001  3785          MVC   C6WRK0+NX1(LX3),A6PLIN INCREMENT TO AREA FOR L           35710021
 001F5E                             3786 R6502  DS    0H                                                         35720021
 001F5E 9180 4001      00001        3787          TM    A6PLIN,HION                                              35730021
 001F62 4780 86E2      01F6A        3788        BC    ZERO,R6505            NO, SKIP                             35740021
 001F66 92FF D314      040AC        3789          MVI   C6WRK0,ALLON        MAKE COMPLEMENT SO SUBTRACT          35750021
 001F6A                             3790 R6505  DS    0H                                                         35760021
 001F6A 5860 D314      040AC        3791        L     RW1,C6WRK0                 FULL INCREMENT                  35770021
 001F6E 1876                        3792        LR    RW2,RW1                                                    35780021
 001F70 9101 D3D3      0416B        3793        TM    S6PLNO,S6WON               SHOULD INCREMENT MODIFY D2      35790021
 001F74 4710 870C      01F94        3794        BC    ONES,R6510                   YES                           35800021
 001F78 4A60 D2EE      04086        3795        AH    RW1,C6D1S                    NO,D1                         35810021
 001F7C 4060 D2EE      04086        3796        STH   RW1,C6D1S                  FOR UPDATED D1                  35820021
                                    3797 *=L    CODING FROM HERE TO NEXT *=L CARD NOT EXECUTED IF NOLIST MOD     35830021
 001F80 5070 D37C      04114        3798        ST    RW2,SB1D1P       FOR SYMBOLIC OPERAND                      35840021
 001F84 4370 D2EC      04084        3799        IC    RW2,C6B1S                                                  35850021
 001F88 5960 C01C      036AC        3800        C     RW1,C6M6                                                   35860021
 001F8C 4720 8732      01FBA        3801        BC    HI,R6520         DISP GREATER THAN 4095                    35870021
                                    3802 *=L                                                                     35880021
 001F90 47F0 826C      01AF4        3803        BC    UNCOND,R6010               PROCESS NEXT ELEMENT            35890021
 001F94 4A60 D2F2      0408A        3804 R6510  AH    RW1,C6D2S                  D2                              35900021
 001F98 4060 D2F2      0408A        3805        STH   RW1,C6D2S                  FOR UPDATED D2                  35910021
                                    3806 *=L    CODING FROM HERE TO NEXT *=L CARD OUT IF NOLIST MODE             35920021
 001F9C 5070 D388      04120        3807        ST    RW2,SB2D2P       FOR SYMBOLIC OPERAND                      35930021
 001FA0 4370 D2F0      04088        3808        IC    RW2,C6B2S                                                  35940021
 001FA4 5960 C01C      036AC        3809        C     RW1,C6M6                                                   35950021
 001FA8 4720 8852      020DA        3810        BC    HI,R6540         DISP GREATER THAN 4095                    35960021
                                    3811 *=L                                                                     35970021
 001FAC 47F0 826C      01AF4        3812        BC    UNCOND,R6010               PROCESS NEXT ELEMENT            35980021
-
0
                                    3814 *      FORMAT //A8//  USE P6PLUS AS PLUS ELT                            36000021
                                    3815 *                                                                       36010021
 001FB0                             3816 R6512  DS    0H                                                         36020021
 001FB0 D203 D314 D16C 040AC 03F04  3817          MVC   C6WRK0(LX4),P6PLUS                                       36030021
 001FB6 47F0 86D6      01F5E        3818        BC    UNCOND,R6502          DO PLUS ELT CODING                   36040021
1PH60     IKFCBL60                                                                                              PAGE   86
-  LOC  OBJECT CODE    ADDR1 ADDR2  STMT   SOURCE STATEMENT                                       ASM 0201 11.03 02/14/15
0                                   3820 *                                                                       36060021
                                    3821 *      DISP GREATER THAN 4095--GENERATE CODING TO ADD 4095 TO           36070021
                                    3822 *                              CONTENTS OF BASE AND SUBTRACT 4095       36080021
                                    3823 *                              FROM DISP FOR THIS INSTR                 36090021
                                    3824 *                            --GET A FREE REG (OR ONE USED IN THIS      36100021
                                    3825 *                              INSTR IF NON-PERM) TO ADJUST             36110021
 001FBA                             3826 R6520  DS    0H                                                         36120021
 001FBA 950E D2EC      04084        3827          CLI   C6B1S,REG14                                              36130021
 001FBE 4740 8810      02098        3828 R6521  BC    LO,R6532              BASE REG LT 14                       36140021
 001FC2 4720 881C      020A4        3829        BC    HI,R6534              BASE REG 15                          36150021
 001FC6 9101 D28C      04024        3830        TM    STAT14,AVAIL5    14 USED HERE BUT MAY BE RESERVED BY P     36160021
 001FCA 4710 8846      020CE        3831        BC    ONES,R6538            R14 AVAIL                            36170021
 001FCE 9602 D28C      04024        3832        OI    STAT14,AVAIL6                                              36180021
 001FD2 4170 000E      0000E        3833          LA    RW2,REG14                                                36190021
 001FD6 D701 D28E D28E 04026 04026  3834        XC    CELL14,CELL14                                              36200021
 001FDC 94EF D28C      04024        3835        NI    STAT14,PGTOFF                                              36210021
 001FE0                             3836 R6522  DS    0H                                                         36220021
 001FE0 4350 D2F0      04088        3837        IC    RW3,C6B2S                                                  36230021
 001FE4 9101 D3D3      0416B        3838        TM    S6PLNO,S6WON          SHOULD INCREMENT MODIFY D2           36240021
 001FE8 4710 8768      01FF0        3839        BC    ONES,R6524            YES                                  36250021
 001FEC 4350 D2EC      04084        3840        IC    RW3,C6B1S                                                  36260021
 001FF0 8950 0004      00004        3841 R6524    SLL   RW3,DX4                                                  36270021
 001FF4 D208 D2F4 D2EA 0408C 04082  3842          MVC   C6INSV(LX9),C6OP                                         36280021
 001FFA D213 D38C D374 04124 0410C  3843          MVC   SBDSAV(LX20),SB1D1C                                      36290021
 002000 D213 D374 C338 0410C 039C8  3844          MVC   SB1D1C(LX20),SBDINI                                      36300021
 002006 4250 D2EB      04083        3845        STC    RW3,C6RS                                                  36310021
 00200A 4270 D2EC      04084        3846        STC   RW2,C6B1S                                                  36320021
 00200E 9241 D2EA      04082        3847          MVI   C6OP,XX41                                                36330021
 002012 D201 D2EE C01E 04086 036AE  3848          MVC   C6D1S(LX2),C6M6+NX2                                      36340021
 002018 58F0 C464      03AF4        3849        L     R15,AS6800                                                 36350021
 00201C 05EF                        3850        BALR  RS1,R15               FORMAT AND PRINT LINE                36360021
 00201E 1B55                        3851        SR    RW3,RW3                                                    36370021
 002020 4350 D2EB      04083        3852        IC    RW3,C6RS                                                   36380021
 002024 8850 0004      00004        3853          SRL   RW3,DX4                                                  36390021
 002028 D208 D2EA D2F4 04082 0408C  3854          MVC   C6OP(LX9),C6INSV                                         36400021
 00202E D213 D374 D38C 0410C 04124  3855          MVC   SB1D1C(LX20),SBDSAV                                      36410021
 002034 9101 D3D3      0416B        3856        TM    S6PLNO,S6WON          SHOULD INCREMENT MODIFY D2           36420021
 002038 4710 87E2      0206A        3857        BC    ONES,R6528            YES                                  36430021
 00203C 4250 D2EC      04084        3858        STC   RW3,C6B1S                                                  36440021
 002040 4860 D2EE      04086        3859        LH    RW1,C6D1S                                                  36450021
 002044 5B60 C01C      036AC        3860        S     RW1,C6M6                                                   36460021
 002048 4060 D2EE      04086        3861        STH   RW1,C6D1S                                                  36470021
 00204C 5860 D37C      04114        3862        L     RW1,SB1D1P                                                 36480021
 002050 5960 C01C      036AC        3863        C     RW1,C6M6                                                   36490021
 002054 4720 87DA      02062        3864        BC    HI,R6526              MORE THAN 4095 SO SUBTACT            36500021
 002058 1B66                        3865        SR    RW1,RW1                                                    36510021
 00205A 5060 D37C      04114        3866 R6525  ST    RW1,SB1D1P                                                 36520021
 00205E 47F0 826C      01AF4        3867        BC    UNCOND,R6010          GET NEXT ELT                         36530021
 002062                             3868 R6526  DS    0H                                                         36540021
 002062 5B60 C01C      036AC        3869        S     RW1,C6M6              SUBTRACT 4095 FROM DISPLACEMNT       36550021
 002066 47F0 87D2      0205A        3870        BC    UNCOND,R6525          GO SAVE AND EXIT                     36560021
 00206A                             3871 R6528  DS    0H                                                         36570021
 00206A 4250 D2F0      04088        3872        STC   RW3,C6B2S                                                  36580021
 00206E 4860 D2F2      0408A        3873        LH    RW1,C6D2S                                                  36590021
 002072 5B60 C01C      036AC        3874        S     RW1,C6M6                                                   36600021
1PH60     IKFCBL60                                                                                              PAGE   87
-  LOC  OBJECT CODE    ADDR1 ADDR2  STMT   SOURCE STATEMENT                                       ASM 0201 11.03 02/14/15
0002076 4060 D2F2      0408A        3875        STH   RW1,C6D2S                                                  36610021
 00207A 5860 D388      04120        3876        L     RW1,SB2D2P                                                 36620021
 00207E 5960 C01C      036AC        3877        C     RW1,C6M6                                                   36630021
 002082 4720 8808      02090        3878        BC    HI,R6530              MORE THAN 4095 SO SUBTACT            36640021
 002086 1B66                        3879        SR    RW1,RW1                                                    36650021
 002088 5060 D388      04120        3880 R6529  ST    RW1,SB2D2P                                                 36660021
 00208C 47F0 826C      01AF4        3881        BC    UNCOND,R6010          GET NEXT ELT                         36670021
 002090 5B60 C01C      036AC        3882 R6530  S     RW1,C6M6              SUBTRACT 4095 FROM DISPLACEMNT       36680021
 002094 47F0 8800      02088        3883        BC    UNCOND,R6529          GO SAVE AND EXIT                     36690021
 002098                             3884 R6532  DS    0H                                                         36700021
 002098 9103 D28C      04024        3885        TM    STAT14,AVL56                                               36710021
 00209C 4780 883A      020C2        3886        BC    ZERO,R6537            GO MARK AVAIL R14                    36720021
 0020A0 47F0 8846      020CE        3887        BC    UNCOND,R6539          GO MARK AVAIL R15                    36730021
 0020A4                             3888 R6534  DS    0H                                                         36740021
 0020A4 9101 D290      04028        3889        TM    STAT15,AVAIL5                                              36750021
 0020A8 4710 883A      020C2        3890        BC    ONES,R6536            R15 IS AVAIL                         36760021
 0020AC                             3891 R6534A DS    0H                                                         36770021
 0020AC 9602 D290      04028        3892        OI    STAT15,AVAIL6                                              36780021
 0020B0 4170 000F      0000F        3893          LA    RW2,REG15                                                36790021
 0020B4 D701 D292 D292 0402A 0402A  3894        XC    CELL15,CELL15                                              36800021
 0020BA 94EF D290      04028        3895        NI    STAT15,PGTOFF                                              36810021
 0020BE 47F0 8758      01FE0        3896        BC    UNCOND,R6522          CONTINUE WITH CODING                 36820021
 0020C2                             3897 R6536  DS    0H                                                         36830021
 0020C2 4150 000E      0000E        3898 R6537    LA    RW3,REG14                                                36840021
 0020C6 9602 D28C      04024        3899        OI    STAT14,AVAIL6                                              36850021
 0020CA 47F0 8768      01FF0        3900        BC    UNCOND,R6524          CONTINUE WITH CODING                 36860021
 0020CE                             3901 R6538  DS    0H                                                         36870021
 0020CE 4150 000F      0000F        3902 R6539    LA    RW3,REG15                                                36880021
 0020D2 9602 D290      04028        3903        OI    STAT15,AVAIL6                                              36890021
 0020D6 47F0 8768      01FF0        3904        BC    UNCOND,R6524          CONTINUE WITH CODING                 36900021
                                    3905 *                                                                       36910021
 0020DA 950E D2F0      04088        3906 R6540    CLI   C6B2S,REG14                                              36920021
 0020DE 47F0 8736      01FBE        3907        BC    UNCOND,R6521          ALTERNATE ENTRY TO R6520             36930021
-
0
                                    3909 *      GET GLOBAL TABLE OVERFLOW CELL                                   36950021
                                    3910 *                                                                       36960021
 0020E2                             3911 R6600  DS    0H                                                         36970021
 0020E2 9400 D3D2      0416A        3912          NI    BDNUM,BDNUM1        PROCESSING B1 D1                     36980021
 0020E6 47F0 8866      020EE        3913          BC    UNCOND,R6602        SKIP SETTING ON BDNUM                36990021
 0020EA 96FF D3D2      0416A        3914 R6601    OI    BDNUM,BDNUM2        PROCESSING B2 D2                     37000021
                             020EE  3915 R6602  EQU   *                                                          37010021
 0020EE 58F0 C500      03B90        3916        L     R15,AGLDOV                                                 37020021
 0020F2 05EF                        3917        BALR  RS1,R15               GEN LOAD GLOBAL TBL OVERFLOW C       37030021
 0020F4 47F0 826C      01AF4        3918          BC    UNCOND,R6010        GET NEXT ELT                         37040021
0
                                    3920 *        FORMAT  //68 NNNN //   LITERAL REFERENCE                       37060021
                                    3921 *        WHERE  NNNN= LITERAL NUMBER                                    37070021
                                    3922 *      TO PROCESS LITERAL REFERENCE, GET DISP FOR THIS LITERAL          37080021
                                    3923 *    AND USE R12 AS A BASE. LTL=N IS CALLED LITERAL REFERENCE NO.  LITS 37090021
                                    3924 *                                                                       37100021
1PH60     IKFCBL60                                                                                              PAGE   88
-  LOC  OBJECT CODE    ADDR1 ADDR2  STMT   SOURCE STATEMENT                                       ASM 0201 11.03 02/14/15
00020F8                             3925 LTLPRO DS    0H                                                         37110021
 0020F8 9680 D3D8      04170        3926        OI    GTOVFL,PGTR                                                37120021
 0020FC 9500 D3D4      0416C        3927          CLI   VIRTSW,INITOFF      HAS VIRTBL BEEN MADE(NOT KILLD       37130021
 002100 4780 8886      0210E        3928        BC    EQ,R6554              THERE IS A LTLTBL                    37140021
 002104 4860 9164      00164        3929        LH    RW1,LTLCTR                                                 37150021
 002108 1B55                        3930        SR    RW3,RW3                                                    37160021
 00210A 47F0 88AE      02136        3931        BC    UNCOND,R6556          SET UP SYMBOLIC OPERANDS             37170021
 00210E                             3932 R6554  DS    0H                                                         37180021
 00210E 5810 C690      03D20        3933        L     R1,ALTLTB                                                  37190021
 002112 58F0 C4AC      03B3C        3934        L     R15,ATABLE                                                 37200021
 002116 05EF                        3935        BALR  RS1,R15               GET TABLE ADDR AND SIZE              37210021
 002118 D201 D06E 4001 03E06 00001  3936          MVC   LTRFCT,A6LTLR      GET LITERAL NO.                  LITS 37220021
 00211E 4870 D06E      03E06        3937          LH    RW2,LTRFCT          GET LITERAL NO.                 LITS 37230021
 002122 0670                        3938          BCTR  RW2,R0              DECREMENT LIT # FOR INDEXING         37240021
 002124 8970 0001      00001        3939          SLL   RW2,DX1         * 2 FOR INDEX VALUE                      37250021
 002128 4867 1000      00000        3940          LH    RW1,DX0(RW2,R1)                                          37260021
 00212C 5460 D078      03E10        3941          N     RW1,HWFS                MASK OUT HI ORDER 16 BITS  53557 37270021
 002130 1856                        3942        LR    RW3,RW1                                                    37280021
 002132 4B50 9164      00164        3943        SH    RW3,LTLCTR                                                 37290021
                                    3944 *                                                                       37300021
                                    3945 *      SET UP SYMBOLIC OPERANDS                                         37310021
 002136                             3946 R6556  DS    0H                                                         37320021
 002136 5870 C3E8      03A78        3947        L     RW2,XLITC                                                  37330021
 00213A 47F0 8492      01D1A        3948        BC    UNCOND,R6318          SET UP BDISP                         37340021
-
0
                                    3950 *        FORMAT  //58 NNNN//     VIRREF ELEMENT                         37360021
 00213E                             3951 R6700  DS    0H                       WHERE NN=VIR NUMBER               37370021
 00213E 9680 D3D8      04170        3952        OI    GTOVFL,PGTR                                                37380021
 002142 9500 D3D4      0416C        3953          CLI   VIRTSW,INITOFF      HAS VIRTBL BEEN MADE(NOT KILLD       37390021
 002146 4780 88CA      02152        3954        BC    EQ,R6710              THERE IS A LTLTBL                    37400021
 00214A 4860 9162      00162        3955        LH    RW1,VIRCTR                                                 37410021
 00214E 47F0 895C      021E4        3956        BC    UNCOND,R6725          SET UP SYMBOLIC OPERANDS             37420021
 002152                             3957 R6710  DS    0H                                                         37430021
 002152 D201 D314 4001 040AC 00001  3958          MVC   C6WRK0(LX2),A6VIRN                                       37440021
 002158 4870 D314      040AC        3959        LH    RW2,C6WRK0       GET REFERENCE NUMBER                      37450021
 00215C 0670                        3960        BCTR  RW2,R0                SUBTRACT 1                           37460021
 00215E 8970 0001      00001        3961          SLL   RW2,DX1         INDEX VALUE                              37470021
 002162 5810 C698      03D28        3962        L     R1,AVIRPT                                                  37480021
 002166 58F0 C4AC      03B3C        3963        L     R15,ATABLE                                                 37490021
 00216A 05EF                        3964        BALR  RS1,R15               GET TABLE ADDR AND SIZE              37500021
 00216C 4167 1000      00000        3965          LA    RW1,DX0(RW2,R1)                                          37510021
 002170 4870 9162      00162        3966        LH    RW2,VIRCTR       DISP OF VIRTUALS                          37520021
 002174 4856 0000      00000        3967          LH    RW3,DX0(RW1)    DISP IN TABLE                            37530021
 002178 5450 C024      036B4        3968        N     RW3,C15BIT                                                 37540021
 00217C 5810 C6A8      03D38        3969        L     R1,ALVIRT                                                  37550021
 002180 9180 6000      00000        3970          TM    DX0(RW1),HION                                            37560021
 002184 4780 8908      02190        3971        BC    ZERO,R6722       LINK TYPE                                 37570021
 002188 4A70 D064      03DFC        3972        AH    RW2,LNGLNK                                                 37580021
 00218C 5810 C6A0      03D30        3973        L     R1,ACVIRT                                                  37590021
 002190 58F0 C4AC      03B3C        3974 R6722  L     R15,ATABLE                                                 37600021
 002194 05EF                        3975        BALR  RS1,R15               GET TABLE ADDR AND SIZE              37610021
1PH60     IKFCBL60                                                                                              PAGE   89
-  LOC  OBJECT CODE    ADDR1 ADDR2  STMT   SOURCE STATEMENT                                       ASM 0201 11.03 02/14/15
0002196 1A15                        3976        AR    R1,RW3            LOC OF BCD                               37620021
 002198 9180 6000      00000        3977          TM    DX0(RW1),HION                                            37630021
 00219C 4780 891C      021A4        3978        BC    ZERO,R6723            LINK TYPE                            37640021
 0021A0 8850 0001      00001        3979          SRL   RW3,DX1                                                  37650021
 0021A4 4165 7000      00000        3980 R6723    LA    RW1,DX0(RW3,RW2) DISP FROM PGT START                     37660021
 0021A8 9240 D314      040AC        3981          MVI   C6WRK0,BLANK                                             37670021
 0021AC 5870 D314      040AC        3982        L     RW2,C6WRK0       NO SYMBOLICS FOR 'S6800'                  37680021
 0021B0 9101 D3D1      04169        3983        TM    S6BNO,S6WON                                                37690021
 0021B4 4710 8946      021CE        3984        BC    ONES,R6724            B1 HAS BEEN INITIALIZED              37700021
 0021B8 D207 D7D2 1000 0456A 00000  3985          MVC   OU6SO1+NX2(LX8),DX0(R1)                                  37710021
 0021BE 92E5 D7D0      04568        3986          MVI   OU6SO1,VEE                                               37720021
 0021C2 924D D7D1      04569        3987          MVI   OU6SO1+NX1,LFTPAREN                                      37730021
 0021C6 925D D7DA      04572        3988          MVI   OU6SO1+NX10,RTPAREN                                      37740021
 0021CA 47F0 8492      01D1A        3989          BC    UNCOND,R6318        CONTINUE WITH BDISP CODING           37750021
 0021CE D207 D7E2 1000 0457A 00000  3990 R6724    MVC   OU6SO2+NX2(LX8),DX0(R1)                                  37760021
 0021D4 92E5 D7E0      04578        3991          MVI   OU6SO2,VEE                                               37770021
 0021D8 924D D7E1      04579        3992          MVI   OU6SO2+NX1,LFTPAREN                                      37780021
 0021DC 925D D7EA      04582        3993          MVI   OU6SO2+NX10,RTPAREN                                      37790021
 0021E0 47F0 8492      01D1A        3994          BC    UNCOND,R6318        CONTINUE WITH BDISP CODING           37800021
                                    3995 *      SET UP SYMBOLIC OPERANDS                                         37810021
 0021E4                             3996 R6725  DS    0H                                                         37820021
 0021E4 5870 C3EC      03A7C        3997        L     RW2,XVIRC                                                  37830021
 0021E8 4150 0001      00001        3998          LA    RW3,ONEBYTE                                              37840021
 0021EC 47F0 8492      01D1A        3999        BC    UNCOND,R6318          CONTINUE WITH BDISP CODING           37850021
-
0
                                    4001 *        FORMAT  //60 TT DD //   GTREF1 ELEMENT                         37870021
                                    4002 *       WHERE TT= TYPE CODE; DD= DISP IN BYTES FROM SPECIFIED AREA      37880021
 0021F0                             4003 R6750  DS    0H                                                         37890021
 0021F0 1B66                        4004        SR    RW1,RW1                                                    37900021
 0021F2 4360 4002      00002        4005        IC    RW1,A6GT1D     DISP IN BYTES                               37910021
 0021F6 1B77                        4006        SR    RW2,RW2                                                    37920021
 0021F8 4370 4001      00001        4007        IC    RW2,A6GT1C     KIND OF CELL                                37930021
 0021FC 4A67 D8DE      04676        4008          AH    RW1,GT1KND-NX2(RW2)  DISP(CONSTANT)                      37940021
                                    4009 *=L    CODING FROM HERE TO NEXT *=L CARD OUT IF NOLIST MODE             37950021
                                    4010 *      SET UP SYMBOLIC OPERANDS                                         37960021
 002200 8970 0001      00001        4011          SLL   RW2,DX1                                                  37970021
 002204 5A70 C4B4      03B44        4012        A       RW2,AXGT1C                                               37980021
 002208 9101 D3D1      04169        4013        TM    S6BNO,S6WON                                                37990021
 00220C 4710 8998      02220        4014        BC      ONES,R6760          B1 HAS BEEN INITIALIZED              38000021
 002210 D200 D37B 4002 04113 00002  4015          MVC   SB1D1N+NX3(LX1),A6GT1D                                   38010021
 002216 D203 D374 7000 0410C 00000  4016          MVC   SB1D1C(LX4),DX0(RW2)                                     38020021
 00221C 47F0 83FC      01C84        4017        BC      UNCOND,R6270 GO TO SET REG 13 AS BASE                    38030021
 002220 D200 D387 4002 0411F 00002  4018 R6760    MVC   SB2D2N+NX3(LX1),A6GT1D                                   38040021
 002226 D203 D380 7000 04118 00000  4019          MVC   SB2D2C(LX4),DX0(RW2)                                     38050021
                                    4020 *=L                                                                     38060021
 00222C 47F0 83FC      01C84        4021        BC    UNCOND,R6270   GO TO SET REG 13 AS B                       38070021
1PH60     IKFCBL60                                                                                              PAGE   90
-  LOC  OBJECT CODE    ADDR1 ADDR2  STMT   SOURCE STATEMENT                                       ASM 0201 11.03 02/14/15
0                                   4023 *        FORMAT  //64  TT  NN //  GTREF2 ELEMENT                        38090021
                                    4024 *       WHERE TT= TYPE CODE; NN= IDENTIFYING NUMBER                     38100021
                                    4025 *      SET UP SYMBOLIC OPERANDS                                         38110021
 002230                             4026 R6800  DS    0H                                                         38120021
 002230 1B77                        4027        SR      RW2,RW2                                                  38130021
 002232 4370 4001      00001        4028        IC      RW2,A6GT2C                                               38140021
 002236 1857                        4029        LR    RW3,RW2                                                    38150021
 002238 5A70 C4B8      03B48        4030        A       RW2,AXGT2C                                               38160021
 00223C 9101 D3D1      04169        4031        TM    S6BNO,S6WON                                                38170021
 002240 4710 89CC      02254        4032        BC      ONES,R6800B         B1 HAS BEEN INITIALIZED              38180021
 002244 D203 D374 7000 0410C 00000  4033          MVC   SB1D1C(LX4),DX0(RW2)                                     38190021
 00224A D201 D37A 4002 04112 00002  4034          MVC   SB1D1N+NX2(LX2),A6GT2N                                   38200021
 002250 47F0 89D8      02260        4035        BC      UNCOND,R6800D       JUST INIT B1                         38210021
 002254 D203 D380 7000 04118 00000  4036 R6800B   MVC   SB2D2C(LX4),DX0(RW2)                                     38220021
 00225A D201 D386 4002 0411E 00002  4037          MVC   SB2D2N+NX2(LX2),A6GT2N                                   38230021
                                    4038 *=L                                                                     38240021
 002260                             4039 R6800D DS      0H                                                       38250021
 002260 D201 D314 4002 040AC 00002  4040          MVC   C6WRK0(LX2),A6GT2N  NUMBER OF CELL                       38260021
 002266 4860 D314      040AC        4041        LH    RW1,C6WRK0                                                 38270021
 00226A 0660                        4042        BCTR  RW1,R0                SUBTRACT 1                           38280021
                                    4043 *                                                                       38290021
                                    4044 *                                                                       38300021
                                    4045 *      FOR EACH TYPE OF GT2REF DISP= (NO OF CELL -1)* LENGTH OF CEL     38310021
                                    4046 *      DISP=(NO OF CELL - 1)*(LENGTH OF CELL) + START OF GROUP          38320021
                                    4047 *      BASE=R13 EXCEPT IF DCBADR CELL                                   38330021
                                    4048 *           R12 IF DCBADR CELL                                          38340021
                                    4049 *                                                                       38350021
 00226C 1B11                        4050        SR    R1,R1                                                      38360021
 00226E 1875                        4051        LR    RW2,RW3                                                    38370021
 002270 8870 0002      00002        4052          SRL   RW2,DX2                                                  38380021
 002274 4317 8A2A      022B2        4053        IC    R1,R6804(RW2)   GET NO OF BYTES TO SHIFT                   38390021
 002278 4400 8A26      022AE        4054        EX    R0,R6802          EX SHIFT (MULT) INSTR                    38400021
 00227C 4405 C5F0      03C80        4055        EX    R0,R6806(RW3)                                              38410021
 002280 9680 D3D8      04170        4056        OI    GTOVFL,PGTR                                                38420021
 002284 9500 4001      00001        4057        CLI   A6GT2C,DCB                                                 38430021
 002288 4780 84B4      01D3C        4058        BC    EQ,R6315         GO TO INSERT R 12 FOR BASE                38440021
 00228C 9240 D3D8      04170        4059        MVI   GTOVFL,TSGTR                                               38450021
 002290 955C 4001      00001        4060          CLI   A6GT2C,XX5C        IS IT INDX                      8953  38460021
 002294 4770 83FC      01C84        4061          BC    NOTEQ,R6272          GO TO USE R13 AS BASE         8953  38470021
 002298 58F0 C458      03AE8        4062          L     R15,AGET                                           8953  38480021
 00229C 05EF                        4063          BALR  RS1,R15           GET B4 ELT                       8953  38490021
 00229E 900F D334      040CC        4064          STM   R0,R15,SAVEXR               SAVE REGS              8953  38500021
 0022A2 45E0 A404      02C8C        4065          BAL   RS1,MAC066A        DO XREF FOR INDX NM             8953  38510021
 0022A6 980F D334      040CC        4066          LM    R0,R15,SAVEXR            RESTORE REGS              8953  38520021
 0022AA 47F0 83FC      01C84        4067          BC    UNCOND,R6272        GO USE R13 AS BASE             8953  38530021
 0022AE 8960 1000      00000        4068 R6802    SLL   RW1,DX0(R1)                                              38540021
 0022B2 0201020202020002            4069 R6804  DC    X'0201020202020002'        NO. BYTES TO SHIFT              38550021
 0022BA 0000000200020100            4070        DC    X'0000000200020100'                                        38560021
 0022C2 0202020202000002            4071          DC    X'0202020202000002'                                      38570021
 0022CA 02                          4072        DC    X'02'                                                      38580021
                                    4073 *                                                                       38590021
                                    4074 *                                                                       38600021
1PH60     IKFCBL60                                                                                              PAGE   91
-  LOC  OBJECT CODE    ADDR1 ADDR2  STMT   SOURCE STATEMENT                                       ASM 0201 11.03 02/14/15
0                                   4076 *=1  END OF FILE ON F3                                                  38620021
 0022CC                             4077 ENDF3  DS    0H                                                         38630021
 0022CC 95FF 91D0      001D0        4078          CLI   SEGLMT,NOTSEGTD     IS PROGRAM SEGMENTED                 38640021
 0022D0 4780 8A5A      022E2        4079          BC    EQ,EOFNOS           NO, BRANCH                           38650021
 0022D4 9500 D0FE      03E96        4080          CLI   CURPTY,XX00          HAS EOF BEEN REACHED IN ROOT        38660021
 0022D8 4780 8A5A      022E2        4081          BC    EQ,EOFNOS           YES, BRANCH                          38670021
 0022DC 58F0 C56C      03BFC        4082        L     R15,ASEGBR            GET ADDR OF SEGM CTRL RTN            38680021
 0022E0 07FF                        4083        BR    R15                   RESTURN BACK TO SEGMENTATION COD     38690021
 0022E2                             4084 EOFNOS DS    0H                                                         38700021
 0022E2 9500 D2EA      04082        4085          CLI   C6OP,NOPOPCD                                             38710021
 0022E6 4780 8A68      022F0        4086        BC    EQ,NOPRT              THIS IS A CNOP, GO PROCESS           38720021
 0022EA 58F0 C464      03AF4        4087        L     R15,AS6800                                                 38730021
 0022EE 05EF                        4088        BALR  RS1,R15               GO FORMAT AND PRINT LINE             38740021
                             022F0  4089 NOPRT  EQU   *                                                          38750021
                                    4090 *=L    CODING FROM HERE TO NEXT *=L CARD OUT IF NOLIST MODE             38760021
 0022F0 9540 D785      0451D        4091          CLI   OU6LST,NOLIST       ANY LISTING TEXT LEFT IN LINE        38770021
 0022F4 4780 A63C      02EC4        4092        BC    EQ,ENDPTX             NO                                   38780021
 0022F8 58F0 C460      03AF0        4093        L     R15,APUT                                                   38790021
 0022FC 05EF                        4094        BALR  RS1,R15               PRINT LAST OF LISTING IN LINE        38800021
                                    4095 *=L                                                                     38810021
 0022FE 47F0 A63C      02EC4        4096        BC    UNCOND,ENDPTX         GO TO EOF FOR PROC A-TEXT            38820021
1PH60     IKFCBL60                                                                                              PAGE   92
-  LOC  OBJECT CODE    ADDR1 ADDR2  STMT   SOURCE STATEMENT                                       ASM 0201 11.03 02/14/15
0002302                             4098 ERR040   DS    0H             LOGIC                                     38840021
                             02302  4099 ERR080   EQU   *              ERROR                                     38850021
                             02302  4100 ERR110   EQU   *              DISCOVERED IN                             38860021
                             02302  4101 ERR250   EQU   *              PHASE 6                                   38870021
 002302 92FF C522      03BB2        4102          MVI   P6ESW,ALLON                                              38880021
 002306 9240 D77C      04514        4103          MVI   OU6REC,BLANK                                             38890021
 00230A D276 D77D D77C 04515 04514  4104          MVC   OU6CDN(LX119),OU6REC                                     38900021
 002310 58F0 C460      03AF0        4105          L     R15,APUT                                                 38910021
 002314 58E0 C498      03B28        4106          L     RS1,APUTM                                                38920021
 002318 05EE                        4107          BALR  RS1,RS1            PRINT BLANK LINE                      38930021
                                    4108 *                                                                       38940021
 00231A D23F D77D C102 04515 03792  4109          MVC   OU6CDN(LX64),MSGABA                                      38950021
 002320 58E0 C498      03B28        4110          L     RS1,APUTM                                                38960021
 002324 58F0 C460      03AF0        4111          L     R15,APUT                                                 38970021
 002328 05EE                        4112          BALR  RS1,RS1             PRINT MESSAGE                        38980021
 00232A 05EE                        4113          BALR  RS1,RS1            PRINT BLANK LINE                      38990021
 00232C 9602 9182      00182        4114          OI    SWITCH,NO6A              DON'T CALL 6A                   39000021
 002330 5880 C4F8      03B88        4115          L     RB1,ARB1B       SET UP BASE REG 8                  56990 39010021
 002334 9102 91A4      001A4        4116          TM    PHZSW1,MAPSP        MAP SUPPRESS                         39020021
 002338 4780 8ABC      02344        4117          BC    ZERO,ER6010         NO                                   39030021
 00233C 5880 C700      03D90        4118          L     RB1,AFIRST                                               39040021
                             0002E  4119          USING FIRST,RB1                                                39050021
 002340 47F0 80AC      000DA        4120          BC    UNCOND,MSGMS        PRINT MAP SUPPRESSIMSG & STATS.      39060021
 002344                             4121 ER6010   DS    0H                                                       39070021
 002344 58F0 C510      03BA0        4122          L     R15,APRSTAT         PRINT STATISTICS                     39080021
 002348 05EF                        4123          BALR  RS1,R15             GO PRINT STATISTICS                  39090021
 00234A                             4124 ER6000   DS    0H                                                       39100021
 00234A 5880 C700      03D90        4125          L     RB1,AFIRST                                               39110021
                             0002E  4126          USING FIRST,RB1                                                39120021
 00234E 47F0 805E      0008C        4127          BC    UNCOND,NOOPTST      RETURN TO PH0                        39130021
                                    4128          DROP  RB1                                                      39140021
                             01888  4129          USING RB1BAS,RB1                                               39150021
1PH60     IKFCBL60                                                                                              PAGE   93
-  LOC  OBJECT CODE    ADDR1 ADDR2  STMT   SOURCE STATEMENT                                       ASM 0201 11.03 02/14/15
0                                   4131 *=1    FOR PNDEF, CREATE AN RLDTBL ENTRY                                39170021
                                    4132 *        FORMAT   //30 PP NNNN //                                       39180021
                                    4133 *        WHERE    PP=PRIORITY NUMBER OF SEG IN WHICH PN LOCATED         39190021
                                    4134 *                 NNNN= PN NUMBER                                       39200021
 002352                             4135 PNDEFR DS    0H                                                         39210021
 002352 9500 4001      00001        4136          CLI   A6PNPR,INITOFF      IS THIS PN FOR ROOT SEGM             39220021
 002356 4770 8AE4      0236C        4137          BC    NOTEQ,PNDEF1        NO, BRANCH                           39230021
 00235A 9500 D0FF      03E97        4138          CLI   FSTPND,INITOFF      IS THIS 1ST PN IN ROOT SEGMENT       39240021
 00235E 4770 8AE4      0236C        4139          BC    NOTEQ,PNDEF1        NO, BRANCH                           39250021
 002362 D201 D100 4002 03E98 00002  4140          MVC   ROOTPN(LX2),A6PNNO  YES,SAVE PN NO.                      39260021
 002368 92FF D0FF      03E97        4141          MVI   FSTPND,ALLON        RESET FIRST PN SWITCH                39270021
                             0236C  4142 PNDEF1 EQU   *                                                          39280021
 00236C 45E0 8B6C      023F4        4143        BAL   RS1,PNCLTP           CLEAR TEMP REGISTER ASSIGNMENTS       39290021
 002370 D201 D314 4002 040AC 00002  4144          MVC   C6WRK0(LX2),A6PNNO                                       39300021
 002376 4860 D314      040AC        4145        LH    RW1,C6WRK0                                                 39310021
 00237A 58F0 C4F0      03B80        4146        L     R15,AGETPN                                                 39320021
 00237E 05EF                        4147        BALR  RS1,R15            RW1=DISP IN PGT                         39330021
 002380 4780 8240      01AC8        4148        BC    ZERO,SE6080           GET NEXT ELEMENT                     39340021
 002384 92D7 D7AB      04543        4149          MVI   OU6NAM,PEE                                               39350021
 002388                             4150 PN000  DS    0H                                                         39360021
                                    4151 *      GET RLDTBL ENTRY FROM TAMER                                      39370021
 002388 45E0 8014      0189C        4152          BAL   RS1,RLDRTE          GET ADDRESS FOR INSERT IN RLDTBL     39380021
 00238C 5A60 D048      03DE0        4153        A     RW1,LOCPGT                                                 39390021
 002390 5060 D314      040AC        4154        ST    RW1,C6WRK0     TARGET ADDR                                 39400021
 002394 D202 2001 D315 00001 040AD  4155          MVC   TARG(LX3,R2),C6WRK0+NX1                                  39410021
 00239A D200 2004 D0FE 00004 03E96  4156          MVC   RELC4(LX1,R2),CURPTY GET PRIORITY NUMBER                 39420021
 0023A0 D202 2005 9149 00005 00149  4157          MVC   RELC(LX3,R2),LOCCTR+NX1 GET RELATIVE ADDR VALUE          39430021
 0023A6 9294 2000      00000        4158          MVI   DX0(R2),NTYP          PN-GN TYPE                         39440021
                             023AA  4159 PN010  EQU   *                                                          39450021
 0023AA 9140 91A3      001A3        4160        TM    PHZSW,NOLIST                                               39460021
 0023AE 4780 8240      01AC8        4161        BC    ZERO,SE6080           NOLIST, SO GET NEXT ELT              39470021
                                    4162 *=L    CODING FROM HERE TO NEXT *=L CARD OUT IF NOLIST MODE             39480021
 0023B2 D202 D7AC 8B66 04544 023EE  4163          MVC   OU6NAM+NX1(LX3),PNMSG                                    39490021
 0023B8 1865                        4164        LR    RW1,RW3                                                    39500021
 0023BA 58F0 C468      03AF8        4165        L     R15,AS6200                                                 39510021
                             04A5E  4166        USING S6200,R15                                                  39520021
 0023BE 45E0 F004      04A62        4167        BAL   RS1,S6210             CONVERT                              39530021
 0023C2 D200 D7AF D31B 04547 040B3  4168          MVC   OU6NAM+NX4(LX0),C6WRK4 EX BY SUBR-PN OR GN NUMBER        39540021
                                    4169        DROP  R15                                                        39550021
 0023C8 D202 D7B4 8B69 0454C 023F1  4170          MVC   OU6OPN(LX3),PNEQU                                        39560021
 0023CE 925C D7BA      04552        4171          MVI   OU6OPD,ASTER                                             39570021
 0023D2 D203 D314 9148 040AC 00148  4172          MVC   C6WRK0(LX4),LOCCTR LOCATION CTR TO LISTING LINE          39580021
 0023D8 58F0 C474      03B04        4173        L     R15,AS6010                                                 39590021
 0023DC 05EF                        4174        BALR  RS1,R15               CONVERT                              39600021
 0023DE D205 D790 D31A 04528 040B2  4175          MVC   OU6LC(LX6),C6WRK3                                        39610021
 0023E4 58F0 C460      03AF0        4176        L     R15,APUT                                                   39620021
 0023E8 05EF                        4177        BALR  RS1,R15               PRINT LINE                           39630021
                                    4178 *=L                                                                     39640021
 0023EA 47F0 8240      01AC8        4179        BC    UNCOND,SE6080         GET NEXT ELT                         39650021
 0023EE D57EF0                      4180 PNMSG  DC    C'N=0'                                                     39660021
 0023F1 C5D8E4                      4181 PNEQU  DC    C'EQU'                                                     39670021
 0023F4                             4182 PNCLTP DS    0H                                                         39680021
 0023F4 1B00                        4183        SR    R0,R0                CLEAR TEMPORARY REGISTER              39690021
 0023F6 4000 D28E      04026        4184        STH   R0,CELL14            REGISTER ASSIGNMENTS                  39700021
 0023FA 4000 D292      0402A        4185        STH   R0,CELL15                                                  39710021
1PH60     IKFCBL60                                                                                              PAGE   94
-  LOC  OBJECT CODE    ADDR1 ADDR2  STMT   SOURCE STATEMENT                                       ASM 0201 11.03 02/14/15
00023FE 94EF D28C      04024        4186        NI    STAT14,PGTOFF                                              39720021
 002402 94EF D290      04028        4187        NI    STAT15,PGTOFF                                              39730021
 002406 07FE                        4188          BCR   R15,RS1                RETURN                            39740021
1PH60     IKFCBL60                                                                                              PAGE   95
-  LOC  OBJECT CODE    ADDR1 ADDR2  STMT   SOURCE STATEMENT                                       ASM 0201 11.03 02/14/15
0                                   4190 *=1    FOR GNDEF CREATE AN RLDTBL ENTRY                                 39760021
                                    4191 *        FORMAT  //34 NNNN //                                           39770021
                                    4192 *        WHERE    NNNN=  GN NUMBER                                      39780021
                                    4193 *                                                                       39790021
 002408                             4194 GNDEFR DS    0H                                                         39800021
 002408 D201 D314 4001 040AC 00001  4195          MVC   C6WRK0(LX2),A6GNNO                                       39810021
 00240E 4860 D314      040AC        4196        LH    RW1,C6WRK0                                                 39820021
 002412 58F0 C4F0      03B80        4197        L     R15,AGETPN                                                 39830021
                             051BE  4198        USING GETPN,R15                                                  39840021
 002416 45E0 F038      051F6        4199        BAL   RS1,GETGN             GET GN NUMBER                        39850021
                                    4200        DROP  R15                                                        39860021
 00241A 4B50 91C0      001C0        4201        SH    RW3,RGNCTR                                                 39870021
 00241E 47D0 8240      01AC8        4202        BC    NOTPOS,SE6080         GET NEXT ELT                         39880021
 002422 92C7 D7AB      04543        4203          MVI   OU6NAM,GEE                                               39890021
 002426 45E0 8B6C      023F4        4204        BAL   RS1,PNCLTP           CLEAR TEMP REGISTER ASSIGNMENTS       39900021
 00242A 47F0 8B00      02388        4205        BC    UNCOND,PN000   GO TO PROCESS LIKE PN                       39910021
1PH60     IKFCBL60                                                                                              PAGE   96
-  LOC  OBJECT CODE    ADDR1 ADDR2  STMT   SOURCE STATEMENT                                       ASM 0201 11.03 02/14/15
0                                   4207 *                                                                       39930021
                                    4208 *=1    FOR VNDEF CREATE INDIRECT RLDTBL ENTRY FROM IT AND               39940021
                                    4209 *      PNREF OR GNREF FOLLOWING                                         39950021
                                    4210 *                                                                       39960021
                                    4211 *      FORMAT  //38 PP NNNN//                                           39970021
                                    4212 *      WHERE   PP=PRIORITY NUMBER, NNNN=VN NUMBER                       39980021
                                    4213 *                                                                       39990021
 00242E                             4214        DS    0H                                                         40000021
                             0242E  4215 VNDEFR EQU   *                                                          40010021
                                    4216 *                                                                       40020021
 00242E D201 D074 4002 03E0C 00002  4217          MVC   SAVVNO(LX2),A6VNNO   SAVE VN NUMBER                      40030021
 002434 D200 D103 4001 03E9B 00001  4218          MVC   SAVPTY(LX1),A6VNPR   GET PRIORITY                        40040021
 00243A D200 D104 4001 03E9C 00001  4219          MVC   SAVPTY1(LX1),A6VNPR     SAVE PTY IF VNDEF EQU GNREF      40050021
 002440 9480 D103      03E9B        4220          NI    SAVPTY,HION         SAVE SWITCH                          40060021
 002444 58F0 C458      03AE8        4221        L     R15,AGET              GET GET-RTN ADDRESS                  40070021
 002448 05EF                        4222        BALR  RS1,R15               READ EQU MACRO THAT FOLLOWS          40080021
                                    4223 *                                                                       40090021
                                    4224 *                                                                       40100021
 00244A 58F0 C458      03AE8        4225        L     R15,AGET                                                   40110021
 00244E 05EF                        4226          BALR  RS1,R15            READ PN OR GN REF FOLLOWING           40120021
                             02450  4227 VNDEF1 EQU   *                                                          40130021
 002450 58F0 C4F0      03B80        4228        L     R15,AGETPN                                                 40140021
 002454 952C D308      040A0        4229        CLI   GOTCOD,GNREF                                               40150021
 002458 4780 8BE4      0246C        4230        BC    EQ,VNDFA              THIS IS A GNREF                      40160021
 00245C D201 D076 4002 03E0E 00002  4231          MVC   SAVPNO(LX2),A6PNNO                                       40170021
 002462 4860 D076      03E0E        4232          LH    RW1,SAVPNO          GET OBJECT ADDRESS                   40180021
 002466 05EF                        4233        BALR  RS1,R15               GET PN REF                           40190021
 002468 47F0 8BF2      0247A        4234          BC    UNCOND,VNDFB        CONTINUE WITH PN CODING              40200021
                             051BE  4235        USING GETPN,R15                                                  40210021
 00246C                             4236 VNDFA    DS    0H                                                       40220021
 00246C D201 D076 4001 03E0E 00001  4237          MVC   SAVPNO(LX2),A6GNNO                                       40230021
 002472 4860 D076      03E0E        4238          LH    RW1,SAVPNO          GET OBJECT ADDRESS                   40240021
 002476 45E0 F038      051F6        4239          BAL   RS1,GETGN           GET RELATIVE GN                      40250021
                                    4240        DROP  R15                                                        40260021
 00247A 5A60 D048      03DE0        4241 VNDFB  A     RW1,LOCPGT                                                 40270021
 00247E 5060 D2AC      04044        4242        ST    RW1,DCSAVI                                                 40280021
0
                                    4244 *      SET UP LISTING LINE                                              40300021
                                    4245 *      VN-NNNN EQU *          INITIALIZED TO PN-NNNN                    40310021
-
0
                                    4247 *=L    CODING FROM HERE TO NEXT *=L CARD OUT IF NOLIST MODE             40330021
                                    4248 *=L                                                                     40340021
 002482                             4249 VNDEF2 DS    0H                                                         40350021
                                    4250 *      GET AN RLD TABLE ENTRY                                           40360021
                                    4251 *            BYTE 0 = 10100100     VN TYPE OF LENGTH 4                  40370021
                                    4252 *            BYTE 1-3=  TARGET ADDR  (VN=-1)*4+VNILOC+LOGPGT            40380021
                                    4253 *            BYTE 4-7   OBJECT ADDR  (PNDEF=-1)*4+PNCTR+LOCPGT          40390021
 002482 45E0 8014      0189C        4254          BAL   RS1,RLDRTE          GET ADDRESS FOR INSERT IN RLDTBL     40400021
 002486 95FF 91D0      001D0        4255          CLI   SEGLMT,NOTSEGTD     IS PROGRAM SEGMENTED                 40410021
 00248A 4770 8C4A      024D2        4256          BC    NOTEQ,VNDEF6        YES, BRANCH                          40420021
1PH60     IKFCBL60                                                                                              PAGE   97
-  LOC  OBJECT CODE    ADDR1 ADDR2  STMT   SOURCE STATEMENT                                       ASM 0201 11.03 02/14/15
000248E 4860 D074      03E0C        4257        LH    RW1,SAVVNO                                                 40430021
 002492 0660                        4258 VNDEF4   BCTR  RW1,R0              SUBTRACT 1                           40440021
 002494 8960 0002      00002        4259          SLL   RW1,DX2                                                  40450021
 002498 4A60 9224      00224        4260        AH    RW1,VNILOC                                                 40460021
 00249C 5A60 D048      03DE0        4261        A     RW1,LOCPGT                                                 40470021
 0024A0 5060 D318      040B0        4262        ST    RW1,C6WRK1                                                 40480021
 0024A4 D202 2001 D319 00001 040B1  4263          MVC   TARG(LX3,R2),C6WRK1+NX1 GET TARGET ADDR                  40490021
 0024AA D200 2004 4001 00004 00001  4264          MVC   RELC4(LX1,R2),A6PNPR GET PRIORITY NUMBER                 40500021
 0024B0 9550 4000      00000        4265          CLI   A6GN,XX50               IS THIS GNREF                    40510021
 0024B4 4770 8C36      024BE        4266          BNE   VNDEF5                  NO, BR - PTY IS OK               40520021
 0024B8 D200 2004 D104 00004 03E9C  4267          MVC   RELC-NX1(LX1,R2),SAVPTY1    YES, GET PTY                 40530021
                             024BE  4268 VNDEF5   EQU   *                                                        40540021
 0024BE D600 2004 D103 00004 03E9B  4269          OC    RELC4(LX1,R2),SAVPTY PUNCH SWITCH                        40550021
 0024C4 D202 2005 D2AD 00005 04045  4270          MVC   RELC(LX3,R2),DCSAVI+NX1 GET RELATIVE ADDR VALUE          40560021
 0024CA 92A4 2000      00000        4271          MVI   DX0(R2),VTYP          VN TYPE (INDIRECT PN REF)          40570021
 0024CE 47F0 8240      01AC8        4272        BC    UNCOND,SE6080         GET NEXT ELEMENT                     40580021
 0024D2 5810 C6D0      03D60        4273 VNDEF6 L     R1,AVNPTY             SPECIFY TIB ADDRESS                  40590021
 0024D6 1852                        4274        LR    RW3,R2                SAVE RLD TBL ENTRY ADDRESS           40600021
 0024D8 58F0 C4AC      03B3C        4275        L     R15,ATABLE                                            STAN 40610021
 0024DC 05EF                        4276          BALR  RS1,R15             GET TABLE ADDR AND SIZE         STAN 40620021
                                    4277 *  SEARCH VNPTY TABLE AND SAVE POSITION OF FOUND VN                STAN 40630021
 0024DE 1B66                        4278        SR    RW1,RW1               INITIALIZE POSITION, CTR        STAN 40640021
 0024E0 D501 1001 D074 00001 03E0C  4279 VNDEF8   CLC   DX1(LX2,R1),SAVVNO   FOUND ?                         STA 40650021
 0024E6 4166 0001      00001        4280          LA    RW1,DX1(RW1)         BUMP CTR                        STA 40660021
 0024EA 4111 0003      00003        4281          LA    R1,DX3(R1)           POINT TO NEXT ENTRY             STA 40670021
 0024EE 4770 8C58      024E0        4282          BC    NOTEQ,VNDEF8        NOT FOUND, TRY AGAIN                 40680021
 0024F2 1825                        4283        LR    R2,RW3                RESTORE RLDTBL ENTRY ADDRESS         40690021
 0024F4 47F0 8C0A      02492        4284        B     VNDEF4                FOUND,JOIN MAIN ROUTINE         STAN 40700021
1PH60     IKFCBL60                                                                                              PAGE   98
-  LOC  OBJECT CODE    ADDR1 ADDR2  STMT   SOURCE STATEMENT                                       ASM 0201 11.03 02/14/15
0                                   4286 *=1    FOR MACRO DETERMINE TYPE AND PROCESS ACCORDINGLY                 40720021
-
 0024F8                             4288 MACPRO DS    0H                                                         40740021
 0024F8 1B66                        4289          SR    RW1,RW1                                                  40750021
 0024FA 4360 4001      00001        4290        IC    RW1,A6MACD            GET MACRO TYPE                       40760021
 0024FE 5876 C528      03BB8        4291          L     RW2,MACLST(RW1)                                          40770021
 002502 07F7                        4292          BCR   UNCOND,RW2          BR TO BR-TABLE FOR MACRO RTNS        40780021
                                    4293 *                                                                       40790021
1PH60     IKFCBL60                                                                                              PAGE   99
-  LOC  OBJECT CODE    ADDR1 ADDR2  STMT   SOURCE STATEMENT                                       ASM 0201 11.03 02/14/15
0                                   4295 *=2    ENTRY ELEMENT                                                    40810021
 002504                             4296        DS    0H                                                         40820021
                             02504  4297 MAC010 EQU   *                                                          40830021
 002504 58F0 C458      03AE8        4298        L     R15,AGET                                                   40840021
 002508 05EF                        4299        BALR  RS1,R15               GET AN ELEMENT                       40850021
 00250A 1B66                        4300        SR    RW1,RW1                                                    40860021
 00250C 4060 D28E      04026        4301          STH   RW1,CELL14                                               40870021
 002510 4060 D292      0402A        4302          STH   RW1,CELL15                                               40880021
 002514 4360 4001      00001        4303        IC    RW1,A6BCDL                                                 40890021
 002518 D507 D142 4002 03EDA 00002  4304          CLC   DCPRID(LX8),A6BCDL+NX1 IS ENTRY NAME EQ CSECT NAME       40900021
 00251E 4780 8CE0      02568        4305        BC    EQ,MAC014             YES,DON'T PUNCH ESD TYPE 1           40910021
 002522 94EF D28C      04024        4306          NI    STAT14,PGTOFF                                            40920021
 002526 94EF D290      04028        4307          NI    STAT15,PGTOFF                                            40930021
                                    4308 *=L    CODING FROM HERE TO NEXT *=L CARD OUT IF NOLIST MODE             40940021
 00252A 9140 91A3      001A3        4309        TM    PHZSW,NOLIST                                               40950021
 00252E 4780 8CD2      0255A        4310        BC    ZERO,MAC012           NOLIST, SO SKIP FOLLOWING CODE       40960021
 002532 0660                        4311        BCTR  RW1,R0                SUBTRACT 1 FROM BCD LENGTH           40970021
 002534 4460 8CEC      02574        4312        EX    RW1,ENTMOV  MOVE NAME TO LISTING                           40980021
 002538 4166 0001      00001        4313          LA    RW1,DX1(RW1)                                             40990021
 00253C D204 D7B4 8CF2 0454C 0257A  4314          MVC   OU6OPN(LX5),ENTMSG                                       41000021
 002542 D203 D314 9148 040AC 00148  4315          MVC   C6WRK0(LX4),LOCCTR                                       41010021
 002548 58F0 C474      03B04        4316        L     R15,AS6010                                                 41020021
 00254C 05EF                        4317        BALR  RS1,R15               CONVERT                              41030021
 00254E D205 D790 D31A 04528 040B2  4318          MVC   OU6LC(LX6),C6WRK3                                        41040021
 002554 58F0 C460      03AF0        4319        L     R15,APUT                                                   41050021
 002558 05EF                        4320        BALR  RS1,R15       WRITE LINE                                   41060021
                                    4321 *=L                                                                     41070021
 00255A                             4322 MAC012 DS    0H                                                         41080021
                                    4323 *=1    PUNCH ESD CARD FOR ENTRY POINT                                   41090021
 00255A 4100 0001      00001        4324          LA    R0,ESDTYP1          TYPE                                 41100021
 00255E 4114 0002      00002        4325          LA    R1,DX2(INPUTR)        LOCATION OF NAME                   41110021
 002562 58F0 C454      03AE4        4326        L     R15,AESD                                                   41120021
 002566 05EF                        4327        BALR  RS1,R15               PUNCH ESD CARD                       41130021
 002568                             4328 MAC014 DS    0H                                                         41140021
 002568 4A60 D070      03E08        4329        AH    RW1,GETLEN  INCREMENT LRL BY NUMBER OF CHARS               41150021
 00256C 4060 D070      03E08        4330        STH   RW1,GETLEN                                                 41160021
 002570 47F0 8240      01AC8        4331        BC    UNCOND,SE6080         GET NEXT ELEMENT                     41170021
 002574 D200 D7BA 4002 04552 00002  4332 ENTMOV   MVC   OU6OPD(LX0),A6BCDL+NX1                                   41180021
 00257A C5D5E3D9E8                  4333 ENTMSG DC    C'ENTRY'                                                   41190021
1PH60     IKFCBL60                                                                                              PAGE  100
-  LOC  OBJECT CODE    ADDR1 ADDR2  STMT   SOURCE STATEMENT                                       ASM 0201 11.03 02/14/15
0                                   4335 *=1    START-SAVE LOCCTR OF FIRST EXECUTABLE INSTRUCTION                41210021
                                    4336 *            (CAN USE IDENTL OF RPD ZERO IN COMMON)                     41220021
 002580                             4337 MAC080 DS    0H                                                         41230021
                                    4338 *=L    CODING FROM HERE TO NEXT *=L CARD OUT IF NOLIST MODE   LIST)     41240021
 002580 9140 91A3      001A3        4339        TM    PHZSW,NOLIST                                               41250021
 002584 4780 8D1E      025A6        4340        BC    ZERO,MAC070           NOLIST, SKIP FOLLOWING CODING        41260021
 002588 D20F D7AB 8D3C 04543 025C4  4341          MVC   OU6NAM(LX16),STMSG   MOVE  START EQU * TO LIST LINE      41270021
 00258E D203 D314 9148 040AC 00148  4342          MVC   C6WRK0(LX4),LOCCTR   WITH CURRENT LOCATION COUNTER       41280021
 002594 58F0 C474      03B04        4343        L     R15,AS6010                                                 41290021
 002598 05EF                        4344        BALR  RS1,R15               CONVERT                              41300021
 00259A D205 D790 D31A 04528 040B2  4345          MVC   OU6LC(LX6),C6WRK3                                        41310021
 0025A0 58F0 C460      03AF0        4346        L     R15,APUT                                                   41320021
 0025A4 05EF                        4347        BALR  RS1,R15               PRINT LINE                           41330021
                                    4348 *=L                                                                     41340021
                                    4349 *                                                                       41350021
 0025A6                             4350 MAC070 DS    0H                                                         41360021
 0025A6 D203 9208 9148 00208 00148  4351          MVC   IDENTL(LX4),LOCCTR                                       41370021
 0025AC D701 D28E D28E 04026 04026  4352          XC    CELL14,CELL14       SET R14 & 15 DESTROYED SINCE    STAN 41380021
 0025B2 D701 D292 D292 0402A 0402A  4353          XC    CELL15,CELL15       CODE MAY PRECEED PROC DIV       STAN 41390021
 0025B8 94EF D28C      04024        4354          NI    STAT14,PGTOFF                                       STAN 41400021
 0025BC 94EF D290      04028        4355          NI    STAT15,PGTOFF                                       STAN 41410021
 0025C0 47F0 8240      01AC8        4356        BC    UNCOND,SE6080         GET NEXT ELEMENT                     41420021
 0025C4 E2E3C1D9E3404040            4357 STMSG  DC    C'START    '                                               41430021
 0025CD C5D8E44040405C              4358        DC    C'EQU   *'                                                 41440021
1PH60     IKFCBL60                                                                                              PAGE  101
-  LOC  OBJECT CODE    ADDR1 ADDR2  STMT   SOURCE STATEMENT                                       ASM 0201 11.03 02/14/15
0                                   4360 *=2    BLCHNG--NOTICE OF BASE LOCATOR CHANGE                            41460021
 0025D4                             4361 MAC020 DS    0H                                                         41470021
                                    4362 *      GET BLREF OF WHICH WAS CHANGED                                   41480021
                                    4363 *      SEARCH FOR A REGISTER WHICH HAS IT LOADED                        41490021
                                    4364 *      IF PERMANENT ASSIGNMENT, RELOAD                                  41500021
                                    4365 *      IF TEMPORARY ASSIGNMENT, SET TO SPECIFY AS NOT LOADED            41510021
                                    4366 *      OTHERWISE EXIT                                                   41520021
 0025D4 58F0 C458      03AE8        4367        L     R15,AGET                                                   41530021
 0025D8 05EF                        4368        BALR  RS1,R15               GET ELEMENT                          41540021
 0025DA 9538 D308      040A0        4369        CLI   GOTCOD,BLREF                                               41550021
 0025DE D201 D294 4001 0402C 00001  4370          MVC   BLELT(LX2),A6BLI                                         41560021
 0025E4 D200 D308 4001 040A0 00001  4371        MVC   GOTCOD,A6BLI                                               41570021
 0025EA 58F0 C504      03B94        4372        L     R15,ASRCHR        FIND ASSOC REGISTER                      41580021
                             05D10  4373        USING SRCHR,R15                                                  41590021
 0025EE 45E0 F0EA      05DFA        4374        BAL   RS1,SRCHG             FIND ASSOC REGISTER                  41600021
                                    4375        DROP  R15                                                        41610021
 0025F2 1255                        4376        LTR   RW3,RW3                                                    41620021
 0025F4 4780 8240      01AC8        4377        BC    ZERO,SE6080      NONE FOUND                                41630021
 0025F8 4950 C08A      0371A        4378        CH    RW3,C6H14D                                                 41640021
 0025FC 47B0 8D90      02618        4379        BC    NOTLO,MAC025          R14 OR R15                           41650021
 002600 4250 D2EB      04083        4380        STC   RW3,C6RS         GENERATE LOAD INSTR                       41660021
 002604 9258 D2EA      04082        4381          MVI   C6OP,XX58                                                41670021
 002608 1B66                        4382        SR    RW1,RW1                                                    41680021
 00260A 4360 4002      00002        4383        IC    RW1,A6BLK                                                  41690021
 00260E 58F0 C4FC      03B8C        4384        L     R15,AGENLD                                                 41700021
 002612 05EF                        4385        BALR  RS1,R15               GEN LOAD OF REG                      41710021
 002614 47F0 8240      01AC8        4386        BC    UNCOND,SE6080         GET NEXT ELT                         41720021
                                    4387 *      TEMPORARY ASSIGNMENT                                             41730021
 002618                             4388 MAC025 DS    0H                                                         41740021
 002618 4780 8D9E      02626        4389        BC    EQ,MAC028             R14                                  41750021
 00261C                             4390 MAC026 DS    0H                                                         41760021
 00261C D701 D292 D292 0402A 0402A  4391        XC    CELL15,CELL15                                              41770021
 002622 47F0 8240      01AC8        4392        BC    UNCOND,SE6080         GET NEXT ELT                         41780021
 002626                             4393 MAC028 DS    0H                                                         41790021
 002626 D701 D28E D28E 04026 04026  4394        XC    CELL14,CELL14                                              41800021
 00262C 47F0 8240      01AC8        4395        BC    UNCOND,SE6080         GET NEXT ELT                         41810021
                                    4396 *                                                                       41820021
                                    4397 *=1    ENDOPT                                                           41830021
 002630                             4398 MAC030 DS    0H                                                         41840021
 002630 47F0 8240      01AC8        4399        BC    UNCOND,SE6080         GET NEXT ELT                         41850021
1PH60     IKFCBL60                                                                                              PAGE  102
-  LOC  OBJECT CODE    ADDR1 ADDR2  STMT   SOURCE STATEMENT                                       ASM 0201 11.03 02/14/15
0                                   4401 *=1    DC--GET DC DEFINITION                                            41870021
 002634                             4402 MAC090 DS      0H                                                       41880021
 002634 58F0 C458      03AE8        4403        L     R15,AGET                                                   41890021
 002638 05EF                        4404        BALR  RS1,R15               GET ELT                              41900021
 00263A 45E0 8DBA      02642        4405        BAL   RS1,MAC092            DO DC SUBRTN                         41910021
 00263E 47F0 8240      01AC8        4406        BC    UNCOND,SE6080    GO TO GET MORE A-TEXT                     41920021
 002642                             4407 MAC092 DS    0H                                                         41930021
 002642 50E0 D2E4      0407C        4408        ST    RS1,DCSAVR                                                 41940021
 002646 1B66                        4409        SR      RW1,RW1                                                  41950021
 002648 4360 4001      00001        4410        IC      RW1,A6DCL    GET LENGTH OF DC                            41960021
 00264C 4850 D070      03E08        4411        LH      RW3,GETLEN   ADJUST LRL FOR GET ROUTINE                  41970021
 002650 1A56                        4412        AR      RW3,RW1                                                  41980021
 002652 4050 D070      03E08        4413        STH     RW3,GETLEN                                               41990021
                                    4414 *=L   IF NO LIST MODE, GO TO NMODC3.                                    42000021
                                    4415 *=     CODING FROM HERE TO SUBSEQUENT *=L CARD NOT EXECUTED IF          42010021
                                    4416 *=     NO LIST MODE                                                     42020021
 002656 9140 91A3      001A3        4417        TM    PHZSW,NOLIST                                               42030021
 00265A 4780 8E8A      02712        4418        BC    ZERO,NMODC3           NOLIST, SKIP NEXT CODING             42040021
 00265E D203 D30C 9148 040A4 00148  4419          MVC   SAVLOC(LX4),LOCCTR   SAVE LOCCTR AND INPUT POINTER       42050021
 002664 5040 D2AC      04044        4420        ST    INPUTR,DCSAVI                                              42060021
 002668 4960 C082      03712        4421 TSTDC1 CH      RW1,C68      IS LENGTH MORE THAN 8 (ONLY 8 CHARS/LIN     42070021
 00266C 4720 8EA0      02728        4422        BC      HI,MOR8DC    YES                                         42080021
 002670 1806                        4423        LR    R0,RW1        NO-USE LENGTH                                42090021
 002672 D201 D7B4 8EC8 0454C 02750  4424 TSTDC2   MVC   OU6OPN(LX2),MACDCO MOVE CONSTANTS TO LISTING LINE        42100021
 002678 D201 D7BA 8ECA 04552 02752  4425          MVC   OU6OPD(LX2),MACDCX                                       42110021
 00267E D203 D314 D30C 040AC 040A4  4426          MVC   C6WRK0(LX4),SAVLOC  MOVE LOCCTR TO LISTING LINE          42120021
 002684 58F0 C474      03B04        4427        L     R15,AS6010                                                 42130021
 002688 05EF                        4428        BALR  RS1,R15               CONVERT                              42140021
 00268A D205 D790 D31A 04528 040B2  4429          MVC   OU6LC(LX6),C6WRK3                                        42150021
 002690 5850 D30C      040A4        4430        L       RW3,SAVLOC   UP LOCCTR BY LENGTH (OR 8 MAX)              42160021
 002694 1A50                        4431        AR    RW3,R0                                                     42170021
 002696 5050 D30C      040A4        4432        ST      RW3,SAVLOC                                               42180021
 00269A D203 D314 4002 040AC 00002  4433          MVC   C6WRK0(LX4),A6DCV  MOVE FIRST 4 CHARS OF VALUE TO CON    42190021
 0026A0 58F0 C474      03B04        4434        L     R15,AS6010                                                 42200021
 0026A4 05EF                        4435        BALR  RS1,R15               CONVERT                              42210021
 0026A6 4900 C072      03702        4436        CH    R0,C64                                                     42220021
 0026AA 4720 8EA8      02730        4437        BC      HI,MOR4DC    USE 4 CHARS IF MORE THAN 4                  42230021
 0026AE 1850                        4438        LR    RW3,R0                                                     42240021
 0026B0 8950 0001      00001        4439 TSTDC3   SLL   RW3,DX1                                                  42250021
 0026B4 0650                        4440        BCTR  RW3,R0                SUBTRACT 1 FOR EX INSTR              42260021
 0026B6 4450 8EC2      0274A        4441        EX      RW3,MOVDC1   MOVE FIRST CHARS (4 MAX) TO LISTING LIN     42270021
 0026BA 4450 8EB6      0273E        4442        EX      RW3,MOVDC2                                               42280021
 0026BE 4900 C072      03702        4443        CH    R0,C64                                                     42290021
 0026C2 47D0 8E5E      026E6        4444        BC      NOTHI,NMODC1        LESS THAN OR 4 CHARACTERS, OUT       42300021
 0026C6 D203 D314 4006 040AC 00006  4445          MVC   C6WRK0(LX4),A6DCV+NX4 CONVERT AND MOVE NEXT 4 (OR FEWER  42310021
 0026CC 58F0 C474      03B04        4446        L     R15,AS6010          CHARACTERS                             42320021
 0026D0 05EF                        4447        BALR  RS1,R15               CONVERT                              42330021
 0026D2 1850                        4448        LR    RW3,R0                                                     42340021
 0026D4 4B50 C072      03702        4449        SH      RW3,C64                                                  42350021
 0026D8 8950 0001      00001        4450          SLL   RW3,DX1                                                  42360021
 0026DC 0650                        4451        BCTR  RW3,R0                SUBTRACT 1 FOR EX INSTR              42370021
 0026DE 4450 8EBC      02744        4452        EX      RW3,MOVDC3                                               42380021
 0026E2 4450 8EB0      02738        4453        EX      RW3,MOVDC4                                               42390021
 0026E6 4350 8ECB      02753        4454 NMODC1   IC    RW3,MACDCX+NX1                                           42400021
 0026EA 1870                        4455        LR    RW2,R0                                                     42410021
1PH60     IKFCBL60                                                                                              PAGE  103
-  LOC  OBJECT CODE    ADDR1 ADDR2  STMT   SOURCE STATEMENT                                       ASM 0201 11.03 02/14/15
00026EC 8970 0001      00001        4456          SLL   RW2,DX1                                                  42420021
 0026F0 4257 D7BC      04554        4457          STC   RW3,OU6OPD+NX2(RW2) INSERT FINAL QUOTE MARK AFTER CON    42430021
 0026F4 58F0 C460      03AF0        4458        L     R15,APUT     PRINT LINE                                    42440021
 0026F8 05EF                        4459        BALR  RS1,R15               PRINT LINE                           42450021
 0026FA 4960 C082      03712        4460        CH      RW1,C68      ANY MORE OF DC LEFT FOR NEXT LINE           42460021
 0026FE 47D0 8E86      0270E        4461        BC      NOTHI,NMODC2 NO                                          42470021
 002702 4B60 C082      03712        4462        SH      RW1,C68      YES-ADJUST REMAINING LENGTH AND PROCESS     42480021
 002706 4144 0008      00008        4463          LA    INPUTR,DX8(INPUTR)                                       42490021
 00270A 47F0 8DE0      02668        4464        BC      UNCOND,TSTDC1       PROCESS REST OF DC                   42500021
 00270E 5840 D2AC      04044        4465 NMODC2 L       INPUTR,DCSAVI  RESTORE INPUTR FOR GET ROUTINE            42510021
                                    4466 *=L                                                                     42520021
 002712                             4467 NMODC3 DS    0H                                                         42530021
 002712 4110 4002      00002        4468        LA    R1,A6DCV      LOCATION OF CON FOR PUNCH RTNE               42540021
 002716 1B00                        4469        SR    R0,R0                                                      42550021
 002718 4300 4001      00001        4470        IC    R0,A6DCL                    LENGTH OF CON FOR PUNCH RT     42560021
 00271C 58F0 C46C      03AFC        4471        L     R15,ATXPNH      PUNCH AND UP LOCCTR ACCORDINGLY            42570021
 002720 05EF                        4472        BALR  RS1,R15               PUNCH TEXT                           42580021
 002722 58E0 D2E4      0407C        4473        L     RS1,DCSAVR                                                 42590021
 002726 07FE                        4474        BCR   UNCOND,RS1        EXIT                                     42600021
 002728 4100 0008      00008        4475 MOR8DC   LA    R0,DW8BYTES         IF LEN GT 8, USE 8 AT A TIME         42610021
 00272C 47F0 8DEA      02672        4476        BC      UNCOND,TSTDC2       PROCESS REST OF DC                   42620021
 002730 4150 0004      00004        4477 MOR4DC   LA    RW3,FOURBYTE        IF LEN GT 4, CONVERT 4 ATA TIM       42630021
 002734 47F0 8E28      026B0        4478        BC    UNCOND,TSTDC3         PROCESS REST OF DC                   42640021
 002738 D200 D7C4 D318 0455C 040B0  4479 MOVDC4   MVC   OU6OPD+NX10(LX0),C6WRK1                                  42650021
 00273E D200 D7BC D318 04554 040B0  4480 MOVDC2   MVC   OU6OPD+NX2(LX0),C6WRK1                                   42660021
 002744 D200 D7A0 D318 04538 040B0  4481 MOVDC3   MVC   OU6OP+NX8(LX0),C6WRK1                                    42670021
 00274A D200 D798 D318 04530 040B0  4482 MOVDC1   MVC   OU6OP(LX0),C6WRK1                                        42680021
 002750 C4C3                        4483 MACDCO DC      C'DC'                                                    42690021
 002752 E77D                        4484 MACDCX DC    C'X'''                                                     42700021
1PH60     IKFCBL60                                                                                              PAGE  104
-  LOC  OBJECT CODE    ADDR1 ADDR2  STMT   SOURCE STATEMENT                                       ASM 0201 11.03 02/14/15
0                                   4486 **                                                                      42720021
                                    4487 *      DUMMY PN  FOR XREF                                               42730021
                                    4488 *            //44 50  4C  PP  NNNN  //                                  42740021
                                    4489 *             WHERE  PP IS PRIORITY                                     42750021
                                    4490 *                    NNNN IS PN NUMBER                                  42760021
 002754                             4491 MAC050  DS  0H                                                          42770021
 002754 58F0 C458      03AE8        4492          L    R15,AGET                                                  42780021
 002758 05EF                        4493          BALR    RS1,R15         GET   SECOND PART                      42790021
 00275A 9180 91A4      001A4        4494          TM    PHZSW1,XREF                                              42800021
 00275E 4780 8240      01AC8        4495          BC    ZERO,SE6080         NO, GO GET NEXT ELEMENT              42810021
 002762 41E0 8240      01AC8        4496          LA    RS1,SE6080      SPECIFY RETURN ADDR FOR IN-LINE BR       42820021
 002766 47F0 846C      01CF4        4497          BC    UNCOND,R6317A         GO DO PN ELT                       42830021
1PH60     IKFCBL60                                                                                              PAGE  105
-  LOC  OBJECT CODE    ADDR1 ADDR2  STMT   SOURCE STATEMENT                                       ASM 0201 11.03 02/14/15
0                                   4499 *                                                                       42850021
                                    4500 *=1    ADCON                                                            42860021
                                    4501 *                                                                       42870021
 00276A                             4502 MAC060 DS    0H                                                         42880021
 00276A 58F0 C458      03AE8        4503        L     R15,AGET                                                   42890021
 00276E 05EF                        4504        BALR  RS1,R15               GET NEXT ELT                         42900021
 002770 95E8 D308      040A0        4505        CLI   GOTCOD,CSELT                                               42910021
 002774 4780 A1E4      02A6C        4506        BC    EQ,MAC065             CALLING SEQ DISPL ELT                42920021
 002778 95E4 D308      040A0        4507        CLI   GOTCOD,CSDPTR                                              42930021
 00277C 4780 A400      02C88        4508        BC    EQ,MAC066             CALLING SEQ DICT PTR                 42940021
 002780 95EC D308      040A0        4509          CLI   GOTCOD,XXEC          IS THIS A FILE REF ELMT             42950021
 002784 4780 A436      02CBE        4510        BC    EQ,MAC068             YES,BR                               42960021
 002788 9528 D308      040A0        4511        CLI   GOTCOD,PNREF                                               42970021
 00278C 4780 A386      02C0E        4512        BC    EQ,KAR021             PNREF ELT                            42980021
 002790 D204 D7B4 C654 0454C 03CE4  4513          MVC   OU6OPN(LX5),MACADC                                       42990021
 002796 92D3 D7BA      04552        4514          MVI   OU6OPD,EL                                                43000021
 00279A 4160 8240      01AC8        4515        LA    RW1,SE6080                                                 43010021
 00279E 5060 D0C0      03E58        4516        ST    RW1,RETADC                                                 43020021
 0027A2 4300 4002      00002        4517        IC    R0,A6RAS                                                   43030021
 0027A6 5400 C004      03694        4518        N     R0,C6M2      L ADCON                                       43040021
 0027AA 4200 D7BB      04553        4519          STC   R0,OU6OPD+NX1                                            43050021
 0027AE 1B77                        4520        SR    RW2,RW2                                                    43060021
 0027B0 4370 4001      00001        4521        IC    RW2,A6RAT   TYPE OF CELL                                   43070021
 0027B4 9140 91A3      001A3        4522        TM    PHZSW,NOLIST                                               43080021
 0027B8 4780 8F4C      027D4        4523        BC    ZERO,MAC062           NOLIST, SKIP NEXT CODING             43090021
                                    4524 *=L    CODING FROM HERE TO NEXT *=L CARD OUT IF NOLIST MODE             43100021
 0027BC 96F0 D7BB      04553        4525          OI    OU6OPD+NX1,MF0                                           43110021
 0027C0 1867                        4526        LR    RW1,RW2                                                    43120021
 0027C2 8860 0002      00002        4527          SRL   RW1,DX2                                                  43130021
 0027C6 4C60 C080      03710        4528        MH    RW1,C6H7                                                   43140021
 0027CA 5A60 C4D4      03B64        4529        A     RW1,ARLTBL                                                 43150021
 0027CE D206 D7BC 6000 04554 00000  4530          MVC   OU6OPD+NX2(LX7),DX0(RW1)                                 43160021
                                    4531 *=L                                                                     43170021
 0027D4                             4532 MAC062 DS    0H                                                         43180021
 0027D4 9568 4001      00001        4533          CLI   A6RAT,XX68          IS TYPE GT HIGHEST TYPE CODE         43190021
 0027D8 4720 8A7A      02302        4534        BC    HI,ERR110            YES,ERROR BRANCH                      43200021
 0027DC 4407 D8EE      04686        4535        EX    R0,TYTBL(RW2)                                              43210021
 0027E0 47F0 A03A      028C2        4536        BC    UNCOND,BLS030    IF NOT ALREADY AT SPECIALIZED ROUTINE     43220021
1PH60     IKFCBL60                                                                                              PAGE  106
-  LOC  OBJECT CODE    ADDR1 ADDR2  STMT   SOURCE STATEMENT                                       ASM 0201 11.03 02/14/15
0                                   4538 *                                                                       43240021
                                    4539 *=1    ADCON INIT1                                                      43250021
                                    4540 *                                                                       43260021
 0027E4 1B77                        4541 BINIT1 SR    RW2,RW2                                                    43270021
                                    4542 *                           LATER PUNCH RLD                             43280021
 0027E6                             4543 BIN010 DS    0H                                                         43290021
 0027E6                             4544 BIN012   DS    0H                                                       43300021
 0027E6 5070 D168      03F00        4545          ST    RW2,PROG2                                                43310021
 0027EA 4110 D168      03F00        4546        LA    R1,PROG2                                                   43320021
                                    4547 *=L    CODING FROM HERE TO NEXT *=L CARD OUT IF NOLIST MODE             43330021
 0027EE 9140 91A3      001A3        4548        TM    PHZSW,NOLIST                                               43340021
 0027F2 4780 8F8C      02814        4549        BC    ZERO,BIN014           NOLIST, SKIP NEXT CODING             43350021
 0027F6 D203 D314 9148 040AC 00148  4550          MVC   C6WRK0(LX4),LOCCTR                                       43360021
 0027FC 58F0 C474      03B04        4551        L     R15,AS6010                                                 43370021
 002800 05EF                        4552        BALR  RS1,R15               CONVERT                              43380021
 002802 D205 D790 D31A 04528 040B2  4553          MVC   OU6LC(LX6),C6WRK3                                        43390021
 002808 D203 D314 D168 040AC 03F00  4554          MVC   C6WRK0(LX4),PROG2                                        43400021
 00280E 58F0 C474      03B04        4555        L     R15,AS6010                                                 43410021
 002812 05EF                        4556        BALR  RS1,R15               CONVERT                              43420021
                                    4557 *=L                                                                     43430021
 002814                             4558 BIN014 DS    0H                                                         43440021
 002814 9101 D7BB      04553        4559          TM    OU6OPD+NX1,XX01                                          43450021
 002818 4780 8FA2      0282A        4560        BC    ZERO,ACON4            ADCON OF LENGTH 4                    43460021
 00281C 4111 0001      00001        4561          LA    R1,DX1(R1)   ADCON OF LENGTH 3                           43470021
                                    4562 *=L    CODING FROM HERE TO NEXT *=L CARD OUT IF NOLIST MODE             43480021
 002820 D205 D798 D31A 04530 040B2  4563          MVC   OU6OP(LX6),C6WRK3                                        43490021
 002826 47F0 8FA8      02830        4564          BC    UNCOND,BIN020       CONTINUE WITH ADCON CODING           43500021
 00282A                             4565 ACON4    DS    0H                                                       43510021
 00282A D207 D798 D318 04530 040B0  4566          MVC   OU6OP(LX8),C6WRK1                                        43520021
 002830                             4567 BIN020   DS    0H                                                       43530021
 002830 9180 D0F9      03E91        4568          TM    SEGSW2,RLDPNCHD     IS RLD TO BE PUNCHED                 43540021
 002834 4710 8FEC      02874        4569          BC    ONES,BIN024         NO, ALREADY PUNCHED                  43550021
                                    4570 *=L                                                                     43560021
 002838 4300 D7BB      04553        4571          IC    R0,OU6OPD+NX1                                            43570021
 00283C 5400 C004      03694        4572        N     R0,C6M2                     COUNT TO R0                    43580021
 002840 5860 9148      00148        4573        L     RW1,LOCCTR            SAVE LOCCTR                          43590021
 002844 58F0 C46C      03AFC        4574        L     R15,ATXPNH                                                 43600021
 002848 05EF                        4575        BALR  RS1,R15                 PUNCH TEXT                         43610021
 00284A 4870 D068      03E00        4576        LH    RW2,ESDID             OS                                   43620021
 00284E 4150 0001      00001        4577          LA    RW3,DX1                                                  43630021
 002852 4050 D068      03E00        4578        STH   RW3,ESDID             ESDID FOR ADCON                      43640021
 002856 1816                        4579        LR    R1,RW1                 LOC OF ADCON                        43650021
 002858 0600                        4580        BCTR  R0,R0              CONVERT LENGTH                          43660021
 00285A 8900 0002      00002        4581          SLL   R0,DX2            FOR FLAG BYTE                          43670021
 00285E 58F0 C490      03B20        4582        L     R15,ARLD                                                   43680021
 002862 05EF                        4583        BALR  RS1,R15                 PUNCH RLD                          43690021
 002864 4070 D068      03E00        4584        STH   RW2,ESDID             RESTORE ESDID                        43700021
                             02868  4585 BIN022 EQU   *                                                          43710021
                                    4586 *=L    CODING FROM HERE TO NEXT *=L CARD OUT IF NOLIST MODE             43720021
 002868 58F0 C460      03AF0        4587        L     R15,APUT                                                   43730021
 00286C 05EF                        4588        BALR  RS1,R15               PRINT LINE                           43740021
                                    4589 *=L                                                                     43750021
 00286E 5860 D0C0      03E58        4590        L     RW1,RETADC       RETURN ADDRESS                            43760021
 002872 07F6                        4591          BCR   UNCOND,RW1          RETURN                               43770021
 002874 947F D0F9      03E91        4592 BIN024   NI    SEGSW2,SGSW2OFF     RESET ZERO DC V(SEGM) SW             43780021
1PH60     IKFCBL60                                                                                              PAGE  107
-  LOC  OBJECT CODE    ADDR1 ADDR2  STMT   SOURCE STATEMENT                                       ASM 0201 11.03 02/14/15
0002878 5860 9148      00148        4593        L     RW1,LOCCTR            BUMP LOCCTR                          43790021
 00287C 4166 0004      00004        4594          LA    RW1,DX4(RW1)                                             43800021
 002880 5060 9148      00148        4595        ST    RW1,LOCCTR                                                 43810021
 002884 47F0 8FE0      02868        4596        B     BIN022                GO PRINT LINE AND RETURN             43820021
1PH60     IKFCBL60                                                                                              PAGE  108
-  LOC  OBJECT CODE    ADDR1 ADDR2  STMT   SOURCE STATEMENT                                       ASM 0201 11.03 02/14/15
0002888                             4598 IKF604   CSECT                                                          43840021
                                    4599 *=1    ADCON  TALLY                                                     43850021
                                    4600 *                                                                       43860021
 002888                             4601 BTALLY DS    0H                                                         43870021
 002888 5870 921C      0021C        4602        L     RW2,RELLOC                                                 43880021
 00288C 4A70 D8E4      0467C        4603          AH    RW2,GT1KND+NX4                                           43890021
                                    4604 *                           LATER PUNCH RLD                             43900021
 002890 47F0 8F5E      027E6        4605        BC    UNCOND,BIN010         DO COMMON CODE FOR ADCON INIT1       43910021
0
 002894                             4607 ADBLI  DS    0H                                                         43930021
 002894 4850 920C      0020C        4608        LH    RW3,BLCTR                                                  43940021
 002898 47F0 A03A      028C2        4609          BC    UNCOND,BLS030       GO TO COMMON PROCESSING              43950021
0
                                    4611 *                                                                       43970021
                                    4612 *                                                                       43980021
                                    4613 *=1    ADCON   VLC=                                                     43990021
 00289C                             4614 BVLCI  DS      0H                                                       44000021
 00289C 4850 917C      0017C        4615        LH      RW3,VLCCTR                                               44010021
 0028A0                             4616 BVLCA  DS    0H                                                         44020021
 0028A0 4160 0001      00001        4617          LA    RW1,DX1                                                  44030021
 0028A4                             4618 BLS040 DS    0H                                                         44040021
 0028A4 D201 D314 4003 040AC 00003  4619          MVC   C6WRK0(LX2),A6RAN                                        44050021
 0028AA 4870 D314      040AC        4620        LH      RW2,C6WRK0                                               44060021
 0028AE 5070 D164      03EFC        4621        ST    RW2,DCSAVN                                                 44070021
 0028B2 0670                        4622        BCTR  RW2,R0                SUBTRACT 1                           44080021
 0028B4 8970 6000      00000        4623          SLL   RW2,DX0(RW1)                                             44090021
 0028B8 1A75                        4624        AR    RW2,RW3               DISP FROM TGT OR SGT                 44100021
 0028BA 5A70 921C      0021C        4625        A     RW2,RELLOC                                                 44110021
 0028BE 47F0 A09C      02924        4626        BC    UNCOND,BAD010         PROCESS CHKPT OR NORMAL              44120021
 0028C2                             4627 BLS030 DS    0H                                                         44130021
 0028C2 4160 0002      00002        4628          LA    RW1,DX2                                                  44140021
 0028C6 47F0 A01C      028A4        4629        BC    UNCOND,BLS040         JOIN MAIN LINE PROCESSING            44150021
 0028CA                             4630 TSADCN DS    0H                                                         44160021
 0028CA 4850 9168      00168        4631        LH    RW3,TSMAX                                                  44170021
 0028CE 1B66                        4632        SR    RW1,RW1                                                    44180021
 0028D0 47F0 A01C      028A4        4633        BC    UNCOND,BLS040         JOIN MAIN LINE PROCESSING            44190021
                                    4634 *                                                                       44200021
                                    4635 *      ADCON PN=                                                        44210021
 0028D4                             4636 BPN    DS    0H                                                         44220021
 0028D4 D201 D314 4003 040AC 00003  4637          MVC   C6WRK0(LX2),A6RAN                                        44230021
 0028DA 4860 D314      040AC        4638        LH    RW1,C6WRK0                                                 44240021
 0028DE 58F0 C4F0      03B80        4639        L     R15,AGETPN                                                 44250021
 0028E2 05EF                        4640        BALR  RS1,R15               GET PN NUMBER                        44260021
 0028E4 5A60 D048      03DE0        4641 BPN010 A     RW1,LOCPGT                                                 44270021
 0028E8 5050 D164      03EFC        4642        ST    RW3,DCSAVN                                                 44280021
 0028EC 1876                        4643        LR    RW2,RW1                                                    44290021
 0028EE 47F0 A09C      02924        4644        BC      UNCOND,BAD010       PROCESS CHKPT OR NORMAL              44300021
                                    4645 *                                                                       44310021
                                    4646 *=1    ADCON   LITERAL=                                                 44320021
                                    4647 *                                                                       44330021
 0028F2                             4648 BLITRF DS      0H                                                       44340021
 0028F2 5810 C690      03D20        4649        L     R1,ALTLTB                                                  44350021
 0028F6 58F0 C4AC      03B3C        4650        L     R15,ATABLE                                                 44360021
1PH60     IKFCBL60                                                                                              PAGE  109
-  LOC  OBJECT CODE    ADDR1 ADDR2  STMT   SOURCE STATEMENT                                       ASM 0201 11.03 02/14/15
00028FA 05EF                        4651        BALR  RS1,R15               GET TABLE ADDR AND SIZE              44370021
 0028FC D201 D06E 4003 03E06 00003  4652          MVC   LTRFCT,A6RAN        GET LITERAL NO                       44380021
 002902 4860 D06E      03E06        4653          LH    RW1,LTRFCT                                          LITS 44390021
 002906 0660                        4654          BCTR  RW1,R0              DECREMENT LIT # FOR INDEXING         44400021
 002908 8960 0001      00001        4655          SLL   RW1,DX1       *2 FOR INDEX VALUE                         44410021
 00290C 4876 1000      00000        4656          LH    RW2,DX0(RW1,R1)  DISP FROM PGT                           44420021
 002910 5470 D078      03E10        4657          N     RW2,HWFS                MASK OUT HI ORDER 16 BITS  53557 44430021
 002914 4B70 9164      00164        4658        SH    RW2,LTLCTR                                                 44440021
 002918 5070 D164      03EFC        4659        ST    RW2,DCSAVN                                                 44450021
 00291C 4A70 9164      00164        4660        AH    RW2,LTLCTR                                                 44460021
 002920 5A70 D048      03DE0        4661        A       RW2,LOCPGT   ADD START OF PGT TO DISP                    44470021
 002924 4150 8246      01ACE        4662 BAD010 LA    RW3,SE6020                                                 44480021
 002928 5050 D0C0      03E58        4663        ST    RW3,RETADC       NORMAL RETURN                             44490021
 00292C 58F0 C458      03AE8        4664        L     R15,AGET          EXAMINE NEXT ELEMENT                     44500021
 002930 05EF                        4665        BALR  RS1,R15               GET NEXT ELT                         44510021
 002932 9550 D308      040A0        4666        CLI   GOTCOD,PLUS                IS IT PLUS                      44520021
 002936 4770 A0D4      0295C        4667        BC    NOTEQ,BAD013     NO                                        44530021
 00293A 4150 8240      01AC8        4668        LA    RW3,SE6080       READ NEXT ELEMENT RETURN                  44540021
 00293E 5050 D0C0      03E58        4669        ST    RW3,RETADC                                                 44550021
 002942 D202 D315 4001 040AD 00001  4670          MVC   C6WRK0+NX1(LX3),A6PLIN                                   44560021
 002948 9200 D314      040AC        4671          MVI   C6WRK0,INITOFF      ASSUME POSITIVE                      44570021
 00294C 9180 4001      00001        4672          TM    A6PLIN,HION                                              44580021
 002950 4780 A0D0      02958        4673        BC    ZERO,BAD012           MAKE POSITIVE                        44590021
 002954 92FF D314      040AC        4674          MVI   C6WRK0,ALLON        NEGATIVE                             44600021
 002958 5A70 D314      040AC        4675 BAD012 A     RW2,C6WRK0       ADD IN PLUS ELEMENT                       44610021
 00295C                             4676 BAD013 DS    0H                                                         44620021
                                    4677 *=L    CODING FROM HERE TO NEXT *=L CARD OUT IF NOLIST MODE             44630021
 00295C 9140 91A3      001A3        4678        TM    PHZSW,NOLIST                                               44640021
 002960 4780 8F5E      027E6        4679        BC    ZERO,BIN012           NOLIST, SKIP CODING                  44650021
 002964 1817                        4680        LR    R1,RW2       SAVE REG                                      44660021
 002966 4150 D7BA      04552        4681        LA    RW3,OU6OPD                                                 44670021
 00296A 5860 D164      03EFC        4682        L     RW1,DCSAVN                                                 44680021
 00296E 58F0 C468      03AF8        4683        L     R15,AS6200                                                 44690021
                             04A5E  4684        USING S6200,R15     CONVERT NO TO DECIMAL FOR LISTING            44700021
 002972 45E0 F004      04A62        4685        BAL   RS1,S6210             CONVERT                              44710021
                                    4686        DROP  R15                                                        44720021
 002976 D200 5007 D31B 00007 040B3  4687          MVC   DX7(LX0,RW3),C6WRK4   EXECUTED BY S6200                  44730021
 00297C 9550 D308      040A0        4688        CLI   GOTCOD,PLUS                IS IT PLUS                      44740021
 002980 4770 A120      029A8        4689        BC    NOTEQ,BAD015     NO PLUS                                   44750021
 002984 924E 5008      00008        4690          MVI   DX8(RW3),PLUSSIGN                                        44760021
 002988 4155 0001      00001        4691          LA    RW3,DX1(RW3)                                             44770021
 00298C D201 D314 4002 040AC 00002  4692          MVC   C6WRK0(LX2),A6PLIN+NX1                                   44780021
 002992 4860 D314      040AC        4693        LH    RW1,C6WRK0                                                 44790021
 002996 58F0 C468      03AF8        4694        L     R15,AS6200                                                 44800021
                             04A5E  4695        USING S6200,R15                                                  44810021
 00299A 45E0 F004      04A62        4696        BAL   RS1,S6210         CONVERT FOR LISTING                      44820021
                                    4697        DROP  R15                                                        44830021
 00299E D200 5008 D31B 00008 040B3  4698          MVC   DX8(LX0,RW3),C6WRK4 EXECUTED BY S6200                    44840021
 0029A4 4155 0001      00001        4699          LA    RW3,DX1(RW3)                                             44850021
 0029A8                             4700 BAD015 DS    0H                                                         44860021
 0029A8 925D 5008      00008        4701          MVI   DX8(RW3),RTPAREN                                         44870021
 0029AC 1871                        4702        LR    RW2,R1                                                     44880021
                                    4703 *=L                                                                     44890021
 0029AE 47F0 8F5E      027E6        4704          BC    UNCOND,BIN012       LATER PUNCH RLD                      44900021
1PH60     IKFCBL60                                                                                              PAGE  110
-  LOC  OBJECT CODE    ADDR1 ADDR2  STMT   SOURCE STATEMENT                                       ASM 0201 11.03 02/14/15
0                                   4706 *                                                                       44920021
                                    4707 *=1    ADCON INIT3                                                      44930021
                                    4708 *                                                                       44940021
 0029B2                             4709 BINIT3 DS      0H                                                       44950021
 0029B2 5870 D160      03EF8        4710        L     RW2,LINIT3                                                 44960021
 0029B6 47F0 8F5E      027E6        4711        BC    UNCOND,BIN010         LATER PUNCH RLD                      44970021
                                    4712 *                                                                       44980021
                                    4713 *=1    ADCON CHECKPOINT ROUTINE                                         44990021
                                    4714 *                                                                       45000021
 0029BA                             4715 BCKPTR DS      0H                                                       45010021
 0029BA 5870 D154      03EEC        4716        L     RW2,CKLOC                                                  45020021
 0029BE 47F0 8F5E      027E6        4717        BC    UNCOND,BIN010         LATER PUNCH RLD                      45030021
                                    4718 *                                                                       45040021
                                    4719 *=1    ADCON PGT                                                        45050021
                                    4720 *                                                                       45060021
 0029C2                             4721 BPGT   DS      0H                                                       45070021
 0029C2 5870 D048      03DE0        4722        L     RW2,LOCPGT                                                 45080021
 0029C6 47F0 8F5E      027E6        4723        BC    UNCOND,BIN010         LATER PUNCH RLD                      45090021
                                    4724 *                                                                       45100021
                                    4725 *=1    ADCON   TGT                                                      45110021
                                    4726 *                                                                       45120021
 0029CA                             4727 BTGT   DS      0H                                                       45130021
 0029CA 5870 921C      0021C        4728        L     RW2,RELLOC                                                 45140021
                                    4729 *                           LATER PUNCH RLD                             45150021
 0029CE 47F0 8F5E      027E6        4730        BC    UNCOND,BIN010         LATER PUNCH RLD                      45160021
                                    4731 *                                                                       45170021
                                    4732 *=1    ADCON INIT2                                                      45180021
                                    4733 *                                                                       45190021
 0029D2                             4734 BINIT2 DS      0H                                                       45200021
 0029D2 5870 D15C      03EF4        4735        L     RW2,LINIT2                                                 45210021
 0029D6 47F0 8F5E      027E6        4736        BC    UNCOND,BIN010         LATER PUNCH RLD                      45220021
                                    4737 *                                                                       45230021
                                    4738 *=1    ADCON START                                                      45240021
                                    4739 *                                                                       45250021
 0029DA                             4740 BSTART DS      0H                                                       45260021
 0029DA 5870 9208      00208        4741        L     RW2,IDENTL                                                 45270021
 0029DE 47F0 8F5E      027E6        4742        BC    UNCOND,BIN010         LATER PUNCH RLD                      45280021
                                    4743 *                                                                       45290021
                                    4744 *                                                                       45300021
                                    4745 *=1      ADCON GN=                                                      45310021
 0029E2                             4746 BGN      DS    0H                                                       45320021
 0029E2 D201 D314 4003 040AC 00003  4747          MVC   C6WRK0(LX2),A6RAN                                        45330021
 0029E8 4860 D314      040AC        4748        LH    RW1,C6WRK0                                                 45340021
 0029EC 58F0 C4F0      03B80        4749        L     R15,AGETPN                                                 45350021
                             051BE  4750        USING GETPN,R15                                                  45360021
 0029F0 45E0 F038      051F6        4751        BAL   RS1,GETGN             GET GN NUMBER                        45370021
                                    4752        DROP  R15                                                        45380021
 0029F4 4960 915E      0015E        4753        CH    RW1,GNCTR                                                  45390021
 0029F8 4740 A17C      02A04        4754        BC    LOW,BGN020            USE PN FOR PROCESSING                45400021
 0029FC 4B50 91C0      001C0        4755        SH    RW3,RGNCTR       USE REL GN= FOR LISTING                   45410021
 002A00 47F0 A05C      028E4        4756        BC    UNCOND,BPN010         PROCESS LIKE PN                      45420021
 002A04                             4757 BGN020 DS    0H                                                         45430021
 002A04 92D7 D7BC      04554        4758          MVI   OU6OPD+NX2,PEE      CHANGE SYMBOLIC TO PN                45440021
 002A08 47F0 A05C      028E4        4759        BC    UNCOND,BPN010         PROCESS LIKE PN                      45450021

1PH60     IKFCBL60                                                                                              PAGE  111
-  LOC  OBJECT CODE    ADDR1 ADDR2  STMT   SOURCE STATEMENT                                       ASM 0201 11.03 02/14/15
0                                   4761 *                                                                       45470021
                                    4762 *=1    ADCON VIRTUAL                                                    45480021
                                    4763 *                                                                       45490021
 002A0C                             4764 BVIRT  DS    0H                                                         45500021
 002A0C 47F0 8240      01AC8        4765        BC    UNCOND,SE6080         GET NEXT ELT                         45510021
                                    4766 *                                                                       45520021
                                    4767 *=1    ADCON VNLOC                                                      45530021
 002A10                             4768 BVNLOC DS    0H                                                         45540021
 002A10 4870 9226      00226        4769        LH    RW2,VNLOC                                                  45550021
 002A14 5A70 921C      0021C        4770        A     RW2,RELLOC                                                 45560021
 002A18 47F0 8F5E      027E6        4771        BC    UNCOND,BIN010         LATER PUNCH RLD                      45570021
                                    4772 *                                                                       45580021
                                    4773 *=1    ADCON VNILOC                                                     45590021
 002A1C                             4774 BVNIL  DS    0H                                                         45600021
 002A1C 4870 9224      00224        4775        LH    RW2,VNILOC                                                 45610021
 002A20 5A70 D048      03DE0        4776        A     RW2,LOCPGT                                                 45620021
 002A24 47F0 8F5E      027E6        4777        BC    UNCOND,BIN010         LATER PUNCH RLD                      45630021
                                    4778 *                                                                       45640021
                                    4779 *   PROCESS AN EXTERNAL ADSCON,TYPE=68                                  45650021
                                    4780 *                                                                       45660021
                             02A28  4781 EXTADC EQU   *                                                          45670021
 002A28 4860 D068      03E00        4782        LH    RW1,ESDID            GET ESD VALUE                         45680021
 002A2C 4166 0001      00001        4783          LA    RW1,DX1(RW1)        STEP UP                              45690021
 002A30 4060 D068      03E00        4784        STH   RW1,ESDID                                                  45700021
 002A34 4100 0002      00002        4785          LA    R0,ESDTYP2          SPECIFY ESDTYPE 2                    45710021
 002A38 4110 D108      03EA0        4786        LA    R1,SEGNSA            GET SEGM NAME ADDR                    45720021
 002A3C 58F0 C454      03AE4        4787        L     R15,AESD                                                   45730021
 002A40 05EF                        4788        BALR  RS1,R15              PUNCH ESD TYPE 2 CARD                 45740021
                                    4789 *   PUNCH TEXT OF ZEROS FOR EXTERNAL REF                                45750021
 002A42 4110 C37D      03A0D        4790        LA    R1,ZERO7X            GET ADDR OF ZERO TEXT                 45760021
 002A46 4100 0004      00004        4791          LA    R0,FOURBYTE         SPECIFY LENGTH                       45770021
 002A4A 5870 9148      00148        4792        L     RW2,LOCCTR           SAVE LOC CTR FOR RLD                  45780021
 002A4E 58F0 C46C      03AFC        4793        L     R15,ATXPNH                                                 45790021
 002A52 05EF                        4794        BALR  RS1,R15              PUNCH 4 BYTES OF ZEROS                45800021
                                    4795 *   PUNCH RLD CARD                                                      45810021
 002A54 1817                        4796        LR    R1,RW2               SPECIFY LOC OF ADCON                  45820021
 002A56 5010 9148      00148        4797        ST    R1,LOCCTR             RESTORE LOC CTR                      45830021
 002A5A 4100 000C      0000C        4798        LA    R0,X'0C'              FLAG BYTE(NON-BRANCH VCON)           45840021
 002A5E 58F0 C490      03B20        4799        L     R15,ARLD                                                   45850021
 002A62 05EF                        4800        BALR  RS1,R15              PUNCH RLD CARD                        45860021
 002A64 9680 D0F9      03E91        4801          OI    SEGSW2,RLDPNCHD     RLD ALREADY PUNCHED                  45870021
 002A68 47F0 8F5C      027E4        4802        B     BINIT1               ASSEMBLE ADCON                        45880021
1PH60     IKFCBL60                                                                                              PAGE  112
-  LOC  OBJECT CODE    ADDR1 ADDR2  STMT   SOURCE STATEMENT                                       ASM 0201 11.03 02/14/15
0                                   4804 *                                                                       45900021
                                    4805 *      RELADR FOUND-CREATE ADCON                                        45910021
                                    4806 *      CREATE A DC CONSISTING OF, OPTIONALLY, A BASE CODE, AND A        45920021
                                    4807 *      3-BYTE DISPLACEMENT OF INDICATED ITEM FROM APPROPRIATE           45930021
                                    4808 *      GLOBAL TABLE                                                     45940021
                                    4809 *      GLOBAL TABLE INDICATED BY BASE CODE  0C=PGT                      45950021
                                    4810 *                                           0D=TGT                      45960021
                                    4811 *      USE DCDEF CODING AFTER SETTING UP DC                             45970021
                                    4812 *                                                                       45980021
 002A6C                             4813 MAC065 DS    0H                                                         45990021
 002A6C 91FF 4002      00002        4814          TM    A6CSB,ALLON                                              46000021
 002A70 4770 A316      02B9E        4815        BC    NOTZER,CALCBC         BASE CODE                            46010021
 002A74 9203 D2D0      04068        4816          MVI   CSDCWA,XX03                                              46020021
 002A78 4150 D2D1      04069        4817          LA    RW3,CSDCWA+NX1                                           46030021
 002A7C 952C 4001      00001        4818        CLI   A6CST,CSLIT                                                46040021
 002A80 4780 A32E      02BB6        4819        BC    EQ,CSL020             TYPE=LITERAL                         46050021
 002A84                             4820 MACA65 DS    0H                                                         46060021
 002A84 D201 D314 4003 040AC 00003  4821          MVC   C6WRK0(LX2),A6CSN                                        46070021
 002A8A 4870 D314      040AC        4822        LH    RW2,C6WRK0                                                 46080021
 002A8E 0670                        4823          BCTR  RW2,R0              SUBTRACT 1                           46090021
 002A90 9564 4001      00001        4824        CLI   A6CST,CSTS                                                 46100021
 002A94 4780 A368      02BF0        4825        BC    EQ,CST010             TEMPORARY STORAGE                    46110021
 002A98 951C 4001      00001        4826        CLI   A6CST,CSVLCI                                               46120021
 002A9C 4780 A360      02BE8        4827        BC    EQ,CSV010             VLC TYPE I                           46130021
 002AA0 9520 4001      00001        4828        CLI   A6CST,CSVLCO                                               46140021
 002AA4 4780 A360      02BE8        4829        BC    EQ,CSV010             VLC TYPE O                           46150021
 002AA8 8970 0002      00002        4830          SLL   RW2,DX2                                                  46160021
 002AAC                             4831 MACB65 DS    0H                                                         46170021
 002AAC 9560 4001      00001        4832        CLI   A6CST,CSSUB                                                46180021
 002AB0 4780 A378      02C00        4833        BC    EQ,CSS010             CALLING SEQ SUBADDR                  46190021
 002AB4 1B66                        4834        SR    RW1,RW1                                                    46200021
 002AB6 4360 4001      00001        4835        IC    RW1,A6CST                                                  46210021
 002ABA 4406 C3F4      03A84        4836          EX    R0,CSTBL-NX4(RW1)                                        46220021
 002ABE 5866 C420      03AB0        4837          L     RW1,CSCON-NX4(RW1)                                       46230021
 002AC2 5060 D314      040AC        4838        ST    RW1,C6WRK0                                                 46240021
 002AC6 D203 D7D0 D314 04568 040AC  4839          MVC   OU6SO1(LX4),C6WRK0                                       46250021
 002ACC                             4840 MACE65 DS    0H                                                         46260021
 002ACC D201 D314 4003 040AC 00003  4841          MVC   C6WRK0(LX2),A6CSN                                        46270021
 002AD2 4860 D314      040AC        4842        LH    RW1,C6WRK0                                                 46280021
 002AD6                             4843 MACC65 DS    0H                                                         46290021
 002AD6 4070 D314      040AC        4844        STH   RW2,C6WRK0                                                 46300021
 002ADA D201 5001 D314 00001 040AC  4845          MVC   DX1(LX2,RW3),C6WRK0                                      46310021
 002AE0 9200 5000      00000        4846          MVI   DX0(RW3),INITOFF                                         46320021
 002AE4 1815                        4847        LR    R1,RW3                                                     46330021
 002AE6 9140 91A3      001A3        4848        TM    PHZSW,NOLIST                                               46340021
 002AEA 4780 A278      02B00        4849        BC    ZERO,CREATD           NOLIST, SKIP CODING                  46350021
 002AEE 58F0 C468      03AF8        4850        L     R15,AS6200                                                 46360021
                             04A5E  4851        USING S6200,R15                                                  46370021
 002AF2 45E0 F004      04A62        4852        BAL   RS1,S6210             CONVERT                              46380021
                                    4853        DROP  R15                                                        46390021
 002AF6 D200 D7D4 D31B 0456C 040B3  4854          MVC   OU6SO1+NX4,C6WRK4                                        46400021
 002AFC 4157 D7D5      0456D        4855          LA    RW3,OU6SO1+NX5(RW2)                                      46410021
 002B00                             4856 CREATD DS    0H                                                         46420021
 002B00 4160 8246      01ACE        4857      LA      RW1,SE6020                                                 46430021
 002B04 5060 D0C0      03E58        4858        ST    RW1,RETADC                                                 46440021
1PH60     IKFCBL60                                                                                              PAGE  113
-  LOC  OBJECT CODE    ADDR1 ADDR2  STMT   SOURCE STATEMENT                                       ASM 0201 11.03 02/14/15
0002B08 58F0 C458      03AE8        4859        L     R15,AGET             EXAMINE NEXT ELEMENT                  46450021
 002B0C 05EF                        4860        BALR  RS1,R15               GET NEXT ELT                         46460021
 002B0E 9550 D308      040A0        4861        CLI   GOTCOD,PLUS          IS IT PLUS                            46470021
 002B12 4770 A2E8      02B70        4862        BC    NOTEQ,KAR020         NO                                    46480021
 002B16 4160 8240      01AC8        4863      LA      RW1,SE6080                                                 46490021
 002B1A 5060 D0C0      03E58        4864        ST    RW1,RETADC                                                 46500021
 002B1E D202 D315 4001 040AD 00001  4865          MVC   C6WRK0+NX1(LX3),A6PLIN                                   46510021
 002B24 9200 D314      040AC        4866          MVI   C6WRK0,INITOFF      ASSUME POSITIVE                      46520021
 002B28 9180 4001      00001        4867          TM    A6PLIN,HION                                              46530021
 002B2C 4780 A2AC      02B34        4868        BC    ZERO,KAR010           KEEP POSITIVE                        46540021
 002B30 92FF D314      040AC        4869          MVI   C6WRK0,ALLON        NEGATIVE                             46550021
 002B34                             4870 KAR010 DS    0H                                                         46560021
 002B34 5870 D314      040AC        4871        L     RW2,C6WRK0                                                 46570021
 002B38 D201 D314 1001 040AC 00001  4872          MVC   C6WRK0(LX2),DX1(R1)                                      46580021
 002B3E 4A70 D314      040AC        4873        AH    RW2,C6WRK0                                                 46590021
 002B42 4070 D314      040AC        4874        STH   RW2,C6WRK0                                                 46600021
 002B46 D201 1001 D314 00001 040AC  4875          MVC   DX1(LX2,R1),C6WRK0                                       46610021
 002B4C 9140 91A3      001A3        4876        TM    PHZSW,NOLIST                                               46620021
 002B50 4780 A2E8      02B70        4877        BC    ZERO,KAR020           NOLIST, SKIP CODING                  46630021
 002B54 924E 5000      00000        4878          MVI   DX0(RW3),PLUSSIGN                                        46640021
 002B58 D201 D314 4002 040AC 00002  4879          MVC   C6WRK0(LX2),A6PLIN+NX1                                   46650021
 002B5E 4860 D314      040AC        4880        LH    RW1,C6WRK0                                                 46660021
 002B62 58F0 C468      03AF8        4881        L     R15,AS6200                                                 46670021
                             04A5E  4882        USING S6200,R15                                                  46680021
 002B66 45E0 F004      04A62        4883        BAL   RS1,S6210             CONVERT                              46690021
                                    4884        DROP  R15                                                        46700021
 002B6A D200 5001 D31B 00001 040B3  4885          MVC   DX1(LX0,RW3),C6WRK4                                      46710021
 002B70                             4886 KAR020 DS    0H                                                         46720021
 002B70 D201 D2E8 D070 04080 03E08  4887          MVC   PNBSVG(LX2),GETLEN                                       46730021
 002B76 5040 D2E0      04078        4888        ST    INPUTR,PNBSAV                                              46740021
 002B7A 4140 D2CF      04067        4889          LA    INPUTR,CSDCWA-NX1                                        46750021
 002B7E 45E0 8DBA      02642        4890        BAL   RS1,MAC092            DO DC COMMON CODE                    46760021
 002B82 5840 D2E0      04078        4891        L     INPUTR,PNBSAV                                              46770021
 002B86 D201 D070 D2E8 03E08 04080  4892          MVC   GETLEN(LX2),PNBSVG                                       46780021
 002B8C 5860 D0C0      03E58        4893        L     RW1,RETADC                                                 46790021
 002B90 07F6                        4894        BCR   UNCOND,RW1            RETURN                               46800021
 002B92                             4895 CSBLO  DS    0H                                                         46810021
 002B92 922C 4001      00001        4896          MVI   A6CST,XX2C      DUMMY TYPE TO FIT IN TABLE SINCE LITE    46820021
                                    4897 *                             NOT TESTED AFTER THIS TIME                46830021
 002B96 920B D2D1      04069        4898          MVI   CSDCWA+NX1,XX0B                                          46840021
 002B9A 47F0 A1FC      02A84        4899          BC    UNCOND,MACA65       GO TO COMMON ADCON PROCESS           46850021
 002B9E                             4900 CALCBC DS    0H                                                         46860021
 002B9E 9204 D2D0      04068        4901          MVI   CSDCWA,XX04                                              46870021
 002BA2 4150 D2D2      0406A        4902          LA    RW3,CSDCWA+NX2                                           46880021
 002BA6 920D D2D1      04069        4903          MVI   CSDCWA+NX1,XX0D                                          46890021
 002BAA 952C 4001      00001        4904        CLI   A6CST,CSLIT                                                46900021
 002BAE 4770 A1FC      02A84        4905          BC    NOTEQ,MACA65        GO TO COMMON ADCON PROCESS           46910021
 002BB2 920C D2D1      04069        4906          MVI   CSDCWA+NX1,XX0C                                          46920021
 002BB6                             4907 CSL020 DS    0H                                                         46930021
 002BB6 5810 C690      03D20        4908        L     R1,ALTLTB                                                  46940021
 002BBA 58F0 C4AC      03B3C        4909        L     R15,ATABLE                                                 46950021
 002BBE 05EF                        4910        BALR  RS1,R15               GET TABLE ADDR AND SIZE              46960021
 002BC0 D201 D06E 4003 03E06 00003  4911          MVC   LTRFCT,A6CSN       GET LITERAL NO.                  LITS 46970021
 002BC6 4860 D06E      03E06        4912        LH    RW1,LTRFCT                                                 46980021
 002BCA 0660                        4913          BCTR  RW1,R0              DECREMENT LITERAL NO FOR INDEX       46990021
1PH60     IKFCBL60                                                                                              PAGE  114
-  LOC  OBJECT CODE    ADDR1 ADDR2  STMT   SOURCE STATEMENT                                       ASM 0201 11.03 02/14/15
0002BCC 8960 0001      00001        4914          SLL   RW1,DX1                                                  47000021
 002BD0 4876 1000      00000        4915          LH    RW2,DX0(RW1,R1) DISP                                     47010021
 002BD4 5470 D078      03E10        4916          N     RW2,HWFS                MASK OUT HI ORDER 16 BITS  53557 47020021
 002BD8 1867                        4917        LR    RW1,RW2                                                    47030021
 002BDA 4B60 9164      00164        4918        SH    RW1,LTLCTR                                                 47040021
 002BDE D203 D7D0 C3E8 04568 03A78  4919          MVC   OU6SO1(LX4),XLITC                                        47050021
 002BE4 47F0 A24E      02AD6        4920        BC    UNCOND,MACC65         CREATE ADCON                         47060021
 002BE8                             4921 CSV010 DS    0H                                                         47070021
 002BE8 8970 0001      00001        4922          SLL   RW2,DX1                                                  47080021
 002BEC 47F0 A224      02AAC        4923        BC    UNCOND,MACB65         CREATE ADCON                         47090021
 002BF0                             4924 CST010 DS    0H                                                         47100021
 002BF0 1867                        4925        LR    RW1,RW2                                                    47110021
 002BF2 4A70 9168      00168        4926        AH    RW2,TSMAX                                                  47120021
 002BF6 D203 D7D0 C3F0 04568 03A80  4927          MVC   OU6SO1(LX4),XTSC                                         47130021
 002BFC 47F0 A24E      02AD6        4928        BC    UNCOND,MACC65         CREATE ADCON                         47140021
 002C00                             4929 CSS010 DS    0H                                                         47150021
 002C00 4A70 9228      00228        4930        AH    RW2,SUBCTR                                                 47160021
 002C04 D203 D7D0 C3F4 04568 03A84  4931          MVC   OU6SO1(LX4),XSUBC                                        47170021
 002C0A 47F0 A244      02ACC        4932        BC    UNCOND,MACE65         CREATE ADCON                         47180021
1PH60     IKFCBL60                                                                                              PAGE  115
-  LOC  OBJECT CODE    ADDR1 ADDR2  STMT   SOURCE STATEMENT                                       ASM 0201 11.03 02/14/15
0002C0E                             4934 KAR021 DS    0H                   PROCESS GO TO DPNG ON STRING          47200021
 002C0E 9202 D2D0      04068        4935          MVI   CSDCWA,TWOBYTE      LENGTH OF DC                         47210021
 002C12 D201 D314 4002 040AC 00002  4936          MVC   C6WRK0(LX2),A6PNNO                                       47220021
 002C18 4860 D314      040AC        4937        LH    RW1,C6WRK0                                                 47230021
 002C1C 58F0 C4F0      03B80        4938        L     R15,AGETPN                                                 47240021
 002C20 05EF                        4939        BALR  RS1,R15               GET PN NUMBER                        47250021
 002C22 4780 8A7A      02302        4940        BC    ZERO,ERR040          REL PN NUMBER ON RETURN               47260021
                                    4941 *                                                                       47270021
 002C26 9180 91A4      001A4        4942        TM    PHZSW1,XREF           IS XREF SPECIFIED                    47280021
 002C2A 4780 A3BE      02C46        4943        BC    ZERO,KAR022           NO,BR                                47290021
 002C2E 95FF D3D9      04171        4944          CLI   RGNSW,RGNINIT       ARE WE PROCESSING INIT CODE          47300021
 002C32 4780 A3BE      02C46        4945          BC    EQ,KAR022     YES, DON'T PRODUCE XREF ELEMEMT            47310021
 002C36 9101 D3D5      0416D        4946          TM    QRTNSW,QRTNON       ARE WE PROCESSING QRTNS              47320021
 002C3A 4710 A3BE      02C46        4947          BC    ONES,KAR022         YES, DON'T PRODUCE XREF ELEMENT      47330021
 002C3E 9200 D314      040AC        4948          MVI   C6WRK0,INITOFF                                           47340021
 002C42 45E0 8470      01CF8        4949        BAL   RS1,R63179            WRITE PN REF ELMT                    47350021
 002C46                             4950 KAR022 DS    0H                                                         47360021
 002C46 1865                        4951        LR    RW1,RW3                                                    47370021
 002C48 0650                        4952          BCTR  RW3,R0              SUBTRACT 1                           47380021
 002C4A D203 D7D0 C3D8 04568 03A68  4953          MVC   OU6SO1(LX4),XPNC                                         47390021
 002C50 4050 D314      040AC        4954        STH   RW3,C6WRK0                                                 47400021
 002C54 D201 D2D1 D314 04069 040AC  4955          MVC   CSDCWA+NX1(LX2),C6WRK0                                   47410021
 002C5A 58F0 C468      03AF8        4956        L     R15,AS6200                                                 47420021
                             04A5E  4957        USING S6200,R15                                                  47430021
 002C5E 45E0 F004      04A62        4958        BAL   RS1,S6210             CONVERT                              47440021
                                    4959        DROP  R15                                                        47450021
 002C62 D200 D7D4 D31B 0456C 040B3  4960          MVC   OU6SO1+NX4(LX0),C6WRK4                                   47460021
 002C68 D201 D2E8 D070 04080 03E08  4961          MVC   PNBSVG(LX2),GETLEN                                       47470021
 002C6E 5040 D2E0      04078        4962        ST    INPUTR,PNBSAV                                              47480021
 002C72 4140 D2CF      04067        4963          LA    INPUTR,CSDCWA-NX1                                        47490021
 002C76 45E0 8DBA      02642        4964        BAL   RS1,MAC092            DO DC COMMON CODE                    47500021
 002C7A 5840 D2E0      04078        4965        L     INPUTR,PNBSAV                                              47510021
 002C7E D201 D070 D2E8 03E08 04080  4966          MVC   GETLEN(LX2),PNBSVG                                       47520021
 002C84 47F0 8240      01AC8        4967        BC    UNCOND,SE6080         GET NEXT ELT                         47530021
1PH60     IKFCBL60                                                                                              PAGE  116
-  LOC  OBJECT CODE    ADDR1 ADDR2  STMT   SOURCE STATEMENT                                       ASM 0201 11.03 02/14/15
0                                   4969 *                                                                       47550021
                                    4970 *                                                                       47560021
                                    4971 *  CALLING SEQUENCE DICTIONARY POINTER                                  47570021
                                    4972 *                                                                       47580021
                                    4973 *                                                                       47590021
 002C88                             4974 MAC066 DS    0H                                                         47600021
 002C88 41E0 8240      01AC8        4975          LA    RS1,SE6080             PICK UP RETURN REG          8953  47610021
 002C8C                             4976 MAC066A  DS    0H                                                 8953  47620021
 002C8C 9180 91A4      001A4        4977        TM    PHZSW1,XREF           IS XREF SPECIFIED                    47630021
 002C90 078E                        4978          BCR   ZERO,RS1            NO, BRANCH                     8953  47640021
 002C92 95FF D3D9      04171        4979          CLI   RGNSW,RGNINIT       ARE WE PROCESSING INIT CODE          47650021
 002C96 078E                        4980          BCR   EQ,RS1              YES,NO XREF                    8953  47660021
 002C98 9101 D3D5      0416D        4981          TM    QRTNSW,QRTNON       ARE WE PROCESSING QRTNS              47670021
 002C9C 071E                        4982          BCR   ONES,RS1            YES,NO XREF                    8953  47680021
 002C9E D502 4001 C08C 00001 0371C  4983          CLC   A6CSPT(LX3),C6FFF    IS THIS A TALLY REF                 47690021
 002CA4 078E                        4984          BCR   EQ,RS1              YES,NO XREF                    8953  47700021
 002CA6 D202 D314 4001 040AC 00001  4985          MVC   C6WRK0(LX3),A6CSPT   GET SUBSCR DN DICT PTR              47710021
 002CAC 947F D0FA      03E92        4986 MAC067   NI    XFCDNO,XX7F             TURN OFF HI BIT             0657 47720021
 002CB0 50E0 D330      040C8        4987          ST    RS1,SAVERS1                                        8953  47730021
 002CB4 45E0 847A      01D02        4988          BAL   RS1,R63180          GO WRITE DN REF TST            8953  47740021
 002CB8 58E0 D330      040C8        4989          L     RS1,SAVERS1                                        8953  47750021
 002CBC 07FE                        4990           BR    RS1               GET NEXT ELT OR FINISH 64 ELT   8953  47760021
                                    4991 *                                                                       47770021
                                    4992 *        FILE REF ELEMENT(B8)                                           47780021
                                    4993 *                                                                       47790021
                                    4994 *      FORMAT     //B8 DDDDDD//                                         47800021
                                    4995 *                                                                       47810021
 002CBE                             4996 MAC068 DS    0H                                                         47820021
 002CBE 9180 91A4      001A4        4997        TM    PHZSW1,XREF           IS XREF REQUESTED                    47830021
 002CC2 4780 8240      01AC8        4998        BC    ZERO,SE6080           NO,BR                                47840021
 002CC6 95FF D3D9      04171        4999          CLI   RGNSW,RGNINIT       ARE WE PROCESSING INIT CODE          47850021
 002CCA 4780 8240      01AC8        5000          BC    EQ,SE6080     YES, DON'T PRODUCE XREF ELEMEMT            47860021
 002CCE 9101 D3D5      0416D        5001          TM    QRTNSW,QRTNON       ARE WE PROCESSING QRTNS              47870021
 002CD2 4710 8240      01AC8        5002          BC    ONES,SE6080         YES, DON'T PRODUCE XREF ELEMENT      47880021
 002CD6 D202 D314 4001 040AC 00001  5003          MVC   C6WRK0(LX3),A6FLDP   YES,GET DICTIONARY POINTER          47890021
 002CDC 41E0 8240      01AC8        5004          LA    RS1,SE6080        SET RS1 FOR SAVE ABOVE           8953  47900021
 002CE0 47F0 A424      02CAC        5005        B     MAC067                WRITE A FILE REF ELMT FOR PHASE      47910021
1PH60     IKFCBL60                                                                                              PAGE  117
-  LOC  OBJECT CODE    ADDR1 ADDR2  STMT   SOURCE STATEMENT                                       ASM 0201 11.03 02/14/15
0                                   5007 *                                                                       47930021
                                    5008 *=1    RESERVE  SET REG 14 OR 15 RESERVED BY PHASE 5, SET DESTROYED     47940021
 002CE4                             5009 MAC100 DS    0H                                                         47950021
 002CE4 4570 A494      02D1C        5010        BAL   RW2,GETREG            GET REG 14 OR 15 USING GET           47960021
 002CE8 4770 A46C      02CF4        5011        BC    NOTEQ,MAC102          R15                                  47970021
 002CEC 9601 D28C      04024        5012        OI    STAT14,AVAIL5                                              47980021
 002CF0 47F0 8D9E      02626        5013          BC    UNCOND,MAC028           DO BLCHNG                  8307  47990021
 002CF4 9601 D290      04028        5014 MAC102 OI    STAT15,AVAIL5                                              48000021
 002CF8 47F0 8D94      0261C        5015          BC    UNCOND,MAC026           DO BLCHNG                  8307  48010021
0
                                    5017 *=1    DESTROY  SET REG 14 OR 15 DESTROYED                              48030021
 002CFC                             5018 MAC120 DS    0H                                                         48040021
 002CFC 4570 A494      02D1C        5019        BAL   RW2,GETREG            GET R14/R15 USING GET RTN            48050021
 002D00 47F0 8D90      02618        5020        BC    UNCOND,MAC025         DO BLCHNG (CC=0/R14,1/R15,2/R?       48060021
0
                                    5022 *=1    FREE     SET REG 14 OR 15 FREE                                   48080021
 002D04                             5023 MAC110 DS    0H                                                         48090021
 002D04 4570 A494      02D1C        5024        BAL   RW2,GETREG            GET R14/R15                          48100021
 002D08 4770 A48C      02D14        5025        BC    NOTEQ,MAC112          R15                                  48110021
 002D0C 94FE D28C      04024        5026        NI    STAT14,YAVAL5                                              48120021
 002D10 47F0 8240      01AC8        5027        BC    UNCOND,SE6080         GET NEXT ELT                         48130021
 002D14                             5028 MAC112 DS    0H                                                         48140021
 002D14 94FE D290      04028        5029        NI    STAT15,YAVAL5                                              48150021
 002D18 47F0 8240      01AC8        5030        BC    UNCOND,SE6080         GET NEXT ELT                         48160021
0
 002D1C 58F0 C458      03AE8        5032 GETREG L     R15,AGET                                                   48180021
 002D20 05EF                        5033        BALR  RS1,R15               GET ELT R14/R15                      48190021
 002D22 4360 4001      00001        5034        IC    RW1,A6REGR                                                 48200021
 002D26 5460 C004      03694        5035        N     RW1,C6M2                                                   48210021
 002D2A 4960 C07A      0370A        5036        CH    RW1,C6H14             REG GOTTEN : R14 CC=0/R14,1/15       48220021
 002D2E 07F7                        5037          BCR   UNCOND,RW2          RETURN TO BR ON CONDIT CODE          48230021
1PH60     IKFCBL60                                                                                              PAGE  118
-  LOC  OBJECT CODE    ADDR1 ADDR2  STMT   SOURCE STATEMENT                                       ASM 0201 11.03 02/14/15
0                                   5039 *=1    INIT--LOAD PERMANENT REGISTER ASSIGNMENTS                        48250021
 002D30                             5040 MAC130 DS    0H                                                         48260021
 002D30 58F0 C508      03B98        5041        L     R15,AINITR                                                 48270021
 002D34 05EF                        5042        BALR  RS1,R15               GEN LOAD PERMANENT REG ASSIGND       48280021
 002D36 47F0 8240      01AC8        5043        BC    UNCOND,SE6080         GET NEXT ELT                         48290021
0
                                    5045 *=1    BEGINNING OF Q-RTNES - DESTROY REGISTER ASSIGNMENTS              48310021
 002D3A                             5046 MAC140 DS    0H                                                         48320021
 002D3A 9601 D3D5      0416D        5047          OI    QRTNSW,QRTNON       WE ARE PROCESSING Q-RTNS             48330021
 002D3E 4160 D276      0400E        5048        LA    RW1,CELL06                                                 48340021
 002D42 4170 D292      0402A        5049        LA    RW2,CELL15                                                 48350021
 002D46 1B55                        5050        SR    RW3,RW3                                                    48360021
 002D48 1967                        5051 MAC142 CR    RW1,RW2                                                    48370021
 002D4A 4720 8240      01AC8        5052        BC    HI,SE6080             ALL DONE DESTROYING REGS GET         48380021
 002D4E 4056 0000      00000        5053          STH   RW3,DX0(RW1)                                             48390021
 002D52 4166 0004      00004        5054          LA    RW1,DX4(RW1)                                             48400021
 002D56 47F0 A4C0      02D48        5055          BC    UNCOND,MAC142       LOOP TO CHECK IF DONE                48410021
1PH60     IKFCBL60                                                                                              PAGE  119
-  LOC  OBJECT CODE    ADDR1 ADDR2  STMT   SOURCE STATEMENT                                       ASM 0201 11.03 02/14/15
0                                   5057 *=1    ORIGIN - SAVE CURRENT LOCCTR, SET LOCCTR TO GN LOC               48430021
 002D5A 5860 9148      00148        5058 MAC150 L     RW1,LOCCTR                                                 48440021
 002D5E 5060 D050      03DE8        5059        ST    RW1,LOCORG       SAVE LOCCTR                               48450021
 002D62 58F0 C458      03AE8        5060        L     R15,AGET                                                   48460021
 002D66 05EF                        5061        BALR  RS1,R15               GET ELT                              48470021
 002D68 D201 D314 4001 040AC 00001  5062          MVC   C6WRK0(LX2),A6GNNO                                       48480021
 002D6E 4860 D314      040AC        5063        LH    RW1,C6WRK0                                                 48490021
 002D72 58F0 C4F0      03B80        5064        L     R15,AGETPN                                                 48500021
                             051BE  5065        USING GETPN,R15         GET RESOLVED PN OR GN NUMBER             48510021
 002D76 45E0 F038      051F6        5066        BAL   RS1,GETGN         RW1 CONTAINS LOC IN PGT                  48520021
                                    5067        DROP  R15                                                        48530021
 002D7A 5A60 D048      03DE0        5068        A     RW1,LOCPGT                                                 48540021
 002D7E 58F0 C49C      03B2C        5069        L     R15,ASRCRL                                                 48550021
 002D82 05EF                        5070        BALR  RS1,R15            SEARCH RLDTBL                           48560021
 002D84 5960 C058      036E8        5071        C     RW1,C6F0                                                   48570021
 002D88 58F0 C458      03AE8        5072        L     R15,AGET                                                   48580021
 002D8C 05EF                        5073        BALR  RS1,R15               GET ELT                              48590021
 002D8E 9550 D308      040A0        5074        CLI   GOTCOD,PLUS                                                48600021
 002D92 4770 8A7A      02302        5075        BC    NOTEQ,ERR040          NOT PLUS, PH6 ERROR                  48610021
 002D96 D201 D314 4002 040AC 00002  5076          MVC   C6WRK0(LX2),A6PLIN+NX1  ONLY LAST 2 BYTES                48620021
 002D9C 4A60 D314      040AC        5077        AH    RW1,C6WRK0                                                 48630021
 002DA0 5060 9148      00148        5078        ST    RW1,LOCCTR       NEW LOCCTR                                48640021
 002DA4 47F0 8240      01AC8        5079          BC    UNCOND,SE6080       GET NEXT ELT                         48650021
-
                                    5081 *=1    REORIGIN - RESTORE LOCCTR                                        48670021
 002DA8 5860 D050      03DE8        5082 MAC160 L     RW1,LOCORG                                                 48680021
 002DAC 5060 9148      00148        5083        ST    RW1,LOCCTR                                                 48690021
 002DB0 47F0 8240      01AC8        5084          BC    UNCOND,SE6080       GET NEXT ELT                         48700021
                                    5085 *=1    SEGMENT INITIALIZATION                                           48710021
 002DB4 5810 C6D0      03D60        5086 MAC180 L     R1,AVNPTY             GET PARLIST ADDR                     48720021
 002DB8 58F0 C4AC      03B3C        5087        L     R15,ATABLE       GET VNPTY TB ADDR                         48730021
 002DBC 05EF                        5088        BALR  RS1,R15          UPON RETURN-R1=STARTING ADDR,R2=SIZE      48740021
 002DBE 1222                        5089        LTR   R2,R2            ANY ENTRIES IN VNPTY TBL                  48750021
 002DC0 4780 A59C      02E24        5090          BC    ZERO,MAC186         NO - PROCESS NEXT A-TEXT ELT         48760021
 002DC4 1861                        5091        LR    RW1,R1           GET VNPTY TBL ADDR                        48770021
 002DC6 1B00                        5092        SR    R0,R0            INITIALIZE 1ST TIME FOUND SWITCH          48780021
 002DC8 1B77                        5093        SR    RW2,RW2          INITIALIZE POSITION COUNTER               48790021
 002DCA 1B55                        5094        SR    RW3,RW3          INITIALIZE CTR OF ENTRIES OF EQUAL PT     48800021
                                    5095 *                                                                       48810021
                                    5096 *  SEARCH VNPTY TBL AND COMPUTE POSITION OF ENTRIES OF DESIRED PTY      48820021
                                    5097 *                                                                       48830021
 002DCC 41F1 2000      00000        5098 MAC182   LA    R15,DX0(R1,R2)       END OF TBL ADDR                     48840021
 002DD0 196F                        5099        CR    RW1,R15               HAS END OF TBL BEEN REACHED          48850021
 002DD2 47B0 A582      02E0A        5100        BC    NOTLO,MAC184     YES,BR                                    48860021
 002DD6 D500 4002 6000 00002 00000  5101          CLC   A6MAPR(LX1),DX0(RW1) IS PTY EQUAL TO PTY OF SEGM BEING I 48870021
 002DDC D201 D316 6001 040AE 00001  5102          MVC   C6WRK0+NX2(LX2),DX1(RW1) SAVE VN #                       48880021
 002DE2 4177 0001      00001        5103          LA    RW2,DX1(RW2)    BUMP POSITION CTR                        48890021
 002DE6 4166 0003      00003        5104          LA    RW1,DX3(RW1)    POINT TO NEXT ENTRY IN VNPTY TBL         48900021
 002DEA 4770 A544      02DCC        5105          BC    NOTEQ,MAC182        BR, PRIORITIES NOT EQUAL             48910021
 002DEE 4155 0001      00001        5106          LA    RW3,DX1(RW3)    COUNT NO. OF ENTRIES OF EQUAL PTY        48920021
 002DF2 1200                        5107        LTR   R0,R0                 IS THIS 1ST MATCH                    48930021
 002DF4 4770 A544      02DCC        5108          BC    NOTEQ,MAC182        NO, BRANCH                           48940021
 002DF8 4100 0001      00001        5109          LA    R0,DX1               SET A SWITCH TO EXECUTE INSTR.      48950021
1PH60     IKFCBL60                                                                                              PAGE  120
-  LOC  OBJECT CODE    ADDR1 ADDR2  STMT   SOURCE STATEMENT                                       ASM 0201 11.03 02/14/15
0                                   5110 *                                  THAT FOLLOWS ONLY ONCE               48960021
 002DFC 4070 D314      040AC        5111        STH   RW2,C6WRK0            SAVE POSITION OF THIS ENTRY          48970021
 002E00 D201 A5B2 D316 02E3A 040AE  5112          MVC   POS1(LX2),C6WRK0+NX2  SPECIFY VN #                       48980021
 002E06 47F0 A544      02DCC        5113        B     MAC182                SEARCH FOR MORE ENTRIES              48990021
 002E0A 1255                        5114 MAC184 LTR   RW3,RW3               ANY VN'S FOR THIS SEGMENT            49000021
 002E0C 4780 A59C      02E24        5115          BC    EQ,MAC186           BR, NO VN'S                          49010021
 002E10 D201 A5B7 D314 02E3F 040AC  5116          MVC   POS2(LX2),C6WRK0                                         49020021
 002E16 8950 0002      00002        5117          SLL   RW3,DX2              GET LENGTH IN BYTES                 49030021
 002E1A 4170 A5AC      02E34        5118        LA    RW2,SEGTXT            GET ADDRESS OF INITIALIZE A-TXT      49040021
 002E1E 58F0 C4F4      03B84        5119        L     R15,ACODLU                                                 49050021
 002E22 05EF                        5120        BALR  RS1,R15               PROCESS INITIALIZE A-TXT             49060021
 002E24 4100 0003      00003        5121 MAC186   LA    R0,THREE            THREE BYTES                          49070021
 002E28 4000 D070      03E08        5122        STH   R0,GETLEN             THIS IS A 3-BYTE MACRO ELMNT         49080021
 002E2C 92FF D3DB      04173        5123          MVI   FGET,FGETNOT        CONTINUE WITH OLD BLK,REAL ATX       49090021
 002E30 47F0 8240      01AC8        5124        B     SE6080                PROCESS NEXT A-TXT EL                49100021
                                    5125 *  BEGINNING OF GROUP-SEGMENT INITIALIZATION  A-TEXT                    49110021
 002E34 48D200AC5400                5126 SEGTXT DC    X'48D200AC5400'       MOVE SEGMENT'S VN CELLS              49120021
 002E3A                             5127 POS1   DS    XL2                                                        49130021
 002E3C A89000                      5128        DC    X'A89000'                                                  49140021
 002E3F                             5129 POS2   DS    XL2                                                        49150021
 002E41 A800                        5130        DC    X'A800'                                                    49160021
                                    5131 *  END OF GROUP                                                         49170021
1PH60     IKFCBL60                                                                                              PAGE  121
-  LOC  OBJECT CODE    ADDR1 ADDR2  STMT   SOURCE STATEMENT                                       ASM 0201 11.03 02/14/15
0                                   5133 *=1    FOR PNBCD CREATE THE FOLLOWING IN-LINE                           49190021
                                    5134 *      DC    X'04'           LENGTH-1 OF CARD NUMBER                    49200021
                                    5135 *      DC    CL5'CARD NUMBER'                                           49210021
                                    5136 *                        FORMAT //3C// ( NO FIELDS)                     49220021
 002E44                             5137 PNBPRO DS    0H                                                         49230021
 002E44                             5138 PNB030 DS    0H                                                         49240021
 002E44 D201 D2E8 D070 04080 03E08  5139          MVC   PNBSVG(LX2),GETLEN                                       49250021
 002E4A 5040 D2E0      04078        5140        ST    INPUTR,PNBSAV                                              49260021
 002E4E 4140 D2AF      04047        5141          LA    INPUTR,PNBCDL-NX1                                        49270021
 002E52                             5142 PNB032 DS    0H                                                         49280021
 002E52 45E0 8DBA      02642        5143        BAL   RS1,MAC092            CREATE DC                            49290021
 002E56 5840 D2E0      04078        5144        L     INPUTR,PNBSAV                                              49300021
 002E5A D201 D070 D2E8 03E08 04080  5145          MVC   GETLEN(LX2),PNBSVG                                       49310021
                                    5146 *      INCREMENT LOCATION COUNTER IF ODD                                49320021
 002E60 5860 9148      00148        5147        L     RW1,LOCCTR                                                 49330021
 002E64 4166 0001      00001        5148          LA    RW1,DX1(RW1)                                             49340021
 002E68 8860 0001      00001        5149          SRL   RW1,DX1                                                  49350021
 002E6C 8960 0001      00001        5150          SLL   RW1,DX1                                                  49360021
 002E70 5060 9148      00148        5151        ST    RW1,LOCCTR                                                 49370021
 002E74 47F0 8240      01AC8        5152        BC    UNCOND,SE6080    GO TO GET MORE A-TEXT                     49380021
1PH60     IKFCBL60                                                                                              PAGE  122
-  LOC  OBJECT CODE    ADDR1 ADDR2  STMT   SOURCE STATEMENT                                       ASM 0201 11.03 02/14/15
0                                   5154 *                                                                       49400021
                                    5155 *=1    PROCESS ANY SPECIAL ELT NEEDED FOR INIT2 OR INIT3 CODING         49410021
                                    5156 *      FORMAT  //88 CC //                                               49420021
                                    5157 *      WHERE                                                            49430021
                                    5158 *            CC=01  CONTENTS VNCTR                                      49440021
                                    5159 *               03  ONCTL CELLS (PFMCTR-ONCTR)                          49450021
                                    5160 *               02  DECB CELLS (TSMAX-DECBCT)                           49460021
                                    5161 *               04  XSW CELLS (XSA-XSW)                                 49470021
                                    5162 *               05  PFMCTL CELLS (PSVCTR-PFMCTL)                        49480021
                                    5163 *               07  BL CELLS (DECBCT-BLCTR)                             49490021
                                    5164 *                                                                       49500021
                                    5165 *            IF HI-ORDER BIT=1 SUBTRACT 1                               49510021
                                    5166 *            VALUE TO BE PLACED IN C6RS (IMMEDIATE OR LENGTH FIELD)     49520021
                                    5167 *                                                                       49530021
 002E78                             5168 GENIMM DS    0H                                                         49540021
 002E78 4360 4001      00001        5169          IC    RW1,A6CODE+NX1  GET TYPE                                 49550021
 002E7C 5460 C020      036B0        5170        N     RW1,C6MA                                                   49560021
 002E80 8960 0002      00002        5171          SLL   RW1,DX2                                                  49570021
 002E84 4406 C5C8      03C58        5172          EX    R0,LATBL(RW1)                                            49580021
 002E88 4406 D95A      046F2        5173        EX    R0,SUBTBL(RW1)                                             49590021
 002E8C                             5174 GEN010 DS    0H                                                         49600021
 002E8C 9180 4001      00001        5175          TM    A6CODE+NX1,HION                                          49610021
 002E90 4780 A60E      02E96        5176        BC    ZERO,GEN020           DON'T NEED TO SUBTRACT 1             49620021
 002E94 0670                        5177        BCTR  RW2,R0                SUBTRACT 1, HI ORDER BIT=1           49630021
 002E96                             5178 GEN020 DS    0H                                                         49640021
 002E96 47F0 837C      01C04        5179        BC    UNCOND,R6242          GO PUT VALUE IN C6RS                 49650021
-
                                    5181 *                                                                       49670021
                                    5182 *      FORMAT //8C CC//                                                 49680021
                                    5183 *      WHERE                                                            49690021
                                    5184 *            CC=01  DISP OF INSTR=VNCTR  BASE=0                         49700021
                                    5185 *               02  DISP=TSMAX-DECBCT                                   49710021
                                    5186 *               03  DISP=PFMCTR-ONCTR                                   49720021
                                    5187 *               04  DISP=XSA-XSW                                        49730021
                                    5188 *               05  DISP=PSVCTR-PFMCTL                                  49740021
                                    5189 *               07  DISP=DECBCT-BLCTR                                   49750021
                                    5190 *                                                                       49760021
                                    5191 *                                                                       49770021
                                    5192 *            CREATE BDISP-LIKE ELT OF ABOVE COMPONENTS                  49780021
                                    5193 *            HI-ORDER BIT OF CC=1 AS ABOVE                              49790021
                                    5194 *                                                                       49800021
 002E9A                             5195 GENBD  DS    0H                                                         49810021
 002E9A 4360 4001      00001        5196          IC    RW1,A6CODE+NX1  TYPE                                     49820021
 002E9E 5460 C020      036B0        5197        N     RW1,C6MA                                                   49830021
 002EA2 8960 0002      00002        5198          SLL   RW1,DX2                                                  49840021
 002EA6 4406 C5C8      03C58        5199          EX    R0,LATBL(RW1)                                            49850021
 002EAA 4406 D95A      046F2        5200        EX    R0,SUBTBL(RW1)                                             49860021
 002EAE 1867                        5201        LR    RW1,RW2                                                    49870021
 002EB0 1B77                        5202        SR    RW2,RW2                                                    49880021
 002EB2 47F0 8370      01BF8        5203        BC    UNCOND,R6220          GO COMPLETE BDISP ELT                49890021
1PH60     IKFCBL60                                                                                              PAGE  123
-  LOC  OBJECT CODE    ADDR1 ADDR2  STMT   SOURCE STATEMENT                                       ASM 0201 11.03 02/14/15
0                                   5205 *                                                                       49910021
                                    5206 *      IDENTLOC ELT //9C//                                              49920021
                                    5207 *            FROM THIS ELEMENT CREATE FULL-WORD IN-LINE OF              49930021
                                    5208 *            DC     F'IDENTLOC'                                         49940021
                                    5209 *            PREVIOUS CODING WILL ALIGN PROPERLY                        49950021
 002EB6                             5210 GIDENL DS    0H                                                         49960021
 002EB6 9204 D2B0      04048        5211          MVI   PNBCDL,XX04                                              49970021
 002EBA D203 D2B1 9208 04049 00208  5212          MVC   PNBCDL+NX1(LX4),IDENTL                                   49980021
 002EC0 47F0 A5BC      02E44        5213        BC    UNCOND,PNB030         GO COMPLETE IN-LINE DC'S             49990021
1PH60     IKFCBL60                                                                                              PAGE  124
-  LOC  OBJECT CODE    ADDR1 ADDR2  STMT   SOURCE STATEMENT                                       ASM 0201 11.03 02/14/15
0                                   5215 *                                                                       50010021
                                    5216 *=1  END OF PROCEDURE A-TEXT                                            50020021
 002EC4                             5217 ENDPTX DS    0H                                                         50030021
                             054DE  5218          USING PUT,R15             FORCE LAST LINE IF CLIST             50040021
 002EC4 58F0 C460      03AF0        5219          L     R15,APUT                                                 50050021
 002EC8 45E0 F076      05554        5220          BAL   RS1,PUTCEND         GO TO END-OF-CLIST-PRINT RTE         50060021
                                    5221 *                                                                       50070021
 002ECC 5860 9148      00148        5222        L     RW1,LOCCTR                                                 50080021
 002ED0 5060 D154      03EEC        5223        ST    RW1,CKLOC   SAVE HI VALUE OF LOCCTR FOR INIT2              50090021
                                    5224 *=1  DESTROY LTLTBL, VIRTBL                                             50100021
                                    5225 *                                                                       50110021
 002ED4 4110 C690      03D20        5226        LA    R1,ALTLTB        XTABRL WILL LOAD R1 WITH TIB ADDRESS      50120021
 002ED8 58F0 C4A8      03B38        5227        L     R15,ATABRL                                                 50130021
 002EDC 05EF                        5228        BALR  RS1,R15               GO RELEASE TABLE                     50140021
                                    5229 *                                                                       50150021
                                    5230 *                                                                       50160021
 002EDE 4110 C698      03D28        5231        LA    R1,AVIRPT        XTABRL WILL LOAD R1 WITH TIB ADDRESS      50170021
 002EE2 58F0 C4A8      03B38        5232        L     R15,ATABRL                                                 50180021
 002EE6 05EF                        5233        BALR  RS1,R15               GO RELEASE TABLE                     50190021
                                    5234 *    DESTROY CVIRTB + LVIRTB                                            50200021
 002EE8 4110 C6A0      03D30        5235        LA    R1,ACVIRT        XTABRL WILL LOAD R1 WITH TIB ADDRESS      50210021
 002EEC 58F0 C4A8      03B38        5236        L     R15,ATABRL                                                 50220021
 002EF0 05EF                        5237        BALR  RS1,R15               GO RELEASE TABLE                     50230021
 002EF2 4110 C6A8      03D38        5238        LA    R1,ALVIRT        XTABRL WILL LOAD R1 WITH TIB ADDRESS      50240021
 002EF6 58F0 C4A8      03B38        5239        L     R15,ATABRL                                                 50250021
 002EFA 05EF                        5240        BALR  RS1,R15               GO RELEASE TABLE                     50260021
 002EFC 96FF D3D4      0416C        5241          OI    VIRTSW,NOVIRTBL     VIRTUAL TABLE KILLED/NOT MADE        50270021
 002F00 9180 91A4      001A4        5242        TM    PHZSW1,XREF           IS XREF SPECIFIED                    50280021
 002F04 4780 A694      02F1C        5243          BC    EQ,PDATEX           NO, BRANCH                           50290021
 002F08 0509                        5244        BALR  R0,RB2                BR TO PH0                            50300021
 002F0A 61                          5245        DC    X'61'                 REWIND UT1 FOR DN,PN DEFS            50310021
 002F0B 00                          5246        DC    X'00'                 INDICATE-READ WAS LAST ON UT1        50320021
 002F0C 4120 D128      03EC0        5247          LA    R2,AC77             ADDRESS OF 77                        50330021
 002F10 4130 0001      00001        5248          LA    R3,ONEBYTE                                               50340021
 002F14 0509                        5249          BALR  R0,RB2              WRITE EOF INDICATOR FOR GA           50350021
 002F16 13                          5250          DC    X'13'                                                    50360021
                                    5251 *                                                                       50370021
 002F17 00
 002F18 0509                        5252          BALR  R0,RB2              PURGE BUFFER SO THAT E-TEXT          50380021
 002F1A F3CC                        5253          DC    X'F3CC'             MAY BE WRITTEN IN NEW BLOCK          50390021
1PH60     IKFCBL60                                                                                              PAGE  125
-  LOC  OBJECT CODE    ADDR1 ADDR2  STMT   SOURCE STATEMENT                                       ASM 0201 11.03 02/14/15
0                                   5255 *=1   PROCESS DATA A-TEXT AND E-TEXT                                    50410021
                                    5256 *                                                                       50420021
                                    5257 *    POSITION TO END OF LISTING TEXT                                    50430021
                                    5258 *                                                                       50440021
 002F1C                             5259 PDATEX DS    0H                                                         50450021
 002F1C 4170 A986      0320E        5260        LA    RW2,PDT030       EOF RETURN                                50460021
 002F20 9610 D116      03EAE        5261          OI    F4SW,F4POS01        POSITION TO 01                       50470021
 002F24 58F0 C45C      03AEC        5262        L     R15,AGETF4                                                 50480021
 002F28 05EF                        5263        BALR  RS1,R15               GET AN ELT FROM FILE 4               50490021
 002F2A 94DF D116      03EAE        5264          NI    F4SW,F4NOTLST       NO LONGER IN LISTING TEXT            50500021
                                    5265 *                                                                       50510021
-
                                    5267 *    DATA A-TEXT OR E-TEXT                                              50530021
                                    5268 *                                                                       50540021
 002F2E 184B                        5269        LR    INPUTR,F4REG          INITIAL VALUE                        50550021
 002F30 9640 D116      03EAE        5270          OI    F4SW,F4INPUTR       USE INPUTR                           50560021
                                    5271 * GET NEXT DATA OR ERROR ELEMENT                                        50570021
 002F34 58F0 C45C      03AEC        5272 PDT020 L     R15,AGETF4                                                 50580021
 002F38 4170 A986      0320E        5273        LA    RW2,PDT030       EOF RETURN                                50590021
 002F3C 05EF                        5274        BALR  RS1,R15               GET AN ELT FROM FILE 4               50600021
 002F3E 9500 4000      00000        5275          CLI   DX0(INPUTR),INITOFF   TYPE IS ERR OR DATA A TEXT         50610021
 002F42 4770 A778      03000        5276        BC    NOTEQ,D6000           DATA A-TEXT                          50620021
1PH60     IKFCBL60                                                                                              PAGE  126
-  LOC  OBJECT CODE    ADDR1 ADDR2  STMT   SOURCE STATEMENT                                       ASM 0201 11.03 02/14/15
0                                   5278 *=1  PROCESS E-TEXT ELEMENT                                             50640021
                                    5279 *                                                                       50650021
 002F46 1B66                        5280        SR    RW1,RW1                                                    50660021
 002F48 4364 0001      00001        5281          IC    RW1,DX1(INPUTR)      LENGTH OF VF                        50670021
 002F4C 4166 0002      00002        5282          LA    RW1,DX2(RW1)                                             50680021
 002F50                             5283 PDT040 DS    0H                                                         50690021
 002F50 4060 D072      03E0A        5284        STH   RW1,G4LEN                                                  50700021
 002F54 91FF 4002      00002        5285          TM    DX2(INPUTR),ALLON                                        50710021
 002F58 4780 A6E0      02F68        5286        BC    ZERO,PDT041          MESSAGE DEF                           50720021
 002F5C 91FF D14C      03EE4        5287          TM    ETXSW,ETXNTWRN      NOT WARNING LEVEL                    50730021
 002F60 4780 A6AC      02F34        5288        BC    ZERO,PDT020          IGNORE THIS PARAMETER                 50740021
 002F64 47F0 A6F4      02F7C        5289          BC    UNCOND,PDT042       CONTINUE PROCESSING DATA A-TXT       50750021
 002F68 9400 D14C      03EE4        5290 PDT041   NI    ETXSW,ETXWRN        RESET, WARNING LEVEL                 50760021
 002F6C 91F0 4007      00007        5291          TM    DX7(INPUTR),MF0                                          50770021
 002F70 4770 A6F4      02F7C        5292        BC    NOTZER,PDT042        NOT WARNING, PROCESS                  50780021
 002F74 9104 91A3      001A3        5293          TM    PHZSW,FLAGW         WARNING LEVEL                        50790021
 002F78 4780 A6AC      02F34        5294        BC    ZERO,PDT020          DON'T FLAG WARNINGS                   50800021
 002F7C 96FF D14C      03EE4        5295 PDT042   OI    ETXSW,ETXNTWRN      NOT WARNING LEVEL                    50810021
 002F80 96FF 91C2      001C2        5296          OI    ERF4SW,ERF4ON       PH7 TO PRINT ERROR MSG               50820021
 002F84 4860 D072      03E0A        5297 PDT022 LH    RW1,G4LEN                                                  50830021
 002F88 4A60 D14E      03EE6        5298        AH    RW1,ERRCUR                                                 50840021
 002F8C 4060 D14E      03EE6        5299        STH   RW1,ERRCUR                                                 50850021
 002F90 4860 D072      03E0A        5300        LH    RW1,G4LEN                                                  50860021
 002F94 9104 9183      00183        5301          TM    SWITCH+NX1,NOFITSW                                       50870021
 002F98 4710 A766      02FEE        5302          BC    ONES,USEF3          TABLE FULL - USE F3                  50880021
 002F9C 5810 C6C8      03D58        5303        L     R1,AERRTB                                                  50890021
 002FA0 58F0 C4AC      03B3C        5304          L     R15,ATABLE          GET ADDRESS OF ERRTBL                50900021
 002FA4 05EF                        5305        BALR  RS1,R15               GET TABLE ADDR AND SIZE              50910021
 002FA6 4830 D11E      03EB6        5306        LH      R3,EINDEX           GET INDEX INTO TABLE                 50920021
 002FAA 4120 00FF      000FF        5307          LA    R2,ALLON            MAX TABLE SIZE-1 FOR EOTBL           50930021
 002FAE 1B26                        5308          SR    R2,RW1              LESS NEXT ENTRY                      50940021
 002FB0 1523                        5309          CLR   R2,R3                                                    50950021
 002FB2 4740 A742      02FCA        5310          BC    LO,NOFIT            GO PUT E-TEXT ON F3                  50960021
 002FB6 0660                        5311          BCTR  RW1,R0              SUBTRACT 1                           50970021
 002FB8 1A13                        5312          AR    R1,R3               ADD INDEX TO TABLE START             50980021
 002FBA 4460 A772      02FFA        5313        EX    RW1,MVCETX       MOVE E-TEXT TO TABLE                      50990021
 002FBE 4A30 D072      03E0A        5314          AH    R3,G4LEN            INCREMENT INDEX FOR NEXT             51000021
 002FC2 4030 D11E      03EB6        5315          STH   R3,EINDEX           INSERT AND SAVE IT                   51010021
 002FC6 47F0 A6AC      02F34        5316          BC    UNCOND,PDT020       GET NEXT ELT                         51020021
                                    5317 *                                                                       51030021
 002FCA                             5318 NOFIT    DS    0H                                                       51040021
 002FCA 1821                        5319          LR    R2,R1              GET ADDRESS FOR WRITE                 51050021
 002FCC 9180 91A4      001A4        5320          TM    PHZSW1,XREF         WAS XREF SPECIFIED                   51060021
 002FD0 4710 A750      02FD8        5321          BC    ONES,NOFIT1         YES - F3 HAS BEEN REWOUND            51070021
 002FD4 0509                        5322          BALR  R0,RB2              NO - I'LL DO IT MYSELF               51080021
 002FD6 63                          5323          DC    X'63'               REWIND                               51090021
 002FD7 00                          5324          DC    X'00'               READ WAS LAST I/O                    51100021
 002FD8                             5325 NOFIT1   DS    0H                                                       51110021
                                    5326 *                                  R3 ALLREADY HAS LENGTH               51120021
 002FD8 0509                        5327          BALR  R0,RB2              WRITE TABLE OUT ON F3                51130021
 002FDA 13                          5328          DC    X'13'                                                    51140021
 002FDB 00
 002FDC 4110 C6C8      03D58        5329          LA    R1,AERRTB                                                51150021
 002FE0 58F0 C4A8      03B38        5330          L     R15,ATABRL                                               51160021
 002FE4 05EF                        5331          BALR  RS1,R15             RELEASE ERRTBL                       51170021
1PH60     IKFCBL60                                                                                              PAGE  127
-  LOC  OBJECT CODE    ADDR1 ADDR2  STMT   SOURCE STATEMENT                                       ASM 0201 11.03 02/14/15
0002FE6 9400 D11C      03EB4        5332          NI    DOEOTSW,INITOFF     INDICATE DON'T INSERT END            51180021
                                    5333 *                                  OF TABLE MARKER                      51190021
 002FEA 9604 9183      00183        5334          OI    SWITCH+NX1,NOFITSW  INDICATE DON'T USE TABLE AGAIN       51200021
 002FEE                             5335 USEF3    DS    0H                                                       51210021
 002FEE 1824                        5336          LR    R2,INPUTR           E-TXT ADDRESS                        51220021
 002FF0 1836                        5337          LR    R3,RW1                    LENGTH                         51230021
 002FF2 0509                        5338          BALR  R0,RB2              WRITE E-TEXT                         51240021
 002FF4 13                          5339          DC    X'13'                                                    51250021
 002FF5 00
 002FF6 47F0 A6AC      02F34        5340          BC    UNCOND,PDT020       GET NEXT                             51260021
                                    5341 *                                                                       51270021
 002FFA D200 1000 4000 00000 00000  5342 MVCETX   MVC   DX0(LX1,R1),DX0(INPUTR) MOVE E-TEXT TO TABLE             51280021
1PH60     IKFCBL60                                                                                              PAGE  128
-  LOC  OBJECT CODE    ADDR1 ADDR2  STMT   SOURCE STATEMENT                                       ASM 0201 11.03 02/14/15
0                                   5344 *                                                                       51300021
                                    5345 *=1  IDENTIFY AND PROCESS DATA A-TEXT ELEMENT                           51310021
                                    5346 *=     (REFERRED TO IN COMMENTS CARDS AS D6000)                         51320021
                                    5347 *                                                                       51330021
 003000 1B66                        5348 D6000  SR    RW1,RW1                                                    51340021
 003002 4360 4000      00000        5349        IC    RW1,A6CODE                                                 51350021
 003006 5876 C578      03C08        5350          L     RW2,D6TBL-NX4(RW1)                                       51360021
 00300A 07F7                        5351          BCR   UNCOND,RW2          USE D6TBL,BR-TBL/DATA A-TXT RT       51370021
-

 00300C 58F0 C45C      03AEC        5353 D6ERR  L     R15,AGETF4                                                 51390021
                             05218  5354        USING GETF4,R15                                                  51400021
 003010 4170 A986      0320E        5355        LA    RW2,PDT030       EOF RETURN                                51410021
 003014 47F0 F0FC      05314        5356          BC    UNCOND,G4ER3        PUT OUT MSG, GO TO EOF               51420021
1PH60     IKFCBL60                                                                                              PAGE  129
-  LOC  OBJECT CODE    ADDR1 ADDR2  STMT   SOURCE STATEMENT                                       ASM 0201 11.03 02/14/15
0                                   5358 *                                                                       51440021
                                    5359 *=1    CONDEF   // 28 LLLLLL TT SSSS VALUE //                           51450021
                                    5360 *                                                                       51460021
                                    5361 *              LLLLLL  IS RELLOC OF CONSTANT                            51470021
                                    5362 *              TT      IS TYPE--00  HEX                                 51480021
                                    5363 *                               01  ALPHA                               51490021
                                    5364 *                               FF  ALL                                 51500021
                                    5365 *              SSSS    SIZE                                             51510021
                                    5366 *              VALUE   CONSTANT (IF TYPE=ALL ONLY 1 BYTE)               51520021
                                    5367 *                                                                       51530021
 003018 D202 9149 4001 00149 00001  5368 D6CON    MVC   LOCCTR+NX1(LX3),A6CONL RELLOC                            51540021
 00301E 9400 9148      00148        5369          NI    LOCCTR,INITOFF                                           51550021
 003022 1B66                        5370          SR    RW1,RW1                                            9374  51560021
 003024 5060 D314      040AC        5371          ST    RW1,C6WRK0                                         9374  51570021
 003028 D203 D316 4005 040AE 00005  5372          MVC   C6WRK0+NX2,A6CONS        SIZE                      9374  51580021
 00302E 5860 D314      040AC        5373          L     RW1,C6WRK0                                         9374  51590021
 003032 91FF 4004      00004        5374          TM    A6CONT,ALLON        TYPE                                 51600021
 003036 4710 A7CC      03054        5375        BC    ONES,ALLCON           TYPE=ALL                             51610021
                                    5376 *                                                                       51620021
 00303A 1806                        5377 NALL   LR    R0,RW1            LENGTH                                   51630021
 00303C 4114 0007      00007        5378          LA    R1,DX7(INPUTR)        POINT R1 TO VALUE                  51640021
 003040 4860 D072      03E0A        5379        LH    RW1,G4LEN                                                  51650021
 003044 1A60                        5380        AR    RW1,R0                                                     51660021
 003046 4060 D072      03E0A        5381        STH   RW1,G4LEN        INCR LRL FOR GETF4                        51670021
                                    5382 *                                                                       51680021
 00304A 58F0 C46C      03AFC        5383        L     R15,ATXPNH        PUNCH DATA                               51690021
 00304E 05EF                        5384        BALR  RS1,R15               GO PUNCH                             51700021
 003050 47F0 A6AC      02F34        5385        BC    UNCOND,PDT020         GO GET NEXT ELT                      51710021
-
                                    5387 *                                                                       51730021
                                    5388 *      ALL CONDEF--MOVE TO MAX WORK AREA                                51740021
                                    5389 *                                                                       51750021
 003054                             5390 ALLCON   DS    0H                                                       51760021
 003054 1B55                        5391          SR    RW3,RW3                                                  51770021
 003056 4350 4007      00007        5392          IC    RW3,A6CONLV         GET LENGTH OF VALUE                  51780021
 00305A 1255                        5393          LTR   RW3,RW3           IS THERE ANY LENGTH               3808 51790021
 00305C 4780 A784      0300C        5394          BC    ZERO,D6ERR        NO, CANT DIVIDE BY ZERO, ERROR    3808 51800021
 003060 1826                        5395          LR    R2,RW1              SAVE TOTAL LENGTH                    51810021
 003062 1B66                        5396          SR    RW1,RW1             CLEAR EVEN REGISTER                  51820021
 003064 4170 0100      00100        5397          LA    RW2,DX256            DETERMINE MAXIMUM NO OF TIMES       51830021
 003068 1D65                        5398          DR    RW1,RW3             ALL LIT CAN BE PROPAGATED IN         51840021
 00306A 1867                        5399          LR    RW1,RW2             ALLWRK                               51850021
 00306C 4110 D174      03F0C        5400          LA    R1,ALLWRK                                                51860021
 003070                             5401 ALLMOVE  DS    0H                                                       51870021
 003070 4450 A824      030AC        5402          EX    RW3,MOVEALL         MOVE ALL LIT(LENGTH OF VALUE)        51880021
 003074 1A15                        5403          AR    R1,RW3              ADD LENGTH TO ALLWRK ADDRESS         51890021
 003076 4660 A7E8      03070        5404          BCT   RW1,ALLMOVE         LOOP TO FILL ALLWRK WITH VALUE       51900021
 00307A 1C65                        5405          MR    RW1,RW3             RW2 HAS MAX NO(X LENGTH IN RW3)      51910021
 00307C 1807                        5406          LR    R0,RW2              LENGTH OF ALLWRK                     51920021
 00307E                             5407 ALLTST   DS    0H                                                       51930021
 00307E 1920                        5408          CR    R2,R0               MORE THAN ALLWRK LENGTH              51940021
 003080 4720 A7FE      03086        5409          BC    HI,PUNALL           NO - PUNCH ALLWRK LENGTH             51950021
 003084 1802                        5410          LR    R0,R2                                                    51960021
1PH60     IKFCBL60                                                                                              PAGE  130
-  LOC  OBJECT CODE    ADDR1 ADDR2  STMT   SOURCE STATEMENT                                       ASM 0201 11.03 02/14/15
0003086                             5411 PUNALL   DS    0H                                                       51970021
 003086 4110 D174      03F0C        5412          LA    R1,ALLWRK                                                51980021
 00308A 58F0 C46C      03AFC        5413          L     R15,ATXPNH                                               51990021
 00308E 05EF                        5414          BALR  RS1,R15             GO PUNCH                             52000021
 003090 1920                        5415          CR    R2,R0               ANY MORE                             52010021
 003092 47D0 A814      0309C        5416          BC    NOTHI,FIXLEN        NO - GO ADJUST LRL                   52020021
 003096 1B20                        5417          SR    R2,R0                                                    52030021
 003098 47F0 A7F6      0307E        5418          BC    UNCOND,ALLTST       GO PUNCH SOME MORE                   52040021
 00309C                             5419 FIXLEN   DS    0H                                                       52050021
 00309C 4A50 D072      03E0A        5420          AH    RW3,G4LEN           LENGTH OF VALUE                      52060021
 0030A0 4155 0001      00001        5421          LA    RW3,DX1(RW3)         ADJUST FOR COUNT BYTE               52070021
 0030A4 4050 D072      03E0A        5422          STH   RW3,G4LEN                                                52080021
 0030A8 47F0 A6AC      02F34        5423          BC    UNCOND,PDT020       GET NEXT ELEMENT                     52090021
                                    5424 *                                                                       52100021
 0030AC D200 1000 4008 00000 00008  5425 MOVEALL  MVC   DX0(LX0,R1),A6CONV                                       52110021
1PH60     IKFCBL60                                                                                              PAGE  131
-  LOC  OBJECT CODE    ADDR1 ADDR2  STMT   SOURCE STATEMENT                                       ASM 0201 11.03 02/14/15
0                                   5427 *=1   DCBADEF   // 04 LLLLLL DD //                                      52130021
                                    5428 *                                                                       52140021
                                    5429 *              LLLLLL  IS RELLOC OF DCB                                 52150021
                                    5430 *              DD      IS DCB NUMBER                                    52160021
                                    5431 *                                                                       52170021
 0030B2 1B66                        5432 D6DCB  SR    RW1,RW1                                                    52180021
 0030B4 4360 4004      00004        5433        IC    RW1,A6DCBN            GET DCB NUMBER                       52190021
 0030B8 0660                        5434        BCTR  RW1,R0                SUBTRACT 1                           52200021
 0030BA 8960 0002      00002        5435 D6DC10   SLL   RW1,DX2              *4                                  52210021
 0030BE 4A60 9160      00160        5436        AH    RW1,DCBCTR             + DCBCTR IS DISPLACEMENT            52220021
 0030C2 5A60 D048      03DE0        5437        A     RW1,LOCPGT             + LOCPGT                            52230021
 0030C6 5060 C678      03D08        5438        ST    RW1,D6TARG            IS TARGET LOCATION                   52240021
 0030CA 9284 C678      03D08        5439        MVI   D6TARG,DTYP           DATA BLOCK TYPE                      52250021
 0030CE 45E0 8014      0189C        5440          BAL   RS1,RLDRTE          GET ADDRESS FOR INSERT IN RLDTBL     52260021
 0030D2 D203 2000 C678 00000 03D08  5441          MVC   DX0(LX4,R2),D6TARG     ENTER TYPE, TARGET ADDRESS        52270021
 0030D8 9200 2004      00004        5442          MVI   RELC4(R2),XX00      SPECIFY PTY ZERO                     52280021
 0030DC D202 2005 4001 00005 00001  5443          MVC   RELC(LX3,R2),A6DCBL GET RELATIVE ADDR VALUE              52290021
 0030E2 47F0 A6AC      02F34        5444        BC    UNCOND,PDT020         GET NEXT                             52300021
-
                                    5446 *                                                                       52320021
                                    5447 *                                                                       52330021
                                    5448 *=1   BLKADEF   // 0C LLLLLL KK RRRR SSSS //                            52340021
                                    5449 *                                                                       52350021
                                    5450 *              LLLLLL  IS RELLOC OF THE BLOCK                           52360021
                                    5451 *              KK      IS THE BL NUMBER                                 52370021
                                    5452 *              RRRR     IS UNUSED                                       52380021
                                    5453 *              SSSS    IS THE SIZE OF THE BLOCK IN WORDS                52390021
                                    5454 *                                                                       52400021
 0030E6 4170 920C      0020C        5455 D6BLK  LA    RW2,BLCTR                                                  52410021
 0030EA 47F0 A87C      03104        5456        BC    UNCOND,D6AL10         TO COMMON PROCESSOR                  52420021
1PH60     IKFCBL60                                                                                              PAGE  132
-  LOC  OBJECT CODE    ADDR1 ADDR2  STMT   SOURCE STATEMENT                                       ASM 0201 11.03 02/14/15
0                                   5458 *=1   WSADEF    // 24 LLLLLL KK SSSSSS //                               52440021
                                    5459 *                                                                       52450021
                                    5460 *              LLLLLL  IS RELLOC OF THE WS AREA                         52460021
                                    5461 *              KK      IS THE BL NUMBER                                 52470021
                                    5462 *              SSSSSS  IS SIZE OF THE AREA IN WORDS                     52480021
                                    5463 *                                                                       52490021
                                    5464 *      ENTRIES TO THE RLDTBL WILL BE CONSTRUCTED FROM WHICH 1 ADCON     52500021
                                    5465 *      BL/4096-CHUNK-OF-WORKING-STORAGE PLUS 1 BL FOR THE REMAINING     52510021
                                    5466 *      LESS THAN 4096 BYTE CHUNK.  THESE BL'S ARE KK, KK+1, KK+2,..     52520021
                                    5467 *      KK+N.   THE RELATIVE ADDRESS OF THE WORKING-STORAGE SECTION      52530021
                                    5468 *      GOES INTO BL=KK, THAT ADDR + 4096 INTO BL=KK+1 , ETC.            52540021
                                    5469 *                                                                       52550021
                                    5470 *      EXAMPLE   //24 000140 01 000100 //                               52560021
                                    5471 *                BECOMES   BL=01  DC  A(140)  STORED INTO TGT           52570021
                                    5472 *                                                                       52580021
                                    5473 *                //24 000800 03 000900 //                               52590021
                                    5474 *                                                                       52600021
                                    5475 *                BECOMES   BL=03  DC  A(800)                            52610021
                                    5476 *                          BL=04  DC  A(1800)                           52620021
                                    5477 *                          BL=05  DC  A(2800)                           52630021
                                    5478 *                                                                       52640021
                                    5479 *                NEXT BL DEFINED BY PHASE 2 WILL BE BL=06               52650021
                                    5480 *                                                                       52660021
 0030EE 4170 920C      0020C        5481 D6WSA  LA    RW2,BLCTR                                                  52670021
 0030F2 9400 C67C      03D0C        5482          NI    D6SIZE,INITOFF                                           52680021
 0030F6 D202 C67D 4005 03D0D 00005  5483          MVC   D6SIZE+NX1(LX3),A6WSS STORE SIZE                         52690021
 0030FC 47F0 A888      03110        5484        BC    UNCOND,D6AL20         TO COMMON PROCESSOR                  52700021
                                    5485 *                                                                       52710021
                                    5486 *                                                                       52720021
                                    5487 *=1   DECBADEF  // 08 LLLLLL DD RRRR SSSS //                            52730021
                                    5488 *                                                                       52740021
                                    5489 *              LLLLLL  IS RELLOC OF THE DECB                            52750021
-
                                    5491 *              DD      IS DECB NUMBER                                   52770021
                                    5492 *              RRRR    IS RPD NUMBER                                    52780021
                                    5493 *              SSSS    IS SIZE OF THE DECB IN WORDS                     52790021
                                    5494 *                                                                       52800021
 003100 4170 91D4      001D4        5495 D6DECB LA    RW2,DECBCT                                                 52810021
                                    5496 *                                                                       52820021
                                    5497 *=1    COMMON PROCESSING OF DATA A-TEXT                                 52830021
                                    5498 *                                                                       52840021
 003104 D703 C67C C67C 03D0C 03D0C  5499 D6AL10   XC    D6SIZE(LX4),D6SIZE                                       52850021
 00310A D201 C67E 4007 03D0E 00007  5500          MVC   D6SIZE+NX2(LX2),DX7(INPUTR) STORE SIZE                   52860021
 003110 5860 C67C      03D0C        5501 D6AL20 L     RW1,D6SIZE                                                 52870021
 003114 8960 0002      00002        5502          SLL   RW1,DX2              CHANGE SIZE                         52880021
 003118 5060 C67C      03D0C        5503        ST    RW1,D6SIZE            TO BYTES                             52890021
 00311C 5060 C680      03D10        5504        ST    RW1,D6SSS             CURRENT SIZE                         52900021
 003120 4877 0000      00000        5505 D6AL25   LH    RW2,DX0(RW2)         COUNTER DISPLACEMENT                52910021
 003124 1B66                        5506 D6AL30 SR    RW1,RW1                                                    52920021
 003126 4364 0004      00004        5507          IC    RW1,DX4(INPUTR)      COUNTER NUMBER                      52930021
 00312A 0660                        5508        BCTR  RW1,R0                SUBTRACT 1                           52940021
 00312C 8960 0002      00002        5509 D6AL40   SLL   RW1,DX2              *4                                  52950021
 003130 1A67                        5510          AR    RW1,RW2             + COUNTER DISPLACEMENT               52960021
1PH60     IKFCBL60                                                                                              PAGE  133
-  LOC  OBJECT CODE    ADDR1 ADDR2  STMT   SOURCE STATEMENT                                       ASM 0201 11.03 02/14/15
0003132 5A60 921C      0021C        5511        A     RW1,RELLOC                                                 52970021
 003136 D202 C685 4001 03D15 00001  5512          MVC   D6REL+NX1(LX3),DX1(INPUTR) STORE RELATIVE LOCATION       52980021
 00313C 47F0 A8BC      03144        5513          BC    UNCOND,D6AL50       CONTINUE WITH PH6                    52990021
 003140 4A60 9220      00220        5514 D6AL45 AH    RW1,GTLNG                                                  53000021
 003144                             5515 D6AL50 DS    0H                                                         53010021
 003144 5060 C678      03D08        5516        ST    RW1,D6TARG            TARGET ADDRESS                       53020021
 003148 9284 C678      03D08        5517 D6AL55 MVI   D6TARG,DTYP           DATA BLOCK TYPE                      53030021
 00314C 45E0 8014      0189C        5518          BAL   RS1,RLDRTE          GET ADDRESS FOR INSERT IN RLDTBL     53040021
 003150 D203 2000 C678 00000 03D08  5519          MVC   DX0(LX4,R2),D6TARG     ENTER TYPE, TARGET ADDRESS        53050021
 003156 9200 2004      00004        5520          MVI   RELC4(R2),XX00      SPECIFY PTY ZERO                     53060021
 00315A D202 2005 C685 00005 03D15  5521          MVC   RELC(LX3,R2),D6REL+NX1 GET RELATIVE ADDR VALUE           53070021
 003160 D503 C680 C68C 03D10 03D1C  5522          CLC   D6SSS(LX4),FW4096    GT 4096                             53080021
 003166 47D0 A6AC      02F34        5523          BC    NOTHI,PDT020        NO, GET NEXT ELT                     53090021
 00316A 5060 C688      03D18        5524        ST    RW1,D6RW1             YES, SAVE RW1                        53100021
 00316E 5860 C678      03D08        5525        L     RW1,D6TARG                                                 53110021
 003172 4166 0004      00004        5526          LA    RW1,DX4(RW1)         TARGET IS NEXT WORD                 53120021
 003176 5060 C678      03D08        5527        ST    RW1,D6TARG                                                 53130021
 00317A 5860 C684      03D14        5528        L     RW1,D6REL                                                  53140021
 00317E 5A60 C68C      03D1C        5529        A     RW1,FW4096            LOCATION IS 4096 GREATER             53150021
 003182 5060 C684      03D14        5530        ST    RW1,D6REL                                                  53160021
 003186 5860 C680      03D10        5531        L     RW1,D6SSS                                                  53170021
 00318A 5B60 C68C      03D1C        5532        S     RW1,FW4096            REMAINDER                            53180021
 00318E 5060 C680      03D10        5533        ST    RW1,D6SSS             OF BLOCK                             53190021
 003192 5860 C688      03D18        5534        L     RW1,D6RW1                                                  53200021
 003196 47F0 A8C0      03148        5535        BC    UNCOND,D6AL55         LOOP TO INSERT AGAIN                 53210021
1PH60     IKFCBL60                                                                                              PAGE  134
-  LOC  OBJECT CODE    ADDR1 ADDR2  STMT   SOURCE STATEMENT                                       ASM 0201 11.03 02/14/15
0                                   5537 *=1    QDEF  //34 GGGG//                                                53230021
                                    5538 *              KK    IS SBL NUMBER                                      53240021
                                    5539 *              GGGG  IS Q-RTN NUMBER                                    53250021
                                    5540 *            HI-ORDER BIT OF GGGG ON IF BSAM                            53260021
                                    5541 *                                                                       53270021
 00319A                             5542 D6SBL  DS    0H                                                         53280021
 00319A D201 D314 4001 040AC 00001  5543          MVC   C6WRK0(LX2),A6QGN                                        53290021
 0031A0 4860 D314      040AC        5544        LH    RW1,C6WRK0                                                 53300021
 0031A4 5460 C024      036B4        5545        N     RW1,C15BIT                                                 53310021
 0031A8 58F0 C4F0      03B80        5546        L     R15,AGETPN                                                 53320021
                             051BE  5547        USING GETPN,R15                                                  53330021
 0031AC 45E0 F038      051F6        5548        BAL   RS1,GETGN         GET REL GN=                              53340021
                                    5549        DROP  R15                                                        53350021
 0031B0 5860 C024      036B4        5550        L     RW1,C15BIT                                                 53360021
 0031B4 4166 0001      00001        5551          LA    RW1,DX1(RW1)                                             53370021
 0031B8 4870 D314      040AC        5552        LH    RW2,C6WRK0                                                 53380021
 0031BC 1467                        5553        NR    RW1,RW2                                                    53390021
 0031BE 1656                        5554        OR    RW3,RW1                                                    53400021
 0031C0 4050 D314      040AC        5555        STH   RW3,C6WRK0                                                 53410021
 0031C4 5810 C670      03D00        5556        L     R1,AQTBL          GET SPACE IN QTBL                        53420021
 0031C8 58F0 C4AC      03B3C        5557          L     R15,ATABLE                                               53430021
 0031CC 05EF                        5558          BALR  RS1,R15             GET ADDRESS OF QTBL                  53440021
 0031CE 4820 D120      03EB8        5559          LH    R2,QINDEX           GET INDEX INTO TABLE                 53450021
 0031D2 1A12                        5560          AR    R1,R2              ADD THE TWO                           53460021
 0031D4 D201 1000 D314 00000 040AC  5561          MVC   DX0(LX2,R1),C6WRK0    DO   INSERT                        53470021
 0031DA 4122 0002      00002        5562          LA    R2,DX2(R2)           INCREMENT INDEX FOR NEXT INSERT     53480021
 0031DE 4020 D120      03EB8        5563          STH   R2,QINDEX           AND SAVE IT                          53490021
 0031E2 47F0 A6AC      02F34        5564        BC    UNCOND,PDT020         GET NEXT ELT                         53500021
                                    5565 *                                                                       53510021
                                    5566 *                                                                       53520021
                                    5567 *                                                                       53530021
                                    5568 *                                                                       53540021
                                    5569 *=1    ACONDEF  //2C LLLLLL SS AAAAAA //                                53550021
                                    5570 *                                                                       53560021
                                    5571 *              LLLLLL-TARGET LOC                                        53570021
                                    5572 *              SS    -SIZE OF ADCON                                     53580021
                                    5573 *              AAAAAA-REL ADDR WHICH IS CON                             53590021
                                    5574 *                                                                       53600021
 0031E6                             5575 D6ACON DS      0H                                                       53610021
 0031E6 D202 9149 4001 00149 00001  5576          MVC   LOCCTR+NX1(LX3),A6ACOL  SET LOCCTR TO TARGET LOCATION    53620021
 0031EC 45E0 8014      0189C        5577          BAL   RS1,RLDRTE          GET ADDRESS FOR INSERT IN RLDTBL     53630021
 0031F0 D200 2000 4004 00000 00004  5578          MVC   DX0(LX1,R2),A6ACOS    LENGTH                             53640021
 0031F6 96C0 2000      00000        5579          OI    DX0(R2),ATYP         ADCON TYPE                          53650021
 0031FA D202 2001 4001 00001 00001  5580          MVC   TARG(LX3,R2),A6ACOL GET TARGET ADDR                      53660021
 003200 D202 2005 4005 00005 00005  5581          MVC   RELC(LX3,R2),A6ACOA  GET RELATIVE ADDRESS                53670021
 003206 9400 2004      00004        5582          NI    RELC4(R2),XX00      SPECIFY PTY ZERO                     53680021
 00320A 47F0 A6AC      02F34        5583        BC      UNCOND,PDT020       GET NEXT ELT                         53690021
1PH60     IKFCBL60                                                                                              PAGE  135
-  LOC  OBJECT CODE    ADDR1 ADDR2  STMT   SOURCE STATEMENT                                       ASM 0201 11.03 02/14/15
0                                   5585 *                                                                       53710021
                                    5586 *=1    EOF REACHED ON F4                                                53720021
                                    5587 *                                                                       53730021
 00320E                             5588 PDT030 DS    0H                                                         53740021
                                    5589 *                                                                       53750021
                                    5590 *=1   MAKE ALL RLDTBL ENTRIES DIRECT BY                                 53760021
                                    5591 *      MATCHING RELLOC OF V AND I TYPES WITH                            53770021
                                    5592 *      TARGET OF N TYPES. WHEN MATCH IS FOUND,                          53780021
                                    5593 *      REPLACE V OR I TYPE RELLOC WITH                                  53790021
                                    5594 *      CORRESPONDING N TYPE RELLOC.                                     53800021
                                    5595 *      V AND I TYPES ARE IDENTIFIED BY 1 IN BIT 2 OF TYPE.              53810021
                                    5596 *      N TYPES ARE IDENTIFIED BY 1 IN BIT 3 OF TYPE.                    53820021
                                    5597 *                                                                       53830021
 00320E                             5598 D6RLT    DS    0H                                                       53840021
 00320E 91FF D11A      03EB2        5599          TM    SWRLDFUL,RLDOVFL    DID RLDTBL OVERFLOW                  53850021
 003212 4710 AAB4      0333C        5600          BC    ONES,D6PN30         YES - DON'T PROCESS                  53860021
 003216 5810 C664      03CF4        5601          L     R1,ARLDTB           GET TABLE ADDRESS                    53870021
 00321A 5820 C66C      03CFC        5602          L     R2,RLDINDEX         GET TABLE LENGTH                     53880021
 00321E 4171 2000      00000        5603          LA    RW2,DX0(R1,R2)    END OF TABLE                           53890021
 003222 1851                        5604        LR    RW3,R1            CURRENT N COMPARE                        53900021
 003224 1861                        5605        LR    RW1,R1            TABLE START                              53910021
 003226 9120 6000      00000        5606 D6RL10   TM    DX0(RW1),XX20        IS NEXT ENTRY I OR V                53920021
 00322A 4780 A9BE      03246        5607        BC    ZERO,D6RL30           NO                                   53930021
 00322E 9110 5000      00000        5608 D6RL20   TM    DX0(RW3),XX10        IS CURRENT COMPARE N                53940021
 003232 4780 A9D6      0325E        5609        BC    ZERO,D6RL40           NO, TRY NEXT                         53950021
 003236 D502 6005 5001 00005 00001  5610          CLC   RELC(LX3,RW1),TARG(RW3)                                  53960021
 00323C 4770 A9D6      0325E        5611        BC    NOTEQ,D6RL40          TRY NEXT                             53970021
 003240 D202 6005 5005 00005 00005  5612          MVC   RELC(LX3,RW1),RELC(RW3) REPLACE RELLOC                   53980021
 003246 4166 0008      00008        5613 D6RL30 LA    RW1,RLNG(RW1)                                              53990021
 00324A 1967                        5614        CR    RW1,RW2               MORE ENTRIES IN TABLE                54000021
 00324C 47B0 A9EE      03276        5615        BC    NOTLO,D6SR10          NO, FINISHED                         54010021
 003250 5810 C664      03CF4        5616          L     R1,ARLDTB                                                54020021
 003254 5820 C66C      03CFC        5617          L     R2,RLDINDEX                                              54030021
 003258 1851                        5618        LR    RW3,R1            START OF TABLE                           54040021
 00325A 47F0 A99E      03226        5619        BC    UNCOND,D6RL10         TRY TO MATCH NEXT                    54050021
 00325E 4155 0008      00008        5620 D6RL40 LA    RW3,RLNG(RW3)         NEXT COMPARE LOC                     54060021
 003262 1957                        5621        CR    RW3,RW2               STILL IN TABLE                       54070021
 003264 4740 A9A6      0322E        5622        BC    LO,D6RL20             YES                                  54080021
 003268 D202 6005 A9EA 00005 03272  5623          MVC   RELC(LX3,RW1),THRZS  NO COMPARE, SET                     54090021
 00326E 47F0 A9BE      03246        5624        BC    UNCOND,D6RL30         RELLOC ZERO                          54100021
                                    5625 *                                                                       54110021
 003272 000000                      5626 THRZS  DC    X'000000'                                                  54120021
1PH60     IKFCBL60                                                                                              PAGE  136
-  LOC  OBJECT CODE    ADDR1 ADDR2  STMT   SOURCE STATEMENT                                       ASM 0201 11.03 02/14/15
0                                   5628 *=1  SORT RLDTBL IN ASCENDING ORDER OF TARGET ADDRESSES                 54140021
                                    5629 *                                                                       54150021
 003276                             5630 D6SR10   DS    0H                                                       54160021
 003276 5810 C664      03CF4        5631          L     R1,ARLDTB                                                54170021
 00327A 5820 C66C      03CFC        5632          L     R2,RLDINDEX                                              54180021
 00327E 1861                        5633        LR    RW1,R1            START                                    54190021
 003280 4151 2000      00000        5634          LA    RW3,DX0(R1,R2)    END + 1                                54200021
 003284 4176 0008      00008        5635 D6SR20 LA    RW2,RLNG(RW1)         NEXT COMPARE LOC                     54210021
 003288 1965                        5636        CR    RW1,RW3               FINISHED                             54220021
 00328A 47B0 AA38      032C0        5637        BC    NOTLO,D6PN10          YES                                  54230021
 00328E 1975                        5638 D6SR25 CR    RW2,RW3               MORE TO COMPARE                      54240021
 003290 4740 AA14      0329C        5639        BC    LO,D6SR30             YES                                  54250021
 003294 4166 0008      00008        5640        LA    RW1,RLNG(RW1)         NO, INCREMENT TARGET LOC             54260021
 003298 47F0 A9FC      03284        5641        BC    UNCOND,D6SR20         FOR NEXT COMPARE SERIES              54270021
 00329C D502 6001 7001 00001 00001  5642 D6SR30   CLC   TARG(LX3,RW1),TARG(RW2) IS OLD LOW STILL LOW             54280021
 0032A2 47D0 AA30      032B8        5643        BC    NOTHI,D6SR40          YES                                  54290021
 0032A6 D207 D2D5 6000 0406D 00000  5644          MVC   D6SRSV(RLNG),DX0(RW1) NO                                 54300021
 0032AC D207 6000 7000 00000 00000  5645          MVC   DX0(RLNG,RW1),DX0(RW2) SWAP OLD AND NEW LOW              54310021
 0032B2 D207 7000 D2D5 00000 0406D  5646          MVC   DX0(RLNG,RW2),D6SRSV                                     54320021
 0032B8 4177 0008      00008        5647 D6SR40 LA    RW2,RLNG(RW2)         UP COMPARE LOC                       54330021
 0032BC 47F0 AA06      0328E        5648        BC    UNCOND,D6SR25         GO COMPARE AGAIN                     54340021
-
                                    5650 *                                                                       54360021
                                    5651 *                                                                       54370021
                                    5652 *=1    PUNCH TEXT AND RLDS FROM RLDTBL                                  54380021
                                    5653 *                                                                       54390021
 0032C0                             5654 D6PN10   DS    0H                                                       54400021
 0032C0 5810 C664      03CF4        5655          L     R1,ARLDTB                                                54410021
 0032C4 5820 C66C      03CFC        5656          L     R2,RLDINDEX                                              54420021
 0032C8 1861                        5657        LR    RW1,R1                                                     54430021
 0032CA 4151 2000      00000        5658          LA    RW3,DX0(R1,R2)                                           54440021
 0032CE 1965                        5659 D6PN20 CR    RW1,RW3               STILL IN TABLE                       54450021
 0032D0 47B0 AAB4      0333C        5660        BC    NOTLO,D6PN30          NO, FINISHED                         54460021
 0032D4 4306 0000      00000        5661          IC    R0,DX0(RW1)                                              54470021
 0032D8 5400 C004      03694        5662        N     R0,C6M2            GET LENGTH (LAST 4 BITS)                54480021
 0032DC D700 9148 9148 00148 00148  5663          XC    LOCCTR(LX1),LOCCTR   TARGET                              54490021
 0032E2 D202 9149 6001 00149 00001  5664          MVC   LOCCTR+NX1(LX3),TARG(RW1) TO LOCCTR                      54500021
 0032E8 5870 9148      00148        5665        L     RW2,LOCCTR       SAVE LOCCTR             )                 54510021
 0032EC 9180 6000      00000        5666          TM    DX0(RW1),HION                                            54520021
 0032F0 4780 AA88      03310        5667        BC    ZERO,D6PN35        ALREADY PUNCHED                         54530021
 0032F4 D203 D2DC 6004 04074 00004  5668          MVC   D6PNTX(LX4),RELC4(RW1)   MOVE DATA                       54540021
 0032FA 4110 D2DC      04074        5669        LA    R1,D6PNTX              DATA ADDRESS                        54550021
 0032FE 9103 6000      00000        5670          TM    DX0(RW1),THREE      IF THREE-BYTE ADCON                  54560021
 003302 47E0 AA82      0330A        5671        BC    NOTONE,D6PN27         INCREMENT DATA                       54570021
 003306 4111 0001      00001        5672          LA    R1,DX1(R1)             ADDRESS BY 1                      54580021
                             0330A  5673 D6PN27 EQU   *                                                          54590021
 00330A 58F0 C46C      03AFC        5674        L     R15,ATXPNH                                                 54600021
 00330E 05EF                        5675        BALR  RS1,R15                 PUNCH TEXT                         54610021
                             03310  5676 D6PN35 EQU   *                                                          54620021
 003310 9140 6000      00000        5677          TM    DX0(RW1),XX40    CREATE RLD ONLY                         54630021
 003314 4780 AAAC      03334        5678        BC    ZERO,D6PN28         FOR I OR A TYPE                        54640021
 003318 1817                        5679        LR    R1,RW2            LOC OF ADCON                             54650021
 00331A 4870 D068      03E00        5680        LH    RW2,ESDID             SAVE ADCON                           54660021
1PH60     IKFCBL60                                                                                              PAGE  137
-  LOC  OBJECT CODE    ADDR1 ADDR2  STMT   SOURCE STATEMENT                                       ASM 0201 11.03 02/14/15
000331E D201 D068 C06C 03E00 036FC  5681          MVC   ESDID(LX2),C61                                           54670021
 003324 0600                        5682        BCTR  R0,R0              CONVERT LENGTH                          54680021
 003326 8900 0002      00002        5683          SLL   R0,DX2            FOR FLAG BYTE                          54690021
 00332A 58F0 C490      03B20        5684        L     R15,ARLD                                                   54700021
 00332E 05EF                        5685        BALR  RS1,R15                 PUNCH RLD                          54710021
 003330 4070 D068      03E00        5686        STH   RW2,ESDID             RESTORE ESDID                        54720021
                             03334  5687 D6PN28 EQU   *                                                          54730021
 003334 4166 0008      00008        5688        LA    RW1,RLNG(RW1)         NEXT                                 54740021
 003338 47F0 AA46      032CE        5689        BC    UNCOND,D6PN20         GO COMPARE AGAIN                     54750021
                             0333C  5690 D6PN30 EQU   *                                                          54760021
1PH60     IKFCBL60                                                                                              PAGE  138
-  LOC  OBJECT CODE    ADDR1 ADDR2  STMT   SOURCE STATEMENT                                       ASM 0201 11.03 02/14/15
0                                   5692 *                                                                       54780021
                                    5693 *=1    FOLLOWING CODING CAN OVERLAY FROM D6000 (DATA A-TEXT             54790021
                                    5694 *=     IDENTIFICATION AND PROCESSING)                                   54800021
                                    5695 *      SET FOR ASSEMBLED INPUT                                          54810021
 00333C 9400 D3D5      0416D        5696          NI    QRTNSW,INITOFF      RESET QRTN SW                        54820021
 003340 58F0 C50C      03B9C        5697        L     R15,AUSING                                                 54830021
 003344 05EF                        5698        BALR  RS1,R15               SET UP ADDR'ABILITY                  54840021
 003346 96F0 D56C      04304        5699          OI    TESTSW,TSTREAL      F3 PROCESSING FINISHED               54850021
 00334A 96FF D3D9      04171        5700          OI    RGNSW,RGNINIT       PROCESSING INIT CODING               54860021
 00334E 9400 D3DB      04173        5701          NI    FGET,FGETNEW        GET NEW BLOCK                        54870021
 003352 5860 D154      03EEC        5702          L     RW1,CKLOC                                                54880021
 003356 5060 9148      00148        5703          ST    RW1,LOCCTR          RESET LOCCTR                         54890021
-
                                    5705 *=1    CHECKPOINT PROCESSING                                            54910021
                                    5706 *                                                                       54920021
                                    5707 *                                                                       54930021
                                    5708 *      GENERATE CHECKPOINT ROUTINE IF RERUN CLAUSE SPECIFIED            54940021
                                    5709 *             AND SAVE LOCCTR AFTER IT                                  54950021
                                    5710 *                                                                       54960021
 00335A                             5711 PCKPT  DS    0H                                                         54970021
 00335A 58F0 C464      03AF4        5712        L     R15,AS6800                  PRINT LAST LINE                54980021
 00335E 05EF                        5713        BALR  RS1,R15               FORMAT AND PRINT LINE                54990021
 003360 47F0 AADC      03364        5714        BC    UNCOND,GINIT2         CONTINUE PROCESSING- INIT CODE       55000021
1PH60     IKFCBL60                                                                                              PAGE  139
-  LOC  OBJECT CODE    ADDR1 ADDR2  STMT   SOURCE STATEMENT                                       ASM 0201 11.03 02/14/15
0                                   5716 *=1    GENERATE INIT2 CODING                                            55020021
                                    5717 *                                                                       55030021
                                    5718 *                                                                       55040021
 003364                             5719 GINIT2 DS    0H                                                         55050021
 003364 D701 D28E D28E 04026 04026  5720          XC    CELL14(LX2),CELL14                                       55060021
 00336A D701 D292 D292 0402A 0402A  5721          XC    CELL15(LX2),CELL15                                       55070021
 003370 5860 9148      00148        5722        L     RW1,LOCCTR                                                 55080021
 003374 5060 D15C      03EF4        5723        ST    RW1,LINIT2                                                 55090021
 003378 5870 C48C      03B1C        5724        L     RW2,AINOS2                                                 55100021
 00337C                             5725 OTIN2  DS    0H                                                         55110021
 00337C D204 D7AB C094 04543 03724  5726          MVC   OU6NAM(LX5),CINIT2                                       55120021
 003382 4560 825A      01AE2        5727        BAL   RW1,SU6010            GO DO COMMON ASSEM A-TXT CODE        55130021
                                    5728 *=1      GENERATE INIT3                                                 55140021
 003386                             5729 GINIT3   DS    0H                                                       55150021
 003386 58F0 C464      03AF4        5730          L     R15,AS6800          PRINT PRECEDING LINE                 55160021
 00338A 05EF                        5731          BALR  RS1,R15             FORMAT AND PRINT LINE                55170021
 00338C 5860 9148      00148        5732          L     RW1,LOCCTR          SAVE LOCATION COUNTER                55180021
 003390 5060 D160      03EF8        5733          ST    RW1,LINIT3          AT START OF INIT3                    55190021
 003394 5870 C4C4      03B54        5734          L     RW2,AINIT3                                               55200021
 003398                             5735 OTIN3    DS    0H                                                       55210021
 003398 D204 D7AB C099 04543 03729  5736          MVC   OU6NAM(LX5),CINIT3                                       55220021
 00339E 4560 825A      01AE2        5737          BAL   RW1,SU6010          GO DO COMMON ASSEM A-TXT CODE        55230021
 0033A2                             5738 FTIN2  DS    0H                                                         55240021
                                    5739 *                                                                       55250021
 0033A2 4860 9162      00162        5740        LH    RW1,VIRCTR                                                 55260021
 0033A6 1266                        5741        LTR   RW1,RW1                                                    55270021
 0033A8 4780 AB2C      033B4        5742        BC    ZERO,FSEC0      NO PGT OVFL CELLS                          55280021
 0033AC 5870 C4DC      03B6C        5743        L     RW2,ASECT0                                                 55290021
 0033B0 4560 825A      01AE2        5744        BAL   RW1,SU6010        INIT PGT OVFL CELLS                      55300021
 0033B4                             5745 FSEC0  DS    0H                                                         55310021
                                    5746 *                                                                       55320021
 0033B4 4860 9164      00164        5747        LH    RW1,LTLCTR                                                 55330021
 0033B8 4B60 915C      0015C        5748        SH    RW1,PNCTR                                                  55340021
 0033BC 4780 AB50      033D8        5749        BC    ZERO,FSEC1      NO PN'S, GN'SY OR D&B'S                    55350021
 0033C0 5870 C4E0      03B70        5750        L     RW2,ASECT1                                                 55360021
 0033C4 4560 825A      01AE2        5751        BAL   RW1,SU6010       GENERATE PGT INITIALIZATION               55370021
 0033C8 95FF 91D0      001D0        5752          CLI   SEGLMT,NOTSEGTD     IS SOURCE PROGRAM SEGMENTED          55380021
 0033CC 5870 C4E8      03B78        5753        L     RW2,ASEC1B           SKIP A TEXT FOR SEGM PROGR            55390021
 0033D0 4770 AB68      033F0        5754          BC    NOTEQ,FSEC1A        YES, BRANCH                          55400021
 0033D4 4560 825A      01AE2        5755 FSEC0A BAL   RW1,SU6010           INITIALIZE PGT FOR NOT SEGM PROGR     55410021
 0033D8                             5756 FSEC1  DS    0H                                                         55420021
                                    5757 *                                                                       55430021
 0033D8 4850 9168      00168        5758        LH    RW3,TSMAX                                                  55440021
 0033DC 4B50 D062      03DFA        5759        SH    RW3,MAXOV                                                  55450021
 0033E0 4780 AB64      033EC        5760          BC    ZERO,FSECX2         NO TGT OVFLO CELLS                   55460021
 0033E4 5870 C4EC      03B7C        5761        L     RW2,ASECX2                                                 55470021
 0033E8 4560 825A      01AE2        5762          BAL   RW1,SU6010          INIT TGT OVFLO CELLS                 55480021
 0033EC                             5763 FSECX2 DS    0H                                                         55490021
 0033EC 47F0 AB70      033F8        5764          B     RNEW                GEN CODING TO INIT VN CELLS          55500021
 0033F0 5870 C4E4      03B74        5765 FSEC1A L     RW2,ASEC1A           GET ADDR OF INIT2 TEXT FOR SEGM       55510021
 0033F4 47F0 AB4C      033D4        5766        B     FSEC0A               INITIALIZE PGT FOR SEGM PROG          55520021
 0033F8                             5767 FSECR  DS    0H                                                         55530021
1PH60     IKFCBL60                                                                                              PAGE  140
-  LOC  OBJECT CODE    ADDR1 ADDR2  STMT   SOURCE STATEMENT                                       ASM 0201 11.03 02/14/15
00033F8                             5769 RNEW     DS    0H                                                       55550021
                                    5770 *                                                                       55560021
                                    5771 *      GENERATE CODING TO INITIALIZE VN CELLS                           55570021
                                    5772 *                                                                       55580021
 0033F8 41E0 AB8E      03416        5773          LA    RS1,FTINP                                                55590021
 0033FC                             5774 GATTV  DS    0H                                                         55600021
 0033FC 4850 920E      0020E        5775        LH    RW3,VNCTR                                                  55610021
 003400 1255                        5776        LTR   RW3,RW3     NO VNI CELLS                                   55620021
 003402 078E                        5777        BCR   ZERO,RS1         NO                                        55630021
 003404 4170 C35F      039EF        5778        LA    RW2,VNATX                                                  55640021
 003408 92FF D0FC      03E94        5779          MVI   SPVNRF,SPVN1        USE VN1 IF PROG SEGMENTED            55650021
 00340C 92FF D133      03ECB        5780          MVI   VNOVFL,ALLON        SWITCH FOR INIT3              21795  55660021
 003410 58F0 C4F4      03B84        5781        L     R15,ACODLU                                                 55670021
 003414 07FF                        5782        BCR   UNCOND,R15            GO CODE UP A-TXT                     55680021
 003416                             5783 FTINP  DS    0H                                                         55690021
 003416 9200 D133      03ECB        5784          MVI   VNOVFL,INITOFF      UNUT3 SW OFF                   21795 55700021
 00341A 9500 D2EA      04082        5785          CLI   C6OP,NOPOPCD                                             55710021
 00341E 4780 ABA0      03428        5786        BC    EQ,EINRG              CNOP, SO DON'T PRINT LINE            55720021
 003422 58F0 C464      03AF4        5787        L     R15,AS6800                                                 55730021
 003426 05EF                        5788        BALR  RS1,R15               FORMAT AND PRINT LINE                55740021
 003428                             5789 EINRG  DS    0H                                                         55750021
                                    5790 *      GENERATE CODING TO INITIALIZE ANY QRTNES WHICH DEPEND ON W-S     55760021
 003428 4850 916C      0016C        5791        LH    RW3,ODOCTR                                                 55770021
 00342C 1255                        5792        LTR   RW3,RW3                                                    55780021
 00342E 4780 AC12      0349A        5793        BC    ZERO,QINTF            NO QRTN'S, CONTINUE                  55790021
 003432 D209 D570 C355 04308 039E5  5794        MVC   QATEXT,QTEXTC                                              55800021
 003438 1B55                        5795        SR    RW3,RW3                                                    55810021
 00343A 4050 D0C8      03E60        5796 GQINT  STH   RW3,SAVBCT                                                 55820021
 00343E 8950 0001      00001        5797          SLL   RW3,DX1                                                  55830021
 003442 5810 C670      03D00        5798        L     R1,AQTBL                                                   55840021
 003446 58F0 C4AC      03B3C        5799        L     R15,ATABLE                                                 55850021
 00344A 05EF                        5800        BALR  RS1,R15               GET TABLE ADDR AND SIZE              55860021
 00344C 4861 5000      00000        5801          LH    RW1,DX0(R1,RW3)                                          55870021
 003450 1876                        5802        LR    RW2,RW1                                                    55880021
 003452 5460 C024      036B4        5803        N     RW1,C15BIT                                                 55890021
 003456 4060 D574      0430C        5804        STH   RW1,QNUM                                                   55900021
 00345A 1567                        5805        CLR   RW1,RW2                                                    55910021
 00345C 4780 ABF0      03478        5806        BC    EQ,QINTB              NUMBERS MATCH                        55920021
 003460 5870 C4CC      03B5C        5807        L     RW2,AXQTXT                                                 55930021
 003464 4560 825A      01AE2        5808        BAL   RW1,SU6010            GO DO COMMON ASSEM A-TXT CODE        55940021
 003468 4170 D570      04308        5809        LA    RW2,QATEXT                                                 55950021
 00346C 4560 825A      01AE2        5810        BAL   RW1,SU6010            GO DO COMMON ASSEM A-TXT CODE        55960021
 003470 5870 C4D0      03B60        5811        L     RW2,AYQTXT                                                 55970021
 003474 47F0 ABF4      0347C        5812          BC    UNCOND,QINTC        CONTINUE                             55980021
 003478 4170 D570      04308        5813 QINTB  LA    RW2,QATEXT                                                 55990021
 00347C 4560 825A      01AE2        5814 QINTC  BAL   RW1,SU6010            GO DO COMMON ASSEM A-TXT CODE        56000021
 003480 1B55                        5815        SR    RW3,RW3                                          8267      56010021
 003482 4050 D28E      04026        5816        STH   RW3,CELL14                                       8267      56020021
 003486 4050 D292      0402A        5817        STH   RW3,CELL15                                       8267      56030021
 00348A 4850 D0C8      03E60        5818        LH    RW3,SAVBCT                                                 56040021
 00348E 4155 0001      00001        5819          LA    RW3,DX1(RW3)                                             56050021
 003492 4950 916C      0016C        5820        CH    RW3,ODOCTR                                                 56060021
 003496 4770 ABB2      0343A        5821        BC    NOTEQ,GQINT           NOT DONE YET                         56070021
                             0349A  5822 QINTF  EQU   *                                                          56080021
                                    5823 *   GENERATE REGISTER ASSIGNMENT                                        56090021
1PH60     IKFCBL60                                                                                              PAGE  141
-  LOC  OBJECT CODE    ADDR1 ADDR2  STMT   SOURCE STATEMENT                                       ASM 0201 11.03 02/14/15
000349A 9500 D2EA      04082        5824          CLI   C6OP,NOPOPCD                                             56100021
 00349E 4780 AC20      034A8        5825        BC    EQ,QINTF2             CNOP, SO DON'T PRINT LINE            56110021
 0034A2 58F0 C464      03AF4        5826        L     R15,AS6800                                                 56120021
 0034A6 05EF                        5827        BALR  RS1,R15               FORMAT AND PRINT LINE                56130021
 0034A8                             5828 QINTF2 DS    0H                                                         56140021
 0034A8 58F0 C508      03B98        5829        L     R15,AINITR                                                 56150021
 0034AC 05EF                        5830        BALR  RS1,R15               GO GEN LOAD OF PERM REGS             56160021
 0034AE                             5831 QINTX  DS    0H                                                         56170021
 0034AE 5870 C4C8      03B58        5832        L     RW2,AINI3B                                                 56180021
 0034B2                             5833 YCHAP  DS    0H                                                         56190021
 0034B2 4560 825A      01AE2        5834        BAL     RW1,SU6010          GO DO COMMON ASSEM A-TXT CODE        56200021
 0034B6 58F0 C464      03AF4        5835        L     R15,AS6800             PRINT LAST LINE                     56210021
 0034BA 05EF                        5836        BALR  RS1,R15               FORMAT AND PRINT LINE                56220021
                                    5837 *      SAVE HI VALUE OF LOCATION COUNTER FOR LENGTH OF CSECT            56230021
 0034BC 5860 9148      00148        5838        L       RW1,LOCCTR                                               56240021
 0034C0 5060 C6F8      03D88        5839          ST    RW1,LNSECT                                               56250021
                                    5840 *        RELEASE QTBL                                                   56260021
 0034C4 4110 C670      03D00        5841        LA    R1,AQTBL         XTABRL WILL LOAD R1 WITH TIB ADDRESS      56270021
 0034C8 58F0 C4A8      03B38        5842        L     R15,ATABRL                                                 56280021
 0034CC 05EF                        5843        BALR  RS1,R15               RELEASE QTBL                         56290021
1PH60     IKFCBL60                                                                                              PAGE  142
-  LOC  OBJECT CODE    ADDR1 ADDR2  STMT   SOURCE STATEMENT                                       ASM 0201 11.03 02/14/15
0                                   5845 *=1    PUNCH AND LIST INIT1                                             56310021
                                    5846 *                                                                       56320021
                                    5847 *                                                                       56330021
                                    5848 *      SET UP GET ROUTINE FOR INIT1                                     56340021
                                    5849 *                                                                       56350021
 0034CE                             5850 GINIT1 DS    0H                                                         56360021
 0034CE 95FF 91D0      001D0        5851          CLI   SEGLMT,NOTSEGTD     IS PROGRAM SEGMENTED                 56370021
 0034D2 4770 ACC8      03550        5852          BC    NOTEQ,OSIN12        YES, BRANCH                          56380021
                             034D6  5853 OSIN0  EQU   *                                                          56390021
 0034D6 9400 D3DB      04173        5854          NI    FGET,FGETNEW        GETNEW BLOCK                         56400021
 0034DA D703 9148 9148 00148 00148  5855        XC    LOCCTR,LOCCTR    ZERO LOCCTR-OR DUMMY START                56410021
 0034E0 5870 C47C      03B0C        5856        L     RW2,AINIOS                                                 56420021
 0034E4                             5857 OSIN1  DS    0H                                                         56430021
 0034E4 D204 D7AB C08F 04543 0371F  5858          MVC   OU6NAM(LX5),CINIT1                                       56440021
 0034EA 4560 825A      01AE2        5859        BAL   RW1,SU6010       GENERATE INIT1 CODING                     56450021
 0034EE 58F0 C464      03AF4        5860        L     R15,AS6800                                                 56460021
 0034F2 05EF                        5861        BALR  RS1,R15               FORMAT AND PRINT LINE                56470021
 0034F4 5860 9148      00148        5862        L     RW1,LOCCTR                                                 56480021
 0034F8 5060 D314      040AC        5863        ST    RW1,C6WRK0                                                 56490021
 0034FC 58F0 C474      03B04        5864        L     R15,AS6010            CONVERT LOCCTR TO DECIMAL            56500021
 003500 05EF                        5865        BALR  RS1,R15               CONVERT                              56510021
 003502 D205 D790 D31A 04528 040B2  5866          MVC   OU6LC(LX6),C6WRK3                                        56520021
 003508 D201 D7B4 C09E 0454C 0372E  5867          MVC   OU6OPN(LX2),DSCON    SET UP DS 15F FORPRINTING           56530021
 00350E D202 D7BA C0A0 04552 03730  5868          MVC   OU6OPD(LX3),DS15F                                        56540021
 003514 58F0 C460      03AF0        5869        L     R15,APUT              PRINT DS 15F                         56550021
 003518 05EF                        5870        BALR  RS1,R15               PRINT                                56560021
 00351A 4166 003C      0003C        5871          LA    RW1,DX60(RW1)        INCREMENT LOCATION COUNTER          56570021
 00351E 5060 9148      00148        5872        ST    RW1,LOCCTR                                                 56580021
 003522 9104 91D3      001D3        5873          TM    PH1BYTE,INITBIT     APPLY CORE INDEX SPECIFIED           56590021
 003526 47E0 ACB0      03538        5874        BC    NOTONE,FPRIDX         NO-GO TO PRINT PROGRAM-ID            56600021
 00352A 5870 C478      03B08        5875        L     RW2,AINI1A            YES, GENERATE CODING                 56610021
 00352E 4560 825A      01AE2        5876        BAL   RW1,SU6010            CONVERT                              56620021
 003532 58F0 C464      03AF4        5877        L     R15,AS6800            PRINT LAST LINE                      56630021
 003536 05EF                        5878        BALR  RS1,R15               FORMAT AND PRINT LINE                56640021
 003538 4170 D136      03ECE        5879 FPRIDX LA    RW2,FFPRID            PRINT PROGRAM-ID                     56650021
 00353C 5070 C470      03B00        5880        ST    RW2,ADTEST                                                 56660021
 003540 4160 ACD4      0355C        5881        LA    RW1,FTER                                                   56670021
 003544 5060 D158      03EF0        5882        ST    RW1,EOFADR                                                 56680021
 003548 9400 D3DB      04173        5883          NI    FGET,FGETNEW        GET NEW BLOCK                        56690021
 00354C 47F0 8240      01AC8        5884          BC    UNCOND,SE6080       GO GET NEXT ELT                      56700021
 003550 5860 C704      03D94        5885 OSIN12 L     RW1,ASEGLB            GET INIT1 TXT ADDR              STAN 56710021
 003554 9268 6003      00003        5886          MVI   DX3(RW1),XX68        CHANGE TO A VCON                STA 56720021
 003558 47F0 AC4E      034D6        5887        B     OSIN0                 CONTINUE WITH INIT1 CODING      STAN 56730021
 00355C                             5888 FTER   DS    0H                                                         56740021
1PH60     IKFCBL60                                                                                              PAGE  143
-  LOC  OBJECT CODE    ADDR1 ADDR2  STMT   SOURCE STATEMENT                                       ASM 0201 11.03 02/14/15
0                                   5890 *=1    CODING FROM HERE ON UNTIL 'CONSTANTS' CAN BE SEPARATE            56760021
                                    5891 *=     MEMORY LOAD                                                      56770021
                                    5892 *=1    FORCE OUT LAST CARDS                                             56780021
 00355C 50E0 C6F4      03D84        5893        ST    RS1,SVRET             SAVE RET ADDRESS                     56790021
 003560 1B00                        5894        SR    R0,R0                        TEXT                          56800021
 003562 58F0 C46C      03AFC        5895        L     R15,ATXPNH                                                 56810021
 003566 05EF                        5896        BALR  RS1,R15               PUNCH TEXT                           56820021
 003568 1B00                        5897        SR    R0,R0                        RLD                           56830021
 00356A 58F0 C490      03B20        5898        L     R15,ARLD                                                   56840021
 00356E 05EF                        5899        BALR  RS1,R15               PUNCH RLD CARD                       56850021
                                    5900 *=1    PUNCH END CARD                                                   56860021
 003570 D204 D174 C350 03F0C 039E0  5901          MVC   ENDFLD(LX5),ENDCON                                       56870021
 003576 D24A D179 D178 03F11 03F10  5902          MVC   ENDCONDP(LX75),ENDCONST                                  56880021
 00357C D202 D179 C058 03F11 036E8  5903          MVC   ENDCONDP(LX3),C6F0  BRANCH TO INIT1 AT LOAD END          56890021
 003582 D203 D190 C6F8 03F28 03D88  5904          MVC   ENDLEN(LX4),LNSECT                                       56900021
 003588                             5905 ENDBPS DS      0H                                                       56910021
 003588 D201 D182 C06C 03F1A 036FC  5906          MVC   ENDESDID(LX2),C61   ESDID                                56920021
                                    5907 *  GENERATE CARD NUMBER                                                 56930021
 00358E FA20 D130 C039 03EC8 036C9  5908          AP    CRDNUM(LX3),DECONE(LX1) UP CARD NUMBER                   56940021
 003594 F332 D1C0 D130 03F58 03EC8  5909          UNPK  ENDCRDNO(LX4),CRDNUM(LX3)                                56950021
 00359A 96F0 D1C3      03F5B        5910          OI    ENDZONE,MF0         CHANGE ZONE                          56960021
 00359E D203 D1BC 9150 03F54 00150  5911          MVC   ENDPRGID(LX4),PROGID                                     56970021
                                    5912 **                                                                      56980021
                                    5913 **     FOR  OS/360 PUT LENGTH OF OBJECT TIME CSECT INTO END CARD        56990021
                                    5914 **     (SAVED IN LCSECT   DS   F)                                       57000021
                                    5915 **                                                                      57010021
                                    5916 *                                                                       57020021
 0035A4 1819                        5917 END010 LR    R1,RB2                                                     57030021
 0035A6 4120 D174      03F0C        5918        LA    R2,ENDFLD                                                  57040021
 0035AA 4130 0050      00050        5919        LA   R3,EIGHTY                                                   57050021
 0035AE 0501                        5920        BALR  R0,R1                 BR TO PH0                            57060021
 0035B0 17                          5921        DC    X'17'                 PUNCH FROM SYSPCH                    57070021
 0035B1 00
 0035B2 9102 D0FD      03E95        5922          TM    SEGSW,SEGENDCD      CONTROL TO BE RET TO SEGT-CD         57080021
 0035B6 4780 AD38      035C0        5923          BC    ZERO,END020         NO, BR -END OF ROOT/NO SEGMENT       57090021
 0035BA 58E0 C6F4      03D84        5924        L     RS1,SVRET             RESTORE RETURN REG                   57100021
 0035BE 07FE                        5925        BR    RS1                  RETURN TO SEGMENTATION CODE           57110021
 0035C0                             5926 END020 DS    0H                                                         57120021
 0035C0 95FF 91D0      001D0        5927          CLI   SEGLMT,NOTSEGTD     IS PROGRAM SEGMENTED                 57130021
 0035C4 4780 AD4A      035D2        5928          BC    EQ,END015           NO, BRANCH                           57140021
 0035C8 9601 D0FD      03E95        5929          OI    SEGSW,SEGENTRY      YES, SET ENTRY CARD SWITCH           57150021
 0035CC 58F0 C454      03AE4        5930        L     R15,AESD                                                   57160021
 0035D0 05EF                        5931        BALR  RS1,R15               PUNCH ENTRY CARD                     57170021
 0035D2                             5932 END015 DS    0H                                                         57180021
 0035D2 5860 D04C      03DE4        5933        L     RW1,LOCPGM                                                 57190021
 0035D6 5060 9148      00148        5934        ST    RW1,LOCCTR       SAVE PROGRAM BEGINNING                    57200021
                                    5935 *   RELEASE PNTBL AND GNTBL                                             57210021
 0035DA 4110 C6B0      03D40        5936        LA    R1,APNTBL                                                  57220021
 0035DE 58F0 C4A8      03B38        5937        L     R15,ATABRL                                                 57230021
 0035E2 05EF                        5938        BALR  RS1,R15               RELEASE PNTBL                        57240021
 0035E4 4110 C6B8      03D48        5939        LA    R1,AGNTBL                                                  57250021
 0035E8 58F0 C4A8      03B38        5940        L     R15,ATABRL                                                 57260021
 0035EC 05EF                        5941        BALR  RS1,R15               RELEASE GNTBL                        57270021
                                    5942 *  RELEASE VNPTY TABLE                                                  57280021
 0035EE 4110 C6D0      03D60        5943          LA    R1,AVNPTY                                                57290021
1PH60     IKFCBL60                                                                                              PAGE  144
-  LOC  OBJECT CODE    ADDR1 ADDR2  STMT   SOURCE STATEMENT                                       ASM 0201 11.03 02/14/15
00035F2 58F0 C4A8      03B38        5944        L     R15,ATABRL                                                 57300021
 0035F6 05EF                        5945        BALR  RS1,R15               RELEASE VNPTY                        57310021
                                    5946 *                                                                       57320021
 0035F8 91FF D11C      03EB4        5947          TM    DOEOTSW,DOEOTBL     NEED END-OF-TBL MARKER               57330021
 0035FC 4780 AD8A      03612        5948          BC    ZERO,NOETBL         E-TEXT IS ON F3 - DON'T NEED         57340021
 003600 5810 C6C8      03D58        5949          L     R1,AERRTB           END OF TABLE INDICATOR -BRANCH       57350021
 003604 58F0 C4AC      03B3C        5950          L     R15,ATABLE                                               57360021
 003608 05EF                        5951          BALR  RS1,R15             GET TABLE  ADDRESS                   57370021
 00360A 4A10 D11E      03EB6        5952          AH    R1,EINDEX                                                57380021
 00360E 9277 1000      00000        5953          MVI   DX0(R1),XX77         PUT IN EOTAB INDICATOR              57390021
 003612                             5954 NOETBL   DS    0H                                                       57400021
 003612 9140 91A3      001A3        5955        TM    PHZSW,LISTX                                                57410021
 003616 4710 AD9A      03622        5956        BC    ONES,END023           MAP SO SKIP LINES                    57420021
 00361A 9140 91A4      001A4        5957          TM    PHZSW1,CLIST                                             57430021
 00361E 4780 ADB4      0363C        5958          BC    ZERO,END024         NO PH6 PRINTED O/P SO AT TOP OF      57440021
 003622                             5959 END023   DS    0H                                                       57450021
 003622 9240 D77C      04514        5960          MVI   OU6REC,BLANK        CLEAR PRINT AREA                     57460021
 003626 D276 D77D D77C 04515 04514  5961          MVC   OU6CDN(LX119),OU6REC                                     57470021
 00362C 58F0 C460      03AF0        5962          L     R15,APUT                                                 57480021
                             054DE  5963          USING PUT,R15                                                  57490021
 003630 45E0 F006      054E4        5964          BAL   RS1,PUTM            PRINT 3 BLANK LINES                  57500021
 003634 45E0 F006      054E4        5965          BAL   RS1,PUTM            AFTER PROCEDURE OR                   57510021
 003638 45E0 F006      054E4        5966          BAL   RS1,PUTM            CONDENSED MAP                        57520021
 00363C                             5967 END024   DS    0H                                                       57530021
 00363C 9182 91A4      001A4        5968          TM    PHZSW1,XANDM        NO MAPSUP AND                        57540021
 003640 47E0 ADCC      03654        5969          BC    NOTONE,END026        NO XREF - PROCEED NORMALLY          57550021
 003644 950C 91A2      001A2        5970          CLI   ERRSEV,ELEVEL       HAVE ANY E-LEVEL DIAG.OCCURRED       57560021
 003648 4740 ADCC      03654        5971          BC    LO,END026           PROCEED NORMALLY                     57570021
 00364C 5880 C700      03D90        5972          L     RB1,AFIRST                                               57580021
                             0002E  5973          USING FIRST,RB1                                                57590021
 003650 45E0 80C8      000F6        5974          BAL   RS1,MSGMS1          GO PRINT MAPSUPPRESS MSG, STATIS     57600021
                                    5975          DROP  RB1                 AND THEN DO PH6A                     57610021
                             01888  5976        USING RB1BAS,RB1                                                 57620021
 003654                             5977 END026   DS    0H                                                       57630021
 003654 58F0 C510      03BA0        5978          L     R15,APRSTAT                                              57640021
 003658 05EF                        5979          BALR  RS1,R15             GO PRINT STATISTICS                  57650021
 00365A 91FF 91C2      001C2        5980          TM    ERF4SW,ERF4ON       ANY ERRORS                           57660021
 00365E 4710 ADF8      03680        5981          BC    ONES,END025         YES - CALL NEXT PHASE                57670021
 003662 1B77                        5982          SR    RW2,RW2                                                  57680021
 003664 4970 9180      00180        5983        CH    RW2,SEQERR           ANY SEQUENCE ERRORS                   57690021
 003668 4780 ADEC      03674        5984        BC    EQ,CLOSE               NO                                  57700021
 00366C 9104 91A3      001A3        5985          TM    PHZSW,FLAGW         WARNING LEVEL                        57710021
 003670 4710 ADF8      03680        5986          BC    ONES,END025         NEED PHASE 7                         57720021
 003674                             5987 CLOSE    DS    0H                                                       57730021
 003674 9180 91A4      001A4        5988          TM    PHZSW1,XREF                                              57740021
 003678 4710 ADFC      03684        5989          BC    ONES,END030         NEED 6A                              57750021
 00367C 0509                        5990          BALR  R0,RB2              END OF JOB                           57760021
 00367E B0                          5991          DC    X'B0'                                                    57770021
                                    5992 *                                                                       57780021
 003680                             5993 END025   DS    0H                                                       57790021
 003680 9602 9183      00183        5994          OI    SWITCH+NX1,DOPH7     TELL 6A TO CALL PH7                 57800021
 003684                             5995 END030   DS    0H                                                       57810021
 003684 4110 D0BC      03E54        5996          LA    R1,COSADR                                                57820021
 003688 0509                        5997          BALR  R0,RB2              CALL NEXT PHASE                      57830021
 00368A A0                          5998          DC    X'A0'                                                    57840021
1PH60     IKFCBL60                                                                                              PAGE  145
-  LOC  OBJECT CODE    ADDR1 ADDR2  STMT   SOURCE STATEMENT                                       ASM 0201 11.03 02/14/15
0003690                             6000 IKF605   CSECT                                                          57860021
 003690                             6001 ERR010 DS    0H                                                         57870021
                                    6002 *                                                                       57880021
                                    6003 *=1            CONSTANTS                                                57890021
                                    6004 *                                                                       57900021
 003690                             6005 C6CNST DS    0C                                                         57910021
 003690 00000007                    6006 C6M1   DC    A(7)                                                       57920021
 003694 0000000F                    6007 C6M2   DC    A(15)                                                      57930021
 003698 000000FF                    6008 C6M3   DC    A(255)                                                     57940021
 00369C 0000D000                    6009 C6M4   DC    A(53248)    R13                                            57950021
 0036A0 0000F000                    6010 C6M4A  DC    A(MC6M4A)        R15                                       57960021
 0036A4 0000B000                    6011 C6M4B  DC    A(MC6M4B)             R11                                  57970021
 0036A8 0000C000                    6012 C6M5   DC    A(49152)    R12                                            57980021
 0036AC 00000FFF                    6013 C6M6   DC    A(4095)                                                    57990021
 0036B0 0000007F                    6014 C6MA   DC    A(M7F)                                                     58000021
 0036B4 00007FFF                    6015 C15BIT DC    F'32767'                                                   58010021
 0036B8 0000FFFF                    6016 C6M7   DC    F'65535'                                                   58020021
 0036BC 000001FF                    6017 C6M9   DC    A(M1FF)                                                    58030021
 0036C0 00001FFF                    6018 C6M13  DC    A(M1FFF)                                                   58040021
 0036C4 000000F0                    6019 C6M10  DC    A(MF0)                                                     58050021
 0036C8 0C                          6020 C6P0   DC    X'0C'       PACKED DECIMAL ZERO                            58060021
 0036C9 1C                          6021 DECONE DC    X'1C'            DECIMAL +1                                58070021
 0036CA D9C5C7C9E2E3C5D9            6022 CCREG  DC    C'REGISTER ASSIGNM'                                        58080021
 0036DA C5D5E3                      6023        DC    C'ENT'                                                     58090021
 0036DD C2D3407E                    6024 CCBLI    DC    C'BL ='                                                  58100021
 0036E1 000000
 0036E4 000000F9                    6025 C69    DC    A(MF9)                                                     58110021
 0036E8 00000000                    6026 C6F0   DC      F'0'                                                     58120021
 0036EC 0000007F                    6027 FW127  DC    F'127'                                                     58130021
 0036F0 00000020                    6028 C6F32  DC    F'32'                                                      58140021
 0036F4                             6029 C6M14  DS    0F                                                         58150021
 0036F4 80000000                    6030        DC    X'80000000'                                                58160021
 0036F8                             6031 CHD64  DS    0H                                                         58170021
 0036F8 1000                        6032 H4096  DC    H'4096'                                                    58180021
 0036FA 0FFC                        6033 CH4092 DC    H'4092'                                                    58190021
 0036FC 0001                        6034 C61    DC    H'1'                                                       58200021
 0036FE 0002                        6035 C62    DC    H'2'                                                       58210021
 003700 0003                        6036 C63    DC    H'3'                                                       58220021
 003702 0004                        6037 C64    DC    H'4'                                                       58230021
 003704 0005                        6038 C6H5   DC    H'5'                                                       58240021
 003706 0006                        6039 C6H6   DC    H'6'                                                       58250021
 003708 000C                        6040 C6H12    DC    H'12'                                                    58260021
 00370A 000E                        6041 C6H14  DC    H'14'                                                      58270021
 00370C 0010                        6042 C610   DC    H'16'                                                      58280021
 00370E 0030                        6043 C630   DC    H'48'                                                      58290021
 003710 0007                        6044 C6H7   DC    H'7'                                                       58300021
 003712 0008                        6045 C68   DC    H'8'                                                        58310021
 003714 0009                        6046 C6H9   DC    H'9'                                                       58320021
 003716 0100                        6047 C6256  DC    H'256'                                                     58330021
 003718 7F00                        6048 MAXPRM DC    H'32512'                                                   58340021
 00371A                             6049        DS    0H                                                         58350021
 00371A 00E0                        6050 C6H14D DC    X'00E0'                                                    58360021
 00371C FFFFFF                      6051 C6FFF    DC    X'FFFFFF'                                                58370021
 00371F C9D5C9E3F1                  6052 CINIT1 DC    C'INIT1'                                                   58380021
 003724 C9D5C9E3F2                  6053 CINIT2 DC    C'INIT2'                                                   58390021
1PH60     IKFCBL60                                                                                              PAGE  146
-  LOC  OBJECT CODE    ADDR1 ADDR2  STMT   SOURCE STATEMENT                                       ASM 0201 11.03 02/14/15
0003729 C9D5C9E3F3                  6054 CINIT3 DC      C'INIT3'                                                 58400021
 00372E C4E2                        6055 DSCON  DC    C'DS'                                                      58410021
 003730 F1F5C6                      6056 DS15F  DC    C'15F'                                                     58420021
                                    6057 *  TEXT OF MESSAGES                                                     58430021
 003733 C9D2C6F6F0F0F7C9            6058 RLDMSG   DC    C'IKF6007I-D    TA'                                      58440021
 003743 C2D3C540D6E5C5D9            6059          DC    C'BLE OVERFLOW. PM'                                      58450021
 003753 C1D740D3D6C1C440            6060          DC    C'AP LOAD MODULE A'                                      58460021
 003763 D5C440C4C5C3D240            6061          DC    C'ND DECK WILL BE '                                      58470021
 003773 C9D5C3D6D4D7D3C5            6062          DC    C'INCOMPLETE. INCR'                                      58480021
 003783 C5C1E2C540E2C9E9            6063          DC    C'EASE SIZE PARM.'                                       58490021
 003792 C9D2C6F6F0F0F5C9            6064 MSGABA   DC    C'IKF6005I-D    CO'                                      58500021
 0037A2 D4D7C9D3C5D940C5            6065          DC    C'MPILER ERROR. CO'                                      58510021
 0037B2 D4D7C9D3C1E3C9D6            6066          DC    C'MPILATION WILL N'                                      58520021
 0037C2 D6E340C2C540C3D6            6067          DC    C'OT BE COMPLETE. '                                      58530021
                                    6068 *DEL                                                                    58540021
 0037D2 C9D2C6F6F0F0F6C9            6069 MSMSG    DC    C'IKF6006I-E     S'                                47939 58550021
 0037E2 E4D7D4C1D740E2D7            6070          DC    C'UPMAP SPECIFIED '                                47939 58560021
 0037F2 C1D5C440C540D3C5            6071          DC    C'AND E LEVEL DIAG'                                47939 58570021
 003802 D5D6E2E3C9C340C8            6072          DC    C'NOSTIC HAS OCCUR'                                47939 58580021
 003812 D9C5C44B40D7D4C1            6073          DC    C'RED. PMAP CLIST '                                47939 58590021
 003822 D3D6C1C440C1D5C4            6074          DC    C'LOAD AND DECK WI'                                47939 58600021
 003832 D3D340C2C540C9C7            6075          DC    C'LL BE IGNORED.'                                  47939 58610021
 003840 5CE2E3C1E3C9E2E3            6076 SMSG1    DC    C'*STATISTICS*'                                          58620021
 00384C E2D6E4D9C3C540D9            6077 SMSG2    DC    C'SOURCE RECORDS ='                                      58630021
 00385C 5CD6D7E3C9D6D5E2            6078 SMSG3    DC    C'*OPTIONS IN EFFECT*'                                   58640021
 00386F C4C1E3C1                    6079 SMSG4    DC    C'DATA'                                                  58650021
 003873 D7D9D6C3C5C4E4D9            6080 SMSG5    DC    C'PROCEDURE '                                            58660021
 00387D C4C9E5C9E2C9D6D5            6081 SMSG6    DC    C'DIVISION STATEMENTS ='                                 58670021
 003892 C4C9C3E3C9D6D5C1            6082 SMSG7    DC    C'DICTIONARY SPILL'                                      58680021
 0038A2 40C4E4D9C9D5C740            6083          DC    C' DURING MERGE PH'                                      58690021
 0038B2 C1E2C540C8C1E240            6084          DC    C'ASE HAS OCCURRED'                                      58700021
 0038C2 E2C9E9C5407E                6085 SMSG8    DC    C'SIZE ='                                                58710021
 0038C8 D3C9D5C5C3D5E340            6086 SMSG9    DC    C'LINECNT ='                                             58720021
 0038D1 C2E4C6407E                  6087 SMSG10   DC    C'BUF ='                                                 58730021
 0038D6 E2D7C1C3C5406B              6088 SMSG11   DC    C'SPACE ,'                                               58740021
 0038DD C6D3C1C7E66B4040            6089 SMSG12   DC    C'FLAGW,   SEQ,   '                                      58750021
 0038ED E2D6E4D9C3C5                6090          DC    C'SOURCE'                                                58760021
 0038F3 4040C4D4C1D76B40            6091 SMSG13   DC    C'  DMAP,   PMAP, '                                      58770021
 003903 4040C3D3C9E2E36B            6092          DC    C'  CLIST,   SUPMA'                                      58780021
 003913 D76B404040E7D9C5            6093          DC    C'P,   XREF,   LOA'                                      58790021
 003923 C46B404040C4C5C3            6094          DC    C'D,   DECK, APOST'                                      58800021
 003933 6B404040E3D9E4D5            6095          DC    C',   TRUNC,   LIB'                                      58810021
 003943 6B404040E5C5D9C2            6096          DC    C',   VERB        '                                      58820021
 003953 4040E9E6C2404040            6097 SMSG14   DC    C'  ZWB           '                                      58830021
 003963 4040404040404040            6098          DC    C'                '                                      58840021
 003973 4040404040404040            6099          DC    C'                '                                      58850021
 003983 4040404040404040            6100          DC    C'                '                                      58860021
 003993 4040404040404040            6101          DC    C'                '                                      58870021
 0039A3 4040404040404040            6102          DC    C'                '                                      58880021
 0039B3 D5D6                        6103 SMSGNO   DC    C'NO'                                                    58890021
 0039B5 4020202020202020            6104 EDWD1    DC    X'4020202020202020'                                      58900021
 0039BD E5C5D9C2                    6105 VRBCON   DC    C'VERB'                                                  58910021
 0039C1 D8E4D6E3C5                  6106 QUOTE  DC    C'QUOTE'                                                   58920021
 0039C6 0700                        6107 CNOPLT DC    X'0700'     BCR 0,0                                        58930021
 0039C8 40404040                    6108 SBDINI DC      C'    '      SYMBOLIC OPERAND INITIALIZATION AREA        58940021
1PH60     IKFCBL60                                                                                              PAGE  147
-  LOC  OBJECT CODE    ADDR1 ADDR2  STMT   SOURCE STATEMENT                                       ASM 0201 11.03 02/14/15
00039CC 0000000000000000            6109        DC      XL8'0'                                                   58950021
 0039D4 40404040                    6110        DC      C'    '                                                  58960021
 0039D8 0000000000000000            6111        DC      XL8'0'                                                   58970021
 0039E0 02                          6112 ENDCON DC    X'02'                                                      58980021
 0039E1 C5D5C4                      6113        DC    C'END'                                                     58990021
 0039E4 40                          6114        DC    C' '                                                       59000021
                             039E5  6115 QTEXTC EQU   *                                                          59010021
 0039E5 4858305000004805            6116        DC    X'48583050000048053300'  L  3,GN=  BALR  3,3               59020021
 0039EF 48D200AC54000001            6117 VNATX  DC    X'48D200AC540000019000000100'       INIT3 TEXT        2179 59030021
 0039FC 48D200AC5C0C01A8            6118 SBLATX DC    X'48D200AC5C0C01A85C0401A800'                              59040021
 003A09 D9D7C47E                    6119 CRPD   DC    C'RPD='                                                    59050021
 003A0D 00000000000000              6120 ZERO7X DC    XL7'0'                                                     59060021
                                    6121 *  BEGINNING OF GROUP                                                   59070021
 003A14 C9D3C2D6                    6122 VTRTBL   DC    C'ILBO'             PREFIX FOR TABLE SUBROUTINES         59080021
 003A18 C1E3C2F0                    6123          DC    C'ATB0'                                                  59090021
 003A1C C5E3C2F0                    6124          DC    C'ETB0'                  SUFFIXES                        59100021
 003A20 C9E3C2F0                    6125          DC    C'ITB0'                  FOR                             59110021
 003A24 E3D9D5F0                    6126          DC    C'TRN0'                  TABLE                           59120021
 003A28 E4E3C2F0                    6127          DC    C'UTB0'                  SUBROUTINES                     59130021
 003A2C E6E3C2F0                    6128          DC    C'WTB0'                                                  59140021
                                    6129 *  END OF GROUP                                                         59150021
 003A30 D3C9E3C5D9C1D340            6130 LTDHEX DC    C'LITERAL POOL (HE'                                        59160021
 003A40 E75D                        6131        DC    C'X)'                                                      59170021
 003A42 C4C9E2D7D3C1E840            6132 LTDBCD DC    C'DISPLAY LITERALS'                                        59180021
 003A52 404DC2C3C45D                6133        DC    C' (BCD)'                                                  59190021
 003A58 E3D3                        6134 LTDTL  DC    C'TL'                                                      59200021
 003A5A C5D9D9D4E2C74040            6135 EMESLS DC    C'ERRMSG  '                                                59210021
 003A62 070E                        6136 RLDBC1   BCR   R0,RS1              EXECUTED BY RLD RTN                  59220021
 003A64 00000100                    6137 DUMMYS DC    F'256'           DUMMY START                               59230021
 003A68                             6138        DS    0F               SYMBOLIC OPERANDS                         59240021
 003A68 D7D57EF0                    6139 XPNC   DC    C'PN=0'                                                    59250021
 003A6C C7D57EF0                    6140 XGNC   DC    C'GN=0'                                                    59260021
 003A70 E5D57EF0                    6141 XVNC   DC    C'VN=0'                                                    59270021
 003A74 E5D5C97E                    6142 XVNIC  DC    C'VNI='                                                    59280021
 003A78 D3C9E34E                    6143 XLITC  DC    C'LIT+'                                                    59290021
 003A7C E5C9D97E                    6144 XVIRC  DC    C'VIR='                                                    59300021
 003A80 E3E24EF0                    6145 XTSC   DC    C'TS+0'                                                    59310021
 003A84 E2C2E27E                    6146 XSUBC  DC    C'SBS='                                                    59320021
                                    6147 ***  BEGINNING OF A GROUP WHICH MUST BE IN ORDER  ***                   59330021
 003A88                             6148 CSTBL  DS    0F                                                         59340021
 003A88 4870 D8E4      0467C        6149          LH    RW2,GT1KND+NX4                                           59350021
 003A8C 4A70 922A      0022A        6150        AH    RW2,PARMAX                                                 59360021
 003A90 4A70 920C      0020C        6151        AH    RW2,BLCTR                                                  59370021
 003A94 47F0 8A7A      02302        6152          BC    UNCOND,ERR040       ASYNC. PROC. ELEMENT *OUT*           59380021
 003A98 4A70 917A      0017A        6153        AH    RW2,SBLCTR                                                 59390021
 003A9C 47F0 8A7A      02302        6154          BC    UNCOND,ERR040       ASYNC. PROC. ELEMENT *OUT*           59400021
 003AA0 4A70 917C      0017C        6155        AH    RW2,VLCCTR                                                 59410021
 003AA4 47F0 8A7A      02302        6156          BC    UNCOND,ERR040       ASYNC. PROC. ELEMENT *OUT*           59420021
 003AA8 47F0 8A7A      02302        6157          BC    UNCOND,ERR040       ASYNC. PROC. ELEMENT *OUT*           59430021
 003AAC 4A70 917E      0017E        6158        AH    RW2,BLLCTR                                                 59440021
 003AB0 47F0 8A7A      02302        6159          BC    UNCOND,ERR040       ASYNC. PROC. ELEMENT *OUT*           59450021
                                    6160 ***  END OF A GROUP WHICH MUST BE IN ORDER  ***                         59460021
                                    6161 ***  BEGINNING OF A GROUP WHICH MUST BE IN ORDER  ***                   59470021
 003AB4                             6162 CSCON  DS    0F                                                         59480021
 003AB4 E3D3E84E                    6163        DC    C'TLY+'                                                    59490021
1PH60     IKFCBL60                                                                                              PAGE  148
-  LOC  OBJECT CODE    ADDR1 ADDR2  STMT   SOURCE STATEMENT                                       ASM 0201 11.03 02/14/15
0003AB8 D7D9D47E                    6164        DC    C'PRM='                                                    59500021
 003ABC C2D3407E                    6165          DC    C'BL ='                                                  59510021
 003AC0 40404040                    6166          DC    C'    '       **NOT PRESENTLY USED**                     59520021
 003AC4 E2C2D37E                    6167          DC    C'SBL='                                                  59530021
 003AC8 40404040                    6168          DC    C'    '       **NOT PRESENTLY USED**                     59540021
 003ACC E5D3C37E                    6169          DC    C'VLC='                                                  59550021
 003AD0 40404040                    6170          DC    C'    '       **NOT PRESENTLY USED**                     59560021
 003AD4 40404040                    6171          DC    C'    '       **NOT PRESENTLY USED**                     59570021
 003AD8 C2D3D37E                    6172        DC    C'BLL='                                                    59580021
 003ADC C2D3407E                    6173          DC    C'BL ='                                                  59590021
                                    6174 ***  END OF A GROUP WHICH MUST BE IN ORDER  ***                         59600021
                                    6175 *                                                                       59610021
                                    6176 *      OTHER ADDRESS CONSTANTS                                          59620021
 003AE0 000022CC                    6177 EOF3   DC    A(ENDF3)         WHERE TO GO AT END OF F3                  59630021
 003AE4 00005758                    6178 AESD   DC    A(ESDCRD)                                                  59640021
 003AE8 0000508C                    6179 AGET   DC    A(GET)                                                     59650021
 003AEC 00005218                    6180 AGETF4 DC    A(GETF4)                                                   59660021
 003AF0 000054DE                    6181 APUT   DC    A(PUT)                                                     59670021
 003AF4 00004B00                    6182 AS6800 DC    A(S6800)                                                   59680021
 003AF8 00004A5E                    6183 AS6200 DC    A(S6200)                                                   59690021
 003AFC 00005570                    6184 ATXPNH DC    A(TXPNCH)                                                  59700021
 003B00                             6185 ADTEST DS    F                                                          59710021
 003B04 00004A20                    6186 AS6010 DC    A(S6010)                                                   59720021
 003B08 000067EE                    6187 AINI1A DC    A(INIT1A)                                                  59730021
 003B0C 00006792                    6188 AINIOS DC    A(INITOS)                                                  59740021
 003B10 00000A78                    6189 APGTIN DC    A(PGTINT)                                                  59750021
 003B14 0000355C                    6190 AFTER    DC    A(FTER)                                                  59760021
 003B18 000063DE                    6191 ATGTCON  DC    A(TGTCON)                                                59770021
 003B1C 00006868                    6192 AINOS2 DC    A(INOS2)                                                   59780021
 003B20 000058B0                    6193 ARLD   DC    A(RLDCRD)                                                  59790021
 003B24 00005A80                    6194 AMAPLC DC    A(MAPLOC)                                                  59800021
 003B28 000054E4                    6195 APUTM    DC    A(PUTM)                                                  59810021
 003B2C 00006384                    6196 ASRCRL DC    A(SRCRLD)                                                  59820021
 003B30 00006480                    6197 AXPRIM DC    A(XPRIME)                                                  59830021
 003B34 000064E6                    6198 ASTATC DC    A(XSTATC)                                                  59840021
 003B38 000064FE                    6199 ATABRL DC    A(XTABRL)                                                  59850021
 003B3C 00006510                    6200 ATABLE DC    A(TABLES)                                                  59860021
 003B40 0000652E                    6201 ALTDMP DC    A(LTDMP)                                                   59870021
 003B44 000066FE                    6202 AXGT1C DC    A(XSAVC-4)                                                 59880021
 003B48 0000671E                    6203 AXGT2C DC    A(XDCBC)                                                   59890021
 003B4C 000066FE                    6204 AXSYMC DC    A(XSYMC)                                                   59900021
 003B50 00006A3E                    6205 ACNOPT DC    A(CNOPT)                                                   59910021
 003B54 0000693F                    6206 AINIT3 DC    A(INIT3)                                                   59920021
 003B58 00006970                    6207 AINI3B DC    A(INIT3B)                                                  59930021
 003B5C 0000697A                    6208 AXQTXT DC    A(XQTXT)                                                   59940021
 003B60 00006938                    6209 AYQTXT DC    A(YQTXT)                                                   59950021
 003B64 00006981                    6210 ARLTBL DC    A(RLTBL)                                                   59960021
 003B68 0000471C                    6211 AMNEUT DC    A(C6TBL)                                                   59970021
 003B6C 0000689C                    6212 ASECT0 DC    A(SECT0)                                                   59980021
 003B70 000068C5                    6213 ASECT1 DC    A(SECT1)                                                   59990021
 003B74 000068DF                    6214 ASEC1A DC    A(SECT1A)                                                  60000021
 003B78 000068FA                    6215 ASEC1B DC    A(SECT1B)                                                  60010021
 003B7C 0000690A                    6216 ASECX2 DC    A(SECTX2)                                                  60020021
 003B80 000051BE                    6217 AGETPN DC    A(GETPN)                                                   60030021
 003B84 000060E8                    6218 ACODLU DC    A(CODLUP)                                                  60040021
1PH60     IKFCBL60                                                                                              PAGE  149
-  LOC  OBJECT CODE    ADDR1 ADDR2  STMT   SOURCE STATEMENT                                       ASM 0201 11.03 02/14/15
0003B88 00001888                    6219 ARB1B  DC    A(RB1BAS)                                                  60050021
                                    6220 *                                                                       60060021
 003B8C 00005B10                    6221 AGENLD DC    A(GENLD)                                                   60070021
 003B90 00005C04                    6222 AGLDOV DC    A(GLDOV)                                                   60080021
 003B94 00005D10                    6223 ASRCHR DC    A(SRCHR)                                                   60090021
 003B98 00005E44                    6224 AINITR DC    A(INITR)                                                   60100021
 003B9C 00005EF0                    6225 AUSING DC    A(USING)                                                   60110021
 003BA0 000061A0                    6226 APRSTAT  DC    A(PRSTAT)                                                60120021
 003BA4                             6227 STATSAV  DS    F                   TO SAVE RETURN REG IN STATISTICS     60130021
 003BA8                             6228 SAVER4   DS    F                                                        60140021
 003BAC 000C                        6229 VRBCNT   DC    X'000C'             CNTR FOR VERB # FOR CLIST            60150021
 003BAE 0000                        6230 SAVCDNO  DC    X'0000'             TO SAVE OLD CARD # FOR CLIST         60160021
 003BB0                             6231 CDNOSAV  DS    CL2                 SAVED CARD NUMBER                    60170021
 003BB2 00                          6232 P6ESW    DC    X'0'                INTERNAL ERROR IN PH6                60180021
 003BB3 00
 003BB4 0000                        6233 CLIST3   DC    H'0'                SWITCH TO DETERMINE WHICH PORTIO     60190021
                                    6234 *                                  OF CLIST O/P AREA TO MOVE INFO I     60200021
                                    6235 ***  BEGINNING OF A GROUP WHICH MUST BE IN ORDER  ***                   60210021
 003BB8                             6236 MACLST   DS    0F            MUST BE IN ORDER TILL MAC140               60220021
 003BB8 00002302                    6237          DC    A(ERR080)                                                60230021
 003BBC 00002504                    6238          DC    A(MAC010)                                                60240021
 003BC0 000025D4                    6239          DC    A(MAC020)                                                60250021
 003BC4 00002630                    6240          DC    A(MAC030)                                                60260021
 003BC8 00001AC8                    6241        DC    A(SE6080)                                                  60270021
 003BCC 00001AC8                    6242        DC    A(SE6080)                                                  60280021
 003BD0 0000276A                    6243          DC    A(MAC060)                                                60290021
 003BD4 000025A6                    6244          DC    A(MAC070)                                                60300021
 003BD8 00002580                    6245          DC    A(MAC080)                                                60310021
 003BDC 00002634                    6246          DC    A(MAC090)                                                60320021
 003BE0 00002CE4                    6247          DC    A(MAC100)                                                60330021
 003BE4 00002D04                    6248          DC    A(MAC110)                                                60340021
 003BE8 00002CFC                    6249          DC    A(MAC120)                                                60350021
 003BEC 00002D30                    6250          DC    A(MAC130)                                                60360021
 003BF0 00002D5A                    6251          DC    A(MAC150)                                                60370021
 003BF4 00002DA8                    6252          DC    A(MAC160)                                                60380021
 003BF8 00002D3A                    6253          DC    A(MAC140)                                                60390021
 003BFC 00001652                    6254 ASEGBR DC    A(SEGBRK)             TYPE=44  SEGM CTRL BREAK             60400021
 003C00 00000000                    6255        DC    A(0)                  TYPE=48                              60410021
 003C04 00002DB4                    6256        DC    A(MAC180)        TYPE=4C   SEGM INITIAL. ELEMENT           60420021
 003C08 00002754                    6257          DC    A(MAC050)         TYPE=50  DUMMY PN                      60430021
                                    6258 ***  END OF A GROUP WHICH MUST BE IN ORDER  ***                         60440021
                                    6259 ***  BEGINNING OF A GROUP WHICH MUST BE IN ORDER  ***                   60450021
 003C0C                             6260 D6TBL    DS    0F                                                       60460021
 003C0C 000030B2                    6261          DC    A(D6DCB)                                                 60470021
 003C10 00003100                    6262          DC    A(D6DECB)                                                60480021
 003C14 000030E6                    6263          DC    A(D6BLK)                                                 60490021
 003C18 0000300C                    6264          DC    A(D6ERR)                                                 60500021
 003C1C 0000300C                    6265          DC    A(D6ERR)                                                 60510021
 003C20 0000300C                    6266          DC    A(D6ERR)                                                 60520021
 003C24 0000300C                    6267          DC    A(D6ERR)                                                 60530021
 003C28 0000300C                    6268          DC    A(D6ERR)            ***NO LONGER USED***                 60540021
 003C2C 000030EE                    6269          DC    A(D6WSA)                                                 60550021
 003C30 00003018                    6270          DC    A(D6CON)                                                 60560021
 003C34 000031E6                    6271          DC    A(D6ACON)                                                60570021
 003C38                             6272          DS    F                   30                                   60580021
1PH60     IKFCBL60                                                                                              PAGE  150
-  LOC  OBJECT CODE    ADDR1 ADDR2  STMT   SOURCE STATEMENT                                       ASM 0201 11.03 02/14/15
0003C3C 0000319A                    6273          DC    A(D6SBL)                                                 60590021
 003C40                             6274          DS    F                                                        60600021
 003C44                             6275        DS    F                     3C                                   60610021
 003C48                             6276        DS    F                     40                                   60620021
 003C4C                             6277        DS    F                     44                                   60630021
 003C50 000054AE                    6278        DC    A(D6DNDEF)            48                                   60640021
 003C54 000054C6                    6279        DC    A(D6PNDEF)            4C                                   60650021
                                    6280 ***  END OF A GROUP WHICH MUST BE IN ORDER  ***                         60660021
                                    6281 ***  BEGINNING OF A GROUP WHICH MUST BE IN ORDER  ***                   60670021
 003C58                             6282 LATBL  DS    0H                                                         60680021
 003C58 47F0 8A7A      02302        6283          BC    UNCOND,ERR040       ASYNC. PROC. ELEMENT *OUT*           60690021
 003C5C 4870 920E      0020E        6284        LH    RW2,VNCTR                                                  60700021
 003C60 4870 9232      00232        6285        LH    RW2,SA2CTR                                                 60710021
 003C64 4870 9212      00212        6286        LH    RW2,PFMCTR                                                 60720021
 003C68 4870 9216      00216        6287        LH    RW2,XSACTR                                                 60730021
 003C6C 4870 9214      00214        6288        LH    RW2,PSVCTR                                                 60740021
 003C70 4870 9236      00236        6289        LH    RW2,BLSEND                                                 60750021
 003C74 4870 9228      00228        6290        LH    RW2,SBSCTR                                                 60760021
 003C78 4870 917A      0017A        6291        LH    RW2,SBLCTR                                                 60770021
 003C7C 47F0 8A7A      02302        6292          BC    UNCOND,ERR040       ASYNC. PROC. ELEMENT *OUT*           60780021
                                    6293 ***  END OF A GROUP WHICH MUST BE IN ORDER  ***                         60790021
                                    6294 ***  BEGINNING OF A GROUP WHICH MUST BE IN ORDER  ***                   60800021
 003C80 4A60 9160      00160        6295 R6806  AH    RW1,DCBCTR                                                 60810021
 003C84 4A60 917C      0017C        6296        AH    RW1,VLCCTR                                                 60820021
 003C88 4A60 9210      00210        6297        AH    RW1,ONCTR                                                  60830021
 003C8C 4A60 9212      00212        6298        AH    RW1,PFMCTR                                                 60840021
 003C90 4A60 9214      00214        6299        AH    RW1,PSVCTR                                                 60850021
 003C94 4A60 91D4      001D4        6300        AH    RW1,DECBCT                                                 60860021
 003C98 4A60 9216      00216        6301        AH    RW1,XSACTR                                                 60870021
 003C9C 4A60 922A      0022A        6302        AH    RW1,PARMAX                                                 60880021
 003CA0 4A60 9166      00166        6303        AH    RW1,WCMAX                                                  60890021
 003CA4 4A60 9168      00168        6304        AH    RW1,TSMAX                                                  60900021
 003CA8 4A60 9218      00218        6305        AH    RW1,XSWCTR                                                 60910021
 003CAC 4A60 9228      00228        6306        AH    RW1,SUBCTR                                                 60920021
 003CB0 4A60 916A      0016A        6307        AH    RW1,TS2MAX                                                 60930021
 003CB4 47F0 8A7A      02302        6308          BC    UNCOND,ERR040       ASYNC. PROC. ELEMENT *OUT*           60940021
 003CB8 47F0 8A7A      02302        6309          BC    UNCOND,ERR040       ASYNC. PROC. ELEMENT *OUT*           60950021
 003CBC 4A60 9232      00232        6310        AH    RW1,SA2CTR                                                 60960021
 003CC0 4A60 9234      00234        6311        AH    RW1,SA3CTR                                                 60970021
 003CC4 4A60 91B4      001B4        6312        AH    RW1,RPTSAV                                                 60980021
 003CC8 4A60 D062      03DFA        6313        AH    RW1,MAXOV                                                  60990021
 003CCC 47F0 8A7A      02302        6314          BC    UNCOND,ERR040       ASYNC. PROC. ELEMENT *OUT*           61000021
 003CD0 4A60 916E      0016E        6315        AH    RW1,CKPCTR                                                 61010021
 003CD4 4A60 91DE      001DE        6316        AH    RW1,TS3MAX                                                 61020021
 003CD8 4A60 91E0      001E0        6317        AH    RW1,TS4MAX                                                 61030021
 003CDC 4A60 91D8      001D8        6318        AH    RW1,INDEX1                                                 61040021
 003CE0 4A60 91DC      001DC        6319        AH    RW1,IOPTRCTR                                               61050021
                                    6320 ***  END OF A GROUP WHICH MUST BE IN ORDER  ***                         61060021
 003CE4 C1C4C3D6D5                  6321 MACADC   DC    C'ADCON'                                                 61070021
                                    6322 *                                                                       61080021
                                    6323 * CONSTANT AND STORAGE AREA                                             61090021
 003CE9 000000
 003CEC 0000003C                    6324 APNUTB DC    A(PNUTBL)         MUST BE RELOCATED                        61100021
 003CF0                             6325 PNXNUM DS    H                                                          61110021
 003CF2                             6326        DS    H                                                          61120021
1PH60     IKFCBL60                                                                                              PAGE  151
-  LOC  OBJECT CODE    ADDR1 ADDR2  STMT   SOURCE STATEMENT                                       ASM 0201 11.03 02/14/15
0003CF4                             6327        DS    0F                                                         61130021
 003CF4                             6328 ARLDTB   DS    F                   ADDRESS RLD TBL                      61140021
 003CF8                             6329 RLDSIZ   DS    F                   SIZE OF RLD TBL                      61150021
 003CFC 00000000                    6330 RLDINDEX DC    F'0'                USED TO INDEX THROUGH RLDTBL         61160021
 003D00 02                          6331 AQTBL  DC    X'02'                                                      61170021
 003D01 000024                      6332        DC    AL3(QTBL)                                                  61180021
 003D04 0000                        6333 QSIZ   DC    H'0'             SET FROM ODOCTR                           61190021
 003D06 0000                        6334        DC    H'0'                                                       61200021
 003D08                             6335        DS    0F                                                         61210021
                                    6336 *                                                                       61220021
 003D08                             6337 D6TARG DS    F                CURRENT TARGET ADDRESS                    61230021
 003D0C                             6338 D6SIZE DS    F                TOTAL SIZE                                61240021
 003D10                             6339 D6SSS  DS    F                NEW SIZE                                  61250021
 003D14                             6340 D6REL  DS    F                CURRENT RELATIVE LOCATION                 61260021
 003D18                             6341 D6RW1  DS    F                                                          61270021
 003D1C 00001000                    6342 FW4096 DC    F'4096'                                                    61280021
                                    6343 *  RLDTBL ENTRY TYPES                                                   61290021
                                    6344 *                                                                       61300021
 003D20                             6345        DS    0F                                                         61310021
 003D20 02                          6346 ALTLTB DC    X'02'                      2-BYTE ENTRIES                  61320021
 003D21 00002C                      6347        DC    AL3(LTLTBL)                                                61330021
 003D24 0000                        6348 LTLNUM DC    H'0'                       N-BYTES                         61340021
 003D26 0000                        6349        DC    H'0'                                                       61350021
 003D28                             6350        DS    0F                                                         61360021
 003D28 02                          6351 AVIRPT DC    X'02'                2-BYTE ENTRIES                        61370021
 003D29 000074                      6352        DC    AL3(VIRPTR)                                                61380021
 003D2C 0000                        6353 VIRNUM DC    H'0'                       N-BYTES                         61390021
 003D2E 0000                        6354        DC    H'0'                                                       61400021
 003D30                             6355 ACVIRT DS    0F                                                         61410021
 003D30 08                          6356        DC    X'08'           8-BYTE ENTRIES                             61420021
 003D31 00006C                      6357        DC    AL3(CVIRTB)                                                61430021
 003D34 0000                        6358 ACVNUM DC    H'0'             N BYTES                                   61440021
 003D36 0000                        6359        DC    H'0'                                                       61450021
 003D38                             6360 ALVIRT DS    0F                                                         61460021
 003D38 08                          6361        DC    X'08'           8-BYTE ENTRIES                             61470021
 003D39 000064                      6362        DC    AL3(LVIRTB)                                                61480021
 003D3C 0000                        6363 ALVNUM DC    H'0'             N BYTES                                   61490021
 003D3E 0000                        6364        DC    H'0'                                                       61500021
 003D40                             6365 APNTBL DS    0F                                                         61510021
 003D40 02                          6366        DC    X'02'            2-BYTE ENTRIES                            61520021
 003D41 000044                      6367        DC    AL3(PNTBL)                                                 61530021
 003D44 0000                        6368 PNNUM  DC    H'0'             PNCTR*2                                   61540021
 003D46 0000                        6369        DC    H'0'                                                       61550021
 003D48                             6370 AGNTBL DS    0F                                                         61560021
 003D48 02                          6371        DC    X'02'                                                      61570021
 003D49 00004C                      6372        DC    AL3(GNTBL)                                                 61580021
 003D4C 0000                        6373 GNNUM  DC    H'0'             GNCTR*2                                   61590021
 003D4E 0000                        6374        DC    H'0'                                                       61600021
 003D50                             6375 AFILTB DS    0F                                                         61610021
 003D50 0C                          6376        DC    X'0C'                                                      61620021
 003D51 00001C                      6377        DC    AL3(FILTBL)                                                61630021
 003D54 0100                        6378        DC    H'256'           ARBITRARY PRIMING VALUE                   61640021
 003D56 0000                        6379        DC    H'0'                                                       61650021
 003D58                             6380 AERRTB DS    0F                                                         61660021
 003D58 00                          6381        DC    X'00'           VARIABLE-LENGTH ENTRIES                    61670021
1PH60     IKFCBL60                                                                                              PAGE  152
-  LOC  OBJECT CODE    ADDR1 ADDR2  STMT   SOURCE STATEMENT                                       ASM 0201 11.03 02/14/15
0003D59 00005C                      6382        DC    AL3(ERRTBL)                                                61680021
 003D5C 0100                        6383 ERRSIZ DC    H'256'        ARBITRARY VALUE                              61690021
 003D5E 0080                        6384        DC    H'128'                                                     61700021
 003D60 03                          6385 AVNPTY DC    X'03'                 PARLIST TO PRIME VNPTY TBL           61710021
 003D61 000094                      6386        DC    AL3(VNPTY)                                                 61720021
 003D64 0000                        6387 VNSIZE DC    H'0'                  SIZE OF VNPTY TBL                    61730021
 003D66 0000                        6388        DC    H'0'                  GROWTH FACTOR                        61740021
 003D68 05                          6389 ASGTBL DC    X'05'                                                      61750021
 003D69 000084                      6390        DC    AL3(SEGTBL)                                                61760021
 003D6C                             6391 SEGSZ  DS    H                     LENGTH OF SEGTBL                     61770021
 003D6E                             6392        DS    H                     GROWTH FACTOR                        61780021
 003D70                             6393 SVR1   DS    F                                                          61790021
 003D74                             6394 SEGTAD DS    F                     SEGTBL ADDRESS                       61800021
 003D78                             6395 SEGEND DS    F                     END OF SEGTBL ADDRESS                61810021
 003D7C                             6396 SEGCOM DS    F                     ADDR OF ENTRY IN SEGTBL              61820021
 003D80                             6397 SEGCUR DS    F                    ADDR OF CURR ENTRY IN SEGTBL          61830021
 003D84                             6398 SVRET  DS    F                     RETURN ADDRESS SAVE AREA             61840021
 003D88                             6399 LNSECT DS    F                     LENGTH OF SEGM OR OBJ MODULE         61850021
 003D8C                             6400 RW2SAV   DS    F                   REGISTER 7 SAVE AREA           58979 61860021
 003D90 0000002E                    6401 AFIRST DC    A(FIRST)                                                   61870021
 003D94 000067C3                    6402 ASEGLB DC    A(SEGLAB)                                             STAN 61880021
1PH60     IKFCBL60                                                                                              PAGE  153
-  LOC  OBJECT CODE    ADDR1 ADDR2  STMT   SOURCE STATEMENT                                       ASM 0201 11.03 02/14/15
0003D98                             6404 IKF606   CSECT                                                          61900021
                                    6405 *=1            WORK AREAS AND SWITCHES                                  61910021
                                    6406 *                                                                       61920021
                                    6407 *                                                                       61930021
                                    6408 *=1    PHASE 6 VALUES                                                   61940021
                                    6409 *                                                                       61950021
 003D98                             6410 PH6SAV DS    18F                   PH6 SAVE AREA                        61960021
 003DE0                             6411 LOCPGT DS    F                LOCATION OF PGT                           61970021
 003DE4                             6412 LOCPGM DS    F                LOCATION OF PROCEDURE                     61980021
 003DE8                             6413 LOCORG DS    F                                                          61990021
 003DEC                             6414 TGTLOC DS    F                     LOC OF TGT                           62000021
 003DF0 00000000                    6415 OVFLLOC  DC    F'0'                OVERFLOW CELL ADDRESS IN TGT   0339  62010021
 003DF4                             6416 PGTOV  DS    H                                                          62020021
 003DF6                             6417 OVFCTR   DS    H                  OVERFLOW COUNTER FOR SEG              62030021
 003DF8 0000                        6418 TGTOVFL  DC    H'00'               OVERFLOW CELL CTR FOR TGT/SEGM 0339  62040021
 003DFA                             6419 MAXOV  DS    H                                                          62050021
 003DFC                             6420 LNGLNK DS    H                                                          62060021
 003DFE 0000                        6421 SEGCTR   DC    H'0'                NMBR OF NON-RESIDENT SEGMENTS        62070021
 003E00 0001                        6422 ESDID    DC    H'1'                CURRENT ESDID.INITIALY SET TO 1      62080021
 003E02                             6423 VCONAD DS    H                     ADRR OF VCONS                        62090021
 003E04                             6424 CURESD DS    H                     CURRENT ESDID ON RLD CARD            62100021
 003E06                             6425 LTRFCT DS    H                CURRENT LITERAL REFERENCE NUMBER          62110021
 003E08                             6426 GETLEN DS    H                LENGTH OF CURRENT INPUT ELT (FOR GET)     62120021
 003E0A                             6427 G4LEN  DS    H           LENGTH OF CURRENT F4 RECORD                    62130021
 003E0C                             6428 SAVVNO DS    H                                                          62140021
 003E0E                             6429 SAVPNO DS    H                                                          62150021
 003E10 0000FFFF                    6430 HWFS     DC    X'0000FFFF'      MASK FOR N INSTR                  53557 62160021
 003E14                             6431 SVREG  DS    16F              REG SAVE AREA                             62170021
 003E54                             6432 COSADR DS    F                     ADDRESS OF COS                       62180021
 003E58                             6433 RETADC DS    F                RETURN AFTER MACRO ADCON                  62190021
 003E5C                             6434 RLDCT  DS    F                NO OF ENTRIES IN RLDCT                    62200021
 003E60                             6435 SAVBCT   DS    H                                                        62210021
 003E62                             6436 PNUCTR DS    H                COUNT OF ITEMS IN PNUTBL                  62220021
 003E64                             6437 RPNCTR DS    H                COUNT OF USED PN'S                        62230021
 003E68                             6438 GTLOC  DS    F                                                          62240021
 003E6C                             6439 LDMLOC DS    F                                                          62250021
 003E70                             6440 LDMVAL DS    F                                                          62260021
 003E74                             6441 LDMLEN DS    H                                                          62270021
 003E76                             6442 LMATCH DS    H                                                          62280021
 003E78                             6443 LSTART DS    F                                                          62290021
 003E7C                             6444 LEND   DS    F                                                          62300021
 003E80                             6445 LTLINC DS    H                                                          62310021
 003E82                             6446 BDINCR DS    H                                                          62320021
 003E84                             6447 MAPTXT DS    F                                                          62330021
 003E88                             6448 PREVDN DS    F           SAVE PREVIOUS WHEN PROCESS XREF TABLES         62340021
                             03E8A  6449 PREVPN EQU   PREVDN+2                                                   62350021
 003E8C                             6450 XRPSAV DS    CL4                                                        62360021
 003E90 00                          6451 SEGSW1   DC    X'00'          00 DONT EJECT PAGE                        62370021
                             000FF  6452 EJECT    EQU   X'FF'          FF EJECT PAGE                             62380021
 003E91 00                          6453 SEGSW2 DC    X'00'                                                      62390021
                             00080  6454 RLDPNCHD EQU   X'80'               RLD ALREADY PUNCHED                  62400021
                             0007F  6455 SGSW2OFF EQU   X'7F'               RESET SEGSW2                         62410021
 003E92                             6456 XFCDNO DS    CL2                                                        62420021
                             03E8C  6457 VNHOLD EQU   XRPSAV               SAVE AREA TO SORT VNPTY TBL           62430021
 003E94 00                          6458 SPVNRF   DC    X'00'               00-USE POSITION OF VN 1 IN VNPTY TBL 62440021
1PH60     IKFCBL60                                                                                              PAGE  154
-  LOC  OBJECT CODE    ADDR1 ADDR2  STMT   SOURCE STATEMENT                                       ASM 0201 11.03 02/14/15
0                            000FF  6459 SPVN1    EQU   X'FF'               USE VN1                              62450021
 003E95 00                          6460 SEGSW  DC    X'00'                 BIT 0-1   00-PUNCH ESD-CSECT CRD     62460021
                                    6461 *                                            01-PUNCH INSERT CARD       62470021
                                    6462 *                                           10-PUNCH OVERLAY CARD       62480021
                                    6463 *                                  BIT 2     1 -PROG.NAME WAS BLANK     62490021
                                    6464 *                                  BIT 3     0 -FIRST NONZERO PTY S     62500021
                                    6465 *                                  BIT 4     NOT USED                   62510021
                                    6466 *                                  BIT 5     1 =PUNCH EXTRN ESD CAR     62520021
                                    6467 *                                  BIT 6     1 = PUNCH END CRD AND      62530021
                                    6468 *                                            RETURN TO SEGMENT CODE     62540021
                                    6469 *                                  BIT 7    1 = PUNCH ENTRY CARD        62550021
                                    6470 *                                                                       62560021
                             00000  6471 SEGCSECT EQU   X'00'               PUNCH ESD CSECT CARD                 62570021
                             00080  6472 SEGOVLY  EQU   X'80'               PUNCH OVERLAY CARD                   62580021
                             00040  6473 SEGNSRT  EQU   X'40'               PUNCH INSERT CARD                    62590021
                             00020  6474 SEGNMBLK EQU   X'20'               PROGRAM NAME WAS BLANK               62600021
                                    6475 *        EQU   X'10'               WHEN OFF= FIRST NON ZERO PTYSG       62610021
                                    6476 *        EQU   X'08'               NOT USED                             62620021
                                    6477 *        EQU   X'04'               NOT USED                             62630021
                             00002  6478 SEGENDCD EQU   X'02'               PUNCH END CRD & RET TO SEG COD       62640021
                             00001  6479 SEGENTRY EQU   X'01'               PUNCH ESD ENTRY CARD                 62650021
                             000DF  6480 SEGNMOK  EQU   X'DF'               RESET PROGRM NAME NOT BLANK          62660021
                             000BF  6481 SEGNONST EQU   X'BF'               RESET /NOT PUNCH INSERT CARD         62670021
                             000FD  6482 SEGNOEND EQU   X'FD'               RESET PNCH END & RET TO SEG CD       62680021
                             0007F  6483 SEGNOVLY EQU   X'7F'               RESET OVERLAY CARD BIT               62690021
                                    6484 *                                                                       62700021
                                    6485 *                                                                       62710021
 003E96 00                          6486 CURPTY DC    X'00'                 SECTION PRIORITY                     62720021
 003E97 00                          6487 FSTPND DC    X'00'                SWITCH TO GET FIRST PN IN THE ROO     62730021
 003E98                             6488 ROOTPN DS    2C                   SAVE AREA FOR ROOT'S FIRST PN NO.     62740021
 003E9A 00                          6489 FSTSEC DC    X'00'                SWITCH TO GET PTY OF 1ST SECTION      62750021
                                    6490 *                                  OR FF IS PROGRAM NOT SEGMENTED       62760021
 003E9B 00                          6491 SAVPTY DC    X'00'                                                      62770021
 003E9C 00                          6492 SAVPTY1  DC    X'00'                   PTY FOR VNDEF EQU GNREF          62780021
 003EA0                             6493 SEGNSA DS    2F                    SAVE SEGMENT NAME AREA               62790021
 003EA8 0000                        6494 INDVN  DC    H'0'                 NO. OF VN'S IN INDEP SEGM             62800021
 003EAA 00                          6495 CLSEGSW  DC    X'00'                                                    62810021
1PH60     IKFCBL60                                                                                              PAGE  155
-  LOC  OBJECT CODE    ADDR1 ADDR2  STMT   SOURCE STATEMENT                                       ASM 0201 11.03 02/14/15
0003EAC                             6497 DLTLCT DS    H                     DISPLAY LITERAL COUNT                62830021
 003EAE                             6498 F4SW   DS    C      BIT 0 = 1 FOR NEW BLOCK NEEDED, 0 NOT NEEDED        62840021
                                    6499 *                       1 = 1 FOR USE INPUTR, 0 USE F4REG               62850021
                                    6500 *                       2 = 1 FOR  IN LISTING TEXT, 0 NON-LISTING       62860021
                                    6501 *                       3 = 1 FOR POSITION TO 01, 0 OTHER               62870021
                                    6502 *                       4 = 1 EOF REACHED, 0 NO EOF                     62880021
                                    6503 *                       5= 1 FOR PREMATURE END OF LISTING, 0 OTHER      62890021
                             00080  6504 F4NEWBLK EQU   X'80'               NEW BLOCK NEEDED                     62900021
                             00040  6505 F4INPUTR EQU   X'40'               USE INPUTR (OFF- USE F4REG)          62910021
                             00020  6506 F4LSTXT  EQU   X'20'               IN LISTING TEXT                      62920021
                             00010  6507 F4POS01  EQU   X'10'               POSITION TO 01                       62930021
                             00008  6508 F4EOF    EQU   X'08'               EOF REACHED                          62940021
                             00004  6509 F4LSTEND EQU   X'04'               PREMATURE END OF LISTING             62950021
                             000A0  6510 F4BLKLST EQU   X'A0'               NEED NEW BLOCK,F4REG,LISTINGTX       62960021
                             0007F  6511 F4NONWBK EQU   X'7F'               DON'T NEED NEW BLOCK                 62970021
                             000DF  6512 F4NOTLST EQU   X'DF'               NOT IN LISTING TXT                   62980021
                             000FB  6513 F4OTR    EQU   X'FB'               NOT PREMATURE END OF LISTING         62990021
                                    6514 *                                                                       63000021
                                    6515 *                                                                       63010021
 003EAF                             6516 LTLDSW DS    C                                                          63020021
                             000FF  6517 LTLDISPL EQU   X'FF'               DISPLAY TYPE LITERAL                 63030021
                             00000  6518 LTLNODSP EQU   X'00'               NOT DISPLAY TYPE - LITERAL           63040021
                                    6519 *                                                                       63050021
 003EB0                             6520 VRCSW  DS    C                     VIRT CT SW                           63060021
                             00000  6521 VRCLNK   EQU   X'00'               LINK TYPE                            63070021
                             00080  6522 VRCCALL  EQU   X'80'               CALL TYPE                            63080021
                                    6523 *                                                                       63090021
 003EB1                             6524 NOBLS  DS    C                                                          63100021
                             00001  6525 NOBLSON  EQU   X'01'               THERE ARE BLS                        63110021
                             00000  6526 NOBLSOFF EQU   X'00'               THERE ARE NO BLS                     63120021
                                    6527 *                                                                       63130021
 003EB2 00                          6528 SWRLDFUL DC    X'00'               SET TO FF WHEN RLDTB OVFLO           63140021
                             000FF  6529 RLDOVFL  EQU   X'FF'               RLDTBL OVERFLOW                      63150021
                                    6530 *                                                                       63160021
 003EB3 00                          6531 NOETEXT  DC    X'00'               FF WHEN ETEXT TO PROCESS             63170021
                             000FF  6532 ETX2DO   EQU   X'FF'               THERE IS E-TEXT TO PROCESS           63180021
                                    6533 *                                                                       63190021
 003EB4 00                          6534 DOEOTSW  DC    X'00'         INDICATE NEED END OF TABLE MARKER          63200021
                             000FF  6535 DOEOTBL  EQU   X'FF'               NEED END OF TABLE MARKER             63210021
                                    6536 *                                                                       63220021
 003EB5 00                          6537 INTSW  DC    XL1'0'               ONE TIME THRU A(INIT1) CODE           63230021
 003EB6 0000                        6538 EINDEX   DC    H'0'                                                     63240021
 003EB8 0000                        6539 QINDEX   DC    H'0'                                                     63250021
 003EBC                             6540 RS1SAVE  DS    F                                                        63260021
 003EC0 77                          6541 AC77     DC    X'77'                                                    63270021
 003EC1 000000
 003EC4 0000189C                    6542 ARLDRTE  DC    A(RLDRTE)                                                63280021
 003EC8                             6543 CRDNUM DS    3C               OBJECT CARD NUMBER                        63290021
 003ECB 00                          6544 VNOVFL DC    X'00'                 INIT3 BEEING PROCESSED SW       2179 63300021
 003ECC 0001                        6545 INITVN   DC    H'01'             COUNT OF VN'S                          63310021
 003ECE 44246C04FFFFFFFF            6546 FFPRID DC    X'44246C04FFFFFFFF'   A-TEXT FOR INIT1                     63320021
 003ED6 44246C08                    6547        DC    X'44246C08'          MUST BE HERE BECAUSE 'PROGID'         63330021
 003EDA                             6548 DCPRID DS    8C                    IS STORED INTO IT.                   63340021
 003EE2 00                          6549        DC    X'00'                                                      63350021
 003EE4                             6550        DS    0F                                                         63360021
1PH60     IKFCBL60                                                                                              PAGE  156
-  LOC  OBJECT CODE    ADDR1 ADDR2  STMT   SOURCE STATEMENT                                       ASM 0201 11.03 02/14/15
0003EE4                             6551 ETXSW  DS    C                                                          63370021
                             00000  6552 ETXWRN   EQU   X'00'               WARNING OR INITIALIZE 00             63380021
                             000FF  6553 ETXNTWRN EQU   X'FF'               NOT WARNING IE PROCESS               63390021
                                    6554 *                                                                       63400021
 003EE6                             6555 ERRCUR DS    H                                                          63410021
 003EE8                             6556 NXADDR DS    F                                                          63420021
 003EEC                             6557 CKLOC  DS    F                HI-VALUE OF LOCCTR IN P-A-TEXT (WILL      63430021
                                    6558 *                             LOCATION OF CHECKPOINT RTNE)              63440021
 003EF0                             6559 EOFADR DS    F                CURRENT EOD ADDR FOR GET ROUTINE          63450021
 003EF4                             6560 LINIT2 DS    F                VALUE OF LOCCTR AT START OF INIT2         63460021
 003EF8                             6561 LINIT3 DS    F                VALUE OF LOCCTR AT START OF INIT3         63470021
 003EFC                             6562 DCSAVN DS    F                                                          63480021
 003F00                             6563 PROG2  DS    F                                                          63490021
 003F04                             6564 P6PLUS DS    F                                                          63500021
 003F08                             6565 P6LNG  DS    H                                                          63510021
 003F0A                             6566 SAVLNG DS    H                                                          63520021
 003F0C                             6567 ENDFLD   DS    0CL80               CREATION AREA DOUBLE-SERVICE         63530021
 003F0C                             6568 ALLWRK   DS    0CL256              CREATION AREA FOR 'ALL' CONDEF       63540021
 003F0C                             6569 ALLWRK1  DS    4C                     ORG FOR ENDFLD                    63550021
 003F10                             6570 ENDCONST DS    C                   +4   REPEAT CONSTANT                 63560021
 003F11                             6571 ENDCONDP DS    9C                  +5        AREA                       63570021
 003F1A                             6572 ENDESDID DS    14C                 +14  ESDID AREA                      63580021
 003F28                             6573 ENDLEN   DS    44C                 +28  LENGTH OF SEGM/OBJ MODULE       63590021
 003F54                             6574 ENDPRGID DS    4C                  +72  PROGRAM ID AREA                 63600021
 003F58                             6575 ENDCRDNO DS    3C                  +76  CARD NUMBER AREA                63610021
 003F5B                             6576 ENDZONE  DS    C                   +79  ZONE AREA                       63620021
 003F5C                             6577 ALLWRK2  DS    176C                -----REST OF 'ALL' AREA/CONDEF       63630021
 00400C                             6578        DS    0H                                                         63640021
 00400C                             6579 REGMTX DS    0CL32       REGISTER ASSIGNMENT MATRIX                     63650021
                                    6580 *      STATNN  8 BITS/REGISTER DEFINED AS FOLLOWS                       63660021
                                    6581 *                   0=LAST AVAILABLE TO BE PERMANENTLY ASSIGNED         63670021
                                    6582 *                   1=FIRST AVAILABLE TO BE PERMANENTLY ASSIGNED        63680021
                                    6583 *                   7=RESERVED BY PHASE5 (NOT AVAILABLE UNTIL FREE)     63690021
                                    6584 *                   6=RESERVED BY PHASE6 (AVAILABLE TO USE FOR          63700021
                                    6585 *                     ITEM IT CONTAINS BUT DO NOT RELOAD                63710021
                                    6586 *                   2=LAST ASSIGNED PERMANENTLY                         63720021
                                    6587 *                   3=ASSIGNED TO 2ND HALF OF PGT (REG12+4096)          63730021
                                    6588 *      CELLNN  CONTAINS 0I KK ADDRESSING ELTS OF BL ASSIGNED TO THA     63740021
                                    6589 *              REGISTER                                                 63750021
 00400C                             6590 STAT06 DS    C                                                          63760021
 00400D                             6591        DS    C                                                          63770021
 00400E                             6592 CELL06 DS    H                                                          63780021
 004010                             6593 STAT07 DS    C                                                          63790021
 004011                             6594        DS    C                                                          63800021
 004012                             6595 CELL07 DS    H                                                          63810021
 004014                             6596 STAT08 DS    C                                                          63820021
 004015                             6597        DS    C                                                          63830021
 004016                             6598 CELL08 DS    H                                                          63840021
 004018                             6599 STAT09 DS    C                                                          63850021
 004019                             6600        DS    C                                                          63860021
 00401A                             6601 CELL09 DS    H                                                          63870021
 00401C                             6602 STAT10 DS    C                                                          63880021
 00401D                             6603        DS    C                                                          63890021
 00401E                             6604 CELL10 DS    H                                                          63900021
 004020                             6605 STAT11 DS    C                                                          63910021
1PH60     IKFCBL60                                                                                              PAGE  157
-  LOC  OBJECT CODE    ADDR1 ADDR2  STMT   SOURCE STATEMENT                                       ASM 0201 11.03 02/14/15
0004021                             6606        DS    C                                                          63920021
 004022                             6607 CELL11 DS    H                                                          63930021
 004024                             6608 STAT14 DS    C                                                          63940021
 004025                             6609        DS    C                                                          63950021
 004026                             6610 CELL14 DS    H                                                          63960021
 004028                             6611 STAT15 DS    C                                                          63970021
 004029                             6612        DS    C                                                          63980021
 00402A                             6613 CELL15 DS    H                                                          63990021
 00402C                             6614 BLELT  DS    H           HOLD AREA FOR I AND K OF BLDEF                 64000021
 00402E                             6615 NUMAVL DS    H           NUM REGS AVAILABLE                             64010021
 004030                             6616 FRSBLW DS    H           NUM OF FIRST W-S BL                            64020021
 004032                             6617 NUMBLT DS    H           NUM BL'S                                       64030021
 004034                             6618 NUMBLW DS    H           NUM W-S BL'S                                   64040021
 004038                             6619 FAVAIL DS    F           PTR TO FIRST AVAIL REG                         64050021
 00403C                             6620 NXTAVL DS    F           PTR TO NEXT AVAIL REG                          64060021
 004040                             6621 SAVOVF DS    H           SAVE DISP IF GT 4095                           64070021
 004044                             6622 DCSAVI DS    F                SAVE INPUTR WHEN PROCESSING DCDEF         64080021
                                    6623 *      THE NEXT THREE FIELDS ARE USED AS INPUT TO MAC090 WHEN A         64090021
                                    6624 *      PNBCD ELEMENT IS ENCOUNTERED                                     64100021
 004048 06                          6625 PNBCDL DC    X'06'            LENGTH+1 OF CARD NUMBER                   64110021
 004049 04                          6626 PNBCDN DC    X'04'           LENGTH-1 OF CARD NUMBER                    64120021
 00404A                             6627 PNBCDS DS    30C              AREA WHEN PROCESSED AS DCDEF              64130021
 004068                             6628 CSDCWA DS    CL5         WORK AREA FOR CS DISP ELT                      64140021
 00406D                             6629 D6SRSV DS    7C                                                         64150021
 004074                             6630 D6PNTX DS    4C                                                         64160021
 004078                             6631 PNBSAV DS    F           TEMP SAVE FOR INPUTR-PNBCD REF                 64170021
 00407C                             6632 DCSAVR DS    F           SAVE FOR GR14 IN DCDEF SUBROUTINE              64180021
 004080                             6633 PNBSVG DS    CL2                                                        64190021
 004082                             6634        DS    0H                                                         64200021

 004082                             6636 C6OP   DS    C      HOLDS CURRENT OP                                    64220021
 004083                             6637 C6RS   DS    C      REG SAVE AREA                                       64230021
 004084                             6638 C6B1S  DS    C      B1 SAVE AREA                                        64240021
 004086                             6639        DS    0H                                                         64250021
 004086                             6640 C6D1S  DS    2C     D1 SAVE AREA                                        64260021
 004088                             6641 C6B2S  DS    C      B2 SAVE AREA                                        64270021
 00408A                             6642        DS    0H                                                         64280021
 00408A                             6643 C6D2S  DS    2C     D2 SAVE AREA                                        64290021
 00408C                             6644 C6INSV DS    CL10                  CURRENT INSTRUCTION SAVE AREA        64300021
 004096                             6645 C6INS2 DS    CL10                                                       64310021
 0040A0                             6646 GOTCOD DS    C                TRANSLATED INPUT CODE                     64320021
 0040A4                             6647 SAVLOC DS    F      TEMP SAVE AREA FOR LOCCTR                           64330021
 0040A8                             6648 C6RW2  DS    F              SAVE AREA FOR RW2 IN CONVERSION ROUTINE     64340021
 0040AC                             6649 C6WRK0 DS    F      HOLDS HEX WORD FOR DECIMAL CONVERSION               64350021
                                    6650 *                                                                       64360021
 0040B0                             6651        DS    0D                                                         64370021
 0040B0                             6652 C6WRK1 DS    C                                                          64380021
 0040B1                             6653 C6WRK2 DS    C                                                          64390021
 0040B2                             6654 C6WRK3 DS    C                                                          64400021
 0040B3                             6655 C6WRK4 DS    C                     WORK AREA                            64410021
 0040B4                             6656 C6WRK5 DS    C                                                          64420021
 0040B5                             6657 C6WRK6 DS    C                                                          64430021
 0040B6                             6658 C6WRK7 DS    C                                                          64440021
 0040B7                             6659 C6WRK8 DS    C                     WORK AREA                            64450021
 0040B8                             6660          DS    CL12                                                     64460021
1PH60     IKFCBL60                                                                                              PAGE  158
-  LOC  OBJECT CODE    ADDR1 ADDR2  STMT   SOURCE STATEMENT                                       ASM 0201 11.03 02/14/15
00040C4                             6661 LOCSAV DS    F                SAVE AREA FOR LOCCTR DURING FILTBL        64470021
                                    6662 *                               PROCESSING                              64480021
 0040C8 00000000                    6663 SAVERS1  DC    F'0'              SAVE AREA FOR R14 FOR 645CXXXX ELT     64490021
 0040CC                             6664 SAVEXR   DS    16F'0'      SAVE REGS FOR 645CXXXXB4 ELT           8953  64500021
                             0005C  6665 XX5C     EQU    X'5C'                                             8953  64510021
 00410C                             6666 SB1D1C DS      F            B1D1  SYMBOLIC                              64520021
 004110                             6667 SB1D1N DS      F            B1D1  NUMBER OR DICT PTR                    64530021
 004114                             6668 SB1D1P DS      F            B1D1  PLUS AMT IF ANY                       64540021
 004118                             6669 SB2D2C DS      F            B2D2  SYMBOLIC                              64550021
 00411C                             6670 SB2D2N DS      F            B2D2  NUMBER OR DICT PTR                    64560021
 004120                             6671 SB2D2P DS      F            B2D2  PLUS AMT IF ANY                       64570021
 004124                             6672 SBDSAV DS      6F           SYMBOLIC OPERANDS SAVE AREA                 64580021
 00413C                             6673 SBDSV2 DS    CL24                                                       64590021
 004154                             6674 HOLD   DS    CL5                                                        64600021
                                    6675 * SAVE AREA FOR GET ROUTINE VARIABLES                                   64610021
 00415C                             6676 SVINPR DS    F                                                          64620021
 004160                             6677 SVEOFA DS    F                                                          64630021
 004164                             6678 SVGETL DS    H                                                          64640021
 004166                             6679 SVTESW DS    C                                                          64650021
 004167                             6680 SVFGET DS    C                                                          64660021
                                    6681 *                   SWITCHES                                            64670021
 004168                             6682 DCBSW  DS    C                                                          64680021
                             000FF  6683 DCBFLTB  EQU   X'FF'               PROCESSING FILTBL                    64690021
                                    6684 *                                                                       64700021
 004169                             6685 S6BNO  DS    C      B1 OR B2                                            64710021
 00416A                             6686 BDNUM  DS    C                                                          64720021
                             00000  6687 BDNUM1   EQU   X'00'               PROCESSING B1 D1 ELEMENTS            64730021
                             000FF  6688 BDNUM2   EQU   X'FF'               PROCESSING B2 D2 ELEMENTS            64740021
                                    6689 *                                                                       64750021
 00416B                             6690 S6PLNO DS    C      ADD PLUS ELT TO D1 OR D2                            64760021
 00416C                             6691 VIRTSW DS    C                FF=VIRTUAL TABLE KILLED OR NEVER MADE     64770021
                             000FF  6692 NOVIRTBL EQU   X'FF'               VIRT TBL KILLED OR NEVER MADE        64780021
                                    6693 *                                                                       64790021
 00416D                             6694 QRTNSW DS    C                1=IN QRTNES                               64800021
                             00001  6695 QRTNON   EQU   X'01'               IN QRTNS                             64810021
                                    6696 *                                                                       64820021
 00416E                             6697 NOLOAD DS    C                SEARCH RTNE SWITCH                        64830021
                             000FF  6698 SRCHNOLD EQU   X'FF'               SEARCH ONLY                          64840021
                                    6699 *                                                                       64850021
 00416F                             6700 LOADSW DS    C           FF=NEED TO GENERATE LOAD INSTR                 64860021
                             000FF  6701 GENLOAD  EQU   X'FF'               MUST GENERATE LOAD INSTRUCTION       64870021
                                    6702 *                                                                       64880021
 004170                             6703 GTOVFL DS    C                                                          64890021
 004171                             6704 RGNSW  DS    C                                                          64900021
                             000FF  6705 RGNINIT  EQU   X'FF'               PROCESSING INIT CODING               64910021
                                    6706 *                                                                       64920021
 004172                             6707 PLUSFT DS    C                1=ADR W/PLUS ELT                          64930021
 004173                             6708 FGET   DS    C      FIRST TIME SWITCH FOR GET RTNE                      64940021
                             00000  6709 FGETNEW  EQU   X'00'               GET NEW BLOCK                        64950021
                             000FF  6710 FGETNOT  EQU   X'FF'               DON'T GET NEW BLOCK                  64960021
                                    6711 *                                                                       64970021
 004174                             6712        DS    100F    PATCH AREA UNDER EREG 12                           64980021
                                    6713 *      TESTSW SETTINGS                                                  64990021
                                    6714 *      00=REAL INPUT, STILL PROCESSING F3                               65000021
                                    6715 *      F0=REAL INPUT, F3 PROCESSING FINISHED                            65010021
1PH60     IKFCBL60                                                                                              PAGE  159
-  LOC  OBJECT CODE    ADDR1 ADDR2  STMT   SOURCE STATEMENT                                       ASM 0201 11.03 02/14/15
0                                   6716 *      FF=DUMMY INPUT (CHANGED WHEN TESTING ONLY)                       65020021
 004304 00                          6717 TESTSW DC    X'00'                                                      65030021
                             000F0  6718 TSTREAL  EQU   X'F0'               REAL INPUT; F3 PROCESSING DONE       65040021
                             000FF  6719 TSTDUM   EQU   X'FF'               DUMMY INPUT (CHANGE FOR TSTING       65050021
                                    6720 *                                                                       65060021
                                    6721 *                                                                       65070021
                                    6722 *     RLDCRD ROUTINE SWITCHES                                           65080021
 004305                             6723 RLDIF  DS    C                00 TILL CREATE RLD - THEN 80              65090021
                             00000  6724 RLDNO    EQU   X'00'               RLD NOT YET CREATED                  65100021
                             00080  6725 RLDIS    EQU   X'80'               RLD HAS BEEN CREATED                 65110021
                                    6726 *                                                                       65120021
 004306                             6727 RLDONE DS    C                00 FIRST TIME - THEN F0                   65130021
                             00000  6728 RLDFST   EQU   X'00'               FIRST-TIME                           65140021
                             000F0  6729 RLDNOFST EQU   X'F0'               NOT FIRST-TIME                       65150021
                                    6730 *                                                                       65160021
                             03A62  6731 RLDBC2 EQU   RLDBC1                                                     65170021
 004307                             6732 RLDFSW DS    C                00 UNLESS FORCE - THEN F0                 65180021
                             00000  6733 RLDNOFRC EQU   X'00'               NOT FORCE                            65190021
                             000F0  6734 RLDFORCE EQU   X'F0'               FORCE                                65200021
                                    6735 *                                                                       65210021
                             03A62  6736 RLDBC3 EQU   RLDBC1                                                     65220021
 004308                             6737        DS    0H                                                         65230021
 004308                             6738 QATEXT DS    0CL10                      AREA FOR                        65240021
 004308                             6739        DS    2H                                                         65250021
 00430C                             6740 QNUM   DS    H                                                          65260021
 00430E                             6741        DS    2H                                                         65270021
 004312 D7C8F640D7C1E3C3            6742        DC    C'PH6 PATCH AREA'                                          65280021
 004320                             6743 PATCH6 DS    500XL1                                                     65290021
1PH60     IKFCBL60                                                                                              PAGE  160
-  LOC  OBJECT CODE    ADDR1 ADDR2  STMT   SOURCE STATEMENT                                       ASM 0201 11.03 02/14/15
0                                   6745 *=1            OUTPUT AREA - SYSOUT LISTING                             65310021
                                    6746 *                                                                       65320021
 004514                             6747 OU6REC DS    0CL120                                                     65330021
 004514                             6748        DS    C                                                          65340021
 004515                             6749 OU6CDN DS    CL5              CARD NUMBER                               65350021
 00451A                             6750        DS    CL2                                                        65360021
 00451C                             6751 OU6STR DS      CL1          ASTERISK                                    65370021
 00451D                             6752 OU6LST DS      CL10         LISTING TEXT (PN OR VERB)                   65380021
 004527                             6753        DS      CL1                                                      65390021
 004528                             6754 OU6LC  DS    CL6                        LOCATION COUNTER                65400021
 00452E                             6755        DS    CL2                                                        65410021
 004530                             6756 OU6OP  DS    CL2                        OP CODE                         65420021
 004532                             6757        DS    CL1                                                        65430021
 004533                             6758 OU6R1  DS    CL1                        REGISTER 1                      65440021
 004534                             6759 OU6R2  DS    CL1                        REGISTER 2                      65450021
 004535                             6760        DS    CL1                                                        65460021
 004536                             6761 OU6B1  DS    CL1                        BASE 1                          65470021
 004537                             6762        DS    CL1                                                        65480021
 004538                             6763 OU6D1  DS    CL3                        DISPLACEMENT 1                  65490021
 00453B                             6764        DS    CL1                                                        65500021
 00453C                             6765 OU6B2  DS    CL1                        BASE 2                          65510021
 00453D                             6766        DS    CL1                                                        65520021
 00453E                             6767 OU6D2  DS    CL3                        DISPLACEMENT 2                  65530021
 004541                             6768        DS      CL2                                                      65540021
 004543                             6769 OU6NAM DS      CL8          NAME                                        65550021
 00454B                             6770        DS    CL1                                                        65560021
 00454C                             6771 OU6OPN DS    CL5                        OPERATION                       65570021
 004551                             6772        DS    CL1                                                        65580021
 004552                             6773 OU6OPD DS      CL21         OPERANDS(ACTUAL)                            65590021
 004567                             6774        DS      CL1                                                      65600021
                             04568  6775 OU6SO1 EQU    *                                                         65610021
 004568                             6776 OU6S1  DS      CL15         OPERAND 1 (SYMBOLIC)                        65620021
 004577                             6777        DS      CL1                                                      65630021
                             04578  6778 OU6SO2 EQU    *                                                         65640021
 004578                             6779 OU6S2  DS      CL15         OPERAND 2 (SYMBOLIC)                        65650021
 004587                             6780        DS      CL5                                                      65660021
1PH60     IKFCBL60                                                                                              PAGE  161
-  LOC  OBJECT CODE    ADDR1 ADDR2  STMT   SOURCE STATEMENT                                       ASM 0201 11.03 02/14/15
000458C                      04514  6782          ORG   OU6REC                                                   65680021
 004514                             6783 PMSGL1   DS    0CL120                                                   65690021
 004514                             6784 PMSG1    DS    CL12                *STATISTICS*                         65700021
 004520                             6785          DS    CL5                                                      65710021
 004525                             6786 PMSG7    DS    0CL48               DICT. SPILL MSG.                     65720021
 004525                             6787 PMSG2    DS    CL16                SOURCE RCD =                         65730021
 004535                             6788 PMSG2N   DS    CL6                              NO.                     65740021
 00453B                             6789          DS    CL5                                                      65750021
 004540                             6790 PMSG4    DS    CL4                 DATA                                 65760021
 004544                             6791          DS    CL1                                                      65770021
 004545                             6792 PMSG6    DS    CL21                DIV. STATEMENTS =                    65780021
 00455A                             6793 PMSG4N   DS    CL6                                   NO.                65790021
 004560                             6794          DS    CL5                                                      65800021
 004565                             6795 PMSG5    DS    CL31                PROC. DIV. STATEMENTS =              65810021
 004584                             6796 PMSG5N   DS    CL6                                         NO.          65820021
-
 00458A                      04514  6798          ORG   OU6REC                                                   65840021
 004514                             6799 PMSGL2   DS    0CL120                                                   65850021
 004514                             6800 PMSG3    DS    CL19                *OPTIONS IN EFFECT*                  65860021
 004527                             6801          DS    CL5                                                      65870021
 00452C                             6802 PMSG8    DS    CL6                 SIZE =                               65880021
 004532                             6803 PMSG8N   DS    CL8                        NO.                           65890021
 00453A                             6804          DS    CL2                                                      65900021
 00453C                             6805 PMSG10   DS    CL5                 BUF =                                65910021
 004541                             6806 PMSG1N   DS    CL8                       NO.                            65920021
 004549                             6807          DS    CL2                                                      65930021
 00454B                             6808 PMSG9    DS    CL9                 LINECNT =                            65940021
 004554                             6809          DS    CL1                                                      65950021
 004555                             6810 PMSG9N   DS    CL2                           NO.                        65960021
 004557                             6811          DS    CL2                                                      65970021
 004559                             6812 PMSG11   DS    0CL7                SPACE =                              65980021
 004559                             6813          DS    CL5                                                      65990021
 00455E                             6814 PMSGSP   DS    CL1                        1,2 OR 3                      66000021
 00455F                             6815          DS    CL2                                                      66010021
 004561                             6816 PMSG12   DS    0CL22                                                    66020021
 004561                             6817          DS    CL4                                                      66030021
 004565                             6818 PMSGFL   DS    CL1                      E OR W                          66040021
 004566                             6819          DS    CL2                                                      66050021
 004568                             6820 NOSQ     DS    CL2                                                      66060021
 00456A                             6821          DS    CL5                 YES PARAMS WILL BE MOVED HERE        66070021
 00456F                             6822 NOSOU    DS    CL2                 AS ONE CONSTANT - THE WORD           66080021
 004571                             6823          DS    CL27                'NO' WILL BE LATER PLUGGED IN        66090021
                                    6824 *                                  WHEREVER NEEDED                      66100021
-
 00458C                      04514  6826          ORG   OU6REC                                                   66120021
 004514                             6827 PMSGL3   DS    0CL120                                                   66130021
 004514                             6828 PMSG3A   DS    CL19                *OPTIONS IN EFFECT*                  66140021
 004527                             6829          DS    CL5                                                      66150021
 00452C                             6830 PMSG13   DS    0CL96                                                    66160021
 00452C                             6831 NODMP    DS    CL2                                                      66170021
 00452E                             6832          DS    CL6                                                      66180021
1PH60     IKFCBL60                                                                                              PAGE  162
-  LOC  OBJECT CODE    ADDR1 ADDR2  STMT   SOURCE STATEMENT                                       ASM 0201 11.03 02/14/15
0004534                             6833 NOPMP    DS    CL2                                                      66190021
 004536                             6834          DS    CL6                                                      66200021
 00453C                             6835 NOCLST   DS    CL2                                                      66210021
 00453E                             6836          DS    CL7                                                      66220021
 004545                             6837 NOSUPMAP DS    CL2                                                      66230021
 004547                             6838          DS    CL8                                                      66240021
 00454F                             6839 NOXREF   DS    CL2                                                      66250021
 004551                             6840          DS    CL6                                                      66260021
 004557                             6841 NOLD     DS    CL2                                                      66270021
 004559                             6842          DS    CL6                                                      66280021
 00455F                             6843 NODK     DS    CL2                                                      66290021
 004561                             6844          DS    CL6                                                      66300021
 004567                             6845 NOAPOST  DS    CL5                                                      66310021
 00456C                             6846          DS    CL2                                                      66320021
 00456E                             6847 NOTRUNC  DS    CL2                                                      66330021
 004570                             6848          DS    CL7                                                      66340021
 004577                             6849 NOLIB    DS    CL2                                                      66350021
 004579                             6850          DS    CL5                                                      66360021
 00457E                             6851 NOVERB   DS    CL2                                                      66370021
 004580                             6852          DS    CL6                                                      66380021
 004586                             6853 NOPDT    DS    CL2                                                      66390021
 004588                             6854          DS    CL4                                                      66400021
-
0
 00458C                      04514  6856          ORG   OU6REC                                                   66420021
 004514                             6857 PMSGL4   DS    0CL120                                                   66430021
 004514                             6858 PMSG3B   DS    CL19                *OPTIONS IN EFFECT*                  66440021
 004527                             6859          DS    CL5                                                      66450021
 00452C                             6860 PMSG14   DS    0CL96                                                    66460021
 00452C                             6861 NOZWB    DS    CL2                                                      66470021
 00452E                             6862          DS    CL94                                                     66480021
1PH60     IKFCBL60                                                                                              PAGE  163
-  LOC  OBJECT CODE    ADDR1 ADDR2  STMT   SOURCE STATEMENT                                       ASM 0201 11.03 02/14/15
000458C                             6864 OUCREC   DS    0CL120              OUTPUT AREA FOR CONDENSED LIST       66500021
 00458C                             6865          DS    CL1                                                      66510021
 00458D                             6866 OUCREC1 DS   CL25                                                       66520021
 0045A6                             6867          DS    CL20                                                     66530021
 0045BA                             6868 OUCREC2 DS   CL25                                                       66540021
 0045D3                             6869          DS    CL20                                                     66550021
 0045E7                             6870 PUTCWK   DS    0CL25                                                    66560021
 0045E7                             6871 OUCCDN   DS    CL5                 CARD NUMBER                          66570021
 0045EC                             6872          DS    CL3                                                      66580021
 0045EF                             6873 OUCLST   DS    CL10                VERB                                 66590021
 0045F9                             6874          DS    CL1                                                      66600021
 0045FA                             6875 OUCLC    DS    CL6                 LOCATION COUNTER                     66610021
 004600                             6876          DS    CL4                                                      66620021
1PH60     IKFCBL60                                                                                              PAGE  164
-  LOC  OBJECT CODE    ADDR1 ADDR2  STMT   SOURCE STATEMENT                                       ASM 0201 11.03 02/14/15
0                                   6878 *=1            EXECUTE TABLES                                           66640021
                                    6879 ***  EACH OF THESE GROUPS MUST BE INTACT  ***                           66650021
 004604                             6880 SE6025 DS    0H                                                         66660021
 004604 47F0 8282      01B0A        6881          BC    UNCOND,OPPRO   48   PROC A-TEXT OP ELTS & ASSOC EL       66670021
 004608 47F0 8ACA      02352        6882          BC    UNCOND,PNDEFR  30               PN ELTS/CREATE RLD       66680021
 00460C 47F0 8B80      02408        6883          BC    UNCOND,GNDEFR  34               GN ELTS                  66690021
 004610 47F0 8BA6      0242E        6884          BC    UNCOND,VNDEFR  38               VN ELTS                  66700021
 004614 47F0 A5BC      02E44        6885          BC    UNCOND,PNBPRO  3C        CREATEIN-LINE DC FROM PN        66710021
 004618 47F0 8240      01AC8        6886        BC    UNCOND,SE6080         READ NEXT ELT                        66720021
 00461C 47F0 8240      01AC8        6887          BC    UNCOND,SE6080  98   READ NEXT ELT                        66730021
 004620 47F0 8240      01AC8        6888          BC    UNCOND,SE6080  40   READ NEXT ELT                        66740021
 004624 47F0 8C70      024F8        6889          BC    UNCOND,MACPRO  44        IDENT  MACRO TYPE               66750021
 004628 47F0 80C4      0194C        6890          BC    UNCOND,SE6010  2C   CARD NUMBER                          66760021
 00462C 47F0 A62E      02EB6        6891          BC    UNCOND,GIDENL  9C               IDENTLOC ELT             66770021
 004630                             6892 R6202  DS    0H                                                         66780021
 004630 47F0 8378      01C00        6893          BC    UNCOND,R6240   AC   USE LENGTH ELT                       66790021
 004634 47F0 8728      01FB0        6894          BC    UNCOND,R6512   A8   USE PLUS ELT                         66800021
 004638 47F0 855C      01DE4        6895          BC    UNCOND,R6400   A4   ADR W/PLUS                           66810021
 00463C 47F0 A612      02E9A        6896          BC    UNCOND,GENBD   8C   SPECIAL BDISP                        66820021
 004640 47F0 840C      01C94        6897          BC    UNCOND,R6300   4C   PNREF                                66830021
 004644 47F0 84BC      01D44        6898          BC    UNCOND,R6325   50   GNREF                                66840021
 004648 47F0 84E2      01D6A        6899          BC    UNCOND,R6350   54   VNREF                                66850021
 00464C 47F0 88B6      0213E        6900          BC    UNCOND,R6700   58   VIRREF                               66860021
 004650 47F0 8384      01C0C        6901          BC    UNCOND,R6260   5C   BLREF                                66870021
 004654 47F0 8968      021F0        6902          BC    UNCOND,R6750   60   GTREF1                               66880021
 004658 47F0 89A8      02230        6903          BC    UNCOND,R6800   64   GTREF2                               66890021
 00465C 47F0 8870      020F8        6904          BC    UNCOND,LTLPRO  68   LTLREF                               66900021
 004660 47F0 82F4      01B7C        6905          BC    UNCOND,R6210   70   BDISP                                66910021
 004664 47F0 8560      01DE8        6906          BC    UNCOND,R6410   78   ADR                                  66920021
 004668 47F0 86CC      01F54        6907          BC    UNCOND,R6500   80   PLUS                                 66930021
 00466C 47F0 8548      01DD0        6908          BC    UNCOND,GENVNI  90   VNIREF                               66940021
 004670 47F0 A5F0      02E78        6909          BC    UNCOND,GENIMM  88   SPECIAL IMMEDIATE FIELD              66950021
 004674 47F0 826C      01AF4        6910          BC    UNCOND,R6010   94   GET NEXT ELT                         66960021
 004678 0000                        6911 GT1KND DC    H'0'           SAVE-AREA DISP IN TGT                       66970021
 00467A 0048                        6912        DC    H'72'  SWITCH    DISP IN TGT                               66980021
 00467C 004C                        6913        DC    H'76'  TALLY     DISP IN TGT                               66990021
 00467E 0050                        6914        DC    H'80'  DEBUG     DISP IN TGT                               67000021
 004680 0054                        6915        DC    H'84'  ECB       DISP IN TGT                               67010021
 004682                             6916        DS    H                     ***NOT USED PRESENTLY**              67020021
 004684                             6917        DS    H                     ***NOT USED PRESENTLY**              67030021
 004686 47F0 8F5C      027E4        6918 TYTBL  BC      UNCOND,BINIT1       ADCON TYPE = INIT1                   67040021
 00468A 47F0 A000      02888        6919        BC      UNCOND,BTALLY                    TALLY                   67050021
 00468E 4850 922A      0022A        6920        LH    RW3,PARMAX                                                 67060021
 004692 47F0 A00C      02894        6921        BC    UNCOND,ADBLI                       BLI                     67070021
 004696 4850 920C      0020C        6922        LH    RW3,BLCTR                                                  67080021
 00469A 4850 917A      0017A        6923        LH    RW3,SBLCTR                                                 67090021
 00469E 47F0 8A7A      02302        6924          BC    UNCOND,ERR040       ASYNC. PROC. ELEMENT *OUT*           67100021
 0046A2 47F0 A014      0289C        6925        BC      UNCOND,BVLCI                     VLC                     67110021
 0046A6 47F0 8A7A      02302        6926        B     ERR040                   SHOULD NOT OCCUR -LOGIC ERR       67120021
 0046AA 47F0 8A7A      02302        6927          BC    UNCOND,ERR040       ASYNC. PROC. ELEMENT *OUT*           67130021
 0046AE 4850 917E      0017E        6928        LH    RW3,BLLCTR                                                 67140021
 0046B2 47F0 A06A      028F2        6929        BC      UNCOND,BLITRF                    LIT                     67150021
 0046B6 47F0 A12A      029B2        6930        BC      UNCOND,BINIT3                    INIT3                   67160021
 0046BA 47F0 A132      029BA        6931        BC      UNCOND,BCKPTR                    CKPT                    67170021
 0046BE 47F0 A13A      029C2        6932        BC      UNCOND,BPGT                      PGT                     67180021
1PH60     IKFCBL60                                                                                              PAGE  165
-  LOC  OBJECT CODE    ADDR1 ADDR2  STMT   SOURCE STATEMENT                                       ASM 0201 11.03 02/14/15
00046C2 47F0 A142      029CA        6933        BC      UNCOND,BTGT                      TGT                     67190021
 0046C6 47F0 A14A      029D2        6934        BC      UNCOND,BINIT2                    INIT2                   67200021
 0046CA 47F0 A152      029DA        6935        BC      UNCOND,BSTART                    START                   67210021
 0046CE 47F0 A04C      028D4        6936        BC    UNCOND,BPN                         PN                      67220021
 0046D2 47F0 A184      02A0C        6937        BC    UNCOND,BVIRT                       VN                      67230021
 0046D6 47F0 A15A      029E2        6938        BC    UNCOND,BGN                         GN                      67240021
 0046DA 47F0 8A7A      02302        6939          BC    UNCOND,ERR040       ASYNC. PROC. ELEMENT *OUT*           67250021
 0046DE 47F0 A188      02A10        6940        BC    UNCOND,BVNLOC                      VNLOC                   67260021
 0046E2 47F0 A194      02A1C        6941        BC    UNCOND,BVNIL                       VNI                     67270021
 0046E6 4850 9228      00228        6942        LH    RW3,SUBCTR                                                 67280021
 0046EA 47F0 A042      028CA        6943        BC    UNCOND,TSADCN                      TEMP-STORAGE            67290021
 0046EE 47F0 A1A0      02A28        6944        B     EXTADC               TYPE=68,EXTERNAL ADCON                67300021
 0046F2                             6945 SUBTBL DS    0H                                                         67310021
 0046F2 47F0 8A7A      02302        6946          BC    UNCOND,ERR040       ASYNC. PROC. ELEMENT *OUT*           67320021
 0046F6 47F0 8A7A      02302        6947          BC    UNCOND,ERR040       ASYNC. PROC. ELEMENT *OUT*           67330021
 0046FA 4B70 91D4      001D4        6948        SH    RW2,DECBCT                                                 67340021
 0046FE 4B70 9210      00210        6949        SH    RW2,ONCTR                                                  67350021
 004702 4B70 9218      00218        6950        SH    RW2,XSWCTR                                                 67360021
 004706 4B70 9212      00212        6951        SH    RW2,PFMCTR                                                 67370021
 00470A 47F0 8A7A      02302        6952          BC    UNCOND,ERR040       ASYNC. PROC. ELEMENT *OUT*           67380021
 00470E 4B70 920C      0020C        6953        SH    RW2,BLCTR                                                  67390021
 004712 4B70 917C      0017C        6954        SH    RW2,VLCCTR                                                 67400021
 004716 4B70 917A      0017A        6955        SH    RW2,SBLCTR                                                 67410021
1PH60     IKFCBL60                                                                                              PAGE  166
-  LOC  OBJECT CODE    ADDR1 ADDR2  STMT   SOURCE STATEMENT                                       ASM 0201 11.03 02/14/15
0                                   6957 *=1                 MNEMONIC TABLE                                      67430021
                                    6958 *      THIS TABLE MUST BE REFERRED TO BY USE OF AN ADCON                67440021
 00471C                             6959        DS    0F                                                         67450021
                             0471C  6960 C6TBL  EQU   *                                                          67460021
 00471C 40404040                    6961        DC    CL4'    '                  00                              67470021
 004720 40404040                    6962        DC    CL4'    '                  01                              67480021
 004724 40404040                    6963        DC    CL4'    '                  02                              67490021
 004728 40404040                    6964        DC    CL4'    '                  03                              67500021
 00472C E2D7D440                    6965        DC    CL4'SPM '                  04                              67510021
 004730 C2C1D3D9                    6966        DC    CL4'BALR'                  05                              67520021
 004734 C2C3E3D9                    6967        DC    CL4'BCTR'                  06                              67530021
 004738 C2C3D940                    6968        DC    CL4'BCR '                  07                              67540021
 00473C E2E2D240                    6969        DC    CL4'SSK '                  08                              67550021
 004740 C9E2D240                    6970        DC    CL4'ISK '                  09                              67560021
 004744 E2E5C340                    6971        DC    CL4'SVC '                  0A                              67570021
 004748 40404040                    6972        DC    CL4'    '                  0B                              67580021
 00474C 40404040                    6973        DC    CL4'    '                  0C                              67590021
 004750 40404040                    6974        DC    CL4'    '                  0D                              67600021
 004754 40404040                    6975        DC    CL4'    '                  0E                              67610021
 004758 40404040                    6976        DC    CL4'    '                  0F                              67620021
 00475C D3D7D940                    6977        DC    CL4'LPR '                  10                              67630021
 004760 D3D5D940                    6978        DC    CL4'LNR '                  11                              67640021
 004764 D3E3D940                    6979        DC    CL4'LTR '                  12                              67650021
 004768 D3C3D940                    6980        DC    CL4'LCR '                  13                              67660021
 00476C D5D94040                    6981        DC    CL4'NR  '                  14                              67670021
 004770 C3D3D940                    6982        DC    CL4'CLR '                  15                              67680021
 004774 D6D94040                    6983        DC    CL4'OR  '                  16                              67690021
 004778 E7D94040                    6984        DC    CL4'XR  '                  17                              67700021
 00477C D3D94040                    6985        DC    CL4'LR  '                  18                              67710021
 004780 C3D94040                    6986        DC    CL4'CR  '                  19                              67720021
 004784 C1D94040                    6987        DC    CL4'AR  '                  1A                              67730021
 004788 E2D94040                    6988        DC    CL4'SR  '                  1B                              67740021
 00478C D4D94040                    6989        DC    CL4'MR  '                  1C                              67750021
 004790 C4D94040                    6990        DC    CL4'DR  '                  1D                              67760021
 004794 C1D3D940                    6991        DC    CL4'ALR '                  1E                              67770021
 004798 E2D3D940                    6992        DC    CL4'SLR '                  1F                              67780021
 00479C D3C4D7D9                    6993        DC    CL4'LDPR'                  20                              67790021
 0047A0 D3D5C4D9                    6994        DC    CL4'LNDR'                  21                              67800021
 0047A4 D3E3C4D9                    6995        DC    CL4'LTDR'                  22                              67810021
 0047A8 D3C3C4D9                    6996        DC    CL4'LCDR'                  23                              67820021
 0047AC C8C4D940                    6997        DC    CL4'HDR '                  24                              67830021
 0047B0 40404040                    6998        DC    CL4'    '                  25                              67840021
 0047B4 40404040                    6999        DC    CL4'    '                  26                              67850021
 0047B8 40404040                    7000        DC    CL4'    '                  27                              67860021
 0047BC D3C4D940                    7001        DC    CL4'LDR '                  28                              67870021
 0047C0 C3C4D940                    7002        DC    CL4'CDR '                  29                              67880021
 0047C4 C1C4D940                    7003        DC    CL4'ADR '                  2A                              67890021
 0047C8 E2C4D940                    7004        DC    CL4'SDR '                  2B                              67900021
 0047CC D4C4D940                    7005        DC    CL4'MDR '                  2C                              67910021
 0047D0 C4C4D940                    7006        DC    CL4'DDR '                  2D                              67920021
 0047D4 C1E6D940                    7007        DC    CL4'AWR '                  2E                              67930021
 0047D8 E2E6D940                    7008        DC    CL4'SWR '                  2F                              67940021
 0047DC D3D7C5D9                    7009        DC    CL4'LPER'                  30                              67950021
 0047E0 D3D5C5D9                    7010        DC    CL4'LNER'                  31                              67960021
 0047E4 D3E3C5D9                    7011        DC    CL4'LTER'                  32                              67970021
1PH60     IKFCBL60                                                                                              PAGE  167
-  LOC  OBJECT CODE    ADDR1 ADDR2  STMT   SOURCE STATEMENT                                       ASM 0201 11.03 02/14/15
00047E8 D3C3C5D9                    7012        DC    CL4'LCER'                  33                              67980021
 0047EC C8C5D940                    7013        DC    CL4'HER '                  34                              67990021
 0047F0 40404040                    7014        DC    CL4'    '                  35                              68000021
 0047F4 40404040                    7015        DC    CL4'    '                  36                              68010021
 0047F8 40404040                    7016        DC    CL4'    '                  37                              68020021
 0047FC D3C5D940                    7017        DC    CL4'LER '                  38                              68030021
 004800 C3C5D940                    7018        DC    CL4'CER '                  39                              68040021
 004804 C1C5D940                    7019        DC    CL4'AER '                  3A                              68050021
 004808 E2C5D940                    7020        DC    CL4'SER '                  3B                              68060021
 00480C D4C5D940                    7021        DC    CL4'MER '                  3C                              68070021
 004810 C4C5D940                    7022        DC    CL4'DER '                  3D                              68080021
 004814 C1E4D940                    7023        DC    CL4'AUR '                  3E                              68090021
 004818 E2E4D940                    7024        DC    CL4'SUR '                  3F                              68100021
 00481C E2E3C840                    7025        DC    CL4'STH '                  40                              68110021
 004820 D3C14040                    7026        DC    CL4'LA  '                  41                              68120021
 004824 E2E3C340                    7027        DC    CL4'STC '                  42                              68130021
 004828 C9C34040                    7028        DC    CL4'IC  '                  43                              68140021
 00482C C5E74040                    7029        DC    CL4'EX  '                  44                              68150021
 004830 C2C1D340                    7030        DC    CL4'BAL '                  45                              68160021
 004834 C2C3E340                    7031        DC    CL4'BCT '                  46                              68170021
 004838 C2C34040                    7032        DC    CL4'BC  '                  47                              68180021
 00483C D3C84040                    7033        DC    CL4'LH  '                  48                              68190021
 004840 C3C84040                    7034        DC    CL4'CH  '                  49                              68200021
 004844 C1C84040                    7035        DC    CL4'AH  '                  4A                              68210021
 004848 E2C84040                    7036        DC    CL4'SH  '                  4B                              68220021
 00484C D4C84040                    7037        DC    CL4'MH  '                  4C                              68230021
 004850 40404040                    7038        DC    CL4'    '                  4D                              68240021
 004854 C3E5C440                    7039        DC    CL4'CVD '                  4E                              68250021
 004858 C3E5C240                    7040        DC    CL4'CVB '                  4F                              68260021
 00485C E2E34040                    7041        DC    CL4'ST  '                  50                              68270021
 004860 40404040                    7042        DC    CL4'    '                  51                              68280021
 004864 40404040                    7043        DC    CL4'    '                  52                              68290021
 004868 40404040                    7044        DC    CL4'    '                  53                              68300021
 00486C D5404040                    7045        DC    CL4'N   '                  54                              68310021
 004870 C3D34040                    7046        DC    CL4'CL  '                  55                              68320021
 004874 D6404040                    7047        DC    CL4'O   '                  56                              68330021
 004878 E7404040                    7048        DC    CL4'X   '                  57                              68340021
 00487C D3404040                    7049        DC    CL4'L   '                  58                              68350021
 004880 C3404040                    7050        DC    CL4'C   '                  59                              68360021
 004884 C1404040                    7051        DC    CL4'A   '                  5A                              68370021
 004888 E2404040                    7052        DC    CL4'S   '                  5B                              68380021
 00488C D4404040                    7053        DC    CL4'M   '                  5C                              68390021
 004890 C4404040                    7054        DC    CL4'D   '                  5D                              68400021
 004894 C1D34040                    7055        DC    CL4'AL  '                  5E                              68410021
 004898 E2D34040                    7056        DC    CL4'SL  '                  5F                              68420021
 00489C E2E3C440                    7057        DC    CL4'STD '                  60                              68430021
 0048A0 40404040                    7058        DC    CL4'    '                  61                              68440021
 0048A4 40404040                    7059        DC    CL4'    '                  62                              68450021
 0048A8 40404040                    7060        DC    CL4'    '                  63                              68460021
 0048AC 40404040                    7061        DC    CL4'    '                  64                              68470021
 0048B0 40404040                    7062        DC    CL4'    '                  65                              68480021
 0048B4 40404040                    7063        DC    CL4'    '                  66                              68490021
 0048B8 40404040                    7064        DC    CL4'    '                  67                              68500021
 0048BC D3C44040                    7065        DC    CL4'LD  '                  68                              68510021
 0048C0 C3C44040                    7066        DC    CL4'CD  '                  69                              68520021
1PH60     IKFCBL60                                                                                              PAGE  168
-  LOC  OBJECT CODE    ADDR1 ADDR2  STMT   SOURCE STATEMENT                                       ASM 0201 11.03 02/14/15
00048C4 C1C44040                    7067        DC    CL4'AD  '                  6A                              68530021
 0048C8 E2C44040                    7068        DC    CL4'SD  '                  6B                              68540021
 0048CC D4C44040                    7069        DC    CL4'MD  '                  6C                              68550021
 0048D0 C4C44040                    7070        DC    CL4'DD  '                  6D                              68560021
 0048D4 C1E64040                    7071        DC    CL4'AW  '                  6E                              68570021
 0048D8 E2E64040                    7072        DC    CL4'SW  '                  6F                              68580021
 0048DC E2E3C540                    7073        DC    CL4'STE '                  70                              68590021
 0048E0 40404040                    7074        DC    CL4'    '                  71                              68600021
 0048E4 40404040                    7075        DC    CL4'    '                  72                              68610021
 0048E8 40404040                    7076        DC    CL4'    '                  73                              68620021
 0048EC 40404040                    7077        DC    CL4'    '                  74                              68630021
 0048F0 40404040                    7078        DC    CL4'    '                  75                              68640021
 0048F4 40404040                    7079        DC    CL4'    '                  76                              68650021
 0048F8 40404040                    7080        DC    CL4'    '                  77                              68660021
 0048FC D3C54040                    7081        DC    CL4'LE  '                  78                              68670021
 004900 C3C54040                    7082        DC    CL4'CE  '                  79                              68680021
 004904 C1C54040                    7083        DC    CL4'AE  '                  7A                              68690021
 004908 E2C54040                    7084        DC    CL4'SE  '                  7B                              68700021
 00490C D4C54040                    7085        DC    CL4'ME  '                  7C                              68710021
 004910 C4C54040                    7086        DC    CL4'DE  '                  7D                              68720021
 004914 C1E44040                    7087        DC    CL4'AU  '                  7E                              68730021
 004918 E2E44040                    7088        DC    CL4'SU  '                  7F                              68740021
 00491C E2E2D440                    7089        DC    CL4'SSM '                  80                              68750021
 004920 40404040                    7090        DC    CL4'    '                  81                              68760021
 004924 D3D7E2E6                    7091        DC    CL4'LPSW'                  82                              68770021
 004928 40404040                    7092        DC    CL4'    '                  83                              68780021
 00492C E6D9C440                    7093        DC    CL4'WRD '                  84                              68790021
 004930 D9C4C440                    7094        DC    CL4'RDD '                  85                              68800021
 004934 C2E7C840                    7095        DC    CL4'BXH '                  86                              68810021
 004938 C2E7D3C5                    7096        DC    CL4'BXLE'                  87                              68820021
 00493C E2D9D340                    7097        DC    CL4'SRL '                  88                              68830021
 004940 E2D3D340                    7098        DC    CL4'SLL '                  89                              68840021
 004944 E2D9C140                    7099        DC    CL4'SRA '                  8A                              68850021
 004948 E2D3C140                    7100        DC    CL4'SLA '                  8B                              68860021
 00494C E2D9C4D3                    7101        DC    CL4'SRDL'                  8C                              68870021
 004950 E2D3C4D3                    7102        DC    CL4'SLDL'                  8D                              68880021
 004954 E2D9C4C1                    7103        DC    CL4'SRDA'                  8E                              68890021
 004958 E2D3C4C1                    7104        DC    CL4'SLDA'                  8F                              68900021
 00495C E2E3D440                    7105        DC    CL4'STM '                  90                              68910021
 004960 E3D44040                    7106        DC    CL4'TM  '                  91                              68920021
 004964 D4E5C940                    7107        DC    CL4'MVI '                  92                              68930021
 004968 E3E24040                    7108        DC    CL4'TS  '                  93                              68940021
 00496C D5C94040                    7109        DC    CL4'NI  '                  94                              68950021
 004970 C3D3C940                    7110        DC    CL4'CLI '                  95                              68960021
 004974 D6C94040                    7111        DC    CL4'OI  '                  96                              68970021
 004978 E7C94040                    7112        DC    CL4'XI  '                  97                              68980021
 00497C D3D44040                    7113        DC    CL4'LM  '                  98                              68990021
 004980 40404040                    7114        DC    CL4'    '                  99                              69000021
 004984 40404040                    7115        DC    CL4'    '                  9A                              69010021
 004988 40404040                    7116        DC    CL4'    '                  9B                              69020021
 00498C E2C9D640                    7117        DC    CL4'SIO '                  9C                              69030021
 004990 E3C9D640                    7118        DC    CL4'TIO '                  9D                              69040021
 004994 C8C9D640                    7119        DC    CL4'HIO '                  9E                              69050021
                                    7120 *                                                                       69060021
 004998 E3C3C840                    7121        DC    CL4'TCH '                  9F                              69070021
1PH60     IKFCBL60                                                                                              PAGE  169
-  LOC  OBJECT CODE    ADDR1 ADDR2  STMT   SOURCE STATEMENT                                       ASM 0201 11.03 02/14/15
000499C 40404040                    7122        DC    CL4'    '                  D0                              69080021
 0049A0 D4E5D540                    7123        DC    CL4'MVN '                  D1                              69090021
 0049A4 D4E5C340                    7124        DC    CL4'MVC '                  D2                              69100021
 0049A8 D4E5E940                    7125        DC    CL4'MVZ '                  D3                              69110021
 0049AC D5C34040                    7126        DC    CL4'NC  '                  D4                              69120021
 0049B0 C3D3C340                    7127        DC    CL4'CLC '                  D5                              69130021
 0049B4 D6C34040                    7128        DC    CL4'OC  '                  D6                              69140021
 0049B8 E7C34040                    7129        DC    CL4'XC  '                  D7                              69150021
 0049BC 40404040                    7130        DC    CL4'    '                  D8                              69160021
 0049C0 40404040                    7131        DC    CL4'    '                  D9                              69170021
 0049C4 40404040                    7132        DC    CL4'    '                  DA                              69180021
 0049C8 40404040                    7133        DC    CL4'    '                  DB                              69190021
 0049CC E3D94040                    7134        DC    CL4'TR  '                  DC                              69200021
 0049D0 E3D9E340                    7135        DC    CL4'TRT '                  DD                              69210021
 0049D4 C5C44040                    7136        DC    CL4'ED  '                  DE                              69220021
 0049D8 C5C4D4D2                    7137        DC    CL4'EDMK'                  DF                              69230021
 0049DC 40404040                    7138        DC    CL4'    '                  F0                              69240021
 0049E0 D4E5D640                    7139        DC    CL4'MVO '                  F1                              69250021
 0049E4 D7C1C3D2                    7140        DC    CL4'PACK'                  F2                              69260021
 0049E8 E4D5D7D2                    7141        DC    CL4'UNPK'                  F3                              69270021
 0049EC 40404040                    7142        DC    CL4'    '                  F4                              69280021
 0049F0 40404040                    7143        DC    CL4'    '                  F5                              69290021
 0049F4 40404040                    7144        DC    CL4'    '                  F6                              69300021
 0049F8 40404040                    7145        DC    CL4'    '                  F7                              69310021
 0049FC E9C1D740                    7146        DC    CL4'ZAP '                  F8                              69320021
 004A00 C3D74040                    7147        DC    CL4'CP  '                  F9                              69330021
 004A04 C1D74040                    7148        DC    CL4'AP  '                  FA                              69340021
 004A08 E2D74040                    7149        DC    CL4'SP  '                  FB                              69350021
 004A0C D4D74040                    7150        DC    CL4'MP  '                  FC                              69360021
 004A10 C4D74040                    7151        DC    CL4'DP  '                  FD                              69370021
 004A14 40404040                    7152        DC    CL4'    '                  FE                              69380021
 004A18 40404040                    7153        DC    CL4'    '                  FF                              69390021
1PH60     IKFCBL60                                                                                              PAGE  170
-  LOC  OBJECT CODE    ADDR1 ADDR2  STMT   SOURCE STATEMENT                                       ASM 0201 11.03 02/14/15
0004A20                             7155 IKF607   CSECT                                                          69410021
                                    7156 *=1            PROCESS A-TEXT ELEMENTS -- SUBROUTINES                   69420021
                                    7157 *                                                                       69430021
                                    7158 *      SUBROUTINES   LINK BY L  15,ADCON FOR BASE                       69440021
                                    7159 *                            BALR   14,15                               69450021
                                    7160 *                                                                       69460021
                                    7161 *                                                                       69470021
                                    7162 *                                                                       69480021
                                    7163 *=1          CONVERT HEXADECIMAL WORD TO DECIMAL CHARACTERS             69490021
                                    7164 *            WORD FOR CONVERSION IS IN C6WRK0 BEFORE LINK               69500021
                                    7165 *            DECIMAL CHARACTERS IN C6WRK1-8 WHEN RETURN                 69510021
 004A20                             7166          DS    0H                                                       69520021
                             04A20  7167        USING *,R15                                                      69530021
 004A20 900F D07C      03E14        7168 S6010  STM   R0,R15,SVREG                                               69540021
                                    7169 *                                                                       69550021
 004A24 F384 D318 D314 040B0 040AC  7170          UNPK  C6WRK1(LX9),C6WRK0(LX5)                                  69560021
 004A2A 4170 0008      00008        7171          LA    RW2,DX8                   INIT CTR                       69570021
 004A2E 1B66                        7172        SR    RW1,RW1                    CLEAR REGISTER                  69580021
 004A30 4367 D317      040AF        7173 S6020    IC    RW1,C6WRK1-NX1(RW2)  CURRENT CHAR                        69590021
 004A34 5560 C054      036E4        7174        CL    RW1,C69                    IS A-F                          69600021
 004A38 4720 F026      04A46        7175        BC    HI,S6040                     YES                           69610021
 004A3C 4670 F010      04A30        7176 S6030  BCT   RW2,S6020                  GET NEXT CHARACTER              69620021
 004A40 980F D07C      03E14        7177        LM    R0,R15,SVREG                                               69630021
 004A44 07FE                        7178          BCR   UNCOND,RS1          EXIT                                 69640021
                                    7179 *                                                                       69650021
 004A46 5460 C000      03690        7180 S6040  N     RW1,C6M1                   CLEAR ALL BUT LOW-ORD 3 BIT     69660021
 004A4A 4366 F036      04A56        7181        IC    RW1,S6060(RW1)        LOAD APPROPRIATE CHAR                69670021
 004A4E 4267 D317      040AF        7182          STC   RW1,C6WRK1-NX1(RW2)  CONVERTED CHAR TO STORAGE           69680021
 004A52 47F0 F01C      04A3C        7183        BC    UNCOND,S6030          GO GET NEXT CHARACTER                69690021
 004A56 F0F0C1C2C3C4C5C6            7184 S6060  DC    CL8'00ABCDEF'                                              69700021
                                    7185        DROP  R15                                                        69710021
                                    7186 *                                                                       69720021
                                    7187 *=1          CONVERT MAX 255 BINARY TO DECIMAL,COUNT SIGNIFICANT CH     69730021
                                    7188 *            VALUE IS IN RW1 BEFORE LINK                                69740021
                                    7189 *            SIGNIFICANT CHARACTERS IN C6WRK6-8 WHEN RETURN             69750021
                                    7190 *            NUMBER-1 OF SIGNIFICANT CHARS IN RW2 WHEN RETURN           69760021
                                    7191 *            OU6OPD+RW2 IN RW3 WHEN RETURN                              69770021
                             04A5E  7192        USING *,R15                                                      69780021
 004A5E 5460 C008      03698        7193 S6200  N     RW1,C6M3                   CLEAR ALL BUT LOW-ORD 8 BIT     69790021
 004A62 5460 C028      036B8        7194 S6210  N     RW1,C6M7              CLEAR FIRST 2 BYTES                  69800021
 004A66 47F0 F014      04A72        7195        BC    UNCOND,S6240          DO COMMON CODE FOR CONVERT           69810021
 004A6A 8860 0004      00004        7196 S6260    SRL   RW1,DX4              RIGHT-JUSTIFY                       69820021
 004A6E 5460 C004      03694        7197 S6250  N     RW1,C6M2              USE 4 BITS                           69830021
 004A72 900F F062      04AC0        7198 S6240  STM   R0,R15,V6210                                               69840021
 004A76 4E60 D318      040B0        7199        CVD   RW1,C6WRK1                 CONVERT TO DEC VALUE            69850021
 004A7A 5860 D31C      040B4        7200        L     RW1,C6WRK5            XXXXX+                               69860021
 004A7E 8860 0004      00004        7201          SRL   RW1,DX4                   DROP SIGN BITS                 69870021
 004A82 5060 D314      040AC        7202        ST    RW1,C6WRK0                 DEC VALUE FOR CHAR CONVERSI     69880021
 004A86 58F0 C474      03B04        7203        L     R15,AS6010        CONVERT                                  69890021
 004A8A 05EF                        7204        BALR  RS1,R15               CONVERT                              69900021
 004A8C 58F0 C468      03AF8        7205        L     R15,AS6200                                                 69910021
 004A90 4170 0004      00004        7206          LA    RW2,DX4              INIT RW2 COUNT                      69920021
 004A94 95F0 D31B      040B3        7207 S6230    CLI   C6WRK4,MF0          SIGNIFICANT CHARACTERS               69930021
 004A98 4770 F048      04AA6        7208        BC    NOTEQ,S6220                  YES                           69940021
 004A9C D203 D31B D31C 040B3 040B4  7209          MVC   C6WRK4(LX4),C6WRK5   NO, DROP IT                         69950021
1PH60     IKFCBL60                                                                                              PAGE  171
-  LOC  OBJECT CODE    ADDR1 ADDR2  STMT   SOURCE STATEMENT                                       ASM 0201 11.03 02/14/15
0004AA2 4670 F036      04A94        7210        BCT   RW2,S6230             MODIFY COUNT AND TEST                69960021
                             04AA6  7211 S6220  EQU   *                                                          69970021
 004AA6 5070 D310      040A8        7212        ST    RW2,C6RW2                                                  69980021
 004AAA 980F F062      04AC0        7213        LM    R0,R15,V6210                                               69990021
 004AAE 5870 D310      040A8        7214        L     RW2,C6RW2                                                  70000021
 004AB2 447E 0000      00000        7215          EX    RW2,DX0(RS1)     EXECUTE MVC INSTR FOR FIELD             70010021
 004AB6 1A57                        7216        AR    RW3,RW2                    TO STEP OPERAND ADDR            70020021
 004AB8 41EE 0006      00006        7217          LA    RS1,DX6(RS1)      EXIT                                   70030021
 004ABC 07FE                        7218          BCR   UNCOND,RS1          EXIT                                 70040021
 004AC0                             7219 V6210 DS    16F                  SAVE AREA FOR SUBRTN S6200             70050021
                                    7220        DROP  R15                                                        70060021
                                    7221 *                                                                       70070021
1PH60     IKFCBL60                                                                                              PAGE  172
-  LOC  OBJECT CODE    ADDR1 ADDR2  STMT   SOURCE STATEMENT                                       ASM 0201 11.03 02/14/15
0                                   7223 *                                                                       70090021
                                    7224 *=1          PRINT LINE USING HEXADECIMAL INSTRUCTION ASSEMBLED IN      70100021
                                    7225 *=             C6OP,C6RS,C6B1S,C6D1S,C6B2S,C6D2S                        70110021
                             04B00  7226        USING *,R15                                                      70120021
 004B00 900F F54C      0504C        7227 S6800  STM   R0,R15,V6800                                               70130021
 004B04 9500 D2EA      04082        7228          CLI   C6OP,NOPOPCD                                             70140021
 004B08 078E                        7229        BCR   EQ,RS1            NO INSTRUCTION                           70150021
                                    7230 *=L    CODING FROM HERE TO NEXT *=L CARD OUT IF NOLIST MODE             70160021
 004B0A 9140 91A3      001A3        7231        TM    PHZSW,NOLIST                                               70170021
 004B0E 4780 F440      04F40        7232        BC    ZERO,S6931            NOLIST, DON'T PRINT                  70180021
 004B12 4150 D7BA      04552        7233        LA    RW3,OU6OPD                INIT OPERAND ADDR-S6200 STEP     70190021
 004B16 D202 D314 D2EA 040AC 04082  7234          MVC   C6WRK0(LX3),C6OP     LAST OP, REGISTERS, B1              70200021
 004B1C 58F0 C474      03B04        7235        L     R15,AS6010                                                 70210021
 004B20 05EF                        7236        BALR  RS1,R15            CONVERT HEX TO DEC                      70220021
 004B22 58F0 C464      03AF4        7237        L     R15,AS6800                                                 70230021
 004B26 D201 D798 D318 04530 040B0  7238          MVC   OU6OP(LX2),C6WRK1    OP TO PRINT                         70240021
 004B2C D201 D79B D31A 04533 040B2  7239          MVC   OU6R1(LX2),C6WRK3    REGS TO PRINT                       70250021
 004B32 9540 D2EA      04082        7240          CLI   C6OP,XX40                 IS INSTR RR                    70260021
 004B36 4740 F07E      04B7E        7241        BC    LO,S6808                     YES                           70270021
 004B3A D200 D79E D31D 04536 040B5  7242          MVC   OU6B1(LX1),C6WRK6    B1 TO PRINT                         70280021
 004B40 D202 D314 D2EE 040AC 04086  7243          MVC   C6WRK0(LX3),C6D1S    WORD FOR CONVERSION                 70290021
 004B46 58F0 C474      03B04        7244        L     R15,AS6010                                                 70300021
 004B4A 05EF                        7245        BALR  RS1,R15            CONVERT HEX TO DEC                      70310021
 004B4C 58F0 C464      03AF4        7246        L     R15,AS6800                                                 70320021
 004B50 D202 D7A0 D319 04538 040B1  7247          MVC   OU6D1(LX3),C6WRK2    PRINT D1                            70330021
 004B56 95C0 D2EA      04082        7248          CLI   C6OP,XXC0                 IS INSTR SS                    70340021
 004B5A 4740 F0D6      04BD6        7249        BC    LO,S6820                     NO                            70350021
 004B5E D200 D7A4 D31D 0453C 040B5  7250          MVC   OU6B2(LX1),C6WRK6    PRINT B2                            70360021
 004B64 D201 D314 D2F2 040AC 0408A  7251          MVC   C6WRK0(LX2),C6D2S    WORD FOR CONVERSION                 70370021
 004B6A 58F0 C474      03B04        7252        L     R15,AS6010                                                 70380021
 004B6E 05EF                        7253        BALR  RS1,R15            CONVERT HEX TO DEC                      70390021
 004B70 58F0 C464      03AF4        7254        L     R15,AS6800                                                 70400021
 004B74 D202 D7A6 D319 0453E 040B1  7255          MVC   OU6D2(LX3),C6WRK2    PRINT D2                            70410021
 004B7A 47F0 F244      04D44        7256        BC    UNCOND,S6870               TO PROCESS SS                   70420021
 004B7E 4360 D2EB      04083        7257 S6808  IC    RW1,C6RS                   R1                              70430021
 004B82 950A D2EA      04082        7258          CLI   C6OP,XX0A                 IS SVC                         70440021
 004B86 4770 F09E      04B9E        7259        BC    NOTEQ,S6810                  NO                            70450021
 004B8A 58F0 C468      03AF8        7260        L     R15,AS6200                                                 70460021
 004B8E 05EF                        7261        BALR  RS1,R15            CONVERT I TO DEC VALUE                  70470021
 004B90 D200 5000 D31B 00000 040B3  7262          MVC   DX0(LX1,RW3),C6WRK4   EXECUTED BY S6200                  70480021
 004B96 58F0 C464      03AF4        7263        L     R15,AS6800                                                 70490021
 004B9A 47F0 F302      04E02        7264        BC    UNCOND,S6920          CONVERT TO BCD                       70500021
 004B9E 58F0 C468      03AF8        7265 S6810  L     R15,AS6200        CONVERT R1 TO DEC VALUE                  70510021
                             04A5E  7266        USING S6200,R15                                                  70520021
 004BA2 45E0 F00C      04A6A        7267        BAL   RS1,S6260             CONVERT                              70530021
 004BA6 D200 5000 D31B 00000 040B3  7268          MVC   DX0(LX1,RW3),C6WRK4   EXECUTED BY S6200                  70540021
 004BAC 58F0 C464      03AF4        7269        L     R15,AS6800                                                 70550021
                             04B00  7270        USING S6800,R15                                                  70560021
 004BB0 9504 D2EA      04082        7271          CLI   C6OP,XX04                 IS SPM                         70570021
 004BB4 4780 F302      04E02        7272        BC    EQ,S6920                     YES                           70580021
 004BB8 926B 5001      00001        7273          MVI   DX1(RW3),COMMA                                           70590021
 004BBC 4360 D2EB      04083        7274        IC    RW1,C6RS                   R2                              70600021
 004BC0 58F0 C468      03AF8        7275        L     R15,AS6200                                                 70610021
                             04A5E  7276        USING S6200,R15                                                  70620021
 004BC4 45E0 F010      04A6E        7277        BAL   RS1,S6250         CONVERT R2 TO DEC VALUE                  70630021
1PH60     IKFCBL60                                                                                              PAGE  173
-  LOC  OBJECT CODE    ADDR1 ADDR2  STMT   SOURCE STATEMENT                                       ASM 0201 11.03 02/14/15
0004BC8 D200 5002 D31B 00002 040B3  7278          MVC   DX2(LX1,RW3),C6WRK4   EXECUTED BY S6200                  70640021
 004BCE 58F0 C464      03AF4        7279        L     R15,AS6800                                                 70650021
                             04B00  7280        USING S6800,R15                                                  70660021
 004BD2 47F0 F302      04E02        7281        BC    UNCOND,S6920          CONVERT TO BCD                       70670021
 004BD6 957F D2EA      04082        7282 S6820    CLI   C6OP,M7F            IS INSTR  RX                         70680021
 004BDA 4720 F13A      04C3A        7283        BC    HI,S6830                   NO                              70690021
 004BDE 4360 D2EB      04083        7284        IC    RW1,C6RS                   R1                              70700021
 004BE2 58F0 C468      03AF8        7285        L     R15,AS6200                                                 70710021
                             04A5E  7286        USING S6200,R15                                                  70720021
 004BE6 45E0 F00C      04A6A        7287        BAL   RS1,S6260         CONVERT R1 TO DEC VALUE                  70730021
 004BEA D200 5000 D31B 00000 040B3  7288          MVC   DX0(LX1,RW3),C6WRK4   EXECUTED BY S6200                  70740021
 004BF0 58F0 C464      03AF4        7289        L     R15,AS6800                                                 70750021
                             04B00  7290        USING S6800,R15                                                  70760021
 004BF4 926B 5001      00001        7291          MVI   DX1(RW3),COMMA       ,                                   70770021
 004BF8 D202 5002 D7A0 00002 04538  7292          MVC   DX2(LX3,RW3),OU6D1    D2                                 70780021
 004BFE 924D 5005      00005        7293          MVI   DX5(RW3),LFTPAREN    (                                   70790021
 004C02 4360 D2EB      04083        7294        IC    RW1,C6RS                   X2                              70800021
 004C06 58F0 C468      03AF8        7295        L     R15,AS6200                                                 70810021
                             04A5E  7296        USING S6200,R15                                                  70820021
 004C0A 45E0 F010      04A6E        7297        BAL   RS1,S6250         X2 TO DEC VALUE                          70830021
 004C0E D200 5006 D31B 00006 040B3  7298          MVC   DX6(LX1,RW3),C6WRK4   EXECUTED BY S6200                  70840021
 004C14 58F0 C464      03AF4        7299        L     R15,AS6800                                                 70850021
                             04B00  7300        USING S6800,R15                                                  70860021
 004C18 926B 5007      00007        7301          MVI   DX7(RW3),COMMA       ,                                   70870021
 004C1C 4360 D2EC      04084        7302        IC    RW1,C6B1S                  B2                              70880021
 004C20 58F0 C468      03AF8        7303        L     R15,AS6200        CONVERT B2 TO DEC VALUE                  70890021
                             04A5E  7304        USING S6200,R15                                                  70900021
 004C24 45E0 F010      04A6E        7305        BAL   RS1,S6250             CONVERT                              70910021
 004C28 D200 5008 D31B 00008 040B3  7306          MVC   DX8(LX1,RW3),C6WRK4   EXECUTED BY S6200                  70920021
 004C2E 58F0 C464      03AF4        7307        L     R15,AS6800                                                 70930021
                             04B00  7308        USING S6800,R15                                                  70940021
 004C32 925D 5009      00009        7309          MVI   DX9(RW3),RTPAREN     )                                   70950021
 004C36 47F0 F302      04E02        7310        BC    UNCOND,S6920          CONVERT TO BCD                       70960021
                                    7311 *                                                                       70970021
 004C3A 9586 D2EA      04082        7312 S6830    CLI   C6OP,XX86                 IS INSTR RS OR SI              70980021
 004C3E 4740 F1EE      04CEE        7313        BC    LO,S6860                     SI                            70990021
 004C42 9591 D2EA      04082        7314          CLI   C6OP,XX91                 RS OR SI                       71000021
 004C46 4740 F152      04C52        7315        BC    LO,S6840                   RS                              71010021
 004C4A 9598 D2EA      04082        7316          CLI   C6OP,XX98                 RS OR SI                       71020021
 004C4E 4770 F1EE      04CEE        7317        BC    NOTEQ,S6860                  SI                            71030021
 004C52 4360 D2EB      04083        7318 S6840  IC    RW1,C6RS                   R1                              71040021
                             04A5E  7319        USING S6200,R15                                                  71050021
 004C56 58F0 C468      03AF8        7320        L     R15,AS6200        CONVERT R1 TO DEC VALUE                  71060021
 004C5A 45E0 F00C      04A6A        7321        BAL   RS1,S6260             CONVERT                              71070021
 004C5E D200 5000 D31B 00000 040B3  7322          MVC   DX0(LX1,RW3),C6WRK4   EXECUTED BY S6200                  71080021
 004C64 58F0 C464      03AF4        7323        L     R15,AS6800                                                 71090021
                             04B00  7324        USING S6800,R15                                                  71100021
 004C68 926B 5001      00001        7325          MVI   DX1(RW3),COMMA       ,                                   71110021
 004C6C 9588 D2EA      04082        7326          CLI   C6OP,XX88                 IS BXH,BXLE,LM,STM             71120021
 004C70 4740 F1AC      04CAC        7327        BC    LO,S6850                     YES                           71130021
 004C74 9590 D2EA      04082        7328          CLI   C6OP,XX90                                                71140021
 004C78 4780 F1AC      04CAC        7329        BC    EQ,S6850                     YES                           71150021
 004C7C 9598 D2EA      04082        7330          CLI   C6OP,XX98                                                71160021
 004C80 4780 F1AC      04CAC        7331        BC    EQ,S6850                     YES                           71170021
 004C84 D202 5002 D7A0 00002 04538  7332          MVC   DX2(LX3,RW3),OU6D1    D2                                 71180021
1PH60     IKFCBL60                                                                                              PAGE  174
-  LOC  OBJECT CODE    ADDR1 ADDR2  STMT   SOURCE STATEMENT                                       ASM 0201 11.03 02/14/15
0004C8A 924D 5005      00005        7333          MVI   DX5(RW3),LFTPAREN    (                                   71190021
 004C8E 4360 D2EC      04084        7334        IC    RW1,C6B1S                  B2                              71200021
 004C92 58F0 C468      03AF8        7335        L     R15,AS6200        CONVERT B2 TO DEC                        71210021
                             04A5E  7336        USING S6200,R15                                                  71220021
 004C96 45E0 F010      04A6E        7337        BAL   RS1,S6250             CONVERT                              71230021
 004C9A D200 5006 D31B 00006 040B3  7338          MVC   DX6(LX1,RW3),C6WRK4   EXECUTED BY S6200                  71240021
 004CA0 58F0 C464      03AF4        7339        L     R15,AS6800                                                 71250021
                             04B00  7340        USING S6800,R15                                                  71260021
 004CA4 925D 5007      00007        7341          MVI   DX7(RW3),RTPAREN     )                                   71270021
 004CA8 47F0 F302      04E02        7342        BC    UNCOND,S6920          CONVERT TO BCD                       71280021
 004CAC 4360 D2EB      04083        7343 S6850  IC    RW1,C6RS                   R3                              71290021
 004CB0 58F0 C468      03AF8        7344        L     R15,AS6200        CONVERT TO DEC                           71300021
                             04A5E  7345        USING S6200,R15                                                  71310021
 004CB4 45E0 F010      04A6E        7346        BAL   RS1,S6250             CONVERT                              71320021
 004CB8 D200 5002 D31B 00002 040B3  7347          MVC   DX2(LX1,RW3),C6WRK4   EXECUTED BY S6200                  71330021
 004CBE 58F0 C464      03AF4        7348        L     R15,AS6800                                                 71340021
                             04B00  7349        USING S6800,R15                                                  71350021
 004CC2 926B 5003      00003        7350          MVI   DX3(RW3),COMMA       ,                                   71360021
 004CC6 D202 5004 D7A0 00004 04538  7351          MVC   DX4(LX3,RW3),OU6D1 D                                     71370021
 004CCC 924D 5007      00007        7352          MVI   DX7(RW3),LFTPAREN    (                                   71380021
 004CD0 4360 D2EC      04084        7353        IC    RW1,C6B1S                  B2                              71390021
 004CD4 58F0 C468      03AF8        7354        L     R15,AS6200        CONVERT TO DEC                           71400021
                             04A5E  7355        USING S6200,R15                                                  71410021
 004CD8 45E0 F010      04A6E        7356        BAL   RS1,S6250             CONVERT                              71420021
 004CDC D200 5008 D31B 00008 040B3  7357          MVC   DX8(LX1,RW3),C6WRK4   EXECUTED BY S6200                  71430021
 004CE2 58F0 C464      03AF4        7358        L     R15,AS6800                                                 71440021
                             04B00  7359        USING S6800,R15                                                  71450021
 004CE6 925D 5009      00009        7360          MVI   DX9(RW3),RTPAREN     )                                   71460021
 004CEA 47F0 F302      04E02        7361        BC    UNCOND,S6920          CONVERT TO BCD                       71470021
 004CEE D202 D7BA D7A0 04552 04538  7362 S6860    MVC   OU6OPD(LX3),OU6D1    SI INSTR-D1                         71480021
 004CF4 924D D7BD      04555        7363          MVI   OU6OPD+NX3,LFTPAREN  (                                   71490021
 004CF8 4360 D2EC      04084        7364        IC    RW1,C6B1S                  B1                              71500021
 004CFC 58F0 C468      03AF8        7365        L     R15,AS6200        CONVERT TO DEC                           71510021
                             04A5E  7366        USING S6200,R15                                                  71520021
 004D00 45E0 F010      04A6E        7367        BAL   RS1,S6250             CONVERT                              71530021
 004D04 D200 5004 D31B 00004 040B3  7368          MVC   DX4(LX1,RW3),C6WRK4   EXECUTED BY S6200                  71540021
 004D0A 58F0 C464      03AF4        7369        L     R15,AS6800                                                 71550021
                             04B00  7370        USING S6800,R15                                                  71560021
 004D0E 925D 5005      00005        7371          MVI   DX5(RW3),RTPAREN     )                                   71570021
 004D12 9584 D2EA      04082        7372          CLI   C6OP,XX84                 IMMEDIATE FIELD                71580021
 004D16 4740 F302      04E02        7373        BC    LO,S6920                     NO                            71590021
 004D1A 9597 D2EA      04082        7374          CLI   C6OP,XX97                                                71600021
 004D1E 4720 F302      04E02        7375        BC    HI,S6920                     NO                            71610021
 004D22 9593 D2EA      04082        7376          CLI   C6OP,XX93                                                71620021
 004D26 4780 F302      04E02        7377        BC    EQ,S6920         NO                                        71630021
 004D2A 926B 5006      00006        7378          MVI   DX6(RW3),COMMA       ,                                   71640021
 004D2E 92E7 5007      00007        7379          MVI   DX7(RW3),ECKS        X                                   71650021
 004D32 927D 5008      00008        7380          MVI   DX8(RW3),QUOTES1     "                                   71660021
 004D36 D201 5009 D79B 00009 04533  7381          MVC   DX9(LX2,RW3),OU6R1 I2                                    71670021
 004D3C 927D 500B      0000B        7382          MVI   DX11(RW3),QUOTES1    "                                   71680021
 004D40 47F0 F302      04E02        7383        BC    UNCOND,S6920          CONVERT TO BCD                       71690021
 004D44 D202 D7BA D7A0 04552 04538  7384 S6870    MVC   OU6OPD(LX3),OU6D1 SS INSTR-D1                            71700021
 004D4A 924D D7BD      04555        7385          MVI   OU6OPD+NX3,LFTPAREN  (                                   71710021
 004D4E 1B66                        7386        SR    RW1,RW1                    CLEAR REG                       71720021
 004D50 4360 D2EB      04083        7387        IC    RW1,C6RS                   L                               71730021
1PH60     IKFCBL60                                                                                              PAGE  175
-  LOC  OBJECT CODE    ADDR1 ADDR2  STMT   SOURCE STATEMENT                                       ASM 0201 11.03 02/14/15
0004D54 95F0 D2EA      04082        7388          CLI   C6OP,MF0             D OR F INSTR                        71740021
 004D58 4740 F260      04D60        7389        BC    LO,S6880                     D                             71750021
 004D5C 8860 0004      00004        7390          SRL   RW1,DX4                     F,DELETE L2                  71760021
 004D60 4A60 C06C      036FC        7391 S6880  AH    RW1,C61                    ADD 1 TO VALUE                  71770021
 004D64 58F0 C468      03AF8        7392        L     R15,AS6200                                                 71780021
                                    7393 *                                                                       71790021
                             04A5E  7394        USING S6200,R15                                                  71800021
 004D68 45E0 F004      04A62        7395        BAL   RS1,S6210    CONVERT L TO DECIMAL VALUE                    71810021
 004D6C D200 5004 D31B 00004 040B3  7396          MVC   DX4(LX1,RW3),C6WRK4   EXECUTED BY S6200                  71820021
 004D72 58F0 C464      03AF4        7397        L     R15,AS6800                                                 71830021
                             04B00  7398        USING S6800,R15                                                  71840021
 004D76 926B 5005      00005        7399          MVI   DX5(RW3),COMMA       ,                                   71850021
 004D7A 4360 D2EC      04084        7400        IC    RW1,C6B1S                  B1                              71860021
 004D7E 58F0 C468      03AF8        7401        L     R15,AS6200                                                 71870021
                             04A5E  7402        USING S6200,R15                                                  71880021
 004D82 45E0 F010      04A6E        7403        BAL   RS1,S6250         CONVERT B1 TO DEC VALUE                  71890021
 004D86 D200 5006 D31B 00006 040B3  7404          MVC   DX6(LX1,RW3),C6WRK4   EXECUTED BY S6200                  71900021
 004D8C 58F0 C464      03AF4        7405        L     R15,AS6800                                                 71910021
                             04B00  7406        USING S6800,R15                                                  71920021
 004D90 925D 5007      00007        7407          MVI   DX7(RW3),RTPAREN     )                                   71930021
 004D94 926B 5008      00008        7408          MVI   DX8(RW3),COMMA       ,                                   71940021
 004D98 D202 5009 D7A6 00009 0453E  7409          MVC   DX9(LX3,RW3),OU6D2 D2                                    71950021
 004D9E 924D 500C      0000C        7410          MVI   DX12(RW3),LFTPAREN   (                                   71960021
 004DA2 95DF D2EA      04082        7411          CLI   C6OP,XXDF                 D OR F INSTR                   71970021
 004DA6 4720 F2C8      04DC8        7412        BC    HI,S6910                     F                             71980021
 004DAA 4360 D2F0      04088        7413        IC    RW1,C6B2S                  B2                              71990021
 004DAE 58F0 C468      03AF8        7414        L     R15,AS6200                                                 72000021
                             04A5E  7415        USING S6200,R15                                                  72010021
 004DB2 45E0 F010      04A6E        7416        BAL   RS1,S6250         CONVERT B2 TO DEC VALUE                  72020021
 004DB6 D200 500D D31B 0000D 040B3  7417          MVC   DX13(LX1,RW3),C6WRK4  EXECUTED BY S6200                  72030021
 004DBC 58F0 C464      03AF4        7418        L     R15,AS6800                                                 72040021
                             04B00  7419        USING S6800,R15                                                  72050021
 004DC0 925D 500E      0000E        7420          MVI   DX14(RW3),RTPAREN    )                                   72060021
 004DC4 47F0 F302      04E02        7421        BC    UNCOND,S6920          CONVERT TO BCD                       72070021
 004DC8 4360 D2EB      04083        7422 S6910  IC    RW1,C6RS                   L                               72080021
 004DCC 5460 C004      03694        7423        N     RW1,C6M2                   CLEAR ALL BUT L2                72090021
 004DD0 4A60 C06C      036FC        7424        AH    RW1,C61                    ADD 1 TO VALUE                  72100021
 004DD4 58F0 C468      03AF8        7425        L     R15,AS6200        CONVERT L  TO DEC VALUE                  72110021
 004DD8 05EF                        7426        BALR  RS1,R15               CONVERT                              72120021
 004DDA D200 500D D31B 0000D 040B3  7427          MVC   DX13(LX1,RW3),C6WRK4  EXECUTED BY S6200                  72130021
 004DE0 58F0 C464      03AF4        7428        L     R15,AS6800                                                 72140021
 004DE4 926B 500E      0000E        7429          MVI   DX14(RW3),COMMA      ,                                   72150021
 004DE8 4360 D2F0      04088        7430        IC    RW1,C6B2S                  B2                              72160021
 004DEC 58F0 C468      03AF8        7431        L     R15,AS6200                                                 72170021
                             04A5E  7432        USING S6200,R15                                                  72180021
 004DF0 45E0 F010      04A6E        7433        BAL   RS1,S6250         CONVERT B1 TO DEC VALUE                  72190021
 004DF4 D200 500F D31B 0000F 040B3  7434          MVC   DX15(LX1,RW3),C6WRK4  EXECUTED BY S6200                  72200021
 004DFA 58F0 C464      03AF4        7435        L     R15,AS6800                                                 72210021
                             04B00  7436        USING S6800,R15                                                  72220021
 004DFE 925D 5010      00010        7437          MVI   DX16(RW3),RTPAREN    )                                   72230021
 004E02 D203 D314 9148 040AC 00148  7438 S6920    MVC   C6WRK0(LX4),LOCCTR   LOC CTR                             72240021
 004E08 58F0 C474      03B04        7439        L     R15,AS6010        CONVERT HEX TO BCD                       72250021
 004E0C 05EF                        7440        BALR  RS1,R15               CONVERT                              72260021
 004E0E 58F0 C464      03AF4        7441        L     R15,AS6800                                                 72270021
 004E12 D205 D790 D31A 04528 040B2  7442          MVC   OU6LC(LX6),C6WRK3    TO PRINT                            72280021
1PH60     IKFCBL60                                                                                              PAGE  176
-  LOC  OBJECT CODE    ADDR1 ADDR2  STMT   SOURCE STATEMENT                                       ASM 0201 11.03 02/14/15
0004E18 1B66                        7443        SR    RW1,RW1                    CLEAR REGISTER                  72290021
 004E1A 4360 D2EA      04082        7444        IC    RW1,C6OP                   OP VALUE                        72300021
 004E1E 95CF D2EA      04082        7445          CLI   C6OP,XXCF                IS OP D OR F                    72310021
 004E22 47D0 F336      04E36        7446        BC    NOTHI,S6930                  NO                            72320021
 004E26 4B60 C07E      0370E        7447        SH    RW1,C630                   REDUCE 3                        72330021
 004E2A 95EF D2EA      04082        7448          CLI   C6OP,XXEF                 IS F                           72340021
 004E2E 47D0 F336      04E36        7449        BC    NOTHI,S6930                  NO                            72350021
 004E32 4B60 C07C      0370C        7450        SH    RW1,C610                     YES,REDUCE 1                  72360021
 004E36 4C60 C072      03702        7451 S6930  MH    RW1,C64                    COMPUTE REL POS IN MNEMONIC     72370021
 004E3A 5A60 C4D8      03B68        7452        A     RW1,AMNEUT       ADD S      ADD START OF MNEMONIC TABL     72380021
 004E3E D203 D7B4 6000 0454C 00000  7453          MVC   OU6OPN(LX4),DX0(RW1)  MNEMONIC CODE TO LISTING           72390021
                                    7454 *                                                                       72400021
                                    7455 *      PROCESS SYMBOLIC OPERANDS                                        72410021
 004E44 9540 D374      0410C        7456          CLI   SB1D1C,BLANK                                             72420021
 004E48 4780 F3BA      04EBA        7457        BC    EQ,NOSYM1   NO SYMBOLIC OPERAND                            72430021
                                    7458 *      SYMBOLIC OPERAND FOR BASE1-DISP1                                 72440021
 004E4C D203 D7D0 D374 04568 0410C  7459          MVC   OU6SO1(LX4),SB1D1C                                       72450021
 004E52 4150 D7D4      0456C        7460          LA    RW3,OU6SO1+NX4                                           72460021
 004E56 5860 D378      04110        7461        L       RW1,SB1D1N                                               72470021
 004E5A D502 D374 F540 0410C 05040  7462          CLC   SB1D1C(LX3),XDNCS   TEST IF SOURCE DATA NAME             72480021
 004E60 4780 F4CA      04FCA        7463        BC      EQ,DNSYM1           YES DATA NAME                        72490021
                                    7464 *                                                                       72500021
 004E64 D503 D374 F543 0410C 05043  7465        CLC   SB1D1C,XSAV2                                               72510021
 004E6A 4780 F38A      04E8A        7466        BC    EQ,CKPLU1             THIS IS SAV2 ELT                     72520021
 004E6E D503 D374 F547 0410C 05047  7467        CLC   SB1D1C,XSAV3                                               72530021
 004E74 4780 F38A      04E8A        7468        BC    EQ,CKPLU1             THIS IS SAV3 ELT                     72540021
                             04A5E  7469        USING S6200,R15                                                  72550021
 004E78 58F0 C468      03AF8        7470        L     R15,AS6200                                                 72560021
 004E7C 45E0 F004      04A62        7471        BAL   RS1,S6210             CONVERT                              72570021
 004E80 D200 5000 D31B 00000 040B3  7472          MVC   DX0(LX0,RW3),C6WRK4   EXECUTED BY S6200                  72580021
                             04B00  7473        USING S6800,R15                                                  72590021
 004E86 58F0 C464      03AF4        7474        L     R15,AS6800                                                 72600021
 004E8A D503 D37C C058 04114 036E8  7475 CKPLU1   CLC   SB1D1P(LX4),C6F0                                         72610021
 004E90 4780 F3BA      04EBA        7476        BC      EQ,NOPLU1           DON'T NEED PLUS                      72620021
 004E94 924E 5001      00001        7477          MVI   DX1(RW3),PLUSSIGN    PLUS                                72630021
 004E98 5860 D37C      04114        7478        L       RW1,SB1D1P                                               72640021
 004E9C 1266                        7479        LTR   RW1,RW1        TEST IF NEGATIVE                            72650021
 004E9E 47B0 F3A8      04EA8        7480        BC    NOTNEG,NONEG1         NO IT ISN'T NEG                      72660021
 004EA2 1366                        7481        LCR   RW1,RW1          RECOMPLEMENT                              72670021
 004EA4 9260 5001      00001        7482          MVI   DX1(RW3),MINUSIGN    NOTE THAT IT WAS MINUS              72680021
 004EA8                             7483 NONEG1 DS    0H                                                         72690021
 004EA8 58F0 C468      03AF8        7484        L     R15,AS6200                                                 72700021
                             04A5E  7485        USING S6200,R15                                                  72710021
 004EAC 45E0 F004      04A62        7486        BAL   RS1,S6210             CONVERT                              72720021
 004EB0 D200 5002 D31B 00002 040B3  7487          MVC   DX2(LX0,RW3),C6WRK4   EXECUTED BY S6200                  72730021
                             04B00  7488        USING S6800,R15                                                  72740021
 004EB6 58F0 C464      03AF4        7489        L     R15,AS6800                                                 72750021
 004EBA                             7490 NOPLU1 DS      0H                                                       72760021
 004EBA                             7491 NOSYM1 DS      0H                                                       72770021
 004EBA 9540 D380      04118        7492          CLI   SB2D2C,BLANK                                             72780021
 004EBE 4780 F430      04F30        7493        BC    EQ,NOSYM2   NO SYMBOLIC OPERAND                            72790021
                                    7494 *      SYMBOLIC OPERAND FOR  BASE2-DISP2                                72800021
 004EC2 4150 D7E4      0457C        7495          LA    RW3,OU6SO2+NX4                                           72810021
 004EC6 5860 D384      0411C        7496        L       RW1,SB2D2N                                               72820021
 004ECA D203 D7E0 D380 04578 04118  7497          MVC   OU6SO2(LX4),SB2D2C                                       72830021
1PH60     IKFCBL60                                                                                              PAGE  177
-  LOC  OBJECT CODE    ADDR1 ADDR2  STMT   SOURCE STATEMENT                                       ASM 0201 11.03 02/14/15
0004ED0 D502 D380 F540 04118 05040  7498          CLC   SB2D2C(LX3),XDNCS   TEST IF SOURCE DATA NAME             72840021
 004ED6 4780 F502      05002        7499        BC      EQ,DNSYM2           YES                                  72850021
 004EDA D503 D380 F543 04118 05043  7500        CLC   SB2D2C,XSAV2                                               72860021
 004EE0 4780 F400      04F00        7501        BC    EQ,CKPLU2             YES SAV2                             72870021
 004EE4 D503 D380 F547 04118 05047  7502        CLC   SB2D2C,XSAV3                                               72880021
 004EEA 4780 F400      04F00        7503        BC    EQ,CKPLU2             YES SAV3                             72890021
 004EEE 58F0 C468      03AF8        7504        L     R15,AS6200                                                 72900021
                             04A5E  7505        USING S6200,R15                                                  72910021
 004EF2 45E0 F004      04A62        7506        BAL   RS1,S6210             CONVERT                              72920021
 004EF6 D200 5000 D31B 00000 040B3  7507          MVC   DX0(LX0,RW3),C6WRK4   EXECUTED BY S6200                  72930021
                             04B00  7508        USING S6800,R15                                                  72940021
 004EFC 58F0 C464      03AF4        7509        L     R15,AS6800                                                 72950021
 004F00 D503 D388 C058 04120 036E8  7510 CKPLU2   CLC   SB2D2P(LX4),C6F0                                         72960021
 004F06 4780 F430      04F30        7511        BC      EQ,NOPLU2           DON'T NEED PLUS                      72970021
 004F0A 924E 5001      00001        7512          MVI   DX1(RW3),PLUSSIGN    PLUS                                72980021
 004F0E 5860 D388      04120        7513        L       RW1,SB2D2P                                               72990021
 004F12 1266                        7514        LTR   RW1,RW1          TEST IF NEGATIVE AND ACT ON IT AS ABO     73000021
 004F14 47B0 F41E      04F1E        7515        BC    NOTNEG,NONEG2         IT ISN'T NEG                         73010021
 004F18 1366                        7516        LCR   RW1,RW1                                                    73020021
 004F1A 9260 5001      00001        7517          MVI   DX1(RW3),MINUSIGN    MINUS                               73030021
 004F1E                             7518 NONEG2 DS    0H                                                         73040021
 004F1E 58F0 C468      03AF8        7519        L     R15,AS6200                                                 73050021
                             04A5E  7520        USING S6200,R15                                                  73060021
 004F22 45E0 F004      04A62        7521        BAL   RS1,S6210             CONVERT                              73070021
 004F26 D200 5002 D31B 00002 040B3  7522          MVC   DX2(LX0,RW3),C6WRK4   EXECUTED BY S6200                  73080021
                             04B00  7523        USING S6800,R15                                                  73090021
 004F2C 58F0 C464      03AF4        7524        L     R15,AS6800                                                 73100021
 004F30                             7525 NOPLU2 DS      0H                                                       73110021
 004F30                             7526 NOSYM2 DS      0H                                                       73120021
 004F30 D217 D374 C338 0410C 039C8  7527          MVC   SB1D1C(LX24),SBDINI   REINITIALIZE  SYMBOLIC OPS         73130021
 004F36 58F0 C460      03AF0        7528        L     R15,APUT          PRINT                                    73140021
 004F3A 05EF                        7529        BALR  RS1,R15               PRINT A LINE                         73150021
 004F3C 58F0 C464      03AF4        7530        L     R15,AS6800                                                 73160021
                                    7531 *                                                                       73170021
                                    7532 *                                                                       73180021
                                    7533 *                                                                       73190021
                                    7534 *  CONTINUE HERE WHEN NOLIST MODE                                       73200021
                                    7535 *                                                                       73210021
                                    7536 *                                                                       73220021
                                    7537 *=L                                                                     73230021
 004F40                             7538 S6931  DS    0H                                                         73240021
 004F40 9505 D2EA      04082        7539          CLI   C6OP,XX05      KILL REG STATUS ON ANY BALR               73250021
 004F44 4770 F45C      04F5C        7540        BC    NOTEQ,S69315          NOT 'BALR'                           73260021
 004F48 910F D2EB      04083        7541          TM    C6RS,REG15                                               73270021
 004F4C 4780 F45C      04F5C        7542        BC    ZERO,S69315           NOT R15                              73280021
 004F50 D701 D28E D28E 04026 04026  7543          XC    CELL14(LX2),CELL14   SET 14 DESTROYED                    73290021
 004F56 D701 D292 D292 0402A 0402A  7544        XC    CELL15,CELL15                                              73300021
                             04F5C  7545 S69315 EQU   *                                                          73310021
 004F5C 4110 F53A      0503A        7546        LA    R1,TXTFLD                                                  73320021
 004F60 4100 0002      00002        7547          LA    R0,TWOBYTE                                               73330021
 004F64 D201 F53A D2EA 0503A 04082  7548          MVC   TXTFLD(LX2),C6OP OP AND REGS                             73340021
 004F6A 9540 D2EA      04082        7549          CLI   C6OP,XX40                                                73350021
 004F6E 4740 F4AA      04FAA        7550        BC    LO,S6932       RR TYPE                                     73360021
 004F72 4100 0004      00004        7551          LA    R0,FOURBYTE                                              73370021
 004F76 D201 F53C D2EE 0503C 04086  7552          MVC   TXTFLD2(LX2),C6D1S  DISP TO PUNCH FIELD                  73380021
1PH60     IKFCBL60                                                                                              PAGE  178
-  LOC  OBJECT CODE    ADDR1 ADDR2  STMT   SOURCE STATEMENT                                       ASM 0201 11.03 02/14/15
0004F7C 1B66                        7553        SR    RW1,RW1                                                    73390021
 004F7E 4360 D2EC      04084        7554        IC    RW1,C6B1S                                                  73400021
 004F82 8960 0004      00004        7555          SLL   RW1,DX4                                                  73410021
 004F86 4460 F4B8      04FB8        7556        EX    RW1,OIEX1      BASE TO HIGH 4 BITS                         73420021
 004F8A 95C0 D2EA      04082        7557          CLI   C6OP,XXC0                                                73430021
 004F8E 4740 F4AA      04FAA        7558        BC    LO,S6932       RX,RS,SI                                    73440021
 004F92 4100 0006      00006        7559          LA    R0,SIXBYTES         SS                                   73450021
 004F96 D201 F53E D2F2 0503E 0408A  7560          MVC   TXTFLD3(LX2),C6D2S                                       73460021
 004F9C 1B66                        7561        SR    RW1,RW1                                                    73470021
 004F9E 4360 D2F0      04088        7562        IC    RW1,C6B2S                                                  73480021
 004FA2 8960 0004      00004        7563          SLL   RW1,DX4                                                  73490021
 004FA6 4460 F4BC      04FBC        7564        EX    RW1,OIEX2                                                  73500021
                             04FAA  7565 S6932  EQU   *                                                          73510021
 004FAA 58F0 C46C      03AFC        7566        L     R15,ATXPNH        PUNCH INSTR AND UP LOCCTR ACCORDINGL     73520021
 004FAE 05EF                        7567        BALR  RS1,R15               PUNCH TEXT                           73530021
 004FB0 58F0 C464      03AF4        7568        L     R15,AS6800                                                 73540021
 004FB4 47F0 F4C0      04FC0        7569        BC    UNCOND,S6942          SKIP 'OR'ING                         73550021
 004FB8 9600 F53C      0503C        7570 OIEX1    OI    TXTFLD2,XX00                                             73560021
 004FBC 9600 F53E      0503E        7571 OIEX2    OI    TXTFLD3,XX00                                             73570021
                             04FC0  7572 S6942  EQU   *                                                          73580021
 004FC0 9200 D2EA      04082        7573          MVI   C6OP,NOPOPCD        SET LISTING DONE FOR THIS LINE       73590021
 004FC4 980F F54C      0504C        7574        LM    R0,R15,V6800                                               73600021
 004FC8 07FE                        7575          BCR   UNCOND,RS1          RETURN                               73610021
                                    7576 *=L    CODING FROM HERE TO NEXT *=L CARD OUT IF NOLIST MODE             73620021
                                    7577 *                       BITS 2          13           9                  73630021
                                    7578 *      FORMAT DICT PTR  // NOT-USED   SECT-NO   DISP-IN-SECT //         73640021
                                    7579 *      FORMAT OUTPUT    DNM=SECTNO-DISP                                 73650021
 004FCA                             7580 DNSYM1 DS      0H                                                       73660021
 004FCA 8860 0009      00009        7581          SRL   RW1,DX9                                                  73670021
 004FCE 5460 C030      036C0        7582        N       RW1,C6M13    GET SECT-NO                                 73680021
 004FD2 58F0 C468      03AF8        7583        L     R15,AS6200                           ** NO REFS TO THI     73690021
                             04A5E  7584        USING S6200,R15                            ** SUBROUTINE         73700021
 004FD6 45E0 F004      04A62        7585        BAL   RS1,S6210     CONVERT AND MOVE       ** UNTIL RELOAD       73710021
 004FDA D200 5000 D31B 00000 040B3  7586          MVC   DX0(LX0,RW3),C6WRK4                  ** REG 15           73720021
 004FE0 9260 5001      00001        7587          MVI   DX1(RW3),MINUSIGN   INSERT HYPHEN                        73730021
 004FE4 5860 D378      04110        7588        L       RW1,SB1D1N                          **                   73740021
 004FE8 5460 C02C      036BC        7589        N       RW1,C6M9     GET DISP               **                   73750021
 004FEC 45E0 F004      04A62        7590        BAL   RS1,S6210     CONVERT AND  MOVE      **                    73760021
 004FF0 D200 5002 D31B 00002 040B3  7591          MVC   DX2(LX0,RW3),C6WRK4                  **                  73770021
                             04B00  7592        USING S6800,R15                            **                    73780021
 004FF6 58F0 C464      03AF4        7593        L     R15,AS6800                         **                      73790021
 004FFA 4155 0002      00002        7594          LA    RW3,DX2(RW3)                                             73800021
 004FFE 47F0 F38A      04E8A        7595        BC    UNCOND,CKPLU1         GO CHECK IF NEED PLUS                73810021
                                    7596 *                                                                       73820021
                                    7597 *      SEE FORMAT ABOVE FOR OP2                                         73830021
                                    7598 *                                                                       73840021
 005002                             7599 DNSYM2 DS      0H                                                       73850021
 005002 8860 0009      00009        7600          SRL   RW1,DX9       GET SECT-NO                                73860021
 005006 5460 C030      036C0        7601        N       RW1,C6M13                                                73870021
 00500A 58F0 C468      03AF8        7602        L     R15,AS6200                                                 73880021
                             04A5E  7603        USING S6200,R15                            ** NO REFS TO THI     73890021
 00500E 45E0 F004      04A62        7604        BAL   RS1,S6210     CONVERT AND MOVE       ** ROUTINE UNTIL      73900021
 005012 D200 5000 D31B 00000 040B3  7605          MVC   DX0(LX0,RW3),C6WRK4                  ** REG 15 IS        73910021
 005018 9260 5001      00001        7606          MVI   DX1(RW3),MINUSIGN   INSERT HYPHEN       **RELOADED       73920021
 00501C 5860 D384      0411C        7607        L       RW1,SB2D2N                          **                   73930021
1PH60     IKFCBL60                                                                                              PAGE  179
-  LOC  OBJECT CODE    ADDR1 ADDR2  STMT   SOURCE STATEMENT                                       ASM 0201 11.03 02/14/15
0005020 5460 C02C      036BC        7608        N       RW1,C6M9           GET DISP        **                    73940021
 005024 45E0 F004      04A62        7609        BAL   RS1,S6210     CONVERT AND MOVE       **                    73950021
 005028 D200 5002 D31B 00002 040B3  7610          MVC   DX2(LX0,RW3),C6WRK4                  **                  73960021
                             04B00  7611        USING S6800,R15                            **                    73970021
 00502E 58F0 C464      03AF4        7612        L     R15,AS6800                           **                    73980021
 005032 4155 0002      00002        7613          LA    RW3,DX2(RW3)                                             73990021
 005036 47F0 F400      04F00        7614        BC      UNCOND,CKPLU2       GO CHECK IF NEED PLUS                74000021
 00503A                             7615 TXTFLD   DS    0CL6                                                     74010021
 00503A 0000                        7616 TXTFLD1  DC    2X'00'              DISPLACEMENT                         74020021
 00503C 0000                        7617 TXTFLD2  DC    2X'00'              +2   TO                              74030021
 00503E 0000                        7618 TXTFLD3  DC    2X'00'              +4   PUNCH                           74040021
                                    7619 *=L    (PREVIOUS CODING NEVER CALLED IF NOLIST)                         74050021
 005040 C4D5D4                      7620 XDNCS  DC      C'DNM'                                                   74060021
 005043 E2C1E5F2                    7621 XSAV2  DC    C'SAV2'                                                    74070021
 005047 E2C1E5F3                    7622 XSAV3  DC    C'SAV3'                                                    74080021
 00504C                             7623 V6800  DS    16F                                                        74090021
                                    7624        DROP  R15                                                        74100021
1PH60     IKFCBL60                                                                                              PAGE  180
-  LOC  OBJECT CODE    ADDR1 ADDR2  STMT   SOURCE STATEMENT                                       ASM 0201 11.03 02/14/15
0                                   7626 *                                                                       74120021
                                    7627 *=1      GET---DEBLOCKING ROUTINE                                       74130021
                                    7628 *=                        FOR PROCEDURE A-TEXT                          74140021
                                    7629 *                                                                       74150021
                                    7630 *                                                                       74160021
                                    7631 *                                                                       74170021
                                    7632 *        RETURN    EOF-TO ADDR IN EOFADR CELL                           74180021
                                    7633 *                  NORMAL-INPUTR CONTAINS ADDR OF LOGICAL RCD           74190021
                                    7634 *                                                                       74200021
                                    7635 *                                                                       74210021
 00508C                             7636        DS    0H                                                         74220021
                             0508C  7637        USING *,R15                                                      74230021
                             0508C  7638 GET      EQU   *                                                        74240021
 00508C 900F D07C      03E14        7639        STM   R0,R15,SVREG                                               74250021
 005090 5860 D158      03EF0        7640        L     RW1,EOFADR                                                 74260021
 005094 9500 D3DB      04173        7641          CLI   FGET,FGETNEW        NEED NEW BLOCK                       74270021
 005098 4770 F064      050F0        7642          BC    NOTEQ,GET010        DON'T NEED NEW BLOCK                 74280021
 00509C 92FF D3DB      04173        7643          MVI   FGET,FGETNOT        DON'T NEED NEW BLOCK                 74290021
 0050A0 1819                        7644 GET020 LR    R1,RB2                                                     74300021
 0050A2 91FF D56C      04304        7645          TM    TESTSW,TSTDUM       ASSEMBLED INPUT                      74310021
 0050A6 4780 F026      050B2        7646        BC    ZERO,GET040             NO                                 74320021
 0050AA 5840 C470      03B00        7647        L     INPUTR,ADTEST                                              74330021
 0050AE 47F0 F034      050C0        7648          BC    UNCOND,GET030       CONTINUE, INPUT NOT ASSEMBLED        74340021
                             050B2  7649 GET040 EQU   *                                                          74350021
 0050B2 0509                        7650        BALR  R0,RB2                BR TO PH0                            74360021
 0050B4 01                          7651        DC    X'01'                 READ PROC. A - TEXT                  74370021
                                    7652 *                                                                       74380021
                                    7653 *                                                                       74390021
 0050B5 00
 0050B6 0786                        7654        BCR   ZERO,RW1         CC=0 1F EOF                               74400021
 0050B8 1840                        7655        LR    INPUTR,R0                                                  74410021
 0050BA 95FF 4000      00000        7656          CLI   DX0(INPUTR),ALLON                                        74420021
 0050BE 0786                        7657        BCR   EQ,RW1        1F START OF BLOCK FF-SHOULD BE EOF           74430021
                             050C0  7658 GET030 EQU   *                                                          74440021
 0050C0 5040 F060      050EC        7659        ST    INPUTR,GETRET                                              74450021
 0050C4 1B66                        7660        SR    RW1,RW1                                                    74460021
                                    7661 *      GET ELEMENT TYPE TO TRANSLATE INTO WORKABLE CODES                74470021
                                    7662 *      AND PICK UP LENGTH OF ELT                                        74480021
 0050C6 4364 0000      00000        7663          IC    RW1,DX0(INPUTR)                                          74490021
 0050CA 8860 0002      00002        7664          SRL   RW1,DX2                                                  74500021
 0050CE 4260 D308      040A0        7665        STC   RW1,GOTCOD                                                 74510021
 0050D2 4366 F083      0510F        7666          IC    RW1,LTBL-NX11(RW1)                                       74520021
 0050D6 4060 D070      03E08        7667        STH   RW1,GETLEN                                                 74530021
 0050DA DC00 D308 F0A7 040A0 05133  7668          TR    GOTCOD(LX1),GETRAN-NX11                                  74540021
 0050E0 980F D07C      03E14        7669        LM    R0,R15,SVREG                                               74550021
 0050E4 5840 F060      050EC        7670        L     INPUTR,GETRET                                              74560021
 0050E8 07FE                        7671          BCR   UNCOND,RS1          RETURN                               74570021
1PH60     IKFCBL60                                                                                              PAGE  181
-  LOC  OBJECT CODE    ADDR1 ADDR2  STMT   SOURCE STATEMENT                                       ASM 0201 11.03 02/14/15
00050EA 0000
 0050EC 00000000                    7673 GETRET   DC    A(0)                                                     74590021
                                    7674 *                                                                       74600021
                                    7675 *                                                                       74610021
                                    7676 *        GET NEXT LOGICAL RECORD                                        74620021
                                    7677 *                                                                       74630021
 0050F0 4A40 D070      03E08        7678 GET010 AH    INPUTR,GETLEN    ADD LENGTH OF PREVIOUS LOGICAL RCD        74640021
 0050F4 91FF D56C      04304        7679          TM    TESTSW,TSTDUM       ASSEMBLED INPUT                      74650021
 0050F8 4780 F076      05102        7680        BC    ZERO,GET060            NO                                  74660021
 0050FC 9500 4000      00000        7681          CLI   DX0(INPUTR),INITOFF                                      74670021
 005100 0786                        7682        BCR   EQ,RW1          END OF ASSEMBLED INPUT                     74680021
                             05102  7683 GET060 EQU   *                                                          74690021
 005102 95FF 4000      00000        7684          CLI   DX0(INPUTR),ALLON                                        74700021
 005106 4780 F082      0510E        7685        BC    EQ,GET070             END OF TEXT                          74710021
 00510A 47F0 F034      050C0        7686          BC    UNCOND,GET030       GET NEXT BLOCK CONTINUED             74720021
 00510E 95FF 91D0      001D0        7687 GET070   CLI   SEGLMT,NOTSEGTD     IS PROGRAM SEGMENTED                 74730021
 005112 4780 F014      050A0        7688          BC    EQ,GET020           BR, PROGRAM NOT SEGMENTED            74740021
 005116 47F0 F026      050B2        7689        B     GET040                BR,PROGRAM IS SEGMENTED              74750021
                             0511A  7690 LTBL   EQU   *                LENGTHS OF F3 ELEMENTS                    74760021
 00511A 03                          7691        DC    FL1'3'      2C   CRDNO                                     74770021
 00511B 04                          7692        DC    FL1'4'      30  PNDEF                                      74780021
 00511C 03                          7693        DC    FL1'3'      34   GNDEF                                     74790021
 00511D 04                          7694        DC    FL1'4'      38   VNDEF                                     74800021
 00511E 01                          7695        DC    FL1'1'      3C   PNBCD                                     74810021
 00511F 03                          7696        DC    FL1'3'      40   RPDEF                                     74820021
 005120 02                          7697        DC    FL1'2'      44   MACRO                                     74830021
 005121 03                          7698        DC    FL1'3'      48   OP                                        74840021
 005122 04                          7699        DC    FL1'4'      4C   PNREF                                     74850021
 005123 03                          7700        DC    FL1'3'      50   GNREF                                     74860021
 005124 04                          7701        DC    FL1'4'      54   VNREF                                     74870021
 005125 03                          7702        DC    FL1'3'      58   VIRREF                                    74880021
 005126 03                          7703        DC    FL1'3'      5C   BLREF                                     74890021
 005127 03                          7704        DC    FL1'3'      60   GTREF1                                    74900021
 005128 04                          7705        DC    FL1'4'      64   GTREF2                                    74910021
 005129 03                          7706          DC    FL1'3'        68  LTLREF                            LITS 74920021
 00512A 02                          7707        DC    FL1'2'      6C   DCDEF                                     74930021
 00512B 03                          7708        DC    FL1'3'      70   BDISP                                     74940021
 00512C 03                          7709        DC    FL1'3'      74   RPDREF                                    74950021
 00512D 07                          7710        DC    FL1'7'      78   ADR                                       74960021
 00512E 02                          7711        DC    FL1'2'      7C   BCDREF                                    74970021
 00512F 04                          7712        DC    FL1'4'      80   PLUS                                      74980021
 005130 05                          7713        DC    FL1'5'      84   RELADR                                    74990021
 005131 02                          7714        DC    FL1'2'      88   SPECIAL PHASE 6 ELT                       75000021
 005132 02                          7715        DC    FL1'2'      8C      -      -   -  -                        75010021
 005133 04                          7716        DC    FL1'4'      90                                             75020021
 005134 04                          7717        DC    FL1'4'      94      -      -   -  -                        75030021
 005135 01                          7718        DC    FL1'1'      98   RPDBCD                                    75040021
 005136 01                          7719        DC    FL1'1'      9C   SPECIAL PHASE 6 ELT                       75050021
 005137 02                          7720        DC    FL1'2'      A0   REGISTER NUMBER                           75060021
 005138 0A                          7721        DC    FL1'10'     A4   ADR FOLLOWED BY PLUS                      75070021
 005139 01                          7722        DC    FL1'1'      A8   SPECIAL PHASE 6 ELT                       75080021
 00513A 01                          7723        DC    FL1'1'      AC   SPECIAL PHASE 6 ELT                       75090021
 00513B 05                          7724        DC    FL1'5'      B0   CALLING SEQ DISPL ELT                     75100021
 00513C 04                          7725        DC    FL1'4'      B4   CALLING SEQ DICT PTR                      75110021
 00513D 04                          7726        DC    FL1'4'                B8  F&LE -EF ELEMENT                 75120021
1PH60     IKFCBL60                                                                                              PAGE  182
-  LOC  OBJECT CODE    ADDR1 ADDR2  STMT   SOURCE STATEMENT                                       ASM 0201 11.03 02/14/15
0                                   7727 *                                                                       75130021
                             0513E  7728 GETRAN EQU   *           INPUT CODE TRANSLATE TABLE                     75140021
                                    7729 *                         00-5C         OPERAND ELTS                    75150021
                                    7730 *                        E0-FC     ILLEGAL EXCEPT WHEN TESTED FOR       75160021
                                    7731 *                        60        OP CODE                              75170021
                                    7732 *                        64-88     ELTS NOT ASSOCIATED TO OPS           75180021
 00513E 84                          7733        DC    X'84'  2C                                                  75190021
 00513F 64                          7734        DC    X'64'  30                                                  75200021
 005140 68                          7735        DC    X'68'  34                                                  75210021
 005141 6C                          7736        DC    X'6C'  38                                                  75220021
 005142 70                          7737        DC    X'70'  3C                                                  75230021
 005143 7C                          7738        DC    X'7C'  40                                                  75240021
 005144 80                          7739        DC    X'80'  44                                                  75250021
 005145 60                          7740        DC    X'60'  48        OP-IN BETWEEN 2 GROUPS                    75260021
 005146 28                          7741        DC    X'28'  4C                                                  75270021
 005147 2C                          7742        DC    X'2C'  50                                                  75280021
 005148 30                          7743        DC    X'30'  54                                                  75290021
 005149 34                          7744        DC    X'34'  58                                                  75300021
 00514A 38                          7745        DC    X'38'  5C                                                  75310021
 00514B 3C                          7746        DC    X'3C'  60                                                  75320021
 00514C 40                          7747        DC    X'40'  64                                                  75330021
 00514D 44                          7748        DC    X'44'  68                                                  75340021
 00514E FC                          7749        DC    X'FC'  6C                                                  75350021
 00514F 48                          7750        DC    X'48'  70                                                  75360021
 005150 F0                          7751        DC    X'F0'  74                                                  75370021
 005151 4C                          7752        DC    X'4C'  78                                                  75380021
 005152 F4                          7753        DC    X'F4'  7C                                                  75390021
 005153 50                          7754        DC    X'50'  80                                                  75400021
 005154 F8                          7755        DC    X'F8'  84                                                  75410021
 005155 58                          7756        DC    X'58'  88                                                  75420021
 005156 24                          7757        DC    X'24'  8C                                                  75430021
 005157 54                          7758        DC    X'54'  90                                                  75440021
 005158 5C                          7759        DC    X'5C'  94                                                  75450021
 005159 78                          7760        DC    X'78'  98                                                  75460021
 00515A 88                          7761        DC    X'88'  9C                                                  75470021
 00515B EC                          7762        DC    X'EC'  A0                                                  75480021
 00515C 20                          7763        DC    X'20'       A4   ADR FOLLOWED BY PLUS                      75490021
 00515D 1C                          7764        DC    X'1C'       A8                                             75500021
 00515E 18                          7765        DC    X'18'       AC                                             75510021
 00515F E8                          7766        DC    X'E8'       B0   CALLING SEQ DISPL ELT                     75520021
 005160 E4                          7767        DC    X'E4'       B4   CALLING SEQ DICT PTR                      75530021
 005161 EC                          7768        DC    X'EC'                 B8  F&LE -EF ELEMENT                 75540021
                                    7769 *                                                                       75550021
                                    7770        DROP  R15                                                        75560021
1PH60     IKFCBL60                                                                                              PAGE  183
-  LOC  OBJECT CODE    ADDR1 ADDR2  STMT   SOURCE STATEMENT                                       ASM 0201 11.03 02/14/15
0                                   7772 *=1    SAVGET                 SAVE CONDITIONS OF GET ROUTINE            75580021
                                    7773 *=           CALLED BY    L    15,ASAVGE                                75590021
                                    7774 *=                        BALR 14,15                                    75600021
                                    7775 *                                                                       75610021
 005162                             7776        DS    0H                                                         75620021
                             05162  7777        USING *,R15                                                      75630021
 005162 900F D07C      03E14        7778 SAVGET STM   R0,R15,SVREG                                               75640021
 005166 5040 D3C4      0415C        7779        ST    INPUTR,SVINPR    SAVE INPUTR, EOFADR, GETLEN,              75650021
 00516A 58E0 D158      03EF0        7780        L     RS1,EOFADR           TESTSW, AND FGET                      75660021
 00516E 50E0 D3C8      04160        7781        ST    RS1,SVEOFA                                                 75670021
 005172 48E0 D070      03E08        7782        LH    RS1,GETLEN                                                 75680021
 005176 40E0 D3CC      04164        7783        STH   RS1,SVGETL                                                 75690021
 00517A 43E0 D56C      04304        7784        IC    RS1,TESTSW                                                 75700021
 00517E 42E0 D3CE      04166        7785        STC   RS1,SVTESW                                                 75710021
 005182 43E0 D3DB      04173        7786        IC    RS1,FGET                                                   75720021
 005186 42E0 D3CF      04167        7787        STC   RS1,SVFGET                                                 75730021
 00518A 58E0 D0B4      03E4C        7788          L     RS1,SVREG+NX56                                           75740021
 00518E 07FE                        7789          BCR   UNCOND,RS1          RETURN                               75750021
                                    7790        DROP  R15                                                        75760021
                                    7791 *                                                                       75770021
                                    7792 *                                                                       75780021
                                    7793 *=1    RESGET                 RESTORE PREVIOUSLY SAVED                  75790021
                                    7794 *=                            CONDITIONS OF GET ROUTINE                 75800021
                                    7795 *=           CALLED BY    L    15,ARESGE                                75810021
                                    7796 *=                        BALR 14,15                                    75820021
                                    7797 *                                                                       75830021
 005190                             7798        DS    0H                                                         75840021
                             05190  7799        USING *,R15                                                      75850021
 005190 900F D07C      03E14        7800 RESGET STM   R0,R15,SVREG                                               75860021
 005194 58E0 D3C8      04160        7801        L     RS1,SVEOFA        RESTORE INPUTR, EOFADR, GETLEN,          75870021
 005198 50E0 D158      03EF0        7802        ST    RS1,EOFADR           TESTSW, AND FGET                      75880021
 00519C 48E0 D3CC      04164        7803        LH    RS1,SVGETL                                                 75890021
 0051A0 40E0 D070      03E08        7804        STH   RS1,GETLEN                                                 75900021
 0051A4 43E0 D3CE      04166        7805        IC    RS1,SVTESW                                                 75910021
 0051A8 42E0 D56C      04304        7806        STC   RS1,TESTSW                                                 75920021
 0051AC 43E0 D3CF      04167        7807        IC    RS1,SVFGET                                                 75930021
 0051B0 42E0 D3DB      04173        7808        STC   RS1,FGET                                                   75940021
 0051B4 5840 D3C4      0415C        7809        L     INPUTR,SVINPR                                              75950021
 0051B8 58E0 D0B4      03E4C        7810          L     RS1,SVREG+NX56                                           75960021
 0051BC 07FE                        7811          BCR   UNCOND,RS1          RETURN                               75970021
                                    7812        DROP  R15                                                        75980021
1PH60     IKFCBL60                                                                                              PAGE  184
-  LOC  OBJECT CODE    ADDR1 ADDR2  STMT   SOURCE STATEMENT                                       ASM 0201 11.03 02/14/15
0                                   7814 *=2    GET RELATIVE GN= OR PN= FROM GIVEN GN= OR PN=                    76000021
                                    7815 *      CALLED BY   L     15,AGETPN                                      76010021
                                    7816 *                  BALR  14,15                                          76020021
                                    7817 *                                                                       76030021
                                    7818 *                  L     15,AGETPN                                      76040021
                                    7819 *                  USING GETPN,15                                       76050021
                                    7820 *                  BAL   14,GETGN                                       76060021
                                    7821 *                  DROP  15                                             76070021
                                    7822 *      INPUT       RW1 GN= OR PN=                                       76080021
                                    7823 *      OUTPUT      RW1 RELLOC IN PGT OF ITEM                            76090021
                                    7824 *                  RW3 REL GN= (PLUS HI PN=) OR REL PN=                 76100021
 0051BE                             7825        DS    0H                                                         76110021
                             051BE  7826        USING *,R15                                                      76120021
 0051BE 90E2 F046      05204        7827 GETPN  STM   RS1,R2,PNREGS                                              76130021
 0051C2 5810 C6B0      03D40        7828        L     R1,APNTBL                                                  76140021
 0051C6 58F0 C4AC      03B3C        7829 GTP020 L     R15,ATABLE                                                 76150021
 0051CA 05EF                        7830        BALR  RS1,R15               GET TABLE ADDR AND SIZE              76160021
 0051CC 58F0 C4F0      03B80        7831        L     R15,AGETPN                                                 76170021
 0051D0 0660                        7832        BCTR  RW1,R0          ((PN=)-1)*2  POINTS TO PNTBL               76180021
 0051D2 8960 0001      00001        7833          SLL   RW1,DX1                                                  76190021
 0051D6 4866 1000      00000        7834          LH    RW1,DX0(RW1,R1)                                          76200021
 0051DA 1266                        7835        LTR   RW1,RW1                                                    76210021
 0051DC 4780 F032      051F0        7836        BC    ZERO,GTP040           PN/GN NUMBER IS ZERO                 76220021
 0051E0 1856                        7837        LR    RW3,RW1                                                    76230021
 0051E2 0660                        7838        BCTR  RW1,R0                SUBTRACT 1                           76240021
 0051E4 8960 0002      00002        7839          SLL   RW1,DX2                                                  76250021
 0051E8 4A60 915C      0015C        7840        AH    RW1,PNCTR                                                  76260021
 0051EC 91FF F02E      051EC        7841 GTP039   TM    GTP039,TSTDUM       SET CONDIT CODE NONZERO              76270021
 0051F0                             7842 GTP040 DS    0H                                                         76280021
 0051F0 98E2 F046      05204        7843        LM    RS1,R2,PNREGS                                              76290021
 0051F4 07FE                        7844          BCR   UNCOND,RS1          RETURN                               76300021
 0051F6                             7845 GETGN  DS    0H                                                         76310021
 0051F6 90E2 F046      05204        7846        STM   RS1,R2,PNREGS                                              76320021
 0051FA 5810 C6B8      03D48        7847        L     R1,AGNTBL                                                  76330021
 0051FE 47F0 F008      051C6        7848        BC    UNCOND,GTP020         DO PN COMMON CODE                    76340021
                                    7849        DROP  R15                                                        76350021
 005204                             7850 PNREGS DS    5F                                                         76360021
1PH60     IKFCBL60                                                                                              PAGE  185
-  LOC  OBJECT CODE    ADDR1 ADDR2  STMT   SOURCE STATEMENT                                       ASM 0201 11.03 02/14/15
0                                   7852 *=1        GETF4         PROCESS FILE F4                                76380021
                                    7853 *                                                                       76390021
                                    7854 *            CALLED BY  L   15,AGETF4 ... BALR  14,15                   76400021
                                    7855 *            NORMAL RETURN   BCR  15,14                                 76410021
                                    7856 *            EOF RETURN      BCR  15,RW2                                76420021
                                    7857 *            AT EXIT                                                    76430021
                                    7858 *              INPUTR  OR  F4REG (AS SPECIFIED) HAS LOCATION            76440021
                                    7859 *              OF DESIRED RECORD, G4LEN HAS RECORD LENGTH.              76450021
                                    7860 *            F4SW USED TO DETERMINE PROPER RECORD HANDLING              76460021
                                    7861 *                                                                       76470021
                             05218  7862        USING GETF4,R15                                                  76480021
 005218                             7863 GETF4  DS    0H                                                         76490021
 005218 9108 D116      03EAE        7864          TM    F4SW,F4EOF          EOF REACHED                          76500021
 00521C 0777                        7865        BCR   NOTZER,RW2       EOF EXIT                                  76510021
 00521E 9110 D116      03EAE        7866          TM    F4SW,F4POS01        POSITION TO 01                       76520021
 005222 4770 F014      0522C        7867        BC    NOTZER,GT405     POSITION TO 01                            76530021
 005226 9104 D116      03EAE        7868          TM    F4SW,F4LSTEND       PREMATURE END OF LISTING             76540021
 00522A 0777                        7869        BCR   NOTZER,RW2       TAKE EOF UNTIL REQUEST                    76550021
 00522C 94FB D116      03EAE        7870 GT405    NI    F4SW,F4OTR          NOT PREMATURE/TO POS TO 01           76560021
 005230 900F F168      05380        7871        STM   R0,R15,SGETF4                                              76570021
 005234 9180 D116      03EAE        7872          TM    F4SW,F4NEWBLK       NEW BLOCK NEEDED                     76580021
 005238 4770 F03C      05254        7873        BC    NOTZER,GT4C      GET INITIAL BLOCK                         76590021
 00523C 185B                        7874        LR    RW3,F4REG                                                  76600021
 00523E 9140 D116      03EAE        7875          TM    F4SW,F4INPUTR       USE INPUTR                           76610021
 005242 4780 F030      05248        7876        BC    ZERO,GT4A             USE F4REG                            76620021
 005246 1854                        7877        LR    RW3,INPUTR       USE INPUTR                                76630021
 005248 4A50 D072      03E0A        7878 GT4A   AH    RW3,G4LEN                                                  76640021
 00524C 95FF 5000      00000        7879 GT4B     CLI   DX0(RW3),ALLON                                           76650021
 005250 4770 F04A      05262        7880        BC    NOTEQ,GT4E       NO NEW BLOCK NEEDED                       76660021
                             05254  7881 GT4C   EQU   *                                                          76670021
 005254 0509                        7882 GT4D   BALR  R0,RB2            READ F4                                  76680021
 005256 04                          7883        DC    X'04'                                                      76690021
 005257 00
 005258 4780 F0C4      052DC        7884        BC    EOF,G4EOF             IF RETURN CODE IS EOF,RETURNEOF      76700021
 00525C 1850                        7885        LR    RW3,R0                                                     76710021
 00525E 47F0 F034      0524C        7886          BC    UNCOND,GT4B         CHECK FOR FF                         76720021
 005262 5050 F1A8      053C0        7887 GT4E   ST    RW3,G4FND                                                  76730021
 005266 947F D116      03EAE        7888          NI    F4SW,F4NONWBK       TURN OFF NEW BLOCK BIT               76740021
 00526A 9120 D116      03EAE        7889          TM    F4SW,F4LSTXT        IN LISTING TEXT                      76750021
 00526E 4780 F09E      052B6        7890        BC    ZERO,GT4I        NOT IN LISTING TEXT                       76760021
 005272 4365 0000      00000        7891          IC    RW1,DX0(RW3)                                             76770021
 005276 5460 C05C      036EC        7892        N     RW1,FW127        LAST 7 BITS FOR LENGTH                    76780021
 00527A 4060 D072      03E0A        7893        STH   RW1,G4LEN                                                  76790021
 00527E 9501 5000      00000        7894          CLI   DX0(RW3),XX01                                            76800021
 005282 4740 F0D6      052EE        7895        BC    LO,G4ER1              CODE IN LISTING TEXT ERROR           76810021
 005286 4720 F07E      05296        7896        BC    HI,GT4F               TEST IF IT'S A SKIP                  76820021
 00528A 9110 D116      03EAE        7897          TM    F4SW,F4POS01        END OF LISTING (POSITION TO 01       76830021
 00528E 4780 F0E4      052FC        7898        BC    ZERO,G4ER2       NOT EXPECTED                              76840021
 005292 47F0 F086      0529E        7899          BC    UNCOND,GT4G         CONTINUE WITH ERR RTN                76850021
 005296 9110 D116      03EAE        7900 GT4F     TM    F4SW,F4POS01        END OF LISTING (POSITION TO 01       76860021
 00529A 4770 F030      05248        7901        BC    NOTZER,GT4A      SKIP TO 01                                76870021
 00529E 980F F168      05380        7902 GT4G   LM    R0,R15,SGETF4                                              76880021
 0052A2                             7903 GT4G5  DS    0H                                                         76890021
 0052A2 9140 D116      03EAE        7904          TM    F4SW,F4INPUTR       USE INPUTR                           76900021
 0052A6 4780 F098      052B0        7905        BC    ZERO,GT4H        USE F4REG                                 76910021
1PH60     IKFCBL60                                                                                              PAGE  186
-  LOC  OBJECT CODE    ADDR1 ADDR2  STMT   SOURCE STATEMENT                                       ASM 0201 11.03 02/14/15
00052AA 5840 F1A8      053C0        7906        L     INPUTR,G4FND                                               76920021
 0052AE 07FE                        7907          BCR   UNCOND,RS1          RETURN                               76930021
 0052B0 58B0 F1A8      053C0        7908 GT4H   L     F4REG,G4FND                                                76940021
 0052B4 07FE                        7909          BCR   UNCOND,RS1          RETURN                               76950021
                                    7910 *                                                                       76960021
 0052B6 1B66                        7911 GT4I     SR    RW1,RW1          CLEAR FOR FIRST CHAR                    76970021
 0052B8 954C 5000      00000        7912          CLI   DX0(RW3),CKPTDF                                          76980021
 0052BC 4720 F0FC      05314        7913        BC    HI,G4ER3         BAD CODE                                  76990021
 0052C0 9103 5000      00000        7914          TM    DX0(RW3),XX03                                            77000021
 0052C4 4770 F0FC      05314        7915        BC    NOTZER,G4ER3     BAD CODE                                  77010021
 0052C8 4365 0000      00000        7916          IC    RW1,DX0(RW3)                                             77020021
 0052CC 8860 0001      00001        7917          SRL   RW1,DX1                                                  77030021
 0052D0 4866 F278      05490        7918        LH    RW1,LTLB2(RW1)   GET LENGTH FROM TABLE                     77040021
 0052D4 4060 D072      03E0A        7919        STH   RW1,G4LEN                                                  77050021
 0052D8 47F0 F086      0529E        7920          BC    UNCOND,GT4G         CONTINUE WITH ERR RTN                77060021
                                    7921 *                                                                       77070021
 0052DC 9120 D116      03EAE        7922 G4EOF    TM    F4SW,F4LSTXT        IN LISTING TEXT                      77080021
 0052E0 4770 F13E      05356        7923        BC    NOTZER,G4ER4     EOF WHILE DOING LISTING                   77090021
 0052E4 980F F168      05380        7924 G4EOFX LM    R0,R15,SGETF4                                              77100021
 0052E8 18E7                        7925        LR    RS1,RW2             LOAD RETURN REGISTER                   77110021
 0052EA 47F0 F08A      052A2        7926          BC    UNCOND,GT4G5        CONTINUE WITH ERR RTN                77120021
                                    7927 *                                                                       77130021
 0052EE D217 D7AB F1D9 04543 053F1  7928 G4ER1    MVC   OU6REC+NX47(LX24),G4ER01                                 77140021
 0052F4 92F1 F166      0537E        7929          MVI   SAVMNO,XC1                                               77150021
 0052F8 47F0 F148      05360        7930          BC    UNCOND,G4ERC        SET EOF RETURN                       77160021
 0052FC 9604 D116      03EAE        7931 G4ER2    OI    F4SW,F4LSTEND       EOF EXIT UNTIL POSITION REQ.         77170021
 005300 D701 D072 D072 03E0A 03E0A  7932        XC    G4LEN,G4LEN                                                77180021
 005306 D21B D7AB F1F2 04543 0540A  7933          MVC   OU6NAM(LX28),G4ER02                                      77190021
 00530C 92F2 F166      0537E        7934          MVI   SAVMNO,XC2                                               77200021
 005310 47F0 F14C      05364        7935          BC    UNCOND,G4ERD        GO MOVE MSG                          77210021
 005314 D23F D77D F20E 04515 05426  7936 G4ER3    MVC   OU6CDN(LX64),G4ER03   MOVE COMPLETE MESSAGE              77220021
 00531A 92F3 F166      0537E        7937          MVI   SAVMNO,XC3                SAVE MESSAGE NUMBER ANYWAY     77230021
 00531E 9608 D116      03EAE        7938          OI    F4SW,F4EOF          EOF BIT ON                           77240021
 005322 92FF C522      03BB2        7939          MVI   P6ESW,ALLON         LOGIC ERROR IN PH6                   77250021
 005326 58F0 C460      03AF0        7940          L     R15,APUT            PRINT D-LEVEL MSG                    77260021
 00532A 05EF                        7941          BALR  RS1,R15             PRINT                                77270021
 00532C 58F0 C45C      03AEC        7942          L     R15,AGETF4          ESTAB ADDRESSABILITY                 77280021
 005330 9602 9182      00182        7943          OI    SWITCH,NO6A              DON'T CALL 6A                   77290021
 005334 9102 91A4      001A4        7944          TM    PHZSW1,MAPSP        MAP SUPPRESS?                        77300021
 005338 4780 F12C      05344        7945          BC    ZERO,G4ER3A      NO                                      77310021
 00533C 5880 C700      03D90        7946          L     RB1,AFIRST           SET UP BASE FOR MSGMS CODING        77320021
                             0002E  7947          USING FIRST,RB1                                                77330021
 005340 47F0 80AC      000DA        7948          BC    UNCOND,MSGMS        PRINT MAP SUPPRESS MSG & STATS       77340021
 005344                             7949 G4ER3A DS 0H                                                            77350021
 005344 58F0 C510      03BA0        7950          L     R15,APRSTAT          PRINT STATISTICS                    77360021
 005348 05EF                        7951          BALR  RS1,R15             PRINT                                77370021
 00534A 58F0 C45C      03AEC        7952          L     R15,AGETF4         ESTAB  ADDRESSABILITY                 77380021
 00534E 5880 C700      03D90        7953          L     RB1,AFIRST           SET UP BASE FOR NOOPTST CODING      77390021
                             0002E  7954          USING FIRST,RB1                                                77400021
 005352 47F0 805E      0008C        7955          BC    UNCOND,NOOPTST      RETURN TO PH0                        77410021
                                    7956        DROP    RB1                                                      77420021
                             01888  7957          USING RB1BAS,RB1                                               77430021
 005356 D229 D7AB F24E 04543 05466  7958 G4ER4    MVC   OU6NAM(LX42),G4ER04                                      77440021
 00535C 92F4 F166      0537E        7959          MVI   SAVMNO,XC4                                               77450021
 005360 9608 D116      03EAE        7960 G4ERC    OI    F4SW,F4EOF          EOF RETURN                           77460021
1PH60     IKFCBL60                                                                                              PAGE  187
-  LOC  OBJECT CODE    ADDR1 ADDR2  STMT   SOURCE STATEMENT                                       ASM 0201 11.03 02/14/15
0005364 D22C D77D F1AC 04515 053C4  7961 G4ERD    MVC   OU6CDN(LX45),G4ERE    MOVE FIRST PART OF MSG             77470021
 00536A D200 D783 F166 0451B 0537E  7962          MVC   OU6REC+NX7(LX1),SAVMNO                                   77480021
 005370 58F0 C460      03AF0        7963        L     R15,APUT                                                   77490021
 005374 05EF                        7964        BALR  RS1,R15               PRINT A LINE                         77500021
 005376 58F0 C45C      03AEC        7965        L     R15,AGETF4                                                 77510021
 00537A 47F0 F0CC      052E4        7966          BC    UNCOND,G4EOFX        RETURN                              77520021
                                    7967 *                                                                       77530021
 00537E                             7968 SAVMNO   DS    C                                                        77540021
 005380                             7969 SGETF4 DS    16F                                                        77550021
 0053C0                             7970 G4FND  DS    F                                                          77560021
                                    7971 *                                                                       77570021
 0053C4 C9D2C6F6F0F0F0C9            7972 G4ERE    DC    C'IKF6000I-C    E'                                       77580021
 0053D3 D9D9D6D940                  7973          DC    C'RROR '                                                 77590021
 0053D8 C6D6E4D5C440D7D9            7974        DC      C'FOUND PROCESSING'                                      77600021
 0053E8 40C6F440E3C5E7E3            7975        DC      C' F4 TEXT.'                                             77610021
 0053F1 F0F040C3D6C4C540            7976 G4ER01 DC    C'00 CODE IN LISTI'                                        77620021
 005401 D5C74040E3C5E7E3            7977        DC      C'NG  TEXT.'                                             77630021
 00540A C5D5C440D6C640D3            7978 G4ER02 DC    C'END OF LISTING T'                                        77640021
 00541A C5E7E340D9C5C1C3            7979        DC      C'EXT REACHED.'                                          77650021
 005426 C9D2C6F6F0F0F3C9            7980 G4ER03   DC    C'IKF6003I-D    CO'                                      77660021
 005436 D4D7C9D3C5D940C5            7981          DC    C'MPILER ERROR. CO'                                      77670021
 005446 D4D7C9D3C1E3C9D6            7982          DC    C'MPILATION WILL N'                                      77680021
 005456 D6E340C2C540C3D6            7983          DC    C'OT BE COMPLETE. '                                      77690021
 005466 C5D6C640D9C5C1C3            7984 G4ER04 DC    C'EOF REACHED WHIL'                                        77700021
 005476 C540D7D9D6C3C5E2            7985        DC    C'E PROCESSING LIS'                                        77710021
 005486 E3C9D5C740E3C5E7            7986        DC      C'TING TEXT.'                                            77720021
                                    7987 *                                                                       77730021
                                    7988 *  TABLE OF LENGTHS BY RECORD TYPE                                      77740021
                                    7989 *                                                                       77750021
                                    7990 *            LENGTH    CODE   RECORD                                    77760021
                                    7991 *                                                                       77770021
 005490 0008                        7992 LTLB2  DC    H'8'        0    MESSAGE   VARIABLE IF PARAM               77780021
 005492 0005                        7993        DC    H'5'        4    DCBADEF                                   77790021
 005494 0009                        7994        DC    H'9'        8    DECBADEF                                  77800021
 005496 0009                        7995        DC    H'9'        C    BLKADEF                                   77810021
 005498 0000                        7996        DC    H'0'        10                                             77820021
 00549A 0000                        7997        DC    H'0'        14                                             77830021
 00549C 0000                        7998        DC    H'0'        18                                             77840021
 00549E 0000                        7999        DC    H'0'        1C                                             77850021
 0054A0 0009                        8000        DC    H'9'        20   SAADEF                                    77860021
 0054A2 0008                        8001        DC    H'8'        24   WSADEF                                    77870021
 0054A4 0007                        8002        DC    H'7'        28   CONDEF    PLUS VF SIZE                    77880021
 0054A6 0008                        8003        DC    H'8'        2C   ACONDEF                                   77890021
 0054A8 0008                        8004        DC    H'8'        30   INDADEF                                   77900021
 0054AA 0003                        8005        DC    H'3'        34   QDEF                                      77910021
 0054AC 0003                        8006        DC    H'3'        38   CKPTDEF                                   77920021
                                    8007        DROP  R15                                                        77930021
1PH60     IKFCBL60                                                                                              PAGE  188
-  LOC  OBJECT CODE    ADDR1 ADDR2  STMT   SOURCE STATEMENT                                       ASM 0201 11.03 02/14/15
0                                   8009 *                                                                       77950021
                                    8010 *        DN DEF ELEMENT                                                 77960021
                                    8011 *                                                                       77970021
                                    8012 *        //48 NNNN DDDDDD LL BCD NAME//                                 77980021
                                    8013 *        NNNN=CARD NUMBER                                               77990021
                                    8014 *        DDDDDD=DICT POINTER                                            78000021
                                    8015 *        LL=LENGTH OF NAME THAT FOLLOWS                                 78010021
                                    8016 *                                                                       78020021
 0054AE                             8017 D6DNDEF  DS    0H                                                       78030021
                             054AE  8018          USING *,RW2                                                    78040021
 0054AE 1B33                        8019          SR    R3,R3                                                    78050021
 0054B0 4330 4006      00006        8020          IC    R3,A6DNLN           GET LENGTH OF NAME                   78060021
 0054B4 4133 0007      00007        8021          LA    R3,DX7(R3)           COMPUTE LENGTH OF DN DEF ELM        78070021
 0054B8 1824                        8022          LR    R2,INPUTR           ADDR OF DN DEF ELM                   78080021
 0054BA 0509                        8023          BALR  R0,RB2              BR TO PH0                            78090021
 0054BC 11                          8024        DC    X'11'                 WRITE ON UT1                         78100021
                                    8025          DROP RW2                                                       78110021
 0054BD 00
 0054BE 4030 D072      03E0A        8026          STH   R3,G4LEN            SAVE LENGTH OF THIS ELMT             78120021
 0054C2 47F0 A6AC      02F34        8027          B     PDT020              CONT WITH COMMON CODING              78130021
-
                                    8029 *                                                                       78150021
                                    8030 *        PN DEF ELEMENT                                                 78160021
                                    8031 *                                                                       78170021
                                    8032 *        //4C PPPP NNNN LL BCD NAME//                                   78180021
                                    8033 *        PPPP=PN NUMBER                                                 78190021
                                    8034 *        NNNN=CARD NUMBER                                               78200021
                                    8035 *        LL=LENGTH OF NAME THAT FOLLOWS                                 78210021
                                    8036 *                                                                       78220021
 0054C6                             8037 D6PNDEF  DS    0H                                                       78230021
                             054C6  8038          USING *,RW2                                                    78240021
 0054C6 1B33                        8039          SR    R3,R3                                                    78250021
 0054C8 4330 4005      00005        8040          IC    R3,A6PNLN           GET LENGTH OF NAME                   78260021
 0054CC 4133 0006      00006        8041          LA    R3,DX6(R3)           GET LNGTH OF ENTIRE PN DEF          78270021
 0054D0 1824                        8042          LR    R2,INPUTR                                                78280021
 0054D2 0509                        8043          BALR  R0,RB2              BR TO PH0                            78290021
 0054D4 11                          8044        DC    X'11'                 WRITE ON UT1                         78300021
                                    8045          DROP RW2                                                       78310021
 0054D5 00
 0054D6 4030 D072      03E0A        8046          STH   R3,G4LEN            SAVE LENGTH OF THIS ELMT             78320021
 0054DA 47F0 A6AC      02F34        8047          B     PDT020              CONT WITH COMMON CODING              78330021
