1PH20                                           EXTERNAL SYMBOL DICTIONARY                                      PAGE    1
-SYMBOL   TYPE  ID   ADDR  LENGTH LDID                                                            ASM 0201 11.03 02/14/15
0IKF200    SD  0001 000000 000878
 PH2       LD       000878        0002
 IKF201    SD  0002 000878 00101E
 IKF201A   SD  0003 001898 0000D4
 IKF201B   SD  0004 001970 0001B8
 IKF201C   SD  0005 001B28 0000AC
 IKF202    SD  0006 001BD8 000E3A
 IKF203    SD  0007 002A18 000D9C
 IKF204    SD  0008 0037B8 000B0D
 IKF205    SD  0009 0042C8 000A20
 IKF206    SD  000A 004CE8 0006E6
 IKF207    SD  000B 0053D0 0000F6
 IKF208    SD  000C 0054C8 000FF4
 IKF209    SD  000D 0064C0 00085C
 IKF210    SD  000E 006D20 00091A
 IKF211    SD  000F 007640 000ED4
 IKF212    SD  0010 008518 000412
 IKF216    SD  0011 008930 0008D2
 IKF213A   SD  0012 009208 000EF8
 IKF213B   SD  0013 00A100 0007A2
 IKF214    SD  0014 00A8A8 000C94
 IKF215    SD  0015 00B540 000FFC
1PH20                                                                                                           PAGE    2
-  LOC  OBJECT CODE    ADDR1 ADDR2  STMT   SOURCE STATEMENT                                       ASM 0201 11.03 02/14/15
0                                      1 *$MODULE       PHASE2                                                   00006021
                                       2          IHBCOB                                                         00012021
                                       3+*     THIS IS A MACRO GENERATING COBOL COMMON AS A DSECT USED
                                       4+*      BY EVERY PHASE OF THE COBOL COMPILER
                                       5+*
                                       6+***********************************************************************
                                       7+*      COMMON - THE COMMUNICATIONS AREA
                                       8+***********************************************************************
                                       9+*      THIS TABLE IS LOCATED IN PH0 FOLLOWING THE ENTRY POINT- COS.
                                      10+*      AT ENTRY TO EACH PHASE R1 POINTS TO THE SLOT CONTAINING COSADDR.
 000000                               11+COS    DSECT
 000000                               12+       DS    3F          EXECUTABLE CODE IN PH0
 00000C                               13+TIB0     DS    2F
 000014                               14+TIB1     DS    2F
 00001C                               15+TIB2     DS    2F
 000024                               16+TIB3     DS    2F
 00002C                               17+TIB4     DS    2F
 000034                               18+TIB5     DS    2F
 00003C                               19+TIB6     DS    2F
 000044                               20+TIB7     DS    2F
 00004C                               21+TIB8     DS    2F
 000054                               22+TIB9     DS    2F
 00005C                               23+TIB10    DS    2F
 000064                               24+TIB11    DS    2F
 00006C                               25+TIB12    DS    2F
 000074                               26+TIB13    DS    2F
 00007C                               27+TIB14    DS    2F
 000084                               28+TIB15    DS    2F
 00008C                               29+TIB16    DS    2F
 000094                               30+TIB17    DS    2F
 00009C                               31+TIB18    DS    2F
 0000A4                               32+TIB19    DS    2F
 0000AC                               33+TIB20    DS    2F
 0000B4                               34+TIB21    DS    2F
 0000BC                               35+TIB22    DS    2F
 0000C4                               36+TIB23    DS    2F
 0000CC                               37+TIB24    DS    2F
 0000D4                               38+TIB25    DS    2F
 0000DC                               39+TIB26    DS    2F
 0000E4                               40+TIB27    DS    2F
 0000EC                               41+TIB28    DS    2F
 0000F4                               42+TIB29    DS    2F
 0000FC                               43+TIB30    DS    2F
 000104                               44+TIB31    DS    2F
 00010C                               45+TIB32    DS    2F
 000114                               46+TIB33    DS    2F
 00011C                               47+TIB34    DS    2F
 000124                               48+TIB35    DS    2F
 00012C                               49+APRIME DS    F           ADDRESS OF SUBROUTINE-PRIME   IN TAMER
 000130                               50+AINSRT DS    F           ADDRESS OF SUBROUTINE-INSERT  IN TAMER
 000134                               51+ADSTAT DS    F           ADDRESS OF SUBROUTINE-STATIC  IN TAMER
 000138                               52+RELADD DS    F           ADDRESS OF SUBROUTINE-TABREL  IN TAMER
 00013C                               53+TAMNAD DS    F
 000140                               54+ACCESW DS    C           ACCESS INITIALIZATION SWITCH
 000141                               55+AMAINF   DS    CL3       POINTER TO THE MAIN FREE AREA FOR TABLES/DICT.
1PH20                                                                                                           PAGE    3
-  LOC  OBJECT CODE    ADDR1 ADDR2  STMT   SOURCE STATEMENT                                       ASM 0201 11.03 02/14/15
0000144                               56+ALSTAM DS    F           POINTER TO THE LAST ENTRY IN TAMM
 000148                               57+LOCCTR DS    F           RELATIVE ADDRESS OF THE NEXT AVAILABLE LOC
 00014C                               58+LOCCTR1  DS    F
 000150                               59+PROGID   DS    CL8       PROGRAM-ID FROM THE IDENTICATION DIVISION
 000158                               60+LABELS DS    H           CONTAINS LABEL INFORMATION.
 00015A                               61+SEGCNTR  DS    H         NUMBER OF SEGMENTS HIGHER THAN SEGMENT LIMIT -
                                      62+*                        USED BY PHASE 6
 00015C                               63+PNCTR  DS    H           COUNTER FOR ASSIGNING PB NUMBERS TO PROC.NAMES
 00015E                               64+GNCTR  DS    H           CTR. ASSIGNING GN NO.TO GENERATED PROC. NAMES
 000160                               65+DCBCTR DS    H           CTR. ASSIGNING ID.NO.TO DCB'S
 000162                               66+VIRCTR DS    H           CTR. ASSIGNING ID.NO.TO VIRTUALS
 000164                               67+LTLCTR DS    H           CTR. ASSIGNING ID.NO.TO LITERALS
 000166                               68+WCMAX  DS    H           SIZE OF THE LARGEST WORK AREA FOR LIBRARY SUBR
 000168                               69+TSMAX  DS    H           SIZE OF THE TEMP. STORAGE FOR ARITHM. STMNTS
 00016A                               70+TS2MAX DS    H           SAME AS ABOVE FOR NON-ARITHMETIC STATEMENTS
 00016C                               71+ODOCTR DS    H           NUMBER OF Q-ROUTINES
 00016E                               72+CKPCTR DS    H           NUMBER OF CHECKPOINT REQUESTS
 000170                               73+INDCTR DS    H           AVAILABLE
 000172                               74+SBLOMX   DS    H                   AVAILABLE
 000174                               75+VLCOMX   DS    H                   AVAILABLE
 000176                               76+SBLIMX DS    H           SAME AS SBLOMX FOR IN-LINE PROC.
 000178                               77+VLCIMX DS    H           SAME AS VLCOMX FOR IN-LINE PROC.
 00017A                               78+SBLCTR DS    H           COUNTER FOR ASSIGNING  SBL'S
 00017C                               79+VLCCTR DS    H           USED TO DETERMINE VLCOMX AND VLCIMX
 00017E                               80+BLLCTR DS    H           CTR. FOR ASSIGNING ID. NO.TO LINKAGE SEC. BL'S
 000180                               81+SEQERR DS    H           NO. OF OUT-OF-SEQUENCE CARDS
 000182                               82+SWITCH   DS    H
                                      83+*                        BITS MARKED BY * MAY STILL BE IN USE BY
                                      84+*                        COBOLF - ASSIGN THESE AS A LAST RESORT
                             00080    85+SWTRCE EQU   X'80'       BIT 0  TRACE
                                      86+*              *         BIT 1
                                      87+*              *         BIT 2
                             00010    88+SPILL    EQU   X'10'     BIT 3  SET IF DICTIONARY SPILL
                                      89+*              *         BIT 4
                             00004    90+MQVAR    EQU   X'04'     BIT 5  SET IF PH2 BUILDS A QVAR TABLE
                                      91+*              *         BIT 6
                             00001    92+MQFILE   EQU   X'01'     BIT 7  SET IF PH2 BUILDS A QFILE TABLE
                                      93+*
                                      94+*                        SECOND BYTE OF SWITCH
                                      95+*              *         BIT 0
                                      96+*              *         BIT 1
                             00020    97+SORTRTN  EQU   X'20'     BIT 2  SORT RETURN SET BY PHASE2 USED BY PH5
                             00010    98+RERUNN   EQU   X'10'     BIT 3  RERUN USED BY PHASE 1, 2 AND 5
                             00008    99+DSOU     EQU   X'08'     BIT 4  SOURCE INDICATOR FOR STATISTICS
                             00004   100+NOFITSW  EQU   X'04'     BIT 5  SET BY PH6 IF E-TEXT ON FILE3
                                     101+*                               USED BY PH7 & PH00
                             00002   102+DOPH7    EQU   X'02'     BIT 6  PH6 LOOK AHEAD FOR PH7 YES OR NO
                             00001   103+RDERRFIL EQU   X'01'     BIT 7  PH6 INPUT INDICATOR
 000184                              104+DICND2 DS    F           DICTIONARY POINTER USED IN PH2
 000188                              105+DICND1 DS    F           DICTIONARY POINTER USED IN PH1
 00018C                              106+DATE     DS    CL15      DATE/TIME OF COMPILATION
                                     107+*                        REUSED IN PHASE1 AS FOLLOWS
                                     108+*                                  BYTES 1-4 NUMBER OF DATA NAMES
                                     109+*                                        5-8 NUMBER OF VERBS
                                     110+*                                        9-12 NUMBER OF SOURCE CARDS
1PH20                                                                                                           PAGE    4
-  LOC  OBJECT CODE    ADDR1 ADDR2  STMT   SOURCE STATEMENT                                       ASM 0201 11.03 02/14/15
0                                    111+*                                       13-15 NOT USED
 00019B                              112+WSDEF  DS    0CL7        LAST 7 BYTES OF DATA A-TEXT EL.FOR WORK.ST.SEC
 00019B                              113+         DS    CL3
 00019E                              114+WSBL   DS    C
 00019F                              115+WSSIZE   DS    CL3
 0001A2                              116+ERRSEV DS    C           HIGHEST ERROR SEVERITY LEVEL
 0001A3                              117+PHZSW  DS    C           OPTIONS SWITCH :
                             00080   118+LIST     EQU X'80'       SOURCE(OS)
                             00040   119+LISTX    EQU   X'40'     PMAP
                             00020   120+DECK     EQU   X'20'
                             00010   121+LINK     EQU   X'10'     LOAD
                             00008   122+SEQ      EQU   X'08'
                             00004   123+FLAGW    EQU   X'04'
                             00002   124+LIBR     EQU   X'02'
                             00001   125+ZWB      EQU   X'01'
 0001A4                              126+PHZSW1 DS    C
                             00080   127+XREF     EQU   X'80'
                             00040   128+CLIST    EQU   X'40'
                             00020   129+SYM      EQU   X'20'      DMAP
                             00010   130+PDT      EQU   X'10'
                             00004   131+APOST    EQU   X'04'
                             00002   132+MAPSP    EQU     X'02'
                             00001   133+TRUNC    EQU   X'01'
 0001A5                              134+PHZSW2   DS    C         RESERVED FOR ADDITIONAL OPTIONS
                             00080   135+STAT     EQU   X'80'     RESERVED FOR STATEMENT NUMBER OPTION
                             00002   136+NO6A     EQU   X'02'     SET BY PH6 TO TELL PH7 THAT PH6A WAS BYPASSED
 0001A8                              137+DICADR DS    F
 0001AC                              138+DLSVAL DS    F           ACCESS RTN. COMMUNICATION CELL
 0001B0                              139+DICPTR DS    C           ACCESS RTN. COMMUNICATION CELL
 0001B1                              140+DCPTR  DS    3C          ACCESS RTN. COMMUNICATION CELL
 0001B4                              141+RPTSAV DS    H           REPORT SAVE AREA CELL
 0001B6                              142+BLSCTR   DS    H         AVAILABLE
 0001B8                              143+LCSECT   DS    F
 0001BC                              144+PH7LOD   DS    F
 0001C0                              145+RGNCTR DS    H           COUNT OF UNIQUE GN'S
 0001C2                              146+ERF4SW DS    C           SWITCH USED BY PH6/PH7
 0001C3                              147+PTYNO    DS    C                   CURRENT PRIORITY NO
                                     148+*                                  SET BY PH5  USED BY PH00
 0001C4                              149+COMMAD   DS    H
 0001C6                              150+PHZSW3   DS    C                   OPTION SWITCH
                             00001   151+VERBR    EQU   X'01'               LISTING A-TEXT
 0001C7                              152+PHZSW4   DS    C                   RESERVED FOR ADDITIONAL OPTIONS
 0001C8                              153+AMOVDC   DS    F
 0001CC                              154+SDSIZ    DS    F         BIGGEST SD IN PGM.
 0001D0                              155+SEGLMT   DS    C
 0001D1                              156+DTFNUM   DS    C
 0001D2                              157+CURSGN   DS    C
 0001D3                              158+PH1BYTE  DS    C         PHASE 1 COMMUNICATION TO PHASE 2
                             00001   159+UPSIBT   EQU   X'01'     PASSES INFORMATION FROM PHASE 1A TO PHASE 2
                             00002   160+EOPPH1   EQU   X'02'     PASSES INFORMATION FROM PHASE 1A TO PHASE 1B
                             00004   161+INITBIT  EQU   X'04'     PASSES INFORMATION FROM PHASE 1A TO PHASE 2
                             00008   162+BASINSQ  EQU   X'08'           PH1A TO PH1B
                             00020   163+BASIS    EQU   X'20'
                             00080   164+F3TEXT   EQU   X'80'
 0001D4                              165+DECBCT   DS    H         NO OF DECB'S FOR PGM
1PH20                                                                                                           PAGE    5
-  LOC  OBJECT CODE    ADDR1 ADDR2  STMT   SOURCE STATEMENT                                       ASM 0201 11.03 02/14/15
00001D6                              166+INDEXS   DS    H         AVAILABLE
 0001D8                              167+INDEX1   DS    H        # INDEX NAMES DEFNED IN IN-LINE FILES
 0001DA                              168+CYCTOTAL DS    H         AVAILABLE
 0001DC                              169+IOPTRCTR DS    H        # I/O POINTERS FOR APPLY-WRITE-ONLY
 0001DE                              170+TS3MAX   DS    H
 0001E0                              171+TS4MAX   DS    H
 0001E4                              172+BUFSIZE  DS    F         USED FOR STATISTICS
 0001E8                              173+CORESIZE DS    F         USED FOR STATISTICS
 0001EC                              174+CNTLINE  DS    H         USED FOR STATISTICS
 0001EE                              175+CURCRD   DS    H
 0001F0                              176+SPACING  DS    C         USED FOR STATISTICS
 0001F1                              177+PDTCHR   DS    C                   SET BY PH01 USED BY PH6
 0001F2                              178+         DS    H
 0001F4                              179+BASINS   DS    1F
 0001F8                              180+         DS    1F
                                     181+*
                                     182+*
 0001FC                              183+         DS    0F
 0001FC                              184+AGETALL  DS    F                   ADDRESS OF TAMER RTN - GETALL
 000200                              185+         DS    F                   AVAILABLE
 000204                              186+RPDNUM   DS    H         AVAILABLE
 000206                              187+CYCNUM   DS    H         AVAILABLE
 000208                              188+IDENTL DS    F           REL. LOC. OF CODING IN OBJECT MODULE FOR THE
                                     189+*                        RANDOM PROC IDENTIFIED IN RPDNUM
 00020C                              190+BLCTR  DS    H           ID NO ASSIGNED TO BL'S FOR FILES
 00020E                              191+VNCTR  DS    H           COUNTER FOR ASSIGNING VN NUMBERS
 000210                              192+ONCTR  DS    H           COUNTER FOR ASSIGNING ID NO.TO ON CONTROL CELL
 000212                              193+PFMCTR DS    H           COUNTER FOR ASSIGNING ID NO.TO PERFORM CELLS
 000214                              194+PSVCTR DS    H           CTR FOR ASSIGNING ID'S TO PERFORM SAVE CELLS
 000216                              195+XSACTR DS    H           LOC  WITHIN EXHIBIT OR SORT SAVE AREA
 000218                              196+XSWCTR DS    H           CTR FOR ASSIGNING ID'S TO EXHIBIT/ON SWITCHES
 00021C                              197+RELLOC DS    F           DISPL OF TGT/SGT FROM THE BEG. OF OBJECT MOD.
 000220                              198+GTLNG  DS    H           LENGTH OF TGT OR SGT SPECIFIED IN RELLOC
 000222                              199+RPILOC   DS    H         AVAILABLE
 000224                              200+VNILOC DS    H           DISPL OF VNI FIELDS IN PGT
 000226                              201+VNLOC  DS    H           DISPL OF VN FIELDS IN TGT OR SGT
 000228                              202+SUBCTR DS    H           CTR TO ASSIGN ID'S TO SUBSCRIPTED REFERENCES
 00022A                              203+PARMAX DS    H           SIZE OF PARAMETER AREA
 00022C                              204+BLSVAL   DS    H         AVAILABLE
 00022E                              205+BLSLOC   DS    H         AVAILABLE
 000230                              206+CMTBSW   DS    H         AVAILABLE
 000232                              207+SA2CTR DS    H           SET IF OPTION 2 OF USE  SPECIFIED
 000234                              208+SA3CTR DS    H           SET IF OPTION 5 OF USE  SPECIFIED
 000236                              209+BLSEND   DS    H         AVAILABLE
 000238                              210+INDEX    DS    F
 00023C                              211+INDEX0   DS    H         AVAILABLE
 000240                              212+       DS    6F
                                     213+*
                                     214+*      END OF COMMON
                                     215+*
                                     216+*
1PH20                                                                                                           PAGE    6
-  LOC  OBJECT CODE    ADDR1 ADDR2  STMT   SOURCE STATEMENT                                       ASM 0201 11.03 02/14/15
0000000                              218 IKF200   CSECT                                                          00018021
                             00000   219          USING COS,R1                                                   00024021
                                     220        ENTRY PH2                                                        00030021
 000000 C9D2C6C3C2D3F2F0             221 ENTPH2   DC    C'IKFCBL20'                                              00036021
 000008 C2                           222          DC    C'B'                                                     00042021
 000009 1C                           223          DC    X'1C'                                                    00048021
                                     224 *                                                                       00054021
                                     225 *                                                                       00060021
                                     226 *                                                                       00066021
                                     227 *                                                                       00072021
                                     228 *                                                                       00078021
                                     229 *                                                                       00084021
                                     230 *                                                                       00090021
                                     231 *                                                                       00096021
                                     232 *                                                                       00102021
                                     233 *                                                                       00108021
                                     234 *=3                                                                     00114021
                                     235 *                                                                       00120021
                                     236 *                                                                       00126021
                                     237 *                                                                       00132021
                                     238 *TITLE                                                                  00138021
                                     239 *                                                                       00144021
                                     240 *   'IEGCBL20' -PHASE 2                                                 00150021
                                     241 *                                                                       00156021
                                     242 *STATUS                                                                 00162021
                                     243 *                                                                       00168021
                                     244 *   CHANGE LEVEL 000                                                    00174021
                                     245 *                                                                       00180021
                                     246 *FUNCTION/OPERATION                                                     00186021
                                     247 *                                                                       00192021
                                     248 *   CHECK SYNTAX OF DATA DIVISION ENTRIES, COMPUTES THE ATTRIBUTES      00198021
                                     249 *   ADDRESSING PARAMETERS OF THESE ENTRIES, AND STORES THEM IN A        00204021
                                     250 *   DICTIONARY WHERE THEY CAN BE REFERRED TO BY THE LATER PHASES WH     00210021
                                     251 *   DEAL WITH THE PROCEDURE DIVISION. PHASE 2 ALSO FORMATS THE DATA     00216021
                                     252 *   CONTROL BLOCKS (DCB), DATA EVENT CONTROL BLOCKS (DECB), AND BUF     00222021
                                     253 *   FOR FILES  SPECIFIED IN THE FILE SECTION.                           00228021
                                     254 *                                                                       00234021
                                     255 *                                                                       00240021
                                     256 *   THE FUNCTION/OPERATION AND GENERAL CONSIDERATION OF THE ACCESS      00246021
                                     257 *   ARE DESCRIBED IN DETAIL IN PLM AND PHASE 1 LISTING.                 00252021
                                     258 *                                                                       00258021
                                     259 *ENTRY POINTS                                                           00264021
                                     260 *                                                                       00270021
                                     261 *        PH2                                                            00276021
                                     262 *                                                                       00282021
                                     263 *INPUT                                                                  00288021
                                     264 *                                                                       00294021
                                     265 *   'SYSUT3'-DATA IC TEXT AND E-TEXT FROM 'IEGCBL10' (PHASE 1)          00300021
                                     266 *                                                                       00306021
                                     267 *OUTPUT                                                                 00312021
                                     268 *                                                                       00318021
                                     269 *   'SYSUT4'- DATA-TEXT FOR 'IEGCBL60'(PHASE 6)                         00324021
                                     270 *             E-TEXT                                                    00330021
                                     271 *   'SYSUT2'- P0-TEXT FOR OBJECT TIME VARIABLE LENGTH COMPUTATIONS      00336021
                                     272 *             FOR OCCURS DEPENDING ON ITEMS                             00342021
1PH20                                                                                                           PAGE    7
-  LOC  OBJECT CODE    ADDR1 ADDR2  STMT   SOURCE STATEMENT                                       ASM 0201 11.03 02/14/15
0                                    273 *                                                                       00348021
                                     274 *EXTERNAL ROUTINES                                                      00354021
                                     275 *                                                                       00360021
                                     276 *        'IEGCBL00' (PHASE 0)-LINK TO I/O AND INTERPHASE COMMON REG     00366021
                                     277 *        'PRIME'              *                   PREPARE TABLE         00372021
                                     278 *        'INSERT'             *TABLE-HANDLING*    PROVIDE SPACE         00378021
                                     279 *        'TABREL'                                 RELEASE TABLE         00384021
                                     280 *                                                                       00390021
                                     281 *EXITS-NORMAL      VIA 'IEGCBL00' TO 'IEGCBL30' (PHASE 3)               00396021
                                     282 *                            L      1,=A(IEGCBL00)     L   1,COSADR     00402021
                                     283 *                            BALR   0,1                                 00408021
                                     284 *                            DC     X'0A'                               00414021
                                     285 *                                                                       00420021
                                     286 *EXITS-ERROR       IF UNTRANSLATABLE  DATA IC-TEXT INPUT GO TO          00426021
                                     287 *                  NORMAL EXIT.                                         00432021
                                     288 *                                                                       00438021
                                     289 *                                                                       00444021
                                     290 *TABLES/WORKAREAS                                                       00450021
                                     291 *                                                                       00456021
                                     292 *   TABLES DESCRIBED UNDER TAMER TABLES IN CONSTANTS SECTION OF         00462021
                                     293 *   LISTING                                                             00468021
                                     294 *   WORKAREAS DESCRIBED UNDER PH2SAV                                    00474021
                                     295 *                                                                       00480021
                                     296 *ATTRIBUTES                                                             00486021
                                     297 *                                                                       00492021
                                     298 *                                                                       00498021
                                     299 *NOTES                                                                  00504021
                                     300 *                                                                       00510021
                                     301 *                                                                       00516021
                                     302 *        1.  ALL ROUTINES USE  REGISTER 15  FOR BASE REGISTER.          00522021
                                     303 *        2.  ALL INTRA-PHASE ROUTINES CALLED BY-                        00528021
                                     304 *                                  L         15,A(CALLED ROUTINE)       00534021
                                     305 *                                  BALR      14,15                      00540021
                                     306 *                                  L         15,A(CALLER)               00546021
                                     307 *        3.  PHASE SAVEAREA AND CONSTANTS UNDER REGISTER 13.            00552021
                                     308 *        4.  CALLED ROUTINE SAVES CALLER'S  REGISTERS.                  00558021
                                     309 *                                                                       00564021
                                     310 *   PHASE 2 USES THE ACCESS TO MAKE ENTRIES FOR DATA-NAMES              00570021
                                     311 *   INTO THE DICTIONARY AND TO LOCATE DATA-NAMES ALREADY IN THE         00576021
                                     312 *   DICTIONARY.                                                         00582021
                                     313 *                                                                       00588021
1PH20     IKFCBL20                                                                                              PAGE    8
-  LOC  OBJECT CODE    ADDR1 ADDR2  STMT   SOURCE STATEMENT                                       ASM 0201 11.03 02/14/15
0                                    315 *                                                                       00600021
                                     316 *  EQUATES FOR COMMON AREA CELLS.                                       00606021

                                     318 * STERLING REPORT PICTURE SUBROUTINE  EQUATES FOR INFORMATION BYTE      00618021
                             00080   319 SFBWZ    EQU   X'80'                                                    00624021
                             00040   320 SSDELC   EQU   X'40'                                                    00630021
                             00020   321 SLDELC   EQU   X'20'                                                    00636021
                             00010   322 SLNOTP   EQU   X'10'                                                    00642021

                                     324 *  LITERAL PREFIX CODES                                                 00654021
                             00001   325 ANCODE   EQU   X'01'                                                    00660021
                             000FF   326 FIGCON   EQU   X'FF'                                                    00666021
                             00000   327 HEXCOD   EQU   X'00'                                                    00672021
                             00042   328 STEPVB   EQU   X'42'                                                    00678021
                             0000B   329 RCOM     EQU   11                                                       00684021
                             00000   330 R0       EQU   0                                                        00690021
                             00001   331 R1       EQU   1                                                        00696021
                             00002   332 R2       EQU   2                                                        00702021
                             00003   333 R3       EQU   3                                                        00708021
                             00004   334 R4       EQU   4                                                        00714021
                             00005   335 R5       EQU   5                                                        00720021
                             00006   336 R6       EQU   6                                                        00726021
                             00007   337 R7       EQU   7                                                        00732021
                             00008   338 R8       EQU   8                                                        00738021
                             00009   339 R9       EQU   9                                                        00744021
                             0000A   340 R10      EQU   10                                                       00750021
                             0000B   341 R11      EQU   11                                                       00756021
                             0000C   342 R12      EQU   12                                                       00762021
                             0000D   343 R13      EQU   13                                                       00768021
                             0000E   344 R14      EQU   14                                                       00774021
                             0000F   345 R15      EQU   15                                                       00780021
                             0012C   346 NEWMSG   EQU   300                DUMMY NEW ERROR MESSAGE               00786021
                             0000B   347 NOTLO    EQU   11                                                       00792021
                             0000F   348 UNCOND   EQU   15                                                       00798021
                             00002   349 HI       EQU   2                                                        00804021
                             00004   350 LO       EQU   4                                                        00810021
                             00008   351 EQ       EQU   8                                                        00816021
                             0000D   352 NOTHI    EQU   13                                                       00822021
                             00007   353 NOTEQ    EQU   7                                                        00828021
                             00001   354 OV       EQU   1                                                        00834021
                             00002   355 POS      EQU   2                                                        00840021
                             00004   356 NEG      EQU   4                                                        00846021
                             00008   357 ZERO     EQU   8                                                        00852021
                             0000E   358 NOTOV    EQU   14                                                       00858021
                             0000D   359 NOTPOS   EQU   13                                                       00864021
                             0000B   360 NOTNEG   EQU   11                                                       00870021
                             00001   361 ONES     EQU   1                                                        00876021
                             00004   362 MIXED    EQU   4                                                        00882021
                             0000E   363 NOTONE   EQU   14                                                       00888021
                             0000B   364 NOTMXD   EQU   11                                                       00894021
                             00007   365 NOTZER   EQU   7                                                        00900021
                             00000   366 NOP      EQU   0                                                        00906021
                             00039   367 COPYEQ   EQU   57                                                       00912021
                             0003A   368 EOCPEQ   EQU   58                                                       00918021
                             00010   369 FXLEN    EQU   16                  FIXED LENHTG    = 00010000           00924021
1PH20     IKFCBL20                                                                                              PAGE    9
-  LOC  OBJECT CODE    ADDR1 ADDR2  STMT   SOURCE STATEMENT                                       ASM 0201 11.03 02/14/15
0                            00040   370 VLC      EQU   64                  VARIABLE LENGTH = 01000000           00930021
                             00007   371 FILSEC   EQU   7                   FILE SECTION    = BIT PATTERN =      00936021
                             00004   372 WKSSEC   EQU   4                   WK-STORAGE SECT = BIT PATTERN 10     00942021
                             00003   373 AM       EQU   3                                                        00948021
                             00001   374 SYNCH    EQU   1                                                        00954021
                             00002   375 RERUNC   EQU   2                                                        00960021
                             0000B   376 BSCODE   EQU   X'0B'               BSAM TABLE PTR. CODE                 00966021
                             00096   377 RSDUPC EQU   X'96'                COUNT+MASCD FOR LD-REPORT             00972021
                             0001C   378 TOTLTBL  EQU   TIB2-COS                                                 00978021
                             00024   379 REORGTBL EQU   TIB3-COS                                                 00984021
                             0002C   380 APPTBL   EQU   TIB4-COS                                                 00990021
                             00034   381 SMRCDTBL EQU   TIB5-COS                                                 00996021
                             0003C   382 VALGRP   EQU   TIB6-COS                                                 01002021
                             00044   383 PIOTBL   EQU   TIB7-COS                                                 01008021
                             0004C   384 CHKTBL   EQU   TIB8-COS                                                 01014021
                             00054   385 OD2TBL   EQU   TIB9-COS                                                 01020021
                             0005C   386 GPLSTK   EQU   TIB10-COS                                                01026021
                             00064   387 TIBR     EQU   TIB11-COS                                                01032021
                             0006C   388 TIBP     EQU   TIB12-COS                                                01038021
                             0006C   389 RNMTBL   EQU   TIBP                                                     01044021
                             00064   390 RDFSTK   EQU   TIBR                                                     01050021
                             00074   391 LABTBL   EQU   TIB13-COS                                                01056021
                             0007C   392 RCKTBL   EQU   TIB14-COS                                                01062021
                             00084   393 KEYTBL   EQU   TIB15-COS                                                01068021
                             0008C   394 KEYRAN   EQU   TIB16-COS                                                01074021
                             00094   395 BSAMTB   EQU   TIB17-COS                                                01080021
                             0009C   396 TRKTBL   EQU   TIB18-COS                                                01086021
                             000A4   397 SAMETB   EQU   TIB19-COS                                                01092021
                             000B4   398 QRTN     EQU   TIB21-COS                                                01098021
                             000BC   399 QITBL    EQU   TIB22-COS                                                01104021
                             000C4   400 QFILE    EQU   TIB23-COS                                                01110021
                             000CC   401 QVAR     EQU   TIB24-COS                                                01116021
                             000D4   402 QSBL     EQU   TIB25-COS                                           4758 01122021
                             00104   403 INDKEY   EQU   TIB31-COS                                                01128021
                             0010C   404 TTLDTBL  EQU   TIB32-COS          TOTALED AREA TABLE TIB                01134021
                             00114   405 VALTRU   EQU   TIB33-COS                                                01140021
                             0011C   406 KEYTAB   EQU   TIB34-COS                                                01146021
                             00124   407 RUNTBL   EQU   TIB35-COS                                                01152021
                                     408        ACCESS   2                                                       01158021
                                     409+*    TAMER-ACCESS PACKAGE                                               01710020
                                     410+*    TABLE DICTIONARY AREA IN THIS PACKAGE IS 16K                       01800020
                                     411+*                                                                       01890020
                                     412+*                                                                       01980020
                                     413+*    NOTE THAT WHEN A USER STARTS TO BUILD THE DICTIONARY HE MUST FIRST 02070020
                                     414+*    CALL 'INTACC' TO INITIALIZE 'ACCESS'.  THIS INITIALIZATION IS NOT  02160020
                                     415+*    NECESSARY IF THE DICTIONARY IS ALL OR PARTIALLY BUILTA.            02250020
                                     416+*                                                                       02340020
                                     417+*                                                                       02430020
                                     418+*    ORDER OF CORE FOR ACCESS                                           02520020
                                     419+*    LOCATIONS COMMON TO ACCESS AND TAMER                               02610020
                                     420+*    LOCATIONS FOR ROUTINES COMMON TO 'ENT' AND 'L' SERIES              02700020
                                     421+*    LOCATIONS FOR 'L' SERIES                                           02790020
                                     422+*    LOCATIONS FOR 'ENT' SERIES                                         02880020
                                     423+*    ROUTINES COMMON TO 'ENT' AND 'L' SERIES                            02970020
                                     424+*    'L' SERIES                                                         03060020
1PH20     IKFCBL20                                                                                              PAGE   10
-  LOC  OBJECT CODE    ADDR1 ADDR2  STMT   SOURCE STATEMENT                                       ASM 0201 11.03 02/14/15
0                                    425+*    'ENT' SERIES                                                       03150020
                                     426+*                                                                       03240020
                                     427+*                                                                       03330020
1PH20     IKFCBL20                                                                                              PAGE   11
-  LOC  OBJECT CODE    ADDR1 ADDR2  STMT   SOURCE STATEMENT                                       ASM 0201 11.03 02/14/15
0                                    429+*                                                                       03510020
                                     430+*                                                                       03600020
                                     431+*  IMMEDIATE VALUES                                                     03690020
                                     432+*                                                                       03780020
                                     433+*   MASKS  DM PREFIX                                                    03870020
                             00080   434+DMPFT1   EQU   128       TESTS 1ST BIT OF DICT PREFIX  1000 0000        03960020
                             00040   435+DMPFT2   EQU   64        TESTS 2ND BIT OF DICT PREFIX  0100 0000        04050020
                             000FF   436+DMBYT    EQU   255            TESTS WHOLE BYTE                          04140020
                             000F0   437+DMATRB   EQU   240            TESTS FIRST 4 BITS                        04230020
                                     438+*                                                                       04320020
                                     439+*    MASKS TO TEST ROUTINE ENTERED UPON                                 04410020
                             00010   440+DMEPTR   EQU   16             ENTPTR TEST, TESTS 5TH BIT FROM RIGHT     04500020
                             00008   441+DMGPTR   EQU   8              GETPTR TEST, TESTS 4TH BIT FROM RIGHT     04590020
                             00004   442+DMATRP   EQU   4         LATRPT, NOTE ALSO FOR LATGRP                   04680020
                             00008   443+DMACP    EQU   8        TESTS FOR LATACP,LATGRP                         04770020
                             0000C   444+DMACPP   EQU   12       TESTS FOR LATACP (ALSO WORKS FOR LATRPT)        04860020
                             00010   445+DMDELM   EQU   16        LDELNM                                         04950020
                             000C0   446+DMPFXT   EQU   192           TESTS DICT PFX, 1ST 2 BITS  1100 0000      05040020
                             00004   447+DMGRUP   EQU   4             GROUP TEST, 3RD BIT FROM RIGHT             05130020
                                     448+*                                                                       05220020
                                     449+*      EQUATES GIVING DISPLACEMENTS OF NEEDED PARAMS FROM A(COS),WHICH  05310020
                                     450+*      IS THE START-ADDRESS OF COMPILER COMMON.                         05400020
                                     451+*                                                                       05490020
                                     452+*                                                                       05580020
                             000AC   453+LDICOT EQU   TIB20-COS                                                  05670020
                             000AC   454+L8DCOT EQU   TIB20-COS                                                  05760020
                                     455+*                                                                       05850020
                                     456+*                                                                       05940020
                                     457+*                                                                       06030020
                                     458+*                                                                       06120020
                                     459+*      FOLLOWING ARE REGISTER EQUATES FOR TAMER                         06210020
                                     460+*                                                                       06300020
                                     461+*                                                                       06390020
                                     462+*                                                                       06480020
                             0000A   463+BDUMP6   EQU   *              START OF DEBUG DUMP AREA                  06570020
 00000C                              464+       DS    0F                                                         06660020
                                     465+*    ACCESS- TAMER CONSTANTS AND WORK AREA                              06750020
                                     466+*    THESE VALUES ARE UNDER REGISTER 12                                 06840020
                                     467+*                                                                       06930020
                                     468+*      FOLLOWING IS THE TAMER CONSTANT AREA.  TIBS AND TAMMS ASSEMBLED  07020020
                                     469+*      HERE ARE ACCESSIBLE TO ACCESS, AND TO THE PHASE PROGRAMMER.      07110020
                                     470+*                                                                       07200020
                             0000C   471+       USING *,R12             BASE REGISTER FOR ACCESS CONSTANTS.      07290020
                             0000C   472+PBEG12   EQU   *             MUST FOLLOW 'USING' FOR REG12              07380020
 00000C                              473+FRSTAM DS      80F                                                      07470020
 000150                              474+LASTAM DS    D                                                          07560020
 000158                              475+DUMMY1 DS    F                                                          07650020
                                     476+*                                                                       07740020
                                     477+****** PARAMETER LIST FOR STORAGE OF PARAM'S. GOT FROM COMPILER COMMON. 07830020
                                     478+*                                                                       07920020
                                     479+*                                                                       08010020
 00015C                              480+DPARST DS    F                     STORAGE FOR A(COS)PASSED TO PHASE.   08100020
 000160                              481+DPARLS DS    19F                   STORAGE FOR PARAMS MOVE TO ACCESS    08190020
 0001AC                              482+DMDMDM DS    20F                   FROM COMMON.                         08280020
                             00160   483+LPRIME EQU   DPARLS                A(PRIME)                             08370020
1PH20     IKFCBL20                                                                                              PAGE   12
-  LOC  OBJECT CODE    ADDR1 ADDR2  STMT   SOURCE STATEMENT                                       ASM 0201 11.03 02/14/15
0                            00164   484+LINSRT EQU   DPARLS+4              A(INSERT)                            08460020
                             00178   485+DTAMM1 EQU   DPARLS+24             A(LASTAM)                            08550020
 0001FC 00000000                     486+DMVDAD DC    F'0'                  A(MOVDIC), PASSED IN COMMON,STORED   08640020
                                     487+*                                 HERE BY INTACC.                       08730020
                             00200   488+LDUMP6 EQU   *                     END OF DEBUG DUMP AREA               08820020
 000200                              489+PTMSTR DS    F                                                          08910020
 000204 00000090                     490+FDCNT  DC    X'00000090'                                                09000020
 000208 C0DEC0DE                     491+PBCODE DC    X'C0DEC0DE'                                                09090020
 00020C                              492+ADSTOR DS    CL1                                                        09180020
                                     493+*                                                                       09270020
                                     494+*                                                                       09360020
                                     495+*      THE FOLLOWING ARE TAMER ADCONS FOR THE VARIOUS ROUTINE NAMES.    09450020
                                     496+*                                                                       09540020
                                     497+*                                                                       09630020
                                     498+*                                                                       09720020
                                     499+*                                                                       09810020
                                     500+*                                                                       09900020
                                     501+*      FOLLOWING ARE THE ADCONS FOR THE LAST TAMM IN THE TAMM AREA      09990020
                                     502+*      (PRESENTLY USED AS THE TAMM FOR MAIN FREE AREA), AND THE ADDRESS 10080020
                                     503+*      OF THE LAST BYTE OF FREE AREA AVAILABLE FOR TAMER-ACCESS TABLES. 10170020
                                     504+*                                                                       10260020
 00020D 000000
 000210 00000150                     505+ALAST  DC    A(LASTAM)                                                  10350020
 000214                              506+         DS    0F                                                       10440020
                                     507+*                                                                       10530020
                                     508+*  TEMPORARY CELLS  FOR BASIC ASSEMBLER USAGE ONLY                      10620020
                                     509+*                                                                       10710020
 000214 000003D4                     510+DLDHSH   DC    A(DHASH)       DE110                                     10800020
 000218 00000374                     511+DLDINC   DC    A(DINCOR)                                                10890020
 00021C 000002CC                     512+DLGCOD   DC    A(DGRPCD)      DE110                                     10980020
 000220 000002C9                     513+DLHSCD   DC    A(DHSHCD)                                                11070020
 000224 00000228                     514+LDLDIC   DC    A(DLDIC)                                                 11160020
1PH20     IKFCBL20                                                                                              PAGE   13
-  LOC  OBJECT CODE    ADDR1 ADDR2  STMT   SOURCE STATEMENT                                       ASM 0201 11.03 02/14/15
0000228                              516+       DS    0F                                                         11340020
                                     517+*                                                                       11430020
                                     518+*                                                                       11520020
1PH20     IKFCBL20                                                                                              PAGE   14
-  LOC  OBJECT CODE    ADDR1 ADDR2  STMT   SOURCE STATEMENT                                       ASM 0201 11.03 02/14/15
0                                    520+*    ACCESS CONSTANT AND WORK AREAS  REFER. BY REG13                    11700020
                                     521+*                                                                       11790020
                                     522+*    HOUSEKEEPING FOR THE DICTIONARY                                    11880020
                                     523+*    LASTAM IS THE TAMM FOR THE CURRENT FREE AREA                       11970020
                                     524+*                                                                       12060020
                                     525+*                                                                       12150020
                                     526+*    HOUSEKEEPING FOR THE DICOT TABLE, NEEDED BY TAMER                  12240020
                                     527+*    THE DICOT TABLE IS THE TABLE USED TO HOLD INFORMATION ON THE       12330020
                                     528+*    DICTIONARY SEGMENTS.  IT CONTAINS AN ENTRY FOR EACH SECTION AND    12420020
                                     529+*    ITS ORDER CORRESPONDS TO THE ORDER OF THE SECTIONS.                12510020
                                     530+*      EACH ENTRY IS 12 BYTES LONG---                                   12600020
                                     531+*            BYTE  0   = CODE TESTED FOR STATUS OF SECTION.             12690020
                                     532+*            BYTES 1-3 = ADDRESS OF A DICT. SECTION IN CORE.            12780020
                                     533+*            BYTES 4-11= ADDRESS, ON DISK, OF A SPILLED SECTION.        12870020
                                     534+*                                                                       12960020
                                     535+*      THE CORE ADDRESS OF A SPILLED SECTION IS OBSOLETE UNTIL THE      13050020
                                     536+*      SECTION IS READ BACK IN FOR UPDATING.  THEN BOTH ADDRESSES, DISK 13140020
                                     537+*      AND CORE, ARE TRUE.  AFTER SPILL, UNTIL UPDATE, THE TRUE         13230020
                                     538+*      ADDRESS IS THAT IN BYTES 4-11 OF THE DICOT ENTRY FOR THE SECT.   13320020
                                     539+*                                                                       13410020
                                     540+*                                                                       13500020
                                     541+*    TIB20 RESERVED FOR THE DICOT TABLE IN PHASES 1,2,3                 13590020
                                     542+*                                                                       13680020
                                     543+*    PARAMETER LOCATION NEEDED FOR CALL TO PRIME                        13770020
                                     544+*                                                                       13860020
 000228                              545+       DS    0F                                                         13950020
 000228 0C                           546+DLDIC  DC    X'0C'                 ENTRY SIZE IS 12 BYTES.              14040020
 000229 0000AC                       547+       DC    X'0000AC'                                                  14130020
 00022C 00F0                         548+       DC    H'240'       PRIME SIZE OS                                 14220020
 00022E 0078                         549+       DC    H'120'                GROW REQUEST AMOUNT.                 14310020
-
0
                                     551+*      STORE UNDER DATA FOR DINCOR.                                     14490020
 000230                              552+       DS    0F                                                         14580020
 000230 FF000000                     553+DUPDCD DC    X'FF000000'                                                14670020
 000234 0000000C                     554+DCENLG DC    F'12'                 LENGTH OF DICOT TABLE ENTRY.         14760020
 000238 0000000000000000             555+DINSTR DC    5F'0'                                                      14850020
 00024C 0000000000000000             556+DINSTB DC    2F'0'                                                      14940020
1PH20     IKFCBL20                                                                                              PAGE   15
-  LOC  OBJECT CODE    ADDR1 ADDR2  STMT   SOURCE STATEMENT                                       ASM 0201 11.03 02/14/15
0                                    558+*    LOCATIONS FOR BOTH 'ENT' AND 'L' SERIES                            15120020
                                     559+*      SHOULD NOT BE OVERLAID                                           15210020
                                     560+*                                                                       15300020
                                     561+*                                                                       15390020
                                     562+*                                                                       15480020
                                     563+*   REGISTER SAVE AREA                                                  15570020
                                     564+*                                                                       15660020
                                     565+*      'ENT','L' SERIES, 'ENTDEL','LOCNXT' USE SAME AREA SINCE ONLY     15750020
                                     566+*      ONE OF THESE ROUTINES IS CALLED AT A TIME                        15840020
                                     567+*      'DHASH', 'DINCOR' HAVE THEIR OWN AREA SEPARATE SINCE THEY ARE    15930020
                                     568+*      CALLED BY THE OTHER ROUTINES                                     16020020
                                     569+*                                                                       16110020
                                     570+*    'DHASH' STORAGE AREA                                               16200020
 000254                              571+         DS    0F                                                       16290020
 000254                              572+DSTORE   DS    CL4                                                      16380020
 000258                              573+DSTOR1   DS    CL4                                                      16470020
 00025C 0000000000000000             574+D33S14   DC    2F'0'    SAVE AREA FOR R14,R15,UPON DEMORE CALL TO DICSP 16560020
                                     575+*                                                                       16650020
 000264                              576+DRSAVE   DS    CL56      SAVE AREA FOR 'ENT' SERIES, REG. 2-15          16740020
                             00264   577+DL4      EQU   DRSAVE    SAVE AREA FOR 'L' SERIES                       16830020
                                     578+*                                                                       16920020
                                     579+*                                                                       17010020
                                     580+*    SAVE AREAS FOR REG 14,15  ARE UNDER REG12                          17100020
                                     581+*                                                                       17190020
                                     582+*    FOR 'DL' SERIES                                                    17280020
 00029C                              583+D1SV14   DS    F                                                        17370020
 0002A0                              584+DL15     DS    CL4                                                      17460020
 0002A4                              585+         DS    2F                 ADDITIONAL STORAGE, USED IN INTACC    17550020
                                     586+*                                                                       17640020
                                     587+*    FOR 'LOCNXT'                                                       17730020
                             0029C   588+D2SV14   EQU   D1SV14                                                   17820020
                             002A0   589+D2SV15   EQU   DL15                                                     17910020
                                     590+*                                                                       18000020
                                     591+*    FOR 'DE' SERIES                                                    18090020
                             0029C   592+D3SV14   EQU   D1SV14                                                   18180020
                             002A0   593+DS15     EQU   D2SV15                                                   18270020
                                     594+*                                                                       18360020
                                     595+*    FOR 'ENTDEL'                                                       18450020
                             0029C   596+D4SV14   EQU   D1SV14                                                   18540020
                             002A0   597+D4SV15   EQU   D2SV15                                                   18630020
                                     598+*                                                                       18720020
                                     599+*    FOR 'INTACC'                                                       18810020
                             0029C   600+D5SV14   EQU   D1SV14                                                   18900020
                             002A0   601+D5SV15   EQU   D2SV15                                                   18990020
                                     602+*                                                                       19080020
                                     603+*                                                                       19170020
                                     604+*    CONSTANTS, MASKS, WORK AREAS                                       19260020
                                     605+*      COMMON TO BOTH PARTS OF ACCESS                                   19350020
                                     606+*                                                                       19440020
                                     607+*   CONSTANTS                                                           19530020
 0002AC                              608+         DS    0F                                                       19620020
 0002AC 00000209                     609+DHDIV    DC    F'521'        DIVIDE CONSTANT FOR DHASH                  19710020
 0002B0 000001FF                     610+DMDSPL   DC    X'000001FF'    MASKS OUT ALL BUT DISPLAC                 19800020
 0002B4 003FFE00                     611+DMSECT   DC    X'003FFE00'   MASKS OUT ALL BUT SECT. NO.                19890020
 0002B8 00000200                     612+D512     DC    F'512'                                                   19980020
1PH20     IKFCBL20                                                                                              PAGE   16
-  LOC  OBJECT CODE    ADDR1 ADDR2  STMT   SOURCE STATEMENT                                       ASM 0201 11.03 02/14/15
00002BC 00000200                     613+DSUBVL   DC    X'00000200'   USED IN DINCOR TO DECREM. SECT. NO.        20070020
                                     614+*                                                                       20160020
                                     615+*    WORK CELL                                                          20250020
 0002C0                              616+         DS    0F                                                       20340020
 0002C0                              617+DWORK    DS    CL1       DUMMY FOR REG REFER                            20430020
 0002C1                              618+DWORK1   DS    CL3                                                      20520020
 0002C4 00000000                     619+DELSAV   DC    F'0'            FOR DELIM PTR IN CASE SPILLED SECTION    20610020
                                     620+*                                                                       20700020
 0002C8                              621+         DS    0F                                                       20790020
                                     622+*    DHWORD BYTE =0  USED BY DE210                                      20880020
 0002C8 00                           623+DHWORD   DC    X'00'         DUMMY FOR XR PICK-UP, MUST BE ZERO (LTR)   20970020
 0002C9                              624+DHSHCD DS    CL3              DUP. HASH CODE                            21060020
                                     625+*    DGRPCD MUST START ON A FULL WORD BOUNDARY AND MUST FOLLOW DHSHCD.  21150020
                                     626+*    WHEN DUP. HASH AND GROUP CODES APPEAR TOGETHER, THEY ARE MOVED INT 21240020
                                     627+*    THE DICT. AS ONE UNIT  (SEE DMVCOD).                               21330020
 0002CC 400000                       628+DGRPCD   DC    X'400000'     GROUP CODE, 01 IN 1ST 2 BITS               21420020
1PH20     IKFCBL20                                                                                              PAGE   17
-  LOC  OBJECT CODE    ADDR1 ADDR2  STMT   SOURCE STATEMENT                                       ASM 0201 11.03 02/14/15
0                                    630+*   HOUSEKEEPING FOR ACESS ROUTINES  LATRNM,LATRPT,LDELNM,LATACP,LATGRP 21600020
                                     631+*                                                                       21690020
                                     632+*    LOCATIONS FOR 'L' SERIES                                           21780020
                                     633+*      SHOULD NOT BE OVERLAID                                           21870020
 0002D0                              634+         DS    0F                                                       21960020
 0002D0 00000500                     635+DSWTCH   DC    A(DL500)       FOR LATACP SWITCH OFF                     22050020
                                     636+*                                                                       22140020
                                     637+*  MASKS   DM PREFIX                                                    22230020
 0002D4                              638+         DS    0F                                                       22320020
                                     639+*    DMSKCD BYTE0 USED TO SET DLMPTR BYTE0 NON-ZERO                     22410020
 0002D4 003FFFFF                     640+DMSKCD DC    X'003FFFFF'           MASK OUT CODE BITS                   22500020
 0002D8 FF000000                     641+DMSKDL DC    X'FF000000'           BYTE 0 MUST BE NON-ZERO              22590020
 0002DC 00FFFFFF                     642+DMBYT1   DC    X'00FFFFFF'    MASKS OUT 1ST BYTE (AND)                  22680020
                                     643+*                                                                       22770020
                                     644+*    NAME COMPARISON INSTRUCTION                                        22860020
 0002E0 D500 2000 9000 00000 00000   645+DCOMPR CLC   0(0,R2),0(R9)       R2=A(DICT NAME), R9=A(INPUT NAME)      22950020
                                     646+*                                                                       23040020
                                     647+*    LAST VALID ENTRY POINTER (NEEDED FOR LATACP)                       23130020
                                     648+*    BITS 0-7 MUST EQUAL ZERO                                           23220020
 0002E8                              649+         DS    0F                                                       23310020
 0002E8 00000000                     650+DSTART DC    F'0'                 MUST BE SET TO 0.NOT USED ACROSS PH5. 23400020
                                     651+*                                                                       23490020
                                     652+*    'DLMPTR'  SET IN ALL VALID CALLS TO ACCESS BY 'L' ROUTINES,        23580020
                                     653+*    TESTED BY LATACP.  VALUE = GROUP DELIMITER POINTER FOR GROUP ITEMS 23670020
                                     654+*    FOUND BY LATACP, LDELMN, ITS BYTE0 NONZERO FOR ELEM. ITEMS FOUND   23760020
                                     655+*    BY LATACP, SET ZERO BY ALL OTHER ROUTINES.                         23850020
                                     656+*                                                                       23940020
                                     657+*    'DLTEMP'  USED IN 'L' SERIES TO SAVE A(ATTRIB) OF FIRST MATCH      24030020
                                     658+*    FOUND  CHANGE THIS IF 'DLMPTR' USED IN DL300 LOOP                  24120020
 0002EC 00000000                     659+DLMPTR DC    F'0'                  SET TO 0 BY DEFINITION.  2/16/66.    24210020
                             002EC   660+DLTEMP   EQU   DLMPTR                                                   24300020
1PH20     IKFCBL20                                                                                              PAGE   18
-  LOC  OBJECT CODE    ADDR1 ADDR2  STMT   SOURCE STATEMENT                                       ASM 0201 11.03 02/14/15
0                                    662+*   HOUSEKEEPING FOR ENTNAM,ENTPTR,GETPTR                               24480020
                                     663+*      OVERLAID IN PHASE 3                                              24570020
                                     664+*                                                                       24660020
                                     665+*                                                                       24750020
                                     666+*    MASKS FOR 'ENT' SERIES                                             24840020
 0002F0                              667+         DS    0F                                                       24930020
 0002F0 00800000                     668+DMPFX2   DC    X'00800000'    INSERTS PREFIX=2 IN 2ND BYTE              25020020
 0002F4 00C00000                     669+DMPFX3   DC    X'00C00000'    INSERTS PREFIX=3 IN 2ND BYTE              25110020
 0002F8 C00000                       670+DMDLM    DC  X'C00000'       MASK TO CLEAR DELIM PART OF GROUP CODE     25200020
                                     671+*                                                                       25290020
                                     672+*   MOVE INSTRUCTIONS         R2=DICT ADDRESS                           25380020
 0002FC                              673+         DS    0F                                                       25470020
 0002FC D200 2000 8000 00000 00000   674+DMVCOD MVC   0(0,R2),0(R8)  R8= 0GRPCD,DHSHCD                           25560020
 000302 D200 2000 9000 00000 00000   675+DMOVE  MVC   0(0,R2),0(R9)  R9= A(NAME,ATTRIB)                          25650020
1PH20     IKFCBL20                                                                                              PAGE   19
-  LOC  OBJECT CODE    ADDR1 ADDR2  STMT   SOURCE STATEMENT                                       ASM 0201 11.03 02/14/15
0000308 00000000                     677+DTSAVE  DC  F'0'                                                        25830020
1PH20     IKFCBL20                                                                                              PAGE   20
-  LOC  OBJECT CODE    ADDR1 ADDR2  STMT   SOURCE STATEMENT                                       ASM 0201 11.03 02/14/15
-
-
                                     680+******                                                           ****** 26100020
                                     681+******                                                           ****** 26190020
                                     682+*                                                                     * 26280020
                                     683+*                           ** INTACC **                              * 26370020
                                     684+*                                                                     * 26460020
                                     685+*      INTACC---ACCESS INITIALIZATION ROUTINE.                        * 26550020
                                     686+*                                                                     * 26640020
                                     687+*      CALLS----INTACC IS CALLED AS PART OF INITIALIZATION BY         * 26730020
                                     688+*               EACH PHASE USING ACCESS.                              * 26820020
                                     689+*                                                                     * 26910020
                                     690+*      FUNCTION-INTACC PRIMES THE DICOT TABLE AND MOVES ADDRESS       * 27000020
                                     691+*               OF TAMER ROUTINES CALLED BY ACCESS FROM COMMON TO       27090020
                                     692+*               ITS OWN ADDRESS STORAGE AREA.                           27180020
                                     693+*                                                                       27270020
                                     694+*****                                                                   27360020
 00030C                              695+       DS    0F                                                         27450020
                             0030C   696+       USING *,R15                                                      27540020
                             0030C   697+INTACC EQU   *                                                          27630020
 00030C 50C0 F064      00370         698+       ST    R12,DINS12                                                 27720020
 000310 58C0 F060      0036C         699+       L     R12,DATADD                STORE R12.                       27810020
 000314 90E1 C290      0029C         700+       STM   R14,R1,D5SV14             STORE REST UNDER BASE 12         27900020
                                     701+****** THE LOADING OF THE FOLLOWING PARAMETERS MUST BE DONE             27990020
                                     702+****** BEFORE ANY ACCESS ROUTINE OTHER THAN INTACC IS CALLED.           28080020
 000318 5810 C150      0015C         703+       L     R1,DPARST                 LOAD A(COS).                     28170020
 00031C D207 C154 112C 00160 0012C   704+       MVC   LPRIME(8),APRIME                                           28260020
                                     705+*                                      PARAMETER LIST                   28350020
 000322 D203 C16C 1144 00178 00144   706+       MVC   DTAMM1(4),ALSTAM                                           28440020
 000328 D203 C1F0 11C8 001FC 001C8   707+       MVC   DMVDAD(4),AMOVDC                                           28530020
 00032E 9101 1140      00140         708+       TM    ACCESW,1                                                   28620020
 000332 4710 F054      00360         709+       BC    ONES,INTCEX               NO. DICOT TABE PRIMED. EXIT      28710020
 000336 9201 1140      00140         710+       MVI   ACCESW,1                                                   28800020
                                     711+*   ON FIRST CALL TO INTACC, THE HASH TABLE IS ZEROED OUT, AND THE      28890020
                                     712+*   DICOT TABLE IS PRIMED. HASH TABLE=(521) (3)=(1563) BYTES LONG.      28980020
 00033A 5810 1140      00140         713+       L     R1,ACCESW                 A(HASA TABLE)                    29070020
 00033E 41E0 0006      00006         714+       LA    R14,6                     LOAD LOOP COUNT.                 29160020
 000342 D7FE 1000 1000 00000 00000   715+PHTBZR XC    0(255,R1),0(R1)           CLEAR 255 BYTES.                 29250020
 000348 4111 00FF      000FF         716+       LA    R1,255(R1)                INCREMENT.                       29340020
 00034C 46E0 F036      00342         717+       BCT   R14,PHTBZR                                                 29430020
 000350 D720 1000 1000 00000 00000   718+       XC    0(33,R1),0(R1)            CLEAR TABLE.                     29520020
                                     719+*   AFTER ZERO-OUT OF HASH TABLE, PRIME DICOT TABLE.                    29610020
 000356 5810 C218      00224         720+       L     R1,LDLDIC                 LOAD A(DICOT TABLE PARM).        29700020
 00035A 58F0 C154      00160         721+       L     R15,LPRIME                A(PRIME).                        29790020
 00035E 05EF                         722+       BALR  R14,R15                   CALL PRIME                       29880020
                                     723+*   EXIT AFTER INITIALIZATION FINISHED.                                 29970020
 000360 98E1 C290      0029C         724+INTCEX LM    R14,R1,D5SV14                                              30060020
 000364 58C0 F064      00370         725+       L     R12,DINS12                                                 30150020
 000368 07FE                         726+       BCR   15,R14                    RETURN.                          30240020
                                     727+****** THIS AREA IS FOR STORAGE OF R12 UNDER R15,                       30330020
                                     728+****** AND DATA BASE ADDRESS.                                           30420020
1PH20     IKFCBL20                                                                                              PAGE   21
-  LOC  OBJECT CODE    ADDR1 ADDR2  STMT   SOURCE STATEMENT                                       ASM 0201 11.03 02/14/15
000036A 0000
 00036C 0000000C                     729+DATADD DC    A(PBEG12)                 DATA BASE ADDRESS                30510020
 000370 00000000                     730+DINS12 DC    F'0'                      STORAGE FOR CALLER'S REG 12.     30600020
1PH20     IKFCBL20                                                                                              PAGE   22
-  LOC  OBJECT CODE    ADDR1 ADDR2  STMT   SOURCE STATEMENT                                       ASM 0201 11.03 02/14/15
0                                    732+*                                                                     * 30780020
                                     733+*                           **  DINCOR  **                            * 30870020
                                     734+*                                                                     * 30960020
                                     735+*      DINCOR--- GIVEN A DICTIONARY POINTER, DINCOR CHECKS TO SEE     * 31050020
                                     736+*                IF THE SECTION FOR THAT POINTER IS IN CORE.          * 31140020
                                     737+*                IF IT IS- DINCOR RETURNS WITH THE ENTRY ADDRESS.     * 31230020
                                     738+*                IF NOT--- DINCOR CALLS THE ROUTINE WHICH READS       * 31320020
                                     739+*                          IN THE SPILLED SECTION,THE RETURNS WITH    * 31410020
                                     740+*                          THE ENTRY ADDRESS.                         * 31500020
                                     741+*      INPUT---- R2 = DICTIONARY POINTER                              * 31590020
                                     742+*      OUTPUT--- R2 = ENTRY ADDRESS .                                 * 31680020
                                     743+*                R0 = SEGMENT ADDRESS,USED IN LOCNXT.                 * 31770020
                                     744+*                                                                     * 31860020
                                     745+******                                                           ****** 31950020
-
0
 000374                              747+       DS    0F                                                         32130020
                             00374   748+       USING *,R15                                                      32220020
                             00374   749+DINCOR EQU   *                                                          32310020
 000374 9037 C22C      00238         750+       STM   R3,R7,DINSTR          STORE REGISTERS.                     32400020
 000378 90EF C240      0024C         751+       STM   R14,R15,DINSTB        STORE DINCOR BASE ADDRESS,RETURN AD. 32490020
 00037C 1852                         752+       LR    R5,R2                 LOAD DICT.POINTER                    32580020
 00037E 5450 C2A8      002B4         753+       N     R5,DMSECT             MASK OUT SECT. NUMBER.               32670020
 000382 5B50 C2B0      002BC         754+       S     R5,DSUBVL             SUB X'200' FOR DICOT SECT.NUMBER--   32760020
                                     755+*                                  GIVING 1 SECTION LOWER THAN SECTION  32850020
                                     756+*                                  VALUE IN POINTER.                    32940020
 000386 8850 0009      00009         757+       SRL   R5,9                  SHIFT DOWN TO OBTAIN SECTION NUMBER. 33030020
                                     758+*                                  0 FOR SECTION 1,                     33120020
                                     759+*                                  1 FOR SECTION 2,                     33210020
                                     760+*                                  2 FOR SECTION 3, ETC.                33300020
 00038A 5C40 C228      00234         761+       M     R4,DCENLG             MULTIPLY BY LGTH OF DICOT ENTRY.     33390020
                                     762+*                                  RESULT,IN R5, IS DISPLACEMENT.       33480020
 00038E 5870 C150      0015C         763+       L     R7,DPARST             LOAD  A(COS).                        33570020
 000392 4177 00AC      000AC         764+       LA    R7,LDICOT(R7)         OBTAIN A(TIB20)= A(DICOT TIB).       33660020
 000396 5877 0000      00000         765+       L     R7,0(R7)              LOAD A(DICOT TAMM).                  33750020
 00039A 5877 0000      00000         766+       L     R7,0(R7)              LOAD A(DICOT TABLE).                 33840020
 00039E 4135 7000      00000         767+       LA    R3,0(R5,R7)           LOAD A(ENTRY FOR POINTER).           33930020
0
                                     769+*      TEST HERE FOR SECTION IN CORE, OR SPILLED SECTION.               34110020
 0003A2 9180 3000      00000         770+       TM    0(R3),128             HAS SECTION BEEN SPILLED?            34200020
 0003A6 4780 F04C      003C0         771+       BC    ZERO,DINSCA              NO. LOAD ADDRESS OF SECTION.      34290020
 0003AA 9160 3000      00000         772+       TM    0(R3),96                 YES.HAS IT BEEN READ IN,UPDATED?  34380020
 0003AE 4710 F04C      003C0         773+       BC    ONES,DINSCA                 YES.THEN CORE ADDRESS IS VALID 34470020
0
                                     775+*      THIS CODE CALLS TAMER'S MOVDIC ROUTINE, WHICH READS IN SPILLED   34650020
                                     776+*      SECTION,AND ADJUSTS THE DICOT ENTRY FOR IT ACCORDINGLY.          34740020
                                     777+*      MOVDIC RETURNS THE SECTION ADDRESS IN R0.                        34830020
0
 0003B2 58F0 C1F0      001FC         779+DGTSPL L     R15,DMVDAD                  NO. LOAD A(MOVDIC).            35010020
1PH20     IKFCBL20                                                                                              PAGE   23
-  LOC  OBJECT CODE    ADDR1 ADDR2  STMT   SOURCE STATEMENT                                       ASM 0201 11.03 02/14/15
00003B6 56F0 C224      00230         780+       O     R15,DUPDCD                      SET HIGH BYTE OF 15 =X'FF' 35100020
 0003BA 05EF                         781+       BALR  R14,R15               CALL MOVDIC.                         35190020
                                     782+*      WHEN DINCOR CALLS MOVDIC, IT PASSES A(DICOT ENTRY)FOR SECTION    35280020
                                     783+*      IN R3. MOVDIC PLACES IN-CORE ADDR. OF SECT. IN DICOT TABLE.      35370020
 0003BC 98EF C240      0024C         784+       LM    R14,R15,DINSTB        RESTORE A(DINCOR),RETURN ADDRESS.    35460020
 0003C0 5803 0000      00000         785+DINSCA L     R0,0(R3)                 NO. LOAD ADDRESS OF SECTION.      35550020
 0003C4 5400 C2D0      002DC         786+       N     R0,DMBYT1             MASK OUT TOP BYTE IN ADDRESS REG.    35640020
 0003C8 5420 C2A4      002B0         787+       N     R2,DMDSPL             MASK OUT ALL BUT DISPLACEMENT.       35730020
 0003CC 1A20                         788+       AR    R2,R0                 OBTAIN ADDRESS OF ENTRY.             35820020
0
 0003CE 9837 C22C      00238         790+DINCEX LM    R3,R7,DINSTR          RELOAD REGISTERS USED.               36000020
 0003D2 07FE                         791+       BCR   15,R14                RETURN TO CALL                       36090020
1PH20     IKFCBL20                                                                                              PAGE   24
-  LOC  OBJECT CODE    ADDR1 ADDR2  STMT   SOURCE STATEMENT                                       ASM 0201 11.03 02/14/15
1PH20     IKFCBL20                                                                                              PAGE   25
-  LOC  OBJECT CODE    ADDR1 ADDR2  STMT   SOURCE STATEMENT                                       ASM 0201 11.03 02/14/15
0                                    794+*   ROUTINE 'DHASH'                                                     36360020
                                     795+*       USED BY BOTH 'ENT','L' SERIES                                   36450020
                                     796+*                                                                       36540020
                                     797+*     HASHES BCD NAME, LOCATES CORRES. HASH TABLE ENTRY                 36630020
                                     798+*    INPUT  R9=A(BCD NAME)       'ENT'  R9  'L' R9                      36720020
                                     799+*           R11= BCD NAME CNT            R11     R11                    36810020
                                     800+*    OUTPUT R8= 0,DICT PNTR             R8      R8                      36900020
                                     801+*           R10= A(HASH TABLE ENTRY)     R10     R10                    36990020
                                     802+*           R8/R9  EVEN/ODD  DIVIDEND                                   37080020
                                     803+*           R10/R11  EVEN/ODD  INCREM./COMPAR.                          37170020
                                     804+*                                                                       37260020
                                     805+*    HASHING FUNCTION                                                   37350020
                                     806+*      SEGMENT NAME (INCL. CNT) INTO 4 BYTE LENGTHS, ADD LENGTHS        37440020
                                     807+*      TOGETHER LOGICALLY, DIVIDE SUM BY SIZE OF HASH TABLE, MULT       37530020
                                     808+*      REMAIN. BY 3 TO OBTAIN DISPL. ADD IT TO A(HASH TABLE) AND        37620020
                                     809+*      PICK UP CORRES. ENTRY                                            37710020
                                     810+*      ENTRY=0 OR DICT. PNTR OF LAST BCD NAME WHICH HASHED TO THIS LOC  37800020
                                     811+*                                                                       37890020
                                     812+*     NOTE THAT INPUT NAME IS PADDED OUT WITH ZEROES SO 4 BYTES CAN BE  37980020
                                     813+*     ADDED AT A TIME                                                   38070020
                                     814+*                                                                       38160020
                                     815+*                                                                       38250020
 0003D4                              816+         DS    0F                                                       38340020
                             003D4   817+       USING *,R15                                                      38430020
                             003D4   818+DHASH    EQU   *                                                        38520020
 0003D4 5090 C248      00254         819+       ST    R9,DSTORE                                                  38610020
 0003D8 41A0 0004      00004         820+       LA    R10,4(R0,R0)    R10=INCREMENT=4                            38700020
 0003DC 1B88                         821+       SR    R8,R8       R8= CNTR =0,4,...                              38790020
 0003DE 1B00                         822+       SR    R0,R0         R0=SUM, INITIALLY ZERO                       38880020
 0003E0 5E09 8000      00000         823+DHLOOP AL    R0,0(R9,R8)    NOTE, NO OVERFLOW INTERRUPT                 38970020
 0003E4 878A F00C      003E0         824+       BXLE  R8,R10,DHLOOP      R8= R10+1 =COMPARAND                    39060020
 0003E8 1890                         825+       LR    R9,R0                                                      39150020
 0003EA 1B88                         826+       SR    R8,R8       R9= R8+1                                       39240020
 0003EC 5D80 C2A0      002AC         827+       D     R8,DHDIV     R8/R9 =DIVIDEND,  SIGN IS +                   39330020
 0003F0 41A8 8000      00000         828+       LA    R10,0(R8,R8)     R8= REMAINDER, MULT BY 3                  39420020
 0003F4 1AA8                         829+       AR    R10,R8                                                     39510020
                                     830+*     DISPLAC COMPUTED, OBTAIN ENTRY                                    39600020
                                     831+*                                                                       39690020
                                     832+*      TEMPORARY HASH TABLE PLACEMENT OF HASH TABLE,'PHASHT', AT END    39780020
                                     833+*      OF TAMER CODING IN PHASE 0.                                      39870020
                                     834+*                                                                       39960020
 0003F6 5880 C150      0015C         835+       L     R8,DPARST           LOAD ADDRESS OF COS.                   40050020
 0003FA 5888 0140      00140         836+       L     R8,ACCESW-COS(R8)         A(PHASHT)                        40140020
 0003FE 41AA 8000      00000         837+       LA    R10,0(R10,R8)       INCREMENT TO DISPLACEMENT IN HASH      40230020
                                     838+*                                 TABLE FOR CURRENT DICTIONARY ENTRY.   40320020
 000402 D202 C2BD A000 002C9 00000   839+       MVC   DHSHCD(3),0(R10)                                           40410020
 000408 5880 C2BC      002C8         840+       L     R8,DHWORD    1ST BYTE MUST = 0                             40500020
 00040C 5890 C248      00254         841+       L     R9,DSTORE                                                  40590020
 000410 07FE                         842+       BCR   UNCOND,R14                                                 40680020
                                     843+*                                                                       40770020
                                     844+*                                                                       40860020
1PH20     IKFCBL20                                                                                              PAGE   26
-  LOC  OBJECT CODE    ADDR1 ADDR2  STMT   SOURCE STATEMENT                                       ASM 0201 11.03 02/14/15
0                                    846+*   ACCESS ROUTINES   LATRNM,LATRPT,LDELNM,LATACP,LATGRP                41040020
                                     847+*     'L' (LOCATE) SERIES    'DL' PREFIX                                41130020
                                     848+*    NOTE  SHOULD NEVER USE LATACP FOLLOWING AN INVALID CALL TO ACCESS. 41220020
                                     849+*    LATACP TESTS 'DLMPTR', SET IN LAST VALID CALL TO ACCESS.           41310020
                                     850+*    'DLMPTR' = GROUP DELIMITER POINTER IF LAST CALL WAS TO LATACP,     41400020
                                     851+*    LDELMN AND ENTRY WAS VALID AND GROUP ITEM.  'DLMPTR' BYTE0 NONZERO 41490020
                                     852+*    IF LAST CALL WAS BY LATACP AND ELEM. ITEM WAS FOUND.  'DLMPTR'     41580020
                                     853+*    SET ZERO BY ALL OTHER ROUTINES.                                    41670020
                                     854+*                                                                       41760020
                                     855+*                                                                       41850020
 000414                              856+         DS    0F                                                       41940020
                             00414   857+DLBEG    EQU   *                                                        42030020
                             00414   858+LATRNM   EQU   *                                                        42120020
                             00414   859+LATRPT   EQU   *                                                        42210020
                             00414   860+LDELNM   EQU   *                                                        42300020
                             00414   861+LATACP   EQU   *                                                        42390020
                             00414   862+LATGRP   EQU   *                                                        42480020
                                     863+*                                                                       42570020
                             00414   864+       USING *,R15                                                      42660020
 000414 50C0 F220      00634         865+       ST    R12,D1SV12    REG12 IS USED TO REFER. CONSTANTSETC         42750020
 000418 58C0 F218      0062C         866+       L     R12,D1RG12                                                 42840020
 00041C 90EF C290      0029C         867+       STM   R14,R15,D1SV14     REG13 IS NOT USED SO NOT SAVED          42930020
 000420 9108 1000      00000         868+       TM    0(R1),DMACP                                                43020020
 000424 4780 F078      0048C         869+         BC    ZERO,DL200                                               43110020
                                     870+*                                                                       43200020
                                     871+*    LATACP, LATGRP ENTRY   COMPUTE LIMITS FOR ENTRY TO BE LOCATED      43290020
                                     872+*    DSTART WILL = LOWER LIMIT OF ENTRIES TO SCAN, IE. = HEADER GROUP   43380020
                                     873+*    POINTER.  R5 WILL = UPPER LIMIT OF ENTRIES TO SCAN, IE.= DELIMITER 43470020
                                     874+*    PONTER.  IN LATGRP, PICK UP DELIMITER POINTER FROM GROUP HEADER    43560020
                                     875+*    DICT. ENTRY.  IN LATACP, TEST 'DLMPTR'  (SEE COMMENTS).            43650020
 000428 904B C258      00264         876+DL100  STM   R4,R11,DL4                                                 43740020
 00042C 1B66                         877+       SR    R6,R6          SET LATACP SWITCH ON                        43830020
 00042E 9104 1000      00000         878+       TM    0(R1),DMATRP                                               43920020
 000432 4770 F040      00454         879+         BC    NOTZER,DL150                                             44010020
                                     880+*                                                                       44100020
                                     881+*    LATACP ENTRY, CHECK 'DLMPTR'                                       44190020
                                     882+*    'DLMPTR' = GROUP DELIMITER POINTER IF LAST CALL TO ACCESS WAS BY   44280020
                                     883+*    LDELMN OR LATACP AND ENTRY WAS VALID AND GROUP ITEM.               44370020
                                     884+*                                                                       44460020
 000436 5820 C2DC      002E8         885+DL110  L     R2,DSTART     DSTART= LAST VALID ENTRY POINTER             44550020
 00043A 5850 C2E0      002EC         886+       L     R5,DLMPTR                                                  44640020
 00043E 1255                         887+       LTR   R5,R5                                                      44730020
 000440 4780 F048      0045C         888+         BC    ZERO,DL160                                               44820020
 000444 91FF C2E0      002EC         889+         TM    DLMPTR,DMBYT  IF BYTE0 IS NONZERO, LAST ITEM WAS ELEM.   44910020
 000448 4780 F048      0045C         890+         BC    ZERO,DL160                                               45000020
                                     891+*                                                                       45090020
                                     892+*    LAST CALL WAS FOR ELEM. ITEM, INPUT ITEM ELEM. ITEM  ERROR EXIT    45180020
 00044C 41E0 000C      0000C         893+DL130  LA    R14,12(R0)                                                 45270020
 000450 47F0 F1B6      005CA         894+         BC    UNCOND,DXEXIT                                            45360020
                                     895+*                                                                       45450020
                                     896+*    LATGRP ENTRY,  LATACP ENTRY WHEN LAST CALL WAS NOT BY LATACP,      45540020
                                     897+*    LDELMN.  REFERENCE GROUP HEADER DICT. ENTRY TO OBTAIN DELIMITER    45630020
                                     898+*    POINTER                                                            45720020
                                     899+*    NOTE THAT 'DSTART' BYTE0 MUST =0  OK SINCE LATGRP INPUT CODE =0.   45810020
 000454 5821 0004      00004         900+DL150  L     R2,4(R1)      LATGRP                                       45900020
1PH20     IKFCBL20                                                                                              PAGE   27
-  LOC  OBJECT CODE    ADDR1 ADDR2  STMT   SOURCE STATEMENT                                       ASM 0201 11.03 02/14/15
0000458 5020 C2DC      002E8         901+       ST    R2,DSTART                                                  45990020
                                     902+*                                                                       46080020
                                     903+*   NOW OBTAIN DELIM.,IF ANY, FOR GROUP ITEM    SET R5=DELIM            46170020
 00045C 58F0 C20C      00218         904+DL160  L     R15,DLDINC    R2= INPUT                                    46260020
 000460 05EF                         905+       BALR  R14,R15                                                    46350020
 000462 58F0 C294      002A0         906+       L     R15,DL15       OUTPUT   R2=DICT ADDRESS                    46440020
 000466 9180 2000      00000         907+       TM    0(R2),DMPFT1                                               46530020
 00046A 4780 F05E      00472         908+         BC    ZERO,DL170                                               46620020
 00046E 4122 0003      00003         909+       LA    R2,3(R2)       UPDATE PAST HASH CODE                       46710020
 000472 9140 2000      00000         910+DL170  TM    0(R2),DMPFT2                                               46800020
 000476 4780 F038      0044C         911+         BC    ZERO,DL130    BRANCH IF NO GROUP CODE                    46890020
 00047A D202 C2B5 2000 002C1 00000   912+       MVC   DWORK1(3),0(R2)                                            46980020
 000480 5850 C2B4      002C0         913+       L     R5,DWORK       SET R5=GROUP DELIM POINTER                  47070020
 000484 5450 C2C8      002D4         914+       N     R5,DMSKCD      MASK OUT CODE BITS                          47160020
 000488 47F0 F088      0049C         915+         BC    UNCOND,DL210                                             47250020
                                     916+*                                                                       47340020
                                     917+*   INITIAL.   LATRNM,LATRPT,LDELNM     TEST IF LATRPT                  47430020
 00048C 9104 1000      00000         918+DL200  TM    0(R1),DMATRP   SUFFIC TEST   CANNOT BE LATGRP              47520020
 000490 4710 F1CC      005E0         919+         BC    ONES,DL700                                               47610020
 000494 904B C258      00264         920+       STM   R4,R11,DL4                                                 47700020
 000498 5860 C2C4      002D0         921+       L     R6,DSWTCH      SET LATACP SWITCH OFF                       47790020
                                     922+*                                                                       47880020
                                     923+*   PROCESSING FOR ALL ROUTINES EXCEPT LATRPT                           47970020
                                     924+*    HASH THE INPUT NAME, INVESTIGATE DICT. ENTRIES THAT HASH TO SAME   48060020
                                     925+*    VALUE.  INITIALLY AGREE CODE =0.  WHEN 1ST MATCH IS FOUND, SET     48150020
                                     926+*    AGREE CODE = ITS POINTER.                                          48240020
 00049C 1B33                         927+DL210  SR    R3,R3     SET AGREE CODE=0                                 48330020
 00049E 5891 0000      00000         928+       L     R9,0(R1)      SET R9= A(INPUT BCD NAME)                    48420020
 0004A2 1BBB                         929+       SR    R11,R11                                                    48510020
 0004A4 43B9 0000      00000         930+       IC    R11,0(R9)  SET R11=INPUT NAME CNT                          48600020
 0004A8 58F0 C208      00214         931+       L     R15,DLDHSH                                                 48690020
 0004AC 05EF                         932+       BALR  R14,R15                                                    48780020
 0004AE 58F0 C294      002A0         933+       L     R15,DL15                                                   48870020
 0004B2 1288                         934+       LTR   R8,R8     DHASH OUTPUT  R8= 0,DICT POINTER                 48960020
 0004B4 4770 F0AC      004C0         935+         BC    NOTZER,DL300                                             49050020
 0004B8 41E0 0004      00004         936+       LA    R14,4(R0,R0)     NO POINTER PRESENT  ERROR EXIT            49140020
 0004BC 47F0 F1B6      005CA         937+         BC    UNCOND,DXEXIT                                            49230020
                                     938+*                                                                       49320020
                                     939+*    LOOP  CHECK THRO ALL DUP. HASH NAMES UNTIL NO MORE FOUND OR 2      49410020
                                     940+*          MATCHES FOUND                                                49500020
                                     941+*          R8= CURRENT TEST POINTER       LOOP DL300-DL550              49590020
                                     942+*          INITIAL VALUE OF CURRENT POINTER = C(HASH TABLE ENTRY).      49680020
                                     943+*                                                                       49770020
                                     944+*   LATACP ENTRY   TEST IF CURRENT POINTER POINTS TO ENTRY BETWEEN      49860020
                                     945+*      GROUP HEADER AND DELIMITER                                       49950020
                                     946+*      IF NOT, CHECK NEXT DUP HASH POINTER IF ANY                       50040020
                                     947+*    TEST IF LATACP, LATGRP ENTRY  (R6=0)                               50130020
                                     948+*    IF YES, TEST IF CURRENT POINTER LESS THAN GROUP HEADER POINTER     50220020
 0004C0 1266                         949+DL300  LTR   R6,R6                                                      50310020
 0004C2 4770 F0BA      004CE         950+         BC    NOTZER,DL310                                             50400020
 0004C6 5980 C2DC      002E8         951+       C     R8,DSTART                                                  50490020
 0004CA 4740 F128      0053C         952+         BC    LO,DL560      CURRENT POINTER LESS, DISCONTINUE SEARCH   50580020
 0004CE 1828                         953+DL310  LR    R2,R8                                                      50670020
 0004D0 58F0 C20C      00218         954+       L     R15,DLDINC                                                 50760020
 0004D4 05EF                         955+       BALR  R14,R15        LOCATE ENTRY                                50850020
1PH20     IKFCBL20                                                                                              PAGE   28
-  LOC  OBJECT CODE    ADDR1 ADDR2  STMT   SOURCE STATEMENT                                       ASM 0201 11.03 02/14/15
00004D6 58F0 C294      002A0         956+       L     R15,DL15       OUTPUT   R2=DICT ADDRESS                    50940020
 0004DA 1B77                         957+       SR    R7,R7          R7= DUP HASH INDICATOR                      51030020
 0004DC 9180 2000      00000         958+       TM    0(R2),DMPFT1                                               51120020
 0004E0 4780 F0E2      004F6         959+         BC    ZERO,DL400                                               51210020
 0004E4 D202 C2B5 2000 002C1 00000   960+       MVC   DWORK1(3),0(R2)     SET R7=DUP HASH POINTER                51300020
 0004EA 5870 C2B4      002C0         961+       L     R7,DWORK                                                   51390020
 0004EE 5470 C2C8      002D4         962+       N     R7,DMSKCD      MASK OUT CODE BITS                          51480020
 0004F2 4122 0003      00003         963+       LA    R2,3(R2,R0)                                                51570020
                                     964+*                                                                       51660020
                                     965+*    AGAIN, TEST IF LATACP, LATGRP ENTRY  (R6=0)                        51750020
                                     966+*      NOTE  1ST TEST (DL300) WAS TO AVOID POSSIBLE UNNECESSARY         51840020
                                     967+*      RETRIEVAL OF A SEGMENT                                           51930020
                                     968+*      IF YES, CHECK FOR MATCH ONLY IF CURRENT POINTER LESS THAN        52020020
                                     969+*      DELIMITER POINTER                                                52110020
 0004F6 1266                         970+DL400  LTR   R6,R6                                                      52200020
 0004F8 0776                         971+       BCR   NOTZER,R6      IF NOT, R6=DL500                            52290020
                                     972+*                                                                       52380020
 0004FA 1985                         973+       CR    R8,R5          R5=DELIMITER                                52470020
 0004FC 47B0 F11C      00530         974+         BC    NOTLO,DL550                                              52560020
                                     975+*                                                                       52650020
                                     976+*   DOES DICT. NAME AGREE WITH INPUT NAME                               52740020
                                     977+*    NOTE  DL500 IS THE TRANSFER POINT IN LATACP SWITCH                 52830020
 000500 1BAA                         978+DL500  SR    R10,R10          R10 INDICATOR FOR LDELNM                  52920020
 000502 9140 2000      00000         979+       TM    0(R2),DMPFT2                                               53010020
 000506 4780 F0FC      00510         980+         BC    ZERO,DL510                                               53100020
 00050A 18A2                         981+       LR    R10,R2          SET R10=A(GROUP CODE)                      53190020
 00050C 4122 0003      00003         982+       LA    R2,3(R2)                                                   53280020
                                     983+*    NOTE  R11= CORRECT VALUE, 1 LESS THAN NO. OF BYTES TO BE COMPARED  53370020
 000510 44B0 C2D4      002E0         984+DL510  EX    R11,DCOMPR     COMPARE NAMES, R11=INPUT NAME CNT           53460020
 000514 4770 F11C      00530         985+         BC    NOTEQ,DL550                                              53550020
 000518 1233                         986+       LTR   R3,R3          TEST AGREE CODE                             53640020
 00051A 4780 F112      00526         987+         BC    ZERO,DL520                                               53730020
                                     988+*                                                                       53820020
                                     989+*   NAMES AGREE, NOT FIRST MATCH, ERROR EXIT                            53910020
 00051E 41E0 0008      00008         990+       LA    R14,8(R0)                                                  54000020
 000522 47F0 F1B6      005CA         991+         BC    UNCOND,DXEXIT                                            54090020
                                     992+*                                                                       54180020
                                     993+*                                                                       54270020
                                     994+*   NAMES AGREE, FIRST MATCH                                            54360020
                                     995+*    SET R3= ITS DICT POINTER                                           54450020
                                     996+*    SET R4 =A(GROUP CODE OF 1ST MATCH)                                 54540020
 000526 1838                         997+DL520  LR    R3,R8                                                      54630020
 000528 184A                         998+       LR    R4,R10                                                     54720020
 00052A D202 C2B8 A000 002C4 00000   999+         MVC   DELSAV(3),0(R10)                                         54810020
                                    1000+*                                                                       54900020
                                    1001+*    DOES THIS ENTRY POINT TO ANOTHER DUP HASH VALUE                    54990020
 000530 1277                        1002+DL550  LTR   R7,R7                                                      55080020
 000532 4780 F128      0053C        1003+         BC    ZERO,DL560                                               55170020
 000536 1887                        1004+       LR    R8,R7          YES, SET CURRENT PNTR= DUP HASH POINTER     55260020
 000538 47F0 F0AC      004C0        1005+         BC    UNCOND,DL300                                             55350020
                                    1006+*                                                                       55440020
                                    1007+*    NO MORE DUP HASH, CHECK IF MATCH WAS EVER FOUND                    55530020
 00053C 1233                        1008+DL560  LTR   R3,R3                                                      55620020
 00053E 4770 F136      0054A        1009+         BC    NOTZER,DLEXIT                                            55710020
 000542 41E0 0004      00004        1010+       LA    R14,4(R0)      NO, ERROR EXIT                              55800020
1PH20     IKFCBL20                                                                                              PAGE   29
-  LOC  OBJECT CODE    ADDR1 ADDR2  STMT   SOURCE STATEMENT                                       ASM 0201 11.03 02/14/15
0000546 47F0 F1B6      005CA        1011+         BC    UNCOND,DXEXIT                                            55890020
                                    1012+*                                                                       55980020
                                    1013+*    VALID ENTRY EXIT    OUTPUT IN REG 2,3,15   REG4 RESTORED           56070020
                                    1014+*    TEST IF LDELMN, LATACP ENTRY                                       56160020
                                    1015+*    IF YES, TEST IF ENTRY IS GROUP ITEM                                56250020
                                    1016+*    R4 = A(GROUP CODE, IF ANY, OF MATCH)                               56340020
                             0054A  1017+DL600    EQU   *                                                        56430020
 00054A 1823                        1018+DLEXIT LR    R2,R3                                                      56520020
 00054C 58F0 C20C      00218        1019+       L     R15,DLDINC                                                 56610020
 000550 05EF                        1020+       BALR  R14,R15                                                    56700020
 000552 58F0 C294      002A0        1021+       L     R15,DL15                                                   56790020
 000556 91C0 2000      00000        1022+       TM    0(R2),DMPFXT                                               56880020
 00055A 4780 F156      0056A        1023+       BC    ZERO,DL602                                                 56970020
 00055E 4122 0003      00003        1024+       LA    R2,3(R2)                                                   57060020
 000562 4740 F156      0056A        1025+       BC    MIXED,DL602                                                57150020
 000566 4122 0003      00003        1026+       LA    R2,3(R2)                                                   57240020
                             0056A  1027+DL602  EQU   *                                                          57330020
 00056A 4122 B001      00001        1028+       LA    R2,1(R2,R11)                                               57420020
 00056E 9110 1000      00000        1029+       TM    0(R1),DMDELM                                               57510020
 000572 4780 F170      00584        1030+         BC    ZERO,DL610                                               57600020
 000576 1244                        1031+       LTR   R4,R4         LDELMN ENTRY                                 57690020
 000578 4770 F186      0059A        1032+         BC    NOTZER,DL620                                             57780020
                                    1033+*                                                                       57870020
                                    1034+*   LDELNM  INPUT NAME ELEM ITEM, ERROR EXIT  REG2,3 SET UP, REG4 UNCHG 57960020
 00057C 41E0 000C      0000C        1035+       LA    R14,12(R0)                                                 58050020
 000580 47F0 F1B6      005CA        1036+         BC    UNCOND,DXEXIT  RESTORE REG4                              58140020
                                    1037+*                                                                       58230020
                                    1038+*    NOT LDELMN, TEST IF LATACP                                         58320020
 000584 910C 1000      00000        1039+DL610  TM    0(R1),DMACPP  NOTE  CANNOT BE LATRPT SO TEST IS OK         58410020
 000588 47B0 F19C      005B0        1040+         BC    NOTMXD,DL640                                             58500020
                                    1041+*    LATACP,  IF NOT GROUP ITEM, SET 'DLMPTR' BYTE0 NONZERO             58590020
 00058C 1244                        1042+       LTR   R4,R4                                                      58680020
 00058E 4770 F186      0059A        1043+         BC    NOTZER,DL620                                             58770020
 000592 5840 C2CC      002D8        1044+       L     R4,DMSKDL             (DMSKDL) BYTE 0 = FF                 58860020
 000596 47F0 F19E      005B2        1045+         BC    UNCOND,DL650                                             58950020
                                    1046+*                                                                       59040020
                                    1047+*    LATACP, LDELMN ENTRY AND A GROUP ITEM                              59130020
                                    1048+*    SET 'DLMPTR', REG1 = GROUP DELIMITER POINTER  (BYTE0=0)            59220020
 00059A D202 C2B5 C2B8 002C1 002C4  1049+DL620    MVC   DWORK1(3),DELSAV                                         59310020
 0005A0 5810 C2B4      002C0        1050+       L     R1,DWORK                                                   59400020
 0005A4 5410 C2C8      002D4        1051+       N     R1,DMSKCD     MASK OUT CODE                                59490020
 0005A8 5010 C2E0      002EC        1052+       ST    R1,DLMPTR                                                  59580020
 0005AC 47F0 F1A2      005B6        1053+         BC    UNCOND,DL660                                             59670020
                                    1054+*                                                                       59760020
 0005B0 1844                        1055+DL640  LR    R4,R4         NOT LATACP, LDELMN                           59850020
 0005B2 5040 C2E0      002EC        1056+DL650  ST    R4,DLMPTR     SET UP 'DLMPTR'                              59940020
                                    1057+*    BYTE0=0  AS REQUIRED FOR DSTART                                    60030020
 0005B6 5030 C2DC      002E8        1058+DL660  ST    R3,DSTART     SET DSTART=VALID ENTRY DICT. POINTER         60120020
 0005BA 984B C258      00264        1059+       LM    R4,R11,DL4                                                 60210020
 0005BE 58E0 C290      0029C        1060+       L     R14,D1SV14    MUST PRECECE LOAD OF REG12                   60300020
 0005C2 58C0 F220      00634        1061+       L     R12,D1SV12    REG15 VALUE OKAY                             60390020
 0005C6 1BFF                        1062+       SR    R15,R15       NOW SET REG15 =RETURN VALUE                  60480020
 0005C8 07FE                        1063+       BCR   UNCOND,R14                                                 60570020
                                    1064+*                                                                       60660020
                                    1065+*    ERROR EXIT  SET UP REG15                                           60750020
1PH20     IKFCBL20                                                                                              PAGE   30
-  LOC  OBJECT CODE    ADDR1 ADDR2  STMT   SOURCE STATEMENT                                       ASM 0201 11.03 02/14/15
00005CA 50E0 F21C      00630        1066+DXEXIT ST    R14,D1SVEM    SAVE ERROR CODE, CANNOT SET REG15 YET        60840020
 0005CE 984B C258      00264        1067+       LM    R4,R11,DL4                                                 60930020
 0005D2 58E0 C290      0029C        1068+       L     R14,D1SV14    MUST PRECEDE LOAD OF REG12                   61020020
 0005D6 58C0 F220      00634        1069+       L     R12,D1SV12    REG15 VALUE OKAY                             61110020
 0005DA 58F0 F21C      00630        1070+       L     R15,D1SVEM    LOAD REG15 WITH ERROR CODE VALUE             61200020
 0005DE 07FE                        1071+       BCR   UNCOND,R14                                                 61290020
                                    1072+*                                                                       61380020
                                    1073+*    LATRPT ENTRY, SET REG2=A(ATTRIB)                                   61470020
                                    1074+*    USES R2, R11                                                       61560020
 0005E0 50B0 C258      00264        1075+DL700  ST    R11,DL4                                                    61650020
 0005E4 5821 0000      00000        1076+       L     R2,0(R1)                                                   61740020
 0005E8 5420 C2D0      002DC        1077+       N     R2,DMBYT1                                                  61830020
 0005EC 5020 C2DC      002E8        1078+       ST    R2,DSTART      SET DSTART= ENTRY POINTER                   61920020
 0005F0 58F0 C20C      00218        1079+       L     R15,DLDINC                                                 62010020
 0005F4 05EF                        1080+       BALR  R14,R15                                                    62100020
 0005F6 58F0 C294      002A0        1081+       L     R15,DL15       LOCATE ENTRY, OUTPUT  R2= DICT ADDRESS      62190020
 0005FA 91C0 2000      00000        1082+       TM    0(R2),DMPFXT                                               62280020
 0005FE 4780 F1FA      0060E        1083+         BC    ZERO,DL720                                               62370020
 000602 4122 0003      00003        1084+       LA    R2,3(R2)                                                   62460020
 000606 4740 F1FA      0060E        1085+         BC    MIXED,DL720                                              62550020
 00060A 4122 0003      00003        1086+       LA    R2,3(R2)                                                   62640020
 00060E 1BBB                        1087+DL720  SR    R11,R11                                                    62730020
 000610 50B0 C2E0      002EC        1088+       ST    R11,DLMPTR     SET DLMPTR =0                               62820020
 000614 43B2 0000      00000        1089+       IC    R11,0(R2)       SET R11= NAME CNT                          62910020
 000618 4122 B001      00001        1090+       LA    R2,1(R2,R11)                                               63000020
                                    1091+*   DUMP OF REGISTERS ONLY  CODE =2                                     63090020
 00061C 58B0 C258      00264        1092+       L     R11,DL4                                                    63180020
 000620 58E0 C290      0029C        1093+       L     R14,D1SV14    MUST PRECEDE LOAD OF REG12                   63270020
 000624 58C0 F220      00634        1094+       L     R12,D1SV12    REG15 VALUE OKAY                             63360020
 000628 07FE                        1095+       BCR   UNCOND,R14                                                 63450020
                                    1096+*                                                                       63540020
                                    1097+*                                                                       63630020
 00062A 0000
 00062C 0000000C                    1098+D1RG12   DC    A(PBEG12)                                                63720020
                                    1099+*    D1SVEM  UNDER REG15  USED TO HOLD ERROR CODES  REG15 IS BOTH       63810020
                                    1100+*    BASE REG. AND ERROR CODE REG.  CANNOT LOAD IT UNTIL EXIT           63900020
 000630                             1101+D1SVEM   DS    F                                                        63990020
 000634                             1102+D1SV12   DS    F                                                        64080020
1PH20     IKFCBL20                                                                                              PAGE   31
-  LOC  OBJECT CODE    ADDR1 ADDR2  STMT   SOURCE STATEMENT                                       ASM 0201 11.03 02/14/15
0                                   1104+*  ACCESS ROUTINES   ENTNAM,ENTPTR,GETPTR    R2 PREFIX                  64350020
                                    1105+*                                                                       64440020
                                    1106+*                                                                       64530020
 000638                             1107+         DS    0F                                                       64620020
                             00638  1108+       USING *,R15                                                      64710020
                             00638  1109+DEBEG    EQU   *                                                        64800020
                             00638  1110+ENTNAM   EQU   DEBEG                                                    64890020
                             00638  1111+ENTPTR   EQU   DEBEG                                                    64980020
                             00638  1112+GETPTR   EQU   DEBEG                                                    65070020
                                    1113+*    REG. 0,1  WILL NOT BE SAVED                                        65160020
                                    1114+*    MODIFY LATER  REG. 2,12 DO NOT HAVE TO BE SAVED                    65250020
                                    1115+*                                                                       65340020
 000638 50C0 F174      007AC        1116+       ST    R12,D3SV12                                                 65430020
 00063C 58C0 F170      007A8        1117+       L     R12,D3RG12                                                 65520020
 000640 90EF C290      0029C        1118+       STM   R14,R15,D3SV14                                             65610020
 000644 902B C258      00264        1119+       STM   R2,R11,DRSAVE                                              65700020
 000648 1BBB                        1120+       SR    R11,R11                                                    65790020
 00064A 1B77                        1121+       SR    R7,R7                                                      65880020
 00064C 9110 1000      00000        1122+       TM    0(R1),DMEPTR                                               65970020
 000650 4710 F122      0075A        1123+         BC    ONES,DE500     BRANCH IF ENTPTR ENTRY                    66060020
                                    1124+*                                                                       66150020
                                    1125+*  SET UP GROUP CODE, HASH CODE                                         66240020
 000654 5891 0000      00000        1126+DE100  L     R9,0(R1)       R9=A(BCD NAME)  SET UP FOR DHASH            66330020
 000658 43B9 0000      00000        1127+       IC    R11,0(R9)     R11=NAME CNT                                 66420020
 00065C 58F0 C208      00214        1128+       L     R15,DLDHSH    *HASH NAME                                   66510020
 000660 05EF                        1129+       BALR  R14,R15                                                    66600020
 000662 58F0 C294      002A0        1130+       L     R15,DS15      OUTPUT  R8= (0, DUP. POINTER)                66690020
 000666 1838                        1131+       LR    R3,R8                                                      66780020
 000668 1B44                        1132+       SR    R4,R4                                                      66870020
 00066A 9104 1000      00000        1133+       TM    0(R1),DMGRUP                                               66960020
 00066E 4780 F042      0067A        1134+         BC    ZERO,DE110                                               67050020
 000672 5880 C210      0021C        1135+       L     R8,DLGCOD     *GROUP ITEM                                  67140020
 000676 4140 0003      00003        1136+       LA    R4,3(R0,R0)     SET CNT=3                                  67230020
 00067A 1233                        1137+DE110  LTR   R3,R3         TEST IF DUP HASH POINTER                     67320020
 00067C 4780 F062      0069A        1138+         BC    ZERO,DE200                                               67410020
 000680 5880 C214      00220        1139+       L     R8,DLHSCD     *LOAD ADDR OF HASH CODE                      67500020
 000684 4170 0003      00003        1140+       LA    R7,3(R0,R0)     SET CNT=3                                  67590020
 000688 5630 C2E4      002F0        1141+       O     R3,DMPFX2      INSERT PREFIX 2                             67680020
 00068C 1244                        1142+       LTR   R4,R4                                                      67770020
 00068E 4780 F05E      00696        1143+         BC    ZERO,DE120                                               67860020
 000692 5630 C2E8      002F4        1144+       O     R3,DMPFX3      GROUP CODE, INSERT PREFIX 3                 67950020
 000696 5030 C2BC      002C8        1145+DE120  ST    R3,DHWORD                                                  68040020
                                    1146+*                                                                       68130020
                                    1147+*  COMPUTE TOTAL ENTRY SIZE, TEST IF SUFFIC. SPACE IN CURRENT SECTION   68220020
 00069A 1A47                        1148+DE200  AR    R4,R7          R4= CODE CNT                                68310020
 00069C 4371 0004      00004        1149+       IC    R7,4(R1)       SET R7= ATTRIB CNT                          68400020
 0006A0 416B 7001      00001        1150+       LA    R6,1(R11,R7)                                               68490020
 0006A4 1A64                        1151+       AR    R6,R4         R6= ENTRY SIZE                               68580020
 0006A6 5820 C150      0015C        1152+       L     R2,DPARST              LOAD A(COS)                         68670020
 0006AA 5822 01A8      001A8        1153+       L     R2,DICADR-COS(R2)                                          68760020
                                    1154+*****                                                                   68850020
 0006AE 5040 C24C      00258        1155+       ST    R4,DSTOR1       2/18/66                                    68940020
 0006B2 5840 C150      0015C        1156+       L     R4,DPARST                                                  69030020
 0006B6 5834 0140      00140        1157+       L     R3,ACCESW-COS(R4)         HOLD DISP                        69120020
 0006BA 4133 0000      00000        1158+       LA    R3,0(R3)                INTO HASH TABLE                    69210020
1PH20     IKFCBL20                                                                                              PAGE   32
-  LOC  OBJECT CODE    ADDR1 ADDR2  STMT   SOURCE STATEMENT                                       ASM 0201 11.03 02/14/15
00006BE 1BA3                        1159+       SR    R10,R3                    IN REG. 10                       69300020
                                    1160+*****                                                                   69390020
                                    1161+*****                                                                   69480020
 0006C0 1832                        1162+       LR    R3,R2                                                      69570020
 0006C2 1A36                        1163+       AR    R3,R6                                                      69660020
 0006C4 1B55                        1164+       SR    R5,R5          R5=0 THROUGHOUT PROGRAM                     69750020
 0006C6 5934 01AC      001AC        1165+       C     R3,DLSVAL-COS(R4)                                          69840020
 0006CA 4740 F0A2      006DA        1166+         BC    LO,DE205                                                 69930020
 0006CE 4720 F09A      006D2        1167+       BC    HI,DEMORG             RESTORE R4 BEFORE GO TO DEMORE       70020020
                                    1168+*DEL                                                                    70110020
 0006D2 5840 C24C      00258        1169+DEMORG L     R4,DSTOR1       2/18/66                                    70200020
 0006D6 47F0 F178      007B0        1170+       BC    15,DEMORE             GO TO DEMORE.                        70290020
                                    1171+*     WHEN ENTRY DOES NOT FILL SEGMENT, STORE ZERO IN 1ST BYTE AFTER    70380020
                                    1172+*     ENTRY.   IF THIS TURNS OUT TO BE LAST ENTRY IN SEGMENT, BYTE=O    70470020
                                    1173+*     IN NEXT BYTE INDICATES THIS TO LOCNXT.                            70560020
 0006DA 4253 0000      00000        1174+DE205  STC   R5,0(R3)                                                   70650020
 0006DE 5840 C150      0015C        1175+DE210  L     R4,DPARST                                                  70740020
 0006E2 5034 01A8      001A8        1176+       ST    R3,DICADR-COS(R4)                                          70830020
 0006E6 5834 0140      00140        1177+       L     R3,ACCESW-COS(R4)         GET ADDRESS OF ENTRY             70920020
 0006EA 4133 0000      00000        1178+       LA    R3,0(R3)                IN THE HASH TABLE                  71010020
 0006EE 1AA3                        1179+       AR    R10,R3                    INTO REG. 10                     71100020
                                    1180+*   UPDATED DICADR AT RETURN FROM DEMORE                                71190020
                                    1181+*  STORE HASH TABLE POINTER,CODE,IF ANY,IN DICT.                        71280020
 0006F0 D202 A000 41B1 00000 001B1  1182+       MVC   0(3,R10),DCPTR-COS(R4)                                     71370020
 0006F6 5840 C24C      00258        1183+       L     R4,DSTOR1       2/18/66                                    71460020
                                    1184+*     SET PREFIX =0.  INDICATOR FOR ENTPTR IN CASE NO CODE IN ENTRY     71550020
                                    1185+*     AND BCD NAME CAN BE STORED IMMEDIATELY.                           71640020
 0006FA 4252 0000      00000        1186+       STC   R5,0(R2)                                                   71730020
 0006FE 1244                        1187+       LTR   R4,R4                                                      71820020
 000700 4780 F0D6      0070E        1188+         BC    ZERO,DE250                                               71910020
 000704 0640                        1189+       BCTR  R4,R0           CODE, SUBT 1                               72000020
 000706 4440 C2F0      002FC        1190+       EX    R4,DMVCOD      STORE CODE IN DICT                          72090020
 00070A 4124 2001      00001        1191+       LA    R2,1(R4,R2)    UPDATE DICT REF                             72180020
 00070E 9108 1000      00000        1192+DE250  TM    0(R1),DMGPTR                                               72270020
 000712 4710 F0F0      00728        1193+         BC    ONES,DE400     BRANCH IF GETPTR ENTRY                    72360020
                                    1194+*                                                                       72450020
                                    1195+*  STORE ENTRY IN DICTIONARY                                            72540020
 000716 44B0 C2F6      00302        1196+DE300  EX    R11,DMOVE     STORE NAME                                   72630020
 00071A 4122 B001      00001        1197+       LA    R2,1(R2,R11)  UPDATE DICT REFERENCE                        72720020
 00071E 0670                        1198+       BCTR  R7,R0           SUBT 1                                     72810020
 000720 5891 0004      00004        1199+       L     R9,4(R1)       R9=A(ATTRIB)                                72900020
 000724 4470 C2F6      00302        1200+       EX    R7,DMOVE       STORE ATTRIB                                72990020
                                    1201+*                                                                       73080020
                                    1202+*  ENTNAM, GETPTR   UPDATE DICPTR                                       73170020
 000728 5810 C150      0015C        1203+DE400  L     R1,DPARST      LOAD  A(COS)                                73260020
 00072C 5810 11B0      001B0        1204+       L     R1,DICPTR                 OUTPUT FOR GETPTR                73350020
                                    1205+*****                                                                   73440020
                                    1206+*****                                                                   73530020
 000730 1841                        1207+       LR    R4,R1                                                      73620020
 000732 18B1                        1208+       LR    R11,R1                                                     73710020
 000734 5440 C2A4      002B0        1209+       N     R4,DMDSPL      R4=DISPLAC.                                 73800020
 000738 1A46                        1210+       AR    R4,R6                                                      73890020
 00073A 5440 C2A4      002B0        1211+       N     R4,DMDSPL     MASK OUT POSSIBLE OFLO FOR 512 DISPL  1/66   73980020
 00073E 54B0 C2A8      002B4        1212+       N     R11,DMSECT    R11=SECT NO                                  74070020
 000742 1E4B                        1213+       ALR   R4,R11                                                     74160020
1PH20     IKFCBL20                                                                                              PAGE   33
-  LOC  OBJECT CODE    ADDR1 ADDR2  STMT   SOURCE STATEMENT                                       ASM 0201 11.03 02/14/15
0000744 5820 C150      0015C        1214+       L     R2,DPARST             LOAD A(COS)                          74250020
 000748 5042 01B0      001B0        1215+       ST    R4,DICPTR-COS(R2)                                          74340020
                                    1216+*    REG 1 IS NOT SAVED, OUTPUT FOR GETPTR                              74430020
 00074C 982B C258      00264        1217+DEXIT  LM    R2,R11,DRSAVE                                              74520020
                                    1218+*                                                                       74610020
 000750 58E0 C290      0029C        1219+       L     R14,D3SV14    MUST PRECEDE LOAD OF REG12                   74700020
 000754 58C0 F174      007AC        1220+       L     R12,D3SV12                                                 74790020
 000758 07FE                        1221+       BCR   UNCOND,R14                                                 74880020
                                    1222+*                                                                       74970020
                                    1223+*                                                                       75060020
                                    1224+*  ENTPTR ENTRY                                                         75150020
 00075A 5821 0008      00008        1225+DE500  L     R2,8(R1)      LOAD INPUT DICT POINTER                      75240020
 00075E 58F0 C20C      00218        1226+       L     R15,DLDINC     MAKE SURE ENTRY IS IN CORE                  75330020
 000762 05EF                        1227+       BALR  R14,R15        SETS R2= DICT. ADDR.                        75420020
 000764 58F0 C294      002A0        1228+       L     R15,DS15      *                                            75510020
                                    1229+*  TEST IF CODE FOR ENTRY IN DICT.                                      75600020
 000768 91C0 2000      00000        1230+       TM    0(R2),DMPFXT   TEST ENTRY PREFIX                           75690020
 00076C 4780 F144      0077C        1231+         BC    ZERO,DE520     ZERO IF NO CODE                           75780020
 000770 4740 F140      00778        1232+         BC    MIXED,DE510                                              75870020
 000774 4122 0003      00003        1233+       LA    R2,3(R2)      DOUBLE CODE, ADD 3 TO DICT REFER.            75960020
 000778 4122 0003      00003        1234+DE510  LA    R2,3(R2)      SINGLE CODE                                  76050020
 00077C 4371 0004      00004        1235+DE520  IC    R7,4(R1)       ATTRIB. CNT                                 76140020
 000780 5891 0000      00000        1236+       L     R9,0(R1)       A(BCD NAME)                                 76230020
 000784 43B9 0000      00000        1237+       IC    R11,0(R9)     NAME CNT                                     76320020
                                    1238+*  STORE ENTRY IN DICT.                                                 76410020
 000788 44B0 C2F6      00302        1239+       EX    R11,DMOVE     STORE NAME                                   76500020
 00078C 4122 B001      00001        1240+       LA    R2,1(R2,R11)   UPDATE DICT REF                             76590020
 000790 0670                        1241+       BCTR  R7,R0                                                      76680020
 000792 5891 0004      00004        1242+       L     R9,4(R1)       A(ATTRIB)                                   76770020
 000796 4470 C2F6      00302        1243+       EX    R7,DMOVE       STORE ATTRIB                                76860020
                                    1244+*    REG 1 IS NOT RESTORED                                              76950020
 00079A 982B C258      00264        1245+       LM    R2,R11,DRSAVE                                              77040020
 00079E 58E0 C290      0029C        1246+       L     R14,D3SV14    MUST PRECEDE LOAD OF REG12                   77130020
 0007A2 58C0 F174      007AC        1247+       L     R12,D3SV12                                                 77220020
 0007A6 07FE                        1248+       BR    R14                                                        77310020
                                    1249+*                                                                       77400020
                                    1250+*                                                                       77490020
 0007A8 0000000C                    1251+D3RG12   DC    A(PBEG12)                                                77580020
 0007AC                             1252+D3SV12   DS    F                                                        77670020
                                    1253+*                                                                       77760020
1PH20     IKFCBL20                                                                                              PAGE   34
-  LOC  OBJECT CODE    ADDR1 ADDR2  STMT   SOURCE STATEMENT                                       ASM 0201 11.03 02/14/15
-
-
                                    1256+******                                                           ****** 78030020
                                    1257+*                                                                     * 78120020
                                    1258+*                           ** DEMORE **                              * 78210020
                                    1259+*                                                                     * 78300020
                                    1260+*                                                                     * 78390020
                                    1261+*      DEMORE--- AN INTERNAL ACCESS SUBROUTINE TO OBTAIN 512          * 78480020
                                    1262+*                BYTES OF CORE FOR A DICTIONARY SECTION.              * 78570020
                                    1263+*                DEMORE CALLS DICSPC IN TAMER TO OBTAIN A             * 78660020
                                    1264+*                NEW SECTION.                                         * 78750020
                                    1265+*                                                                     * 78840020
                                    1266+*      ENTRY REGISTERS--- R6 = ENTRY SIZE.                            * 78930020
                                    1267+*      EXIT  REGISTERS--- R2 = ADDRESS OF NEW SECTION.                * 79020020
                                    1268+*                         R3 = UPDATED DICADR,                        * 79110020
                                    1269+*                            = A(NEW SECTION) + ENTRY SIZE.           * 79200020
                                    1270+*                                                                     * 79290020
                                    1271+*      DEMORE--- UPDATES DICPTR,DLSVAL,AND DICOT TABLE.               * 79380020
                                    1272+*            --- ENTERS A(NEW SECTION) IN DICOT TABLE.                * 79470020
                                    1273+*                                                                     * 79560020
                                    1274+******                                                           ****** 79650020
-
0
 0007B0                             1276+       DS    0F                                                         79830020
                             007B0  1277+DEMORE EQU   *                                                          79920020
 0007B0 5010 C248      00254        1278+       ST    R1,DSTORE                                                  80010020
 0007B4 5040 C24C      00258        1279+       ST    R4,DSTOR1             STORE REGISTERS USED.                80100020
0
                                    1281+*      DEMORE CALLS DICSPC IN TAMER TO OBTAIN A NEW DICTIONARY SECTION. 80280020
 0007B8 90EF C250      0025C        1282+       STM   R14,R15,D33S14        STORE 14,15.                         80370020
 0007BC 41E0 F18E      007C6        1283+       LA    R14,DEMRTA                                                 80460020
 0007C0 58F0 C16C      00178        1284+       L     R15,DTAMM1            LOAD A(DICSPC),STORED BY INTACC.     80550020
 0007C4 05EF                        1285+       BALR  R14,R15               CALL DICSPC.                         80640020
 0007C6 98EF C250      0025C        1286+DEMRTA LM    R14,R15,D33S14                                             80730020
0
                                    1288+***                                                                 *** 80910020
                                    1289+*                                                                     * 81000020
                                    1290+*      REG1 =START ADDRESS OF NEW DICTIONARY SECTION.                 * 81090020
                                    1291+*      REG2 =HIGH ADDRESS =(START+512) OF NEW DICTIONARY SECTION.     * 81180020
                                    1292+*                                                                     * 81270020
                                    1293+***                                                                 *** 81360020
0
 0007CA 5840 C150      0015C        1295+       L     R4,DPARST             LOAD A(COS).                         81540020
 0007CE 5024 01AC      001AC        1296+       ST    R2,DLSVAL-COS(R4)         TOP ADDRESS OF SECTION           81630020
 0007D2 5014 01A8      001A8        1297+       ST    R1,DICADR-COS(R4)                                          81720020
1PH20     IKFCBL20                                                                                              PAGE   35
-  LOC  OBJECT CODE    ADDR1 ADDR2  STMT   SOURCE STATEMENT                                       ASM 0201 11.03 02/14/15
00007D6 5810 C150      0015C        1299+       L     R1,DPARST             LOAD A(COS).                         81900020
 0007DA 4111 00AC      000AC        1300+       LA    R1,LDICOT(R1)         LOAD A(DICOT TIB)= A(TIB20).         81990020
 0007DE 58F0 C158      00164        1301+       L     R15,LINSRT            LOAD A(INSERT)                       82080020
 0007E2 05EF                        1302+       BALR  R14,R15               CALL INSERT.                         82170020
 0007E4 58F0 C294      002A0        1303+       L     R15,DS15              RESTORE BASE.                        82260020
                                    1304+*                                  INSERT OUTPUT--REG2 = A(INSERT ENT). 82350020
                                    1305+*                                                 REG3 = TABLE DISPL.   82440020
 0007E8 5840 C150      0015C        1306+       L     R4,DPARST                                                  82530020
 0007EC 5844 01A8      001A8        1307+       L     R4,DICADR-COS(R4)                                          82620020
 0007F0 5042 0000      00000        1308+       ST    R4,0(R2)              STORE SECTION ADDRESS IN DICOT TABLE 82710020
 0007F4 9400 2000      00000        1309+       NI    0(R2),0               CLEAR TOP BYTE OF DICOT ENTRY.       82800020
 0007F8 9640 2000      00000        1310+       OI    0(R2),64              SET ON IN-CORE BIT.                  82890020
 0007FC 1824                        1311+       LR    R2,R4                 LOAD SECT. ADD. INTO R2.             82980020
0
                                    1313+****** ACCESS TEMPORARY STORAGE OF NEW SECTION NUMBER IN DICPTR.        83160020
                                    1314+****** SEE DE200. STORE NEWLY ASSIGNED SEC.NO. BEFORE RETURN TO DE210.  83250020
0
 0007FE 5040 C2FC      00308        1316+       ST    R4,DTSAVE                                                  83430020
 000802 5840 C150      0015C        1317+       L     R4,DPARST             LOAD A(COS).                         83520020
 000806 5834 01B0      001B0        1318+       L     R3,DICPTR-COS(R4)                                          83610020
                                    1319+*                                                                       83700020
                                    1320+*      NOTE- FIRST SECTION NUMBER ASSIGNED IS 1.                        83790020
                                    1321+*            DINCOR SUBTRACTS 1 TO OBTAIN CORRECT DICOT TABLE DISPL.    83880020
                                    1322+*                                                                       83970020
 00080A 5430 C2A8      002B4        1323+       N     R3,DMSECT             MASK OUT ALL BUT SECT.NUMBER.        84060020
 00080E 4133 0200      00200        1324+       LA    R3,512(R3)            INCREMENT SECTION NUMBER.            84150020
 000812 5034 01B0      001B0        1325+       ST    R3,DICPTR-COS(R4)                                          84240020
                                    1326+******                                                                  84330020
                                    1327+****** END OF DICPTR STORAGE CODING. NEW SECTION DISPLACEMENT IS ZERO.  84420020
0
 000816 5840 C2FC      00308        1329+       L     R4,DTSAVE             RESTORE R4.                          84600020
 00081A 4132 6000      00000        1330+       LA    R3,0(R2,R6)           LOAD UPDATED DICT.ADDR. INTO R3.     84690020
                                    1331+*                                  R2 = ADDRESS OF NEW SECTION.         84780020
                                    1332+*                                  R6 =  ENTRY SIZE,FROM DE200 SEQUENCE 84870020
 00081E 5840 C24C      00258        1333+       L     R4,DSTOR1                                                  84960020
 000822 5810 C248      00254        1334+       L     R1,DSTORE                                                  85050020
 000826 47F0 F0A6      006DE        1335+       BC    15,DE210              RETURN TO DE210 WITH NEW DICADR.     85140020
0
                                    1337+**     NOTE- DEMORE IS NOT CALLED BY A BALR 14,15  SEQUENCE.            85320020
                                    1338+**           IT IS CALLED BY A DIRECT BRANCH FROM DEMORG+4.             85410020
                                    1339+**           ITS BASE REGISTER IS THUS THE BASE OF THE CALLING          85500020
                                    1340+**           ROUTINE. ITS DATA BASE REGISTER IS THAT OF CALLING ROUTINE 85590020
                                    1341+**           DEMORE USES ONLY REGISTERS 2 AND 4 INTERNALLY.             85680020
                                    1342+**           IT SAVES AND RESTORES THESE.                               85770020
1PH20     IKFCBL20                                                                                              PAGE   36
-  LOC  OBJECT CODE    ADDR1 ADDR2  STMT   SOURCE STATEMENT                                       ASM 0201 11.03 02/14/15
1PH20     IKFCBL20                                                                                              PAGE   37
-  LOC  OBJECT CODE    ADDR1 ADDR2  STMT   SOURCE STATEMENT                                       ASM 0201 11.03 02/14/15
0                                   1345+*    ACCESS ROUTINE 'ENTDEL'                                            86040020
                                    1346+*       SEPARATE ENTRY POINT                                            86130020
                                    1347+*       STORES DELIMITER IN DICT ENTRY FOR INPUT GROUP NAME             86220020
                                    1348+*       INPUT   REG1=A(INPUT DATA)                                      86310020
                                    1349+*                                                                       86400020
 00082C                             1350+         DS    0F                                                       86490020
                             0082C  1351+ENTDEL   EQU   *                                                        86580020
                             0082C  1352+       USING *,R15                                                      86670020
 00082C 50C0 F048      00874        1353+       ST    R12,D4SV12                                                 86760020
 000830 58C0 F044      00870        1354+       L     R12,D4RG12    REG12 IS USED TO REFER. CONSTANTS ETC        86850020
 000834 90EF C290      0029C        1355+       STM   R14,R15,D4SV14                                             86940020
 000838 5020 C2B4      002C0        1356+       ST    R2,DWORK                                                   87030020
 00083C 5821 0000      00000        1357+       L     R2,0(R1)                                                   87120020
 000840 58F0 C20C      00218        1358+       L     R15,DLDINC                                                 87210020
 000844 05EF                        1359+       BALR  R14,R15                                                    87300020
 000846 58F0 C294      002A0        1360+       L     R15,D4SV15                                                 87390020
 00084A 9180 2000      00000        1361+       TM    0(R2),DMPFT1                                               87480020
 00084E 4780 F02A      00856        1362+         BC    ZERO,DENT1                                               87570020
 000852 4122 0003      00003        1363+       LA    R2,3(R2)       UPDATE PAST HASH CODE                       87660020
                                    1364+*     DEBUG CODING  MAKE SURE GROUP CODE IS PRESENT                     87750020
                             00856  1365+DENT1    EQU   *                                                        87840020
 000856 D402 2000 C2EC 00000 002F8  1366+       NC    0(3,R2),DMDLM ZERO OUT DELIM PART OF GRP CODE.  11/23      87930020
                                    1367+*        THIS CLEARS DELIM PART IN CASE OF PREVIOUS DUMMY DELIM NTRY.   88020020
 00085C D602 2000 1005 00000 00005  1368+       OC    0(3,R2),5(R1)  INSERT DELIMITER INTO ENTRY                 88110020
 000862 5820 C2B4      002C0        1369+       L     R2,DWORK                                                   88200020
 000866 58E0 C290      0029C        1370+       L     R14,D4SV14     PRECEDES LOAD OF REG13                      88290020
 00086A 58C0 F048      00874        1371+       L     R12,D4SV12                                                 88380020
 00086E 07FE                        1372+       BCR   UNCOND,R14                                                 88470020
                                    1373+*                                                                       88560020
 000870 0000000C                    1374+D4RG12   DC    A(PBEG12)                                                88650020
 000874                             1375+D4SV12   DS    F                                                        88740020
                                    1376+*                                                                       88830020
1PH20     IKFCBL20                                                                                              PAGE   38
-  LOC  OBJECT CODE    ADDR1 ADDR2  STMT   SOURCE STATEMENT                                       ASM 0201 11.03 02/14/15
-
-
1PH20     IKFCBL20                                                                                              PAGE   39
-  LOC  OBJECT CODE    ADDR1 ADDR2  STMT   SOURCE STATEMENT                                       ASM 0201 11.03 02/14/15
1PH20     IKFCBL20                                                                                              PAGE   40
-  LOC  OBJECT CODE    ADDR1 ADDR2  STMT   SOURCE STATEMENT                                       ASM 0201 11.03 02/14/15
1PH20     IKFCBL20                                                                                              PAGE   41
-  LOC  OBJECT CODE    ADDR1 ADDR2  STMT   SOURCE STATEMENT                                       ASM 0201 11.03 02/14/15
0                                   1382 *                                                                       01182021
                                    1383 *                                                                       01188021
                                    1384 *=1    PHASE 2  ENTRY POINT AND INITIALIZATION                          01194021
 000878                             1385 IKF201 CSECT                                                            01200021
                             0B540  1386        USING PH2SAV,R13                                                 01206021
                             00878  1387 PH2    EQU   *                                                          01212021
                             00878  1388 IKFCBL20 EQU   PH2                                                      01218021
 000878 90EC D00C      0000C        1389 BEGIN    STM   R14,R12,DX12(R13)  SAVE REGISTERS IN PH0 SAVE AREA       01224021
 00087C                             1390        CNOP  0,4                                                        01230021
 00087C 182D                        1391        LR    R2,R13             SAVE ADDR OF PH0 SAVE AREA IN R2        01236021
 00087E 05F0                        1392        BALR  R15,R0                MOVE ADDRESS OF BEGADC TO R15        01242021
                             00880  1393        USING *,R15                                                      01248021
 000880 47FF 0008      00008        1394 BEGADC   BC    M15,DX8(R15)   BRANCH AROUND ADCON TO LOAD INST          01254021
 000884 0000B540                    1395        DC    A(PH2SAV)                                                  01260021
 000888 58DF 0004      00004        1396          L     R13,DX4(R15)      SET R13 TO ADDR OF PHASE  SAVE AREA    01266021
 00088C 50ED 000C      0000C        1397          ST    R14,DX12(R13)     SAVE SYSTEM RETURN ADR IN PHASE SV     01272021
 000890 502D 0004      00004        1398          ST    R2,DX4(R13)       PUT PTR TO PH0 SV AREA IN PHASE SV     01278021
 000894 50D2 0008      00008        1399          ST    R13,DX8(R2)       PUT PTR TO PHASE SV AREA IN PH0 SV     01284021
 000898 5811 0000      00000        1400          L     R1,DX0(R1)           R1= A(PHASE 0)                      01290021
 00089C 5010 DB84      0C0C4        1401          ST    R1,COSADR           SAVE A(PHASE 0)                      01296021
 0008A0 5820 DBDC      0C11C        1402          L     R2,ADPARS                                                01302021
 0008A4 5012 0000      00000        1403          ST    R1,DX0(R2)           STORE A(PHASE 0) IN ACCESS CELL     01308021
 0008A8 D213 DCE4 112C 0C224 0012C  1404          MVC   BPRIME(LX20),APRIME                                      01314021
 0008AE 4130 DB94      0C0D4        1405          LA    R3,ADPIOT           PUT TIB ADCONS                       01320021
 0008B2 4140 0005      00005        1406          LA    R4,DX5              IN PHASE2                            01326021
 0008B6 1821                        1407 BEGINA   LR    R2,R1                   FOR ALL                          01332021
 0008B8 5A23 0000      00000        1408          A     R2,DX0(R3)                  TABLES                       01338021
 0008BC 5023 0000      00000        1409          ST    R2,DX0(R3)                   THAT                        01344021
 0008C0 4133 0004      00004        1410          LA    R3,DX4(R3)                    ARE NOT                    01350021
 0008C4 4640 F036      008B6        1411          BCT   R4,BEGINA                      PRIMED                    01356021
 0008C8 50F0 DA18      0BF58        1412          ST    R15,TSAVER                                               01362021
 0008CC 58F0 DBD4      0C114        1413          L     R15,BINTAC          INITIALIZE ACCESS FOR PHASE 2        01368021
 0008D0 05EF                        1414          BALR  R14,R15             LINK TO BEGADC                       01374021
 0008D2 58F0 DA18      0BF58        1415          L     R15,TSAVER                                               01380021
 0008D6 18B1                        1416          LR    RCOM,R1                                                  01386021
 0008D8 5810 DC68      0C1A8        1417         L  R1,BEGPH2                                                    01392021
 0008DC 050B                        1418         BALR  R0,RCOM              LINK TO RCOM                         01398021
 0008DE 06                          1419         DC  X'06'                                                       01404021
                                    1420          DROP  R1                                                       01410021
                             00000  1421          USING COS,RCOM                                                 01416021
 0008DF 00
 0008E0 5830 D3F8      0B938        1422          L     R3,ONE              LENGTH OF LISTING A-TEXT             01422021
 0008E4 4120 D3FB      0B93B        1423          LA    R2,ONE+NX3          ADDR OF LISTING A-TEXT               01428021
 0008E8 050B                        1424          BALR  R0,RCOM             END OF A-TEXT INDICATOR              01434021
 0008EA 14                          1425          DC    X'14'               ON FILE 4                            01440021
 0008EB 00
 0008EC 954B B1C4      001C4        1426          CLI   COMMAD,XX4B                                              01446021
 0008F0 4770 F088      00908        1427          BC    NOTEQ,BEGINB        NO                                   01452021
 0008F4 D200 D10C B1C4 0B64C 001C4  1428          MVC   CONCOM(LX1),COMMAD                                       01458021
 0008FA D200 D11C B1C5 0B65C 001C5  1429          MVC   CONPER(LX1),COMMAD+NX1                                   01464021
 000900 9208 D2FF      0B83F        1430          MVI   BPICTR+NX107,XX08            AND BPICTR (SCAN)           01470021
 000904 9210 D2DF      0B81F        1431          MVI   BPICTR+NX75,XX10                                         01476021
                                    1432 *                                                                       01482021
                                    1433 * CHECK TO SEE IF CURRENCY SIGN OTHER THAN DOLLAR SIGN                  01488021
                                    1434 *                                                                       01494021
1PH20     IKFCBL20                                                                                              PAGE   42
-  LOC  OBJECT CODE    ADDR1 ADDR2  STMT   SOURCE STATEMENT                                       ASM 0201 11.03 02/14/15
0000908 955B B1D2      001D2        1435 BEGINB   CLI   CURSGN,XX5B          CURRENCY SIGN                       01500021
 00090C 4780 F0AC      0092C        1436          BE    BIGINB              YES, IT IS $                         01506021
 000910 D200 D0EC B1D2 0B62C 001D2  1437          MVC   BRATAB(LX1),CURSGN   CHANGE $                            01512021
 000916 92FF D2EF      0B82F        1438          MVI   BPICTR+NX91,XXFF     MAKE $ SIGN ILLEGAL                 01518021
 00091A 1B11                        1439          SR    R1,R1                                                    01524021
 00091C 4310 B1D2      001D2        1440          IC    R1,CURSGN                                                01530021
 000920 9200 D468      0B9A8        1441          MVI   SRANO,XX00          RESET SD SAME REC AREA NO            01536021
 000924 5A10 DC58      0C198        1442          A     R1,ABPICT           POINT TO ENTRY IN TABLE              01542021
 000928 9210 1000      00000        1443          MVI   DX0(R1),XX10         CURRENCY SIGN                       01548021
 00092C 9202 D59D      0BADD        1444 BIGINB   MVI   SECTSW,XX02          INIT SECTSW TO 2 FOR FILE SECTION   01554021
 000930 D702 D5A3 D5A3 0BAE3 0BAE3  1445          XC    PTBLSW(LX3),PTBLSW   CLEAR TABLE SW                      01560021
 000936 D700 D5A6 D5A6 0BAE6 0BAE6  1446          XC    PRMSW(LX1),PRMSW                                         01566021
 00093C 9200 D5AA      0BAEA        1447          MVI   COPYSW,XX00          CLEAR SWITCH                        01572021
 000940 D717 DE94 DE94 0C3D4 0C3D4  1448          XC    LID(LX24),LID                                            01578021
 000946 D702 DEC1 DEC1 0C401 0C401  1449          XC    RPTRDF(LX3),RPTRDF                                       01584021
 00094C 9200 D5B7      0BAF7        1450          MVI   NXTLEV,XX00          SET NEXT LEVEL NUMBER TO ZERO       01590021
 000950 9200 D7A6      0BCE6        1451          MVI   PLEVNM,XX00          SET PCI LEVEL NUMBER TO 0           01596021
 000954 9200 D688      0BBC8        1452          MVI   SRCELN,XX00          SET CURRENT LEVEL NUMBER TO 0       01602021
 000958 9200 D7A0      0BCE0        1453          MVI   PCOUNT,XX00                                              01608021
 00095C 9104 B1D3      001D3        1454          TM    PH1BYTE,INITBIT    ANY CORE-INDEX IN PROGRAM?            01614021
 000960 4780 F0F0      00970        1455          BZ    BIGINB1            NO.                                   01620021
 000964 5810 B148      00148        1456          L     R1,LOCCTR          YES.                                  01626021
 000968 4111 004C      0004C        1457          LA    R1,INITSIZE(R1)          ADD SIZE OF CORE-IDX RTN  41095 01632021
 00096C 5010 B148      00148        1458          ST    R1,LOCCTR          LOCCTR=SIZE OF INIT1                  01638021
 000970 4810 B20C      0020C        1459 BIGINB1  LH    R1,BLCTR                                                 01644021
 000974 5A10 D3F8      0B938        1460          A     R1,ONE                     ONE (FIRST BL)                01650021
 000978 4210 D534      0BA74        1461          STC   R1,BASLOC+NX2                                            01656021
 00097C D201 B17E D3FE 0017E 0B93E  1462          MVC   BLLCTR(LX2),TWO+NX2  BLL STARTS FROM 3                   01662021
 000982 4010 DF58      0C498        1463          STH   R1,FDBL                                                  01668021
 000986 D206 DEB9 D532 0C3F9 0BA72  1464          MVC   APAF(LX7),BASLOC     INITIALIZE ADDR. PARAM. FIELD       01674021
 00098C D206 DEC5 DEB9 0C405 0C3F9  1465          MVC   FAPAF(LX7),APAF                                          01680021
 000992 D707 DEB0 DEB0 0C3F0 0C3F0  1466          XC    MAXIM(LX8),MAXIM                                         01686021
 000998 D706 DECC DECC 0C40C 0C40C  1467          XC    SDAPAF(LX7),SDAPAF                                       01692021
 00099E D703 DF54 DF54 0C494 0C494  1468          XC    FDDICT(LX4),FDDICT                                       01698021
 0009A4 D717 DE94 DE94 0C3D4 0C3D4  1469          XC    LID(LX24),LID                                            01704021
 0009AA 4110 DAD4      0C014        1470          LA    R1,GPARAM           CALL TAMER                           01710021
 0009AE 58F0 DCE4      0C224        1471          L     R15,BPRIME                  GROUP LENGTH STACK           01716021
 0009B2 05EF                        1472          BALR  R14,R15                         TABLE                    01722021
 0009B4 5810 DAD4      0C014        1473          L     R1,GPARAM                                                01728021
 0009B8 58F0 DCE8      0C228        1474          L     R15,BINSRT          CALL TAMER                           01734021
 0009BC 05EF                        1475          BALR  R14,R15                  TO INSERT                       01740021
 0009BE 58F0 DA18      0BF58        1476          L     R15,TSAVER                 ZERO ENTRY INTO               01746021
 0009C2 D723 2000 2000 00000 00000  1477          XC    DX0(LX36,R2),DX0(R2)          GROUP LENGTH STACK         01752021
 0009C8 5020 DF38      0C478        1478          ST    R2,MTEMP                                                 01758021
 0009CC D703 B184 B184 00184 00184  1479          XC    DICND2(LX4),DICND2                                       01764021
 0009D2 58A0 DBA0      0C0E0        1480          L     R10,AOD2TB          GET A(OD2TBL'S TIB)                  01770021
 0009D6 D502 A001 D3F4 00001 0B934  1481          CLC   DX1(LX3,R10),ZEROS    IS A(TAMM) FIELD ZERO              01776021
 0009DC 4780 F172      009F2        1482          BE    BEGINC             PROCESS CHKPT                         01782021
 0009E0 58AA 0000      00000        1483          L     R10,DX0(R10)         NO, CHECK TAMM DISP. FOR 0          01788021
 0009E4 D501 D3F4 A004 0B934 00004  1484          CLC   ZEROS(LX2),DX4(R10)                                      01794021
 0009EA 4780 F172      009F2        1485          BE    BEGINC             PROCESS CHKPT                         01800021
 0009EE 9608 D5A4      0BAE4        1486          OI    PTBLSW+NX1,XX08      SET PRIMED TABLE SW ON              01806021
 0009F2 58A0 DB98      0C0D8        1487 BEGINC   L     R10,ACHKPT                                               01812021
 0009F6 D502 A001 D3F4 00001 0B934  1488          CLC   DX1(LX3,R10),ZEROS                                       01818021
 0009FC 4780 F220      00AA0        1489          BE    INITRD              = 0,GO TO INITRD                     01824021
1PH20     IKFCBL20                                                                                              PAGE   43
-  LOC  OBJECT CODE    ADDR1 ADDR2  STMT   SOURCE STATEMENT                                       ASM 0201 11.03 02/14/15
0000A00 58AA 0000      00000        1490          L     R10,DX0(R10)                                             01830021
 000A04 D501 D3F4 A004 0B934 00004  1491          CLC   ZEROS(LX2),DX4(R10)                                      01836021
 000A0A 4780 F220      00AA0        1492          BE    INITRD              = 0,GO TO INITRD                     01842021
 000A0E 9602 D5A4      0BAE4        1493          OI    PTBLSW+NX1,XX02     TABLE EXISTS                         01848021
 000A12 486A 0004      00004        1494          LH    R6,DX4(R10)                                              01854021
 000A16 58AA 0000      00000        1495 CHKPT    L     R10,DX0(R10)                                             01860021
 000A1A 54A0 D4C4      0BA04        1496          N     R10,MK0932                                               01866021
 000A1E 1A6A                        1497          AR    R6,R10                                                   01872021
 000A20 5890 B148      00148        1498 CHKPT0   L     R9,LOCCTR          GET NEXT LOCCTR VALUE                 01878021
 000A24 19A6                        1499          CR    R10,R6                                                   01884021
 000A26 47B0 F220      00AA0        1500          BNL   INITRD             EOT                                   01890021
 000A2A D501 A00A D3F4 0000A 0B934  1501          CLC   DX10(2,R10),ZEROS                                        01896021
 000A30 4770 F218      00A98        1502          BNE   CHKPT9              NOT = 0, GO TO CHKPT9                01902021
 000A34 4880 B160      00160        1503          LH    R8,DCBCTR                                                01908021
 000A38 4188 0001      00001        1504          LA    R8,DX1(R8)                                               01914021
 000A3C 408A 000A      0000A        1505          STH   R8,DX10(R10)                                             01920021
 000A40 183A                        1506          LR    R3,R10                                                   01926021
 000A42 4133 0010      00010        1507 CHKPT7   LA    R3,DX16(R3)         CHECK NEXT ENTRY                     01932021
 000A46 1936                        1508          CR    R3,R6              EOT?                                  01938021
 000A48 47B0 F1DE      00A5E        1509          BNL   CHKPT8             YES.                                  01944021
 000A4C D507 3000 A000 00000 00000  1510          CLC   DX0(8,R3),DX0(R10)  NO. COMPARE EXTERNAL NAMES           01950021
 000A52 4770 F1C2      00A42        1511          BNE   CHKPT7              EXT NAMES UN=,CHK NXT ENTRY          01956021
 000A56 4083 000A      0000A        1512          STH   R8,DX10(R3)                                              01962021
 000A5A 47F0 F1C2      00A42        1513          B     CHKPT7              GO TO CHKPT7 TO CHK NXT ENTRY        01968021
 000A5E D207 D647 A000 0BB87 00000  1514 CHKPT8   MVC   DCBC+NX40(8),DX0(R10) MOVE EXTERNAL NAME TO DCB          01974021
 000A64 4280 D6BC      0BBFC        1515          STC   R8,DCBDEF+NX4                                            01980021
 000A68 4080 B160      00160        1516          STH   R8,DCBCTR                                                01986021
 000A6C 5090 D6B8      0BBF8        1517          ST    R9,DCBDEF                                                01992021
 000A70 5090 D618      0BB58        1518          ST    R9,DCBCCN                                                01998021
 000A74 9204 D6B8      0BBF8        1519          MVI   DCBDEF,XX04                                              02004021
 000A78 9228 D618      0BB58        1520          MVI   DCBCCN,XX28                                              02010021
 000A7C 4130 0005      00005        1521          LA    R3,DX5                                                   02016021
 000A80 45E0 F6D4      00F54        1522          BAL   R14,MASPUT         OUTPUT DCB ADEF                       02022021
 000A84 4120 D618      0BB58        1523          LA    R2,DCBCCN                                                02028021
 000A88 4130 006B      0006B        1524          LA    R3,DX107                                                 02034021
 000A8C 45E0 F6D8      00F58        1525          BAL   R14,MASPUT+NX4      BR TO COMMON                         02040021
 000A90 4199 0064      00064        1526          LA    R9,DX100(R9,R0)                                          02046021
 000A94 5090 B148      00148        1527          ST    R9,LOCCTR                                                02052021
 000A98 41AA 0010      00010        1528 CHKPT9   LA    R10,DX16(R10)                                            02058021
 000A9C 47F0 F1A0      00A20        1529          B     CHKPT0              BRANCH TO CHKPT0                     02064021
                             00AA0  1530 INITRD   EQU   *                                                        02070021
 000AA0 1B55                        1531          SR    R5,R5                                                    02076021
 000AA2 4560 F92C      011AC        1532          BAL   R6,BREAD            READ RECORD FROM FILE 3              02082021
 000AA6 9110 D5AA      0BAEA        1533 BEGIN0   TM    COPYSW,XX10          END OF FILE                         02088021
                             00000  1534          USING ICLDST,R7                                                02094021
 000AAA 47E0 F234      00AB4        1535          BC    NOTONE,BEGN01       BRH TO SET OFF END OF SECT SW        02100021
 000AAE 58F0 DCD0      0C210        1536          L     R15,APHTRM                                               02106021
 000AB2 05EF                        1537          BALR  R14,R15             LINK TO BEGADC                       02112021
 000AB4 94FD D5AA      0BAEA        1538 BEGN01   NI    COPYSW,XXFD          TURN OFF END OF SECT. SW(CPB)       02118021
 000AB8 9542 7000      00000        1539          CLI   DX0(R7),XX42         NO, IS RECORD A DIV. OR SECT. HD    02124021
 000ABC 4780 F24C      00ACC        1540          BC    EQ,BEGIN1           YES                                  02130021
 000AC0 9503 7000      00000        1541          CLI   DX0(R7),XX03         NO, IS RECORD IC-TEXT               02136021
 000AC4 0788                        1542          BCR   EQ,R8               YES, GO TO SECTION ROUTINE           02142021
 000AC6 47F0 F2A0      00B20        1543          BC    UNCOND,BEGERR       NO, ERROR                            02148021
 000ACA 07F8                        1544          BCR   UNCOND,R8           YES, BRANCH TO SECTION               02154021
1PH20     IKFCBL20                                                                                              PAGE   44
-  LOC  OBJECT CODE    ADDR1 ADDR2  STMT   SOURCE STATEMENT                                       ASM 0201 11.03 02/14/15
0000ACC 9501 7001      00001        1545 BEGIN1   CLI   DX1(R7),XX01         IS RECORD DATA DIVISION             02160021
 000AD0 4770 F262      00AE2        1546          BC    NOTEQ,BEGIN2        NO                                   02166021
 000AD4 4140 0002      00002        1547 BEGA     LA    R4,DX2(R0,R0)        YES                                 02172021
 000AD8 1854                        1548          LR    R5,R4                                                    02178021
 000ADA 4560 F91A      0119A        1549          BAL   R6,BSUBRN           GET NEXT RECORD                      02184021
 000ADE 47F0 F226      00AA6        1550          BC    UNCOND,BEGIN0       GO TO BEGIN0 TO TEST FOR EOF         02190021
                                    1551 *BEGIN2      DETERMINES THE SECTION WHEN A SECTION HEADER IS            02196021
                                    1552 *ENCOUNTERED AND PUTS A(SECTION) IN REG 8. A BRANCH IS TAKEN TO BEG     02202021
                                    1553 *WHICH CALLS FOR THE NEXT IC-TEXT ELEMENT. IF IT IS LD-TEXT BEGIN0      02208021
                                    1554 *BRANCHES TO THE SECTION, IF ANOTHER SECTION HEADER BEGIN2 IS ENTER     02214021
                                    1555 *AGAIN.                                                                 02220021
                             00AE2  1556 BEGIN2   EQU   *                                                  44287 02226021
 000AE2 1B55                        1557          SR    R5,R5                    PUT SECTION NUMBER        44287 02232021
 000AE4 4350 D59E      0BADE        1558          IC    R5,SECTSAV                FROM IC-TXT IN R5        44287 02238021
 000AE8 D500 7001 D59D 00001 0BADD  1559          CLC   DX1(LX1,R7),SECTSW       IS SECT HDR SAME AS BEF   44287 02244021
 000AEE 4740 F2A0      00B20        1560          BC    LO,BEGERR           ERROR OUT OF SEQUENCE         SE     02250021
 000AF2 4780 F282      00B02        1561          BC    EQ,BEGIN3           YES                                  02256021
 000AF6 4250 D59D      0BADD        1562          STC   R5,SECTSW           HIGHER, MOVE THIS SECTION TO SEC     02262021
 000AFA 5B50 D3FC      0B93C        1563          S     R5,TWO                                                   02268021
 000AFE 47F0 F28E      00B0E        1564          BC    UNCOND,BEGIN4       GO TO BG4 TO GET R5 MULT OF 4        02274021
 000B02 4155 0001      00001        1565 BEGIN3   LA    R5,DX1(R5,R0)                                            02280021
 000B06 4250 D59D      0BADD        1566          STC   R5,SECTSW           STORE SECTION+1 INTO SECTSW          02286021
 000B0A 5B50 D400      0B940        1567          S     R5,THREE                                                 02292021
 000B0E 8950 0002      00002        1568 BEGIN4   SLL   R5,DX2               GET R5 MULTIPLE OF 4 FOR INDEX T    02298021
 000B12 4190 D124      0B664        1569          LA    R9,SECTTB           R9= SECTION TABLE ADDRESS            02304021
 000B16 1A95                        1570          AR    R9,R5                                                    02310021
 000B18 5889 0000      00000        1571          L     R8,DX0(R9)                                               02316021
 000B1C 47F0 F254      00AD4        1572          BC    UNCOND,BEGA         BRH TO BEGA TO LOAD 2 IN REG4        02322021
 000B20                             1573 BEGERR DS    0H                                                         02328021
                                    1574 *=1    FILE SECTION INITIALIZATION  - FILEST                            02334021
 000B20 D70D D76F D76F 0BCAF 0BCAF  1575 FILEST   XC    SCAR(LX14),SCAR          CLEAR SCAR                      02340021
 000B26 D203 D904 B148 0BE44 00148  1576          MVC   SAV01L(LX4),LOCCTR                                       02346021
                                    1577 *                                  MAJOR CODE(MCI) IS ZERO FOR FD       02352021
                                    1578 *FILES1      DETERMINES THE TYPE OF FILE SECTION TEXT AND BRANCHES      02358021
                                    1579 *THERE.       ROUTINE   IC-TEXT    SOURCE LANGUAGE EQUIVALENT           02364021
                                    1580 *             FSTEXT    FS-TEXT    FD(FILE DESCRIPTION)                 02370021
                                    1581 *             SDTEXT    SD-TEXT    SD(SORT DESCRIPTION)                 02376021
                                    1582 *             LDTEXT    LD-TEXT    01-49(LEVEL DESCRIPTION)             02382021
 000B2C 9112 D5AA      0BAEA        1583 FILES1   TM    COPYSW,XX12          IS END OF FILE SWITCH OR CPB SW     02388021
 000B30 4770 F3DA      00C5A        1584          BC    NOTZER,FSTERM       YES, DO FULE SECTION TERMINATION     02394021
 000B34 94FD D5A7      0BAE7        1585          NI    BPERRO,XXFD          TURN OFF SA DICT. PTR. SW           02400021
 000B38 9538 7002      00002        1586 FILE1X   CLI   DX2(R7),XX38        IS RECORD FS-TEXT                    02406021
 000B3C 4780 F380      00C00        1587          BC    EQ,FSTEXT           YES, BRANCH                          02412021
 000B40 9536 7002      00002        1588          CLI   DX2(R7),XX36         NO, IS RECORD SD-TEXT               02418021
 000B44 4780 F3EC      00C6C        1589          BC    EQ,SDTEXT           YES                                  02424021
 000B48 9532 7002      00002        1590          CLI   DX2(R7),XX32          O,IS RECORD A '77' ITEM            02430021
 000B4C 4770 F2DA      00B5A        1591          BC    NOTEQ,FILES2        NO                                   02436021
 000B50 9201 7002      00002        1592          MVI   DX2(R7),XX01         YES, ERROR THERE ARE NO 77'S ALL    02442021
 000B54 4540 FFD0      01850        1593          BAL   R4,LDEROR           LDTEXT ERROR ROUTINE                 02448021
 000B58 101E                        1594          DC    X'101E'             30                                   02454021
 000B5A 9501 7002      00002        1595 FILES2   CLI   DX2(R7),XX01        01 ITEM                              02460021
 000B5E 4770 F37C      00BFC        1596          BNE   FDNON01            NO.                                   02466021
 000B62 9501 D76F      0BCAF        1597          CLI   MCI,XX01            01 UNDER SD?                         02472021
 000B66 4780 F374      00BF4        1598          BE    FILES3             YES.                                  02478021
 000B6A 9180 D5A1      0BAE1        1599          TM    LBLSW,XX80     YES. LABEL RECORDS ARE ON CCAUSE?         02484021
1PH20     IKFCBL20                                                                                              PAGE   45
-  LOC  OBJECT CODE    ADDR1 ADDR2  STMT   SOURCE STATEMENT                                       ASM 0201 11.03 02/14/15
0000B6E 4780 F36E      00BEE        1600          BZ    FDDN001            01 - DATA RECORD                      02490021
 000B72 5840 DB04      0C044        1601          L     R4,LPARAM          NO. COMPARE DATA NAMES. A(TIB)        02496021
 000B76 5844 0000      00000        1602          L     R4,DX0(R4)          R4=A(TAMM)                           02502021
 000B7A 4854 0004      00004        1603          LH    R5,DX4(R4)          R4=SIZE OF TBL USED(IN TAMM)         02508021
 000B7E 5844 0000      00000        1604          L     R4,DX0(R4)          R4=A(LABTBL)                         02514021
 000B82 5440 D4C4      0BA04        1605          N     R4,MK0932                                                02520021
 000B86 1A54                        1606          AR    R5,R4              R5=A(END OF TABLE)                    02526021
 000B88 1B33                        1607 LBLTST1  SR    R3,R3                                                    02532021
 000B8A 4334 0002      00002        1608          IC    R3,DX2(R4)          R3=NAME COUNT                        02538021
 000B8E 0630                        1609          BCTR  R3,R0               SUBTRACT 1 FROM NAME COUNT           02544021
 000B90 D500 700C 4002 0000C 00002  1610          CLC   ICLDCT(LX1),DX2(R4)  NAME COUNT AGREE?                   02550021
 000B96 4770 F322      00BA2        1611          BNE   LBLTST2            NO.                                   02556021
 000B9A 4430 F342      00BC2        1612          EX    R3,LBLCLC          SAME DATA NAMES?                      02562021
 000B9E 4780 F34E      00BCE        1613          BE    LBLDN01            YES. 01 LABEL RECORD.                 02568021
                             00BA2  1614 LBLTST2  EQU   *                                                  45043 02574021
 000BA2 9101 D5AA      0BAEA        1615          TM    COPYSW,XX01              IS COPY SW ON             45043 02580021
 000BA6 4780 F332      00BB2        1616          BZ    LBLTST3                    NO, BR                  45043 02586021
 000BAA 4430 F348      00BC8        1617          EX    R3,LBLCOPY               IS LABEL NM A COPY        45043 02592021
                                    1618 *  COMPARE DATA NAME THAT SPECIFIED COPY ( SAVED IN BSAVEC) WITH  45043 02598021
                                    1619 *  LABEL NAMES SAVED IN THE LABEL NAME TABLE                      45043 02604021
 000BAE 4780 F34E      00BCE        1620          BE    LBLDN01                  YES-01 LABEL RECORD       45043 02610021
 000BB2 1A43                        1621 LBLTST3  AR    R4,R3                    R3 = NAME CNT - 1         45043 02616021
 000BB4 4144 0004      00004        1622          LA    R4,DX4(R4)          R4=A(NEXT ENTRY)                     02622021
 000BB8 1954                        1623          CR    R5,R4              EOT                                   02628021
 000BBA 4720 F308      00B88        1624          BH    LBLTST1            MORE ENTRY                            02634021
 000BBE 47F0 F36E      00BEE        1625          B     FDDN001            01 DATA RECORD                        02640021
 000BC2 D500 700D 4003 0000D 00003  1626 LBLCLC   CLC   ICLDCT+NX1(LX0),DX3(R4)                                  02646021
 000BC8 D500 D849 4003 0BD89 00003  1627 LBLCOPY  CLC   BSAVEC+NX1(LX0),DX3(R4)  COMPARE NAMES             45043 02652021
                                    1628 * 01 FOR LABEL RECORD                                                   02658021
 000BCE D70D D76F D76F 0BCAF 0BCAF  1629 LBLDN01  XC    SCAR(LX14),SCAR          CLEAR SCAR                      02664021
 000BD4 9205 D76F      0BCAF        1630          MVI   MCI,XX05            SET MAJOR CODE = LINKAGE SECT.       02670021
                                    1631 *                                  COPY CLAUSE INDICATED                02676021
 000BD8 9110 7006      00006        1632          TM    DX6(R7),XX10        COPY CLAUSE PRESENT ??               02682021
 000BDC 4710 F374      00BF4        1633          BO    FILES3              YES,  DO NOT SAVE LBLSW              02688021
 000BE0 D200 D5A2 D5A1 0BAE2 0BAE1  1634          MVC   PLBLSW(LX1),LBLSW                                        02694021
 000BE6 9640 D5A1      0BAE1        1635          OI    LBLSW,XX40          PROCESSING LABEL RCD.                02700021
 000BEA 47F0 F374      00BF4        1636          B     FILES3              BR TO PROCESS LD TEXT                02706021
                                    1637 * 01 FOR DATA RECORD                                                    02712021
                             00BEE  1638 FDDN001  EQU   *                                                        02718021
 000BEE 58F0 DBA8      0C0E8        1639          L     R15,ASUBRTN                                              02724021
 000BF2 05EF                        1640          BALR  R14,R15             CHECK FOR MISSING FD                 02730021
 000BF4 4540 F74A      00FCA        1641 FILES3   BAL   R4,LDTEXT           PROCESS LD TEXT                      02736021
 000BF8 47F0 F2AC      00B2C        1642          B     FILES1              DETER. TYPE OF FILE SECT. TXT        02742021
                                    1643 * NON 01 LD TEXT UNDER FD                                               02748021
 000BFC 47F0 F374      00BF4        1644 FDNON01  B     FILES3              PROCESS LD TEXT                      02754021
 000C00 58F0 DC80      0C1C0        1645 FSTEXT L     R15,AFSTXT                                                 02760021
 000C04 05EF                        1646        BALR  R14,R15              CALL FSTXT ROUTINE TO PROCESS FD      02766021
 000C06 58F0 DC84      0C1C4        1647          L     R15,AMAIN                                                02772021
1PH20     IKFCBL20                                                                                              PAGE   46
-  LOC  OBJECT CODE    ADDR1 ADDR2  STMT   SOURCE STATEMENT                                       ASM 0201 11.03 02/14/15
0                                   1649 * GET THE DICTIONARY PTR FOR THE FD AND CALL DICTIONARY BUILD           02784021
 000C0A 9238 D688      0BBC8        1650 FS012    MVI   SRCELN,XX38          SET FD LEVEL NUMBER                 02790021
 000C0E 920C DB78      0C0B8        1651          MVI   BCIPRM,XX0C          MOVE GROUP ITEM CODE TO GETPTR P    02796021
 000C12 D700 D777 D777 0BCB7 0BCB7  1652          XC    FESB(LX1),FESB       IN CASE NO 01                       02802021
 000C18 4540 FF6A      017EA        1653          BAL   R4,GETDPT           GET DICTIONARY POINTER AND CHECK     02808021
                                    1654 *                                   CONDITIONAL VARIABLE DELIMITOR      02814021
 000C1C D202 DFE6 DFE3 0C526 0C523  1655          MVC   LSTQUL(LX3),HIQUAL  SAVE OLD FD DICTPT FOR KEYCHK        02820021
 000C22 D202 DFE3 D685 0C523 0BBC5  1656          MVC   HIQUAL(LX3),DICTPT+NX1 SAVE DICT. PTR. OF FD, SD, OR SA  02826021
 000C28 9201 D5AC      0BAEC        1657          MVI   NOFDSW,XX01          THERE IS AN FD, SD, OR SA-BOTH      02832021
                                    1658 *                                  FOR ELIODO RTN                       02838021
 000C2C 9102 D5A7      0BAE7        1659          TM    BPERRO,XX02          IF LEGAL SA                         02844021
 000C30 47E0 F3BA      00C3A        1660          BC    NOTONE,*+NX10        REPLACE SA-NAME IN APPLY TABLE      02850021
 000C34 D203 A023 D684 00023 0BBC4  1661          MVC   DX35(LX4,R10),DICTPT   WITH SA DICT. PTR.                02856021
 000C3A 4540 FF86      01806        1662          BAL   R4,BCONDE           CHECK FOR COND. VARIABLE DELIMIT     02862021
 000C3E 9601 D60D      0BB4D        1663          OI    FDNOBL,XX01                                              02868021
 000C42 D203 D904 B148 0BE44 00148  1664          MVC   SAV01L(LX4),LOCCTR                                       02874021
 000C48 50F0 DA24      0BF64        1665          ST    R15,DSAVE                                                02880021
 000C4C 58F0 DBC8      0C108        1666          L     R15,ADICTB                                               02886021
 000C50 05EF                        1667          BALR  R14,R15             CALL DICTIONARY BUILD TO ENTER       02892021
 000C52 58F0 DA24      0BF64        1668          L     R15,DSAVE                FD ENTRY INTO THE DICTIONAR     02898021
 000C56 47F0 F2AC      00B2C        1669          BC    UNCOND,FILES1       DETER. TYPE OF FILE SECT. TXT        02904021
 000C5A 9620 D5AA      0BAEA        1670 FSTERM   OI    FSTSW,XX20           SET END OF FILE SECTION SW ON FO    02910021
 000C5E 1B22                        1671          SR    R2,R2                                                    02916021
 000C60 5810 DB84      0C0C4        1672          L     R1,COSADR                                                02922021
 000C64 0501                        1673          BALR  R0,R1               BRANCH TO COMMON                     02928021
 000C66 FF                          1674          DC    X'FF'                                                    02934021
 000C67 00
 000C68 47F0 F226      00AA6        1675          BC    UNCOND,BEGIN0        DICT. BUILD AND GO TO SECT. DET     02940021
1PH20     IKFCBL20                                                                                              PAGE   47
-  LOC  OBJECT CODE    ADDR1 ADDR2  STMT   SOURCE STATEMENT                                       ASM 0201 11.03 02/14/15
0                                   1677 *                                                                       02952021
                                    1678 * HANDLES  SD  SORT DESCRIPTION ENTRY                                   02958021
                                    1679 *                                                                       02964021
                             00000  1680          USING ISDTXT,R7                                                02970021
 000C6C D71D D8A8 D8A8 0BDE8 0BDE8  1681 SDTEXT   XC    BUFCAL(LX30),BUFCAL                                      02976021
 000C72 9200 D468      0B9A8        1682          MVI   SRANO,XX00          RESET SD SAME REC AREA NO            02982021
 000C76 50F0 DA24      0BF64        1683          ST    R15,DSAVE                                                02988021
 000C7A D79F D5EC D5EC 0BB2C 0BB2C  1684          XC    CI(LX160),CI             CLEAR AREA                      02994021
 000C80 1B66                        1685          SR    R6,R6               * MOVE SORT FILE                     03000021
 000C82 4360 7014      00014        1686          IC    R6,ISDNCT           * NAME TO CI FOR                     03006021
 000C86 4460 F4C0      00D40        1687          EX    R6,SDMOVE           * DICTIONARY CHECKING AND ENTRY      03012021
 000C8A D201 D5C7 7004 0BB07 00004  1688          MVC   CARDNO(LX2),ISDCDN   CARD NUM FOR ERROR IDENTIFICATION   03018021
                                    1689 *                                                                       03024021
 000C90 5810 DCC0      0C200        1690          L     R1,ALTNPRM          * CALL 'LATRNM' TO CHECK             03030021
 000C94 58F0 DBEC      0C12C        1691          L     R15,ALATRN          *  IF SD IS                          03036021
 000C98 05EF                        1692          BALR  R14,R15             *  DUPLICATE                         03042021
 000C9A 183F                        1693          LR    R3,R15              SAVE RETURN CODE                     03048021
 000C9C 58F0 DA24      0BF64        1694          L     R15,DSAVE                                                03054021
 000CA0 5930 D3F4      0B934        1695          C     R3,ZEROS            DUPLICATE SD?                        03060021
 000CA4 4770 F444      00CC4        1696          BC    NOTEQ,SDTXT1        NO - CONTINUE PROCESSING             03066021
 000CA8 4800 DFB6      0C4F6        1697          LH    R0,MSG44            * GENERATE                           03072021
 000CAC 58F0 DBC0      0C100        1698          L     R15,AERRTN          * MESSAGE FOR                        03078021
 000CB0 05EF                        1699          BALR  R14,R15             * DUPLICATE SD                       03084021
 000CB2 58F0 DA24      0BF64        1700          L     R15,DSAVE           GET BASE REG                         03090021
 000CB6 4140 0033      00033        1701          LA    R4,DX51              TOTAL COUNT                         03096021
 000CBA 1854                        1702          LR    R5,R4               CALL BSUBRN TO INCREMENT TO          03102021
 000CBC 4560 F91A      0119A        1703          BAL   R6,BSUBRN             NEXT IC-TEXT FIELD                 03108021
 000CC0 47F0 F2AC      00B2C        1704          B     FILES1              SEE WHAT'S NEXT                      03114021
                                    1705 *                                                                       03120021
                                    1706 *                                                                       03126021
                             00CC4  1707 SDTXT1   EQU   *                                                        03132021
 000CC4 9644 D5AA      0BAEA        1708          OI    FSTSW,XX44           SET FS SW FOR BCOPY AND PHTERM      03138021
 000CC8 D203 B148 D904 00148 0BE44  1709          MVC   LOCCTR(LX4),SAV01L                                       03144021
 000CCE 9201 D76F      0BCAF        1710          MVI   MCI,XX01             SET MAJOR CODE INDICATOR TO SD      03150021
 000CD2 D200 D5A2 D5A1 0BAE2 0BAE1  1711          MVC   PLBLSW(LX1),LBLSW                                        03156021
 000CD8 94BF D5A1      0BAE1        1712          NI    LBLSW,XXBF          LBL RCD SW OFF                       03162021
 000CDC 4320 700A      0000A        1713          IC    R2,ISDFL2          GET RECORDING MODE                    03168021
 000CE0 8820 0001      00001        1714          SRL   R2,DX1                                                   03174021
 000CE4 4220 D8B2      0BDF2        1715          STC   R2,BUFCAL+NX10                                           03180021
 000CE8 940F D8B2      0BDF2        1716          NI    BUFCAL+NX10,XX0F                                         03186021
 000CEC D201 D8C4 7004 0BE04 00004  1717          MVC   BUFCAL+NX28(LX2),ISDCDN   AND BUFCAL                     03192021
 000CF2 D203 D8AC 7006 0BDEC 00006  1718          MVC   BUFCAL+NX4(LX4),ISDRC1 MOVE RECORD CONTAINS TO BUFCAL    03198021
 000CF8 9289 D60C      0BB4C        1719          MVI   CI+NX32,XX89         SET MAJOR CODE AND COUNT            03204021
 000CFC 1B99                        1720          SR    R9,R9                                                    03210021
 000CFE 4390 7014      00014        1721          IC    R9,ISDNCT           R9=DATA NAME CT                      03216021
 000D02 4490 F4C0      00D40        1722          EX    R9,SDMOVE          MOVE SORT-FILE NAME TO CI             03222021
 000D06 9236 D688      0BBC8        1723          MVI   SRCELN,XX36          MOVE LEVEL NUMBER TO WORKAREA       03228021
                                    1724 *                                  SMRCDTBL (TIB5) SAME REC AREA        03234021
 000D0A 9102 7003      00003        1725          TM    ISDFL1,XX02         IS THIS SAME REC SD FILE             03240021
 000D0E 4780 F4A4      00D24        1726          BZ    SDTXT1A             DO NOT MOVE SRA NO.                  03246021
 000D12 D200 D468 700B 0B9A8 0000B  1727          MVC    SRANO,ISDSMNO      SAVE SRA NO                          03252021
 000D18 D709 D944 D944 0BE84 0BE84  1728          XC    SMRCDAR(LX10),SMRCDAR   LEAR SMRCDTBL WORKING AREA       03258021
 000D1E D200 D944 700B 0BE84 0000B  1729          MVC    SMRCDAR(LX1),ISDSMNO   INSERT SRANO                     03264021
 000D24                             1730 SDTXT1A  DS    0H                                                       03270021
 000D24 1B44                        1731          SR    R4,R4                      CLEAR REG 4             45078 03276021
1PH20     IKFCBL20                                                                                              PAGE   48
-  LOC  OBJECT CODE    ADDR1 ADDR2  STMT   SOURCE STATEMENT                                       ASM 0201 11.03 02/14/15
0000D26 4340 D5A9      0BAE9        1732          IC    R4,PRDCBNO               INCR DCB NO IN CASE       45078 03282021
 000D2A 4144 0001      00001        1733          LA    R4,DX1(R4)               THERE IS A PREV FD WITH A 45078 03288021
 000D2E 4240 D5A9      0BAE9        1734          STC   R4,PRDCBNO               GROUP TO RESOLVE WITH     45078 03294021
                                    1735 *      OCCURS OR REDEFINES                                        45078 03300021
 000D32 4140 0033      00033        1736          LA    R4,DX51                                                  03306021
 000D36 1854                        1737          LR    R5,R4               CALL BSUBRN TO INCREMENT REG 7 T     03312021
 000D38 4560 F91A      0119A        1738          BAL   R6,BSUBRN             NEXT IC-TEXT FIELD                 03318021
 000D3C 47F0 F38E      00C0E        1739          BC    UNCOND,FS012+NX4    PROCESS IC TEXT                      03324021
 000D40 D200 D5EC 7014 0BB2C 00014  1740 SDMOVE   MVC   CI(LX0),ISDNCT                                           03330021
1PH20     IKFCBL20                                                                                              PAGE   49
-  LOC  OBJECT CODE    ADDR1 ADDR2  STMT   SOURCE STATEMENT                                       ASM 0201 11.03 02/14/15
1PH20     IKFCBL20                                                                                              PAGE   50
-  LOC  OBJECT CODE    ADDR1 ADDR2  STMT   SOURCE STATEMENT                                       ASM 0201 11.03 02/14/15
0                                   1743 *                                                                       03348021
                                    1744 * HANDLES  RD  REPORT DESCRIPTION                                       03354021
                                    1745 *              AND ALL ITEMS IN REPORT SECTION- 01-49 LEVELS            03360021
                                    1746 *                                               RSDUP TEXT              03366021
                                    1747 *                                                                       03372021
 000D46 D70D D76F D76F 0BCAF 0BCAF  1748 REPORT   XC    SCAR(LX14),SCAR          CLEAR SCAR                      03378021
 000D4C 9602 D5AB      0BAEB        1749          OI    WSRSW,XX02                                               03384021
 000D50 9206 D76F      0BCAF        1750          MVI   MCI,XX06             SET MAJOR CODE IND. TO REPORT SE    03390021
 000D54 9101 D5AB      0BAEB        1751          TM    WSRSW,XX01           WAS THERE A WS SECTION              03396021
 000D58 4710 F526      00DA6        1752          BC    ONES,REPR01         YES, BRANCH                          03402021
 000D5C D706 DEB9 DEB9 0C3F9 0C3F9  1753          XC    APAF(LX7),APAF       NO, SET APAF TO                     03408021
 000D62 4810 B20C      0020C        1754          LH    R1,BLCTR                                                 03414021
 000D66 4111 0001      00001        1755          LA    R1,DX1(R1)                                               03420021
 000D6A 4010 B20C      0020C        1756          STH   R1,BLCTR                                                 03426021
 000D6E 4210 DEBB      0C3FB        1757          STC   R1,APAF+NX2                                              03432021
 000D72 4210 DEC7      0C407        1758          STC   R1,FAPAF+NX2                                             03438021
 000D76 9120 D5AA      0BAEA        1759          TM    FSTSW,XX20           IS END OF FILE SECT. SW ON          03444021
 000D7A 4780 F504      00D84        1760          BC    ZERO,REPR00         NO, BRANCH                           03450021
 000D7E D203 B148 D904 00148 0BE44  1761          MVC   LOCCTR(LX4),SAV01L                                       03456021
 000D84 5810 B148      00148        1762 REPR00   L     R1,LOCCTR                                                03462021
 000D88 5B10 DE8C      0C3CC        1763          S     R1,XTRA                  SUBT XTRA BYTES FROM LOCCTR     03468021
                                    1764 *  IN CASE THERE WAS A LINKAGE SECTION & XTRA BYTES WERE ADDED    42660 03474021
 000D8C 5A10 D410      0B950        1765          A     R1,SEVEN                AND 1ST BL=                      03480021
 000D90 5410 D4F0      0BA30        1766          N     R1,MK0129               OF REPORT SECTION                03486021
 000D94 5010 B148      00148        1767          ST    R1,LOCCTR                                                03492021
 000D98 5010 DDE0      0C320        1768          ST    R1,WS                                                    03498021
 000D9C D200 DDE4 DEBB 0C324 0C3FB  1769          MVC   WS+NX4(LX1),APAF+NX2                                     03504021
 000DA2 47F0 F538      00DB8        1770          BC    UNCOND,REPRT1       CHECK FOR EOF SW                     03510021
 000DA6 D206 DEB9 DED3 0C3F9 0C413  1771 REPR01   MVC   APAF(LX7),RAPAF      APAF CONTINUES WHERE WS LEFT OFF    03516021
                                    1772 *  THE NEXT 3 INSTRUCTIONS WILL RESTORE THE LOCATION COUNTER      42660 03522021
                                    1773 *  AS IT SHOULD BE IF THERE WAS A LINKAGE SECTION AND IF          42660 03528021
                                    1774 *  UNNECESSARY BYTES WERE ADDED TO THE PROGRAM. IF THERE WAS      42660 03534021
                                    1775 *  NO LINKAGE SECTION AND NO UNNECESSARY STORAGE WAS ADDED,       42660 03540021
                                    1776 *  THEN ZEROES WILL BE SUBTRACTED FROM LOCCTR, THEREFORE          42660 03546021
                                    1777 *  NOT ALTERING THE CORRECT VALUE OF THE LOCATION COUNTER.        42660 03552021
 000DAC 5810 B148      00148        1778          L     R1,LOCCTR                CURRENT LOCATION COUNTER  42660 03558021
 000DB0 5B10 DE8C      0C3CC        1779          S     R1,XTRA                   SUBTRACT XTRA BYTES      42660 03564021
 000DB4 5010 B148      00148        1780          ST    R1,LOCCTR                LOCCTR AS IT SHLD BE      42660 03570021
 000DB8 9112 D5AA      0BAEA        1781 REPRT1   TM    COPYSW,XX12          IS END OF FILE OR SECTION SW ON     03576021
 000DBC 4770 F5AE      00E2E        1782          BC    NOTZER,RPTERM       YES, GO TO TERMINATION RTN           03582021
 000DC0 9538 7002      00002        1783          CLI   DX2(R7),XX38         NO, IS THIS IC-TEXT ELEMENT RSDU    03588021
 000DC4 4780 F5B2      00E32        1784          BC    EQ,RSDUP0           YES, BRANCH TO RSDUP PROCESSOR       03594021
 000DC8 9534 7002      00002        1785          CLI   DX2(R7),XX34         RD                                  03600021
 000DCC 4770 F5A0      00E20        1786          BC    NOTEQ,REPRT2        NO                                   03606021
                                    1787 * RD                                                                    03612021
 000DD0 D79F D5EC D5EC 0BB2C 0BB2C  1788          XC    CI(LX160),CI             CLEAR AREA                      03618021
 000DD6 9604 D5AA      0BAEA        1789          OI    FSTSW,XX04           SET FS SW FOR PHTERM                03624021
 000DDA D201 D5C7 7003 0BB07 00003  1790          MVC   CARDNO(LX2),DX3(R7)   SAVE CARD =                        03630021
 000DE0 1B99                        1791          SR    R9,R9                                                    03636021
 000DE2 4397 0005      00005        1792          IC    R9,DX5(R7)                                               03642021
 000DE6 4490 F59A      00E1A        1793          EX    R9,RPMOVE                                                03648021
 000DEA 928E D60C      0BB4C        1794          MVI   CI+NX32,XX8E         COUNT, MAJOR CODE                   03654021
 000DEE 9234 D688      0BBC8        1795          MVI   SRCELN,XX34          INTERNAL LEVEL =                    03660021
 000DF2 4149 0007      00007        1796          LA    R4,DX7(R9)                                               03666021
 000DF6 1854                        1797          LR    R5,R4                                                    03672021
1PH20     IKFCBL20                                                                                              PAGE   51
-  LOC  OBJECT CODE    ADDR1 ADDR2  STMT   SOURCE STATEMENT                                       ASM 0201 11.03 02/14/15
0000DF8 4560 F91A      0119A        1798          BAL   R6,BSUBRN           BUFFER SUBROUTINE                    03678021
 000DFC 920C DB78      0C0B8        1799          MVI   BCIPRM,XX0C          SET GROUP ITEM CODE FOR GETDPT      03684021
 000E00 4540 FF6A      017EA        1800          BAL   R4,GETDPT           GET DICTIONARY POINTER               03690021
 000E04 4540 FF86      01806        1801          BAL   R4,BCONDE           CHECK FOR CONDITIONAL VARIABLE       03696021
 000E08 50F0 DA24      0BF64        1802          ST    R15,DSAVE                                                03702021
 000E0C 58F0 DBC8      0C108        1803          L     R15,ADICTB                                               03708021
 000E10 05EF                        1804          BALR  R14,R15             BR TO DICTIONARY BUILD RTN           03714021
 000E12 58F0 DA24      0BF64        1805          L     R15,DSAVE                                                03720021
 000E16 47F0 F538      00DB8        1806          BC    UNCOND,REPRT1       CHECK NEXT RD ENTRY                  03726021
 000E1A D200 D5EC 7005 0BB2C 00005  1807 RPMOVE   MVC   CI(LX0),DX5(R7)                                          03732021
                                    1808 * 01-49 LEVEL                                                           03738021
 000E20                             1809 REPRT2   DS    0H                                                 34194 03744021
 000E20 58F0 DCDC      0C21C        1810          L     R15,AREPRTCK        PERFORM TO CHECK REPPORT WRITER34194 03750021
 000E24 05EF                        1811          BALR  R14,R15             ITEM LENGTH                    34194 03756021
                                    1812 *                                                                 34194 03762021
 000E26 4540 F74A      00FCA        1813          BAL   R4,LDTEXT           PERFORM LD TEST PROCESS        34194 03768021
                                    1814 *                                                                 34194 03774021
 000E2A 47F0 F538      00DB8        1815          BC    UNCOND,REPRT1       CHECK NEXT RD ENTRY                  03780021
 000E2E 47F0 F226      00AA6        1816 RPTERM   BC    UNCOND,BEGIN0       RETURN TO SECTION DETERMINER         03786021
                                    1817 * RSDUP TEXT                                                            03792021
 000E32 D79F D5EC D5EC 0BB2C 0BB2C  1818 RSDUP0   XC    CI(LX160),CI             CLEAR AREA                      03798021
 000E38 D7D6 D689 D689 0BBC9 0BBC9  1819          XC    ELITEM(LX215),ELITEM                                     03804021
 000E3E 1B44                        1820          SR    R4,R4                                                    03810021
 000E40 1B99                        1821          SR    R9,R9                                                    03816021
 000E42 D201 D5C7 7003 0BB07 00003  1822          MVC   CARDNO(LX2),DX3(R7)   MOVE CARD = TO CI                  03822021
 000E48 4397 0005      00005        1823          IC    R9,DX5(R7)           GET DATA-NAME COUNT                 03828021
 000E4C 4490 F6A4      00F24        1824          EX    R9,RSMOVN           MOVE DATA-NAME TO CI                 03834021
 000E50 4179 7006      00006        1825          LA    R7,DX6(R9,R7)        SET BUFFER PTR TO ORIGINAL NAME     03840021
 000E54 1887                        1826          LR    R8,R7                                                    03846021
 000E56 95FF 7000      00000        1827          CLI   DX0(R7),XXFF         IS RSDUP-TEXT SPLIT ACROSS 2 BUF    03852021
 000E5A 4770 F5E8      00E68        1828          BC    NOTEQ,RSDUP1        NO                                   03858021
 000E5E 181B                        1829          LR    R1,R11              YES                                  03864021
 000E60 0501                        1830          BALR  R0,R1               READ FILE 3                          03870021
 000E62 03                          1831          DC    X'03'                                                    03876021
 000E63 00
 000E64 1870                        1832          LR    R7,R0               BUFFER ADDRESS                       03882021
 000E66 1887                        1833          LR    R8,R7                                                    03888021
 000E68 4397 0000      00000        1834 RSDUP1   IC    R9,DX0(R7)           SCAN ORIGINAL NAME FIELD AND ITS    03894021
 000E6C 1299                        1835          LTR   R9,R9                QUALIFIERS. AT END OF SCAN          03900021
 000E6E 4780 F5FE      00E7E        1836          BC    ZERO,RSDUP2             R4= LGN. OF ORIGINAL NAME        03906021
 000E72 4144 9001      00001        1837          LA    R4,DX1(R4,R9)            R7= ADDRESS OF LAST CHAR IN     03912021
 000E76 4177 9001      00001        1838          LA    R7,DX1(R7,R9)                 RSDUP-TEXT                 03918021
 000E7A 47F0 F5E8      00E68        1839          BC    UNCOND,RSDUP1       CONTINUE SCAN                        03924021
 000E7E 4144 0001      00001        1840 RSDUP2   LA    R4,DX1(R4)                                               03930021
 000E82 4040 D900      0BE40        1841          STH   R4,FULLWD           PUT R4(LGN OF ORIG. NAME FLD)        03936021
 000E86 5B80 D3FC      0B93C        1842          S     R8,TWO                  BEVORE ORIG. NAME FLD            03942021
 000E8A D201 8000 D900 00000 0BE40  1843          MVC   DX0(LX2,R8),FULLWD                                       03948021
 000E90 1818                        1844          LR    R1,R8                                                    03954021
 000E92 50F0 DA18      0BF58        1845          ST    R15,TSAVER                                               03960021
 000E96 58F0 DC4C      0C18C        1846          L     R15,AQUAL           CALL QUALIFIER RTN TO FIND           03966021
 000E9A 05EF                        1847          BALR  R14,R15               ADDRESS OF ORIGINAL DATA-NAME      03972021
 000E9C 12EF                        1848          LTR   R14,R15             TEST RETURN CODE                     03978021
 000E9E 58F0 DA18      0BF58        1849          L     R15,TSAVER                                               03984021
 000EA2 4770 F690      00F10        1850          BC    NOTZER,RSDUP4       RETURN CODE = ERROR                  03990021
 000EA6 5820 DEF0      0C430        1851          L     R2,INPUT                                                 03996021
1PH20     IKFCBL20                                                                                              PAGE   52
-  LOC  OBJECT CODE    ADDR1 ADDR2  STMT   SOURCE STATEMENT                                       ASM 0201 11.03 02/14/15
0                                   1852 *                                  R2= ADDRESS OF ATTRIBUTES IN DIC     04002021
 000EAA D200 D60D 2001 0BB4D 00001  1853          MVC   MINCOD(LX1),DX1(R2)   MOVE DICT. MINOR CODE TO CI        04008021
 000EB0 94F0 D60D      0BB4D        1854          NI    MINCOD,XXF0          ZERO OUT OCCURS, REDEFINES, AND     04014021
                                    1855 *                                    SUBSCRIPT FIELDS                   04020021
 000EB4 D202 D612 2006 0BB52 00006  1856          MVC   LEVNUM(LX3),DX6(R2)                                      04026021
 000EBA 9401 D612      0BB52        1857          NI    LEVNUM,XX01          ZERO LEV NUM AND QUANTITY BIT       04032021
 000EBE 9296 D60C      0BB4C        1858          MVI   COUNT,RSDUPC        MOVE COUNT MAJOR CODE TO CI          04038021
 000EC2 9540 D60D      0BB4D        1859          CLI   MINCOD,XX40          IS ORIG. ITEM A VAR. LGN GROUP      04044021
 000EC6 4780 F69A      00F1A        1860          BC    EQ,RSDUP5           YES, ERROR BRANCH                    04050021
 000ECA 9510 D60D      0BB4D        1861          CLI   MINCOD,XX10          NO, IS ITEM A GROUP(FIXED LGN)      04056021
 000ECE 4770 F656      00ED6        1862          BC    NOTEQ,*+NX8          NO                                  04062021
 000ED2 9230 D60D      0BB4D        1863 RSDP2A   MVI   MINCOD,XX30          YES, MAKE THIS ITEM ALPHANUM. EL    04068021
 000ED6 96C8 D612      0BB52        1864          OI    LEVNUM,XXC8          SET LEVEL = 77                      04074021
 000EDA 9232 D688      0BBC8        1865          MVI   SRCELN,XX32                                              04080021
 000EDE D701 D676 D676 0BBB6 0BBB6  1866          XC    ITMCLS(LX2),ITMCLS   CLEAR CLAUSE BYTES                  04086021
 000EE4 4010 D678      0BBB8        1867        STH   R1,CILGN                   SET ITEM'S MACH LNGTH           04092021
                                    1868 *                                       R1 SET BY QUAL ROUTINE          04098021
 000EE8 9208 DB78      0C0B8        1869          MVI   BCIPRM,XX08          SET ACCESS PAR. FOR GETPTR TO EL    04104021
 000EEC 4540 FF6A      017EA        1870          BAL   R4,GETDPT           GET ITEM'S DICTIONARY PTR.           04110021
 000EF0 4540 FF86      01806        1871          BAL   R4,BCONDE           CHECK FOR COND. VAR. DELIMITOR       04116021
 000EF4 50F0 DA18      0BF58        1872          ST    R15,BSAVE4                                               04122021
 000EF8 58F0 DBC8      0C108        1873          L     R15,ADICTB          CALL DICTIONARY BUILD                04128021
 000EFC 05EF                        1874          BALR  R14,R15             BR TO DICT BUILD RTN                 04134021
 000EFE 58F0 DA18      0BF58        1875          L     R15,BSAVE4                                               04140021
 000F02 4140 0001      00001        1876 RSDUP3   LA    R4,DX1                                                   04146021
 000F06 1854                        1877          LR    R5,R4               CALL BSUBRN TO INCREMENT BUFFER      04152021
 000F08 4560 F91A      0119A        1878          BAL   R6,BSUBRN            PTR TO NEXT IC-TEXT ELEMENT         04158021
 000F0C 47F0 F538      00DB8        1879          BC    UNCOND,REPRT1       CHECK NEXT RD ENTRY                  04164021
 000F10 4540 FFD0      01850        1880 RSDUP4   BAL   R4,LDEROR           ORIGINAL NAME NOT FOUND IN DICT.     04170021
 000F14 202D                        1881          DC    X'202D'             45                                   04176021
 000F16 47F0 F682      00F02        1882          BC    UNCOND,RSDUP3       BR TO RTN TO GET NEXT IC-TXT         04182021
 000F1A 4540 FFD0      01850        1883 RSDUP5   BAL   R4,LDEROR           ORIGINAL NAME IS VARIABLE NAME G     04188021
 000F1E 202E                        1884          DC    X'202E'             46                                   04194021
 000F20 47F0 F652      00ED2        1885          BC    UNCOND,RSDP2A       CONTINUE PROCESSING                  04200021
 000F24 D200 D5EC 7005 0BB2C 00005  1886 RSMOVN   MVC   CI(LX0),DX5(R7)                                          04206021
                                    1887 *                                                                       04212021
                                    1888 * HANDLES 01-49 LEVELS IN LINKAGE SECTION                               04218021
                                    1889 *                                                                       04224021
 000F2A D70D D76F D76F 0BCAF 0BCAF  1890 LINKST   XC    SCAR(LX14),SCAR          CLEAR SCAR                      04230021
 000F30 9205 D76F      0BCAF        1891          MVI   MCI,XX05             SET MAJOR CODE IND. TO LINKAGE S    04236021
 000F34 94FB D5AA      0BAEA        1892          NI    FSTSW,XXFB           TURN OFF NEED TO DELIMIT SW         04242021
 000F38 4540 F74A      00FCA        1893 LINKS1   BAL   R4,LDTEXT           CALL LEVEL 01-49,77 PROCESSOR        04248021
 000F3C 9112 D5AA      0BAEA        1894          TM    COPYSW,XX12          IS IT END OF SECTION(CPB) OR END    04254021
                                    1895 *                                                         FILE 3        04260021
 000F40 4780 F6B8      00F38        1896          BC ZERO,LINKS1            NO, PROCESS NEXT ITEM                04266021
 000F44 47F0 F226      00AA6        1897 LSTERM   BC    UNCOND,BEGIN0       YES, DO LINKAGE TERMINATION          04272021
 000F48 922C D6B8      0BBF8        1898 PREMAS   MVI   ACONDF,XX2C          ADCON CODE                          04278021
 000F4C 9204 D6BC      0BBFC        1899          MVI   ACONDF+NX4,XX04      ADCON LGN                           04284021
 000F50 4130 0008      00008        1900          LA    R3,DX8               ADCON DEF. LGN                      04290021
 000F54 4120 D6B8      0BBF8        1901 MASPUT   LA    R2,DECBDF                                                04296021
 000F58 5810 DB84      0C0C4        1902          L     R1,COSADR                                                04302021
 000F5C 0501                        1903          BALR  R0,R1               BRANCH TO COMMON                     04308021
 000F5E 14                          1904          DC    X'14'                                                    04314021
 000F5F 00
 000F60 07FE                        1905          BCR   UNCOND,R14          RETURN                               04320021
1PH20     IKFCBL20                                                                                              PAGE   53
-  LOC  OBJECT CODE    ADDR1 ADDR2  STMT   SOURCE STATEMENT                                       ASM 0201 11.03 02/14/15
0                                   1907 *=1    WORKING STORAGE INITIALIZATION --WSTSCT                          04332021
                                    1908 *WSTSCT      INITIALIZES AREAS, SWITCHES, AND TABLES NEEDED IN THE      04338021
                                    1909 *WORKING-STORAGE SECTION.                                               04344021
 000F62 900E D9D8      0BF18        1910 WSTSCT   STM   R0,R14,BSAVE                                             04350021
 000F66 9200 D468      0B9A8        1911          MVI   SRANO,XX00          RESET SD SAME REC AREA NO            04356021
 000F6A D700 D5A7 D5A7 0BAE7 0BAE7  1912          XC    BPERRO(LX1),BPERRO                                       04362021
 000F70 94FB D5AA      0BAEA        1913          NI    FSTSW,XXFB           TURN OFF NEED TO DELIMIT SW         04368021
 000F74 D70D D76F D76F 0BCAF 0BCAF  1914          XC    SCAR(LX14),SCAR          CLEAR SCAR                      04374021
 000F7A 9120 D5AA      0BAEA        1915          TM    FSTSW,XX20           IF END FILE SECT. SW ON SET LOCC    04380021
 000F7E 47E0 F708      00F88        1916          BC    NOTONE,WSTSC0        TO VALUE OF LAST 01 IN FILE SEC     04386021
 000F82 D203 B148 D904 00148 0BE44  1917          MVC   LOCCTR(LX4),SAV01L                                       04392021
 000F88 5810 B148      00148        1918 WSTSC0   L     R1,LOCCTR                                                04398021
 000F8C 5A10 D410      0B950        1919        A     R1,SEVEN              ON R0 BOUNDARY                       04404021
 000F90 5410 D4F0      0BA30        1920          N     R1,MK0129              AND                               04410021
 000F94 5010 B148      00148        1921          ST    R1,LOCCTR                                                04416021
 000F98 5010 DDE0      0C320        1922          ST    R1,WS                     IN WS ( START ADDR. OF WS      04422021
 000F9C 4810 B20C      0020C        1923          LH    R1,BLCTR                                                 04428021
 000FA0 5A10 D3F8      0B938        1924          A     R1,ONE                  WORKING STORAGE                  04434021
 000FA4 4210 DEC7      0C407        1925          STC   R1,FAPAF+NX2                                             04440021
 000FA8 4010 B20C      0020C        1926          STH   R1,BLCTR                                                 04446021
 000FAC D706 DEB9 DEB9 0C3F9 0C3F9  1927          XC    APAF(LX7),APAF                                           04452021
 000FB2 4210 DEBB      0C3FB        1928          STC   R1,APAF+NX2                                              04458021
 000FB6 9204 D76F      0BCAF        1929          MVI   MCI,XX04        SET MAJOR CODE INDICATOR IN SCAR TO W    04464021
 000FBA 4540 F74A      00FCA        1930 WSTSC1   BAL   R4,LDTEXT           CALL LEVEL 1-49 PROCESSOR            04470021
 000FBE 9112 D5AA      0BAEA        1931          TM    COPYSW,XX12          IS END OF SECTION(CPB) OR END OF    04476021
                                    1932 *                                   FILE SWITCH ON                      04482021
 000FC2 4780 F73A      00FBA        1933          BC    ZERO,WSTSC1         NO, BRANCH                           04488021
 000FC6 4770 FFB8      01838        1934          BC    NOTZER,BDDTAB       YES, GO TO TERMINATION RTN           04494021
                                    1935 *LDTEXT(GETNXT)  GETS LD-TEXT FROM BUFFER AND DISTRIBUTES IT TO WOR     04500021
                                    1936 *AREAS TO BE PROCESSED AT A LATER TIME. PICTURES ARE CONVERTED FROM     04506021
                                    1937 *SOURCE LANGUAGE TO INTERNAL LANGUAGE SO THAT THEY MAY BE PROCESSED     04512021
                                    1938 *BY THEIR RESPECTIVE PICTURE ANALYSIS ROUTINES. THE SUBSCRIPTING        04518021
                                    1939 *REQUIREMENTS ARE DETERMINED IN LDTEXT BY A CALL TO BMBSRN.             04524021
                                    1940 *TITLE 'LDTEXT'   -LEVEL DESCRIPTION TEXT PROCESSOR                     04530021
                                    1941 *STATUS                                                                 04536021
                                    1942 *FUNCTION/OPERATION- PHASE 2 RECEIVES ALL 01-49,77,88 ITEMS IN LD-T     04542021
                                    1943 *   THIS ROUTINE DETERMINES THE ATTRIBUTES OF THE ITEM AS FOLLOWS.      04548021
                                    1944 *   A.-GETNXT-TAKES THE LD-TEXT AND DISTRIBUTES IT INTO WORK AREAS.     04554021
                                    1945 *     THERE IS A PICTURE IN THE ITEM  -GSPICT- IS CALLED TO CHECK A     04560021
                                    1946 *     ENCODE IT. THE ROUTINE -BMBSRN- IS CALLED FOR ALL ITEMS TO        04566021
                                    1947 *     DETERMINE  THE SUBSCRIPTING REQUIREMENTS FOR THE ITEM             04572021
                                    1948 *   B.-COPYRN-IF 01 LEVEL HAS A COPY CLAUSE, ITS DATA-NAME IS SAVED     04578021
                                    1949 *     AND REPLACES THE DATA-NAME OF THE NEXT 01 LEVEL ITEM.             04584021
                                    1950 *   C.-BUSAGE-CHECKS THE USAGE CLAUSE COMPATIBILITY. IF A GROUP ITE     04590021
                                    1951 *     HAS A USAGE CLAUSE, ITS SUBORDINATE ITEMS MUST HAVE SAME USAG     04596021
                                    1952 *     APPROPRIATE PICTURE ANALYSIS RTN. IF ANALYSIS RTN. RETURNS WI     04602021
                                    1953 *     AN ERROR CODE, THE PICTURE IS CHANGED TO '9'.                     04608021
                                    1954 *     THE ITEM.                                                         04614021
                                    1955 *ENTRY POINT- -LDTEXT-   BAL  R14,LDTEXT                                04620021
                                    1956 *INPUT-      REG 7  POINTS TO  LD-TEXT IN BUFFER  (FILE 3 BUFFER)       04626021
                                    1957 *OUTPUT-     PARTIALLY BUILT DICTIONARY ENTRY                           04632021
                                    1958 *EXTERNAL ROUTINES                                                      04638021
                                    1959 *   -BMBSRN-  SUBSCRIPTING REQUIREMENTS                                 04644021
                                    1960 *   -GSPICT-  TRANSLATE SOURCE PICTURE TO CODE                          04650021
                                    1961 *EXITS- 1 NORMAL EXIT AT END OF PROCESSING                              04656021
1PH20     IKFCBL20                                                                                              PAGE   54
-  LOC  OBJECT CODE    ADDR1 ADDR2  STMT   SOURCE STATEMENT                                       ASM 0201 11.03 02/14/15
0                                   1962 *TABLES/WORK AREAS                                                      04662021
                                    1963 *   CI     -CURRENT ITEM WORKAREA FOR BUILDING THE DICTIONARY ITEM.     04668021
                                    1964 *   ELITEM -WORKAREA FOR PICTURE ANALYSIS AND VALUE CLAUSE ANALYSIS     04674021
                                    1965 *   SCAR   -COMMUNICATION WORK AREA FOR SECTIONS.                       04680021
                                    1966 *ATTRIBUTES                                                             04686021
                                    1967 *NOTES                                                                  04692021
                             00000  1968          USING ICLDST,R7                                                04698021
 000FCA 5040 D8EC      0BE2C        1969 LDTEXT   ST    R4,GETSAV+NX4                                            04704021
 000FCE 1B44                        1970 GETNXT SR    R4,R4                                                      04710021
 000FD0 5070 DDA4      0C2E4        1971          ST    R7,VALSV2                SET VALSV2 FOR LEV 88     38991 04716021
 000FD4 D79F D5EC D5EC 0BB2C 0BB2C  1972          XC    CI(LX160),CI             CLEAR AREA                      04722021
 000FDA D7D7 D689 D689 0BBC9 0BBC9  1973          XC    ELITEM(LX216),ELITEM   CLEAR ELITEM FIELDS               04728021
 000FE0 D200 D688 7002 0BBC8 00002  1974          MVC   SRCELN(LX1),ICLLEV   MOVE LEVEL NUMBER FROM BUFFER       04734021
 000FE6 9501 DEDE      0C41E        1975          CLI   COD01,XX01                LEV 01 FOUND BEFORE            04740021
 000FEA 4780 F77A      00FFA        1976        BC    EQ,LEV01                   YES                             04746021
 000FEE 9501 D688      0BBC8        1977          CLI   SRCELN,XX01                LEVEL01                       04752021
 000FF2 4770 F77A      00FFA        1978        BC    NOTEQ,LEV01                 NO                             04758021
 000FF6 9201 DEDE      0C41E        1979          MVI   COD01,XX01                 YES-FLAG 01 FOUND             04764021
 000FFA                             1980 LEV01  DS    0H                                                         04770021
 000FFA D201 D5C7 7003 0BB07 00003  1981          MVC   CARDNO(LX2),ICLCDN   MOVE CARD-NO FROM BUFFER            04776021
 001000 D201 D676 7005 0BBB6 00005  1982          MVC   ITMCLS(LX2),ICLFL1   MOVE CLAUSE FIELD FROM BUFFER       04782021
 001006 D201 D67C 7007 0BBBC 00007  1983          MVC   NOC(LX2),ICLNOC      MOVE NUMBER OF OCCURRENCES          04788021
 00100C D201 DFD4 700A 0C514 0000A  1984          MVC   NOIDNM(LX2),ICLNOI    MOVE NUM IDNAMES                   04794021
 001012 D200 DDD2 7009 0C312 00009  1985          MVC   ITMCL3(LX1),ICLFL3   MOVE FLAG BYTE                      04800021
 001018 9180 D677      0BBB7        1986          TM    ITMCLS+NX1,XX80          IS THERE OCCURS DEP ON    47955 04806021
 00101C 47E0 F7BC      0103C        1987          BC    NOTONE,OCCURS2                NO, BR               47955 04812021
 001020 9602 D60D      0BB4D        1988 OCCURS1  OI    MINCOD,XX02              OCCURS OR OCCURS DEP ON   47955 04818021
 001024 4830 D67C      0BBBC        1989          LH    R3,NOC                      TEST NO. OF            47955 04824021
 001028 1233                        1990          LTR   R3,R3                    OCCURRENCES FOR 0         47955 04830021
 00102A 4770 F7C4      01044        1991          BC    NOTZER,OCCURS3             NOT 0 --- OK            47955 04836021
 00102E 4540 FFD0      01850        1992          BAL   R4,LDEROR                OCCURS 0 ILLEGAL          47955 04842021
 001032 10E0                        1993          DC    X'10E0'                  MSG. NO. 224              47955 04848021
 001034 9201 D67D      0BBBD        1994          MVI   NOC+NX1,XX01             ASSUME 1 OCCURRENCE       47955 04854021
 001038 47F0 F7C4      01044        1995          B     OCCURS3                       CONTINUE             47955 04860021
 00103C 9104 DDD2      0C312        1996 OCCURS2  TM    ITMCL3,XX04              IS THERE OCCURS CL        47955 04866021
 001040 4710 F7A0      01020        1997          BC    ONES,OCCURS1             YES-CHK NO OF OCCURS.     47955 04872021
 001044 1B44                        1998 OCCURS3  SR    R4,R4                      CLEAR REG 4             47955 04878021
 001046 4340 700C      0000C        1999          IC    R4,ICLDCT           GET DATA-NAME LENGTH CT              04884021
 00104A 4440 F908      01188        2000          EX    R4,LDMOVD       EXECUTE MOVE OF COUNT AND NAME TO CI     04890021
 00104E 4174 700D      0000D        2001          LA    R7,ICLDCT+NX1(R4)    INCREMENT BUFFER PTR TO NEXT FIE    04896021
 001052 9500 7000      00000        2002          CLI   DX0(R7),XX00     IS A PICTURE PRESENT                    04902021
 001056 4780 F812      01092        2003          BC    EQ,BLDPCT       NO                                       04908021
 00105A 9104 D677      0BBB7        2004          TM    ITMCLS+NX1,XX04      YES                                 04914021
 00105E 47E0 F7EE      0106E        2005          BC    NOTONE,BCGSPC       GO TO BCGSPC                         04920021
 001062 4347 0000      00000        2006          IC    R4,DX0(R7)                                               04926021
 001066 4440 F914      01194        2007          EX    R4,LDRMOV                                                04932021
 00106A 47F0 F816      01096        2008          BC    UNCOND,BLDPCT+NX4   CONTINUE                             04938021
 00106E 50F0 D9C8      0BF08        2009 BCGSPC   ST    R15,RSAVE+NX60                                           04944021
 001072 58F0 DBD0      0C110        2010          L     R15,AGSPIC      CALL GSPICT TO VALIDATE                  04950021
 001076 05EF                        2011          BALR  R14,R15          AND DISTRIBUTE PICTURE                  04956021
 001078 58F0 D9C8      0BF08        2012          L     R15,RSAVE+NX60      LOAD BASE REGISTER             34194 04962021
 00107C 9106 D76F      0BCAF        2013          TM    MCI,XX06            MAJOR CODE  RD                 34194 04968021
 001080 4780 F812      01092        2014          BZ    BCGSPCUA            BRANCH TO BYPASS               34194 04974021
 001084 5840 DCE0      0C220        2015          L     R4,AREPRT2A         REPORT WTR CHECK RTN           34194 04980021
 001088 58F0 DCDC      0C21C        2016          L     R15,AREPRTCK        ESTABLISHES BASE REGISTER      34194 04986021
1PH20     IKFCBL20                                                                                              PAGE   55
-  LOC  OBJECT CODE    ADDR1 ADDR2  STMT   SOURCE STATEMENT                                       ASM 0201 11.03 02/14/15
000108C 05E4                        2017          BALR  R14,R4             LINK TO REPORT WTR CHECK RTN    34194 04992021
 00108E 58F0 D9C8      0BF08        2018          L     R15,RSAVE+NX60                                           04998021
 001092                             2019 BCGSPCUA DS    0H                                                 34194 05004021
                                    2020 *                                                                 34194 05010021
 001092 4340 7000      00000        2021 BLDPCT   IC    R4,DX0(R0,R7)                                            05016021
 001096 4174 7001      00001        2022          LA    R7,DX1(R4,R7)                                            05022021
 00109A 4340 7000      00000        2023          IC    R4,DX0(R0,R7)   YES, GET VALUE COUNT                     05028021
 00109E 4440 F902      01182        2024          EX    R4,LDMOVV       MOVE VALUE AND COUNT TO ELITEM(LITVA     05034021
 0010A2 4174 7001      00001        2025          LA    R7,DX1(R4,R7)                                            05040021
 0010A6 9500 7000      00000        2026          CLI   DX0(R7),XX00     IS REDEFINES GIVEN                      05046021
 0010AA 4780 F84C      010CC        2027          BC    EQ,BNORED       NO                                       05052021
 0010AE D71F D828 D828 0BD68 0BD68  2028          XC    REDEFA(LX32),REDEFA                                      05058021
 0010B4 9601 D60D      0BB4D        2029          OI    MINCOD,XX01          SET REDEFINES CLAUSE BIT ON         05064021
 0010B8 4340 7000      00000        2030          IC    R4,DX0(R0,R7)     GET NUMBER OF CHARS IN OBJECT NAME     05070021
 0010BC 4440 F90E      0118E        2031          EX    R4,LDMOVR         MOVE OBJECT NAME TO SAVE AREA          05076021
 0010C0 4174 7001      00001        2032          LA    R7,DX1(R4,R7)                                            05082021
 0010C4 9631 DFBB      0C4FB        2033          OI    RDFSW,SWON          SET SW ON                            05088021
 0010C8 47F0 F850      010D0        2034          BC    UNCOND,BNORED+NX4   DO NOT INCREMENT BUFFER PTR          05094021
 0010CC 4177 0001      00001        2035 BNORED   LA    R7,DX1(R7,R0)                                            05100021
 0010D0 50F0 D9C8      0BF08        2036          ST    R15,RSAVE+NX60                                           05106021
 0010D4 58F0 D4F4      0BA34        2037          L     R15,AMBSRN                                               05112021
 0010D8 05EF                        2038          BALR  R14,R15        CALL MUST BE SUBSCRIPTED ROUTINE          05118021
 0010DA 58F0 D9C8      0BF08        2039          L     R15,RSAVE+NX60                                           05124021
 0010DE 9180 D677      0BBB7        2040 BOCDEP   TM    ITMCLS+NX1,XX80      DOES THIS ITEM HAVE AN OCCURS...    05130021
 0010E2 47E0 F89A      0111A        2041          BC    NOTONE,BOCDP3       NO, BRANCH                           05136021
 0010E6 9102 D60D      0BB4D        2042          TM    MINCOD,XX02          YES, IS IT LEGAL(CHECKED BY BMBS    05142021
 0010EA 47E0 F892      01112        2043          BC    NOTONE,BOCDP2       NO, BRANCH                           05148021
 0010EE D201 D67A 7000 0BBBA 00000  2044          MVC   OBJDIS(LX2),DX0(R7)   YES, MOVE OD2TBL POINTER TO CI     05154021
 0010F4 9500 DFD4      0C514        2045          CLI   NOIDNM,XX00          ANY ID NAMES                        05160021
 0010F8 4780 F8CC      0114C        2046          BE    BOCDP5              NO                                   05166021
 0010FC 58F0 DC88      0C1C8        2047          L     R15,ASRCHT           GO BUILD TBLSCH                     05172021
 001100 05EF                        2048          BALR  R14,R15             LINK TO ADDR IN REG 15               05178021
 001102 58F0 D9C8      0BF08        2049          L     R15,RSAVE+NX60                                           05184021
 001106 4177 0002      00002        2050 BOCDP1   LA    R7,DX2(R7)           INCR. BUFFER PTR TO NEXT IC-TEXT    05190021
 00110A 4560 F924      011A4        2051          BAL   R6,COMPFF           LOOK AHEAD TO NEXT IC-TEXT FOR N     05196021
                                    2052 *                                   LEVEL NUMBER                        05202021
 00110E 47F0 FA22      012A2        2053          BC    UNCOND,COPYRN       BRH TO COPYRN                        05208021
 001112 947F D677      0BBB7        2054 BOCDP2   NI    ITMCLS+NX1,XX7F      TURN OFF OCC...DEP ON BIT           05214021
 001116 47F0 F886      01106        2055          BC    UNCOND,BOCDP1       BRH TO INCR BUFFER PTR               05220021
 00111A 9108 D677      0BBB7        2056 BOCDP3   TM    ITMCLS+NX1,XX08      IS THIS A REPORT SECT REDEFINES     05226021
 00111E 47E0 F8AC      0112C        2057          BC    NOTONE,BOCDP4       NO                                   05232021
 001122 D201 DF5E 7000 0C49E 00000  2058          MVC   REDPLS(LX2),DX0(R7)   YES, SAVE + FIELD                  05238021
 001128 47F0 F886      01106        2059          BC    UNCOND,BOCDP1       BRH TO INCR BUFFER PTR               05244021
 00112C 0670                        2060 BOCDP4   BCTR  R7,R0               SUBTRACT 1 FROM BUFFER PTR           05250021
 00112E 9102 D60D      0BB4D        2061          TM    MINCOD,XX02               ITEM HAVE OCCURS               05256021
 001132 4780 F886      01106        2062          BZ     BOCDP1                  NO                              05262021
 001136 9500 DFD4      0C514        2063          CLI   NOIDNM,XX00               YES, INDEXED BY CLAUSE         05268021
 00113A 4780 F8CC      0114C        2064          BE     BOCDP5                  NO                              05274021
 00113E 58F0 DC88      0C1C8        2065          L     R15,ASRCHT           GO BUILD TBLSCH                     05280021
 001142 05EF                        2066          BALR  R14,R15             LINK TO ADDR IN REG 15               05286021
 001144 58F0 D9C8      0BF08        2067          L     R15,RSAVE+NX60                                           05292021
 001148 47F0 F886      01106        2068          B     BOCDP1              BRH TO INCR BUFFER PTR               05298021
 00114C 9500 DFD5      0C515        2069 BOCDP5   CLI   NOKEYS,XX00               ANY KEYS                       05304021
 001150 4780 F886      01106        2070          BE    BOCDP1              NO                                   05310021
 001154 4800 DFA8      0C4E8        2071          LH    R0,MSG108           MESSAGE 108                          05316021
1PH20     IKFCBL20                                                                                              PAGE   56
-  LOC  OBJECT CODE    ADDR1 ADDR2  STMT   SOURCE STATEMENT                                       ASM 0201 11.03 02/14/15
0001158 58F0 DBC0      0C100        2072          L     R15,AERRTN                                               05322021
 00115C 05EF                        2073          BALR  R14,R15             LINK TO ADDR IN REG 15               05328021
 00115E 58F0 D9C8      0BF08        2074          L     R15,RSAVE+NX60                                           05334021
 001162 4177 0002      00002        2075          LA    R7,DX2(R7)           UPDATE PTR                          05340021
 001166 1B44                        2076          SR    R4,R4                                                    05346021
 001168 4340 DFD5      0C515        2077          IC    R4,NOKEYS                                                05352021
 00116C 58F0 DC98      0C1D8        2078 BOCDP6   L     R15,ABYPAS                                               05358021
 001170 05EF                        2079          BALR  R14,R15             LINK TO ADDR IN REG 15               05364021
 001172 58F0 D9C8      0BF08        2080          L     R15,RSAVE+NX60                                           05370021
 001176 4640 F8EC      0116C        2081          BCT   R4,BOCDP6           AT END YET                           05376021
 00117A 5B70 D3FC      0B93C        2082          S     R7,TWO                                                   05382021
 00117E 47F0 F886      01106        2083          B     BOCDP1              BRH TO INCR BUFFER PTR               05388021
                                    2084 *                                   CLAUSE NOT PRESENT                  05394021
 001182 D200 D6E6 7000 0BC26 00000  2085 LDMOVV   MVC   LITVAL(LX0),DX0(R7)   VALUE                              05400021
 001188 D200 D5EC 700C 0BB2C 0000C  2086 LDMOVD   MVC   NUMBCD(LX0),ICLDCT                                       05406021
 00118E D200 D828 7000 0BD68 00000  2087 LDMOVR   MVC   REDEFA(LX0),DX0(R7) REDEFINES OBJECT                     05412021
 001194 D200 D68B 7000 0BBCB 00000  2088 LDRMOV   MVC   IPT+NX2(LX0),DX0(R7)  REPORT S.NAME MOVE                 05418021
 00119A 1A74                        2089 BSUBRN   AR    R7,R4          INCREMENT BUFFER POINTER TO NEXT FIEL     05424021
 00119C 1B54                        2090          SR    R5,R4          DECREMENT BUFFER COUNT BY LAST FIELD      05430021
 00119E 47D0 F924      011A4        2091          BC    NOTHI,COMPFF    BRANCH IF BUFFER COUNT ZERO              05436021
 0011A2 07F6                        2092          BCR   UNCOND,R6           BRH TO ADDR IN REG 6                 05442021
 0011A4 95FF 7000      00000        2093 COMPFF   CLI   DX0(R7),XXFF    END OF LOGICAL RECORDS IN BUFFER         05448021
 0011A8 4770 F93A      011BA        2094          BC    NOTEQ,BTYPRC   NO                                        05454021
 0011AC 5810 DB84      0C0C4        2095 BREAD    L     R1,COSADR      YES                                       05460021
 0011B0 0501                        2096          BALR  R0,R1               BRH TO ADDR IN REG 1                 05466021
 0011B2 03                          2097          DC    X'03'          READ FILE F3                              05472021
 0011B3 00
 0011B4 4780 F9D6      01256        2098          BC    EQ,ENDDIV          BRANCH IF END OF FILE CONDITION       05478021
 0011B8 1870                        2099          LR    R7,R0          OTHERWISE PUT BUFFER PNTR INTO REG 7      05484021
 0011BA 1B55                        2100 BTYPRC   SR    R5,R5                                                    05490021
 0011BC 4357 0001      00001        2101          IC    R5,DX1(R7)                                               05496021
 0011C0 4250 D59E      0BADE        2102          STC   R5,SECTSAV                SAVE SECTION CDE         44287 05502021
 0011C4 9503 7000      00000        2103          CLI   DX0(R7),XX03    IS THIS RECORD LD-TEXT                   05508021
 0011C8 4770 F9C4      01244        2104          BC    NOTEQ,BNWITM   NO                                        05514021
 0011CC D201 D5C9 7003 0BB09 00003  2105          MVC   SAVCDNO(LX2),DX3(R7)  SAVE CARD NO                       05520021
 0011D2 D200 D5B7 7002 0BAF7 00002  2106          MVC   NXTLEV(LX1),DX2(R7)  YES                                 05526021
 0011D8 9131 DDC5      0C305        2107          TM    RNAMSW,SWON         WAS LAST ENTRY RENAMES               05532021
 0011DC 07E6                        2108          BCR   NOTONE,R6           BRH TO ADDR IN REG 6                 05538021
 0011DE 9501 D688      0BBC8        2109          CLI   SRCELN,XX01          IS IT 01                            05544021
 0011E2 47D0 F98E      0120E        2110          BC    NOTHI,BTYPR1        YES, 01 OR FD IS OK                  05550021
 0011E6 9532 D688      0BBC8        2111          CLI   SRCELN,XX32          IS IT 77                            05556021
 0011EA 4780 F98E      0120E        2112          BE    BTYPR1              YES, OK                              05562021
 0011EE 9539 D688      0BBC8        2113          CLI   SRCELN,XX39          IS IT 66                            05568021
 0011F2 4780 F98E      0120E        2114          BE    BTYPR1              YES, OK                              05574021
 0011F6 9536 D688      0BBC8        2115          CLI   SRCELN,XX36         IS THIS SD                     36000 05580021
 0011FA 4780 F98E      0120E        2116          BE    BTYPR1              GO AND RETURN                  36000 05586021
 0011FE 4540 FFD0      01850        2117          BAL   R4,LDEROR           NO                                   05592021
 001202 206A                        2118          DC    X'206A'             MSG 106                              05598021
 001204 5840 D8EC      0BE2C        2119          L     R4,GETSAV+NX4                                            05604021
 001208 58F0 DCCC      0C20C        2120          L     R15,ABEGIN                                               05610021
 00120C 07F4                        2121          BR    R4                  RETURN WITH NEXT ELEMENT             05616021
 00120E D700 DDC5 DDC5 0C305 0C305  2122 BTYPR1   XC    RNAMSW(LX1),RNAMSW   TURN OFF SW                         05622021
 001214 07F6                        2123          BR    R6                  GO PROCESS                           05628021
 001216 58F0 DCD4      0C214        2124 RENAMT   L     R15,ARNAMS                                               05634021
 00121A 05EF                        2125          BALR  R14,R15             LINK TO ADDR IN REG 15               05640021
1PH20     IKFCBL20                                                                                              PAGE   57
-  LOC  OBJECT CODE    ADDR1 ADDR2  STMT   SOURCE STATEMENT                                       ASM 0201 11.03 02/14/15
000121C 58F0 D9C8      0BF08        2126          L     R15,RSAVE+NX60                                           05646021
 001220 9110 D5AA      0BAEA        2127          TM    COPYSW,XX10          EOF                                 05652021
 001224 4710 F9BE      0123E        2128          BO    RENAM1              YES                                  05658021
 001228 D700 DDC5 DDC5 0C305 0C305  2129          XC    RNAMSW(LX1),RNAMSW                                       05664021
 00122E 4560 F924      011A4        2130          BAL   R6,COMPFF                 K                              05670021
 001232 9102 D5AA      0BAEA        2131          TM    COPYSW,XX02          END OF SECTION                      05676021
 001236 4710 F9BE      0123E        2132          BO    RENAM1              YES, DON'T TURN SW ON                05682021
 00123A 9631 DDC5      0C305        2133          OI    RNAMSW,SWON                                              05688021
 00123E 5840 D8EC      0BE2C        2134 RENAM1   L     R4,GETSAV+NX4        RETURN ADDRESS                      05694021
 001242 07F4                        2135          BR    R4                  BRH TO RETURN ADDR                   05700021
 001244 9542 7000      00000        2136 BNWITM   CLI   DX0(R7),XX42    IS CODE CRITICAL PROGRAM BREAK           05706021
 001248 4770 F9E0      01260        2137          BC    NOTEQ,JFETXT        NOERROR TEXT FROM PHASE 1            05712021
 00124C 9602 D5AA      0BAEA        2138          OI    COPYSW,XX02          TURN ON END OF SECTION(CPB) SWIT    05718021
 001250 9200 D5B7      0BAF7        2139          MVI   NXTLEV,XX00          SET NEXT LEVEL TO 0                 05724021
 001254 07F6                        2140          BCR   UNCOND,R6           RETURN TO CALLER                     05730021
 001256 9610 D5AA      0BAEA        2141 ENDDIV   OI    COPYSW,XX10          TURN ON END OF FILE SWITCH          05736021
 00125A 9200 D5B7      0BAF7        2142          MVI   NXTLEV,XX00          SET NEXT LEVEL NUMBER TO 0          05742021
 00125E 07F6                        2143          BCR   UNCOND,R6      RETURN TO CALLER                          05748021
 001260 9500 7000      00000        2144 JFETXT   CLI   DX0(R7),XX00         IS CODE E-TEXT                      05754021
 001264 4770 F9F2      01272        2145          BNE   ISITVL              NOT =,TEST IF VALUE=SERIES           05760021
                                    2146 *                                  BRANCH TO CKECK ERROR MESG           05766021
 001268 58F0 D4BC      0B9FC        2147          L     R15,ACKETXT             LOAD R15 WITH ADD OF CKETXT      05772021
 00126C 05EF                        2148          BALR  R14,R15                 EXCUTE CKETXT RTN                05778021
                                    2149 *                                                                       05784021
 00126E 47F0 F91A      0119A        2150          BC    UNCOND,BSUBRN       BRH TO BSUBRN                        05790021
 001272 9138 D676      0BBB6        2151 ISITVL   TM    ITMCLS,XX38          VALUE IS SERIES                     05796021
 001276 47E0 FA00      01280        2152          BC    NOTONE,ISTRNM       SEE IF RENAMES                       05802021
 00127A 9201 D5B7      0BAF7        2153          MVI   NXTLEV,XX01          YES, DUMMY NEXT LEVEL               05808021
 00127E 07F6                        2154          BR    R6                  RETURN                               05814021
 001280 9539 D688      0BBC8        2155 ISTRNM   CLI   SRCELN,XX39          IS IT RENAMES                       05820021
 001284 4780 F996      01216        2156          BE    RENAMT              YES, GO PROCESS                      05826021
 001288 47F0 FA0C      0128C        2157          B     STOPPH              BRH TO STOPPH                        05832021
                             0128C  2158 BHALTA   EQU   *                                                        05838021
                                    2159          DROP  R7                                                       05844021
1PH20     IKFCBL20                                                                                              PAGE   58
-  LOC  OBJECT CODE    ADDR1 ADDR2  STMT   SOURCE STATEMENT                                       ASM 0201 11.03 02/14/15
000128C                             2161 STOPPH   DS    0H                  ISSUES * D * MESSAGE                 05856021
 00128C D201 D5C7 D5C9 0BB07 0BB09  2162          MVC   CARDNO(LX2),SAVCDNO   RESTORE CARD NO. OF LAST IC TXT    05862021
 001292 4540 FFD0      01850        2163          BAL   R4,LDEROR                                                05868021
 001296 8098                        2164          DC    X'8098'                                                  05874021
 001298 58F0 DCD0      0C210        2165          L     R15,APHTRM                                               05880021
 00129C 5850 DCD8      0C218        2166          L     R5,ABHALT                                                05886021
 0012A0 07F5                        2167          BR    R5                  TERMINATE PROCESSING                 05892021
                                    2168 *                                                                       05898021
                                    2169 *                                                                       05904021
                                    2170 *                                                                       05910021
                                    2171 *                                                                       05916021
                                    2172 *=2      COPY ROUTINE-COPYRN                                            05922021
                                    2173 *COPYN--COPY CLAUSE ROUTINE                                             05928021
                                    2174 *COPYRN CHECKS FOR COPY CLAUSE IN 01/77 LEVELS. THE COPY NAME IS SA     05934021
                                    2175 * AND REPLACES THE DATA-NAME OF THE NEXT 01/77 LEVEL. COPYRN IS A       05940021
                                    2176 * SUBPROGRAM OF LDTEXT.                                                 05946021
 0012A2 5070 D8E8      0BE28        2177 COPYRN   ST    R7,GETSAV                                                05952021
 0012A6 9501 D688      0BBC8        2178          CLI   SRCELN,XX01                                              05958021
 0012AA 4780 FA74      012F4        2179          BC    EQ,BCOPY       YES                                       05964021
 0012AE 9531 D688      0BBC8        2180          CLI   SRCELN,XX31     NO, IS SOURCE LEVEL NUMBER LESS THAN     05970021
 0012B2 4720 FA4C      012CC        2181          BC    HI,COPYR0           NO, BRANCH                           05976021
 0012B6 9101 D5AA      0BAEA        2182          TM    COPYSW,XX01          YES, IS COPY SW ON                  05982021
 0012BA 47E0 FB78      013F8        2183          BC    NOTONE,BUSGE                NO, BRANCH                   05988021
 0012BE 94FE D5AA      0BAEA        2184          NI    COPYSW,XXFE          YES, ERROR 01 OR 77 NOT AFTER CO    05994021
 0012C2 4540 FFD0      01850        2185          BAL   R4,LDEROR           LINK TO GET MESS# IN REG 0           06000021
 0012C6 0094                        2186          DC    X'0094'             148                                  06006021
 0012C8 47F0 FB78      013F8        2187          BC    UNCOND,BUSGE             GO TO TEST IF LEV01 HAS APPRD   06012021
 0012CC 9532 D688      0BBC8        2188 COPYR0   CLI   SRCELN,XX32          NO, IS SOURCE LN 77                 06018021
 0012D0 4780 FB02      01382        2189          BC    EQ,BTESTP      YES                                       06024021
 0012D4 9533 D688      0BBC8        2190          CLI   SRCELN,XX33     NO, IS SOURCE LN 88                      06030021
 0012D8 4780 FB24      013A4        2191          BC    EQ,BCNAN       YES                                       06036021
 0012DC 9539 D688      0BBC8        2192          CLI   SRCELN,XX39          IS IT STILL 66                      06042021
 0012E0 4770 FA6A      012EA        2193          BNE   COPYR1              NO                                   06048021
 0012E4 5840 D8EC      0BE2C        2194          L     R4,GETSAV+NX4        RETURN                              06054021
 0012E8 07F4                        2195          BR    R4                    TO CALLER                          06060021
 0012EA 58F0 DCD0      0C210        2196 COPYR1   L     R15,APHTRM                                               06066021
 0012EE 5850 DCD8      0C218        2197          L     R5,ABHALT                                                06072021
 0012F2 07F5                        2198          BR    R5                  BRH TO ADDR IN REG 5                 06078021
 0012F4 9504 D76F      0BCAF        2199 BCOPY    CLI   MCI,XX04             FILE SECTION                        06084021
 0012F8 47B0 FAB6      01336        2200          BC    NOTLO,BCOPY2        NO, BRANCH                           06090021
 0012FC 9502 D5A0      0BAE0        2201          CLI   ODOCCT,XX02          DID LAST 01 HAVE MORE THAN 1 OCC    06096021
                                    2202 *                                  DEPENDING ON CLAUSE SUBORDINATE      06102021
 001300 4740 FA88      01308        2203          BC    LO,BCOPY0           NO, BRANCH                           06108021
 001304 9601 D59F      0BADF        2204          OI    OD2SW,XX01           YES, SET SW FOR RECORD CONT. PRO    06114021
 001308 9200 D5A0      0BAE0        2205 BCOPY0   MVI   ODOCCT,XX00          SET CTR TO 0                        06120021
 00130C 9140 D5AA      0BAEA        2206          TM    FSTSW,XX40           YES, IS THIS 1ST 01 UNDER FD, SD    06126021
 001310 4710 FA9E      0131E        2207          BC    ONES,BCOPY1         YES                                  06132021
 001314 D203 B148 D904 00148 0BE44  2208          MVC   LOCCTR(LX4),SAV01L                                       06138021
 00131A 47F0 FAB6      01336        2209          BC    UNCOND,BCOPY2       BRH TO SET LEVEL 01 SW ON            06144021
 00131E 5830 B148      00148        2210 BCOPY1   L     R3,LOCCTR                                                06150021
 001322 5A30 D410      0B950        2211        A     R3,SEVEN              ON R0                                06156021
 001326 5430 D4F0      0BA30        2212          N     R3,MK0129               BOUNDARY                         06162021
 00132A 5030 B148      00148        2213          ST    R3,LOCCTR                                                06168021
 00132E 5030 D904      0BE44        2214          ST    R3,SAV01L           SAVE IT                              06174021
 001332 94BF D5AA      0BAEA        2215          NI    FSTSW,XXBF           TURN OFF SW                         06180021
1PH20     IKFCBL20                                                                                              PAGE   59
-  LOC  OBJECT CODE    ADDR1 ADDR2  STMT   SOURCE STATEMENT                                       ASM 0201 11.03 02/14/15
0001336 9602 D777      0BCB7        2216 BCOPY2   OI    FESB,XX02            SET LEVEL 01 SW ON                  06186021
 00133A 9101 DFE9      0C529        2217          TM    GNSW,XX01            WAS A QRTN PUT OUT FOR LAST 01      06192021
 00133E 47E0 FAC6      01346        2218          BC    NOTONE,BCOPY3       NO, BRANCH                           06198021
 001342 94FE DFE9      0C529        2219          NI    GNSW,XXFE            TURN OFF GN= SW FOR QBUILD RTN A    06204021
                                    2220 *                                   THE OCCURRENCE OF AN 01 LEVEL       06210021
 001346 9110 D677      0BBB7        2221 BCOPY3   TM    ITMCLS+NX1,XX10      IS COPY CLAUSE PRESENT              06216021
 00134A 47E0 FADE      0135E        2222          BC    NOTONE,BTESTC  NO                                        06222021
 00134E D21F D848 D5EC 0BD88 0BB2C  2223          MVC   BSAVEC(LX32),CI      YES, SAVE COPY DATA-NAME            06228021
 001354 9601 D5AA      0BAEA        2224          OI    COPYSW,XX01     TURN ON COPY SWITCH                      06234021
 001358 5840 D8EC      0BE2C        2225          L     R4,GETSAV+NX4        RETURN TO CALLER OF LDTEXT ROUTI    06240021
 00135C 07F4                        2226          BCR   UNCOND,R4           RTN TO CALLR OF LDTEXT ROUTINE       06246021
 00135E 9101 D5AA      0BAEA        2227 BTESTC   TM    COPYSW,XX01     IS COPY SW ON                            06252021
 001362 47E0 FB78      013F8        2228          BC    NOTONE,BUSGE                 NO                          06258021
 001366 D21E D8C6 D5EC 0BE06 0BB2C  2229 BSUBST   MVC   BLDCOP(LX31),CI YES, MOVE COPY,ED NAME TO SAVE AREA      06264021
 00136C 9500 D848      0BD88        2230          CLI   BSAVEC,XX00          DID COPY HAVE A DATA-NAME           06270021
 001370 4780 FAFA      0137A        2231          BC    EQ,*+NX10            NO, DON'T REPLACE DATA-NAME         06276021
 001374 D21F D5EC D848 0BB2C 0BD88  2232          MVC   CI(LX32),BSAVEC MOVE COPY NAME AND COUNT TO CI           06282021
 00137A 94FE D5AA      0BAEA        2233          NI    COPYSW,XXFE          TURN OFF COPY SWITCH                06288021
 00137E 47F0 FB78      013F8        2234          BC    UNCOND,BUSGE             GO TO TEST IF LEV01 HAS APPRD   06294021
 001382 9102 D777      0BCB7        2235 BTESTP   TM    FESB,XX02            HAS AN 01-49 LEVEL APPEARED         06300021
 001386 4710 FB12      01392        2236          BC    ONES,BMAKE1    YES                                       06306021
 00138A 9601 D777      0BCB7        2237          OI    FESB,XX01            NO, SET LEVEL 77 SWITCH ON          06312021
 00138E 47F0 FABA      0133A        2238          BC    UNCOND,BCOPY2+NX4   TEST FOR QRTN FOR LAST 01            06318021
 001392 9201 D688      0BBC8        2239 BMAKE1   MVI   SRCELN,XX01     YES, SET CURRENT ITEM LN TO 1            06324021
 001396 94F1 D60D      0BB4D        2240          NI    MINCOD,XXF1          TURN OFF MBS AND OCCURS BITS IF     06330021
 00139A 4540 FFD0      01850        2241          BAL   R4,LDEROR           CALL ERROR ROUTINE                   06336021
 00139E 101E                        2242          DC    X'101E'             30                                   06342021
 0013A0 47F0 FA74      012F4        2243          BC    UNCOND,BCOPY        GO TO COMPARE FILE SECTION           06348021
 0013A4 9103 D777      0BCB7        2244 BCNAN    TM    FESB,XX03            HAS LEVEL 01 OR 77 APPEARED         06354021
 0013A8 4770 FB3A      013BA        2245          BC    NOTZER,BCNANG  YES                                       06360021
 0013AC 9201 D688      0BBC8        2246          MVI   SRCELN,XX01     NO, MAKE LEVEL 88 A LEVEL 01             06366021
 0013B0 4540 FFD0      01850        2247          BAL   R4,LDEROR           CALL ERROR ROUTINE                   06372021
 0013B4 101F                        2248          DC    X'101F'             31                                   06378021
 0013B6 47F0 FA74      012F4        2249          BC    UNCOND,BCOPY        GO TO COMPARE FILE SECTION           06384021
 0013BA 9131 DD6E      0C2AE        2250 BCNANG   TM    ERR88,SWON          ERROR SW ON                          06390021
 0013BE 4710 FB72      013F2        2251          BO    B88ER2              YES                                  06396021
 0013C2 91F0 D677      0BBB7        2252          TM    ITMCLS+NX1,XXF0      NO, ANY OTHRR CLAUSE PRESENT        06402021
 0013C6 4770 FB68      013E8        2253          BC    NOTZER,B88ERR        THE VALUE CLAUSE IS PRESENT         06408021
 0013CA 91C7 D676      0BBB6        2254          TM    ITMCLS,XXC7            IT IS DELETED AND AN ERROR IS     06414021
 0013CE 4770 FB68      013E8        2255          BC    NOTZER,B88ERR         GENERATED                          06420021
 0013D2 9138 D676      0BBB6        2256 BCNANK   TM    ITMCLS,XX38          IS VALUE CLAUSE PRESENT             06426021
 0013D6 4770 FB60      013E0        2257          BC    NOTZER,*+NX10            YES,  BRANCH AROUND ERR     944 06432021
 0013DA 4540 FFD0      01850        2258          BAL   R4,LDEROR                BAL  TO ERROR RTN          9441 06438021
 0013DE 10C4                        2259          DC    X'10C4'             MSG 196                              06444021
 0013E0                             2260 BCNANH   DS    0H                                                       06450021
 0013E0 92CC D612      0BB52        2261 BCNANI   MVI   LEVNUM,XXCC                                              06456021
 0013E4 47F0 FF56      017D6        2262          BC    UNCOND,BCALDB       BRH TO STORE REG 15                  06462021
 0013E8 4540 FFD0      01850        2263 B88ERR   BAL   R4,LDEROR           CALL ERROR ROUTINE                   06468021
 0013EC 2020                        2264          DC    X'2020'             32                                   06474021
 0013EE 47F0 FB52      013D2        2265          B     BCNANK              TEST FOR VALUE CLAUSE                06480021
 0013F2 5840 D8EC      0BE2C        2266 B88ER2   L     R4,GETSAV+NX4                                            06486021
 0013F6 07F4                        2267          BR    R4                  RETURN TO PROCESS NEXT               06492021
                                    2268 *     GO TO BUSAGE TO CHECK USAGE CLAUSE COMPATIBILITY                  06498021
 0013F8 5840 FB84      01404        2269 BUSGE    L     R4,ABUSAGE               ADDR OF BUSAGE                  06504021
 0013FC 58F0 D4BC      0B9FC        2270          L     R15,ACKETXT              ADDRESSABILITY                  06510021
1PH20     IKFCBL20                                                                                              PAGE   60
-  LOC  OBJECT CODE    ADDR1 ADDR2  STMT   SOURCE STATEMENT                                       ASM 0201 11.03 02/14/15
0001400 07F4                        2271          BR    R4                       BRANCH                          06516021
 001402 0000
 001404 00001A50                    2272 ABUSAGE  DC    A(BUSAGE)                                                06522021
                                    2273 *=2      ITEM ANALYSIS-ITEMAN                                           06528021
                                    2274 *ITEMAN      CHECKS FOR LEGALITY OF CLAUSES FOR GROUP AND ELEMENTAR     06534021
                                    2275 *ITEMS.                                                                 06540021
 001408 1B33                        2276 ITEMAN   SR    R3,R3                                                    06546021
 00140A 1B44                        2277          SR    R4,R4                                                    06552021
 00140C 1B88                        2278          SR    R8,R8                                                    06558021
 00140E 9101 D5AF      0BAEF        2279          TM    SW88,XX01            IS COND. VAR. SWITCH ON             06564021
 001412 47E0 FBBC      0143C        2280          BC    NOTONE,ITEMAA       NO, BRANCH                           06570021
 001416 9703 D5AF      0BAEF        2281          XI    SW88,XX03            YES, TURN IT OFF AND TURN ON        06576021
 00141A D700 DD6E DD6E 0C2AE 0C2AE  2282          XC    ERR88(LX1),ERR88     TURN OFF ERROR SW                   06582021
 001420 9131 DDB4      0C2F4        2283          TM    GRP88,SWON                                               06588021
 001424 4780 FBBC      0143C        2284          BZ    ITEMAA              BRH ON 0 TO COMP-1 USAGE COMPR       06594021
 001428 D700 DDB4 DDB4 0C2F4 0C2F4  2285          XC    GRP88(LX1),GRP88                                         06600021
 00142E 5810 DB4C      0C08C        2286          L      R1,PVALTR                                               06606021
 001432 5811 0000      00000        2287          L     R1,DX0(R1)                                               06612021
 001436 D201 DDAE 1004 0C2EE 00004  2288          MVC   END88+NX2(LX2),DX4(R1)                                   06618021
 00143C 4160 0004      00004        2289 ITEMAA   LA    R6,DX4               REG 6 USED FOR COMP-1 USAGE COMP    06624021
 001440 4890 DFFA      0C53A        2290        LH    R9,CON9000           COUNT IS 0 OR 3 AT THIS POINT         06630021
 001444 4A90 D60C      0BB4C        2291        AH    R9,COUNT             ADD 9 TO COUNT                        06636021
 001448 4090 D60C      0BB4C        2292        STH   R9,COUNT             STORE UPDATED COUNT                   06642021
 00144C 4190 0003      00003        2293          LA    R9,DX3              R9 USED FOR COMP-1 USAGE TEST        06648021
 001450 D500 D5B7 D688 0BAF7 0BBC8  2294          CLC   NXTLEV(LX1),SRCELN  COMPARE CURRENT ITEM LEVEL NUMBER    06654021
 001456 47D0 FC12      01492        2295          BC    NOTHI,BELEMI       NEXT ITEM LEVEL NUM , IF NXTLEV I     06660021
 00145A 9532 D5B7      0BAF7        2296          CLI   NXTLEV,XX32         GREATER THAN CURRENT LEVEL AND NO    06666021
 00145E 47B0 FC12      01492        2297          BC    NOTLO,BELEMI        AN FD, SD, SA, RD, OR 88,THE CUR     06672021
                                    2298 *                                 ITEM IS A GROUP ITEM, OTHERWISE I     06678021
                                    2299 *                                 AN ELEMENTARY ITEM.                   06684021
                                    2300 *BGROUP      IF ITEM IS ON GROUP LEVEL, THE MINOR CODE IS MADE          06690021
                                    2301 *FIXED LGN GROUP AND THE DICTIONARY ACCESS PARAMETER IS MADE GROUP.     06696021
 001462 9610 D60D      0BB4D        2302 BGROUP   OI    MINCOD,XX10     SET MINOR CODE IN ATTR TO FIXED LGN G    06702021
 001466 920C DB78      0C0B8        2303          MVI   BCIPRM,XX0C     MOVE GROUP CODE TO ACCESS PARAMETER      06708021
 00146A 9500 D824      0BD64        2304          CLI   LEVSAV,XX00   LAST LEVEL HAVE CONDVAR?             07271 06714021
 00146E 4780 FDA0      01620        2305          BC    EQ,BGRCOM     NO - CHK GROUP COMPATIBILITY         07271 06720021
 001472 D500 D824 D688 0BD64 0BBC8  2306          CLC   LEVSAV(LX1),SRCELN  CI SUBORDINATE TO LAST?        07271 06726021
 001478 47B0 FC0A      0148A        2307          BC    NOTLO,BGRP1   NO - CHK GROUP COMPATIBILITY         07271 06732021
 00147C 9120 D80B      0BD4B        2308          TM    PITMCL+NX1,XX20  PIC CLAUSE ON LAST LEVEL?         07271 06738021
 001480 4780 FC0A      0148A        2309          BC    ZERO,BGRP1    NO                                   07271 06744021
 001484 4540 FFD0      01850        2310          BAL   R4,LDEROR                                          07271 06750021
 001488 20E1                        2311          DC    X'20E1'       MSG 225                              07271 06756021
 00148A 9200 D824      0BD64        2312 BGRP1    MVI   LEVSAV,XX00   RESET SAVE LEVEL                     07271 06762021
 00148E 47F0 FDA0      01620        2313          BC    UNCOND,BGRCOM  BRANCH TO GROUP COMPATIBILITY RTN--GR     06768021
                             01492  2314 BELEMI   EQU   *                                                  07271 06774021
 001492 9500 D824      0BD64        2315          CLI   LEVSAV,XX00   PREVIOUS ITEM WITH CONDVAR?          07271 06780021
 001496 4780 FC46      014C6        2316          BC    EQ,BELM1      NO                                   07271 06786021
 00149A 9533 D688      0BBC8        2317          CLI   SRCELN,XX33   CURRENT ITEM AN 88?                  07271 06792021
 00149E 4780 FC46      014C6        2318          BC    EQ,BELM1      YES                                  07271 06798021
 0014A2 D500 D824 D688 0BD64 0BBC8  2319          CLC   LEVSAV(LX1),SRCELN  NO- LAST LEVEL REALLY A GROUP? 07271 06804021
 0014A8 47B0 FC42      014C2        2320          BC    NOTLO,BELM0   NO - PROCESS CURRENT ITEM            07271 06810021
 0014AC 9120 D80B      0BD4B        2321          TM    PITMCL+NX1,XX20  YES- PIC CLAUSE ON LAST LEVEL?    07271 06816021
 0014B0 4780 FC42      014C2        2322          BC    ZERO,BELM0    NO - VALID GROUP WITH 88'S           07271 06822021
 0014B4 9532 D688      0BBC8        2323          CLI   SRCELN,XX32         IS CURRENT ITEM 77             07271 06828021
 0014B8 4780 FC42      014C2        2324          BE    BELM0               IF SO, NOT SUBORDINATE ITEM    07271 06834021
1PH20     IKFCBL20                                                                                              PAGE   61
-  LOC  OBJECT CODE    ADDR1 ADDR2  STMT   SOURCE STATEMENT                                       ASM 0201 11.03 02/14/15
00014BC 4540 FFD0      01850        2325          BAL   R4,LDEROR                                          07271 06840021
 0014C0 20E1                        2326          DC    X'20E1'       MSG 225                              07271 06846021
 0014C2 9200 D824      0BD64        2327 BELM0    MVI   LEVSAV,XX00   RESET SAVE LEVEL                     07271 06852021
 0014C6 9533 D5B7      0BAF7        2328 BELM1    CLI   NXTLEV,XX33   IS NEXT ITEM A LEVEL 88?             07271 06858021
 0014CA 4770 FCA4      01524        2329          BC    NOTEQ,BELEM3        NO                                   06864021
 0014CE 920C DB78      0C0B8        2330          MVI   BCIPRM,XX0C          YES, ITEM WILL BE ENTERED INTO T    06870021
 0014D2 9601 D5AF      0BAEF        2331          OI    SW88,XX01             DICTIONARY AS A GROUP ITEM         06876021
 0014D6 D200 D824 D688 0BD64 0BBC8  2332          MVC   LEVSAV(LX1),SRCELN   SAVE ITEM'S LEVEL UNTIL NEXT        06882021
                                    2333 *                                   NON-88 ITEM IS GOTTEN TO CHECK      06888021
                                    2334 *                                   THIS ITEM IS REALLY  ELEMENTARY     06894021
 0014DC 9107 D676      0BBB6        2335          TM    ITMCLS,XX07          USAGE IS INDEX                      06900021
 0014E0 47E0 FC72      014F2        2336          BC    NOTONE,BELEM2       NO                                   06906021
 0014E4 9631 DD6E      0C2AE        2337          OI    ERR88,SWON          TURN ERROR SW ON                     06912021
 0014E8 4540 FFD0      01850        2338          BAL   R4,LDEROR           LNK TO GET MESS# IN REG 0            06918021
 0014EC 200B                        2339          DC    X'200B'             MSG 11                               06924021
 0014EE 47F0 FCA8      01528        2340          B     BELEMJ              GO PROCESS                           06930021
 0014F2 9120 D677      0BBB7        2341 BELEM2   TM    ITMCLS+NX1,XX20      PICTURE CLAUSE PRESENT?             06936021
 0014F6 4710 FCA8      01528        2342          BO    BELEMJ              YES                                  06942021
 0014FA 1B88                        2343        SR    R8,R8                                                      06948021
 0014FC 4380 D676      0BBB6        2344        IC    R8,ITMCLS             INSERT USAGE                         06954021
 001500 5480 D4C8      0BA08        2345        N     R8,MK3032             ZERO OUT ALL OUT                     06960021
 001504 1989                        2346        CR    R8,R9                 COMP-1                               06966021
 001506 4780 FCA8      01528        2347        BE    BELEMJ                YES, OK                              06972021
 00150A 1986                        2348        CR    R8,R6                 COMP-2                               06978021
 00150C 4780 FCA8      01528        2349        BE    BELEMJ                YES, OK                              06984021
 001510 9532 D688      0BBC8        2350          CLI   SRCELN,LEV77        IS IT 77 IN ERROR                    06990021
 001514 4780 FCA8      01528        2351          BE    BELEMJ              YES, OK                              06996021
 001518 9610 D60D      0BB4D        2352          OI    MINCOD,XX10          NO, ASSUME GROUP                    07002021
 00151C 9631 DDB4      0C2F4        2353          OI    GRP88,SWON          TURN SW ON                           07008021
 001520 47F0 FDA0      01620        2354          B     BGRCOM              GO CHK IF GRP ITM HAS PIC CLSE       07014021
 001524 9208 DB78      0C0B8        2355 BELEM3   MVI   BCIPRM,XX08                                              07020021
 001528 9107 D676      0BBB6        2356 BELEMJ   TM    ITMCLS,XX07          USAGE IS INDEX                      07026021
 00152C 47E0 FD2E      015AE        2357          BC    NOTONE,BELM4        NO                                   07032021
 001530 9670 D60D      0BB4D        2358          OI    MINCOD,XX70          SET MINOR CODE                      07038021
 001534 92E2 DFD9      0C519        2359          MVI   USGIND+NX1,XXE2      SET SIGH                            07044021
 001538 92F9 DFDA      0C51A        2360          MVI   USGIND+NX2,XXF9      SET 9                               07050021
 00153C 9180 D676      0BBB6        2361          TM    ITMCLS,XX80          BLANK WHEN ZERO                     07056021
 001540 4710 FCFA      0157A        2362          BO    BELEME              YES, ERROR                           07062021
 001544 9140 D676      0BBB6        2363 BELEMA   TM    ITMCLS,XX40          JUSTIFIED                           07068021
 001548 4710 FD08      01588        2364          BO   BELEMF               YES, ERROR                           07074021
 00154C 9138 D676      0BBB6        2365 BELEMB   TM    ITMCLS,XX38          VALUE                               07080021
 001550 4770 FD16      01596        2366          BC    NOTZER,BELEMG       YES                                  07086021
 001554 9120 D677      0BBB7        2367 BELEMC   TM    ITMCLS+NX1,XX20      PICTURE CLAUSE                      07092021
 001558 4710 FD24      015A4        2368          BO    BELEMH              YES                                  07098021
 00155C 9620 D677      0BBB7        2369          OI    ITMCLS+NX1,XX20      SET PICTURE BIT ON                  07104021
 001560 1887                        2370 BELEMD   LR    R8,R7               SAVE R7                              07110021
 001562 4170 DFD8      0C518        2371          LA    R7,USGIND           FOR GSPICT RTN                       07116021
 001566 50F0 D9C8      0BF08        2372          ST    R15,RSAVE+NX60                                           07122021
 00156A 58F0 DBD0      0C110        2373          L     R15,AGSPIC          GO                                   07128021
 00156E 05EF                        2374          BALR  R14,R15                 VALIDATE                         07134021
 001570 58F0 D9C8      0BF08        2375          L     R15,RSAVE+NX60               PICTURE                     07140021
 001574 1878                        2376          LR    R7,R8               RESTORE R7                           07146021
 001576 47F0 FDE2      01662        2377          B     PICTAN              GO TO CLEAR PICTURE ERROR BYTE       07152021
 00157A 947F D676      0BBB6        2378 BELEME   NI    ITMCLS,XX7F          ZERO OUT BLANK WHEN ZERO CLAUSE     07158021
 00157E 4540 FFD0      01850        2379          BAL   R4,LDEROR           LNK TO GET MESS# IN REG 0            07164021
1PH20     IKFCBL20                                                                                              PAGE   62
-  LOC  OBJECT CODE    ADDR1 ADDR2  STMT   SOURCE STATEMENT                                       ASM 0201 11.03 02/14/15
0001582 2072                        2380          DC    X'2072'                                                  07170021
 001584 47F0 FCC4      01544        2381          B     BELEMA              BRH TO TEST ITMCLS                   07176021
 001588 94BF D676      0BBB6        2382 BELEMF   NI    ITMCLS,XXBF          ZERO OUT JUSTIFIED CLAUSE           07182021
 00158C 4540 FFD0      01850        2383          BAL   R4,LDEROR           LNK TO GET MESS# IN REG 0            07188021
 001590 2072                        2384          DC    X'2072'                                                  07194021
 001592 47F0 FCCC      0154C        2385          B     BELEMB              BRH TO TEST ITMCLS FOR X'38'         07200021
 001596 94C7 D676      0BBB6        2386 BELEMG   NI    ITMCLS,XXC7          ZERO OUT VALUE CLAUSE           002 07206021
 00159A 4540 FFD0      01850        2387          BAL   R4,LDEROR           LNK TO GET MESS# IN REG 0            07212021
 00159E 2072                        2388          DC    X'2072'                                                  07218021
 0015A0 47F0 FCD4      01554        2389          B     BELEMC              BRH TO TEST AND SET PIC BIT ON       07224021
 0015A4 4540 FFD0      01850        2390 BELEMH   BAL   R4,LDEROR           LNK TO GET MESS# IN REG 0            07230021
 0015A8 2072                        2391          DC    X'2072'                                                  07236021
 0015AA 47F0 FCE0      01560        2392          B     BELEMD              BRH, SET UP REGS TO VALID.PIC        07242021
 0015AE 9120 D677      0BBB7        2393 BELM4    TM    ITMCLS+NX1,XX20      IS THERE PICT CLAUSE                07248021
 0015B2 4710 FDE2      01662        2394          BC    ONES,PICTAN    YES                                       07254021
 0015B6 4380 D676      0BBB6        2395          IC    R8,ITMCLS           NO, INSERT CLAUSE FIELD INTO REG     07260021
 0015BA 5480 D4C8      0BA08        2396          N     R8,MK3032           ZERO ALL BITS EXCEPT USAGE BITS      07266021
 0015BE 1989                        2397          CR    R8,R9                  IS USAGE COMP-1                   07272021
 0015C0 4780 FD86      01606        2398          BC    EQ,BSHTPR      YES                                       07278021
 0015C4 1986                        2399          CR    R8,R6               NO, IS USAGE COMP-2                  07284021
 0015C6 4780 FD54      015D4        2400          BC    EQ,BLNGPR           YES                                  07290021
 0015CA 4540 FFD0      01850        2401          BAL   R4,LDEROR           NO, CALL ERROR                       07296021
 0015CE 1097                        2402          DC    X'1097'             151                                  07302021
 0015D0 47F0 FEE2      01762        2403          BC    UNCOND,BFIXPD       GO TO PICTURE ERROR                  07308021
 0015D4 8B60 0001      00001        2404 BLNGPR   SLA   R6,DX1          YES, SHIFT REG 6 TO MAKE CONTENTS = 8    07314021
 0015D8 4060 D678      0BBB8        2405          STH   R6,CILGN       STORE 8 IN MACHINE LGN FIELD OF CI        07320021
 0015DC 96A0 D60D      0BB4D        2406          OI    MINCOD,XXA0    SET MINOR CODE TO INTERNAL FLOATING PO    07326021
 0015E0 9201 D614      0BB54        2407          MVI   VILGN+NX1,XX01  SET DOUBLE PRECISION BIT ON IN ATTRIB    07332021
 0015E4 9180 D676      0BBB6        2408          TM    ITMCLS,XX80          BLANK WHEN ZERO                     07338021
 0015E8 4780 FE98      01718        2409          BZ    BELCOM              NO                                   07344021
 0015EC 4540 FFD0      01850        2410          BAL   R4,LDEROR           YES, ERROR                           07350021
 0015F0 2025                        2411          DC    X'2025'             MSG 37                               07356021
 0015F2 47F0 FE98      01718        2412          BC    UNCOND,BELCOM       BRH, TEST FOR JUSTIFY CLAUSE         07362021
 0015F6 4540 FFD0      01850        2413 BELEM4   BAL   R4,LDEROR           CALL ERROR RTN- COMP-1 HAS PICTU     07368021
 0015FA 0071                        2414          DC    X'0071'             113            PICTURE DROPPED       07374021
 0015FC D700 DDB4 DDB4 0C2F4 0C2F4  2415          XC    GRP88(LX1),GRP88     TURN OFF SW                         07380021
 001602 47F0 FCA8      01528        2416          B     BELEMJ              COMP ROUTINES                        07386021
 001606 4060 D678      0BBB8        2417 BSHTPR   STH   R6,CILGN       STORE 4 IN MACHINE LGN FIELD OF CI        07392021
 00160A 96A0 D60D      0BB4D        2418          OI    MINCOD,XXA0    SET MINOR CODE TO INTERNAL FLOATING PO    07398021
 00160E 9180 D676      0BBB6        2419          TM    ITMCLS,XX80          BLANK WHEN ZERO                     07404021
 001612 4780 FE98      01718        2420          BZ    BELCOM              BRH ON 0,TEST FOR JUSTIFY CLSE       07410021
 001616 4540 FFD0      01850        2421          BAL   R4,LDEROR           YES, ERROR                           07416021
 00161A 2025                        2422          DC    X'2025'             MSG 37                               07422021
 00161C 47F0 FE98      01718        2423          BC    UNCOND,BELCOM  THE PRECISION BIT IN ATTRIBUTES IS ZE     07428021
                                    2424 *                                                                       07434021
                                    2425 * CHECK TO SEE IF GROUP ITEM HAS ILLEGAL CLAUSES                        07440021
                                    2426 *                                                                       07446021
 001620 9120 D677      0BBB7        2427 BGRCOM   TM    ITMCLS+NX1,XX20 DOES GROUP ITEM HAVE PICTURE CLAUSE      07452021
 001624 4710 FDD4      01654        2428          BC    ONES,BGRPIC    YES                                       07458021
 001628 9180 D676      0BBB6        2429 BGRCON   TM    ITMCLS,XX80     DOES GRP ITEM HAVE BLANK WHEN ZERO CL    07464021
 00162C 4710 FDC6      01646        2430          BC    ONES,BGRBWZ    YES                                       07470021
 001630 9140 D676      0BBB6        2431 BGRPJU   TM    ITMCLS,XX40     NO, DOES GRP ITEM HAVE JUSTIFIED CLAU    07476021
 001634 47E0 FF06      01786        2432          BC    NOTONE,BMAJOR  NO, GO TO MAJOR CODE ROUTINE              07482021
 001638 94BF D676      0BBB6        2433          NI    ITMCLS,XXBF     YES, ZERO OUT JUSTIFIED CLAUSE BIT (E    07488021
 00163C 4540 FFD0      01850        2434          BAL   R4,LDEROR           CALL ERROR ROUTINE                   07494021
1PH20     IKFCBL20                                                                                              PAGE   63
-  LOC  OBJECT CODE    ADDR1 ADDR2  STMT   SOURCE STATEMENT                                       ASM 0201 11.03 02/14/15
0001640 2024                        2435          DC    X'2024'             36                                   07500021
 001642 47F0 FF06      01786        2436          BC    UNCOND,BMAJOR  GO TO MAJOR CODE ROUTINE                  07506021
 001646 947F D676      0BBB6        2437 BGRBWZ   NI    ITMCLS,XX7F     ZERO OUT BLANK WHEN ZERO CLAUSE (E-TE    07512021
 00164A 4540 FFD0      01850        2438          BAL   R4,LDEROR           CALL ERROR ROUTINE                   07518021
 00164E 2023                        2439          DC    X'2023'             35                                   07524021
 001650 47F0 FDB0      01630        2440          BC    UNCOND,BGRPJU       BRH,GRP ITEM HAS JUSTIFY CLSE?       07530021
 001654 94DF D677      0BBB7        2441 BGRPIC   NI    ITMCLS+NX1,XXDF DELETE PICTURE CLAUSE(ETEXT)             07536021
 001658 4540 FFD0      01850        2442          BAL   R4,LDEROR           CALL ERROR ROUTINE                   07542021
 00165C 2022                        2443          DC    X'2022'             34                                   07548021
 00165E 47F0 FDA8      01628        2444          BC    UNCOND,BGRCON       BRH,GRP ITM HAS BLANK WHEN 0?        07554021
                                    2445 *=2      PICTURE TYPE ANALYSIS-PICTAN                                   07560021
 001662 9200 D5A7      0BAE7        2446 PICTAN   MVI   BPERRO,XX00     CLEAR PICTURE ERROR BYTE                 07566021
 001666 9504 D760      0BCA0        2447          CLI   PCTYPE,XX04          IS PICTURE REPORT                   07572021
 00166A 4770 FDFA      0167A        2448          BC    NOTEQ,PICTA                NO, BR                  46170 07578021
 00166E 9106 D676      0BBB6        2449          TM    ITMCLS,XX06          YES, IS USAGE DISPLAY-ST            07584021
 001672 47E0 FDFA      0167A        2450          BC    NOTONE,PICTA               NO, BR                  46170 07590021
 001676 9207 D760      0BCA0        2451          MVI   PCTYPE,XX07          YES, SET PCTYPE TO STERL REPORT     07596021
                                    2452 *                                      ( USAGE ON GROUP ITEM )          07602021
                             0167A  2453 PICTA    EQU   *                                                  46170 07608021
 00167A 9506 D760      0BCA0        2454          CLI   PCTYPE,XX06              IS IT STER-NON-REPT       46170 07614021
 00167E 4770 FE0E      0168E        2455          BNE   PICTA1                     NO, BR                  46170 07620021
 001682 9106 D676      0BBB6        2456          TM    ITMCLS,XX06              IS USAGE DISP-ST          46170 07626021
 001686 4710 FE0E      0168E        2457          BO    PICTA1                     YES, BR                 46170 07632021
 00168A 9208 D760      0BCA0        2458          MVI   PCTYPE,XX08              NO, CHNGE TO EDITED       46170 07638021
 00168E 9104 D677      0BBB7        2459 PICTA1   TM    ITMCLS+NX1,XX04      IS IT SPECIAL REPORT S.NAME         07644021
 001692 4710 FFE8      01868        2460          BC    ONES,PICTRP         YES, BRANCH                          07650021
 001696 9180 D676      0BBB6        2461          TM    ITMCLS,XX80     IS BWZ CLAUSE SPECIFIED                  07656021
 00169A 47E0 FE40      016C0        2462          BC    NOTONE,BPICAL  NO                                        07662021
 00169E 9503 D760      0BCA0        2463          CLI   PCTYPE,XX03     YES, IS PICTURE TYPE NUMERIC             07668021
 0016A2 4780 FE90      01710        2464          BC    EQ,BPICNM      YES                                       07674021
 0016A6 9504 D760      0BCA0        2465          CLI   PCTYPE,XX04     NO, IS PICTURE TYPE REPORT               07680021
 0016AA 4780 FE68      016E8        2466          BC    EQ,BLDPTY      YES                                       07686021
 0016AE 9507 D760      0BCA0        2467          CLI   PCTYPE,XX07          NO, IS PICTURE TYPE STERL. REPOR    07692021
 0016B2 4780 FE68      016E8        2468          BC    EQ,BLDPTY           YES                                  07698021
 0016B6 947F D676      0BBB6        2469          NI    ITMCLS,XX7F     NO, DELETE BLANK WHEN ZERO CLAUSE        07704021
 0016BA 4540 FFD0      01850        2470          BAL   R4,LDEROR           CALL ERROR ROUTINE                   07710021
 0016BE 2025                        2471          DC    X'2025'             37                                   07716021
 0016C0 9501 D760      0BCA0        2472 BPICAL   CLI   PCTYPE,XX01     IS PICTURE TYPE ALPHABETIC               07722021
 0016C4 4770 FE50      016D0        2473          BC    NOTEQ,BPICAN   NO                                        07728021
 0016C8 4130 0020      00020        2474          LA    R3,DX32(R0,R0)  YES,SET BITS 24-27 OF REG3 TO MINOR C    07734021
 0016CC 47F0 FE68      016E8        2475          BC    UNCOND,BLDPTY       BRH,SET UP FOR PIC ANAL RTN          07740021
 0016D0 9502 D760      0BCA0        2476 BPICAN   CLI   PCTYPE,XX02     IS PICTURE TYPE ALPHANUMERIC             07746021
 0016D4 4770 FE60      016E0        2477          BC    NOTEQ,BPICFF   NO                                        07752021
 0016D8 4130 0030      00030        2478          LA    R3,DX48(R0,R0)  YES, SET BITS 24-27 OF REG3 TO MINOR     07758021
 0016DC 47F0 FE68      016E8        2479          BC    UNCOND,BLDPTY       BRH, SET UP FOR PIC ANAL RTN         07764021
 0016E0 95FF D760      0BCA0        2480 BPICFF   CLI   PCTYPE,XXFF     IS PICTURE TYPE ILLEGAL                  07770021
 0016E4 4780 FED2      01752        2481          BC    EQ,BYTERR           BRH ON = TO CALL ERROR RTN           07776021
 0016E8 1B44                        2482 BLDPTY   SR    R4,R4               NO                                   07782021
 0016EA 4340 D760      0BCA0        2483          IC    R4,PCTYPE             INSERT PICTURE TYPE CODE INTO      07788021
 0016EE 8B40 0002      00002        2484          SLA   R4,DX2          MULTIPLY BY 4 FOR FULL WORD BNDRY        07794021
 0016F2 4180 D3D0      0B910        2485          LA    R8,BPICTB      LOAD PICTURE TABLE ADDRESS IN REG 8       07800021
 0016F6 1A84                        2486          AR    R8,R4          ADD INDEX(R4) TO ADDRESS OF ADDRESS T     07806021
 0016F8 50F0 D9C8      0BF08        2487          ST    R15,RSAVE+NX60  SAVE REG 15                              07812021
 0016FC 58F0 8000      00000        2488          L     R15,DX0(R0,R8) PUT TABLE ADDRESS IN R15                  07818021
 001700 05EF                        2489          BALR  R14,R15        CALL CURRENT PICTURE ANALYSIS RTN         07824021
1PH20     IKFCBL20                                                                                              PAGE   64
-  LOC  OBJECT CODE    ADDR1 ADDR2  STMT   SOURCE STATEMENT                                       ASM 0201 11.03 02/14/15
0001702 12EF                        2490          LTR   R14,R15        IF PICTURE ROUTINE DROPS CURRENT ITEM     07830021
 001704 58F0 D9C8      0BF08        2491          L     R15,RSAVE+NX60   PICTURE, REG 15 WILL BE SET TO ZERO     07836021
 001708 4780 FEDC      0175C        2492          BC    ZERO,BFIXPC      A BRANCH WILL BE TAKEN TO BFIXPC        07842021
 00170C 47F0 FE98      01718        2493          BC    UNCOND,BELCOM       BRH,TEST FOR JUSTIFY CLAUSE          07848021
 001710 9204 D760      0BCA0        2494 BPICNM   MVI   PCTYPE,XX04     CHANGE PICTURE TYPE TO REPORT            07854021
 001714 47F0 FDE2      01662        2495          BC    UNCOND,PICTAN       BRH, TO CLEAR PIC ERROR BYTE         07860021
 001718 9140 D676      0BBB6        2496 BELCOM   TM    ITMCLS,XX40     IS JUSTIFIED CLAUSE SPECIFIED            07866021
 00171C 47E0 FF06      01786        2497          BC    NOTONE,BMAJOR  NO, GO TO MAJOR CODE ROUTINE              07872021
 001720 9502 D760      0BCA0        2498          CLI   PCTYPE,XX02     YES, IS ITEM ALPHABETIC OR ALPHANUMER    07878021
 001724 4720 FEB4      01734        2499          BH    BDRPJB              NO, SEE IF EDITED                    07884021
 001728 9500 D760      0BCA0        2500          CLI   PCTYPE,XX00     MAYBE, IS ITEM INTERNAL FLT PT           07890021
 00172C 4780 FEC4      01744        2501        BE    BDRPJC                YES, ERROR                           07896021
 001730 47F0 FEBC      0173C        2502        B     BDRPJD                NO, GO SET BIT ON                    07902021
 001734 9508 D760      0BCA0        2503 BDRPJB   CLI   PCTYPE,XX08          AN EDITED                           07908021
 001738 4770 FEC4      01744        2504          BNE   BDRPJC              NO, ERROR                            07914021
 00173C 9601 D612      0BB52        2505 BDRPJD   OI    LEVNUM,XX01          NO, SET JUSTIFIED CLAUSE BIT ON     07920021
 001740 47F0 FF06      01786        2506          BC    UNCOND,BMAJOR    GO TO MAJOR CODE ROUTINE                07926021
 001744 94BF D676      0BBB6        2507 BDRPJC   NI    ITMCLS,XXBF     DROP JUSTIFIED CLAUSE                    07932021
 001748 4540 FFD0      01850        2508          BAL   R4,LDEROR           CALL ERROR ROUTINE                   07938021
 00174C 2028                        2509          DC    X'2028'             40                                   07944021
 00174E 47F0 FF06      01786        2510          BC    UNCOND,BMAJOR       BRH TO MOVE MAJ CDE TO ATTRIB        07950021
 001752 4540 FFD0      01850        2511 BYTERR   BAL   R4,LDEROR           CALL ERROR ROUTINE                   07956021
 001756 1027                        2512          DC    X'1027'             39                                   07962021
 001758 47F0 FEE2      01762        2513          BC    UNCOND,BFIXPD       BRH TO CHG PIC TYPE TO NUMERIC       07968021
 00175C 4540 FFD4      01854        2514 BFIXPC   BAL   R4,LDEROR+NX4        CALL ERROR RTN                      07974021
 001760 0000                        2515          DC    X'0000'             ERROR NUMBER IS IN REG 0             07980021
 001762 9203 D760      0BCA0        2516 BFIXPD   MVI   PCTYPE,XX03          CHANGE PICTURE TYPE TO NUMERIC      07986021
 001766 D201 D689 D539 0BBC9 0BA79  2517          MVC   IPT(LX2),BFIXCN LOAD 1 BYTE CONSTANT PICTURE 9           07992021
 00176C D203 D6A8 D53B 0BBE8 0BA7B  2518          MVC   IPLT(LX4),BFIXCN+NX2  INTO ELITEM                        07998021
 001772 9201 D5A7      0BAE7        2519          MVI   BPERRO,XX01     SET PICTURE ERROR SWITCH TO ONE          08004021
 001776 9106 D676      0BBB6        2520          TM    ITMCLS,XX06                                              08010021
 00177A 47E0 FE68      016E8        2521          BC    NOTONE,BLDPTY       NOT 1,SET UP FOR PIC ANAL RTN        08016021
 00177E 9207 D760      0BCA0        2522          MVI   PCTYPE,XX07                                              08022021
 001782 47F0 FE68      016E8        2523          BC    UNCOND,BLDPTY       BRH TO SET UP FOR PIC ANAL RTN       08028021
 001786 D600 D60C D76F 0BB4C 0BCAF  2524 BMAJOR   OC    COUNT(LX1),MCI  MOVE MAJOR CODE TO ATTRIBUTES            08034021
                                    2525 *=2      GET DICTIONARY POINTER-BGETDP                                  08040021
 00178C 4540 FF6A      017EA        2526 BGETDP   BAL   R4,GETDPT           GET DICTIONARY POINTER FOR ITEM      08046021
 001790 4540 FF86      01806        2527          BAL   R4,BCONDE           CHECK FOR COND. VAR. DELINITOR       08052021
 001794 1B33                        2528 BLEVNM   SR    R3,R3                                                    08058021
 001796 4330 D688      0BBC8        2529          IC    R3,SRCELN           SOURCE LEVEL =                       08064021
 00179A 9531 D688      0BBC8        2530          CLI   SRCELN,XX31          IS LEVEL 01-49                      08070021
 00179E 4720 FF30      017B0        2531          BC    HI,BLEVN1           NO                                   08076021
 0017A2 50F0 D9C8      0BF08        2532          ST    R15,RSAVE+NX60                                           08082021
 0017A6 58F0 DC7C      0C1BC        2533          L     R15,ANORML          YES, NORMALIZE LEVEL NUMBER          08088021
 0017AA 05EF                        2534          BALR  R14,R15             LNK TO ADDR IN REG 15                08094021
 0017AC 58F0 D9C8      0BF08        2535          L     R15,RSAVE+NX60                                           08100021
 0017B0 8B30 0002      00002        2536 BLEVN1   SLA   R3,DX2               PUT IN HI 6 BITS OF                 08106021
 0017B4 4430 FFCC      0184C        2537          EX    R3,BLEVEL             LEVNUM IN ATTRIBUTES               08112021
 0017B8 9102 D60D      0BB4D        2538          TM    MINCOD,XX02     DOES ITEM HAVE AN OCCURS CLAUSE          08118021
 0017BC 47E0 FF56      017D6        2539          BC    NOTONE,BCALDB  NO                                        08124021
 0017C0 1B99                        2540          SR    R9,R9               YES, MOVE THE DICTIONARY POINTER     08130021
 0017C2 4390 D776      0BCB6        2541          IC    R9,OCT                   OF CI TO                        08136021
 0017C6 5C80 D400      0B940        2542          M     R8,THREE                   TABLE FOR                     08142021
 0017CA 4180 D520      0BA60        2543          LA    R8,BDPTAB                    MBS                         08148021
 0017CE 1A89                        2544          AR    R8,R9                          ROUTINE                   08154021
1PH20     IKFCBL20                                                                                              PAGE   65
-  LOC  OBJECT CODE    ADDR1 ADDR2  STMT   SOURCE STATEMENT                                       ASM 0201 11.03 02/14/15
00017D0 D202 8000 D685 00000 0BBC5  2545          MVC   DX0(LX3,R8),DICTPT+NX1                                   08160021
 0017D6 50F0 DA24      0BF64        2546 BCALDB   ST    R15,DSAVE                                                08166021
 0017DA 58F0 DBC8      0C108        2547          L     R15,ADICTB                                               08172021
 0017DE 05EF                        2548          BALR  R14,R15        CALL DICTIONARY BUILD                     08178021
 0017E0 58F0 DA24      0BF64        2549          L     R15,DSAVE                                                08184021
 0017E4                             2550 DUMP   DS    0H                                                         08190021
 0017E4 5840 D8EC      0BE2C        2551          L     R4,GETSAV+NX4        GET RETURN ADDRESS                  08196021
 0017E8 07F4                        2552          BCR   UNCOND,R4           RETURN                               08202021
                             017EA  2553 GETDPT   EQU   *                                                        08208021
 0017EA 50F0 DA20      0BF60        2554          ST    R15,SAVE15                SAVE BASE REG                  08214021
 0017EE 58F0 DBA8      0C0E8        2555          L     R15,ASUBRTN                SET UP NEW BASE               08220021
 0017F2 5040 DA1C      0BF5C        2556          ST    R4,SAVE4                   SAVE RETURN REG               08226021
 0017F6 5840 DC8C      0C1CC        2557          L     R4,AGETDP                   ADDRESSIBILITY               08232021
 0017FA 05E4                        2558          BALR  R14,R4                   BR TO GET DICT PT               08238021
 0017FC 58F0 DA20      0BF60        2559          L     R15,SAVE15                  RESTORE BASE                 08244021
 001800 5840 DA1C      0BF5C        2560          L     R4,SAVE4                  RETURN ADDRESS                 08250021
 001804 07F4                        2561          BR    R4                          RETURN                       08256021
 001806 9102 D5AF      0BAEF        2562 BCONDE   TM    SW88,XX02            IS THIS ITEM A CONDITIONAL VARIA    08262021
 00180A 47E0 FFAA      0182A        2563          BC    NOTONE,BGETD2       NO,BRANCH                  DELIM     08268021
 00180E 94FD D5AF      0BAEF        2564          NI    SW88,XXFD            YES, TURN SW OFF                    08274021
 001812 D203 DB70 D684 0C0B0 0BBC4  2565          MVC   DEL88(LX4),DICTPT    STORE COND VAR DELIMITER            08280021
 001818 4110 DB6C      0C0AC        2566          LA    R1,CONVAR                                                08286021
 00181C 50F0 DA18      0BF58        2567          ST    R15,TSAVER          CALL ENTDEL TO STORE DELIMITOR       08292021
 001820 58F0 DBF8      0C138        2568          L     R15,AENTDE            IN DICTIONARY FOR COND. VAR.       08298021
 001824 05EF                        2569          BALR  R14,R15             LNK TO ADDR IN REG 15                08304021
 001826 58F0 DA18      0BF58        2570          L     R15,TSAVER                                               08310021
 00182A 9101 D5AF      0BAEF        2571 BGETD2   TM    SW88,XX01            IS THIS ITEM A CONDITIONAL VARIA    08316021
 00182E 07E4                        2572          BCR   NOTONE,R4           NO, RETURN                           08322021
 001830 D203 DB6C D684 0C0AC 0BBC4  2573          MVC   CONVAR(LX4),DICTPT   YES, SAVE  DICTIONARY  POINTER      08328021
 001836 07F4                        2574          BCR   UNCOND,R4           BRH TO ADDR IN REG 4                 08334021
 001838 D200 DDE4 DEC7 0C324 0C407  2575 BDDTAB   MVC   WS+NX4(LX1),FAPAF+NX2 1ST BL= FOR WSADEF                 08340021
 00183E 9601 D5AB      0BAEB        2576          OI    WSRSW,XX01           SET WS SW ON                        08346021
 001842 D206 DED3 DEB9 0C413 0C3F9  2577          MVC   RAPAF(LX7),APAF      SAVE APAF FOR REPORT SECTION        08352021
 001848 47F0 F226      00AA6        2578          BC    UNCOND,BEGIN0       GO TO SECTION DETERMINER             08358021
 00184C 9600 D612      0BB52        2579 BLEVEL   OI    LEVNUM,XX00                                              08364021
                                    2580 *                                                                       08370021
                                    2581 * COMMON ERROR ROUTINE FOR LDTEXT                                       08376021
                                    2582 *                                                                       08382021
 001850 4804 0000      00000        2583 LDEROR   LH    R0,DX0(R4)           GET MESSAGE NUMBER IN REG 0         08388021
 001854 50F0 DA18      0BF58        2584          ST    R15,TSAVER                                               08394021
 001858 58F0 DBC0      0C100        2585          L     R15,AERRTN                                               08400021
 00185C 05EF                        2586          BALR  R14,R15             CALL ERROR ROUTINE                   08406021
 00185E 58F0 DA18      0BF58        2587          L     R15,TSAVER                                               08412021
 001862 4144 0002      00002        2588          LA    R4,DX2(R4)                                               08418021
 001866 07F4                        2589          BCR   UNCOND,R4           RETURN TO CALLER                     08424021
 001868 D201 D689 D416 0BBC9 0B956  2590 PICTRP   MVC   IPT(LX2),EIGHT+NX2                                       08430021
 00186E 902F D994      0BED4        2591          STM   R2,R15,RSAVE+NX8                                         08436021
 001872 4110 D689      0BBC9        2592          LA    R1,IPT                                                   08442021
 001876 58F0 DC4C      0C18C        2593          L     R15,AQUAL           CALL QUAL TO,LOOK UP ATTRIBUTES      08448021
 00187A 05EF                        2594          BALR  R14,R15              E.NAME, CHANGE TO EQUIVALENT IN     08454021
 00187C 982F D994      0BED4        2595          LM    R2,R15,RSAVE+NX8      INTERNAL DECIMAL                   08460021
 001880 D202 D612 D6A8 0BB52 0BBE8  2596          MVC   LEVNUM(LX3),IPLT                                         08466021
 001886 4010 D678      0BBB8        2597          STH   R1,CILGN                                                 08472021
 00188A 96C0 D60D      0BB4D        2598          OI    MINCOD,XXC0          SET MINOR CODE TO INTERNAL DECIM    08478021
 00188E 9601 D612      0BB52        2599          OI    LEVNUM,XX01               SET ON S FOR S.NNNN            08484021
1PH20     IKFCBL20                                                                                              PAGE   66
-  LOC  OBJECT CODE    ADDR1 ADDR2  STMT   SOURCE STATEMENT                                       ASM 0201 11.03 02/14/15
0001892 47F0 FE98      01718        2600          BC    UNCOND,BELCOM       BRH TO TEST FOR JUSTIFY CLAUSE       08490021
                                    2601 *DEL                                                                    08496021
                                    2602 *DEL                                                                    08502021
1PH20     IKFCBL20                                                                                              PAGE   67
-  LOC  OBJECT CODE    ADDR1 ADDR2  STMT   SOURCE STATEMENT                                       ASM 0201 11.03 02/14/15
0                                   2604 *SUBRTN - SUBROUTINE CSECT                                              08514021
                                    2605 *                                                                       08520021
                                    2606 *CHKFD - SUBROUTINE TO DETERMINE IF FD IS MISSING OR DISCARDED          08526021
                                    2607 *        FROM SOURCE - WILL PROCESS RECORD DESCRIPTION AS IF FD         08532021
                                    2608 *        WERE PRESENT.                                                  08538021
                                    2609 *                                                                       08544021
 001898                             2610 IKF201A  CSECT                                                          08550021
                             01898  2611          USING *,R15                                                    08556021
                             01898  2612 SUBRTN   EQU   *                                                        08562021
                             01898  2613 CHKFD    EQU   *                                                        08568021
 001898 9101 D5AC      0BAEC        2614          TM    NOFDSW,FSTFDBIT                                          08574021
 00189C 4710 F02E      018C6        2615          BO    FIL095              YES. BRANCH                          08580021
 0018A0 9102 D5AC      0BAEC        2616          TM    NOFDSW,NOFDBIT      NO. IS THIS THE FIRST SUCH REC       08586021
 0018A4 4710 F02E      018C6        2617          BO    FIL095              NO. BRANCH                           08592021
                                    2618 *                                                                       08598021
                                    2619 * THE FD IS MISSING FROM SOURCE OR DISCARDED  -  THE FOLLOWING          08604021
                                    2620 * WILL SET UP CONDITIONS AS IF IT WERE PRESENT IN ORDER TO PROCESS      08610021
                                    2621 * THE RECORD DESCRIPTION.                                               08616021
                                    2622 *                                                                       08622021
 0018A8 9602 D5AC      0BAEC        2623          OI    NOFDSW,NOFDBIT      YES-SET SW&PROCESS REC W/OUT FD      08628021
 0018AC D703 DF48 DF48 0C488 0C488  2624          XC    FD(LX4),FD          INITIALIZE                           08634021
 0018B2 481B 020C      0020C        2625          LH    R1,BLCTR-COS(RCOM)                                       08640021
 0018B6 4111 0001      00001        2626          LA    R1,DX1(R1)          INCREMENT                            08646021
 0018BA 4210 DF4A      0C48A        2627          STC   R1,FD+NX2              AND                               08652021
 0018BE 4210 DEC7      0C407        2628          STC   R1,FAPAF+NX2              SAVE                           08658021
 0018C2 401B 020C      0020C        2629          STH   R1,BLCTR-COS(RCOM)           BL NUMBER                   08664021
 0018C6                             2630 FIL095   DS    0H                                                       08670021
 0018C6 9110 7006      00006        2631          TM    DX6(R7),XX10        COPY CLAUSE PRESENT ??               08676021
 0018CA 4710 F040      018D8        2632          BO    FIL095A                                                  08682021
 0018CE D200 D5A2 D5A1 0BAE2 0BAE1  2633          MVC   PLBLSW(LX1),LBLSW                                        08688021
 0018D4 94BF D5A1      0BAE1        2634          NI    LBLSW,XXBF                                               08694021
 0018D8                             2635 FIL095A  DS    0H                                                       08700021
 0018D8 9200 D76F      0BCAF        2636          MVI   MCI,XX00            SET MAJOR CODE = FD                  08706021
 0018DC 58F0 DCCC      0C20C        2637          L     R15,ABEGIN                                               08712021
 0018E0 07FE                        2638          BR    R14                           RETURN                     08718021
1PH20     IKFCBL20                                                                                              PAGE   68
-  LOC  OBJECT CODE    ADDR1 ADDR2  STMT   SOURCE STATEMENT                                       ASM 0201 11.03 02/14/15
0                            018E2  2640 GETDP    EQU   *                                                        08730021
 0018E2 50E0 F0D0      01968        2641          ST    R14,SAVE14                SAVE RETURN ADDR               08736021
 0018E6 D202 DB79 DB79 0C0B9 0C0B9  2642          MVC   BCIPRM+NX1(LX3),ACI      ADDR OF BCD NAME                08742021
 0018EC 1B11                        2643          SR    R1,R1                                                    08748021
 0018EE 4310 D60C      0BB4C        2644          IC    R1,COUNT                  GET ATTRIBUTE CNT              08754021
 0018F2 8810 0004      00004        2645          SRL   R1,DX4                          IN REG 1                 08760021
 0018F6 1211                        2646          LTR   R1,R1                        TEST COUNT                  08766021
 0018F8 4720 F06C      01904        2647          BC    POS,GETDP1                GET COUNT FROM N FIELD         08772021
 0018FC 4310 D613      0BB53        2648          IC    R1,VILGN                 IN VILGN AND ADD 8 FOR TOT      08778021
 001900 4111 0008      00008        2649          LA    R1,DX8(R1)               ATTRIB CNT (REPT PIC)           08784021
 001904 9108 D60C      0BB4C        2650 GETDP1   TM    ATTRIB,XX08                TEST MAJOR CODE               08790021
 001908 4780 F092      0192A        2651          BZ    GETDP2                     NOT FD ENTRY                  08796021
 00190C 9105 D60C      0BB4C        2652          TM    ATTRIB,XX05              IS THIS FD ENTRY                08802021
 001910 4770 F092      0192A        2653          BC    NOTZER,GETDP2            NO, SOMETHING ELSE              08808021
 001914 1B33                        2654          SR    R3,R3                    YES- CALC ATTRIB CNT            08814021
 001916 1B11                        2655          SR    R1,R1                                                    08820021
 001918 4330 D614      0BB54        2656          IC    R3,FDVCNT                VARIABLE PORTION COUNT          08826021
 00191C 4310 D60C      0BB4C        2657          IC    R1,FDCUNT                FIXED PORTION CNT               08832021
 001920 8830 0004      00004        2658          SRL   R3,DX4                                                   08838021
 001924 8810 0004      00004        2659          SRL   R1,DX4                                                   08844021
 001928 1A13                        2660          AR    R1,R3                    ADD TO GET TOTAL CNT            08850021
 00192A 4210 DB7C      0C0BC        2661 GETDP2   STC   R1,BCIPRM+NX4            STORE CNT IN PARM LIST          08856021
 00192E 5810 DB74      0C0B4        2662          L     R1,ACIPRM                R1 = A(PARMATER LIST)           08862021
 001932 50F0 DA18      0BF58        2663          ST    R15,TSAVER                                               08868021
 001936 58F0 DBC4      0C104        2664          L     R15,BGETPT               CALL GETPTR OF ACCESS           08874021
 00193A 05EF                        2665          BALR  R14,R15                  LNK TO ADDR IN REG 15           08880021
 00193C 58F0 DA18      0BF58        2666          L     R15,TSAVER               R1 = DICTPTR FROM GETPTR        08886021
 001940 5010 D684      0BBC4        2667          ST    R1,DICTPT                  SAVE DICTPTR                  08892021
 001944 5010 DF44      0C484        2668          ST    R1,REALPTR                                               08898021
 001948 5830 DB84      0C0C4        2669          L     R3,COSADR                                                08904021
 00194C 9180 B1A4      001A4        2670          TM    PHZSW1,XREF              IS XREF SPEC'D                  08910021
 001950 4780 F0CA      01962        2671          BZ    GETDP3                    NO, BR                         08916021
 001954 4110 D5EC      0BB2C        2672          LA    R1,CI                    A(BCDNAME)                      08922021
 001958 58F0 DCA4      0C1E4        2673          L     R15,AXREF                   YES                          08928021
 00195C 05EF                        2674          BALR  R14,R15                  GENERATE XREF ELEMENT           08934021
 00195E 58F0 DA18      0BF58        2675          L     R15,TSAVER                                               08940021
 001962 58E0 F0D0      01968        2676 GETDP3   L     R14,SAVE14                    RETURN ADDR                08946021
 001966 07FE                        2677          BR    R14                          RETURN                      08952021
 001968 00000000                    2678 SAVE14   DC    F'0'                     SAVE RETURN REG                 08958021
1PH20     IKFCBL20                                                                                              PAGE   69
-  LOC  OBJECT CODE    ADDR1 ADDR2  STMT   SOURCE STATEMENT                                       ASM 0201 11.03 02/14/15
1PH20     IKFCBL20                                                                                              PAGE   70
-  LOC  OBJECT CODE    ADDR1 ADDR2  STMT   SOURCE STATEMENT                                       ASM 0201 11.03 02/14/15
0                                   2681 *                                                                       08976021
1PH20     IKFCBL20                                                                                              PAGE   71
-  LOC  OBJECT CODE    ADDR1 ADDR2  STMT   SOURCE STATEMENT                                       ASM 0201 11.03 02/14/15
0                                   2683 *                                                                       08988021
 001970                             2684 IKF201B  CSECT                                                          08994021
 001970                             2685 CKETXTA  DS    0H                                                       09000021
                                    2686 *                                                                       09006021
                                    2687 *                                                                       09012021
                                    2688 *SUBRTN - CHETXT CSECT                                                  09018021
                                    2689 *CKETXT - ALL ERROR TEXT COMING I TO PH2 ARE HANDLED BY THIS RTN        09024021
                                    2690 *                                                                       09030021
                             01970  2691          USING *,R15                                                    09036021
                             00000  2692          USING ICLDST,R7                                                09042021
                             01970  2693 CKETXT   EQU   *                                                        09048021
 001970                             2694 ERR010   DS    0H                      PUT HIGHEST SEVERITY             09054021
                                    2695 *                                      ON F3 INTO ERRSEV FOR PH6        09060021
 001970 50E0 F0DC      01A4C        2696          ST    R14,SVR14           SAVE REG14                           09066021
 001974 9500 7002      00002        2697          CLI   DX2(R7),XX00            PARAMETER ??                     09072021
 001978 4770 F03C      019AC        2698          BNE   ERR030                  YES, SKIP CHECK                  09078021
 00197C 1B11                        2699          SR    R1,R1                                                    09084021
 00197E 4317 0007      00007        2700          IC    R1,DX7(R7)              PIC UP SEVERITY                  09090021
 001982 8810 0004      00004        2701          SRL   R1,DX4                  GET RID OF PHASE #               09096021
 001986 4111 0001      00001        2702          LA    R1,DX1(R1)              ADD 1                            09102021
 00198A 8910 0002      00002        2703          SLL   R1,DX2                  MULTIPLY BY 4                    09108021
 00198E 4910 D426      0B966        2704          CH    R1,TWELVE+NX2           12 OR HIGHER ??                  09114021
 001992 47D0 F02A      0199A        2705          BNH   ERR020                  NO                               09120021
 001996 4110 0010      00010        2706          LA    R1,DX16                 RETURN HIGHEST SEVERITY          09126021
 00199A                             2707 ERR020   DS    0H                                                       09132021
 00199A 4210 D900      0BE40        2708          STC   R1,FULLWD                                                09138021
 00199E D500 D900 B1A2 0BE40 001A2  2709          CLC   FULLWD(LX1),ERRSEV                                       09144021
 0019A4 47D0 F03C      019AC        2710          BNH   ERR030                  THIS SEVERITY LOWER THAN LAST    09150021
 0019A8 4210 B1A2      001A2        2711          STC   R1,ERRSEV               NEW HIGH SEVERITY INTO ERRSEV    09156021
 0019AC                             2712 ERR030   DS    0H                                                       09162021
 0019AC 5810 DB84      0C0C4        2713          L     R1,COSADR                                                09168021
 0019B0 1827                        2714          LR    R2,R7                   CALL COS TO                      09174021
 0019B2 0501                        2715          BALR  R0,R1                   PUT OUT THE E-TEXT               09180021
 0019B4 24                          2716          DC    X'24'                                                    09186021
 0019B5 00
 0019B6 1845                        2717          LR    R4,R5                   LOAD E-TEXT COUNT                09192021
                                    2718 *                                                                       09198021
                                    2719 *                                                                       09204021
                                    2720 *                                                                       09210021
 0019B8 D501 7003 F0C8 00003 01A38  2721          CLC   DX3(LX2,R7),SRLIB       SOURCE LIB  ???                  09216021
 0019BE 4770 F074      019E4        2722          BNE   RETURN1                 NO, BRANCH                       09222021
 0019C2 4440 F0C2      01A32        2723          EX    R4,MOVETXT              SAVE ETXT OF COPY SOURCE LIB     09228021
 0019C6 4174 7002      00002        2724          LA    R7,DX2(R4,R7)           UPDATE PTR FOR NEXT ITEM         09234021
 0019CA 95FF 7000      00000        2725          CLI   DX0(R7),XXFF            END OF BUFFER ???                09240021
 0019CE 4780 F082      019F2        2726          BE    COMPFF1                 YES, BRANCH                      09246021
 0019D2 D501 F0CD 7003 01A3D 00003  2727 CKCONT   CLC   SRLIBSV+DX3(LX2),DX3(R7)   NO, CHECK CARD NO             09252021
 0019D8 4347 0001      00001        2728          IC    R4,DX1(R7)          PICK UP ITEM LENGTH                  09258021
 0019DC 4770 F0AE      01A1E        2729          BNE   CKEXIT              IF NOT SAME CARD NO,  BRANCH         09264021
 0019E0 94EF 7006      00006        2730          NI    ICLFL2,XXEF         TURN OFF COPY SW                     09270021
 0019E4 4170 7002      00002        2731 RETURN1  LA    R7,DX2(R0,R7)       MOVE UP PTR TWO BYTES                09276021
                                    2732 *                                                                       09282021
 0019E8 58E0 F0DC      01A4C        2733          L     R14,SVR14                                                09288021
 0019EC 58F0 DCCC      0C20C        2734          L     R15,ABEGIN              RESTORE REG15 BEFORE RETURN      09294021
 0019F0 07FE                        2735          BR    R14                                                      09300021
                                    2736 *                                                                       09306021
1PH20     IKFCBL20                                                                                              PAGE   72
-  LOC  OBJECT CODE    ADDR1 ADDR2  STMT   SOURCE STATEMENT                                       ASM 0201 11.03 02/14/15
00019F2 5810 DB84      0C0C4        2737 COMPFF1  L     R1,COSADR                                                09312021
 0019F6 0501                        2738          BALR  R0,R1                   READ FILE-3 INPUT                09318021
 0019F8 03                          2739          DC    X'03'                                                    09324021
 0019F9 00
 0019FA 4780 F0B8      01A28        2740          BE    ENDF3                                                    09330021
 0019FE 1870                        2741          LR    R7,R0                   PICK UP BUFFER PTR               09336021
 001A00 D500 7000 0003 00000 00003  2742          CLC   R0(LX1,R7),XX03     IC TEXT ???                          09342021
 001A06 4770 F0AE      01A1E        2743          BNE   CKEXIT                  NOT IC TEXT OF 03                09348021
 001A0A 1B55                        2744          SR    R5,R5               CLEAR REG5                           09354021
 001A0C 4317 0001      00001        2745          IC    R1,DX1(R7)          INSERT LENGTH OF IC TEST             09360021
 001A10 D500 7002 0001 00002 00001  2746          CLC   DX2(LX1,R7),XX01        01 LEVEL OF ICTEXT               09366021
 001A16 4770 F0AE      01A1E        2747          BNE   CKEXIT                  NO, CKEXIT TO RETURN             09372021
 001A1A 47F0 F062      019D2        2748          B     CKCONT                  GO TO UPDATE BUFFTER PTR         09378021
                                    2749 *                                                                       09384021
 001A1E 58E0 F0D8      01A48        2750 CKEXIT   L     R14,ATYPRC           PICK UP ADD OF READ F3 RTN          09390021
 001A22 58F0 DCCC      0C20C        2751          L     R15,ABEGIN              RESTORE R15 BEFORE RETURN        09396021
 001A26 07FE                        2752          BR    R14                     GO TO CHECK ICTEXT               09402021
                                    2753 *                                                                       09408021
 001A28 58E0 F0D4      01A44        2754 ENDF3    L     R14,AENDDIV             PIC UP END DIV RTN ADD           09414021
 001A2C 58F0 DCCC      0C20C        2755          L     R15,ABEGIN              RESTORE R15 BEFORE RETURN        09420021
 001A30 07FE                        2756          BR    R14                     BRANCH TO END OF DIV HANDL       09426021
                                    2757          DROP  R7                                                       09432021
                                    2758 *                                                                       09438021
 001A32 D200 F0CA 7002 01A3A 00002  2759 MOVETXT  MVC   SRLIBSV,DX2(R7)         MOVE TEXT OF ERROR MESG          09444021
                                    2760 *                                                                       09450021
                                    2761 *                                                                       09456021
 001A38 002F                        2762 SRLIB    DC    X'002F'                 ERROR MESG NO FOR COPY LIB       09462021
 001A3A                             2763 SRLIBSV  DS    10C                     SAVED ETEXT                      09468021
 001A44 00001256                    2764 AENDDIV  DC    A(ENDDIV)                                                09474021
 001A48 000011BA                    2765 ATYPRC   DC    A(BTYPRC)                                                09480021
 001A4C                             2766 SVR14    DS    F                                                        09486021
                                    2767 *                                                                       09492021
                                    2768 *                                                                       09498021
                                    2769 *                                                                       09504021
1PH20     IKFCBL20                                                                                              PAGE   73
-  LOC  OBJECT CODE    ADDR1 ADDR2  STMT   SOURCE STATEMENT                                       ASM 0201 11.03 02/14/15
0                                   2771 *=2          USAGE CLAUSE ROUTINE - BUSAGE                              09516021
                                    2772 *BUSAGE    CHECKS FOR USAGE CLAUSE COMPATIBILITY.  ALL ELEMENTARY       09522021
                                    2773 *ITEMS MUST HAVE THE SAME USAGE AS THEIR GROUP ITEM IF A USAGE WAS      09528021
                                    2774 *SPECIFIED FOR THE GROUP ITEM.                                          09534021
 001A50 9102 D777      0BCB7        2775 BUSAGE   TM    FESB,XX02                HAS LEVEL 01 APPRD              09540021
 001A54 4710 F10E      01A7E        2776          BC    ONES,BUSAGG              YES, BR                         09546021
 001A58 9532 D688      0BBC8        2777          CLI   SRCELN,XX32              NO, IS ITEM LEVEL NUMBER 77     09552021
 001A5C 4780 F10E      01A7E        2778          BC    EQ,BUSAGG                YES, BR                         09558021
 001A60 9201 D688      0BBC8        2779          MVI   SRCELN,XX01              NO, MAKE ITEM LEVEL 01          09564021
 001A64 5830 F1B4      01B24        2780          L     R3,ALDERR                ADDR OF ERR RTN                 09570021
 001A68 58F0 DCCC      0C20C        2781          L     R15,ABEGIN               ADDRESSABILITY                  09576021
 001A6C 0543                        2782          BALR  R4,R3                      BRANCH                        09582021
 001A6E 101D                        2783          DC    X'101D'                  MSG. NO. 29                     09588021
 001A70 58F0 D4BC      0B9FC        2784          L     R15,ACKETXT               ADDRESSABILITY                 09594021
 001A74 5840 F1B0      01B20        2785          L     R4,ABCOPY                 ADDR OF BCOPY                  09600021
 001A78 58F0 DCCC      0C20C        2786          L     R15,ABEGIN               ADDRESSABILITY                  09606021
 001A7C 07F4                        2787          BR    R4                       BR TO COMPARE FILE SECTION      09612021
 001A7E 1B44                        2788 BUSAGG   SR    R4,R4                    CLEAR REGS 4                    09618021
 001A80 1B88                        2789          SR    R8,R8                            AND 8                   09624021
 001A82 9500 D770      0BCB0        2790          CLI   GLN,XX00                 IS CURRENT GRP LEVEL NO. = 0    09630021
 001A86 4770 F146      01AB6        2791          BC    NOTEQ,BCURGP             NO, BRANCH                      09636021
 001A8A 4340 D676      0BBB6        2792 BCIUSA   IC    R4,ITMCLS                YES, GET USAGE CODE             09642021
 001A8E 5440 D4C8      0BA08        2793          N     R4,MK3032                          INTO REG. 4           09648021
 001A92 1948                        2794          CR    R4,R8                    IS USAGE SPECD FOR CI           09654021
 001A94 4770 F130      01AA0        2795          BC    NOTEQ,BSETGS               YES                           09660021
 001A98 9601 D676      0BBB6        2796          OI    ITMCLS,XX01              NO, SET USAGE TO DISPLAY        09666021
 001A9C 47F0 F1A2      01B12        2797          BC    UNCOND,BITEM             BR FOR ITEM ANALYSIS            09672021
 001AA0 9532 D688      0BBC8        2798 BSETGS   CLI   CILEV,XX32               IS ITEM LEVEL 77                09678021
 001AA4 4780 F1A2      01B12        2799          BE    BITEM                    NO NEED TO SAVE                 09684021
 001AA8 4240 D771      0BCB1        2800          STC   R4,GUI                   PIU USAGE IN GRP USAGE FIELD    09690021
 001AAC D200 D770 D688 0BCB0 0BBC8  2801          MVC   GLN(LX1),SRCELN          PUT CURRENT ITEM LN IN GROUP LN 09696021
 001AB2 47F0 F1A2      01B12        2802          BC    UNCOND,BITEM             BR FOR ITEM ANALYSIS            09702021
 001AB6 D500 D688 D770 0BBC8 0BCB0  2803 BCURGP   CLC   SRCELN(LX1),GLN          COMPARE CI LEV NO TO GRP LEV NO 09708021
 001ABC 4720 F15A      01ACA        2804          BC    HI,BCIUSB                CI LEVEL NO HI, BR              09714021
 001AC0 D701 D770 D770 0BCB0 0BCB0  2805          XC    GLN(LX2),GLN             NOT HIGH, SET GUI & GLN TO 0    09720021
 001AC6 47F0 F11A      01A8A        2806          BC    UNCOND,BCIUSA            BRANCH TO GET USAGE CODE        09726021
 001ACA 4340 D676      0BBB6        2807 BCIUSB   IC    R4,ITMCLS                GET USAGE CODE                  09732021
 001ACE 5440 D4C8      0BA08        2808          N     R4,MK3032                   IN REG 4                     09738021
 001AD2 1948                        2809          CR    R4,R8                    IS USAGE SPEC'D FOR CI          09744021
 001AD4 4770 F17A      01AEA        2810          BC    NOTEQ,BCOMUS             YES, BRANCH                     09750021
 001AD8 4340 D771      0BCB1        2811          IC    R4,GUI                   NO, SET CURRENT                 09756021
 001ADC 4380 D676      0BBB6        2812          IC    R8,ITMCLS                       ITEM'S USAGE             09762021
 001AE0 1A48                        2813          AR    R4,R8                          TO GROUP USAGE (GUI)      09768021
 001AE2 4240 D676      0BBB6        2814          STC   R4,ITMCLS                                                09774021
 001AE6 47F0 F1A2      01B12        2815          BC    UNCOND,BITEM             BR FOR ITEM ANALYSIS            09780021
 001AEA 4380 D771      0BCB1        2816 BCOMUS   IC    R8,GUI                    R8 = GROUP USAGE               09786021
 001AEE 1948                        2817          CR    R4,R8                    COMPARE CI USAGE TO GU          09792021
 001AF0 4780 F1A2      01B12        2818          BC    EQ,BITEM                  SAME, BR                       09798021
 001AF4 5830 F1B4      01B24        2819          L     R3,ALDERR                ADDR OF ERR RTN                 09804021
 001AF8 58F0 DCCC      0C20C        2820          L     R15,ABEGIN               ADDRESSABILITY                  09810021
 001AFC 0543                        2821          BALR  R4,R3                     BRANCH                         09816021
 001AFE 1021                        2822          DC    X'1021'                  MSG. NO. 33                     09822021
 001B00 58F0 D4BC      0B9FC        2823          L     R15,ACKETXT              ADDRESSABILITY                  09828021
 001B04 4340 D676      0BBB6        2824          IC    R4,ITMCLS                SET CURRENT                     09834021
 001B08 5440 D4D4      0BA14        2825          N     R4,MK2529                   ITEM'S USAGE                 09840021
1PH20     IKFCBL20                                                                                              PAGE   74
-  LOC  OBJECT CODE    ADDR1 ADDR2  STMT   SOURCE STATEMENT                                       ASM 0201 11.03 02/14/15
0001B0C 1A48                        2826          AR    R4,R8                              TO                    09846021
 001B0E 4240 D676      0BBB6        2827          STC   R4,ITMCLS                     GUI (GROUP USAGE)          09852021
 001B12 5840 F1AC      01B1C        2828 BITEM    L     R4,AITEM                 ADDR OF ITEMAN                  09858021
 001B16 58F0 DCCC      0C20C        2829          L     R15,ABEGIN               RESTORE R15 BEFORE RETURN       09864021
 001B1A 07F4                        2830          BR    R4                       BR FOR ITEM ANALYSIS            09870021
 001B1C 00001408                    2831 AITEM    DC    A(ITEMAN)                ADDR OF ITEMAN                  09876021
 001B20 000012F4                    2832 ABCOPY   DC    A(BCOPY)                 ADDR OF BCOPY                   09882021
 001B24 00001850                    2833 ALDERR   DC    A(LDEROR)                ADDR OF ERROR RTN               09888021
                                    2834 *                                                                 34194 09894021
                                    2835 *   THIS RTN CHECKS REPORT WRITER ITEM LENGTH AND TRUNC           34194 09900021
                                    2836 *     IF TOO LONG                                                 34194 09906021
                                    2837 *                                                                 34194 09912021
                                    2838 *                                                                 34194 09918021
 001B28                             2839 IKF201C  CSECT                                                    34194 09924021
 001B28                             2840 REPRTCK  DS    0H                                                 34194 09930021
                             01B28  2841          USING *,R15                                              34194 09936021
 001B28 50E0 D9C4      0BF04        2842          ST    R14,RS14            STORE REG 14 TO RETURN         34194 09942021
 001B2C 9108 7006      00006        2843          TM    DX6(R7),XX08             IS INT REDEF ON FOR ITEM        09948021
 001B30 47E0 F01E      01B46        2844          BNO   TEST01R        NO..GO TEST FOR RPT.LIN ITEM        34194 09954021
 001B34 1B44                        2845          SR    R4,R4          ZERO OUT R4                         34194 09960021
 001B36 4347 0001      00001        2846          IC    R4,DX1(R7)     GET LENGTH OF THIS ITEMS TEXT IN R4 34194 09966021
 001B3A 4344 7001      00001        2847          IC    R4,DX1(R4,R7)  LAST BYTE OF TEXT INTO R4           34194 09972021
 001B3E 4040 F0AA      01BD2        2848          STH   R4,RPTLNLOC    SAVE LOC OF ITEM IN REPORT LINE     34194 09978021
 001B42 47F0 F038      01B60        2849          B     REPRT2B  GO TO NORMAL PROCESSING                   34194 09984021
 001B46 9501 7002      00002        2850 TEST01R  CLI   DX2(R7),XX01   IS THIS AN 01 OR GROUP ITEM         34194 09990021
 001B4A 4770 F02A      01B52        2851          BNE   TEST02R        NO..DO NOT TURN OFF REPORT SWITCH   34194 09996021
 001B4E 9200 F09A      01BC2        2852          MVI   RPTSW,XX00     TURN SWITCH OFF                     34194 10002021
 001B52 D506 700D F09B 0000D 01BC3  2853 TEST02R  CLC   DX13(LX7,R7),RPTLIN      IS THIS GEN 01- RPT.LIN         10008021
 001B58 4770 F038      01B60        2854          BNE   REPRT2B        NO..DONT SET RPT.LIN SWITCH ON      34194 10014021
 001B5C 9601 F09A      01BC2        2855          OI    RPTSW,XX01     INDICATE RPT.LIN WAS ENCOUNTERED    34194 10020021
 001B60                             2856 REPRT2B  DS    0H                                                 34194 10026021
 001B60 58F0 DCCC      0C20C        2857          L     R15,ABEGIN        ESTABLISH BASE REG TO RETURN     34194 10032021
 001B64 58E0 D9C4      0BF04        2858          L     R14,RS14            RESTORE RETURN REG.            34194 10038021
 001B68 07FE                        2859          BR    R14                 RETURN BACK                    34194 10044021
                                    2860 *                                                                 34194 10050021
                                    2861 *                                                                 34194 10056021
 001B6A                             2862 REPRT2A  DS    0H                                                 34194 10062021
 001B6A 50E0 D9C4      0BF04        2863          ST    R14,RS14            SAVE RETURN REGISTER           34194 10068021
 001B6E 9501 F09A      01BC2        2864          CLI   RPTSW,XX01     IS ITEM GENERATED RPT-WTR 01        34194 10074021
 001B72 4770 F05C      01B84        2865          BNE   SETYET         NO..SEE IF ALREADY IN GENERATED 02'S34194 10080021
 001B76 9602 F09A      01BC2        2866          OI    RPTSW,XX02     INDICATE RPT.LIN LENGTH SAVED       34194 10086021
 001B7A D203 F0A8 D6A8 01BD0 0BBE8  2867          MVC   RPT01LTH(LX4),IPLT  SAVE RPT.LIN LENGTH            34194 10092021
 001B80 47F0 F08E      01BB6        2868          B     ENDRPTWT         GO TO RETURN RTN                  34194 10098021
 001B84 9503 F09A      01BC2        2869 SETYET   CLI   RPTSW,XX03     IS THIS RPTWTR & ITEM UNDER RPT.LIN 34194 10104021
 001B88 4770 F08E      01BB6        2870          BNE   ENDRPTWT         GO TO RETURN RTN                  34194 10110021
                                    2871 *                             NO MORE REPORT WRITER TESTING       34194 10116021
                                    2872 * THE FOLLOWING STRING IS EXECUTED FOR 02 RPT-WTR GENERATED ITEMS 34194 10122021
 001B8C 4830 F0A8      01BD0        2873          LH    R3,RPT01LTH    GET RPT.LIN LENGTH FOR CALCULATION  34194 10128021
 001B90 4B30 F0AA      01BD2        2874          SH    R3,RPTLNLOC    SUB LOC IN RPT LINE FROM            34194 10134021
                                    2875 *                                      MAX ITEM LENGTH            34194 10140021
 001B94 4B30 D6A8      0BBE8        2876          SH    R3,IPLT        SUB LENGTH THIS ITEM                34194 10146021
                                    2877 *                                              FROM MAX ALLOWED   34194 10152021
 001B98 1233                        2878          LTR   R3,R3          IS THERE ROOM IN RPT LINE           34194 10158021
                                    2879 *                                            FOR THIS ITEM        34194 10164021
 001B9A 47B0 F08E      01BB6        2880          BNM   ENDRPTWT            GO TO RETURN RTN               34194 10170021
1PH20     IKFCBL20                                                                                              PAGE   75
-  LOC  OBJECT CODE    ADDR1 ADDR2  STMT   SOURCE STATEMENT                                       ASM 0201 11.03 02/14/15
0001B9E 1333                        2881          LCR   R3,R3          NO..DETERMINE HOW MANY BYTES        34194 10176021
                                    2882 *                                 TO LARGE                        34194 10182021
 001BA0 4850 D6A8      0BBE8        2883          LH    R5,IPLT        GET LENGTH OF PRESENT ITEM          34194 10188021
 001BA4 1B53                        2884          SR    R5,R3          TRUNCATE THE LENGTH OF PRESENT ITEM 34194 10194021
 001BA6 4050 D6A8      0BBE8        2885          STH   R5,IPLT        PUT NEW ALLOWED LENGTH BACK         34194 10200021
                                    2886 *                                            INTO IPLT            34194 10206021
                                    2887 *                                                                 34194 10212021
 001BAA 58E0 F0A4      01BCC        2888          L     R14,ALDEROR         LOAD ADD. OF  LDEROR RTN       34194 10218021
 001BAE 58F0 DCCC      0C20C        2889          L     R15,ABEGIN       ESTABLISH BASE REGISTER           34194 10224021
 001BB2 054E                        2890          BALR  R4,R14              BRANCH FOR ERROR MESSAGE       34194 10230021
 001BB4 10DF                        2891 MSG54    DC    X'10DF'        C LEVEL MSG INDICATION TRUNCATION   34194 10236021
                                    2892 *                                                                 34194 10242021
 001BB6                             2893 ENDRPTWT DS    0H                                                 34194 10248021
 001BB6 1B44                        2894          SR    R4,R4          RESET R4 TO ZEROES                  34194 10254021
 001BB8 58F0 DCCC      0C20C        2895          L     R15,ABEGIN          RESTORE RETURN REG.            34194 10260021
 001BBC 58E0 D9C4      0BF04        2896          L     R14,RS14         RESTORE RETURN REG.               34194 10266021
 001BC0 07FE                        2897          BR    R14              RETURN TO PROCESS LD TEXT         34194 10272021
                                    2898 *                                                                 34194 10278021
                                    2899          DROP  R15                                                34194 10284021
 001BC2 00                          2900 RPTSW    DC    X'00'          RPT.LIN INDICATOR                   34194 10290021
 001BC3 D9D7E34BD3C9D5              2901 RPTLIN   DC    CL7'RPT.LIN'   COMPARAND FOR RPT-WTR GENED NAME    34194 10296021
 001BCA 0000
 001BCC 00001850                    2902 ALDEROR  DC    A(LDEROR)                 ADD. CONSTANT OF LDEROR  34194 10302021
 001BD0                             2903 RPT01LTH DS    H              RPT.LIN LENGTH SAVED HERE           34194 10308021
 001BD2                             2904 RPTLNLOC DS    H              HOLDS LOC IN RPT LINE FOR INT REDEF 34194 10314021
                                    2905 *                                                                 34194 10320021
1PH20     IKFCBL20                                                                                              PAGE   76
-  LOC  OBJECT CODE    ADDR1 ADDR2  STMT   SOURCE STATEMENT                                       ASM 0201 11.03 02/14/15
0                                   2907 *BMBSRN DETERMINES THE SUBSCRIPTING REQUIREMENTS FOR AN ITEM. THE       10332021
                                    2908 *    NUMBER OF SUBSCRIPTS REQUIRED IS STORED IN THE MBS FIELD OF TH     10338021
                                    2909 *    ATTRIBUTES. THE DICTIONARY POINTER OF THE PRECEDING ITEM (OF T     10344021
                                    2910 *    NEXT HIGHEST SUBSCRIPTING LEVEL) IS PLACED IN THE ATTRIBUTE FI     10350021
                                    2911 *    OF THE CURRENT ITEM. ONLY 3 LEVELS OF SUBSCRIPTING ARE ALLOWED     10356021
                                    2912 *    AND LEVELS 01 WITH OCCURS CLAUSES HAVE THEIR OCCURS CLAUSES        10362021
                                    2913 *    DELETED. THE FOLLOWING ITEMS WOULD BE ACTED UPON AS FOLLOWS        10368021
                                    2914 *                            *MBS *DICTIONARY PTR TO ITEM *REMARKS      10374021
                                    2915 *    01 A                    *  0 *      NO POINTER FIELD *             10380021
                                    2916 *     02 B OCCURS 7          *  1 *      NO POINTER FIELD *             10386021
                                    2917 *      03 C OCCURS 6         *  2 *      POINTER TO ITEM B*             10392021
                                    2918 *      03 D                  *  1 *      POINTER TO ITEM B*             10398021
                                    2919 *       04 E OCCURS 7        *  2 *      POINTER TO ITEM B*             10404021
                                    2920 *       04 F                 *  1 *      POINTER TO ITEM B*             10410021
                                    2921 *        05 G OCCURS 8       *  2 *      POINTER TO ITEM B*             10416021
                                    2922 *     02 H OCCURS 9          *  1 *      POINTER IS ZERO  *             10422021
                                    2923 *     02 I                   *  0 *      NO POINTER FIELD *             10428021
                                    2924 *     02 J OCCURS 10         *  1 *      NO POINTER FIELD *             10434021
                                    2925 *      03 K OCCURS 6         *  2 *      POINTER TO ITEM J*             10440021
                                    2926 *       04 L OCCURS 7        *  3 *      POINTER TO ITEM K*             10446021
                                    2927 *       04 M OCCURS 8        *  3 *      POINTER TO ITEM K*             10452021
                                    2928 *        05 N OCCURS 9       *  3 *      POINTER TO ITEM M*THE OCCU     10458021
                                    2929 *        05 O                *  3 *      POINTER TO ITEM M* CLAUSE      10464021
                                    2930 *                                                            IS DEL     10470021
                                    2931 *                                                           (OVER 3     10476021
                                    2932 *                                                            LEVELS     10482021
                                    2933 *                                                                       10488021
                                    2934 *BMBSRN IS CALLED BY GETNXT PRIOR TO PROCESSING OF OCCURS...DEPENDI     10494021
                                    2935 *ON NAMES. THE CALLING SEQUENCE IS                                      10500021
                                    2936 *                                                                       10506021
                                    2937 *        ST    R15,RSAVE+60                                             10512021
                                    2938 *        L     R15,AMBSRN     WHERE AMBSRN IS ADCON FOR BMBSRN          10518021
                                    2939 *        BALR  R14,R15                                                  10524021
                                    2940 *        L     R15,RSAVE+60                                             10530021
                                    2941 *                                                                       10536021
 001BD8                             2942 IKF202 CSECT                                                            10542021
                             01BD8  2943        USING *,R15                                                      10548021
 001BD8 900E D98C      0BECC        2944 BMBSRN   STM   R0,R14,RSAVE                                             10554021
 001BDC 1B44                        2945          SR    R4,R4                                                    10560021
 001BDE 4340 D776      0BCB6        2946          IC    R4,OCT          AFTER SR 4,4                             10566021
 001BE2 4130 D772      0BCB2        2947          LA    R3,OLN          REG 3 CONTAINS ADDRESS OF OCCURS LEV     10572021
 001BE6 4133 4000      00000        2948          LA    R3,DX0(R3,R4)    AFTER LA 3,OLN                          10578021
 001BEA D500 D688 3000 0BBC8 00000  2949 BCOMLV   CLC   SRCELN(LX1),DX0(R3) COMPARE CURRENT LEVEL      NUM TABL  10584021
 001BF0 4720 F044      01C1C        2950          BC    HI,BCIGRO        NUMBER(CILN) TO OLN               (     10590021
 001BF4 4740 F096      01C6E        2951          BC    LO,BCILOW       CILN LESS THAN OLN                       10596021
 001BF8 9102 D60D      0BB4D        2952          TM    MINCOD,XX02      CILN = OLN ,DOES CI HAVE OCCURS CLAU    10602021
 001BFC 4710 F04C      01C24        2953          BC    ONES,BSTMBS     YES                                      10608021
 001C00 5940 D3F4      0B934        2954          C     R4,ZEROS        NO, IS OLN COUNTER ZERO                  10614021
 001C04 4780 F04C      01C24        2955          BC    EQ,BSTMBS       YES                                      10620021
 001C08 0640                        2956        BCTR  R4,R0            NO, R4=R4-1                               10626021
 001C0A 8B40 0002      00002        2957          SLA   R4,DX2           SET UP R4 FOR EXECUTION OF SETMBS WH    10632021
 001C0E 4440 F05C      01C34        2958          EX    R4,SETMBS        STORES MBS IN CI FIELD                  10638021
 001C12 8A40 0002      00002        2959          SRA   R4,DX2           RESTORE REG 4  BY RIGHT SHIFT           10644021
 001C16 0630                        2960        BCTR  R3,R0            DECREMENT OLN POINTER BY ONE              10650021
 001C18 47F0 F0BE      01C96        2961          BC    UNCOND,BTESTI       BRH TO TEST IF OLN CTR=0             10656021
1PH20     IKFCBL20                                                                                              PAGE   77
-  LOC  OBJECT CODE    ADDR1 ADDR2  STMT   SOURCE STATEMENT                                       ASM 0201 11.03 02/14/15
0001C1C 9102 D60D      0BB4D        2962 BCIGRO   TM    MINCOD,XX02      DOES CI HAVE OCCURS CLAUSE              10662021
 001C20 4710 F060      01C38        2963          BC    ONES,BCIGOO     YES                                      10668021
 001C24 8B40 0002      00002        2964 BSTMBS   SLA   R4,DX2           NO                                      10674021
 001C28 4440 F05C      01C34        2965          EX    R4,SETMBS                                                10680021
 001C2C 8A40 0002      00002        2966          SRA   R4,DX2                                                   10686021
 001C30 47F0 F0BE      01C96        2967          BC    UNCOND,BTESTI       BRH TO TEST IF OLN CTR=0             10692021
                                    2968 * SET MBS BITS                                                          10698021
                                    2969 *                                                                       10704021
 001C34 9600 D60D      0BB4D        2970 SETMBS   OI    MINCOD,XX00                                              10710021
 001C38 9501 D688      0BBC8        2971 BCIGOO   CLI   SRCELN,XX01                                              10716021
 001C3C 4780 F112      01CEA        2972          BC    EQ,BEROR2       ERROR 01 LEVEL CANNOT HAVE OCCURS CL     10722021
 001C40 9532 D688      0BBC8        2973          CLI   SRCELN,XX32          LEVEL 77                            10728021
 001C44 4780 F112      01CEA        2974          BE    BEROR2              BRH TO LNK TO BERORP                 10734021
 001C48 5940 D400      0B940        2975          C     R4,THREE        NO  IS OLN INDEX EQUAL TO 3              10740021
 001C4C 47B0 F0F6      01CCE        2976          BC    NOTLO,BEROR1    ERROR--OVER 3 LEVELS OF SUBSCRIPTS       10746021
 001C50 4140 4001      00001        2977          LA    R4,DX1(R0,R4)   ADD ONE TO OLN INDEX                     10752021
 001C54 8B40 0002      00002        2978          SLA   R4,DX2                                                   10758021
 001C58 4440 F05C      01C34        2979          EX    R4,SETMBS       SET MBS IN CI FIELD                      10764021
 001C5C 8A40 0002      00002        2980          SRA   R4,DX2                                                   10770021
 001C60 D200 3001 D688 00001 0BBC8  2981 BMOVLN   MVC   DX1(LX1,R3),SRCELN MOVE CILN TO OLN TABLE                10776021
 001C66 4133 0001      00001        2982          LA    R3,DX1(R3,R0)  ADD 1 TO OLN INDEX                        10782021
 001C6A 47F0 F0BE      01C96        2983          BC    UNCOND,BTESTI       BRH TO TEST IF OLN CTR=0             10788021
 001C6E 5940 D3F4      0B934        2984 BCILOW   C     R4,ZEROS        IS OLN COUNTER ZERO                      10794021
 001C72 4780 F0A6      01C7E        2985          BC    EQ,BIISZO       YES                                      10800021
 001C76 0640                        2986        BCTR  R4,R0            NO, DECREMENT OLN COUNTER BY 1            10806021
 001C78 0630                        2987        BCTR  R3,R0                 REDUCE VALUE IN REG 3 BY 1           10812021
 001C7A 47F0 F012      01BEA        2988          BC    UNCOND,BCOMLV       BRH TO COMP CURRT LEVEL # TABL       10818021
 001C7E 9102 D60D      0BB4D        2989 BIISZO   TM    MINCOD,XX02      IS OCCURS CLAUSE PRESENT                10824021
 001C82 47E0 F04C      01C24        2990          BC    NOTONE,BSTMBS   NO                                       10830021
 001C86 9501 D688      0BBC8        2991          CLI   SRCELN,XX01      YES , IS CILN 01                        10836021
 001C8A 4780 F112      01CEA        2992          BC    EQ,BEROR2       YES , ERROR-01 LEVEL CANNOT HAVE OCC     10842021
 001C8E 9604 D60D      0BB4D        2993          OI    MINCOD,XX04      SET  MBS FIELD TO 1               CL    10848021
 001C92 47F0 F088      01C60        2994          BC    UNCOND,BMOVLN       BRH TO MOVE CILN TO OLN TABLE        10854021
 001C96 4240 D776      0BCB6        2995 BTESTI   STC   R4,OCT                                                   10860021
 001C9A 5940 D3F4      0B934        2996          C     R4,ZEROS            IS OLN COUNTER ZERO                  10866021
 001C9E 4780 F0F0      01CC8        2997          BC    EQ,BLVMBS       YES                                      10872021
 001CA2 9102 D60D      0BB4D        2998          TM    MINCOD,XX02     IF ITEM HAS AN OCCURS                    10878021
 001CA6 47E0 F0DA      01CB2        2999          BC    NOTONE,BTESTJ        CLAUSE AND MBS=1, NO DICT. PTR.     10884021
 001CAA 4640 F0DA      01CB2        3000          BCT   R4,BTESTJ            ATTRIBUTES                          10890021
 001CAE 47F0 F0F0      01CC8        3001          BC    UNCOND,BLVMBS       BRH TO LOAD REG0-14 WITH RSAVE       10896021
 001CB2 1854                        3002 BTESTJ   LR    R5,R4               LOAD OLN COUNT FOR MULTIPLY          10902021
 001CB4 5C40 D400      0B940        3003          M     R4,THREE       MULT INDEX TO TABLE BY 3 SINCE ENTRIE     10908021
 001CB8 4140 D520      0BA60        3004          LA    R4,BDPTAB      LOAD ADDRESS OF OCCUR DICT PTR TABLE      10914021
 001CBC 1A54                        3005          AR    R5,R4           ARE IN 3 BYTES AND ADD TO TABLE ADDR     10920021
 001CBE D202 D615 5000 0BB55 00000  3006          MVC   VILGN+NX2(LX3),DX0(R5) MOVE POINTER TO ATTRIBUTES FIELD  10926021
 001CC4 9230 D60C      0BB4C        3007          MVI   COUNT,XX30           INIT ATTRIBUTE COUNT TO 3           10932021
 001CC8 980E D98C      0BECC        3008 BLVMBS   LM    R0,R14,RSAVE                                             10938021
 001CCC 07FE                        3009        BCR   UNCOND,R14            BRH TO ADDR JUST LOADED IN R14       10944021
                                    3010 * ERROR CHECKS TO SEE IF ID NAMES OR KEYS NEED TO BE BYPASSED           10950021
                                    3011 *                                                                       10956021
 001CCE 4560 F12A      01D02        3012 BEROR1   BAL   R6,BERORP           LINK TO PUT ERROR # IN REG 0         10962021
 001CD2 202A                        3013          DC    X'202A'             42                                   10968021
 001CD4 94FD D60D      0BB4D        3014          NI    MINCOD,XXFD      ZERO OUT OCCURS CLAUSE BIT              10974021
 001CD8 D701 D67C D67C 0BBBC 0BBBC  3015          XC    NOC(LX2),NOC     ZERO OUT NUMBER OF OCCURRENCES FIELD    10980021
 001CDE 4140 0003      00003        3016          LA    R4,DX3               RESET FIELD                         10986021
1PH20     IKFCBL20                                                                                              PAGE   78
-  LOC  OBJECT CODE    ADDR1 ADDR2  STMT   SOURCE STATEMENT                                       ASM 0201 11.03 02/14/15
0001CE2 5070 D9A8      0BEE8        3017          ST    R7,RS7              RESET BUFFER PTR                     10992021
 001CE6 47F0 F04C      01C24        3018          BC    UNCOND,BSTMBS       GO TO'CI WITH NO OCCURS' RTN         10998021
 001CEA 4560 F12A      01D02        3019 BEROR2   BAL   R6,BERORP           LNK TO PUT ERROR # IN REG 0          11004021
 001CEE 202B                        3020          DC    X'202B'             43                                   11010021
 001CF0 94F1 D60D      0BB4D        3021          NI    MINCOD,XXF1      DROP OCCURS CLAUSE AND ZERO OUT MBS     11016021
 001CF4 D701 D67C D67C 0BBBC 0BBBC  3022          XC    NOC(LX2),NOC    DROP NUMBER OF OCCURRENCES FIELD(ZERO    11022021
 001CFA 5070 D9A8      0BEE8        3023          ST    R7,RS7              RESET BUFFER PTR                     11028021
 001CFE 47F0 F0F0      01CC8        3024          BC    UNCOND,BLVMBS       BRH TO LOAD REG0-14 WITH RSAVE       11034021
 001D02 4806 0000      00000        3025 BERORP   LH    R0,DX0(R6)           PUT ERROR NUMBER IN REG 0           11040021
 001D06 50F0 DA18      0BF58        3026          ST    R15,TSAVER                                               11046021
 001D0A 58F0 DBC0      0C100        3027          L     R15,AERRTN          CALL ERROR RTN                       11052021
 001D0E 05EF                        3028          BALR  R14,R15               TO PUT OUT E-TEXT ON FILE 4        11058021
 001D10 58F0 DA18      0BF58        3029          L     R15,TSAVER                                               11064021
 001D14 4166 0002      00002        3030          LA    R6,DX2(R6)                                               11070021
 001D18 9500 DFD4      0C514        3031          CLI   NOIDNM,XX00                                              11076021
 001D1C 4780 F1A0      01D78        3032          BE    BCKKEY               NO                                  11082021
 001D20 4800 DFB4      0C4F4        3033          LH    R0,MSG12             ERROR                               11088021
 001D24 58F0 DBC0      0C100        3034          L     R15,AERRTN                                               11094021
 001D28 05EF                        3035          BALR  R14,R15             LNK TO ADDR IN REG 15                11100021
 001D2A 58F0 DA18      0BF58        3036          L     R15,TSAVER                                               11106021
 001D2E 9180 D677      0BBB7        3037          TM    ITMCLS+NX1,XX80      OCCURS PTR PRESENT                  11112021
 001D32 4780 F162      01D3A        3038          BZ    BNOODO              NO                                   11118021
 001D36 4177 0001      00001        3039          LA    R7,DX1(R7)           YES                                 11124021
 001D3A 4177 0001      00001        3040 BNOODO   LA    R7,DX1(R7)           BUMP PTR                            11130021
 001D3E 1B44                        3041          SR    R4,R4                                                    11136021
 001D40 4340 DFD4      0C514        3042          IC    R4,NOIDNM            COUNT OF IDNAMES                    11142021
 001D44 58F0 DC98      0C1D8        3043 BIDS     L     R15,ABYPAS                                               11148021
 001D48 05EF                        3044          BALR  R14,R15             LNK TO ADDR IN REG 15                11154021
 001D4A 58F0 DA18      0BF58        3045          L     R15,TSAVER                                               11160021
 001D4E 4640 F16C      01D44        3046          BCT   R4,BIDS             SUBT 1 FRM R4,NOT=0, GOTO BIDS       11166021
 001D52 9200 DFD4      0C514        3047          MVI   NOIDNM,XX00          SET COUNT TO ZERO                   11172021
 001D56 9500 DFD5      0C515        3048 BCKEY    CLI   NOKEYS,XX00           ANY KEYS                           11178021
 001D5A 4780 F1CE      01DA6        3049          BE    BEREND              =,BRH TO TEST FOR OCCURS CLSE        11184021
 001D5E 4340 DFD5      0C515        3050          IC    R4,NOKEYS            COUNT OF KEYS                       11190021
 001D62 58F0 DC98      0C1D8        3051 BKEY     L     R15,ABYPAS                                               11196021
 001D66 05EF                        3052          BALR  R14,R15             LINK TO BYPAS                        11202021
 001D68 58F0 DA18      0BF58        3053          L     R15,TSAVER                                               11208021
 001D6C 4640 F18A      01D62        3054          BCT   R4,BKEY             SUBT 1 FROM R4,NOT 0,GOTO BKEY       11214021
 001D70 9200 DFD5      0C515        3055          MVI   NOKEYS,XX00          SET COUNT TO ZERO                   11220021
 001D74 47F0 F1CE      01DA6        3056          B     BEREND              GO CHECK END                         11226021
 001D78 9500 DFD5      0C515        3057 BCKKEY   CLI   NOKEYS,XX00          ANY KEYS SPECIFIED                  11232021
 001D7C 0786                        3058          BCR   EQ,R6               NO                                   11238021
 001D7E 4800 DFB4      0C4F4        3059          LH    R0,MSG12                                                 11244021
 001D82 58F0 DBC0      0C100        3060          L     R15,AERRTN                                               11250021
 001D86 05EF                        3061          BALR  R14,R15             LNK TO ADDR IN REG 15                11256021
 001D88 58F0 DA18      0BF58        3062          L     R15,TSAVER                                               11262021
 001D8C 9180 D677      0BBB7        3063          TM    ITMCLS+NX1,XX80      OCCURS PTR PRESENT                  11268021
 001D90 4780 F1C0      01D98        3064          BZ    BERROR              NO                                   11274021
 001D94 4177 0001      00001        3065          LA    R7,DX1(R7)           YES                                 11280021
 001D98 4177 0001      00001        3066 BERROR   LA    R7,DX1(R7)           BUMP PTR                            11286021
 001D9C 1B44                        3067          SR    R4,R4                                                    11292021
 001D9E 4340 DFD5      0C515        3068          IC    R4,NOKEYS                                                11298021
 001DA2 47F0 F18A      01D62        3069          B     BKEY                 BYPASS KEYS                         11304021
 001DA6 0670                        3070 BEREND   BCTR  R7,R0               DECREMENT BY ONE                     11310021
 001DA8 9180 D677      0BBB7        3071          TM    ITMCLS+NX1,XX80      OCCURS PTR PRESENT                  11316021
1PH20     IKFCBL20                                                                                              PAGE   79
-  LOC  OBJECT CODE    ADDR1 ADDR2  STMT   SOURCE STATEMENT                                       ASM 0201 11.03 02/14/15
0001DAC 0786                        3072          BCR   ZERO,R6             NO, RETURN                           11322021
 001DAE 0676                        3073          BCTR  R7,R6               DECREMENT 1 MORE AND RETURN          11328021
                             01DB0  3074          USING *,R15                                                    11334021
                             01DB0  3075 BYPAS    EQU   *                                                        11340021
 001DB0 95FF 7000      00000        3076          CLI   DX0(R7),XXFF                                             11346021
 001DB4 4770 F016      01DC6        3077          BNE   BYPAS1              NOT =, BRH TO BYPAS1                 11352021
 001DB8 5810 DB84      0C0C4        3078          L     R1,COSADR                                                11358021
 001DBC 0501                        3079          BALR  R0,R1               BRH TO ADDR IN COSADR                11364021
 001DBE 03                          3080          DC    X'03'                                                    11370021
 001DBF 00
 001DC0 4780 F022      01DD2        3081          BE    ATTEND              BRH ON = TO SET ON COPYSW            11376021
 001DC4 1870                        3082          LR    R7,R0                                                    11382021
 001DC6 1B22                        3083 BYPAS1   SR    R2,R2                                                    11388021
 001DC8 4327 0001      00001        3084          IC    R2,DX1(R7)           COUNT OF NAME                       11394021
 001DCC 4177 2002      00002        3085          LA    R7,DX2(R7,R2)        INCREMENT BUFFER PTR                11400021
 001DD0 07FE                        3086          BR    R14                 BRH BACK TO CALLING RTN              11406021
 001DD2 9610 D5AA      0BAEA        3087 ATTEND   OI    COPYSW,XX10                                              11412021
 001DD6 9200 D5B7      0BAF7        3088          MVI   NXTLEV,XX00                                              11418021
 001DDA 07FE                        3089          BR    R14                 BRH BACK TO CALLING RTN              11424021
1PH20     IKFCBL20                                                                                              PAGE   80
-  LOC  OBJECT CODE    ADDR1 ADDR2  STMT   SOURCE STATEMENT                                       ASM 0201 11.03 02/14/15
0                            01DDC  3091 SRCHTB   EQU   *                                                        11436021
                                    3092 *                                                                       11442021
                                    3093 *                                                                       11448021
                             01DDC  3094          USING *,R15                                                    11454021
 001DDC 50E0 DF7C      0C4BC        3095          ST    R14,SRCHSV                                               11460021
 001DE0 9005 DF84      0C4C4        3096          STM   R0,R5,SRHSAV                                             11466021
 001DE4 5080 DF9C      0C4DC        3097          ST    R8,SRHSVD                SAVE REG 8                44266 11472021
 001DE8 50F0 DF78      0C4B8        3098          ST    R15,IDSAV                                                11478021
 001DEC 9631 DFB8      0C4F8        3099          OI    TBLSW,SWON               TURN  ON SEARCH SWITCH          11484021
 001DF0 9140 D5A5      0BAE5        3100          TM    PTBLSW+NX2,XX40      TABLES PRIMED YET                   11490021
 001DF4 4710 F038      01E14        3101          BO    SRCH05              BRH TO SRCH05 ON OVERFLOW            11496021
 001DF8 4110 DB34      0C074        3102          LA    R1,ATBLSH           NO                                   11502021
 001DFC 58F0 DCE4      0C224        3103          L     R15,BPRIME                                               11508021
 001E00 05EF                        3104          BALR  R14,R15             LNK TO ADDR IN REG 15                11514021
 001E02 4110 DB3C      0C07C        3105          LA    R1,AKEYTB                                                11520021
 001E06 58F0 DCE4      0C224        3106          L     R15,BPRIME                                               11526021
 001E0A 05EF                        3107          BALR  R14,R15             LNK TO ADDR IN REG 15                11532021
 001E0C 58F0 DF78      0C4B8        3108          L     R15,IDSAV                                                11538021
 001E10 9640 D5A5      0BAE5        3109          OI    PTBLSW+NX2,XX40      TABLES PRIMED YET                   11544021
 001E14 5890 DAD4      0C014        3110 SRCH05   L     R9,GPARAM                                                11550021
 001E18 58A9 0000      00000        3111          L     R10,DX0(R9)                                              11556021
 001E1C 589A 0000      00000        3112          L     R9,DX0(R10)                                              11562021
 001E20 4199 0000      00000        3113          LA    R9,DX0(R9)           CLEAR TOP BYTE                      11568021
 001E24 4A9A 0004      00004        3114          AH    R9,DX4(R10)                                              11574021
 001E28 5B90 D444      0B984        3115 SRCH06   S     R9,CON24           POINT TO LAST ENTRY                   11580021
 001E2C 9500 9014      00014        3116          CLI   DX20(R9),XX00        ANY ENTRIES                         11586021
 001E30 4780 F0A8      01E84        3117          BE    SRCH07              NO, DON'T NED CHECK                  11592021
 001E34 D500 D688 9014 0BBC8 00014  3118          CLC   CILEV(LX1),DX20(R9)   UNDER GROUP                        11598021
 001E3A 47D0 F0A8      01E84        3119          BNH   SRCH07              NO                                   11604021
 001E3E D501 9006 D3F4 00006 0B934  3120          CLC   DX6(LX2,R9),ZEROS     OCCURS CLAUSE                      11610021
 001E44 4780 F04C      01E28        3121          BE    SRCH06              NO                                   11616021
 001E48 9500 9018      00018        3122          CLI   DX24(R9),XX00        INDEXED BY CLAUSE                   11622021
 001E4C 4770 F04C      01E28        3123          BNE   SRCH06              YES, OK                              11628021
 001E50 D700 DFB8 DFB8 0C4F8 0C4F8  3124          XC    TBLSW,TBLSW         TURN OFF SW                          11634021
 001E56 4177 0002      00002        3125          LA    R7,DX2(R7)           BUMP BUFFER PTR                     11640021
 001E5A 4560 F362      0213E        3126          BAL   R6,IDERR            LNK TO WRITE ERROR MSG               11646021
 001E5E 20C6                        3127          DC    X'20C6'             MSG 198                              11652021
 001E60 1B44                        3128          SR    R4,R4                                                    11658021
 001E62 4340 DFD4      0C514        3129          IC    R4,NOIDNM           GET COUNT OF IDS                     11664021
 001E66 4560 F37A      02156        3130          BAL   R6,BYPASS           BYPASS IDS                           11670021
 001E6A 9200 DFD4      0C514        3131          MVI   NOIDNM,XX00          RESET COUNT                         11676021
 001E6E 4340 DFD5      0C515        3132          IC    R4,NOKEYS           GET COUNT OF KEYS                    11682021
 001E72 1244                        3133          LTR   R4,R4               ANY KEYS SPECIFIED                   11688021
 001E74 47D0 F248      02024        3134          BC    NOTPOS,SRCH3A       NO, RETURN                           11694021
 001E78 4560 F37A      02156        3135          BAL   R6,BYPASS           BYPASS KEYS                          11700021
 001E7C 9200 DFD5      0C515        3136          MVI   NOKEYS,XX00          SET COUNT TO ZERO                   11706021
 001E80 47F0 F248      02024        3137          B     SRCH3A              RETURN                               11712021
 001E84 5840 DB34      0C074        3138 SRCH07   L     R4,ATBLSH           A(TIB)                               11718021
 001E88 5844 0000      00000        3139          L     R4,DX0(R4)                A(TAMM)                        11724021
 001E8C 4864 0004      00004        3140          LH    R6,DX4(R4)            DISPL IN TABLE                     11730021
 001E90 4060 DFA0      0C4E0        3141          STH   R6,IDDISP                                                11736021
 001E94 4180 0009      00009        3142          LA    R8,DX9                   INITIALIZE COUNT          44266 11742021
 001E98 1B44                        3143          SR    R4,R4                                                    11748021
 001E9A 4340 DFD4      0C514        3144          IC    R4,NOIDNM                COUNT OF INDEX NAMES            11754021
 001E9E 5940 D424      0B964        3145          C     R4,TWELVE                MORE THAN 12 SPECIFIED          11760021
1PH20     IKFCBL20                                                                                              PAGE   81
-  LOC  OBJECT CODE    ADDR1 ADDR2  STMT   SOURCE STATEMENT                                       ASM 0201 11.03 02/14/15
0001EA2 47D0 F0D0      01EAC        3146          BNH   SRCH10              BRH ON NOT HIGH TO SRCH10            11766021
 001EA6 4560 F362      0213E        3147          BAL   R6,IDERR            LINK TO WRITE ERROR MSG              11772021
 001EAA 202F                        3148          DC    X'202F'              MSG 47                              11778021
 001EAC 5800 D418      0B958        3149 SRCH10   L     R0,NINE                  LENGTH OF ENTRY                 11784021
 001EB0 5810 DB34      0C074        3150          L     R1,ATBLSH                                                11790021
 001EB4 58F0 DCE8      0C228        3151          L     R15,BINSRT                                               11796021
 001EB8 05EF                        3152          BALR  R14,R15             INSERT ENTRY                         11802021
 001EBA 58F0 DF78      0C4B8        3153          L     R15,IDSAV                                                11808021
 001EBE 4242 0008      00008        3154          STC   R4,DX8(R2)                STORE ID NAME COUNT            11814021
 001EC2 4177 0002      00002        3155          LA    R7,DX2(R7)                GET NEXT ELEMENT               11820021
 001EC6 4530 F2C6      020A2        3156          BAL   R3,GTNEXT           LNK TO CHK TO END OF LOG. RECS       11826021
 001ECA D700 DFC5 DFC5 0C505 0C505  3157          XC    IDFLAG(LX1),IDFLAG    ZERO FLAG BYTE                     11832021
 001ED0 D700 2004 2004 00004 00004  3158          XC    DX4(LX1,R2),DX4(R2)    ZERO TABLE FLAG BYTE              11838021
 001ED6 1B66                        3159 GETID    SR    R6,R6                                                    11844021
 001ED8 4367 0001      00001        3160          IC    R6,DX1(R7)                GET COUNT OF BCDNAME           11850021
 001EDC D71F D868 D868 0BDA8 0BDA8  3161          XC    OVERFL(LX32),OVERFL  CLEAR AREA                          11856021
 001EE2 4460 F3A4      02180        3162          EX    R6,MVIDNM                MOVE BCD NAME                   11862021
 001EE6 5810 DC90      0C1D0        3163          L     R1,AIDPRM                ENTER ID NAME IN DICT           11868021
 001EEA 58F0 DBFC      0C13C        3164          L     R15,AENTNM                                               11874021
 001EEE 05EF                        3165          BALR  R14,R15             LNK TO ADDR IN REG 15                11880021
 001EF0 58F0 DF78      0C4B8        3166          L     R15,IDSAV                                                11886021
 001EF4 5010 D684      0BBC4        3167          ST    R1,DICTPT                                                11892021
 001EF8 5010 DF44      0C484        3168          ST    R1,REALPTR                                               11898021
 001EFC 5830 DB84      0C0C4        3169          L     R3,COSADR                                                11904021
 001F00 5810 DB34      0C074        3170 SRCH11   L     R1,ATBLSH                                                11910021
 001F04 5800 D400      0B940        3171          L     R0,THREE                 COUNT OF ENTRY                  11916021
 001F08 58F0 DCE8      0C228        3172          L     R15,BINSRT                                               11922021
 001F0C 05EF                        3173          BALR  R14,R15             LNK TO ADDR IN REG 15                11928021
 001F0E 58F0 DF78      0C4B8        3174          L     R15,IDSAV                                                11934021
 001F12 D202 2000 D685 00000 0BBC5  3175          MVC   DX0(LX3,R2),DICTPT+NX1                                   11940021
 001F18 9180 B1A4      001A4        3176          TM    PHZSW1,XREF               IS XREF SPEC'D                 11946021
 001F1C 4780 F15A      01F36        3177          BZ    SRCH12                    NO, BR                   8953  11952021
 001F20 4110 D868      0BDA8        3178          LA    R1,OVERFL                YES - GET ADDR OF INDEX NM8953  11958021
 001F24 9027 F38C      02168        3179          STM   R2,R7,IDXREFSV            SAVE REGS                8953  11964021
 001F28 58F0 DCA4      0C1E4        3180          L     R15,AXREF                XREF RTN ADDR             8953  11970021
 001F2C 05EF                        3181          BALR  R14,R15                  GO GENERATE XREF ELEMENT  8953  11976021
 001F2E 58F0 DF78      0C4B8        3182          L     R15,IDSAV                 RESTORE ADDRESSABILITY   8953  11982021
 001F32 9827 F38C      02168        3183          LM    R2,R7,IDXREFSV            RESTORE REGS             8953  11988021
                             01F36  3184 SRCH12   EQU   *                                                  8953  11994021
 001F36 4188 0003      00003        3185          LA    R8,DX3(R8)               INCR TABLE CNT            44266 12000021
 001F3A 4530 F2C2      0209E        3186          BAL   R3,CHKNXT                CHECK NEXT ELEMENT              12006021
 001F3E 4640 F0FA      01ED6        3187          BCT   R4,GETID                 ANY MORE ID NAMES               12012021
 001F42 4340 DFD4      0C514        3188          IC    R4,NOIDNM           GET COUNT OF ID NAMES                12018021
 001F46 5940 D424      0B964        3189          C     R4,TWELVE                                                12024021
 001F4A 47D0 F17E      01F5A        3190          BNH   GTKEYS              NOT HI,TEST IF KEYS SPECIFIED        12030021
 001F4E 5B40 D424      0B964        3191          S     R4,TWELVE                                                12036021
 001F52 920C DFD4      0C514        3192          MVI   NOIDNM,XX0C          SET TO 12                           12042021
 001F56 4560 F37A      02156        3193          BAL   R6,BYPASS           BYPASS REST                          12048021
                                    3194 *                                                                       12054021
                                    3195 * SEE IF KEYS WERE ALSO SPECIFIED                                       12060021
                                    3196 *                                                                       12066021
 001F5A 4340 DFD5      0C515        3197 GTKEYS   IC    R4,NOKEYS                                                12072021
 001F5E 1244                        3198          LTR   R4,R4                    ANY KEYS SPECIFIED              12078021
 001F60 47D0 F22A      02006        3199          BC    NOTPOS,SRCH2             NO, FINISH PROCESSING           12084021
 001F64 5940 D424      0B964        3200          C     R4,TWELVE            MORE THAN TWELVE SPECIFIED          12090021
1PH20     IKFCBL20                                                                                              PAGE   82
-  LOC  OBJECT CODE    ADDR1 ADDR2  STMT   SOURCE STATEMENT                                       ASM 0201 11.03 02/14/15
0001F68 47D0 F196      01F72        3201          BNH   SRCH15               NO                                  12096021
 001F6C 4560 F362      0213E        3202          BAL   R6,IDERR             ERROR                               12102021
 001F70 2034                        3203          DC    X'2034'              MSG 52                              12108021
 001F72 5800 D3F8      0B938        3204 SRCH15   L     R0,ONE                                                   12114021
 001F76 5810 DB34      0C074        3205          L     R1,ATBLSH                                                12120021
 001F7A 58F0 DCE8      0C228        3206          L     R15,BINSRT                                               12126021
 001F7E 05EF                        3207          BALR  R14,R15             LNK TO ADDR IN REG 15                12132021
 001F80 58F0 DF78      0C4B8        3208          L     R15,IDSAV                                                12138021
 001F84 4242 0000      00000        3209          STC   R4,DX0(R2)                STORE COUNT                    12144021
 001F88 4188 0001      00001        3210          LA    R8,DX1(R8)               INCR TABLE CNT            44266 12150021
 001F8C 1B66                        3211          SR    R6,R6                                                    12156021
 001F8E 4367 0001      00001        3212          IC    R6,DX1(R7)                COUNT OF BCD NAME              12162021
 001F92 4460 F3AA      02186        3213          EX    R6,KEYSUB                SEE IF KEY IS SUBJECT           12168021
 001F96 4780 F26C      02048        3214          BE    SRCH4                    YES                             12174021
 001F9A 4104 4000      00000        3215          LA    R0,DX0(R4,R4)                                            12180021
 001F9E 1A04                        3216          AR    R0,R4               3 TIMES REG4                         12186021
 001FA0 5810 DB34      0C074        3217          L     R1,ATBLSH                                                12192021
 001FA4 58F0 DCE8      0C228        3218          L     R15,BINSRT                                               12198021
 001FA8 05EF                        3219          BALR  R14,R15             LNK TO ADDR IN REG 15                12204021
 001FAA 58F0 DF78      0C4B8        3220          L     R15,IDSAV                                                12210021
 001FAE 5810 DB3C      0C07C        3221          L     R1,AKEYTB                                                12216021
 001FB2 5811 0000      00000        3222          L     R1,DX0(R1)                                               12222021
 001FB6 4801 0004      00004        3223          LH    R0,DX4(R1)           GET DISPL OF ENTRY                  12228021
 001FBA 4000 DFA2      0C4E2        3224          STH   R0,KEYDSP           SAVE FOR GROUP                       12234021
 001FBE 4106 0002      00002        3225 GETKEY   LA    R0,DX2(R6)                ONE MORE FOR KIND OF KEY       12240021
 001FC2 5810 DB3C      0C07C        3226          L     R1,AKEYTB                ENTER IN TABLE                  12246021
 001FC6 58F0 DCE8      0C228        3227          L     R15,BINSRT                                               12252021
 001FCA 05EF                        3228          BALR  R14,R15             LNK TO ADDR IN REG 15                12258021
 001FCC 58F0 DF78      0C4B8        3229          L     R15,IDSAV                                                12264021
 001FD0 4166 0001      00001        3230          LA    R6,DX1(R6)           INCREMENT                           12270021
 001FD4 4460 F3B0      0218C        3231          EX    R6,KEYMOV                MOVE KEY TO TABLE               12276021
 001FD8 4177 6001      00001        3232          LA    R7,DX1(R7,R6)        POINT TO NEXT                       12282021
 001FDC 4530 F2C6      020A2        3233        BAL     R3,GTNEXT           LNK TO TST FOR END OF LOG.RECS       12288021
 001FE0 4188 0003      00003        3234          LA    R8,DX3(R8)               INCR TABLE CNT            44266 12294021
 001FE4 1B66                        3235          SR    R6,R6                                                    12300021
 001FE6 4367 0001      00001        3236          IC    R6,DX1(R7)                                               12306021
 001FEA 4640 F1E2      01FBE        3237          BCT   R4,GETKEY           SUB 1 FRM R4,NOT 0,GOTO GETKEY       12312021
 001FEE 4340 DFD5      0C515        3238          IC    R4,NOKEYS           GET COUNT OF KEYS                    12318021
 001FF2 5940 D424      0B964        3239          C     R4,TWELVE                                                12324021
 001FF6 47D0 F22A      02006        3240          BNH   SRCH2               NOT HI, BRH TO SRCH2                 12330021
 001FFA 5B40 D424      0B964        3241          S     R4,TWELVE                                                12336021
 001FFE 920C DFD5      0C515        3242          MVI   NOKEYS,XX0C          SET TO 12                           12342021
 002002 4560 F37A      02156        3243          BAL   R6,BYPASS           BYPASS REST                          12348021
 002006 5810 DB34      0C074        3244 SRCH2    L     R1,ATBLSH            TIB                                 12354021
 00200A 5811 0000      00000        3245          L     R1,DX0(R1)                TAMM                           12360021
 00200E 5811 0000      00000        3246          L     R1,DX0(R1)                A(TABLE)                       12366021
 002012 4111 0000      00000        3247          LA    R1,DX0(R1)                                               12372021
 002016 4A10 DFA0      0C4E0        3248          AH    R1,IDDISP                                                12378021
 00201A 4281 0000      00000        3249 SRCH3    STC   R8,DX0(R1)               STORE TOTAL CNT           44266 12384021
 00201E D201 DFD6 DFD4 0C516 0C514  3250          MVC   NUMIDS(LX2),NOIDNM   MOVE TO SAVE                        12390021
                                    3251 * COMMON EXIT                                                           12396021
                                    3252 *                                                                       12402021
 002024 9805 DF84      0C4C4        3253 SRCH3A   LM    R0,R5,SRHSAV                                             12408021
 002028 5880 DF9C      0C4DC        3254          L     R8,SRHSVD                 RESTORE REG 8            44266 12414021
 00202C 95FF 7000      00000        3255          CLI   DX0(R7),XXFF          EOF                                12420021
1PH20     IKFCBL20                                                                                              PAGE   83
-  LOC  OBJECT CODE    ADDR1 ADDR2  STMT   SOURCE STATEMENT                                       ASM 0201 11.03 02/14/15
0002030 4770 F262      0203E        3256          BNE   SRCH30               NO                                  12426021
 002034 5860 DC9C      0C1DC        3257          L     R6,ACPYRN                                                12432021
 002038 58F0 D9C8      0BF08        3258          L     R15,RSAVE+NX60                                           12438021
 00203C 07F6                        3259          BR    R6                   RETURN                              12444021
 00203E 58E0 DF7C      0C4BC        3260 SRCH30   L     R14,SRCHSV                                               12450021
 002042 5B70 D3FC      0B93C        3261          S     R7,TWO                                                   12456021
 002046 07FE                        3262          BR    R14                 BRH BACK TO CALLING RTN              12462021
 002048 9620 D611      0BB51        3263 SRCH4    OI    SYNCHR,ICLKEY        SET KEY BIT ON                      12468021
 00204C 4188 0003      00003        3264          LA    R8,DX3(R8)                 INCR COUNT              44266 12474021
 002050 9101 7000      00000        3265          TM    DX0(R7),ASCKEY       IS KEY ASCENDING                    12480021
 002054 4780 F280      0205C        3266          BZ    SRCH6               BR ON 0 TO TEST IF ONLY KEY          12486021
 002058 9610 D611      0BB51        3267          OI    SYNCHR,ICLASC        SET ASCENDING BIT ON                12492021
 00205C 5940 D3F8      0B938        3268 SRCH6    C     R4,ONE              ONLY KEY                             12498021
 002060 4780 F2B4      02090        3269          BE    SRCH7               YES                                  12504021
 002064 4560 F362      0213E        3270          BAL   R6,IDERR             NO, ERROR                           12510021
 002068 2069                        3271          DC    X'2069'              MSG 105                             12516021
 00206A 4340 DFD5      0C515        3272          IC    R4,NOKEYS           GET COUNT OF KEYS                    12522021
 00206E D700 DFD5 DFD5 0C515 0C515  3273          XC    NOKEYS,NOKEYS       RESET CTR                            12528021
 002074 4560 F37A      02156        3274          BAL   R6,BYPASS           LINK TO SAVE RETURN ADDRESS          12534021
 002078 5810 DB34      0C074        3275          L     R1,ATBLSH                                                12540021
 00207C 5811 0000      00000        3276          L     R1,DX0(R1)                                               12546021
 002080 5811 0000      00000        3277          L     R1,DX0(R1)                                               12552021
 002084 4A10 DFA0      0C4E0        3278          AH    R1,IDDISP                                                12558021
 002088 9601 1004      00004        3279          OI    DX4(R1),KEYERR       SET FLAG ON FOR PHASE3              12564021
 00208C 47F0 F23E      0201A        3280          B     SRCH3               BR TO STORE TOTAL COUNT              12570021
 002090 4530 F2C2      0209E        3281 SRCH7    BAL   R3,CHKNXT           POINT TO NEXT ELEMENT                12576021
 002094 D700 DFD5 DFD5 0C515 0C515  3282          XC    NOKEYS(LX1),NOKEYS   ZERO NUMBER OF KEYS                 12582021
 00209A 47F0 F22A      02006        3283          B     SRCH2               BRH TO SRCH2                         12588021
 00209E 4177 6002      00002        3284 CHKNXT   LA    R7,DX2(R7,R6)        INCREMENT BUFFER PTR                12594021
 0020A2 95FF 7000      00000        3285 GTNEXT   CLI   DX0(R7),XXFF         END OF LOGICAL RECORDS              12600021
 0020A6 4770 F2EA      020C6        3286          BNE   GTNXT1              NO, SEE IF E-TEXT                    12606021
 0020AA 5810 DB84      0C0C4        3287          L     R1,COSADR                YES                             12612021
 0020AE 0501                        3288          BALR  R0,R1               BRH TO ADDR IN COSADR                12618021
 0020B0 03                          3289          DC    X'03'                                                    12624021
 0020B1 00
 0020B2 4780 F2E0      020BC        3290          BE    ATEND               =, BRH TO TURN ON EOF SWITCH         12630021
 0020B6 1870                        3291          LR    R7,R0                                                    12636021
 0020B8 47F0 F2EA      020C6        3292          B     GTNXT1              CHECK FOR PARAMETER                  12642021
 0020BC 9610 D5AA      0BAEA        3293 ATEND    OI    COPYSW,XX10           TURN ON EOF SWITCH                 12648021
 0020C0 9200 D5B7      0BAF7        3294          MVI   NXTLEV,XX00                                              12654021
 0020C4 07F3                        3295          BR    R3                   RETURN                              12660021
 0020C6                             3296 GTNXT1   DS    0H                                                 35123 12666021
 0020C6 9542 7000      00000        3297          CLI   DX0(R7),XX42        IS THIS CPB (NEW SECTION)      35123 12672021
 0020CA 4770 F304      020E0        3298          BNE   GTNX1A              NO,  GO TO CHECK FOR ERROR TXT 35123 12678021
 0020CE 9602 D5AA      0BAEA        3299          OI    COPYSW,XX02         YES, SET CPB SWITCH            35123 12684021
 0020D2 9200 D5B7      0BAF7        3300          MVI   NXTLEV,XX00         RESET NEXT LEVEL               35123 12690021
 0020D6 1B55                        3301          SR    R5,R5               CLEAR REG 5                    35123 12696021
 0020D8 4357 0001      00001        3302          IC    R5,DX1(R7)          PICK UP SECTION CODE           35123 12702021
 0020DC 4250 D59E      0BADE        3303          STC   R5,SECTSAV                SAVE SECTION CDE         44287 12708021
 0020E0                             3304 GTNX1A   DS    0H                  CHECK ERROR TEST               35123 12714021
 0020E0 9500 7000      00000        3305          CLI   DX0(R7),XX00        IS THIS ERROR TEXT             35123 12720021
 0020E4 0773                        3306          BCR   NOTEQ,R3            LD TEXT   RETURNS              35123 12726021
                                    3307 *                                  ELSE  ERROR TEXT               35123 12732021
 0020E6 9500 7002      00002        3308          CLI   DX2(R7),DX0         PARAMETER                      35123 12738021
 0020EA 4770 F342      0211E        3309          BNE   GTNXT3              BRANCH TO SKIP CHECK           35123 12744021
1PH20     IKFCBL20                                                                                              PAGE   84
-  LOC  OBJECT CODE    ADDR1 ADDR2  STMT   SOURCE STATEMENT                                       ASM 0201 11.03 02/14/15
00020EE 1B11                        3310          SR    R1,R1               CLEAR REG1                     35123 12750021
 0020F0 4317 0007      00007        3311          IC    R1,DX7(R7)               PICK UP SEVERITY                12756021
 0020F4 8810 0004      00004        3312          SRL   R1,DX4              GET RID OF PHASE NO.           35123 12762021
 0020F8 4111 0001      00001        3313          LA    R1,DX1(R1)          ADD 1 TO REG1                  35123 12768021
 0020FC 8910 0002      00002        3314          SLL   R1,DX2              MULTIPLY BY 4                  35123 12774021
 002100 4910 D426      0B966        3315          CH    R1,TWELVE+DX2       12 OR HIGHER ..                35123 12780021
 002104 47D0 F330      0210C        3316          BNH   GTNXT2              NO, DO NOT SAVE                35123 12786021
 002108 4110 0010      00010        3317          LA    R1,DX16             LOAD 16, HIGHEST RETURN CODE   35123 12792021
 00210C                             3318 GTNXT2   DS    0H                                                 35123 12798021
 00210C 4210 D900      0BE40        3319          STC   R1,FULLWD           STORE LAST BYTE OF REG1        35123 12804021
 002110 D500 D900 B1A2 0BE40 001A2  3320          CLC   FULLWD(LX1),ERRSEV  CHECK SEVERITY WITH LAST       35123 12810021
 002116 47D0 F342      0211E        3321          BNH   GTNXT3              NO, DO NOT SAVE                35123 12816021
 00211A 4210 B1A2      001A2        3322          STC   R1,ERRSEV           STORE NEW HIGH SEVERITY CODE   35123 12822021
 00211E                             3323 GTNXT3   DS    0H                                                 35123 12828021
 00211E 5810 DB84      0C0C4        3324          L     R1,COSADR                                                12834021
 002122 5020 DDB0      0C2F0        3325          ST    R2,RNMSVE                                                12840021
 002126 1827                        3326          LR    R2,R7                                                    12846021
 002128 0501                        3327          BALR  R0,R1               CALL COS TO PUT OUT E-TEXT           12852021
 00212A 24                          3328          DC    X'24'                                                    12858021
 00212B 00
 00212C 5820 DDB0      0C2F0        3329          L     R2,RNMSVE                                                12864021
 002130 1B11                        3330          SR    R1,R1                                                    12870021
 002132 4317 0001      00001        3331          IC    R1,DX1(R7)           COUNT OF ENTRY                      12876021
 002136 4171 7002      00002        3332          LA    R7,DX2(R1,R7)        POINT TO NEXT ENTRY                 12882021
 00213A 47F0 F2C6      020A2        3333          B     GTNEXT              CHECK NEXT                           12888021
 00213E 4806 0000      00000        3334 IDERR    LH    R0,DX0(R6)            WRITE ERROR MSG                    12894021
 002142 58F0 DBC0      0C100        3335          L     R15,AERRTN                                               12900021
 002146 05EF                        3336          BALR  R14,R15             LNK TO ADDR IN REG 15                12906021
 002148 58F0 DF78      0C4B8        3337          L     R15,IDSAV                                                12912021
 00214C 4140 000C      0000C        3338          LA    R4,DX12               SET ID COUNT TO 12                 12918021
 002150 4166 0002      00002        3339          LA    R6,DX2(R6)            GO PROCESS                         12924021
 002154 07F6                        3340          BR    R6                  BRH BACK TO CALLING RTN+2            12930021
 002156 1826                        3341 BYPASS   LR    R2,R6               SAVE RETURN ADDRESSN                 12936021
 002158 1B66                        3342          SR    R6,R6                                                    12942021
 00215A 4367 0001      00001        3343          IC    R6,DX1(R7)           COUNT OF BCD NAEM                   12948021
 00215E 4530 F2C2      0209E        3344          BAL   R3,CHKNXT           INCRENENT BUFFER PTR                 12954021
 002162 4640 F37E      0215A        3345          BCT   R4,BYPASS+NX4        AT END YET                          12960021
 002166 07F2                        3346          BR    R2                  BRH BACK TO CALLING RTN              12966021
 002168                             3347 IDXREFSV DS    6F                       XREF FOR INDX NMS SAV     8953  12972021
 002180 D200 D868 7001 0BDA8 00001  3348 MVIDNM   MVC   OVERFL(LX1),DX1(R7)                                      12978021
 002186 D500 7001 D5EC 00001 0BB2C  3349 KEYSUB   CLC   DX1(LX1,R7),NUMBCD                                       12984021
 00218C D200 2000 7000 00000 00000  3350 KEYMOV   MVC   DX0(LX1,R2),DX0(R7)                                      12990021
1PH20     IKFCBL20                                                                                              PAGE   85
-  LOC  OBJECT CODE    ADDR1 ADDR2  STMT   SOURCE STATEMENT                                       ASM 0201 11.03 02/14/15
1PH20     IKFCBL20                                                                                              PAGE   86
-  LOC  OBJECT CODE    ADDR1 ADDR2  STMT   SOURCE STATEMENT                                       ASM 0201 11.03 02/14/15
0                            02192  3353          USING *,R15                                                    13008021
                                    3354 *                                                                       13014021
                                    3355 * THIS ROUTINE IS CALLED BY DICTBLD TO FILL IN ID NUMBER AND LENGTH     13020021
                                    3356 * OF INDEX NAMES                                                        13026021
 002192 50E0 DF7C      0C4BC        3357 SRH200   ST    R14,SRCHSV                                               13032021
 002196 50F0 DF78      0C4B8        3358          ST    R15,IDSAV                                                13038021
 00219A 9006 DF84      0C4C4        3359          STM   R0,R6,SRHSAV                                             13044021
 00219E 9120 D611      0BB51        3360          TM    SYNCHR,ICLKEY       WAS SUBJECT KEY                      13050021
 0021A2 4780 F02C      021BE        3361          BZ    SRH201              BRH ON ZERO TO SRH201                13056021
 0021A6 5800 D400      0B940        3362          L     R0,THREE                                                 13062021
 0021AA 5810 DB34      0C074        3363          L     R1,ATBLSH                                                13068021
 0021AE 58F0 DCE8      0C228        3364          L     R15,BINSRT                                               13074021
 0021B2 05EF                        3365          BALR  R14,R15             LNK TO ADDR IN REG 15                13080021
 0021B4 58F0 DF78      0C4B8        3366          L     R15,IDSAV                                                13086021
 0021B8 D202 2000 D685 00000 0BBC5  3367          MVC   DX0(LX3,R2),DICTPT+NX1 DICT PTR FOR KEY                  13092021
 0021BE 5850 DB34      0C074        3368 SRH201   L     R5,ATBLSH                                                13098021
 0021C2 5855 0000      00000        3369          L     R5,DX0(R5)            TAMM                               13104021
 0021C6 5855 0000      00000        3370          L     R5,DX0(R5)            TABLE                              13110021
 0021CA 4155 0000      00000        3371          LA    R5,DX0(R5)                                               13116021
 0021CE 4A50 DFA0      0C4E0        3372          AH    R5,IDDISP                                                13122021
 0021D2 D202 5001 D685 00001 0BBC5  3373          MVC   DX1(LX3,R5),DICTPT+NX1 ENTER SUBJECT POINTER             13128021
 0021D8 D700 DFB8 DFB8 0C4F8 0C4F8  3374          XC    TBLSW(LX1),TBLSW     TURN OFF SW                         13134021
 0021DE 9180 D677      0BBB7        3375          TM    ITMCLS+NX1,XX80       ODO                                13140021
 0021E2 4780 F070      02202        3376          BZ    SRH202              NO                                   13146021
 0021E6 9610 5004      00004        3377          OI    DX4(R5),ODOPTR       TURN FLAG ON                        13152021
 0021EA D201 5005 D67A 00005 0BBBA  3378          MVC   DX5(LX2,R5),OBJDIS    SAVE DISPL IN OD2TBL               13158021
 0021F0 1B33                        3379          SR    R3,R3                                                    13164021
 0021F2 4330 DFB9      0C4F9        3380          IC    R3,ODOCT            CT OF VARIABLES                      13170021
 0021F6 4133 0001      00001        3381          LA    R3,DX1(R3)           INCREMENT                           13176021
 0021FA 4230 DFB9      0C4F9        3382          STC   R3,ODOCT                                                 13182021
 0021FE 47F0 F07E      02210        3383          B     SRH203              BRH TO INCREMT TABLE PTR             13188021
 002202 4830 D67C      0BBBC        3384 SRH202   LH    R3,NOC              GET NUMBER OF OCCURENCES             13194021
 002206 4E30 DF70      0C4B0        3385          CVD   R3,MAXNUM               PACKED DECIMAL FOR PH3.          13200021
 00220A D202 5005 DF75 00005 0C4B5  3386          MVC   DX5(LX3,R5),MAXNUM+NX5 STORE IN TABLE                    13206021
 002210 4155 0009      00009        3387 SRH203   LA    R5,DX9(R5)            INCREMENT TABLE PTR                13212021
 002214 1B44                        3388          SR    R4,R4                                                    13218021
 002216 4340 DFD6      0C516        3389          IC    R4,NUMIDS           GET COUNT OF ID NAMES                13224021
 00221A D201 DFC8 D678 0C508 0BBB8  3390          MVC   IDLNTH(LX2),CILGN    MOVE SUBJECT LENGTH                 13230021
 002220 4810 B1D8      001D8        3391 SRH218   LH    R1,INDEX1           IN LINE                              13236021
 002224 4111 0001      00001        3392          LA    R1,DX1(R1)           INCREMENT                           13242021
 002228 4010 DFC6      0C506        3393          STH   R1,IDNUM            PUT IN ATTRIBUTES                    13248021
 00222C 4010 B1D8      001D8        3394          STH   R1,INDEX1                                                13254021
 002230 D202 DDD5 5000 0C315 00000  3395 SRH250   MVC   PARAM+NX1(LX3),DX0(R5) MOVE DICT PTR                     13260021
 002236 4155 0003      00003        3396          LA    R5,DX3(R5)            UPDATE TABLE PTR                   13266021
 00223A 9204 DDD4      0C314        3397          MVI   PARAM,XX04            LATRPT CODE                        13272021
 00223E 4110 DDD4      0C314        3398          LA    R1,PARAM                                                 13278021
 002242 58F0 DBE4      0C124        3399          L     R15,ALATRP                                               13284021
 002246 50E0 DF80      0C4C0        3400          ST    R14,BCTSAV                                               13290021
 00224A 05EF                        3401          BALR  R14,R15             LINK TO ADDR IN REG 15               13296021
 00224C 58E0 DF80      0C4C0        3402          L     R14,BCTSAV                                               13302021
 002250 58F0 DF78      0C4B8        3403          L     R15,IDSAV                                                13308021
 002254 D204 2001 DFC5 00001 0C505  3404          MVC   DX1(LX5,R2),IDATT+NX1 REPLACE ATTRIBUTES                 13314021
 00225A 4640 F08E      02220        3405          BCT   R4,SRH218                BUMP INDEX CTR            38963 13320021
 00225E D202 DDD5 D685 0C315 0BBC5  3406          MVC   PARAM+NX1(LX3),DICTPT+NX1 MOVE PTR                       13326021
 002264 9204 DDD4      0C314        3407          MVI   PARAM,XX04           LATRPT CODE                         13332021
1PH20     IKFCBL20                                                                                              PAGE   87
-  LOC  OBJECT CODE    ADDR1 ADDR2  STMT   SOURCE STATEMENT                                       ASM 0201 11.03 02/14/15
0002268 4110 DDD4      0C314        3408          LA    R1,PARAM                                                 13338021
 00226C 58F0 DBE4      0C124        3409          L     R15,ALATRP                                               13344021
 002270 05EF                        3410          BALR  R14,R15             LNK TO ADDR IN REG 15                13350021
 002272 58F0 DF78      0C4B8        3411          L     R15,IDSAV                                                13356021
 002276 9680 2005      00005        3412          OI    DX5(R2),XX80         SUBJECT OF INDEX BY                 13362021
 00227A 9806 DF84      0C4C4        3413        LM      R0,R6,SRHSAV                                             13368021
 00227E 58E0 DF7C      0C4BC        3414          L   R14,SRCHSV                                                 13374021
 002282 07FE                        3415          BR    R14                 BRH TO ADDR IN REG 14                13380021
1PH20     IKFCBL20                                                                                              PAGE   88
-  LOC  OBJECT CODE    ADDR1 ADDR2  STMT   SOURCE STATEMENT                                       ASM 0201 11.03 02/14/15
0                                   3417 *=2      SOURCE PICTURE ANALYSIS-GSPICT                                 13392021
                                    3418 *GSPICT-SOURCE PICTURE ROUTINE                                          13398021
                                    3419 * GSPICT SCANS THE SOURCE PICTURE CHECKING FOR VALID PICTURE CHARAC     13404021
                                    3420 * AND DETERMINES THE PICTURE TYPE IF ALL THE CHARACTERS ARE VALID.      13410021
                                    3421 * VALIDATION IS DONE BY A TRANSLATE TABLE OF THE 256 BIT CONFIGURAT     13416021
                                    3422 * OF EBCDIC CONVENTION. EACH CHARACTER OF THE SOURCE PICTURE IS TRA     13422021
                                    3423 * LATED TO A CODE AND THIS CODE IS OR'ED INTO A CHECK BYTE(BVPCHK).     13428021
                                    3424 * ILLEGAL CHARACTERS HAVE X'FF' CODE IN THE TRANSLATE TABLE. THE VA     13434021
                                    3425 * OF THE CHECK BYTE DETERMINES THE PICTURE TYPE(PCTYPE). THE SOURCE     13440021
                                    3426 * PICTURE IS DISTRIBUTED TO IPT-INITIAL PICTURE TABLE AND IPLT-INIT     13446021
                                    3427 * PICTURE LENGTH TABLE. PARENTHESIS ARE DROPPED AND THEIR ENCLOSED      13452021
                                    3428 * LENGTHS ARE TRANSLATED TO BINARY BEFORE DISTRIBUTION TO IPT AND I     13458021
                                    3429 *                                                                       13464021
                                    3430 *                                                                       13470021
                                    3431 * THE CALLING SEQUENCE FOR GSPICT IS                                    13476021
                                    3432 *        ST    R15,RSAVE+60                                             13482021
                                    3433 *        L     R15,AGSDIC          AGSPIC IS ADCON FOR GSPICT           13488021
                                    3434 *        BALR  R14,R15                                                  13494021
                                    3435 *        L     R15,RSAVE+60                                             13500021
                                    3436 *GSPICT IS CALLED BY GETNXT WHEN A SOURCE PICTURE IS ENCOUNTERED IN     13506021
                                    3437 *INPUT(LD-TEXT) TO PHASE 2.                                             13512021
                             02284  3438        USING *,R15                                                      13518021
 002284 900E D98C      0BECC        3439 GSPICT   STM   R0,R14,RSAVE                                             13524021
 002288 D700 D5B6 D5B6 0BAF6 0BAF6  3440          XC    BVPCHK(LX1),BVPCHK CLEAR OR-BYTE                         13530021
 00228E 1BCC                        3441          SR    R12,R12                                                  13536021
 002290 1B88                        3442          SR    R8,R8                                                    13542021
 002292 4130 D689      0BBC9        3443          LA    R3,IPT                                                   13548021
 002296 4140 D6A8      0BBE8        3444          LA    R4,IPLT                                                  13554021
 00229A 1B55                        3445          SR    R5,R5          R5 IS COUNTER FOR PICTURE CHAR            13560021
 00229C 1B66                        3446          SR    R6,R6          R6 IS COUNTER FOR TOTAL NUMBER OF CHA     13566021
 00229E 4380 7000      00000        3447          IC    R8,DX0(R0,R7)  COUNT OF SOURCE DICT CHARS GOES IN REG    13572021
 0022A2 D200 3001 7001 00001 00001  3448          MVC   DX1(LX1,R3),DX1(R7) MOVE FIRST PICTURE CHAR TO IPT       13578021
 0022A8 4510 F1B4      02438        3449          BAL   R1,BTRANS      CALL TRANSLATE ROUTINE                    13584021
 0022AC 1299                        3450          LTR   R9,R9          R9 HAS CODE DETERMINING VALIDITY OF C     13590021
 0022AE 4770 F1F8      0247C        3451          BC    NOTZER,MOVEFF       IF R9 IS NOT ZERO CHAR IS INVALI     13596021
 0022B2 4150 5001      00001        3452 BADDRS   LA    R5,DX1(R0,R5)  ADD 1 TO CHAR COUNTER                     13602021
 0022B6 4160 6001      00001        3453          LA    R6,DX1(R0,R6)    AND TOTAL CHAR COUNTER                  13608021
 0022BA 4680 F054      022D8        3454 BDECPC   BCT   R8,BNEXTP           R8 NOT 0,LA OF NXT CHAR IN R7        13614021
 0022BE 4050 4002      00002        3455 BENDGS   STH   R5,DX2(R0,R4)  STORE CURRENT CHAR COUNT IN IPLT          13620021
 0022C2 4060 D6A8      0BBE8        3456          STH   R6,IPLT        STORE TOTAL CHAR COUNT IN IPLT            13626021
 0022C6 42C0 D75F      0BC9F        3457          STC   R12,NOOFPS     STORE NUMBER OF P'S                       13632021
 0022CA 4150 D688      0BBC8        3458          LA    R5,IPT-NX1      PUT NUMBER OF CHARACTERS IN              13638021
 0022CE 1B35                        3459          SR    R3,R5          REGISTER 3 AND STORE  IN                  13644021
 0022D0 4230 D689      0BBC9        3460          STC   R3,IPT         IPT COUNT BYTE                            13650021
 0022D4 47F0 F1D2      02456        3461          BC    UNCOND,BPTYPE       GO COMP OR-BYTE BVPCHK TO PTYP       13656021
 0022D8 4170 7001      00001        3462 BNEXTP   LA    R7,DX1(R0,R7)  SET REG 7 TO ADDRESS OF NEXT SOURCE CH    13662021
 0022DC 954D 7001      00001        3463 BNEXTQ   CLI   DX1(R7),XX4D    IS CHARACTER A LEFT PARENTHESIS          13668021
 0022E0 4780 F09C      02320        3464          BC    EQ,BLEFTP      YES                                       13674021
 0022E4 D500 7001 3001 00001 00001  3465          CLC   DX1(LX1,R7),DX1(R3) NO, IS THIS CHAR EQUAL TO LAST CHAR  13680021
 0022EA 4780 F02E      022B2        3466          BC    EQ,BADDRS      YES                                       13686021
 0022EE 95D7 3001      00001        3467          CLI   DX1(R3),XCP     NO, IS IPT CHAR A P                      13692021
 0022F2 4770 F074      022F8        3468          BC    NOTEQ,BINIPT   NO,                                       13698021
 0022F6 1AC5                        3469          AR    R12,R5         YES, ADD CHAR COUNT TO NUMBER OF D'S      13704021
 0022F8 4130 3001      00001        3470 BINIPT   LA    R3,DX1(R0,R3)  NO ,INCREMENT IPT INDEX                   13710021
 0022FC 4050 4002      00002        3471          STH   R5,DX2(R0,R4)  STORE CHAR COUNT INTO IPLT                13716021
1PH20     IKFCBL20                                                                                              PAGE   89
-  LOC  OBJECT CODE    ADDR1 ADDR2  STMT   SOURCE STATEMENT                                       ASM 0201 11.03 02/14/15
0002300 4140 4002      00002        3472          LA    R4,DX2(R0,R4)  INCREMENT  IPLT  INDEX                    13722021
 002304 1B55                        3473          SR    R5,R5          CLEAR CHAR COUNT                          13728021
 002306 D200 3001 7001 00001 00001  3474          MVC   DX1(LX1,R3),DX1(R7) MOVE CURRENT CHAR TO IPT             13734021
 00230C 4510 F1B4      02438        3475          BAL   R1,BTRANS      CALL TRANSLATE ROUTINE                    13740021
 002310 1299                        3476          LTR   R9,R9          R9 HAS CODE DETERMINING VALIDITY OF C     13746021
 002312 4770 F1F8      0247C        3477          BC    NOTZER,MOVEFF       IF R9 IS NOT ZERO CHAR IS INVALI     13752021
 002316 47F0 F02E      022B2        3478          BC    UNCOND,BADDRS       BRH,+1 TO CHR AND TOT CHR CTRS       13758021
 00231A F270 D920 2002 0BE60 00002  3479 BPACKI   PACK  BPACKD(LX8),DX2(LX0,R2)                                  13764021
 002320 1BAA                        3480 BLEFTP   SR    R10,R10                                                  13770021
 002322 1827                        3481          LR    R2,R7          SAVE CHAR ADDRESS IN REG 2 (SOURCE PI     13776021
 002324 4170 7001      00001        3482 BLEFTR   LA    R7,DX1(R0,R7)    IGNORE LEADING ZEROES               370 13782021
 002328 95F0 7001      00001        3483          CLI   DX1(R7),XC0      IN DUPLICATING FACTOR               370 13788021
 00232C 4770 F0C4      02348        3484        BC      NOTEQ,BLEFTS    OF                                  3705 13794021
 002330 955D 7002      00002        3485          CLI   DX2(R7),XX5D             IS CHAR AFTER 0 RIGHT PAREN     13800021
 002334 4780 F104      02388        3486          BC    EQ,BZERO                 YES, ISSUE MSG                  13806021
 002338 4120 2001      00001        3487          LA    R2,DX1(R0,R2)    PICTURE CLAUSE                      370 13812021
 00233C 5B80 D3F8      0B938        3488        S       R8,ONE                                              3705 13818021
 002340 47F0 F0A0      02324        3489        BC      UNCOND,BLEFTR       BRH TO BLEFTR                   3705 13824021
 002344 4170 7001      00001        3490 BLEFTQ   LA    R7,DX1(R0,R7)  INCREMENT R7 TO ADDRESS OF NEXT SOURCE    13830021
 002348 41A0 A001      00001        3491 BLEFTS   LA    R10,DX1(R0,R10)  ADD 1 TO R10                        370 13836021
 00234C 59A0 D408      0B948        3492          C     R10,FIVE       IS COUNTER GREATER THAN 5                 13842021
 002350 4720 F15E      023E2        3493          BC    HI,BETXT2      YES                                       13848021
 002354 955D 7001      00001        3494          CLI   DX1(R7),XX5D    NO, IS CHAR A RIGHT PARENTHESIS          13854021
 002358 4780 F0EC      02370        3495          BC    EQ,BDECRE      YES                                       13860021
 00235C 95F0 7001      00001        3496          CLI   DX1(R7),XC0     NO, IS CHARACTER GREATER OR EQ TO ZER    13866021
 002360 4740 F1F8      0247C        3497          BC    LO,MOVEFF           NO                                   13872021
 002364 95F9 7001      00001        3498          CLI   DX1(R7),XC9     YES, IS CHARACTER LESS,EQ TO NINE        13878021
 002368 4720 F1F8      0247C        3499          BC    HI,MOVEFF           NO                                   13884021
 00236C 47F0 F0C0      02344        3500          BC    UNCOND,BLEFTQ  YES, CHARACTER IS A NUMBER 0-9            13890021
 002370 5BA0 D3FC      0B93C        3501 BDECRE   S     R10,TWO        DECREMENT REG 10 BY TWO                   13896021
 002374 4740 F1F8      0247C        3502          BC    LO,MOVEFF           NO NUMERICS IN ( )                   13902021
 002378 44A0 F096      0231A        3503          EX    R10,BPACKI     PACK SOURCE NUMBER                        13908021
 00237C 4F20 D920      0BE60        3504          CVB   R2,BPACKD      CONVERT DECIMAL LGN TO BINARY LGN         13914021
 002380 5920 D3F4      0B934        3505          C     R2,ZEROS       IS DUPL FACTOR ZERO                       13920021
 002384 4770 F116      0239A        3506          BC    NOTEQ,BCHAR    NO                                        13926021
                             02388  3507 BZERO    EQU   *                                                        13932021
 002388 4800 F15A      023DE        3508          LH    R0,ERRBA       186      YES                              13938021
 00238C 58F0 DBC0      0C100        3509          L     R15,AERRTN     CALL ERROR RTN                            13944021
 002390 05EF                        3510          BALR  R14,R15             LNK TO ADDR IN REG 15                13950021
 002392 58F0 DBD0      0C110        3511          L     R15,AGSPIC                                               13956021
 002396 5820 D3F8      0B938        3512          L     R2,ONE         SUBSTITUTE ONE OCCURRENCE                 13962021
 00239A 0620                        3513 BCHAR    BCTR  R2,R0               SUBT 1 FROM CONTENTS OF REG 2        13968021
 00239C 1A52                        3514          AR    R5,R2          ADD TO CHARACTER COUNT                    13974021
 00239E 1A62                        3515          AR    R6,R2          ADD TO TOTAL CHARACTER COUNT              13980021
 0023A0 5950 D470      0B9B0        3516          C     R5,CON32K           IS SIZE GT 32K-1                2998 13986021
 0023A4 47D0 F138      023BC        3517          BNH   BCHAR1              NO                                   13992021
 0023A8 5850 D470      0B9B0        3518          L     R5,CON32K           MAKE SIZE = 32K                 2998 13998021
 0023AC 0650                        3519          BCTR  R5,R0                   MINUS 1                     2998 14004021
 0023AE 4800 DFAA      0C4EA        3520          LH    R0,MSG138                                           2998 14010021
 0023B2 58F0 DBC0      0C100        3521          L     R15,AERRTN                                          2998 14016021
 0023B6 05EF                        3522          BALR  R14,R15             GO GEN MSG 138                  2998 14022021
 0023B8 58F0 DBD0      0C110        3523          L     R15,AGSPIC                                          2998 14028021
                             023BC  3524 BCHAR1   EQU   *                                                   2998 14034021
 0023BC 5960 D470      0B9B0        3525          C     R6,CON32K           TOTAL GREATER THAN 32K          2998 14040021
 0023C0 47D0 F144      023C8        3526          BNH   BCHAR2              NO                              2998 14046021
1PH20     IKFCBL20                                                                                              PAGE   90
-  LOC  OBJECT CODE    ADDR1 ADDR2  STMT   SOURCE STATEMENT                                       ASM 0201 11.03 02/14/15
00023C4 5860 D470      0B9B0        3527          L     R6,CON32K           MAKE 32K                        2998 14052021
 0023C8                             3528 BCHAR2   DS    0H                                                  2998 14058021
 0023C8 41AA 0002      00002        3529          LA    R10,DX2(R10,R0) R10 IS = OF CHARS TO BE DECREMENTED      14064021
 0023CC 1B8A                        3530          SR    R8,R10            FROM COUNT MINUS ONE                   14070021
 0023CE 47D0 F03A      022BE        3531          BC    NOTHI,BENDGS   BRANCH TO END IF R8 ZERO OR LESS THAN     14076021
 0023D2 9101 D5AD      0BAED        3532          TM    BRETSW,XX01                                              14082021
 0023D6 47E0 F036      022BA        3533          BC    NOTONE,BDECPC       BRETSW NOT ON,GO TO BDECPC           14088021
 0023DA 47F0 F17C      02400        3534          BC    UNCOND,BRETRN       BRH TO ADD1 TO R7,SETOFF SW          14094021
                                    3535 *                                                                       14100021
                                    3536 *                                                                       14106021
 0023DE 10BA                        3537 ERRBA    DC    X'10BA'                                                  14112021
 0023E0 1015                        3538 ERR021   DC    X'1015'                                             3705 14118021
 0023E2 955D 7001      00001        3539 BETXT2   CLI   DX1(R7),XX5D    IS CHAR RIGHT PAREN                      14124021
 0023E6 4780 F0EC      02370        3540          BC    EQ,BDECRE      YES                                       14130021
 0023EA 4800 F15C      023E0        3541          LH    R0,ERR021                                           3705 14136021
 0023EE 58F0 DBC0      0C100        3542        L       R15,AERRTN                                          3705 14142021
 0023F2 05EF                        3543        BALR    R14,R15             LNK TO ADDR IN REG 15           3705 14148021
 0023F4 58F0 DBD0      0C110        3544        L       R15,AGSPIC                                          3705 14154021
 0023F8 9601 D5AD      0BAED        3545          OI    BRETSW,XX01     SET RETURN SWITCH ON                     14160021
 0023FC 47F0 F0EC      02370        3546          BC    UNCOND,BDECRE       GO TO DEC REC 10 BY 2                14166021
 002400 4170 7001      00001        3547 BRETRN   LA    R7,DX1(R0,R7)                                            14172021
 002404 94FE D5AD      0BAED        3548          NI    BRETSW,XXFE     TURN OFF RETURN SWITCH                   14178021
 002408 4680 F18C      02410        3549          BCT   R8,BCHNUM           GO CHK IF CHR IS RIGHT ')'           14184021
 00240C 47F0 F03A      022BE        3550          BC    UNCOND,BENDGS       GO STORE CURR CH COUNT IN IPLT       14190021
 002410 955D 7001      00001        3551 BCHNUM   CLI   DX1(R7),XX5D    IS CHAR RIGHT PAREN                      14196021
 002414 4780 F036      022BA        3552          BC    EQ,BDECPC       YES                                      14202021
 002418 95F0 7001      00001        3553          CLI   DX1(R7),XC0     IF CHARACTER IS                          14208021
 00241C 4740 F058      022DC        3554          BC    LO,BNEXTQ        NOT NUMERIC                             14214021
 002420 95F9 7001      00001        3555          CLI   DX1(R7),XC9        GO TO                                 14220021
 002424 4720 F058      022DC        3556          BC    HI,BNEXTQ            BNEXTQ                              14226021
 002428 4170 7001      00001        3557          LA    R7,DX1(R0,R7)  IS NUMERIC                                14232021
 00242C 4680 F18C      02410        3558          BCT   R8,BCHNUM           GO CHK IF CHR IS RIGHT ')'           14238021
 002430 4100 0003      00003        3559          LA    R0,DX3(R0,R0)   E-TEXT                                   14244021
 002434 47F0 F03A      022BE        3560          BC    UNCOND,BENDGS       GO ST CURR CHR COUNT IN IPLT         14250021
 002438 DC00 7001 D294 00001 0B7D4  3561 BTRANS   TR    DX1(LX1,R7),BPICTR  TRANSLATE SOURCE CHAR TO TABLE COD   14256021
 00243E D600 D5B6 7001 0BAF6 00001  3562          OC    BVPCHK(LX1),DX1(R7) OR PICTURE CHAR TO VALID CHECK BYTE  14262021
 002444 95FF D5B6      0BAF6        3563          CLI   BVPCHK,XXFF      IS BYTE INVALID (FF) ALL ONES           14268021
 002448 4780 F1CC      02450        3564          BC    EQ,BSETR9       YES                                      14274021
 00244C 1B99                        3565          SR    R9,R9           NO, VALID                                14280021
 00244E 07F1                        3566          BCR   UNCOND,R1           BRH TO ADDR IN REG1                  14286021
 002450 4190 0001      00001        3567 BSETR9   LA    R9,DX1(R0,R0)    MAKE R9  NON-ZERO                       14292021
 002454 07F1                        3568          BCR   UNCOND,R1           BRH TO ADDR IN REG1                  14298021
 002456 4170 D392      0B8D2        3569 BPTYPE   LA    R7,PTYPTB-NX2        THE OR-BYTE BVPCHK IS COMPARED      14304021
 00245A 4190 D3CE      0B90E        3570          LA    R9,PTYPTB+NX58          TO ENTRIES IN PTYPTB             14310021
 00245E 4180 0002      00002        3571          LA    R8,DX2                 IF IT IS A VALID VALUE THE        14316021
 002462 8678 F1F8      0247C        3572 COMTYP   BXH   R7,R8,MOVEFF          CORRECT PICTURE CODE GOES INTO     14322021
 002466 D500 D5B6 7000 0BAF6 00000  3573          CLC   BVPCHK(LX1),DX0(R7)     PCTYPE, IF INVALID FF GOES INT   14328021
 00246C 4770 F1DE      02462        3574          BC    NOTEQ,COMTYP          PCTYPE.                            14334021
 002470 D200 D760 7001 0BCA0 00001  3575 MOVEPC   MVC   PCTYPE(LX1),DX1(R7)                                      14340021
 002476 980E D98C      0BECC        3576 BLEAVH   LM    R0,R14,RSAVE        * PCTYPE *  PICTURE                  14346021
 00247A 07FE                        3577          BCR   UNCOND,R14          **********************               14352021
 00247C 92FF D760      0BCA0        3578 MOVEFF   MVI   PCTYPE,XXFF          *   01   ALPHABETIC                 14358021
 002480 47F0 F1F2      02476        3579          BC    UNCOND,BLEAVH            *  02  ALPHANUMERIC       46170 14364021
                                    3580 *                                  *   03   NUMERIC                     14370021
                                    3581 *                                  *   04   NUMERIC EDITED              14376021
1PH20     IKFCBL20                                                                                              PAGE   91
-  LOC  OBJECT CODE    ADDR1 ADDR2  STMT   SOURCE STATEMENT                                       ASM 0201 11.03 02/14/15
0                                   3582 *                                  *   05   EXTERNAL FLOATING POINT     14382021
                                    3583 *                                  *   06   STERLING NON-REPORT         14388021
                                    3584 *                                  *   07   STERLING REPORT             14394021
                                    3585 *                                  *   08    ALPHA-NUM EDITED           14400021
1PH20     IKFCBL20                                                                                              PAGE   92
-  LOC  OBJECT CODE    ADDR1 ADDR2  STMT   SOURCE STATEMENT                                       ASM 0201 11.03 02/14/15
0                                   3587 * * * * * * * * * * * * * * * * * * * * * * * * * * * * * * * * *       14412021
                                    3588 *                                                                       14418021
                                    3589 *                                                                       14424021
                                    3590 *                          R E N A M S                                  14430021
                                    3591 *                                                                       14436021
                                    3592 *                                                                       14442021
                                    3593 *                                                                       14448021
                                    3594 *FUNCTION/OPERATION  - PROCESSES THE RENAMES AND RENAMES                14454021
                                    3595 *   THRU CLAUSES. RESOLVES QUALIFICATION IF NECESSARY.                  14460021
                                    3596 *   ATTRIBUTES ARE TAKEN FROM DATA-NAME2 . IF DATA-NAME3                14466021
                                    3597 *   IS SPECIFIED ADDRESSING  PARAMETERS ARE CALCULATED.                 14472021
                                    3598 *   IF THE RECORD IS VARIABLE LENGTH A SPECIAL Q-RTN IS                 14478021
                                    3599 *   GENERATED FOR PH5. DICTIONARY ENTRY IS MADE FOR SUBJECT             14484021
                                    3600 *   OF CLAUSE                                                           14490021
                                    3601 *                                                                       14496021
                                    3602 *ENTRY POINT - RENAMS IS THE ONLY ENTRY POINT                           14502021
                                    3603 *                                                                       14508021
                                    3604 *INPUT       -  R7 POINTS TO OBJECT OF CLAUSE IN BUFFER                 14514021
                                    3605 *                                                                       14520021
                                    3606 *OUTPUT      -  Q-RTN VARIABLE LENGTH RECORD                            14526021
                                    3607 *               R7 POINTS TO NEXT ITEM IN BUFFER                        14532021
                                    3608 *                                                                       14538021
                                    3609 *EXTERNAL ROUTINES- LATGRP - RESOLVE QUALIFICATION                      14544021
                                    3610 *                   ENTDEL - ENTER DUMMY DELIMITORS                     14550021
                                    3611 *                   LDELNM - LOCATE DELIM GIVEN NAME                    14556021
                                    3612 *                   ENTNAM - ENTER NAME                                 14562021
                                    3613 *                                                                       14568021
                                    3614 *EXITS       -  RNM280  RETURNS TO CALLER                               14574021
                                    3615 *                                                                       14580021
                                    3616 *                                                                       14586021
                                    3617 * * * * * * * * * * * * * * * * * * * * * * * * * * * * * * * * *       14592021
                                    3618 *                                                                       14598021
                             02484  3619          USING  *,R15                                                   14604021
 002484                             3620 RENAMS   DS    0H                                                       14610021
 002484 50E0 DD98      0C2D8        3621          ST    R14,RNMSV1                                               14616021
 002488 50F0 DD9C      0C2DC        3622          ST    R15,RNMSV2                                               14622021
 00248C 9631 DDC5      0C305        3623          OI    RNAMSW,SWON         TURN SW ON                           14628021
 002490 1B66                        3624          SR    R6,R6                                                    14634021
 002492 4367 0001      00001        3625          IC    R6,DX1(R7)           GET COUNT OF NAME                   14640021
 002496 D71F DDEC DDEC 0C32C 0C32C  3626          XC    LITBUF(LX32),LITBUF  CLEAR AREA                          14646021
 00249C 4460 F57C      02A00        3627          EX    R6,RNAMMV           MOVE NAME TO SAVE                    14652021
 0024A0 9202 D688      0BBC8        3628          MVI   CILEV,XX02                                               14658021
 0024A4 5810 D444      0B984        3629          L     R1,CON24            LENGTH OF GROUP LNTH STACK           14664021
 0024A8 8910 0001      00001        3630          SLL   R1,DX1               MULTIPLY BY 1                       14670021
 0024AC D203 D684 B1B0 0BBC4 001B0  3631          MVC   DICPNT(LX4),DICPTR   MAKE SURE PTR IS CORRECT            14676021
 0024B2 5890 DAD4      0C014        3632 RNM020   L     R9,GPARAM                                                14682021
 0024B6 5899 0000      00000        3633          L     R9,DX0(R9)                                               14688021
 0024BA 4849 0004      00004        3634          LH    R4,DX4(R9)           DISPL INTO TABLE                    14694021
 0024BE 1941                        3635          CR    R4,R1               HAVE ALL BEEN DELEIITED              14700021
 0024C0 4780 F05A      024DE        3636          BE    RNM050              NO NEDD DELEMITING                   14706021
                                    3637 *                                                                       14712021
                                    3638 *                                                                       14718021
 0024C4 4740 F524      029A8        3639          BL    RNM191              BR ON LOW TO RENAME ERROR RTN        14724021
                                    3640 *                                                                       14730021
 0024C8 9019 DD70      0C2B0        3641          STM   R1,R9,RNMSV3                                             14736021
1PH20     IKFCBL20                                                                                              PAGE   93
-  LOC  OBJECT CODE    ADDR1 ADDR2  STMT   SOURCE STATEMENT                                       ASM 0201 11.03 02/14/15
00024CC 58F0 DC28      0C168        3642          L     R15,AXTEN                                                14742021
 0024D0 05EF                        3643          BALR  R14,R15             GO DELIMIT                           14748021
 0024D2 58F0 DD9C      0C2DC        3644          L     R15,RNMSV2                                               14754021
 0024D6 9819 DD70      0C2B0        3645          LM    R1,R9,RNMSV3                                             14760021
 0024DA 47F0 F02E      024B2        3646          B     RNM020              GO SEE IF ANY MORE                   14766021
 0024DE 5899 0000      00000        3647 RNM050   L     R9,DX0(R9)           A(TABLE)                            14772021
 0024E2 5A90 D444      0B984        3648          A     R9,CON24                                                 14778021
 0024E6 D202 DDD5 900D 0C315 0000D  3649          MVC   PARAM+NX1(LX3),DX13(R9) ENTER DUMMY FOR 01               14784021
 0024EC 4110 DDD4      0C314        3650          LA    R1,PARAM                             01                  14790021
 0024F0 9200 DDD4      0C314        3651          MVI   PARAM,XX00                                               14796021
 0024F4 D203 DDD8 B1B0 0C318 001B0  3652          MVC   PARAM1(LX4),DICPTR   LAST ITEM'S PTR                     14802021
 0024FA 58F0 DBF8      0C138        3653          L     R15,AENTDE                                               14808021
 0024FE 05EF                        3654          BALR  R14,R15             LNK TO ADDR IN REG 15                14814021
 002500 58F0 DD9C      0C2DC        3655          L     R15,RNMSV2                                               14820021
                                    3656 *                                                                       14826021
                                    3657 *                                                                       14832021
 002504 9523 7000      00000        3658          CLI   DX0(R7),XX23         IS IT NON-QUALIFIED                 14838021
 002508 4780 F114      02598        3659          BE    RENAME              YES                                  14844021
1PH20     IKFCBL20                                                                                              PAGE   94
-  LOC  OBJECT CODE    ADDR1 ADDR2  STMT   SOURCE STATEMENT                                       ASM 0201 11.03 02/14/15
0                                   3661 *=2  QUALIFIED OBJECT OF RENAMES CLAUSE                                 14856021
                                    3662 *                                                                       14862021
 00250C D71F DF10 DF10 0C450 0C450  3663 QRENMS   XC    WKAREA(LX32),WKAREA                                      14868021
 002512 4110 DF10      0C450        3664          LA    R1,WKAREA                                                14874021
 002516 5010 DDD4      0C314        3665          ST    R1,PARAM                                                 14880021
 00251A 9210 DDD4      0C314        3666          MVI   PARAM,XX10                                               14886021
 00251E 1B66                        3667          SR    R6,R6                                                    14892021
 002520 4367 0001      00001        3668          IC    R6,DX1(R7)                                               14898021
 002524 4460 F582      02A06        3669          EX    R6,RNMMOV                                                14904021
 002528 5810 DC74      0C1B4        3670          L     R1,APARAM                                                14910021
 00252C 58F0 DBF0      0C130        3671          L     R15,ALDELN                                               14916021
 002530 05EF                        3672          BALR  R14,R15             LNK TO ADDR IN REG 15                14922021
 002532 55F0 D3F4      0B934        3673          CL    R15,ZEROS                                                14928021
 002536 58F0 DD9C      0C2DC        3674          L     R15,RNMSV2                                               14934021
 00253A 4780 F0C4      02548        3675          BE    RNM100              NAME OK                              14940021
 00253E 9640 DDD2      0C312        3676          OI    ITMCL3,ICLRNT       DUMMY ERROR RTN BYPASS               14946021
 002542 4550 F536      029BA        3677          BAL   R5,RNMERR           LNK TO RENAME ERROR RTN              14952021
 002546 2012                        3678          DC    X'2012'                                                  14958021
 002548 58F0 DC88      0C1C8        3679 RNM100   L     R15,ASRCHT                                               14964021
 00254C 5850 DCB8      0C1F8        3680          L     R5,ACHNXT                                                14970021
 002550 0535                        3681          BALR  R3,R5               GET NEXT BUFFER                      14976021
 002552 58F0 DD9C      0C2DC        3682          L     R15,RNMSV2                                               14982021
 002556 D71F DF10 DF10 0C450 0C450  3683          XC    WKAREA(LX32),WKAREA                                      14988021
 00255C 4367 0001      00001        3684          IC    R6,DX1(R7)                                               14994021
 002560 4460 F582      02A06        3685          EX    R6,RNMMOV                                                15000021
 002564 9208 DDD4      0C314        3686          MVI   PARAM,XX08                                               15006021
 002568 5810 DC74      0C1B4        3687          L     R1,APARAM                                                15012021
 00256C 58F0 DBF4      0C134        3688          L     R15,ALATAC                                               15018021
 002570 05EF                        3689          BALR  R14,R15             LNK TO ADDR IN REG 15                15024021
 002572 55F0 D3F4      0B934        3690          CL    R15,ZEROS                                                15030021
 002576 58F0 DD9C      0C2DC        3691          L     R15,RNMSV2                                               15036021
 00257A 4780 F104      02588        3692          BE    RNM150              NAME OK                              15042021
 00257E 9640 DDD2      0C312        3693          OI    ITMCL3,ICLRNT       DUMMY ERROR RTN BYPASS               15048021
 002582 4550 F536      029BA        3694          BAL   R5,RNMERR           MSG 18                               15054021
 002586 2012                        3695          DC    X'2012'                                                  15060021
 002588 9523 7000      00000        3696 RNM150   CLI   DX0(R7),XX23         IS IT QUALIFIED NAME                15066021
 00258C 4770 F0C4      02548        3697          BNE   RNM100              NO, GO PROCESS REST                  15072021
 002590 5030 DD94      0C2D4        3698          ST    R3,RNMSAV           SAVE PTR FOR OBJECT                  15078021
 002594 47F0 F150      025D4        3699          B     RNMSYN              GO CHECK SYNTAX                      15084021
1PH20     IKFCBL20                                                                                              PAGE   95
-  LOC  OBJECT CODE    ADDR1 ADDR2  STMT   SOURCE STATEMENT                                       ASM 0201 11.03 02/14/15
0                                   3701 *=2  NON-QUALIFIED OBJECT OF RENAMES CLAUSE                             15096021
                                    3702 *                                                                       15102021
 002598 1B66                        3703 RENAME   SR    R6,R6                                                    15108021
 00259A 4367 0001      00001        3704          IC    R6,DX1(R7)           GET COUNT OF LAST ENTRY             15114021
 00259E 4110 DDEC      0C32C        3705          LA    R1,LITBUF                                                15120021
 0025A2 5010 DF10      0C450        3706          ST    R1,WKAREA                                                15126021
 0025A6 920C DF10      0C450        3707          MVI   WKAREA,XX0C                                              15132021
 0025AA 9200 DF14      0C454        3708          MVI   WKAREA+NX4,XX00                                          15138021
 0025AE D203 DF15 900D 0C455 0000D  3709          MVC   WKAREA+NX5,DX13(R9)                                      15144021
 0025B4 4110 DF10      0C450        3710          LA    R1,WKAREA                                                15150021
 0025B8 58F0 DBE8      0C128        3711          L     R15,ALATGP                                               15156021
 0025BC 05EF                        3712          BALR  R14,R15             LNK TO ADDR IN REG 15                15162021
 0025BE 55F0 D3F4      0B934        3713          CL    R15,ZEROS                                                15168021
 0025C2 5030 DD94      0C2D4        3714          ST    R3,RNMSAV           SAVE PTR FOR OBJECT                  15174021
 0025C6 58F0 DD9C      0C2DC        3715          L     R15,RNMSV2                                               15180021
 0025CA 4780 F150      025D4        3716        BE      RNMSYN              GO CHECK SYNTAX                      15186021
 0025CE 4550 F536      029BA        3717          BAL   R5,RNMERR           GENERATE MSG 18                      15192021
 0025D2 2012                        3718          DC    X'2012'                                                  15198021
1PH20     IKFCBL20                                                                                              PAGE   96
-  LOC  OBJECT CODE    ADDR1 ADDR2  STMT   SOURCE STATEMENT                                       ASM 0201 11.03 02/14/15
0                                   3720 *=2  RENAMES SYNTAX CHECKING                                            15210021
                                    3721 *                                                                       15216021
                                    3722 *=E  OBJECT IS 01,66, 77 OR 88                                          15222021
                                    3723 *=E  OBJECT IS NOT IN SAME LOGICAL RECORD                               15228021
                                    3724 *=E  ITEM HAS OCCURS OR REDEFINES CLAUSE                                15234021
                                    3725 *=E  ITEM IS SUBORDINATE TO GROUP WHICH HAS OCCURS OR REDEFINES         15240021
                                    3726 *    CLAUSE                                                             15246021
                                    3727 *                                                                       15252021
 0025D4 D502 DD95 900D 0C2D5 0000D  3728 RNMSYN   CLC   RNMSAV+NX1(LX3),DX13(R9) IN SAME LOGICAL RECORD          15258021
 0025DA 4740 F524      029A8        3729          BL    RNM191              NO, ERROR                            15264021
 0025DE 4780 F51E      029A2        3730          BE    RNM190              MUST BE 01                           15270021
 0025E2 950C 2000      00000        3731 RNM230   CLI   DX0(R2),XX0C         IS IT CONDITION NAME                15276021
 0025E6 4780 F51E      029A2        3732          BE    RNM190              BRH ON = TO RENAME ERROR RTN         15282021
 0025EA 1B44                        3733          SR    R4,R4                                                    15288021
 0025EC 4342 0006      00006        3734          IC    R4,DX6(R2)                                               15294021
 0025F0 8A40 0002      00002        3735          SRA   R4,DX2                                                   15300021
 0025F4 5540 D3F8      0B938        3736          CL    R4,ONE                                                   15306021
 0025F8 4780 F51E      029A2        3737          BE    RNM190              BRH ON = TO RENAME ERROR RTN         15312021
 0025FC 5540 D450      0B990        3738          CL    R4,FIFTY                                                 15318021
 002600 4780 F51E      029A2        3739          BE    RNM190              BRH ON = TO RENAME ERROR RTN         15324021
 002604 5540 D454      0B994        3740          CL    R4,FIFTY1           IS IT 88                             15330021
 002608 4780 F51E      029A2        3741          BE    RNM190              YES, ERROR                           15336021
 00260C 5540 D458      0B998        3742          CL    R4,FIFTY7           IS IT 66                             15342021
 002610 4780 F51E      029A2        3743          BE    RNM190              YES, ERROR                           15348021
 002614 910E 2001      00001        3744          TM    DX1(R2),XX0E         OCCURS CLAUSE                       15354021
 002618 4770 F52A      029AE        3745          BC    NOTZER,RNM192       YES, ERROR                           15360021
 00261C 9140 DDD2      0C312        3746          TM    ITMCL3,ICLRNT       RENAMES THRU                         15366021
 002620 4780 F1AE      02632        3747          BZ    RNM235              BRH ON 0 TO RENAME ERROR RTN         15372021
 002624 9131 DDC6      0C306        3748          TM    RNTHRU,SWON                                              15378021
 002628 4780 F24C      026D0        3749          BZ    RNM300              1ST RENAMES ENTRY                    15384021
 00262C D700 DDC6 DDC6 0C306 0C306  3750          XC    RNTHRU(LX1),RNTHRU   TURN OFF SW                         15390021
 002632 4342 0000      00000        3751 RNM235   IC    R4,DX0(R2)           GET ATTRIBUTE COUNT                 15396021
 002636 8840 0004      00004        3752          SRL   R4,DX4               GET RID OF MAJOR CODE               15402021
 00263A 91F0 2000      00000        3753          TM    DX0(R2),XXF0                                             15408021
 00263E 4770 F1C6      0264A        3754          BC    NOTZER,RNM240       COUNT IS CORRECT                     15414021
 002642 4342 0007      00007        3755          IC    R4,DX7(R2)           COUNT FOR REPORT DIFFERENT          15420021
 002646 4144 0008      00008        3756          LA    R4,DX8(R4)           FIXED PORTION OF RECORD             15426021
 00264A 1B55                        3757 RNM240   SR    R5,R5                                                    15432021
 00264C 4352 0001      00001        3758          IC    R5,DX1(R2)                                               15438021
 002650 8850 0004      00004        3759          SRL   R5,DX4                                                   15444021
 002654 9204 DCFC      0C23C        3760          MVI   CICODE,XX04                                              15450021
 002658 5550 D3F8      0B938        3761          CL    R5,ONE                                                   15456021
 00265C 4780 F1F4      02678        3762          BE    RNM250              NO                                   15462021
 002660 5550 D404      0B944        3763          CL    R5,FOUR                                                  15468021
 002664 4780 F1F4      02678        3764          BE    RNM250              NO                                   15474021
 002668 9200 DCFC      0C23C        3765          MVI   CICODE,XX00                                              15480021
 00266C 9140 DDD2      0C312        3766          TM    ITMCL3,ICLRNT       RENAMES THRU                         15486021
 002670 4780 F1F4      02678        3767          BZ    RNM250              NO, ELEMENTARY                       15492021
 002674 4140 0009      00009        3768          LA    R4,DX9               YES, TREAT LIKE GROUP               15498021
                                    3769 *                                                                       15504021
                                    3770 *                                                                       15510021
                                    3771 *                                                                       15516021
                                    3772 *                                                                       15522021
 002678 4240 DD00      0C240        3773 RNM250   STC   R4,ATRCNT           ATTRIBUTE COUNT                      15528021
 00267C 4440 F588      02A0C        3774          EX    R4,RNMATT           MOVE ATTRIBUTES                      15534021
1PH20     IKFCBL20                                                                                              PAGE   97
-  LOC  OBJECT CODE    ADDR1 ADDR2  STMT   SOURCE STATEMENT                                       ASM 0201 11.03 02/14/15
0002680 9140 DDD2      0C312        3775          TM    ITMCL3,ICLRNT       RENAMES THRU                         15540021
 002684 4780 F20C      02690        3776          BZ    RNM260              NO                                   15546021
 002688 9131 DDC6      0C306        3777          TM    RNTHRU,SWON         RENAMES THRU                         15552021
 00268C 4780 F2CE      02752        3778          BZ    RNM340              ASSIGN ADD. PARAMETERS               15558021
 002690 9401 D612      0BB52        3779 RNM260   NI    ATTRIB+NX6,XX01     BE SURE Q-BIT IS OFF           55191 15564021
 002694 96E4 D612      0BB52        3780          OI    ATTRIB+NX6,XXE4      SET LEVEL NUM = 66                  15570021
 002698 4110 DCFC      0C23C        3781          LA    R1,CIPARM                                                15576021
 00269C 58F0 DBFC      0C13C        3782          L     R15,AENTNM                                               15582021
 0026A0 05EF                        3783          BALR  R14,R15             LNK TO ADDR IN REG 15                15588021
 0026A2 58F0 DD9C      0C2DC        3784          L     R15,RNMSV2                                               15594021
 0026A6 5010 D684      0BBC4        3785          ST    R1,DICTPT                                                15600021
 0026AA 5010 DF44      0C484        3786          ST    R1,REALPTR                                               15606021
 0026AE 9180 B1A4      001A4        3787          TM    PHZSW1,XREF         XREF SPECIFIED                       15612021
 0026B2 4780 F23C      026C0        3788          BZ    RNM270              NO                                   15618021
 0026B6 4110 D5EC      0BB2C        3789          LA    R1,CI               YES                                  15624021
 0026BA 58F0 DCA4      0C1E4        3790          L     R15,AXREF                                                15630021
 0026BE 05EF                        3791          BALR  R14,R15             GO GENERATE XREF                     15636021
 0026C0 58F0 DC88      0C1C8        3792 RNM270   L     R15,ASRCHT                                               15642021
 0026C4 5850 DCB8      0C1F8        3793          L     R5,ACHNXT                                                15648021
 0026C8 0535                        3794          BALR  R3,R5               GO GET NEXT ENTRY                    15654021
 0026CA 58E0 DD98      0C2D8        3795 RNM280   L     R14,RNMSV1                                               15660021
 0026CE 07FE                        3796          BR    R14                 RETURN                               15666021
1PH20     IKFCBL20                                                                                              PAGE   98
-  LOC  OBJECT CODE    ADDR1 ADDR2  STMT   SOURCE STATEMENT                                       ASM 0201 11.03 02/14/15
0                                   3798 *=2  PROCESS SUBJECT OF RENAMES THRU CLAUSE                             15678021
                                    3799 *                                                                       15684021
 0026D0                             3800 RNM300   DS    0H                  RENAMES THRU CLAUSE                  15690021
 0026D0 9631 DDC6      0C306        3801          OI    RNTHRU,SWON         TURN SW ON                           15696021
 0026D4 D203 DDA0 DD94 0C2E0 0C2D4  3802          MVC   RNMPTR(LX4),RNMSAV   SAVE PTR                            15702021
 0026DA D202 DDBD 2002 0C2FD 00002  3803          MVC   RNMADP(LX3),DX2(R2)   SAVE ADD. PARM.                    15708021
 0026E0 1B33                        3804          SR    R3,R3                                                    15714021
 0026E2 4332 0001      00001        3805          IC    R3,DX1(R2)           GET MINOR CODE                      15720021
 0026E6 8830 0004      00004        3806          SRL   R3,DX4               SHIFT OUT MAJOR CODE                15726021
 0026EA 5530 D3F8      0B938        3807          CL    R3,ONE              FIXED LENGTH GROUP                   15732021
 0026EE 4780 F27A      026FE        3808          BE    RNM310              YES                                  15738021
 0026F2 5530 D404      0B944        3809          CL    R3,FOUR             VARIABLE LENGTH GROUP                15744021
 0026F6 4770 F290      02714        3810          BNE   RNM320              NO                                   15750021
 0026FA 9631 DDC7      0C307        3811          OI    RNMVAR,SWON         TURN VARIABLE SW ON                  15756021
 0026FE 9631 DDC4      0C304        3812 RNM310   OI    RNMGRP,SWON         TURN GROUP SW ON                     15762021
 002702 1832                        3813          LR    R3,R2                                                    15768021
 002704 1B36                        3814          SR    R3,R6               MINUS COUNT OF NAME                  15774021
 002706 5B30 D404      0B944        3815          S     R3,FOUR             MINUS FIXED COUNT                    15780021
 00270A D202 DDC1 3000 0C301 00000  3816          MVC   RNMDL1(LX3),DX0(R3)                                      15786021
 002710 943F DDC1      0C301        3817          NI    RNMDL1,XX3F          TURN OFF HIGH BITS                  15792021
 002714 9140 2002      00002        3818 RNM320   TM    DX2(R2),XX40         AFTER ODO                           15798021
 002718 4780 F29C      02720        3819          BZ    RNM330              BRH ON 0 TO RENAME ERROR RTN         15804021
 00271C 9631 DDC7      0C307        3820          OI    RNMVAR,SWON         TURN VARIABLE SW ON                  15810021
 002720 58F0 DC88      0C1C8        3821 RNM330   L     R15,ASRCHT          GO GET NEXT ELEMENT                  15816021
 002724 5850 DCB8      0C1F8        3822          L     R5,ACHNXT                                                15822021
 002728 0535                        3823          BALR  R3,R5               LINK TO ADDR IN REG 5                15828021
 00272A 58F0 DD9C      0C2DC        3824          L     R15,RNMSV2                                               15834021
 00272E 1B66                        3825          SR    R6,R6                                                    15840021
 002730 4367 0001      00001        3826          IC    R6,DX1(R7)           GET COUNT OF NAME                   15846021
 002734 D71F DDEC DDEC 0C32C 0C32C  3827          XC    LITBUF(LX32),LITBUF  CLEAR AREA                          15852021
 00273A 4460 F57C      02A00        3828          EX    R6,RNAMMV           MOVE NAME TO SAVE                    15858021
 00273E 9523 7000      00000        3829          CLI   DX0(R7),XX23         REGULAR RENAMES                     15864021
 002742 4780 F114      02598        3830          BE    RENAME              YES                                  15870021
 002746 9522 7000      00000        3831          CLI   DX0(R7),XX22         QUAL RENAMES                        15876021
 00274A 4780 F088      0250C        3832          BE    QRENMS              YES                                  15882021
 00274E 47F0 F246      026CA        3833          B     RNM280              NO, ERROR GO OUT                     15888021
1PH20     IKFCBL20                                                                                              PAGE   99
-  LOC  OBJECT CODE    ADDR1 ADDR2  STMT   SOURCE STATEMENT                                       ASM 0201 11.03 02/14/15
0                                   3835 *=2  PROCESSES OBJECT OF RENAMES THRU CLAUSE AND DETERMINES             15900021
                                    3836 *    ADDRESSING PARAMETER FOR RENAMES CLAUSE                            15906021
                                    3837 *                                                                       15912021
 002752                             3838 RNM340   DS    0H                                                       15918021
 002752 9131 DDC4      0C304        3839          TM    RNMGRP,SWON         WAS SUBJECT GROUP                    15924021
 002756 4780 F2EA      0276E        3840          BZ    RNM345              NO                                   15930021
 00275A D700 DDC4 DDC4 0C304 0C304  3841          XC    RNMGRP(LX1),RNMGRP   TURN OFF GROUP SW                   15936021
 002760 5930 DDC0      0C300        3842          C     R3,RNMDEL           YES, SEE IF SUBORDINATE              15942021
 002764 47B0 F2EA      0276E        3843          BNL   RNM345              NOT SUBORDINATE                      15948021
 002768 4550 F536      029BA        3844          BAL  R5,RNMERR            YES, ERROR                           15954021
 00276C 2089                        3845          DC    X'2089'                                                  15960021
 00276E D503 DD94 DDA0 0C2D4 0C2E0  3846 RNM345   CLC   RNMSAV(LX4),RNMPTR   DOES OBJECT FOLLOW SUBJECT          15966021
 002774 47D0 F530      029B4        3847          BNH   RNM193              NO, ERROR                            15972021
 002778 D202 D60E DDBD 0BB4E 0C2FD  3848          MVC   ATTRIB+NX2(LX3),RNMADP YES, GET ADD PARM OF 1ST          15978021
 00277E 1B11                        3849          SR    R1,R1                                                    15984021
 002780 4310 DDBF      0C2FF        3850          IC    R1,RNMADP+NX2                                            15990021
 002784 1B33                        3851          SR    R3,R3                                                    15996021
 002786 9131 DDC7      0C307        3852          TM    RNMVAR,SWON         DATANAME2 VARIABLE                   16002021
 00278A 4710 F324      027A8        3853          BO    RNM347              YES                                  16008021
 00278E 9140 2002      00002        3854          TM    DX2(R2),XX40         DATANAME3 VARIABLE                  16014021
 002792 4780 F31A      0279E        3855          BZ    RNM346              BRH ON 0 TO RENAME ERROR RTN         16020021
 002796 9631 DDC7      0C307        3856         OI     RNMVAR,SWON         YES, SET SW ON                       16026021
 00279A 47F0 F324      027A8        3857          B     RNM347              BRH TO RENAME ERROR RTN              16032021
 00279E 4332 0004      00004        3858 RNM346   IC    R3,DX4(R2)           GET BL NUMBER OF CURRENT            16038021
 0027A2 1B31                        3859          SR    R3,R1                                                    16044021
 0027A4 8930 000C      0000C        3860          SLL   R3,DX12              MULTIPLY BY 4096                    16050021
 0027A8 D201 DDB8 2002 0C2F8 00002  3861 RNM347   MVC   RNMADD(LX2),DX2(R2)                                      16056021
 0027AE 940F DDB8      0C2F8        3862          NI    RNMADD,XX0F                                              16062021
 0027B2 4840 DDB8      0C2F8        3863          LH    R4,RNMADD                                                16068021
 0027B6 940F DDBD      0C2FD        3864          NI    RNMADP,XX0F          CLEAR DISPL OF 1ST                  16074021
 0027BA D201 DDB6 DDBD 0C2F6 0C2FD  3865          MVC   RNMAD2(LX2),RNMADP   MOVE ADD. PARAMETER                 16080021
 0027C0 4B40 DDB6      0C2F6        3866          SH    R4,RNMAD2           R4 CONTAINS DIFF                     16086021
 0027C4 1A43                        3867          AR    R4,R3               BL'S + DISPL                         16092021
 0027C6 5040 DDBC      0C2FC        3868          ST    R4,RNMAD1                                                16098021
 0027CA D203 DDA8 D3F4 0C2E8 0B934  3869 RNAMLT   MVC   RNMTMP(LX4),ZEROS    CLEAR AREA                          16104021
 0027D0 1B55                        3870          SR    R5,R5                                                    16110021
 0027D2 4352 0001      00001        3871          IC    R5,DX1(R2)           GET MINOR CODE                      16116021
 0027D6 8A50 0004      00004        3872          SRA   R5,DX4                                                   16122021
 0027DA 8B50 0002      00002        3873          SLA   R5,DX2               MULTIPLY BY 4                       16128021
 0027DE 47F5 F35E      027E2        3874          B     RNMLNT(R5)          GO TO GET PROPER LENGTH              16134021
                                    3875 *                                                                       16140021
                                    3876 *  BRANCHING TABLE TO CALCULATE LENGTH OF OBJECT OF RENAMES             16146021
                                    3877 *  THRU CLAUSE                                                          16152021
                                    3878 *                                                                       16158021
                                    3879 *                                                                       16164021
                             027E2  3880 RNMLNT   EQU   *                                                        16170021
 0027E2 47F0 F576      029FA        3881          B     RNM350              UNASSIGNED                           16176021
 0027E6 47F0 F39E      02822        3882          B     RNM355              GROUP FIXED                          16182021
 0027EA 47F0 F3AC      02830        3883          B     RNM360              ALPHABETIC                           16188021
 0027EE 47F0 F3AC      02830        3884          B     RNM360              AN                                   16194021
 0027F2 47F0 F3B6      0283A        3885          B     RNM365              VAR. GROUP                           16200021
 0027F6 47F0 F3C8      0284C        3886          B     RNM370              RPT                                  16206021
 0027FA 47F0 F3C8      0284C        3887          B     RNM370              STR.RPT.                             16212021
 0027FE 47F0 F400      02884        3888          B     RNM390              INDEX DATA NEME                      16218021
 002802 47F0 F3DC      02860        3889          B     RNM380              EXT DEC.                             16224021
1PH20     IKFCBL20                                                                                              PAGE  100
-  LOC  OBJECT CODE    ADDR1 ADDR2  STMT   SOURCE STATEMENT                                       ASM 0201 11.03 02/14/15
0002806 47F0 F3DC      02860        3890          B     RNM380              EXT FLT. PNT.                        16230021
 00280A 47F0 F3E6      0286A        3891          B     RNM385              INT FLT. PNT.                        16236021
 00280E 47F0 F400      02884        3892          B     RNM390              BIN                                  16242021
 002812 47F0 F424      028A8        3893          B     RNM392              INTERNAL DECIMAL                     16248021
 002816 47F0 F43A      028BE        3894          B     RNM394              STERLING NON-RPT                     16254021
 00281A 47F0 F3D2      02856        3895          B     RNM375           ALPHANUMERIC EDITED               52745 16260021
 00281E 47F0 F576      029FA        3896          B     RNM350              E                                    16266021
 002822 D202 DDA9 2006 0C2E9 00006  3897 RNM355   MVC   RNMTM1(LX3),DX6(R2)   MOVE LENGTH                        16272021
 002828 9401 DDA9      0C2E9        3898          NI    RNMTM1,XX01          ZERO OUT                            16278021
 00282C 47F0 F462      028E6        3899          B     RNM400              FINISH PROCESSING                    16284021
 002830 D201 DDAA 2007 0C2EA 00007  3900 RNM360   MVC   RNMTM2(LX2),DX7(R2)   LENGTH IN BITS 48-63               16290021
 002836 47F0 F462      028E6        3901          B     RNM400              FINISH PROCESSING                    16296021
 00283A D201 DDA0 2007 0C2E0 00007  3902 RNM365   MVC   RNMVLC(LX2),DX7(R2)   VLC IN BITS 60-63                  16302021
 002840 9631 DDC7      0C307        3903          OI    RNMVAR,SWON         SET VARIABLE SW ON                   16308021
 002844 940F DDA0      0C2E0        3904          NI    RNMVLC,XX0F          ZERO OUT HIGH ORDER                 16314021
 002848 47F0 F462      028E6        3905          B     RNM400              FINISH PROCESSING                    16320021
 00284C D200 DDAB 200B 0C2EB 0000B  3906 RNM370   MVC   RNMTM3(LX1),DX11(R2)     LGN IN BITS 88 - 95       52745 16326021
 002852 47F0 F462      028E6        3907          B     RNM400              FINISH PROCESSING                    16332021
 002856 D201 DDAA 2009 0C2EA 00009  3908 RNM375   MVC   RNMTM2(LX2),DX9(R2)      LGN IN BITS 72 - 87       52745 16338021
 00285C 47F0 F462      028E6        3909          B     RNM400              FINISH PROCESSING                    16344021
 002860 D200 DDAB 2008 0C2EB 00008  3910 RNM380   MVC   RNMTM3(LX1),DX8(R2)   LENGTH IN BITS 64-71               16350021
 002866 47F0 F462      028E6        3911          B     RNM400              FINISH PROCESSING                    16356021
 00286A 1B33                        3912 RNM385   SR    R3,R3                                                    16362021
 00286C 9101 2008      00008        3913          TM    DX8(R2),XX01         DOUBLE WORD                         16368021
 002870 4780 F3F4      02878        3914          BZ    RNM387              NO                                   16374021
 002874 4130 0004      00004        3915          LA    R3,DX4                                                   16380021
 002878 4133 0004      00004        3916 RNM387   LA    R3,DX4(R3)                                               16386021
 00287C 5030 DDA8      0C2E8        3917          ST    R3,RNMTMP                                                16392021
 002880 47F0 F462      028E6        3918          B     RNM400              BRH TO RENAME ERROR RTN              16398021
 002884 4130 0002      00002        3919 RNM390   LA    R3,DX2                                                   16404021
 002888 9505 2008      00008        3920          CLI   DX8(R2),XX05         HALFWORD                            16410021
 00288C 4740 F41C      028A0        3921          BL    RNM391              BR ON LOW TO RENAME ERROR RTN        16416021
 002890 4133 0002      00002        3922          LA    R3,DX2(R3)           AT LEAST FULL WORD                  16422021
 002894 950A 2008      00008        3923          CLI   DX8(R2),XX0A         FULL WORD                           16428021
 002898 4740 F41C      028A0        3924          BL    RNM391              BR ON LOW TO RENAME ERROR RTN        16434021
 00289C 4133 0004      00004        3925          LA    R3,DX4(R3)           DOUBLE WORD                         16440021
 0028A0 5030 DDA8      0C2E8        3926 RNM391   ST    R3,RNMTMP                                                16446021
 0028A4 47F0 F462      028E6        3927          B     RNM400              BRH TO RENAME ERROR RTN              16452021
 0028A8 1B44                        3928 RNM392   SR    R4,R4                                                    16458021
 0028AA 4342 0008      00008        3929          IC    R4,DX8(R2)                                               16464021
 0028AE 4144 0002      00002        3930          LA    R4,DX2(R4)                                               16470021
 0028B2 8A40 0001      00001        3931          SRA   R4,DX1                                                   16476021
 0028B6 5040 DDA8      0C2E8        3932          ST    R4,RNMTMP                                                16482021
 0028BA 47F0 F462      028E6        3933          B     RNM400              BRH TO RENAME ERROR RTN              16488021
 0028BE 9106 2001      00001        3934 RNM394   TM    DX1(R2),XX06         IS THERE PTR                        16494021
 0028C2 4740 F458      028DC        3935          BM    RNM396              YES                                  16500021
 0028C6 9108 2001      00001        3936          TM    DX1(R2),XX08                                             16506021
 0028CA 4710 F458      028DC        3937          BO    RNM396              YES                                  16512021
 0028CE D200 DDAB 2009 0C2EB 00009  3938          MVC   RNMTM3(LX1),DX9(R2)   LENGTH IN BITS 75-76               16518021
 0028D4 941F DDAB      0C2EB        3939          NI    RNMTM3,XX1F          ZERO 3 HIGH ORDER BITS              16524021
 0028D8 47F0 F462      028E6        3940          B     RNM400              BRH TO RENAME ERROR RTN              16530021
 0028DC D200 DDAB 200C 0C2EB 0000C  3941 RNM396   MVC   RNMTM3(LX1),DX12(R2)  LENGTH IN BITS 99-103              16536021
 0028E2 941F DDAB      0C2EB        3942          NI    RNMTM3,XX1F                                              16542021
                                    3943 *                                                                       16548021
                                    3944 * ALL ROUTINES BRANCH HERE TO DO COMMON PROCESSING                      16554021
1PH20     IKFCBL20                                                                                              PAGE  101
-  LOC  OBJECT CODE    ADDR1 ADDR2  STMT   SOURCE STATEMENT                                       ASM 0201 11.03 02/14/15
0                                   3945 *                                                                       16560021
 0028E6 5840 DDBC      0C2FC        3946 RNM400   L     R4,RNMAD1                                                16566021
 0028EA 5A40 DDA8      0C2E8        3947          A     R4,RNMTMP           LNGTH = RNMAD1+LENGTH OF OBJECT      16572021
 0028EE 5040 DDA8      0C2E8        3948          ST    R4,RNMTMP                                                16578021
 0028F2 940F D60C      0BB4C        3949          NI    ATTRIB,XX0F                                              16584021
 0028F6 9690 D60C      0BB4C        3950          OI    ATTRIB,XX90          SET COUNT TO NINE                   16590021
 0028FA 9131 DDC7      0C307        3951          TM    RNMVAR,SWON         Q-RTN NEEDED                         16596021
 0028FE 4710 F494      02918        3952          BO    RNM450              YES                                  16602021
 002902 940F D60D      0BB4D        3953          NI    ATTRIB+NX1,XX0F                                          16608021
 002906 9610 D60D      0BB4D        3954          OI    ATTRIB+NX1,XX10      FIXED LENGTH GROUP                  16614021
 00290A D201 D613 DDAA 0BB53 0C2EA  3955          MVC   ATTRIB+NX7(LX2),RNMTM2 APPEND PROPER LENGTH              16620021
 002910 94E6 D612      0BB52        3956          NI    ATTRIB+NX6,XXE6      SET LEVEL NUM = 66                  16626021
 002914 47F0 F20C      02690        3957          B     RNM260              GO RETURN TO CALLER                  16632021
 002918 D210 D960 D57F 0BEA0 0BABF  3958 RNM450   MVC   QTEXT(LX17),RNMQRN   MOVE Q-RTN TEXT                     16638021
 00291E D700 DDC7 DDC7 0C307 0C307  3959          XC    RNMVAR,RNMVAR       TURN OFF VARIABLE SW                 16644021
 002924 4840 B17C      0017C        3960          LH    R4,VLCCTR                                                16650021
 002928 4144 0001      00001        3961          LA    R4,DX1(R4)           BUMP VLC BY 1                       16656021
 00292C 4040 D964      0BEA4        3962          STH   R4,QTEXT+NX4         SAVE VLC NUMBER                     16662021
 002930 4040 B17C      0017C        3963          STH   R4,VLCCTR                                                16668021
 002934 D201 D613 B17C 0BB53 0017C  3964          MVC   ATTRIB+NX7(LX2),VLCCTR    SET UP ATTRIBUTES              16674021
 00293A 940F D60D      0BB4D        3965          NI    ATTRIB+NX1,XX0F      SAVE FLAG BYTE                      16680021
 00293E 9640 D60D      0BB4D        3966          OI    ATTRIB+NX1,XX40      SET FOR VARIABLE LENGTH GROUP       16686021
 002942 9140 D60E      0BB4E        3967          TM    ATTRIB+NX2,XX40      SBL FOR DATANAME 2                  16692021
 002946 4780 F4CA      0294E        3968          BZ    RNM455              NO                                   16698021
 00294A 9604 D96C      0BEAC        3969          OI    QTEXT+NX12,XX04      SET INDICATOR ON                    16704021
 00294E 9140 2002      00002        3970 RNM455   TM    DX2(R2),XX40         DATANAME3 SBL                       16710021
 002952 4780 F4D6      0295A        3971          BZ    RNM460              NO                                   16716021
 002956 9604 D968      0BEA8        3972          OI    QTEXT+NX8,XX04       YES, SET INDICATOR ON               16722021
 00295A D200 D96D D610 0BEAD 0BB50  3973 RNM460   MVC   QTEXT+NX13(LX1),ATTRIB+NX4 MOVE LOCATOR COUNTER          16728021
 002960 D200 D969 2004 0BEA9 00004  3974          MVC   QTEXT+NX9(LX1),DX4(R2)                                   16734021
 002966 4130 0014      00014        3975          LA    R3,DX20              MIMIMUM COUNT                       16740021
 00296A 4140 D971      0BEB1        3976          LA    R4,QTEXT+NX17        NEXT FIELD                          16746021
 00296E 5550 D434      0B974        3977          CL    R5,CON16            VLC FOR DATANAME3                    16752021
 002972 4770 F506      0298A        3978          BNE   RNM470              NO                                   16758021
 002976 D201 D96E D581 0BEAE 0BAC1  3979          MVC   QTEXT+NX14(LX2),RNMQRN+NX2 YES, MOVE VLC HEADER          16764021
 00297C D201 D970 DDA0 0BEB0 0C2E0  3980          MVC   QTEXT+NX16(LX2),RNMVLC  MOVE VLCCTR                      16770021
 002982 4133 0001      00001        3981          LA    R3,DX1(R3)           BUMP COUNT                          16776021
 002986 4144 0001      00001        3982          LA    R4,DX1(R4)           UPDATE PTR                          16782021
 00298A 92BB 4000      00000        3983 RNM470   MVI   DX0(R4),XXBB         BUNARY LITERAL                      16788021
 00298E D201 4001 DDAA 00001 0C2EA  3984          MVC   DX1(LX2,R4),RNMTM2    LENGTH                             16794021
 002994 58F0 DC18      0C158        3985          L     R15,APTQRN                                               16800021
 002998 05EF                        3986          BALR  R14,R15             PUT OUT Q-RTN                        16806021
 00299A 58F0 DD9C      0C2DC        3987          L     R15,RNMSV2                                               16812021
 00299E 47F0 F20C      02690        3988          B     RNM260              GO FINISH PROCESSING                 16818021
1PH20     IKFCBL20                                                                                              PAGE  102
-  LOC  OBJECT CODE    ADDR1 ADDR2  STMT   SOURCE STATEMENT                                       ASM 0201 11.03 02/14/15
0                                   3990 *=E  RENAMES ERROR ROUTINES                                             16830021
                                    3991 *                                                                       16836021
 0029A2 4550 F536      029BA        3992 RNM190   BAL   R5,RNMERR           LNK TO RENAME ERROR ROUTINE          16842021
 0029A6 2016                        3993          DC    X'2016'             MSG 22                               16848021
 0029A8 4550 F536      029BA        3994 RNM191   BAL   R5,RNMERR           LNK TO RENAME ERROR ROUTINE          16854021
 0029AC 20BB                        3995          DC    X'20BB'             MSG 187                              16860021
 0029AE 4550 F536      029BA        3996 RNM192   BAL   R5,RNMERR           LNK TO RENAME ERROR ROUTINE          16866021
 0029B2 20A0                        3997          DC    X'20A0'             MSG 160                              16872021
 0029B4 4550 F536      029BA        3998 RNM193   BAL   R5,RNMERR           LNK TO RENAME ERROR ROUTINE          16878021
 0029B8 20B9                        3999          DC    X'20B9'             MSG 185                              16884021
 0029BA 4805 0000      00000        4000 RNMERR   LH    R0,DX0(R5)                                               16890021
 0029BE 58F0 DBC0      0C100        4001          L     R15,AERRTN                                               16896021
 0029C2 05EF                        4002          BALR  R14,R15             WRITE ERROR MESSAGE                  16902021
 0029C4 58F0 DD9C      0C2DC        4003          L     R15,RNMSV2                                               16908021
 0029C8 D700 DDC5 DDC5 0C305 0C305  4004          XC    RNAMSW,RNAMSW       TURN OFF SW                          16914021
 0029CE 9140 DDD2      0C312        4005 ENDRNM   TM    ITMCL3,ICLRNT       WAS IT RENAMES THRU                  16920021
 0029D2 4780 F23C      026C0        4006          BZ    RNM270              NO                                   16926021
 0029D6 D700 DDC6 DDC6 0C306 0C306  4007          XC    RNTHRU(LX1),RNTHRU   TURN OFF SW                         16932021
 0029DC 4367 0001      00001        4008 ENDRN1   IC    R6,DX1(R7)           COUNT OF NAME                       16938021
 0029E0 58F0 DC88      0C1C8        4009          L     R15,ASRCHT                                               16944021
 0029E4 5850 DCB8      0C1F8        4010          L     R5,ACHNXT                                                16950021
 0029E8 0535                        4011          BALR  R3,R5               GET NEXT ELEMENT                     16956021
 0029EA 58F0 DD9C      0C2DC        4012          L     R15,RNMSV2                                               16962021
 0029EE 9122 7000      00000        4013          TM    DX0(R7),XX22         STILL RENAMES                       16968021
 0029F2 4710 F558      029DC        4014          BO    ENDRN1              YESC                                 16974021
 0029F6 47F0 F246      026CA        4015          B     RNM280              NO, GO OUT                           16980021
                                    4016 *     COMPILER ERROR - MINOR CODE IS ILLEGAL                            16986021
                                    4017 *                                                                       16992021
 0029FA 4550 F536      029BA        4018 RNM350   BAL   R5,RNMERR           MSG 74                               16998021
 0029FE 804A                        4019          DC    X'804A'             MSG 74                               17004021
 002A00 D200 DDEC 7001 0C32C 00001  4020 RNAMMV   MVC   LITBUF(LX1),DX1(R7)                                      17010021
 002A06 D200 DF10 7001 0C450 00001  4021 RNMMOV   MVC   WKAREA(LX1),DX1(R7)                                      17016021
 002A0C D200 D60C 2000 0BB4C 00000  4022 RNMATT   MVC   ATTRIB(LX1),DX0(R2)                                      17022021
1PH20     IKFCBL20                                                                                              PAGE  103
-  LOC  OBJECT CODE    ADDR1 ADDR2  STMT   SOURCE STATEMENT                                       ASM 0201 11.03 02/14/15
0                                   4024 *=1    FD NAME PROCESSOR - FSTEXT                                       17034021
                                    4025 *=1    FD NAME PROCESSOR - FSTEXT                                       17040021
                                    4026 *TITLE 'FSTEXT'- FD NAME PROCESSOR                                      17046021
                                    4027 *FUNCTION/OPERATION- RESERVES SPACE, DEFINES, AND SETS UP CONSTANT      17052021
                                    4028 *   FOR DCB'S AND DECB'S FOR QSAM, QISAM, BISAM, BSAM, AND BDAM ACC     17058021
                                    4029 *   METHODS. SETS UP THE DICTIONARY ENTRY FOR AN FD. CALLS A SUB-       17064021
                                    4030 *   ROUTINE-ACCMET- TO CHECK I/O CLAUSES AND TO FILL IN INFORMATION     17070021
                                    4031 *   (GOTTEN FROM THE CLAUSES) IN DCB,DECB, AND FD DICTIONARY ENTRY.     17076021
                                    4032 *ENTRY POINT- FSTEXT-IS ONLY ENTRY POINT AND IS ENTERED BY              17082021
                                    4033 *                             BC   EQ,FSTEXT                            17088021
                                    4034 *                   FROM THE FILEST  RTN.                               17094021
                                    4035 *                   REG 7 IS PASSED TO FSTEXT WITH ADDRESS OF THE       17100021
                                    4036 *                   IC-TEXT BUFFER.                                     17106021
                                    4037 *INPUT-  REG 7  POINTS TO FD IC-TEXT IN FILE 3 BUFFER.                  17112021
                                    4038 *OUTPUT-  DCBADEF     -DCB ADDRESS DEFINITION                           17118021
                                    4039 *         DECBADEF    -DECB ADDRESS DEFINITION (IF BASIC ACCESS MET     17124021
                                    4040 *         DCB CONDEF  -DCB CONSTANT DEFINITION                          17130021
                                    4041 *         DECB CONDEF -DECB CONSTANT DEFINITION (1 PER CYCLE IF ASY     17136021
                                    4042 *                                                RONOUS PROCESSING)     17142021
                                    4043 *         ALL OUTPUT GOES ON FILE 4 AS A-TEXT FOR PHASE 6.              17148021
                                    4044 *EXTERNAL ROUTINE. ACCMET- CHECKS COBOL CLAUSES RELATED TO FD AND       17154021
                                    4045 *   PUTS CLAUSE INFORMATION IN DCB, DECB, AND FD ENTRY.                 17160021
                                    4046 *EXITS- ONLY 1 EXIT -FS011A- RETURNING TO FILEST. NO CODE PASSED        17166021
                                    4047 *TABLES/WORK AREAS.                                                     17172021
                                    4048 *   DCBCON   -DCB CONDEF                                                17178021
                                    4049 *   DECBCN   -DECB CONDEF                                               17184021
                                    4050 *   DCBDEF   -DCB,DECB ADDRESS DEF.                                     17190021
                                    4051 *   CI       -FD DICTIONARY ENTRY                                       17196021
                                    4052 *   PIOTBL   -TAMER TABLE- OPEN AND USE COBOL CLAUSES                   17202021
                                    4053 *   APPTBL   -TAMER TABLE- APPLY RANDOM PROCESSING INFORMATION.         17208021
 002A18                             4054 IKF203   CSECT                                                          17214021
                             02A18  4055          USING *,R15                                                    17220021
                             00000  4056          USING PIBDST,R10                                               17226021
                             00000  4057          USING ICTDST,R7                                                17232021
 002A18 D7DD D618 D618 0BB58 0BB58  4058 FSTXT    XC    DCBCON(LX222),DCBCON CLEAR DCB, DECB AND OTHER FD        17238021
                                    4059 *                                       CALCULATION AREA.               17244021
 002A1E 50E0 DA28      0BF68        4060          ST    R14,BRET            SAVE RETURN REGISTER                 17250021
 002A22 9200 D468      0B9A8        4061          MVI   SRANO,XX00          RESET SD SAME REC AREA NO            17256021
 002A26 D79F D5EC D5EC 0BB2C 0BB2C  4062          XC    CI(LX160),CI             CLEAR AREA                      17262021
 002A2C D710 D8B3 D8B3 0BDF3 0BDF3  4063          XC    BUFCAL+NX11(LX17),BUFCAL+NX11                            17268021
 002A32 D200 D5A2 D5A1 0BAE2 0BAE1  4064          MVC   PLBLSW(LX1),LBLSW                                        17274021
 002A38 9644 D5AA      0BAEA        4065          OI    FSTSW,XX44           SET FS SW FOR BCOPY AND PHTERM      17280021
 002A3C D203 B148 D904 00148 0BE44  4066          MVC   LOCCTR(LX4),SAV01L                                       17286021
 002A42 D201 D5C7 7003 0BB07 00003  4067          MVC   CARDNO(LX2),ICTCDN   CARD NUMBER FOR ERRORS              17292021
 002A48 9180 700D      0000D        4068          TM    ICTFL1,ICTRDA       IS ACCESS RANDOM                     17298021
 002A4C 4780 F054      02A6C        4069          BZ    FS001               NO                             LCLIO 17304021
 002A50 9170 700D      0000D        4070          TM    ICTFL1,ICTORG       YES, IS ORG. STANDARD SEQUENTIAL     17310021
 002A54 4770 F054      02A6C        4071          BNZ   FS001               NO                             LCLIO 17316021
 002A58 4100 0003      00003        4072        LA    R0,AM(R0,R0)          YES, ERROR BECOMES SEQUENTIAL AC     17322021
 002A5C 1B11                        4073          SR    R1,R1                                                    17328021
 002A5E 50F0 D9C8      0BF08        4074          ST    R15,RSAVE+NX60                                           17334021
 002A62 58F0 DBC0      0C100        4075          L     R15,AERRTN                                               17340021
 002A66 05EF                        4076          BALR  R14,R15             CALL ERROR ROUTINE                   17346021
 002A68 58F0 D9C8      0BF08        4077          L     R15,RSAVE+NX60                                           17352021
                                    4078 * DETERMINE ACCESS METHOD AND SET R8= A(ACC. METHOD TABLE ENTRY) FO     17358021
1PH20     IKFCBL20                                                                                              PAGE  104
-  LOC  OBJECT CODE    ADDR1 ADDR2  STMT   SOURCE STATEMENT                                       ASM 0201 11.03 02/14/15
0                                   4079 *  THIS METHOD.                                                         17364021
 002A6C 1B88                        4080 FS001    SR    R8,R8                                                    17370021
 002A6E 4380 700D      0000D        4081          IC    R8,ICTFL1           PUT ACCESS AND ORGANIZATION IN L     17376021
 002A72 8880 0004      00004        4082          SRL   R8,DX4                4 BITS OF REG 8                    17382021
 002A76 4188 D4F8      0BA38        4083          LA    R8,PRMTBL(R8)                                            17388021
 002A7A 1B66                        4084          SR    R6,R6                                                    17394021
 002A7C 4368 0000      00000        4085          IC    R6,DX0(R8)           LEGAL                               17400021
 002A80 4186 D144      0B684        4086          LA    R8,ACCTAB(R6)                                            17406021
 002A84 4398 0002      00002        4087          IC    R9,VCOUNT(R8)      GET FDVCNT FROM ACCTABL.              17412021
 002A88 4290 D614      0BB54        4088          STC   R9,FDVCNT          SET FDVCNT FIELD.                     17418021
                                    4089 * GET THE NEXT DCB= AND ITS REL LOC AND PUT OUT DCB ADDRESS DEFINIT     17424021
 002A8C 4890 B160      00160        4090          LH    R9,DCBCTR                                                17430021
 002A90 4199 0001      00001        4091          LA    R9,DX1(R9)           INCREMENT DCB CTR                   17436021
 002A94 4290 D6BC      0BBFC        4092          STC   R9,DCBDEF+NX4        STORE DCB = IN DCBADEF              17442021
 002A98 4290 D5A9      0BAE9        4093          STC   R9,PRDCBNO                PRESENT DCB NO           45078 17448021
 002A9C 4540 F4A8      02EC0        4094          BAL   R4,BOUND            GET LOCATION COUNTER IN REG 10       17454021
                                    4095 *                                   ROUNDED UP TO MULTIPLE OF 4         17460021
                                    4096 * SET UP EXIT LIST(DCB PREFIX) BEFORE DEFINING DCB.                     17466021
 002AA0 50A0 DD30      0C270        4097          ST    R10,DCBPRX         PUT OUT DCB PREFIX CONDEF             17472021
 002AA4 9228 DD30      0C270        4098          MVI   DCBPRX,XX28                                              17478021
 002AA8 D717 DD37 DD37 0C277 0C277  4099          XC    DCBPLST(LX24),DCBPLST ZERO OUT PART OF EXIT LIST         17484021
 002AAE 9110 8008      00008        4100          TM    AMCODE(R8),XX10     QISAM?                               17490021
 002AB2 4780 F0A2      02ABA        4101          BZ    *+8                 NO                                   17496021
 002AB6 9605 DD47      0C287        4102          OI    DCBPAD1+NX4,XX05    YES - DCB EXIT CODE                  17502021
 002ABA 9120 8008      00008        4103          TM    AMCODE(R8),XX20     BISAM?                               17508021
 002ABE 4780 F0B6      02ACE        4104          BZ    FS001A             NO.                                   17514021
 002AC2 9108 7024      00024        4105          TM    ICTUN1,XX08         YES. CORE-INDEX?                     17520021
 002AC6 4780 F0B6      02ACE        4106          BZ    FS001A             NO.                                   17526021
 002ACA 9205 DD47      0C287        4107          MVI   DCBPAD1+NX4,XX05    DCB-EXIT CODE.                       17532021
 002ACE 9200 DD4B      0C28B        4108 FS001A   MVI   DCBPAD1+NX8,XX00                                         17538021
 002AD2 91B0 8008      00008        4109          TM    DX8(R8),XXB0        QSAM OR BSAM?                        17544021
 002AD6 4770 F0C6      02ADE        4110          BNZ   FSEOPRX            NO                                    17550021
 002ADA 9208 DD4B      0C28B        4111          MVI   DCBPAD1+NX8,XX08    YES. SET ERR-BIT CODE                17556021
 002ADE D201 D900 DD35 0BE40 0C275  4112 FSEOPRX  MVC   FULLWD(LX2),DCBPSZ                                       17562021
 002AE4 4AA0 D900      0BE40        4113          AH    R10,FULLWD                                               17568021
 002AE8 5810 DB84      0C0C4        4114          L     R1,COSADR                                                17574021
 002AEC 4120 DD30      0C270        4115          LA    R2,DCBPRX                                                17580021
 002AF0 4130 002F      0002F        4116          LA    R3,DX47                                                  17586021
 002AF4 0501                        4117          BALR  R0,R1              PUT OUT DCB PREFIX                    17592021
 002AF6 14                          4118          DC    X'14'              TOT-AREA CODE MUST BE SET LATER       17598021
 002AF7 00
 002AF8 50A0 D8B4      0BDF4        4119          ST    R10,BUFCAL+NX12                                          17604021
 002AFC 50A0 D6B8      0BBF8        4120          ST    R10,DCBDEF          STORE LOCCTR VALUE IN DCBADEF        17610021
 002B00 9204 D6B8      0BBF8        4121          MVI   DCBDEF,XX04          MOVE CODE INTO DCBADEF              17616021
 002B04 4130 0005      00005        4122          LA    R3,DX5                                                   17622021
 002B08 45E0 F49A      02EB2        4123          BAL   R14,MASPUF          CALL PUTN ROUTINE                    17628021
 002B0C 4290 D60F      0BB4F        4124        STC   R9,FDCBNO            STORE DCB NO. IN CI                   17634021
 002B10 50A0 D6C4      0BC04        4125          ST    R10,DCBADD          SAVE LOCCTR OF DCB                   17640021
 002B14 9101 D8B2      0BDF2        4126          TM    BUFCAL+NX10,XX01     S-MODE                              17646021
 002B18 4AA8 0004      00004        4127 FSEOPR1  AH    R10,DX4(R8)          UPDATE AND RESTORE                  17652021
 002B1C 50A0 B148      00148        4128          ST    R10,LOCCTR                                               17658021
 002B20 4090 B160      00160        4129          STH   R9,DCBCTR                                                17664021
 002B24 D200 D610 8008 0BB50 00008  4130          MVC   FDACMT(LX1),DX8(R8)  PUT ACCESS METHOD IN CI             17670021
 002B2A 9584 8008      00008        4131          CLI   DX8(R8),XX84                                             17676021
 002B2E 4770 F11E      02B36        4132          BNE   *+8                 NO                                   17682021
1PH20     IKFCBL20                                                                                              PAGE  105
-  LOC  OBJECT CODE    ADDR1 ADDR2  STMT   SOURCE STATEMENT                                       ASM 0201 11.03 02/14/15
0002B32 4188 0020      00020        4133          LA    R8,DX32(R8)                                              17688021
 002B36 F200 D8C0 8008 0BE00 00008  4134          PACK  BUFCAL+NX24(LX1),DX8(LX1,R8) AND BUFFER CALC. AREA(LOW 4 17694021
 002B3C 940F D8C0      0BE00        4135          NI    BUFC24,ACCMON       TURN HIGH BITS OFF                   17700021
 002B40 9298 D60C      0BB4C        4136          MVI   FDCUNT,XX98         SET COUNT=8,MAJOR CODE=8 IN CI       17706021
 002B44 5080 D8BC      0BDFC        4137          ST    R8,BUFCAL+NX20                                           17712021
 002B48 9201 D65A      0BB9A        4138 IOERR00  MVI   DCB+NX59,XX01                                            17718021
 002B4C 58A0 DB94      0C0D4        4139          L     R10,ADPIOT                                               17724021
 002B50 58AA 0000      00000        4140          L     R10,DX0(R10)                                             17730021
 002B54 58AA 0000      00000        4141          L     R10,DX0(R10)                                             17736021
 002B58 D201 D902 7011 0BE42 00011  4142          MVC   FULLWD+NX2(LX2),ICTPIR                                   17742021
 002B5E 4AA0 D902      0BE42        4143          AH    R10,FULLWD+NX2                                           17748021
 002B62 91FF 8008      00008        4144          TM    AMCODE(R8),XXFF      QSAM                                17754021
 002B66 4770 F15E      02B76        4145          BNZ   IOERR0A             NO                                   17760021
 002B6A 9180 A002      00002        4146          TM    PIBFL3,PIBNSL       YES, SEE IF USE                      17766021
 002B6E 4780 F15E      02B76        4147          BZ    IOERR0A             NO                                   17772021
 002B72 9601 D614      0BB54        4148          OI    FDVCNT,XX01          YES, SET BIT ON                     17778021
 002B76 9610 D60D      0BB4D        4149 IOERR0A  OI    FDNOBL,XX10                                              17784021
 002B7A 9102 A001      00001        4150          TM    PIBFL2,PIBUSE      USE ERROR?                            17790021
 002B7E 4710 F17A      02B92        4151          BO    IOERR01            YES.                                  17796021
 002B82 94EF D60D      0BB4D        4152          NI    FDNOBL,XXEF                                              17802021
 002B86 9104 A002      00002        4153          TM    PIBFL3,PIBINV      NO. INV-KEY?                          17808021
 002B8A 4770 F17A      02B92        4154          BNZ   IOERR01             YES                                  17814021
 002B8E 9601 F1DB      02BF3        4155          OI    ERRSW,XX01          N                                    17820021
 002B92 58A0 D6C4      0BC04        4156 IOERR01  L     R10,DCBADD                                               17826021
 002B96 41AA 0038      00038        4157          LA    R10,DX56(R10)       R10=REL LOC OF DCBSYNAD              17832021
 002B9A 50A0 D900      0BE40        4158          ST    R10,FULLWD                                               17838021
 002B9E D202 DD16 D901 0C256 0BE41  4159          MVC   ERRTARG(LX3),FULLWD+NX1 TARGET ADDRESS.                  17844021
 002BA4 D200 DD13 8003 0C253 00003  4160          MVC   ERRNAME+NX7(LX1),DX3(R8)                                 17850021
 002BAA 91B0 8008      00008        4161          TM    AMCODE(R8),XXB0                                          17856021
 002BAE 4770 F1C6      02BDE        4162          BNZ   IOERR98             NOT QSAM OR BSAM-BR TO ERR RTN       17862021
 002BB2 41A0 0016      00016        4163 IOERRSQ  LA    R10,DX22            REL LOC OF ERR-BIT-RTN IN INIT-1     17868021
 002BB6 50A0 DDF0      0C330        4164          ST    R10,LITBUF+NX4      SOURCE ADDRESS.                      17874021
 002BBA 58A0 D6C4      0BC04        4165          L     R10,DCBADD         LOAD R10 WITH DCB ADDR.               17880021
 002BBE 4BA0 D43E      0B97E        4166          SH    R10,CON19+NX2       DCB-19                               17886021
 002BC2 50A0 DDEC      0C32C        4167          ST    R10,LITBUF         TARGET ADDRESS.                       17892021
 002BC6 922C DDEC      0C32C        4168          MVI   LITBUF,XX2C         ADCON CODE                           17898021
 002BCA 9203 DDF0      0C330        4169          MVI   LITBUF+NX4,XX03     ADCON LGN=3                          17904021
 002BCE 5810 DB84      0C0C4        4170          L     R1,COSADR                                                17910021
 002BD2 4120 DDEC      0C32C        4171          LA    R2,LITBUF                                                17916021
 002BD6 4130 0008      00008        4172          LA    R3,DX8              OUTPUT IS 8 BYTE LONG.               17922021
 002BDA 0501                        4173          BALR  R0,R1              PUT OUT ADCONDEF ON F-4.              17928021
 002BDC 14                          4174          DC    X'14'                                                    17934021
 002BDD 00
 002BDE 9101 F1DB      02BF3        4175 IOERR98  TM    ERRSW,XX01                                               17940021
 002BE2 4710 F1E0      02BF8        4176          BO    FS001B             NO SYNAD                              17946021
 002BE6 181B                        4177          LR    R1,RCOM                                                  17952021
 002BE8 4120 DD08      0C248        4178          LA    R2,ERRVCON                                               17958021
 002BEC 4130 0011      00011        4179          LA    R3,DX17             OUTPUT IS 17 BYTE LONG               17964021
 002BF0 0501                        4180          BALR  R0,R1              PUT OUT VCONDEF ON F-2.               17970021
 002BF2 12                          4181          DC    X'12'                                                    17976021
 002BF3 00                          4182 ERRSW    DC    X'00'                                                    17982021
 002BF4 47F0 F20C      02C24        4183 IOERR99  B     FS002        ***** BY-PASS ASYNCH. PROC. CODE.           17988021
                                    4184 * IF BASIC ACCESS METHOD, GET NEXT DECB= AND ITS REL LOC AND PUT OU     17994021
                                    4185 *  DECB ADDRESS DEFINITION. IF RANDOM PROCESSING ALLOCATE SPACE FOR     18000021
                                    4186 *  DECB'S.WHERE N= = OF CYCLES.                                         18006021
1PH20     IKFCBL20                                                                                              PAGE  106
-  LOC  OBJECT CODE    ADDR1 ADDR2  STMT   SOURCE STATEMENT                                       ASM 0201 11.03 02/14/15
0002BF8 58A0 D6C4      0BC04        4187 FS001B   L     R10,DCBADD         NEGATE 08 EXIT LIST ENTRY.            18012021
 002BFC 5BA0 D440      0B980        4188          S     R10,TWENTY                                               18018021
 002C00 D703 DDF0 DDF0 0C330 0C330  4189          XC    LITBUF+NX4(LX4),LITBUF+NX4 BINARY                        18024021
 002C06 D201 DDF1 D3FA 0C331 0B93A  4190          MVC   LITBUF+NX5(LX2),ONE+NX2   ONE BYTE                       18030021
 002C0C 50A0 DDEC      0C32C        4191          ST    R10,LITBUF                                               18036021
 002C10 9228 DDEC      0C32C        4192          MVI   LITBUF,XX28         CONSTANT                             18042021
 002C14 5810 DB84      0C0C4        4193          L     R1,COSADR                                                18048021
 002C18 4120 DDEC      0C32C        4194          LA    R2,LITBUF                                                18054021
 002C1C 4130 0008      00008        4195          LA    R3,DX8                                                   18060021
 002C20 0501                        4196          BALR  R0,R1               BR TO COMMON                         18066021
 002C22 14                          4197          DC    X'14'                                                    18072021
 002C24                             4198 FS002    DS    0H                                                       18078021
 002C24 94FE F1DB      02BF3        4199          NI    ERRSW,XXFE                                               18084021
 002C28 9200 D76F      0BCAF        4200          MVI   MCI,XX00             SET MAJOR CODE FOR 01-49 ITEMS      18090021
 002C2C 947F DEC5      0C405        4201          NI    FAPAF,XX7F           TURN OFF O/LINE BL IN ADDR. PARA    18096021
 002C30 9701 8013      00013        4202          XI    DX19(R8),XX01                               A2           18102021
 002C34 9500 8006      00006        4203          CLI   DX6(R8),XX00         DOES THIS ACCESS METH NEED A DEC    18108021
 002C38 4780 F2B0      02CC8        4204          BC    EQ,FS005            CHECK FOR OPEN CLAUSE                18114021
 002C3C D200 D693 8007 0BBD3 00007  4205          MVC   DECB+NX4(LX1),DX7(R8) SET TYPE CODE IN DECB              18120021
 002C42 48A0 B1D4      001D4        4206          LH    R10,DECBCT                                               18126021
 002C46 41AA 0001      00001        4207          LA    R10,DX1(R10)         INCREMENT DECB CTR                  18132021
 002C4A 42A0 D6BC      0BBFC        4208          STC   R10,DECBDF+NX4            PUT DECB= IN DECBADEF          18138021
 002C4E 42A0 D611      0BB51        4209        STC   R10,FDECNO           DECB NO. IN CI                        18144021
 002C52 40A0 B1D4      001D4        4210          STH   R10,DECBCT                                               18150021
 002C56 58A0 B148      00148        4211          L     R10,LOCCTR                                               18156021
 002C5A 91A0 D610      0BB50        4212          TM    FDACMT,XXA0         BDAM OR BISAM?                       18162021
 002C5E 4780 F278      02C90        4213          BZ    FS003              NO. NO DECBPREFIX.                    18168021
 002C62 D70A DDEC DDEC 0C32C 0C32C  4214          XC    LITBUF(LX11),LITBUF YES. PUT OUT X'0...01'               18174021
 002C68 50A0 DDEC      0C32C        4215          ST    R10,LITBUF         FOR GN-INV-KEY FIELD                  18180021
 002C6C 9228 DDEC      0C32C        4216          MVI   LITBUF,XX28         CONSTANT DEF. CODE                   18186021
 002C70 9204 DDF2      0C332        4217          MVI   LITBUF+NX6,XX04     SIZE=4 BYTES                         18192021
 002C74 9201 DDF6      0C336        4218          MVI   LITBUF+NX10,XX01    X'0...01' FOR GN-INV-KEY             18198021
 002C78 4130 000B      0000B        4219          LA    R3,DX11             OUT PUT SIZE = 11                    18204021
 002C7C 4120 DDEC      0C32C        4220          LA    R2,LITBUF                                                18210021
 002C80 5810 DB84      0C0C4        4221          L     R1,COSADR                                                18216021
 002C84 0501                        4222          BALR  R0,R1               BR TO COMMON                         18222021
 002C86 14                          4223          DC    X'14'                                                    18228021
 002C87 00
 002C88 4AA0 D406      0B946        4224          AH    R10,FOUR+NX2        ADD 4 TO LOCCTR                      18234021
 002C8C 50A0 B148      00148        4225          ST    R10,LOCCTR         UPDATE LOCCTR                         18240021
 002C90 58A0 B148      00148        4226 FS003    L     R10,LOCCTR                                               18246021
 002C94 50A0 D6C8      0BC08        4227          ST    R10,DECBAD          SAVE IT                              18252021
 002C98 50A0 D8B8      0BDF8        4228          ST    R10,BUFCAL+NX16                                          18258021
 002C9C 50A0 D6B8      0BBF8        4229          ST    R10,DECBDF          PUT IT IN REL LOC OF DELBADEF        18264021
 002CA0 9208 D6B8      0BBF8        4230          MVI   DECBDF,XX08          SET CODE                            18270021
 002CA4 1B99                        4231          SR    R9,R9                                                    18276021
 002CA6 4398 0006      00006        4232          IC    R9,DX6(R8)           GET DECB LGN (BYTES)                18282021
 002CAA 4290 D8C1      0BE01        4233          STC   R9,BUFCAL+NX25       PUT DECB LGN IN BUFCAL              18288021
 002CAE 8890 0002      00002        4234          SRL   R9,DX2                CONVERT LGN TO WORDS               18294021
 002CB2 4290 D6C0      0BC00        4235          STC   R9,DECBDF+NX8        PUT IT IN DECBADEF                  18300021
 002CB6 4130 0009      00009        4236          LA    R3,DX9                                                   18306021
 002CBA 45E0 F49A      02EB2        4237          BAL   R14,MASPUF          CALL PUTN ROUTINE                    18312021
 002CBE 8990 0002      00002        4238 FS004    SLL   R9,DX2               GET DECB LGN IN REG9 IN BYTES       18318021
 002CC2 1AA9                        4239          AR    R10,R9              ADD LGN TO LOCCTR AND                18324021
 002CC4 50A0 B148      00148        4240          ST    R10,LOCCTR                                               18330021
1PH20     IKFCBL20                                                                                              PAGE  107
-  LOC  OBJECT CODE    ADDR1 ADDR2  STMT   SOURCE STATEMENT                                       ASM 0201 11.03 02/14/15
0                                   4241 * MOVE FILE INFORMATION FROM BUFFER TO WORK AREAS AND CHECK IF AN O     18336021
                                    4242 *  CLAUSE WAS SPEC'D IN PROCEDURE DIVISION.                             18342021
                             02CC8  4243 FS005  EQU   *                                                          18348021
 002CC8 D201 D8C4 7003 0BE04 00003  4244          MVC   BUFCAL+NX28(LX2),ICTCDN AND BUFCAL                       18354021
 002CCE D207 D647 7005 0BB87 00005  4245          MVC   DCB+NX40(LX8),ICTEXF  MOVE EXTERNAL NAME TO DCB          18360021
 002CD4 9202 D64F      0BB8F        4246          MVI   DCB+NX48,XX02        SET OFLG OF DCB TO ENABLE OPEN      18366021
 002CD8 9140 8008      00008        4247          TM    AMCODE(R8),XX40     BSAM?                                18372021
 002CDC 4780 F2CC      02CE4        4248          BZ    *+8               NO.                                    18378021
 002CE0 9201 D66E      0BBAE        4249          MVI   DCB+NX79,XX01      SET DCBEOBW TO 1.                     18384021
 002CE4 58A0 DB94      0C0D4        4250          L     R10,ADPIOT          YES, GET ADDRESS OF PIOTBL'S TIB     18390021
 002CE8 9601 D5A4      0BAE4        4251          OI    PTBLSW+NX1,XX01      SET TABLE SW ON                     18396021
 002CEC 58A0 A000      00000        4252          L     R10,DX0(R0,R10)     GET ADDRESS OF PIOTBL'S TAMM         18402021
 002CF0 58A0 A000      00000        4253          L     R10,DX0(R0,R10)     GET ADDRESS OF PIOTB                 18408021
 002CF4 D201 D902 7011 0BE42 00011  4254          MVC   FULLWD+NX2(LX2),ICTPIR MOVE PIOTBL PTR TO FULL WORD BOU  18414021
 002CFA 4AA0 D902      0BE42        4255          AH    R10,FULLWD+NX2       ADD PTR TO TABLE ADDRESS FOR ADD    18420021
                                    4256 *                                   OF SPECIFIC ENTRY IN TABLE.         18426021
 002CFE 9200 D5A7      0BAE7        4257          MVI   BPERRO,XX00          SET OPEN SW OFF                     18432021
 002D02 947F D8A0      0BDE0        4258          NI    BUFCAS+NX24,XX7F                             A1          18438021
 002D06 9180 D5AA      0BAEA        4259          TM    FSTSW,XX80          FIRST FD?                            18444021
 002D0A 4780 F30C      02D24        4260          BZ    FS005A             YES.                                  18450021
 002D0E D503 D8BC D89C 0BDFC 0BDDC  4261          CLC   BUFCAL+NX20(LX4),LOCDEC+NX4 NO. SAME ACCESS?             18456021
 002D14 4770 F30C      02D24        4262          BNE   FS005A                      NO.                          18462021
 002D18 5810 D89C      0BDDC        4263          L     R1,LOCDEC+NX4                YES.                        18468021
 002D1C 9701 1013      00013        4264          XI    DX19(R1),XX01                                            18474021
 002D20 9680 D8A0      0BDE0        4265          OI    ACCMTH,XX80                                              18480021
 002D24 D207 D8A8 7013 0BDE8 00013  4266 FS005A   MVC   BUFCAL(LX8),ICTRAR   MOVE BUFFER INFO TO WORK AREA       18486021
 002D2A D200 DEE6 7022 0C426 00022  4267          MVC   FL4SAVE(LX1),ICTFL4  SAVE FOR LATER USE            59737 18492021
 002D30 1B33                        4268        SR    R3,R3                GET RECORDING MODE                    18498021
 002D32 4330 702D      0002D        4269        IC    R3,ICTFL6                                                  18504021
 002D36 8830 0002      00002        4270          SRL   R3,DX2                                                   18510021
 002D3A 4230 D8B2      0BDF2        4271          STC   R3,BUFCAL+NX10      STORE IT IN BUFCAL                   18516021
 002D3E 940F D8B2      0BDF2        4272          NI    BUFCAL+NX10,XX0F   TURN OFF TOTALING & TOTALED BITS      18522021
 002D42 D201 D8B0 702B 0BDF0 0002B  4273          MVC   BUFCAL+NX8(LX2),ICTBMX STORE MAX. BLOCK COUNT            18528021
                                    4274 * CALL -ACCMET- TO CHECK  I/O CLAUSES AND SET UP DCB, DECB, AND FD      18534021
                                    4275 *  DICTIONARY  ENTRY.                                                   18540021
 002D48 50F0 D9C8      0BF08        4276 FS007    ST    R15,RSAVE+NX60                                           18546021
 002D4C 58F0 DB88      0C0C8        4277          L     R15,AACMET                                               18552021
 002D50 05EF                        4278          BALR  R14,R15             CALL ACCESS METHOD ROUTINE           18558021
 002D52 58F0 D9C8      0BF08        4279          L     R15,RSAVE+NX60                                           18564021
 002D56 58B0 DB84      0C0C4        4280          L     R11,COSADR         RESTORE RCOM                          18570021
                                    4281 *ON RETURN FROM THE ACCESS METHOD ROUTINE, REG 7 (POINTER TO BUFFER     18576021
                                    4282 * POINTS TO THE LAST BYTE IN THE FS-TEXT WHICH IS A ZERO BYTE.          18582021
                                    4283 * THE FOLLOWING THREE INSTRUCTIONS WILL CAUSE REG 7 TO BE INCREMENT     18588021
                                    4284 * TO THE NEXT IC-TEXT OF FILE 3.                                        18594021
 002D5A 4140 0001      00001        4285          LA    R4,DX1(R0,R0)        R4 INCREMENTS R7 IN BSUBRN          18600021
 002D5E 1854                        4286          LR    R5,R4                                                    18606021
 002D60 5810 FD98      037B0        4287          L     R1,ABSUBR                                                18612021
 002D64 58F0 DC84      0C1C4        4288          L     R15,AMAIN                                                18618021
 002D68 0561                        4289          BALR  R6,R1               GET NEXT BUFFER CONTENTS             18624021
 002D6A 58F0 DC80      0C1C0        4290          L     R15,AFSTXT                                               18630021
                                    4291 *FS008       PUTS OUT THE DCB AND DECB(S) FOR THE ACCESS METHODS. T     18636021
                                    4292 *DCB AND DECB WERE CONSTRUCTED BY THE ACCESS METHOD PREVIOUSLY CALL     18642021
 002D6E 4140 0064      00064        4293 FS008    LA    R4,DX100             R4= NO. OF DCB BYTES TO BE PUT      18648021
 002D72 4120 D618      0BB58        4294          LA    R2,DCBCON           R2= ADDRESS OF FIELD TO BE PUT       18654021
 002D76 4868 0004      00004        4295          LH    R6,DX4(R8)           R6= DCB LENGTH                      18660021
1PH20     IKFCBL20                                                                                              PAGE  108
-  LOC  OBJECT CODE    ADDR1 ADDR2  STMT   SOURCE STATEMENT                                       ASM 0201 11.03 02/14/15
0002D7A 5890 D6C4      0BC04        4296          L     R9,DCBADD           R9= DCB RELATIVE LOCATION(RELLOC     18666021
 002D7E 5090 D618      0BB58        4297 FS008A   ST    R9,DCBCON           SET CONDEF TARGET ADD. TO DCB RE     18672021
 002D82 9228 D618      0BB58        4298          MVI   DCBCON,XX28          SET CONDEF CODE                     18678021
 002D86 5040 D900      0BE40        4299          ST    R4,FULLWD                                                18684021
 002D8A D201 D61D D902 0BB5D 0BE42  4300          MVC   DCBCON+NX5(LX2),FULLWD+NX2 SET CONDEF LENGTH FIELD       18690021
 002D90 4134 0007      00007        4301          LA    R3,DX7(R4)           R3= NO. OF BYTES(CONDEF+DCB) FOR    18696021
 002D94 5810 DB84      0C0C4        4302          L     R1,COSADR                                                18702021
 002D98 0501                        4303          BALR  R0,R1               PUT CONDEF ON FILE 4                 18708021
 002D9A 14                          4304          DC    X'14'                                                    18714021
 002D9B 00
 002D9C 1B64                        4305          SR    R6,R4               R6= DCBLGN-NO. OF DCB BYTES PUT      18720021
 002D9E 4780 F3AA      02DC2        4306          BC    ZERO,FS008C         ALL DCB BYTES HAVE BEEN PUT OUT      18726021
 002DA2 1A94                        4307          AR    R9,R4               R9= NEXT TARGET ADDRESS              18732021
 002DA4 D763 D61F D61F 0BB5F 0BB5F  4308          XC    DCB(LX100),DCB       REST OF DCB IS ZEROS                18738021
 002DAA 5960 D45C      0B99C        4309          C     R6,CON60                                                 18744021
 002DAE 4720 F366      02D7E        4310          BC    HI,FS008A                      GR THAN 56                18750021
 002DB2 4740 F3A4      02DBC        4311          BC    LO,FS008B                      LS THAN 56                18756021
 002DB6 D201 D653 D683 0BB93 0BBC3  4312          MVC   DCB+NX52(LX2),DCB+NX100           =  TO  56 (BUFNO-QIS   18762021
 002DBC 1846                        4313 FS008B   LR    R4,R6                                                    18768021
 002DBE 47F0 F366      02D7E        4314          BC    UNCOND,FS008A       PUT OUT NEXT DCB CONDEF              18774021
 002DC2 5890 D6C4      0BC04        4315 FS008C   L     R9,DCBADD                                                18780021
 002DC6 4139 0025      00025        4316          LA    R3,DX37(R9)         DCB+37=A(EXLIST)                     18786021
 002DCA 5030 DD38      0C278        4317          ST    R3,EXLADCN                                               18792021
 002DCE D203 DD3C DD30 0C27C 0C270  4318          MVC   EXLADSZ(LX4),DCBPRX   RELATIVE ADDRESS                   18798021
 002DD4 922C DD38      0C278        4319          MVI   EXLADCN,XX2C        ADCON DEF.                           18804021
 002DD8 9203 DD3C      0C27C        4320          MVI   EXLADSZ,XX03        AL3                                  18810021
 002DDC 4130 0008      00008        4321          LA    R3,DX8                                                   18816021
 002DE0 4120 DD38      0C278        4322          LA    R2,EXLADCN                                               18822021
 002DE4 5810 DB84      0C0C4        4323          L     R1,COSADR          PUT OUT DCBEXLST ADCON.               18828021
 002DE8 0501                        4324          BALR  R0,R1               BR TO COMMON                         18834021
 002DEA 14                          4325          DC    X'14'                                                    18840021
 002DEB 00
 002DEC 9500 8006      00006        4326          CLI   DX6(R8),XX00        IS THERE A DECB TO BE PUT OUT.       18846021
 002DF0 4780 F450      02E68        4327          BC    EQ,FS011A           NO, BRANCH                           18852021
 002DF4 9180 8008      00008        4328          TM    DX8(R8),XX80         YES, IS IT A BDAM DECB              18858021
 002DF8 47E0 F3EE      02E06        4329          BC    NOTONE,FS009        NO                                   18864021
 002DFC D203 D900 D6A7 0BE40 0BBE7  4330          MVC   FULLWD(LX4),DECB+NX24 YES, SAVE BLKREF ADDRESS           18870021
 002E02 5890 D900      0BE40        4331          L     R9,FULLWD                 IN REG 9                       18876021
 002E06 58A0 D6C8      0BC08        4332 FS009    L     R10,DECBAD          R10= DECB RELATIVE LOCATION          18882021
 002E0A 1B44                        4333          SR    R4,R4                                                    18888021
 002E0C 4348 0006      00006        4334          IC    R4,DX6(R8)           R4= DECB LENGTH                     18894021
 002E10 4240 D68E      0BBCE        4335          STC   R4,DECBCN+NX6        PUT DECB LGN INTO DECBCN(CONDEF)    18900021
 002E14 50A0 D688      0BBC8        4336 FS010    ST    R10,DECBCN          PUT DECB REL LOC INTO DECBCN         18906021
 002E18 9228 D688      0BBC8        4337          MVI   DECBCN,XX28          PUT CONDEF CODE IN DECBCN           18912021
 002E1C 4134 0007      00007        4338          LA    R3,DX7(R4)                                               18918021
 002E20 D203 D928 D6A0 0BE68 0BBE0  4339          MVC   SVDECB(LX4),DECBCN+DX24  SAVE BYTES 25 THRU 28           18924021
 002E26 D703 D6A0 D6A0 0BBE0 0BBE0  4340          XC    DECBCN+DX24(LX4),DECBCN+DX24  ZERO BYTES 25 THRU 28      18930021
 002E2C 4120 D688      0BBC8        4341          LA    R2,DECBCN                                                18936021
 002E30 5810 DB84      0C0C4        4342          L     R1,COSADR                                                18942021
 002E34 0501                        4343          BALR  R0,R1               BR TO COMMON                         18948021
 002E36 14                          4344          DC    X'14'               PUT OUT DECB CONSTANT                18954021
 002E37 00
 002E38 D203 D6A0 D928 0BBE0 0BE68  4345          MVC   DECBCN+DX24(LX4),SVDECB RESTORE BYTES 25 THRU 28         18960021
 002E3E D202 D6BD D6C5 0BBFD 0BC05  4346          MVC   ACONDF+NX5(LX3),DCBADD+NX1 PUT OUT ADCON                 18966021
 002E44 410A 0008      00008        4347          LA    R0,DX8(R10)               DEFINITION                     18972021
1PH20     IKFCBL20                                                                                              PAGE  109
-  LOC  OBJECT CODE    ADDR1 ADDR2  STMT   SOURCE STATEMENT                                       ASM 0201 11.03 02/14/15
0002E48 5000 D6B8      0BBF8        4348          ST    R0,ACONDF                  FOR A(DCB) FIELD              18978021
 002E4C 45E0 F48E      02EA6        4349          BAL   R14,PREMAF                      IN DECB                  18984021
 002E50 9180 8008      00008        4350          TM    DX8(R8),XX80         IS ACCESS METHOD BDAM               18990021
 002E54 4780 F450      02E68        4351          BZ    FS011A              NO                                   18996021
 002E58 410A 0018      00018        4352          LA    R0,DX24(R10)         YES, PUT OUT ADCON                  19002021
 002E5C 5000 D6B8      0BBF8        4353          ST    R0,ACONDF               DEFINITONP                       19008021
 002E60 5090 D6BC      0BBFC        4354          ST    R9,ACONDF+NX4              FOR A(BLKREF) FIELD           19014021
 002E64 45E0 F48E      02EA6        4355          BAL   R14,PREMAF                   IN DECB                     19020021
 002E68 9544 8008      00008        4356 FS011A   CLI   DX8(R8),XX44         BSAM-D                              19026021
 002E6C 4770 F484      02E9C        4357          BNE   FS011B              NO                                   19032021
 002E70 5830 D6C8      0BC08        4358          L     R3,DECBAD           A(DECB)                              19038021
 002E74 4133 0014      00014        4359          LA    R3,DX20(R3)          DECB + 20                           19044021
 002E78 5030 DDEC      0C32C        4360          ST    R3,LITBUF                                                19050021
 002E7C 922C DDEC      0C32C        4361          MVI   LITBUF,XX2C          CODE                                19056021
 002E80 4133 0004      00004        4362          LA    R3,DX4(R3)           DECB + 24                           19062021
 002E84 5030 DDF0      0C330        4363          ST    R3,LITBUF+NX4                                            19068021
 002E88 9204 DDF0      0C330        4364          MVI   LITBUF+NX4,XX04      ADCON LENGTH                        19074021
 002E8C 4130 0008      00008        4365          LA    R3,DX8               COUNT                               19080021
 002E90 4120 DDEC      0C32C        4366          LA    R2,LITBUF                                                19086021
 002E94 5810 DB84      0C0C4        4367          L     R1,COSADR                                                19092021
 002E98 0501                        4368          BALR  R0,R1               BR TO COMMON                         19098021
 002E9A 14                          4369          DC    X'14'                                                    19104021
 002E9B 00
 002E9C 58E0 DA28      0BF68        4370 FS011B   L     R14,BRET            LOAD RETURN REG                      19110021
 002EA0 9780 801B      0001B        4371          XI    DX27(R8),XX80                                            19116021
 002EA4 07FE                        4372          BCR   UNCOND,R14          RETURN                               19122021
 002EA6 922C D6B8      0BBF8        4373 PREMAF   MVI   ACONDF,XX2C          ADCON CODE                          19128021
 002EAA 9204 D6BC      0BBFC        4374          MVI   ACONDF+NX4,XX04      ADCON LGN                           19134021
 002EAE 4130 0008      00008        4375          LA    R3,DX8               ADCON DEF. LGN                      19140021
 002EB2 4120 D6B8      0BBF8        4376 MASPUF   LA    R2,DECBDF                                                19146021
 002EB6 5810 DB84      0C0C4        4377          L     R1,COSADR                                                19152021
 002EBA 0501                        4378          BALR  R0,R1               BR TO COMMON                         19158021
 002EBC 14                          4379          DC    X'14'                                                    19164021
 002EBD 00
 002EBE 07FE                        4380          BCR   UNCOND,R14          RETURN                               19170021
                                    4381 *                                                                       19176021
 002EC0 4110 0004      00004        4382 BOUND    LA    R1,DX4               R1= MULTIPLE NEEDED                 19182021
 002EC4 5830 B148      00148        4383          L     R3,LOCCTR                                                19188021
 002EC8 1823                        4384          LR    R2,R3               R2= CURRENT LOCATION COUNTER VAL     19194021
 002ECA 18A3                        4385          LR    R10,R3              R10 CURRENT LOCATION COUNTER VAL     19200021
 002ECC 5430 D4EC      0BA2C        4386          N     R3,MK0930                                                19206021
 002ED0 1B23                        4387          SR    R2,R3               ROUND R10 UP TO                      19212021
 002ED2 4780 F4C2      02EDA        4388          BC    ZERO,*+NX8               MULTIPLE OF 4                   19218021
 002ED6 1B12                        4389          SR    R1,R2                                                    19224021
 002ED8 1AA1                        4390          AR    R10,R1                                                   19230021
 002EDA 07F4                        4391          BCR   UNCOND,R4           BR TO SET UP EXIT LIST               19236021
 002EDC 108C                        4392 ER140  DC    X'108C'                                                    19242021
1PH20     IKFCBL20                                                                                              PAGE  110
-  LOC  OBJECT CODE    ADDR1 ADDR2  STMT   SOURCE STATEMENT                                       ASM 0201 11.03 02/14/15
0                                   4394 *=2    ACCESS METHOD ROUTINE- ACCMET                                    19254021
                                    4395 *TITLE 'ACCMET' - ACCESS METHOD ROUTINE                                 19260021
                                    4396 *FUNCTION/OPERATION- CHECKS COBOL CLAUSES(RELATED TO FD) FOR ALL TH     19266021
                                    4397 *   COBOL ACCESS METHODS. PUTS CLAUSE INFORMATION IN DCB, DECB AND      19272021
                                    4398 *   DICTIONARY CLAUSE. THE CLAUSES CHECKED ARE                          19278021
                                    4399 *                        OPEN AND CLOSE                                 19284021
                                    4400 *                        ASSIGN                                         19290021
                                    4401 *                        RECORDING MODE                                 19296021
                                    4402 *                        RESERVE...ALTERNATE AREAS                      19302021
                                    4403 *                        SAME AREA                                      19308021
                                    4404 *                        LABEL RECORDS                                  19314021
                                    4405 *                        RERUN                                          19320021
                                    4406 *                        FILE LIMITS                                    19326021
                                    4407 *                        RESTRICTED SEARCH (APPLY 1)                    19332021
                                    4408 *                        RECORD PROTECTION (APPLY 3)                    19338021
                                    4409 *                        WRITE ONLY        (APPLY 5)                    19344021
                                    4410 *                        RANDOM PROCESSING (APPLY 4)                    19350021
                                    4411 *                        FORM-OVERFLOW     (APPLY 2)                    19356021
                                    4412 *                        BLOCK CONTAINS                                 19362021
                                    4413 *                        USE AFTER STANDARD ERROR PROCEDURE (USE 5)     19368021
                                    4414 *                        USE FOR CREATING...LABELS OM OUTPUT(USE 1)     19374021
                                    4415 *                        USE FOR CHECKING...LABELS ON INPUT (USE 2)     19380021
                                    4416 *                        TRACK AREA                                     19386021
                                    4417 *                        RECORD KEY                                     19392021
                                    4418 *                        SYMBOLIC KEY                                   19398021
                                    4419 *                        ACTUAL KEY                                     19404021
                                    4420 *                        WRITE AFTER ADVANCING                          19410021
                                    4421 *INPUT- REG 7 POINTS VARIABLE LGN PART OF FS-TEXT(IC-TEXT FOR AN FD     19416021
                                    4422 *OUTPUT- INDADEF- INDIRECT ADDRESS DEFINITION FOR A(ERROR DECLARATI     19422021
                                    4423 *   OR SYNAD IN DCB FOR USE-OPTION 5. PUT OUT AS A-TEXT FOR PHASE 6     19428021
                                    4424 *ENTRY POINT- ACCMET-    L    R15,A(ACCMET)                             19434021
                                    4425 *                        BALR R14,R15                                   19440021
                                    4426 *EXTERNAL ROUTINES-EXLST0-CREATE EXIT LIST FOR USE OPTION1              19446021
                                    4427 *                                              USE OPTION2              19452021
                                    4428 *                                              RERUN                    19458021
                                    4429 *                 -SAMRTN-SET UP SAME AREA CLAUSE ENTRY FOR SAMTBL      19464021
                                    4430 *                 -KEYRTN-ENTER RECORD, ACTUAL, AND SYMBOLIC KEY IN     19470021
                                    4431 *                         KEY TABLES                                    19476021
                                    4432 *                 -LABLBD-ENTER LABEL RECORD  DATA-NAMES IN LABTBL      19482021
                                    4433 *EXITS- ONLY ONE EXIT(NORMAL) AT -ACCMT3- NO CODES PASSED               19488021
                                    4434 *TABLES/WORKAREAS-                                                      19494021
                                    4435 *   TRKTBL- TABLE FOR TRACK AREA CLAUSE DATA-NAME                       19500021
                                    4436 *   CI-     FD DICTIONARY ENTRY WORK AREA                               19506021
                                    4437 *   DCBCON- DCB WORK AREA                                               19512021
                                    4438 *   DECBCN- DECB WORK AREA                                              19518021
                                    4439 *   BUFCAL- BUFFER CALCULATION INFORMATION STORAGE AREA                 19524021
                                    4440 *   SAMEAR- SAME AREA CLAUSE INFORMATION STORAGE AREA                   19530021
                                    4441 *ATTRIBUTES                                                             19536021
                                    4442 *NOTES                                                                  19542021
                             02EDE  4443          USING *,R15                                                    19548021
                                    4444          DROP  R7                                                       19554021
                                    4445          DROP  RCOM                                                     19560021
                             00000  4446          USING ICTDST,R11                                               19566021
                             00000  4447          USING COS,R8             L R8,COSADR BEFORE USING IT           19572021
 002EDE 50E0 D9C4      0BF04        4448 ACCMET   ST    R14,RSAVE+NX56       SAVE RETURN REGISTER                19578021
1PH20     IKFCBL20                                                                                              PAGE  111
-  LOC  OBJECT CODE    ADDR1 ADDR2  STMT   SOURCE STATEMENT                                       ASM 0201 11.03 02/14/15
0002EE2 18B7                        4449          LR    R11,R7             R11 POINTS TO FSTEXT                  19584021
 002EE4 D703 D908 D908 0BE48 0BE48  4450          XC    BSAMPT(LX4),BSAMPT                                       19590021
 002EEA D22D F05C 7000 02F3A 00000  4451          MVC   FSTXTSAV(LX46),DX0(R7)      MOVE IC-TEXT                 19596021
                                    4452 *   FROM BUFFER INTO WORK AREA                                          19602021
 002EF0 4170 B02E      0002E        4453          LA    R7,ICTEND                PT R7 TO VARIABLE PART          19608021
 002EF4 41B0 F05C      02F3A        4454          LA    R11,FSTXTSAV             R11 PTS TO FSTEXT               19614021
 002EF8 4540 F828      03706        4455          BAL   R4,CHKFF            CHECK FOR END OF BUFFER      FS-     19620021
 002EFC 1B44                        4456          SR    R4,R4                                                    19626021
 002EFE 4347 0000      00000        4457          IC    R4,DX0(R7)           GET FILE NAME COUNT                 19632021
 002F02 4440 F08A      02F68        4458          EX    R4,MOVEFN           MOVE FILE NAME TO CI                 19638021
 002F06 4177 4001      00001        4459          LA    R7,DX1(R7,R4)        INCREMENT REG7 TO NEXT BUFFER FI    19644021
 002F0A 4540 F828      03706        4460          BAL   R4,CHKFF            CHECK FOR END OF BUFFER              19650021
 002F0E 1B99                        4461          SR    R9,R9               R9= WORK REGISTER                    19656021
 002F10 41C0 F092      02F70        4462          LA    R12,BAMTBL          R12= ADDRESS OF ACTION CALL TABL     19662021
 002F14 440C 0000      00000        4463 ACCMT1   EX    R0,DX0(R12)                                              19668021
 002F18 41CC 0004      00004        4464 ACCMT2   LA    R12,DX4(R12)         INCREMENT R12 TO NEXT BAM ROUTIN    19674021
 002F1C 59C0 F0E2      02FC0        4465          C     R12,ENDACT          ARE ALL ROUTINES DONE                19680021
 002F20 47B0 F04A      02F28        4466          BC    NOTLO,ACCMT3        YES                                  19686021
 002F24 47F0 F036      02F14        4467          BC    UNCOND,ACCMT1       NO                                   19692021
 002F28 D203 D8B4 D6C4 0BDF4 0BC04  4468 ACCMT3   MVC   BUFCAL+NX12(LX4),DCBADD PUT REL LOC OF DCB ADDRESS       19698021
 002F2E D209 D639 8009 0BB79 00009  4469          MVC   DCB+NX26(LX10),DX9(R8) FILL IN DCB FIELDS---             19704021
                                    4470 *                                       DSORG, BUFALN, BUFTK            19710021
 002F34 58E0 D9C4      0BF04        4471          L     R14,RSAVE+NX56       RESTORE RETURN REGISTER             19716021
 002F38 07FE                        4472          BCR   UNCOND,R14          RETURN TO CALLER                     19722021
 002F3A 0000000000000000            4473 FSTXTSAV DC    XL46'00'                 FSTEXT SAVE AREA                19728021
 002F68 D200 D5EC 7000 0BB2C 00000  4474 MOVEFN   MVC   CI(LX0),DX0(R7)                                          19734021
 002F70                             4475 BAMTBL   DS    0F                                                       19740021
 002F70 4550 F0E6      02FC4        4476 BAM1     BAL   R5,OPENCL           OPEN CLAUSE                          19746021
 002F74 4550 F1D2      030B0        4477 BAM6     BAL   R5,RECMCL           RECORDING MODE CLAUSE                19752021
 002F78 4550 F1FC      030DA        4478 BAM8     BAL   R5,RESVCL           RESERVE CLAUSE                       19758021
 002F7C 4550 F22A      03108        4479 BAM9     BAL   R5,SAMACL           SAME AREA CLAUSE                     19764021
 002F80 4550 F2DE      031BC        4480 BAM10    BAL   R5,LABEL0          CHECK LABEL CLAUSE                    19770021
 002F84 4550 F328      03206        4481 BAM12    BAL   R5,RRUNCL           RERUN CLAUSE                         19776021
 002F88 4550 F39E      0327C        4482 BAM13    BAL   R5,TRKLIM          TRACK LIMIT                           19782021
 002F8C 4550 F296      03174        4483 BAM14    BAL   R5,COREIDX         APPLY CORE INDEX.                     19788021
 002F90 4550 F26A      03148        4484 BAM16    BAL   R5,WRTOCL           APPLY WRITE ONLY CLAUSE              19794021
 002F94 4550 F3D2      032B0        4485 BAM17    BAL   R5,BLKCCL           BLOCK CONTAINS CLAUSE                19800021
 002F98 4550 F478      03356        4486 BAM20    BAL   R5,TRKACL           TRACK AREA CLAUSE                    19806021
 002F9C 4550 F7B2      03690        4487 BAM20A   BAL   R5,BDAMCL           BDAM  CLAUSE                         19812021
 002FA0 4550 F56C      0344A        4488 BAM21A   BAL   R5,BSAMKY           BSAM KEY CLAUSE                      19818021
 002FA4 4550 F638      03516        4489 BAM22    BAL   R5,KEYSCL           SYMBOLIC,ACTUAL,RECORD KEYS CL       19824021
 002FA8 4550 F6F6      035D4        4490 BAM22A   BAL   R5,REORG00         CHECK REORG CRITERIA                  19830021
 002FAC 4550 F738      03616        4491 BAM22B   BAL   R5,TOTAR00         CHECK TOTALING AREA                   19836021
 002FB0 4550 F782      03660        4492 BAM23    BAL   R5,LABRDN           LABEL RECORD CLAUSE                  19842021
 002FB4 4550 F3EA      032C8        4493 BAM28    BAL   R5,WRTADV           WRITE A/B ADVANCING CLAUSE           19848021
 002FB8 4550 F45C      0333A        4494 BAM29    BAL   R5,RCDOVF           RECORD OVERFLOW CLAUSE               19854021
 002FBC 4550 F7F8      036D6        4495 BAM30    BAL   R5,DEVTYP           CHECK DEVICE TYPE                    19860021
 002FC0 00002FC0                    4496 ENDACT   DC    A(*)                                                     19866021
                                    4497 * OPEN CLAUSE -ALL ACCESS METHODS                                       19872021
 002FC4 91E0 A000      00000        4498 OPENCL   TM    PIBFL1,XXE0         ANY OPEN?                            19878021
 002FC8 4770 F10C      02FEA        4499          BNZ   OPEN00             YES.                                  19884021
 002FCC 9109 A000      00000        4500          TM    PIBFL1,XX09          SEE IF USED IN I/O                  19890021
 002FD0 4740 F104      02FE2        4501          BM    OPENERR             IF YES, ERROR                        19896021
 002FD4 9131 A001      00001        4502          TM    PIBFL2,XX31                                              19902021
 002FD8 4740 F104      02FE2        4503          BM    OPENERR             ERROR                                19908021
1PH20     IKFCBL20                                                                                              PAGE  112
-  LOC  OBJECT CODE    ADDR1 ADDR2  STMT   SOURCE STATEMENT                                       ASM 0201 11.03 02/14/15
0002FDC 9129 A002      00002        4504          TM    PIBFL3,XX29              WRITE, USE & READ BITS    44686 19914021
 002FE0 0785                        4505          BCR   ZERO,R5             OK                                   19920021
 002FE2 4540 F7E0      036BE        4506 OPENERR  BAL   R4,AMEROR           ERROR                                19926021
 002FE6 1031                        4507          DC    X'1031'             MSG 49                               19932021
 002FE8 07F5                        4508          BR    R5                  RETURN                               19938021
 002FEA 1B33                        4509 OPEN00   SR    R3,R3                                                    19944021
 002FEC 4330 A000      00000        4510          IC    R3,PIBFL1           GET OPEN CLAUSE BITS IN REG.3 FO     19950021
 002FF0 8830 0004      00004        4511          SRL   R3,DX4                 INDEX TO OPEN TABLE               19956021
 002FF4 5430 D42C      0B96C        4512          N     R3,CON14            AND OUT ALL OTHER BITS               19962021
 002FF8 4398 0014      00014        4513          IC    R9,DX20(R8)                                              19968021
 002FFC 4139 3000      00000        4514          LA    R3,DX0(R9,R3)                                            19974021
 003000 4193 F842      03720        4515          LA    R9,OPENTB(R3)                                            19980021
 003004 9501 9001      00001        4516          CLI   DX1(R9),XX01                                             19986021
 003008 4770 F138      03016        4517          BNE   OPEN01              TEST OPEN CLAUSE                     19992021
 00300C 4540 F7E0      036BE        4518          BAL   R4,AMEROR           ERROR                                19998021
 003010 0001                        4519          DC    X'0001'                                                  20004021
 003012 47F0 F138      03016        4520          B     OPEN01              TEST OPEN CLAUSE                     20010021
 003016 91F0 D610      0BB50        4521 OPEN01   TM    FDACMT,XXF0         QSAM ?                               20016021
 00301A 4780 F160      0303E        4522          BZ    OPENQS             YES                                   20022021
 00301E 910A B00D      0000D        4523          TM    ICTFL1,ICTDA+ICTUT DA OR UT?                             20028021
 003022 4770 F14E      0302C        4524          BNZ   *+10               YES, OK.                              20034021
 003026 4540 F7E0      036BE        4525          BAL   R4,AMEROR          NO, ERROR.                            20040021
 00302A 0003                        4526          DC    X'0003'            MSG NO 3: DEVICE MUST BE DA           20046021
 00302C 9120 D610      0BB50        4527          TM    FDACMT,XX20         BISAM?                               20052021
 003030 4710 F174      03052        4528          BO    OPENBI             YES                                   20058021
 003034 9110 D610      0BB50        4529          TM    FDACMT,XX10         QISAM?                               20064021
 003038 4710 F18C      0306A        4530          BO    OPENQI              YES                                  20070021
 00303C 07F5                        4531          BR    R5                  NO. RETURN                           20076021
                                    4532 * OPEN CLAUSE -QSAM ONLY                                                20082021
 00303E 9120 A000      00000        4533 OPENQS   TM    PIBFL1,PIBOIO       IS OPEN I-O SPEC'D                   20088021
 003042 07E5                        4534          BCR   NOTONE,R5           NO, RETURN                           20094021
 003044 910A B00D      0000D        4535          TM    ICTFL1,ICTDA+ICTUT YES, DA                               20100021
 003048 0775                        4536          BCR   NOTZER,R5           YES                                  20106021
 00304A 4540 F7E0      036BE        4537          BAL   R4,AMEROR           NO. ERROR                            20112021
 00304E 0002                        4538          DC    X'0002'             2                                    20118021
 003050 07F5                        4539          BCR   UNCOND,R5           RETURN                               20124021
                                    4540 * OPEN CLAUSE -BISAM ONLY                                               20130021
 003052 9120 A000      00000        4541 OPENBI   TM    PIBFL1,PIBOIO                                            20136021
 003056 07E5                        4542          BCR   NOTONE,R5           NO                                   20142021
 003058 920E D654      0BB94        4543          MVI   DCB+NX53,XX0E       YES. SET DCBMACRFB FIELD FOR I-O     20148021
 00305C 9120 A001      00001        4544          TM    PIBFL2,PIBFRE      FREE?                                 20154021
 003060 4780 F18A      03068        4545          BZ    *+8                NO.                                   20160021
 003064 9601 D610      0BB50        4546          OI    FDACMT,XX01         YES.                                 20166021
 003068 07F5                        4547        BR    R5                   RETURN.                               20172021
                                    4548 * OPEN CLAUSE -QISAM ONLY                                               20178021
 00306A 5830 D6C4      0BC04        4549 OPENQI   L     R3,DCBADD                                                20184021
 00306E 5B30 D448      0B988        4550          S     R3,CON23           DCB-23                                20190021
 003072 5030 DDEC      0C32C        4551          ST    R3,LITBUF          TARGET ADDRESS                        20196021
 003076 922C DDEC      0C32C        4552          MVI   LITBUF,XX2C                                              20202021
 00307A 4130 0010      00010        4553          LA    R3,DX16             INIT1+16                             20208021
 00307E 5030 DDF0      0C330        4554          ST    R3,LITBUF+NX4       RELATIVE ADDRESS                     20214021
 003082 9203 DDF0      0C330        4555          MVI   LITBUF+NX4,XX03     AL3                                  20220021
 003086 5810 DB84      0C0C4        4556          L     R1,COSADR                                                20226021
 00308A 4120 DDEC      0C32C        4557          LA    R2,LITBUF                                                20232021
 00308E 4130 0008      00008        4558          LA    R3,DX8                                                   20238021
1PH20     IKFCBL20                                                                                              PAGE  113
-  LOC  OBJECT CODE    ADDR1 ADDR2  STMT   SOURCE STATEMENT                                       ASM 0201 11.03 02/14/15
0003092 0501                        4559          BALR  R0,R1               BR TO COMMON                         20244021
 003094 14                          4560          DC    X'14'                                                    20250021
 003095 00
 003096 9108 A002      00002        4561          TM    PIBFL3,PIBSRT      START?                                20256021
 00309A 4780 F1C4      030A2        4562          BZ    *+8                NO.                                   20262021
 00309E 9608 D610      0BB50        4563          OI    FDACMT,XX08         YES.                                 20268021
 0030A2 9110 B022      00022        4564          TM    ICTFL4,ICTNOM            NOMINAL KEY SPECD         41077 20274021
 0030A6 4780 F1D0      030AE        4565          BZ    OPENQ1                     NO, RETURN              41077 20280021
 0030AA 9604 D610      0BB50        4566          OI    FDACMT,XX04              NOMKEY IN DICT, QISAM     41077 20286021
                             030AE  4567 OPENQ1   EQU   *                                                  41077 20292021
 0030AE 07F5                        4568          BR    R5                 RETURN                                20298021
                                    4569 * RECORDING MODE CLAUSE -ALL ACCESS METHODS                             20304021
 0030B0 1B99                        4570 RECMCL   SR    R9,R9                                                    20310021
 0030B2 1B33                        4571          SR    R3,R3                                                    20316021
 0030B4 4330 D8B2      0BDF2        4572          IC    R3,BUFCAL+NX10      GET RECORDING MODE BITS IN R3.       20322021
 0030B8 5430 D430      0B970        4573        N     R3,CON15             MASK WITH X'0F'                       20328021
 0030BC 4398 0015      00015        4574          IC    R9,DX21(R8)          GET DISP IN RECORD MODE TABLE FO    20334021
 0030C0 4193 9000      00000        4575          LA    R9,DX0(R3,R9)        GET DISP OF ENTRY IN TABLE          20340021
 0030C4 4199 F8A2      03780        4576          LA    R9,MODETB(R9)       ADD TO ADDRESS OF TABLE              20346021
 0030C8 95FF 9000      00000        4577          CLI   DX0(R9),XXFF        RECORDING MODE LEGAL FOR ACCESS      20352021
 0030CC 0775                        4578          BCR   NOTEQ,R5            YES                                  20358021
 0030CE 4540 F7E0      036BE        4579        BAL   R4,AMEROR            ERROR                                 20364021
 0030D2 1004                        4580          DC    X'1004'             RECORDING MODE CLAUSE IGNORED        20370021
 0030D4 94F0 D8B2      0BDF2        4581          NI    BUFCAL+NX10,XXF0    SET OFF THE MODE BIT                 20376021
 0030D8 07F5                        4582          BR    R5                  RETURN                               20382021
                                    4583 * RESERVE CLAUSE - ALL ACCESS METHODS                                   20388021
 0030DA 1B33                        4584 RESVCL   SR    R3,R3                                                    20394021
 0030DC 9101 B00D      0000D        4585          TM    ICTFL1,ICTALA      RES. ALT AREA SPECIFIED?              20400021
 0030E0 07E5                        4586          BCR   NOTONE,R5          NO.                                   20406021
 0030E2 9180 801A      0001A        4587          TM    DX26(R8),XX80        YES, IS THIS LEGAL FOR THIS METH    20412021
 0030E6 47E0 F21E      030FC        4588          BC    NOTONE,RESVC2       NO, ERROR, BRANCH                    20418021
 0030EA 4330 D8A8      0BDE8        4589          IC    R3,BUFCAL           YES, GET NUMBER OF AREAS             20424021
 0030EE 4133 0001      00001        4590          LA    R3,DX1(R3,R0)       ADD 1                                20430021
 0030F2 4230 D633      0BB73        4591          STC   R3,DCB+NX20          STORE NUMER OF AREAS IN BUFNO OF    20436021
 0030F6 4230 D8A8      0BDE8        4592          STC   R3,BUFCAL           AN DIN BUFFER CALC. AREA (BUFCAL     20442021
 0030FA 07F5                        4593          BCR   UNCOND,R5           RETURN                               20448021
 0030FC 9200 D8A8      0BDE8        4594 RESVC2   MVI   BUFCAL,XX00          SET RESERVE= 0                      20454021
 003100 4540 F7E0      036BE        4595          BAL   R4,AMEROR           CALL ERROR                           20460021
 003104 000F                        4596          DC    X'000F'            MSG 15 RESERVE ALT AREA               20466021
 003106 07F5                        4597          BCR   UNCOND,R5           RETURN                               20472021
                                    4598 * SAME AREA CLAUSE -ALL ACCESS METHODS                                  20478021
 003108 D70B D938 D938 0BE78 0BE78  4599 SAMACL   XC    SAMEAR(LX12),SAMEAR  CLEAR AREA                          20484021
 00310E D709 D944 D944 0BE84 0BE84  4600          XC    SMRCDAR(LX10),SMRCDAR CLEAR AREA                         20490021
 003114 9201 D636      0BB76        4601          MVI   DCB+NX23,XX01       A(BUFCB)=1 AT THIS POINT             20496021
 003118 9140 B00E      0000E        4602          TM    ICTFL2,ICTSMA      SAME AREA?                            20502021
 00311C 4780 F24A      03128        4603          BZ    SAMACL1            NO.                                   20508021
 003120 9620 D8B3      0BDF3        4604          OI    BUFCAL+NX11,XX20    YES.                                 20514021
 003124 9604 D614      0BB54        4605          OI    FDVCNT,XX04                                              20520021
 003128 9110 B00E      0000E        4606 SAMACL1  TM    ICTFL2,ICTSRS                                            20526021
 00312C 4780 F25A      03138        4607          BZ    SAMACL2            NO.                                   20532021
 003130 9610 D8B3      0BDF3        4608          OI    BUFCAL+NX11,XX10    YES.                                 20538021
 003134 9608 D614      0BB54        4609          OI    FDVCNT,XX08                                              20544021
 003138 50F0 DA18      0BF58        4610 SAMACL2  ST    R15,TSAVER                                               20550021
 00313C 58F0 DBAC      0C0EC        4611          L     R15,ASAMRN          CALL SAMRTN TO SET UP SAMEAR WKA     20556021
 003140 05EF                        4612          BALR  R14,R15             BR TO SAMRTN                         20562021
1PH20     IKFCBL20                                                                                              PAGE  114
-  LOC  OBJECT CODE    ADDR1 ADDR2  STMT   SOURCE STATEMENT                                       ASM 0201 11.03 02/14/15
0003142 58F0 DA18      0BF58        4613          L     R15,TSAVER                                               20568021
 003146 07F5                        4614          BCR   UNCOND,R5           RETURN                               20574021
                                    4615 * APPLY WRITE ONLY CLAUSE- ALL ACCESS METHODS                           20580021
 003148 9102 B022      00022        4616 WRTOCL   TM    ICTFL4,ICTWRT      WRITE-ONLY?                           20586021
 00314C 07E5                        4617          BCR   NOTONE,R5           NO, RETURN                           20592021
 00314E 91F0 8008      00008        4618          TM    AMCODE(R8),XXF0     QSAM?                                20598021
 003152 4770 F286      03164        4619          BNZ   WRTOCA              NO                                   20604021
 003156 9160 A000      00000        4620          TM    PIBFL1,PIBOOT+PIBOIO  YES, IS FILE OPEN AS I-O OR OU     20610021
 00315A 4780 F28E      0316C        4621          BC    ZERO,WRTOCB         NO, ERROR                            20616021
 00315E 9680 D8B3      0BDF3        4622          OI    BUFCAL+NX11,XX80    W-O BIT ON                           20622021
 003162 07F5                        4623          BCR   UNCOND,R5           RETURN                               20628021
 003164 4540 F7E0      036BE        4624 WRTOCA   BAL   R4,AMEROR           ERROR                                20634021
 003168 2008                        4625          DC    X'2008'             8                                    20640021
 00316A 07F5                        4626          BCR   UNCOND,R5           RETURN                               20646021
 00316C 4540 F7E0      036BE        4627 WRTOCB   BAL   R4,AMEROR           ERROR                                20652021
 003170 106E                        4628          DC    X'106E'             110                                  20658021
 003172 07F5                        4629          BCR   UNCOND,R5           RETURN                               20664021
                                    4630 * APPLY CORE-INDEX                                                      20670021
 003174 9108 B024      00024        4631 COREIDX  TM    ICTUN1,XX08         CORE-INDEX?                          20676021
 003178 0785                        4632          BCR   ZERO,R5            NO.                                   20682021
 00317A 9120 D610      0BB50        4633          TM    FDACMT,XX20         YES. BISAM?                          20688021
 00317E 4780 F2D6      031B4        4634          BZ    COREERR            YES. ERROR.                           20694021
 003182 5830 D6C4      0BC04        4635          L     R3,DCBADD                                                20700021
 003186 5B30 D448      0B988        4636          S     R3,CON23           R3=DCB-23                             20706021
 00318A 5030 DDEC      0C32C        4637          ST    R3,LITBUF          TARGET ADDRESS.                       20712021
 00318E 922C DDEC      0C32C        4638          MVI   LITBUF,XX2C         ADDRESS CONSTANT CODE.               20718021
 003192 4130 0074      00074        4639          LA    R3,DX116            A(CORE-IDX EXIT RTN IN INIT1)        20724021
 003196 5030 DDF0      0C330        4640          ST    R3,LITBUF+NX4       RELATIVE ADDRESS                     20730021
 00319A 9203 DDF0      0C330        4641          MVI   LITBUF+NX4,XX03     AL3                                  20736021
 00319E 5810 DB84      0C0C4        4642          L     R1,COSADR                                                20742021
 0031A2 4120 DDEC      0C32C        4643          LA    R2,LITBUF                                                20748021
 0031A6 4130 0008      00008        4644          LA    R3,DX8              PUT OUT DCB EXIT ADR. FOR            20754021
 0031AA 0501                        4645          BALR  R0,R1              CORE-INDEX.                           20760021
 0031AC 14                          4646          DC    X'14'                                                    20766021
 0031AD 00
 0031AE 9602 D610      0BB50        4647          OI    FDACMT,XX02         CORE-INDEX BIT IN FD ATTRIB.         20772021
 0031B2 07F5                        4648          BR    R5                 RETURN.                               20778021
 0031B4 4540 F7E0      036BE        4649 COREERR  BAL   R4,AMEROR          APPLY CORE-IDX ILLEGAL FOR THIS       20784021
 0031B8 101B                        4650          DC    X'101B'             ACCESS METHOD                        20790021
 0031BA 07F5                        4651          BR    R5                 RETURN.                               20796021
                                    4652 * LABEL TYPE-DEVICE TYPE COMPATIBILITY.                                 20802021
 0031BC 9400 D5A1      0BAE1        4653 LABEL0   NI    LBLSW,XX00          THIS SW SET ON IN LABLBD.            20808021
 0031C0 9106 D8A9      0BDE9        4654          TM    BUFCAL+NX1,XX06                                          20814021
 0031C4 4710 F30A      031E8        4655          BO    LABEL2             DATA-NAME OPTION                      20820021
 0031C8 4780 F320      031FE        4656          BZ    LABEL4             CLAUSE NOT SPECIFIED. ERROR.          20826021
 0031CC 9104 D8A9      0BDE9        4657          TM    BUFCAL+NX1,XX04                                          20832021
 0031D0 4710 F300      031DE        4658          BO    LABEL1             OMITTED OPTION                        20838021
 0031D4 9104 B00D      0000D        4659          TM    ICTFL1,ICTUR       STANDARD. DEVICE UR?                  20844021
 0031D8 4710 F318      031F6        4660          BO    LABEL3             YES. ERROR                            20850021
 0031DC 07F5                        4661          BR    R5                 NO - OK. NO PROCESSING NEEDED.        20856021
 0031DE 9102 B00D      0000D        4662 LABEL1   TM    ICTFL1,ICTDA       DEVICE DA                             20862021
 0031E2 4770 F318      031F6        4663          BNZ   LABEL3             YES, ERROR                            20868021
 0031E6 07F5                        4664          BR    R5                 NO - OK. NO PROCESSING NEEDED.        20874021
 0031E8 9104 B00D      0000D        4665 LABEL2   TM    ICTFL1,ICTUR       UR?     OR                            20880021
 0031EC 4710 F318      031F6        4666          BO    LABEL3             YES. ERROR.                           20886021
1PH20     IKFCBL20                                                                                              PAGE  115
-  LOC  OBJECT CODE    ADDR1 ADDR2  STMT   SOURCE STATEMENT                                       ASM 0201 11.03 02/14/15
0                                   4667 *        TM    FDACMT,REL-ISAM  * DATA-NAME OPTION ILLEGAL              20892021
                                    4668 *        BX    ----             * FOR THIS ACCESS.  WHY?                20898021
 0031F0 9608 801B      0001B        4669          OI    DX27(R8),XX08       TURN ON DN OK BIT IN CLSMSK          20904021
 0031F4 07F5                        4670          BR    R5                 RETURN. MORE PROC DONE IN LABRDN      20910021
 0031F6 4540 F7E0      036BE        4671 LABEL3   BAL   R4,AMEROR           BR TO ERROR RTN                      20916021
 0031FA 0009                        4672          DC    X'0009'             9                                    20922021
 0031FC 07F5                        4673          BCR   UNCOND,R5           RETURN                               20928021
 0031FE 4540 F7E0      036BE        4674 LABEL4   BAL   R4,AMEROR           BR TO ERROR RTN                      20934021
 003202 0085                        4675          DC    X'0085'             133                                  20940021
 003204 07F5                        4676          BCR   UNCOND,R5           RETURN                               20946021
                                    4677 * RERUN CLAUSE                                                          20952021
 003206 9104 B00E      0000E        4678 RRUNCL   TM    ICTFL2,ICTCKP      RERUN CLAUSE SPECIFIED?               20958021
 00320A 07E5                        4679          BCR   NOTONE,R5          NO.                                   20964021
 00320C 5880 DB84      0C0C4        4680          L     R8,COSADR                                                20970021
 003210 50F0 DA14      0BF54        4681          ST    R15,RSAVEA+NX60     YES.                                 20976021
 003214 4810 816E      0016E        4682          LH    R1,CKPCTR                                                20982021
 003218 4111 0001      00001        4683          LA    R1,DX1(R1)                                               20988021
 00321C 4010 816E      0016E        4684          STH   R1,CKPCTR                                                20994021
 003220 9110 D5A6      0BAE6        4685          TM    PRMSW,XX10          RUNTBL PRIMED?                       21000021
 003224 4710 F358      03236        4686          BO    RRUNCL1            YES.                                  21006021
 003228 4110 DB54      0C094        4687          LA    R1,RUNPAR          NO, PRIME IT.                         21012021
 00322C 58F0 DCE4      0C224        4688          L     R15,BPRIME                                               21018021
 003230 05EF                        4689          BALR  R14,R15             BR TO PRIME RUNTBL                   21024021
 003232 9610 D5A6      0BAE6        4690          OI    PRMSW,XX10                                               21030021
 003236 5810 DB54      0C094        4691 RRUNCL1  L     R1,RUNPAR                                                21036021
 00323A 58F0 DCE8      0C228        4692          L     R15,BINSRT                                               21042021
 00323E 05EF                        4693          BALR  R14,R15             INSERT ENTRY INTO RUNTBL             21048021
 003240 58F0 DA14      0BF54        4694          L     R15,RSAVEA+NX60                                          21054021
 003244 D200 2001 D60F 00001 0BB4F  4695          MVC   DX1(LX1,R2),CI+NX35  RERUN DCB NO IN RUNTBL              21060021
 00324A 9200 2000      00000        4696          MVI   DX0(R2),XX00                                             21066021
 00324E D201 D900 B01F 0BE40 0001F  4697          MVC   FULLWD(2),ICTCPT                                         21072021
 003254 4810 D900      0BE40        4698          LH    R1,FULLWD                                                21078021
 003258 5830 DB98      0C0D8        4699          L     R3,ACHKPT                                                21084021
 00325C 5833 0000      00000        4700          L     R3,DX0(R3)                                               21090021
 003260 5833 0000      00000        4701          L     R3,DX0(R3)                                               21096021
 003264 5430 D4C4      0BA04        4702          N     R3,MK0932          A(CHK PT TBL)                         21102021
 003268 1A13                        4703          AR    R1,R3              A(ENTRY)                              21108021
 00326A D203 2004 100C 00004 0000C  4704          MVC   DX4(4,R2),DX12(R1)                                       21114021
 003270 D201 2002 100A 00002 0000A  4705          MVC   DX2(2,R2),DX10(R1)                                       21120021
 003276 5880 D8BC      0BDFC        4706          L     R8,BUFCAL+NX20                                           21126021
 00327A 07F5                        4707          BR    R5                  RETURN                               21132021
                                    4708 * TRACK LIMIT CLAUSE-ALL ACCESS METHOD                                  21138021
 00327C D501 B01B D3F4 0001B 0B934  4709 TRKLIM   CLC   ICTTLM(LX2),ZEROS   TRACK LIMIT SPECIFIED?               21144021
 003282 0785                        4710          BCR   EQ,R5              NO - RETURN.                          21150021
 003284 9120 801A      0001A        4711          TM    CLSMSK(R8),XX20     IS CLAUSE LEGAL FOR THIS ACCESS      21156021
 003288 4780 F3C2      032A0        4712          BZ    TRKLIM1            NO - ERROR.                           21162021
 00328C 9140 A000      00000        4713          TM    PIBFL1,PIBOOT      YES. OPENED OUTPUT?                   21168021
 003290 4780 F3CA      032A8        4714          BZ    TRKLIM2            NO - ERROR.(WARNING)                  21174021
 003294 9602 D610      0BB50        4715          OI    FDACMT,XX02         YES - SET TRACK LIMIT BIT.           21180021
 003298 D201 D681 B01B 0BBC1 0001B  4716          MVC   DCB+NX98(LX2),ICTTLM MOVE TRACK LIMIT NO INTO DCB.       21186021
 00329E 07F5                        4717          BR    R5                 RETURN.                               21192021
 0032A0 4540 F7E0      036BE        4718 TRKLIM1  BAL   R4,AMEROR           TRK LIMIT NOT LEGAL FOR ACCESS       21198021
 0032A4 200D                        4719          DC    X'200D'            13                                    21204021
 0032A6 07F5                        4720          BR    R5                  RETURN                               21210021
 0032A8 4540 F7E0      036BE        4721 TRKLIM2  BAL   R4,AMEROR          NOT OPENED OUTPUT                     21216021
1PH20     IKFCBL20                                                                                              PAGE  116
-  LOC  OBJECT CODE    ADDR1 ADDR2  STMT   SOURCE STATEMENT                                       ASM 0201 11.03 02/14/15
00032AC 000E                        4722          DC    X'000E'            14                                    21222021
 0032AE 07F5                        4723          BR    R5                  RETURN                               21228021
                                    4724 * BLOCK CONTAINS CLAUSE- ALL ACCESS METHODS                             21234021
 0032B0 9118 D8A9      0BDE9        4725 BLKCCL   TM    BUFCAL+NX1,XX18      IS BLOCK CONTAINS CLAUSE GIVEN      21240021
 0032B4 0785                        4726          BCR   ZERO,R5             NO, RETURN                           21246021
 0032B6 9140 801B      0001B        4727          TM    DX27(R8),XX40        YES, IS IT LEGAL FOR THIS ACC. M    21252021
 0032BA 0715                        4728          BCR   ONES,R5            YES                                   21258021
 0032BC 94E7 D8A9      0BDE9        4729 BLKCC1   NI    BUFCAL+NX1,XXE7      DELETE CLAUSE AND                   21264021
 0032C0 D701 D8AA D8AA 0BDEA 0BDEA  4730          XC    BUFCAL+NX2(LX2),BUFCAL+NX2 INTEGER                       21270021
                                    4731 *        BAL   R4,AMEROR          BLOCK CONTAINS CLAUSE TREATED         21276021
                                    4732 *        DC    X'0013'             AS COMMENTS FOR THIS ACCESS          21282021
 0032C6 07F5                        4733          BCR   UNCOND,R5           RETURN                               21288021
                                    4734 * WRITE AFTER ADVANCING STATEMENT- ALL ACCESS METHODS                   21294021
 0032C8 9101 A001      00001        4735 WRTADV   TM    PIBFL2,PIBPOS      POSITIONING?                          21300021
 0032CC 4780 F406      032E4        4736          BZ    WRADV0             NO                                    21306021
 0032D0 91F0 D610      0BB50        4737          TM    FDACMT,XXF0               IS ACCESS QSAM           41077 21312021
 0032D4 4770 F44C      0332A        4738          BNZ   WRTAD1                    NO, ERROR                41077 21318021
 0032D8 9604 D610      0BB50        4739          OI    FDACMT,XX04         YES.                                 21324021
 0032DC 9610 D8B2      0BDF2        4740          OI    BUFCAL+NX10,XX10                                         21330021
 0032E0 47F0 F442      03320        4741          B     WRADV25             GO TEST WHETHER OPENED OUTPUT  54416 21336021
 0032E4 9108 A000      00000        4742 WRADV0   TM    PIBFL1,PIBWAA      A-A                                   21342021
 0032E8 4780 F41E      032FC        4743          BZ    WRADV1             NO                                    21348021
 0032EC 91F0 D610      0BB50        4744          TM    FDACMT,XXF0               IS ACCESS QSAM           41077 21354021
 0032F0 4770 F44C      0332A        4745          BNZ   WRTAD1                    NO, ERROR                41077 21360021
 0032F4 9680 D8B2      0BDF2        4746          OI    BUFCAL+NX10,XX80    YES.                                 21366021
 0032F8 9601 D610      0BB50        4747          OI    FDACMT,XX01                                              21372021
 0032FC 9110 A001      00001        4748 WRADV1   TM    PIBFL2,PIBWBA       B-A?                                 21378021
 003300 4780 F43A      03318        4749          BZ    WRADV2             NO                                    21384021
 003304 91F0 D610      0BB50        4750          TM    FDACMT,XXF0               IS ACCESS QSAM           41077 21390021
 003308 4770 F44C      0332A        4751          BNZ   WRTAD1                    NO, ERROR                41077 21396021
 00330C 947F D8B2      0BDF2        4752          NI    BUFCAL+NX10,XX7F    YES.                                 21402021
 003310 9640 D8B2      0BDF2        4753          OI    BUFCAL+NX10,XX40                                         21408021
 003314 9608 D610      0BB50        4754          OI    FDACMT,XX08                                              21414021
 003318 91C0 D8B2      0BDF2        4755 WRADV2   TM    BUFCAL+NX10,XXC0    ANY ADVANCING OPTION?                21420021
 00331C 4780 F44A      03328        4756          BZ    WRADV3             NO                                    21426021
 003320 9140 A000      00000        4757 WRADV25  TM    PIBFL1,PIBOOT       IS FILE OPENED OUTPUT?         54416 21432021
 003324 4780 F44C      0332A        4758          BZ    WRTAD1             NO - ERROR                            21438021
 003328 07F5                        4759 WRADV3   BR    R5                  RETURN                               21444021
 00332A 4540 F7E0      036BE        4760 WRTAD1   BAL   R4,AMEROR           CALL ERROR RTN                       21450021
 00332E 2019                        4761          DC    X'2019'             25                                   21456021
 003330 942F D8B2      0BDF2        4762          NI    BUFCAL+NX10,XX2F                                         21462021
 003334 94F2 D610      0BB50        4763          NI    FDACMT,XXF2                                              21468021
 003338 07F5                        4764          BCR   UNCOND,R5           RETURN                               21474021
 00333A 9101 B023      00023        4765 RCDOVF   TM    ICTFL5,ICTROS      RECORD OVERFLOW?                      21480021
 00333E 0785                        4766          BCR   ZERO,R5            NO - RETURN.                          21486021
 003340 9130 D610      0BB50        4767          TM    FDACMT,XX30         ISAM?                                21492021
 003344 4770 F470      0334E        4768          BNZ   RCDOV1             YES - ERROR.                          21498021
 003348 9620 D8B2      0BDF2        4769          OI    BUFCAL+NX10,XX20                                         21504021
 00334C 07F5                        4770          BR    R5                 RETURN                                21510021
 00334E 4540 F7E0      036BE        4771 RCDOV1   BAL   R4,AMEROR           BR TO ERROR RTN                      21516021
 003352 0005                        4772          DC    X'0005'            RCD OVFL ILLEGAL FOR ISAM             21522021
 003354 07F5                        4773          BR    R5                  RETURN                               21528021
                                    4774 * TRACK AREA CLAUSE- ALL ACCESS METHODS                                 21534021
 003356 1B99                        4775 TRKACL   SR    R9,R9                                                    21540021
 003358 91C0 B022      00022        4776          TM    ICTFL4,ICTTKA      TRACK AREA                            21546021
1PH20     IKFCBL20                                                                                              PAGE  117
-  LOC  OBJECT CODE    ADDR1 ADDR2  STMT   SOURCE STATEMENT                                       ASM 0201 11.03 02/14/15
000335C 4780 F55C      0343A        4777          BC    ZERO,TRKAC5         NO                                   21552021
 003360 4397 0000      00000        4778          IC    R9,DX0(R7)           YES                                 21558021
 003364 9120 8008      00008        4779          TM    AMCODE(R8),XX20     BISAM                                21564021
 003368 47E0 F52A      03408        4780          BC    NOTONE,TRKAC2       NO, ERROR                            21570021
 00336C 9180 B022      00022        4781          TM    ICTFL4,XX80         INTEGER?                             21576021
 003370 47E0 F4C4      033A2        4782          BC    NOTONE,TRKAC1       NO, IT IS DATA-NAME                  21582021
 003374 4190 0001      00001        4783          LA    R9,DX1               YES, SET FIELD COUNT TO 1           21588021
 003378 D501 7000 D472 00000 0B9B2  4784          CLC   DX0(LX2,R7),CON32K+NX2 IS INTEGER GREATER THAN 32767     21594021
 00337E 4720 F54C      0342A        4785          BC    HI,TRKAC4           YES, ERROR                           21600021
 003382 9107 7001      00001        4786 TRKAC0   TM    DX1(R7),XX07         NO, CHECK FOR MULTIPLE OF 8         21606021
 003386 4780 F4B6      03394        4787          BC    ZERO,TRKA01         IT IS A MULT. OF 8                   21612021
 00338A 4540 F7E0      036BE        4788          BAL   R4,AMEROR           IT IS NOT A MULT. OF 8, ROUND DO     21618021
 00338E 106D                        4789          DC    X'106D'             109-TO MULT. OF 8                    21624021
 003390 94F8 7001      00001        4790 TRKA00   NI    DX1(R7),XXF8                                             21630021
 003394 D201 D665 7000 0BBA5 00000  4791 TRKA01   MVC   DCB+NX70(LX2),DX0(R7) MOVE INTEGER TO SMSW OF DCB        21636021
 00339A 9604 D610      0BB50        4792          OI    FDACMT,XX04         SET TRACK AREA BIT ON IN CI.         21642021
 00339E 47F0 F53C      0341A        4793          BC    UNCOND,TRKAC3       GET NEXT BUFFER                      21648021
 0033A2 9200 D76E      0BCAE        4794 TRKAC1   MVI   TRACK+NX10,XX00      CLEAR TRACK AREA SW                 21654021
 0033A6 9120 D5A3      0BAE3        4795          TM    PTBLSW,XX20          IS TRACK AREA DN TABLE PRIMED       21660021
 0033AA 4710 F4DE      033BC        4796          BC    ONES,TRKA1A         YES, BRANCH TO INSERT                21666021
 0033AE 4110 DB0C      0C04C        4797          LA    R1,TPARAM           NO, PRIME TABLE                      21672021
 0033B2 58F0 DCE4      0C224        4798          L     R15,BPRIME                                               21678021
 0033B6 05EF                        4799          BALR  R14,R15             BR TO PRIME TABLE                    21684021
 0033B8 9620 D5A3      0BAE3        4800          OI    PTBLSW,XX20          TURN ON PRIMED SW                   21690021
 0033BC 4109 0001      00001        4801 TRKA1A   LA    R0,DX1(R9)           R0= LGN OF INSERT ENTRY             21696021
 0033C0 5810 DB0C      0C04C        4802          L     R1,TPARAM           R1= A(TABLE'S TIB)                   21702021
 0033C4 58F0 DCE8      0C228        4803          L     R15,BINSRT                                               21708021
 0033C8 05EF                        4804          BALR  R14,R15             CALL TAMER FOR INSERT AREA           21714021
 0033CA 58F0 DB88      0C0C8        4805          L     R15,AACMET                                               21720021
 0033CE 9180 D76E      0BCAE        4806          TM    TRACK+NX10,XX80                                          21726021
 0033D2 4710 F520      033FE        4807          BC    ONES,TRKA1B         BUILD TABLE                          21732021
 0033D6 4490 F546      03424        4808          EX    R9,MOVTRK           MOVE DATA-NAME TO TABLE              21738021
 0033DA 9680 D76E      0BCAE        4809          OI    TRACK+NX10,XX80                                          21744021
 0033DE 5830 D6C4      0BC04        4810          L     R3,DCBADD                                                21750021
 0033E2 4133 0040      00040        4811          LA    R3,DX64(R3)                                              21756021
 0033E6 1823                        4812          LR    R2,R3               R2= REL LOC OF MSWA IN DCB           21762021
 0033E8 4133 0006      00006        4813          LA    R3,DX6(R3)           R3= REL LOC OF SMSW IN DCB          21768021
 0033EC 9023 D764      0BCA4        4814          STM   R2,R3,TRACK                                              21774021
 0033F0 D201 D76C D5C7 0BCAC 0BB07  4815          MVC   TRACK+NX8(LX2),CARDNO                                    21780021
 0033F6 4100 000A      0000A        4816          LA    R0,DX10                                                  21786021
 0033FA 47F0 F4E2      033C0        4817          BC    UNCOND,TRKA1A+NX4   GET A(TIB)                           21792021
 0033FE D209 2000 D764 00000 0BCA4  4818 TRKA1B   MVC   DX0(LX10,R2),TRACK    MOVE TRACK-AREA INFO TO TABLE      21798021
 003404 47F0 F53C      0341A        4819          BC    UNCOND,TRKAC3       GET NEXT BUFFER                      21804021
 003408 4540 F7E0      036BE        4820 TRKAC2   BAL   R4,AMEROR           ILLEGAL FOR THIS ACCESS METHOD       21810021
 00340C 1014                        4821          DC    X'1014'             20                                   21816021
 00340E 9180 B022      00022        4822          TM    ICTFL4,XX80         INTEGER?                             21822021
 003412 47E0 F53C      0341A        4823          BC    NOTONE,TRKAC3       NO, IT IS 'DATA-NAME'                21828021
 003416 4190 0001      00001        4824          LA    R9,DX1                                                   21834021
 00341A 4177 9001      00001        4825 TRKAC3   LA    R7,DX1(R7,R9)        INCREMENT BUFFER TO NEXT FIELD      21840021
 00341E 4540 F828      03706        4826          BAL   R4,CHKFF            CHECK FOR END OF BUFFER              21846021
 003422 07F5                        4827          BCR   UNCOND,R5           RETURN                               21852021
 003424 D200 2000 7000 00000 00000  4828 MOVTRK   MVC   DX0(LX0,R2),DX0(R7)                                      21858021
 00342A 4540 F7E0      036BE        4829 TRKAC4   BAL   R4,AMEROR           INTEGER > 32K OR                     21864021
 00342E 00AF                        4830        DC    X'00AF'                                                    21870021
 003430 D201 7000 D472 00000 0B9B2  4831          MVC   DX0(LX2,R7),CON32K+NX2 TRUNCATE INTEGER TO 32760         21876021
1PH20     IKFCBL20                                                                                              PAGE  118
-  LOC  OBJECT CODE    ADDR1 ADDR2  STMT   SOURCE STATEMENT                                       ASM 0201 11.03 02/14/15
0003436 47F0 F4B2      03390        4832          BC    UNCOND,TRKA00       CONTINUE                             21882021
 00343A 9120 D610      0BB50        4833 TRKAC5   TM    FDACMT,XX20         IS ACCESS METHOD BISAM?              21888021
 00343E 47E0 F53C      0341A        4834          BC    NOTONE,TRKAC3       NO,                                  21894021
 003442 9201 D662      0BBA2        4835          MVI   DCB+NX67,XX01        YES, SET A(MSWA) FIELD OF DCB TO    21900021
 003446 47F0 F53C      0341A        4836        BC    UNCOND,TRKAC3         INCREMENT BUFFER                     21906021
                                    4837 * INTERNAL ROUTINE -BSAM ONLY                                           21912021
 00344A 91C0 8008      00008        4838 BSAMKY TM    AMCODE(R8),BSAMBDAM        BSAM OR BDAM                    21918021
 00344E 0785                        4839          BCR   ZERO,R5             NO, RETURN                           21924021
 003450 9118 D8A9      0BDE9        4840          TM    BUFCAL+NX1,XX18      BLOCK CONTAINS CLAUSE ACCEPTED      21930021
 003454 4780 F59A      03478        4841          BZ    BSAMKY0             NO                                   21936021
 003458 9108 D8A9      0BDE9        4842          TM    BUFCAL+NX1,XX08      BLOCK CONTAINS RECORD               21942021
 00345C 4710 F58A      03468        4843          BO    BSAMKYA             YES, ERROR                           21948021
 003460 910E D8B2      0BDF2        4844          TM    BUFCAL+NX10,XX0E     YES, RECORDING MODE SPECIFIED       21954021
 003464 4780 F59A      03478        4845          BZ    BSAMKY0             ERROR IF OTHER THAN S                21960021
 003468                             4846 BSAMKYA  DS    0H                                                       21966021
 003468 94E7 D8A9      0BDE9        4847          NI    BUFCAL+NX1,XXE7      DELETE CLAUSE AND                   21972021
 00346C D701 D8AA D8AA 0BDEA 0BDEA  4848          XC    BUFCAL+NX2(LX2),BUFCAL+NX2 INTEGER                       21978021
 003472 4540 F7E0      036BE        4849          BAL   R4,AMEROR           BLOCK CONTAINS CLAUSE TREATED        21984021
 003476 0013                        4850          DC    X'0013'             AS COMMENTS FOR THIS ACCESS          21990021
 003478 9584 8008      00008        4851 BSAMKY0  CLI   AMCODE(R8),XX84      D-BDAM-D                            21996021
 00347C 4770 F5AA      03488        4852          BNE   BSAMK00             NO                                   22002021
 003480 9620 D8C0      0BE00        4853          OI    BUFCAL+NX24,XX20    YES, SET 'W' CODE IN BUFCAL          22008021
 003484 47F0 F5CC      034AA        4854          B     BSAMK0B             PRIME BSAM TABLE                     22014021
 003488 918C 8008      00008        4855 BSAMK00  TM    AMCODE(R8),XX8C                                          22020021
 00348C 4710 F5C8      034A6        4856          BO    BSAMK0A            YES                                   22026021
 003490 9140 D610      0BB50        4857          TM    FDACMT,XX40         NO. BSAM?                            22032021
 003494 0785                        4858          BCR   ZERO,R5            NO - RETURN.                          22038021
 003496 9118 B022      00022        4859          TM    ICTFL4,ICTACT+ICTNOM   KEY(ACT,NOM) SPECIFIED?           22044021
 00349A 0785                        4860          BCR   ZERO,R5            NO - RETURN.                          22050021
 00349C 9608 D610      0BB50        4861          OI    FDACMT,XX08         SET KEY SPECIFIED BIT IN CI.         22056021
 0034A0 9104 D610      0BB50        4862          TM    FDACMT,XX04         DIRECT BSAM?                         22062021
 0034A4 0785                        4863          BCR   ZERO,R5            NO-RETURN.                            22068021
 0034A6 9610 D8C0      0BE00        4864 BSAMK0A  OI    BUFCAL+NX24,XX10    D-BDAM-D, OR D-BSAM WITH KEY.        22074021
 0034AA 9108 D5A3      0BAE3        4865 BSAMK0B  TM    PTBLSW,XX08         BSAM TABLE PRIMED?                   22080021
 0034AE 4710 F5EA      034C8        4866          BO    BSAMK1             YES, BRANCH.                          22086021
 0034B2 4110 DAFC      0C03C        4867          LA    R1,BSMPAR          NO, PRIME TABLE                       22092021
 0034B6 50F0 DA18      0BF58        4868          ST    R15,TSAVER                                               22098021
 0034BA 58F0 DCE4      0C224        4869          L     R15,BPRIME                                               22104021
 0034BE 05EF                        4870          BALR  R14,R15             BR TO PRIME TABLE RTN                22110021
 0034C0 58F0 DA18      0BF58        4871          L     R15,TSAVER                                               22116021
 0034C4 9608 D5A3      0BAE3        4872          OI    PTBLSW,XX08         SET PRIME SW ON FOR BSAMTBL          22122021
 0034C8 5810 DAFC      0C03C        4873 BSAMK1   L     R1,BSMPAR                                                22128021
 0034CC 50F0 DA18      0BF58        4874          ST    R15,TSAVER                                               22134021
 0034D0 58F0 DCE8      0C228        4875          L     R15,BINSRT         CALL INSERT OF TAMER                  22140021
 0034D4 05EF                        4876          BALR  R14,R15             INSERT ENTRY INTO TABLE              22146021
 0034D6 58F0 DA18      0BF58        4877          L     R15,TSAVER                                               22152021
 0034DA D202 2003 D6C9 00003 0BC09  4878          MVC   DX3(LX3,R2),DECBAD+NX1 MOVE REL LOC OF DECB TO TABLE.    22158021
 0034E0 5030 D908      0BE48        4879          ST    R3,BSAMPT          SAVE DISPLACEMENT IN BSAMTBL.         22164021
 0034E4 9201 2009      00009        4880          MVI   DX9(R2),XX01        INDICATE NO SAMETBL OR               22170021
 0034E8 9201 200D      0000D        4881          MVI   DX13(R2),XX01       SAME RECORD TABLE AT THIS POINT      22176021
 0034EC 9200 2011      00011        4882          MVI   DX17(R2),XX00                                            22182021
 0034F0 D200 D943 B00F 0BE83 0000F  4883          MVC   SAMEAR+NX11(NX1),ICTTRK TRACK CAPACITY                   22188021
 0034F6 958C 8008      00008        4884          CLI   AMCODE(R8),XX8C     BDAM-D?                              22194021
 0034FA 4780 F626      03504        4885          BE    BSAMK2              YES                                  22200021
 0034FE 9680 2011      00011        4886          OI    DX17(R2),XX80        NO                                  22206021
1PH20     IKFCBL20                                                                                              PAGE  119
-  LOC  OBJECT CODE    ADDR1 ADDR2  STMT   SOURCE STATEMENT                                       ASM 0201 11.03 02/14/15
0003502 07F5                        4887          BR    R5                  RETURN                               22212021
 003504 9101 D8B2      0BDF2        4888 BSAMK2   TM    BUFCAL+NX10,XX01     S-MODE                              22218021
 003508 07E5                        4889          BCR   NOTONE,R5           NO, RETURN                           22224021
 00350A 9640 2011      00011        4890          OI    DX17(R2),XX40        YES, SET BIT ON                     22230021
 00350E D200 D943 B00F 0BE83 0000F  4891          MVC   SAMEAR+NX11(NX1),ICTTRK TRACK CAPACITY                   22236021
 003514 07F5                        4892          BR    R5                  RETURN                               22242021
                                    4893 * SYMBOLIC, ACTUAL, AND RECORD KEYS CLAUSE- ALL ACCESS METHODS          22248021
 003516 9544 8008      00008        4894 KEYSCL   CLI   AMCODE(R8),XX44     BSAM-D?                              22254021
 00351A 4770 F650      0352E        4895          BNE   KEYSQI             NO.                                   22260021
 00351E 94FD 801B      0001B        4896 KEYSBS   NI    CLSMSK+NX1(R8),XXFD YES, SET ACT-KEY REQUIRED BIT OFF    22266021
 003522 9140 A000      00000        4897          TM    PIBFL1,PIBOOT      OPENED OUTPUT                         22272021
 003526 4780 F650      0352E        4898          BZ    *+8                NO.                                   22278021
 00352A 9602 801B      0001B        4899          OI    CLSMSK+NX1(R8),XX02 YES, SET ACT-KEY REQUIRED BIT ON.    22284021
 00352E 9520 8008      00008        4900 KEYSQI   CLI   AMCODE(R8),XX20     OISAM?                               22290021
 003532 4770 F668      03546        4901          BNE   KEYSC0             NO.                                   22296021
 003536 94FB 801B      0001B        4902          NI    CLSMSK+NX1(R8),XXFB YES, SET NOM-KEY REQUIRED BIT OFF    22302021
 00353A 9108 A002      00002        4903          TM    PIBFL3,PIBSRT      START?                                22308021
 00353E 4780 F668      03546        4904          BZ    *+8                NO.                                   22314021
 003542 9604 801B      0001B        4905          OI    CLSMSK+NX1(R8),XX04 YES.                                 22320021
 003546 4130 0003      00003        4906 KEYSC0   LA    R3,DX3              SET R3 TO PROCESS NOM-KEY.           22326021
 00354A 1B99                        4907 KEYSC1   SR    R9,R9                                                    22332021
 00354C 4393 D244      0B784        4908          IC    R9,KEYMSK(R3)       GET APPROPRIATE KEY MASK             22338021
                                    4909 *                                  * REGISTER 3  * KEY          *MA     22344021
                                    4910 *                                  ********************************     22350021
                                    4911 *                                  *             *              *       22356021
                                    4912 *                                 *      3      * NOMINAL * X'10'       22362021
                                    4913 *                                  *      2      * ACTUAL       * X     22368021
                                    4914 *                                  *      1      * RECORD       * X     22374021
                                    4915 *                                  *             *              *       22380021
                                    4916 *                                  ********************************     22386021
 003550 4490 F7D4      036B2        4917          EX    R9,TEST01           IS KEY CLAUSE GIVEN                  22392021
 003554 47E0 F6A6      03584        4918          BC    NOTONE,KEYSC3       NO, BRANCH                           22398021
 003558 4490 F7D8      036B6        4919          EX    R9,TEST02           YES, IS IT LEGAL FOR THIS ACCESS     22404021
 00355C 47E0 F6C8      035A6        4920          BC    NOTONE,KEYSCE       NO, ERROR                     ME     22410021
 003560 5898 001C      0001C        4921          L     R9,DX28(R8)          YES, GET A(KEYRTN) FOR THIS TYPE    22416021
 003564 5930 D3F8      0B938        4922          C     R3,ONE                                                   22422021
 003568 4770 F692      03570        4923          BNE   *+8                 BYPASS INCREMENTING                  22428021
 00356C 4199 0004      00004        4924          LA    R9,DX4(R9)                                               22434021
 003570 50F0 DA14      0BF54        4925          ST    R15,RSAVEA+NX60                                          22440021
 003574 58F0 DBBC      0C0FC        4926          L     R15,AKEYRN                                               22446021
 003578 05E9                        4927          BALR  R14,R9              CALL KEY ROUTINE                     22452021
 00357A 58F0 DA14      0BF54        4928          L     R15,RSAVEA+NX60                                          22458021
 00357E 4630 F66C      0354A        4929 KEYSC2   BCT   R3,KEYSC1           DECREMENT REG3 FOR NEXT KEY, IF      22464021
                                    4930 *                                    ALL KEYS HAVE BEEN PROCESSED       22470021
 003582 07F5                        4931          BCR   UNCOND,R5           RETURN                               22476021
 003584 8890 0002      00002        4932 KEYSC3   SRL   R9,DX2              1=RCD,2=ACT,4=NOM                    22482021
 003588 4490 F7DC      036BA        4933          EX    R9,TEST03          IS THIS KEY REQUIRED?                 22488021
 00358C 47E0 F6BC      0359A        4934          BC    NOTONE,KEYSC4       NO, BRANCH                           22494021
 003590 4540 F7E0      036BE        4935          BAL   R4,AMEROR           YES, ERROR - REQUIRED CLAUSE         22500021
 003594 2017                        4936          DC    X'2017'             23                                   22506021
 003596 4540 F6DE      035BC        4937          BAL   R4,KEYSCF           PUT OUT MSGPAR ( KEY TYPE )          22512021
 00359A 4177 0001      00001        4938 KEYSC4   LA    R7,DX1(R7)           INCREMENT BUFFER PTR. TO NEXT FI    22518021
 00359E 4540 F828      03706        4939          BAL   R4,CHKFF             AND CHECK FOR END OF BUFFER         22524021
 0035A2 47F0 F6A0      0357E        4940          BC    UNCOND,KEYSC2       PROCESS NEXT KEY                     22530021
 0035A6 4540 F7E0      036BE        4941 KEYSCE   BAL   R4,AMEROR           ILLEGAL KEY CLAUSE                   22536021
1PH20     IKFCBL20                                                                                              PAGE  120
-  LOC  OBJECT CODE    ADDR1 ADDR2  STMT   SOURCE STATEMENT                                       ASM 0201 11.03 02/14/15
00035AA 2018                        4942          DC    X'2018'             24                                   22542021
 0035AC 4540 F6DE      035BC        4943          BAL   R4,KEYSCF           PUT OUT MSGPAR ( KEY TYPE )          22548021
 0035B0 4177 0002      00002        4944          LA    R7,DX2(R7)           SET R7 TO INDIVIDUAL NAME COUNT     22554021
 0035B4 4540 F804      036E2        4945          BAL   R4,LOOKAH           CALL LOOKAH TO PUT BUFFER PTR AT     22560021
 0035B8 47F0 F6A0      0357E        4946          BC    UNCOND,KEYSC2        NEXT FIELD.                         22566021
 0035BC 4113 D247      0B787        4947 KEYSCF   LA    R1,KYCODE-NX1(R3)    MOVE KEY CODE                       22572021
 0035C0 D200 D5C6 1000 0BB06 00000  4948          MVC   MSGPRM+NX3(LX1),DX0(R1) TO MESSAGE PARAMETER             22578021
 0035C6 5810 DB84      0C0C4        4949          L     R1,COSADR           PUT OUT MESSAGE PARAMETER            22584021
 0035CA 4120 D5C3      0BB03        4950          LA    R2,MSGPRM                                                22590021
 0035CE 0501                        4951          BALR  R0,R1               BR TO COMMON                         22596021
 0035D0 24                          4952          DC    X'24'               PUT ON FILE 4                        22602021
 0035D1 00
 0035D2 07F4                        4953          BCR   UNCOND,R4           RETURN TO IN-LINE CODE               22608021
                                    4954 * APPLY REORG CRITERIA CLAUSE CHECKING                                  22614021
 0035D4 9104 B024      00024        4955 REORG00  TM    ICTUN1,XX04         REORG BIT ON?                        22620021
 0035D8 4780 F72E      0360C        4956          BZ    REORG99            NO.                                   22626021
 0035DC 9520 8008      00008        4957          CLI   AMCODE(R8),XX20     YES. BISAM?                          22632021
 0035E0 4780 F720      035FE        4958          BE    REORG01            YES, OK.                              22638021
 0035E4 4540 F7E0      036BE        4959          BAL   R4,AMEROR           NO. ERROR                            22644021
 0035E8 0007                        4960          DC    X'0007'            REORG OPT ILLEGAL FOR THIS ACCESS     22650021
 0035EA D201 D900 7000 0BE40 00000  4961          MVC   FULLWD(LX2),DX0(R7)  BISAM FILE.                         22656021
 0035F0 4890 D900      0BE40        4962          LH    R9,FULLWD                                                22662021
 0035F4 4177 9002      00002        4963          LA    R7,DX2(R7,R9)                                            22668021
 0035F8 4540 F828      03706        4964          BAL   R4,CHKFF          CHECK FOR EOB                          22674021
 0035FC 07F5                        4965          BR    R5                  RETURN                               22680021
 0035FE 58F0 DC38      0C178        4966 REORG01  L     R15,AREORGBD                                             22686021
 003602 05EF                        4967          BALR  R14,R15            CALL REORG TBL BUILD ROUTINE.         22692021
 003604 58F0 DB88      0C0C8        4968          L     R15,AACMET                                               22698021
 003608 9608 D8B3      0BDF3        4969          OI    BUFCAL+NX11,XX08                                         22704021
 00360C 4177 0001      00001        4970 REORG99  LA    R7,DX1(R7)          R7 POINTS TO THE NEXT FIELD.         22710021
 003610 4540 F828      03706        4971          BAL   R4,CHKFF          CHECK FOR EOB                          22716021
 003614 07F5                        4972          BR    R5                  RETURN                               22722021
                                    4973 * TOTALING AREA IS DATANAME OPTION CHECKING                             22728021
 003616 9180 B02D      0002D        4974 TOTAR00  TM    ICTFL6,XX80         TOTALING AREA BIT ON?                22734021
 00361A 4780 F778      03656        4975          BZ    TOTAR98            NO.                                   22740021
 00361E 91F0 D610      0BB50        4976          TM    FDACMT,XXF0     *** QSAM?                                22746021
 003622 4770 F75E      0363C        4977          BNZ   TOTARER        *** NO - ERROR                            22752021
 003626 9604 D8B3      0BDF3        4978          OI    BUFOPT2,TTLMSK     TOTALING AREA?                        22758021
 00362A 50F0 DA14      0BF54        4979          ST    R15,RSAVEA+NX60                                          22764021
 00362E 58F0 DB90      0C0D0        4980          L     R15,ATTLBD         CALL TOT-AR TBL BUILD RTN.            22770021
 003632 05EF                        4981          BALR  R14,R15             BR TO ROUTINE                        22776021
 003634 58F0 DA14      0BF54        4982          L     R15,RSAVEA+NX60                                          22782021
 003638 47F0 F780      0365E        4983          B     TOTAR99             BR TO RETURN                         22788021
                                    4984 *                                                                       22794021
 00363C 4540 F7E0      036BE        4985 TOTARER  BAL   R4,AMEROR      ***                                       22800021
 003640 0026                        4986          DC    X'0026'            TOTALING AREA CLAUSE ILLEGAL          22806021
 003642 D201 D900 7000 0BE40 00000  4987          MVC   FULLWD(LX2),DX0(R7) ***     FOR THIS ACCESS METHOD.      22812021
 003648 4890 D900      0BE40        4988          LH    R9,FULLWD      ***                                       22818021
 00364C 4177 9002      00002        4989          LA    R7,DX2(R7,R9)   *** R7 POINTS TO NEXT FIELD.             22824021
 003650 4540 F828      03706        4990          BAL   R4,CHKFF          CHECK FOR EOB                          22830021
 003654 07F5                        4991          BR    R5             ***                                       22836021
 003656 4177 0001      00001        4992 TOTAR98  LA    R7,DX1(R7)          NO TOTALING AREA. R7=A(NXT FLD)      22842021
 00365A 4540 F828      03706        4993          BAL   R4,CHKFF          CHECK FOR EOB                          22848021
 00365E 07F5                        4994 TOTAR99  BR    R5                 RETURN                                22854021
 003660 9106 D8A9      0BDE9        4995 LABRDN   TM    BUFCAL+NX1,XX06      'DATA-NAME' OPTION OF LABEL RECO    22860021
1PH20     IKFCBL20                                                                                              PAGE  121
-  LOC  OBJECT CODE    ADDR1 ADDR2  STMT   SOURCE STATEMENT                                       ASM 0201 11.03 02/14/15
0003664 4710 F78C      0366A        4996          BC    ONES,LABRD1         YES                                  22866021
 003668 07F5                        4997          BCR   UNCOND,R5           NO, RETURN                           22872021
 00366A 9108 801B      0001B        4998 LABRD1   TM    DX27(R8),XX08        IS IT LEGAL                         22878021
 00366E 47E0 F7AC      0368A        4999          BC    NOTONE,LABRD2       NO                                   22884021
 003672 50F0 DA14      0BF54        5000          ST    R15,RSAVEA+NX60      YES                                 22890021
 003676 9602 D614      0BB54        5001          OI    FDVCNT,XX02         SET LBL BIT FOR PH5 OPEN CODE        22896021
 00367A 58F0 DB8C      0C0CC        5002          L     R15,ALABRN                                               22902021
 00367E 05EF                        5003          BALR  R14,R15             CALL LABEL BUILD ROUTINE             22908021
 003680 58F0 DA14      0BF54        5004          L     R15,RSAVEA+NX60                                          22914021
 003684 94F7 801B      0001B        5005          NI    DX27(R8),XXF7        TURN OFF LABEL RECORDS BIT IN QS    22920021
                                    5006 *                                                      CLAUSE MASK      22926021
 003688 07F5                        5007          BCR   UNCOND,R5           RETURN                               22932021
 00368A 4540 F804      036E2        5008 LABRD2   BAL   R4,LOOKAH           SCAN TO END OF LABEL NAMES           22938021
 00368E 0675                        5009          BCTR  R7,R5               RETURN                               22944021
 003690 9180 8008      00008        5010 BDAMCL   TM    AMCODE(R8),XX80     BDAM                                 22950021
 003694 0785                        5011          BCR   ZERO,R5            -O.                                   22956021
 003696 D600 D653 8019 0BB93 00019  5012          OC    DCB+NX52(LX1),OPTCODE(R8)                                22962021
 00369C 1B99                        5013          SR    R9,R9                                                    22968021
 00369E 4398 0013      00013        5014          IC    R9,DX19(R8)          PUT BLOCK REFERENCE PTR             22974021
 0036A2 5A90 D6C8      0BC08        5015          A     R9,DECBAD            IN DECB                             22980021
 0036A6 5090 D900      0BE40        5016          ST    R9,FULLWD           RELATIVE ADDRESSING= DECB+29         22986021
 0036AA D203 D6A7 D900 0BBE7 0BE40  5017          MVC   DECB+NX24(LX4),FULLWD DIRECT MMADDRESSING= DECB+30       22992021
 0036B0 07F5                        5018          BCR   UNCOND,R5            SCHEME FOR BDAM                     22998021
 0036B2 9100 B022      00022        5019 TEST01   TM    ICTFL4,XX00                                              23004021
 0036B6 9100 801A      0001A        5020 TEST02   TM    CLSMSK(R8),XX00     KEY CAN BE SPECIFIED.                23010021
 0036BA 9100 801B      0001B        5021 TEST03   TM    CLSMSK+NX1(R8),XX00 KEY REQUIRED.                        23016021
 0036BE 4804 0000      00000        5022 AMEROR   LH    R0,DX0(R4)           PUT ERROR PARAMETER IN REG 0        23022021
 0036C2 50F0 DA18      0BF58        5023          ST    R15,TSAVER                                               23028021
 0036C6 58F0 DBC0      0C100        5024          L     R15,AERRTN                                               23034021
 0036CA 05EF                        5025          BALR  R14,R15             CALL ERROR ROUTINE                   23040021
 0036CC 58F0 DA18      0BF58        5026          L     R15,TSAVER                                               23046021
 0036D0 4144 0002      00002        5027          LA    R4,DX2(R4)                                               23052021
 0036D4 07F4                        5028          BCR   UNCOND,R4           RETURN                               23058021
                                    5029 *      CHECK FOR UNIT RECORD DEVICE TYPE                                23064021
                                    5030 *      SET BIT ON IN BUFCAL IF SO                                       23070021
                                    5031 *      MODE00 WILL TEST BIT IF RECORDING MODE IS S                      23076021
 0036D6 9104 B00D      0000D        5032 DEVTYP   TM    ICTFL1,ICTUR        UNIT RECORD                          23082021
 0036DA 0785                        5033          BCR   ZERO,R5             NO, RETURN                           23088021
 0036DC 9640 D8C0      0BE00        5034          OI    BUFC24,BUFUR        YES, SET BIT ON                      23094021
 0036E0 07F5                        5035          BR    R5                  RETURN                               23100021
 0036E2 1B99                        5036 LOOKAH   SR    R9,R9                                                    23106021
 0036E4 4397 0000      00000        5037          IC    R9,DX0(R7)           GET FIELD COUNT                     23112021
 0036E8 4179 7001      00001        5038          LA    R7,DX1(R9,R7)        INCREMENT REG 7 TO NEXT FIELD       23118021
 0036EC 5040 DA18      0BF58        5039          ST    R4,TSAVER                                                23124021
 0036F0 4540 F828      03706        5040          BAL   R4,CHKFF            CALL END OF BUFFER CHECK             23130021
 0036F4 5840 DA18      0BF58        5041          L     R4,TSAVER                                                23136021
 0036F8 9500 7000      00000        5042          CLI   DX0(R7),XX00         IS THIS THE END OF THE FIELD        23142021
 0036FC 4770 F806      036E4        5043          BC    NOTEQ,LOOKAH+NX2     NO                                  23148021
 003700 4177 0001      00001        5044          LA    R7,DX1(R7)           YES, INCREMENT PTR TO NEXT FIELD    23154021
 003704 07F4                        5045          BCR   UNCOND,R4           RETURN                               23160021
 003706 95FF 7000      00000        5046 CHKFF    CLI   DX0(R7),XXFF         IS IT END OF BUFFER                 23166021
 00370A 0774                        5047          BCR   NOTEQ,R4            NO, RETURN                           23172021
 00370C 5810 DB84      0C0C4        5048          L     R1,COSADR           YES, GET ANOTHER RECORD              23178021
 003710 0501                        5049          BALR  R0,R1               BR TO COMMON                         23184021
 003712 03                          5050          DC    X'03'                                                    23190021
1PH20     IKFCBL20                                                                                              PAGE  122
-  LOC  OBJECT CODE    ADDR1 ADDR2  STMT   SOURCE STATEMENT                                       ASM 0201 11.03 02/14/15
0003713 00
 003714 1870                        5051          LR    R7,R0               PUT BUFFER ADDRESS IN REG 7          23196021
 003716 07F4                        5052          BCR   UNCOND,R4           RETURN                               23202021
 003718 5810 DB84      0C0C4        5053 SUBPUT   L     R1,COSADR                                                23208021
 00371C 4120 D6B8      0BBF8        5054          LA    R2,DECBDF                                                23214021
                                    5055 *                                                                       23220021
 003720                             5056 OPENTB   DS    0CL80                                                    23226021
 003720 0001000000000000            5057          DC    X'00010000000000000000000000000000'                      23232021
 003730 0001000000000000            5058          DC    X'00010000000000000000000000000000'                      23238021
 003740 0001000000010000            5059          DC    X'00010000000100000000000000010001'                      23244021
 003750 0001000100000001            5060          DC    X'00010001000000010000000100000001'                      23250021
 003760 0001000000010001            5061          DC    X'00010000000100010000000000010001'                      23256021
 003770 0001000000000000            5062          DC    X'00010000000000000000000000000000'                      23262021
                                    5063 *                                                                       23268021
 003780                             5064 MODETB   DS    0CL32                                                    23274021
 003780 041410FF0CFFFFFF            5065          DC    X'041410FF0CFFFFFF08'    QSAM                            23280021
 003789 04FFFFFFFFFFFFFF            5066          DC    X'04FFFFFFFFFFFFFF08'                                    23286021
 003792 04FFFFFFFFFFFFFF            5067          DC    X'04FFFFFFFFFFFFFF08'    RELATIVE                        23292021
 00379B 041410FF0CFFFFFF            5068          DC    X'041410FF0CFFFFFF08'    DIRECT                          23298021
 0037A4 2000000001000400            5069          DC    X'200000000100040001'                                    23304021
 0037AD 14                          5070          DC    X'14'                                                    23310021
 0037AE 0000
 0037B0 0000119A                    5071 ABSUBR   DC    A(BSUBRN)                  ADDR OF BSUBRN                23316021
1PH20     IKFCBL20                                                                                              PAGE  123
-  LOC  OBJECT CODE    ADDR1 ADDR2  STMT   SOURCE STATEMENT                                       ASM 0201 11.03 02/14/15
0                                   5073 *=2    SAME AREA CLAUSE ROUTINE- SAMRTN                                 23328021
                                    5074 *TITLE 'SAMRTN' -SAME AREA CLAUSE ROUTINE                               23334021
                                    5075 *STATUS                                                                 23340021
                                    5076 *FUNCTION/OPERATION- THIS ROUTINE IS CALLED FOR AN FD UNDER A SAME      23346021
                                    5077 *   CLAUSE. AN ENTRY TO THE SAME AREA TABLE-SAMTBL- IS PARTIALLY BU     23352021
                                    5078 *   FOR  BASIC  ACCESS METHODS THE RELATIVE LOCATION OF THE A(BUFFE     23358021
                                    5079 *   FIELD IN THE DECB, THE NUMBER OF CYCLES, AND THE UNIQUE 'SAME A     23364021
                                    5080 *   NUMBER IS PUT IN THE ENTRY. FOR QUEUED ACCESS METHODS, THE RELA     23370021
                                    5081 *   LOCATION OF THE A(BUFCB) FIELD IN THE DCB, THE NUMBER OF BUFFER     23376021
                                    5082 *   AND THE UNIQUE 'SAME AREA' NUMBER IS PUT IN THE ENTRY. AT A LAT     23382021
                                    5083 *   TIME BLOCK SIZE WILL BE ADDED TO THE ENTRY AND THE ENTRY WILL B     23388021
                                    5084 *   PUT IN THE SAMTBL. WHEN ALL FD'S ARE PROCESSED, THIS TABLE WILL     23394021
                                    5085 *   SCANNED FOR ALL ENTRIES WITH THE SAME UNIQUE 'SAME AREA' NUMBER     23400021
                                    5086 *   AND THE LARGEST BUFFER POOL WILL CONSTITUTE THE SPACE REQUIRED      23406021
                                    5087 *   FOR ALL THESE ENTRIES. ADCONS WILL BE PUT OUT FOR A(BUFFER) OR      23412021
                                    5088 *   A(BUFCB).                                                           23418021
                                    5089 *ENTRY POINT   -SAMRTN-                                                 23424021
                                    5090 *              L    R15,A(SAMRTN)                                       23430021
                                    5091 *              BALR R14,R15                                             23436021
                                    5092 *INPUT-                                                                 23442021
                                    5093 *OUTPUT-                                                                23448021
                                    5094 *EXTERNAL ROUTINES - NONE                                               23454021
                                    5095 *EXITS-  ONE NORMAL EXIT AT -UNIQUE-    NO CODES PASSED                 23460021
                                    5096 *TABLES/WORKAREAS                                                       23466021
                                    5097 *   SAMEAR-  WORK AREA FOR SAMTBL ENTRY                                 23472021
                                    5098 *   DCBADD-  REL. LOC. OF DCB                                           23478021
                                    5099 *   DECBAD-  REL. LOC. OF DECB                                          23484021
                                    5100 *   NUMCYC-  NUMBER OF CYCLES                                           23490021
                                    5101 *ATTRIBUTES                                                             23496021
                                    5102 *NOTES                                                                  23502021
 0037B8                             5103 IKF204   CSECT                                                          23508021
                             037B8  5104        USING *,R15                                                      23514021
 0037B8 91E0 8008      00008        5105 SAMRTN   TM    DX8(R8),XXE0                 IS IT BISAM           42040 23520021
 0037BC 4780 F032      037EA        5106          BZ    QUEUED             NO.                                   23526021
 0037C0 9140 B00E      0000E        5107 BASIC    TM    ICTFL2,ICTSMA       S - A                                23532021
 0037C4 4780 F06E      03826        5108          BZ    SAMRCD0             NO                                   23538021
 0037C8 D201 D93C D3FA 0BE7C 0B93A  5109          MVC   SAMEAR+NX4(LX2),ONE+NX2 NO, NO OF BUFF FIELD GETS ONE.   23544021
 0037CE 9101 D8B2      0BDF2        5110          TM    BUFCAL+NX10,XX01     S MODE                              23550021
 0037D2 4780 F028      037E0        5111          BZ    BASIC2              NO                                   23556021
 0037D6 D202 D939 D6C5 0BE79 0BC05  5112          MVC   SAMEAR+NX1(LX3),DCBADD+NX1 YES, SAVE DCB ADD             23562021
 0037DC 47F0 F064      0381C        5113          B     UNIQUE              BR TO NORMAL EXIT                    23568021
 0037E0 D202 D939 D6C9 0BE79 0BC09  5114 BASIC2   MVC   SAMEAR+NX1(LX3),DECBAD+NX1 SAVE DECB ADD                 23574021
 0037E6 47F0 F064      0381C        5115          B     UNIQUE              BR TO NORMAL EXIT                    23580021
 0037EA 9110 B00E      0000E        5116 QUEUED   TM    ICTFL2,ICTSRS                                            23586021
 0037EE 4780 F03E      037F6        5117          BZ    *+8                NO.                                   23592021
 0037F2 9610 D942      0BE82        5118          OI    SAMEAR+NX10,XX10    YES, INDICATE IT IN TABLE ENTRY.     23598021
 0037F6 9500 D8A8      0BDE8        5119          CLI   BUFCAL,XX00         ALT. AREA?                           23604021
 0037FA 4780 F052      0380A        5120          BE    QUEUED1            NO.                                   23610021
 0037FE 4330 D8A8      0BDE8        5121          IC    R3,BUFCAL          YES.                                  23616021
 003802 4230 D93D      0BE7D        5122          STC   R3,SAMEAR+NX5                                            23622021
 003806 47F0 F058      03810        5123          B     QUEUED2             CONTINUE PROCESSING                  23628021
 00380A D201 D93C D3FE 0BE7C 0B93E  5124 QUEUED1  MVC   SAMEAR+NX4(LX2),TWO+NX2                                  23634021
 003810 D202 D939 D6C5 0BE79 0BC05  5125 QUEUED2  MVC   SAMEAR+NX1(LX3),DCBADD+NX1                               23640021
 003816 D202 D945 D6C5 0BE85 0BC05  5126          MVC   SMRCDAR+NX1(LX3),DCBADD+NX1                              23646021
 00381C D200 D938 B021 0BE78 00021  5127 UNIQUE   MVC   SAMEAR(LX1),ICTSAM  S-A NO.                              23652021
1PH20     IKFCBL20                                                                                              PAGE  124
-  LOC  OBJECT CODE    ADDR1 ADDR2  STMT   SOURCE STATEMENT                                       ASM 0201 11.03 02/14/15
0003822 47F0 F06E      03826        5128          B     SAMRCD0             CONTINUE                             23658021
 003826 9110 B00E      0000E        5129 SAMRCD0  TM    ICTFL2,ICTSRS                                            23664021
 00382A 078E                        5130          BCR   ZERO,R14           NO.                                   23670021
 00382C D200 D944 B025 0BE84 00025  5131          MVC   SMRCDAR(LX1),ICTSRA YES. PUT SAME RECORD AREA NO.        23676021
 003832 91E0 8008      00008        5132          TM    DX8(R8),XXE0        BASIC FILE?                          23682021
 003836 078E                        5133          BCR   ZERO,R14            NO, RETURN                           23688021
 003838 9140 8008      00008        5134          TM    DX8(R8),XX40         BSAM                                23694021
 00383C 4780 F098      03850        5135          BZ    SAMRCD2             NO                                   23700021
 003840 9101 D8B2      0BDF2        5136          TM    BUFCAL+NX10,XX01     S MODE                              23706021
 003844 4780 F098      03850        5137          BZ    SAMRCD2             NO                                   23712021
 003848 D202 D945 D6C5 0BE85 0BC05  5138          MVC   SMRCDAR+NX1(LX3),DCBADD+NX1 YES, SAVE DCB ADD            23718021
 00384E 07FE                        5139          BR    R14                 RETURN                               23724021
 003850 D202 D945 D6C9 0BE85 0BC09  5140 SAMRCD2  MVC   SMRCDAR+NX1(LX3),DECBAD+NX1 REL LOC DECB                 23730021
 003856 07FE                        5141          BR    R14                RETURN TO ACCMET.                     23736021
1PH20     IKFCBL20                                                                                              PAGE  125
-  LOC  OBJECT CODE    ADDR1 ADDR2  STMT   SOURCE STATEMENT                                       ASM 0201 11.03 02/14/15
0                            03858  5143          USING *,R15                                                    23748021
                                    5144 * REORGBD BUILDS REORG-CRITERIA TABLE WHEN CALLED BY ACCMET.            23754021
 003858 900E D9D8      0BF18        5145 REORGBD  STM   R0,R14,RSAVEA                                            23760021
 00385C 50F0 DA18      0BF58        5146          ST    R15,TSAVER                                               23766021
 003860 9140 D5A6      0BAE6        5147          TM    PRMSW,XX40          TABLE PRIMED.                        23772021
 003864 4710 F022      0387A        5148          BO    REORGBD1           YES.                                  23778021
 003868 4110 DACC      0C00C        5149          LA    R1,REORGPAR                                              23784021
 00386C 58F0 DCE4      0C224        5150          L     R15,BPRIME                                               23790021
 003870 05EF                        5151          BALR  R14,R15             PRIME REORG-CRITERIA TABLE           23796021
 003872 58F0 DA18      0BF58        5152          L     R15,TSAVER                                               23802021
 003876 9640 D5A6      0BAE6        5153          OI    PRMSW,XX40          SET PRIME SW ON.                     23808021
 00387A D201 D900 7000 0BE40 00000  5154 REORGBD1 MVC   FULLWD(LX2),DX0(R7)                                      23814021
 003880 4890 D900      0BE40        5155          LH    R9,FULLWD          R9: NAME-QUAL COUNT IN FSTEXT.        23820021
 003884 4199 0001      00001        5156          LA    R9,DX1(R9)                                               23826021
 003888 4109 0001      00001        5157          LA    R0,DX1(R9)          ENTRY SIZE(PART1)                    23832021
 00388C 5810 DACC      0C00C        5158          L     R1,REORGPAR                                              23838021
 003890 58F0 DCE8      0C228        5159          L     R15,BINSRT                                               23844021
 003894 05EF                        5160          BALR  R14,R15             INSERT ENTRY INTO REORG TABLE        23850021
 003896 58F0 DA18      0BF58        5161          L     R15,TSAVER                                               23856021
 00389A 4490 F084      038DC        5162          EX    R9,MOVREORG        MOVE NAME-QUAL-COUNT INTO TBL.        23862021
 00389E 5030 D910      0BE50        5163          ST    R3,REORGPT         R3=DISP IN REORG TBL.                 23868021
 0038A2 4177 9001      00001        5164          LA    R7,DX1(R7,R9)       R7=A(NEXT FIELD)                     23874021
 0038A6 95FF 7000      00000        5165          CLI   DX0(R7),XXFF        END OF BUFFER                        23880021
 0038AA 4770 F060      038B8        5166          BNE   REORGBD2           NO, ENTER CARD NO INTO TBL            23886021
 0038AE 5810 DB84      0C0C4        5167          L     R1,COSADR          YES, READ IN NEXT FIELD.              23892021
 0038B2 0501                        5168          BALR  R0,R1               BR TO COMMON                         23898021
 0038B4 03                          5169          DC    X'03'              FILE 3.                               23904021
 0038B5 00
 0038B6 1870                        5170          LR    R7,R0                                                    23910021
 0038B8 4100 0005      00005        5171 REORGBD2 LA    R0,DX5              DICT-PTR+CARD-NO-3+2                 23916021
 0038BC 5810 DACC      0C00C        5172          L     R1,REORGPAR                                              23922021
 0038C0 58F0 DCE8      0C228        5173          L     R15,BINSRT                                               23928021
 0038C4 05EF                        5174          BALR  R14,R15             INSERT ENTRY INTO TABLE              23934021
 0038C6 58F0 DA18      0BF58        5175          L     R15,TSAVER                                               23940021
 0038CA D201 2003 D5C7 00003 0BB07  5176          MVC   DX3(LX2,R2),CARDNO   MOVE CARD NO INTO TBL.              23946021
 0038D0 0670                        5177          BCTR  R7,R0               SUBTRACT 1 FROM R7                   23952021
 0038D2 5070 D9F4      0BF34        5178          ST    R7,RSAVEA+NX28      PASS NEW R7.                         23958021
 0038D6 980E D9D8      0BF18        5179          LM    R0,R14,RSAVEA      RESTORE REGISTERS.                    23964021
 0038DA 07FE                        5180          BR    R14                 RETURN                               23970021
                                    5181 *                                                                       23976021
 0038DC D200 2000 7000 00000 00000  5182 MOVREORG MVC   DX0(LX0,R2),DX0(R7)                                      23982021
                                    5183 *                                                                       23988021
1PH20     IKFCBL20                                                                                              PAGE  126
-  LOC  OBJECT CODE    ADDR1 ADDR2  STMT   SOURCE STATEMENT                                       ASM 0201 11.03 02/14/15
0                                   5185 *=2    KEY TABLES BUILDER- KEYRTN                                       24000021
                                    5186 *TITLE 'KEYRTN'   -KEY TABLES BUILD ROUTINE                             24006021
                                    5187 *STATUS                                                                 24012021
                                    5188 *FUNCTION/OPERATION- ROUTINE STORES KEY NAMES(RECORD, SYMBOLIC, ACT     24018021
                                    5189 *   IN SPECIAL TABLES SO THAT WHEN THE KEY NAMES ARE ENTERED IN THE     24024021
                                    5190 *   DICTIONARY, THEY MAY BE LOOKED UP AND THEIR LGN AND LOCATION        24030021
                                    5191 *   MAY BE PLACE IN THE DCB AND DECB RESPECTIVELY VIA CONDEF'S. THE     24036021
                                    5192 *   TABLES ARE TAMER TABLES.                                            24042021
                                    5193 *ENTRY POINTS       -KEYRTN-     FOR SYM/ACT KEYS IN SEQUENTIAL PRO     24048021
                                    5194 *                   -KEYRTN+8-   FOR RECORD KEYS                        24054021
                                    5195 *                                                                       24060021
                                    5196 *                   L    R9,A(KEYRTN USED FOR THIS TYPE KEY)            24066021
                                    5197 *                                              SYMBOLIC  A(KEYRTN)      24072021
                                    5198 *                                              ACTUAL    A(KEYRTN)      24078021
                                    5199 *                                            RECORD   A(KEYRTN+4)       24084021
                                    5200 *                   L    R15,A(KEYRTN)                                  24090021
                                    5201 *                   BALR R14,R9                                         24096021
                                    5202 *INPUT-  REG 7  POINTS TO KEY NAME                                      24102021
                                    5203 *OUTPUT-                                                                24108021
                                    5204 *EXTERNAL ROUTINES- NONE                                                24114021
                                    5205 *EXITS- ONE NORMAL EXIT- AT -KEYSRT-    NO CODES PASSED                 24120021
                                    5206 *TABLES/WORKAREAS                                                       24126021
                                    5207 *   KEYTBL -TABLE FOR SYM/ACT SEQ. PROC.                                24132021
                                    5208 *   RCKTBL -TABLE FOR RECORD KEYS                                       24138021
                                    5209 *   RPARAM -PARAMETER NEEDED TO ACCESS THE RCKTBL                       24144021
                                    5210 *   SYMPAR -PARAMETER NEEDED TO ACCESS THE KEYTBL                       24150021
                                    5211 *   KEYINS -WORK AREA USED FOR KEYS TABLE ENTRY                         24156021
                                    5212 *   DCBADD -REL. LOC. OF DCB                                            24162021
                                    5213 *   DECBAD -REL. LOC. OF DECB                                           24168021
                                    5214 *   NUMCYC -NUMBER OF CYCLES                                            24174021
                                    5215 *ATTRIBUTES                                                             24180021
                                    5216 *NOTES                                                                  24186021
                             038E2  5217          USING *,R15                                                    24192021
 0038E2 47F0 F0BC      0399E        5218 KEYRTN   BC    UNCOND,SEQKEY       CONTINUE PROCESSING                  24198021
 0038E6 47F0 F008      038EA        5219          BC    UNCOND,*+NX4         ENABLE TWO ENTRY POINTS TO RECKE    24204021
 0038EA 9086 D9D8      0BF18        5220          STM   R8,R6,RSAVEA                                             24210021
 0038EE 4150 0004      00004        5221 RECKEY   LA    R5,DX4               RB IS EXECUTE REG FOR TM PTBLSW,    24216021
                                    5222 *                                                    AND OI PTBLSW,     24222021
 0038F2 41A0 DAEC      0C02C        5223          LA    R10,RPARAM          PUT A(TABLE PARAMETER) IN R10        24228021
 0038F6 181A                        5224          LR    R1,R10                AND R1   FOR RECORD KEY TABLE      24234021
 0038F8 4560 F04A      0392C        5225          BAL   R6,KEYCOM           LINK TO COMMON KEY ROUTINE           24240021
 0038FC 4030 DAB4      0BFF4        5226        STH   R3,FDKYTB             STORE NEW DISPL                      24246021
 003900 9701 DAB5      0BFF5        5227          XI    FDKYTB+NX1,XX01                                          24252021
 003904 5860 D6C4      0BC04        5228          L     R6,DCBADD                                                24258021
 003908 4166 0010      00010        5229          LA    R6,DX16(R6,R0)      R6=REL LOC OF KEYLGN IN DCB          24264021
 00390C 5060 D6CC      0BC0C        5230          ST    R6,KEYLGN                                                24270021
 003910 4166 002C      0002C        5231          LA    R6,DX44(R6,R0)      R6=REL LOC RECORD KEY DISP(RKD)IN    24276021
 003914 5060 D6D0      0BC10        5232          ST    R6,KEYLOC                                                24282021
 003918 D201 D6D4 D5C7 0BC14 0BB07  5233          MVC   KYDECB(LX2),CARDNO                                       24288021
                                    5234 *DEL                                                                    24294021
                                    5235 *DEL                                                                    24300021
                                    5236 *DEL                                                                    24306021
                                    5237 *DEL                                                                    24312021
                                    5238 *DEL                                                                    24318021
 00391E 4100 000B      0000B        5239 RECKY1   LA    R0,DX11                  PUT INSERT LGN IN R0      51326 24324021
1PH20     IKFCBL20                                                                                              PAGE  127
-  LOC  OBJECT CODE    ADDR1 ADDR2  STMT   SOURCE STATEMENT                                       ASM 0201 11.03 02/14/15
0003922 D203 D1B0 DBBC 0B6F0 0C0FC  5240          MVC   ACCTAB+NX108(LX4),AKEYRN RESTORE ENTRY PT ADR.           24330021
 003928 47F0 F144      03A26        5241          BC    UNCOND,KEYSRT       INSERT ENTRY INTO TABLE              24336021
 00392C 9200 D5B0      0BAF0        5242 KEYCOM   MVI   KEYEND,XX00          CLEAR END SWITCH                    24342021
 003930 1843                        5243          LR    R4,R3               R4= KEY INDEX                        24348021
 003932 4450 F0B8      0399A        5244          EX    R5,TSPTBL           HAS THE TABLE BEEN PRIMED            24354021
 003936 4710 F066      03948        5245          BC    ONES,KEYCO1         YES,BRANCH                           24360021
 00393A 58F0 DCE4      0C224        5246          L     R15,BPRIME          NO, PRIME THE TABLE                  24366021
 00393E 05EF                        5247          BALR  R14,R15             CALL PRIME OF TAMER                  24372021
 003940 58F0 D9F4      0BF34        5248          L     R15,RSAVEA+NX28                                          24378021
 003944 4450 F0B4      03996        5249          EX    R5,SETPTB           SET PRIME SW ON                      24384021
 003948 D70F D6CC D6CC 0BC0C 0BC0C  5250 KEYCO1   XC    KEYINS(LX16),KEYINS  CLEAR INSERT AREA                   24390021
 00394E 9201 D6CF      0BC0F        5251          MVI   KEYLGN+NX3,XX01                                          24396021
 003952 9201 D6D3      0BC13        5252          MVI   KEYLOC+NX3,XX01                                          24402021
 003956 D201 D900 7000 0BE40 00000  5253          MVC   FULLWD(LX2),DX0(R7)   MOVE KEY NAME COUNT FIELD TO FUL   24408021
 00395C 4890 D900      0BE40        5254          LH    R9,FULLWD            WORD BOUNDARY, ADD 1 TO COUNT A     24414021
 003960 4199 0001      00001        5255          LA    R9,DX1(R9)            LOAD INTO REG 9.                   24420021
 003964 4109 0001      00001        5256          LA    R0,DX1(R9)           R0= LGN OF INSERT ENTRY             24426021
 003968 581A 0000      00000        5257          L     R1,DX0(R10)          R1= A(TABLE'S TIB)                  24432021
 00396C 58F0 DCE8      0C228        5258          L     R15,BINSRT          CALL INSERT OF TAMER, REG2 IS RE     24438021
 003970 05EF                        5259          BALR  R14,R15                    WITH TABLE ADDRESS            24444021
 003972 58F0 D9F4      0BF34        5260          L     R15,RSAVEA+NX28                                          24450021
 003976 4490 F0AE      03990        5261          EX    R9,MOVKEY                                                24456021
 00397A 4177 9001      00001        5262 KEYCO3   LA    R7,DX1(R7,R9)        REG 7= A(NEXT BUFFER FIELD)         24462021
 00397E 95FF 7000      00000        5263          CLI   DX0(R7),XXFF         END OF BUFFER                       24468021
 003982 0776                        5264          BCR   NOTEQ,R6           NO, RETURN TO CALLER                  24474021
 003984 5810 DB84      0C0C4        5265          L     R1,COSADR                                                24480021
 003988 0501                        5266          BALR  R0,R1               CALL FOR READ FILE 3                 24486021
 00398A 03                          5267          DC    X'03'                                                    24492021
 00398B 00
 00398C 1870                        5268          LR    R7,R0                                                    24498021
 00398E 07F6                        5269          BCR   UNCOND,R6           RETURN                               24504021
                                    5270 *                                                                       24510021
 003990 D200 2000 7000 00000 00000  5271 MOVKEY   MVC   DX0(LX0,R2),DX0(R7)                                      24516021
 003996 9600 D5A3      0BAE3        5272 SETPTB   OI    PTBLSW,XX00                                              24522021
 00399A 9100 D5A3      0BAE3        5273 TSPTBL   TM    PTBLSW,XX00                                              24528021
 00399E 9086 D9D8      0BF18        5274 SEQKEY   STM   R8,R6,RSAVEA                                             24534021
 0039A2 4150 0001      00001        5275          LA    R5,DX1               RB IS EXECUTE REGISTER FOR TM PT    24540021
 0039A6 41A0 DAF4      0C034        5276          LA    R10,SYMPAR          PUT A(TABLE PARAMETER) IN R10        24546021
 0039AA 181A                        5277          LR    R1,R10                AND R1 FOR SEQ. KEY TABLE          24552021
 0039AC 4560 F04A      0392C        5278 SEQKEY1  BAL   R6,KEYCOM           CONTINUE PROCESSING                  24558021
 0039B0 9601 D6D7      0BC17        5279          OI    BSAMDP+NX3,XX01                                          24564021
 0039B4 5940 D3FC      0B93C        5280          C     R4,TWO             ACT-KEY                               24570021
 0039B8 4780 F0E2      039C4        5281          BE    SEQKEY2            YES, DIRECT FILE WITH KEY.            24576021
 0039BC 4160 0001      00001        5282          LA    R6,DX1              NO, NOMINAL KEY                      24582021
 0039C0 47F0 F0F4      039D6        5283          B     SEQKEY3             PROCESS NOMINAL KEY                  24588021
 0039C4 D203 D6D4 D908 0BC14 0BE48  5284 SEQKEY2  MVC   BSAMDP(LX4),BSAMPT  MOVE BSAMTBL DISP INTO SET UP ARE    24594021
 0039CA 5860 D6C4      0BC04        5285          L     R6,DCBADD                                                24600021
 0039CE 4166 0010      00010        5286          LA    R6,DX16(R6)         REL LOC DCBKEYLNG                    24606021
 0039D2 5060 D6CC      0BC0C        5287          ST    R6,KEYLGN                                                24612021
 0039D6 1864                        5288 SEQKEY3  LR    R6,R4                                                    24618021
 0039D8 8960 0001      00001        5289          SLL   R6,DX1                 SAVE AREAS FOR THIS AND LAST F    24624021
 0039DC 4166 DAB2      0BFF2        5290          LA    R6,FDKYTB-NX2(R6)    GET ADDRESS IN SAVE AREA            24630021
 0039E0 4036 0000      00000        5291          STH   R3,DX0(R6)                                               24636021
 0039E4 9701 6001      00001        5292          XI    DX1(R6),XX01                                             24642021
 0039E8 5940 D400      0B940        5293 SEQKEY4  C     R4,THREE           NOMINAL KEY?                          24648021
1PH20     IKFCBL20                                                                                              PAGE  128
-  LOC  OBJECT CODE    ADDR1 ADDR2  STMT   SOURCE STATEMENT                                       ASM 0201 11.03 02/14/15
00039EC 4770 F13A      03A1C        5294          BNE   SEQKEY5            NO.                                   24654021
 0039F0 9130 8008      00008        5295          TM    AMCODE(R8),XX30     ISAM?                                24660021
 0039F4 4780 F11A      039FC        5296          BZ    *+8                NO.                                   24666021
 0039F8 9602 D6CF      0BC0F        5297          OI    KEYLGN+NX3,XX02     YES.                                 24672021
 0039FC 5860 D6C8      0BC08        5298          L     R6,DECBAD          YES                                   24678021
 003A00 4166 0014      00014        5299          LA    R6,DX20(R6)         DECB KEYAD FIELD                     24684021
 003A04 5060 D6D0      0BC10        5300          ST    R6,KEYLOC                                                24690021
 003A08 9110 D610      0BB50        5301          TM    FDACMT,XX10         QISAM?                               24696021
 003A0C 4780 F13A      03A1C        5302          BZ    SEQKEY5            NO.                                   24702021
 003A10 5860 D6C4      0BC04        5303          L     R6,DCBADD          YES, PUT KEY ADR FOR START IN         24708021
 003A14 4166 0100      00100        5304          LA    R6,DX256(R6)        DCB EXTENSION.                       24714021
 003A18 5060 D6D0      0BC10        5305          ST    R6,KEYLOC                                                24720021
 003A1C D201 D6D8 D5C7 0BC18 0BB07  5306 SEQKEY5  MVC   NCYC(LX2),CARDNO                                         24726021
 003A22 4100 000E      0000E        5307          LA    R0,DX14                                                  24732021
 003A26 581A 0000      00000        5308 KEYSRT   L     R1,DX0(R10)          R1= A(TABLE'S TIB)                  24738021
 003A2A 1860                        5309          LR    R6,R0               SAVE INSERT LGN FOR MOVE             24744021
 003A2C 58F0 DCE8      0C228        5310          L     R15,BINSRT                                               24750021
 003A30 05EF                        5311          BALR  R14,R15             INSERT ENTRY INTO TABLE              24756021
 003A32 58F0 D9F4      0BF34        5312          L     R15,RSAVEA+NX28                                          24762021
 003A36 0660                        5313        BCTR  R6,R0                 SUBTRACT 1 FROM LGN                  24768021
 003A38 4460 F160      03A42        5314          EX    R6,KYMOVE           MOVE KEY INFORMATION TO TABLE.       24774021
 003A3C 9886 D9D8      0BF18        5315          LM    R8,R6,RSAVEA                                             24780021
 003A40 07FE                        5316          BCR   UNCOND,R14          RETURN TO CALLER                     24786021
 003A42 D200 2000 D6CC 00000 0BC0C  5317 KYMOVE   MVC   DX0(LX0,R2),KEYINS                                       24792021
1PH20     IKFCBL20                                                                                              PAGE  129
-  LOC  OBJECT CODE    ADDR1 ADDR2  STMT   SOURCE STATEMENT                                       ASM 0201 11.03 02/14/15
0                                   5319 *=2    LABLBD- LABLE TABLE BUILD ROUTINE                                24804021
                                    5320 *TITLE 'LABLBD'   -LABLE TABLE BUILD ROUTINE                            24810021
                                    5321 *STATUS                                                                 24816021
                                    5322 *FUNCTION/OPERATION-THIS ROUTINE TAKES LABEL RECORD DATA-NAMES, ASS     24822021
                                    5323 *   ONE LINKAGE BASE LOCATOR TO ALL DATA-NAMES FOR A FILE(FD) AND P     24828021
                                    5324 *   THESE DATA-NAMES AND BASE LOCATORS INTO A LABEL TABLE(LABTBL).      24834021
                                    5325 *   LABEL RECORDS MUST BE DEFINED IN THE LINKAGE SECTION  SO AT THE     24840021
                                    5326 *   TIME THE LINKAGE SECTION IS BEING PROCESSED EACH 01 OR 77 ITEM      24846021
                                    5327 *   LOOKED UP IN THE LABTBL AND IF FOUND, THE BASE LOCATOR(LINKAGE)     24852021
                                    5328 *   NUMBER SPECIFIED IN THE LABTBL IS USED FOR THE ADDRESSING PARAM     24858021
                                    5329 *   OF THAT ITEM.                                                       24864021
                                    5330 *ENTRY POINT -LABLBD-                                                   24870021
                                    5331 *                   L    R15,A(LABLBD)                                  24876021
                                    5332 *                   BALR R14,R15                                        24882021
                                    5333 *INPUT-  REG 7  POINTS TO LABEL RECORD DATA-NAMES                       24888021
                                    5334 *OUTPUT-                                                                24894021
                                    5335 *EXTERNAL ROUTINES-  TAMER ROUTINES-PRIME-   ALLOCATE TABLE SPACE       24900021
                                    5336 *                                  -INSERT-  GIVES ADDRESS FOR ENTR     24906021
                                    5337 *EXITS- ONE NORMAL EXIT            NO CODES PASSED                      24912021
                                    5338 *TABLES/WORKAREAS                                                       24918021
                                    5339 *   BLLINK-  WORK AREA FOR LINKAGE BASE LOCATOR                         24924021
                                    5340 *   LABTBL-  TABLE FOR LABEL RECORD DATA-NAMES                          24930021
                                    5341 *ATTRIBUTES                                                             24936021
                                    5342 *NOTES                                                                  24942021
                             03A48  5343          USING *,R15                                                    24948021
 003A48 900E D9D8      0BF18        5344 LABLBD   STM   R0,R14,RSAVEA                                            24954021
 003A4C 1B00                        5345          SR    R0,R0                                                    24960021
 003A4E 1B99                        5346          SR    R9,R9                                                    24966021
 003A50 9680 D5A1      0BAE1        5347          OI    LBLSW,XX80          LABEL RECORD ENTRY EXISTANCE SW      24972021
 003A54 9110 D5A3      0BAE3        5348          TM    PTBLSW,XX10         TABLE PRIMED                         24978021
 003A58 4710 F02A      03A72        5349          BO    LABLB0             YES  BRANCH                           24984021
 003A5C 50F0 DA18      0BF58        5350          ST    R15,TSAVER          SAVE REG 15                          24990021
 003A60 4110 DB04      0C044        5351          LA    R1,LPARAM           R1=A(LABEL TABLE PARAMETER)          24996021
 003A64 58F0 DCE4      0C224        5352          L     R15,BPRIME          R15=A(PRIME)                         25002021
 003A68 05EF                        5353          BALR  R14,R15             CALL PRIME OF TAMER                  25008021
 003A6A 58F0 DA18      0BF58        5354          L     R15,TSAVER                                               25014021
 003A6E 9610 D5A3      0BAE3        5355          OI    PTBLSW,XX10          TURN ON PRIME LABEL TABLE SWITCH    25020021
 003A72 5840 DB04      0C044        5356 LABLB0   L     R4,LPARAM                                                25026021
 003A76 5844 0000      00000        5357          L     R4,DX0(R4)          R4=A(TAMM)                           25032021
 003A7A D701 4004 4004 00004 00004  5358          XC    DX4(LX2,R4),DX4(R4)  INITIALIZE USED TBL SIZE TO 0.      25038021
 003A80 9500 7000      00000        5359 LABLB1   CLI   DX0(R7),XX00         IS THIS END OF LABEL DATA-NAMES     25044021
 003A84 4770 F04A      03A92        5360          BC    NOTEQ,LABLB2        NO, BRANCH                           25050021
 003A88 5070 D9F4      0BF34        5361          ST    R7,RSAVEA+NX28       YES, STORE INCREMENTED BUFFER PT    25056021
 003A8C 980E D9D8      0BF18        5362          LM    R0,R14,RSAVEA       RESTORE REGISTERS                    25062021
 003A90 07FE                        5363          BCR   UNCOND,R14          RETURN TO CALLER                     25068021
 003A92 4397 0000      00000        5364 LABLB2   IC    R9,DX0(R7)           SET R9=NAME LGN                     25074021
 003A96 4109 0003      00003        5365          LA    R0,DX3(R9,R0)       R0=INSERT LGN (BL=+DATA-NAME+COUN    25080021
                                    5366 *                                               ( 2 +   N     +  1      25086021
 003A9A 5810 DB04      0C044        5367          L     R1,LPARAM           R1=A(TABLE NAME OR TIB)              25092021
 003A9E 50F0 DA18      0BF58        5368          ST    R15,TSAVER                                               25098021
 003AA2 58F0 DCE8      0C228        5369          L     R15,BINSRT                                               25104021
 003AA6 05EF                        5370          BALR  R14,R15             CALL INSERT OF TAMER                 25110021
 003AA8 58F0 DA18      0BF58        5371          L     R15,TSAVER                                               25116021
 003AAC D201 2000 D900 00000 0BE40  5372          MVC   DX0(LX2,R2),BLLINK    MOVE BL= TO TABLE                  25122021
 003AB2 4490 F088      03AD0        5373          EX    R9,MOVLAB           MOVE COUNT AND DATA-NAME TO TABL     25128021
1PH20     IKFCBL20                                                                                              PAGE  130
-  LOC  OBJECT CODE    ADDR1 ADDR2  STMT   SOURCE STATEMENT                                       ASM 0201 11.03 02/14/15
0003AB6 4177 9001      00001        5374          LA    R7,DX1(R7,R9)        INCREMENT BUFFER PTR. TO NEXT FI    25134021
 003ABA 95FF 7000      00000        5375          CLI   DX0(R7),XXFF         IS IT END OF BUFFER                 25140021
 003ABE 4770 F038      03A80        5376          BC    NOTEQ,LABLB1        NO, BRANCH                           25146021
 003AC2 5810 DB84      0C0C4        5377          L     R1,COSADR           YES,                                 25152021
 003AC6 0501                        5378          BALR  R0,R1                 READ A RECORD                      25158021
 003AC8 03                          5379          DC    X'03'                    FROM FILE 3                     25164021
 003AC9 00
 003ACA 1870                        5380          LR    R7,R0               R7= BUFFER PTR                       25170021
 003ACC 47F0 F038      03A80        5381          BC    UNCOND,LABLB1       CHECK NEXT LABEL DATA-NAME           25176021
 003AD0 D200 2002 7000 00002 00000  5382 MOVLAB   MVC   DX2(LX0,R2),DX0(R7)                                      25182021
1PH20     IKFCBL20                                                                                              PAGE  131
-  LOC  OBJECT CODE    ADDR1 ADDR2  STMT   SOURCE STATEMENT                                       ASM 0201 11.03 02/14/15
0                                   5384 * TOTLBD BUILDS TOTALING AREA TABLE WHEN CALLED BY ACCMTH.              25194021
                             03AD6  5385          USING *,R15                                                    25200021
 003AD6 900E D9D8      0BF18        5386 TOTLBD   STM   R0,R14,RSAVEA                                            25206021
 003ADA 50F0 DA18      0BF58        5387          ST    R15,TSAVER         SAVE R15                              25212021
 003ADE 9180 D5A6      0BAE6        5388          TM    PRMSW,XX80          TABLE PRIMED.                        25218021
 003AE2 4710 F022      03AF8        5389          BO    TOTLBD1            YES.                                  25224021
 003AE6 4110 DB44      0C084        5390          LA    R1,TOTLPAR                                               25230021
 003AEA 58F0 DCE4      0C224        5391          L     R15,BPRIME                                               25236021
 003AEE 05EF                        5392          BALR  R14,R15             PRIME TOTALING AREA TABLE            25242021
 003AF0 58F0 DA18      0BF58        5393          L     R15,TSAVER                                               25248021
 003AF4 9680 D5A6      0BAE6        5394          OI    PRMSW,XX80          SET PRMSW ON.                        25254021
 003AF8 D201 D900 7000 0BE40 00000  5395 TOTLBD1  MVC   FULLWD(LX2),DX0(R7)                                      25260021
 003AFE 4890 D900      0BE40        5396          LH    R9,FULLWD          R9:NAME-QUAL COUNT IN FSTEXT.         25266021
 003B02 4199 0001      00001        5397          LA    R9,DX1(R9)                                               25272021
 003B06 4109 0001      00001        5398          LA    R0,DX1(R9)          ENTRY SIZE(PART 1)                   25278021
 003B0A 5810 DB44      0C084        5399          L     R1,TOTLPAR                                               25284021
 003B0E 58F0 DCE8      0C228        5400          L     R15,BINSRT                                               25290021
 003B12 05EF                        5401          BALR  R14,R15             INSERT ENTRY INTO TABLE              25296021
 003B14 58F0 DA18      0BF58        5402          L     R15,TSAVER                                               25302021
 003B18 4490 F08A      03B60        5403          EX    R9,MOVTOTL         MOVE COUNT-QUAL-DN INTO TBL.          25308021
 003B1C 4177 9001      00001        5404          LA    R7,DX1(R7,R9)       R7=A(NEXT FIELD)                     25314021
 003B20 95FF 7000      00000        5405          CLI   DX0(R7),XXFF        END OF BUFFER?                       25320021
 003B24 4770 F05C      03B32        5406          BNE   TOTLBD2            NO, ENTER LOCDCB AND CARD NO.         25326021
 003B28 5810 DB84      0C0C4        5407          L     R1,COSADR          YES, READ IN NEXT FIELD.              25332021
 003B2C 0501                        5408          BALR  R0,R1               BR TO COMMON                         25338021
 003B2E 03                          5409          DC    X'03'              FILE 3                                25344021
 003B2F 00
 003B30 1870                        5410          LR    R7,R0              R7=A(NXT BUFF)=A(NXT FIELD)           25350021
 003B32 D203 DD38 D6C4 0C278 0BC04  5411 TOTLBD2  MVC   TOTLDC(LX4),DCBADD                                       25356021
 003B38 D201 DD3C D5C7 0C27C 0BB07  5412          MVC   TOTLDC+NX4(LX2),CARDNO                                   25362021
 003B3E 4100 0006      00006        5413          LA    R0,DX6              DCBADD+CARDNO=4+2                    25368021
 003B42 5810 DB44      0C084        5414          L     R1,TOTLPAR                                               25374021
 003B46 58F0 DCE8      0C228        5415          L     R15,BINSRT                                               25380021
 003B4A 05EF                        5416          BALR  R14,R15             INSERT ENTRY INTO TABLE              25386021
 003B4C 58F0 DA18      0BF58        5417          L     R15,TSAVER                                               25392021
 003B50 D203 2000 DD38 00000 0C278  5418          MVC   DX0(LX4,R2),TOTLDC   MOVE DCBADD+CARD NO INTO TBL.       25398021
 003B56 5070 D9F4      0BF34        5419          ST    R7,RSAVEA+NX28      PASS NEW R7                          25404021
 003B5A 980E D9D8      0BF18        5420          LM    R0,R14,RSAVEA      RESTORE REGISTERS                     25410021
 003B5E 07FE                        5421          BR    R14                RETURN TO ACCMET.                     25416021
                                    5422 *                                                                       25422021
 003B60 D200 2000 7000 00000 00000  5423 MOVTOTL  MVC   DX0(LX0,R2),DX0(R7)                                      25428021
                                    5424 *                                                                       25434021
                                    5425          DROP  R8                                                       25440021
                                    5426          DROP  R11                                                      25446021
                             00000  5427          USING COS,RCOM                                                 25452021
1PH20     IKFCBL20                                                                                              PAGE  132
-  LOC  OBJECT CODE    ADDR1 ADDR2  STMT   SOURCE STATEMENT                                       ASM 0201 11.03 02/14/15
0                                   5429 *=2      ALPHABETIC AND ALPHANUMERIC PICTURE ROUTINE                    25464021
                                    5430 *                                                                       25470021
                                    5431 *BALPHA-ALPHABETIC-ALPHANUMERIC PICTURE ANALYSIS ROUTINE                25476021
                                    5432 *BALPHA CHECKS THE COMPATIBILITY OF USAGE AND LENGTH FOR ALDHABETIC     25482021
                                    5433 * AND ALPHANUMERIC PICTURE ITEMS. USAGE MUST BE DISPLAY, IF IT IS N     25488021
                                    5434 * THE PICTURE IS DROPPED AND REPLACED BY A PICTURE 9 BY ITEMAN(ITEM     25494021
                                    5435 * ANALYSIS ROUTINE). THE LENGTH MUST NOT BE GREATER THAN 32K BYTES,     25500021
                                    5436 * IT IS THE LENGTH IS TRUNCATED TO 32K. THE LENGTH IS STORED IN THE     25506021
                                    5437 * ATTRIBUTES FIELD.                                                     25512021
                                    5438 * BALPHA IS CALLED BY PICTAN WHEN PCTYPE BYTE HAS ALPHABETIC OR         25518021
                                    5439 * ALPHANUMERIC CODE. THE CODE IS                                        25524021
                                    5440 *                                                                       25530021
                                    5441 *        IC    R4,PCTYPE      INSERT PICTURE TYPE CODE IN REG 4         25536021
                                    5442 *        SLA   R4,2           MULTIPLY BY 4 FOR FULL WORD BNDRY         25542021
                                    5443 *        LA    R8,BPICTB      LOAD PICTURE TABLE ADDRESS IN REG 8       25548021
                                    5444 *        AR    R8,R4          ADD INDEX(R4) TO ADDRESS OF BPICTB TA     25554021
                                    5445 *        ST    R15,RSAVE+60   SAVE REG 15                               25560021
                                    5446 *        L     R15,0(0,R8)    PUT TABLE ADDRESS IN REG 15               25566021
                                    5447 *        BALR  R14,R15        CALL PROPER PICTURE ANALYSIS RTN          25572021
                                    5448 *        LTR   R14,R15        IF CALLED ROUTINE DELETES CURRENT ITE     25578021
                                    5449 *        L     R15,RSAVE+60    PICTURE, R15 WILL BE SET TO ZERO AND     25584021
                                    5450 *        BC    ZERO,BFIXPC     BRANCH WILL BE TAKEN TO BFIXDC, OTHE     25590021
                                    5451 *        BC    UNCOND, ELCOM  GO TO ELEM ITEM COMPATIBILITY RTN         25596021
                                    5452 *                                                                       25602021
                                    5453 *BPICTB IS A TABLE OF PICTURE ANALYSIS RTNS                             25608021
                                    5454 *BFIXPC INSERTS A PICTURE 9.                                            25614021
                                    5455 *THE MAIN ROUTINE PLACES THE PROPER MINOR CODE IN REG 3                 25620021
                                    5456 *                    0010 FOR ALPHABETIC ITEMS                          25626021
                                    5457 *                    0011 FOR ALPHANUMERIC ITENS                        25632021
                                    5458 *SO THAT THE EXECUTE INSTRUCTION BEXMIN CAN PLACE THE MINOR CODE        25638021
                                    5459 *IN THE ATTRIBUTE FIELD                                                 25644021
                             03B66  5460        USING *,R15                                                      25650021
 003B66 9037 D998      0BED8        5461 BALPHA   STM   R3,R7,RSAVE+NX12     SAVE REGISTERS                      25656021
 003B6A 1B77                        5462          SR    R7,R7                                                    25662021
 003B6C 4140 D689      0BBC9        5463          LA    R4,ELITEM                                                25668021
 003B70 5860 D470      0B9B0        5464          L     R6,CON32K                                                25674021
 003B74 4430 F092      03BF8        5465          EX    R3,BMINCD                                                25680021
 003B78 4370 D676      0BBB6        5466          IC    R7,ITMCLS      LOAD CLAUSE FIELD INTO R7 AND MASK        25686021
 003B7C 5470 D4C8      0BA08        5467          N     R7,MK3032       OUT ALL BUT USAGE BITS. IF USAGE IS      25692021
 003B80 4670 F056      03BBC        5468          BCT   R7,BDRPAP        DISPLAY(001) A BRANCH WILL NOT OCCU     25698021
 003B84 4850 D6A8      0BBE8        5469          LH    R5,IPLT        UASGE IS DISPLAY, GET ITEM LENGTH         25704021
 003B88 5450 D4E0      0BA20        5470          N     R5,MK1732           STOP SIGN BIT PROPAGATION IF ANY     25710021
 003B8C 1956                        5471          CR    R5,R6          IS LENGTH GREATER THAN 32K                25716021
 003B8E 4720 F06E      03BD4        5472          BC    HI,BALLER      YES                                       25722021
                             03B92  5473 BLDALN   EQU   *                                                        25728021
 003B92 1B33                        5474          SR    R3,R3               CLEAR REG                      59728 25734021
 003B94 4330 D689      0BBC9        5475          IC    R3,IPT              GET COUNT OF CHARS             59728 25740021
 003B98 4140 D68A      0BBCA        5476          LA    R4,IPT+NX1          POINTER TO TABLE               59728 25746021
                             03B9C  5477 BALPHA1  EQU   *                                                  59728 25752021
 003B9C 95E5 4000      00000        5478          CLI   DX0(R4),XCV         IS IT A 'V'                    59728 25758021
 003BA0 4780 F086      03BEC        5479          BE    BALPHA4             YES, ERROR                     59728 25764021
 003BA4 4144 0001      00001        5480          LA    R4,DX1(R4)          INCREMENT POINTER              59728 25770021
 003BA8 4630 F036      03B9C        5481          BCT   R3,BALPHA1          GO CHECK NEXT                  59728 25776021
 003BAC 4050 D678      0BBB8        5482          STH   R5,CILGN       STORE LGN IN CI                           25782021
 003BB0 D201 D613 D678 0BB53 0BBB8  5483          MVC   VILGN(LX2),CILGN    STORE LENGTH IN ATTRIBS              25788021
1PH20     IKFCBL20                                                                                              PAGE  133
-  LOC  OBJECT CODE    ADDR1 ADDR2  STMT   SOURCE STATEMENT                                       ASM 0201 11.03 02/14/15
0003BB6 9837 D998      0BED8        5484          LM    R3,R7,RSAVE+NX12     RESTORE REGISTERS                   25794021
 003BBA 07FE                        5485          BCR   UNCOND,R14     BRANCH TO CALLER ROUTINE                  25800021
 003BBC 94DF D677      0BBB7        5486 BDRPAP   NI    ITMCLS+NX1,XXDF TURN OFF PICTURE BIT                     25806021
 003BC0 9200 D760      0BCA0        5487          MVI   PCTYPE,XX00     ZERO OUT PICTURE TYPE                    25812021
 003BC4 940F D60D      0BB4D        5488          NI    MINCOD,XX0F          ZERO OUT MINOR CODE                 25818021
 003BC8 4800 F096      03BFC        5489          LH    R0,MSG142                 MSG 142                  40660 25824021
 003BCC 1BFF                        5490          SR    R15,R15                                                  25830021
 003BCE 9837 D998      0BED8        5491          LM    R3,R7,RSAVE+NX12     RESTORE REGISTERS                   25836021
 003BD2 07FE                        5492          BCR   UNCOND,R14          BRH TO ADDR IN R14-CALLING PGM       25842021
 003BD4 1856                        5493 BALLER   LR    R5,R6          LGN TRUNCATED TO 32K                      25848021
 003BD6 4800 DFAE      0C4EE        5494          LH    R0,MSG145                                                25854021
 003BDA 90EF D9AC      0BEEC        5495          STM   R14,R15,RSAVE+NX32                                       25860021
 003BDE 58F0 DBC0      0C100        5496          L     R15,AERRTN                                               25866021
 003BE2 05EF                        5497          BALR  R14,R15             LNK TO ERRRTN                        25872021
 003BE4 98EF D9AC      0BEEC        5498          LM    R14,R15,RSAVE+NX32                                       25878021
 003BE8 47F0 F02C      03B92        5499          BC    UNCOND,BLDALN       BRH TO STORE LGN IN CI               25884021
 003BEC 9837 D998      0BED8        5500 BALPHA4  LM    R3,R7,RSAVE+NX12    RESTORE WORK REGS              59728 25890021
 003BF0 58F0 D9C8      0BF08        5501          L     R15,RSAVE+NX60      RESTORE BASE REG               59728 25896021
                             00880  5502          USING BEGADC,R15                                         59728 25902021
 003BF4 47F0 FED2      01752        5503          B     BYTERR              GO GEN ERROR                   59728 25908021
 003BF8 9600 D60D      0BB4D        5504 BMINCD   OI    MINCOD,XX00                                              25914021
 003BFC 208E                        5505 MSG142   DC    X'208E'                   MSG 142                  40660 25920021
1PH20     IKFCBL20                                                                                              PAGE  134
-  LOC  OBJECT CODE    ADDR1 ADDR2  STMT   SOURCE STATEMENT                                       ASM 0201 11.03 02/14/15
0                                   5507 *=2      NUMERIC PICTURE PICTURE ANALYSIS-BNUMER                        25932021
                                    5508 *BNUMER--NUMERIC PICTURE ANALYSIS                                       25938021
                                    5509 *BNUMER CHECKS THE VALIDITY OF THE NUMERIC PICTURE WITH RESPECT TO      25944021
                                    5510 * CHARACTER CONFIGURATION, LENGTH, SCALE AND USAGE. THE NUMERIC LEN     25950021
                                    5511 *AND SCALE  ARE STORED IN THE ATTRIBUTES FOR THE ITEM. THERE ARE 3      25956021
                                    5512 * VALID USAGES FOR A NUMERIC ITEM.                                      25962021
                                    5513 *              DISPLAY          -EXTERNAL DECIMAL                       25968021
                                    5514 *              COMPUTATIONAL    -BINARY                                 25974021
                                    5515 *              COMPUTATIONAL-3  -INTERNAL DECIMAL                       25980021
                                    5516 * IF DISPLAY THE MACHINE LENGTH EQUALS THE NUMERIC LENGTH.              25986021
                                    5517 * IF COMPUTATIONAL THE MACHINE LENGTH IS SPECIFIED BY FOLLOWING TAB     25992021
                                    5518 *                                                                       25998021
                                    5519 *                 NUMERIC LGN * MACHINE LGN                             26004021
                                    5520 *                 *************************                             26010021
                                    5521 *                     1-4     *     2                                   26016021
                                    5522 *                     5-9     *     4                                   26022021
                                    5523 *                    10-18    *     8                                   26028021
                                    5524 *                                                                       26034021
                                    5525 *IF COMPUTATIONAL-3 THE MACHINE LENGTH =(NUMERIC LGN/2)+1.              26040021
                                    5526 *IF USAGE IS NOT ONE OF THESE THE PICTURE IS DROPPED.                   26046021
                                    5527 *MAXIMUM NUMERIC LGN IS 18.                                             26052021
                                    5528 *                                                                       26058021
                                    5529 *                                                                       26064021
                                    5530 *BNUMER IS CALLED BY PICTAN WHEN PCTYPE IS NUMERIC.                     26070021
                                    5531 *THE CALLING ROUTINE IS                                                 26076021
                                    5532 *                                                                       26082021
                                    5533 *                                                                       26088021
                                    5534 *        IC    R4,PCTYPE      INSERT PICTURE TYPE CODE IN REG 4         26094021
                                    5535 *        SLA   R4,2           MULTIPLY BY 4 FOR FULL WORD BNDRY         26100021
                                    5536 *        LA    R8,BPICTB      LOAD PICTURE TABLE ADDRESS IN REG 8       26106021
                                    5537 *        AR    R8,R4          ADD INDEX(R4) TO ADDRESS OF BPICTB TA     26112021
                                    5538 *        ST    R15,RSAVE+60   SAVE REG 15                               26118021
                                    5539 *        L     R15,0(0,R8)    PUT TABLE ADDRESS INTO REG 15             26124021
                                    5540 *        BALR  R14,R15        CALL PROPER PICTURE ANALYSIS RTN          26130021
                                    5541 *        LTR   R14,R15        IF CALLED ROUTINE DELETES CURRENT ITE     26136021
                                    5542 *        L     R15,RSAVE+60    PICTURE, R15 WILL BE SET TO ZERO AND     26142021
                                    5543 *        BC    ZERO,BFIXPC     BRANCH WILL BE TAKEN TO BFIXPC, OTHE     26148021
                                    5544 *        BC    UNCOND,BELCOM  GO TO ELEM ITEM COMPATIBILITY RTN         26154021
                                    5545 *                                                                       26160021
                                    5546 *BPICTB IS A TABLE OF PICTURE ANALYSIS RTNS                             26166021
                                    5547 *BFIXPC INSERTS A PICTURE 9.                                            26172021
                                    5548 *                                                                       26178021
                                    5549 *                                                                       26184021
                                    5550 *                                                                       26190021
                             03BFE  5551          USING *,R15                                                    26196021
 003BFE 901E D990      0BED0        5552 BNUMER   STM   R1,R14,RSAVE+NX4                                         26202021
 003C02 9180 D676      0BBB6        5553          TM    ITMCLS,XX80          BLANK WHEN ZERO SPECIFIED           26208021
 003C06 4780 F016      03C14        5554          BZ    BNUMR1              NO                                   26214021
 003C0A 45B0 F270      03E6E        5555          BAL   R11,BERR13          LNK TO BERR13                        26220021
 003C0E 2025                        5556          DC    X'2025'             MSG37                                26226021
 003C10 947F D676      0BBB6        5557          NI    ITMCLS,XX7F          ZERO OUT                            26232021
 003C14 1B77                        5558 BNUMR1   SR    R7,R7                                                    26238021
 003C16 1B88                        5559          SR    R8,R8                                                    26244021
 003C18 4370 D676      0BBB6        5560          IC    R7,ITMCLS                                                26250021
 003C1C 5470 D4C8      0BA08        5561          N     R7,MK3032      LOAD USAGE ONLY IN REG 7                  26256021
1PH20     IKFCBL20                                                                                              PAGE  135
-  LOC  OBJECT CODE    ADDR1 ADDR2  STMT   SOURCE STATEMENT                                       ASM 0201 11.03 02/14/15
0003C20 4188 0001      00001        5562          LA    R8,DX1(R8,R0)                                            26262021
 003C24 1978                        5563          CR    R7,R8          IS USAGE DISPLAY                          26268021
 003C26 4780 F058      03C56        5564          BC    EQ,BEXTDC      YES                                       26274021
 003C2A 4188 0001      00001        5565          LA    R8,DX1(R8,R0)  NO                                        26280021
 003C2E 1978                        5566          CR    R7,R8          IS USAGE COMPUTATIONAL                    26286021
 003C30 4780 F060      03C5E        5567          BC    EQ,BBNARY      YES                                       26292021
 003C34 4188 0003      00003        5568          LA    R8,DX3(R8,R0)  NO                                        26298021
 003C38 1978                        5569          CR    R7,R8          IS USAGE COMPUTATIONAL-3                  26304021
 003C3A 4780 F068      03C66        5570          BC    EQ,BINTDC      YES                                       26310021
 003C3E 4188 0002      00002        5571          LA    R8,DX2(R8)                                               26316021
 003C42 1978                        5572          CR    R7,R8               IS USAGE INDEX                       26322021
 003C44 4780 F06C      03C6A        5573          BE    BNPICT              YES                                  26328021
 003C48 94DF D677      0BBB7        5574 BDRPNP   NI    ITMCLS+NX1,XXDF TURN OFF PICTURE CLAUSE BIT(NO PICTUR    26334021
 003C4C 981F D990      0BED0        5575          LM    R1,R15,RSAVE+NX4     USAGE IS COMP-1 OR 2, SO RETURN     26340021
 003C50 58E0 DBD8      0C118        5576          L     R14,ABELEM            INTERNAL FLOATING                  26346021
 003C54 07FE                        5577          BCR   UNCOND,R14                POINT ROUTINES                 26352021
 003C56 9680 D60D      0BB4D        5578 BEXTDC   OI    MINCOD,XX80     SET MINOR CODE TO EXT. DEC. (8)          26358021
 003C5A 47F0 F06C      03C6A        5579          BC    UNCOND,BNPICT       BRH TO LOAD IPT ADDR IN REG4         26364021
 003C5E 96B0 D60D      0BB4D        5580 BBNARY   OI    MINCOD,XXB0     SET MINOR CODE TO BINARY (11)            26370021
 003C62 47F0 F06C      03C6A        5581          BC    UNCOND,BNPICT       BRH TO LOAD IPT ADDR IN REG4         26376021
 003C66 96C0 D60D      0BB4D        5582 BINTDC   OI    MINCOD,XXC0     SET MINOR CODE TO INT. DEC. (12)         26382021
 003C6A 4140 D689      0BBC9        5583 BNPICT   LA    R4,ELITEM      R4= IPT ADDRESS                           26388021
 003C6E 4130 D6A8      0BBE8        5584          LA    R3,IPLT        R3= IPLT ADDRESS                          26394021
 003C72 D702 D5B0 D5B0 0BAF0 0BAF0  5585          XC    BYTESW(LX3),BYTESW  INITIALIZE SWITCHES TO 0             26400021
 003C78 1B22                        5586          SR    R2,R2                                                    26406021
 003C7A 1B55                        5587          SR    R5,R5                                                    26412021
 003C7C 1B66                        5588          SR    R6,R6                                                    26418021
 003C7E 1B77                        5589          SR    R7,R7                                                    26424021
 003C80 1B88                        5590          SR    R8,R8                                                    26430021
 003C82 1BCC                        5591          SR    R12,R12                                                  26436021
 003C84 4190 D510      0BA50        5592          LA    R9,BPTABL      R9= P TABLE ADDRESS                       26442021
 003C88 41A0 D518      0BA58        5593          LA    R10,BVTABL     R10= V TABLE ADDRESS                      26448021
 003C8C 4380 D689      0BBC9        5594          IC    R8,ELITEM      R8= IPT CHAR. COUNT                       26454021
 003C90 95E2 4001      00001        5595          CLI   DX1(R4),XCS     IS FIRST CHAR A SIGN                     26460021
 003C94 4780 F0F2      03CF0        5596          BC    EQ,BSETSN      YES                                       26466021
 003C98 94FE D612      0BB52        5597          NI    LEVNUM,XXFE     NO,SET NUM SIGN BIT OFF                  26472021
 003C9C 95D7 4001      00001        5598 BCOMPP   CLI   DX1(R4),XCP     IS CHAR. A P                             26478021
 003CA0 4780 F114      03D12        5599          BC    EQ,BPPPPS      YES                                       26484021
 003CA4 95E5 4001      00001        5600          CLI   DX1(R4),XCV     NO,IS CHAR. A V                          26490021
 003CA8 4780 F148      03D46        5601          BC    EQ,BVVVVS      YES                                       26496021
 003CAC 95F9 4001      00001        5602          CLI   DX1(R4),XC9     NO, IS CHAR. A 9                         26502021
 003CB0 4770 F24E      03E4C        5603          BC    NOTEQ,BILLCH   NO, ILLEGAL NUM CHAR.                     26508021
                                    5604 * CHARACTER IS  9        NINE                                           26514021
 003CB4 9101 D5B0      0BAF0        5605          TM    BYTESW,XX01     YES, IS 9 SW ON                          26520021
 003CB8 4710 F0E6      03CE4        5606          BC    ONES,BTESTV    YES                                       26526021
 003CBC 9601 D5B0      0BAF0        5607 BSET9    OI    BYTESW,XX01     NO, TURN ON 9 SW                         26532021
 003CC0 4A60 3002      00002        5608          AH    R6,DX2(R0,R3)       ADD 9'S COUNT TO NUMERIC LGN         26538021
 003CC4 9501 D5B1      0BAF1        5609          CLI   DECSW,XX01      IS DECIMAL SWITCH ON                     26544021
 003CC8 4770 F0DE      03CDC        5610          BC    NOTEQ,BLASTN   NO                                        26550021
 003CCC 4A70 3002      00002        5611          AH    R7,DX2(R0,R3)       ADD 9'S COUNT TO SCALE               26556021
 003CD0 9104 D5B0      0BAF0        5612          TM    BYTESW,XX04     IS P SW ON                               26562021
 003CD4 4710 F0DE      03CDC        5613          BC    ONES,BLASTN    YES                                       26568021
 003CD8 9201 D5B2      0BAF2        5614          MVI   SCSIGN,XX01     NO, TURN ON SCALE SW                     26574021
 003CDC 4680 F0FE      03CFC        5615 BLASTN   BCT   R8,BGETNN      IF COUNT NOT ZERO GET NEXT CHAR.          26580021
 003CE0 47F0 F178      03D76        5616          BC    UNCOND,B9CHEK       BRH TO CHK IF 9 SW ON                26586021
1PH20     IKFCBL20                                                                                              PAGE  136
-  LOC  OBJECT CODE    ADDR1 ADDR2  STMT   SOURCE STATEMENT                                       ASM 0201 11.03 02/14/15
0003CE4 9104 D5B0      0BAF0        5617 BTESTV   TM    BYTESW,XX04          IS THIS 9P9 ERROR                   26592021
 003CE8 4710 F248      03E46        5618          BC    ONES,ER8            YES                                  26598021
 003CEC 47F0 F0BE      03CBC        5619          BC    UNCOND,BSET9        NO                                   26604021
 003CF0 9601 D612      0BB52        5620 BSETSN   OI    LEVNUM,XX01     SET NUM SIGN BIT ON IN ATTRIBUTES        26610021
 003CF4 45C0 F260      03E5E        5621          BAL   R12,BERR12          CHECK COUNT=1                        26616021
 003CF8 47F0 F0DE      03CDC        5622          BC    UNCOND,BLASTN       BRH TO GET NXT CHR IF CNT NOT0       26622021
 003CFC 4144 0001      00001        5623 BGETNN   LA    R4,DX1(R4,R0)  INCREMENT  IPT                            26628021
 003D00 4130 3002      00002        5624          LA    R3,DX2(R0,R3)            AND IPLT REGS                   26634021
 003D04 1B55                        5625          SR    R5,R5                                                    26640021
 003D06 95E2 4001      00001        5626          CLI   DX1(R4),XCS     IS CHAR AN S                             26646021
 003D0A 4770 F09E      03C9C        5627          BC    NOTEQ,BCOMPP   NO                                        26652021
 003D0E 47F0 F230      03E2E        5628          BC    UNCOND,ER1     ERROR IN SIGN                             26658021
                                    5629 * CHARACTER IS  P        SCALE                                          26664021
 003D12 4350 D5B0      0BAF0        5630 BPPPPS   IC    R5,BYTESW      ADD BYTESW TO P TABLE ADDRESS AND COM     26670021
 003D16 1A59                        5631          AR    R5,R9          VALUE AT INDEXED TABLE                    26676021
 003D18 9501 5000      00000        5632          CLI   DX0(R5),XX01    TO 1                                     26682021
 003D1C 4740 F236      03E34        5633          BC    LO,ER2         ILLEGAL CHAR CONFIGURATION                26688021
 003D20 4720 F140      03D3E        5634          BC    HI,BPGRT            BRH ON HI TO TURN SCALE SW OFF       26694021
 003D24 9201 D5B2      0BAF2        5635          MVI   SCSIGN,XX01     EQUAL TO 1, SET SCSIGN ON                26700021
 003D28 1B55                        5636 BINSER   SR    R5,R5                                                    26706021
 003D2A 4A70 3002      00002        5637          AH    R7,DX2(R0,R3)       ADD P'S COUNT TO SCALE               26712021
 003D2E 4A20 3002      00002        5638          AH    R2,DX2(R0,R3)       ADD P'S COUNT TO = OF P'S            26718021
 003D32 9201 D5B1      0BAF1        5639          MVI   DECSW,XX01                                               26724021
 003D36 9604 D5B0      0BAF0        5640          OI    BYTESW,XX04     SET P SW ON                              26730021
 003D3A 47F0 F0DE      03CDC        5641          BC    UNCOND,BLASTN       BRH TO GET NXT CHR IF CT NOT 0       26736021
 003D3E 9200 D5B2      0BAF2        5642 BPGRT    MVI   SCSIGN,XX00     TURN SCALE SW OFF                        26742021
 003D42 47F0 F12A      03D28        5643          BC    UNCOND,BINSER       BRH TO ADD P'S COUNT TO SCALE        26748021
                                    5644 * CHARACTER IS  V        IMPLIED DECIMAL POINT                          26754021
 003D46 4350 D5B0      0BAF0        5645 BVVVVS   IC    R5,BYTESW      ADD BYTESW TO V TABLE ADDRESS AND COM     26760021
 003D4A 1A5A                        5646          AR    R5,R10         VALUE AT INDEXED TABLE ADDRESS            26766021
 003D4C 9501 5000      00000        5647          CLI   DX0(R5),XX01    TO 1                                     26772021
 003D50 4740 F23C      03E3A        5648          BC    LO,ER3         ERROR IN CONFIGURATION OF CHARS           26778021
 003D54 4780 F168      03D66        5649          BC    EQ,BSETVD      EQUAL TO 1                                26784021
 003D58 0640                        5650        BCTR  R4,R0           GREATER THAN 1, WAS                        26790021
 003D5A 95F9 4001      00001        5651          CLI   DX1(R4),XC9            LAST CHAR. A 9                    26796021
 003D5E 4780 F23C      03E3A        5652          BC    EQ,ER3              P9V                                  26802021
 003D62 4144 0001      00001        5653          LA    R4,DX1(R4,R0)  RESTORE REG 4                             26808021
 003D66 9602 D5B0      0BAF0        5654 BSETVD   OI    BYTESW,XX02     SET V SW ON                              26814021
 003D6A 9201 D5B1      0BAF1        5655          MVI   DECSW,XX01                                               26820021
 003D6E 45C0 F260      03E5E        5656          BAL   R12,BERR12          CHECK COUNT=1                        26826021
 003D72 47F0 F0DE      03CDC        5657          BC    UNCOND,BLASTN       BR TO GET NXT CHR IF CNT NOT 0       26832021
 003D76 9101 D5B0      0BAF0        5658 B9CHEK   TM    BYTESW,XX01     IS 9 SW ON                               26838021
 003D7A 47E0 F242      03E40        5659          BC    NOTONE,ER5     ERROR NO NINES IN PICTURE                 26844021
 003D7E 5960 D438      0B978        5660          C     R6,CON18            YES, IS NUM. LGN GREATER THAN 18     26850021
 003D82 4720 F254      03E52        5661          BC    HI,BERR10           YES                                  26856021
 003D86 4156 2000      00000        5662          LA    R5,DX0(R6,R2)                                            26862021
 003D8A 5950 D438      0B978        5663          C     R5,CON18            NO, ARE P'S+ 9'S OVER 18             26868021
 003D8E 4720 F25A      03E58        5664          BC    HI,BERR11           YES                                  26874021
 003D92 9501 D5B2      0BAF2        5665          CLI   SCSIGN,XX01          NO, IS SCALE SW ON                  26880021
 003D96 4780 F1A8      03DA6        5666          BC    EQ,BSTORE      YES                                       26886021
 003D9A 9104 D5B0      0BAF0        5667          TM    BYTESW,XX04     NO, IS P SW ON                           26892021
 003D9E 47E0 F1A8      03DA6        5668          BC    NOTONE,BSTORE  NO                                        26898021
 003DA2 4170 7080      00080        5669          LA    R7,DX128(R0,R7) YES, SET SCALE SIGN MINUS                26904021
 003DA6 4270 D613      0BB53        5670 BSTORE   STC   R7,VILGN       STORE    SCALE    IN ATTRIBUTES           26910021
 003DAA 4260 D614      0BB54        5671          STC   R6,VILGN+NX1    STORE NUMERIC LENGTH IN ATTRIBUTES       26916021
1PH20     IKFCBL20                                                                                              PAGE  137
-  LOC  OBJECT CODE    ADDR1 ADDR2  STMT   SOURCE STATEMENT                                       ASM 0201 11.03 02/14/15
0003DAE 4220 D75F      0BC9F        5672          STC   R2,NOOFPS           STORE NUMBER OF P'S                  26922021
 003DB2 1B44                        5673          SR    R4,R4                                                    26928021
 003DB4 4340 D60D      0BB4D        5674        IC    R4,MINCOD            GET MINOR CODE(TYPE OF ITEM)          26934021
 003DB8 8A40 0004      00004        5675          SRA   R4,DX4              IN REG 4                             26940021
 003DBC 4150 000B      0000B        5676          LA    R5,DX11(R0,R0)                                           26946021
 003DC0 4190 0009      00009        5677          LA    R9,DX9(R0,R0)                                            26952021
 003DC4 5940 D410      0B950        5678          C     R4,SEVEN            IS USAGE INDEX                       26958021
 003DC8 4780 F1D8      03DD6        5679          BE    BINLGN              YES,TREAT AS BINARY                  26964021
 003DCC 1945                        5680          CR    R4,R5          IS ITEM BINARY                            26970021
 003DCE 4720 F206      03E04        5681          BC    HI,BPACKE      NO,ITEM IS INTERNAL DEC.                  26976021
 003DD2 4740 F216      03E14        5682          BC    LO,BUNPCK      NO,ITEM IS EXTERNAL DEC.                  26982021
 003DD6 1969                        5683 BINLGN   CR    R6,R9          IS NUMERIC LGN =9 OR LESS                 26988021
 003DD8 4720 F1F4      03DF2        5684          BC    HI,BMCLN9      NO,GREATER THAN 9                         26994021
 003DDC 8A90 0001      00001        5685          SRA   R9,DX1          YES, SET R9=4                            27000021
 003DE0 1969                        5686          CR    R6,R9          IS NL =4 OR LESS                          27006021
 003DE2 4720 F1FE      03DFC        5687          BC    HI,BMCLN4      NO, THEN MACH LGN IS 4                    27012021
 003DE6 8A90 0001      00001        5688          SRA   R9,DX1          YES, SET R9=2                            27018021
 003DEA 4090 D678      0BBB8        5689          STH   R9,CILGN       STORE MACH LGN =2  IN ATTRIBUTES          27024021
 003DEE 47F0 F21A      03E18        5690          BC    UNCOND,BLEAVN       BRH TO RESTORE REGISTERS             27030021
 003DF2 0690                        5691 BMCLN9 BCTR  R9,R0                 REDUCE REG 9 BY 1                    27036021
 003DF4 4090 D678      0BBB8        5692          STH   R9,CILGN       STORE MACH LGN=8 IN ATTRIBUTES            27042021
 003DF8 47F0 F21A      03E18        5693          BC    UNCOND,BLEAVN       BR TO RESTORE REGS AND RETURN        27048021
 003DFC 4090 D678      0BBB8        5694 BMCLN4   STH   R9,CILGN       STORE MACH LGN=4  IN ATTRIBUTES           27054021
 003E00 47F0 F21A      03E18        5695          BC    UNCOND,BLEAVN       BR TO RESTORE REGS AND RETURN        27060021
 003E04 8A60 0001      00001        5696 BPACKE   SRA   R6,DX1          DIVIDE NUM. LGN. BY 2                    27066021
 003E08 4160 6001      00001        5697          LA    R6,DX1(R0,R6)  ADD ONE                                   27072021
 003E0C 4060 D678      0BBB8        5698          STH   R6,CILGN       STORE MACH LGN IN ATTRIBUTES              27078021
 003E10 47F0 F21A      03E18        5699          BC    UNCOND,BLEAVN       BR TO RESTORE REGS AND RETURN        27084021
 003E14 4060 D678      0BBB8        5700 BUNPCK   STH   R6,CILGN       STORE NUMER LGN IN MACH LGN FIELD OF      27090021
 003E18 981E D990      0BED0        5701 BLEAVN   LM    R1,R14,RSAVE+NX4                                         27096021
 003E1C 07FE                        5702          BCR   UNCOND,R14          RETURN TO CALLING PGM                27102021
                                    5703 *                                                                       27108021
 003E1E 4804 0000      00000        5704 BDROPN   LH    R0,DX0(R4)           PUT ERROR NUMBER IN REG 0           27114021
 003E22 940F D60D      0BB4D        5705          NI    MINCOD,XX0F          CLEAR MINOR CODE                    27120021
 003E26 1BFF                        5706          SR    R15,R15             R15=0 (ERROR CODE)                   27126021
 003E28 981E D990      0BED0        5707          LM    R1,R14,RSAVE+NX4                                         27132021
 003E2C 07FE                        5708          BCR   UNCOND,R14          RETURN TO CALLER                     27138021
 003E2E 4540 F220      03E1E        5709 ER1      BAL   R4,BDROPN           LNK TO PUT ERROR # IN REG 0          27144021
 003E32 1045                        5710          DC    X'1045'             69   SIGN IN ILLEGAL POSITION        27150021
 003E34 4540 F220      03E1E        5711 ER2      BAL   R4,BDROPN           LNK TO PUT ERROR # IN REG 0          27156021
 003E38 1046                        5712          DC    X'1046'             70   D    IN ILLEGAL POSITION        27162021
 003E3A 4540 F220      03E1E        5713 ER3      BAL   R4,BDROPN           LNK TO PUT ERROR # IN REG 0          27168021
 003E3E 1047                        5714          DC    X'1047'             71   V    IN ILLEGAL POSITION        27174021
 003E40 4540 F220      03E1E        5715 ER5      BAL   R4,BDROPN           LNK TO PUT ERROR # IN REG 0          27180021
 003E44 1048                        5716          DC    X'1048'             72   NO 9'S                          27186021
 003E46 4540 F220      03E1E        5717 ER8      BAL   R4,BDROPN           LNK TO PUT ERROR # IN REG 0          27192021
 003E4A 1049                        5718          DC    X'1049'             73   9P9                             27198021
 003E4C 4540 F220      03E1E        5719 BILLCH   BAL   R4,BDROPN           LNK TO PUT ERROR # IN REG 0          27204021
 003E50 0000                        5720          DC    X'0000'             LNK TO PUT ERROR # IN REG 0          27210021
 003E52 4540 F220      03E1E        5721 BERR10   BAL   R4,BDROPN           LNK TO PUT ERROR # IN REG 0          27216021
 003E56 104B                        5722          DC    X'104B'             75   N.L. G.T. 18                    27222021
 003E58 4540 F220      03E1E        5723 BERR11   BAL   R4,BDROPN           LNK TO PUT ERROR # IN REG 0          27228021
 003E5C 104C                        5724          DC    X'104C'             76   P'S + 9'S G.T. 18               27234021
 003E5E D501 3002 D3FA 00002 0B93A  5725 BERR12   CLC   DX2(LX2,R3),ONE+NX2   IS COUNT 1                         27240021
 003E64 078C                        5726          BCR   EQ,R12              YES                                  27246021
1PH20     IKFCBL20                                                                                              PAGE  138
-  LOC  OBJECT CODE    ADDR1 ADDR2  STMT   SOURCE STATEMENT                                       ASM 0201 11.03 02/14/15
0003E66 45B0 F270      03E6E        5727          BAL   R11,BERR13          NO                                   27252021
 003E6A 1090                        5728          DC    X'1090'             144  V OR S NOT 1                    27258021
 003E6C 07FC                        5729          BCR   UNCOND,R12          BRH TO ADDR IN REG 12                27264021
 003E6E 480B 0000      00000        5730 BERR13   LH    R0,DX0(R11)                                              27270021
 003E72 50F0 DA18      0BF58        5731          ST    R15,TSAVER                                               27276021
 003E76 58F0 DBC0      0C100        5732          L     R15,AERRTN                                               27282021
 003E7A 05EF                        5733          BALR  R14,R15             LNK TO ERRRTN                        27288021
 003E7C 58F0 DA18      0BF58        5734          L     R15,TSAVER                                               27294021
 003E80 41BB 0002      00002        5735          LA    R11,DX2(R11)                                             27300021
 003E84 07FB                        5736          BCR   UNCOND,R11          BRH TO ADDR IN REG 11                27306021
1PH20     IKFCBL20                                                                                              PAGE  139
-  LOC  OBJECT CODE    ADDR1 ADDR2  STMT   SOURCE STATEMENT                                       ASM 0201 11.03 02/14/15
0                                   5738 *=2      FLOATING POINT PICTURE ANALYSIS-BFLTPT                         27318021
                                    5739 *BFLTPT--FLOATING POINT PICTURE ANALYSIS                                27324021
                                    5740 *BFLTPT ANALYZES AN EXTERNAL FLOATING POINT PICTURE CHECKING CHARAC     27330021
                                    5741 * CONFIGURATION, LENGTH OF MANTISSA AND EXPONENT, AND USAGE. THE US     27336021
                                    5742 * MUST BE DISPLAY, IF IT IS NOT, THE PICTURE IS DROPPED AND AN ERRO     27342021
                                    5743 * CODE(REGISTER 15= 0) IS RETURNED TO PICTAN.                           27348021
                                    5744 *BFLTPT IS CALLED BY PICTAN WHEN PCTYPE  IS EXT. FLOAT. PT, BY THE      27354021
                                    5745 * FOLLOWING CODE.                                                       27360021
                                    5746 *                                                                       27366021
                                    5747 *                                                                       27372021
                                    5748 *        IC    R4,PCTYPE      INSERT PICTURE TYPE CODE IN REG 4         27378021
                                    5749 *        SLA   R4,2           MULTIPLY BY 4 FOR FULL WORD BNDRY         27384021
                                    5750 *        LA    R8,BPICTB      LOAD PICTURE TABLE ADDRESS IN REG 8       27390021
                                    5751 *        AR    R8,R4          ADD INDEX(R4) TO ADDRESS OF BPICTB TA     27396021
                                    5752 *        ST    R15,RSAVE+60   SAVE REG 15                               27402021
                                    5753 *        L     R15,0(0,R8)    PUT TABLE ADD.INTO R15                    27408021
                                    5754 *        BALR  R14,R15        CALL PROPER PICTURE ANALYSIS RTN          27414021
                                    5755 *        LTR   R14,R15        IF CALLED ROUTINE DELETES CURRENT ITE     27420021
                                    5756 *        L     R15,RSAVE+60    PICTURE, R15 WILL BE SET TO ZERO AND     27426021
                                    5757 *        BC    ZERO,BFIXPC     BRANCH WILL BE TAKEN TO BFIXPC, OTHE     27432021
                                    5758 *        BC    UNCOND,BELCOM  GO TO ELEM ITEM COMPATIBILITY RTN         27438021
                                    5759 *                                                                       27444021
                                    5760 *BPICTB IS A TABLE OF PICTURE ANALYSIS RTNS                             27450021
                                    5761 *BFIXPC INSERTS A PICTURE 9.                                            27456021
                                    5762 *                                                                       27462021
                             03E86  5763          USING *,R15                                                    27468021
 003E86 901E D990      0BED0        5764 BFLTPT   STM   R1,R14,RSAVE+NX4                                         27474021
 003E8A D700 D5B3 D5B3 0BAF3 0BAF3  5765          XC    BEXPSW(LX1),BEXPSW CLEAR SWITCH                          27480021
 003E90 1B55                        5766          SR    R5,R5                                                    27486021
 003E92 4350 D676      0BBB6        5767          IC    R5,ITMCLS      INSERT CLAUSE BYTE REG 5                  27492021
 003E96 5450 D4C8      0BA08        5768          N     R5,MK3032      MASK OUT ALL BUT USAGE CLAUSE             27498021
 003E9A 4650 F1A0      04026        5769          BCT   R5,BDRPFA           IF BRANCH, USAGE IS NOT DISPLAY      27504021
 003E9E 9690 D60D      0BB4D        5770          OI    MINCOD,XX90     SET MINOR CODE                           27510021
 003EA2 4140 D689      0BBC9        5771          LA    R4,ELITEM                                                27516021
 003EA6 4130 D6A8      0BBE8        5772          LA    R3,IPLT                                                  27522021
 003EAA 4190 0010      00010        5773          LA    R9,DX16(R0,R0)                                           27528021
 003EAE 1BAA                        5774          SR    R10,R10                                                  27534021
 003EB0 1B55                        5775          SR    R5,R5                                                    27540021
 003EB2 1B66                        5776          SR    R6,R6                                                    27546021
 003EB4 1B77                        5777          SR    R7,R7                                                    27552021
 003EB6 1B88                        5778          SR    R8,R8                                                    27558021
 003EB8 4380 D689      0BBC9        5779          IC    R8,ELITEM      R8= IPT COUNT                             27564021
 003EBC 954E 4001      00001        5780 BCOMEX   CLI   DX1(R4),XX4E    IS CHAR A + SIGN                         27570021
 003EC0 4780 F06C      03EF2        5781          BC    EQ,BSNPLS      YES                                       27576021
 003EC4 9560 4001      00001        5782          CLI   DX1(R4),XX60    NO, IS CAHR A - SIGN                     27582021
 003EC8 4780 F07C      03F02        5783          BC    EQ,BSNMIN      YES                                       27588021
 003ECC D500 4001 D11C 00001 0B65C  5784          CLC   DX1(LX1,R4),CONPER    NO, IS CHAR A DECIMAL PT.          27594021
 003ED2 4780 F0C4      03F4A        5785          BC    EQ,BDCPNT      YES                                       27600021
 003ED6 95E5 4001      00001        5786          CLI   DX1(R4),XCV     NO, IS CHAR AN IMPLIED DEC. PT.          27606021
 003EDA 4780 F0C4      03F4A        5787          BC    EQ,BDCPNT      YES                                       27612021
 003EDE 95F9 4001      00001        5788          CLI   DX1(R4),XC9     NO, IS CHAR. A NINE                      27618021
 003EE2 4780 F10E      03F94        5789          BC    EQ,BNINER      YES                                       27624021
 003EE6 95C5 4001      00001        5790          CLI   DX1(R4),XCE     NO, IS CHAR AN E                         27630021
 003EEA 4780 F0EC      03F72        5791          BC    EQ,BEXPON      YES                                       27636021
 003EEE 47F0 F1EA      04070        5792          BC    UNCOND,BERR1   NO, ILLEGAL FP PICT. CHAR.                27642021
1PH20     IKFCBL20                                                                                              PAGE  140
-  LOC  OBJECT CODE    ADDR1 ADDR2  STMT   SOURCE STATEMENT                                       ASM 0201 11.03 02/14/15
0                                   5793 *  CHARACTER IS +        PLUS SIGN                                      27648021
 003EF2 910F D5B3      0BAF3        5794 BSNPLS   TM    BEXPSW,XX0F     HAS SIGN,DEC. PT.,9,OR E APPEARED        27654021
 003EF6 4770 F09C      03F22        5795          BC    NOTZER,BEXPLS  YES                                       27660021
 003EFA 9601 D612      0BB52        5796          OI    LEVNUM,XX01     NO, SET MANTISSA SIGN TO PLUS IN CI      27666021
 003EFE 47F0 F088      03F0E        5797          BC    UNCOND,BONSSW       BRH TO SET ON SIGN SWITCH            27672021
                                    5798 *  CHARACTER IS -        MINUS SIGN                                     27678021
 003F02 910F D5B3      0BAF3        5799 BSNMIN   TM    BEXPSW,XX0F     HAS SIGN,DEC. PT.,9, OR E APPEARED       27684021
 003F06 4770 F09C      03F22        5800          BC    NOTZER,BEXPLS  YES                                       27690021
 003F0A 94FE D612      0BB52        5801          NI    LEVNUM,XXFE     NO, SET MANTISSA SIGN TO MINUS IN CI     27696021
 003F0E 9608 D5B3      0BAF3        5802 BONSSW   OI    BEXPSW,XX08     SET SIGN SWITCH                          27702021
 003F12 4850 3002      00002        5803 BADDSN   LH    R5,DX2(R0,R3)  GET SIGN COUNT (IPLT)                     27708021
 003F16 4650 F1F0      04076        5804          BCT   R5,BERR2       IF COUNT NOT 1, BRANCH                    27714021
 003F1A 4166 0001      00001        5805          LA    R6,DX1(R6,R0)  COUNT=1, ADD 1 TO TOTAL LENGTH            27720021
 003F1E 47F0 F168      03FEE        5806          BC    UNCOND,BLASTE       GRH TO DECR IPT COUNT                27726021
 003F22 910F D5B3      0BAF3        5807 BEXPLS   TM    BEXPSW,XX0F     ARE ALL 4 SW'S ON                        27732021
 003F26 47E0 F1FA      04080        5808          BC    NOTONE,BERR3   NO                                        27738021
 003F2A 9680 D613      0BB53        5809          OI    VILGN,XX80      YES, SET EXPONENT SIGN TO + IN CI        27744021
 003F2E 9610 D5B3      0BAF3        5810          OI    BEXPSW,XX10     SET EXPONENT SIGN SWITCH ON              27750021
 003F32 47F0 F08C      03F12        5811          BC    UNCOND,BADDSN       BRH TO GET SIGN COUNT                27756021
 003F36 910F D5B3      0BAF3        5812 BEXMIN   TM    BEXPSW,XX0F     ARE ALL SWITCHES ON                      27762021
 003F3A 47E0 F1FA      04080        5813          BC    NOTONE,BERR3   NO                                        27768021
 003F3E 947F D613      0BB53        5814          NI    VILGN,XX7F      YES, SET EXPONENT SIGN TO MINUS          27774021
 003F42 9610 D5B3      0BAF3        5815          OI    BEXPSW,XX10     SET EXPONENT SIGN SWITCH ON              27780021
 003F46 47F0 F08C      03F12        5816          BC    UNCOND,BADDSN       BRH TO GET SIGN COUNT                27786021
                                    5817 *  CHARACTER IS  . V     ACTUAL OR IMPLIED DECIMAL POINT                27792021
 003F4A 9108 D5B3      0BAF3        5818 BDCPNT   TM    BEXPSW,XX08     IS SIGN SWITCH ON                        27798021
 003F4E 4710 F0D0      03F56        5819          BC    ONES,BONDSW    YES                                       27804021
 003F52 4550 F200      04086        5820          BAL   R5,BERR4            NO                                   27810021
 003F56 9602 D5B3      0BAF3        5821 BONDSW   OI    BEXPSW,XX02     TURN ON DECIMAL SW                       27816021
 003F5A 95E5 4001      00001        5822          CLI   DX1(R4),XCV     IS CHAR. A V(IMPLIED DECIMAL)            27822021
 003F5E 4780 F0E4      03F6A        5823          BC    EQ,BVPNT       YES                                       27828021
 003F62 9640 D613      0BB53        5824          OI    VILGN,XX40      NO, IT IS A REAL DECIMAL POINT           27834021
 003F66 47F0 F08C      03F12        5825          BC    UNCOND,BADDSN       BRH TO GET SIGN COUNT                27840021
 003F6A 94BF D613      0BB53        5826 BVPNT    NI    VILGN,XXBF      SET IMPLIED DEC. BIT ON IN CI            27846021
 003F6E 47F0 F168      03FEE        5827          BC    UNCOND,BLASTE       BRH TO DECR IPT COUNT                27852021
                                    5828 *  CHARACTER IS E        EXPONENT SYMBOL                                27858021
 003F72 910E D5B3      0BAF3        5829 BEXPON   TM    BEXPSW,XX0E     ARE SIGN,9,AND DEC. SW'S ALL ON          27864021
 003F76 4710 F106      03F8C        5830          BC    ONES,BEXPN          YES, BRANCH                          27870021
 003F7A 910C D5B3      0BAF3        5831          TM    BEXPSW,XX0C          NO, ALL BUT DEC. SW. ON             27876021
 003F7E 47E0 F210      04096        5832          BC    NOTONE,BERR5        NO,                                  27882021
 003F82 9602 D5B3      0BAF3        5833          OI    BEXPSW,XX02          YES, ASSUME IMPLIED DEC. PT.        27888021
 003F86 45C0 F1B2      04038        5834          BAL   R12,BFPERR          LNK TO BFPERR                        27894021
 003F8A 0052                        5835          DC    X'0052'                                                  27900021
 003F8C 9601 D5B3      0BAF3        5836 BEXPN    OI    BEXPSW,XX01          SET E SW ON9                        27906021
 003F90 47F0 F08C      03F12        5837          BC    UNCOND,BADDSN       BRH TO GET SIGN COUNT                27912021
                                    5838 *  CHARACTER IS 9        NINE                                           27918021
 003F94 910F D5B3      0BAF3        5839 BNINER   TM    BEXPSW,XX0F     ARE ALL SW'S ON                          27924021
 003F98 4710 F136      03FBC        5840          BC    ONES,BALLON    YES                                       27930021
 003F9C 910E D5B3      0BAF3        5841          TM    BEXPSW,XX0E     NO, ALL ON BUT E                         27936021
 003FA0 4710 F148      03FCE        5842          BC    ONES,BSD9ON    YES                                       27942021
 003FA4 910A D5B3      0BAF3        5843          TM    BEXPSW,XX0A     NO, ALL ON BUT E AND DEC.                27948021
 003FA8 4710 F148      03FCE        5844          BC    ONES,BSD9ON    YES                                       27954021
 003FAC 9108 D5B3      0BAF3        5845          TM    BEXPSW,XX08     NO, IS ONLY 9 SW ON                      27960021
 003FB0 4710 F148      03FCE        5846          BC    ONES,BSD9ON         YES, BRANCH                          27966021
 003FB4 4550 F200      04086        5847          BAL   R5,BERR4            NO                                   27972021
1PH20     IKFCBL20                                                                                              PAGE  141
-  LOC  OBJECT CODE    ADDR1 ADDR2  STMT   SOURCE STATEMENT                                       ASM 0201 11.03 02/14/15
0003FB8 47F0 F148      03FCE        5848          BC    UNCOND,BSD9ON       BRH TO GET 9 COUNT                   27978021
 003FBC 4850 3002      00002        5849 BALLON   LH    R5,DX2(R0,R3)  GET 9 COUNT                               27984021
 003FC0 5950 D3FC      0B93C        5850          C     R5,TWO         IS COUNT 2                                27990021
 003FC4 4770 F222      040A8        5851          BC    NOTEQ,BNINE2   NO                                        27996021
 003FC8 1A65                        5852 BNINBK   AR    R6,R5          YES, ADD COUNT TO TOTAL LGN               28002021
 003FCA 47F0 F168      03FEE        5853          BC    UNCOND,BLASTE       BRH TO DECR IPT COUNT                28008021
 003FCE 4850 3002      00002        5854 BSD9ON   LH    R5,DX2(R0,R3)  GET 9 COUNT                               28014021
 003FD2 1A75                        5855          AR    R7,R5          ADD COUNT TO MANTISSA LGN                 28020021
 003FD4 1979                        5856          CR    R7,R9          IS MANTISSA LGN GR THAN 16                28026021
 003FD6 4720 F216      0409C        5857          BC    HI,BTRUNC      YES, TRUNCATE                             28032021
 003FDA 1A65                        5858 BTRNBK   AR    R6,R5          NO, ADD COUNT TO TOTAL LGN                28038021
 003FDC 9102 D5B3      0BAF3        5859          TM    BEXPSW,XX02     IS DECIMAL SW ON                         28044021
 003FE0 4780 F160      03FE6        5860          BC    ZERO,BST9SW    NO                                        28050021
 003FE4 1AA5                        5861          AR    R10,R5         YES, ADD COUNT TO SCALE                   28056021
 003FE6 9604 D5B3      0BAF3        5862 BST9SW   OI    BEXPSW,XX04     SET 9 SW ON                              28062021
 003FEA 47F0 F168      03FEE        5863          BC    UNCOND,BLASTE       BRH TO DECR IPT COUNT                28068021
 003FEE 4680 F192      04018        5864 BLASTE   BCT   R8,BNEXTE      DECREMENT IPT COUNT, IF COUNT NOT ZER     28074021
 003FF2 9110 D5B3      0BAF3        5865          TM    BEXPSW,XX10     WAS THERE AN EXPONENT SIGN IN PICTURE    28080021
 003FF6 4710 F178      03FFE        5866          BC    ONES,*+NX8      YES                                      28086021
 003FFA 4550 F200      04086        5867          BAL   R5,BERR4            NO, EXPONENT SIGN IN ATTRIBUTES      28092021
                                    5868 *                                    ASSUMED MINUS, PUT OUT ERROR W     28098021
 003FFE 4140 0016      00016        5869          LA    R4,DX22              GET NEXT CHAR., IF COUNT IS ZERO    28104021
 004002 1964                        5870          CR    R6,R4               COMPARE TOTAL LENGTH TO 22           28110021
 004004 4720 F21C      040A2        5871          BC    HI,BERR8       HIGH                                      28116021
 004008 4260 D614      0BB54        5872          STC   R6,VILGN+NX1    STORE TOTAL LGN IN ATTRIBUTES            28122021
 00400C 4060 D678      0BBB8        5873          STH   R6,CILGN       STORE TOTAL LGN IN CI                     28128021
 004010 44A0 F1E6      0406C        5874          EX    R10,BSCALE     STORE SCALE IN ATTRIBUTES                 28134021
 004014 47F0 F1AA      04030        5875          BC    UNCOND,BLVEXP       BRH TO RESTORE REGS AND RETURN       28140021
 004018 4144 0001      00001        5876 BNEXTE   LA    R4,DX1(R4,R0)  INCREMENT IPT AND IPLT TO NEXT            28146021
 00401C 4133 0002      00002        5877          LA    R3,DX2(R3,R0)     PICTURE CHAR AND COUNT                 28152021
 004020 1B55                        5878          SR    R5,R5                                                    28158021
 004022 47F0 F036      03EBC        5879          BC    UNCOND,BCOMEX       BRH TO CHK IF CHAR A + SIGN          28164021
 004026 4800 F1B0      04036        5880 BDRPFA   LH    R0,MSG77                                                 28170021
 00402A 940F D60D      0BB4D        5881          NI    MINCOD,XX0F     CLEAR MINOR CODE FIELD                   28176021
 00402E 1BFF                        5882          SR    R15,R15        IF USAGE OR CONFIGURATION INCORRECT R     28182021
 004030 981E D990      0BED0        5883 BLVEXP   LM    R1,R14,RSAVE+NX4      IS MADE 0 FOR ERROR CODE           28188021
 004034 07FE                        5884          BCR   UNCOND,R14     RETURN TO CALLER(PICTAN) WITH ERROR C     28194021
 004036 104D                        5885 MSG77    DC    X'104D'             MSG 77                               28200021
 004038 480C 0000      00000        5886 BFPERR   LH    R0,DX0(R12)                                              28206021
 00403C 50F0 DA18      0BF58        5887          ST    R15,TSAVER                                               28212021
 004040 58F0 DBC0      0C100        5888          L     R15,AERRTN                                               28218021
 004044 05EF                        5889          BALR  R14,R15             LNK TO ERRRTN                        28224021
 004046 58F0 DA18      0BF58        5890          L     R15,TSAVER                                               28230021
 00404A 41CC 0002      00002        5891          LA    R12,DX2(R12)                                             28236021
 00404E 07FC                        5892          BCR   UNCOND,R12          BRH TO ADDR IN REG 12                28242021
 004050 4804 0000      00000        5893 BDRPFP   LH    R0,DX0(R4)                                               28248021
 004054 45C0 F1B6      0403C        5894          BAL   R12,BFPERR+NX4      PROCESS ERROR                        28254021
 004058 C007                        5895 BDPREP   DC    X'C007'                                                  28260021
 00405A 9601 D612      0BB52        5896          OI    VILGN-NX1,XX01       REPLACE PICTURE BY                  28266021
 00405E 92C0 D613      0BB53        5897          MVI   VILGN,XXC0                        +9.E+99                28272021
 004062 D201 D613 F1D2 0BB53 04058  5898          MVC   VILGN(LX2),BDPREP                                        28278021
 004068 47F0 F1AA      04030        5899          BC    UNCOND,BLVEXP       BRH TO RESTORE REGS AND RETURN       28284021
 00406C 9600 D613      0BB53        5900 BSCALE   OI    VILGN,XX00                                               28290021
                                    5901 *=E                                                                     28296021
 004070 4540 F1CA      04050        5902 BERR1    BAL   R4,BDRPFP           LNK TO BDRPFP                        28302021
1PH20     IKFCBL20                                                                                              PAGE  142
-  LOC  OBJECT CODE    ADDR1 ADDR2  STMT   SOURCE STATEMENT                                       ASM 0201 11.03 02/14/15
0004074 1051                        5903          DC    X'1051'                                                  28308021
 004076 45C0 F1B2      04038        5904 BERR2    BAL   R12,BFPERR          LNK TO BFPERR                        28314021
 00407A 004E                        5905          DC    X'004E'             78                                   28320021
 00407C 47F0 F094      03F1A        5906          BC    UNCOND,BADDSN+NX8   LNK TO BADDSN                        28326021
 004080 4540 F1CA      04050        5907 BERR3    BAL   R4,BDRPFP           LNK TO BDRFPF                        28332021
 004084 104F                        5908          DC    X'104F'             79   SIGN MISSING OR IN ILL. POS     28338021
 004086 9608 D5B3      0BAF3        5909 BERR4    OI    BEXPSW,XX08          SET SIGN SWITCH TO ON               28344021
 00408A 4166 0001      00001        5910          LA    R6,DX1(R6)           ADD 1 TO TOTAL LGN                  28350021
 00408E 45C0 F1B2      04038        5911          BAL   R12,BFPERR          LNK TO BFPERR                        28356021
 004092 1050                        5912          DC    X'1050'             80                                   28362021
 004094 07F5                        5913          BCR   UNCOND,R5           BRH TO ADDR IN REG 5                 28368021
 004096 4540 F1CA      04050        5914 BERR5    BAL   R4,BDRPFP           LNK TO BDRPFP                        28374021
 00409A 1051                        5915          DC    X'1051'             81   E IN ILL. POS.                  28380021
 00409C 4540 F1CA      04050        5916 BTRUNC   BAL   R4,BDRPFP           LNK TO BDRPFP                        28386021
 0040A0 1053                        5917          DC    X'1053'             83   MANTISSA  LGN  G.T. 16          28392021
 0040A2 4540 F1CA      04050        5918 BERR8    BAL   R4,BDRPFP           LNK TO BDRPFP                        28398021
 0040A6 1054                        5919          DC    X'1054'             84   TOTAL LGN OVER 21               28404021
 0040A8 4150 0002      00002        5920 BNINE2   LA    R5,DX2(R0,R0)   TRUNCATE COUNT TO 2 9'S FOR EXPONENT     28410021
 0040AC 45C0 F1B2      04038        5921          BAL   R12,BFPERR          LINK TO BFPERR                       28416021
 0040B0 1055                        5922          DC    X'1055'             85                                   28422021
 0040B2 47F0 F142      03FC8        5923          BC    UNCOND,BNINBK       BRH TO ADD COUNT TO TOTAL LGN        28428021
1PH20     IKFCBL20                                                                                              PAGE  143
-  LOC  OBJECT CODE    ADDR1 ADDR2  STMT   SOURCE STATEMENT                                       ASM 0201 11.03 02/14/15
0                                   5925 *                                                                       28440021
                                    5926 *                                                                       28446021
                                    5927 *        PHASE TERMINATION ROUTINE                                      28452021
                                    5928 *                                                                       28458021
                                    5929 *                                                                       28464021
                             040B6  5930          USING *,R15                                                    28470021
 0040B6 9500 D688      0BBC8        5931 PHTERM   CLI   SRCELN,XX00          IF LAST LEVEL NUMBER WAS 0 THERE IS 28476021
 0040BA 4780 F0FA      041B0        5932          BC    EQ,BHALT            NO ITEM THAT MUST BE DELIMITED AND   28482021
                                    5933 *                                  NOTHING WAS ENTERED IN DICTIONARY    28488021
 0040BE 9102 D5AB      0BAEB        5934          TM    WSRSW,XX02               WAS THERE A REPT SECT     42660 28494021
 0040C2 4710 F01C      040D2        5935          BC    ONES,PHTRM0              YES, BR --  IF THERE WAS  42660 28500021
                                    5936 *  A REPORT SECTION THERE IS NO NEED TO SUBTRACT XTRA BYTES FROM  42660 28506021
                                    5937 *  LOCCTR BECAUSE IT WAS ALREADY DONE IN THE REPORT SECTION RTN.  42660 28512021
                                    5938 *                                                                 42660 28518021
                                    5939 *                             IN CASE THERE WAS NO REPORT SECTION 42660 28524021
                                    5940 *  THE NEXT 3 INSTRUCTIONS WILL RESTORE THE LOCATION COUNTER      42660 28530021
                                    5941 *  AS IT SHOULD BE IF THERE WAS A LINKAGE SECTION AND IF          42660 28536021
                                    5942 *  UNNECESSARY BYTES WERE ADDED TO THE PROGRAM. IF THERE WAS      42660 28542021
                                    5943 *  NO LINKAGE SECTION AND NO UNNECESSARY STORAGE WAS ADDED,       42660 28548021
                                    5944 *  THEN ZEROES WILL BE SUBTRACTED FROM LOCCTR, THEREFORE          42660 28554021
                                    5945 *  NOT ALTERING THE CORRECT VALUE OF THE LOCATION COUNTER.        42660 28560021
 0040C6 5810 B148      00148        5946          L     R1,LOCCTR                 CURRENT LOCATION COUNTER 42660 28566021
 0040CA 5B10 DE8C      0C3CC        5947          S     R1,XTRA                    SUBTRACT XTRA BYTES     42660 28572021
 0040CE 5010 B148      00148        5948          ST    R1,LOCCTR                LOCCTR AS IT SHLD BE      42660 28578021
                             040D2  5949 PHTRM0   EQU   *                                                  42660 28584021
 0040D2 92FF D5B7      0BAF7        5950          MVI   NXTLEV,XXFF          MOVE DUMMY LEVEL NUMBER TO NXTLEV   28590021
 0040D6 D201 D5EC D543 0BB2C 0BA83  5951          MVC   CI(LX2),BDUMMY       MOVE DUMMY NAME $ TO CI-BCDNAM      28596021
 0040DC 9201 D688      0BBC8        5952          MVI   SRCELN,XX01          SET LEVEL NUMBER TO 01.             28602021
 0040E0 9210 D60D      0BB4D        5953          MVI   MINCOD,XX10                                              28608021
 0040E4 D203 B184 DF44 00184 0C484  5954          MVC   DICND2(LX4),REALPTR                                      28614021
 0040EA D202 DB79 DB79 0C0B9 0C0B9  5955          MVC   BCIPRM+NX1(LX3),ACI   ADD OF BCD NAME                    28620021
 0040F0 9208 DB78      0C0B8        5956          MVI   BCIPRM,XX08          ELEM ITEN                           28626021
 0040F4 D200 DB7C D688 0C0BC 0BBC8  5957          MVC   BCIPRM+NX4(LX1),SRCELN ATT. COUNT FOR DUMMY              28632021
 0040FA 5810 DB74      0C0B4        5958          L     R1,ACIPRM                                                28638021
 0040FE 50F0 DA24      0BF64        5959          ST    R15,DSAVE                                                28644021
 004102 58F0 DBC4      0C104        5960          L     R15,BGETPT                                               28650021
 004106 05EF                        5961          BALR  R14,R15             LNK TO GETPTR                        28656021
 004108 58F0 DA24      0BF64        5962          L     R15,DSAVE                                                28662021
 00410C 5010 D684      0BBC4        5963          ST    R1,DICTPT                                                28668021
 004110 9104 D5AA      0BAEA        5964          TM    FSTSW,XX04           IS THERE AN FD, SD, SA, OR RD       28674021
                                    5965 *                                  THAT NEEDS A DELIMITOR               28680021
 004114 47E0 F07C      04132        5966          BC    NOTONE,PHTRM1       NO                                   28686021
 004118 D203 DDD4 DF68 0C314 0C4A8  5967          MVC   PARAM(LX4),LASTDP    YES                                 28692021
 00411E D203 DDD8 D684 0C318 0BBC4  5968          MVC   PARAM1(LX4),DICTPT                                       28698021
 004124 4110 DDD4      0C314        5969          LA    R1,PARAM                                                 28704021
 004128 50F0 DA24      0BF64        5970          ST    R15,DSAVE                                                28710021
 00412C 58F0 DBF8      0C138        5971          L     R15,AENTDE          DELIMIT LAST FD, SD, SA, OR RD       28716021
 004130 05EF                        5972          BALR  R14,R15             LINK TO EWTDEL                       28722021
 004132 9101 D5AF      0BAEF        5973 PHTRM1   TM    SW88,XX01            IS COND. VAR. SW ON                 28728021
 004136 58F0 DA24      0BF64        5974          L     R15,DSAVE                                                28734021
 00413A 47E0 F096      0414C        5975          BC    NOTONE,PHTM12       BR ON NOT 1 TO PHTM12                28740021
 00413E 9703 D5AF      0BAEF        5976          XI    SW88,XX03            YES, TURN OFF AND TURN ON DELIM. SW 28746021
 004142 58F0 DCCC      0C20C        5977          L     R15,ABEGIN                                               28752021
 004146 5850 DCC8      0C208        5978          L     R5,ACONDE                                                28758021
 00414A 0545                        5979          BALR  R4,R5               DELIMIT LAST COND VARIABLE           28764021
1PH20     IKFCBL20                                                                                              PAGE  144
-  LOC  OBJECT CODE    ADDR1 ADDR2  STMT   SOURCE STATEMENT                                       ASM 0201 11.03 02/14/15
000414C 58F0 DBC8      0C108        5980 PHTM12   L     R15,ADICTB                                               28770021
 004150 05EF                        5981          BALR  R14,R15             LINK TO DICTBD                       28776021
 004152 58F0 DC64      0C1A4        5982          L     R15,AQVARB          CALL QVAR BUILD TO SEE IF ODO TABLES 28782021
 004156 05EF                        5983          BALR  R14,R15             WERE CONSTRUCTED                     28788021
 004158 58F0 DA24      0BF64        5984          L     R15,DSAVE                                                28794021
 00415C 9103 D5AB      0BAEB        5985 PHTRM2   TM    WSRSW,XX03           TEST FOR WORKING-STORAGE AND REPORT 28800021
 004160 4780 F0FA      041B0        5986          BC    ZERO,BHALT          NEITHER APPEARED SECTIONS            28806021
 004164 5810 B148      00148        5987 PHTRM3   L     R1,LOCCTR                                                28812021
 004168 5B10 DDE0      0C320        5988          S     R1,WS                                                    28818021
 00416C 5A10 D400      0B940        5989          A     R1,THREE            ADD L(REPORT SECTION)                28824021
 004170 5410 D4EC      0BA2C        5990          N     R1,MK0930           TO L(WORKING-STORAGE SECTION)        28830021
 004174 8810 0002      00002        5991          SRL   R1,DX2                                                   28836021
 004178 D200 DF00 DDE4 0C440 0C324  5992          MVC   WKAR(LX1),WS+NX4      SAVE 1ST BL=                       28842021
 00417E 5010 DDE4      0C324        5993          ST    R1,WS+NX4                                                28848021
 004182 D200 DDE4 DF00 0C324 0C440  5994          MVC   WS+NX4(LX1),WKAR                                         28854021
 004188 47F0 F0E2      04198        5995          BC    UNCOND,PHTRM5       BRH TO PUT OUT NSADEF                28860021
 00418C 9101 D5AB      0BAEB        5996 PHTRM4   TM    WSRSW,XX01           HAS WS SECTION APPEARED             28866021
 004190 4710 F0E2      04198        5997          BC    ONES,PHTRM5         YES, BRANCH TO WSADEF OUT            28872021
 004194 47F0 F0AE      04164        5998          BC    UNCOND,PHTRM3       NO, REPORT SECTION                   28878021
 004198 9224 DDE0      0C320        5999 PHTRM5   MVI   WS,XX24              PUT OUT WSADEF                      28884021
 00419C 4130 0008      00008        6000          LA    R3,DX8                                                   28890021
 0041A0 4120 DDE0      0C320        6001          LA    R2,WS                                                    28896021
 0041A4 181B                        6002          LR    R1,RCOM                                                  28902021
 0041A6 0501                        6003          BALR  R0,R1               BRH TO ADDDR IN REG 1                28908021
 0041A8 14                          6004          DC    X'14'                                                    28914021
 0041A9 00
 0041AA D206 B19B DDE1 0019B 0C321  6005          MVC   WSDEF(LX7),WS+NX1                                        28920021
 0041B0 50F0 DA24      0BF64        6006 BHALT    ST    R15,DSAVE                                                28926021
 0041B4 58F0 DC78      0C1B8        6007          L     R15,ATDDMP                                               28932021
 0041B8 05EF                        6008          BALR  R14,R15             LINK TO TDDMPO                       28938021
 0041BA 58F0 DC44      0C184        6009          L     R15,AWSEND                                               28944021
 0041BE 05EF                        6010          BALR  R14,R15             CALL WSEND TO PROCESS KEYS           28950021
 0041C0 58F0 DA24      0BF64        6011          L     R15,DSAVE                                                28956021
 0041C4 D201 B17E DFA4 0017E 0C4E4  6012          MVC   BLLCTR(LX2),BLLSAVE      RESTORE BLLCTR.                 28962021
 0041CA 9120 D54B      0BA8B        6013          TM    FES,XX20             WERE REDEFINES TABLES PRIMED ****   28968021
 0041CE 47E0 F12C      041E2        6014          BC    NOTONE,BHALTB       NO                                   28974021
 0041D2 5810 DABC      0BFFC        6015          L     R1,RDFPAR                                                28980021
 0041D6 58F0 DCF0      0C230        6016          L     R15,BTABRL                                               28986021
 0041DA 05EF                        6017          BALR  R14,R15             LINK TO ADDR IN REG 15               28992021
 0041DC 5810 DAC4      0C004        6018          L     R1,RNMPAR                                                28998021
 0041E0 05EF                        6019          BALR  R14,R15             LINK TO ADDR IN REG 15               29004021
 0041E2 5810 DAD4      0C014        6020 BHALTB   L     R1,GPARAM                                                29010021
 0041E6 58F0 DCF0      0C230        6021          L     R15,BTABRL                                               29016021
 0041EA 05EF                        6022          BALR  R14,R15             LINK TO ADDR IN REG 15               29022021
 0041EC 58F0 DA24      0BF64        6023          L     R15,DSAVE                                                29028021
 0041F0 9101 D5A4      0BAE4        6024 BHALTC   TM    PTBLSW+NX1,XX01                                          29034021
 0041F4 47E0 F150      04206        6025          BC    NOTONE,BHALTD       BRH ON NOT 1 TO BHALTD               29040021
 0041F8 5810 DB94      0C0D4        6026          L     R1,ADPIOT                                                29046021
 0041FC 58F0 DCF0      0C230        6027          L     R15,BTABRL                                               29052021
 004200 05EF                        6028          BALR  R14,R15             LINK TO ADDR IN REG 15               29058021
 004202 58F0 DA24      0BF64        6029          L     R15,DSAVE                                                29064021
 004206 9102 D5A4      0BAE4        6030 BHALTD   TM    PTBLSW+NX1,XX02                                          29070021
 00420A 4780 F166      0421C        6031          BZ    BHALTE0             BR ON 0 TO BHALTE0                   29076021
 00420E 5810 DB98      0C0D8        6032          L     R1,ACHKPT                                                29082021
 004212 58F0 DCF0      0C230        6033          L     R15,BTABRL                                               29088021
1PH20     IKFCBL20                                                                                              PAGE  145
-  LOC  OBJECT CODE    ADDR1 ADDR2  STMT   SOURCE STATEMENT                                       ASM 0201 11.03 02/14/15
0004216 05EF                        6034          BALR  R14,R15             LINK TO ADDR IN REG 15               29094021
 004218 58F0 DA24      0BF64        6035          L     R15,DSAVE                                                29100021
 00421C 9110 D5A6      0BAE6        6036 BHALTE0  TM    PRMSW,XX10                                               29106021
 004220 4780 F17C      04232        6037          BZ    BHALTF              ON 0 GO CHK IF TABLES PRIMED         29112021
 004224 5810 DB54      0C094        6038          L     R1,RUNPAR                                                29118021
 004228 58F0 DCEC      0C22C        6039          L     R15,BSTATC         MAKE RUNTBL STATIC                    29124021
 00422C 05EF                        6040          BALR  R14,R15             LINK TO ADDR IN REG 15               29130021
 00422E 58F0 DA24      0BF64        6041          L     R15,DSAVE                                                29136021
                                    6042 *                                                                       29142021
 004232 9140 D5A5      0BAE5        6043 BHALTF   TM    PTBLSW+NX2,XX40      TABLES PRIMED                       29148021
 004236 4780 F192      04248        6044          BZ    BHALTG              ON 0 TEST IF BSAMTBL PRIMED          29154021
 00423A 5810 DB3C      0C07C        6045          L     R1,AKEYTB                                                29160021
 00423E 58F0 DCF0      0C230        6046          L     R15,BTABRL                                               29166021
 004242 05EF                        6047          BALR  R14,R15             LINK TO ADDR IN R15                  29172021
                                    6048 *                                                                       29178021
                                    6049 *                                                                       29184021
                                    6050 *                                                                       29190021
 004244 58F0 DA24      0BF64        6051          L     R15,DSAVE                                                29196021
 004248 9108 D5A3      0BAE3        6052 BHALTG   TM    PTBLSW,XX08         BSAMTBL PRIMED?                      29202021
 00424C 4780 F1A8      0425E        6053          BZ    BHALTH              0,TEST IF QSBL TABLE PRIMED          29208021
 004250 5810 DAFC      0C03C        6054          L     R1,BSMPAR          YES.                                  29214021
 004254 58F0 DCF0      0C230        6055          L     R15,BTABRL                                               29220021
 004258 05EF                        6056          BALR  R14,R15             LINK TO ADDR IN REG 15               29226021
 00425A 58F0 DA24      0BF64        6057          L   R15,DSAVE                                                  29232021
 00425E 9180 D5A3      0BAE3        6058 BHALTH   TM    PTBLSW,XX80          WAS QSBL TABLE PRIMED           475 29238021
 004262 4780 F1E0      04296        6059          BC    ZERO,BHALTI         NO                              4758 29244021
 004266 50F0 DA24      0BF64        6060          ST    R15,DSAVE           YES                             4758 29250021
 00426A 5810 DB64      0C0A4        6061          L     R1,QSBLPM                                           4758 29256021
 00426E 58F0 DCE8      0C228        6062          L     R15,BINSRT          CALL INSERT FOR SPACE ADDRESS   4758 29262021
 004272 05EF                        6063          BALR  R14,R15             LINK TO ADDR IN REG 15          4758 29268021
 004274 58F0 DA24      0BF64        6064          L     R15,DSAVE                                           4758 29274021
 004278 4810 B17A      0017A        6065          LH    R1,SBLCTR                                           4758 29280021
 00427C 4111 0001      00001        6066          LA    R1,DX1(R1)                                           475 29286021
 004280 4212 0000      00000        6067          STC   R1,DX0(R2)           INSERT SBLCTR+1                 475 29292021
 004284 5810 DB64      0C0A4        6068          L     R1,QSBLPM                                           4758 29298021
 004288 58F0 DCE8      0C228        6069          L     R15,BINSRT          CALL INSERT FOR SPACE ADDRESS   4758 29304021
 00428C 05EF                        6070          BALR  R14,R15             LINK TO ADDR IN REG 15          4758 29310021
 00428E 58F0 DA24      0BF64        6071          L     R15,DSAVE                                           4758 29316021
 004292 9200 2000      00000        6072          MVI   DX0(R2),XX00         INSERT EOT                      475 29322021
 004296                             6073 BHALTI   DS    0H                                                       29328021
 004296 9108 D5A4      0BAE4        6074          TM    PTBLSW+NX1,XX08           IS OD2TBL PRIMED         41570 29334021
 00429A 4780 F1F6      042AC        6075          BZ    BHALTIA             NO, BRANCH                     41570 29340021
 00429E 5810 DBA0      0C0E0        6076          L     R1,AOD2TB           LOAD OD2TBL ADDRESS TAMME      41570 29346021
 0042A2 58F0 DCF0      0C230        6077          L     R15,BTABRL          LOAD TABLE RELEASE RTN ADDR    41570 29352021
 0042A6 05EF                        6078          BALR  R14,R15             RELEASE TIB 9  OD2TBL          41570 29358021
 0042A8 58F0 DA24      0BF64        6079          L     R15,DSAVE           RESTORE BASE REGISTER          41570 29364021
 0042AC                             6080 BHALTIA  DS    0H                                                 41570 29370021
 0042AC 9110 D5A3      0BAE3        6081          TM    PTBLSW,XX10         TABLE PRIMED  ???                    29376021
 0042B0 47E0 F208      042BE        6082          BNO   BHALTJ                                                   29382021
 0042B4 5810 DB04      0C044        6083          L     R1,LPARAM                                                29388021
 0042B8 58F0 DCF0      0C230        6084          L     R15,BTABRL                                               29394021
 0042BC 05EF                        6085          BALR  R14,R15            RELEASE LABTABLE                      29400021
 0042BE                             6086 BHALTJ   DS    0H                                                       29406021
 0042BE 5810 DB84      0C0C4        6087          L     R1,COSADR                                                29412021
 0042C2 0501                        6088          BALR  R0,R1               BRH TO ADDR IN REG 1                 29418021
1PH20     IKFCBL20                                                                                              PAGE  146
-  LOC  OBJECT CODE    ADDR1 ADDR2  STMT   SOURCE STATEMENT                                       ASM 0201 11.03 02/14/15
00042C4 A0                          6089          DC    X'A0'                                                    29424021
1PH20     IKFCBL20                                                                                              PAGE  147
-  LOC  OBJECT CODE    ADDR1 ADDR2  STMT   SOURCE STATEMENT                                       ASM 0201 11.03 02/14/15
1PH20     IKFCBL20                                                                                              PAGE  148
-  LOC  OBJECT CODE    ADDR1 ADDR2  STMT   SOURCE STATEMENT                                       ASM 0201 11.03 02/14/15
0                                   6092 *=2      REPORT PICTURE ANALYSIS-BREPOR                                 29442021
                                    6093 *BREPOR--REPORT PICTURE ANALYSIS                                        29448021
                                    6094 *BREPOR ANALYZES A REPORT PICTURE CHECKING FOR LEGAL CHARACTER          29454021
                                    6095 * CONFIGURATION, TOTAL LENGTH, NUMERIC LENGTH, SCALE, USAGE, AND        29460021
                                    6096 * ASSOCIATED CLAUSES. THE TOTAL LENGTH CANNOT EXCEED 127 CHARACTERS     29466021
                                    6097 * IT DOES THE PICTURE IS CHANGED TO 9. IF THE NUMERIC LENGTH IS GRE     29472021
                                    6098 *THAN 18 THE PICTURE IS CHANGED TO 9. THE                               29478021
                                    6099 * USAGE MUST BE DISPLAY, IF IT SI NOT THE PICTURE IS DROPPED. IF TH     29484021
                                    6100 * NUMERIC CHARACTERS ARE ALL +, -, $, OR Z THE BLANK WHEN ZERO CLAU     29490021
                                    6101 * IS ASSUMED PRESENT AND THE BWZ BIT IN THE ATTRIBUTES IS SET TO 1.     29496021
                                    6102 * THE NUMERIC CHARACTERS ARE ALL *, THE *WZ BIT IS SET TO ONE. IF T     29502021
                                    6103 * BWZ CLAUSE IS GIVEN FOR THE LATTER CASE IT IS DELETED.                29508021
                                    6104 *  BREPOR IS CALLED BY PICTAN WHEN PCTYPE IS REPORT BY THE FOLLOWIN     29514021
                                    6105 *  CALLING ROUTINE                                                      29520021
                                    6106 *                                                                       29526021
                                    6107 *                                                                       29532021
                                    6108 *        IC    R4,PCTYPE      INSERT PICTURE TYPE CODE IN REG 4         29538021
                                    6109 *        SLA   R4,2           MULTIPLY BY 4 FOR FULL WORD BNDRY         29544021
                                    6110 *        AR    R8,R4          ADD INDEX(R4) TO ADDRESS OF BPICTB TA     29550021
                                    6111 *        ST    R15,RSAVE+60   SAVE REG 15                               29556021
                                    6112 *        L     R15,0(0,R8)    PUT TABLE ADDRESS INTO REG 15             29562021
                                    6113 *        BALR  R14,R15        CALL PROPER PICTURE ANALYSIS RTN          29568021
                                    6114 *        LTR   R14,R15        IF CALLED ROUTINE DELETES CURRENT ITE     29574021
                                    6115 *        L     R15,RSAVE+60    PICTURE, R15 WILL BE SET TO ZERO AND     29580021
                                    6116 *        BC    ZERO,BFIXPC     BRANCH WILL BE TAKEN TO BFIXPC, OTHE     29586021
                                    6117 *        BC    UNCOND,BELCOM  GO TO ELEM ITEM COMPATIBILITY RTN         29592021
                                    6118 *                                                                       29598021
                                    6119 *BPICTB IS A TABLE OF PICTURE ANALYSIS RTNS                             29604021
                                    6120 *BFIXPC INSERTS A PICTURE 9.                                            29610021
                                    6121 *                                                                       29616021
                                    6122 *                                                                       29622021
                                    6123 *                                                                       29628021
 0042C8                             6124 IKF205 CSECT                                                            29634021
                             042C8  6125        USING *,R15                                                      29640021
 0042C8 901E D990      0BED0        6126 BREPOR   STM   R1,R14,RSAVE+NX4     SAVE CALLER'S REGISTERS             29646021
 0042CC 1B99                        6127          SR    R9,R9                                                    29652021
 0042CE 4390 D676      0BBB6        6128          IC    R9,ITMCLS      INSERT CLAUSE CODES AND                   29658021
 0042D2 5490 D4C8      0BA08        6129          N     R9,MK3032       ZERO OUT ALL BUT USAGE CODES             29664021
 0042D6 5990 D3F8      0B938        6130          C     R9,ONE              IS USAGE DISPLAY                     29670021
 0042DA 4780 F01C      042E4        6131          BC    EQ,*+NX10            YES                                 29676021
 0042DE 4540 F4CC      04794        6132          BAL   R4,BDRPPR           NO                                   29682021
 0042E2 006B                        6133          DC    X'006B'             107  USAGE NOT DISPLAY               29688021
 0042E4 9650 D60D      0BB4D        6134          OI    MINCOD,XX50     SET MINOR CODE (0101) FOR REPORT ITEM    29694021
 0042E8 1B99                        6135          SR    R9,R9                                                    29700021
 0042EA 4390 D689      0BBC9        6136          IC    R9,IPT         GET PICTURE CHARACTER COUNT               29706021
 0042EE D704 D81F D81F 0BD5F 0BD5F  6137          XC    BREPSW(LX5),BREPSW CLEAR REPORT SWITCHES                 29712021
 0042F4 4160 D689      0BBC9        6138          LA    R6,IPT         REG 6 IS IPT INDEX                        29718021
 0042F8 4120 D6A8      0BBE8        6139          LA    R2,IPLT        REG 2 IS IPLT INDEX                       29724021
 0042FC 1B88                        6140          SR    R8,R8          TOTAL LGN                                 29730021
 0042FE 1BCC                        6141          SR    R12,R12        NUMERIC LENGTH                            29736021
 004300 4140 D618      0BB58        6142          LA    R4,VILGN+NX5    TEMPORARY ADDRESS FOR REPORT CHARACTE    29742021
 004304 9130 D60C      0BB4C        6143          TM    COUNT,XX30           IS THERE AN OCCURS DICT PTR IN A    29748021
 004308 4740 F050      04318        6144        BM    BSTCNT               NO                                    29754021
 00430C 9207 D613      0BB53        6145          MVI   VILGN,XX07      THERE IS SUBSCRIPTING IN THIS ITEM SO    29760021
 004310 4144 0003      00003        6146          LA    R4,DX3(R4,R0)   3 TO R4 TO LEAVE ROOM FOR DICTIONARY     29766021
1PH20     IKFCBL20                                                                                              PAGE  149
-  LOC  OBJECT CODE    ADDR1 ADDR2  STMT   SOURCE STATEMENT                                       ASM 0201 11.03 02/14/15
0004314 47F0 F054      0431C        6147          BC    UNCOND,*+NX8      POINTER                                29772021
 004318 9204 D613      0BB53        6148 BSTCNT   MVI   VILGN,XX04      SET COUNT OF ATTRIBUTES TO 10            29778021
 00431C 5040 DA18      0BF58        6149          ST    R4,BSAVE4      SAVE ADDRESS OF REPORT CHARACTERS         29784021
 004320 1BAA                        6150          SR    R10,R10        SCALE                                     29790021
 004322 9500 D821      0BD61        6151 BREPOT   CLI   BDECCH,XX00     I SBYTE FOR CHARACTER AFTER DECIMAL P    29796021
 004326 4770 F09A      04362        6152          BC    NOTEQ,BNOTEM   NO                                  E     29802021
 00432A 9104 D81F      0BD5F        6153          TM    BREPSW,XX04     YES,IS DECIMAL POINT SWITCH ON           29808021
 00432E 4710 F0C0      04388        6154          BC    ONES,BDECON    YES                                       29814021
 004332 9500 D822      0BD62        6155 BFCBYT   CLI   BFIRST,XX00     NO, IS FIRST CHAR BYTE EMPTY             29820021
 004336 4780 F0E6      043AE        6156          BC    EQ,BFEMPT      YES                                       29826021
 00433A 1B33                        6157 BFINDR   SR    R3,R3          NO                                        29832021
 00433C 4150 000E      0000E        6158          LA    R5,DX14(R0,R0)  R5 IS COUNTER FOR LOOP                   29838021
 004340 1B77                        6159          SR    R7,R7                                                    29844021
 004342 4376 0001      00001        6160          IC    R7,DX1(R6)      GET PICTURE CHAR                         29850021
 004346 8970 0018      00018        6161          SLL   R7,DX24         SHIFT CHAR TO 8 HIGH BITS OF REG 7       29856021
 00434A 5813 D0EC      0B62C        6162 BLOADR   L     R1,BRATAB(R3)  PUT BRANCH TABLE WORD IN REG 1            29862021
 00434E 1717                        6163          XR    R1,R7          XOR REG 7 AND REG 1, IF PICTURE           29868021
 004350 5510 D4C4      0BA04        6164          CL    R1,MK0932       CHAR MATCHES TABLE CHAR THE FIRST 8      29874021
 004354 07D1                        6165          BCR   NOTHI,R1        OF R1 WILL BE ZERO AND THE OTHER 24      29880021
 004356 4130 3004      00004        6166          LA    R3,DX4(R0,R3)  HAVE ADDRESS OF CHAR ROUTINE              29886021
 00435A 4650 F082      0434A        6167          BCT   R5,BLOADR      NO MATCH INCREMENT AND TRY NEXT           29892021
 00435E 47F0 F518      047E0        6168          BC    UNCOND,BMIST1  ILLEGAL REPORT PICTURE CHARACTER          29898021
 004362 D500 6001 D821 00001 0BD61  6169 BNOTEM   CLC   DX1(LX1,R6),BDECCH CURRENT PICT CHAR EQUAL TO CHAR AFTER 29904021
 004368 4780 F06A      04332        6170          BC    EQ,BFCBYT      YES            ACTUAL DECIMAL POINT       29910021
 00436C 4110 D531      0BA71        6171          LA    R1,BDECTB+NX5   NO  LOAD ADDRESS OF NUMERIC TABLE INT    29916021
 004370 4130 0003      00003        6172          LA    R3,DX3(R0,R0)   LOAD 3 COUNT FOR COMPARE LOOP            29922021
 004374 D500 6001 1000 00001 00000  6173 BCMPAR   CLC   DX1(LX1,R6),DX0(R1) IF CURRENT CHARACTER IS Z,ASTERISK   29928021
 00437A 4780 F56C      04834        6174          BC    EQ,BMISTK        OR NINE THERE IS AN ERROR - ALL NUM     29934021
 00437E 0610                        6175          BCTR  R1,R0               SUBT 1 FROM CONTENTS OF REG 1        29940021
 004380 4630 F0AC      04374        6176          BCT   R3,BCMPAR         CHARACTERS TO REGHT OF ACT. DEC. P     29946021
 004384 47F0 F06A      04332        6177          BC    UNCOND,BFCBYT      ARE NOT THE SAME                      29952021
 004388 4110 D531      0BA71        6178 BDECON   LA    R1,BDECTB+NX5                                            29958021
 00438C 4130 0006      00006        6179          LA    R3,DX6(R0,R0)                                            29964021
 004390 D500 6001 1000 00001 00000  6180 BCPARE   CLC   DX1(LX1,R6),DX0(R1) IF CURRENT CHARACTER IS A NUMERIC    29970021
 004396 4780 F0DC      043A4        6181          BC    EQ,BMVDEC       LOAD IT INTO FIRST CHARACTER AFTER       29976021
 00439A 0610                        6182        BCTR  R1,R0                 SUBT 1 FROM REG 1                    29982021
 00439C 4630 F0C8      04390        6183          BCT   R3,BCPARE        DECIMAL POINT BYTE                      29988021
 0043A0 47F0 F06A      04332        6184          BC    UNCOND,BFCBYT       BRH,CHK IF 1ST CHR BYTE EMPTY        29994021
 0043A4 D200 D821 6001 0BD61 00001  6185 BMVDEC   MVC   BDECCH(LX1),DX1(R6)                                      30000021
 0043AA 47F0 F06A      04332        6186          BC    UNCOND,BFCBYT       BRH,CHK IF 1ST CHR BYTE EMPTY        30006021
 0043AE D200 D822 6001 0BD62 00001  6187 BFEMPT   MVC   BFIRST(LX1),DX1(R6)                                      30012021
 0043B4 47F0 F072      0433A        6188          BC    UNCOND,BFINDR       GO SET UP REG 5 AS LOOP CTR          30018021
                                    6189 * CHARACTER IS  $        DOLLAR SIGN                                    30024021
 0043B8 4830 2002      00002        6190 BDOLLR   LH    R3,DX2(R0,R2)  GET $ COUNT                               30030021
 0043BC 5930 D3F8      0B938        6191          C     R3,ONE         MORE THAN 1 $                             30036021
 0043C0 4720 F12A      043F2        6192          BC    HI,BFLDOL      YES GO TO $ FLOATING STRING ROUTINE       30042021
 0043C4 D500 D823 6001 0BD63 00001  6193          CLC   BFLTST(LX1),DX1(R6)                                      30048021
 0043CA 4780 F12A      043F2        6194        BC    EQ,BFLDOL             BR ON =,CHK FOR FIXED $              30054021
 0043CE 9180 D81F      0BD5F        6195          TM    BREPSW,XX80     NO, HAS $ APPEARED BEFORE                30060021
 0043D2 4780 F11A      043E2        6196          BZ    BDOLLA              NO                                   30066021
 0043D6 917F D81F      0BD5F        6197          TM    BREPSW,XX7F          HAS ANYTHING ELSE APPEARED          30072021
 0043DA 4780 F11A      043E2        6198          BZ    BDOLLA              NO                                   30078021
 0043DE 47F0 F51E      047E6        6199          B     BMIST2              YES, ERROR                           30084021
                             043E2  6200 BDOLLA   EQU   *                                                        30090021
 0043E2 4180 8001      00001        6201          LA    R8,DX1(R0,R8)  ADD ONT TO TOTAL LGN                      30096021
1PH20     IKFCBL20                                                                                              PAGE  150
-  LOC  OBJECT CODE    ADDR1 ADDR2  STMT   SOURCE STATEMENT                                       ASM 0201 11.03 02/14/15
00043E6 4510 F3C8      04690        6202          BAL   R1,BTLCHK      CALL TOTAL LENGTH CHECK ROUTINE           30102021
 0043EA 9680 D81F      0BD5F        6203          OI    BREPSW,XX80     TURN ON $ BIT SWITCH                     30108021
 0043EE 47F0 F40E      046D6        6204          BC    UNCOND,BGOGET       BRH TO BGOGET                        30114021
 0043F2 9180 D81F      0BD5F        6205 BFLDOL   TM    BREPSW,XX80     HAS FIXED $ APPEARED                     30120021
 0043F6 4780 F13E      04406        6206          BZ    BDOLL1              NO                                   30126021
 0043FA 917F D81F      0BD5F        6207          TM    BREPSW,XX7F          HAS ANYTHING ELSE APPEARED          30132021
 0043FE 4780 F13E      04406        6208          BZ    BDOLL1              NO, IT IS FLOATING                   30138021
 004402 47F0 F51E      047E6        6209          B     BMIST2              YES, ERROR                           30144021
 004406 1B55                        6210 BDOLL1   SR    R5,R5                                                    30150021
 004408 4350 6001      00001        6211          IC    R5,DX1(R0,R6)  INSERT CURRENT PICTURE CHAR INTO REG 5    30156021
 00440C 910B D81F      0BD5F        6212          TM    BREPSW,XX0B     NO, IS 9, Z, OR * TO8LEFT OF FLOAT ST    30162021
 004410 4770 F524      047EC        6213          BC    NOTZER,BMIST5  YES                                       30168021
 004414 9108 D820      0BD60        6214          TM    BREPSW+NX1,XX08 NO, IF PNV AND NUMERIC SWITCHES ARE B    30174021
 004418 4780 F15C      04424        6215          BC    ZERO,BFTEST          ON THEN THE ERROR OF P'S ENCLOS     30180021
 00441C 9102 D820      0BD60        6216          TM    BREPSW+NX1,XX02        BY NUMERICS IS PRESENT            30186021
 004420 4710 F52A      047F2        6217          BC    ONES,BMIST6         1S,BR TO P'S ILLEGAL POS RTN         30192021
 004424 9500 D823      0BD63        6218 BFTEST   CLI   BFLTST,XX00     HAS A FLOATING STRING APPEARED           30198021
 004428 4780 F170      04438        6219          BC    EQ,BSETST      NO                                        30204021
 00442C 4450 F1BE      04486        6220          EX    R5,BCFLOT      YES,EXECUTE A COMPARE OF FLOAT STRING     30210021
 004430 4770 F530      047F8        6221          BC    NOTEQ,BMIST7    CHAR AND CURRENT CHARACTER               30216021
 004434 47F0 F174      0443C        6222          BC    UNCOND,*+NX8    EQUAL                                    30222021
 004438 4450 F1C2      0448A        6223 BSETST   EX    R5,BMFLOT      EXECUTE-LAOD CURRENT CHAR INTO FLOAT      30228021
 00443C 9120 D820      0BD60        6224          TM    BREPSW+NX1,XX20 IS N-1 SWTICH ON                         30234021
 004440 4710 F190      04458        6225          BC    ONES,BADDOL    YES                                       30240021
 004444 9620 D820      0BD60        6226          OI    BREPSW+NX1,XX20 TURN ON N-1 SWITCH                       30246021
 004448 0630                        6227        BCTR  R3,R0           NO,DECREMENT = COUNT BY 1                  30252021
 00444A 1AC3                        6228          AR    R12,R3         ADD COUNT TO NUMERIC LENGTH               30258021
 00444C 4510 F402      046CA        6229          BAL   R1,BNUMCK      CALL NUMERIC LGN CHECK RTN                30264021
 004450 4130 3001      00001        6230          LA    R3,DX1(R0,R3)  RESTORE COUNR                             30270021
 004454 47F0 F196      0445E        6231          BC    UNCOND,BADDOL+NX6   BRH TO ADD CT TO TOTAL LGN           30276021
 004458 1AC3                        6232 BADDOL   AR    R12,R3         ADD COUNT TO NUMERIC LENGTH               30282021
 00445A 4510 F402      046CA        6233          BAL   R1,BNUMCK      CALL  NUMERIC LENGTH CHECK ROUTINE        30288021
 00445E 1A83                        6234          AR    R8,R3          ADD COUNT TO TOTAL LGN                    30294021
 004460 9101 D820      0BD60        6235          TM    BREPSW+NX1,XX01      IS DECIMAL SW ON                    30300021
 004464 47E0 F1AE      04476        6236          BC    NOTONE,BADDO1       NO                                   30306021
 004468 92F9 6001      00001        6237          MVI   DX1(R6),XC9          YES, CHANGE CHAR TO 9               30312021
 00446C 4510 F3C8      04690        6238          BAL   R1,BTLCHK           CALL TOTAL LGN CHECK                 30318021
 004470 1AA3                        6239          AR    R10,R3              ADD COUNT TO SCALE                   30324021
 004472 47F0 F1B2      0447A        6240          BC    UNCOND,BTURNR       BR TO TURN ON NUMERIC SW             30330021
 004476 4510 F3C8      04690        6241 BADDO1   BAL   R1,BTLCHK           LNK TO CHK IF TOT LGN > 127          30336021
 00447A 9602 D820      0BD60        6242 BTURNR   OI    BREPSW+NX1,XX02 TURN ON NUMERIC SWITCH                   30342021
 00447E 94F7 D820      0BD60        6243          NI    BREPSW+NX1,XXF7 TURN OFF PNV SWITCH                      30348021
 004482 47F0 F40E      046D6        6244          BC    UNCOND,BGOGET       BRH TO BGOGET                        30354021
 004486 9500 D823      0BD63        6245 BCFLOT   CLI   BFLTST,XX00                                              30360021
 00448A 9200 D823      0BD63        6246 BMFLOT   MVI   BFLTST,XX00                                              30366021
                                    6247 * CHARACTER IS  *        ASTERISK                                       30372021
 00448E 9102 D81F      0BD5F        6248 BASTSK   TM    BREPSW,XX02     HAS ZERO SUPPRESSION CHAR APPEARED       30378021
 004492 4710 F536      047FE        6249          BC    ONES,BMIST8    YES  ASTERISK AFTER ZERO SUPPRESSION(     30384021
 004496 47F0 F1DA      044A2        6250          BC    UNCOND,BZSUPB  NO                                        30390021
                                    6251 * CHARACTER IS  Z        ZERO SUPPRESSION                               30396021
 00449A 9101 D81F      0BD5F        6252 BZUPP    TM    BREPSW,XX01     HAS ASTERISK APPEARED                    30402021
 00449E 4710 F536      047FE        6253          BC    ONES,BMIST8         YES, ERROR  Z AFTER *                30408021
 0044A2 9108 D81F      0BD5F        6254 BZSUPB   TM    BREPSW,XX08     NO, HAS 9 APPEARED                       30414021
 0044A6 4710 F53C      04804        6255          BC    ONES,BMISTA    YES   ERROR 9 TO LEFT OF AST OR Z         30420021
 0044AA 9500 D823      0BD63        6256          CLI   BFLTST,XX00     NO, HAS FLOATING STRING APPEARED         30426021
1PH20     IKFCBL20                                                                                              PAGE  151
-  LOC  OBJECT CODE    ADDR1 ADDR2  STMT   SOURCE STATEMENT                                       ASM 0201 11.03 02/14/15
00044AE 4770 F542      0480A        6257          BC    NOTEQ,BMISTB   YES  ERROR STRING TO LEFT OF AST OR Z     30432021
 0044B2 9108 D820      0BD60        6258          TM    BREPSW+NX1,XX08 NO, IS PNV SWITCH ON                     30438021
 0044B6 4780 F1FA      044C2        6259          BC    ZERO,BGETCT    NO                                        30444021
 0044BA 9102 D820      0BD60        6260          TM    BREPSW+NX1,XX02 YES IS NUMERIC SWITCH ON                 30450021
 0044BE 47F0 F52A      047F2        6261          BC    UNCOND,BMIST6  YES                                       30456021
 0044C2 4830 2002      00002        6262 BGETCT   LH    R3,DX2(R0,R2)  YES, GET * OR Z COUNT                     30462021
 0044C6 1AC3                        6263          AR    R12,R3                                                   30468021
 0044C8 4510 F402      046CA        6264          BAL   R1,BNUMCK           BR TO LOAD 18 INTO REG 5             30474021
 0044CC 1A83                        6265          AR    R8,R3          ADD COUNT TO TOTAL LGN                    30480021
 0044CE 9101 D820      0BD60        6266          TM    BREPSW+NX1,XX01      IS DECIMAL SW ON                    30486021
 0044D2 47E0 F228      044F0        6267          BC    NOTONE,BGETC1       NO                                   30492021
 0044D6 D200 D900 6001 0BE40 00001  6268          MVC   FULLWD(LX1),DX1(R6)   YES SAVE * OR Z                    30498021
 0044DC 92F9 6001      00001        6269          MVI   DX1(R6),XC9           AND REPLACE IT WITH 9 SO 9'S WI    30504021
 0044E0 4510 F3C8      04690        6270          BAL   R1,BTLCHK            BE PUT IN ATTRIBUTES AFTER DEC.     30510021
 0044E4 D200 6001 D900 00001 0BE40  6271          MVC   DX1(LX1,R6),FULLWD    CALL TOTAL LGN CHECK               30516021
 0044EA 1AA3                        6272          AR    R10,R3              ADD COUNT TO SCALE                   30522021
 0044EC 47F0 F22C      044F4        6273          BC    UNCOND,BGETC2       BR AND CK FOR PICT CHR 0 SUPPR       30528021
 0044F0 4510 F3C8      04690        6274 BGETC1   BAL   R1,BTLCHK           CALL TOTAL LGN CHECK                 30534021
 0044F4 95E9 6001      00001        6275 BGETC2   CLI   DX1(R6),XCZ          IS PICT CHAR ZERO SUPPRESSION       30540021
 0044F8 4780 F23C      04504        6276          BC    EQ,BORZSW      YES                                       30546021
 0044FC 9601 D81F      0BD5F        6277          OI    BREPSW,XX01     NO,TURN ON ASTERISK SWITCH               30552021
 004500 47F0 F1B2      0447A        6278          BC    UNCOND,BTURNR       BRH TO TURN ON NUMERIC SWITCH        30558021
 004504 9602 D81F      0BD5F        6279 BORZSW   OI    BREPSW,XX02                                              30564021
 004508 47F0 F1B2      0447A        6280          BC    UNCOND,BTURNR       BRH TO TURN ON NUMERIC SWITCH        30570021
                                    6281 * CHARACTER IS  9        NINE                                           30576021
 00450C 9108 D820      0BD60        6282 BNINEB   TM    BREPSW+NX1,XX08 IS PNV SWITCH ON                         30582021
 004510 4780 F254      0451C        6283          BC    ZERO,BNINEC    NO                                        30588021
 004514 9102 D820      0BD60        6284          TM    BREPSW+NX1,XX02 YES, IS NUMERIC SW ON                    30594021
 004518 4710 F52A      047F2        6285          BC    ONES,BMIST6         IF NUMERIC SW ON, GO TO BMIST6       30600021
 00451C 4830 2002      00002        6286 BNINEC   LH    R3,DX2(R0,R2)  NO , GET  9 COUNT                         30606021
 004520 1AC3                        6287          AR    R12,R3         ADD COUNT TO NUMERIC LENGTH               30612021
 004522 4510 F402      046CA        6288          BAL   R1,BNUMCK           LNK TO LOAD 18 INTO REG 5            30618021
 004526 1A83                        6289          AR    R8,R3                                                    30624021
 004528 4510 F3C8      04690        6290          BAL   R1,BTLCHK      CALL TOTAL LENGTH CHECK ROUTINE           30630021
 00452C 9101 D820      0BD60        6291          TM    BREPSW+NX1,XX01 IS DECIMAL SW ON                         30636021
 004530 4780 F26E      04536        6292          BC    ZERO,BSET9B    NO                                        30642021
 004534 1AA3                        6293          AR    R10,R3         ADD 9 COUNT TO SCALE                      30648021
 004536 9608 D81F      0BD5F        6294 BSET9B   OI    BREPSW,XX08     TURN ON 9 SWITCH                         30654021
 00453A 47F0 F1B2      0447A        6295          BC    UNCOND,BTURNR       BR TO TURN ON NUMERIC SWITCH         30660021
 00453E 1B55                        6296 BSCALB   SR    R5,R5                                                    30666021
                                    6297 * CHARACTER IS  P        SCALE CAHRACTER                                30672021
 004540 4350 D820      0BD60        6298          IC    R5,BREPSW+NX1                                            30678021
 004544 5450 D4C8      0BA08        6299          N     R5,MK3032      ZERO OUT ALL SWITCHES EXCEPT PND          30684021
 004548 5950 D3F4      0B934        6300          C     R5,ZEROS                                                 30690021
 00454C 4780 F2B8      04580        6301          BC    EQ,BSETAV      IF PND IS ZERO SET ASSUMED V SWITCH O     30696021
 004550 4170 D508      0BA48        6302 BXTABD   LA    R7,BRPTAB                                                30702021
 004554 1A57                        6303 BXTABR   AR    R5,R7                                                    30708021
 004556 9501 5000      00000        6304          CLI   DX0(R5),XX01    COMPARE TABLE VALUE TO ONE               30714021
 00455A 4740 F52A      047F2        6305          BC    LO,BMIST6           L.T. 1  IF P PLACEMENT ERROR         30720021
 00455E 4780 F2A6      0456E        6306          BC    EQ,BADPPS      EQUAL TO ONE                              30726021
 004562 9503 5000      00000        6307          CLI   DX0(R5),XX03    GREATER THAN ONE                         30732021
 004566 4780 F2C4      0458C        6308          BC    EQ,BEQTHR           TABLE VAL=3,PNW SW ON ?              30738021
 00456A 9610 D820      0BD60        6309 BNEGSC   OI    BREPSW+NX1,XX10 GET P COUNT AND                          30744021
 00456E 4850 2002      00002        6310 BADPPS   LH    R5,DX2(R0,R2)   ADD TO SCALE                             30750021
 004572 1AA5                        6311          AR    R10,R5         SET SCALE SW ON SIGNIFYING MINUS          30756021
1PH20     IKFCBL20                                                                                              PAGE  152
-  LOC  OBJECT CODE    ADDR1 ADDR2  STMT   SOURCE STATEMENT                                       ASM 0201 11.03 02/14/15
0004574 960C D820      0BD60        6312          OI    BREPSW+NX1,XX0C TURN ON P AND PNV SWITCH                 30762021
 004578 5B40 D3FC      0B93C        6313          S     R4,TWO                                                   30768021
 00457C 47F0 F40E      046D6        6314          BC    UNCOND,BGOGET       BRH TO BGOGET                        30774021
 004580 9620 D81F      0BD5F        6315 BSETAV   OI    BREPSW,XX20     TURN ON ASSUMED DEC PT SW                30780021
 004584 9601 D820      0BD60        6316          OI    BREPSW+NX1,XX01 TURN ON DECIMAL SWITCH                   30786021
 004588 47F0 F288      04550        6317          BC    UNCOND,BXTABD       BR, LOAD ADDR OF BRPTAB IN R7        30792021
 00458C 9108 D820      0BD60        6318 BEQTHR   TM    BREPSW+NX1,XX08 PNV ON                                   30798021
 004590 47E0 F52A      047F2        6319          BC    NOTONE,BMIST6       NO                                   30804021
 004594 9102 D820      0BD60        6320          TM    BREPSW+NX1,XX02 YES, IS NUM SW ON                        30810021
 004598 47E0 F2A6      0456E        6321          BC    NOTONE,BADPPS  NO                                        30816021
 00459C 47F0 F2A2      0456A        6322          BC    UNCOND,BNEGSC  YES                                       30822021
                                    6323 * CHARACTER IS  , 0 B    COMMA  ZERO  BLANK                             30828021
 0045A0 4830 2002      00002        6324 BZEROB   LH    R3,DX2(R0,R2)  GET COUNT OF COMMA(,),ZERO(0) OR BLANK    30834021
 0045A4 1A83                        6325          AR    R8,R3                                                    30840021
 0045A6 95C2 6001      00001        6326          CLI   DX1(R6),XCB          IF CHAR IS B REPLACE WITH BLANK     30846021
 0045AA 4770 F2EA      045B2        6327          BC    NOTEQ,*+NX8          NO                                  30852021
 0045AE 9240 6001      00001        6328          MVI   DX1(R6),XX40         YES                                 30858021
 0045B2 4510 F3C8      04690        6329          BAL   R1,BTLCHK      CALL TOTAL LENGTH CHECK ROUTINE           30864021
 0045B6 47F0 F40E      046D6        6330          BC    UNCOND,BGOGET       BR TO BGOGET                         30870021
                                    6331 * CHARACTER IS  . V      ACTUAL OR IMPLIED DECIMAL POINT                30876021
 0045BA 9114 D81F      0BD5F        6332 BVVVVB   TM    BREPSW,XX14     TEST FOR PRESENCE OF . OR V              30882021
 0045BE 4770 F548      04810        6333          BC    NOTZER,BMISTD  . OR V IS PRESENT                         30888021
 0045C2 9120 D81F      0BD5F        6334          TM    BREPSW,XX20     . OR V NOT PRESENT, IS ASSUMED V PRES    30894021
 0045C6 4710 F54E      04816        6335          BC    ONES,BMISTE    YES, ERROR                                30900021
 0045CA 4830 2002      00002        6336          LH    R3,DX2(R0,R2)                                            30906021
 0045CE 9601 D820      0BD60        6337          OI    BREPSW+NX1,XX01                                          30912021
 0045D2 4630 F326      045EE        6338          BCT   R3,BTRNC1           R3 - 1, IF 0 GO TO BTRNC1            30918021
 0045D6 4130 0001      00001        6339          LA    R3,DX1(R0,R0)                                            30924021
 0045DA 95E5 6001      00001        6340 BMDONE   CLI   DX1(R6),XCV                                              30930021
 0045DE 4770 F32E      045F6        6341          BC    NOTEQ,BPERB    ACTUAL DECIMAL POINT                      30936021
 0045E2 5B40 D3FC      0B93C        6342          S     R4,TWO                                                   30942021
 0045E6 9610 D81F      0BD5F        6343          OI    BREPSW,XX10     TURN ON V SW                             30948021
 0045EA 47F0 F40E      046D6        6344          BC    UNCOND,BGOGET       BRANCH TO BGOGET                     30954021
 0045EE 4100 0017      00017        6345 BTRNC1   LA    R0,DX23(R0,R0)                                           30960021
 0045F2 47F0 F312      045DA        6346          BC    UNCOND,BMDONE       BRH TO CHK FOR DECIMAL POINT         30966021
 0045F6 9604 D81F      0BD5F        6347 BPERB    OI    BREPSW,XX04     TURN ON . SW                             30972021
 0045FA 4180 8001      00001        6348          LA    R8,DX1(R0,R8)  ADD ONE TO TOTAL LGN                      30978021
 0045FE 4510 F3C8      04690        6349          BAL   R1,BTLCHK      CALL TOTAL LENGTH CHECK ROUTINE           30984021
 004602 47F0 F40E      046D6        6350          BC    UNCOND,BGOGET       BRANCH TO BGOGET                     30990021
                                    6351 * CHARACTER IS  C(R)     CREDIT                                         30996021
 004606 9140 D820      0BD60        6352 BCREDB   TM    BREPSW+NX1,XX40 IS DB SWITCH ON (DEBIT)                  31002021
 00460A 4710 F554      0481C        6353          BC    ONES,BMISTF    YES, ERROR CR AND DB                      31008021
 00460E 47F0 F352      0461A        6354          BC    UNCOND,BTSTSN       BRH TO TEST FOR SIGN                 31014021
                                    6355 * CHARACTER IS  D(B)     DEBIT                                          31020021
 004612 9180 D820      0BD60        6356 BDEBIT   TM    BREPSW+NX1,XX80 IS CREDIT SWITCH ON (CR)                 31026021
 004616 4710 F554      0481C        6357          BC    ONES,BMISTF    YES, ERROR                                31032021
 00461A 9140 D81F      0BD5F        6358 BTSTSN   TM    BREPSW,XX40     IS A SIGN PRESENT                        31038021
 00461E 4770 F55A      04822        6359          BC    NOTZER,BMISTG  YES, ERROR  CR OR DB WITH SIGN            31044021
 004622 5990 D3FC      0B93C        6360          C     R9,TWO         NO, IS CR LAST TWO CHARS                  31050021
 004626 4770 F560      04828        6361          BC    NOTEQ,BMISTH   NO                                        31056021
 00462A 4180 8002      00002        6362          LA    R8,DX2(R0,R8)  ADD TWO TO TOTAL LGN                      31062021
 00462E 4510 F3C8      04690        6363          BAL   R1,BTLCHK      CALL TOTAL LENGTH CHECK ROUTINE           31068021
 004632 95C3 6001      00001        6364          CLI   DX1(R6),XCC                                              31074021
 004636 4780 F37C      04644        6365          BC    EQ,MVCRED           CHAR=C,MOVE CR TO ATTRIBUTES         31080021
 00463A D201 4000 D53F 00000 0BA7F  6366          MVC   DX0(LX2,R4),DEBIT MOVE DB TO ATTRIBUTES                  31086021
1PH20     IKFCBL20                                                                                              PAGE  153
-  LOC  OBJECT CODE    ADDR1 ADDR2  STMT   SOURCE STATEMENT                                       ASM 0201 11.03 02/14/15
0004640 47F0 F382      0464A        6367          BC    UNCOND,B2CHAR       BR TO DECR REG 9 BY 1                31092021
 004644 D201 4000 D541 00000 0BA81  6368 MVCRED   MVC   DX0(LX2,R4),CREDIT MOVE CR TO ATTRIBUTES                 31098021
 00464A 0690                        6369 B2CHAR BCTR  R9,R0           DECREMENT BY 1 SINCE CR AND DB ARE 2 B     31104021
 00464C 47F0 F40E      046D6        6370          BC    UNCOND,BGOGET       BRANCH TO BGOGET                     31110021
                                    6371 * CHARACTER IS  + -      PLUS OR MINUS SIGN                             31116021
 004650 4830 2002      00002        6372 BPLUSB   LH    R3,DX2(R0,R2)  GET COUNT OF SIGN CHARACTER               31122021
 004654 5930 D3F8      0B938        6373          C     R3,ONE         IS COUNT =1 ,FLOATING STRING              31128021
 004658 4720 F12A      043F2        6374          BC    HI,BFLDOL      YES                                       31134021
 00465C D500 D823 6001 0BD63 00001  6375          CLC   BFLTST(LX1),DX1(R6)   IS IT SAME AS FLT       *****      31140021
 004662 4780 F12A      043F2        6376        BC    EQ,BFLDOL             YES                     *****        31146021
 004666 9140 D81F      0BD5F        6377          TM    BREPSW,XX40     NO, IS + OR - SIGN SW ON                 31152021
 00466A 4770 F51E      047E6        6378          BC    NOTZER,BMIST2       YES, ERROR- 2 SIGNS                  31158021
 00466E D500 6001 D822 00001 0BD62  6379          CLC   DX1(LX1,R6),BFIRST NO, IS SIGN CHAR EQUAL TO FIRST CHAR  31164021
 004674 4780 F3B8      04680        6380          BC    EQ,BLOADS      YES                                       31170021
 004678 4690 F566      0482E        6381          BCT   R9,BMISTI      NO, IS SIGN CHAR LAST CHAR,BRANCH IF      31176021
 00467C 4199 0001      00001        6382          LA    R9,DX1(R9,R0)  RESTORE PICTURE CHARACTER COUNT           31182021
 004680 4180 8001      00001        6383 BLOADS   LA    R8,DX1(R0,R8)  ADD ONE TO TOTAL LGN                      31188021
 004684 4510 F3C8      04690        6384          BAL   R1,BTLCHK      CALL TOTAL LENGTH CHECK ROUTINE           31194021
 004688 9640 D81F      0BD5F        6385          OI    BREPSW,XX40     SET SIGN SWITCH ON                       31200021
 00468C 47F0 F40E      046D6        6386          BC    UNCOND,BGOGET       BRANCH TO BGOGET                     31206021
 004690 5980 D4D0      0BA10        6387 BTLCHK   C     R8,MK2632      IS TOTAL LGN GREATER THAN 127             31212021
 004694 47D0 F3D4      0469C        6388          BC    NOTHI,BMVRCH   NO                                        31218021
 004698 47F0 F572      0483A        6389          BC    UNCOND,BMISTT  YES, ERROR                                31224021
 00469C 5B40 D3FC      0B93C        6390 BMVRCH   S     R4,TWO         DECREMENT REPCHR INDEX BY 2               31230021
 0046A0 D500 4000 6001 00000 00001  6391          CLC   DX0(LX1,R4),DX1(R6) IS LAST REPCHR CHAR SAME AS CURRENT  31236021
 0046A6 4780 F3F2      046BA        6392          BC    EQ,BRSAME      YES                                       31242021
 0046AA 4144 0002      00002        6393          LA    R4,DX2(R4,R0)  NO, RESTORE REPCHR INDEX                  31248021
 0046AE 4234 0001      00001        6394          STC   R3,DX1(R4)      STORE PICTURE CHAR COUNT IN ATTRIBUTE    31254021
 0046B2 D200 4000 6001 00000 00001  6395          MVC   DX0(LX1,R4),DX1(R6) MOVE PICTURE CHAR TO ATTRIBUTES      31260021
 0046B8 07F1                        6396 BTLEND   BCR   UNCOND,R1      RETURN TO CALLER                          31266021
 0046BA 1B55                        6397 BRSAME   SR    R5,R5                                                    31272021
 0046BC 4350 4001      00001        6398          IC    R5,DX1(R0,R4)  GET LAST CHAR COUNT                       31278021
 0046C0 1A53                        6399          AR    R5,R3          ADD IT TO CURRENT CHAR COUNT              31284021
 0046C2 4254 0001      00001        6400          STC   R5,DX1(R4)      STORE TOTAL COUNT IN ATTRIBUTES          31290021
 0046C6 47F0 F3F0      046B8        6401          BC    UNCOND,BTLEND       RETURN TO CALLER                     31296021
 0046CA 4150 0012      00012        6402 BNUMCK   LA    R5,DX18(R0,R0)  LOAD 18 IN REG 5                         31302021
 0046CE 19C5                        6403          CR    R12,R5         IS NUM LGN GREATER THAN 18                31308021
 0046D0 07D1                        6404          BCR   NOTHI,R1       NO                                        31314021
 0046D2 47F0 F578      04840        6405          BC    UNCOND,BMISTN  YES,  ERROR                               31320021
 0046D6 4690 F4BC      04784        6406 BGOGET   BCT   R9,BNEXTR           R9-1=0,GO PT REGS TO NEXT CHR        31326021
 0046DA 5850 DA18      0BF58        6407          L     R5,BSAVE4      R5 IS ADRESS OF REPORT CHARACTERS         31332021
 0046DE 4144 0002      00002        6408          LA    R4,DX2(R4,R0)                                            31338021
 0046E2 1B45                        6409          SR    R4,R5          R4-R5 HAS  NUMBER OF REPORT CHARS         31344021
 0046E4 1B77                        6410          SR    R7,R7                                                    31350021
 0046E6 4370 D613      0BB53        6411          IC    R7,VILGN       R7 HAS TEMPORARY ATTRIBUTE COUNT          31356021
 0046EA 1A74                        6412          AR    R7,R4                                                    31362021
 0046EC 4270 D613      0BB53        6413          STC   R7,VILGN       STORE TOTAL ATTRIBUTE LENGTH              31368021
 0046F0 5B50 D400      0B940        6414          S     R5,THREE       SERT R5 TO ADDRESS OF NUMERIC LGN         31374021
 0046F4 4280 5002      00002        6415          STC   R8,DX2(R0,R5)  STORE TOTAL LGN IN ATTRIBUTES             31380021
 0046F8 4080 D678      0BBB8        6416          STH   R8,CILGN       STORE TOTAL LGN IN  CI FIELD              31386021
 0046FC 42C0 5000      00000        6417          STC   R12,DX0(R0,R5) STORE NUMERIC LENGTH IN ATTRIBUTES        31392021
 004700 9110 D820      0BD60        6418          TM    BREPSW+NX1,XX10 IS SCALE NEGATIVE                        31398021
 004704 4780 F444      0470C        6419          BC    ZERO,BSETSC    NO                                        31404021
 004708 5AA0 D460      0B9A0        6420          A     R10,CON128     YES, SET SIGN IN SCALE MAGNITUDE          31410021
 00470C 42A0 5001      00001        6421 BSETSC   STC   R10,DX1(R0,R5) STORE SCALE IN ATTRIBUTES                 31416021
1PH20     IKFCBL20                                                                                              PAGE  154
-  LOC  OBJECT CODE    ADDR1 ADDR2  STMT   SOURCE STATEMENT                                       ASM 0201 11.03 02/14/15
0004710 9180 D676      0BBB6        6422          TM    ITMCLS,XX80          IS BLANK WHEN ZERO SPEC'D           31422021
 004714 47E0 F462      0472A        6423          BC    NOTONE,BNOBWZ       NO                                   31428021
 004718 9680 5000      00000        6424          OI    DX0(R5),XX80         YES                                 31434021
 00471C 9101 D81F      0BD5F        6425          TM    BREPSW,XX01          ANY Z'S                             31440021
 004720 4780 F462      0472A        6426          BZ    BNOBWZ              NO Z'S, GO TO BNOBWZ,CHK FOR *       31446021
 004724 4540 F58A      04852        6427          BAL   R4,BMISTZ           LNK TO SET UP FOR ERROR RTN          31452021
 004728 00C7                        6428          DC    X'00C7'                                                  31458021
 00472A 9102 D81F      0BD5F        6429 BNOBWZ   TM    BREPSW,XX02          ANY Z'S                             31464021
 00472E 4710 F486      0474E        6430          BC    ONES,BWZCHK    YES                                       31470021
 004732 9101 D81F      0BD5F        6431          TM    BREPSW,XX01     NO, IS ASTERISK PRESENT                  31476021
 004736 4710 F49A      04762        6432          BC    ONES,BASTWZ    YES                                       31482021
 00473A 9500 D823      0BD63        6433          CLI   BFLTST,XX00     NO, IS FLOATING STRING PRESENT           31488021
 00473E 4770 F48A      04752        6434          BC    NOTEQ,BWZCHK+NX4    BRH TO TEST IF 9 PRESENT             31494021
 004742 9102 D820      0BD60        6435          TM    BREPSW+NX1,XX02 NO, IS THERE A NUMERIC CHAR IN PICTUR    31500021
 004746 47E0 F57E      04846        6436          BC    NOTONE,BNONUM  NO, ERROR,NO NUMERICS                     31506021
 00474A 47F0 F4DC      047A4        6437          BC    UNCOND,BLEAVR  TEMPORARY END                             31512021
 00474E 9601 D612      0BB52        6438 BWZCHK   OI    LEVNUM,XX01     SET STARZ TO ONE                         31518021
 004752 9108 D81F      0BD5F        6439          TM    BREPSW,XX08     IS 9 PRESENT                             31524021
 004756 4710 F4DC      047A4        6440          BC    ONES,BLEAVR    YES  TEMP                                 31530021
 00475A 9680 5000      00000        6441          OI    DX0(R5),XX80    SET BWZ BIT ON IN ATTRIBUTES             31536021
 00475E 47F0 F4DC      047A4        6442          BC    UNCOND,BLEAVR  TEMP                            ATTRI     31542021
                                    6443 *                                                                       31548021
 004762 9601 D612      0BB52        6444 BASTWZ   OI    LEVNUM,XX01     SET STARZ TO ONE                         31554021
 004766 9108 D81F      0BD5F        6445          TM    BREPSW,XX08     IS 9 PRESENT                             31560021
 00476A 4710 F4DC      047A4        6446          BC    ONES,BLEAVR    YES   TEMP                                31566021
 00476E 9640 5000      00000        6447          OI    DX0(R5),XX40    NO, SET ASTERISK WHEN ZERO BIT ON        31572021
 004772 9180 D676      0BBB6        6448          TM    ITMCLS,XX80     IS  BWZ GIVEN                            31578021
 004776 4780 F4DC      047A4        6449          BZ    BLEAVR              TEMP                                 31584021
 00477A 4540 F58A      04852        6450          BAL   R4,BMISTZ           LNK TO SET UP FOR ERROR RTN          31590021
 00477E 00C7                        6451          DC    X'00C7'                                                  31596021
 004780 47F0 F4DC      047A4        6452          B     BLEAVR              TEMP                                 31602021
 004784 4120 2002      00002        6453 BNEXTR   LA    R2,DX2(R0,R2)  INCREMENT REGISTERS FOR NEXT CHARACTER    31608021
 004788 4160 6001      00001        6454          LA    R6,DX1(R0,R6)  ANALYSIS                                  31614021
 00478C 4140 4002      00002        6455          LA    R4,DX2(R0,R4)                                            31620021
 004790 47F0 F05A      04322        6456          BC    UNCOND,BREPOT       BRH TO CHK BYTE AFTER DEC PT         31626021
 004794 4804 0000      00000        6457 BDRPPR   LH    R0,DX0(R4)           REG 0= ERROR =                      31632021
 004798 940F D60D      0BB4D        6458          NI    MINCOD,XX0F     CLEAR MINOR CODE FIELD                   31638021
 00479C 1BFF                        6459          SR    R15,R15             REG 15=0 IS RETURN ERROR CODE        31644021
 00479E 981E D990      0BED0        6460          LM    R1,R14,RSAVE+NX4                                         31650021
 0047A2 07FE                        6461          BR    R14                 RETURN TO CALLING RTN                31656021
 0047A4 940F D60C      0BB4C        6462 BLEAVR   NI    COUNT,XX0F           CLEAR COUNT FIELD                   31662021
 0047A8 981E D990      0BED0        6463 BLEAVS   LM    R1,R14,RSAVE+NX4     RETURN TO CALLER                    31668021
 0047AC 07FE                        6464          BCR   UNCOND,R14     RETURN TO CALLER WITH ERROR CODE          31674021
 0047AE 4804 0000      00000        6465 BDRPRP   LH    R0,DX0(R4)                                               31680021
 0047B2 50F0 DA18      0BF58        6466          ST    R15,TSAVER                                               31686021
 0047B6 58F0 DBC0      0C100        6467          L     R15,AERRTN                                               31692021
 0047BA 05EF                        6468          BALR  R14,R15             LINK TO ERRRTN                       31698021
 0047BC 58F0 DA18      0BF58        6469          L     R15,TSAVER                                               31704021
 0047C0 9525 4001      00001        6470          CLI   DX1(R4),XX25         IF BWZ CLAUSE ERROR                 31710021
 0047C4 4770 F508      047D0        6471          BC    NOTEQ,BDRPR1         TURN OFF AND RETURN TO -BNOBWZ-     31716021
 0047C8 947F D676      0BBB6        6472          NI    ITMCLS,XX7F                                              31722021
 0047CC 47F0 F462      0472A        6473          BC    UNCOND,BNOBWZ       BRH TO CHK FOR Z'S                   31728021
 0047D0 D201 D689 D539 0BBC9 0BA79  6474 BDRPR1   MVC   IPT(LX2),BFIXCN      REPLACE PICTURE BY 9(1)             31734021
 0047D6 D203 D6A8 D53B 0BBE8 0BA7B  6475          MVC   IPLT(LX4),BFIXCN+NX2                                     31740021
 0047DC 47F0 F004      042CC        6476          BC    UNCOND,BREPOR+NX4   GO TO 2ND INST IN REP ANAL RT        31746021
1PH20     IKFCBL20                                                                                              PAGE  155
-  LOC  OBJECT CODE    ADDR1 ADDR2  STMT   SOURCE STATEMENT                                       ASM 0201 11.03 02/14/15
00047E0 4540 F4E6      047AE        6477 BMIST1   BAL   R4,BDRPRP                ILLEGAL REPORT CHARACTER        31752021
 0047E4 2075                        6478          DC    X'2075'             MSG 117                              31758021
 0047E6 4540 F4E6      047AE        6479 BMIST2   BAL   R4,BDRPRP           86   2 FIXED $+-OR $ USED AS FIX     31764021
 0047EA 1056                        6480          DC    X'1056'             CHAR. AND FLOATING STRING            31770021
 0047EC 4540 F4E6      047AE        6481 BMIST5   BAL   R4,BDRPRP           89   9,Z, OR * TO LEFT OF FLOATI     31776021
 0047F0 1059                        6482          DC    X'1059'             STRING                               31782021
 0047F2 4540 F4E6      047AE        6483 BMIST6   BAL   R4,BDRPRP           90   P'S ARE IN ILLEGAL POSITION     31788021
 0047F6 105A                        6484          DC    X'105A'                                                  31794021
 0047F8 4540 F4E6      047AE        6485 BMIST7   BAL   R4,BDRPRP           91   2 DIFFERENT FLOATING STRING     31800021
 0047FC 105B                        6486        DC    X'105B'             CHARACTERS                             31806021
 0047FE 4540 F4E6      047AE        6487 BMIST8   BAL   R4,BDRPRP           92   Z AND * IN SAME PICTURE         31812021
 004802 105C                        6488          DC    X'105C'                                                  31818021
 004804 4540 F4E6      047AE        6489 BMISTA   BAL   R4,BDRPRP           93   9 PRECEDES * OR Z               31824021
 004808 105D                        6490          DC    X'105D'                                                  31830021
 00480A 4540 F4E6      047AE        6491 BMISTB   BAL   R4,BDRPRP           94   STRING PRECEDES * OR Z          31836021
 00480E 105E                        6492          DC    X'105E'                                                  31842021
 004810 4540 F4E6      047AE        6493 BMISTD   BAL   R4,BDRPRP           96   2 DECIMAL POINTS OR V'S         31848021
 004814 1060                        6494          DC    X'1060'                                                  31854021
 004816 4540 F4E6      047AE        6495 BMISTE   BAL   R4,BDRPRP           97   DECIMAL POINT OR V DOES NOT     31860021
 00481A 1061                        6496          DC    X'1061'             LINE UP WITH P'S                     31866021
 00481C 4540 F4E6      047AE        6497 BMISTF   BAL   R4,BDRPRP           98   CR AND DB BOTH USED             31872021
 004820 1062                        6498          DC    X'1062'                                                  31878021
 004822 4540 F4E6      047AE        6499 BMISTG   BAL   R4,BDRPRP           99   CR OR DB  AND SIGN USED         31884021
 004826 1063                        6500          DC    X'1063'                                                  31890021
 004828 4540 F4E6      047AE        6501 BMISTH   BAL   R4,BDRPRP           100  CR OR DB NOT LAST 2 CHARACT     31896021
 00482C 1064                        6502          DC    X'1064'             IN THE PICTURE                       31902021
 00482E 4540 F4E6      047AE        6503 BMISTI   BAL   R4,BDRPRP           101  SIGN IS NOT FIRST OR LAST       31908021
 004832 1065                        6504          DC    X'1065'             CHARACTER IN PICTURE                 31914021
 004834 4540 F4E6      047AE        6505 BMISTK   BAL   R4,BDRPRP           102  NUMERIC CHARS AFTER DECIMAL     31920021
 004838 1066                        6506          DC    X'1066'             ARE NOT SAME                         31926021
 00483A 4540 F4E6      047AE        6507 BMISTT   BAL   R4,BDRPRP           103  TOTAL LGN G.T. 127              31932021
 00483E 1067                        6508          DC    X'1067'                                                  31938021
 004840 4540 F4E6      047AE        6509 BMISTN   BAL   R4,BDRPRP           104  NUMERIC LGN G.T. 18             31944021
 004844 1068                        6510          DC    X'1068'                                                  31950021
 004846 4540 F4E6      047AE        6511 BNONUM   BAL   R4,BDRPRP           NO NUMERICS IN PICTURE               31956021
 00484A 10CB                        6512          DC    X'10CB'             MSG 203                              31962021
 00484C 4540 F4E6      047AE        6513 BMISTP   BAL   R4,BDRPRP           ERROR                                31968021
 004850 10BC                        6514          DC    X'10BC'             MSG 188                              31974021
 004852 4804 0000      00000        6515 BMISTZ   LH    R0,DX0(R4)                                               31980021
 004856 50F0 DA18      0BF58        6516          ST    R15,TSAVER                                               31986021
 00485A 58F0 DBC0      0C100        6517          L     R15,AERRTN                                               31992021
 00485E 05EF                        6518          BALR  R14,R15             LINK TO ERRRTN                       31998021
 004860 58F0 DA18      0BF58        6519          L     R15,TSAVER                                               32004021
 004864 947F D676      0BBB6        6520          NI    ITMCLS,XX7F          TURN OFF BLANK WHEN ZERO            32010021
 004868 947F 5000      00000        6521          NI    DX0(R5),XX7F         IN ATTRIB TOO                       32016021
 00486C 4144 0002      00002        6522          LA    R4,DX2(R4)                                               32022021
 004870 07F4                        6523          BR    R4                  BRANCH TO ADDR IN REG 4              32028021
1PH20     IKFCBL20                                                                                              PAGE  156
-  LOC  OBJECT CODE    ADDR1 ADDR2  STMT   SOURCE STATEMENT                                       ASM 0201 11.03 02/14/15
0                                   6525 * * * * * * * * * * * * * * * * * * * * * * * * * * * * * * * * *       32040021
                                    6526 *                                                                       32046021
                                    6527 *                                                                       32052021
                                    6528 *                                                                       32058021
                                    6529 *                          B A N R P T                                  32064021
                                    6530 *                                                                       32070021
                                    6531 *                                                                       32076021
                                    6532 *FUNCTION/OPERATION.  ALPHA-NUMERIC EDITED PICTURE ANALYSIS             32082021
                                    6533 *    MAKES SURE USAGE IS DISPLAY                                        32088021
                                    6534 *    CHANGES 9'S TO X'S                                                 32094021
                                    6535 *            B   TO BLANKS                                              32100021
                                    6536 *            A'S TO X'S                                                 32106021
                                    6537 *                                                                       32112021
                                    6538 *                                                                       32118021
                                    6539 *                                                                       32124021
                                    6540 * * * * * * * * * * * * * * * * * * * * * * * * * * * * * * * * *       32130021
                             04872  6541          USING *,R15                                                    32136021
 004872 901E D990      0BED0        6542 BANRPT   STM   R1,R14,RSAVE+NX4                                         32142021
 004876 1BAA                        6543          SR    R10,R10                                                  32148021
 004878 1B99                        6544          SR    R9,R9                                                    32154021
 00487A 4390 D676      0BBB6        6545          IC    R9,ITMCLS           INSERT CLAUSE CODES                  32160021
 00487E 5490 D4C8      0BA08        6546          N     R9,MK3032           ZERO OUT ALL BUT USAGE CODES         32166021
 004882 5990 D3F8      0B938        6547          C     R9,ONE              IS USAGE DISPLAY                     32172021
 004886 4780 F01E      04890        6548          BE    BAN010              YES                                  32178021
 00488A 4580 F100      04972        6549          BAL   R8,BANERR           NO, ERROR                            32184021
 00488E 006B                        6550          DC    X'006B'             MSG 107  USAGE NOT DISPLAY           32190021
 004890 96E0 D60D      0BB4D        6551 BAN010   OI    MINCOD,XXE0          SET MINOR CODE                      32196021
 004894 1B99                        6552          SR    R9,R9                                                    32202021
 004896 4390 D689      0BBC9        6553          IC    R9,IPT              GET PICTURE CHARACTER COUNT          32208021
 00489A 4160 D68A      0BBCA        6554          LA    R6,IPT+NX1           REG 6 IS IPT INDEX                  32214021
 00489E 4120 D6AA      0BBEA        6555          LA    R2,IPLT+NX2          REG 2 IS IPLT INDEX                 32220021
 0048A2 4140 D614      0BB54        6556          LA    R4,VILGN+NX1                                             32226021
 0048A6 9130 D60C      0BB4C        6557          TM    COUNT,XX30           OCCURS PTR PRESENT                  32232021
 0048AA 4740 F048      048BA        6558          BM    BAN020              NO                                   32238021
 0048AE 9206 D613      0BB53        6559          MVI   VILGN,XX06           YES, LEAVE ROOM FOR                 32244021
 0048B2 4144 0003      00003        6560          LA    R4,DX3(R4)           BUMP PTR                            32250021
 0048B6 47F0 F04C      048BE        6561          B     BAN025              BRH TO SAVE LENGTH                   32256021
 0048BA 9203 D613      0BB53        6562 BAN020   MVI   VILGN,XX03           FIXED LENGTH                        32262021
 0048BE D201 4001 D6A8 00001 0BBE8  6563 BAN025   MVC   DX1(LX2,R4),IPLT      SAVE LENGTH                        32268021
 0048C4 D201 D678 D6A8 0BBB8 0BBE8  6564          MVC   CILGN(LX2),IPLT      SAVE LENGTH                         32274021
 0048CA 940F D60C      0BB4C        6565          NI    COUNT,XX0F           TRUN OFF COUNT FIELD                32280021
 0048CE 95F9 6000      00000        6566 BAN030   CLI   DX0(R6),XXF9         IS IT 9                             32286021
 0048D2 4770 F06C      048DE        6567          BNE   BAN040              NO                                   32292021
 0048D6 92E7 6000      00000        6568          MVI   DX0(R6),XCX          MAKE IT X                           32298021
 0048DA 47F0 F0A2      04914        6569          B     BAN060              BRH TO CHK IF CHR= LAST CHR          32304021
 0048DE 95C2 6000      00000        6570 BAN040   CLI   DX0(R6),XCB          IS IT B                             32310021
 0048E2 4770 F07C      048EE        6571          BNE   BAN050              NO                                   32316021
 0048E6 9240 6000      00000        6572          MVI   DX0(R6),XX40         MAKE IT BLANK                       32322021
 0048EA 47F0 F0A2      04914        6573          B     BAN060              BRH TO CHK IF CHR= LAST CHR          32328021
 0048EE 95C1 6000      00000        6574 BAN050   CLI   DX0(R6),XCA          IS IT A                             32334021
 0048F2 4770 F08C      048FE        6575          BNE   BAN055              NO                                   32340021
 0048F6 92E7 6000      00000        6576          MVI   DX0(R6),XCX          MAKE IT X                           32346021
 0048FA 47F0 F0A2      04914        6577          B     BAN060              BRH TO CHK IF CHR= LAST CHR          32352021
 0048FE 95F0 6000      00000        6578 BAN055   CLI   DX0(R6),XXF0         IS IT ZERO                          32358021
 004902 4780 F0A2      04914        6579          BE    BAN060              YES                                  32364021
1PH20     IKFCBL20                                                                                              PAGE  157
-  LOC  OBJECT CODE    ADDR1 ADDR2  STMT   SOURCE STATEMENT                                       ASM 0201 11.03 02/14/15
0004906 95E7 6000      00000        6580          CLI   DX0(R6),XCX          IS IT X                             32370021
 00490A 4780 F0A2      04914        6581          BE    BAN060              YES                                  32376021
 00490E 4580 F100      04972        6582          BAL   R8,BANERR           GO GENERATE                          32382021
 004912 10C8                        6583          DC    X'10C8'             MSG 200                              32388021
 004914 D500 4000 6000 00000 00000  6584 BAN060   CLC   DX0(LX1,R4),DX0(R6)   SAME AS LAST CHAR                  32394021
 00491A 4770 F0CE      04940        6585          BNE   BAN080              NO                                   32400021
 00491E D201 DD6A 2000 0C2AA 00000  6586          MVC   BANSAV(LX2),DX0(R2)   COUNT OF CURRENT                   32406021
 004924 4830 DD6A      0C2AA        6587          LH    R3,BANSAV                                                32412021
 004928 D201 DD6A 4001 0C2AA 00001  6588          MVC   BANSAV(LX2),DX1(R4)   COUNT OF LAST                      32418021
 00492E 4A30 DD6A      0C2AA        6589          AH    R3,BANSAV           TOTAL COUNT                          32424021
 004932 4030 DD6A      0C2AA        6590          STH   R3,BANSAV                                                32430021
 004936 D201 4001 DD6A 00001 0C2AA  6591          MVC   DX1(LX2,R4),BANSAV    UPDATE TOTAL                       32436021
 00493C 47F0 F0E2      04954        6592          B     BAN090              BRH TO CHK IF ANY MORE CHRS          32442021
 004940 4144 0003      00003        6593 BAN080   LA    R4,DX3(R4)           BUMP PTR                            32448021
 004944 D200 4000 6000 00000 00000  6594          MVC   DX0(LX1,R4),DX0(R6)   MOVE KIND OF CHAR                  32454021
 00494A D201 4001 2000 00001 00000  6595          MVC   DX1(LX2,R4),DX0(R2)   MOVE NUM OF CHARS                  32460021
 004950 41AA 0003      00003        6596          LA    R10,DX3(R10)         BUMP CTR                            32466021
 004954 4166 0001      00001        6597 BAN090   LA    R6,DX1(R6)                                               32472021
 004958 4122 0002      00002        6598          LA    R2,DX2(R2)                         COUNT                 32478021
 00495C 4690 F05C      048CE        6599          BCT   R9,BAN030           ANY MORE CHARS                       32484021
 004960 1B66                        6600          SR    R6,R6                                                    32490021
 004962 4360 D613      0BB53        6601          IC    R6,VILGN            COUNT OF CHARS                       32496021
 004966 1AA6                        6602          AR    R10,R6              TOTAL COUNT                          32502021
 004968 42A0 D613      0BB53        6603          STC   R10,VILGN           STORE TOTAL                          32508021
 00496C 981E D990      0BED0        6604          LM    R1,R14,RSAVE+NX4                                         32514021
 004970 07FE                        6605          BR    R14                 RETURN                               32520021
                             04972  6606 BANERR   EQU    *                                                       32526021
 004972 4808 0000      00000        6607          LH    R0,DX0(R8)           MSG NUMBER                          32532021
 004976 50F0 DA18      0BF58        6608          ST    R15,TSAVER                                               32538021
 00497A 58F0 DBC0      0C100        6609          L     R15,AERRTN                                               32544021
 00497E 05EF                        6610          BALR  R14,R15             GO GENERATE MSG                      32550021
 004980 58F0 DA18      0BF58        6611          L     R15,TSAVER                                               32556021
 004984 4188 0002      00002        6612          LA    R8,DX2(R8)           BUMP PAST CODE                      32562021
 004988 07F8                        6613          BR    R8                  RETURN TO CALLER                     32568021
1PH20     IKFCBL20                                                                                              PAGE  158
-  LOC  OBJECT CODE    ADDR1 ADDR2  STMT   SOURCE STATEMENT                                       ASM 0201 11.03 02/14/15
0                                   6615 *=2      STERLING NON-REPORT PICTURE ANALYSIS-BSTERL                    32580021
                             0498A  6616        USING *,R15                                                      32586021
 00498A 901E D990      0BED0        6617 BSTERL   STM   R1,R14,RSAVE+NX4     SAVE REGS                           32592021
 00498E 1B66                        6618          SR    R6,R6               R6 IS TOTAL LENGTH                   32598021
 004990 1B33                        6619          SR    R3,R3                                                    32604021
 004992 1B77                        6620          SR    R7,R7               R7                                   32610021
 004994 4330 D676      0BBB6        6621          IC    R3,ITMCLS           IS USAGE                             32616021
 004998 1B88                        6622          SR    R8,R8                                                    32622021
 00499A 5430 D4C8      0BA08        6623          N     R3,MK3032              DISPLAY                           32628021
 00499E 5930 D40C      0B94C        6624          C     R3,SIX              IS USAGE DISPLAY-ST                  32634021
 0049A2 4780 F028      049B2        6625          BC    EQ,BSTRL1           YES                                  32640021
 0049A6 4100 003D      0003D        6626          LA    R0,DX61              NO      E-MSG 61                    32646021
 0049AA 1BFF                        6627          SR    R15,R15                                                  32652021
 0049AC 981E D990      0BED0        6628          LM    R1,R14,RSAVE+NX4     RESTORE REGS                        32658021
 0049B0 07FE                        6629          BCR   UNCOND,R14          LEAVE                                32664021
 0049B2 96D0 D60D      0BB4D        6630 BSTRL1   OI    MINCOD,XXD0          INSERT MINOR CODE                   32670021
 0049B6 D701 D5B3 D5B3 0BAF3 0BAF3  6631          XC    BSTRSW(LX2),BSTRSW   CLEAR SWITCHES AND BYTE67           32676021
 0049BC 4140 D689      0BBC9        6632          LA    R4,IPT              INITIAL PICTURE TABLE                32682021
 0049C0 4150 D6A8      0BBE8        6633          LA    R5,IPLT             INITIAL PICTURE LGN TABLE            32688021
 0049C4 4330 D689      0BBC9        6634          IC    R3,IPT              GET PICTURE CHARACTER COUNT          32694021
 0049C8 95F9 4001      00001        6635 BGETST   CLI   DX1(R4),XC9          IS PICTURE CHAR. A    9             32700021
 0049CC 4780 F112      04A9C        6636          BC    EQ,BSTNR9           YES                                  32706021
 0049D0 95E5 4001      00001        6637          CLI   DX1(R4),XCV          NO                    V             32712021
 0049D4 4780 F09E      04A28        6638          BC    EQ,BSTNRV           YES                                  32718021
 0049D8 95E2 4001      00001        6639          CLI   DX1(R4),XCS          NO                    S             32724021
 0049DC 4780 F0E6      04A70        6640          BC    EQ,BSTNRS           YES                                  32730021
 0049E0 95F8 4001      00001        6641          CLI   DX1(R4),XC8          NO                    8             32736021
 0049E4 4780 F196      04B20        6642          BC    EQ,BSTNR8           YES                                  32742021
 0049E8 95F7 4001      00001        6643          CLI   DX1(R4),XC7          NO                    7             32748021
 0049EC 4780 F20C      04B96        6644          BC    EQ,BSTNR7           YES                                  32754021
 0049F0 95F6 4001      00001        6645          CLI   DX1(R4),XC6          NOS                   6             32760021
 0049F4 4780 F214      04B9E        6646          BC    EQ,BSTNR6           YES                                  32766021
 0049F8 95C4 4001      00001        6647          CLI   DX1(R4),XCD          NO                    D             32772021
 0049FC 4780 F0C2      04A4C        6648          BC    EQ,BSTNRD           YES,                                 32778021
 004A00 47F0 F2E8      04C72        6649          BC    UNCOND,E2           NO, ILLEGAL STERLING NON-REPORT      32784021
 004A04 4804 0000      00000        6650 BDRPST   LH    R0,DX0(R4)           PUT                                 32790021
 004A08 50F0 DA18      0BF58        6651          ST    R15,TSAVER           OUT                                 32796021
 004A0C 58F0 DBC0      0C100        6652          L     R15,AERRTN            ERROR                              32802021
 004A10 05EF                        6653          BALR  R14,R15                MESSAGE                           32808021
 004A12 58F0 DA18      0BF58        6654          L     R15,TSAVER                                               32814021
 004A16 D701 D613 D613 0BB53 0BB53  6655          XC    VILGN(LX2),VILGN     CLEAR ATTR. SET BEFORE ERROR        32820021
 004A1C 9608 D614      0BB54        6656          OI    VILGN+NX1,XX08       SET POUND DIGITS TO 1               32826021
 004A20 5860 D400      0B940        6657          L     R6,THREE            SET  T.L. = 3                        32832021
 004A24 47F0 F2C2      04C4C        6658          BC    UNCOND,BTOTAL             9D8D7 IS REP. PICTURE          32838021
                                    6659 * CHARACTER IS  V        IMPLIED DECIMAL POINT                          32844021
 004A28 9137 D5B3      0BAF3        6660 BSTNRV   TM    BSTRSW,XX37                                              32850021
 004A2C 47E0 F318      04CA2        6661          BC    NOTONE,E12          ERROR IN POSITION OF V               32856021
 004A30 9140 D5B3      0BAF3        6662          TM    BSTRSW,XX40          2ND 9 APPEARED                      32862021
 004A34 4710 F318      04CA2        6663          BO    E12                 YES, ERROR                           32868021
 004A38 9180 D5B3      0BAF3        6664          TM    BSTRSW,XX80          V APPEARED                          32874021
 004A3C 4710 F318      04CA2        6665          BO    E12                 YES, ERROR                           32880021
 004A40 45C0 F342      04CCC        6666          BAL   R12,E20             CHECK THAT COUNT=1                   32886021
 004A44 9680 D5B3      0BAF3        6667          OI    BSTRSW,XX80                                              32892021
 004A48 47F0 F2A0      04C2A        6668          BC    UNCOND,BADADD       LEGAL, GO TO ADDRESS INCREMENT       32898021
                                    6669 * CHARACTER IS  D        DELIMITOR                                      32904021
1PH20     IKFCBL20                                                                                              PAGE  159
-  LOC  OBJECT CODE    ADDR1 ADDR2  STMT   SOURCE STATEMENT                                       ASM 0201 11.03 02/14/15
0004A4C 9104 D5B3      0BAF3        6670 BSTNRD   TM    BSTRSW,XX04          HAS 9 APPEARED                      32910021
 004A50 4710 F0CE      04A58        6671          BC    ONES,*+NX8           YES                                 32916021
 004A54 47F0 F2F4      04C7E        6672          BC    UNCOND,E5           NO, ERROR                            32922021
 004A58 9102 D5B3      0BAF3        6673          TM    BSTRSW,XX02          HAS 8 APPEARED                      32928021
 004A5C 4710 F0DE      04A68        6674          BC    ONES,*+NX12          YES, BRANCH                         32934021
 004A60 9610 D5B3      0BAF3        6675          OI    BSTRSW,XX10          NO, SET POUND SEPARATOR ON          32940021
 004A64 47F0 F2A0      04C2A        6676          BC    UNCOND,BADADD       BRH TO INC INPLT AND IPT PTRS        32946021
 004A68 9620 D5B3      0BAF3        6677          OI    BSTRSW,XX20          SET SHILLING SEPARATOR ON           32952021
 004A6C 47F0 F2A0      04C2A        6678          BC    UNCOND,BADADD       BRH TO INC INPLT AND IPT PTRS        32958021
                                    6679 * CHARACTER IS  S        SIGN                                           32964021
 004A70 9108 D5B3      0BAF3        6680 BSTNRS   TM    BSTRSW,XX08                                              32970021
 004A74 47E0 F106      04A90        6681          BC    NOTONE,BSTRSN       LEGAL                                32976021
 004A78 9107 D5B3      0BAF3        6682          TM    BSTRSW,XX07                                              32982021
 004A7C 4780 F106      04A90        6683          BC    ZERO,BSTRSN         LEGAL                                32988021
 004A80 4710 F106      04A90        6684          BC    ONES,BSTRSN         LEGAL                                32994021
 004A84 9103 D5B3      0BAF3        6685          TM    BSTRSW,XX03                                              33000021
 004A88 4780 F106      04A90        6686          BC    ZERO,BSTRSN         LEGAL                                33006021
 004A8C 47F0 F31E      04CA8        6687          BC    UNCOND,E13          ERROR IN POSITION OF S               33012021
 004A90 9608 D5B3      0BAF3        6688 BSTRSN   OI    BSTRSW,XX08          SIGN SIGN BIT TO ONE                33018021
 004A94 45C0 F342      04CCC        6689          BAL   R12,E20             CHECK THAT COUNT=1                   33024021
 004A98 47F0 F2A0      04C2A        6690          BC    UNCOND,BADADD       BRH TO INC INPLT AND IPT PTRS        33030021
                                    6691 * CHARACTER IS  9        NINE                                           33036021
 004A9C 910F D5B3      0BAF3        6692 BSTNR9   TM    BSTRSW,XX0F          HAVE S,9,8,7/6 ALL APPEARED         33042021
 004AA0 4710 F136      04AC0        6693          BC    ONES,BBALL          YES                                  33048021
 004AA4 4780 F174      04AFE        6694          BC    ZERO,BALOFF         NO, HAVE NONE APPEARED-YES           33054021
 004AA8 9107 D5B3      0BAF3        6695          TM    BSTRSW,XX07                                              33060021
 004AAC 4710 F142      04ACC        6696          BC    ONES,BBALL1         9,8,7/6, HAVE APPEARED               33066021
 004AB0 4780 F170      04AFA        6697          BC    ZERO,BONLYS         ONLY S HAS APPEARED                  33072021
 004AB4 950C D5B3      0BAF3        6698          CLI   BSTRSW,XX0C                                              33078021
 004AB8 4780 F184      04B0E        6699          BC    EQ,BTWOON           S AND 9 HAVE APPEARED                33084021
 004ABC 47F0 F2F4      04C7E        6700          BC    UNCOND,E5           ERROR IN POSITION OF 9               33090021
 004AC0 9640 D5B3      0BAF3        6701 BBALL    OI    BSTRSW,XX40          2ND SET OF NINE                     33096021
 004AC4 9107 D614      0BB54        6702          TM    VILGN+NX1,XX07       HAS SIGN POSITION BEEN SET          33102021
 004AC8 4780 F15C      04AE6        6703          BC    ZERO,BNOSGN         NO                         ATTRI     33108021
 004ACC 9640 D5B3      0BAF3        6704 BBALL1   OI    BSTRSW,XX40          2ND SET OF NINE                     33114021
 004AD0 4875 0002      00002        6705          LH    R7,DX2(R5)           GET 9'S COUNT                       33120021
 004AD4 1A67                        6706          AR    R6,R7                AND ADD IT TO TOTAL LGN             33126021
 004AD6 1A87                        6707          AR    R8,R7                AND ADD IT TO DECIMAL LGN           33132021
 004AD8 1A97                        6708          AR    R9,R7               ADD PENCE DEC. TO POUND DIGITS       33138021
 004ADA 5990 D430      0B970        6709          C     R9,CON15            IS IT G.T. 15                        33144021
 004ADE 4720 F324      04CAE        6710          BC    HI,E14              YES, ERROR                           33150021
 004AE2 47F0 F2A0      04C2A        6711          BC    UNCOND,BADADD       BRH TO INC INPLT AND IPT PTRS        33156021
 004AE6 4870 5002      00002        6712 BNOSGN   LH    R7,DX2(R0,R5)       GET 9'S COUNT                        33162021
 004AEA 4670 F306      04C90        6713          BCT   R7,E8               IF COUNT NOT 1 ERROR                 33168021
 004AEE 9605 D614      0BB54        6714          OI    VILGN+NX1,XX05       SET LOW PENCE DECIMAL SIGN IN AT    33174021
 004AF2 4170 0001      00001        6715          LA    R7,DX1(R0,R0)                                            33180021
 004AF6 47F0 F146      04AD0        6716          BC    UNCOND,BBALL1+NX4   BRH TO GET 9'S COUNT                 33186021
 004AFA 9601 D614      0BB54        6717 BONLYS   OI    VILGN+NX1,XX01       SET HIGH POIND DIGIT SIGN IN ATT    33192021
 004AFE 4870 5002      00002        6718 BALOFF   LH    R7,DX2(R0,R5)       GET 9'S COUNT                        33198021
 004B02 1A67                        6719          AR    R6,R7                 ADD IT TO TOTAL LGN                33204021
 004B04 1A87                        6720          AR    R8,R7                 ADD IT TO POUND DIGIT LGN          33210021
 004B06 9604 D5B3      0BAF3        6721          OI    BSTRSW,XX04          SET 9 SW ON                         33216021
 004B0A 47F0 F2A0      04C2A        6722          BC    UNCOND,BADADD       BR TO INCR INPLT AND IPT PTRS        33222021
 004B0E D501 5002 D3FA 00002 0B93A  6723 BTWOON   CLC   DX2(LX2,R5),ONE+NX2   IS THERE ONLY ONE 9                33228021
 004B14 4770 F2EE      04C78        6724          BC    NOTEQ,E4            NO, ERROR IN SIGN                    33234021
1PH20     IKFCBL20                                                                                              PAGE  160
-  LOC  OBJECT CODE    ADDR1 ADDR2  STMT   SOURCE STATEMENT                                       ASM 0201 11.03 02/14/15
0004B18 9602 D614      0BB54        6725          OI    VILGN+NX1,XX02       YES, SET LO POUND DIGIT SIGN        33240021
 004B1C 47F0 F174      04AFE        6726          BC    UNCOND,BALOFF       BRH TO GET 9'S COUNT                 33246021
                                    6727 * CHARACTER IS  8        SHILLING FIELD SYMBOL                          33252021
 004B20 5980 D430      0B970        6728 BSTNR8   C     R8,CON15                                                 33258021
 004B24 1898                        6729          LR    R9,R8                                                    33264021
 004B26 4720 F324      04CAE        6730          BC    HI,E14              DIGIT LGN TOO HIGH                   33270021
 004B2A D200 D5B0 D614 0BAF0 0BB54  6731          MVC   BYTESW(LX1),VILGN+NX1 STORE                              33276021
 004B30 8980 0003      00003        6732          SLL   R8,DX3                 LGN                               33282021
 004B34 4280 D614      0BB54        6733          STC   R8,VILGN+NX1             IN                              33288021
 004B38 D600 D614 D5B0 0BB54 0BAF0  6734          OC    VILGN+NX1(LX1),BYTESW       ATTRIBUTES                   33294021
 004B3E 1B88                        6735          SR    R8,R8                                                    33300021
 004B40 951C D5B3      0BAF3        6736          CLI   BSTRSW,XX1C          HAVE S, 9, AND D APPEARED           33306021
 004B44 4780 F1CA      04B54        6737          BC    EQ,BHASSN           YES                                  33312021
 004B48 9514 D5B3      0BAF3        6738          CLI   BSTRSW,XX14          NO, HAVE 9 AND D APPEARED           33318021
 004B4C 4770 F300      04C8A        6739          BC    NOTEQ,E7            NO, 8 IS IN AN ILLEGAL POSITION      33324021
 004B50 4780 F1D2      04B5C        6740          BC    EQ,BHOWMN           BR ON = TO CHK HOW MANY 8'S          33330021
 004B54 9107 D614      0BB54        6741 BHASSN   TM    VILGN+NX1,XX07       HAS A SIGN BEEN DETERMINED          33336021
 004B58 4780 F1F8      04B82        6742          BC    ZERO,BHASNT         NO                                   33342021
 004B5C 4870 5002      00002        6743 BHOWMN   LH    R7,DX2(R0,R5)       YES, HOW MANY 8'S                    33348021
 004B60 5970 D3FC      0B93C        6744          C     R7,TWO                                                   33354021
 004B64 4780 F1EA      04B74        6745          BC    EQ,BTWO8            R7=2, GO SET IBM SHILL REP           33360021
 004B68 5970 D3F8      0B938        6746          C     R7,ONE                                                   33366021
 004B6C 4780 F1EE      04B78        6747          BC    EQ,BONE8            R7=1,GO ADD 8 CT TO TOT LGN          33372021
 004B70 47F0 F32A      04CB4        6748          BC    UNCOND,E15          THERE CAN ONLY BE 1 OR 2 8'S         33378021
 004B74 9680 D613      0BB53        6749 BTWO8    OI    VILGN,XX80           SET IBM SHILLING REP                33384021
 004B78 1A67                        6750 BONE8    AR    R6,R7               ADD 8 COUNT TO TOTAL LGN             33390021
 004B7A 9602 D5B3      0BAF3        6751          OI    BSTRSW,XX02          SET 8 SW ON                         33396021
 004B7E 47F0 F2A0      04C2A        6752          BC    UNCOND,BADADD       BRH TO INCR INPLT AND IPT PTRS       33402021
 004B82 4870 5002      00002        6753 BHASNT   LH    R7,DX2(R0,R5)       GET 8 COUNT                          33408021
 004B86 5970 D3FC      0B93C        6754          C     R7,TWO              IS IT 2                              33414021
 004B8A 4770 F2FA      04C84        6755          BC    NOTEQ,E6            ERROR SIGN ONLY ON HI SHILLING F     33420021
 004B8E 9603 D614      0BB54        6756          OI    VILGN+NX1,XX03       YES,SET HI SHILLING SIGN IN   (I    33426021
 004B92 47F0 F1EA      04B74        6757          BC    UNCOND,BTWO8                               ATTRIBUTE     33432021
                                    6758 * CHARACTER IS  7        PENCE    FIELD SYMBOL                          33438021
 004B96 94DF D613      0BB53        6759 BSTNR7   NI    VILGN,XXDF           SET BSI PENCE                       33444021
 004B9A 47F0 F218      04BA2        6760          BC    UNCOND,*+NX8        GO TEST FOR SHILLING SEP             33450021
                                    6761 * CHARACTER IS  6        PENCE    FIELD SYMBOL                          33456021
 004B9E 9620 D613      0BB53        6762 BSTNR6   OI    VILGN,XX20           SET IBM PENCE                       33462021
 004BA2 9120 D5B3      0BAF3        6763          TM    BSTRSW,XX20          WAS SHILLING SEPARATOR FOUND        33468021
 004BA6 47E0 F33C      04CC6        6764          BC    NOTONE,E19          NO SHILL SEP, PUT OUT ERR MSG        33474021
 004BAA 9101 D5B3      0BAF3        6765          TM    BSTRSW,XX01                                              33480021
 004BAE 4710 F22E      04BB8        6766          BC    ONES,*+NX10         BRH AROUND NXT 2 INSTRS              33486021
 004BB2 D200 D5B5 4001 0BAF5 00001  6767          MVC   BYTE67(LX1),DX1(R4)   MOVE 6 OR 7 TO BYTE67              33492021
 004BB8 9106 D5B3      0BAF3        6768          TM    BSTRSW,XX06          HAVE   9,8,         APPEARED        33498021
 004BBC 47E0 F30C      04C96        6769          BC    NOTONE,E9           NO,ERROR                             33504021
 004BC0 910F D5B3      0BAF3        6770          TM    BSTRSW,XX0F          YES, S,9,8,6/7 ALL APPEARED         33510021
 004BC4 4710 F27C      04C06        6771          BC    ONES,BEVERY         YES                                  33516021
 004BC8 910E D5B3      0BAF3        6772          TM    BSTRSW,XX0E          NO,  S,9,8                          33522021
 004BCC 4710 F252      04BDC        6773          BC    ONES,BISSGN         YES                                  33528021
 004BD0 9101 D5B3      0BAF3        6774          TM    BSTRSW,XX01          NO                                  33534021
 004BD4 4710 F30C      04C96        6775          BC    ONES,E9             ERROR IN PENCE POSITION              33540021
 004BD8 47F0 F25A      04BE4        6776          BC    UNCOND,BPNCNT       9,8 HAVE ONLY APPEARED               33546021
 004BDC 9107 D614      0BB54        6777 BISSGN   TM    VILGN+NX1,XX07       HAS A SIGN BEEN SET                 33552021
 004BE0 4780 F306      04C90        6778          BC    ZERO,E8             SIGN NOT SET, PUT OUT ERR MSG        33558021
 004BE4 4870 5002      00002        6779 BPNCNT   LH    R7,DX2(R0,R5)       GET COUNT FOR PENCE                  33564021
1PH20     IKFCBL20                                                                                              PAGE  161
-  LOC  OBJECT CODE    ADDR1 ADDR2  STMT   SOURCE STATEMENT                                       ASM 0201 11.03 02/14/15
0004BE8 5970 D3F8      0B938        6780          C     R7,ONE              1                                    33570021
 004BEC 4780 F272      04BFC        6781          BC    EQ,BSET67           YES                                  33576021
 004BF0 5970 D3FC      0B93C        6782          C     R7,TWO              NO, IS COUNT 2                       33582021
 004BF4 4770 F330      04CBA        6783          BC    NOTEQ,E17           NO,ERROR                             33588021
 004BF8 9640 D613      0BB53        6784          OI    VILGN,XX40           YES, SET 2 CHAR. PENCE              33594021
 004BFC 9601 D5B3      0BAF3        6785 BSET67   OI    BSTRSW,XX01          SET 6/7 SW ON                       33600021
 004C00 1A67                        6786          AR    R6,R7               ADD PENCE CHAR CNT TO TOTAL LGN      33606021
 004C02 47F0 F2A0      04C2A        6787          BC    UNCOND,BADADD       BRH TO INCR INPLT AND IPT PTRS       33612021
 004C06 D500 D5B5 4001 0BAF5 00001  6788 BEVERY   CLC   BYTE67(LX1),DX1(R4)   IS SECOND PENCE CHAR SAME AS FIR   33618021
 004C0C 4780 F28A      04C14        6789          BC    EQ,*+NX8             YES                                 33624021
 004C10 47F0 F28A      04C14        6790          BC    UNCOND,*+NX4         NO, TEMP E-TEXT LAST CHAR COUNTS    33630021
 004C14 9604 D614      0BB54        6791          OI    VILGN+NX1,XX04       SET LOW PENCE SIGN IN ATTRIBUTES    33636021
 004C18 4870 5002      00002        6792          LH    R7,DX2(R0,R5)                                            33642021
 004C1C 5970 D3F8      0B938        6793          C     R7,ONE                                                   33648021
 004C20 4770 F312      04C9C        6794          BC    NOTEQ,E11           COUNT NOT ONE                        33654021
 004C24 9640 D613      0BB53        6795          OI    VILGN,XX40           IS ONE--- SET 2 CHAR PENCE          33660021
 004C28 1A67                        6796          AR    R6,R7               ADD PENCE CHAR COUNT TO TOTAL LG     33666021
 004C2A 4150 5002      00002        6797 BADADD   LA    R5,DX2(R0,R5)       INCREMENT INPLT PTR                  33672021
 004C2E 4140 4001      00001        6798          LA    R4,DX1(R0,R4)       INCREMENT IPT  PTR                   33678021
 004C32 4630 F03E      049C8        6799          BCT   R3,BGETST           LAST CHAR----NO,BRANCH               33684021
 004C36 1288                        6800          LTR   R8,R8               YES, IS THERE A PENCE DECIMAL        33690021
 004C38 47D0 F2C2      04C4C        6801          BC    NOTPOS,BTOTAL       NOT +,CHK ITM FOR OCCURS D PTR       33696021
 004C3C D200 D5B0 D613 0BAF0 0BB53  6802          MVC   BYTESW(LX1),VILGN                                        33702021
 004C42 4280 D613      0BB53        6803          STC   R8,VILGN            STORE DECIMAL LGN IN ATTRIBUTES      33708021
 004C46 D600 D613 D5B0 0BB53 0BAF0  6804          OC    VILGN(LX1),BYTESW                                        33714021
 004C4C 9130 D60C      0BB4C        6805 BTOTAL   TM    COUNT,XX30           DOES ITEM HAVE OCCURS DICT. PTR.    33720021
 004C50 4740 F2D6      04C60        6806        BM    BNOTSB               NO                                    33726021
 004C54 9710 D60C      0BB4C        6807          XI    COUNT,XX10          SET COUNT TO 13(STRLNG NON-RPT)      33732021
 004C58 4260 D618      0BB58        6808          STC   R6,VILGN+NX5         STORE TOTAL NUMBER OF CHARS IN A    33738021
 004C5C 47F0 F2DE      04C68        6809          BC    UNCOND,*+NX12       BRH ARND NEXT 3 INSTRUCTIONS         33744021
 004C60 9730 D60C      0BB4C        6810 BNOTSB   XI    COUNT,XX30          SET COUNT TO 10(STRLNG NON-RPT)      33750021
 004C64 4260 D615      0BB55        6811          STC   R6,VILGN+NX2         STORE TOTAL NUMBER OF CHARS IN A    33756021
 004C68 4060 D678      0BBB8        6812          STH   R6,CILGN                AND IN CI LENGTH FIELD           33762021
 004C6C 981E D990      0BED0        6813 BLVSTN   LM    R1,R14,RSAVE+NX4                                         33768021
 004C70 07FE                        6814          BCR   UNCOND,R14          RETURN TO CALLING PGM                33774021
 004C72 4540 F07A      04A04        6815 E2       BAL   R4,BDRPST           ILLEGAL STERLING NON-REPORT CHAR     33780021
 004C76 109B                        6816          DC    X'109B'             155                                  33786021
 004C78 4540 F07A      04A04        6817 E4       BAL   R4,BDRPST           SIGN MUST BE ON HI-LO ORDER DIGI     33792021
 004C7C 1037                        6818          DC    X'1037'             POUND FIELD                          33798021
 004C7E 4540 F07A      04A04        6819 E5       BAL   R4,BDRPST           9 IN ILLEGAL POSITION                33804021
 004C82 1038                        6820          DC    X'1038'                                                  33810021
 004C84 4540 F07A      04A04        6821 E6       BAL   R4,BDRPST           ILLEGAL SIGN POSITION IN SHILLIN     33816021
 004C88 1039                        6822          DC    X'1039'                                                  33822021
 004C8A 4540 F07A      04A04        6823 E7       BAL   R4,BDRPST           8 IN ILLEGAL POSITION                33828021
 004C8E 103A                        6824          DC    X'103A'                                                  33834021
 004C90 4540 F07A      04A04        6825 E8       BAL   R4,BDRPST           ILLEGAL SIGN POSITION IN PENCE       33840021
 004C94 103B                        6826          DC    X'103B'                                                  33846021
 004C96 4540 F07A      04A04        6827 E9       BAL   R4,BDRPST           6 OR 7 IN ILLEGAL POSITION           33852021
 004C9A 103C                        6828          DC    X'103C'                                                  33858021
 004C9C 4540 F07A      04A04        6829 E11      BAL   R4,BDRPST           SIGN NOT ON LO PENCE DIGIT           33864021
 004CA0 103D                        6830          DC    X'103D'                                                  33870021
 004CA2 4540 F07A      04A04        6831 E12      BAL   R4,BDRPST           V IN ILLEGAL POSITION                33876021
 004CA6 103E                        6832          DC    X'103E'                                                  33882021
 004CA8 4540 F07A      04A04        6833 E13      BAL   R4,BDRPST           S IN ILLEGAL POSITION                33888021
 004CAC 103F                        6834          DC    X'103F'                                                  33894021
1PH20     IKFCBL20                                                                                              PAGE  162
-  LOC  OBJECT CODE    ADDR1 ADDR2  STMT   SOURCE STATEMENT                                       ASM 0201 11.03 02/14/15
0004CAE 4540 F07A      04A04        6835 E14      BAL   R4,BDRPST           DIGIT LGN TOO HI                     33900021
 004CB2 1040                        6836          DC    X'1040'                                                  33906021
 004CB4 4540 F07A      04A04        6837 E15      BAL   R4,BDRPST           SHILLING COUNT G.T. 2                33912021
 004CB8 1041                        6838          DC    X'1041'                                                  33918021
 004CBA 4540 F07A      04A04        6839 E17      BAL   R4,BDRPST           PENCE COUNT G.T. 2                   33924021
 004CBE 1042                        6840          DC    X'1042'                                                  33930021
 004CC0 4540 F07A      04A04        6841 E18      BAL   R4,BDRPST           NO POUND SEPARATOR                   33936021
 004CC4 1043                        6842          DC    X'1043'                                                  33942021
 004CC6 4540 F07A      04A04        6843 E19      BAL   R4,BDRPST           NO SHILLING SEPARATOR                33948021
 004CCA 10CA                        6844          DC    X'10CA'             MSG 2202                             33954021
 004CCC D501 5002 D3FA 00002 0B93A  6845 E20      CLC   DX2(LX2,R5),ONE+NX2   IS S OR V COUNT=1                  33960021
 004CD2 078C                        6846          BCR   EQ,R12              YES, RETURN                          33966021
 004CD4 4100 008F      0008F        6847          LA    R0,DX143             NO,PUT OUT WARNING AND ASSUME CO    33972021
 004CD8 50F0 DA18      0BF58        6848          ST    R15,TSAVER           EQUAL TO 1                          33978021
 004CDC 58F0 DBC0      0C100        6849          L     R15,AERRTN                                               33984021
 004CE0 05EF                        6850          BALR  R14,R15             LINK TO ERRTN                        33990021
 004CE2 58F0 DA18      0BF58        6851          L     R15,TSAVER                                               33996021
 004CE6 07FC                        6852          BCR   UNCOND,R12          RETURN TO CALLING RTN                34002021
1PH20     IKFCBL20                                                                                              PAGE  163
-  LOC  OBJECT CODE    ADDR1 ADDR2  STMT   SOURCE STATEMENT                                       ASM 0201 11.03 02/14/15
0                                   6854 *=1      STERLING REPORT PICTURE ANALYSIS,BSTREP                        34014021
                                    6855 **************                                                          34020021
                                    6856 * BSTREP IS SECTIONDED AS FOLLOWS                                       34026021
                                    6857 **                                                                      34032021
                                    6858 * BSTREP   B STERLING REPORT EDIT OF PICTURE  ROUTINE NAME              34038021
                                    6859 * STREP  EDIT PICTURE FOR DELIMITERS  PARTITION TO L.S.D.SECTIONS       34044021
                                    6860 * STLED  STERLING POUND(L)EDIT                                          34050021
                                    6861 *        EDIT UP TO 1ST DELIM                                           34056021
                                    6862 * STSED  SHILLING EDIT                                                  34062021
                                    6863 * STPED  PENCE EDIT                                                     34068021
                                    6864 * STDED  DECIMAL PENCE EDIT                                             34074021
                                    6865 * STFIN  FINISH FORMING THE ATTRIBUTE TABLE                             34080021
                                    6866 * STEND  MOVE ATTRIBUTE TABLE TO OUTPUT                                 34086021
                                    6867 * STEMSS ERROR MESSAGES ROUTINE                                         34092021
                                    6868 ******************                                                      34098021

 004CE8                             6870 IKF206   CSECT                                                          34110021
                             04CE8  6871          USING *,R15                                                    34116021
                             00000  6872          USING STERAT,R1  BASE FOR OUTPUT REPORT WORK AREA              34122021

                                    6874 ****************                                                        34134021
                                    6875 *   REGISTER AND ADDRESS USAGE                                          34140021
                                    6876 *        R5    ADDRESS OF CHARACTER TABLE IPT                           34146021
                                    6877 *        R6    ADDRESS OF CHARACTER LENGTH TABLE IPLT                   34152021
                                    6878 *        R8    POINTER TO CHARACTER ENTRY                               34158021
                                    6879 *        R9    POINTER TO CHARACTER LENGTH ENTRY (LEFT BYTE OF PAIR     34164021
                                    6880 *        R10   ADDRESS OF LAST CHARACTER IN IPT OF INTEREST TO CURR     34170021
                                    6881 *               ROUTINE I.E. END STOP FOR TABLE SEARCH                  34176021
                                    6882 *        R11   ADDRESS OF NEXT BYTE AVAILABLE IN WORK AREA PICTURE      34182021
                                    6883 *        STATWK  STERLING ATTRIBUTE WORK AREA                           34188021
                                    6884 *                                                                       34194021
                                    6885 *                                                                       34200021
 004CE8 900E D98C      0BECC        6886 BSTREP   STM   R0,R14,RSAVE                                             34206021
 004CEC 940F D60C      0BB4C        6887          NI    COUNT,XX0F          SET COUNT TO ZERO                    34212021
 004CF0 9660 D60D      0BB4D        6888          OI    MINCOD,XX60     SET MINOR CODE TO                        34218021
 004CF4 946F D60D      0BB4D        6889          NI    MINCOD,XX6F     0110XXXX                                 34224021
 004CF8 4110 D615      0BB55        6890        LA      R1,REPPIC       SET POINTER TO PICTURE OUTPUT POSITI     34230021
                                    6891 *   ANY DICTIONARY POINTER TO BE SPACED OVER                            34236021
 004CFC 9102 D60D      0BB4D        6892          TM    MINCOD,XX02     OCCURS CLAUSE                            34242021
 004D00 4780 F028      04D10        6893          BC    M8,STREP0                NO                              34248021
 004D04 9108 D60D      0BB4D        6894          TM    MINCOD,XX08     IS MBS GREATER THAN 1                    34254021
 004D08 4780 F034      04D1C        6895          BC    M8,STREP       NO,NO DICT PTR                            34260021
 004D0C 4770 F030      04D18        6896          BC    M7,STREP1      YES,SPACE OVER                            34266021
 004D10 910C D60D      0BB4D        6897 STREP0   TM    MINCOD,XX0C     ANY MBS BITS                             34272021
 004D14 4780 F034      04D1C        6898          BC    M8,STREP            BRH TO SET CODE BYTE TO 0            34278021
 004D18 4111 0003      00003        6899 STREP1   LA    R1,DX3(R1)      SPACE OVER DICT POINTER                  34284021
 004D1C 9200 1000      00000        6900 STREP    MVI   STWCDE,XX00     SET CODE BYTE TO ZERO                    34290021
 004D20 9180 D676      0BBB6        6901          TM    ITMCLS,XX80     BLANK WHEN ZERO CLAUSE                   34296021
 004D24 4780 F044      04D2C        6902          BC    M8,STREPA      NO                                        34302021
 004D28 9680 1000      00000        6903          OI    STWCDE,XX80         SET BWZ IN CODE BYTE                 34308021
1PH20     IKFCBL20                                                                                              PAGE  164
-  LOC  OBJECT CODE    ADDR1 ADDR2  STMT   SOURCE STATEMENT                                       ASM 0201 11.03 02/14/15
0                                   6905 ***********                                                             34320021
                                    6906 *  VALID STERLING DELIMITERS  STREP  (LABELS STREP,A TO STREP,Z)        34326021
                                    6907 *    THIS ROUTINE CHECKS THE PICTURE TO ENSURE THAT THERE ARE 2 AND     34332021
                                    6908 *    ONLY 2 STERLING DELIMITERS,AND THAT THESE ARE NOT ADJACENT         34338021
                                    6909 *    IF FOUND,THESE DEVIDE THE FIELD INTO L,S,AND D PORTIONS            34344021
                                    6910 ***************                                                         34350021
                             04D2C  6911 STREPA   EQU   *           INITIALISATION                               34356021
 004D2C 9101 D5A7      0BAE7        6912          TM    BPERRO,XX01     ANY INVALID CHARACTERS                   34362021
 004D30 4710 F69C      05384        6913          BC    M1,STERRA YES,FULL ASSUMED VALUES,BUT NO MESSAG          34368021
 004D34 D741 1001 1001 00001 00001  6914          XC    STATWK+NX1(LX66),STATWK+NX1 ZERO THE WORK AREA           34374021
 004D3A 9400 D5B3      0BAF3        6915          NI    BSTRSW,XX00     ZERO THE SWITCH BYTE                     34380021
 004D3E 1B77                        6916          SR    R7,R7                                                    34386021
 004D40 4150 D689      0BBC9        6917          LA    R5,IPT         ADDRESS OF CHARACTER TABLE                34392021
 004D44 4160 D6A8      0BBE8        6918          LA    R6,IPLT        ADDRESS OF LENGTH TABLE                   34398021
 004D48 4370 D689      0BBC9        6919          IC    R7,IPT         COUNT OF PICTURE CHARACTERS               34404021
 004D4C 1885                        6920          LR    R8,R5          POINTER TO CHARACTER                      34410021
 004D4E 1896                        6921          LR    R9,R6          POINTER TO LENGTH                         34416021
 004D50 18A5                        6922          LR    R10,R5                                                   34422021
 004D52 1AA7                        6923          AR    R10,R7         END OF IPT FIELD                          34428021
                                    6924 *  CHECK THAT TOTAL COUNT IS NOT GREATER THAN 129 (127 + 2 DELIMS       34434021
                                    6925 *   ALSO THAT ALL COUNT'SARE ONLY 1 BYTE                                34440021
 004D54 1B33                        6926        SR      R3,R3              USED FOR TOTAL COUNT                  34446021
 004D56 4188 0001      00001        6927 STREP2   LA    R8,DX1(R8)          UPDATE POINTERS                      34452021
 004D5A 4199 0002      00002        6928          LA    R9,DX2(R9)                                               34458021
 004D5E 4879 0000      00000        6929          LH    R7,DX0(R9)          CHARACTER COUNT                      34464021
 004D62 1A37                        6930          AR    R3,R7          ADD COUNT TO LENGTH                       34470021
 004D64 198A                        6931          CR    R8,R10             AT END YET                            34476021
 004D66 4740 F06E      04D56        6932          BC    M4,STREP2      NO REPEAT                                 34482021
 004D6A 4930 D5E8      0BB28        6933        CH      R3,HW129                                                 34488021
 004D6E 4720 F13E      04E26        6934          BC    M2,STREPZ      ERROR                                     34494021
 004D72 1885                        6935        LR      R8,R5                                                    34500021

 004D74 1896                        6937        LR      R9,R6                                                    34512021
 004D76 4188 0001      00001        6938 STREPB   LA    R8,DX1(R8)      INCREASE POINTERS TO                     34518021
 004D7A 4199 0002      00002        6939          LA    R9,DX2(R9)      NEXT CHARACTER                           34524021
 004D7E 198A                        6940          CR    R8,R10         END OF CHARACTERS                         34530021
 004D80 4720 F0F8      04DE0        6941          BC    M2,STREPG      YES,CHECK 2 DELIMITERS                    34536021
 004D84 95C3 8000      00000        6942          CLI   DX0(R8),XCC     IS IT C                                  34542021
 004D88 4780 F0C0      04DA8        6943          BC    M8,STREPD      YES,CHECK IF VALID                        34548021
 004D8C 95C4 8000      00000        6944          CLI   DX0(R8),XCD     IS IT D                                  34554021
 004D90 4770 F08E      04D76        6945          BC    M7,STREPB     NO,LOOK AT NEXT CHARACTER                  34560021
                                    6946 * PICTURE CHARACTER IS A D                                              34566021
 004D94 9501 9001      00001        6947 STREPC   CLI   DX1(R9),XX01        IS COUNT 1                           34572021
 004D98 4770 F10C      04DF4        6948          BC    M7,STREPU      NO THEN ERROR                             34578021
 004D9C 95C2 8001      00001        6949          CLI   DX1(R8),XCB     IS NEXT CHAR B (DB)                      34584021
 004DA0 4780 F08E      04D76        6950          BC    M8,STREPB      YES,THEN IGNORE THE D                     34590021
                                    6951 * VALID D DELIMITER                                                     34596021
 004DA4 47F0 F0D0      04DB8        6952          BC    M15,STREPE          GO CHK FOR VALID C OR D DELIM        34602021
                                    6953 * PICTURE CHARACTER IS A C                                              34608021
 004DA8 9501 9001      00001        6954 STREPD   CLI   DX1(R9),XX01        IS COUNT 1                           34614021
 004DAC 4770 F116      04DFE        6955          BC    R7,STREPV       NO,THEN ERROR                            34620021
 004DB0 95D9 8001      00001        6956          CLI   DX1(R8),XCR     IS NEXT CHAR R (CR)                      34626021
 004DB4 4780 F08E      04D76        6957          BC    R8,STREPB       YES,THEN IGNORE THE C                    34632021
                             04DB8  6958 STREPE   EQU   *    VALID C OR D DELIMITER                              34638021
                                    6959 *  IS IT L DELIMITER                                                    34644021
1PH20     IKFCBL20                                                                                              PAGE  165
-  LOC  OBJECT CODE    ADDR1 ADDR2  STMT   SOURCE STATEMENT                                       ASM 0201 11.03 02/14/15
0004DB8 9500 1041      00041        6960          CLI   STPOUP,XX00     IS POS.OF POUND DEL ZERO                 34650021
 004DBC 4770 F0E4      04DCC        6961          BC    R7,STREPF       NO THEN TRY SHILLS                       34656021
                                    6962 * YES,THEN THIS IS 1ST DELIM                                            34662021
 004DC0 18B8                        6963          LR    R11,R8         POSITION OF CHARACER                      34668021
 004DC2 1BB5                        6964          SR    R11,R5         SUBTRACT STARTING POSITION TO GIVE RE     34674021
 004DC4 42B0 1041      00041        6965          STC   R11,STPOUP     POSITION OF STERLING DELIMITER            34680021
                                    6966 *              RELATIVE TO IPT.                                         34686021
 004DC8 47F0 F08E      04D76        6967          BC    R15,STREPB      CONTINUE SEARCH FOR DELIMITERS           34692021
 004DCC 9500 1042      00042        6968 STREPF   CLI   STSHIP,XX00     IS POSITION OF SHILLING DEL.ZERO         34698021
 004DD0 4770 F120      04E08        6969          BC    R7,STREPW       NO THEN ERROR -L AND S DELIM ALREADY     34704021
 004DD4 18B8                        6970          LR    R11,R8         POSITION OF CHARACTER                     34710021
 004DD6 1BB5                        6971          SR    R11,R5         LESS STARTING POSITION TO GIVE REL,PO     34716021
 004DD8 42B0 1042      00042        6972          STC   R11,STSHIP     STORE POSITION OF SHILL.DELIM. REL TO     34722021
 004DDC 47F0 F08E      04D76        6973          BC    R15,STREPB      CONTINUE SEARCH FOR DELIMITERS           34728021
1PH20     IKFCBL20                                                                                              PAGE  166
-  LOC  OBJECT CODE    ADDR1 ADDR2  STMT   SOURCE STATEMENT                                       ASM 0201 11.03 02/14/15
0                            04DE0  6975 STREPG   EQU   *    SCAN OF PICTURE IS COMPLETE,SO CHECK THAT 2 DEL     34740021
                                    6976 *                    HAVE BEEN FOUND                                    34746021
 004DE0 9500 1041      00041        6977          CLI   STPOUP,XX00     POUNDS POSITION ZERO.                    34752021
 004DE4 4780 F12A      04E12        6978          BC    R8,STREPX       YES THEN ERROR,L AND S LIMITS MISSING    34758021
 004DE8 9500 1042      00042        6979          CLI   STSHIP,XX00     SHILLS POSITION ZERO                     34764021
 004DEC 4780 F134      04E1C        6980          BC    R8,STREPY       YES THEN ERROR'S LIMIT MISSING           34770021
 004DF0 47F0 F148      04E30        6981          BC    R15,STLED       ANALYSE L.S.D. PICTURE                   34776021
                                    6982 * STERLING DELIMITER ERROR ROUTINES FOLLOW.                             34782021
 004DF4 41C0 F69C      05384        6983 STREPU   LA    R12,STERRA     EXIT ADDRESS                              34788021
 004DF8 4540 F688      05370        6984          BAL   R4,STEMSS      MESSAGE                                   34794021
 004DFC 10A2                        6985          DC    X'10A2'             ADJACENT C DELIMITORS                34800021
 004DFE 41C0 F69C      05384        6986 STREPV   LA    R12,STERRA                                               34806021
 004E02 4540 F688      05370        6987          BAL   R4,STEMSS           TO MSG OUTPUT RTN STERL RPT PIC      34812021
 004E06 10A1                        6988          DC    X'10A1'             ADJACENT D DELIMITORS                34818021
 004E08 41C0 F69C      05384        6989 STREPW   LA    R12,STERRA                                               34824021
 004E0C 4540 F688      05370        6990          BAL   R4,STEMSS           TO MSG OUTPUT RTN STERL RPT PIC      34830021
 004E10 10A3                        6991          DC    X'10A3'             MORE THAN 2 STERLING DELIMITORS      34836021
 004E12 41C0 F69C      05384        6992 STREPX   LA    R12,STERRA                                               34842021
 004E16 4540 F688      05370        6993          BAL   R4,STEMSS           TO MSG OUTPUT RTN STERL RPT PIC      34848021
 004E1A 10A4                        6994          DC    X'10A4'             NO STERLING DELIMITORS               34854021
 004E1C 41C0 F69C      05384        6995 STREPY   LA    R12,STERRA                                               34860021
 004E20 4540 F688      05370        6996          BAL   R4,STEMSS           TO MSG OUTPUT RTN STERL RPT PIC      34866021
 004E24 10A5                        6997          DC    X'10A5'             ONLY 1 STERLING DELIMITOR            34872021
 004E26 41C0 F69C      05384        6998 STREPZ LA      R12,STERRA    PICTURE LENGTH GREATER THAN 127 BYTES      34878021
 004E2A 4540 F688      05370        6999        BAL     R4,STEMSS           TO MSG OUTPUT RTN STERL RPT PIC      34884021
 004E2E 10AC                        7000          DC    X'10AC'                                                  34890021
1PH20     IKFCBL20                                                                                              PAGE  167
-  LOC  OBJECT CODE    ADDR1 ADDR2  STMT   SOURCE STATEMENT                                       ASM 0201 11.03 02/14/15
0                                   7002 *  ANALYSE POUND FIELD   STLED                                          34902021
                             04E30  7003 STLED    EQU   *     INITIALISE L.S.D. EDITING                          34908021
 004E30 4185 0001      00001        7004          LA    R8,DX1(R5)      CHARACTER STRING IN INPUT AREA           34914021
 004E34 4196 0002      00002        7005          LA    R9,DX2(R6)      CHARACTER LENGTH STRING IN INPUT AREA    34920021
 004E38 1BAA                        7006          SR    R10,R10                                                  34926021
 004E3A 41B0 1000      00000        7007          LA    R11,STATWK     ADDRESS OF                                34932021
 004E3E 41BB 0005      00005        7008          LA    R11,DX5(R11)    CHARACTER STRING IN WKAREA               34938021
                             04E42  7009 STLEDA   EQU   *    INITIALISE POUND EDIT                               34944021
 004E42 43A0 1041      00041        7010          IC    R10,STPOUP     REL.ADD.OF POUND DELIM                    34950021
 004E46 1AA5                        7011          AR    R10,R5         ACT.ADD.OF POUND DELIM                    34956021
                             04E48  7012 STLEDB   EQU   *    START EDIT FOR POUNDS                               34962021
 004E48 198A                        7013          CR    R8,R10    IS POUND DELIM 1ST CHAR                        34968021
 004E4A 4770 F190      04E78        7014          BC    R7,STLEDF  NO THEN ANALYSE POUNDS                        34974021
 004E4E 9610 1000      00000        7015          OI    STWCDE,SLNOTP  SET NO POUNDS BIT                         34980021
                             04E52  7016 STLEDC   EQU   *    DELIMITER CHARACTER                                 34986021
 004E52 95C3 8000      00000        7017          CLI   DX0(R8),XCC     IS IT C                                  34992021
 004E56 4770 F176      04E5E        7018          BC    R7,STLEDD       NO                                       34998021
 004E5A 9620 1000      00000        7019          OI    STWCDE,SLDELC  SET POUND DEL. IS C BIT                   35004021
 004E5E D200 B000 8000 00000 00000  7020 STLEDD   MVC   DX0(LX1,R11),DX0(R8)  MOVE DEL.                          35010021
 004E64 9201 B001      00001        7021          MVI   DX1(R11),XX01        AND COUNT OF BINARY ONE             35016021
 004E68 4188 0001      00001        7022          LA    R8,DX1(R8)           UPDATE POINTERS                     35022021
 004E6C 4199 0002      00002        7023          LA    R9,DX2(R9)                                               35028021
 004E70 41BB 0002      00002        7024          LA    R11,DX2(R11)                                             35034021
 004E74 47F0 F3C4      050AC        7025          BC    R15,STSED            BRANCH TO EDIT SHILLS FIELD         35040021
1PH20     IKFCBL20                                                                                              PAGE  168
-  LOC  OBJECT CODE    ADDR1 ADDR2  STMT   SOURCE STATEMENT                                       ASM 0201 11.03 02/14/15
0                            04E78  7027 STLEDF   EQU   *    EDIT POUNDS FIELD                                   35052021
 004E78 1B33                        7028          SR    R3,R3     USED FOR COUNT OF POUND DIGITS                 35058021

                                    7030 *  ACCEPTABLE POUND PICTURES ARE AS FOLLOWS                             35070021
                                    7031 *              ++ 9 9         FLOATING SIGN                             35076021
                                    7032 *              + 9 9          STATIC SIGN                               35082021
                                    7033 *              + * * 9 9                                                35088021
                                    7034 *              + Z Z 9 9                                                35094021
                                    7035 *              + $$ 9 9       FLOATING POUND                            35100021
                                    7036 *              + $ Z Z 9 9    STATIC SIGN AND POUND                     35106021
                                    7037 *              + $ * * 9 9                                              35112021
                                    7038 *              + $ 9 9                                                  35118021
                                    7039 *           ALSO - MAY REPLACE +                                        35124021
                                    7040 *                                                                       35130021
                                    7041 *              $$ 9 9         FLOATING POUND                            35136021
                                    7042 *              $ 9 9                                                    35142021
                                    7043 *        $ * * 9 9                                                      35148021
                                    7044 *              $ Z Z 9 9                                                35154021
                                    7045 *                                                                       35160021
                                    7046 *              Z Z 9 9                                                  35166021
                                    7047 *              * * 9 9                                                  35172021
                                    7048 *              9 9                                                      35178021
                                    7049 *        SEPARATOR OR INSERTION CHARACTERS MAY BE PLACED IN ANY BLA     35184021

                                    7051 *  WHAT IS 1ST CHARACTER                                                35196021
 004E7A 95F9 8000      00000        7052          CLI   DX0(R8),XC9                                              35202021
 004E7E 4780 F2CE      04FB6        7053          BE    STLEDP              YES FORMAT NINES ONLY                35208021
 004E82 955B 8000      00000        7054          CLI   DX0(R8),XX5B                                             35214021
 004E86 4780 F2EC      04FD4        7055          BE    STMEDF              YES FORMAT POUND                     35220021
 004E8A 955C 8000      00000        7056          CLI   DX0(R8),XX5C                                             35226021
 004E8E 4780 F2D8      04FC0        7057          BE    STMEDD              YES FORMAT MUST BE STAR,NZNE         35232021
 004E92 95E9 8000      00000        7058          CLI   DX0(R8),XCZ                                              35238021
 004E96 4780 F2E2      04FCA        7059          BE    STMEDE              YES FORMAT ZED,NINE                  35244021
 004E9A 954E 8000      00000        7060          CLI   DX0(R8),XX4E                                             35250021
 004E9E 4780 F1EA      04ED2        7061          BE    STLEDH              BRANCH                               35256021
 004EA2 9560 8000      00000        7062          CLI   DX0(R8),XX60                                             35262021
 004EA6 4780 F1EA      04ED2        7063          BE    STLEDH              BRANCH                               35268021
                                    7064 * THEN IT MUST BE A SEPARATOR                                           35274021
 004EAA 95C2 8000      00000        7065          CLI   DX0(R8),XCB     IF BLANK'B'                              35280021
 004EAE 4770 F1CE      04EB6        7066          BC    R7,STLEDG        SET TO                                  35286021
 004EB2 9240 8000      00000        7067          MVI   DX0(R8),XX40     BLANK                                   35292021
 004EB6 D200 B000 8000 00000 00000  7068 STLEDG   MVC   DX0(LX1,R11),DX0(R8)  MOVE                               35298021
 004EBC D200 B001 9001 00001 00001  7069          MVC   DX1(LX1,R11),DX1(R9)  THE                                35304021
 004EC2 4188 0001      00001        7070          LA    R8,DX1(R8)           SEPARATOR CHARACTER                 35310021
 004EC6 4199 0002      00002        7071          LA    R9,DX2(R9)           AND                                 35316021
 004ECA 41BB 0002      00002        7072          LA    R11,DX2(R11)                                             35322021
 004ECE 47F0 F160      04E48        7073          BC    R15,STLEDB           START AGAIN                         35328021
1PH20     IKFCBL20                                                                                              PAGE  169
-  LOC  OBJECT CODE    ADDR1 ADDR2  STMT   SOURCE STATEMENT                                       ASM 0201 11.03 02/14/15
0                            04ED2  7075 STLEDH   EQU   *    FIRST SIGNIFICANT CHAR IS + OR -                    35340021
 004ED2 9601 D5B3      0BAF3        7076          OI    BSTRSW,XX01     SET SIGN SWITCH ON                       35346021
 004ED6 9501 9001      00001        7077          CLI   DX1(R9),XX01    IS IT FLOAT  COUNT NOT ONE               35352021
 004EDA 4770 F254      04F3C        7078          BC    R7,STLEDK       FLOAT                                    35358021
 004EDE D200 B000 8000 00000 00000  7079 STLEDI   MVC   DX0(LX1,R11),DX0(R8)                                     35364021
 004EE4 D200 B001 9001 00001 00001  7080          MVC   DX1(LX1,R11),DX1(R9)                                     35370021
 004EEA 4188 0001      00001        7081          LA    R8,DX1(R8)                                               35376021
 004EEE 4199 0002      00002        7082          LA    R9,DX2(R9)                                               35382021
 004EF2 41BB 0002      00002        7083          LA    R11,DX2(R11)                                             35388021
 004EF6 198A                        7084          CR    R8,R10         DELIMITER REACHED YET                     35394021
 004EF8 4780 F16A      04E52        7085          BC    R8,STLEDC       YES PROCESS DELIMITER                    35400021
                                    7086 *  ELSE ANALYSE NEXT CHARACTER                                          35406021
 004EFC 955C 8000      00000        7087 STLEDJ   CLI   DX0(R8),XX5C                                             35412021
 004F00 4780 F2D8      04FC0        7088          BE    STMEDD              YES FORMAT MUST BE STAR,NZNE         35418021
 004F04 95F9 8000      00000        7089          CLI   DX0(R8),XC9                                              35424021
 004F08 4780 F2CE      04FB6        7090          BE    STLEDP              YES FORMAT NINES ONLY                35430021
 004F0C 955B 8000      00000        7091          CLI   DX0(R8),XX5B                                             35436021
 004F10 4780 F2EC      04FD4        7092          BE    STMEDF              YES FORMAT POUND                     35442021
 004F14 95E9 8000      00000        7093          CLI   DX0(R8),XCZ                                              35448021
 004F18 4780 F2E2      04FCA        7094          BE    STMEDE              YES FORMAT ZED,NINE                  35454021
 004F1C 954E 8000      00000        7095          CLI   DX0(R8),XX4E                                             35460021
 004F20 4780 F38A      05072        7096          BC    R8,STLEDV            ERROR                               35466021
 004F24 9560 8000      00000        7097          CLI   DX0(R8),XX60                                             35472021
 004F28 4780 F38A      05072        7098          BC    R8,STLEDV            ERROR                               35478021
 004F2C 95C2 8000      00000        7099          CLI   DX0(R8),XCB                                              35484021
 004F30 4770 F1F6      04EDE        7100          BNE   STLEDI              BRANCH                               35490021
 004F34 9240 8000      00000        7101          MVI   DX0(R8),XX40                                             35496021
 004F38 47F0 F1F6      04EDE        7102          B     STLEDI              BRANCH                               35502021
                             04F3C  7103 STLEDK   EQU   *    FLOATING SIGN                                       35508021
 004F3C D200 1001 8000 00001 00000  7104          MVC   STWFLT(LX1),DX0(R8)   SET FLOAT CHARACTER                35514021
 004F42 0630                        7105        BCTR  R3,R0      1 FROM COUNT FOR FLOAT                          35520021
 004F44 D200 F287 8000 04F6F 00000  7106          MVC   STMEDC+NX1(LX1),DX0(R8) STORE ACTUAL SIGN                35526021
1PH20     IKFCBL20                                                                                              PAGE  170
-  LOC  OBJECT CODE    ADDR1 ADDR2  STMT   SOURCE STATEMENT                                       ASM 0201 11.03 02/14/15
0                                   7108 *  THIS ROUTINE WILL LOOP THROUGH THE INPUT PICTURE,PROCESSING          35538021
                                    7109 *   THE PICTURE CHARACTERS INTO THE OUTPUT PICTURE.                     35544021
                                    7110 *   THE REQUIRED VALID DIGIT CHARACTER IS SET AT THE COMPARE            35550021
                                    7111 *    INSTRUCTION AT STMEDC BY                                           35556021
                                    7112 *        MVC   STMEDC+1(1),0(R8)   BEFORE ENTERING THE ROUTINE.         35562021
                                    7113 *    OCCURENCES OF THIS CHARACTER WILL INCREMENT THE DIGIT COUNT        35568021
                                    7114 *    BEFORE TRANSFER                                                    35574021
                                    7115 *    IF THIS CHARACTER IS A 9,THE EXIT TO STCEDP WILL BE FORESTALLE     35580021
                                    7116 *    THE LOOP WILL CONTINUE UNTIL                                       35586021
                                    7117 *          A,  A 9 IS FOUND   BRANCH TO STLEDP,EXCEPT AS ABOVE,         35592021
                                    7118 *          B,  ANY OTHER DIGIT CHARACTER IS FOUND Z*+-$ ,               35598021
                                    7119 *               WHEN BRANCH IS TO ERROR ROUTINE,                        35604021
                                    7120 *          C,  THE DELIMITER IS REACHED                                 35610021
                             04F4A  7121 STMEDA   EQU   *    ONLY VALID FORMAT IS CHARACTER'S,NINES              35616021
                                    7122 *              ENTERED WITH POINTER AT 1ST CHARACTER                    35622021
 004F4A 4329 0001      00001        7123          IC    R2,DX1(R9)      INCREMENT                                35628021
 004F4E 1A32                        7124          AR    R3,R2          DIGIT COUNT                               35634021
 004F50 D200 B000 8000 00000 00000  7125 STMEDB   MVC   DX0(LX1,R11),DX0(R8)                                     35640021
 004F56 D200 B001 9001 00001 00001  7126          MVC   DX1(LX1,R11),DX1(R9)                                     35646021
 004F5C 4188 0001      00001        7127          LA    R8,DX1(R8)                                               35652021
 004F60 4199 0002      00002        7128          LA    R9,DX2(R9)                                               35658021
 004F64 41BB 0002      00002        7129          LA    R11,DX2(R11)                                             35664021
 004F68 198A                        7130          CR    R8,R10         DELIMITER REACHED                         35670021
 004F6A 4780 F370      05058        7131          BE    STLEDR              YES EDIT POUND FIELD                 35676021
 004F6E 955C 8000      00000        7132 STMEDC   CLI   DX0(R8),XX5C    INITIALISED TO CHARACTER                 35682021
 004F72 4780 F262      04F4A        7133          BE    STMEDA              BRANCH                               35688021
 004F76 95F9 8000      00000        7134          CLI   DX0(R8),XC9                                              35694021
 004F7A 4780 F2CE      04FB6        7135          BE    STLEDP              YES FORMAT NINES ONLY                35700021
 004F7E 955B 8000      00000        7136          CLI   DX0(R8),XX5B                                             35706021
 004F82 4780 F38A      05072        7137          BC    R8,STLEDV       ERROR                                    35712021
 004F86 955C 8000      00000        7138          CLI   DX0(R8),XX5C                                             35718021
 004F8A 4780 F38A      05072        7139          BC    R8,STLEDV       ERROR                                    35724021
 004F8E 95E9 8000      00000        7140          CLI   DX0(R8),XCZ                                              35730021
 004F92 4780 F38A      05072        7141          BC    R8,STLEDV       ERROR                                    35736021
 004F96 954E 8000      00000        7142          CLI   DX0(R8),XX4E                                             35742021
 004F9A 4780 F38A      05072        7143          BC    R8,STLEDV       ERROR                                    35748021
 004F9E 9560 8000      00000        7144          CLI   DX0(R8),XX60                                             35754021
 004FA2 4780 F38A      05072        7145          BC    R8,STLEDV       ERROR                                    35760021
                                    7146 * THEN MUST BE SEPARATOR                                                35766021
 004FA6 95C2 8000      00000        7147          CLI   DX0(R8),XCB                                              35772021
 004FAA 4770 F268      04F50        7148          BNE   STMEDB              BRANCH                               35778021
 004FAE 9240 8000      00000        7149          MVI   DX0(R8),XX40                                             35784021
 004FB2 47F0 F268      04F50        7150          BC    R15,STMEDB          BRH TO STMEDB                        35790021
1PH20     IKFCBL20                                                                                              PAGE  171
-  LOC  OBJECT CODE    ADDR1 ADDR2  STMT   SOURCE STATEMENT                                       ASM 0201 11.03 02/14/15
0                            04FB6  7152 STLEDP   EQU   *    FORMAT NINES ONLY                                   35802021
 004FB6 D200 F287 8000 04F6F 00000  7153          MVC   STMEDC+NX1(LX1),DX0(R8) R8 POINTS AT NINE                35808021
 004FBC 47F0 F262      04F4A        7154          B     STMEDA              BRANCH                               35814021

                             04FC0  7156 STMEDD   EQU   *    FORMAT MUST BE STAR,NZNE                            35826021
 004FC0 D200 F287 8000 04F6F 00000  7157          MVC   STMEDC+NX1(LX1),DX0(R8) R8 POINTS AT STAR                35832021
 004FC6 47F0 F262      04F4A        7158          B     STMEDA              BRANCH                               35838021

                             04FCA  7160 STMEDE   EQU   *    FORMAT ZED,NINE                                     35850021
 004FCA D200 F287 8000 04F6F 00000  7161          MVC   STMEDC+NX1(LX1),DX0(R8) R8 POINTS AT ZED                 35856021
 004FD0 47F0 F262      04F4A        7162          B     STMEDA              BRANCH                               35862021

                             04FD4  7164 STMEDF   EQU   *    FORMAT POUND                                        35874021
 004FD4 9501 9001      00001        7165          CLI   DX1(R9),XX01    FLOATING POUND                           35880021
 004FD8 4780 F306      04FEE        7166          BC    R8,STMEDG       NO                                       35886021
 004FDC D200 1001 8000 00001 00000  7167          MVC   STWFLT(LX1),DX0(R8)   YES  SET FLOAT CHARACTER           35892021
 004FE2 0630                        7168        BCTR  R3,R0                ONE FROM COUNT FOR FLOAT              35898021
 004FE4 D200 F287 8000 04F6F 00000  7169          MVC   STMEDC+NX1(LX1),DX0(R8) R8 POINTS AT POUND               35904021
 004FEA 47F0 F262      04F4A        7170          B     STMEDA              BRANCH                               35910021

                             04FEE  7172 STMEDG   EQU   *    ZZ9,**9,9 ARE VALID                                 35922021
 004FEE D200 B000 8000 00000 00000  7173          MVC   DX0(LX1,R11),DX0(R8)  MOVE THE STATIC POUND              35928021
 004FF4 D200 B001 9001 00001 00001  7174          MVC   DX1(LX1,R11),DX1(R9)                                     35934021
 004FFA 4188 0001      00001        7175          LA    R8,DX1(R8)                                               35940021
 004FFE 4199 0002      00002        7176          LA    R9,DX2(R9)                                               35946021
 005002 41BB 0002      00002        7177          LA    R11,DX2(R11)                                             35952021
 005006 198A                        7178          CR    R8,R10         DELIM REACHED                             35958021
 005008 4770 F330      05018        7179          BC    R7,STMEDH       NO WHAT IS NEXT                          35964021
                                    7180 *   THEN NO POUND DIGITS,BUT MAY BE STATIC SIGN                         35970021
 00500C 9101 D5B3      0BAF3        7181          TM    BSTRSW,XX01     SIGN SWITCH ON                           35976021
 005010 4780 F160      04E48        7182          BC    R8,STLEDB       NO,SET NO PUUND DIGITS,PROC DELIM        35982021
 005014 47F0 F16A      04E52        7183          BC    R15,STLEDC      YES PROCESS DELIMITOR                    35988021
                             05018  7184 STMEDH   EQU   *                                                        35994021
 005018 95F9 8000      00000        7185          CLI   DX0(R8),XC9                                              36000021
 00501C 4780 F2CE      04FB6        7186          BC    R8,STLEDP       THEN 90                                  36006021
 005020 955C 8000      00000        7187          CLI   DX0(R8),XX5C                                             36012021
 005024 4780 F2D8      04FC0        7188          BC    R8,STMEDD       THEN **9                                 36018021
 005028 95E9 8000      00000        7189          CLI   DX0(R8),XCZ                                              36024021
 00502C 4780 F2E2      04FCA        7190          BC    R8,STMEDE       THEN ZZ9                                 36030021
 005030 955B 8000      00000        7191          CLI   DX0(R8),XX5B                                             36036021
 005034 4780 F38A      05072        7192          BC    R8,STLEDV       ERROR                                    36042021
 005038 954E 8000      00000        7193          CLI   DX0(R8),XX4E                                             36048021
 00503C 4780 F38A      05072        7194          BC    R8,STLEDV       ERROR                                    36054021
 005040 9560 8000      00000        7195          CLI   DX0(R8),XX60                                             36060021
 005044 4780 F38A      05072        7196          BC    R8,STLEDV       ERROR                                    36066021
                                    7197 *  THEN MUST BE SEPARATOR                                               36072021
 005048 95C2 8000      00000        7198          CLI   DX0(R8),XCB                                              36078021
 00504C 4770 F306      04FEE        7199          BNE   STMEDG              BRANCH                               36084021
 005050 9240 8000      00000        7200          MVI   DX0(R8),XX40                                             36090021
 005054 47F0 F306      04FEE        7201          B     STMEDG              BRANCH                               36096021
1PH20     IKFCBL20                                                                                              PAGE  172
-  LOC  OBJECT CODE    ADDR1 ADDR2  STMT   SOURCE STATEMENT                                       ASM 0201 11.03 02/14/15
0                            05058  7203 STLEDR   EQU   *    END OF POUND FIELD                                  36108021
 005058 4230 1003      00003        7204          STC   R3,STWNOL      SET NO.OF POUND DIGITS                    36114021
 00505C 950F 1003      00003        7205          CLI   STWNOL,XX0F     IS IT GREATER THAN 15                    36120021
 005060 4730 F380      05068        7206          BC    R3,STLEDU       YES THEN ERROR                           36126021
 005064 47F0 F16A      04E52        7207          BC    R15,STLEDC      PROCESS DELIMITERS                       36132021

                             05068  7209 STLEDU   EQU   *    NO.OF POUND DIGITS GREATER THAN 15                  36144021
 005068 41C0 F394      0507C        7210          LA    R12,STLEDX                                               36150021
 00506C 4540 F688      05370        7211          BAL   R4,STEMSS           LINK TO MESS OUTPUT RTN              36156021
 005070 10A7                        7212          DC    X'10A7'                                                  36162021

                             05072  7214 STLEDV   EQU   *                                                        36174021

                             05072  7216 STLEDW   EQU   *   ERROR FOUND DURING POUND EDIT                        36186021
 005072 41C0 F394      0507C        7217          LA    R12,STLEDX     RETURN ADDRESS                            36192021
 005076 4540 F688      05370        7218          BAL   R4,STEMSS           LINK TO MESS OUTPUT RTN              36198021
 00507A 10AA                        7219          DC    X'10AA'             ERROR IN POUND FIELD                 36204021

                             0507C  7221 STLEDX   EQU   *      RECOVERY FROM POUND ERROR                         36216021
 00507C 41B0 1000      00000        7222          LA    R11,STATWK     RESET OUTPUT                              36222021
 005080 41BB 0005      00005        7223          LA    R11,DX5(R11)    POINTER                                  36228021
 005084 D205 B000 D5D1 00000 0BB11  7224          MVC   DX0(LX6,R11),STLASM   SET ASSUM.VALUE TO    $$$$$$9B     36234021
 00508A 41BB 0006      00006        7225          LA    R11,DX6(R11)         UPDATE OUTPUT POINTER               36240021
 00508E 9206 1003      00003        7226          MVI   STWNOL,XX06          SET LENGTH OF OUTPUT POUNDS         36246021
 005092 925B 1001      00001        7227          MVI   STWFLT,XX5B        SET FLOAT CHARACTER                   36252021
 005096 94FE D5B3      0BAF3        7228          NI    BSTRSW,XXFE     SET SIGN SWITCH OFF                      36258021
 00509A 198A                        7229 STLEDY   CR    R8,R10         DELIMITER REACHED YET                     36264021
 00509C 4780 F16A      04E52        7230          BC    R8,STLEDC       YES  PROCESS IT                          36270021
 0050A0 4188 0001      00001        7231          LA    R8,DX1(R8)      ELSE INCREMENT PICTURE POINTERS          36276021
 0050A4 4199 0002      00002        7232          LA    R9,DX2(R9)      AND LOOP UNTIL                           36282021
 0050A8 47F0 F3B2      0509A        7233          BC    R15,STLEDY      DELIMITER REACHED                        36288021
1PH20     IKFCBL20                                                                                              PAGE  173
-  LOC  OBJECT CODE    ADDR1 ADDR2  STMT   SOURCE STATEMENT                                       ASM 0201 11.03 02/14/15
0                                   7235 *   ANALYSE SHILLINGS FIELD                                             36300021
                             050AC  7236 STSED    EQU   *    INITZALISE SHILLS.EDIT                              36306021
 0050AC 1BAA                        7237          SR    R10,R10                                                  36312021
 0050AE 43A0 1042      00042        7238          IC    R10,STSHIP     REL.ADD.OF SHILL.DELIM                    36318021
 0050B2 1AA5                        7239          AR    R10,R5         ACT.ADD.OF SHILL.DELIM                    36324021
                                    7240 * NOTE R8,R9 ARE POINTING TO     CHAR AND LENGTH OF 1ST SHILL ENTRY     36330021
 0050B4 955C 8000      00000        7241 STSEDA   CLI   DX0(R8),XX5C    FIRST CHAR *                             36336021
 0050B8 4770 F404      050EC        7242          BC    R7,STSEDE       NO TRY Z                                 36342021
 0050BC 9502 9001      00001        7243 STSEDB   CLI   DX1(R9),XX02        IS COUNT 2                           36348021
 0050C0 4780 F420      05108        7244          BC    R8,STSEDG       YES THEN VALID ** OR ZZ                  36354021
 0050C4 9501 9001      00001        7245          CLI   DX1(R9),XX01        IS COUNT 1                           36360021
 0050C8 4770 F470      05158        7246          BC    R7,STSEDL       NO,THEN ERROR                            36366021
 0050CC 95F9 8001      00001        7247 STSEDC   CLI   DX1(R8),XC9     IS NEXT CHAR 9                           36372021
 0050D0 4770 F3F8      050E0        7248          BC    R7,STSEDD       NO,THEN TRY 8                            36378021
 0050D4 9501 9003      00003        7249 STSEDK   CLI   DX3(R9),XX01        IS COUNT 1                           36384021
 0050D8 4780 F420      05108        7250          BC    R8,STSEDG       YES THEN VALID *9 OR Z9                  36390021
 0050DC 47F0 F470      05158        7251          BC    R15,STSEDL      ELSE ERROR                               36396021
 0050E0 95F8 8001      00001        7252 STSEDD   CLI   DX1(R8),XC8     IS NEXT CHAR 8                           36402021
 0050E4 4780 F3EC      050D4        7253          BC    R8,STSEDK       YES CHECK COUNT =1                       36408021
 0050E8 47F0 F470      05158        7254          BC    R15,STSEDL      ELSE ERROR                               36414021
 0050EC 95E9 8000      00000        7255 STSEDE   CLI   DX0(R8),XCZ     IS FIRST CHAR Z                          36420021
 0050F0 4780 F3D4      050BC        7256          BC    R8,STSEDB       YES,CONTINUE AS *                        36426021
                                    7257 * THEN ONLY REMAINING CHOICE IS 99                                      36432021
 0050F4 95F9 8000      00000        7258 STSEDF   CLI   DX0(R8),XC9     IS FIRST CHARACTER 9                     36438021
 0050F8 4770 F470      05158        7259          BC    R7,STSEDL       NO,THEN ERROR                            36444021
 0050FC 9502 9001      00001        7260          CLI   DX1(R9),XX02        IS COUNT 2                           36450021
 005100 4780 F420      05108        7261          BC    R8,STSEDG       YES THEN VALID 99                        36456021
 005104 47F0 F470      05158        7262          BC    R15,STSEDL      ELSE ERROR                               36462021
                                    7263 *                                                                       36468021
                             05108  7264 STSEDG   EQU   *    SHILLS PICTURE IS VALID                             36474021
                                    7265 * ASSUMING SEPARATOR CHARACTERS ARE ALSO VALID                          36480021
                                    7266 * MOVE PICTURE TO WORK AREA                                             36486021
 005108 95C2 8000      00000        7267          CLI   DX0(R8),XCB       CHANGE B TO BLANK                      36492021
 00510C 4770 F42C      05114        7268          BC    R7,STSEDH        NOT B                                   36498021
 005110 9240 8000      00000        7269          MVI   DX0(R8),XX40                                             36504021
 005114 D200 B000 8000 00000 00000  7270 STSEDH   MVC   DX0(LX1,R11),DX0(R8)  MOVE CHARACTER                     36510021
 00511A D200 B001 9001 00001 00001  7271          MVC   DX1(LX1,R11),DX1(R9)  AND LENGTH                         36516021
 005120 4188 0001      00001        7272          LA    R8,DX1(R8)           UPDATE POINTERS                     36522021
 005124 4199 0002      00002        7273          LA    R9,DX2(R9)                                               36528021
 005128 41BB 0002      00002        7274          LA    R11,DX2(R11)                                             36534021
 00512C 198A                        7275          CR    R8,R10              SHILL DELIM REACHED                  36540021
 00512E 4740 F420      05108        7276          BL    STSEDG              YES SHILLS PIC IS VALID              36546021
                                    7277 * IS DELIM. A C                                                         36552021
 005132 95C3 8000      00000        7278 STSEDI   CLI   DX0(R8),XCC          IS DELIM A C                        36558021
 005136 4770 F456      0513E        7279          BNE   STSEDJ              YES MOVE DELIM                       36564021
 00513A 9640 1000      00000        7280          OI    STWCDE,SSDELC       SET SHILL DELIM IS C BIT             36570021
 00513E D200 B000 8000 00000 00000  7281 STSEDJ   MVC   DX0(LX1,R11),DX0(R8)  MOVE DELIM                         36576021
 005144 9201 B001      00001        7282          MVI   DX1(R11),XX01        SET COUNT TO BINARY ONE             36582021
 005148 4188 0001      00001        7283          LA    R8,DX1(R8)           UPDATE POINTERS                     36588021
 00514C 4199 0002      00002        7284          LA    R9,DX2(R9)                                               36594021
 005150 41BB 0002      00002        7285          LA    R11,DX2(R11)                                             36600021
 005154 47F0 F496      0517E        7286          BC    R15,STPED       EDIT PENCE FIELD                         36606021
1PH20     IKFCBL20                                                                                              PAGE  174
-  LOC  OBJECT CODE    ADDR1 ADDR2  STMT   SOURCE STATEMENT                                       ASM 0201 11.03 02/14/15
0                                   7288 * ERROR ROUTINE                                                         36618021
                             05158  7289 STSEDL   EQU   *    AN ERROR HAS BEEN FOUND                             36624021
 005158 41C0 F47A      05162        7290          LA    R12,STSEDM                                               36630021
 00515C 4540 F688      05370        7291          BAL   R4,STEMSS           TO MSG OUTPUT RTN STERL RPT PIC      36636021
 005160 10A6                        7292          DC    X'10A6'             ERROR IN SHILLS FIELD, ASSUME VA     36642021

                             05162  7294 STSEDM   EQU   *    RECOVERY FROM SHILLINGS ERROR                       36654021
 005162 D205 B000 D5D9 00000 0BB19  7295          MVC   DX0(LX6,R11),STSASM   SET ASSUM VALUES Z9B               36660021
 005168 41BB 0006      00006        7296          LA    R11,DX6(R11)         UPDATE WORKAREA POINTER             36666021
 00516C 4188 0001      00001        7297 STSEDN   LA    R8,DX1(R8)           INCREMENT UP TO SHILL DELIM         36672021
 005170 4199 0002      00002        7298          LA    R9,DX2(R9)                                               36678021
 005174 198A                        7299          CR    R8,R10              DELIM.REACHED                        36684021
 005176 4740 F484      0516C        7300          BC    R4,STSEDN            NO,REPEAT                           36690021
 00517A 47F0 F44A      05132        7301          BC    R15,STSEDI           PROCESS DELIM AS NORMAL             36696021
1PH20     IKFCBL20                                                                                              PAGE  175
-  LOC  OBJECT CODE    ADDR1 ADDR2  STMT   SOURCE STATEMENT                                       ASM 0201 11.03 02/14/15
0                                   7303 *   ANALYSE PENCE FIELD                                                 36708021
                             0517E  7304 STPED    EQU   *    INITIALISE PENCE EDIT                               36714021
 00517E 1BAA                        7305          SR    R10,R10                                                  36720021
 005180 43A0 D689      0BBC9        7306          IC    R10,IPT        NO OF ENTRIES IN FIELD                    36726021
 005184 1AA5                        7307          AR    R10,R5         ACTUAL ADDRESS OF END OF FIELD            36732021
                                    7308 * NOTE R8,R9 ARE POINTING TO CHAR AND LENGTH OF 1ST PENCE ENTRY         36738021
                             05186  7309 STPEDA   EQU   *              EDIT PENCE                                36744021
 005186 955C 8000      00000        7310          CLI   DX0(R8),XX5C         FIRST CHAR *                        36750021
 00518A 4770 F4D6      051BE        7311          BC    R7,STPEDF            NO TRY Z                            36756021
 00518E 9502 9001      00001        7312 STPEDB   CLI   DX1(R9),XX02        IS COUNT 2                           36762021
 005192 4780 F4F6      051DE        7313          BC    R8,STPEDH            YES,VALID ** OR ZZ                  36768021
 005196 9501 9001      00001        7314          CLI   DX1(R9),XX01        IS COUNT 1                           36774021
 00519A 4770 F4FE      051E6        7315          BC    R7,STPEDV            NO,ERROR                            36780021
 00519E 95F9 8001      00001        7316 STPEDC   CLI   DX1(R8),XC9          SECOND CHAR 9                       36786021
 0051A2 4770 F4CA      051B2        7317          BC    R7,STPEDE            NO,TRY 8                            36792021
 0051A6 9501 9003      00003        7318 STPEDD   CLI   DX3(R9),XX01        IS COUNT 1                           36798021
 0051AA 4780 F4F2      051DA        7319          BC    R8,STPEDI            YES,VALID  *9 OR *8 OR Z9 OR Z8     36804021
 0051AE 47F0 F4FE      051E6        7320          BC    R15,STPEDV           ELSE ERROR                          36810021
 0051B2 95F8 8001      00001        7321 STPEDE   CLI   DX1(R8),XC8          SECOND CHAR 8                       36816021
 0051B6 4780 F4BE      051A6        7322          BC    R8,STPEDD            IS COUNT 1                          36822021
 0051BA 47F0 F4FE      051E6        7323          BC    R15,STPEDV           ELSE ERROR                          36828021
 0051BE 95E9 8000      00000        7324 STPEDF   CLI   DX0(R8),XCZ          FIRST CHAR Z                        36834021
 0051C2 4780 F4A6      0518E        7325          BC    R8,STPEDB            YES,CONTINUE AS *                   36840021
                                    7326 * ONLY REMAINING CHOICE IS 99                                           36846021
 0051C6 95F9 8000      00000        7327 STPEDG   CLI   DX0(R8),XC9     IS FIRST CHAR 9                          36852021
 0051CA 4770 F4FE      051E6        7328          BC    R7,STPEDV       NO THEN ERROR                            36858021
 0051CE 9502 9001      00001        7329          CLI   DX1(R9),XX02        IS COUNT 2                           36864021
 0051D2 4780 F4F6      051DE        7330          BC    R8,STPEDH       YES,VALID 99                             36870021
 0051D6 47F0 F4FE      051E6        7331          BC    R15,STPEDV      ELSE ERROR                               36876021
                                    7332 * MOVE WHOLEPENCE PORTION                                               36882021
                             051DA  7333 STPEDI   EQU   *    PICTURE *9,*8,Z9,OR Z8                              36888021
 0051DA 45C0 F516      051FE        7334          BAL   R12,STMOV1  MOVE 1 PICT.ENT.TO WKAREA,UPDATE POINTER     36894021
                             051DE  7335 STPEDH   EQU   *    PICTURE ** OR ZZ OR 99                              36900021
 0051DE 45C0 F516      051FE        7336          BAL   R12,STMOV1  MOVE 1 PICT.ENT.TO WKAREA,UPDATE POINTER     36906021
                             051E2  7337 STPEDJ   EQU   *    END OF PICTURE FOR WHOLE PENCE                      36912021
 0051E2 47F0 F536      0521E        7338          BC    R15,STDED            ELSE CHECK SEP.AND PENCE DECIMAL    36918021

                             051E6  7340 STPEDV   EQU   *    ERROR IN WHOLE PENCE PICTURE                        36930021
 0051E6 41C0 F508      051F0        7341          LA    R12,STPEDY                                               36936021
 0051EA 4540 F688      05370        7342          BAL   R4,STEMSS           TO MSG OUTPUT RTN STERL RPT PIC      36942021
 0051EE 10A8                        7343          DC    X'10A8'                                                  36948021

                             051F0  7345 STPEDY   EQU   *    RECOVERY FROM WHOLE PENCE ERROR                     36960021
 0051F0 D203 B000 D5E1 00000 0BB21  7346          MVC   DX0(LX4,R11),STPASM   SET ASSUM VAL TO Z9                36966021
 0051F6 41BB 0004      00004        7347          LA    R11,DX4(R11)         UPDATE POINTER                      36972021
 0051FA 47F0 F64E      05336        7348          BC    R15,STFIN       AND END EDITING                          36978021
1PH20     IKFCBL20                                                                                              PAGE  176
-  LOC  OBJECT CODE    ADDR1 ADDR2  STMT   SOURCE STATEMENT                                       ASM 0201 11.03 02/14/15
0                            051FE  7350 STMOV1   EQU   *    MOVE 1 PICTURE ENTRY TO WORK AREA                   36990021
                                    7351 *                   AND UPDATE THE POINTERS                             36996021
                                    7352 *                   IF END OF PICTURE GO TO STFIN                       37002021
 0051FE D200 B000 8000 00000 00000  7353          MVC   DX0(LX1,R11),DX0(R8)  MOVE CHARACTER                     37008021
 005204 D200 B001 9001 00001 00001  7354          MVC   DX1(LX1,R11),DX1(R9)                                     37014021
 00520A 4188 0001      00001        7355          LA    R8,DX1(R8)      UPDATE                                   37020021
 00520E 4199 0002      00002        7356          LA    R9,DX2(R9)       POINTERS                                37026021
 005212 41BB 0002      00002        7357          LA    R11,DX2(R11)                                             37032021
 005216 198A                        7358          CR    R8,R10         END OF PICTURE YET                        37038021
 005218 4720 F64E      05336        7359          BC    R2,STFIN         YES   THEN GO TO FINISH                 37044021
 00521C 07FC                        7360          BCR   R15,R12    ELSE RETURN TO CALLING ROUTINE                37050021
1PH20     IKFCBL20                                                                                              PAGE  177
-  LOC  OBJECT CODE    ADDR1 ADDR2  STMT   SOURCE STATEMENT                                       ASM 0201 11.03 02/14/15
0                                   7362 *  CHECK PENCE SEPARATORS AND DECIMAL PENCE                             37062021
                             0521E  7363 STDED    EQU   *    INITIALISE                                          37068021
                             0521E  7364 STDEDA   EQU   *                                                        37074021
 00521E 954B 8000      00000        7365          CLI   DX0(R8),XX4B    IS 1ST CHAR DECIMAL                      37080021
 005222 4770 F572      0525A        7366          BC    R7,STDEDB       NO TRY SMALL D                           37086021
 005226 9501 9001      00001        7367          CLI   DX1(R9),XX01        IS COUNT 1                           37092021
 00522A 4770 F62C      05314        7368          BC    R7,STDEDV       NO,ERROR                                 37098021
 00522E 95F9 8001      00001        7369          CLI   DX1(R8),XC9     FOLLOWED BY 9                            37104021
 005232 4770 F586      0526E        7370          BC    R7,STDEDD       NO,TEST FOR DECIMAL AFTER SMALL D        37110021
 005236 4130 000F      0000F        7371          LA    R3,DX15         MAX.NO.OF DIGITS IN PICTURE              37116021
 00523A 1B22                        7372          SR    R2,R2                                                    37122021
 00523C 4329 0003      00003        7373          IC    R2,DX3(R9)      LESS NO.OF DECIMAL PENCE                 37128021
 005240 1B32                        7374          SR    R3,R2                                                    37134021
 005242 4320 1003      00003        7375          IC    R2,STWNOL      LESS NO OF POUND DIGITS                   37140021
 005246 1B32                        7376          SR    R3,R2                                                    37146021
 005248 4740 F622      0530A        7377          BC    R4,STDEDU       IF MINUS,TOO MANY DIGITS                 37152021
 00524C D200 1004 9003 00004 00003  7378          MVC   STWNOD(LX1),DX3(R9) AND SET NO OF PENCE DECIMAL          37158021
 005252 45C0 F516      051FE        7379          BAL   R12,STMOV1  MOVE 1 PICT.ENT.TO WKAREA,UPDATE POINTER     37164021
 005256 45C0 F516      051FE        7380          BAL   R12,STMOV1  MOVE 1 PICT.ENT.TO WKAREA,UPDATE POINTER     37170021
                             0525A  7381 STDEDB   EQU   *    CHECK SEPARATOR CHARS                               37176021
 00525A 9584 8000      00000        7382          CLI   DX0(R8),XX84    SMALL D                                  37182021
 00525E 4770 F586      0526E        7383          BC    R7,STDEDD       NO TRY DECIMAL                           37188021
 005262 9501 9001      00001        7384          CLI   DX1(R9),XX01        IS COUNT 1                           37194021
 005266 4770 F62C      05314        7385          BC    R7,STDEDV  NO ERROR                                      37200021
 00526A 45C0 F516      051FE        7386          BAL   R12,STMOV1  MOVE 1 PICT.ENT.TO WKAREA,UPDATE POINTER     37206021
 00526E 954B 8000      00000        7387 STDEDD   CLI   DX0(R8),XX4B    DECIMAL POINT                            37212021
 005272 4770 F59A      05282        7388          BC    R7,STDEDF       NO                                       37218021
 005276 9501 9001      00001        7389          CLI   DX1(R9),XX01        IS COUNT 1                           37224021
 00527A 4770 F62C      05314        7390          BC    R7,STDEDV       NO ERROR                                 37230021
 00527E 45C0 F516      051FE        7391          BAL   R12,STMOV1  MOVE 1 PICT.ENT.TO WKAREA,UPDATE POINTER     37236021
 005282 95C2 8000      00000        7392 STDEDF   CLI   DX0(R8),XCB     BLANK                                    37242021
 005286 4770 F5AA      05292        7393          BC    R7,STDEDG       NO TRY CR                                37248021
 00528A 9240 8000      00000        7394          MVI   DX0(R8),XX40                                             37254021
 00528E 45C0 F516      051FE        7395          BAL   R12,STMOV1  MOVE 1 PICT.ENT.TO WKAREA,UPDATE POINTER     37260021
 005292 95C3 8000      00000        7396 STDEDG   CLI   DX0(R8),XCC     CR                                       37266021
 005296 4770 F5DE      052C6        7397          BC    R7,STDEDH       NO THEN MUST BE MINUS                    37272021
 00529A 9501 9001      00001        7398          CLI   DX1(R9),XX01        IS COUNT 1                           37278021
 00529E 4770 F62C      05314        7399          BC    R7,STDEDV       NO,ERROR                                 37284021
 0052A2 95D9 8001      00001        7400          CLI   DX1(R8),XCR                                              37290021
 0052A6 4770 F62C      05314        7401          BC    R7,STDEDV       NO,ERROR                                 37296021
                             052AA  7402 STDEDK   EQU   *                                                        37302021
 0052AA 9501 9003      00003        7403          CLI   DX3(R9),XX01        IS COUNT 1                           37308021
 0052AE 4770 F62C      05314        7404          BC    R7,STDEDV       NO,ERROR                                 37314021
                                    7405 * HAS SIGN BEEN USED ALREADY                                            37320021
 0052B2 9101 D5B3      0BAF3        7406          TM    BSTRSW,XX01     SIGN SWITCH ON                           37326021
 0052B6 4710 F636      0531E        7407          BC    R1,STDEDW       YES ERROR                                37332021
 0052BA 45C0 F516      051FE        7408          BAL   R12,STMOV1  MOVE 1 PICT.ENT.TO WKAREA,UPDATE POINTER     37338021
 0052BE 45C0 F516      051FE        7409          BAL   R12,STMOV1  MOVE 1 PICT.ENT.TO WKAREA,UPDATE POINTER     37344021
 0052C2 47F0 F62C      05314        7410          BC    R15,STDEDV      NO THEN IT OUGHT TO BE                   37350021
 0052C6 9560 8000      00000        7411 STDEDH   CLI   DX0(R8),XX60    IS IT MINUS                              37356021
 0052CA 4770 F5FE      052E6        7412          BC    R7,STDEDJ       TRY PLUS                                 37362021
                             052CE  7413 STDEDI   EQU   *                                                        37368021
 0052CE 9501 9001      00001        7414          CLI   DX1(R9),XX01        IS COUNT 1                           37374021
 0052D2 4770 F62C      05314        7415          BC    R7,STDEDV       NO,ERROR                                 37380021
                                    7416 * HAS SIGN BEEN USED ALREADY                                            37386021
1PH20     IKFCBL20                                                                                              PAGE  178
-  LOC  OBJECT CODE    ADDR1 ADDR2  STMT   SOURCE STATEMENT                                       ASM 0201 11.03 02/14/15
00052D6 9101 D5B3      0BAF3        7417          TM    BSTRSW,XX01     SIGN SWITCH ON                           37392021
 0052DA 4710 F640      05328        7418          BC    R1,STDEDX       YES ERROR                                37398021
 0052DE 45C0 F516      051FE        7419          BAL   R12,STMOV1  MOVE 1 PICT.ENT.TO WKAREA,UPDATE POINTER     37404021
 0052E2 47F0 F62C      05314        7420          BC    R15,STDEDV      NO THEN IT OUGHT TO BE                   37410021
 0052E6 954E 8000      00000        7421 STDEDJ   CLI   DX0(R8),XX4E    IS IT PLUS                               37416021
 0052EA 4780 F5E6      052CE        7422          BC    R8,STDEDI       PROCEED AS MINUS                         37422021
 0052EE 95C4 8000      00000        7423          CLI   DX0(R8),XCD      TRY DB                                  37428021
 0052F2 4770 F62C      05314        7424          BC    R7,STDEDV       NO ERROR                                 37434021
 0052F6 9501 9001      00001        7425          CLI   DX1(R9),XX01    CHECK COUNT IS ONE                       37440021
 0052FA 4770 F62C      05314        7426          BC    R7,STDEDV       NO ERROR                                 37446021
 0052FE 95C2 8001      00001        7427          CLI   DX1(R8),XCB                                              37452021
 005302 4770 F62C      05314        7428          BC    R7,STDEDV       NO ERROR                                 37458021
 005306 47F0 F5C2      052AA        7429          BC    R15,STDEDK      PROCEED AS CR                            37464021

                             0530A  7431 STDEDU   EQU   *   NO.OF PENCE DEC.+ NO.OF POUND DIGITS GT. 15          37476021
 00530A 41C0 F64A      05332        7432          LA    R12,STDEDY                                               37482021
 00530E 4540 F688      05370        7433          BAL   R4,STEMSS           TO MSG OUTPUT RTN STERL RPT PIC      37488021
 005312 10AB                        7434          DC    X'10AB'                                                  37494021

                             05314  7436 STDEDV   EQU   *    ERROR IN DECIMAL PENCE PICTURE                      37506021
 005314 41C0 F64A      05332        7437          LA    R12,STDEDY                                               37512021
 005318 4540 F688      05370        7438          BAL   R4,STEMSS           TO MSG OUTPUT RTN STERL RPT PIC      37518021
 00531C 10A9                        7439          DC    X'10A9'                                                  37524021

                             0531E  7441 STDEDW   EQU   *    CR OR DB NOT VALID WITH LEADING SIGN                37536021
 00531E 41C0 F64A      05332        7442          LA    R12,STDEDY                                               37542021
 005322 4540 F688      05370        7443          BAL   R4,STEMSS           LINK TO MESS OUTPUT RTN              37548021
 005326 10AD                        7444          DC    X'10AD'                                                  37554021

                             05328  7446 STDEDX   EQU   *    LEADING AND TRAILING SIGN NOT VALID                 37566021
 005328 41C0 F64A      05332        7447          LA    R12,STDEDY                                               37572021
 00532C 4540 F688      05370        7448          BAL   R4,STEMSS           TO MSG OUTPUT RTN STERL RPT PIC      37578021
 005330 10AE                        7449          DC    X'10AE'                                                  37584021

                             05332  7451 STDEDY   EQU   *    DECIMAL PENCE ASSUM VALUES  NONE                    37596021
 005332 47F0 F64E      05336        7452          BC    R15,STFIN                 END EDITING                    37602021
1PH20     IKFCBL20                                                                                              PAGE  179
-  LOC  OBJECT CODE    ADDR1 ADDR2  STMT   SOURCE STATEMENT                                       ASM 0201 11.03 02/14/15
0                                   7454 ********                                                                37614021
                                    7455 * THE EDIT OF THE PICTURE IS NOW COMPLETE                               37620021
                                    7456 *  THE VALID PARAMETERS,AND ANY ASSUMED VALUES,ARE IN THE               37626021
                                    7457 *  WORK-AREA ATTRIBUTE TABLE.                                           37632021
                                    7458 * THIS ROUTINE CALCULATES A,THE NO.OF BYTES REQD FOR OUTPUT             37638021
                                    7459 *                        B,THE TOTAL NO OF PICTURE CHARACTERS           37644021
                                    7460 *  AND THEN LOADS REG 12 WITH B                                         37650021
                                    7461 *              AND REG 11 WITH ADDRESS OF WORK AREA TABLE               37656021
                                    7462 ********                                                                37662021
                             05336  7463 STFIN    EQU   *    INITIALISE                                          37668021
 005336 4170 1005      00005        7464          LA    R7,STWVAR      ADDRESS OF 1ST PICTURE CHARACTER          37674021
                                    7465 *              R11 CONTAINS   ADDRESS OF END OF TABLE PLUS 1            37680021
 00533A 1887                        7466          LR    R8,R7          POINTER TO PICTURE CHARACTER              37686021
 00533C 4190 0002      00002        7467          LA    R9,DX2                                                   37692021
 005340 1399                        7468          LCR   R9,R9          SET TO MINUS 2,TO COUNT BYTES OF OUTP     37698021
 005342 1BAA                        7469          SR    R10,R10                                                  37704021
                             05344  7470 STFINA   EQU   *    GENERATE COUNT                                      37710021
 005344 43A8 0001      00001        7471          IC    R10,DX1(R8)                                              37716021
 005348 1A9A                        7472          AR    R9,R10                                                   37722021
 00534A 4188 0002      00002        7473          LA    R8,DX2(R8)      UPDATE POINTER                           37728021
 00534E 198B                        7474          CR    R8,R11         END OF TABLE                              37734021
 005350 4740 F65C      05344        7475          BC    R4,STFINA       NO,LOOP                                  37740021
 005354 4990 D5E6      0BB26        7476          CH    R9,HW127       IS COUNT GREATER THAN 127                 37746021
 005358 4720 F13E      04E26        7477          BC    R2,STREPZ       YES THEN ERROR                           37752021
 00535C 4290 1002      00002        7478          STC   R9,STWTOL      YES STORE COUNT.NOTE D,C NOT COUNTED      37758021
                             05360  7479 STFINB   EQU   *    SET REGISTERS FOR OUTPUT ROUTINE                    37764021
 005360 1BB7                        7480          SR    R11,R7    LENGTH OF PICTURE                              37770021
 005362 41CB 0006      00006        7481          LA    R12,DX6(R11)    NO.OF PICTURE CHARACTERS PLUS CONSTAN    37776021
 005366 41B0 1000      00000        7482          LA    R11,STATWK  ADDRESS OF WORK AREA                         37782021
 00536A 47F0 F6B0      05398        7483          B     STENDA              BRANCH                               37788021
1PH20     IKFCBL20                                                                                              PAGE  180
-  LOC  OBJECT CODE    ADDR1 ADDR2  STMT   SOURCE STATEMENT                                       ASM 0201 11.03 02/14/15
000536E 10A0                        7485          DC    X'10A0'                                                  37800021

                             05370  7487 STEMSS   EQU   *   MESSAGE OUTPUT ROUTINE STERLING REPORT PICTURE       37812021
 005370 4804 0000      00000        7488          LH    R0,DX0(R4)      LOAD ERROR NUMBER                        37818021
 005374 50F0 DA18      0BF58        7489          ST    R15,TSAVER     SAVE BASE REGISTER                        37824021
 005378 58F0 DBC0      0C100        7490          L     R15,AERRTN                                               37830021
 00537C 05EF                        7491          BALR  R14,R15             GO TO ERROR ROUTINE                  37836021
 00537E 58F0 DA18      0BF58        7492          L     R15,TSAVER     RESTORE BASE REGISTER                     37842021
 005382 07FC                        7493          BR    R12                 BRANCH                               37848021
                                    7494 * NOTE RETURN IS TO REG 12 ADDRESS                                      37854021

                                    7496 *  AN ERROR HAS OCCURRED,SO USE ASSUMED VALUES                          37866021
                                    7497 *  ASSUMED VALUES ARE IN SASUMV-STERLING REPORT ASSUMED VALUES          37872021
                                    7498 *  THE FIRST BYTE CONTAINS THE NO.OF PICTURE CHARS IN STRING            37878021
 005384 43C0 D5CB      0BB0B        7499 STERRA   IC    R12,SASUMV          LOAD REG 12 WITH NO OF PICT.CHAR     37884021
 005388 41B0 D5CC      0BB0C        7500          LA    R11,SASUMV+NX1       LOAD REG 11 WITH ADDRESS OF ASUM    37890021
 00538C 41CC 0004      00004        7501          LA    R12,DX4(R12)    ADD FIXED PORTION ,LESS 1 FOR EXECUTE    37896021
                                    7502 * R12 NOW CONTAINS THE COUNT OF VARIABLE PART OF ATTRIB,EXCLUDING       37902021
                                    7503 * THE DICTIONARY ENTRY                                                  37908021
 005390 44C0 F6E0      053C8        7504          EX    R12,STVALM          MOVE VALUES TO OUTPUT AREA           37914021
 005394 41CC 0002      00002        7505          LA    R12,DX2(R12)    RESET R12 AND ADD 1                      37920021
                             05398  7506 STENDA   EQU   *                                                        37926021
                                    7507 *   ANY DICTIONARY POINTER TO BE INCLUDED                               37932021
 005398 9102 D60D      0BB4D        7508          TM    MINCOD,XX02     OCCURS CLAUSE                            37938021
 00539C 4780 F6C4      053AC        7509          BC    R8,STEND0       NO                                       37944021
 0053A0 9108 D60D      0BB4D        7510          TM    MINCOD,XX08     IS MBS GREATER THAN 1                    37950021
 0053A4 4780 F6D0      053B8        7511          BC    R8,STENDC       NO,NO DICT POINTER                       37956021
 0053A8 4770 F6CC      053B4        7512          BC    R7,STENDB       YES INCLUDE IT                           37962021
 0053AC 910C D60D      0BB4D        7513 STEND0   TM    MINCOD,XX0C     ANY MBS BITS                             37968021
 0053B0 4780 F6D0      053B8        7514          BC    R8,STENDC       NO                                       37974021
 0053B4 41CC 0003      00003        7515 STENDB   LA    R12,DX3(R12)         INCUDE DICTIONARY POINTER IN LEN    37980021
                             053B8  7516 STENDC   EQU   *                                                        37986021
 0053B8 42C0 D613      0BB53        7517          STC   R12,VILGN          SET LENGTH OF ATTRIBUTE FIELD         37992021
 0053BC D200 D679 B002 0BBB9 00002  7518          MVC   CILGN+NX1(LX1),DX2(R11) SET TOTAL REPORT LENGTH          37998021
                                    7519 *  THE PICTURE ANALYSIS IS COMPLETE,SO RETURN                           38004021
 0053C2 981E D990      0BED0        7520          LM    R1,R14,RSAVE+NX4     RESTORE REGISTERS                   38010021
 0053C6 07FE                        7521 STENDD   BCR   R15,R14              RETURN                              38016021

 0053C8 D200 1000 D5CC 00000 0BB0C  7523 STVALM   MVC   STATWK(LX0),SASUMV+NX1 MOVE ASSUMED VALUES TO OUTPUT     38028021
                                    7524 *                                                                       38034021
                                    7525 * MASKS FOR BYTE 8 OF ATTRIBUTE TABLE                                   38040021
                                    7526 * SFBWZ  EQU   X'80'     BLANK WHEN ZERO                                38046021
                                    7527 * SSDELC EQU   X'40'     SHILL DELIM. IS C                              38052021
                                    7528 * SLDELC EQU   X'20'     POUND DELIM. IS C                              38058021
                                    7529 * SLNOTP EQU   X'10'     NO POUND DIGITS OR STATIC SHARACTERS           38064021

                                    7531          DROP  R1                                                       38076021
                                    7532          DROP  R15                                                      38082021
1PH20     IKFCBL20                                                                                              PAGE  181
-  LOC  OBJECT CODE    ADDR1 ADDR2  STMT   SOURCE STATEMENT                                       ASM 0201 11.03 02/14/15
00053D0                             7534 IKF207   CSECT                                                          38094021
                             053D0  7535          USING *,R15                                                    38100021
 0053D0 4000 D5BE      0BAFE        7536 ERRRTN   STH   R0,MSGDEF+NX3        STORE MESSAGE NUMBER IN MSGDEF      38106021
 0053D4 D300 D5C2 D5BE 0BB02 0BAFE  7537          MVZ   MSGDEF+NX7(LX1),MSGDEF+NX3 SET SEVERITY                  38112021
 0053DA 940F D5BE      0BAFE        7538          NI    MSGDEF+NX3,XX0F                                          38118021
 0053DE 90B2 DA30      0BF70        7539          STM   R11,R2,ERSAVE                                            38124021
 0053E2 58B0 DB84      0C0C4        7540          L     RCOM,COSADR                                              38130021
 0053E6 8800 000C      0000C        7541          SRL   R0,DX12                                                  38136021
 0053EA 5A00 D3F8      0B938        7542          A     R0,ONE                                                   38142021
 0053EE 8900 0002      00002        7543          SLL   R0,DX2                                                   38148021
 0053F2 4900 D426      0B966        7544          CH    R0,TWELVE+NX2                                            38154021
 0053F6 47D0 F02E      053FE        7545          BNH   SKIPIC              YES SKIP NEXT INSTRUCTION            38160021
 0053FA 4300 D437      0B977        7546          IC    R0,CON16+NX3                                             38166021
 0053FE 4200 D900      0BE40        7547 SKIPIC   STC   R0,FULLWD                                                38172021
 005402 D500 D900 B1A2 0BE40 001A2  7548          CLC   FULLWD(LX1),ERRSEV                                       38178021
 005408 47D0 F040      05410        7549          BNH   SKIPSTC             YES SKIP NEXT INSTRUCTION            38184021
 00540C 4200 B1A2      001A2        7550          STC   R0,ERRSEV                                                38190021
 005410 D201 D5C0 D5C7 0BB00 0BB07  7551 SKIPSTC  MVC   MSGDEF+NX5(LX2),CARDNO  MOVE CARD NUMBER TO MSGDEF       38196021
 005416 5810 DB84      0C0C4        7552          L     R1,COSADR           SET UP REGISTERS                     38202021
 00541A 4120 D5BB      0BAFB        7553          LA    R2,MSGDEF             FOR A PUT IN COS                   38208021
 00541E 0501                        7554          BALR  R0,R1               BRANCH                               38214021
 005420 24                          7555          DC    X'24'               FILE 4 PUT                           38220021
 005421 00
 005422 98B2 DA30      0BF70        7556          LM    R11,R2,ERSAVE                                            38226021
 005426 1211                        7557          LTR   R1,R1               IS IT ZERO                           38232021
 005428 078E                        7558          BCR   ZERO,R14            YES  RETURN TO CALLER                38238021
 00542A 07FE                        7559          BCR   UNCOND,R14          NO PUT OUT MSGPAR                    38244021
 00542C                             7560 TDDMP0 DS    0H                                                         38250021
 00542C 07FE                        7561          BCR   UNCOND,R14          BRANCH                               38256021
                                    7562 * ERROR MESSAGE PARAMETERS                                              38262021
                                    7563 *                                                                       38268021
                                    7564 *                                                                       38274021
 00542E C0                          7565 TDDMP1   DC    X'C0'                                                    38280021
 00542F 01500C                      7566          DC    X'01500C'                                                38286021
 005432 08                          7567          DC    X'08'                                                    38292021
 005433 0151C6                      7568          DC    X'0151C6'                                                38298021
 005436 40C3D6D4D4D6D540            7569          DC    C' COMMON '                                              38304021
 00543E C0                          7570          DC    X'C0'                                                    38310021
 00543F 016D9C                      7571          DC    X'016D9C'                                                38316021
 005442 08                          7572          DC    X'08'                                                    38322021
 005443 016F84                      7573          DC    X'016F84'                                                38328021
 005446 4040E3C1D4D4E240            7574          DC    C'  TAMMS '                                              38334021
 00544E C0                          7575          DC    X'C0'                                                    38340021
 00544F 020000                      7576          DC    X'020000'           MAIN FREE AREA                       38346021
 005452 04                          7577          DC    X'04'                                                    38352021
 005453 03FFFF                      7578          DC    X'03FFFF'                                                38358021
 005456 E3C1C240C4C9C3E3            7579          DC    C'TAB DICT'                                              38364021
                                    7580 * NORMALIZATION OF LEVEL NUMBERS--BNORML                                38370021
                                    7581 * THIS ROUTINE TAKES THE UNNORMALIZED SOURCE LEVEL NUMBER IN REGIST     38376021
                                    7582 * AND CONVERTS IT TO A NORMALIZED LEVEL NUMBER PUTTING IT BACK IN       38382021
                                    7583 * REGISTER 3. THE SOURCE LEVEL NUMBERS ARE NORMALIZED TO FACILITATE     38388021
                                    7584 * MOVE CORRESPONDING VERB IN THE 360 COBOL COMPILER.                    38394021
                                    7585 * THE SOURCE LEVEL NUMBERS  01   WOULD BE NORMALIZED TO 01              38400021
                                    7586 *                            06                          02             38406021
                                    7587 *                             07                          03            38412021
1PH20     IKFCBL20                                                                                              PAGE  182
-  LOC  OBJECT CODE    ADDR1 ADDR2  STMT   SOURCE STATEMENT                                       ASM 0201 11.03 02/14/15
0                                   7588 *                             07                          03            38418021
                                    7589 *                            05                          02             38424021
                                    7590 *                                                                       38430021
                                    7591 * THE CALLING SEQUENCE TO THIS ROUTINE IS                               38436021
                                    7592 *      L     R15,ANORML       ANORML IS ADDRESS CONSTANT OF BNORML      38442021
                                    7593 *      BALR  14,15                                                      38448021
                                    7594 *      L     15,GR15          GR15 IS SAVE AREA FOR REGISTER 15         38454021
                                    7595 *                                                                       38460021
                                    7596 *                                                                       38466021
                                    7597 *                                                                       38472021
                             0545E  7598        USING *,R15                                                      38478021
 00545E 9046 D998      0BED8        7599 BNORML   STM   R4,R6,RSAVE+NX12    SAVE REGISTERS                       38484021
 005462 1B44                        7600        SR    R4,R4            R4 USED AS TABLE INDEX REG                38490021
 005464 1B55                        7601        SR    R5,R5            CLEAR REGS 4 AND 5                        38496021
 005466 4160 D24B      0B78B        7602          LA    R6,BLNTAB                                                38502021
 00546A 4354 6000      00000        7603 BCOMLN   IC    R5,DX0(R4,R6)   INSERT TABLE VALUE INTO R5 AND           38508021
 00546E 5950 D3F4      0B934        7604        C     R5,ZEROS           CHECK IF IT IS ZERO                     38514021
 005472 4780 F032      05490        7605        BC    EQ,BEMPTY          BRANCH IF ZERO                          38520021
 005476 1953                        7606          CR    R5,R3               IF NOT 0 COMPARE TABLE VALUE TO      38526021
 005478 4740 F044      054A2        7607          BC    LO,BINCRM           LEVEL NO. IN R3. IF TABLE VALUE      38532021
 00547C 4234 6000      00000        7608          STC   R3,DX0(R4,R6)        LEVEL NO. BRANCH ELSE REPLACE TA    38538021
 005480 4134 0001      00001        7609          LA    R3,DX1(R4)           VALUE BY LN AND LOAD R3 W/NORM.     38544021
 005484 5930 DA2C      0BF6C        7610        C     R3,NSAVE           WHICH IS R4+1. BSAVE CONTAINS MAX T     38550021
 005488 4740 F04C      054AA        7611          BC    LO,BCLEAR           INDEX USED, IF BSAVE CURRENT TAB     38556021
 00548C 47F0 F03E      0549C        7612        BC    UNCOND,BLEAVE      BRANCH, ELSE LEAVE R+N.                 38562021
 005490 4236 4000      00000        7613 BEMPTY   STC   R3,DX0(R6,R4)   REPLACE TABLE VALUE BY SOURCE LEVEL N    38568021
 005494 4134 0001      00001        7614          LA    R3,DX1(R4,R0)    LOAD NORM. LN INTO R3                   38574021
 005498 5030 DA2C      0BF6C        7615 BTABX  ST    R3,NSAVE         SAVE INDEX TABLE VALUE                    38580021
 00549C 9846 D998      0BED8        7616 BLEAVE   LM    R4,R6,RSAVE+NX12     RESTORE REGISTERS                   38586021
 0054A0 07FE                        7617        BCR   UNCOND,R14       RETURN TO MAIN PROGRAM                    38592021
 0054A2 4144 0001      00001        7618 BINCRM   LA    R4,DX1(R4,R0)    INCREMENT TABLE INDEX REG.              38598021
 0054A6 47F0 F00C      0546A        7619        BC    UNCOND,BCOMLN         BRANCH TO INSERT NEXT TABLE VAL      38604021
 0054AA 5850 DA2C      0BF6C        7620 BCLEAR L     R5,NSAVE         FIND NUMBER OF BYTES TO BE CLEARED OU     38610021
 0054AE 1B53                        7621        SR    R5,R3            IN TABLE                                  38616021
 0054B0 0650                        7622        BCTR  R5,R0             DECREMENT NO. OF BYTES BY 1 FOR VALI     38622021
 0054B2 1A64                        7623        AR    R6,R4            IN MVC INST                               38628021
 0054B4 9200 6001      00001        7624          MVI   DX1(R6),XX00    MOVE ZERO INTO FIRST BYTE TO BE CLEAR    38634021
 0054B8 4450 F062      054C0        7625        EX    R5,BCLRTB        EXECUTE CLEAR (BCLRTB)                    38640021
 0054BC 47F0 F03A      05498        7626        BC    UNCOND,BTABX          BRANCH TO SAVE NDEX TABL VALUE       38646021
 0054C0 D200 6002 6001 00002 00001  7627 BCLRTB   MVC   DX2(LX0,R6),DX1(R6)                                      38652021
1PH20     IKFCBL20                                                                                              PAGE  183
-  LOC  OBJECT CODE    ADDR1 ADDR2  STMT   SOURCE STATEMENT                                       ASM 0201 11.03 02/14/15
0                                   7629 *=1   DICTIONARY BUILD ROUTINE (DICTBD)                                 38664021
                                    7630 *                                                                       38670021
                                    7631 *  THE DICTIONARY BUILD ROUTINES (DICTBD) ACCEPT THE INCOMPLETE DIC     38676021
                                    7632 *    IONARY ENTRY FROM THE SYNTAX SCAN ROUTINE. THE DICTIONARY BUIL     38682021
                                    7633 *    ROUTINE  PERFORMS THE FOLLOWING FUNCTIONS --                       38688021
                                    7634 *    1.  ASSIGNS ADDRESSING PARAMETERS (ADPAR)                          38694021
                                    7635 *    2.  CALCULATES THE LENGTHS OF FIXED LENGTH GROUP ITEMS (XTEN)      38700021
                                    7636 *    3.  MAKES ALL DICTIONARY ENTRIES USING ACCESS ROUTINES.            38706021
                                    7637 *    4.  PERFORMS SYNTAX CHECKS FOR REDEFINES. SETS THE ADDRESSING      38712021
                                    7638 *        PARAMETERS OF THE REDEFINING TO THAT OF THE REDEFINED. (RE     38718021
                                    7639 *    5.  GENERATES OBJECT-TIME Q-ROUTINES FOR CALCULATING LENGTHS O     38724021
                                    7640 *        VARIABLE LENGTH GROUPS .                                       38730021
                                    7641 *    6.  DETERMINES THAT THE LITERALS ASSOCIATED WITH THE VALUE CLA     38736021
                                    7642 *        CONFORMS TO THE ATTRIBUTES AND PADDING OR TRUNCATION IS DO     38742021
                                    7643 *        WHEN NECESSARY. (VALGEN)                                       38748021
                                    7644 *                                                                       38754021
                                    7645 *                                                                       38760021
                                    7646 *                                                                       38766021
                                    7647 *                                                                       38772021
 0054C8                             7648 IKF208 CSECT                                                            38778021
                             054C8  7649        USING *,R15                                                      38784021
 0054C8 50F0 D9C8      0BF08        7650 DICTBD   ST    R15,RS15                                                 38790021
 0054CC 900D D9D8      0BF18        7651          STM   R0,R13,BSAVE                                             38796021
 0054D0 58B0 DB84      0C0C4        7652          L     RCOM,COSADR         ADDRESS OF COMMON IN REGISTER RC     38802021
 0054D4 50E0 D9D4      0BF14        7653          ST    R14,RETURN                                               38808021
 0054D8 9120 D5AA      0BAEA        7654 DIC010   TM    FSTSW,XX20           IS IT END OF FILE SECTION.          38814021
 0054DC 4780 F066      0552E        7655          BC    ZERO,DIC008         GO TO NO CHECK FOR REDEF             38820021
 0054E0 9180 D5AA      0BAEA        7656          TM    FSTSW,XX80           YES, WAS THERE AN FD, SD, OR SA     38826021
 0054E4 4780 F024      054EC        7657          BC    ZERO,*+NX8           NO, BRANCH AROUND DELIMIT           38832021
 0054E8 4540 F102      055CA        7658          BAL   R4,DIC19A           YES, CALL ENTER DELIMITOR            38838021
 0054EC 58F0 DBC8      0C108        7659 SKIPBAL  L     R15,ADICTB                                               38844021
 0054F0 45E0 FE50      06318        7660          BAL   R14,ADP049          RESOLVE BASE LOCTR'S FOR LAST FD     38850021
 0054F4 D200 DF00 D76F 0C440 0BCAF  7661          MVC   WKAR(LX1),MCI        SAVE MAJOR CODE                     38856021
 0054FA D100 D76F D7A0 0BCAF 0BCE0  7662          MVN   MCI(LX1),PCOUNT      REPLACE WITH LAST MAJOR CODE        38862021
 005500 45E0 F1E2      056AA        7663          BAL   R14,DIC060          RESOLVE = OF BASE LOC'D              38868021
 005504 D200 D76F DF00 0BCAF 0C440  7664          MVC   MCI(LX1),WKAR        RESTORE CURRENT MAJOR CODE          38874021
 00550A 9505 D76F      0BCAF        7665          CLI   MCI,XX05             IF WORKING-STORAGE OR REPORT        38880021
 00550E 4780 F058      05520        7666          BC    EQ,DIC006            SECTION , AND LAST WAS FD           38886021
 005512 9504 D76F      0BCAF        7667          CLI   MCI,XX04              TAKE 1 OFF NO. OF BL'S SINCE       38892021
 005516 4740 F058      05520        7668          BC    LO,DIC006            BL CTR WAS IP'D BY SECTION          38898021
 00551A 0620                        7669        BCTR  R2,R0                 DECREASE R2 BY 1                     38904021
 00551C 4220 DEDB      0C41B        7670          STC   R2,FDBLN                                                 38910021
 005520 58F0 DC48      0C188        7671 DIC006   L     R15,AFSEND                                               38916021
 005524 05EF                        7672          BALR  R14,R15             GO TO PRIME ROUTINE                  38922021
 005526 58F0 DBC8      0C108        7673          L     R15,ADICTB                                               38928021
 00552A 94FE D5AE      0BAEE        7674          NI    XTNSBL,XXFE          TURN OFF SW IF SET ON BY FSEND      38934021
 00552E 9534 D688      0BBC8        7675 DIC008   CLI   CILEV,XX34           DO NOT CHECK FOR REDEF IF FD,SD,    38940021
 005532 47B0 F0C0      05588        7676          BC    NOTLO,DIC018        BRANCH TO LOOK AT CI LEVEL           38946021
 005536 9101 D60D      0BB4D        7677 DIC011   TM    MINCOD,XX01          IS CI REDEFINING A PREVIOUS ITEM    38952021
 00553A 4780 F0C0      05588        7678          BC    ZERO,DIC018            NO.                               38958021
 00553E 9120 D54B      0BA8B        7679          TM    FES,XX20             PRIME THE REDEFINE TABLES IF NEE    38964021
 005542 4710 F0B6      0557E        7680          BC    ONES,DIC012         BRANCH IF TABLES ARE PRIMED .        38970021
 005546 4110 DAC4      0C004        7681          LA    R1,RNMPAR              REDEFINE NAME TABLE.              38976021
 00554A 58F0 DCE4      0C224        7682          L     R15,BPRIME                                               38982021
 00554E 05EF                        7683          BALR  R14,R15             GO TO PRIME ROUTINE                  38988021
1PH20     IKFCBL20                                                                                              PAGE  184
-  LOC  OBJECT CODE    ADDR1 ADDR2  STMT   SOURCE STATEMENT                                       ASM 0201 11.03 02/14/15
0005550 58F0 DCE8      0C228        7684          L     R15,BINSRT          MAKE A DUMMY RNMTBL ENTRY.           38994021
 005554 5810 DAC4      0C004        7685          L     R1,RNMPAR                                                39000021
 005558 05EF                        7686          BALR  R14,R15             GO TO INSERT ROUTINE                 39006021
 00555A D704 2000 2000 00000 00000  7687          XC    DX0(LX5,R2),DX0(R2)                                      39012021
 005560 4110 DABC      0BFFC        7688          LA    R1,RDFPAR              REDEFINE STACK.                   39018021
 005564 58F0 DCE4      0C224        7689          L     R15,BPRIME                                               39024021
 005568 05EF                        7690          BALR  R14,R15             GO TO PRINE ROUTINE                  39030021
 00556A 58F0 DCE8      0C228        7691          L     R15,BINSRT          MAKE A DUMMY RDFSTK ENTRY.           39036021
 00556E 5810 DABC      0BFFC        7692          L     R1,RDFPAR                                                39042021
 005572 05EF                        7693          BALR  R14,R15             GO TO ENTRY LENGTH IN BYTES          39048021
 005574 D70B 2000 2000 00000 00000  7694          XC    DX0(LX12,R2),DX0(R2)                                     39054021
 00557A 9620 D54B      0BA8B        7695          OI    FES,XX20                                                 39060021
 00557E 58F0 DC2C      0C16C        7696 DIC012   L     R15,AREDEF          CALL REDEF FOR REDEFINES PROCESS     39066021
 005582 05EF                        7697          BALR  R14,R15             GO TO REDEF                          39072021
 005584 58F0 D9C8      0BF08        7698          L     R15,RS15                                                 39078021
 005588 9531 D688      0BBC8        7699 DIC018   CLI   CILEV,XX31           IS CI LEVEL BETWEEN 01 AND 49.      39084021
 00558C 47D0 F11A      055E2        7700          BC    NOTHI,DIC020        GO TO SEE IF CI IS GROUP ITEM        39090021
 005590 9534 D688      0BBC8        7701          CLI   CILEV,XX34                                               39096021
 005594 4740 F1BE      05686        7702          BC    LO,DIC050           GO TO SPECIAL ITEM PROCESSING        39102021
 005598 9180 D5AA      0BAEA        7703          TM    FSTSW,XX80           IS THIS 1ST FD,SD,SA                39108021
 00559C 4780 F0DC      055A4        7704          BC    ZERO,DIC019         YES, BRANCH                          39114021
 0055A0 4540 F102      055CA        7705          BAL   R4,DIC19A           NO , CALL ENTER DELIMITOR            39120021
 0055A4 58F0 DC54      0C194        7706 DIC019   L     R15,AFST00          CALL ROUTINE FST000 TO PROCESS       39126021
 0055A8 05EF                        7707          BALR  R14,R15              FD, SD, SA, RD                      39132021
 0055AA 58F0 DBC8      0C108        7708          L     R15,ADICTB                                               39138021
 0055AE D203 DF68 D684 0C4A8 0BBC4  7709          MVC   LASTDP(LX4),DICTPT   MOVE CURRENT DICT. PTR. TO LAST     39144021
                                    7710 *                                   DICT. PTR                           39150021
 0055B4 9536 D688      0BBC8        7711          CLI   SRCELN,XX36          IS THIS SD                          39156021
 0055B8 4770 F0F8      055C0        7712          BNE   DIC19Y              NO                                   39162021
 0055BC 9201 D7A0      0BCE0        7713          MVI   PCOUNT,XX01          YES, IN CASE NO 01                  39168021
 0055C0 980D D9D8      0BF18        7714 DIC19Y   LM    R0,R13,BSAVE        RESTORE REGS                         39174021
 0055C4 58E0 D9D4      0BF14        7715          L     R14,RETURN                                               39180021
 0055C8 07FE                        7716          BCR   UNCOND,R14          RETURN TO CALLER                     39186021
 0055CA D203 DDD4 DF68 0C314 0C4A8  7717 DIC19A   MVC   PARAM(LX4),LASTDP    NO, ENTER DELIMITOR ON LAST FD,S    39192021
 0055D0 D203 DDD8 D684 0C318 0BBC4  7718          MVC   PARAM1(LX4),DICTPT    WITH CURRENT DICT. PTR.            39198021
 0055D6 4110 DDD4      0C314        7719          LA    R1,PARAM                                                 39204021
 0055DA 58F0 DBF8      0C138        7720          L     R15,AENTDE                                               39210021
 0055DE 05EF                        7721          BALR  R14,R15             GO TO ENTDEL:STORES DELIM            39216021
 0055E0 07F4                        7722          BCR   UNCOND,R4           BRANCH                               39222021
                                    7723 *                                                                       39228021
                                    7724 *  IS CI A GROUP ITEM.                                                  39234021
 0055E2 1B11                        7725 DIC020   SR    R1,R1                                                    39240021
 0055E4 4310 D60D      0BB4D        7726          IC    R1,MINCOD                                                39246021
 0055E8 8810 0004      00004        7727          SRL   R1,DX4(R0)                                               39252021
 0055EC 5910 D3F8      0B938        7728          C     R1,ONE                                                   39258021
 0055F0 4780 F19C      05664        7729          BC    EQ,DIC030           GROUP ITEM,(FIXED LENGTH)            39264021
 0055F4 5910 D404      0B944        7730          C     R1,FOUR                                                  39270021
 0055F8 4780 F19C      05664        7731          BC    EQ,DIC030           GROUP ITEM. (VAR. LENGTH)            39276021
                                    7732 *                                                                       39282021
                                    7733 *  ELEMENTARY ITEM, CALL ELIPR ROUTINE FOR PROCESSING.                  39288021
                                    7734 *                                                                       39294021
 0055FC 58F0 DC0C      0C14C        7735          L     R15,AELIPR                                               39300021
 005600 05EF                        7736          BALR  R14,R15             PROCESS CI WHICH ARE ELEMENTRY       39306021
 005602 58F0 DBC8      0C108        7737          L     R15,ADICTB                                               39312021
 005606 9534 D5B7      0BAF7        7738          CLI   NXTLEV,XX34          IF NEXT ITEM IS A FD, GO TO PROC    39318021
1PH20     IKFCBL20                                                                                              PAGE  185
-  LOC  OBJECT CODE    ADDR1 ADDR2  STMT   SOURCE STATEMENT                                       ASM 0201 11.03 02/14/15
000560A 4780 F152      0561A        7739          BC    EQ,DIC022           RD                                   39324021
 00560E 4740 F15A      05622        7740          BC    LO,DIC023           SET UP FOR DICT BUILD RTN            39330021
 005612 9506 D76F      0BCAF        7741          CLI   MCI,XX06             IF REPORT SECTION NAND RD           39336021
 005616 4780 F192      0565A        7742          BC    EQ,DIC025            RETURN (RSDUP-TEXT)                 39342021
 00561A 45E0 FE50      06318        7743 DIC022   BAL   R14,ADP049          RESOLVE BASE LOCATOR COUNTERS        39348021
 00561E 45E0 F1E2      056AA        7744          BAL   R14,DIC060          GO TO GET NO. BL'S FOR FD            39354021
 005622 58F0 DBC8      0C108        7745 DIC023   L     R15,ADICTB                                               39360021
 005626 9110 DFB8      0C4F8        7746          TM    TBLSW,XX10           SUBJECT OF TABLE                    39366021
 00562A 4780 F192      0565A        7747          BZ    DIC025              N/                                   39372021
 00562E 9500 DFD7      0C517        7748          CLI   NUMKEY,XX00                                              39378021
 005632 4780 F18C      05654        7749          BE    DIC024              NO                                   39384021
 005636 4800 DFAC      0C4EC        7750          LH    R0,MSG17                                                 39390021
 00563A 58F0 DBC0      0C100        7751          L     R15,AERRTN                                               39396021
 00563E 05EF                        7752          BALR  R14,R15             CALL ERROR ROUTINE                   39402021
 005640 5810 DB34      0C074        7753          L     R1,ATBLSH                                                39408021
 005644 5811 0000      00000        7754          L     R1,DX0(R1)                                               39414021
 005648 5811 0000      00000        7755          L     R1,DX0(R1)                                               39420021
 00564C 4A10 DFA0      0C4E0        7756          AH    R1,IDDISP                                                39426021
 005650 9601 1004      00004        7757          OI    DX4(R1),KEYERR       SET FLAG ON FOR PHASE3              39432021
 005654 58F0 DC94      0C1D4        7758 DIC024   L     R15,ASR200          YES                                  39438021
 005658 05EF                        7759          BALR  R14,R15             GET ID NO.,LENGTH OF INDEX NAME      39444021
 00565A 980D D9D8      0BF18        7760 DIC025   LM    R0,R13,BSAVE                                             39450021
 00565E 58E0 D9D4      0BF14        7761          L     R14,RETURN                                               39456021
 005662 07FE                        7762          BR    R14                 BRANCH                               39462021
                                    7763 *                                                                       39468021
                                    7764 *  GROUP ITEM, CALL GRIPR ROUTINE FOR PROCESSING.                       39474021
                                    7765 *                                                                       39480021
 005664 58F0 DC10      0C150        7766 DIC030   L     R15,AGRIPR                                               39486021
 005668 05EF                        7767          BALR  R14,R15             LNK TO ADDR IN REG 15                39492021
 00566A 58F0 DBC8      0C108        7768          L     R15,ADICTB                                               39498021
 00566E 9110 DFB8      0C4F8        7769          TM    TBLSW,XX10           SUBJECT OF TABLE                    39504021
 005672 4780 F1B4      0567C        7770          BZ    DIC035              N/                                   39510021
 005676 58F0 DC94      0C1D4        7771          L     R15,ASR200          YES                                  39516021
 00567A 05EF                        7772          BALR  R14,R15             GET ID NO.,LENGTH OF INDEX NAME      39522021
 00567C 980D D9D8      0BF18        7773 DIC035   LM    R0,R13,BSAVE                                             39528021
 005680 58E0 D9D4      0BF14        7774          L     R14,RETURN                                               39534021
 005684 07FE                        7775          BCR   UNCOND,R14          EXIT.                                39540021
                                    7776 *                                                                       39546021
                                    7777 *  LEVEL NO. IS 77 OR 88-- GO TO SPECIAL ITEM PROCESSING (SPIR)         39552021
                                    7778 *                                                                       39558021
 005686 58F0 DC30      0C170        7779 DIC050   L     R15,ASPIR                                                39564021
 00568A 05EF                        7780          BALR  R14,R15             GO TO SPECIAL ITEM PROCESSING        39570021
 00568C 58F0 DBC8      0C108        7781          L     R15,ADICTB                                               39576021
 005690 9534 D5B7      0BAF7        7782          CLI   NXTLEV,XX34          IF NEXT ITEM IS A FD, GO TO PROC    39582021
 005694 4740 F1D8      056A0        7783          BC    LO,DIC051           BRANCH                               39588021
 005698 45E0 FE50      06318        7784          BAL   R14,ADP049          BRANCH                               39594021
 00569C 45E0 F1E2      056AA        7785          BAL   R14,DIC060          BRANCH                               39600021
 0056A0 980D D9D8      0BF18        7786 DIC051   LM    R0,R13,BSAVE                                             39606021
 0056A4 58E0 D9D4      0BF14        7787          L     R14,RETURN                                               39612021
 0056A8 07FE                        7788          BCR   UNCOND,R14          EXIT.                                39618021
 0056AA 1B11                        7789 DIC060   SR    R1,R1               GET NO. OF BASE LOCATORS FOR FD      39624021
 0056AC 9105 D76F      0BCAF        7790          TM    MCI,XX05          FD?                                    39630021
 0056B0 47B0 F20A      056D2        7791          BNM   DIC062             YES.                                  39636021
                                    7792 *                                  FOR SD SAME  REC AREA INCRE BLN      39642021
 0056B4 9500 D468      0B9A8        7793          CLI   SRANO,XX00          SD SRA INDICATED ?                   39648021
1PH20     IKFCBL20                                                                                              PAGE  186
-  LOC  OBJECT CODE    ADDR1 ADDR2  STMT   SOURCE STATEMENT                                       ASM 0201 11.03 02/14/15
00056B8 4770 F20A      056D2        7794          BNE   DIC062              YES, FIND OUT BLN                    39654021
 0056BC 4310 DEDA      0C41A        7795          IC    R1,SDBLL            NO,  SD                              39660021
 0056C0 4820 B17E      0017E        7796          LH    R2,BLLCTR                                                39666021
 0056C4 1B21                        7797          SR    R2,R1               = BLL = LAST BLL- FIRST BLL +1       39672021
 0056C6 5A20 D3F8      0B938        7798          A     R2,ONE                                                   39678021
 0056CA 4220 DEDC      0C41C        7799          STC   R2,SDBLN                                                 39684021
 0056CE 47F0 F220      056E8        7800          BC    UNCOND,DIC064       BRANCH                               39690021
 0056D2 58F0 DBC8      0C108        7801 DIC062   L     R15,ADICTB                                               39696021
 0056D6 4310 DF4A      0C48A        7802          IC    R1,FD+NX2                                                39702021
 0056DA 4820 B20C      0020C        7803          LH    R2,BLCTR                                                 39708021
 0056DE 1B21                        7804          SR    R2,R1               =BL = LAST BL - FIRST BL +1          39714021
 0056E0 5A20 D3F8      0B938        7805          A     R2,ONE                                                   39720021
 0056E4 4220 DEDB      0C41B        7806          STC   R2,FDBLN                                                 39726021
 0056E8 07FE                        7807 DIC064   BCR   UNCOND,R14          BRANCH                               39732021
1PH20     IKFCBL20                                                                                              PAGE  187
-  LOC  OBJECT CODE    ADDR1 ADDR2  STMT   SOURCE STATEMENT                                       ASM 0201 11.03 02/14/15
0                                   7809 *=2   EXTENT RESOLVE ROUTINE (XTEN)                                     39744021
                                    7810 *=E            WORKING-STORAGE SECT REQUIRES MORE THAN 131K.            39750021
                                    7811 *=E            DATA DIVISION SECT EXCEEDS 32K.                          39756021
                                    7812 *=E            OBJECT OF REDEFINES IS OF VARIABLE LENGTH.               39762021
                                    7813 *=E            LENGTH OF REDEFINES IS GREATER THAN ITS OBJECT'S.        39768021
                                    7814 *                                                                       39774021
                                    7815 *  XTEN ROUTINE IS CALLED TO PROCESS THE GROUP LENGTH STACK (GLS)       39780021
                                    7816 *     WHENEVER THE EXTENT OF A GROUP OR GROUPS IS TERMINATED.           39786021
                                    7817 *     LGS CONTAINS THE ADDRESS OF THE LAST ENTRY IN GLS.                39792021
                                    7818 *     INPUT  --  GROUP LENGTH STACK, A TAMMER TABLE.                    39798021
                                    7819 *     OUTPUT  --  GROUP LENGTH ARE PROPAGATED BACK TO HIGHER GROUPS     39804021
                                    7820 *                 AND LGS IS UPDATED TO POINT TO THE NEXT ITEM IN G     39810021
                                    7821 *                                                                       39816021
                             056EA  7822 XTEN     EQU   *                                                        39822021
 0056EA 50E0 D9D0      0BF10        7823          ST    R14,RS14B                                                39828021
 0056EE 58F0 DBC8      0C108        7824          L     R15,ADICTB          INITIALIZE R15 TO VALUE OF 1ST U     39834021
 0056F2 45E0 FAC0      05F88        7825        BAL   R14,XTN500            BRANCH                               39840021
 0056F6 58E0 D9D0      0BF10        7826        L     R14,RS14B                  RESTORE R14                     39846021
 0056FA D500 D688 9014 0BBC8 00014  7827          CLC   CILEV(LX1),DX20(R9)                                      39852021
 005700 072E                        7828          BCR   HI,R14              BRANCH                               39858021
 005702 D206 DEDF DEB9 0C41F 0C3F9  7829          MVC   APAFSV(LX7),APAF         SAVE APAF AS IT IS IN     42027 39864021
                                    7830 *  CASE IN REPT SECT & GRP BEING RESOLVED IN LNK SECT             42027 39870021
 005708 9180 9000      00000        7831 XTN001   TM    DX0(R9),XX80         IS BOUNDARY ALIGNMENT NECESSARY.    39876021
 00570C 4780 F25A      05722        7832          BC    ZERO,XTN000         NO CALL ACCESS                       39882021
 005710 58F0 DC00      0C140        7833        L     R15,ATASSR           IF IT IS, CALL TASSR FOR              39888021
 005714 909A DC6C      0C1AC        7834          STM   R9,R10,LGS                                               39894021
 005718 05EF                        7835        BALR  R14,R15                  BOUNDARY ALIGNMENT.               39900021
 00571A 58F0 DBC8      0C108        7836          L     R15,ADICTB          RESTORE REGISTER.                    39906021
 00571E 989A DC6C      0C1AC        7837        LM    R9,R10,LGS                                                 39912021
 005722 D202 DDD5 900D 0C315 0000D  7838 XTN000   MVC   PARAM+NX1(LX3),DX13(R9) CALL ACCESS                      39918021
 005728 9204 DDD4      0C314        7839          MVI   PARAM,XX04                                               39924021
 00572C 4110 DDD4      0C314        7840          LA    R1,PARAM                                                 39930021
 005730 58F0 DBE4      0C124        7841          L     R15,ALATRP                                               39936021
 005734 05EF                        7842          BALR  R14,R15             GO LOCATE ATTRIBUTES                 39942021
 005736 58F0 DBC8      0C108        7843          L     R15,ADICTB                                               39948021
 00573A 1B11                        7844          SR    R1,R1               CLEAR                                39954021
 00573C 4312 0000      00000        7845          IC    R1,DX0(R2)           GET MAJOR CODE                      39960021
 005740 5410 D4C8      0BA08        7846          N     R1,MK3032           GET RID OF OTHER BITS                39966021
 005744 4210 D81E      0BD5E        7847          STC   R1,PMCI                                                  39972021
 005748 D502 900A D3F4 0000A 0B934  7848          CLC   DX10(LX3,R9),ZEROS    SUBJECT OF REDEFINES               39978021
 00574E 4720 F83E      05D06        7849          BC    HI,XTN100              YES, BRANCH                       39984021
 005752 47F0 F2A6      0576E        7850          B     XTN10A              ALREADY LOCATED                      39990021
                                    7851 *                                                                       39996021
                                    7852 *  LGS NOT SUBJECT OF REDEFINED, AND IT IS FIXED LENGTH.                40002021
                                    7853 *                                                                       40008021
 005756 D202 DDD5 900D 0C315 0000D  7854 XTN010   MVC   PARAM+NX1(LX3),DX13(R9) CALL ACCESS FOR ATTRIB ADDRESS   40014021
 00575C 9204 DDD4      0C314        7855          MVI   PARAM,XX04           SET LATRPT CODE                     40020021
 005760 4110 DDD4      0C314        7856          LA    R1,PARAM                                                 40026021
 005764 58F0 DBE4      0C124        7857          L     R15,ALATRP                                               40032021
 005768 05EF                        7858          BALR  R14,R15             GO TO ACCESS RTN 'LATRPT'            40038021
 00576A 58F0 DBC8      0C108        7859          L     R15,ADICTB                                               40044021
                             0576E  7860 XTN10A   EQU    *                                                       40050021
 00576E 9501 9014      00014        7861          CLI   DX20(R9),XX01        SAVE 01 GROUP LENGTH IN EITHER      40056021
 005772 4770 F31A      057E2        7862          BC    NOTEQ,XTN014           MAXIM OR MINIM CELL.              40062021
 005776 9140 9001      00001        7863          TM    DX1(R9),XX40         WAS 01 A VAR. LGN. GROUP            40068021
1PH20     IKFCBL20                                                                                              PAGE  188
-  LOC  OBJECT CODE    ADDR1 ADDR2  STMT   SOURCE STATEMENT                                       ASM 0201 11.03 02/14/15
000577A 47E0 F2CC      05794        7864          BC    NOTONE,XTN011       NO                                   40074021
 00577E 924E D591      0BAD1        7865          MVI   QCALL+NX1,XX4E       YES, PUT OUT                        40080021
 005782 1852                        7866          LR    R5,R2               SAVE ATTRIBUTES ADDRESS DURING P     40086021
 005784 4120 D590      0BAD0        7867          LA    R2,QCALL              QRET3                              40092021
 005788 4130 0002      00002        7868          LA    R3,DX2                   ON                              40098021
 00578C 181B                        7869          LR    R1,R11                    FILE 2                         40104021
 00578E 0501                        7870          BALR  R0,R1               BRANCH                               40110021
 005790 12                          7871          DC    X'12'                                                    40116021
 005791 00
 005792 1825                        7872          LR    R2,R5               RESTORE ADDRESS OF ATTRIBUTES        40122021
 005794 5819 0000      00000        7873 XTN011   L     R1,DX0(R9)                                               40128021
 005798 5410 D4E8      0BA28        7874          N     R1,MK1632                                                40134021
 00579C 9140 9001      00001        7875          TM    DX1(R9),XX40         IF VARIABLE LGN GROUP               40140021
 0057A0 47E0 F2E4      057AC        7876          BC    NOTONE,XTN11A       GET LENGTH FROM MAX. LGN CELL        40146021
 0057A4 5819 0010      00010        7877          L     R1,DX16(R9)                                              40152021
 0057A8 9602 D893      0BDD3        7878          OI    BUFOPT,XX02                                              40158021
 0057AC 1841                        7879 XTN11A   LR    R4,R1               SAVE 01 LGN                          40164021
 0057AE 9140 D5A2      0BAE2        7880          TM    PLBLSW,XX40         LBL RCD?                             40170021
 0057B2 4710 F30A      057D2        7881          BO    XTNLBL1             BRANCH                               40176021
 0057B6 5510 DEB0      0C3F0        7882          CL    R1,MAXIM                                                 40182021
 0057BA 4740 F2FA      057C2        7883          BC    LO,XTN012           BRANCH                               40188021
 0057BE 5010 DEB0      0C3F0        7884          ST    R1,MAXIM            LONGEST RECORD LENGTH SO FAR.        40194021
 0057C2 5510 DEB4      0C3F4        7885 XTN012   CL    R1,MINIM                                                 40200021
 0057C6 4720 F31A      057E2        7886          BC    HI,XTN014           GO TO MOVE LGS ADD. PAR. TO DIC      40206021
 0057CA 5010 DEB4      0C3F4        7887          ST    R1,MINIM                                                 40212021
 0057CE 47F0 F31A      057E2        7888          B     XTN014              GO TO MOVE LGS ADD. PAR. TO DIC      40218021
 0057D2 5510 DEAC      0C3EC        7889 XTNLBL1  CL    R1,LBLMAX                                                40224021
 0057D6 4740 F31A      057E2        7890          BL    XTN014              GO TO MOVE LGS ADD. PAR. TO DIC      40230021
 0057DA 5010 DEAC      0C3EC        7891          ST    R1,LBLMAX                                                40236021
 0057DE 47F0 F31A      057E2        7892          B     XTN014              GO TO MOVE LGS ADD. PAR. TO DIC      40242021
 0057E2 D202 2002 9015 00002 00015  7893 XTN014   MVC   DX2(LX3,R2),DX21(R9)  MOVE LGS ADD. PAR. TO DICT. IN C   40248021
                                    7894 *                                   IT WAS CHANGED BECAUSE OF SLACK     40254021
 0057E8 D201 2007 9002 00007 00002  7895          MVC   DX7(LX2,R2),DX2(R9)  MOVE LGN OR VLC# INTO ATTRIB.       40260021
 0057EE 9140 9001      00001        7896          TM    DX1(R9),XX40             IS GRP VAR LGN            49549 40266021
 0057F2 4780 F356      0581E        7897          BC    ZERO,XTN14D                 NO, BR                 49549 40272021
 0057F6 5849 0010      00010        7898          L     R4,DX16(R9)              GET LGN OF VAR GRP        49549 40278021
 0057FA 5940 D478      0B9B8        7899          C     R4,CO4096                IS ONLY 1 BLL NEEDED      49549 40284021
 0057FE 47D0 F356      0581E        7900          BC    NOTHI,XTN14D              YES - 0 INDICATES THAT   49549 40290021
                                    7901 *  ONLY 1 BLL IS NEEDED; 1 INDICATES 2 BLLS, 2 INDICATES 3, ETC.  49549 40296021
 005802 8E40 0020      00020        7902 XTN14C   SRDA  R4,DX32                  CALCULATE NO.             49549 40302021
 005806 5D40 D478      0B9B8        7903          D     R4,CO4096                OF BLL'S NEEDED           49549 40308021
 00580A 1244                        7904          LTR   R4,R4                    FOR PHASE 51              49549 40314021
 00580C 4780 F34C      05814        7905          BC    ZERO,XTN14E               ENTRY CODING             49549 40320021
 005810 4155 0001      00001        7906          LA    R5,DX1(R5)               NO BLLS NEEDED IN R5      49549 40326021
 005814 0650                        7907 XTN14E   BCTR  R5,R0                    SUBT 1 AND PUT            49549 40332021
 005816 8950 0004      00004        7908          SLL   R5,DX4                   IN DICT ( NEXT TO         49549 40338021
 00581A 4450 F398      05860        7909          EX    R5,SETBLL                      VLC NO. )           49549 40344021
                             0581E  7910 XTN14D   EQU   *                                                  49549 40350021
 00581E 9108 9000      00000        7911          TM    DX0(R9),XX08         VALUE ON GROUP                      40356021
 005822 4780 F46E      05936        7912          BZ    XTN13D              NO                                   40362021
 005826 9501 9014      00014        7913          CLI   DX20(R9),XX01        IS THIS 01                          40368021
 00582A 4780 F374      0583C        7914          BE    XTN14A              YES, DIN'T NEED NEXT CHECK           40374021
 00582E 1819                        7915          LR    R1,R9                                                    40380021
 005830 5B10 D444      0B984        7916          S     R1,CON24            POINT TO PRIOR ENTRY                 40386021
 005834 9108 1000      00000        7917          TM    DX0(R1),XX08         VALUE ON PREVIOUS GROUP             40392021
1PH20     IKFCBL20                                                                                              PAGE  189
-  LOC  OBJECT CODE    ADDR1 ADDR2  STMT   SOURCE STATEMENT                                       ASM 0201 11.03 02/14/15
0005838 4710 F46E      05936        7918          BO    XTN13D              BRANCH                               40398021
                             0583C  7919 XTN14A   EQU   *                                                  07762 40404021
 00583C 9140 9001      00001        7920          TM    DX1(R9),XX40  VAR LGN GRP?                         07762 40410021
 005840 4780 F386      0584E        7921          BC    ZERO,XTN14A1  NO                                   07762 40416021
 005844 4560 FAE0      05FA8        7922          BAL   R6,XTNERR     YES - IGNORE VALUE ON VAR LGN GRP    07762 40422021
 005848 10D3                        7923          DC    X'10D3'       MSG 211                              07762 40428021
 00584A 47F0 F46E      05936        7924          BC    UNCOND,XTN13D SKIP VALUE ON GRP PROCESSING         07762 40434021
 00584E 91FF 9023      00023        7925 XTN14A1  TM    DX35(R9),XXFF USAGE OTHER THAN DISPLAY?            07762 40440021
 005852 4780 F39C      05864        7926          BZ    XTN14B              NO                                   40446021
 005856 4560 FAE0      05FA8        7927          BAL   R6,XTNERR           YES, ERROR                           40452021
 00585A 20C0                        7928          DC    X'20C0'             MSG 192                              40458021
 00585C 47F0 F46E      05936        7929          B     XTN13D              GO TO TEST FOR 88 UNDER GROUP        40464021
 005860 9600 2007      00007        7930 SETBLL   OI    DX7(R2),XX00             NO OF BLLS FOR VAR GRP    49549 40470021
 005864 5810 DB5C      0C09C        7931 XTN14B   L     R1,AVALGR                                                40476021
 005868 5811 0000      00000        7932          L     R1,DX0(R1)                                               40482021
 00586C 5811 0000      00000        7933          L     R1,DX0(R1)                                               40488021
 005870 4A19 001E      0001E        7934          AH    R1,DX30(R9)          POINT TO PROPER ENTRY               40494021
 005874 D201 1005 9002 00005 00002  7935          MVC   DX5(LX2,R1),DX2(R9)   INSERT LENGTH                      40500021
                                    7936 *                                  CHECK IF FIG CONSTANT          38302 40506021
 00587A 91FF 1004      00004        7937          TM    DX4(R1),XXFF        ALL CONSTANT (FIG. CONT.)      38302 40512021
 00587E 4710 F41E      058E6        7938          BO    XTN13B              GO TO PROCESS FOR FIG. CONST   38302 40518021
 005882 D201 DEEC 9002 0C42C 00002  7939          MVC   ADDRES(LX2),DX2(R9) MOVE GROUP LENGTH              38302 40524021
 005888 D501 DEEC D3F4 0C42C 0B934  7940          CLC   ADDRES(LX2),ZEROS        IS GRP LGN 0              03746 40530021
 00588E 4770 F3DA      058A2        7941          BNE   XTN14BB                   NO, BR                   03746 40536021
 005892 D200 9003 1007 00003 00007  7942          MVC   DX3(LX1,R9),DX7(R1)      YES-MAKE GRP LGN          03746 40542021
 005898 D200 2008 1007 00008 00007  7943          MVC   DX8(LX1,R2),DX7(R1)      EQUAL TO LITERAL          03746 40548021
 00589E 47F0 F40E      058D6        7944          B     XTN13AA                  LGN IN GPLSTK AND         03746 40554021
                                    7945 *         VALGRP TABLES AND ISSUE MESSAGE                         03746 40560021
 0058A2 1B66                        7946 XTN14BB  SR    R6,R6                     INSERT LITERAL LGN       03746 40566021
 0058A4 4361 0007      00007        7947          IC    R6,DX7(R1)          TO COMPARE LENGTH OF LIT AND   38302 40572021
 0058A8 4960 DEEC      0C42C        7948          CH    R6,ADDRES           GOUP LENGTH                    38302 40578021
 0058AC 4780 F41E      058E6        7949          BE    XTN13B              YES                                  40584021
 0058B0 4740 F406      058CE        7950          BL    XTN13A              LESS                                 40590021
                                    7951 * LITERAL IS LONGER THAN GROUP                                          40596021
                                    7952 * TRUNCATE LITERAL                                                      40602021
 0058B4 4560 FAE0      05FA8        7953          BAL   R6,XTNERR           GO GENERATE                          40608021
 0058B8 107E                        7954          DC    X'107E'             MSG 126                              40614021
 0058BA D201 DEEC 9002 0C42C 00002  7955          MVC   ADDRES(LX2),DX2(R9)                                      40620021
 0058C0 4860 DEEC      0C42C        7956          LH    R6,ADDRES                                                40626021
 0058C4 D200 1007 9003 00007 00003  7957          MVC   DX7(LX1,R1),DX3(R9)   CHANGE LENGTH OF LITERAL           40632021
 0058CA 47F0 F424      058EC        7958          B     XTN13C              BRANCH                               40638021
 0058CE 95FF 1004      00004        7959 XTN13A   CLI   DX4(R1),XXFF         ALL FIG CONSTANT                    40644021
 0058D2 4780 F41E      058E6        7960          BE    XTN13B              YES                                  40650021
                                    7961 * LITERAL IS LESS THAN GROUP LENGTH                                     40656021
                                    7962 * LENGTH OF LITERAL ASSUMED                                             40662021
 0058D6 4560 FAE0      05FA8        7963 XTN13AA  BAL   R6,XTNERR                   GO GENERATE            03746 40668021
 0058DA 108D                        7964          DC    X'108D'             MSG 141                              40674021
 0058DC 9200 1005      00005        7965          MVI   DX5(R1),XX00                                             40680021
 0058E0 D200 1006 1007 00006 00007  7966          MVC   DX6(LX1,R1),DX7(R1)   CHANGE LENGTH TO LITERAL LENGTH    40686021
 0058E6 1B66                        7967 XTN13B   SR    R6,R6                                                    40692021
 0058E8 4361 0007      00007        7968          IC    R6,DX7(R1)                                               40698021
 0058EC 91FF 1004      00004        7969 XTN13C   TM    DX4(R1),XXFF         ALL                                 40704021
 0058F0 4710 F432      058FA        7970          BO    XTN13G              BRANCH                               40710021
 0058F4 0660                        7971          BCTR  R6,R0               NO, DELETE 2ND COUNT                 40716021
 0058F6 4460 F67E      05B46        7972          EX    R6,XTNLIT                                                40722021
