1PH70                                           EXTERNAL SYMBOL DICTIONARY                                      PAGE    1
-SYMBOL   TYPE  ID   ADDR  LENGTH LDID                                                            ASM 0201 11.03 02/14/15
0IEQCOB70  LD       00000C        0001
 PH7       LD       00000C        0001
 IKF701    SD  0001 000000 000BB8
 IKF702    SD  0002 000BB8 000DB0
 IKF703    SD  0003 001968 000C89
 IKF705    SD  0004 0025F8 000B86
 IKF704    SD  0005 003180 000E3C
 IKF706    SD  0006 003FC0 000F1A
 IKF707    SD  0007 004EE0 00168A
 IKF708    SD  0008 006570 00041E
 IKF709    SD  0009 006990 000F1C
 IKF710    SD  000A 0078B0 0010DC
 IKF711    SD  000B 008990 0004D2
 IKF712    SD  000C 008E68 000BA4
 IKF713    SD  000D 009A10 000E70
 IKF714    SD  000E 00A880 000000
1PH70                                                                                                           PAGE    2
-  LOC  OBJECT CODE    ADDR1 ADDR2  STMT   SOURCE STATEMENT                                       ASM 0201 11.03 02/14/15
0                                      1 *$MODULE       PHASE7                                                   00010021
                                       2 *      START OF ERRMSG LOAD                                             00020021
                                       3        ENTRY IEQCOB70                                                   00030021
                                       4        ENTRY PH7                                                        00040021
                                       5        PRINT  ON,GEN,DATA                                               00050021
                                       6        IHBCOB                                                           00060021
                                       7+*     THIS IS A MACRO GENERATING COBOL COMMON AS A DSECT USED
                                       8+*      BY EVERY PHASE OF THE COBOL COMPILER
                                       9+*
                                      10+***********************************************************************
                                      11+*      COMMON - THE COMMUNICATIONS AREA
                                      12+***********************************************************************
                                      13+*      THIS TABLE IS LOCATED IN PH0 FOLLOWING THE ENTRY POINT- COS.
                                      14+*      AT ENTRY TO EACH PHASE R1 POINTS TO THE SLOT CONTAINING COSADDR.
 000000                               15+COS    DSECT
 000000                               16+       DS    3F          EXECUTABLE CODE IN PH0
 00000C                               17+TIB0     DS    2F
 000014                               18+TIB1     DS    2F
 00001C                               19+TIB2     DS    2F
 000024                               20+TIB3     DS    2F
 00002C                               21+TIB4     DS    2F
 000034                               22+TIB5     DS    2F
 00003C                               23+TIB6     DS    2F
 000044                               24+TIB7     DS    2F
 00004C                               25+TIB8     DS    2F
 000054                               26+TIB9     DS    2F
 00005C                               27+TIB10    DS    2F
 000064                               28+TIB11    DS    2F
 00006C                               29+TIB12    DS    2F
 000074                               30+TIB13    DS    2F
 00007C                               31+TIB14    DS    2F
 000084                               32+TIB15    DS    2F
 00008C                               33+TIB16    DS    2F
 000094                               34+TIB17    DS    2F
 00009C                               35+TIB18    DS    2F
 0000A4                               36+TIB19    DS    2F
 0000AC                               37+TIB20    DS    2F
 0000B4                               38+TIB21    DS    2F
 0000BC                               39+TIB22    DS    2F
 0000C4                               40+TIB23    DS    2F
 0000CC                               41+TIB24    DS    2F
 0000D4                               42+TIB25    DS    2F
 0000DC                               43+TIB26    DS    2F
 0000E4                               44+TIB27    DS    2F
 0000EC                               45+TIB28    DS    2F
 0000F4                               46+TIB29    DS    2F
 0000FC                               47+TIB30    DS    2F
 000104                               48+TIB31    DS    2F
 00010C                               49+TIB32    DS    2F
 000114                               50+TIB33    DS    2F
 00011C                               51+TIB34    DS    2F
 000124                               52+TIB35    DS    2F
 00012C                               53+APRIME DS    F           ADDRESS OF SUBROUTINE-PRIME   IN TAMER
 000130                               54+AINSRT DS    F           ADDRESS OF SUBROUTINE-INSERT  IN TAMER
 000134                               55+ADSTAT DS    F           ADDRESS OF SUBROUTINE-STATIC  IN TAMER
1PH70                                                                                                           PAGE    3
-  LOC  OBJECT CODE    ADDR1 ADDR2  STMT   SOURCE STATEMENT                                       ASM 0201 11.03 02/14/15
0000138                               56+RELADD DS    F           ADDRESS OF SUBROUTINE-TABREL  IN TAMER
 00013C                               57+TAMNAD DS    F
 000140                               58+ACCESW DS    C           ACCESS INITIALIZATION SWITCH
 000141                               59+AMAINF   DS    CL3       POINTER TO THE MAIN FREE AREA FOR TABLES/DICT.
 000144                               60+ALSTAM DS    F           POINTER TO THE LAST ENTRY IN TAMM
 000148                               61+LOCCTR DS    F           RELATIVE ADDRESS OF THE NEXT AVAILABLE LOC
 00014C                               62+LOCCTR1  DS    F
 000150                               63+PROGID   DS    CL8       PROGRAM-ID FROM THE IDENTICATION DIVISION
 000158                               64+LABELS DS    H           CONTAINS LABEL INFORMATION.
 00015A                               65+SEGCNTR  DS    H         NUMBER OF SEGMENTS HIGHER THAN SEGMENT LIMIT -
                                      66+*                        USED BY PHASE 6
 00015C                               67+PNCTR  DS    H           COUNTER FOR ASSIGNING PB NUMBERS TO PROC.NAMES
 00015E                               68+GNCTR  DS    H           CTR. ASSIGNING GN NO.TO GENERATED PROC. NAMES
 000160                               69+DCBCTR DS    H           CTR. ASSIGNING ID.NO.TO DCB'S
 000162                               70+VIRCTR DS    H           CTR. ASSIGNING ID.NO.TO VIRTUALS
 000164                               71+LTLCTR DS    H           CTR. ASSIGNING ID.NO.TO LITERALS
 000166                               72+WCMAX  DS    H           SIZE OF THE LARGEST WORK AREA FOR LIBRARY SUBR
 000168                               73+TSMAX  DS    H           SIZE OF THE TEMP. STORAGE FOR ARITHM. STMNTS
 00016A                               74+TS2MAX DS    H           SAME AS ABOVE FOR NON-ARITHMETIC STATEMENTS
 00016C                               75+ODOCTR DS    H           NUMBER OF Q-ROUTINES
 00016E                               76+CKPCTR DS    H           NUMBER OF CHECKPOINT REQUESTS
 000170                               77+INDCTR DS    H           AVAILABLE
 000172                               78+SBLOMX   DS    H                   AVAILABLE
 000174                               79+VLCOMX   DS    H                   AVAILABLE
 000176                               80+SBLIMX DS    H           SAME AS SBLOMX FOR IN-LINE PROC.
 000178                               81+VLCIMX DS    H           SAME AS VLCOMX FOR IN-LINE PROC.
 00017A                               82+SBLCTR DS    H           COUNTER FOR ASSIGNING  SBL'S
 00017C                               83+VLCCTR DS    H           USED TO DETERMINE VLCOMX AND VLCIMX
 00017E                               84+BLLCTR DS    H           CTR. FOR ASSIGNING ID. NO.TO LINKAGE SEC. BL'S
 000180                               85+SEQERR DS    H           NO. OF OUT-OF-SEQUENCE CARDS
 000182                               86+SWITCH   DS    H
                                      87+*                        BITS MARKED BY * MAY STILL BE IN USE BY
                                      88+*                        COBOLF - ASSIGN THESE AS A LAST RESORT
                             00080    89+SWTRCE EQU   X'80'       BIT 0  TRACE
                                      90+*              *         BIT 1
                                      91+*              *         BIT 2
                             00010    92+SPILL    EQU   X'10'     BIT 3  SET IF DICTIONARY SPILL
                                      93+*              *         BIT 4
                             00004    94+MQVAR    EQU   X'04'     BIT 5  SET IF PH2 BUILDS A QVAR TABLE
                                      95+*              *         BIT 6
                             00001    96+MQFILE   EQU   X'01'     BIT 7  SET IF PH2 BUILDS A QFILE TABLE
                                      97+*
                                      98+*                        SECOND BYTE OF SWITCH
                                      99+*              *         BIT 0
                                     100+*              *         BIT 1
                             00020   101+SORTRTN  EQU   X'20'     BIT 2  SORT RETURN SET BY PHASE2 USED BY PH5
                             00010   102+RERUNN   EQU   X'10'     BIT 3  RERUN USED BY PHASE 1, 2 AND 5
                             00008   103+DSOU     EQU   X'08'     BIT 4  SOURCE INDICATOR FOR STATISTICS
                             00004   104+NOFITSW  EQU   X'04'     BIT 5  SET BY PH6 IF E-TEXT ON FILE3
                                     105+*                               USED BY PH7 & PH00
                             00002   106+DOPH7    EQU   X'02'     BIT 6  PH6 LOOK AHEAD FOR PH7 YES OR NO
                             00001   107+RDERRFIL EQU   X'01'     BIT 7  PH6 INPUT INDICATOR
 000184                              108+DICND2 DS    F           DICTIONARY POINTER USED IN PH2
 000188                              109+DICND1 DS    F           DICTIONARY POINTER USED IN PH1
 00018C                              110+DATE     DS    CL15      DATE/TIME OF COMPILATION
1PH70                                                                                                           PAGE    4
-  LOC  OBJECT CODE    ADDR1 ADDR2  STMT   SOURCE STATEMENT                                       ASM 0201 11.03 02/14/15
0                                    111+*                        REUSED IN PHASE1 AS FOLLOWS
                                     112+*                                  BYTES 1-4 NUMBER OF DATA NAMES
                                     113+*                                        5-8 NUMBER OF VERBS
                                     114+*                                        9-12 NUMBER OF SOURCE CARDS
                                     115+*                                       13-15 NOT USED
 00019B                              116+WSDEF  DS    0CL7        LAST 7 BYTES OF DATA A-TEXT EL.FOR WORK.ST.SEC
 00019B                              117+         DS    CL3
 00019E                              118+WSBL   DS    C
 00019F                              119+WSSIZE   DS    CL3
 0001A2                              120+ERRSEV DS    C           HIGHEST ERROR SEVERITY LEVEL
 0001A3                              121+PHZSW  DS    C           OPTIONS SWITCH :
                             00080   122+LIST     EQU X'80'       SOURCE(OS)
                             00040   123+LISTX    EQU   X'40'     PMAP
                             00020   124+DECK     EQU   X'20'
                             00010   125+LINK     EQU   X'10'     LOAD
                             00008   126+SEQ      EQU   X'08'
                             00004   127+FLAGW    EQU   X'04'
                             00002   128+LIBR     EQU   X'02'
                             00001   129+ZWB      EQU   X'01'
 0001A4                              130+PHZSW1 DS    C
                             00080   131+XREF     EQU   X'80'
                             00040   132+CLIST    EQU   X'40'
                             00020   133+SYM      EQU   X'20'      DMAP
                             00010   134+PDT      EQU   X'10'
                             00004   135+APOST    EQU   X'04'
                             00002   136+MAPSP    EQU     X'02'
                             00001   137+TRUNC    EQU   X'01'
 0001A5                              138+PHZSW2   DS    C         RESERVED FOR ADDITIONAL OPTIONS
                             00080   139+STAT     EQU   X'80'     RESERVED FOR STATEMENT NUMBER OPTION
                             00002   140+NO6A     EQU   X'02'     SET BY PH6 TO TELL PH7 THAT PH6A WAS BYPASSED
 0001A8                              141+DICADR DS    F
 0001AC                              142+DLSVAL DS    F           ACCESS RTN. COMMUNICATION CELL
 0001B0                              143+DICPTR DS    C           ACCESS RTN. COMMUNICATION CELL
 0001B1                              144+DCPTR  DS    3C          ACCESS RTN. COMMUNICATION CELL
 0001B4                              145+RPTSAV DS    H           REPORT SAVE AREA CELL
 0001B6                              146+BLSCTR   DS    H         AVAILABLE
 0001B8                              147+LCSECT   DS    F
 0001BC                              148+PH7LOD   DS    F
 0001C0                              149+RGNCTR DS    H           COUNT OF UNIQUE GN'S
 0001C2                              150+ERF4SW DS    C           SWITCH USED BY PH6/PH7
 0001C3                              151+PTYNO    DS    C                   CURRENT PRIORITY NO
                                     152+*                                  SET BY PH5  USED BY PH00
 0001C4                              153+COMMAD   DS    H
 0001C6                              154+PHZSW3   DS    C                   OPTION SWITCH
                             00001   155+VERBR    EQU   X'01'               LISTING A-TEXT
 0001C7                              156+PHZSW4   DS    C                   RESERVED FOR ADDITIONAL OPTIONS
 0001C8                              157+AMOVDC   DS    F
 0001CC                              158+SDSIZ    DS    F         BIGGEST SD IN PGM.
 0001D0                              159+SEGLMT   DS    C
 0001D1                              160+DTFNUM   DS    C
 0001D2                              161+CURSGN   DS    C
 0001D3                              162+PH1BYTE  DS    C         PHASE 1 COMMUNICATION TO PHASE 2
                             00001   163+UPSIBT   EQU   X'01'     PASSES INFORMATION FROM PHASE 1A TO PHASE 2
                             00002   164+EOPPH1   EQU   X'02'     PASSES INFORMATION FROM PHASE 1A TO PHASE 1B
                             00004   165+INITBIT  EQU   X'04'     PASSES INFORMATION FROM PHASE 1A TO PHASE 2
1PH70                                                                                                           PAGE    5
-  LOC  OBJECT CODE    ADDR1 ADDR2  STMT   SOURCE STATEMENT                                       ASM 0201 11.03 02/14/15
0                            00008   166+BASINSQ  EQU   X'08'           PH1A TO PH1B
                             00020   167+BASIS    EQU   X'20'
                             00080   168+F3TEXT   EQU   X'80'
 0001D4                              169+DECBCT   DS    H         NO OF DECB'S FOR PGM
 0001D6                              170+INDEXS   DS    H         AVAILABLE
 0001D8                              171+INDEX1   DS    H        # INDEX NAMES DEFNED IN IN-LINE FILES
 0001DA                              172+CYCTOTAL DS    H         AVAILABLE
 0001DC                              173+IOPTRCTR DS    H        # I/O POINTERS FOR APPLY-WRITE-ONLY
 0001DE                              174+TS3MAX   DS    H
 0001E0                              175+TS4MAX   DS    H
 0001E4                              176+BUFSIZE  DS    F         USED FOR STATISTICS
 0001E8                              177+CORESIZE DS    F         USED FOR STATISTICS
 0001EC                              178+CNTLINE  DS    H         USED FOR STATISTICS
 0001EE                              179+CURCRD   DS    H
 0001F0                              180+SPACING  DS    C         USED FOR STATISTICS
 0001F1                              181+PDTCHR   DS    C                   SET BY PH01 USED BY PH6
 0001F2                              182+         DS    H
 0001F4                              183+BASINS   DS    1F
 0001F8                              184+         DS    1F
                                     185+*
                                     186+*
 0001FC                              187+         DS    0F
 0001FC                              188+AGETALL  DS    F                   ADDRESS OF TAMER RTN - GETALL
 000200                              189+         DS    F                   AVAILABLE
 000204                              190+RPDNUM   DS    H         AVAILABLE
 000206                              191+CYCNUM   DS    H         AVAILABLE
 000208                              192+IDENTL DS    F           REL. LOC. OF CODING IN OBJECT MODULE FOR THE
                                     193+*                        RANDOM PROC IDENTIFIED IN RPDNUM
 00020C                              194+BLCTR  DS    H           ID NO ASSIGNED TO BL'S FOR FILES
 00020E                              195+VNCTR  DS    H           COUNTER FOR ASSIGNING VN NUMBERS
 000210                              196+ONCTR  DS    H           COUNTER FOR ASSIGNING ID NO.TO ON CONTROL CELL
 000212                              197+PFMCTR DS    H           COUNTER FOR ASSIGNING ID NO.TO PERFORM CELLS
 000214                              198+PSVCTR DS    H           CTR FOR ASSIGNING ID'S TO PERFORM SAVE CELLS
 000216                              199+XSACTR DS    H           LOC  WITHIN EXHIBIT OR SORT SAVE AREA
 000218                              200+XSWCTR DS    H           CTR FOR ASSIGNING ID'S TO EXHIBIT/ON SWITCHES
 00021C                              201+RELLOC DS    F           DISPL OF TGT/SGT FROM THE BEG. OF OBJECT MOD.
 000220                              202+GTLNG  DS    H           LENGTH OF TGT OR SGT SPECIFIED IN RELLOC
 000222                              203+RPILOC   DS    H         AVAILABLE
 000224                              204+VNILOC DS    H           DISPL OF VNI FIELDS IN PGT
 000226                              205+VNLOC  DS    H           DISPL OF VN FIELDS IN TGT OR SGT
 000228                              206+SUBCTR DS    H           CTR TO ASSIGN ID'S TO SUBSCRIPTED REFERENCES
 00022A                              207+PARMAX DS    H           SIZE OF PARAMETER AREA
 00022C                              208+BLSVAL   DS    H         AVAILABLE
 00022E                              209+BLSLOC   DS    H         AVAILABLE
 000230                              210+CMTBSW   DS    H         AVAILABLE
 000232                              211+SA2CTR DS    H           SET IF OPTION 2 OF USE  SPECIFIED
 000234                              212+SA3CTR DS    H           SET IF OPTION 5 OF USE  SPECIFIED
 000236                              213+BLSEND   DS    H         AVAILABLE
 000238                              214+INDEX    DS    F
 00023C                              215+INDEX0   DS    H         AVAILABLE
 000240                              216+       DS    6F
                                     217+*
                                     218+*      END OF COMMON
                                     219+*
                                     220+*
1PH70                                                                                                           PAGE    6
-  LOC  OBJECT CODE    ADDR1 ADDR2  STMT   SOURCE STATEMENT                                       ASM 0201 11.03 02/14/15
0                                    222 *=3                                                                     00070021
                                     223 *                                                                       00080021
                                     224 *                                                                       00090021
                                     225 *TITLE:                                                                 00100021
                                     226 *                                                                       00110021
                                     227 *   'IEQCBL70'                                                          00120021
                                     228 *                                                                       00130021
                                     229 *STATUS:                                                                00140021
                                     230 *                                                                       00150021
                                     231 *   CHANGE LEVEL 000                                                    00160021
                                     232 *                                                                       00170021
                                     233 *FUNCTION/OPERATION:                                                    00180021
                                     234 *                                                                       00190021
                                     235 *   PROCESS E-TEXT AND PRINTS OUT ERROR MESSAGES.                       00200021
                                     236 *                                                                       00210021
                                     237 *ENTRY POINT:                                                           00220021
                                     238 *                                                                       00230021
                                     239 *        PHASE7                                                         00240021
                                     240 *                                                                       00250021
                                     241 *INPUT:                                                                 00260021
                                     242 *                                                                       00270021
                                     243 *        SYSUT4   E-TEXT   GENERATED BY PHASES 1,2,3,4 AND 5            00280021
                                     244 *                                                                       00290021
                                     245 *OUTPUT:                                                                00300021
                                     246 *                                                                       00310021
                                     247 *        SYSPRINT    ERROR MESSAGES                                     00320021
                                     248 *                                                                       00330021
                                     249 *EXTERNAL ROUTINE:                                                      00340021
                                     250 *                                                                       00350021
                                     251 *   NONE                                                                00360021
                                     252 *                                                                       00370021
                                     253 *EXIT-NORMAL:                                                           00380021
                                     254 *                                                                       00390021
                                     255 *   RETURN TO PHASE 00                                                  00400021
                                     256 *                                                                       00410021
                                     257 *EXITS-ERROR:                                                           00420021
                                     258 *                                                                       00430021
                                     259 *   NONE                                                                00440021
                                     260 *                                                                       00450021
                                     261 *TABLE/WORK AREAS:                                                      00460021
                                     262 *                                                                       00470021
                                     263 *   ERRTBL, PARTBL, EACTBL, ETC.                                        00480021
                                     264 *   WORK AREAS START AT ACCESW                                          00490021
                                     265 *   TABLES ARE DESCRIBED IN DETAIL IN PLM AND PHASES 6 AND 7 LISTIN     00500021
                                     266 *                                                                       00510021
                                     267 *ATTRIBUTES:                                                            00520021
                                     268 *                                                                       00530021
                                     269 *   NOT REUSABLE                                                        00540021
                                     270 *                                                                       00550021
                                     271 *NOTES:                                                                 00560021
                                     272 *                                                                       00570021
                                     273 *   GENERAL ORGANIZATION:                                               00580021
                                     274 *                                                                       00590021
                                     275 *   1.   STANDARD EQUATES                                               00600021
                                     276 *   2.   SYSTEM BASED MASKS AND REGISTERS EQUATES                       00610021
1PH70                                                                                                           PAGE    7
-  LOC  OBJECT CODE    ADDR1 ADDR2  STMT   SOURCE STATEMENT                                       ASM 0201 11.03 02/14/15
0                                    277 *   3.   LENGTHS OF A-TEXT ELEMENTS                                     00620021
                                     278 *   4.   HEX REPRESENTATIONS OF A-TEXT ELEMENTS                         00630021
                                     279 *   5.   REGISTERS ASSIGNMENT STATUS CODES                              00640021
                                     280 *   6.   EQUATES FOR TAMER                                              00650021
                                     281 *   7.   OTHER EQUATES                                                  00660021
                                     282 *   8.   PHAS 7 INITIALIZATION                                          00670021
                                     283 *   9.   PROCESS E-TEXT                                                 00680021
                                     284 *   10.  END OF ERROR MESSAGE PROCESSING                                00690021
                                     285 *   11.  DATA AND CONSTANTS                                             00700021
                                     286 *   12.  OUTPUT AREA - SYSOU LISTING                                    00710021
                                     287 *   13.  SUBROUTINES - PROCESS A-TEXT ELEMENT                           00720021
                                     288 *   14.  ERROR MESSAGE TABLE                                            00730021
                                     289 *   15.  ERROR ACTION TABLE                                             00740021
                                     290 *   16.  ERROR PARAMETER TABLE                                          00750021
                                     291 *   17.  SYMBOLIC OPERAND TABLE                                         00760021
                                     292 *   18.  DEFINITION OF PHASE 7 TABLES                                   00770021
                                     293 *   19.  COMMON AREA DEFINITION                                         00780021
                                     294 *   20.  INPUT AREA - A-TEXT ELEMENT DEFINITION                         00790021
1PH70     IKFCBL70                                                                                              PAGE    8
-  LOC  OBJECT CODE    ADDR1 ADDR2  STMT   SOURCE STATEMENT                                       ASM 0201 11.03 02/14/15
0                                    296 *                                                                       00810021
                                     297 *   GENERAL CONSIDERATION:                                              00820021
                                     298 *                                                                       00830021
                                     299 *   E-TEXT IS GENERATED FROM ERROR CONDITION.   THERE ARE TWO TYPES     00840021
                                     300 *   E-TEXT ELEMENT: MESSAGE DEFINITION AND MESSAGE PARAMETER.           00850021
                                     301 *   THE LATTER REFERRING TO VARIABLE ITEMS IN THE MESSAGES.             00860021
                                     302 *                                                                       00870021
                                     303 *   ERROR ROUTINES PROCESS E-TEXT AND PRINT OUT ERROR MESSAGES          00880021
                                     304 *   CONSISTING OF THE FOLLOWING:                                        00890021
                                     305 *   1. COMPILER GENERATED CARD NO. FOR INSTRUCTION IN ERROR             00900021
                                     306 *   2. MESSAGE NUMBER                                                   00910021
                                     307 *   3. SEVERITY INDICATION                                              00920021
                                     308 *   4. ERROR MESSAGE                                                    00930021
                                     309 *                                                                       00940021
1PH70     IKFCBL70                                                                                              PAGE    9
-  LOC  OBJECT CODE    ADDR1 ADDR2  STMT   SOURCE STATEMENT                                       ASM 0201 11.03 02/14/15
0                                    311 *=1    PHASE 7 START                                                    00960021
                                     312 *   STANDARD EQUATES FOR BC INSTRUCTIONS                                00970021
                                     313 *                                                                       00980021
 000000                              314 IKF701 CSECT                                                            00990021
                             00000   315 IFKCBL70 EQU IKF701                                                     01000021
                             0000F   316 UNCOND EQU   15                                                         01010021
                             00002   317 HI     EQU   2                                                          01020021
                             00004   318 LO     EQU   4                                                          01030021
                             00004   319 LOW    EQU   4                                                          01040021
                             00008   320 EQ     EQU   8                                                          01050021
                             0000D   321 NOTHI  EQU   13                                                         01060021
                             0000B   322 NOTLO  EQU   11                                                         01070021
                             00007   323 NOTEQ  EQU   7                                                          01080021
                             00001   324 OV     EQU   1                                                          01090021
                             00002   325 POS    EQU   2                                                          01100021
                             00004   326 NEG    EQU   4                                                          01110021
                             00008   327 ZERO   EQU   8                                                          01120021
                             0000E   328 NOTOV  EQU   14                                                         01130021
                             0000D   329 NOTPOS EQU   13                                                         01140021
                             0000B   330 NOTNEG EQU   11                                                         01150021
                             00007   331 NOTZER EQU   7                                                          01160021
                             00001   332 ONES   EQU   1                                                          01170021
                             00004   333 MIXED  EQU   4                                                          01180021
                             0000E   334 NOTONE EQU   14                                                         01190021
                             0000B   335 NOTMXD EQU   11                                                         01200021
                             00000   336 NOP    EQU   0                                                          01210021
                             00008   337 EOF    EQU   8                                                          01220021
                                     338 *                                                                       01230021
                             00000   339 R0  EQU   0                                                             01240021
                             00001   340 R1  EQU   1                                                             01250021
                             00002   341 R2  EQU   2                                                             01260021
                             00003   342 R3  EQU   3                                                             01270021
                             00006   343 RW1    EQU   6                          PHASE 6 WORKING REGISTER        01280021
                             00007   344 RW2    EQU   7                          PHASE 6 WORKING REGISTER        01290021
                                     345 *-----NOTE RW1,RW2 MUST BE AN EVEN-ODD PAIR                             01300021
                             00005   346 RW3    EQU   5                          PHASE 6 WORKING REGISTER        01310021
                             00008   347 RB1    EQU   8                                                          01320021
                             00009   348 RB2    EQU   9                                                          01330021
                             0000A   349 RB3    EQU   10                                                         01340021
                             0000C   350 RB4    EQU   12                                                         01350021
                             0000D   351 R13 EQU   13                                                            01360021
                             0000E   352 RS1    EQU   14                         SUBROUTINE LINK REGISTER        01370021
                             0000F   353 R15 EQU   15                                                            01380021
                             00004   354 INPUTR EQU   4                                                          01390021
                             00004   355 F2REG  EQU   INPUTR                                                     01400021
                             0000B   356 F4REG  EQU   11                                                         01410021
                                     357 *                                                                       01420021
                                     358 *                                                                       01430021
                                     359 * LENGTHS OF A-TEXT ELEMENTS                                            01440021
                                     360 *                                                                       01450021
                             00003   361 LPNDEF EQU   3                                                          01460021
                             00003   362 LGNDEF EQU   3                                                          01470021
                             00003   363 LVNDEF EQU   3                                                          01480021
                             00003   364 LRPDEF EQU   3                                                          01490021
                             00002   365 LMACRO EQU   2                                                          01500021
1PH70     IKFCBL70                                                                                              PAGE   10
-  LOC  OBJECT CODE    ADDR1 ADDR2  STMT   SOURCE STATEMENT                                       ASM 0201 11.03 02/14/15
0                            00003   366 LOP    EQU   3                                                          01510021
                             00003   367 LPNREF EQU   3                                                          01520021
                             00003   368 LGNREF EQU   3                                                          01530021
                             00003   369 LVNREF EQU   3                                                          01540021
                             00003   370 LVIRRF EQU   3                                                          01550021
                             00003   371 LBLREF EQU   3                                                          01560021
                             00003   372 LGTRF1 EQU   3                                                          01570021
                             00004   373 LGTRF2 EQU   4                                                          01580021
                             00005   374 LRELAD EQU   5                                                          01590021
                             00002   375 LDC    EQU   2                PLUS CONTENTS BYTE 2                      01600021
                             00001   376 LLTLRF EQU   1                                                          01610021
                             00003   377 LBDISP EQU   3                                                          01620021
                             00003   378 LRPREF EQU   3                                                          01630021
                             00007   379 LADR   EQU   7                                                          01640021
                             00002   380 LBCD   EQU   2      PLUS CONTENTS BYTE 2                                01650021
                             00004   381 LPLUS  EQU   4                                                          01660021
                             0000C   382 LVIRDF EQU   12                                                         01670021
                             00003   383 LLTLDF EQU   3      PLUS CONTENTS BYTE 3                                01680021
                             00005   384 LDCB   EQU   5                                                          01690021
                             00009   385 LDECB  EQU   9                                                          01700021
                             00009   386 LBLK   EQU   9                                                          01710021
                             00009   387 LSA    EQU   9                                                          01720021
                             00008   388 LWS    EQU   8                                                          01730021
                             00007   389 LCON   EQU   7      PLUS CONTENTS BYTES 6-7                             01740021
                             00008   390 LACON  EQU   8                                                          01750021
                             00008   391 LIACON EQU   8                                                          01760021
                             00004   392 LSBL   EQU   4                                                          01770021
                             00007   393 LMSGDF EQU   7                                                          01780021
                             00002   394 LMSGPM EQU   2      PLUS CONTENTS BYTE 2                                01790021
                             00003   395 LCRDNO EQU   3                                                          01800021
                                     396 *                                                                       01810021
                                     397 *      HEX REPRESENTATIONS OF  A-TEXT ELEMENTS                          01820021
                                     398 *                                                                       01830021
                                     399 *      OP DESCRIPTIVES                                                  01840021
                             00020   400 ADRPLU EQU   X'20'            ADR FOLLOWED BY PLUS                      01850021
                             0001C   401 UPLUS  EQU   X'1C'                                                      01860021
                             00018   402 ULNG   EQU   X'18'                                                      01870021
                             00024   403 YINIT2 EQU   X'24'                                                      01880021
                             00028   404 PNREF  EQU   X'28'                                                      01890021
                             0002C   405 GNREF  EQU   X'2C'                                                      01900021
                             00030   406 VNREF  EQU   X'30'                                                      01910021
                             00034   407 VIRREF EQU   X'34'                                                      01920021
                             00038   408 BLREF  EQU   X'38'                                                      01930021
                             0003C   409 GTREF1 EQU   X'3C'                                                      01940021
                             00040   410 GTREF2 EQU   X'40'                                                      01950021
                             00044   411 LTLREF EQU   X'44'                                                      01960021
                             00048   412 BDISP  EQU   X'48'                                                      01970021
                             0004C   413 ADR    EQU   X'4C'                                                      01980021
                             00050   414 PLUS   EQU   X'50'                                                      01990021
                             00054   415 ZINIT2 EQU   X'54'                                                      02000021
                             00058   416 XINIT2 EQU   X'58'                                                      02010021
                             0005C   417 YHOLDA EQU   X'5C'                                                      02020021
                                     418 *      OP                                                               02030021
                             00060   419 OP     EQU   X'60'                                                      02040021
                                     420 *      NON-OP ASSOCIATED ELTS                                           02050021
1PH70     IKFCBL70                                                                                              PAGE   11
-  LOC  OBJECT CODE    ADDR1 ADDR2  STMT   SOURCE STATEMENT                                       ASM 0201 11.03 02/14/15
0                            00064   421 PNDEF  EQU   X'64'                                                      02060021
                             00068   422 GNDEF  EQU   X'68'                                                      02070021
                             0006C   423 VNDEF  EQU   X'6C'                                                      02080021
                             00070   424 PNBCD  EQU   X'70'                                                      02090021
                                     425 *      EQU   X'74'  NOT ASSIGNED                                        02100021
                             00078   426 RPDBCD EQU   X'78'                                                      02110021
                             0007C   427 RPDDEF EQU   X'7C'                                                      02120021
                             00080   428 MACRO  EQU   X'80'                                                      02130021
                             00084   429 CRDNO  EQU   X'84'                                                      02140021
                             00088   430 IDBCD  EQU   X'88'                                                      02150021
                                     431 *      SUBSEQUENT ELTS                                                  02160021
                             000EC   432 REGNO  EQU   X'EC'                                                      02170021
                             000F0   433 RPDREF EQU   X'F0'                                                      02180021
                             000F4   434 BCDREF EQU   X'F4'                                                      02190021
                             000F8   435 RELADR EQU   X'F8'                                                      02200021
                             000FC   436 DCDEF  EQU   X'FC'                                                      02210021
                                     437 *      OTHER A-TEXT ELTS                                                02220021
                             00000   438 VIRDEF EQU   X'00'                                                      02230021
                             00004   439 LTLDEF EQU   X'04'                                                      02240021
                             00004   440 DCBDF  EQU   X'04'                                                      02250021
                             00008   441 DECBDF EQU   X'08'                                                      02260021
                             0000C   442 BLKDF  EQU   X'0C'                                                      02270021
                             00020   443 SADF   EQU   X'20'                                                      02280021
                             00024   444 WSDF   EQU   X'24'                                                      02290021
                             00028   445 CONDF  EQU   X'28'                                                      02300021
                             0002C   446 ACONDF EQU   X'2C'                                                      02310021
                             00030   447 ICONDF EQU   X'30'                                                      02320021
                             00034   448 SBLDF  EQU   X'34'                                                      02330021
                             00038   449 CKPTDF EQU   X'38'                                                      02340021
                             00000   450 MSGDF  EQU   X'00'                                                      02350021
                                     451 *      GTREF2 EQUS                                                      02360021
                             00000   452 DCB    EQU   X'00'                                                      02370021
                             0000C   453 PFMCT  EQU   X'0C'                                                      02380021
                             00010   454 PSVCT  EQU   X'10'                                                      02390021
                             00014   455 DECB   EQU   X'14'                                                      02400021
                             0001C   456 PARAM  EQU   X'1C'                                                      02410021
                             00018   457 XSA    EQU   X'18'                                                      02420021
                             00020   458 WC     EQU   X'20'                                                      02430021
                             00024   459 TS     EQU   X'24'                                                      02440021
                             00028   460 XSASW  EQU   X'28'                                                      02450021
                             00004   461 VLC    EQU   X'04'                                                      02460021
                             00008   462 ONCTL  EQU   X'08'                                                      02470021
                             0002C   463 SUBS   EQU     X'2C'                                                    02480021
                             00030   464 TS2    EQU   X'30'                                                      02490021
                             00034   465 RPI    EQU   X'34'                                                      02500021
                             00038   466 VLCO   EQU   X'38'                                                      02510021
                             0003C   467 SA2    EQU   X'3C'                                                      02520021
                             00040   468 SA3    EQU   X'40'                                                      02530021
                                     469 *      MACRO CODES                                                      02540021
                             00000   470 EQUATE EQU   X'00'          MACRO CODES                                 02550021
                             00004   471 ENTRY  EQU   X'04'          MACRO CODES                                 02560021
                             00008   472 BLCHNG EQU   X'08'          MACRO CODES                                 02570021
                             0000C   473 ENDOPT EQU   X'0C'          MACRO CODES                                 02580021
                             00010   474 PROCSS EQU   X'10'          MACRO CODES                                 02590021
                             00014   475 HOLDD  EQU   X'14'          MACRO CODES                                 02600021
1PH70     IKFCBL70                                                                                              PAGE   12
-  LOC  OBJECT CODE    ADDR1 ADDR2  STMT   SOURCE STATEMENT                                       ASM 0201 11.03 02/14/15
0                            00018   476 ADCON  EQU   X'18'       MACRO CODES                                    02610021
                             0001C   477 IDENFY EQU   X'1C'       MACRO CODES                                    02620021
                             00020   478 STARTT EQU   X'20'       MACRO CODES                                    02630021
                             00024   479 DEECEE EQU   X'24'                                                      02640021
                             00028   480 RSRVE  EQU   X'28'                                                      02650021
                             0002C   481 FREE   EQU   X'2C'                                                      02660021
                             00030   482 DESTRY EQU   X'30'                                                      02670021
                             00034   483 INIT   EQU   X'34'                                                      02680021
                                     484 *                                                                       02690021
                                     485 *      REGISTER ASSIGNMENT STATUS CODES                                 02700021
                                     486 *                                                                       02710021
                             00002   487 IBLSLT EQU   X'02'                                                      02720021
                             00000   488 IBLELT EQU   X'00'                                                      02730021
                             00002   489 OBLSLT EQU   X'02'                                                      02740021
                             00008   490 OBLELT EQU   X'08'                                                      02750021
                             00080   491 LAVAIL EQU   X'80'                                                      02760021
                             00001   492 AVAIL5 EQU   X'01'                                                      02770021
                             00002   493 AVAIL6 EQU   X'02'                                                      02780021
                             00003   494 AVL56  EQU   AVAIL5+AVAIL6                                              02790021
                             000FE   495 YAVAL5 EQU   X'FE'                                                      02800021
                             000FD   496 YAVAL6 EQU   X'FD'                                                      02810021
                             00020   497 LASIGN EQU   X'20'                                                      02820021
                             00010   498 PGTOVF EQU   X'10'                                                      02830021
                             000EF   499 PGTOFF EQU   X'EF'            TURN OFF PGTOVF                           02840021
                                     500 * EQUATES FOR TAMER                                                     02850021
                                     501 *                                                                       02860021
                             0005C   502 ERRTBL EQU   TIB10-COS                                                  02870021
                                     503 * OTHER EQUATES                                                         02880021
                             001B0   504 CBRST  EQU   X'01B0'                                                    02890021
                             001CF   505 LVLST    EQU   X'1CF'                                                   02900021
                             00100   506 VRBST  EQU   X'0100'                                                    02910021
                             00180   507 RELST  EQU   X'0180'                                                    02920021
                             00190   508 PARST  EQU   X'0190'                                                    02930021
                             001A0   509 ARIST  EQU   X'01A0'                                                    02940021
                             001D0   510 FCOST  EQU   X'01D0'                                                    02950021
                             001F8   511 SDNST  EQU   X'01F8'                                                    02960021
                             00183   512 PARCAR   EQU   X'0183'                                                  02970021
                             00000   513 ZEROE    EQU   0                                                        02980021
                             0004C   514 PNNDEF   EQU   X'4C'                                                    02990021
                             00048   515 DNDEF    EQU   X'48'                                                    03000021
                             0002F   516 EPARAM EQU   X'2F'                                                      03010021
                             0004F   517 ACTION EQU   X'4F'                                                      03020021
                             0008F   518 ENTEX  EQU   X'8F'                                                      03030021
                             00000   519 C6CNST EQU   0                                                          03040021
                             000FE   520 NOREAD4  EQU   X'FE'                                                    03050021
                             00005   521 READFILE EQU   X'05'                                                    03060021
 000000                              522 PHASE7 DS    0H                                                         03070021
 000000 C9D2C6C3C2D3F7F0             523          DC    C'IKFCBL70'                                              03080021
 000008 C2                           524          DC    C'B'                                                     03090021
 000009 1C                           525          DC    X'1C'                                                    03100021
 00000A 0700                         526        CNOP  0,4                                                        03110021
                             0000C   527 PH7    EQU   *                                                          03120021
                             0000C   528 IEQCOB70 EQU   *                                                        03130021
 00000C 90EC D00C      0000C         529        STM   RS1,RB4,TWELVE(R13)                                        03140021
 000010 182D                         530       LR    R2,R13                                                      03150021
1PH70     IKFCBL70                                                                                              PAGE   13
-  LOC  OBJECT CODE    ADDR1 ADDR2  STMT   SOURCE STATEMENT                                       ASM 0201 11.03 02/14/15
0000012 05F0                         531          BALR  R15,R0              ESTABLISH ADDRESSABILITY             03160021
 000014 47FF 0008      00008         532        B     EIGHT(R15)            ESTABLISH ADDRESSABILITY             03170021
 000018 0000093C                     533        DC    A(PH7SAV)                                                  03180021
 00001C 58DF 0004      00004         534        L     R13,FOUR(R15)                                              03190021
 000020 50ED 000C      0000C         535        ST    RS1,TWELVE(R13)                                            03200021
 000024 502D 0004      00004         536        ST    R2,FOUR(R13)                                               03210021
 000028 50D2 0008      00008         537        ST    R13,EIGHT(R2)                                              03220021
 00002C 0580                         538 ERRLOD BALR  RB1,R0                LOCATE PH7                           03230021
                             0002E   539           USING *,RB1                                                   03240021
                             0093A   540           USING EDATA,RB3                                               03250021
 00002E 58A0 879A      007C8         541        L     RB3,AEDATA                                                 03260021
 000032 5821 0000      00000         542        L     R2,ZER0(R1)           COS ADDR                             03270021
 000036 5020 A0AE      009E8         543        ST    R2,XH7COS    RELOCATE ERRTBL ADCON                         03280021
 00003A 5810 81D2      00200         544        L     R1,ABGPH7                                                  03290021
 00003E 0502                         545        BALR  R0,R2                 GO TO COS                            03300021
 000040 06                           546        DC    X'06'                                                      03310021
 000041 00
 000042 5860 8892      008C0         547        L     RW1,XERRTB                                                 03320021
 000046 1E62                         548        ALR   RW1,R2                                                     03330021
 000048 5060 8892      008C0         549        ST    RW1,XERRTB                                                 03340021
-
0
 00004C 5890 A0AE      009E8         551        L     RB2,XH7COS                                                 03360021
                             00000   552        USING COS,RB2                                                    03370021
 000050 D507 9150 879E 00150 007CC   553        CLC   PROGID(EIGHT),XERRID  ERRMSG SPECIFIED                     03380021
 000056 4770 81D6      00204         554        BC    NOTEQ,XNORML          NO                                   03390021
 00005A 0509                         555        BALR  R0,RB2                BRANCH                               03400021
 00005C D6                           556        DC    X'D6'                                                      03410021
                                     557 * INITIALIZATION                                                        03420021
 00005D 00
 00005E 92F1 A124      00A5E         558        MVI   PHASE,ONE                                                  03430021
 000062 4160 A136      00A70         559        LA    RW1,XU6R15                                                 03440021
 000066 5060 A0F6      00A30         560        ST    RW1,XEGSTR                                                 03450021
 00006A 9240 A127      00A61         561        MVI   XU6REC,BLANK                                               03460021
 00006E D276 A128 A127 00A62 00A61   562        MVC   XU6RC1(TOTAL),XU6REC                                       03470021
                                     563 *                                                                       03480021
 000074 5840 8886      008B4         564        L     INPUTR,ATRTBL                                              03490021
 000078 4170 889A      008C8         565        LA    RW2,PHMESS                                                 03500021
 00007C 5070 A0F2      00A2C         566 EML009 ST    RW2,XAPTXT                                                 03510021
 000080 D20F A128 882D 00A62 0085B   567 EML010 MVC   XU6RC1(SIXTEEN),EMLHDG                                     03520021
 000086 D200 A12E A124 00A68 00A5E   568        MVC   XU6RC7(ONE1),PHASE                                         03530021
 00008C 58F0 8862      00890         569        L     R15,XPUT                                                   03540021
 000090 05EF                         570          BALR  RS1,R15             HEADING                              03550021
 000092 05EF                         571          BALR  RS1,R15             AND BLANK LINE                       03560021
 000094 1B66                         572        SR    RW1,RW1                                                    03570021
 000096 4060 A122      00A5C         573        STH   RW1,MESNUM                                                 03580021
 00009A 5867 0000      00000         574        L     RW1,ZER0(RW2)         THIS PHASE TEXT                      03590021
 00009E 5060 A11E      00A58         575        ST    RW1,MSSPTR                                                 03600021
 0000A2 5857 000C      0000C         576        L     RW3,TWELVE(RW2)       NEXT PHASE TEXT                      03610021
 0000A6 5860 A11E      00A58         577 EML020 L     RW1,MSSPTR                                                 03620021
 0000AA 1965                         578        CR    RW1,RW3                                                    03630021
 0000AC 47B0 81AA      001D8         579        BC    NOTLO,EML100     DO NEXT PHASE                             03640021
1PH70     IKFCBL70                                                                                              PAGE   14
-  LOC  OBJECT CODE    ADDR1 ADDR2  STMT   SOURCE STATEMENT                                       ASM 0201 11.03 02/14/15
00000B0 D202 A129 883D 00A63 0086B   580        MVC   XU6RC2(THREE),CCIKF                                        03650021
 0000B6 D200 A130 883D 00A6A 0086B   581        MVC   XU6RC9(ONE1),CCIKF                                         03660021
 0000BC D200 A12C A124 00A66 00A5E   582        MVC   XU6RC5(ONE1),PHASE                                         03670021
 0000C2 1826                         583        LR    R2,RW1                                                     03680021
 0000C4 4860 A122      00A5C         584        LH    RW1,MESNUM                                                 03690021
 0000C8 4E60 A10E      00A48         585        CVD   RW1,X6WRK1                                                 03700021
 0000CC F321 A12D A114 00A67 00A4E   586        UNPK  XU6RC6(THREE),X6WRK7(TWO)                                  03710021
 0000D2 96F0 A12F      00A69         587        OI    XU6RC8,MASKF0                                              03720021
 0000D6 1862                         588        LR    RW1,R2                                                     03730021
 0000D8 5810 A0F6      00A30         589        L     R1,XEGSTR                                                  03740021
 0000DC 5010 A0FA      00A34         590        ST    R1,XTRPTR                                                  03750021
 0000E0 1B11                         591        SR    R1,R1                                                      03760021
 0000E2 4010 A11A      00A54         592        STH   R1,XTRTOT                                                  03770021
 0000E6 94FE 9183      00183         593        NI    SWITC1,NOREAD4        PURGE                                03780021
 0000EA DDFF 6000 4000 00000 00000   594 EML030 TRT   ZER0(MAX,RW1),ZER0(INPUTR)                                 03790021
 0000F0 5010 A0FE      00A38         595        ST    R1,XXADDR                                                  03800021
 0000F4 4220 A125      00A5F         596        STC   R2,SEPAR                                                   03810021
 0000F8 58F0 8866      00894         597        L     R15,XSTRNG                                                 03820021
 0000FC 05EF                         598        BALR  RS1,R15               GO TO STRING ROUTINE                 03830021
 0000FE 954F A125      00A5F         599        CLI   SEPAR,ACTION                                               03840021
 000102 4720 8156      00184         600        BC    HI,EML040             END OF TEXT                          03850021
 000106 4740 8124      00152         601        BC    LO,EML035             SEE IF PARAM                         03860021
 00010A 5860 A0FE      00A38         602        L     RW1,XXADDR                                                 03870021
 00010E 4166 0002      00002         603        LA    RW1,TWO(RW1)          FOR NEXT MESSAGE                     03880021
 000112 5060 A11E      00A58         604        ST    RW1,MSSPTR                                                 03890021
 000116 9601 9183      00183         605        OI    SWITC1,RDERRFIL       PURGE                                03900021
 00011A 5860 A0FA      00A34         606        L     RW1,XTRPTR                                                 03910021
 00011E 4166 0001      00001         607        LA    RW1,ONE1(RW1)                                              03920021
 000122 5060 A0FA      00A34         608        ST    RW1,XTRPTR                                                 03930021
 000126 5860 8906      00934         609        L     RW1,AEACTB                                                 03940021
 00012A 1B77                         610        SR    RW2,RW2                                                    03950021
 00012C 5810 A0FE      00A38         611        L     R1,XXADDR                                                  03960021
 000130 91FF 1001      00001         612        TM    ONE1(R1),MASKFF                                            03970021
 000134 4710 8112      00140         613        BC    ONES,EML032           TEXT IS IN BUFFER                    03980021
 000138 4371 0001      00001         614          IC    RW2,DX1(R1)                                              03990021
 00013C 4C70 87C6      007F4         615        MH    RW2,X63                                                    04000021
 000140 4166 7000      00000         616 EML032 LA    RW1,ZER0(RW1,RW2)     POINTER                              04010021
 000144 D202 A0FF 6000 00A39 00000   617        MVC   XXADD1(THREE),ZER0(RW1)                                    04020021
 00014A 5860 A0FE      00A38         618        L     RW1,XXADDR                                                 04030021
 00014E 47F0 80BC      000EA         619        B     EML030                GO SCAN ERROR ACTION                 04040021
 000152 952F A125      00A5F         620 EML035 CLI   SEPAR,EPARAM                                               04050021
 000156 4780 813C      0016A         621        BC    EQ,EML037             IT IS PARAMETER                      04060021
 00015A 5860 A0FA      00A34         622        L     RW1,XTRPTR                                                 04070021
 00015E 4166 0001      00001         623        LA    RW1,ONE1(RW1)                                              04080021
 000162 5060 A0FA      00A34         624        ST    RW1,XTRPTR                                                 04090021
 000166 47F0 814A      00178         625        B     EML038                ESTABLISH POINTER                    04100021
 00016A 4160 8849      00877         626 EML037 LA    RW1,BLQUOT                                                 04110021
 00016E 4116 0004      00004         627        LA    R1,FOUR(RW1)                                               04120021
 000172 58F0 8866      00894         628        L     R15,XSTRNG                                                 04130021
 000176 05EF                         629        BALR  RS1,R15               GO TO STRING ROUTINE                 04140021
 000178                              630 EML038 DS    0H                                                         04150021
 000178 5860 A0FE      00A38         631        L     RW1,XXADDR                                                 04160021
 00017C 4166 0001      00001         632        LA    RW1,ONE1(RW1)                                              04170021
 000180 47F0 80BC      000EA         633        B     EML030                GO SCAN TEXT                         04180021
                                     634 * END OF MESSAGE REACHED                                                04190021
1PH70     IKFCBL70                                                                                              PAGE   15
-  LOC  OBJECT CODE    ADDR1 ADDR2  STMT   SOURCE STATEMENT                                       ASM 0201 11.03 02/14/15
0000184 4810 A122      00A5C         635 EML040 LH    R1,MESNUM                                                  04200021
 000188 1211                         636        LTR   R1,R1                                                      04210021
 00018A 4780 819C      001CA         637        BC    ZERO,EML050           GO TO CLEAR OUTLINE                  04220021
 00018E 4810 A11A      00A54         638        LH    R1,XTRTOT                                                  04230021
 000192 1211                         639        LTR   R1,R1                                                      04240021
 000194 4780 819C      001CA         640        BC    ZERO,EML050           GO TO CLEAR OUT LINE                 04250021
 000198 5860 A0FA      00A34         641        L     RW1,XTRPTR       NO NEED TO CALL STRING ROUTINE,           04260021
 00019C 924B 6000      00000         642        MVI   ZER0(RW1),PERIOD      SINCE THIS IS END OF MESSAGE         04270021
 0001A0                              643 EML042 DS    0H                                                         04280021
 0001A0 58F0 8862      00890         644        L     R15,XPUT                                                   04290021
 0001A4 05EF                         645          BALR  RS1,R15             GO TO PUT OUT LINE                   04300021
 0001A6 4860 A122      00A5C         646 EML045 LH    RW1,MESNUM                                                 04310021
 0001AA 4166 0001      00001         647        LA    RW1,ONE1(RW1)                                              04320021
 0001AE 4060 A122      00A5C         648        STH   RW1,MESNUM                                                 04330021
 0001B2 9101 9183      00183         649        TM    SWITC1,RDERRFIL                                            04340021
 0001B6 4770 8078      000A6         650          BNE   EML020              GO PROCESS NEXT MESSAGE              04350021
 0001BA 5860 A0FE      00A38         651        L     RW1,XXADDR                                                 04360021
 0001BE 4166 0001      00001         652        LA    RW1,ONE1(RW1)                                              04370021
 0001C2 5060 A11E      00A58         653        ST    RW1,MSSPTR                                                 04380021
 0001C6 47F0 8078      000A6         654        B     EML020                GO PROCESS NEXT MESSAGE              04390021
 0001CA 9240 A127      00A61         655 EML050 MVI   XU6REC,BLANK                                               04400021
 0001CE D276 A128 A127 00A62 00A61   656        MVC   XU6RC1(TOTAL),XU6REC                                       04410021
 0001D4 47F0 8178      001A6         657        B     EML045                SET UP TO PROCESS NEXT FIELD         04420021
                                     658 * DO NEXT PHASE                                                         04430021
 0001D8 5950 88D6      00904         659 EML100 C     RW3,APHXER                                                 04440021
 0001DC 47B0 8790      007BE         660        BC    NOTLO,XCLOSE     END OF RUN                                04450021
 0001E0 58F0 8862      00890         661        L     R15,XPUT                                                   04460021
 0001E4 05EF                         662          BALR  RS1,R15             GO TO PUT OUT LINE                   04470021
 0001E6 4310 A124      00A5E         663        IC    R1,PHASE                                                   04480021
 0001EA 4111 0001      00001         664        LA    R1,ONE1(R1)                                                04490021
 0001EE 4210 A124      00A5E         665        STC   R1,PHASE                                                   04500021
 0001F2 5870 A0F2      00A2C         666        L     RW2,XAPTXT                                                 04510021
 0001F6 4177 000C      0000C         667        LA    RW2,TWELVE(RW2)                                            04520021
 0001FA 47F0 804E      0007C         668        B     EML009                 GO DO NEXT PHASE                    04530021
 0001FE 0000
 000200 00000000                     669 ABGPH7 DC    A(PHASE7)                                                  04540021
 000204                              670 XNORML DS    0H                                                         04550021
1PH70     IKFCBL70                                                                                              PAGE   16
-  LOC  OBJECT CODE    ADDR1 ADDR2  STMT   SOURCE STATEMENT                                       ASM 0201 11.03 02/14/15
0000204                              672 PLS005   DS    0H                                                       04570021
 000204 9400 A126      00A60         673        NI    PERSW,ZER0                                                 04580021
 000208 9240 A127      00A61         674        MVI   XU6REC,BLANK                                               04590021
 00020C D276 A128 A127 00A62 00A61   675        MVC   XU6RC1(TOTAL),XU6REC                                       04600021
 000212 D213 A128 87F7 00A62 00825   676        MVC   XU6RC1(TWENTY),MSSHDG HEADING FOR ERRORS                   04610021
 000218 58F0 8862      00890         677        L     R15,XPUT                                                   04620021
 00021C 05EF                         678          BALR  RS1,R15             HEADING                              04630021
 00021E 05EF                         679          BALR  RS1,R15             AND BLANK LINE                       04640021
 000220 4160 A13E      00A78         680        LA    RW1,XU6R23                                                 04650021
 000224 5060 A0F6      00A30         681        ST    RW1,XEGSTR                                                 04660021
 000228 1B77                         682        SR    RW2,RW2                                                    04670021
 00022A 4970 9180      00180         683        CH    RW2,SEQERR           ANY SEQUENCE ERRORS                   04680021
 00022E 4780 8258      00286         684        BC    EQ,PLS250              NO                                  04690021
 000232 9104 91A3      001A3         685          TM    PHZSW,FLAGW                                              04700021
 000236 4780 8258      00286         686          BC    ZERO,PLS250         NOT FLAGW                            04710021
 00023A D202 A12F 883D 00A69 0086B   687        MVC   XU6RC8(THREE),CCIKF                                        04720021
 000240 D206 A132 87F0 00A6C 0081E   688        MVC   XU6R11(SEVEN),CCNIDW                                       04730021
 000246 5850 A0F6      00A30         689        L     RW3,XEGSTR                                                 04740021
 00024A 4860 9180      00180         690        LH    RW1,SEQERR           NUMBER OF SEQUENCE ERRORS             04750021
                             00B18   691        USING S6200,R15                                                  04760021
 00024E 58F0 886E      0089C         692        L     R15,XS6200            C                                    04770021
 000252 45E0 F004      00B1C         693        BAL   RS1,S6210             CONVERT NUMBER                       04780021
 000256 D200 5000 A111 00000 00A4B   694        MVC   ZER0(ONE1,RW3),X6WRK4                                      04790021
                                     695        DROP  R15                                                        04800021
 00025C 4155 0002      00002         696        LA    RW3,TWO(RW3)          FOR STRING ROUTINE                   04810021
 000260 5050 A0FA      00A34         697        ST    RW3,XTRPTR                                                 04820021
 000264 4160 880B      00839         698        LA    RW1,CCSEQ                                                  04830021
 000268 4116 0022      00022         699        LA     R1,THIRTY4(RW1)                                           04840021
 00026C 58F0 8866      00894         700        L     R15,XSTRNG                                                 04850021
 000270 05EF                         701        BALR  RS1,R15               GO TO STRING ROUTINE                 04860021
 000272 4860 9180      00180         702        LH    RW1,SEQERR                                                 04870021
 000276 4660 8252      00280         703        BCT   RW1,PLPLUR            IT IS PLVRAL                         04880021
 00027A D213 A14E A14F 00A88 00A89   704        MVC   XU6R39(TWENTY),XU6R40  ELIMINATE PLURAL                    04890021
                             00280   705 PLPLUR EQU   *                                                          04900021
 000280 58F0 8862      00890         706        L     R15,XPUT                                                   04910021
 000284 05EF                         707          BALR  RS1,R15             GO TO PUT OUT LINE                   04920021
 000286 91FF 91C2      001C2         708 PLS250 TM    ERF4SW,MASKFF         ANY OTHER ERRORS                     04930021
 00028A 4780 8790      007BE         709        BC    ZERO,XCLOSE      NO                                        04940021
0
0
 00028E 9105 9183      00183         712        TM    SWITC1,READFILE                                            04970021
 000292 4770 8282      002B0         713          BC    NOTZER,PLS008       GO TO SKIP LISTING & EXT             04980021
                                     714 *  ERROR MESSAGES IN TABLE                                              04990021
 000296 96FF A11D      00A57         715        OI    TESTSW,MASKFF    FOR GTF4B TO RECOGNIZE 77 AS EOF          05000021
 00029A 5810 8892      008C0         716        L     R1,XERRTB                                                  05010021
 00029E 58F0 8872      008A0         717        L     R15,XTABLE                                                 05020021
 0002A2 05EF                         718        BALR  RS1,R15               GO TO TABLE ROUTINE                  05030021
 0002A4 1841                         719        LR    INPUTR,R1                                                  05040021
 0002A6 D701 A118 A118 00A52 00A52   720        XC    X4LEN,X4LEN      TREAT TABLE AS BUFFER                     05050021
 0002AC 47F0 82A4      002D2         721        B     PLS020                GO TO PROCESS                        05060021
                                     722 * SKIP LISTING TEXT                                                     05070021
 0002B0                              723 PLS008 DS    0H                                                         05080021
 0002B0 92C0 A11C      00A56         724        MVI   X4SW,XXC0        NEW BLOCK,NOLIST TEXT, FILE 3             05090021
1PH70     IKFCBL70                                                                                              PAGE   17
-  LOC  OBJECT CODE    ADDR1 ADDR2  STMT   SOURCE STATEMENT                                       ASM 0201 11.03 02/14/15
00002B4 9104 9183      00183         725        TM    SWITC1,NOFITSW                                             05100021
 0002B8 4710 8292      002C0         726          BC    ONES,PLS009        FILE 3                                05110021
 0002BC 92F0 A11C      00A56         727        MVI   X4SW,XF0      NEW BLOCK, INPUTR, IN LIST POSITION TO 01    05120021
 0002C0                              728 PLS009   DS    0H                                                       05130021
 0002C0 58F0 886A      00898         729        L     R15,XGETF4                                                 05140021
 0002C4 4170 8790      007BE         730        LA    RW2,F4FIN        EOF RETURN                                05150021
 0002C8 05EF                         731        BALR  RS1,R15                 GET A RECORD                       05160021
 0002CA 9240 A11C      00A56         732        MVI   X4SW,X40                                                   05170021
 0002CE 47F0 82BE      002EC         733          B     PER015              GO TO SCAN TEXT                      05180021
                                     734 * END OF LISTING ELEMENTS                                               05190021
 0002D2 9240 A11C      00A56         735 PLS020 MVI   X4SW,X40              USE INPUTR, NON-LIST                 05200021
 0002D6 47F0 82AC      002DA         736        BC    UNCOND,PER010         GO TO SCAN TEXT AND LOCATE REC       05210021
                                     737 *                                                                       05220021
1PH70     IKFCBL70                                                                                              PAGE   18
-  LOC  OBJECT CODE    ADDR1 ADDR2  STMT   SOURCE STATEMENT                                       ASM 0201 11.03 02/14/15
0                                    739 *=1    PROCESS E-TEXT                                                   05240021
                             00000   740        USING A6TEXT,INPUTR                                              05250021
 0002DA 91FF A126      00A60         741 PER010 TM    PERSW,MASKFF                                               05260021
 0002DE 4770 82BE      002EC         742        BC    NOTZER,PER015    RECORD ALREADY LOCATED                    05270021
 0002E2 58F0 886A      00898         743        L     R15,XGETF4                                                 05280021
 0002E6 4170 8790      007BE         744        LA    RW2,F4FIN        EOF RETURN                                05290021
 0002EA 05EF                         745        BALR  RS1,R15               GET RECORD                           05300021
 0002EC 9400 A126      00A60         746 PER015 NI    PERSW,ZER0            RESET SW                             05310021
 0002F0 9500 4000      00000         747          CLI   DX0(INPUTR),XX00     IS THIS E-TEXT                      05320021
 0002F4 4780 8322      00350         748        BC    EQ,PER030             YES                                  05330021
 0002F8 9528 4000      00000         749          CLI   DX0(INPUTR),CONDF    IS IT CONDEF                        05340021
 0002FC 4770 8302      00330         750          BC    NOTEQ,PER027                                             05350021
 000300 91FF 4004      00004         751          TM    A6CONT,XXFF          ALL TYPE                            05360021
 000304 4710 82EC      0031A         752        BC    ONES,PER020      YES, ADD 1 TO G4LEN                       05370021
 000308 D201 A106 4005 00A40 00005   753          MVC   X6WRK0(LX2),A6CONS   NO, ADD VARIABLE FIELD SIZE         05380021
 00030E 4860 A118      00A52         754        LH    RW1,X4LEN        TO G4LEN                                  05390021
 000312 4A60 A106      00A40         755        AH    RW1,X6WRK0                                                 05400021
 000316 47F0 82FA      00328         756        BC    UNCOND,PER025         GO TO STORE LENGTH                   05410021
 00031A 1B66                         757 PER020   SR    RW1,RW1                                                  05420021
 00031C 4360 4007      00007         758          IC    RW1,A6CONLV         LENGTH OF VALUE                      05430021
 000320 4A60 A118      00A52         759 PER022   AH    RW1,X4LEN           ADJUST LENGTH                        05440021
 000324 4166 0001      00001         760          LA    RW1,DX1(RW1)         ADD COUNT BYTE                      05450021
 000328 4060 A118      00A52         761 PER025 STH   RW1,X4LEN                                                  05460021
 00032C 47F0 82AC      002DA         762        BC    UNCOND,PER010         GO TO PROCESS NEXT                   05470021
                             00330   763 PER027   EQU   *                                                        05480021
 000330 9548 4000      00000         764          CLI   ZEROE(INPUTR),DNDEF      IS IT DNDEF?                    05490021
 000334 4770 8312      00340         765          BC    NOTEQ,PER029        NO - CHECK FOR PNDEF                 05500021
 000338 4360 4006      00006         766          IC    RW1,A7DNLN          YES - GET LENGTH OF DATANAME         05510021
 00033C 47F0 82F2      00320         767          BC    UNCOND,PER022       FINISH PROCESSING                    05520021
                             00340   768 PER029   EQU   *                                                        05530021
 000340 954C 4000      00000         769          CLI   ZEROE(INPUTR),PNNDEF     IS IT XREF PNDEF?               05540021
 000344 4770 82AC      002DA         770          BC    NOTEQ,PER010             NO - GET NEXT ELEMENT           05550021
 000348 4360 4005      00005         771          IC    RW1,A7PNLN               YES - GET LENGTH OF PN          05560021
 00034C 47F0 82F2      00320         772          BC    UNCOND,PER022                                            05570021
                                     773 * E-TEXT ELEMENT                                                        05580021
 000350 91FF 4002      00002         774 PER030   TM    A6MSGZ,XXFF          MESSAGE                             05590021
 000354 4770 877E      007AC         775        BC    NOTZER,PER040         NO, PARAM                            05600021
 000358 9104 91A3      001A3         776          TM    PHZSW,XX04                                               05610021
 00035C 4770 833A      00368         777        BC    NOTZER,FLAG           FLAG AS ERROR                        05620021
 000360 91F0 4007      00007         778          TM    DX7(INPUTR),XXF0                                         05630021
 000364 4780 82AC      002DA         779        BC    ZERO,PER010      WARNING ONLY - DON'T PROCESS AS ERROR     05640021
                             00368   780 FLAG   EQU   *      FLAG                                                05650021
 000368 D202 A12F 883D 00A69 0086B   781          MVC   XU6REC+NX8(LX3),CCIKF                                    05660021
 00036E D200 A136 883D 00A70 0086B   782          MVC   XU6REC+NX15(LX1),CCIKF                                   05670021
 000374 9260 A137      00A71         783          MVI   XU6REC+NX16,XX60                                         05680021
 000378 4170 A13E      00A78         784          LA    RW2,XU6REC+NX23                                          05690021
 00037C 5070 A0FA      00A34         785        ST    RW2,XTRPTR                                                 05700021
 000380 D201 A106 4005 00A40 00005   786          MVC   X6WRK0(LX2),A6MSGC   CARD NUM TO WORK AREA               05710021
 000386 947F A106      00A40         787          NI    X6WRK0,XX7F              TURN OFF HIGH ORDER BIT         05720021
 00038A 4860 A106      00A40         788        LH    RW1,X6WRK0                                                 05730021
 00038E 1266                         789        LTR   RW1,RW1                                                    05740021
 000390 4780 8374      003A2         790        BC    ZERO,CARD00           DON'T NEED TO CONVERT                05750021
                             00B18   791        USING S6200,R15                                                  05760021
 000394 58F0 886E      0089C         792        L     R15,XS6200            C                                    05770021
 000398 45E0 F004      00B1C         793        BAL   RS1,S6210             GO CONVERT NUMBER                    05780021
1PH70     IKFCBL70                                                                                              PAGE   19
-  LOC  OBJECT CODE    ADDR1 ADDR2  STMT   SOURCE STATEMENT                                       ASM 0201 11.03 02/14/15
000039C D200 A128 A111 00A62 00A4B   794          MVC   XU6REC+NX1(LX1),X6WRK4 EXECUTED BY SUBROUTINE            05790021
                                     795        DROP  R15                                                        05800021
                             003A2   796 CARD00 EQU   *                                                          05810021
 0003A2 D201 A106 4003 00A40 00003   797          MVC   X6WRK0(LX2),A6MSGM                                       05820021
 0003A8 4860 A106      00A40         798        LH    RW1,X6WRK0                                                 05830021
 0003AC 4E60 A10E      00A48         799        CVD   RW1,X6WRK1                                                 05840021
 0003B0 F321 A133 A114 00A6D 00A4E   800          UNPK  XU6REC+NX12(LX3),X6WRK7(LX2)                             05850021
 0003B6 96F0 A135      00A6F         801          OI    XU6REC+NX14,XXF0                                         05860021
 0003BA D200 A106 4007 00A40 00007   802          MVC   X6WRK0(LX1),A6MSGS   SEVERITY AND PHASE                  05870021
 0003C0 58F0 885A      00888         803        L     R15,XS6010                                                 05880021
 0003C4 05EF                         804        BALR  RS1,R15                 CONVERT TO DEC                     05890021
 0003C6 D200 A132 A10F 00A6C 00A49   805          MVC   XU6REC+NX11(LX1),X6WRK2 PHASE TO OUTPUT                  05900021
 0003CC 4360 A10E      00A48         806        IC    RW1,X6WRK1                                                 05910021
 0003D0 5460 87A6      007D4         807        N     RW1,X6M2                                                   05920021
 0003D4 4166 8840      0086E         808        LA    RW1,ESEVS(RW1)                                             05930021
 0003D8 D200 A138 6000 00A72 00000   809          MVC   XU6REC+NX17(LX1),DX0(RW1) SEVERITY CODE LETTER           05940021
                                     810 * LOCATE MESSAGE                                                        05950021
 0003DE 4360 4007      00007         811        IC    RW1,A6MSGS                                                 05960021
 0003E2 5460 87A6      007D4         812        N     RW1,X6M2         PHASE                                     05970021
 0003E6 4960 87C8      007F6         813        CH    RW1,X6H5         BAD PHASE NUMBER                          05980021
 0003EA 4720 8774      007A2         814          BC    HI,PER035           NO TEXT                              05990021
 0003EE 0660                         815        BCTR  RW1,R0                DECREMENT FOR TABLE                  06000021
 0003F0 4C60 87CE      007FC         816        MH    RW1,X6H12                                                  06010021
 0003F4 4156 889E      008CC         817          LA    RW3,PHMESS+NX4(RW1)                                      06020021
 0003F8 5865 0000      00000         818          L     RW1,DX0(RW3)                                             06030021
 0003FC D201 A106 4003 00A40 00003   819          MVC   X6WRK0(LX2),A6MSGM                                       06040021
 000402 4170 0003      00003         820          LA    RW2,DX3                                                  06050021
 000406 4C70 A106      00A40         821        MH    RW2,X6WRK0                                                 06060021
 00040A 4975 0004      00004         822          CH    RW2,DX4(RW3)                                             06070021
 00040E 47B0 8774      007A2         823          BC    NOTLO,PER035       NO TEXT                               06080021
 000412 1A67                         824          AR    RW1,RW2                                                  06090021
 000414 9400 A11E      00A58         825          NI    MSSPTR,XX00                                              06100021
 000418 D202 A11F 6000 00A59 00000   826          MVC   MSSPTR+NX1(LX3),DX0(RW1)                                 06110021
 00041E 5860 A11E      00A58         827        L     RW1,MSSPTR                                                 06120021
                                     828 * REPOSITION STRPTR IF PARAMETER FIRST                                  06130021
 000422 955B 6000      00000         829          CLI   DX0(RW1),XX5B                                            06140021
 000426 4770 8404      00432         830        BC    NOTEQ,PER033          NOT PARAMETER                        06150021
 00042A 4150 A13D      00A77         831          LA    RW3,XU6REC+NX22                                          06160021
 00042E 5050 A0FA      00A34         832        ST    RW3,XTRPTR                                                 06170021
                                     833 * SCAN TEXT FOR PARAMETERS                                              06180021
 000432 5870 8886      008B4         834 PER033 L     RW2,ATRTBL                                                 06190021
 000436 DDFF 6000 7000 00000 00000   835          TRT   DX0(LX256,RW1),DX0(RW2)                                  06200021
 00043C 5010 A0FE      00A38         836        ST    R1,XXADDR         TO                                       06210021
 000440 4220 A125      00A5F         837        STC   R2,SEPAR                                                   06220021
 000444 58F0 8866      00894         838        L     R15,XSTRNG                                                 06230021
 000448 05EF                         839        BALR  RS1,R15               GO TO STRING ROUTINE                 06240021
 00044A 954F A125      00A5F         840        CLI   SEPAR,ACTION                                               06250021
 00044E 4720 876C      0079A         841        BC    HI,PER034        /                                         06260021
 000452 952F A125      00A5F         842        CLI   SEPAR,EPARAM                                               06270021
 000456 4740 875C      0078A         843        BC    LO,PER339        BLANK                                     06280021
 00045A 4780 84B8      004E6         844        BC    EQ,XPR030       PARAM                                      06290021
                                     845 * ACTION CODE - NUMBER FOLLOWS ( AT 1(1) )                              06300021
 00045E 95FF 1001      00001         846          CLI   DX1(R1),XXFF                                             06310021
 000462 4770 847A      004A8         847        BC    NOTEQ,XPR023          GO DETERMINE ACTION                  06320021
                                     848 *  ACTION = MUST BE LOCATED IN E-TEXT FILE                              06330021
1PH70     IKFCBL70                                                                                              PAGE   20
-  LOC  OBJECT CODE    ADDR1 ADDR2  STMT   SOURCE STATEMENT                                       ASM 0201 11.03 02/14/15
0000466 91FF A126      00A60         849          TM    PERSW,XXFF                                               06340021
 00046A 4770 844A      00478         850        BC    NOTZER,XPR020     RECORD ALREADY LOCATED                   06350021
 00046E 58F0 886A      00898         851        L     R15,XGETF4                                                 06360021
 000472 4170 8790      007BE         852        LA    RW2,F4FIN        EOF RETURN                                06370021
 000476 05EF                         853        BALR  RS1,R15            GET A RECORD                            06380021
 000478 9400 A126      00A60         854 XPR020   NI    PERSW,XX00                                               06390021
 00047C 1B66                         855        SR    RW1,RW1                                                    06400021
 00047E 4360 4001      00001         856        IC    RW1,A6PARN                                                 06410021
 000482 4166 0002      00002         857          LA    RW1,DX2(RW1)                                             06420021
 000486 4060 A118      00A52         858        STH   RW1,X4LEN                                                  06430021
 00048A D502 4000 884D 00000 0087B   859          CLC   DX0(LX3,INPUTR),ETXACT                                   06440021
 000490 4770 8472      004A0         860        BC    NOTEQ,XPR022          SET RECORD LOCATED SW ON             06450021
 000494 4114 0002      00002         861          LA    R1,DX2(INPUTR)    POINT TO BYTE BEFORE ACTION CODE       06460021
 000498 5010 A0FE      00A38         862        ST    R1,XXADDR                                                  06470021
 00049C 47F0 847A      004A8         863          B     XPR023              GO DETERMINE ACTION                  06480021
 0004A0 96FF A126      00A60         864 XPR022   OI    PERSW,XXFF     NEXT RECORD ALREADY LOCATED               06490021
 0004A4 47F0 8774      007A2         865          B     PER035                MESSAGE                            06500021
 0004A8 5860 A0FA      00A34         866 XPR023 L     RW1,XTRPTR                                                 06510021
 0004AC 4166 0001      00001         867          LA    RW1,DX1(RW1)    BLANK                                    06520021
 0004B0 5060 A0FA      00A34         868        ST    RW1,XTRPTR                                                 06530021
 0004B4 5860 8906      00934         869        L     RW1,AEACTB                                                 06540021
 0004B8 1B55                         870        SR    RW3,RW3                                                    06550021
 0004BA 5810 A0FE      00A38         871        L     R1,XXADDR                                                  06560021
 0004BE 4351 0001      00001         872          IC    RW3,DX1(R1)                                              06570021
 0004C2 4C50 87C6      007F4         873        MH    RW3,X63                                                    06580021
 0004C6 4110 8906      00934         874        LA    R1,AEACTB                                                  06590021
 0004CA 4951 0004      00004         875          CH    RW3,DX4(R1)                                              06600021
 0004CE 47B0 84A6      004D4         876        BC    NOTLO,XPR025      BAD ACTION CODE                          06610021
 0004D2 1A65                         877          AR    RW1,RW3                                                  06620021
 0004D4 9400 A11E      00A58         878 XPR025   NI    MSSPTR,XX00                                              06630021
 0004D8 D202 A11F 6000 00A59 00000   879          MVC   MSSPTR+NX1(LX3),DX0(RW1)                                 06640021
 0004DE 5860 A11E      00A58         880        L     RW1,MSSPTR                                                 06650021
 0004E2 47F0 8404      00432         881          B     PER033              GO SCAN FOR PARAMS                   06660021
                                     882 * PARAMETER REQUIRED, GET NEXT RECORD                                   06670021
 0004E6                              883 XPR030 DS    0H                                                         06680021
 0004E6 91FF A126      00A60         884          TM    PERSW,XXFF                                               06690021
 0004EA 4770 84CA      004F8         885        BC    NOTZER,XPR032     RECORD ALREADY LOCATED                   06700021
 0004EE 58F0 886A      00898         886        L     R15,XGETF4                                                 06710021
 0004F2 4170 8790      007BE         887        LA    RW2,F4FIN                                                  06720021
 0004F6 05EF                         888        BALR  RS1,R15               GET NEXT RECORD                      06730021
 0004F8 9400 A126      00A60         889 XPR032   NI    PERSW,XX00                                               06740021
 0004FC 91FF 4000      00000         890          TM    DX0(INPUTR),XXFF E-TEXT?                                 06750021
 000500 4770 84DE      0050C         891        BC    NOTZER,PER070    NO                                        06760021
 000504 91FF 4002      00002         892          TM    DX2(INPUTR),XXFF PARAM?                                  06770021
 000508 4770 84E6      00514         893        BC    NOTZER,PER080    YES                                       06780021
 00050C 96FF A126      00A60         894 PER070   OI    PERSW,XXFF      SET RECORD LOCATED                       06790021
 000510 47F0 875C      0078A         895          B     PER339          BYPASS PARAM PROCESSING                  06800021
 000514                              896 PER080 DS    0H                                                         06810021
 000514 5860 A0FA      00A34         897        L     RW1,XTRPTR                                                 06820021
 000518 4166 0001      00001         898          LA    RW1,DX1(RW1)                                             06830021
 00051C 5060 A0FA      00A34         899        ST    RW1,XTRPTR                                                 06840021
 000520 1B66                         900        SR    RW1,RW1                                                    06850021
 000522 4360 4001      00001         901        IC    RW1,A6PARN                                                 06860021
 000526 4166 0002      00002         902          LA    RW1,DX2(RW1)    RECORD LENGTH                            06870021
 00052A 4060 A118      00A52         903        STH   RW1,X4LEN                                                  06880021
1PH70     IKFCBL70                                                                                              PAGE   21
-  LOC  OBJECT CODE    ADDR1 ADDR2  STMT   SOURCE STATEMENT                                       ASM 0201 11.03 02/14/15
000052E 9505 4002      00002         904          CLI   A6PAR,XX05                                               06890021
 000532 4780 859A      005C8         905        BC    EQ,PRANLT             BCD TEXT                             06900021
 000536 9522 4002      00002         906          CLI   A6PAR,XX22                                               06910021
 00053A 4780 859A      005C8         907        BC    EQ,PRANLT             BCD TEXT                             06920021
 00053E 9523 4002      00002         908          CLI   A6PAR,XX23                                               06930021
 000542 4780 859A      005C8         909        BC    EQ,PRANLT        ALPHANUMERIC LITERAL                      06940021
 000546 9534 4002      00002         910          CLI   A6PAR,XX34                                               06950021
 00054A 4780 859A      005C8         911        BC    EQ,PRANLT        ALPHANUMERIC LITERAL                      06960021
 00054E 9542 4002      00002         912          CLI   A6PAR,XX42                                               06970021
 000552 4780 85B2      005E0         913        BC    EQ,PRCBRK        CRITICAL PROGRAM BREAK                    06980021
 000556 9543 4002      00002         914          CLI   A6PAR,XX43                                               06990021
 00055A 4780 85BE      005EC         915        BC    EQ,PRLVLN        LEVEL NUMBER                              07000021
 00055E 9544 4002      00002         916          CLI   A6PAR,XX44                                               07010021
 000562 4780 85F8      00626         917        BC    EQ,PRVERB        VERB                                      07020021
 000566 9550 4002      00002         918          CLI   A6PAR,XX50                                               07030021
 00056A 4780 8604      00632         919        BC    EQ,PRRELA        RELATIONAL                                07040021
 00056E 9552 4002      00002         920          CLI   A6PAR,XX52                                               07050021
 000572 4780 860C      0063A         921        BC    EQ,PRPREN        PARENTHESIS                               07060021
 000576 9553 4002      00002         922          CLI   A6PAR,XX53                                               07070021
 00057A 4780 8614      00642         923        BC    EQ,PRARIT        ARITHMETIC OPERATOR                       07080021
 00057E 9554 4002      00002         924          CLI   A6PAR,XX54                                               07090021
 000582 4780 861C      0064A         925        BC    EQ,PRCWRD        COBOL WORD                                07100021
 000586 9555 4002      00002         926          CLI   A6PAR,XX55                CARRIAGE CONTROL               07110021
 00058A 4780 863A      00668         927          BE    PRCARR              YES                                  07120021
 00058E 9575 4002      00002         928          CLI   A6PAR,XX75                                               07130021
 000592 4780 8626      00654         929        BC    EQ,PRFCON        FIGURATIVE CONSTANT                       07140021
 000596 9579 4002      00002         930          CLI   A6PAR,XX79                                               07150021
 00059A 4780 8646      00674         931        BC    EQ,PRSDNM        STANDARD DATA-NAME                        07160021
 00059E 95F9 4002      00002         932          CLI   A6PAR,XXF9                                               07170021
 0005A2 4780 869E      006CC         933        BC    EQ,PRGTR1        GTREF1                                    07180021
 0005A6 95FA 4002      00002         934          CLI   A6PAR,XXFA                                               07190021
 0005AA 4780 86B6      006E4         935        BC    EQ,PRGTR2        GTREF2                                    07200021
 0005AE 95FE 4002      00002         936          CLI   A6PAR,XXFE                                               07210021
 0005B2 4780 86F6      00724         937        BC    EQ,PRDICT        DICTIONARY POINTER                        07220021
                                     938 * INVALID PARAMETER CODE                                                07230021
 0005B6 4160 8850      0087E         939 PRBAD  LA    RW1,CASTRS                                                 07240021
 0005BA 4116 0002      00002         940          LA    R1,DX2(RW1)                                              07250021
 0005BE 58F0 8866      00894         941        L     R15,XSTRNG      STRING ASTERISKS                           07260021
 0005C2 05EF                         942        BALR  RS1,R15               GO STRING                            07270021
 0005C4 47F0 874C      0077A         943          B     PER333   3      CONTINUE                                 07280021
                                     944 * BCD TEXT FOLLOWS (22, 23 OR 34)                                       07290021
 0005C8 4164 0004      00004         945 PRANLT   LA    RW1,DX4(INPUTR) ADDRESS                                  07300021
 0005CC 1B77                         946        SR    RW2,RW2                                                    07310021
 0005CE 4374 0003      00003         947          IC    RW2,DX3(INPUTR) LENGTH                                   07320021
 0005D2 4116 7000      00000         948          LA    R1,DX0(RW1,RW2)                                          07330021
 0005D6 58F0 8866      00894         949        L     R15,XSTRNG      STRING BCD                                 07340021
 0005DA 05EF                         950        BALR  RS1,R15                   ROUTINE                          07350021
 0005DC 47F0 874C      0077A         951          B     PER333              PUT BALNKS IN                        07360021
                                     952 * CRITICAL PROGRAM BREAK (42)                                           07370021
 0005E0 4170 01B0      001B0         953 PRCBRK LA    RW2,CBRST                                                  07380021
 0005E4 5850 8852      00880         954        L     RW3,C6LOW5                                                 07390021
 0005E8 47F0 864E      0067C         955          B     PRSD20              GO TO ACCESS TABLE                   07400021
                                     956 * LEVEL NUMBER                                                          07410021
 0005EC 1B66                         957 PRLVLN SR    RW1,RW1                                                    07420021
 0005EE 4364 0003      00003         958          IC    RW1,DX3(INPUTR)                                          07430021
1PH70     IKFCBL70                                                                                              PAGE   22
-  LOC  OBJECT CODE    ADDR1 ADDR2  STMT   SOURCE STATEMENT                                       ASM 0201 11.03 02/14/15
00005F2 4960 87CC      007FA         959        CH    RW1,CH49                                                   07440021
 0005F6 4720 85EC      0061A         960        BC    HI,PRLV10             GREATER THAN 49                      07450021
 0005FA 4E60 A10E      00A48         961        CVD   RW1,X6WRK1                                                 07460021
 0005FE F311 A10E A114 00A48 00A4E   962          UNPK  X6WRK1(LX2),X6WRK7(LX2)                                  07470021
 000604 96F0 A10F      00A49         963          OI    X6WRK2,XXF0                                              07480021
 000608 4160 A10E      00A48         964        LA    RW1,X6WRK1                                                 07490021
 00060C 4116 0002      00002         965          LA    R1,DX2(RW1)                                              07500021
 000610 58F0 8866      00894         966        L     R15,XSTRNG                                                 07510021
 000614 05EF                         967        BALR  RS1,R15               GO TO STRING ROUTINE                 07520021
 000616 47F0 874C      0077A         968          B     PER333              PUT IN BLANKS                        07530021
 00061A 5460 87A6      007D4         969 PRLV10 N     RW1,X6M2                                                   07540021
 00061E 4170 01CF      001CF         970        LA    RW2,LVLST                                                  07550021
 000622 47F0 8654      00682         971          B     PRSD30              GO TO ACCESS PARM TABLE              07560021
                                     972 * VERB (44)                                                             07570021
 000626 4170 0100      00100         973 PRVERB LA    RW2,VRBST                                                  07580021
 00062A 5850 87AE      007DC         974        L     RW3,X6MA                                                   07590021
 00062E 47F0 864E      0067C         975          B     PRSD20              GO TO ACCESS PARM TABLE              07600021
                                     976 * RELATIONAL (50)                                                       07610021
 000632 4170 0180      00180         977 PRRELA LA    RW2,RELST                                                  07620021
 000636 47F0 864A      00678         978          B     PRSD10              GO TO ACCESS PARM TABLE              07630021
                                     979 * PARENTHESIS (52)                                                      07640021
 00063A 4170 0190      00190         980 PRPREN LA    RW2,PARST                                                  07650021
 00063E 47F0 864A      00678         981          B     PRSD10              GO TO ACCESS PARM TABLE              07660021
                                     982 * ARITHMETIC OPERATOR (53)                                              07670021
 000642 4170 01A0      001A0         983 PRARIT LA    RW2,ARIST                                                  07680021
 000646 47F0 864A      00678         984          B     PRSD10              GO TO ACCESS PARM TABLE              07690021
                                     985 * COBOL WORD (54)                                                       07700021
 00064A 1B77                         986 PRCWRD SR    RW2,RW2                                                    07710021
 00064C 5850 87E2      00810         987        L     RW3,X6M3                                                   07720021
 000650 47F0 864E      0067C         988          B     PRSD20              GO TO ACCESS PARM TABLE              07730021
                                     989 * FIGURATIVE CONSTANT (75)                                              07740021
 000654 4364 0003      00003         990 PRFCON   IC    RW1,DX3(INPUTR)                                          07750021
 000658 8860 0003      00003         991          SRL   RW1,DX3                                                  07760021
 00065C 5460 8852      00880         992        N     RW1,C6LOW5                                                 07770021
 000660 4170 01D0      001D0         993        LA    RW2,FCOST                                                  07780021
 000664 47F0 8654      00682         994          B     PRSD30              GO TO ACCESS PARM TABLE              07790021
                                     995 * STANDARD DATA-NAME (79)                                               07800021
                                     996 * CARRIAGE CONTROL CHARACTER                                            07810021
 000668 4170 0183      00183         997 PRCARR   LA    RW2,PARCAR                                               07820021
 00066C 5850 87AA      007D8         998          L     RW3,X6M4                                                 07830021
 000670 47F0 864E      0067C         999          B     PRSD20              GO ACCESS PARM TABLE                 07840021
 000674 4170 01F8      001F8        1000 PRSDNM LA    RW2,SDNST                                                  07850021
 000678 5850 87A6      007D4        1001 PRSD10 L     RW3,X6M2                                                   07860021
 00067C 4364 0003      00003        1002 PRSD20   IC    RW1,DX3(INPUTR)                                          07870021
 000680 1465                        1003        NR    RW1,RW3                                                    07880021
 000682 1A67                        1004 PRSD30 AR    RW1,RW2                                                    07890021
 000684 4176 6000      00000        1005          LA    RW2,DX0(RW1,RW1)                                         07900021
 000688 1A67                        1006        AR    RW1,RW2          RELATIVE TABLE POSITION                   07910021
 00068A 5810 88FE      0092C        1007        L     R1,APARTB                                                  07920021
 00068E 4166 1000      00000        1008          LA    RW1,DX0(RW1,R1)  LOCATION OF POINTER                     07930021
 000692 D202 A11F 6000 00A59 00000  1009          MVC   MSSPTR+NX1(LX3),DX0(RW1)                                 07940021
 000698 5860 A11E      00A58        1010        L     RW1,MSSPTR                                                 07950021
 00069C 5870 8886      008B4        1011 PRSD40 L     RW2,ATRTBL                                                 07960021
 0006A0 DDFF 6000 7000 00000 00000  1012          TRT   DX0(LX256,RW1),DX0(RW2) SCAN FOR END (/)                 07970021
 0006A6 4220 A125      00A5F        1013        STC   R2,SEPAR                                                   07980021
1PH70     IKFCBL70                                                                                              PAGE   23
-  LOC  OBJECT CODE    ADDR1 ADDR2  STMT   SOURCE STATEMENT                                       ASM 0201 11.03 02/14/15
00006AA 58F0 8866      00894        1014        L     R15,XSTRNG                                                 07990021
 0006AE 05EF                        1015        BALR  RS1,R15            STRING TEXT                             08000021
 0006B0 4161 0001      00001        1016          LA    RW1,DX1(R1)      NEXT SCAN LOC                           08010021
 0006B4 5850 A0FA      00A34        1017        L     RW3,XTRPTR                                                 08020021
 0006B8 4155 0001      00001        1018          LA    RW3,DX1(RW3)                                             08030021
 0006BC 5050 A0FA      00A34        1019        ST    RW3,XTRPTR                                                 08040021
 0006C0 958F A125      00A5F        1020        CLI   SEPAR,ENTEX                                                08050021
 0006C4 4770 866E      0069C        1021        BC    NOTEQ,PRSD40          GO SCAN FOR /                        08060021
 0006C8 47F0 8750      0077E        1022          B     PER335              CONTINUE SCAN                        08070021
 0006CC                             1023 PRGTR1 DS    0H                                                         08080021
 0006CC 1B77                        1024        SR    RW2,RW2                                                    08090021
 0006CE 4374 0003      00003        1025          IC    RW2,DX3(INPUTR) TYPE OF CELL                             08100021
 0006D2 8970 0001      00001        1026          SLL   RW2,DX1                                                  08110021
 0006D6 5A70 887A      008A8        1027        A     RW2,XXGT1C                                                 08120021
 0006DA 1B55                        1028        SR    RW3,RW3                                                    08130021
 0006DC 4354 0004      00004        1029          IC    RW3,DX4(INPUTR) DISPLACEMENT                             08140021
 0006E0 47F0 86CA      006F8        1030          B     PRGTR3          TO COMMON PROCESSOR                      08150021
 0006E4                             1031 PRGTR2 DS    0H                                                         08160021
 0006E4 1B77                        1032        SR    RW2,RW2                                                    08170021
 0006E6 4374 0003      00003        1033          IC    RW2,DX3(INPUTR) TYPE OF CELL                             08180021
 0006EA 5A70 8876      008A4        1034        A     RW2,XXGT2C                                                 08190021
 0006EE D201 A106 4004 00A40 00004  1035          MVC   X6WRK0(LX2),DX4(INPUTR)                                  08200021
 0006F4 4850 A106      00A40        1036        LH    RW3,X6WRK0                                                 08210021
 0006F8 1867                        1037 PRGTR3 LR    RW1,RW2                                                    08220021
 0006FA 4116 0004      00004        1038          LA    R1,DX4(RW1)      FOR SYMBOLICS                           08230021
 0006FE 58F0 8866      00894        1039        L     R15,XSTRNG                                                 08240021
 000702 05EF                        1040        BALR  RS1,R15               GO STRING                            08250021
 000704 1865                        1041        LR    RW1,RW3          NUMBER OR DISP                            08260021
 000706 5850 A0FA      00A34        1042        L     RW3,XTRPTR                                                 08270021
 00070A 58F0 886E      0089C        1043        L     R15,XS6200                                                 08280021
                             00B18  1044        USING S6200,R15                                                  08290021
 00070E 45E0 F004      00B1C        1045        BAL   RS1,S6210             GO CONVERT                           08300021
 000712 D200 5000 A111 00000 00A4B  1046          MVC   DX0(LX1,RW3),X6WRK4                                      08310021
                                    1047        DROP  R15                                                        08320021
 000718 4155 0002      00002        1048          LA    RW3,DX2(RW3)                                             08330021
 00071C 5050 A0FA      00A34        1049        ST    RW3,XTRPTR                                                 08340021
 000720 47F0 8750      0077E        1050          B     PER335              GO CONTINUE SCAN                     08350021
 000724                             1051 PRDICT DS    0H                                                         08360021
 000724 5860 885E      0088C        1052        L     RW1,XXSYMC                                                 08370021
 000728 4116 0004      00004        1053          LA    R1,DX4(RW1)                                              08380021
 00072C 58F0 8866      00894        1054        L     R15,XSTRNG                                                 08390021
 000730 05EF                        1055        BALR  RS1,R15               GO STRING                            08400021
 000732 D201 A106 4003 00A40 00003  1056          MVC   X6WRK0(LX2),DX3(INPUTR)                                  08410021
 000738 4860 A106      00A40        1057        LH    RW1,X6WRK0                                                 08420021
 00073C 8860 0001      00001        1058          SRL   RW1,DX1                                                  08430021
 000740 5460 87C2      007F0        1059        N     RW1,X6M13                                                  08440021
 000744 5850 A0FA      00A34        1060        L     RW3,XTRPTR                                                 08450021
 000748 58F0 886E      0089C        1061        L     R15,XS6200                                                 08460021
                             00B18  1062        USING S6200,R15                                                  08470021
 00074C 45E0 F004      00B1C        1063        BAL   RS1,S6210         CONVERT AND MOVE SECTION =               08480021
 000750 D200 5000 A111 00000 00A4B  1064          MVC   DX0(LX1,RW3),X6WRK4                                      08490021
 000756 9260 5001      00001        1065          MVI   DX1(RW3),XX60   INSERT HYPHEN                            08500021
 00075A D201 A106 4004 00A40 00004  1066          MVC   X6WRK0(LX2),DX4(INPUTR)                                  08510021
 000760 4860 A106      00A40        1067        LH    RW1,X6WRK0                                                 08520021
 000764 5460 87BE      007EC        1068        N     RW1,X6M9                                                   08530021
1PH70     IKFCBL70                                                                                              PAGE   24
-  LOC  OBJECT CODE    ADDR1 ADDR2  STMT   SOURCE STATEMENT                                       ASM 0201 11.03 02/14/15
0000768 45E0 F004      00B1C        1069        BAL   RS1,S6210             GO CONVERT                           08540021
 00076C D200 5002 A111 00002 00A4B  1070          MVC   DX2(LX0,RW3),X6WRK4                                      08550021
                                    1071        DROP  R15                                                        08560021
 000772 4155 0003      00003        1072          LA    RW3,DX3(RW3)                                             08570021
 000776 5050 A0FA      00A34        1073        ST    RW3,XTRPTR                                                 08580021
 00077A                             1074 PER333 DS    0H                                                         08590021
 00077A 47F0 875C      0078A        1075          B     PER339           NO QUOTES                               08600021
                                    1076 * CONTINUE SCAN                                                         08610021
 00077E                             1077 PER335 DS    0H                                                         08620021
 00077E 5860 A0FE      00A38        1078        L     RW1,XXADDR                                                 08630021
 000782 4166 0001      00001        1079          LA    RW1,DX1(RW1)                                             08640021
 000786 47F0 8404      00432        1080          B     PER033              GO SCAN FOR PARMS                    08650021
 00078A 5860 A0FA      00A34        1081 PER339 L     RW1,XTRPTR                                                 08660021
 00078E 4166 0001      00001        1082          LA    RW1,DX1(RW1)    BLANK                                    08670021
 000792 5060 A0FA      00A34        1083        ST    RW1,XTRPTR                                                 08680021
 000796 47F0 8750      0077E        1084          B     PER335              GO CONTINUE SCAN                     08690021
                                    1085 * END OF MESSAGE TEXT                                                   08700021
 00079A 5860 A0FA      00A34        1086 PER034 L     RW1,XTRPTR       NO NEED TO CALL STRING ROUTINE,           08710021
 00079E 924B 6000      00000        1087          MVI   DX0(RW1),XX4B    SINCE THIS IS END OF MESSAGE.           08720021
 0007A2                             1088 PER035 DS    0H                                                         08730021
 0007A2 58F0 8862      00890        1089        L     R15,XPUT                                                   08740021
 0007A6 05EF                        1090          BALR  RS1,R15             GO PUT                               08750021
                                    1091 * BACK TO GET NEXT                                                      08760021
 0007A8 47F0 82AC      002DA        1092          B     PER010              GO PROCESS NEXT                      08770021
                                    1093 *                                                                       08780021
                                    1094 * MISPLACED PARAMETER RECORD - SKIP                                     08790021
 0007AC 1B66                        1095 PER040 SR    RW1,RW1                                                    08800021
 0007AE 4360 4001      00001        1096        IC    RW1,A6PARN            PARAMETER LENGTH                     08810021
 0007B2 4166 0002      00002        1097          LA    RW1,DX2(RW1)         + 2 IS                              08820021
 0007B6 4060 A118      00A52        1098        STH   RW1,X4LEN                                                  08830021
 0007BA 47F0 82AC      002DA        1099          B     PER010              GO PROCESS NEXT                      08840021
1PH70     IKFCBL70                                                                                              PAGE   25
-  LOC  OBJECT CODE    ADDR1 ADDR2  STMT   SOURCE STATEMENT                                       ASM 0201 11.03 02/14/15
0                                   1101 *=1   ERROR MESSAGE PROCESSING FINISHED                                 08860021
                                    1102 *                                                                       08870021
 0007BE                             1103 F4FIN  DS    0H                                                         08880021
                             007BE  1104 F4DONE EQU   *                                                          08890021
 0007BE                             1105 XCLOSE DS    0H                                                         08900021
 0007BE 58F0 8862      00890        1106          L     R15,XPUT                                                 08910021
 0007C2 05EF                        1107          BALR  RS1,R15             MAKE SURE NOTHING LEFT               08920021
                                    1108 *=1    END OF ERROR NSG PROCESSING                                      08930021
 0007C4 0509                        1109          BALR  R0,RB2              CALL PH00                            08940021
 0007C6 B0                          1110        DC    X'B0'                                                      08950021
1PH70     IKFCBL70                                                                                              PAGE   26
-  LOC  OBJECT CODE    ADDR1 ADDR2  STMT   SOURCE STATEMENT                                       ASM 0201 11.03 02/14/15
0                                   1112 *                                                                       08970021
 0007C7 00
 0007C8 0000093A                    1113 AEDATA DC    A(EDATA)                                                   08980021
 0007CC C5D9D9D4E2C74040            1114 XERRID DC    C'ERRMSG  '                                                08990021
 0007D4 0000000F                    1115 X6M2   DC    F'15'                                                      09000021
 0007D8 00                          1116 X6M4     DC    X'00'                                                    09010021
 0007D9 000000
 0007DC 000000FF                    1117 X6MA   DC    F'255'                                                     09020021
 0007E0 000000F9                    1118 C69    DC    F'249'      F9 MASK                                        09030021
 0007E4 00000007                    1119 C6M1   DC    A(7)                                                       09040021
 0007E8 0000007F                    1120 FW127  DC    F'127'                                                     09050021
 0007EC 000001FF                    1121 X6M9   DC    F'511'                                                     09060021
 0007F0 00001FFF                    1122 X6M13  DC    F'8191'                                                    09070021
 0007F4 0003                        1123 X63    DC    H'3'                                                       09080021
 0007F6 0005                        1124 X6H5   DC    H'5'                                                       09090021
 0007F8 0040                        1125 CHX40  DC    H'64'                                                      09100021
 0007FA 0031                        1126 CH49   DC    H'49'                                                      09110021
 0007FC 000C                        1127 X6H12  DC    H'12'                                                      09120021
 0007FE 0100                        1128 X6256  DC    H'256'                                                     09130021
 000800 D7D57EF0                    1129 GPNC   DC    C'PN=0'                                                    09140021
 000804 C7D57EF0                    1130 GGNC   DC    C'GN=0'                                                    09150021
 000808 E5D57EF0                    1131 GVNC   DC    C'VN=0'                                                    09160021
 00080C D9D7C47E                    1132 XRPD   DC    C'RPD='                                                    09170021
 000810 000000FF                    1133 X6M3   DC    F'255'                                                     09180021
                             00810  1134 C6M3   EQU   X6M3                                                       09190021
                             007D4  1135 C6M2   EQU   X6M2                                                       09200021
 000814 7F00                        1136 MAXPRM DC    H'32512'                                                   09210021
 000816 0000
 000818 0000FFFF                    1137 X6M7   DC    F'65535'                                                   09220021
 00081C 0040                        1138 C6X40  DC    H'64'                                                      09230021
                             00818  1139 C6M7   EQU   X6M7                                                       09240021
 00081E F1F1F0F0C960E6              1140 CCNIDW DC    C'1100I-W'                                                 09250021
 000825 C3C1D9C4404040              1141 MSSHDG DC    C'CARD   '                                                 09260021
 00082C C5D9D9D6D940D4C5            1142        DC    C'ERROR MESSAGE'                                           09270021
 000834 E2E2C1C7C5
 000839 E2C5D8E4C5D5C3C5            1143 CCSEQ  DC    C'SEQUENCE ERRORS '                                        09280021
 000841 40C5D9D9D6D9E240
 000849 C9D540E2D6E4D9C3            1144        DC    C'IN SOURCE PROGRA'                                        09290021
 000851 C540D7D9D6C7D9C1
 000859 D44B                        1145        DC    C'M.'                                                      09300021
 00085B D7C8C1E2C5404040            1146 EMLHDG DC    C'PHASE   MESSAGES'                                        09310021
 000863 D4C5E2E2C1C7C5E2
 00086B C9D2C6                      1147 CCIKF  DC    C'IKF'                                                     09320021
 00086E E6C3C5C5C5C5C5C5            1148 ESEVS  DC    C'WCEEEEEED'                                               09330021
 000876 C4
                                    1149 *            BLQUOT AND QUOTBL MUST BE TOGETHER                         09340021
 000877 407D                        1150 BLQUOT DC    C' '''                                                     09350021
 000879 7D40                        1151 QUOTBL DC    C''' '                                                     09360021
 00087B 0002CC                      1152 ETXACT DC    X'0002CC'        SPECIAL ACTION CODE                       09370021
 00087E 5C5C                        1153 CASTRS DC    C'**'                                                      09380021
 000880 0000001F                    1154 C6LOW5 DC    F'31'                                                      09390021
 000884 00000ACA                    1155 XTREND DC    A(XU6REC+105)                                              09400021
 000888 00000ADA                    1156 XS6010 DC    A(S6010)                                                   09410021
 00088C 0000A800                    1157 XXSYMC DC    A(XSYMC)                                                   09420021
 000890 00000DF0                    1158 XPUT   DC    A(PUT)                                                     09430021
1PH70     IKFCBL70                                                                                              PAGE   27
-  LOC  OBJECT CODE    ADDR1 ADDR2  STMT   SOURCE STATEMENT                                       ASM 0201 11.03 02/14/15
0000894 00000E14                    1159 XSTRNG DC    A(STRING)                                                  09440021
 000898 00000BB8                    1160 XGETF4 DC    A(GETF4)                                                   09450021
 00089C 00000B18                    1161 XS6200 DC    A(S6200)                                                   09460021
 0008A0 00000EB8                    1162 XTABLE DC    A(TABLES)                                                  09470021
 0008A4 0000A820                    1163 XXGT2C DC    A(XDCBC)                                                   09480021
 0008A8 0000A800                    1164 XXGT1C DC    A(XSAVC-4)                                                 09490021
 0008AC 00008E68                    1165 APARAM DC    A(PAR000)                                                  09500021
 0008B0 0000990C                    1166 APREND DC    A(PAREND)                                                  09510021
 0008B4 0000990C                    1167 ATRTBL DC    A(TRTABL)                                                  09520021
 0008B8 00008990                    1168 AEACAD DC    A(EACT00)                                                  09530021
 0008BC 00008E62                    1169 AENDEA DC    A(ENDEAC)                                                  09540021
 0008C0 00                          1170 XERRTB DC    X'00'                                                      09550021
 0008C1 00005C                      1171        DC    AL3(ERRTBL)                                                09560021
 0008C4 05DC                        1172        DC    H'1500'                                                    09570021
 0008C6 0000                        1173        DC    H'0'                                                       09580021
                             008C0  1174 AERRTB EQU   XERRTB                                                     09590021
                                    1175 ***  BEGINNING OF BLOCK WHICH MUST STAY TOGETHER  ***                   09600021
 0008C8                             1176 PHMESS   DS    0F                                                       09610021
 0008C8 00000ED6                    1177          DC    A(TX1000)           PH1 MESSAGES                         09620021
 0008CC 00009A10                    1178        DC    A(PH1ERR)                                                  09630021
 0008D0 023D                        1179        DC    H'573'                    HIGHEST = 191              9321  09640021
 0008D2 0000                        1180          DC    H'0'                                                     09650021
 0008D4 00003180                    1181          DC    A(TX2000)           PH2 MESSAGES                         09660021
 0008D8 00009C50                    1182        DC    A(PH2ERR)                                                  09670021
 0008DC 02B5                        1183          DC    H'693'             HIGHEST = 230                   51873 09680021
 0008DE 0000                        1184          DC    H'0'                                                     09690021
 0008E0 00006570                    1185          DC    A(TX3000)           PH3 MESSAGES                         09700021
 0008E4 00009F08                    1186        DC    A(PH3ERR)                                                  09710021
 0008E8 005D                        1187          DC    H'93'                HIGHEST = 30                        09720021
 0008EA 0000                        1188          DC    H'0'                                                     09730021
 0008EC 00006990                    1189          DC    A(TX4000)           PH4 MESSAGES                         09740021
 0008F0 00009F68                    1190        DC    A(PH4ERR)                                                  09750021
 0008F4 01C5                        1191          DC    H'453'          HIGHEST = 150                      43536 09760021
 0008F6 0000                        1192          DC    H'0'                                                     09770021
 0008F8 00008732                    1193        DC    A(TX5000)            PH5 MESSAGES                          09780021
 0008FC 0000A130                    1194        DC    A(PH5ERR)                                                  09790021
 000900 0039                        1195        DC    H'57'                 HIGHEST = 18                         09800021
 000902 0000                        1196        DC    H'0'                                                       09810021
 000904 0000898C                    1197 APHXER   DC    A(TXTEND)           END OF MESSAGE TEXT                  09820021
                                    1198 ***  END OF BLOCK WHICH MUST STAY TOGETHER  ***                         09830021
                                    1199 ***  BEGINNING OF BLOCK WHICH MUST STAY TOGETHER ***                    09840021
 000908 00001968                    1200 ADRTAB DC    AL4(TX1064)                                                09850021
 00090C 000025F8                    1201        DC    AL4(TX1129)                                                09860021
 000910 00003FC0                    1202        DC    AL4(TX2064)                                                09870021
 000914 00004EE0                    1203        DC    AL4(TX2129)                                                09880021
 000918 000078B0                    1204        DC    AL4(TX4064)                                                09890021
                                    1205 ***  END OF BLOCK WHICH MUST STAY TOGETHER  ***                         09900021
 00091C 00000908                    1206 AADRTB DC    A(ADRTAB)                                                  09910021
 000920                             1207 ADRSAV DS    F                                                          09920021
 000924                             1208 SAVR1  DS    F                                                          09930021
 000928                             1209 SAVEXT DS    F                                                          09940021
 00092C 0000A200                    1210 APARTB DC    A(PARTAB)                                                  09950021
 000930 0600                        1211        DC    H'1536'                                                    09960021
 000932 0000                        1212        DC    H'0'                                                       09970021
 000934 0000A16C                    1213 AEACTB DC    A(EACTAB)                                                  09980021
1PH70     IKFCBL70                                                                                              PAGE   28
-  LOC  OBJECT CODE    ADDR1 ADDR2  STMT   SOURCE STATEMENT                                       ASM 0201 11.03 02/14/15
0000938 0093                        1214        DC    H'147'               HIGHEST = 48                          09990021
                             0093A  1215 EDATA  EQU   *                                                          10000021
 00093C                             1216 PH7SAV DS    18F                                                        10010021
 000984                             1217 PATCH7 DS    25F                       PATCH AREA FOR PH7 CODING        10020021
 0009E8                             1218 XH7COS DS    F                                                          10030021
 0009EC                             1219 SVREG  DS    16F                                                        10040021
 000A2C                             1220 XAPTXT DS    F                                                          10050021
 000A30                             1221 XEGSTR DS    F                                                          10060021
 000A34                             1222 XTRPTR DS    F                                                          10070021
 000A38                             1223 XXADDR DS    F                                                          10080021
 000A3C                             1224 X6RW2  DS    F                                                          10090021
 000A40                             1225 X6WRK0 DS    F                                                          10100021
 000A48                             1226        DS    0D                                                         10110021
 000A48                             1227 X6WRK1 DS    C                                                          10120021
 000A49                             1228 X6WRK2 DS    C                                                          10130021
 000A4A                             1229 X6WRK3 DS    C                                                          10140021
 000A4B                             1230 X6WRK4 DS    C                                                          10150021
 000A4C                             1231 X6WRK5 DS    C                                                          10160021
 000A4D                             1232 X6WRK6 DS    C                                                          10170021
 000A4E                             1233 X6WRK7 DS    C                                                          10180021
 000A4F                             1234 X6WRK8 DS    C                                                          10190021
 000A50                             1235        DS    C                                                          10200021
 000A52                             1236 X4LEN  DS    H                                                          10210021
                             00A52  1237 G4LEN  EQU   X4LEN                                                      10220021
 000A54                             1238 XTRTOT DS    H                                                          10230021
 000A56                             1239 X4SW   DS    C                                                          10240021
                             00A56  1240 F4SW   EQU   X4SW                                                       10250021
 000A57 00                          1241 TESTSW DC X'00'                                                         10260021
 000A58                             1242 MSSPTR DS    F                                                          10270021
 000A5C                             1243 MESNUM DS    H                                                          10280021
 000A5E                             1244 PHASE  DS    C                                                          10290021
 000A5F                             1245 SEPAR  DS    C                                                          10300021
 000A60                             1246 PERSW  DS    C                                                          10310021
                                    1247 *=1    7.  OUTPUT AREA--SYSOU LISTING                                   10320021
                                    1248 *                                                                       10330021
 000A61                             1249 OU6REC DS    0CL120                                                     10340021
 000A61                             1250        DS    C                                                          10350021
 000A62                             1251 OU6CDN DS    CL5              CARD NUMBER                               10360021
 000A67                             1252        DS    CL2                                                        10370021
 000A69                             1253 OU6STR DS      CL1          ASTERISK                                    10380021
 000A6A                             1254 OU6LST DS      CL10         LISTING TEXT (PN OR VERB)                   10390021
 000A74                             1255        DS      CL1                                                      10400021
 000A75                             1256 OU6LC  DS    CL6                        LOCATION COUNTER                10410021
 000A7B                             1257        DS    CL2                                                        10420021
 000A7D                             1258 OU6OP  DS    CL2                        OP CODE                         10430021
 000A7F                             1259        DS    CL1                                                        10440021
 000A80                             1260 OU6R1  DS    CL1                        REGISTER 1                      10450021
 000A81                             1261 OU6R2  DS    CL1                        REGISTER 2                      10460021
 000A82                             1262        DS    CL1                                                        10470021
 000A83                             1263 OU6B1  DS    CL1                        BASE 1                          10480021
 000A84                             1264        DS    CL1                                                        10490021
 000A85                             1265 OU6D1  DS    CL3                        DISPLACEMENT 1                  10500021
 000A88                             1266        DS    CL1                                                        10510021
 000A89                             1267 OU6B2  DS    CL1                        BASE 2                          10520021
 000A8A                             1268        DS    CL1                                                        10530021
1PH70     IKFCBL70                                                                                              PAGE   29
-  LOC  OBJECT CODE    ADDR1 ADDR2  STMT   SOURCE STATEMENT                                       ASM 0201 11.03 02/14/15
0000A8B                             1269 OU6D2  DS    CL3                        DISPLACEMENT 2                  10540021
 000A8E                             1270        DS      CL2                                                      10550021
 000A90                             1271 OU6NAM DS      CL8          NAME                                        10560021
 000A98                             1272        DS    CL1                                                        10570021
 000A99                             1273 OU6OPN DS    CL5                        OPERATION                       10580021
 000A9E                             1274        DS    CL1                                                        10590021
 000A9F                             1275 OU6OPD DS      CL21         OPERANDS(ACTUAL)                            10600021
 000AB4                             1276        DS      CL1                                                      10610021
                             00AB5  1277 OU6SO1 EQU    *                                                         10620021
 000AB5                             1278 OU6S1  DS      CL15         OPERAND 1 (SYMBOLIC)                        10630021
 000AC4                             1279        DS      CL1                                                      10640021
                             00AC5  1280 OU6SO2 EQU    *                                                         10650021
 000AC5                             1281 OU6S2  DS      CL15         OPERAND 2 (SYMBOLIC)                        10660021
 000AD4                             1282        DS      CL5                                                      10670021
                             00A61  1283 XU6REC EQU   OU6REC                                                     10680021
                                    1284 *=1    2.  PROCESS A-TEXT ELEMENTS--SUBROUTINES                         10690021
                                    1285 *                                                                       10700021
                                    1286 *      SUBROUTINES   LINK BY L  15,ADCON FOR BASE                       10710021
                                    1287 *     BALR  RS1,R15                                                     10720021
                                    1288 *                                                                       10730021
                                    1289 *                                                                       10740021
                                    1290 *                                                                       10750021
                                    1291 *=1          CONVERT HEXADECIMAL WORD TO DECIMAL CHARACTERS             10760021
                                    1292 *            WORD FOR CONVERSION IS IN C6WRK0 BEFORE LINK               10770021
                                    1293 *            DECIMAL CHARACTERS IN C6WRK1-8 WHEN RETURN                 10780021
 000ADA                             1294          DS    0H                                                       10790021
                             00ADA  1295       USING *,R15                                                       10800021
 000ADA 900F A0B2      009EC        1296 S6010 STM   R0,R15,SVREG                                                10810021
                                    1297 *                                                                       10820021
 000ADE F384 A10E A106 00A48 00A40  1298          UNPK  X6WRK1(LX9),X6WRK0(LX5)                                  10830021
 000AE4 4170 0008      00008        1299          LA    RW2,DX8                   INIT CTR                       10840021
 000AE8 1B66                        1300        SR    RW1,RW1                    CLEAR REGISTER                  10850021
 000AEA 4367 A10D      00A47        1301 S6020    IC    RW1,X6WRK1-NX1(RW2)                                      10860021
 000AEE 5560 87B2      007E0        1302        CL    RW1,C69                    IS A-F                          10870021
 000AF2 4720 F026      00B00        1303        BC    HI,S6040                     YES                           10880021
 000AF6 4670 F010      00AEA        1304 S6030  BCT   RW2,S6020                  GET NEXT CHARACTER              10890021
 000AFA 980F A0B2      009EC        1305       LM    R0,R15,SVREG                                                10900021
 000AFE 07FE                        1306          BCR   UNCOND,RS1      EXIT                                     10910021
                                    1307 *                                                                       10920021
 000B00 5460 87B6      007E4        1308 S6040  N     RW1,C6M1                   CLEAR ALL BUT LOW-ORD 3 BIT     10930021
 000B04 4366 F036      00B10        1309        IC    RW1,S6060(RW1)        LOAD APPROPRIATE CHAR                10940021
 000B08 4267 A10D      00A47        1310          STC   RW1,X6WRK1-NX1(RW2)                                      10950021
 000B0C 47F0 F01C      00AF6        1311        BC    UNCOND,S6030          GO TO EXIT                           10960021
 000B10 F0F0C1C2C3C4C5C6            1312 S6060  DC    CL8'00ABCDEF'                                              10970021
                                    1313     DROP  R15                                                           10980021
                                    1314 *                                                                       10990021
                                    1315 *=1          CONVERT MAX 255 BINARY TO DECIMAL,COUNT SIGNIFICANT CH     11000021
                                    1316 *            VALUE IS IN RW1 BEFORE LINK                                11010021
                                    1317 *            SIGNIFICANT CHARACTERS IN C6WRK6-8 WHEN RETURN             11020021
                                    1318 *            NUMBER-1 OF SIGNIFICANT CHARS IN RW2 WHEN RETURN           11030021
                                    1319 *            OU6OPD+RW2 IN RW3 WHEN RETURN                              11040021
                             00B18  1320       USING *,R15                                                       11050021
 000B18 5460 87E2      00810        1321 S6200  N     RW1,C6M3                   CLEAR ALL BUT LOW-ORD 8 BIT     11060021
 000B1C 5460 87EA      00818        1322 S6210  N     RW1,C6M7              CLEAR FIRST 2 BYTES                  11070021
 000B20 47F0 F014      00B2C        1323        BC    UNCOND,S6240          GO CONVERT                           11080021
1PH70     IKFCBL70                                                                                              PAGE   30
-  LOC  OBJECT CODE    ADDR1 ADDR2  STMT   SOURCE STATEMENT                                       ASM 0201 11.03 02/14/15
0000B24 8860 0004      00004        1324 S6260    SRL   RW1,DX4              RIGHT-JUSTIFY                       11090021
 000B28 5460 87A6      007D4        1325 S6250  N     RW1,C6M2              USE 4 BITS                           11100021
 000B2C 900F F060      00B78        1326 S6240 STM   R0,R15,V6210                                                11110021
 000B30 4E60 A10E      00A48        1327        CVD   RW1,X6WRK1                                                 11120021
 000B34 5860 A112      00A4C        1328        L     RW1,X6WRK5         XXXXX+                                  11130021
 000B38 8860 0004      00004        1329          SRL   RW1,DX4                   DROP SIGN BITS                 11140021
 000B3C 5060 A106      00A40        1330        ST    RW1,X6WRK0                                                 11150021
 000B40 58F0 885A      00888        1331       L     R15,XS6010          CONVERT                                 11160021
 000B44 05EF                        1332       BALR  RS1,R15                      ROUTINE                        11170021
 000B46 58F0 886E      0089C        1333       L     R15,XS6200                                                  11180021
 000B4A 4170 0004      00004        1334          LA    RW2,DX4              INIT RW2 COUNT                      11190021
 000B4E 95F0 A111      00A4B        1335 S6230    CLI   X6WRK4,XC0    SIGNIFICANT                                11200021
 000B52 4770 F048      00B60        1336        BC    NOTEQ,S6220                  YES                           11210021
 000B56 D203 A111 A112 00A4B 00A4C  1337          MVC   X6WRK4(LX4),X6WRK5                                       11220021
 000B5C 4670 F036      00B4E        1338        BCT   RW2,S6230             MODIFY COUNT AND TEST                11230021
                             00B60  1339 S6220  EQU   *                                                          11240021
 000B60 5070 A102      00A3C        1340        ST    RW2,X6RW2                                                  11250021
 000B64 980F F060      00B78        1341       LM    R0,R15,V6210                                                11260021
 000B68 5870 A102      00A3C        1342        L     RW2,X6RW2                                                  11270021
 000B6C 447E 0000      00000        1343          EX    RW2,DX0(RS1)    EXECUTE MVC INSTR FOR FIELD              11280021
 000B70 1A57                        1344        AR    RW3,RW2                    TO STEP OPERAND ADDR            11290021
 000B72 41EE 0006      00006        1345          LA    RS1,DX6(RS1)     EXIT                                    11300021
 000B76 07FE                        1346          BCR   UNCOND,RS1             EXIT                              11310021
 000B78                             1347 V6210  DS    16F                                                        11320021
                                    1348     DROP  R15                                                           11330021
1PH70     IKFCBL70                                                                                              PAGE   31
-  LOC  OBJECT CODE    ADDR1 ADDR2  STMT   SOURCE STATEMENT                                       ASM 0201 11.03 02/14/15
0000BB8                             1350 IKF702 CSECT                                                            11350021
                                    1351 *=1        GETF4         PROCESS FILE F4                                11360021
                                    1352 *                                                                       11370021
                                    1353 *            CALLED BY  L   15,AGETF4 ... BALR  14,15                   11380021
                                    1354 *            NORMAL RETURN   BCR  15,14                                 11390021
                                    1355 *            EOF RETURN      BCR  15,RW2                                11400021
                                    1356 *            AT EXIT                                                    11410021
                                    1357 *              INPUTR  OR  F4REG (AS SPECIFIED) HAS LOCATION            11420021
                                    1358 *              OF DESIRED RECORD, G4LEN HAS RECORD LENGTH.              11430021
                                    1359 *            F4SW USED TO DETERMINE PROPER RECORD HANDLING              11440021
                                    1360 *                                                                       11450021
                             00BB8  1361       USING GETF4,R15                                                   11460021
 000BB8                             1362 GETF4  DS    0H                                                         11470021
 000BB8 9108 A11C      00A56        1363          TM    F4SW,XX08                                                11480021
 000BBC 0777                        1364        BCR   NOTZER,RW2       EOF EXIT                                  11490021
 000BBE 9110 A11C      00A56        1365          TM    F4SW,XX10                                                11500021
 000BC2 4770 F014      00BCC        1366        BC    NOTZER,GT405     POSITION TO 01                            11510021
 000BC6 9104 A11C      00A56        1367          TM    F4SW,XX04                                                11520021
 000BCA 0777                        1368        BCR   NOTZER,RW2       TAKE EOF UNTIL REQUEST                    11530021
 000BCC 94FB A11C      00A56        1369 GT405    NI    F4SW,XXFB        TO POSITION TO 01                       11540021
 000BD0 900F F134      00CEC        1370       STM   R0,R15,SGETF4                                               11550021
 000BD4 9180 A11C      00A56        1371          TM    F4SW,XX80                                                11560021
 000BD8 4770 F044      00BFC        1372        BC    NOTZER,GT4C      GET INITIAL BLOCK                         11570021
 000BDC 185B                        1373        LR    RW3,F4REG                                                  11580021
 000BDE 9140 A11C      00A56        1374          TM    F4SW,XX40                                                11590021
 000BE2 4780 F030      00BE8        1375        BC    ZERO,GT4A             DON'T USE INPUTR                     11600021
 000BE6 1854                        1376        LR    RW3,INPUTR       USE INPUTR                                11610021
 000BE8 4A50 A118      00A52        1377 GT4A   AH    RW3,G4LEN                                                  11620021
 000BEC 9577 5000      00000        1378          CLI   DX0(RW3),XX77                                            11630021
 000BF0 4780 F0E4      00C9C        1379        BC    EQ,G4EOFX             GO TO EOFEXIT                        11640021
 000BF4 95FF 5000      00000        1380 GT4B     CLI   DX0(RW3),XXFF                                            11650021
 000BF8 4770 F062      00C1A        1381        BC    NOTEQ,GT4E       NO NEW BLOCK NEEDED                       11660021
                             00BFC  1382 GT4C   EQU   *                                                          11670021
 000BFC 9101 9183      00183        1383          TM    SWITCH+NX1,RDERRFIL                                      11680021
 000C00 47E0 F054      00C0C        1384          BC    NOTONE,GT4D         GO READ F4                           11690021
 000C04 0509                        1385          BALR  R0,RB2              READ F4                              11700021
 000C06 04                          1386        DC    X'04'                                                      11710021
 000C07 00
 000C08 47F0 F058      00C10        1387          BC    UNCOND,GT4J         SEE IF EOF                           11720021
 000C0C                             1388 GT4D     DS    0H                                                       11730021
 000C0C 0509                        1389          BALR  R0,RB2              READ F3                              11740021
 000C0E 03                          1390          DC    X'03'                                                    11750021
 000C10                             1391 GT4J     DS    0H                                                       11760021
 000C10 4780 F0DC      00C94        1392        BC    EOF,G4EOF             IF EOF RETURN                        11770021
 000C14 1850                        1393       LR    RW3,R0                                                      11780021
 000C16 47F0 F03C      00BF4        1394          B     GT4B            CHECK FOR FF                             11790021
 000C1A 5050 F174      00D2C        1395 GT4E   ST    RW3,G4FND                                                  11800021
 000C1E 947F A11C      00A56        1396          NI    F4SW,XX7F       TURN OFF NEW BLOCK BIT                   11810021
 000C22 9120 A11C      00A56        1397          TM    F4SW,XX20                                                11820021
 000C26 4780 F0B6      00C6E        1398        BC    ZERO,GT4I        NOT IN LISTING TEXT                       11830021
 000C2A 4365 0000      00000        1399          IC    RW1,DX0(RW3)                                             11840021
 000C2E 5460 87BA      007E8        1400        N     RW1,FW127        LAST 7 BITS FOR LENGTH                    11850021
 000C32 4060 A118      00A52        1401        STH   RW1,G4LEN                                                  11860021
 000C36 9501 5000      00000        1402          CLI   DX0(RW3),XX01                                            11870021
 000C3A 4740 F0EE      00CA6        1403        BC    LO,G4ER1              ERROR                                11880021
1PH70     IKFCBL70                                                                                              PAGE   32
-  LOC  OBJECT CODE    ADDR1 ADDR2  STMT   SOURCE STATEMENT                                       ASM 0201 11.03 02/14/15
0000C3E 4720 F096      00C4E        1404        BC    HI,GT4F               SEE IF RETURN                        11890021
 000C42 9110 A11C      00A56        1405          TM    F4SW,XX10       END OF LISTING                           11900021
 000C46 4780 F0F8      00CB0        1406        BC    ZERO,G4ER2       NOT EXPECTED                              11910021
 000C4A 47F0 F09E      00C56        1407          B     GT4G                GO RESTORE REGS                      11920021
 000C4E 9110 A11C      00A56        1408 GT4F     TM    F4SW,XX10                                                11930021
 000C52 4770 F030      00BE8        1409        BC    NOTZER,GT4A      SKIP TO 01                                11940021
 000C56 980F F134      00CEC        1410 GT4G  LM    R0,R15,SGETF4                                               11950021
 000C5A                             1411 GT4G5  DS    0H                                                         11960021
 000C5A 9140 A11C      00A56        1412          TM    F4SW,XX40                                                11970021
 000C5E 4780 F0B0      00C68        1413        BC    ZERO,GT4H        USE F4REG                                 11980021
 000C62 5840 F174      00D2C        1414        L     INPUTR,G4FND                                               11990021
 000C66 07FE                        1415          BCR   UNCOND,RS1          RERTURN                              12000021
 000C68 58B0 F174      00D2C        1416 GT4H   L     F4REG,G4FND                                                12010021
 000C6C 07FE                        1417          BCR   UNCOND,RS1      RETURN                                   12020021
                                    1418 *                                                                       12030021
 000C6E 1B66                        1419 GT4I   SR    RW1,RW1                                                    12040021
 000C70 9538 5000      00000        1420          CLI   DX0(RW3),CKPTDF                                          12050021
 000C74 4720 F10C      00CC4        1421        BC    HI,G4ER3         BAD CODE                                  12060021
 000C78 9103 5000      00000        1422          TM    DX0(RW3),XX03                                            12070021
 000C7C 4770 F10C      00CC4        1423        BC    NOTZER,G4ER3     BAD CODE                                  12080021
 000C80 4365 0000      00000        1424          IC    RW1,DX0(RW3)                                             12090021
 000C84 8860 0001      00001        1425          SRL   RW1,DX1                                                  12100021
 000C88 4866 F210      00DC8        1426        LH    RW1,LTLB2(RW1)   GET LENGTH FROM TABLE                     12110021
 000C8C 4060 A118      00A52        1427        STH   RW1,X4LEN                                                  12120021
 000C90 47F0 F09E      00C56        1428          B     GT4G                GO CHECK                             12130021
                                    1429 *                                                                       12140021
 000C94 9120 A11C      00A56        1430 G4EOF    TM    F4SW,XX20                                                12150021
 000C98 4770 F116      00CCE        1431        BC    NOTZER,G4ER4     EOF WHILE DOING LISTING                   12160021
 000C9C 980F F134      00CEC        1432 G4EOFX LM R0,R15,SGETF4                                                 12170021
 000CA0 18E7                        1433       LR    RS1,RW2             LOAD RETURN REGISTER                    12180021
 000CA2 47F0 F0A2      00C5A        1434          B     GT4G5               GO TO EXIT                           12190021
                                    1435 *                                                                       12200021
 000CA6 D216 A14D F19C 00A87 00D54  1436 G4ER1    MVC   XU6REC+NX38(LX23),G4ER01                                 12210021
 000CAC 47F0 F11C      00CD4        1437          B     G4ERC               EOF RETURN                           12220021
 000CB0 9604 A11C      00A56        1438 G4ER2    OI    F4SW,XX04       EOF EXIT UNTIL POSITION REQUEST          12230021
 000CB4 D701 A118 A118 00A52 00A52  1439        XC    G4LEN,G4LEN                                                12240021
 000CBA D21A A14D F1B3 00A87 00D6B  1440          MVC   XU6REC+NX38(LX27),G4ER02                                 12250021
 000CC0 47F0 F120      00CD8        1441          B     G4ERD               RETURN                               12260021
 000CC4 D217 A14D F1CE 00A87 00D86  1442 G4ER3    MVC   XU6REC+NX38(LX24),G4ER03                                 12270021
 000CCA 47F0 F11C      00CD4        1443          B     G4ERC               EOF RETURN                           12280021
 000CCE D228 A14D F1E6 00A87 00D9E  1444 G4ER4    MVC   XU6REC+NX38(LX41),G4ER04                                 12290021
 000CD4 9608 A11C      00A56        1445 G4ERC    OI    F4SW,XX08       EOF RETURN                               12300021
 000CD8 D223 A128 F178 00A62 00D30  1446 G4ERD    MVC   XU6REC+NX1(LX36),G4ERE                                   12310021
 000CDE 58F0 8862      00890        1447       L     R15,XPUT                                                    12320021
 000CE2 05EF                        1448       BALR  RS1,R15                GO PUT MSG OUT                       12330021
 000CE4 58F0 886A      00898        1449       L     R15,XGETF4                                                  12340021
 000CE8 47F0 F0E4      00C9C        1450          B     G4EOFX          RETURN                                   12350021
                                    1451 *                                                                       12360021
 000CEC                             1452 SGETF4 DS    16F                                                        12370021
 000D2C                             1453 G4FND  DS    F                                                          12380021
                                    1454 *                                                                       12390021
 000D30 5C5C40C5D9D9D6D9            1455 G4ERE  DC    C'** ERROR FOUND P'                                        12400021
 000D38 40C6D6E4D5C440D7
 000D40 D9D6C3C5E2E2C9D5            1456        DC    C'ROCESSING F4 TEX'                                        12410021
 000D48 C740C6F440E3C5E7
1PH70     IKFCBL70                                                                                              PAGE   33
-  LOC  OBJECT CODE    ADDR1 ADDR2  STMT   SOURCE STATEMENT                                       ASM 0201 11.03 02/14/15
0000D50 E3405C5C                    1457        DC    C'T **'                                                    12420021
 000D54 F0F040C3D6C4C540            1458 G4ER01 DC    C'00 CODE IN LISTI'                                        12430021
 000D5C C9D540D3C9E2E3C9
 000D64 D5C740E3C5E7E3              1459        DC    C'NG TEXT'                                                 12440021
 000D6B C5D5C440D6C640D3            1460 G4ER02 DC    C'END OF LISTING T'                                        12450021
 000D73 C9E2E3C9D5C740E3
 000D7B C5E7E340D9C5C1C3            1461        DC    C'EXT REACHED'                                             12460021
 000D83 C8C5C4
 000D86 E4D5D2D5D6E6D540            1462 G4ER03 DC    C'UNKNOWN DATA A-T'                                        12470021
 000D8E C4C1E3C140C160E3
 000D96 C5E7E340C3D6C4C5            1463        DC    C'EXT CODE'                                                12480021
 000D9E C5D6C640D9C5C1C3            1464 G4ER04 DC    C'EOF REACHED WHIL'                                        12490021
 000DA6 C8C5C440E6C8C9D3
 000DAE C540D7D9D6C3C5E2            1465        DC    C'E PROCESSING LIS'                                        12500021
 000DB6 E2C9D5C740D3C9E2
 000DBE E3C9D5C740E3C5E7            1466        DC    C'TING TEXT'                                               12510021
 000DC6 E3
                                    1467 *                                                                       12520021
                                    1468 *  TABLE OF LENGTHS BY RECORD TYPE                                      12530021
                                    1469 *                                                                       12540021
                                    1470 *            LENGTH    CODE   RECORD                                    12550021
                                    1471 *                                                                       12560021
 000DC7 00
 000DC8 0008                        1472 LTLB2  DC    H'8'        0    MESSAGE   VARIABLE IF PARAM               12570021
 000DCA 0005                        1473        DC    H'5'        4    DCBADEF                                   12580021
 000DCC 0009                        1474        DC    H'9'        8    DECBADEF                                  12590021
 000DCE 0009                        1475        DC    H'9'        C    BLKADEF                                   12600021
 000DD0 0000                        1476        DC    H'0'        10                                             12610021
 000DD2 0000                        1477        DC    H'0'        14                                             12620021
 000DD4 0000                        1478        DC    H'0'        18                                             12630021
 000DD6 0000                        1479        DC    H'0'        1C                                             12640021
 000DD8 0009                        1480        DC    H'9'        20   SAADEF                                    12650021
 000DDA 0008                        1481        DC    H'8'        24   WSADEF                                    12660021
 000DDC 0007                        1482        DC    H'7'        28   CONDEF    PLUS VF SIZE                    12670021
 000DDE 0008                        1483        DC    H'8'        2C   ACONDEF                                   12680021
 000DE0 0008                        1484        DC    H'8'        30   INDADEF                                   12690021
 000DE2 0003                        1485        DC    H'3'        34   QDEF                                      12700021
 000DE4 0003                        1486        DC    H'3'        38   CKPTDEF                                   12710021
 000DE6 0000                        1487          DC    H'0'           3C                                        12720021
 000DE8 0000                        1488          DC    H'0'           40                                        12730021
 000DEA 0000                        1489          DC    H'0'           44                                        12740021
 000DEC 0007                        1490          DC    H'7'           48                                        12750021
 000DEE 0006                        1491          DC    H'6'           4C                                        12760021
                                    1492     DROP  R15                                                           12770021
1PH70     IKFCBL70                                                                                              PAGE   34
-  LOC  OBJECT CODE    ADDR1 ADDR2  STMT   SOURCE STATEMENT                                       ASM 0201 11.03 02/14/15
0                                   1494 *=1  PUT ROUTINE                                                        12790021
                                    1495 *                                                                       12800021
                                    1496 *      ENTRY POINTS      PUT--WRITE LINE IF LIST MODE                   12810021
 000DF0                             1497        DS    0H                                                         12820021
                             00DF0  1498       USING *,R15                                                       12830021
                             00DF0  1499 PUT    EQU   *                                                          12840021
 000DF0 900F A0B2      009EC        1500       STM   R0,R15,SVREG                                                12850021
 000DF4 4120 A127      00A61        1501       LA    R2,OU6REC                                                   12860021
 000DF8 4130 0078      00078        1502          LA    R3,DX120                                                 12870021
 000DFC 0509                        1503       BALR  R0,RB2                 PUT MSG OUT                          12880021
 000DFE 16                          1504          DC    X'16'                                                    12890021
 000DFF 00
 000E00 0509                        1505          BALR  R0,RB2              CALL PH00                            12900021
 000E02 86                          1506          DC    X'86'                                                    12910021
 000E03 00
 000E04 9240 A127      00A61        1507          MVI   OU6REC,XX40     BLANK OUTPUT AREA                        12920021
 000E08 D276 A128 A127 00A62 00A61  1508          MVC   OU6REC+NX1(LX119),OU6REC                                 12930021
 000E0E 980F A0B2      009EC        1509       LM    R0,R15,SVREG                                                12940021
 000E12 07FE                        1510          BCR   UNCOND,RS1          RETURN                               12950021
                                    1511     DROP  R15                                                           12960021
                                    1512 *=1    STRING            THIS ROUTINE STRINGS MESSAGE TEXT              12970021
                                    1513 *                        INTO THE OUTPUT AREA. IT ALSO CALLS            12980021
                                    1514 *                        'PUT' WHEN IT NEEDS A NEW LINE.                12990021
                                    1515 *            INPUT  REG RW1 HAS BEGINNING ADDRESS OF TEXT.              13000021
                                    1516 *                   REG 1 HAS END ADDRESS PLUS 1.                       13010021
                                    1517 *                                                                       13020021
                             00E14  1518       USING STRING,R15                                                  13030021
 000E14                             1519 STRING DS    0H                                                         13040021
 000E14 900F F064      00E78        1520       STM   R0,R15,VSTRIN      SAVE REGS                                13050021
 000E18 1B16                        1521       SR    R1,RW1            LENGTH OF TEXT                            13060021
 000E1A 1211                        1522       LTR   R1,R1                                                       13070021
 000E1C 4780 F042      00E56        1523        BC    ZERO,STR015           GO TO RETURN                         13080021
 000E20 4820 A11A      00A54        1524       LH    R2,XTRTOT                                                   13090021
 000E24 1A21                        1525       AR    R2,R1                                                       13100021
 000E26 4020 A11A      00A54        1526       STH   R2,XTRTOT                                                   13110021
 000E2A 4910 87CA      007F8        1527       CH    R1,CHX40                                                    13120021
 000E2E 47D0 F022      00E36        1528        BC    NOTHI,STR005     USE MAX 64 CHARACTERS                     13130021
 000E32 4810 87CA      007F8        1529       LH    R1,CHX40                                                    13140021
 000E36                             1530 STR005 DS    0H                                                         13150021
 000E36 5870 A0FA      00A34        1531        L     RW2,XTRPTR                                                 13160021
 000E3A 1857                        1532 STR010 LR    RW3,RW2                                                    13170021
 000E3C 1A51                        1533       AR    RW3,R1                                                      13180021
 000E3E 5950 8856      00884        1534        C     RW3,XTREND                                                 13190021
 000E42 4720 F048      00E5C        1535        BC    HI,STR020        NO, PUT OUT PREVIOUS LINE                 13200021
 000E46 0610                        1536       BCTR  R1,R0              MOVE CHARACTERS                          13210021
 000E48 4410 F05E      00E72        1537       EX    R1,MOVING                                                   13220021
 000E4C 1A71                        1538       AR    RW2,R1                                                      13230021
 000E4E 4177 0001      00001        1539          LA    RW2,DX1(RW2)    NEXT RECEIVING FIELD                     13240021
 000E52 5070 A0FA      00A34        1540        ST    RW2,XTRPTR                                                 13250021
 000E56                             1541 STR015 DS    0H                                                         13260021
 000E56 980F F064      00E78        1542       LM    R0,R15,VSTRIN      RESTORE REGS                             13270021
 000E5A 07FE                        1543          BCR   UNCOND,RS1      EXIT                                     13280021
                                    1544 *                                                                       13290021
 000E5C                             1545 STR020 DS    0H                                                         13300021
                             00DF0  1546       USING PUT,R15                                                     13310021
1PH70     IKFCBL70                                                                                              PAGE   35
-  LOC  OBJECT CODE    ADDR1 ADDR2  STMT   SOURCE STATEMENT                                       ASM 0201 11.03 02/14/15
0000E5C 58F0 8862      00890        1547       L     R15,XPUT                                                    13320021
 000E60 05EF                        1548          BALR  RS1,R15             GO TO PUT OUT LINE                   13330021
                             00E14  1549       USING STRING,R15                                                  13340021
 000E62 58F0 8866      00894        1550       L     R15,XSTRNG                                                  13350021
 000E66 5870 A0F6      00A30        1551        L     RW2,XEGSTR                                                 13360021
 000E6A 5070 A0FA      00A34        1552        ST    RW2,XTRPTR                                                 13370021
 000E6E 47F0 F026      00E3A        1553          B     STR010              CHECK FOR NEXT                       13380021
                                    1554 *                                                                       13390021
 000E72 D200 7000 6000 00000 00000  1555 MOVING   MVC   DX0(LX1,RW2),DX0(RW1) EXEC BY STRING                     13400021
 000E78                             1556 VSTRIN DS    16F                                                        13410021
                                    1557     DROP  R15                                                           13420021
1PH70     IKFCBL70                                                                                              PAGE   36
-  LOC  OBJECT CODE    ADDR1 ADDR2  STMT   SOURCE STATEMENT                                       ASM 0201 11.03 02/14/15
-
                                    1560 *=1    TABLES            FIND CURRENT START AND LENGTH OF A TABLE       13450021
                                    1561 *                        INPUT - R1 HAS TIB ADDRESS                     13460021
                                    1562 *                        OUTPUT - R1 HAS START                          13470021
                                    1563 *                               - R2 HAS LENGTH                         13480021
                                    1564 *      NO BASE REGISTER NEEDED                                          13490021
 000EB8                             1565 TABLES DS    0H                                                         13500021
 000EB8 4111 0000      00000        1566          LA    R1,DX0(R1)       ELIMINATE HIGH BYTE                     13510021
 000EBC 1B22                        1567       SR    R2,R2              ZERO LENGTH                              13520021
 000EBE 5910 A0AE      009E8        1568       C     R1,XH7COS                                                   13530021
 000EC2 07DE                        1569       BCR   NOTHI,RS1         NO TABLE                                  13540021
 000EC4 5811 0000      00000        1570          L     R1,DX0(R1)                                               13550021
 000EC8 4821 0004      00004        1571          LH    R2,DX4(R1)       LENGTH                                  13560021
 000ECC 5811 0000      00000        1572          L     R1,DX0(R1)                                               13570021
 000ED0 4111 0000      00000        1573          LA    R1,DX0(R1)       TABLE START                             13580021
 000ED4 07FE                        1574          BCR   UNCOND,RS1          RETURN                               13590021
1PH70     IKFCBL70                                                                                              PAGE   37
-  LOC  OBJECT CODE    ADDR1 ADDR2  STMT   SOURCE STATEMENT                                       ASM 0201 11.03 02/14/15
1PH70     IKFCBL70                                                                                              PAGE   38
-  LOC  OBJECT CODE    ADDR1 ADDR2  STMT   SOURCE STATEMENT                                       ASM 0201 11.03 02/14/15
0                                   1577 *=1    ERROR MESSAGE TABLE                                              13620021
                                    1578 *=                                                                      13630021
 000ED6 61                          1579 TX1000 DC    C'/'                                                       13640021
 000ED7 D5E4D4C5D9C9C340            1580 TX1001 DC    C'NUMERIC LITERAL '                                        13650021
 000EDF D3C9E3C5D9C1D340
 000EE7 D5D6E340D9C5C3D6            1581        DC    C'NOT RECOGNIZED A'                                        13660021
 000EEF C7D5C9E9C5C440C1
 000EF7 E240D3C5E5C5D340            1582        DC    C'S LEVEL NUMBER B'                                        13670021
 000EFF D5E4D4C2C5D940C2
 000F07 C5C3C1E4E2C55BC9            1583        DC    C'ECAUSE$ILLEGAL A'                                        13680021
 000F0F D3D3C5C7C1D340C1
 000F17 E240E4E2C5C44B7E            1584        DC    C'S USED.='                                                13690021
 000F1F 22                          1585        DC    FL1'34'                                                    13700021
 000F20 5BE2C5C3E3C9D6D5            1586 TX1002   DC    C'$SECTION HEADER '                                      13710021
 000F28 40C8C5C1C4C5D940
 000F30 D4C9E2E2C9D5C74B            1587        DC    C'MISSING.='                                               13720021
 000F38 7E
 000F39 1C                          1588        DC    FL1'28'                                                    13730021
 000F3A 5BD7C1D9C1C7D9C1            1589 TX1003   DC    C'$PARAGRAPH NAME '                                      13740021
 000F42 D7C840D5C1D4C540
 000F4A D4C9E2E2C9D5C74B            1590        DC    C'MISSING.='                                               13750021
 000F52 7E
 000F53 1C                          1591        DC    FL1'28'                                                    13760021
 000F54 C9D5E5C1D3C9C440            1592 TX1004 DC    C'INVALID WORD$.='                                         13770021
 000F5C E6D6D9C45B4B7E
 000F63 30                          1593        DC    FL1'48'                                                    13780021
 000F64 C9D5E5C1D3C9C440            1594 TX1005   DC    C'INVALID ORDER IN'                                      13790021
 000F6C D6D9C4C5D940C9D5
 000F74 40C5D5E5C9D9D6D5            1595          DC    C' ENVIRONMENT DIV'                                      13800021
 000F7C D4C5D5E340C4C9E5
 000F84 C9E2C9D6D54B40E2            1596          DC    C'ISION. SKIPPING '                                      13810021
 000F8C D2C9D7D7C9D5C740
 000F94 E3D640D5C5E7E340            1597          DC    C'TO NEXT DIVISION'                                      13820021
 000F9C C4C9E5C9E2C9D6D5
 000FA4 61                          1598          DC    C'/'                                                     13830021
 000FA5 C4C5C3D3C1D9C1E3            1599 TX1006 DC    C'DECLARATIVES SEC'                                        13840021
 000FAD C9E5C5E240E2C5C3
 000FB5 E3C9D6D540E6C9E3            1600        DC    C'TION WITHOUT USE'                                        13850021
 000FBD C8D6E4E340E4E2C5
 000FC5 40E2C5D5E3C5D5C3            1601          DC    C' SENTENCE. SECTION CAN NEVER '                         13860021
 000FCD C54B40E2C5C3E3C9
 000FD5 D6D540C3C1D540D5
 000FDD C5E5C5D940
 000FE2 C2C540C5E7C5C3E4            1602          DC    C'BE EXECUTED/'                                          13870021
 000FEA E3C5C461
 000FEE 5BD5D6E340D7D9C5            1603 TX1007 DC    C'$NOT PRECEDED BY'                                        13880021
 000FF6 C3C5C4C5C440C2E8
 000FFE 40C140E2D7C1C3C5            1604        DC    C' A SPACE.='                                              13890021
 001006 4B7E
 001008 29                          1605        DC    FL1'41'                                                    13900021
 001009 D9C9C7C8E340D7C1            1606 TX1008 DC    C'RIGHT PAREN SHOU'                                        13910021
 001011 D9C5D540E2C8D6E4
 001019 D3C440D5D6E340C2            1607        DC    C'LD NOT BE PRECED'                                        13920021
 001021 C540D7D9C5C3C5C4
 001029 C5C440C2E840E2D7            1608        DC    C'ED BY SPACE/'                                            13930021
1PH70     IKFCBL70                                                                                              PAGE   39
-  LOC  OBJECT CODE    ADDR1 ADDR2  STMT   SOURCE STATEMENT                                       ASM 0201 11.03 02/14/15
0001031 C1C3C561
 001035 C3D6D7E840D4E4E2            1609 TX1009   DC    C'COPY MUST BE PRE'                                      13940021
 00103D E340C2C540D7D9C5
 001045 C3C5C4C5C440C2E8            1610          DC    C'CEDED BY PROCEDU'                                      13950021
 00104D 40D7D9D6C3C5C4E4
 001055 D9C560D5C1D4C54B            1611          DC    C'RE-NAME.='                                             13960021
 00105D 7E
 00105E 02                          1612          DC    FL1'2'                                                   13970021
 00105F D3C5C6E340D7C1D9            1613 TX1010 DC    C'LEFT PAREN SHOUL'                                        13980021
 001067 C5D540E2C8D6E4D3
 00106F C440D5D6E340C2C5            1614        DC    C'D NOT BE FOLLOWE'                                        13990021
 001077 40C6D6D3D3D6E6C5
 00107F C440C2E840E2D7C1            1615        DC    C'D BY SPACE/'                                             14000021
 001087 C3C561
 00108A D9C5C3D6D9C4C9D5            1616 TX1011 DC    C'RECORDING MODE S'                                        14010021
 001092 C740D4D6C4C540E2
 00109A D7C5C3C9C6C9C3C1            1617        DC    C'PECIFICATION IS '                                        14020021
 0010A2 E3C9D6D540C9E240
 0010AA C9D5E5C1D3C9C44B            1618        DC    C'INVALID. ASSUMED'                                        14030021
 0010B2 40C1E2E2E4D4C5C4
 0010BA 40E5C1D9C9C1C2D3            1619        DC    C' VARIABLE/'                                              14040021
 0010C2 C561
 0010C4 C6C9D3C560D5C1D4            1620 TX1012   DC    C'FILE-NAME NOT UN'                                      14050021
 0010CC C540D5D6E340E4D5
 0010D4 C9D8E4C54B40E4E2            1621          DC    C'IQUE. USING FIRS'                                      14060021
 0010DC C9D5C740C6C9D9E2
 0010E4 E340C4C5C6C9D5C9            1622          DC    C'T DEFINITION/'                                         14070021
 0010EC E3C9D6D561
 0010F1 C3C8C1D9C1C3E3C5            1623 TX1013 DC    C'CHARACTER LENGTH'                                        14080021
 0010F9 D940D3C5D5C7E3C8
 001101 40C9D540E2D7C5C3            1624        DC    C' IN SPECIAL-NAME'                                        14090021
 001109 C9C1D360D5C1D4C5
 001111 E240D4E4E2E340C2            1625          DC    C'S MUST BE ONE/'                                        14100021
 001119 C540D6D5C561
 00111F 7DC6C9D3C57D40D5            1626 TX1014   DC    C'''FILE'' NOT PRE'                                      14110021
 001127 D6E340D7D9C5
 00112D E2C5D5E340C9D540            1627          DC    C'SENT IN MULTIPLE'                                      14120021
 001135 D4E4D3E3C9D7D3C5
 00113D 40C6C9D3C540C3D3            1628          DC    C' FILE CLAUSE.='                                        14130021
 001145 C1E4E2C54B7E
 00114B 1C                          1629          DC    FL1'28'                                                  14140021
 00114C C5E7E3C5D9D5C1D3            1630 TX1015   DC    C'EXTERNAL NAME$IN PROGRAM-ID, '                         14150021
 001154 40D5C1D4C55BC9D5
 00115C 40D7D9D6C7D9C1D4
 001164 60C9C46B40
 001169 D3C9C2D9C1D9E840            1631          DC    C'LIBRARY REFERENCE OR SYSTEM NAME INVALID. '            14160021
 001171 D9C5C6C5D9C5D5C3
 001179 C540D6D940E2E8E2
 001181 E3C5D440D5C1D4C5
 001189 40C9D5E5C1D3C9C4
 001191 4B40
 001193 C5E7E3C5D9D5C1D3            1632          DC    C'EXTERNAL NAME='                                        14170021
 00119B 40D5C1D4C57E
 0011A1 02                          1633        DC    FL1'2'                                                     14180021
 0011A2 D4D6D9C540E3C8C1            1634 TX1016   DC    C'MORE THAN ONE$CL'                                      14190021
1PH70     IKFCBL70                                                                                              PAGE   40
-  LOC  OBJECT CODE    ADDR1 ADDR2  STMT   SOURCE STATEMENT                                       ASM 0201 11.03 02/14/15
00011AA D540D6D5C55BC3D3
 0011B2 C1E4E2C54B7E                1635        DC    C'AUSE.='                                                  14200021
 0011B8 1E                          1636        DC    FL1'30'                                                    14210021
 0011B9 5BC9D5E5C1D3C9C4            1637 TX1017 DC    C'$INVALID IN$'                                            14220021
 0011C1 40C9D55B
 0011C5 C3D3C1E4E2C54B7E            1638        DC    C'CLAUSE.='                                                14230021
 0011CD 1E                          1639        DC    FL1'30'                                                    14240021
 0011CE C3D6D7E840C3D3C1            1640 TX1018 DC    C'COPY CLAUSE INVA'                                        14250021
 0011D6 E4E2C540C9D5E5C1
 0011DE D3C9C440C9D540C1            1641        DC    C'LID IN A COPY LI'                                        14260021
 0011E6 40C3D6D7E840D3C9
 0011EE C2D9C1D9E840D6D9            1642          DC    C'BRARY OR LIB OPT'                                      14270021
 0011F6 40D3C9C240D6D7E3
 0011FE C9D6D540D5D6E340            1643          DC    C'ION NOT SPECIFIE'                                      14280021
 001206 E2D7C5C3C9C6C9C5
 00120E C44B7E                      1644          DC    C'D.='                                                   14290021
 001211 02                          1645        DC    FL1'2'                                                     14300021
 001212 D5D640D3C9C2D9C1            1646 TX1019 DC    C'NO LIBRARY NAME.'                                        14310021
 00121A D9E840D5C1D4C54B
 001222 40C3D6D7E87E                1647        DC    C' COPY='                                                  14320021
 001228 13                          1648        DC    FL1'19'                                                    14330021
 001229 5BD4E4E2E340C2C5            1649 TX1020   DC    C'$MUST BE PROCEDU'                                      14340021
 001231 40D7D9D6C3C5C4E4
 001239 D9C560D5C1D4C540            1650          DC    C'RE-NAME FOLLOWIN'                                      14350021
 001241 C6D6D3D3D6E6C9D5
 001249 C740C4C5C2E4C74B            1651          DC    C'G DEBUG.$/'                                            14360021
 001251 5B61
 001253 FF                          1652        DC    XL1'FF'                                                    14370021
 001254 5BC4D6C5E240D5D6            1653 TX1021 DC    C'$DOES NOT BELONG'                                        14380021
 00125C E340C2C5D3D6D5C7
 001264 40D6D540C4C5C2E4            1654        DC    C' ON DEBUG CARD.'                                         14390021
 00126C C740C3C1D9C44B
 001273 7E                          1655        DC    C'='                                                       14400021
 001274 1F                          1656        DC    FL1'31'                                                    14410021
 001275 D7C5D9C9D6C440C4            1657 TX1022 DC    C'PERIOD DOES NOT '                                        14420021
 00127D D6C5E240D5D6E340
 001285 C2C5D3D6D5C740D6            1658        DC    C'BELONG ON DEBUG'                                         14430021
 00128D D540C4C5C2E4C7
 001294 40C3C1D9C44B40C4            1659        DC    C' CARD. DELETED/'                                         14440021
 00129C C5D3C5E3C5C461
 0012A3 C9D5E5C1D3C9C47E            1660 TX1023 DC    C'INVALID='                                                14450021
 0012AB 2F                          1661        DC    FL1'47'                                                    14460021
 0012AC E4D5C4C5C6C9D5C5            1662 TX1024 DC    C'UNDEFINED='                                              14470021
 0012B4 C47E
 0012B6 2F                          1663        DC    FL1'47'                                                    14480021
 0012B7 D9C5C4C5C6C9D5C5            1664 TX1025 DC    C'REDEFINES CLAUSE'                                        14490021
 0012BF E240C3D3C1E4E2C5
 0012C7 40D5D6E340C6C9D9            1665        DC    C' NOT FIRST CLAUS'                                        14500021
 0012CF E2E340C3D3C1E4E2
 0012D7 C540C6D6D3D3D6E6            1666        DC    C'E FOLLOWING DATA'                                        14510021
 0012DF C9D5C740C4C1E3C1
 0012E7 60D5C1D4C54B40C1            1667        DC    C'-NAME. ASSUMED F'                                        14520021
 0012EF E2E2E4D4C5C440C6
 0012F7 C9D9E2E361                  1668        DC    C'IRST/'                                                   14530021
 0012FC E3D6E3C1D3C5C440            1669 TX1026   DC    C'TOTALED AND TOTA'                                      14540021
1PH70     IKFCBL70                                                                                              PAGE   41
-  LOC  OBJECT CODE    ADDR1 ADDR2  STMT   SOURCE STATEMENT                                       ASM 0201 11.03 02/14/15
0001304 C1D5C440E3D6E3C1
 00130C D3C9D5C740C1D9C5            1670          DC    C'LING AREA CLAUSE'                                      14550021
 001314 C140C3D3C1E4E2C5
 00131C E240D4E4E2E340C2            1671          DC    C'S MUST BOTH BE S'                                      14560021
 001324 D6E3C840C2C540E2
 00132C D7C5C3C9C6C9C5C4            1672          DC    C'PECIFIED/'                                             14570021
 001334 61
 001335 C6C9D3C540E6C9E3            1673 TX1027   DC    C'FILE WITH TOTALE'                                      14580021
 00133D C840E3D6E3C1D3C5
 001345 C440C1D9C5C140C3            1674          DC    C'D AREA CLAUSE AN'                                      14590021
 00134D D3C1E4E2C540C1D5
 001355 C440D5D6D560E2E3            1675          DC    C'D NON-STANDARD L'                                      14600021
 00135D C1D5C4C1D9C440D3
 001365 C1C2C5D3E240D4C1            1676          DC    C'ABELS MAY NOT BE'                                      14610021
 00136D E840D5D6E340C2C5
 001375 40D6D7C5D5C5C440            1677          DC    C' OPENED OUTPUT/'                                       14620021
 00137D D6E4E3D7E4E361
 001384 5BE2C5D5E3C5D5C3            1678 TX1028   DC    C'$SENTENCE IMPROP'                                      14630021
 00138C C540C9D4D7D9D6D7
 001394 C5D9D3E840E6D9C9            1679        DC    C'ERLY WRITTEN.='                                          14640021
 00139C E3E3C5D54B7E
 0013A2 20                          1680        DC    FL1'32'                                                    14650021
 0013A3 5BC9D55BE2C5D5E3            1681 TX1029   DC    C'$IN$SENTENCE NOT'                                      14660021
 0013AB C5D5C3C540D5D6E3
 0013B3 40C4C5C6C9D5C5C4            1682          DC    C' DEFINED AS FILE-'                                     14670021
 0013BB 40C1E240C6C9D3C5
 0013C3 60
 0013C4 D5C1D4C54B40D5C1            1683        DC    C'NAME. NAME='                                             14680021
 0013CC D4C57E
 0013CF 02                          1684          DC    FL1'2'                                                   14690021
 0013D0 5BC9D55BE2C5D5E3            1685 TX1030   DC    C'$IN$SENTENCE IS '                                      14700021
 0013D8 C5D5C3C540C9E240
 0013E0 C9D5E5C1D3C9C44B            1686        DC    C'INVALID. WORD='                                          14710021
 0013E8 40E6D6D9C47E
 0013EE 02                          1687        DC    FL1'2'                                                     14720021
 0013EF E4E2C540E2C5D5E3            1688 TX1031   DC    C'USE SENTENCE NOT'                                      14730021
 0013F7 C5D5C3C540D5D6E3
 0013FF 40D7D9C5C3C5C4C5            1689        DC    C' PRECEDED BY SE'                                         14740021
 001407 C440C2E840E2C5
 00140E C3E3C9D6D560D5C1            1690          DC    C'CTION-NAME. SECT'                                      14750021
 001416 D4C54B40E2C5C3E3
 00141E C9D6D560D5C1D4C5            1691        DC    C'ION-NAME='                                               14760021
 001426 7E
 001427 01                          1692        DC    FL1'1'                                                     14770021
 001428 5BC9D5C3D6D9D9C5            1693 TX1032   DC    C'$INCORRECTLY USE'                                      14780021
 001430 C3E3D3E840E4E2C5
 001438 C440C9D540E4E2C5            1694          DC    C'D IN USE SENTENC'                                      14790021
 001440 40E2C5D5E3C5D5C3
 001448 C54B7E                      1695        DC    C'E.='                                                     14800021
 00144B 20                          1696        DC    FL1'32'                                                    14810021
 00144C 5BC6C9D3C560D5C1            1697 TX1033   DC    C'$FILE-NAME ALREA'                                      14820021
 001454 D4C540C1D3D9C5C1
 00145C C4E840C1E2E2C9C7            1698          DC    C'DY ASSIGNED THIS'                                      14830021
 001464 D5C5C440E3C8C9E2
 00146C 407DE2C1D4C57D40            1699          DC    C' ''SAME'' CLAUSE OPT'                                  14840021
1PH70     IKFCBL70                                                                                              PAGE   42
-  LOC  OBJECT CODE    ADDR1 ADDR2  STMT   SOURCE STATEMENT                                       ASM 0201 11.03 02/14/15
0001474 C3D3C1E4E2C540D6
 00147C D7E3
 00147E C9D6D54B40E4E2C9            1700          DC    C'ION. USING FIRST'                                      14850021
 001486 D5C740C6C9D9E2E3
 00148E 40D6D5C561                  1701          DC    C' ONE/'                                                 14860021
 001493 5BC3D3C1E4E2C540            1702 TX1034 DC    C'$CLAUSE IN$LEVEL'                                        14870021
 00149B C9D55BD3C5E5C5D3
 0014A3 40C9E240E3D9C5C1            1703        DC    C' IS TREATED AS C'                                        14880021
 0014AB E3C5C440C1E240C3
 0014B3 D6D4D4C5D5E3E240            1704        DC    C'OMMENTS IN OS. N'                                        14890021
 0014BB C9D540D6E24B40D5
 0014C3 C5E7E340C3D3C1E4            1705        DC    C'EXT CLAUSE/'                                             14900021
 0014CB E2C561
 0014CE C9D5E3C5C7C5D940            1706 TX1035   DC    C'INTEGER NOT PRES'                                      14910021
 0014D6 D5D6E340D7D9C5E2
 0014DE C5D5E340C9D540D4            1707           DC    C'ENT IN MULTIPLE '                                     14920021
 0014E6 E4D3E3C9D7D3C540
 0014EE C6C9D3C540C3D3C1            1708          DC    C'FILE CLAUSE/'                                          14930021
 0014F6 E4E2C561
 0014FA D8E4C1D3C9C6C9C5            1709 TX1036   DC    C'QUALIFIED NAME I'                                      14940021
 001502 C440D5C1D4C540C9
 00150A D5E5C1D3C9C440C1            1710          DC    C'NVALID AFTER LEV'                                      14950021
 001512 C6E3C5D940D3C5E5
 00151A C5D340D5E4D4C2C5            1711        DC    C'EL NUMBER.='                                             14960021
 001522 D94B7E
 001525 21                          1712        DC    FL1'33'                                                    14970021
 001526 5BC9D5E5C1D3C9C4            1713 TX1037   DC    C'$INVALID IN DATA'                                      14980021
 00152E 40C9D540C4C1E3C1
 001536 40C4C5E2C3D9C9D7            1714        DC    C' DESCRIPTION.='                                          14990021
 00153E E3C9D6D54B7E
 001544 1E                          1715        DC    FL1'30'                                                    15000021
 001545 5BC9D5E5C1D3C9C4            1716 TX1038   DC    C'$INVALID AFTER L'                                      15010021
 00154D 40C1C6E3C5D940D3
 001555 C5E5C5D340D5E4D4            1717          DC    C'EVEL NUMBER. SKI'                                      15020021
 00155D C2C5D94B40E2D2C9
 001565 D7D7C9D5C740E3D6            1718          DC    C'PPING TO NEXT LE'                                      15030021
 00156D 40D5C5E7E340D3C5
 001575 E5C5D361                    1719          DC    C'VEL/'                                                  15040021
 001579 C4C1E3C160D5C1D4            1720 TX1039   DC    C'DATA-NAME IN$CLA'                                      15050021
 001581 C540C9D55BC3D3C1
 001589 E4E2C540D5C5C5C4            1721        DC    C'USE NEED NOT BE '                                        15060021
 001591 40D5D6E340C2C540
 001599 D8E4C1D3C9C6C9C5            1722        DC    C'QUALIFIED.='                                             15070021
 0015A1 C44B7E
 0015A4 21                          1723        DC    FL1'33'                                                    15080021
 0015A5 C9D4D7D9D6D7C5D9            1724 TX1040   DC    C'IMPROPER LEVEL N'                                      15090021
 0015AD 40D3C5E5C5D340D5
 0015B5 E4D4C2C5D940C6D6            1725          DC    C'UMBER FOR FILE-S'                                      15100021
 0015BD D940C6C9D3C560E2
 0015C5 C5C3E3C9D6D561              1726          DC    C'ECTION/'                                               15110021
 0015CC 5BC9D5E5C1D3C9C4            1727 TX1041 DC    C'$INVALID AS USED'                                        15120021
 0015D4 40C1E240E4E2C5C4
 0015DC 40C9D55BE2C5C3E3            1728        DC    C' IN$SECTION.='                                           15130021
 0015E4 C9D6D54B7E
 0015E9 22                          1729        DC    FL1'34'                                                    15140021
1PH70     IKFCBL70                                                                                              PAGE   43
-  LOC  OBJECT CODE    ADDR1 ADDR2  STMT   SOURCE STATEMENT                                       ASM 0201 11.03 02/14/15
00015EA C1E2E2C9C7D540C3            1730 TX1042 DC    C'ASSIGN CLAUSE MI'                                        15150021
 0015F2 D3C1E4E2C540D4C9
 0015FA E2E2C9D5C740C9D5            1731        DC    C'SSING IN SELECT.'                                        15160021
 001602 40E2C5D3C5C3E34B
 00160A 7E                          1732        DC    C'='                                                       15170021
 00160B 1D                          1733        DC    FL1'29'                                                    15180021
 00160C C5D5C440D6C640E2            1734 TX1043   DC    C'END OF SENTENCE '                                      15190021
 001614 C5D5E3C5D5C3C540
 00161C E2C8D6E4D3C440D7            1735          DC    C'SHOULD PRECEDE$.'                                      15200021
 001624 D9C5C3C5C4C55B4B
 00162C 7E                          1736        DC    C'='                                                       15210021
 00162D 1C                          1737        DC    FL1'28'                                                    15220021
 00162E C9D5E5C1D3C9C440            1738 TX1044   DC    C'INVALID WORD$.='                                       15230021
 001636 E6D6D9C45B4B7E
 00163D 22                          1739          DC    FL1'34'                                                  15240021
 00163E C9D5E5C1D3C9C440            1740 TX1045 DC    C'INVALID ORDER IN'                                        15250021
 001646 D6D9C4C5D940C9D5
 00164E 5BE2C5C3E3C9D6D5            1741        DC    C'$SECTION/'                                               15260021
 001656 61
 001657 D4C5D4C2C5D940D5            1742 TX1046 DC    C'MEMBER NOT FOUND'                                        15270021
 00165F D6E340C6D6E4D5C4
 001667 40C9D540D3C9C2D9            1743        DC    C' IN LIBRARY.='                                           15280021
 00166F C1D9E84B7E
 001674 23                          1744        DC    FL1'35'                                                    15290021
 001675 D3C9C2D9C1D9E840            1745 TX1047 DC    C'LIBRARY NOT FOUN'                                        15300021
 00167D D5D6E340C6D6E4D5
 001685 C440D6D540E2E8E2            1746        DC    C'D ON SYSTEM.='                                           15310021
 00168D E3C5D44B7E
 001692 23                          1747        DC    FL1'35'                                                    15320021
 001693 D3C9C2D9C1D9E840            1748 TX1048 DC    C'LIBRARY MEMBER H'                                        15330021
 00169B D4C5D4C2C5D940C8
 0016A3 C1E240C2C1C440E3            1749        DC    C'AS BAD TRACK. IG'                                        15340021
 0016AB D9C1C3D24B40C9C7
 0016B3 D5D6D9C9D5C740D9            1750        DC    C'NORING REST OF C'                                        15350021
 0016BB C5E2E340D6C640C3
 0016C3 D6D7E861                    1751        DC    C'OPY/'                                                    15360021
 0016C7 5BC6C9D3C560D5C1            1752 TX1049   DC    C'$FILE-NAME ALREA'                                      15370021
 0016CF D4C540C1D3D9C5C1
 0016D7 C4E840C1E2E2C9C7            1753          DC    C'DY ASSIGNED THIS'                                      15380021
 0016DF D5C5C440E3C8C9E2
 0016E7 40D4E4D3E3C9D7D3            1754          DC    C' MULTIPLE FILE C'                                      15390021
 0016EF C540C6C9D3C540C3
 0016F7 D3C1E4E2C540D6D7            1755          DC    C'LAUSE OPTION.'                                         15400021
 0016FF E3C9D6D54B
 001704 40E4E2C9D5C740C6            1756          DC    C' USING FIRST ONE/'                                     15410021
 00170C C9D9E2E340D6D5C5
 001714 61
 001715 5BC6C9D3C540C1D3            1757 TX1050 DC    C'$FILE ALREADY AS'                                        15420021
 00171D D9C5C1C4E840C1E2
 001725 E2C9C7D5C5C440E3            1758        DC    C'SIGNED THIS APPL'                                        15430021
 00172D C8C9E240C1D7D7D3
 001735 E840D6D7E3C9D6D5            1759        DC    C'Y OPTION. FILE-N'                                        15440021
 00173D 4B40C6C9D3C560D5
 001745 C1D4C57E                    1760        DC    C'AME='                                                    15450021
 001749 02                          1761        DC    FL1'2'                                                     15460021
1PH70     IKFCBL70                                                                                              PAGE   44
-  LOC  OBJECT CODE    ADDR1 ADDR2  STMT   SOURCE STATEMENT                                       ASM 0201 11.03 02/14/15
000174A D5D640C4C1E3C160            1762 TX1051 DC    C'NO DATA-NAME IN '                                        15470021
 001752 D5C1D4C540C9D540
 00175A E4E2C540E2C5D5E3            1763        DC    C'USE SENTENCE.='                                          15480021
 001762 C5D5C3C54B7E
 001768 20                          1764        DC    FL1'32'                                                    15490021
 001769 5BC9D3D3C5C7C1D3            1765 TX1052 DC    C'$ILLEGALLY USED '                                        15500021
 001771 D3E840E4E2C5C440
 001779 C9D540E4E2C540E2            1766        DC    C'IN USE SENTENCE.'                                        15510021
 001781 C5D5E3C5D5C3C54B
 001789 40C5D5C440E2C5D5            1767        DC    C' END SENTENCE, R'                                        15520021
 001791 E3C5D5C3C56B40D9
 001799 C5E2C3C1D5D5C9D5            1768        DC    C'ESCANNING AT NEX'                                        15530021
 0017A1 C740C1E340D5C5E7
 0017A9 E340D9C5C3D6C7D5            1769        DC    C'T RECOGNIZABLE W'                                        15540021
 0017B1 C9E9C1C2D3C540E6
 0017B9 D6D9C461                    1770        DC    C'ORD/'                                                    15550021
 0017BD 5BC3D3C1E4E2C5              1771 TX1053 DC    C'$CLAUSE'                                                 15560021
 0017C4 40C9D5E5C1D3C9C4            1772        DC    C' INVALID.='                                              15570021
 0017CC 4B7E
 0017CE 13                          1773        DC    FL1'19'                                                    15580021
 0017CF D6D7C5D9C1D5C440            1774 TX1054   DC    C'OPERAND FOR INIT'                                      15590021
 0017D7 C6D6D940C9D5C9E3
 0017DF C9C1E3C540D5D6E3            1775          DC    C'IATE NOT FOUND O'                                      15600021
 0017E7 40C6D6E4D5C440D6
 0017EF D940C9D3D3C5C7C1            1776          DC    C'R ILLEGAL. OPERA'                                      15610021
 0017F7 D34B40D6D7C5D9C1
 0017FF D5C440C4D9D6D7D7            1777          DC    C'ND DROPPED/'                                           15620021
 001807 C5C461
 00180A E5C1D3C9C440C6C9            1778 TX1055 DC    C'VALID FILE-NAME '                                        15630021
 001812 D3C560D5C1D4C540
 00181A D5D6E340D7D9C5E2            1779        DC    C'NOT PRESENT. DES'                                        15640021
 001822 C5D5E34B40C4C5E2
 00182A C3D9C9D7E3C9D6D5            1780        DC    C'CRIPTION='                                               15650021
 001832 7E
 001833 02                          1781        DC    FL1'2'                                                     15660021
 001834 C6C9D3C560D5C1D4            1782 TX1056 DC    C'FILE-NAME NOT DE'                                        15670021
 00183C C540D5D6E340C4C5
 001844 C6C9D5C5C440C9D5            1783        DC    C'FINED IN A SELEC'                                        15680021
 00184C 40C140E2C5D3C5C3
 001854 E34B40C4C5E2C3D9            1784        DC    C'T. DESCRIPTION='                                         15690021
 00185C C9D7E3C9D6D57E
 001863 02                          1785        DC    FL1'2'                                                     15700021
 001864 C6C9D9E2E340E6D6            1786 TX1057 DC    C'FIRST WORD IN RE'                                        15710021
 00186C D9C440C9D540D9C5
 001874 D7D6D9E340E2C5C3            1787        DC    C'PORT SECTION NOT'                                        15720021
 00187C E3C9D6D540D5D6E3
 001884 40D9C44B7E                  1788        DC    C' RD.='                                                   15730021
 001889 02                          1789        DC    FL1'2'                                                     15740021
 00188A D5D640D9C5D7D6D9            1790 TX1058 DC    C'NO REPORTS CLAUS'                                        15750021
 001892 E3E240C3D3C1E4E2
 00189A C540C9D540C6C9D3            1791        DC    C'E IN FILE SECTIO'                                        15760021
 0018A2 C540E2C5C3E3C9D6
 0018AA D54B40D9C5D7D6D9            1792        DC    C'N. REPORT SECTIO'                                        15770021
 0018B2 E340E2C5C3E3C9D6
 0018BA D57E                        1793        DC    C'N='                                                      15780021
1PH70     IKFCBL70                                                                                              PAGE   45
-  LOC  OBJECT CODE    ADDR1 ADDR2  STMT   SOURCE STATEMENT                                       ASM 0201 11.03 02/14/15
00018BC 02                          1794        DC    FL1'2'                                                     15790021
 0018BD D5D640D9C5D7D6D9            1795 TX1059 DC    C'NO REPORT CLAUSE'                                        15800021
 0018C5 E340C3D3C1E4E2C5
 0018CD 40C6D6D940D9C44B            1796        DC    C' FOR RD. RD='                                            15810021
 0018D5 40D9C47E
 0018D9 02                          1797        DC    FL1'2'                                                     15820021
 0018DA C9D5E5C1D3C9C440            1798 TX1060 DC    C'INVALID WORD IN '                                        15830021
 0018E2 E6D6D9C440C9D540
 0018EA D9C5D7D6D9E340E6            1799          DC    C'REPORT WRITER STATEMENT.='                             15840021
 0018F2 D9C9E3C5D940E2E3
 0018FA C1E3C5D4C5D5E34B
 001902 7E
 001903 02                          1800        DC    FL1'2'                                                     15850021
 001904 C4E4D7D3C9C3C1E3            1801 TX1061 DC    C'DUPLICATE CLAUSE'                                        15860021
 00190C C540C3D3C1E4E2C5
 001914 7E                          1802          DC    C'='                                                     15870021
 001915 24                          1803        DC    FL1'36'                                                    15880021
 001916 5BC9D540C3D6D7E8            1804 TX1062   DC    C'$IN COPY REPLACING STATEMENT '                         15890021
 00191E 40D9C5D7D3C1C3C9
 001926 D5C740E2E3C1E3C5
 00192E D4C5D5E340
 001933 C9D5E5C1D3C9C440            1805          DC    C'INVALID AS BCD NAME/'                                  15900021
 00193B C1E240C2C3C440D5
 001943 C1D4C561
 001947 C4E4D7D3C9C3C1E3            1806 TX1063 DC    C'DUPLICATE ENTRY '                                        15910021
 00194F C540C5D5E3D9E840
 001957 C9D540D7C1C7C540            1807        DC    C'IN PAGE CLAUSE.='                                        15920021
 00195F C3D3C1E4E2C54B7E
 001967 24                          1808        DC    FL1'36'                                                    15930021
 001968                             1809 IKF703 CSECT                                                            15940021
 001968 D5D640E3E8D7C540            1810 TX1064 DC    C'NO TYPE CLAUSE S'                                        15950021
 001970 C3D3C1E4E2C540E2
 001978 D7C5C3C9C6C9C5C4            1811        DC    C'PECIFIED.='                                              15960021
 001980 4B7E
 001982 1B                          1812        DC    FL1'27'                                                    15970021
 001983 C9D5E3C5C7C5D940            1813 TX1065 DC    C'INTEGER MISSING '                                        15980021
 00198B D4C9E2E2C9D5C740
 001993 C9D540D7C1C7C540            1814        DC    C'IN PAGE CLAUSE. '                                        15990021
 00199B C3D3C1E4E2C54B40
 0019A3 C5D5E3D9E87E                1815        DC    C'ENTRY='                                                  16000021
 0019A9 02                          1816        DC    FL1'2'                                                     16010021
 0019AA C9D5E5C1D3C9C440            1817 TX1066 DC    C'INVALID WORD IN '                                        16020021
 0019B2 E6D6D9C440C9D540
 0019BA D7C1C7C540C3D3C1            1818        DC    C'PAGE CLAUSE.='                                           16030021
 0019C2 E4E2C54B7E
 0019C7 30                          1819        DC    FL1'48'                                                    16040021
 0019C8 C9D5E5C1D3C9C440            1820 TX1067 DC    C'INVALID HEADER.='                                        16050021
 0019D0 C8C5C1C4C5D94B7E
 0019D8 30                          1821        DC    FL1'48'                                                    16060021
 0019D9 D6D7C5D9C1D5C440            1822 TX1068 DC    C'OPERAND FOR GENE'                                        16070021
 0019E1 C6D6D940C7C5D5C5
 0019E9 D9C1E3C540D5D6E3            1823        DC    C'RATE NOT FOUND. '                                        16080021
 0019F1 40C6D6E4D5C44B40
 0019F9 C3D3C1E4E2C57E              1824        DC    C'CLAUSE='                                                 16090021
 001A00 24                          1825        DC    FL1'36'                                                    16100021
1PH70     IKFCBL70                                                                                              PAGE   46
-  LOC  OBJECT CODE    ADDR1 ADDR2  STMT   SOURCE STATEMENT                                       ASM 0201 11.03 02/14/15
0001A01 C9D5E5C1D3C9C440            1826 TX1069 DC    C'INVALID TYPE CLA'                                        16110021
 001A09 E3E8D7C540C3D3C1
 001A11 E4E2C54B7E                  1827        DC    C'USE.='                                                   16120021
 001A16 1B                          1828        DC    FL1'27'                                                    16130021
 001A17 C6D3E360D7E340D3            1829 TX1070   DC    C'FLT-PT LIT MANTI'                                      16140021
 001A1F C9E340D4C1D5E3C9
 001A27 E2E2C140C5E7C3C5            1830          DC    C'SSA EXCEEDS 16 D'                                      16150021
 001A2F C5C4E240F1F640C4
 001A37 C9C7C9E3E24B40E3            1831          DC    C'IGITS. TRUNCATED'                                      16160021
 001A3F D9E4D5C3C1E3C5C4
 001A47 40                          1832        DC    C' '                                                       16170021
 001A48 E3D640F1F661                1833          DC    C'TO 16/'                                                16180021
 001A4E C6D3E360D7E340D3            1834 TX1071   DC    C'FLT-PT LIT EXPON'                                      16190021
 001A56 C9E340C5E7D7D6D5
 001A5E C5D5E340C5E7C3C5            1835          DC    C'ENT EXCEEDS 2 DI'                                      16200021
 001A66 C5C4E240F240C4C9
 001A6E C7C9E3E24B40E3D9            1836          DC    C'GITS. TRUNCATED '                                      16210021
 001A76 E4D5C3C1E3C5C440
 001A7E E3D640F24B40D9C5            1837          DC    C'TO 2. RESCANNING'                                      16220021
 001A86 E2C3C1D5D5C9D5C7
 001A8E 61                          1838          DC    C'/'                                                     16230021
 001A8F C6D3E360D7E340D3            1839 TX1072   DC    C'FLT-PT LIT EXPON'                                      16240021
 001A97 C9E340C5E7D7D6D5
 001A9F C5D5E340C6D6D3D3            1840          DC    C'ENT FOLLOWED BY '                                      16250021
 001AA7 D6E6C5C440C2E840
 001AAF D5D6D560C2D3C1D5            1841          DC    C'NON-BLANK. RESCA'                                      16260021
 001AB7 D24B40D9C5E2C3C1
 001ABF D5D5C9D5C740C1E3            1842          DC    C'NNING AT NON-BLA'                                      16270021
 001AC7 40D5D6D560C2D3C1
 001ACF D5D261                      1843          DC    C'NK/'                                                   16280021
 001AD2 C6D3E360D7E340D3            1844 TX1073   DC    C'FLT-PT LIT E FOL'                                      16290021
 001ADA C9E340C540C6D6D3
 001AE2 D3D6E6C5C440C2E8            1845          DC    C'LOWED BY INVALID'                                      16300021
 001AEA 40C9D5E5C1D3C9C4
 001AF2 40C3C8C1D9C1C3E3            1846        DC    C' CHARACTER.='                                            16310021
 001AFA C5D94B7E
 001AFE 25                          1847        DC    FL1'37'                                                    16320021
 001AFF C6D3E360D7E340D3            1848 TX1074   DC    C'FLT-PT LIT SIGN '                                      16330021
 001B07 C9E340E2C9C7D540
 001B0F C6D6D3D3D6E6C5C4            1849          DC    C'FOLLOWED BY INVA'                                      16340021
 001B17 40C2E840C9D5E5C1
 001B1F D3C9C440C3C8C1D9            1850        DC    C'LID CHARACTER.='                                         16350021
 001B27 C1C3E3C5D94B7E
 001B2E 25                          1851        DC    FL1'37'                                                    16360021
 001B2F C6D3E360D7E340D3            1852 TX1075   DC    C'FLT-PT LIT EXCEE'                                      16370021
 001B37 C9E340C5E7C3C5C5
 001B3F C4E240D3C9D4C9E3            1853          DC    C'DS LIMIT. ASSUME'                                      16380021
 001B47 4B40C1E2E2E4D4C5
 001B4F 40D4C1E740D6D940            1854          DC    C' MAX OR MIN PER '                                      16390021
 001B57 D4C9D540D7C5D940
 001B5F E2C9C7D540D6C640            1855          DC    C'SIGN OF EXPONENT'                                      16400021
 001B67 C5E7D7D6D5C5D5E3
 001B6F 61                          1856          DC    C'/'                                                     16410021
 001B70 C1D3D7C8C1D5E4D4            1857 TX1076   DC    C'ALPHANUMERIC LIT'                                      16420021
 001B78 C5D9C9C340D3C9E3
1PH70     IKFCBL70                                                                                              PAGE   47
-  LOC  OBJECT CODE    ADDR1 ADDR2  STMT   SOURCE STATEMENT                                       ASM 0201 11.03 02/14/15
0001B80 40C5E7C3C5C5C4E2            1858          DC    C' EXCEEDS 120 CHA'                                      16430021
 001B88 40F1F2F040C3C8C1
 001B90 D9C1C3E3C5D9E24B            1859          DC    C'RACTERS. TRUNCAT'                                      16440021
 001B98 40E3D9E4D5C3C1E3
 001BA0 C5C440E3D640F1F2            1860          DC    C'ED TO 120/'                                            16450021
 001BA8 F061
 001BAA C1D3D7C8C1D5E4D4            1861 TX1077   DC    C'ALPHANUMERIC LIT'                                      16460021
 001BB2 C5D9C9C340D3C9E3
 001BBA 40C3D6D5E3C9D5E4            1862          DC    C' CONTINUES IN A-'                                      16470021
 001BC2 C5E240C9D540C160
 001BCA D4C1D9C7C9D54B40            1863          DC    C'MARGIN. ASSUME B'                                      16480021
 001BD2 C1E2E2E4D4C540C2
 001BDA 60D4C1D9C7C9D561            1864          DC    C'-MARGIN/'                                              16490021
 001BE2 C1D3D7C8C160D3C9            1865 TX1078 DC    C'ALPHA-LITERAL CO'                                        16500021
 001BEA E3C5D9C1D340C3D6
 001BF2 D5E3C9D5E4C5C440            1866        DC    C'NTINUED WITH MIS'                                        16510021
 001BFA E6C9E3C840D4C9E2
 001C02 E2C9D5C740C8E8D7            1867        DC    C'SING HYPHEN OR Q'                                        16520021
 001C0A C8C5D540D6D940D8
 001C12 E4D6E3C54B7E                1868        DC    C'UOTE.='                                                  16530021
 001C18 01                          1869        DC    FL1'1'                                                     16540021
 001C19 C1D3D7C8C1D5E4D4            1870 TX1079   DC    C'ALPHANUMERIC LIT'                                      16550021
 001C21 C5D9C9C340D3C9E3
 001C29 40C8C1E240E9C5D9            1871          DC    C' HAS ZERO LENGTH'                                      16560021
 001C31 D640D3C5D5C7E3C8
 001C39 4B40C1E2E2E4D4C5            1872          DC    C'. ASSUME ONE SPA'                                      16570021
 001C41 40D6D5C540E2D7C1
 001C49 C3C561                      1873          DC    C'CE/'                                                   16580021
 001C4C D7C5D9C9D6C440D7            1874 TX1080 DC    C'PERIOD PRECEDED'                                         16590021
 001C54 D9C5C3C5C4C5C4
 001C5B 40C2E840E2D7C1C3            1875        DC    C' BY SPACE.='                                             16600021
 001C63 C54B7E
 001C66 26                          1876        DC    FL1'38'                                                    16610021
 001C67 D7C5D9C9D6C440D5            1877 TX1081   DC    C'PERIOD NOT FOLLO'                                      16620021
 001C6F D6E340C6D6D3D3D6
 001C77 E6C5C440C2E840E2            1878          DC    C'WED BY SPACE.='                                        16630021
 001C7F D7C1C3C54B7E
 001C85 26                          1879        DC    FL1'38'                                                    16640021
 001C86 D5E4D4C5D9C9C340            1880 TX1082   DC    C'NUMERIC LIT EXCE'                                      16650021
 001C8E D3C9E340C5E7C3C5
 001C96 C5C4E240F1F840C4            1881          DC    C'EDS 18 DIGITS. T'                                      16660021
 001C9E C9C7C9E3E24B40E3
 001CA6 D9E4D5C3C1E3C5C4            1882          DC    C'RUNCATED TO 18/'                                       16670021
 001CAE 40E3D640F1F861
                                    1883 *                                                                       16680021
 001CB5 C9D3D3C5C7C1D340            1884 TX1083   DC    C'ILLEGAL CHARACTE'                                      16690021
 001CBD C3C8C1D9C1C3E3C5
 001CC5 D94B40E2C3C1D540            1885          DC    C'R. SCAN RESUMED '                                      16700021
 001CCD D9C5E2E4D4C5C440
 001CD5 C1E340D5C5E7E340            1886          DC    C'AT NEXT VALID CH'                                      16710021
 001CDD E5C1D3C9C440C3C8
 001CE5 C1D9C1C3E3C5D961            1887          DC    C'ARACTER/'                                              16720021
 001CED C3D6D4D4C140E2C8            1888 TX1084   DC    C'COMMA SHOULD NOT'                                      16730021
 001CF5 D6E4D3C440D5D6E3
 001CFD 40C2C540D7D9C5C3            1889        DC    C' BE PRECEDED BY'                                         16740021
1PH70     IKFCBL70                                                                                              PAGE   48
-  LOC  OBJECT CODE    ADDR1 ADDR2  STMT   SOURCE STATEMENT                                       ASM 0201 11.03 02/14/15
0001D05 C5C4C5C440C2E8
 001D0C 40E2D7C1C3C561              1890          DC    C' SPACE/'                                               16750021
 001D13 E6D6D9C440D6D940            1891 TX1085 DC    C'WORD OR PICTURE '                                        16760021
 001D1B D7C9C3E3E4D9C540
 001D23 C5E7C3C5C5C4E2              1892        DC    C'EXCEEDS'                                                 16770021
 001D2A 40F3F040C3C8C1D9            1893        DC    C' 30 CHARACTERS. '                                        16780021
 001D32 C1C3E3C5D9E24B40
 001D3A E3D9E4D5C3C1E3C5            1894          DC    C'TRUNCATED TO 30 '                                      16790021
 001D42 C440E3D640F3F040
 001D4A C3C8C1D9C1C3E3C5            1895          DC    C'CHARACTERS/'                                           16800021
 001D52 D9E261
 001D55 5BE2C8D6E4D3C440            1896 TX1086 DC    C'$SHOULD BEGIN A-'                                        16810021
 001D5D C2C5C7C9D540C160
 001D65 D4C1D9C7C9D561              1897          DC    C'MARGIN/'                                               16820021
 001D6C 7D5B7D40E2C8D6E4            1898 TX1087 DC    C'''$'' SHOULD NOT'                                        16830021
 001D74 D3C440D5D6E3
 001D7A 40C2C5C7C9D540C1            1899        DC    C' BEGIN A-MARGIN/'                                        16840021
 001D82 60D4C1D9C7C9D561
 001D8A D4C9E2E2C9D5C740            1900 TX1088 DC    C'MISSING FIRST IN'                                        16850021
 001D92 C6C9D9E2E340C9D5
 001D9A E2C5D9E340D6D940            1901        DC    C'SERT OR DELETE C'                                        16860021
 001DA2 C4C5D3C5E3C540C3
 001DAA C1D9C44B40D7C1E2            1902        DC    C'ARD. PASS CARDS '                                        16870021
 001DB2 E240C3C1D9C4E240
 001DBA E4D5E3C9D340C6D6            1903        DC    C'UNTIL FOUND.$/'                                          16880021
 001DC2 E4D5C44B5B61
 001DC8 C9D5E2C5D9E340D6            1904 TX1089 DC    C'INSERT OR DELETE'                                        16890021
 001DD0 D940C4C5D3C5E3C5
 001DD8 40D5E4D4C2C5D940            1905        DC    C' NUMBER OUT OF S'                                        16900021
 001DE0 D6E4E340D6C640E2
 001DE8 C5D8E4C5D5C3C54B            1906        DC    C'EQUENCE.='                                               16910021
 001DF0 7E
 001DF1 27                          1907        DC    FL1'39'                                                    16920021
 001DF2 C4C5D3C5E3C540E3            1908 TX1090 DC    C'DELETE THRU NUMB'                                        16930021
 001DFA C8D9E440D5E4D4C2
 001E02 C5D940D6E4E340D6            1909        DC    C'ER OUT OF SEQUEN'                                        16940021
 001E0A C640E2C5D8E4C5D5
 001E12 C3C54B40D7C1E2E2            1910        DC    C'CE. PASS CARDS U'                                        16950021
 001E1A 40C3C1D9C4E240E4
 001E22 D5E3C9D340D5C5E7            1911        DC    C'NTIL NEXT INSERT'                                        16960021
 001E2A E340C9D5E2C5D9E3
 001E32 40D6D940C4C5D3C5            1912        DC    C' OR DELETE.$/'                                           16970021
 001E3A E3C54B5B61
 001E3F 5BC9D540C160D4C1            1913 TX1091   DC    C'$IN A-MARGIN NOT'                                      16980021
 001E47 D9C7C9D540D5D6E3
 001E4F 40E5C1D3C9C440C1            1914          DC    C' VALID AS PROC-N'                                      16990021
 001E57 E240D7D9D6C360D5
 001E5F D44B40C1E2E2E4D4            1915          DC    C'M. ASSUME B-MARG'                                      17000021
 001E67 C540C260D4C1D9C7
 001E6F C9D561                      1916          DC    C'IN/'                                                   17010021
 001E72 C4C5C3D3C1D9C1E3            1917 TX1092   DC    C'DECLARATIVES DO '                                      17020021
 001E7A C9E5C5E240C4D640
 001E82 D5D6E340C6D6D3D3            1918          DC    C'NOT FOLLOW PROCE'                                      17030021
 001E8A D6E640D7D9D6C3C5
 001E92 C4E4D9C540C4C9E5            1919        DC    C'DURE DIVISION.='                                         17040021
1PH70     IKFCBL70                                                                                              PAGE   49
-  LOC  OBJECT CODE    ADDR1 ADDR2  STMT   SOURCE STATEMENT                                       ASM 0201 11.03 02/14/15
0001E9A C9E2C9D6D54B7E
 001EA1 02                          1920        DC    FL1'2'                                                     17050021
 001EA2 D5D640C4C5C3D3C1            1921 TX1093   DC    C'NO DECLARATIVES '                                      17060021
 001EAA D9C1E3C9E5C5E240
 001EB2 E2C5C3E3C9D6D54B            1922          DC    C'SECTION. END DEC'                                      17070021
 001EBA 40C5D5C440C4C5C3
 001EC2 D3C1D9C1E3C9E5C5            1923        DC    C'LARATIVES='                                              17080021
 001ECA E27E
 001ECC 02                          1924        DC    FL1'2'                                                     17090021
 001ECD C9D5E3C5C7C5D940            1925 TX1094   DC    C'INTEGER IN ''NEXT GROUP'''                             17100021
 001ED5 C9D5407DD5C5E7E3
 001EDD 40C7D9D6E4D77D
 001EE4 40C3D3C1E4E2C540            1926          DC    C' CLAUSE DOES NOT CONF'                                 17110021
 001EEC C4D6C5E240D5D6E3
 001EF4 40C3D6D5C6
 001EF9 D6D9D440E3D640D7            1927          DC    C'ORM TO PAGE CLAU'                                      17120021
 001F01 C1C7C540C3D3C1E4
 001F09 E2C540E2D7C5C3C9            1928          DC    C'SE SPECIFICATION'                                      17130021
 001F11 C6C9C3C1E3C9D6D5
 001F19 E24B7E                      1929          DC    C'S.='                                                   17140021
 001F1C 1D                          1930          DC    FL1'29'                                                  17150021
 001F1D E6D6D9C4407DE2C5            1931 TX1095 DC    C'WORD ''SECTION'''                                        17160021
 001F25 C3E3C9D6D57D
 001F2B 40D6D9407DC4C9E5            1932        DC    C' OR ''DIVISION'''                                        17170021
 001F33 C9E2C9D6D57D
 001F39 40D4C9E2E2C9D5C7            1933        DC    C' MISSING'                                                17180021
 001F41 4B7E                        1934        DC    C'.='                                                      17190021
 001F43 1C                          1935        DC    FL1'28'                                                    17200021
 001F44 C4C1E3C1D5C1D4C5            1936 TX1096   DC    C'DATANAME IN UPON'                                      17210021
 001F4C 40C9D540E4D7D6D5
 001F54 40C3D3C1E4E2C540            1937          DC    C' CLAUSE NOT SPEC'                                      17220021
 001F5C D5D6E340E2D7C5C3
 001F64 C9C6C9C5C440C1E2            1938          DC    C'IFIED AS A DATA-'                                      17230021
 001F6C 40C140C4C1E3C160
 001F74 D5C1D4C540C6D6D9            1939          DC    C'NAME FOR A TYPE D'                                     17240021
 001F7C 40C140E3E8D7C540
 001F84 C4
 001F85 C5E3C1C9D340D9C5            1940          DC    C'ETAIL REPORT GRO'                                      17250021
 001F8D D7D6D9E340C7D9D6
 001F95 E4D740C9D540E3C8            1941          DC    C'UP IN THIS REPOR'                                      17260021
 001F9D C9E240D9C5D7D6D9
 001FA5 E34B40E4D7D6D540            1942          DC    C'T. UPON OPTION'                                        17270021
 001FAD D6D7E3C9D6D5
 001FB3 7E                          1943          DC    C'='                                                     17280021
 001FB4 02                          1944          DC    FL1'2'                                                   17290021
 001FB5 D7D9D6C7D9C1D460            1945 TX1097 DC    C'PROGRAM-ID MISSI'                                        17300021
 001FBD C9C440D4C9E2E2C9
 001FC5 D5C740D6D940D4C9            1946        DC    C'NG OR MISPLACED.'                                        17310021
 001FCD E2D7D3C1C3C5C44B
 001FD5 40C9C640D7D9D6C7            1947        DC    C' IF PROGRAM-ID D'                                        17320021
 001FDD D9C1D460C9C440C4
 001FE5 D6C5E240D5D6E340            1948        DC    C'OES NOT IMMEDIAT'                                        17330021
 001FED C9D4D4C5C4C9C1E3
 001FF5 C5D3E840C6D6D3D3            1949        DC    C'ELY FOLLOW IDENT'                                        17340021
 001FFD D6E640C9C4C5D5E3
1PH70     IKFCBL70                                                                                              PAGE   50
-  LOC  OBJECT CODE    ADDR1 ADDR2  STMT   SOURCE STATEMENT                                       ASM 0201 11.03 02/14/15
0002005 C9C6C9C3C1E3C9D6            1950        DC    C'IFICATION DIVISI'                                        17350021
 00200D D540C4C9E5C9E2C9
 002015 D6D56B40C9E340E6            1951        DC    C'ON, IT WILL BE I'                                        17360021
 00201D C9D3D340C2C540C9
 002025 C7D5D6D9C5C461              1952        DC    C'GNORED/'                                                 17370021
 00202C C1D3D7C8C140D3C9            1953 TX1098 DC    C'ALPHA LITERAL NO'                                        17380021
 002034 E3C5D9C1D340D5D6
 00203C E340C3D6D5E3C9D5            1954        DC    C'T CONTINUED WITH'                                        17390021
 002044 E4C5C440E6C9E3C8
 00204C 40C8E8D7C8C5D540            1955        DC    C' HYPHEN AND QUOT'                                        17400021
 002054 C1D5C440D8E4D6E3
 00205C C54B40C5D5C440D3            1956        DC    C'E. END LITERAL O'                                        17410021
 002064 C9E3C5D9C1D340D6
 00206C D540D3C1E2E340C3            1957        DC    C'N LAST CARD/'                                            17420021
 002074 C1D9C461
 002078 5BC9E240C9D5E5C1            1958 TX1099   DC    C'$IS INVALID AS U'                                      17430021
 002080 D3C9C440C1E240E4
 002088 E2C5C44B40C9C7D5            1959        DC    C'SED. IGNORED/'                                           17440021
 002090 D6D9C5C461
 002095 5BE2C5D8E4C5D5C3            1960 TX1100 DC    C'$SEQUENCE ERRORS'                                        17450021
 00209D C540C5D9D9D6D9E2
 0020A5 40C9D540E2D6E4D9            1961        DC    C' IN SOURCE PROGR'                                        17460021
 0020AD C3C540D7D9D6C7D9
 0020B5 C1D461                      1962        DC    C'AM/'                                                     17470021
 0020B8 D5C5E7E340D7C1C7            1963 TX1101 DC    C'NEXT PAGE NOT IN'                                        17480021
 0020C0 C540D5D6E340C9D5
 0020C8 40C6C9D9E2E340D3            1964        DC    C' FIRST LINE CLAU'                                        17490021
 0020D0 C9D5C540C3D3C1E4
 0020D8 E2C54B7E                    1965        DC    C'SE.='                                                    17500021
 0020DC 02                          1966        DC    FL1'2'                                                     17510021
 0020DD C9D5C3D6D4D7D3C5            1967 TX1102   DC    C'INCOMPLETE ELEMENTARY '                                17520021
 0020E5 E3C540C5D3C5D4C5
 0020ED D5E3C1D9E840
 0020F3 C9E3C5D44B40C1E2            1968          DC    C'ITEM. ASSUME VALU'                                     17530021
 0020FB E2E4D4C540E5C1D3
 002103 E4
 002104 C540E2D7C1C3C5E2            1969        DC    C'E SPACES/'                                               17540021
 00210C 61
 00210D C7D9D6E4D740E3E8            1970 TX1103 DC    C'GROUP TYPE ALLOW'                                        17550021
 002115 D7C540C1D3D3D6E6
 00211D C5C440D6D5C3C540            1971        DC    C'ED ONCE FOR RD.='                                        17560021
 002125 C6D6D940D9C44B7E
 00212D 02                          1972        DC    FL1'2'                                                     17570021
 00212E C3D6D5E3D9D6D340            1973 TX1104 DC    C'CONTROL NAME NOT'                                        17580021
 002136 D5C1D4C540D5D6E3
 00213E 40E2D7C5C3C9C6C9            1974        DC    C' SPECIFIED IN RD'                                        17590021
 002146 C5C440C9D540D9C4
 00214E 4B7E                        1975        DC    C'.='                                                      17600021
 002150 1B                          1976        DC    FL1'27'                                                    17610021
 002151 C5D3C5D4C5D5E3C1            1977 TX1105   DC    C'ELEMENTARY ITEM EXPECTE'                               17620021
 002159 D9E840C9E3C5D440
 002161 C5E7D7C5C3E3C5
 002168 C44B7E                      1978        DC    C'D.='                                                     17630021
 00216B 01                          1979        DC    FL1'1'                                                     17640021
 00216C D6D7C5D9C1D5C440            1980 TX1106 DC    C'OPERAND FOR TERM'                                        17650021
1PH70     IKFCBL70                                                                                              PAGE   51
-  LOC  OBJECT CODE    ADDR1 ADDR2  STMT   SOURCE STATEMENT                                       ASM 0201 11.03 02/14/15
0002174 C6D6D940E3C5D9D4
 00217C C9D5C1E3C540D5D6            1981        DC    C'INATE NOT FOUND '                                        17660021
 002184 E340C6D6E4D5C440
 00218C D6D940C9D3D3C5C7            1982        DC    C'OR ILLEGAL. OPER'                                        17670021
 002194 C1D34B40D6D7C5D9
 00219C C1D5C47E                    1983        DC    C'AND='                                                    17680021
 0021A0 24                          1984        DC    FL1'36'                                                    17690021
 0021A1 7DD5C5E7E340C7D9            1985 TX1107   DC    C'''NEXT GROUP'' C'                                      17700021
 0021A9 D6E4D77D40C3
 0021AF D3C1E4E2C540C9E2            1986          DC    C'LAUSE IS ILLEGAL'                                      17710021
 0021B7 40C9D3D3C5C7C1D3
 0021BF 40C6D6D940E3C8C9            1987          DC    C' FOR THIS REPORT'                                      17720021
 0021C7 E240D9C5D7D6D9E3
 0021CF 40C7D9D6E4D74B7E            1988          DC    C' GROUP.='                                              17730021
 0021D7 02                          1989          DC    FL1'2'                                                   17740021
 0021D8 5BC9E240D5D6E340            1990 TX1108 DC    C'$IS NOT A POSITI'                                        17750021
 0021E0 C140D7D6E2C9E3C9
 0021E8 E5C540C9D5E3C5C7            1991        DC    C'VE INTEGRAL NUMB'                                        17760021
 0021F0 D9C1D340D5E4D4C2
 0021F8 C5D94B7E                    1992        DC    C'ER.='                                                    17770021
 0021FC 2E                          1993        DC    FL1'46'                                                    17780021
 0021FD C4E4D7D3C9C3C1E3            1994 TX1109 DC    C'DUPLICATE USE OF'                                        17790021
 002205 C540E4E2C540D6C6
 00220D 40C3D6D5E3D9D6D3            1995        DC    C' CONTROL NAME.='                                         17800021
 002215 40D5C1D4C54B7E
 00221C 1B                          1996        DC    FL1'27'                                                    17810021
 00221D C9D5E5C1D3C9C440            1997 TX1110 DC    C'INVALID USE OF S'                                        17820021
 002225 E4E2C540D6C640E2
 00222D E4D440C3D3C1E4E2            1998        DC    C'UM CLAUSE.='                                             17830021
 002235 C54B7E
 002238 13                          1999          DC    FL1'19'                                                  17840021
 002239 C5D3C5D4C5D5E3C1            2000 TX1111 DC    C'ELEMENTARY LEVEL'                                        17850021
 002241 D9E840D3C5E5C5D3
 002249 40E6C9E3C8D6E4E3            2001        DC    C' WITHOUT COLUMN '                                        17860021
 002251 40C3D6D3E4D4D540
 002259 D6D940E2E4D440C3            2002        DC    C'OR SUM CLAUSE/'                                          17870021
 002261 D3C1E4E2C561
 002267 7D5B7D40C1D3D9C5            2003 TX1112 DC    C'''$'' ALREADY SP'                                        17880021
 00226F C1C4E840E2D7
 002275 C5C3C9C6C9C5C440            2004        DC    C'ECIFIED IN 2 FIL'                                        17890021
 00227D C9D540F240C6C9D3
 002285 C540C4C5E2C3D9C9            2005        DC    C'E DESCRIPTION EN'                                        17900021
 00228D D7E3C9D6D540C5D5
 002295 E3D9C9C5E24B7E              2006        DC    C'TRIES.='                                                 17910021
 00229C 02                          2007        DC    FL1'2'                                                     17920021
 00229D C5E7D7C5C3E3C9D5            2008 TX1113 DC    C'EXPECTING 6-DIGI'                                        17930021
 0022A5 C740F660C4C9C7C9
 0022AD E340E2C5D8E4C5D5            2009        DC    C'T SEQUENCE NUMBE'                                        17940021
 0022B5 C3C540D5E4D4C2C5
 0022BD D94B7E                      2010        DC    C'R.='                                                     17950021
 0022C0 27                          2011        DC    FL1'39'                                                    17960021
 0022C1 C5E7E3D9C1D5C5D6            2012 TX1114 DC    C'EXTRANEOUS COMMA'                                        17970021
 0022C9 E4E240C3D6D4D4C1
 0022D1 40D6D940C8E8D7C8            2013        DC    C' OR HYPHEN ON DE'                                        17980021
 0022D9 C5D540D6D540C4C5
1PH70     IKFCBL70                                                                                              PAGE   52
-  LOC  OBJECT CODE    ADDR1 ADDR2  STMT   SOURCE STATEMENT                                       ASM 0201 11.03 02/14/15
00022E1 D3C5E3C540C3C1D9            2014        DC    C'LETE CARD.='                                             17990021
 0022E9 C44B7E
 0022EC 02                          2015        DC    FL1'2'                                                     18000021
 0022ED D5D640C2D3C1D5D2            2016 TX1115 DC    C'NO BLANK, COMMA '                                        18010021
 0022F5 6B40C3D6D4D4C140
 0022FD D6D940C8E8D7C8C5            2017        DC    C'OR HYPHEN FOLLOW'                                        18020021
 002305 D540C6D6D3D3D6E6
 00230D C9D5C740E2C5D8E4            2018        DC    C'ING SEQUENCE NUM'                                        18030021
 002315 C5D5C3C540D5E4D4
 00231D C2C5D94B40C1E2E2            2019        DC    C'BER. ASSUME BLAN'                                        18040021
 002325 E4D4C540C2D3C1D5
 00232D D24B5B61                    2020        DC    C'K.$/'                                                    18050021
 002331 C5E7D7C5C3E3C9D5            2021 TX1116 DC    C'EXPECTING 6-DIGI'                                        18060021
 002339 C740F660C4C9C7C9
 002341 E340E2C5D8E4C5D5            2022        DC    C'T SEQUENCE NUMBE'                                        18070021
 002349 C3C540D5E4D4C2C5
 002351 D940C1C6E3C5D940            2023        DC    C'R AFTER HYPHEN. '                                        18080021
 002359 C8E8D7C8C5D54B40
 002361 C9C7D5D6D9C9D5C7            2024        DC    C'IGNORING DELETE '                                        18090021
 002369 40C4C5D3C5E3C540
 002371 C6D9D6D440E3C8D9            2025        DC    C'FROM THRU NUMBER'                                        18100021
 002379 E440D5E4D4C2C5D9
 002381 4B5B61                      2026        DC    C'.$/'                                                     18110021
 002384 C4C5D3C5E3C540D5            2027 TX1117 DC    C'DELETE NUMBER GR'                                        18120021
 00238C E4D4C2C5D940C7D9
 002394 C5C1E3C5D940E3C8            2028        DC    C'EATER THAN LAST '                                        18130021
 00239C C1D540D3C1E2E340
 0023A4 E2C5D8E4C5D5C3C5            2029        DC    C'SEQUENCE NUMBER.'                                        18140021
 0023AC 40D5E4D4C2C5D94B
 0023B4 7E                          2030        DC    C'='                                                       18150021
 0023B5 28                          2031        DC    FL1'40'                                                    18160021
 0023B6 C9D5E2C5D9E340D5            2032 TX1118 DC    C'INSERT NUMBER GR'                                        18170021
 0023BE E4D4C2C5D940C7D9
 0023C6 C5C1E3C5D940E3C8            2033        DC    C'EATER THAN LAST '                                        18180021
 0023CE C1D540D3C1E2E340
 0023D6 E2C5D8E4C5D5C3C5            2034        DC    C'SEQUENCE NUMBER.'                                        18190021
 0023DE 40D5E4D4C2C5D94B
 0023E6 7E                          2035        DC    C'='                                                       18200021
 0023E7 28                          2036        DC    FL1'40'                                                    18210021
 0023E8 C9D5E3C5C7C5D940            2037 TX1119   DC    C'INTEGER IN ''LINE'' '                                  18220021
 0023F0 C9D5407DD3C9D5C5
 0023F8 7D40
 0023FA C3D3C1E4E2C540C4            2038          DC    C'CLAUSE DOES NOT '                                      18230021
 002402 D6C5E240D5D6E340
 00240A C3D6D5C6D6D9D440            2039          DC    C'CONFORM TO PAGE '                                      18240021
 002412 E3D640D7C1C7C540
 00241A C3D3C1E4E2C540E2            2040          DC    C'CLAUSE SPECIFICA'                                      18250021
 002422 D7C5C3C9C6C9C3C1
 00242A E3C9D6D5E24B7E              2041          DC    C'TIONS.='                                               18260021
 002431 0B                          2042          DC    FL1'11'                                                  18270021
 002432 C3D6D4D4C140D5D6            2043 TX1120 DC    C'COMMA NOT FOLLOW'                                        18280021
 00243A E340C6D6D3D3D6E6
 002442 C5C440C2E840E2D7            2044          DC    C'ED BY SPACE.='                                         18290021
 00244A C1C3C54B7E
 00244F 01                          2045          DC    FL1'01'                                                  18300021
1PH70     IKFCBL70                                                                                              PAGE   53
-  LOC  OBJECT CODE    ADDR1 ADDR2  STMT   SOURCE STATEMENT                                       ASM 0201 11.03 02/14/15
0002450 D7C5D9C9D6C440D6            2046 TX1121 DC    C'PERIOD OR COMMA '                                        18310021
 002458 D940C3D6D4D4C140
 002460 C9D5E5C1D3C9C440            2047        DC    C'INVALID AS USED '                                        18320021
 002468 C1E240E4E2C5C440
 002470 C9D540D7C9C3E3E4            2048        DC    C'IN PICTURE CLAUS'                                        18330021
 002478 D9C540C3D3C1E4E2
 002480 C561                        2049        DC    C'E/'                                                      18340021
 002482 C5E7E3C5D9D5C1D3            2050 TX1122   DC    C'EXTERNAL-NAME IN RERUN CLAUSE MUST'                    18350021
 00248A 60D5C1D4C540C9D5
 002492 40D9C5D9E4D540C3
 00249A D3C1E4E2C540D4E4
 0024A2 E2E3
 0024A4 40D5D6E340C2C540            2051          DC    C' NOT BE THE SAME AS SYSTEM-NAME '                      18360021
 0024AC E3C8C540E2C1D4C5
 0024B4 40C1E240E2E8E2E3
 0024BC C5D460D5C1D4C540
 0024C4 E4E2C5C440C9D540            2052          DC    C'USED IN ASSIGN CLAUSE.='                               18370021
 0024CC C1E2E2C9C7D540C3
 0024D4 D3C1E4E2C54B7E
 0024DB 20                          2053          DC    FL1'32'                                                  18380021
 0024DC D5E4D4C2C5D940C9            2054 TX1123   DC    C'NUMBER IS ZERO'                                        18390021
 0024E4 E240E9C5D9D6
 0024EA 40D6                        2055          DC    C' O'                                                    18400021
 0024EC D940D5C5C7C1E3C9            2056          DC    C'R NEGATIVE.='                                          18410021
 0024F4 E5C54B7E
 0024F8 20                          2057          DC    FL1'32'                                                  18420021
 0024F9 D5E4D4C2C5D940E3            2058 TX1124   DC    C'NUMBER TOO LARGE'                                      18430021
 002501 D6D640D3C1D9C7C5
 002509 40C6D6D940D9C5D9            2059          DC    C' FOR RERUN.='                                          18440021
 002511 E4D54B7E
 002515 20                          2060          DC    FL1'32'                                                  18450021
 002516 5BC6C9D3C560D5C1            2061 TX1125   DC    C'$FILE-NAME USED '                                      18460021
 00251E D4C540E4E2C5C440
 002526 C9D540D7D9C5E5C9            2062          DC    C'IN PREVIOUS RERU'                                      18470021
 00252E D6E4E240D9C5D9E4
 002536 D54B40E4E2C9D5C7            2063          DC    C'N. USING FIRST O'                                      18480021
 00253E 40C6C9D9E2E340D6
 002546 D5C561                      2064          DC    C'NE/'                                                   18490021
 002549 5BC6C9D3C560D5C1            2065 TX1126   DC    C'$FILE-NAME SPECI'                                      18500021
 002551 D4C540E2D7C5C3C9
 002559 C6C9C5C440C9D540            2066          DC    C'FIED IN BOTH RER'                                      18510021
 002561 C2D6E3C840D9C5D9
 002569 E4D540C1D5C440E4            2067          DC    C'UN AND USING OR '                                      18520021
 002571 E2C9D5C740D6D940
 002579 C7C9E5C9D5C740D6            2068          DC    C'GIVING OPTION. R'                                      18530021
 002581 D7E3C9D6D54B40D9
 002589 C5D9E4D57E                  2069          DC    C'ERUN='                                                 18540021
 00258E 02                          2070          DC    FL1'2'                                                   18550021
 00258F 5BC9D5E5C1D3C9C4            2071 TX1127   DC    C'$INVALID IN$SENTENCE.'                                 18560021
 002597 40C9D55BE2C5D5E3
 00259F C5D5C3C54B
 0025A4 40D9C5E2E340D6C6            2072          DC    C' REST OF SENTENCE='                                    18570021
 0025AC 40E2C5D5E3C5D5C3
 0025B4 C57E
 0025B6 02                          2073          DC    FL1'02'                                                  18580021
1PH70     IKFCBL70                                                                                              PAGE   54
-  LOC  OBJECT CODE    ADDR1 ADDR2  STMT   SOURCE STATEMENT                                       ASM 0201 11.03 02/14/15
00025B7 C6D6E4D5C45B4B40            2074 TX1128   DC    C'FOUND$. EXPECTIN'                                      18590021
 0025BF C5E7D7C5C3E3C9D5
 0025C7 C740C5D5E5C9D9D6            2075          DC    C'G ENVIRONMENT.  '                                      18600021
 0025CF D5D4C5D5E34B4040
 0025D7 C1D3D340C5D5E54B            2076          DC    C'ALL ENV. DIV. ST'                                      18610021
 0025DF 40C4C9E54B40E2E3
 0025E7 C1E3C5D4C5D5E3E2            2077          DC    C'ATEMENTS='                                             18620021
 0025EF 7E
 0025F0 02                          2078          DC    FL1'2'                                                   18630021
 0025F8                             2079 IKF705 CSECT                                                            18640021
 0025F8 C9C440C4C9E54B40            2080 TX1129   DC    C'ID DIV. HEADER E'                                8930  18650021
 002600 C8C5C1C4C5D940C5
 002608 E7E3D9C1D5C5D6E4            2081          DC    C'XTRANEOUS, MISSI'                                8930  18660021
 002610 E26B40D4C9E2E2C9
 002618 D5C740D6D940D4C9            2082          DC    C'NG OR MISPLACED.'                                8930  18670021
 002620 E2D7D3C1C3C5C44B
 002628 40D6D5C57E                  2083          DC    C' ONE='                                           8930  18680021
 00262D 1C                          2084          DC    FL1'28'                                                  18690021
 00262E 5BC4C9E54B40C8C5            2085 TX1130   DC    C'$DIV. HEADER MIS'                                      18700021
 002636 C1C4C5D940D4C9E2
 00263E E2C9D5C74B4040E6            2086          DC    C'SING.  WORDS IN '                                      18710021
 002646 D6D9C4E240C9D540
 00264E 5BE2E3C1E3C5D4C5            2087          DC    C'$STATEMENTS ARE '                                      18720021
 002656 D5E3E240C1D9C540
 00265E C9D5E5C1D3C9C461            2088          DC    C'INVALID/'                                              18730021
 002666 C9D5E5C1D3C9C440            2089 TX1131   DC    C'INVALID PRIORITY'                                      18740021
 00266E D7D9C9D6D9C9E3E8
 002676 40D5E4D4C2C5D94B            2090          DC    C' NUMBER. ZERO='                                        18750021
 00267E 40E9C5D9D67E
 002684 01                          2091          DC    FL1'1'                                                   18760021
 002685 C9D5E5C1D3C9C440            2092 TX1132   DC    C'INVALID SYSTEM-N'                                      18770021
 00268D E2E8E2E3C5D460D5
 002695 C1D4C54B7E                  2093          DC    C'AME.='                                                 18780021
 00269A 1E                          2094          DC    FL1'30'                                                  18790021
 00269B D4D6D9C540E3C8C1            2095 TX1133 DC    C'MORE THAN 1 USE '                                        18800021
 0026A3 D540F140E4E2C540
 0026AB D6D540E2E3C1D5C4            2096        DC    C'ON STANDARD ERRO'                                        18810021
 0026B3 C1D9C440C5D9D9D6
 0026BB D940E2D7C5C3C9C6            2097        DC    C'R SPECIFIED FOR '                                        18820021
 0026C3 C9C5C440C6D6D940
 0026CB E2C1D4C540C6C9D3            2098        DC    C'SAME FILE ON OPE'                                        18830021
 0026D3 C540D6D540D6D7C5
 0026DB D540D6D7E3C9D6D5            2099        DC    C'N OPTION. USE='                                          18840021
 0026E3 4B40E4E2C57E
 0026E9 02                          2100        DC    FL1'02'                                                    18850021
 0026EA E4E2C540E2D7C5C3            2101 TX1134 DC    C'USE SPECIFIED FO'                                        18860021
 0026F2 C9C6C9C5C440C6D6
 0026FA D95BE6C9E3C840D3            2102        DC    C'R$WITH LABE'                                             18870021
 002702 C1C2C5
 002705 D340D9C5C3D6D9C4            2103        DC    C'L RECORDS OMITTE'                                        18880021
 00270D E240D6D4C9E3E3C5
 002715 C440D6D940E2E3C1            2104        DC    C'D OR STANDARD.='                                         18890021
 00271D D5C4C1D9C44B7E
 002724 20                          2105        DC    FL1'32'                                                    18900021
 002725 C9D5E3C5C7C5D960            2106 TX1135   DC    C'INTEGER-1 OUTSID'                                      18910021
1PH70     IKFCBL70                                                                                              PAGE   55
-  LOC  OBJECT CODE    ADDR1 ADDR2  STMT   SOURCE STATEMENT                                       ASM 0201 11.03 02/14/15
000272D F140D6E4E3E2C9C4
 002735 C540D6C640C1D3D3            2107          DC    C'E OF ALLOWABLE L'                                      18920021
 00273D D6E6C1C2D3C540D3
 002745 C9D4C9E3E24B7E              2108          DC    C'IMITS.='                                               18930021
 00274C 2E                          2109          DC    FL1'46'                                                  18940021
 00274D C4C1E3C160D5C1D4            2110 TX1136   DC    C'DATA-NAME ALREADY'                                     18950021
 002755 C540C1D3D9C5C1C4
 00275D E8
 00275E 40E2D7C5C3C9C6C9            2111          DC    C' SPECIFIED FOR A'                                      18960021
 002766 C5C440C6D6D940C1
 00276E 40E3E8D7C540C4C5            2112          DC    C' TYPE DETAIL REP'                                      18970021
 002776 E3C1C9D340D9C5D7
 00277E D6D9E340C7D9D6E4            2113          DC    C'ORT GROUP. SKIPP'                                      18980021
 002786 D74B40E2D2C9D7D7
 00278E C9D5C740E3D640D5            2114          DC    C'ING TO NEXT 01, '                                      18990021
 002796 C5E7E340F0F16B40
 00279E D9C440D6D940E2C5            2115          DC    C'RD OR SECTION/'                                        19000021
 0027A6 C3E3C9D6D561
 0027AC D4C9D5C9D4E4D440            2116 TX1137   DC    C'MINIMUM NUMBER O'                                      19010021
 0027B4 D5E4D4C2C5D940D6
 0027BC C640D6C3C3E4D9D9            2117          DC    C'F OCCURRENCES IN '                                     19020021
 0027C4 C5D5C3C5E240C9D5
 0027CC 40
 0027CD D6C3C3E4D9E240C3            2118          DC    C'OCCURS CLAUSE NO'                                      19030021
 0027D5 D3C1E4E2C540D5D6
 0027DD E340D3C5E2E240E3            2119          DC    C'T LESS THAN MAXI'                                      19040021
 0027E5 C8C1D540D4C1E7C9
 0027ED D4E4D440D5E4D4C2            2120          DC    C'MUM NUMBER.='                                          19050021
 0027F5 C5D94B7E
 0027F9 1D                          2121          DC    FL1'29'                                                  19060021
 0027FA C1D7D7D3E85B40C9            2122 TX1138   DC    C'APPLY$ IS A FUNC'                                      19070021
 002802 E240C140C6E4D5C3
 00280A E3C9D6D540D6C640            2123          DC    C'TION OF JCL IN O'                                      19080021
 002812 D1C3D340C9D540D6
 00281A E261                        2124          DC    C'S/'                                                    19090021
 00281C 5BC4E4D7D3C9C3C1            2125 TX1139   DC    C'$DUPLICATELY DEF'                                      19100021
 002824 E3C5D3E840C4C5C6
 00282C C9D5C5C440E2C5C3            2126          DC    C'INED SECTION. SE'                                      19110021
 002834 E3C9D6D54B40E2C5
 00283C C3E3C9D6D540D5C1            2127          DC    C'CTION NAME IGNOR'                                      19120021
 002844 D4C540C9C7D5D6D9
 00284C C5C461                      2128          DC    C'ED/'                                                   19130021
 00284F D5E4D4C5D9C9C340            2129 TX1140 DC    C'NUMERIC LITERAL E'                                       19140021
 002857 D3C9E3C5D9C1D340
 00285F C5
 002860 E7C3C5C5C4E240D4            2130        DC    C'XCEEDS MAXIMUM FO'                                       19150021
 002868 C1E7C9D4E4D440C6
 002870 D6
 002871 D940C9E3E240E4E2            2131        DC    C'R ITS USE. SUBSTI'                                       19160021
 002879 C54B40E2E4C2E2E3
 002881 C9
 002882 E3E4E3C9D5C740F3            2132        DC    C'TUTING 32768/'                                           19170021
 00288A F2F7F6F861
 00288F C6C9D3C540D6D9C7            2133 TX1141 DC    C'FILE ORGANIZATIO'                                        19180021
 002897 C1D5C9E9C1E3C9D6
1PH70     IKFCBL70                                                                                              PAGE   56
-  LOC  OBJECT CODE    ADDR1 ADDR2  STMT   SOURCE STATEMENT                                       ASM 0201 11.03 02/14/15
000289F D540C6C9C5D3C440            2134        DC    C'N FIELD INVALID '                                        19190021
 0028A7 C9D5E5C1D3C9C440
 0028AF C9D540E2E8E2E3C5            2135          DC    C'IN SYSTEM-NAME. '                                      19200021
 0028B7 D460D5C1D4C54B40
 0028BF 40E2C5D8E4C5D5E3            2136          DC    C' SEQUENTIAL='                                          19210021
 0028C7 C9C1D37E
 0028CB 01                          2137        DC    FL1'1'                                                     19220021
 0028CC E4E2C540C6D6D940            2138 TX1142 DC    C'USE FOR STANDARD'                                        19230021
 0028D4 E2E3C1D5C4C1D9C4
 0028DC 40                          2139        DC    C' '                                                       19240021
 0028DD C5D9D9D6D940D6D9            2140        DC    C'ERROR OR LABEL P'                                        19250021
 0028E5 40D3C1C2C5D340D7
 0028ED D9D6C3C5C4E4D9C5            2141        DC    C'ROCEDURE SPECIFI'                                        19260021
 0028F5 40E2D7C5C3C9C6C9
 0028FD C5C440C6D6D940C6            2142        DC    C'ED FOR FILE AND '                                        19270021
 002905 C9D3C540C1D5C440
 00290D C6D6D940D6D7C5D5            2143        DC    C'FOR OPEN OPTION.'                                        19280021
 002915 40D6D7E3C9D6D54B
 00291D 40                          2144        DC    C' '                                                       19290021
 00291E E4E2C540C6D6D940            2145        DC    C'USE FOR OPEN OPT'                                        19300021
 002926 D6D7C5D540D6D7E3
 00292E C9D6D57E                    2146          DC    C'ION='                                                  19310021
 002932 02                          2147        DC    FL1'02'                                                    19320021
 002933 E4E2C540E2E3C1E3            2148 TX1143 DC    C'USE STATEMENTS I'                                        19330021
 00293B C5D4C5D5E3E240C9
 002943 D4D7D3E840C2D6E3            2149        DC    C'MPLY BOTH STANDA'                                        19340021
 00294B C840E2E3C1D5C4C1
 002953 D9C440C1D5C440D5            2150        DC    C'RD AND NON-STAND'                                        19350021
 00295B D6D560E2E3C1D5C4
 002963 C1D9C440D3C1C2C5            2151        DC    C'ARD LABELS. USE='                                        19360021
 00296B D3E24B40E4E2C57E
 002973 02                          2152        DC    FL1'02'                                                    19370021
 002974 E6D9C9E3C540C1C6            2153 TX1144 DC    C'WRITE AFTER POSI'                                        19380021
 00297C E3C5D940D7D6E2C9
 002984 E3C9D6D5C9D5C740            2154        DC    C'TIONING AND WRIT'                                        19390021
 00298C C1D5C440E6D9C9E3
 002994 C540C2C5C6D6D9C5            2155        DC    C'E BEFORE ADVANCI'                                        19400021
 00299C 40C1C4E5C1D5C3C9
 0029A4 D5C740C9D3D3C5C7            2156        DC    C'NG ILLEGALLY USE'                                        19410021
 0029AC C1D3D3E840E4E2C5
 0029B4 C440C6D6D940F140            2157        DC    C'D FOR 1 FILE/'                                           19420021
 0029BC C6C9D3C561
 0029C1 5BC4E4D7D3C9C3C1            2158 TX1145 DC    C'$DUPLICATELY DEF'                                        19430021
 0029C9 E3C5D3E840C4C5C6
 0029D1 C9D5C5C440C9D540            2159          DC    C'INED IN SPECIAL-'                                      19440021
 0029D9 E2D7C5C3C9C1D360
 0029E1 D5C1D4C5E240D7C1            2160        DC    C'NAMES PARAGRAPH.'                                        19450021
 0029E9 D9C1C7D9C1D7C84B
 0029F1 7E                          2161        DC    C'='                                                       19460021
 0029F2 20                          2162        DC    FL1'32'                                                    19470021
 0029F3 61                          2163 TX1146   DC    C'/'                                                     19480021
 0029F4 E2C440C6C9D3C540            2164 TX1147   DC    C'SD FILE ILLEGALL'                                      19490021
 0029FC C9D3D3C5C7C1D3D3
 002A04 E840E2D7C5C3C9C6            2165          DC    C'Y SPECIFIED IN S'                                      19500021
 002A0C C9C5C440C9D540E2
1PH70     IKFCBL70                                                                                              PAGE   57
-  LOC  OBJECT CODE    ADDR1 ADDR2  STMT   SOURCE STATEMENT                                       ASM 0201 11.03 02/14/15
0002A14 C1D4C540C1D9C5C1            2166          DC    C'AME AREA CLAUSE.'                                      19510021
 002A1C 40C3D3C1E4E2C54B
 002A24 40C3D3C1E4E2C540            2167          DC    C' CLAUSE FOR SD='                                       19520021
 002A2C C6D6D940E2C47E
 002A33 02                          2168          DC    FL1'2'                                                   19530021
 002A34 C9D5E5C1D3C9C440            2169 TX1148   DC    C'INVALID SEGMENT-'                                      19540021
 002A3C E2C5C7D4C5D5E360
 002A44 D3C9D4C9E34B40C6            2170        DC    C'LIMIT. FIFTY='                                           19550021
 002A4C C9C6E3E87E
 002A51 01                          2171        DC    FL1'01'                                                    19560021
 002A52 C6C9D3C5E240C9D5            2172 TX1149 DC    C'FILES IN SAME AR'                                        19570021
 002A5A 40E2C1D4C540C1D9
 002A62 C5C140C3D3C1E4E2            2173        DC    C'EA CLAUSE DO NOT'                                        19580021
 002A6A C540C4D640D5D6E3
 002A72 40C1D3D340C1D7D7            2174        DC    C' ALL APPEAR IN T'                                        19590021
 002A7A C5C1D940C9D540E3
 002A82 C8C540E2C1D4C540            2175        DC    C'HE SAME SORT-REC'                                        19600021
 002A8A E2D6D9E360D9C5C3
 002A92 D6D9C440C1D9C5C1            2176        DC    C'ORD AREA CLAUSE.'                                        19610021
 002A9A 40C3D3C1E4E2C54B
 002AA2 5BD5D6E340C7C9E5            2177        DC    C'$NOT GIVEN '                                             19620021
 002AAA C5D540
 002AAD E2C1D4C540C1D9C5            2178        DC    C'SAME AREA NUMBER'                                        19630021
 002AB5 C140D5E4D4C2C5D9
 002ABD 61                          2179        DC    C'/'                                                       19640021
 002ABE C9D3D3C5C7C1D340            2180 TX1150   DC    C'ILLEGAL CHARACTE'                                7075  19650021
 002AC6 C3C8C1D9C1C3E3C5
 002ACE D940C9D540C3D6D3            2181          DC    C'R IN COL. 7 PREC'                                7075  19660021
 002AD6 4B40F740D7D9C5C3
 002ADE C5C4C9D5C75BD7C1            2182          DC    C'EDING$PARAGRAPH '                                7075  19670021
 002AE6 D9C1C7D9C1D7C840
 002AEE D5C1D4C561                  2183          DC    C'NAME/'                                           7075  19680021
 002AF3 C9D3D3C5C7C1D340            2184 TX1151 DC    C'ILLEGAL CHARACTE'                                        19690021
 002AFB C3C8C1D9C1C3E3C5
 002B03 D940E4E2C540C9D5            2185        DC    C'R USE IN CURRENC'                                        19700021
 002B0B 40C3E4D9D9C5D5C3
 002B13 E840E2C9C7D540C3            2186        DC    C'Y SIGN CLAUSE. C'                                        19710021
 002B1B D3C1E4E2C54B40C3
 002B23 D3C1E4E2C57E                2187        DC    C'LAUSE='                                                  19720021
 002B29 02                          2188        DC    FL1'02'                                                    19730021
 002B2A 61                          2189 TX1152   DC    C'/'                                                     19740021
 002B2B E3D6E3C1D3C5C440            2190 TX1153 DC    C'TOTALED AREA ILL'                                        19750021
 002B33 C1D9C5C140C9D3D3
 002B3B C5C7C1D3D3E840E2            2191        DC    C'EGALLY SPECIFIED'                                        19760021
 002B43 D7C5C3C9C6C9C5C4
 002B4B 40C6D6D95BE6C9E3            2192        DC    C' FOR$WITH N'                                             19770021
 002B53 C840D5
 002B56 D6D560E2E3C1D5C4            2193        DC    C'ON-STANDARD LABE'                                        19780021
 002B5E C1D9C440D3C1C2C5
 002B66 D3E24B40E4E2C57E            2194        DC    C'LS. USE='                                                19790021
 002B6E 02                          2195        DC    FL1'02'                                                    19800021
 002B6F F240C4C9C6C6C5D9            2196 TX1154 DC    C'2 DIFFERENT LABE'                                        19810021
 002B77 C5D5E340D3C1C2C5
 002B7F D340D7D9D6C3C5C4            2197        DC    C'L PROCEDURES FOR'                                        19820021
 002B87 E4D9C5E240C6D6D9
1PH70     IKFCBL70                                                                                              PAGE   58
-  LOC  OBJECT CODE    ADDR1 ADDR2  STMT   SOURCE STATEMENT                                       ASM 0201 11.03 02/14/15
0002B8F 40C5D6C640C1D5C4            2198        DC    C' EOF AND EOV WIT'                                        19830021
 002B97 40C5D6E540E6C9E3
 002B9F C840C2C5C6D6D9C5            2199        DC    C'H BEFORE OPTION.'                                        19840021
 002BA7 40D6D7E3C9D6D54B
 002BAF 40C5D6E540D3C1C2            2200        DC    C' EOV LABEL PROCE'                                        19850021
 002BB7 C5D340D7D9D6C3C5
 002BBF C4E4D9C57E                  2201        DC    C'DURE='                                                   19860021
 002BC4 02                          2202        DC    FL1'2'                                                     19870021
 002BC5 C4C5E5C9C3C540C3            2203 TX1155 DC    C'DEVICE CLASS INV'                                        19880021
 002BCD D3C1E2E240C9D5E5
 002BD5 C1D3C9C440C9D540            2204          DC    C'ALID IN SYSTEM-N'                                      19890021
 002BDD E2E8E2E3C5D460D5
 002BE5 C1D4C54B40E2D2C9            2205          DC    C'AME. SKIPPING TO'                                      19900021
 002BED D7D7C9D5C740E3D6
 002BF5 40D5C5E7E340C6C9            2206          DC    C' NEXT FIELD/'                                          19910021
 002BFD C5D3C461
 002C01 C4C5E5C9C3C540D5            2207 TX1156 DC    C'DEVICE NUMBER IN'                                        19920021
 002C09 E4D4C2C5D940C9D5
 002C11 E5C1D3C9C440C9D5            2208          DC    C'VALID IN SYSTEM-'                                      19930021
 002C19 40E2E8E2E3C5D460
 002C21 D5C1D4C54B7D5B7D            2209          DC    C'NAME.''$''='                                           19940021
 002C29 7E
 002C2A 01                          2210        DC    FL1'1'                                                     19950021
 002C2B C5E7E3C5D9D5C1D3            2211 TX1157   DC    C'EXTERNAL-NAME NO'                                      19960021
 002C33 60D5C1D4C540D5D6
 002C3B E340D7D9C5E2C5D5            2212          DC    C'T PRESENT IN SYS'                                      19970021
 002C43 E340C9D540E2E8E2
 002C4B E3C5D460D5C1D4C5            2213          DC    C'TEM-NAME/'                                             19980021
 002C53 61
 002C54 7D5B7D40C9D540C5            2214 TX1158   DC    C'''$'' IN ENTRY STATEM'                                 19990021
 002C5C D5E3D9E840E2E3C1
 002C64 E3C5D4
 002C67 C5D5E340C9E240E2            2215        DC    C'ENT IS SAME AS P'                                        20000021
 002C6F C1D4C540C1E240D7
 002C77 D9D6C7D9C1D460C9            2216          DC    C'ROGRAM-ID. ''$'' IGNOR'                                20010021
 002C7F C44B407D5B7D40C9
 002C87 C7D5D6D9
 002C8B C5C440C6D6D940C5            2217        DC    C'ED FOR ENTRY VER'                                        20020021
 002C93 D5E3D9E840E5C5D9
 002C9B C261                        2218        DC    C'B/'                                                      20030021
 002C9D D7C1C7C540D3C9D4            2219 TX1159   DC    C'PAGE LIMIT INTEG'                                      20040021
 002CA5 C9E340C9D5E3C5C7
 002CAD C5D960F140D5D6E3            2220          DC    C'ER-1 NOT SPECIFI'                                      20050021
 002CB5 40E2D7C5C3C9C6C9
 002CBD C5C440D6D940C9D5            2221          DC    C'ED OR INVALID. ASSUME '                                20060021
 002CC5 E5C1D3C9C44B40C1
 002CCD E2E2E4D4C540
 002CD3 F9F9F9F961                  2222          DC    C'9999/'                                                 20070021
 002CD8 C3D6D5E3C9D5E4C1            2223 TX1160   DC    C'CONTINUATION OF '                                      20080021
 002CE0 E3C9D6D540D6C640
 002CE8 E6D6D9C440C6D6E4            2224          DC    C'WORD FOUND IN A-'                                      20090021
 002CF0 D5C440C9D540C160
 002CF8 D4C1D9C7C9D54B7E            2225          DC    C'MARGIN.='                                              20100021
 002D00 02                          2226          DC    FL1'02'                                                  20110021
 002D01 D9C5E2C5D9E5C5C4            2227 TX1161   DC    C'RESERVED WORD MI'                                      20120021
1PH70     IKFCBL70                                                                                              PAGE   59
-  LOC  OBJECT CODE    ADDR1 ADDR2  STMT   SOURCE STATEMENT                                       ASM 0201 11.03 02/14/15
0002D09 40E6D6D9C440D4C9
 002D11 E2E2C9D5C74B7E              2228          DC    C'SSING.='                                               20130021
 002D18 1C                          2229          DC    FL1'28'                                                  20140021
 002D19 C9D5E3C5C7C5D940            2230 TX1162   DC    C'INTEGER IN LINE '                                      20150021
 002D21 C9D540D3C9D5C540
 002D29 C3D3C1E4E2C540C9            2231          DC    C'CLAUSE IS LESS T'                                      20160021
 002D31 E240D3C5E2E240E3
 002D39 C8C1D540D7D9C5E5            2232          DC    C'HAN PREVIOUS VAL'                                      20170021
 002D41 C9D6E4E240E5C1D3
 002D49 E4C54B7E                    2233          DC    C'UE.='                                                  20180021
 002D4D 02                          2234          DC    FL1'2'                                                   20190021
 002D4E C1C2E2D6D3E4E3C5            2235 TX1163   DC    C'ABSOLUTE LINE NU'                                      20200021
 002D56 40D3C9D5C540D5E4
 002D5E D4C2C5D940C9E240            2236          DC    C'MBER IS PRECEDED'                                      20210021
 002D66 D7D9C5C3C5C4C5C4
 002D6E 40C2E840C140D9C5            2237          DC    C' BY A RELATIVE L'                                      20220021
 002D76 D3C1E3C9E5C540D3
 002D7E C9D5C540D5E4D4C2            2238          DC    C'INE NUMBER.='                                          20230021
 002D86 C5D94B7E
 002D8A 02                          2239          DC    FL1'2'                                                   20240021
 002D8B D5D640D7C1C7C540            2240 TX1164   DC    C'NO PAGE CLAUSE S'                                      20250021
 002D93 C3D3C1E4E2C540E2
 002D9B D7C5C3C9C6C9C5C4            2241          DC    C'PECIFIED. ALL LI'                                      20260021
 002DA3 4B40C1D3D340D3C9
 002DAB D5C540C3D3C1E4E2            2242          DC    C'NE CLAUSES MUST '                                      20270021
 002DB3 C5E240D4E4E2E340
 002DBB C2C5407DD3C9D5C5            2243          DC    C'BE ''LINE PLUS I'                                      20280021
 002DC3 40D7D3E4E240C9
 002DCA D5E3C5C7C5D97D4B            2244          DC    C'NTEGER''.='                                            20290021
 002DD2 7E
 002DD3 02                          2245          DC    FL1'2'                                                   20300021
 002DD4 7DC8C5C1C4C9D5C7            2246 TX1165   DC    C'''HEADING'' EQUALS ''FIRST DETAIL'' I'                 20310021
 002DDC 7D40C5D8E4C1D3E2
 002DE4 407DC6C9D9E2E340
 002DEC C4C5E3C1C9D37D40
 002DF4 C9
 002DF5 D540D7C1C7C540C3            2247          DC    C'N PAGE CLAUSE. P'                                      20320021
 002DFD D3C1E4E2C54B40D7
 002E05 C1C7C540C8C5C1C4            2248          DC    C'AGE HEADING IS I'                                      20330021
 002E0D C9D5C740C9E240C9
 002E15 D3D3C5C7C1D34B7E            2249          DC    C'LLEGAL.='                                              20340021
 002E1D 1D                          2250          DC    FL1'29'                                                  20350021
 002E1E 7DC6D6D6E3C9D5C7            2251 TX1166   DC    C'''FOOTING'' EQUALS ''PAGE LIMIT'' IN'                  20360021
 002E26 7D40C5D8E4C1D3E2
 002E2E 407DD7C1C7C540D3
 002E36 C9D4C9E37D40C9D5
 002E3E 40D7C1C7C540C3D3            2252          DC    C' PAGE CLAUSE. PA'                                      20370021
 002E46 C1E4E2C54B40D7C1
 002E4E C7C540C6D6D6E3C9            2253          DC    C'GE FOOTING IS IL'                                      20380021
 002E56 D5C740C9E240C9D3
 002E5E D3C5C7C1D34B7E              2254          DC    C'LEGAL.='                                               20390021
 002E65 1D                          2255          DC    FL1'29'                                                  20400021
 002E66 7DD3C9D5C540D5C5            2256 TX1167   DC    C'''LINE NEXT PAGE'                                      20410021
 002E6E E7E340D7C1C7C5
 002E75 7D40C3D3C1E4E2C5            2257          DC    C''' CLAUSE IS ILL'                                      20420021
1PH70     IKFCBL70                                                                                              PAGE   60
-  LOC  OBJECT CODE    ADDR1 ADDR2  STMT   SOURCE STATEMENT                                       ASM 0201 11.03 02/14/15
0002E7D 40C9E240C9D3D3
 002E84 C5C7C1D340C6D6D9            2258          DC    C'EGAL FOR THIS RE'                                      20430021
 002E8C 40E3C8C9E240D9C5
 002E94 D7D6D9E340C7D9D6            2259          DC    C'PORT GROUP.='                                          20440021
 002E9C E4D74B7E
 002EA0 02                          2260          DC    FL1'2'                                                   20450021
 002EA1 C4E4D7D3C9C3C1E3            2261 TX1168 DC    C'DUPLICATE REPORT-'                                       20460021
 002EA9 C540D9C5D7D6D9E3
 002EB1 60
 002EB2 D5C1D4C54B40E2D2            2262          DC    C'NAME. SKIPPING'                                        20470021
 002EBA C9D7D7C9D5C7
 002EC0 40E3D640D5C5E640            2263          DC    C' TO NEW RD/'                                           20480021
 002EC8 D9C461
 002ECB 61                          2264 TX1169   DC    C'/'                                                     20490021
 002ECC C4C5E3C1C9D340D9            2265 TX1170   DC    C'DETAIL REPORT GR'                                      20500021
 002ED4 C5D7D6D9E340C7D9
 002EDC D6E4D740E2D7C5C3            2266          DC    C'OUP SPECIFIED WI'                                      20510021
 002EE4 C9C6C9C5C440E6C9
 002EEC E3C840D5D640C4C1            2267          DC    C'TH NO DATA-NAME.='                                     20520021
 002EF4 E3C160D5C1D4C54B
 002EFC 7E
 002EFD 1D                          2268          DC    FL1'29'                                                  20530021
 002EFE C9D5E3C5C7C5D9E2            2269 TX1171   DC    C'INTEGERS IN PAGE'                                      20540021
 002F06 40C9D540D7C1C7C5
 002F0E 40C3D3C1E4E2C540            2270          DC    C' CLAUSE ARE NOT '                                      20550021
 002F16 C1D9C540D5D6E340
 002F1E C9D540C1E2C3C5D5            2271          DC    C'IN ASCENDING ORD'                                      20560021
 002F26 C4C9D5C740D6D9C4
 002F2E C5D94B7E                    2272          DC    C'ER.='                                                  20570021
 002F32 1D                          2273          DC    FL1'29'                                                  20580021
 002F33 E6D6D9C440C9D5E5            2274 TX1172   DC    C'WORD INVALID AS '                                      20590021
 002F3B C1D3C9C440C1E240
 002F43 D9C5D7D6D9E340D5            2275          DC    C'REPORT NAME. RD='                                      20600021
 002F4B C1D4C54B40D9C47E
 002F53 02                          2276          DC    FL1'02'                                                  20610021
 002F54 C7D9D6E4D740C9D5            2277 TX1173   DC    C'GROUP INDICATE I'                                      20620021
 002F5C C4C9C3C1E3C540C9
 002F64 E240C9D3D3C5C7C1            2278          DC    C'S ILLEGAL FOR TH'                                      20630021
 002F6C D340C6D6D940E3C8
 002F74 C9E240D9C5D7D6D9            2279          DC    C'IS REPORT GROUP.'                                      20640021
 002F7C E340C7D9D6E4D74B
 002F84 7E                          2280          DC    C'='                                                     20650021
 002F85 02                          2281          DC    FL1'02'                                                  20660021
 002F86 D5D640D3C9D5C540            2282 TX1174   DC    C'NO LINE CLAUSE S'                                      20670021
 002F8E C3D3C1E4E2C540E2
 002F96 D7C5C3C9C6C9C5C4            2283          DC    C'PECIFIED IN PREC'                                      20680021
 002F9E 40C9D540D7D9C5C3
 002FA6 C5C4C9D5C740D9C5            2284          DC    C'EDING REPORT GRO'                                      20690021
 002FAE D7D6D9E340C7D9D6
 002FB6 E4D74B40D5D640D6            2285          DC    C'UP. NO OUTPUT GENERATED/'                              20700021
 002FBE E4E3D7E4E340C7C5
 002FC6 D5C5D9C1E3C5C461
 002FCE C4C1E3C160D5C1D4            2286 TX1175   DC    C'DATA-NAME FOR THI'                                     20710021
 002FD6 C540C6D6D940E3C8
 002FDE C9
1PH70     IKFCBL70                                                                                              PAGE   61
-  LOC  OBJECT CODE    ADDR1 ADDR2  STMT   SOURCE STATEMENT                                       ASM 0201 11.03 02/14/15
0002FDF E240D9C5D7D6D9E3            2287          DC    C'S REPORT GROUP I'                                      20720021
 002FE7 40C7D9D6E4D740C9
 002FEF E240D5D6E340E4D5            2288          DC    C'S NOT UNIQUE. S'                                       20730021
 002FF7 C9D8E4C54B40E2
 002FFE D2C9D7D7C9D5C740            2289          DC    C'KIPPING TO NEW 0'                                      20740021
 003006 E3D640D5C5E640F0
 00300E F16B40D9C440D6D9            2290          DC    C'1, RD OR SECTION'                                      20750021
 003016 40E2C5C3E3C9D6D5
 00301E 61                          2291          DC    C'/'                                                     20760021
 00301F 02                          2292          DC    FL1'2'                                                   20770021
 003020 5BC9E240D9C5E2C5            2293 TX1176 DC    C'$IS RESERVED WORD. ACC'                                  20780021
 003028 D9E5C5C440E6D6D9
 003030 C44B40C1C3C3
 003036 C5D7E3C5C440C1E2            2294        DC    C'EPTED AS WRITTEN/'                                       20790021
 00303E 40E6D9C9E3E3C5D5
 003046 61
 003047 61                          2295 TX1177   DC    C'/'                                                     20800021
 003048 D9C5E2C5E340C3D3            2296 TX1178   DC    C'RESET CLAUSE SPE'                                      20810021
 003050 C1E4E2C540E2D7C5
 003058 C3C9C6C9C5C46B40            2297          DC    C'CIFIED, AND IS E'                                      20820021
 003060 C1D5C440C9E240C5
 003068 C9E3C8C5D940C9D3            2298          DC    C'ITHER ILLEGAL FO'                                      20830021
 003070 D3C5C7C1D340C6D6
 003078 D940E3C8C9E240D9            2299          DC    C'R THIS REPORT GR'                                      20840021
 003080 C5D7D6D9E340C7D9
 003088 D6E4D76B40D6D940            2300          DC    C'OUP, OR ELEMENTA'                                      20850021
 003090 C5D3C5D4C5D5E3C1
 003098 D9E840C9E3C5D440            2301          DC    C'RY ITEM DOES NOT'                                      20860021
 0030A0 C4D6C5E240D5D6E3
 0030A8 40C3D6D5E3C1C9D5            2302          DC    C' CONTAIN A SUM C'                                      20870021
 0030B0 40C140E2E4D440C3
 0030B8 D3C1E4E2C54B7E              2303          DC    C'LAUSE.='                                               20880021
 0030BF 13                          2304          DC    FL1'19'                                                  20890021
 0030C0 C3D6D3E4D4D540D5            2305 TX1179   DC    C'COLUMN NUMBER IL'                                      20900021
 0030C8 E4D4C2C5D940C9D3
 0030D0 D3C5C7C1D34B40C1            2306          DC    C'LEGAL. ASSUME CO'                                      20910021
 0030D8 E2E2E4D4C540C3D6
 0030E0 D3E4D4D540F161              2307          DC    C'LUMN 1/'                                               20920021
 0030E7 E2E8D5E3C1E740D6            2308 TX1180   DC    C'SYNTAX OF COMMEN'                                      20930021
 0030EF C640C3D6D4D4C5D5
 0030F7 E340C9E240C9D5C3            2309          DC    C'T IS INCORRECT.='                                      20940021
 0030FF D6D9D9C5C3E34B7E
 003107 1E                          2310          DC    FL1'30'                                                  20950021
 003108 61                          2311 TX1181 DC    C'/'                                                       20960021
 003109 61                          2312 TX1182 DC    C'/'                                                       20970021
 00310A 61                          2313 TX1183 DC    C'/'                                                 9321  20980021
 00310B 61                          2314 TX1184 DC    C'/'                                                 9321  20990021
 00310C 61                          2315 TX1185 DC    C'/'                                                 9321  21000021
 00310D 61                          2316 TX1186 DC    C'/'                                                 9321  21010021
 00310E 61                          2317 TX1187 DC    C'/'                                                 9321  21020021
 00310F 61                          2318 TX1188 DC    C'/'                                                 9321  21030021
 003110 7DE3D65B7D40D7D6            2319 TX1189 DC    C'''TO$'' PORTION OF APPLY '                         9321  21040021
 003118 D9E3C9D6D540D6C6
 003120 40C1D7D7D3E840
 003127 C3D6D9C560C9D5C4            2320        DC    C'CORE-INDEX CLAUSE IGNORED/'                        9321  21050021
1PH70     IKFCBL70                                                                                              PAGE   62
-  LOC  OBJECT CODE    ADDR1 ADDR2  STMT   SOURCE STATEMENT                                       ASM 0201 11.03 02/14/15
000312F C5E740C3D3C1E4E2
 003137 C540C9C7D5D6D9C5
 00313F C461
 003141 7DD6C640C6C9D3C5            2321 TX1190 DC    C'''OF FILENAME'' PORTION OF RERUN'                  9321  21060021
 003149 D5C1D4C57D40D7D6
 003151 D9E3C9D6D540D6C6
 003159 40D9C5D9E4D5
 00315F 40C3D3C1E4E2C540            2322        DC   C' CLAUSE MISSING. RERUN IGNORED/'                    9321  21070021
 003167 D4C9E2E2C9D5C74B
 00316F 40D9C5D9E4D540C9
 003177 C7D5D6D9C5C461
 003180                             2323 IKF704 CSECT                                                            21080021
 003180 61                          2324 TX2000 DC    C'/'                                                       21090021
 003181 D6D7C5D540D6D7E3            2325 TX2001 DC    C'OPEN OPTION IS '                                         21100021
 003189 C9D6D540C9E240
 003190 C9D3D3C5C7C1D340            2326        DC    C'ILLEGAL FOR THIS'                                        21110021
 003198 C6D6D940E3C8C9E2
 0031A0 40C1C3C3C5E2E240            2327        DC    C' ACCESS METHOD/'                                         21120021
 0031A8 D4C5E3C8D6C461
 0031AF C4C5E5C9C3C540D4            2328 TX2002 DC    C'DEVICE MUST BE '                                         21130021
 0031B7 E4E2E340C2C540
 0031BE C4C9D9C5C3E360C1            2329        DC    C'DIRECT-ACCESS '                                          21140021
 0031C6 C3C3C5E2E240
 0031CC C6D6D940D6D7C5D5            2330        DC    C'FOR OPEN I-O/'                                           21150021
 0031D4 40C960D661
 0031D9 C4C5E5C9C3C540D4            2331 TX2003 DC    C'DEVICE MUST BE '                                         21160021
 0031E1 E4E2E340C2C540
 0031E8 C4C9D9C5C3E360C1            2332        DC    C'DIRECT-ACCESS '                                          21170021
 0031F0 C3C3C5E2E240
 0031F6 C6D6D940E3C8C9E2            2333        DC    C'FOR THIS ACCESS '                                        21180021
 0031FE 40C1C3C3C5E2E240
 003206 D4C5E3C8D6C461              2334        DC    C'METHOD/'                                                 21190021
 00320D D9C5C3D6D9C4C9D5            2335 TX2004   DC    C'RECORDING MODE O'                                      21200021
 003215 C740D4D6C4C540D6
 00321D D7E3C9D6D540C9D3            2336          DC    C'PTION ILLEGAL FO'                                      21210021
 003225 D3C5C7C1D340C6D6
 00322D D940E3C8C9E240C1            2337          DC    C'R THIS ACCESS ME'                                      21220021
 003235 C3C3C5E2E240D4C5
 00323D E3C8D6C44B7E                2338          DC    C'THOD.='                                                21230021
 003243 13                          2339          DC    FL1'19'                                                  21240021
 003244 7DC1D7D7D3E840D9            2340 TX2005   DC    C'''APPLY RECORD O'                                      21250021
 00324C C5C3D6D9C440D6
 003253 E5C5D9C6D3D6E67D            2341          DC    C'VERFLOW'' CLAUSE'                                      21260021
 00325B 40C3D3C1E4E2C5
 003262 40C9D3D3C5C7C1D3            2342          DC    C' ILLEGAL FOR TH'                                       21270021
 00326A 40C6D6D940E3C8
 003271 C9E240C1C3C3C5E2            2343          DC    C'IS ACCESS METHOD'                                      21280021
 003279 E240D4C5E3C8D6C4
 003281 4B7E                        2344          DC    C'.='                                                    21290021
 003283 13                          2345          DC    FL1'19'                                                  21300021
 003284 C2D3D6C3D240C3D6            2346 TX2006   DC    C'BLOCK CONTAINS C'                                      21310021
 00328C D5E3C1C9D5E240C3
 003294 D3C1E4E2C540E6C9            2347          DC    C'LAUSE WITH RECOR'                                      21320021
 00329C E3C840D9C5C3D6D9
 0032A4 C4C9D5C740D4D6C4            2348          DC    C'DING MODE ''U'''                                       21330021
1PH70     IKFCBL70                                                                                              PAGE   63
-  LOC  OBJECT CODE    ADDR1 ADDR2  STMT   SOURCE STATEMENT                                       ASM 0201 11.03 02/14/15
00032AC C5407DE47D
 0032B1 40C9D3D3C5C7C1D3            2349          DC    C' ILLEGAL.='                                            21340021
 0032B9 4B7E
 0032BB 13                          2350          DC    FL1'19'                                                  21350021
 0032BC 7DC1D7D7D3E840D9            2351 TX2007   DC    C'''APPLY REORG-'                                        21360021
 0032C4 C5D6D9C760
 0032C9 C3D9C9E3C5D9C9C1            2352          DC    C'CRITERIA'' CLAU'                                       21370021
 0032D1 7D40C3D3C1E4
 0032D7 E2C540C9D3D3                2353          DC    C'SE ILL'                                                21380021
 0032DD C5C7C1D340C6D6D9            2354          DC    C'EGAL FOR THIS AC'                                      21390021
 0032E5 40E3C8C9E240C1C3
 0032ED C3C5E2E240D4C5E3            2355          DC    C'CESS METHOD.='                                         21400021
 0032F5 C8D6C44B7E
 0032FA 13                          2356          DC    FL1'19'                                                  21410021
 0032FB C1D7D7D3E840E6D9            2357 TX2008 DC    C'APPLY WRITE-ONLY'                                        21420021
 003303 C9E3C560D6D5D3E8
 00330B 40C9D3D3C5C7C1D3            2358        DC    C' ILLEGAL FOR '                                           21430021
 003313 40C6D6D940
 003318 E3C8C9E240C1C3C3            2359        DC    C'THIS ACCESS '                                            21440021
 003320 C5E2E240
 003324 D4C5E3C8D6C44B7E            2360        DC    C'METHOD.='                                                21450021
 00332C 02                          2361        DC    FL1'2'                                                     21460021
 00332D D3C1C2C5D340D9C5            2362 TX2009 DC    C'LABEL RECORDS '                                          21470021
 003335 C3D6D9C4E240
 00333B D6D7E3C9D6D540C9            2363        DC    C'OPTION INCOMPAT'                                         21480021
 003343 D5C3D6D4D7C1E3
 00334A C9C2D3C540E6C9E3            2364        DC    C'IBLE WITH DEVICE'                                        21490021
 003352 C840C4C5E5C9C3C5
 00335A 40E3E8D7C561                2365        DC    C' TYPE/'                                                  21500021
 003360 D6C2D1C5C3E340D6            2366 TX2010   DC    C'OBJECT OF REDEFINES CLAUSE'                            21510021
 003368 C640D9C5C4C5C6C9
 003370 D5C5E240C3D3C1E4
 003378 E2C5
 00337A 40C9E240D6C3C3E4            2367          DC    C' IS OCCURS DEPENDING ON SUB'                           21520021
 003382 D9E240C4C5D7C5D5
 00338A C4C9D5C740D6D540
 003392 E2E4C2
 003395 D1C5C3E34B40D9C5            2368          DC    C'JECT. REDEFINES='                                      21530021
 00339D C4C5C6C9D5C5E27E
 0033A5 02                          2369          DC    FL1'02'                                                  21540021
 0033A6 C1D540C9D5C4C5E7            2370 TX2011   DC    C'AN INDEX DATA ITEM MAY '                               21550021
 0033AE 40C4C1E3C140C9E3
 0033B6 C5D440D4C1E840
 0033BD D5D6E340C2C540C1            2371          DC    C'NOT BE A CONDITIONAL '                                 21560021
 0033C5 40C3D6D5C4C9E3C9
 0033CD D6D5C1D340
 0033D2 E5C1D9C9C1C2D3C5            2372        DC    C'VARIABLE. 88='                                           21570021
 0033DA 4B40F8F87E
 0033DF 03                          2373          DC    FL1'03'                                                  21580021
 0033E0 C9D5C4C5E740D5C1            2374 TX2012   DC    C'INDEX NAMES AND-'                                      21590021
 0033E8 D4C5E240C1D5C460
 0033F0 D6D940D2C5E8E240            2375          DC    C'OR KEYS IGNORED '                                      21600021
 0033F8 C9C7D5D6D9C5C440
 003400 C6D6D940E3C1C2D3            2376          DC    C'FOR TABLE WITH I'                                      21610021
 003408 C540E6C9E3C840C9
1PH70     IKFCBL70                                                                                              PAGE   64
-  LOC  OBJECT CODE    ADDR1 ADDR2  STMT   SOURCE STATEMENT                                       ASM 0201 11.03 02/14/15
0003410 D3D3C5C7C1D340E2            2377          DC    C'LLEGAL SUBJECT/'                                       21620021
 003418 E4C2D1C5C3E361
 00341F E3D9C1C3D260D3C9            2378 TX2013   DC    C'TRACK-LIMIT CLAU'                                      21630021
 003427 D4C9E340C3D3C1E4
 00342F E2C540C9D3D3C5C7            2379          DC    C'SE ILLEGAL FOR T'                                      21640021
 003437 C1D340C6D6D940E3
 00343F C8C9E240C1C3C3C5            2380          DC    C'HIS ACCESS METHO'                                      21650021
 003447 E2E240D4C5E3C8D6
 00344F C44B7E                      2381          DC    C'D.='                                                   21660021
 003452 13                          2382          DC    FL1'19'                                                  21670021
 003453 E3D9C1C3D260D3C9            2383 TX2014   DC    C'TRACK-LIMIT SPEC'                                      21680021
 00345B D4C9E340E2D7C5C3
 003463 C9C6C9C5C440C1D5            2384          DC    C'IFIED AND FILE N'                                      21690021
 00346B C440C6C9D3C540D5
 003473 D6E340                      2385          DC    C'OT '                                                   21700021
 003476 D6D7C5D5C5C440C1            2386          DC    C'OPENED AS OUTPUT'                                      21710021
 00347E E240D6E4E3D7E4E3
 003486 4B7E                        2387          DC    C'.='                                                    21720021
 003488 13                          2388          DC    FL1'19'                                                  21730021
 003489 7DD9C5E2C5D9E5C5            2389 TX2015   DC    C'''RESERVE ALTERN'                                      21740021
 003491 40C1D3E3C5D9D5
 003498 C1E3C540C1D9C5C1            2390          DC    C'ATE AREA'' CLAUS'                                      21750021
 0034A0 7D40C3D3C1E4E2
 0034A7 C540                        2391          DC    C'E '                                                    21760021
 0034A9 E3D9C5C1E3C5C440            2392          DC    C'TREATED AS COMME'                                      21770021
 0034B1 C1E240C3D6D4D4C5
 0034B9 D5E3E240C6D6D940            2393          DC    C'NTS FOR THIS ACC'                                      21780021
 0034C1 E3C8C9E240C1C3C3
 0034C9 C5E2E240D4C5E3C8            2394          DC    C'ESS METHOD/'                                           21790021
 0034D1 D6C461
 0034D4 C4C1E3C160D9C5C3            2395 TX2016   DC    C'DATA-RECORD SIZE'                                      21800021
 0034DC D6D9C440E2C9E9C5
 0034E4 40C9E240E5C1D9C9            2396        DC    C' IS VARIABLE, AND ''R'                                   21810021
 0034EC C1C2D3C56B40C1D5
 0034F4 C4407DD9
 0034F8 C5C3D6D9C4C9D5C7            2397        DC    C'ECORDING MODE IS F'' '                                   21820021
 003500 40D4D6C4C540C9E2
 003508 40C67D40
 00350C E2D7C5C3C9C6C9C5            2398        DC    C'SPECIFIED. FORMAT F '                                    21830021
 003514 C44B40C6D6D9D4C1
 00351C E340C640
 003520 C6C9D3C540C1E2E2            2399        DC    C'FILE ASSUMED/'                                           21840021
 003528 E4D4C5C461
 00352D 02                          2400          DC    FL1'2'                                                   21850021
 00352E C9C640E3C8C540E2            2401 TX2017   DC    C'IF THE SUBJECT OF AN INDEXED BY '                      21860021
 003536 E4C2D1C5C3E340D6
 00353E C640C1D540C9D5C4
 003546 C5E7C5C440C2E840
 00354E C3D3C1E4E2C540C9            2402          DC    C'CLAUSE IS AN ELEMENTARY ITEM ONLY '                    21870021
 003556 E240C1D540C5D3C5
 00355E D4C5D5E3C1D9E840
 003566 C9E3C5D440D6D5D3
 00356E E840
 003570 E3C8C1E340C9E3C5            2403        DC    C'THAT ITEM ITSELF MAY BE SPECIFIED '                      21880021
 003578 D440C9E3E2C5D3C6
1PH70     IKFCBL70                                                                                              PAGE   65
-  LOC  OBJECT CODE    ADDR1 ADDR2  STMT   SOURCE STATEMENT                                       ASM 0201 11.03 02/14/15
0003580 40D4C1E840C2C540
 003588 E2D7C5C3C9C6C9C5
 003590 C440
 003592 C9D540E3C8C540D2            2404        DC    C'IN THE KEY CLAUSE. REST OF KEYS DI'                      21890021
 00359A C5E840C3D3C1E4E2
 0035A2 C54B40D9C5E2E340
 0035AA D6C640D2C5E8E240
 0035B2 C4C9
 0035B4 E2C3C1D9C4C5C461            2405        DC    C'SCARDED/'                                                21900021
 0035BC D6C2D1C5C3E340D6            2406 TX2018   DC    C'OBJECT OF RENAME'                                      21910021
 0035C4 C640D9C5D5C1D4C5
 0035CC E240C3D3C1E4E2C5            2407          DC    C'S CLAUSE WAS NOT'                                      21920021
 0035D4 40E6C1E240D5D6E3
 0035DC 40C6D6E4D5C440D6            2408          DC    C' FOUND OR NON-UN'                                      21930021
 0035E4 D940D5D6D560E4D5
 0035EC C9D8E4C540C9D540            2409          DC    C'IQUE IN LOGICAL '                                      21940021
 0035F4 D3D6C7C9C3C1D340
 0035FC D9C5C3D6D9C461              2410          DC    C'RECORD/'                                               21950021
 003603 C2D3D6C3D240C3D6            2411 TX2019 DC    C'BLOCK CONTAINS '                                         21960021
 00360B D5E3C1C9D5E240
 003612 C3D3C1E4E2C540E3            2412          DC    C'CLAUSE TREATED A'                                      21970021
 00361A D9C5C1E3C5C440C1
 003622 E240C3D6D4D4C5D5            2413          DC    C'S COMMENT FOR TH'                                      21980021
 00362A E340C6D6D940E3C8
 003632 C9E240C1C3C3C5E2            2414          DC    C'IS ACCESS METHOD'                                      21990021
 00363A E240D4C5E3C8D6C4
 003642 4B7E                        2415        DC    C'.='                                                      22000021
 003644 13                          2416          DC    FL1'19'                                                  22010021
 003645 E3D9C1C3D260C1D9            2417 TX2020 DC    C'TRACK-AREA '                                             22020021
 00364D C5C140
 003650 C3D3C1E4E2C57E              2418        DC    C'CLAUSE='                                                 22030021
 003657 2A                          2419        DC    FL1'42'                                                    22040021
 003658 D7C9C3E3E4D9C540            2420 TX2021    DC    C'PICTURE DUPLICAT'                                     22050021
 003660 C4E4D7D3C9C3C1E3
 003668 C9D6D540C6C1C3E3            2421           DC    C'ION FACTOR TRUNC'                                     22060021
 003670 D6D940E3D9E4D5C3
 003678 C1E3C5C440E3D640            2422           DC    C'ATED TO 5 SIGNIF'                                     22070021
 003680 F540E2C9C7D5C9C6
 003688 C9C3C1D5E340C4C9            2423           DC    C'ICANT DIGITS/'                                        22080021
 003690 C7C9E3E261
 003695 E3C8C540D6C2D1C5            2424 TX2022   DC    C'THE OBJECT OF TH'                                      22090021
 00369D C3E340D6C640E3C8
 0036A5 C540D9C5D5C1D4C5            2425          DC    C'E RENAMES OR REN'                                      22100021
 0036AD E240D6D940D9C5D5
 0036B5 C1D4C5E240E3C8D9            2426          DC    C'AMES THRU CLAUSE'                                      22110021
 0036BD E440C3D3C1E4E2C5
 0036C5 40C3C1D5D5D6E340            2427        DC    C' CANNOT BE 01, 6'                                        22120021
 0036CD C2C540F0F16B40F6
 0036D5 F66B40F7F740D6D9            2428        DC    C'6, 77 OR 88.='                                           22130021
 0036DD 40F8F84B7E
 0036E2 06                          2429          DC    FL1'06'                                                  22140021
 0036E3 C14DD55D5B40D2C5            2430 TX2023   DC    C'A(N)$ KEY '                                            22150021
 0036EB E840
 0036ED E6C1E240D5D6E340            2431        DC    C'WAS NOT SPECIFIE'                                        22160021
 0036F5 E2D7C5C3C9C6C9C5
1PH70     IKFCBL70                                                                                              PAGE   66
-  LOC  OBJECT CODE    ADDR1 ADDR2  STMT   SOURCE STATEMENT                                       ASM 0201 11.03 02/14/15
00036FD C440C6D6D940E3C8            2432        DC    C'D FOR THIS FILE/'                                        22170021
 003705 C9E240C6C9D3C561
 00370D 5BD2C5E840C9E27E            2433 TX2024 DC    C'$KEY IS='                                                22180021
 003715 2A                          2434        DC    FL1'42'                                                    22190021
 003716 E6D9C9E3C540C1C4            2435 TX2025   DC    C'WRITE ADVANCING '                                      22200021
 00371E E5C1D5C3C9D5C740
 003726 D6D940D7D6E2C9E3            2436          DC    C'OR POSITIONING O'                                      22210021
 00372E C9D6D5C9D5C740D6
 003736 D7E3C9D6D540E6C1            2437          DC    C'PTION WAS SPECIF'                                      22220021
 00373E E240E2D7C5C3C9C6
 003746 C9C5C440C1D5C440            2438          DC    C'IED AND FILE WAS'                                      22230021
 00374E C6C9D3C540E6C1E2
 003756 40D5D6                      2439          DC    C' NO'                                                   22240021
 003759 E340D6D7C5D5C5C4            2440          DC    C'T OPENED OUTPUT '                                      22250021
 003761 40D6E4E3D7E4E340
 003769 D6D940C1C3C3C5E2            2441          DC    C'OR ACCESS METHOD'                                      22260021
 003771 E240D4C5E3C8D6C4
 003779 40D5D6E340E2E3C1            2442          DC    C' NOT STANDARD SE'                                      22270021
 003781 D5C4C1D9C440E2C5
 003789 D8E4C5D5E3C9C1D3            2443          DC    C'QUENTIAL. WRITES'                                      22280021
 003791 4B40E6D9C9E3C5E2
 003799 40                          2444          DC    C' '                                                     22290021
 00379A E6C9D3D340D5D6E3            2445          DC    C'WILL NOT HAVE AD'                                      22300021
 0037A2 40C8C1E5C540C1C4
 0037AA E5C1D5C3C9D5C740            2446          DC    C'VANCING OPTION F'                                      22310021
 0037B2 D6D7E3C9D6D540C6
 0037BA D6D940E3C8C9E240            2447          DC    C'OR THIS FILE/'                                         22320021
 0037C2 C6C9D3C561
 0037C7 E3D6E3C1D3C9D5C7            2448 TX2026   DC    C'TOTALING AREA, T'                                      22330021
 0037CF 40C1D9C5C16B40E3
 0037D7 D6E3C1D3C5C440C1            2449          DC    C'OTALED AREA IGNO'                                      22340021
 0037DF D9C5C140C9C7D5D6
 0037E7 D9C5C440C6D6D940            2450          DC    C'RED FOR FILE WIT'                                      22350021
 0037EF C6C9D3C540E6C9E3
 0037F7 C840D9C5C3D6D9C4            2451          DC    C'H RECORDING MODE'                                      22360021
 0037FF C9D5C740D4D6C4C5
 003807 40E261                      2452          DC    C' S/'                                                   22370021
 00380A C1D7D7D3E840C3D6            2453 TX2027   DC    C'APPLY CORE-INDEX'                                      22380021
 003812 D9C560C9D5C4C5E7
 00381A 7E                          2454          DC    C'='                                                     22390021
 00381B 2A                          2455          DC    FL1'42'                                                  22400021
 00381C D9C5D6D9C760C3D9            2456 TX2028   DC    C'REORG-CRITERIA D'                                      22410021
 003824 C9E3C5D9C9C140C4
 00382C C1E3C160D5C1D4C5            2457          DC    C'ATA-NAME NOT FOU'                                      22420021
 003834 40D5D6E340C6D6E4
 00383C D5C440D6D940D5D6            2458          DC    C'ND OR NON-UNIQUE.'                                     22430021
 003844 D560E4D5C9D8E4C5
 00384C 4B
 00384D 407E                        2459          DC    C' ='                                                    22440021
 00384F 13                          2460        DC    FL1'19'                                                    22450021
 003850 C6C9D9E2E340D5D6            2461 TX2029 DC    C'FIRST NON 77, '                                          22460021
 003858 D540F7F76B40
 00385E F8F840                      2462        DC    C'88 '                                                     22470021
 003861 C9E3C5D440C9D540            2463        DC    C'ITEM IN SECTION '                                        22480021
 003869 E2C5C3E3C9D6D540
1PH70     IKFCBL70                                                                                              PAGE   67
-  LOC  OBJECT CODE    ADDR1 ADDR2  STMT   SOURCE STATEMENT                                       ASM 0201 11.03 02/14/15
0003871 C9E240D5D6E340C1            2464        DC    C'IS NOT AN 01. '                                          22490021
 003879 D540F0F14B40
 00387F E3C8C9E240C9E3C5            2465        DC    C'THIS ITEM WAS='                                          22500021
 003887 D440E6C1E27E
 00388D 2B                          2466        DC    FL1'43'                                                    22510021
 00388E F7F740C9E3C5D440            2467 TX2030 DC    C'77 ITEM PRECEDED'                                        22520021
 003896 D7D9C5C3C5C4C5C4
 00389E 40C2E840F0F160F4            2468        DC    C' BY 01-49 '                                              22530021
 0038A6 F940
 0038A8 C9E3C5D440D6D940            2469        DC    C'ITEM OR 77 IN FI'                                        22540021
 0038B0 F7F740C9D540C6C9
 0038B8 D3C540E2C5C3E3C9            2470        DC    C'LE SECTION. 77='                                         22550021
 0038C0 D6D54B40F7F77E
 0038C7 2B                          2471        DC    FL1'43'                                                    22560021
 0038C8 F8F840C9E3C5D440            2472 TX2031   DC    C'88 ITEM MUST BE '                                      22570021
 0038D0 D4E4E2E340C2C540
 0038D8 D7D9C5C3C5C4C5C4            2473          DC    C'PRECEDED BY 01-4'                                      22580021
 0038E0 40C2E840F0F160F4
 0038E8 F940D6D940F7F740            2474          DC    C'9 OR 77 ITEM. 88'                                      22590021
 0038F0 C9E3C5D44B40F8F8
 0038F8 7E                          2475          DC    C'='                                                     22600021
 0038F9 2B                          2476          DC    FL1'43'                                                  22610021
 0038FA F8F840C9E3C5D440            2477 TX2032 DC    C'88 ITEM CONTAINE'                                        22620021
 003902 C3D6D5E3C1C9D5C5
 00390A C440C140C3D3C1E4            2478        DC    C'D A CLAUSE OTHER'                                        22630021
 003912 E2C540D6E3C8C5D9
 00391A 40E3C8C1D540E5C1            2479        DC    C' THAN VALUE CLAU'                                        22640021
 003922 D3E4C540C3D3C1E4
 00392A E2C54B7E                    2480        DC    C'SE.='                                                    22650021
 00392E 2C                          2481        DC    FL1'44'                                                    22660021
 00392F C9E3C5D47DE240E4            2482 TX2033 DC    C'ITEM''S USAGE IN'                                        22670021
 003937 E2C1C7C540C9D5
 00393E C3D6D4D7C1E3C9C2            2483        DC    C'COMPATIBLE WITH '                                        22680021
 003946 D3C540E6C9E3C840
 00394E E4E2C1C7C540D6C6            2484        DC    C'USAGE OF GROUP '                                         22690021
 003956 40C7D9D6E4D740
 00395D C9E340C2C5D3D6D5            2485        DC    C'IT BELONGS TO. '                                         22700021
 003965 C7E240E3D64B40
 00396C E4E2C1C7C540C3C8            2486        DC    C'USAGE CHANGED TO'                                        22710021
 003974 C1D5C7C5C440E3D6
 00397C 40C7D9D6E4D77DE2            2487        DC    C' GROUP''S USAGE/'                                        22720021
 003984 40E4E2C1C7C561
 00398B C7D9D6E4D740C9E3            2488 TX2034 DC    C'GROUP ITEM HAS '                                         22730021
 003993 C5D440C8C1E240
 00399A D7C9C3E3E4D9C540            2489        DC    C'PICTURE CLAUSE.='                                        22740021
 0039A2 C3D3C1E4E2C54B7E
 0039AA 2C                          2490        DC    FL1'44'                                                    22750021
 0039AB C7D9D6E4D740C9E3            2491 TX2035 DC    C'GROUP ITEM HAS '                                         22760021
 0039B3 C5D440C8C1E240
 0039BA C2D3C1D5D240E6C8            2492        DC    C'BLANK WHEN ZERO '                                        22770021
 0039C2 C5D540E9C5D9D640
 0039CA C3D3C1E4E2C54B7E            2493        DC    C'CLAUSE.='                                                22780021
 0039D2 2C                          2494        DC    FL1'44'                                                    22790021
 0039D3 C7D9D6E4D740C9E3            2495 TX2036 DC    C'GROUP ITEM HAS J'                                        22800021
 0039DB C5D440C8C1E240D1
1PH70     IKFCBL70                                                                                              PAGE   68
-  LOC  OBJECT CODE    ADDR1 ADDR2  STMT   SOURCE STATEMENT                                       ASM 0201 11.03 02/14/15
00039E3 E4E2E3C9C6C9C5C4            2496        DC    C'USTIFIED CLAUSE.'                                        22810021
 0039EB 40C3D3C1E4E2C54B
 0039F3 7E                          2497        DC    C'='                                                       22820021
 0039F4 2C                          2498        DC    FL1'44'                                                    22830021
 0039F5 C2D3C1D5D240E6C8            2499 TX2037 DC    C'BLANK WHEN ZERO '                                        22840021
 0039FD C5D540E9C5D9D640
 003A05 C3D3C1E4E2C540E4            2500        DC    C'CLAUSE USED INCO'                                        22850021
 003A0D E2C5C440C9D5C3D6
 003A15 D9D9C5C3E3D3E84B            2501        DC    C'RRECTLY.='                                               22860021
 003A1D 7E
 003A1E 13                          2502        DC    FL1'19'                                                    22870021
 003A1F E3D6E3C1D3C9D5C7            2503 TX2038   DC    C'TOTALING AREA, T'                                      22880021
 003A27 40C1D9C5C16B40E3
 003A2F D6E3C1D3C5C440C1            2504          DC    C'OTALED AREA IGNO'                                      22890021
 003A37 D9C5C140C9C7D5D6
 003A3F D9C5C440C6D6D940            2505          DC    C'RED FOR THIS ACC'                                      22900021
 003A47 E3C8C9E240C1C3C3
 003A4F C5E2E240D4C5E3C8            2506          DC    C'ESS METHOD/'                                           22910021
 003A57 D6C461
 003A5A D7C9C3E3E4D9C540            2507 TX2039 DC    C'PICTURE CONFIGUR'                                        22920021
 003A62 C3D6D5C6C9C7E4D9
 003A6A C1E3C9D6D540C9D3            2508        DC    C'ATION ILLEGAL. P'                                        22930021
 003A72 D3C5C7C1D34B40D7
 003A7A C9C3E3                      2509        DC    C'ICT'                                                     22940021
 003A7D E4D9C540C3C8C1D5            2510        DC    C'URE CHANGED TO 9'                                        22950021
 003A85 C7C5C440E3D640F9
 003A8D 40E4D5D3C5E2E240            2511        DC    C' UNLESS USAGE IS'                                        22960021
 003A95 E4E2C1C7C540C9E2
 003A9D 407DC4C9E2D7D3C1            2512        DC    C' ''DISPLAY-ST'','                                        22970021
 003AA5 E860E2E37D6B
 003AAB 40E3C8C5D540D34D            2513        DC    C' THEN L(6)BDZ9BD'                                        22980021
 003AB3 F65DC2C4E9F9C2C4
 003ABB E9F961                      2514        DC    C'Z9/'                                                     22990021
 003ABE D1E4E2E3C9C6C9C5            2515 TX2040 DC    C'JUSTIFIED CLAUSE'                                        23000021
 003AC6 C440C3D3C1E4E2C5
 003ACE 40E2D7C5C37DC440            2516        DC    C' SPEC''D FOR NON'                                        23010021
 003AD6 C6D6D940D5D6D5
 003ADD 60C1D3D7C8C1C2C5            2517        DC    C'-ALPHABETIC OR '                                         23020021
 003AE5 E3C9C340D6D940
 003AEC D5D6D560C1D3D7C8            2518        DC    C'NON-ALPHANUMERIC'                                        23030021
 003AF4 C1D5E4D4C5D9C9C3
 003AFC 40C9E3C5D44B7E              2519        DC    C' ITEM.='                                                 23040021
 003B03 2C                          2520        DC    FL1'44'                                                    23050021
 003B04 C3D6D5C4C9E3C9D6            2521 TX2041   DC    C'CONDITION NAME U'                                      23060021
 003B0C D540D5C1D4C540E4
 003B14 D5C4C5D940C7D9D6            2522          DC    C'NDER GROUP HAS V'                                      23070021
 003B1C E4D740C8C1E240E5
 003B24 C1D3E4C540C3D3C1            2523          DC    C'ALUE CLAUSE THAT'                                      23080021
 003B2C E4E2C540E3C8C1E3
 003B34 40C9E240D5E4D4C5            2524          DC    C' IS NUMERIC. 88='                                      23090021
 003B3C D9C9C34B40F8F87E
 003B44 03                          2525          DC    FL1'03'                                                  23100021
 003B45 E3C8C9E240C9E3C5            2526 TX2042 DC    C'THIS ITEM CAUSES'                                        23110021
 003B4D D440C3C1E4E2C5E2
 003B55 40D6E5C5D940F340            2527        DC    C' OVER 3 LEVELS '                                         23120021
1PH70     IKFCBL70                                                                                              PAGE   69
-  LOC  OBJECT CODE    ADDR1 ADDR2  STMT   SOURCE STATEMENT                                       ASM 0201 11.03 02/14/15
0003B5D D3C5E5C5D3E240
 003B64 D6C640E2E4C2E2C3            2528        DC    C'OF SUBSCRIPTING.'                                        23130021
 003B6C D9C9D7E3C9D5C74B
 003B74 40D6C3C3E4D9E240            2529        DC    C' OCCURS CLAUSE '                                         23140021
 003B7C C3D3C1E4E2C540
 003B83 C4D9D6D7D7C5C440            2530        DC    C'DROPPED FOR THIS'                                        23150021
 003B8B C6D6D940E3C8C9E2
 003B93 40C9E3C5D461                2531        DC    C' ITEM/'                                                  23160021
 003B99 F0F140D6D940F7F7            2532 TX2043   DC    C'01 OR 77 LEVEL H'                                      23170021
 003BA1 40D3C5E5C5D340C8
 003BA9 C1E240C1D540                2533          DC    C'AS AN '                                                23180021
 003BAF D6C3C3E4D9E240C3            2534        DC    C'OCCURS CLAUSE.='                                         23190021
 003BB7 D3C1E4E2C54B7E
 003BBE 2C                          2535        DC    FL1'44'                                                    23200021
 003BBF C4E4D7D3C9C3C1E3            2536 TX2044   DC    C'DUPLICATE SD.='                                        23210021
 003BC7 C540E2C44B7E
 003BCD 02                          2537          DC    FL1'02'                                                  23220021
 003BCE D9C5D7D6D9E340C3            2538 TX2045 DC    C'REPORT CONTROL '                                         23230021
 003BD6 D6D5E3D9D6D340
 003BDD D5C1D4C540E4D5C4            2539        DC    C'NAME UNDEFINED/'                                         23240021
 003BE5 C5C6C9D5C5C461
 003BEC D9C5D7D6D9E340C3            2540 TX2046 DC    C'REPORT CONTROL '                                         23250021
 003BF4 D6D5E3D9D6D340
 003BFB D5C1D4C540D5D6E3            2541        DC    C'NAME NOT FIXED '                                         23260021
 003C03 40C6C9E7C5C440
 003C0A D3C5D5C7E3C861              2542        DC    C'LENGTH/'                                                 23270021
 003C11 D4D6D9C540E3C8C1            2543 TX2047   DC    C'MORE THAN 12 IND'                                      23280021
 003C19 D540F1F240C9D5C4
 003C21 C5E740D5C1D4C5E2            2544          DC    C'EX NAMES SPECIFI'                                      23290021
 003C29 40E2D7C5C3C9C6C9
 003C31 C5C440C6D6D940E3            2545          DC    C'ED FOR TABLE. FI'                                      23300021
 003C39 C1C2D3C54B40C6C9
 003C41 D9E2E340F1F240C1            2546          DC    C'RST 12 ACCEPTED/'                                      23310021
 003C49 C3C3C5D7E3C5C461
 003C51 D5D6D560E2E3C1D5            2547 TX2048 DC    C'NON-STANDARD USER LABEL SIZE GREATER '  * 2ND REL        23320021
 003C59 C4C1D9C440E4E2C5
 003C61 D940D3C1C2C5D340
 003C69 E2C9E9C540C7D9C5
 003C71 C1E3C5D940
 003C76 E3C8C1D540F4F0F9            2548          DC    C'THAN 4095 BYTES/'                                      23330021
 003C7E F540C2E8E3C5E261
 003C86 D5D640D6D7C5D540            2549 TX2049 DC    C'NO OPEN CLAUSE '                                         23340021
 003C8E C3D3C1E4E2C540
 003C95 C6D6E4D5C440C6D6            2550        DC    C'FOUND FOR FILE/'                                         23350021
 003C9D D940C6C9D3C561
 003CA4 C2D3D6C3D240E2C9            2551 TX2050 DC    C'BLOCK SIZE GREAT'                                        23360021
 003CAC E9C540C7D9C5C1E3
 003CB4 C5D940E3C8C1D540            2552          DC    C'ER THAN 32760. C'                                      23370021
 003CBC F3F2F7F6F04B40C3
 003CC4 C1D5D5D6E340E6D9            2553          DC    C'ANNOT WRITE BLOC'                                      23380021
 003CCC C9E3C540C2D3D6C3
 003CD4 D240D6C640E3C8C9            2554          DC    C'K OF THIS SIZE/'                                       23390021
 003CDC E240E2C9E9C561
 003CE3 E3D9C1C3D260C1D9            2555 TX2051   DC    C'TRACK-AREA DATA-'                                      23400021
 003CEB C5C140C4C1E3C160
1PH70     IKFCBL70                                                                                              PAGE   70
-  LOC  OBJECT CODE    ADDR1 ADDR2  STMT   SOURCE STATEMENT                                       ASM 0201 11.03 02/14/15
0003CF3 D5C1D4C540C9E240            2556        DC    C'NAME IS NON-UNIQ'                                        23410021
 003CFB D5D6D560E4D5C9D8
 003D03 E4C540D6D940E4D5            2557        DC    C'UE OR UNDEFINED.'                                        23420021
 003D0B C4C5C6C9D5C5C44B
 003D13 7E                          2558        DC    C'='                                                       23430021
 003D14 13                          2559        DC    FL1'19'                                                    23440021
 003D15 D4D6D9C540E3C8C1            2560 TX2052   DC    C'MORE THAN 12 KEY'                                      23450021
 003D1D D540F1F240D2C5E8
 003D25 E240E2D7C5C3C9C6            2561          DC    C'S SPECIFIED FOR '                                      23460021
 003D2D C9C5C440C6D6D940
 003D35 E3C1C2D3C54B40C6            2562          DC    C'TABLE. FIRST 12 '                                      23470021
 003D3D C9D9E2E340F1F240
 003D45 C1C3C3C5D7E3C5C4            2563          DC    C'ACCEPTED/'                                             23480021
 003D4D 61
 003D4E D5D6D4C9D5C1D340            2564 TX2053   DC    C'NOMINAL OR ACTUA'                                58305 23490021
 003D56 D6D940C1C3E3E4C1
 003D5E D340D2C5E840D5D6            2565          DC    C'L KEY NON-UNIQUE'                                58305 23500021
 003D66 D560E4D5C9D8E4C5
 003D6E 40D6D940E4D5C4C5            2566          DC    C' OR UNDEFINED.='                                 58305 23510021
 003D76 C6C9D5C5C44B7E
                                    2567 *DEL                                                                    23520021
 003D7D 13                          2568        DC    FL1'19'                                                    23530021
 003D7E D5D6D4C9D5C1D340            2569 TX2054   DC    C'NOMINAL KEY PICT'                                      23540021
 003D86 D2C5E840D7C9C3E3
 003D8E E4D9C540D6D940E4            2570          DC    C'URE OR USAGE NOT'                                      23550021
 003D96 E2C1C7C540D5D6E3
 003D9E 40D3C5C7C1D361              2571          DC    C' LEGAL/'                                               23560021
 003DA5 E2E3C5D9D3C9D5C7            2572 TX2055 DC    C'STERLING NON-REP'                                        23570021
 003DAD 40D5D6D560D9C5D7
 003DB5 D6D9E340D7C9C3E3            2573        DC    C'ORT PICTURE - SI'                                        23580021
 003DBD E4D9C5406040E2C9
 003DC5 C7D540C9D540D7D6            2574        DC    C'GN IN POUND FIEL'                                        23590021
 003DCD E4D5C440C6C9C5D3
 003DD5 C440D4E4E2E340C2            2575        DC    C'D MUST BE ON HI '                                        23600021
 003DDD C540D6D540C8C940
 003DE5 D6D940D3D640D6D9            2576        DC    C'OR LO ORDER DIGI'                                        23610021
 003DED C4C5D940C4C9C7C9
 003DF5 E34B7E                      2577        DC    C'T.='                                                     23620021
 003DF8 15                          2578        DC    FL1'21'                                                    23630021
 003DF9 E2E3C5D9D3C9D5C7            2579 TX2056 DC    C'STERLING NON-REP'                                        23640021
 003E01 40D5D6D560D9C5D7
 003E09 D6D9E340D7C9C3E3            2580        DC    C'ORT PICTURE - 9 '                                        23650021
 003E11 E4D9C5406040F940
 003E19 C9D540C9D3D3C5C7            2581        DC    C'IN ILLEGAL POSIT'                                        23660021
 003E21 C1D340D7D6E2C9E3
 003E29 C9D6D54B7E                  2582        DC    C'ION.='                                                   23670021
 003E2E 15                          2583        DC    FL1'21'                                                    23680021
 003E2F E2E3C5D9D3C9D5C7            2584 TX2057 DC    C'STERLING NON-REP'                                        23690021
 003E37 40D5D6D560D9C5D7
 003E3F D6D9E340D7C9C3E3            2585        DC    C'ORT PICTURE - SI'                                        23700021
 003E47 E4D9C5406040E2C9
 003E4F C7D540C9D540E2C8            2586        DC    C'GN IN SHILLING F'                                        23710021
 003E57 C9D3D3C9D5C740C6
 003E5F C9C5D3C440C9D3D3            2587        DC    C'IELD ILLEGAL.='                                          23720021
 003E67 C5C7C1D34B7E
1PH70     IKFCBL70                                                                                              PAGE   71
-  LOC  OBJECT CODE    ADDR1 ADDR2  STMT   SOURCE STATEMENT                                       ASM 0201 11.03 02/14/15
0003E6D 15                          2588        DC    FL1'21'                                                    23730021
 003E6E E2E3C5D9D3C9D5C7            2589 TX2058 DC    C'STERLING NON-REP'                                        23740021
 003E76 40D5D6D560D9C5D7
 003E7E D6D9E340D7C9C3E3            2590        DC    C'ORT PICTURE - 8 '                                        23750021
 003E86 E4D9C5406040F840
 003E8E C9D540C9D3D3C5C7            2591        DC    C'IN ILLEGAL POSIT'                                        23760021
 003E96 C1D340D7D6E2C9E3
 003E9E C9D6D54B7E                  2592        DC    C'ION.='                                                   23770021
 003EA3 15                          2593        DC    FL1'21'                                                    23780021
 003EA4 E2E3C5D9D3C9D5C7            2594 TX2059 DC    C'STERLING NON-REP'                                        23790021
 003EAC 40D5D6D560D9C5D7
 003EB4 D6D9E340D7C9C3E3            2595        DC    C'ORT PICTURE - SI'                                        23800021
 003EBC E4D9C5406040E2C9
 003EC4 C7D540C9D540D7C5            2596        DC    C'GN IN PENCE FIEL'                                        23810021
 003ECC D5C3C540C6C9C5D3
 003ED4 C440C9D3D3C5C7C1            2597        DC    C'D ILLEGAL.='                                             23820021
 003EDC D34B7E
 003EDF 15                          2598        DC    FL1'21'                                                    23830021
 003EE0 E2E3C5D9D3C9D5C7            2599 TX2060 DC    C'STERLING NON-REP'                                        23840021
 003EE8 40D5D6D560D9C5D7
 003EF0 D6D9E340D7C9C3E3            2600        DC    C'ORT PICTURE - 6 '                                        23850021
 003EF8 E4D9C5406040F640
 003F00 D6D940F740C9D540            2601        DC    C'OR 7 IN ILLEGAL '                                        23860021
 003F08 C9D3D3C5C7C1D340
 003F10 D7D6E2C9E3C9D6D5            2602        DC    C'POSITION.='                                              23870021
 003F18 4B7E
 003F1A 15                          2603        DC    FL1'21'                                                    23880021
 003F1B E2E3C5D9D3C9D5C7            2604 TX2061 DC    C'STERLING NON-REP'                                        23890021
 003F23 40D5D6D560D9C5D7
 003F2B D6D9E340D7C9C3E3            2605        DC    C'ORT PICTURE - US'                                        23900021
 003F33 E4D9C5406040E4E2
 003F3B C1C7C540D5D6E340            2606        DC    C'AGE NOT DISPLAY-'                                        23910021
 003F43 C4C9E2D7D3C1E860
 003F4B E2E34B7E                    2607        DC    C'ST.='                                                    23920021
 003F4F 16                          2608        DC    FL1'22'                                                    23930021
 003F50 E2E3C5D9D3C9D5C7            2609 TX2062 DC    C'STERLING NON-REP'                                        23940021
 003F58 40D5D6D560D9C5D7
 003F60 D6D9E340D7C9C3E3            2610        DC    C'ORT PICTURE - V '                                        23950021
 003F68 E4D9C5406040E540
 003F70 C9D540C9D3D3C5C7            2611        DC    C'IN ILLEGAL POSIT'                                        23960021
 003F78 C1D340D7D6E2C9E3
 003F80 C9D6D54B7E                  2612        DC    C'ION.='                                                   23970021
 003F85 15                          2613        DC    FL1'21'                                                    23980021
 003F86 E2E3C5D9D3C9D5C7            2614 TX2063 DC    C'STERLING NON-REP'                                        23990021
 003F8E 40D5D6D560D9C5D7
 003F96 D6D9E340D7C9C3E3            2615        DC    C'ORT PICTURE - S '                                        24000021
 003F9E E4D9C5406040E240
 003FA6 C9D540C9D3D3C5C7            2616        DC    C'IN ILLEGAL POSIT'                                        24010021
 003FAE C1D340D7D6E2C9E3
 003FB6 C9D6D54B7E                  2617        DC    C'ION.='                                                   24020021
 003FBB 15                          2618        DC    FL1'21'                                                    24030021
 003FC0                             2619 IKF706 CSECT                                                            24040021
 003FC0 E2E3C5D9D3C9D5C7            2620 TX2064 DC    C'STERLING NON-REP'                                        24050021
 003FC8 40D5D6D560D9C5D7
 003FD0 D6D9E340D7C9C3E3            2621        DC    C'ORT PICTURE - DI'                                        24060021
1PH70     IKFCBL70                                                                                              PAGE   72
-  LOC  OBJECT CODE    ADDR1 ADDR2  STMT   SOURCE STATEMENT                                       ASM 0201 11.03 02/14/15
0003FD8 E4D9C5406040C4C9
 003FE0 C7C9E340D3C5D5C7            2622        DC    C'GIT LENGTH GT 18'                                        24070021
 003FE8 E3C840C7E340F1F8
 003FF0 4B7E                        2623        DC    C'.='                                                      24080021
 003FF2 15                          2624        DC    FL1'21'                                                    24090021
 003FF3 E2E3C5D9D3C9D5C7            2625 TX2065 DC    C'STERLING NON-REP'                                        24100021
 003FFB 40D5D6D560D9C5D7
 004003 D6D9E340D7C9C3E3            2626        DC    C'ORT PICTURE - SH'                                        24110021
 00400B E4D9C5406040E2C8
 004013 C9D3D3C9D5C740C6            2627        DC    C'ILLING FIELD GT '                                        24120021
 00401B C9C5D3C440C7E340
 004023 F24B7E                      2628        DC    C'2.='                                                     24130021
 004026 15                          2629        DC    FL1'21'                                                    24140021
 004027 E2E3C5D9D3C9D5C7            2630 TX2066 DC    C'STERLING NON-REP'                                        24150021
 00402F 40D5D6D560D9C5D7
 004037 D6D9E340D7C9C3E3            2631        DC    C'ORT PICTURE - PE'                                        24160021
 00403F E4D9C5406040D7C5
 004047 D5C3C540C6C9C5D3            2632        DC    C'NCE FIELD GT 2.='                                        24170021
 00404F C440C7E340F24B7E
 004057 15                          2633        DC    FL1'21'                                                    24180021
 004058 E2E3C5D9D3C9D5C7            2634 TX2067 DC    C'STERLING NON-REP'                                        24190021
 004060 40D5D6D560D9C5D7
 004068 D6D9E340D7C9C3E3            2635        DC    C'ORT PICTURE - NO'                                        24200021
 004070 E4D9C5406040D5D6
 004078 40D7D6E4D5C440E2            2636        DC    C' POUND SEPARATOR'                                        24210021
 004080 C5D7C1D9C1E3D6D9
 004088 4B7E                        2637        DC    C'.='                                                      24220021
 00408A 15                          2638        DC    FL1'21'                                                    24230021
 00408B D6D5D3E840E3C8C5            2639 TX2068   DC    C'ONLY THE RENAMES '                                     24240021
 004093 40D9C5D5C1D4C5E2
 00409B 40
 00409C C3D3C1E4E2C540D4            2640          DC    C'CLAUSE MAY BE S'                                       24250021
 0040A4 C1E840C2C540E2
 0040AB D7C5C3C9C6C9C5C4            2641          DC    C'PECIFIED FOR A L'                                      24260021
 0040B3 40C6D6D940C140D3
 0040BB C5E5C5D340F6F640            2642          DC    C'EVEL 66 ENTRY.='                                       24270021
 0040C3 C5D5E3D9E84B7E
 0040CA 13                          2643          DC    FL1'19'                                                  24280021
 0040CB D5E4D4C5D9C9C340            2644 TX2069 DC    C'NUMERIC PICTURE '                                        24290021
 0040D3 D7C9C3E3E4D9C540
 0040DB 6040E2C9C7D540C9            2645        DC    C'- SIGN IN ILLEGA'                                        24300021
 0040E3 D540C9D3D3C5C7C1
 0040EB D340D7D6E2C9E3C9            2646        DC    C'L POSITION.='                                            24310021
 0040F3 D6D54B7E
 0040F7 16                          2647        DC    FL1'22'                                                    24320021
 0040F8 D5E4D4C5D9C9C340            2648 TX2070 DC    C'NUMERIC PICTURE '                                        24330021
 004100 D7C9C3E3E4D9C540
 004108 6040D740C9D540C9            2649        DC    C'- P IN ILLEGAL P'                                        24340021
 004110 D3D3C5C7C1D340D7
 004118 D6E2C9E3C9D6D54B            2650        DC    C'OSITION.='                                               24350021
 004120 7E
 004121 16                          2651        DC    FL1'22'                                                    24360021
 004122 D5E4D4C5D9C9C340            2652 TX2071 DC    C'NUMERIC PICTURE '                                        24370021
 00412A D7C9C3E3E4D9C540
 004132 6040E540C9D540C9            2653        DC    C'- V IN ILLEGAL P'                                        24380021
1PH70     IKFCBL70                                                                                              PAGE   73
-  LOC  OBJECT CODE    ADDR1 ADDR2  STMT   SOURCE STATEMENT                                       ASM 0201 11.03 02/14/15
000413A D3D3C5C7C1D340D7
 004142 D6E2C9E3C9D6D54B            2654        DC    C'OSITION.='                                               24390021
 00414A 7E
 00414B 16                          2655        DC    FL1'22'                                                    24400021
 00414C D5E4D4C5D9C9C340            2656 TX2072 DC    C'NUMERIC PICTURE '                                        24410021
 004154 D7C9C3E3E4D9C540
 00415C 6040D5D640F940C9            2657        DC    C'- NO 9 IN PICTUR'                                        24420021
 004164 D540D7C9C3E3E4D9
 00416C C54B7E                      2658        DC    C'E.='                                                     24430021
 00416F 16                          2659        DC    FL1'22'                                                    24440021
 004170 D5E4D4C5D9C9C340            2660 TX2073 DC    C'NUMERIC PICTURE '                                        24450021
 004178 D7C9C3E3E4D9C540
 004180 6040D740C5D5C3D3            2661        DC    C'- P ENCLOSED BY '                                        24460021
 004188 D6E2C5C440C2E840
 004190 F97DE24B7E                  2662        DC    C'9''S.='                                                  24470021
 004195 16                          2663        DC    FL1'22'                                                    24480021
 004196 7E                          2664 TX2074   DC    C'='                                                     24490021
 004197 10                          2665          DC    FL1'16'                                                  24500021
 004198 D5E4D4C5D9C9C340            2666 TX2075 DC    C'NUMERIC PICTURE '                                        24510021
 0041A0 D7C9C3E3E4D9C540
 0041A8 6040C4C9C7C9E340            2667        DC    C'- DIGIT LENGTH G'                                        24520021
 0041B0 D3C5D5C7E3C840C7
 0041B8 E340F1F84B7E                2668        DC    C'T 18.='                                                  24530021
 0041BE 16                          2669        DC    FL1'22'                                                    24540021
 0041BF D5E4D4C5D9C9C340            2670 TX2076   DC    C'NUMERIC PICTURE '                                      24550021
 0041C7 D7C9C3E3E4D9C540
 0041CF 6040C4C9C7C9E340            2671          DC    C'- DIGIT LENGTH +'                                      24560021
 0041D7 D3C5D5C7E3C8404E
 0041DF 40E2C9C7D540E2C3            2672          DC    C' SIGN SCALE GT 1'                                      24570021
 0041E7 C1D3C540C7E340F1
 0041EF F84B7E                      2673          DC    C'8.='                                                   24580021
 0041F2 16                          2674          DC    FL1'22'                                                  24590021
 0041F3 C5E7E3C5D9D5C1D3            2675 TX2077 DC    C'EXTERNAL FLOATIN'                                        24600021
 0041FB 40C6D3D6C1E3C9D5
 004203 C760D7D6C9D5E340            2676        DC    C'G-POINT PICTURE '                                        24610021
 00420B D7C9C3E3E4D9C540
 004213 6040E4E2C1C7C540            2677        DC    C'- USAGE NOT DISP'                                        24620021
 00421B D5D6E340C4C9E2D7
 004223 D3C1E84B7E                  2678        DC    C'LAY.='                                                   24630021
 004228 2D                          2679        DC    FL1'45'                                                    24640021
 004229 C5E7E3C5D9D5C1D3            2680 TX2078 DC    C'EXTERNAL FLOATIN'                                        24650021
 004231 40C6D3D6C1E3C9D5
 004239 C760D7D6C9D5E340            2681        DC    C'G-POINT PICTURE '                                        24660021
 004241 D7C9C3E3E4D9C540
 004249 6040D4D6D9C540E3            2682          DC    C'- MORE THAN 1 SIGN. '                                  24670021
 004251 C8C1D540F140E2C9
 004259 C7D54B40
 00425D C3C8C1D5C7C5C440            2683          DC    C'CHANGED TO'                                            24680021
 004265 E3D6
 004267 40F161                      2684        DC    C' 1/'                                                     24690021
 00426A C5E7E3C5D9D5C1D3            2685 TX2079 DC    C'EXTERNAL FLOATIN'                                        24700021
 004272 40C6D3D6C1E3C9D5
 00427A C760D7D6C9D5E340            2686        DC    C'G-POINT PICTURE '                                        24710021
 004282 D7C9C3E3E4D9C540
 00428A 6040E2C9C7D540C9            2687        DC    C'- SIGN IN ILLEGA'                                        24720021
1PH70     IKFCBL70                                                                                              PAGE   74
-  LOC  OBJECT CODE    ADDR1 ADDR2  STMT   SOURCE STATEMENT                                       ASM 0201 11.03 02/14/15
0004292 D540C9D3D3C5C7C1
 00429A D340D7D6E2C9E3C9            2688        DC    C'L POSITION.='                                            24730021
 0042A2 D6D54B7E
 0042A6 17                          2689        DC    FL1'23'                                                    24740021
 0042A7 C5E7E3C5D9D5C1D3            2690 TX2080 DC    C'EXTERNAL FLOATIN'                                        24750021
 0042AF 40C6D3D6C1E3C9D5
 0042B7 C760D7D6C9D5E340            2691        DC    C'G-POINT PICTURE '                                        24760021
 0042BF D7C9C3E3E4D9C540
 0042C7 6040E2C9C7D540D4            2692        DC    C'- SIGN MISSING. '                                        24770021
 0042CF C9E2E2C9D5C74B40
 0042D7 C1E2E2E4D4C540D4            2693        DC    C'ASSUME MINUS SIG'                                        24780021
 0042DF C9D5E4E240E2C9C7
 0042E7 D561                        2694        DC    C'N/'                                                      24790021
 0042E9 C5E7E3C5D9D5C1D3            2695 TX2081 DC    C'EXTERNAL FLOATIN'                                        24800021
 0042F1 40C6D3D6C1E3C9D5
 0042F9 C760D7D6C9D5E340            2696        DC    C'G-POINT PICTURE '                                        24810021
 004301 D7C9C3E3E4D9C540
 004309 6040D9C5D8E4C9D9            2697        DC    C'- REQUIRED CHARA'                                        24820021
 004311 C5C440C3C8C1D9C1
 004319 C3E3C5D940C2C5C6            2698        DC    C'CTER BEFORE EXPO'                                        24830021
 004321 D6D9C540C5E7D7D6
 004329 D5C5D5E340D4C9E2            2699        DC    C'NENT MISSING.='                                          24840021
 004331 E2C9D5C74B7E
 004337 17                          2700        DC    FL1'23'                                                    24850021
 004338 C5E7E3C5D9D5C1D3            2701 TX2082 DC    C'EXTERNAL FLOATIN'                                        24860021
 004340 40C6D3D6C1E3C9D5
 004348 C760D7D6C9D5E340            2702        DC    C'G-POINT PICTURE '                                        24870021
 004350 D7C9C3E3E4D9C540
 004358 6040D5D640C4C5C3            2703        DC    C'- NO DECIMAL-POI'                                        24880021
 004360 C9D4C1D360D7D6C9
 004368 D5E340C9D540D4C1            2704        DC    C'NT IN MANTISSA. '                                        24890021
 004370 D5E3C9E2E2C14B40
 004378 C1E2E2E4D4C540C9            2705        DC    C'ASSUME IMPLIED V'                                        24900021
 004380 D4D7D3C9C5C440E5
 004388 61                          2706        DC    C'/'                                                       24910021
 004389 C5E7E3C5D9D5C1D3            2707 TX2083 DC    C'EXTERNAL FLOATIN'                                        24920021
 004391 40C6D3D6C1E3C9D5
 004399 C760D7D6C9D5E340            2708        DC    C'G-POINT PICTURE '                                        24930021
 0043A1 D7C9C3E3E4D9C540
 0043A9 6040D4C1D5E3C9E2            2709        DC    C'- MANTISSA LENGT'                                        24940021
 0043B1 E2C140D3C5D5C7E3
 0043B9 C840C7E340F1F64B            2710        DC    C'H GT 16.='                                               24950021
 0043C1 7E
 0043C2 17                          2711        DC    FL1'23'                                                    24960021
 0043C3 C5E7E3C5D9D5C1D3            2712 TX2084 DC    C'EXTERNAL FLOATIN'                                        24970021
 0043CB 40C6D3D6C1E3C9D5
 0043D3 C760D7D6C9D5E340            2713        DC    C'G-POINT PICTURE '                                        24980021
 0043DB D7C9C3E3E4D9C540
 0043E3 6040E3D6E3C1D340            2714        DC    C'- TOTAL LENGTH G'                                        24990021
 0043EB D3C5D5C7E3C840C7
 0043F3 E340F2F14B7E                2715        DC    C'T 21.='                                                  25000021
 0043F9 17                          2716        DC    FL1'23'                                                    25010021
 0043FA C5E7E3C5D9D5C1D3            2717 TX2085 DC    C'EXTERNAL FLOATIN'                                        25020021
 004402 40C6D3D6C1E3C9D5
 00440A C760D7D6C9D5E340            2718        DC    C'G-POINT PICTURE '                                        25030021
1PH70     IKFCBL70                                                                                              PAGE   75
-  LOC  OBJECT CODE    ADDR1 ADDR2  STMT   SOURCE STATEMENT                                       ASM 0201 11.03 02/14/15
0004412 D7C9C3E3E4D9C540
 00441A 6040C5E7D7D6D5C5            2719        DC    C'- EXPONENT LENGT'                                        25040021
 004422 D5E340D3C5D5C7E3
 00442A C840D5D6E340F240            2720        DC    C'H NOT 2 DIGITS. '                                        25050021
 004432 C4C9C7C9E3E24B40
 00443A C1E2E2E4D4C540F2            2721        DC    C'ASSUME 2 DIGITS/'                                        25060021
 004442 40C4C9C7C9E3E261
 00444A D5E4D4C5D9C9C340            2722 TX2086   DC    C'NUMERIC EDITED P'                                      25070021
 004452 C5C4C9E3C5C440D7
 00445A C9C3E3E4D9C54060            2723          DC    C'ICTURE -'                                              25080021
 004462 40E3E6D640C6C9E7            2724        DC    C' TWO FIXED DOLLA'                                        25090021
 00446A C5C440C4D6D3D3C1
 004472 D940E2C9C7D5E26B            2725        DC    C'R SIGNS, +, - OR'                                        25100021
 00447A 404E6B406040D6D9
 004482 40C6C9E7C5C440C1            2726        DC    C' FIXED AND FLOAT'                                        25110021
 00448A D5C440C6D3D6C1E3
 004492 C9D5C740C4D6D3D3            2727        DC    C'ING DOLLAR SIGN.'                                        25120021
 00449A C1D940E2C9C7D54B
 0044A2 7E                          2728        DC    C'='                                                       25130021
 0044A3 16                          2729        DC    FL1'22'                                                    25140021
 0044A4 E3D6E3C1D3C9D5C7            2730 TX2087   DC    C'TOTALING AREA SIZE GREATER THAN '       *X 2ND REL     25150021
 0044AC 40C1D9C5C140E2C9
 0044B4 E9C540C7D9C5C1E3
 0044BC C5D940E3C8C1D540
 0044C4 F4F0F9F540C2E8E3            2731          DC    C'4095 BYTES. 4095 BYTES USED/'                          25160021
 0044CC C5E24B40F4F0F9F5
 0044D4 40C2E8E3C5E240E4
 0044DC E2C5C461
 0044E0 D9C5C3D6D9C440C3            2732 TX2088   DC    C'RECORD CONTAINS '                                      25170021
 0044E8 D6D5E3C1C9D5E240
 0044F0 F040C3C8C1D9C1C3            2733          DC    C'0 CHARACTERS OPT'                                      25180021
 0044F8 E3C5D9E240D6D7E3
 004500 C9D6D540C9C7D5D6            2734          DC    C'ION IGNORED FOR '                                      25190021
 004508 D9C5C440C6D6D940
 004510 C2C1E2C9C340C6C9            2735          DC    C'BASIC FILE/'                                           25200021
 004518 D3C561
 00451B D5E4D4C5D9C9C340            2736 TX2089   DC    C'NUMERIC EDITED P'                                      25210021
 004523 C5C4C9E3C5C440D7
 00452B C9C3E3E4D9C54060            2737          DC    C'ICTURE -'                                              25220021
 004533 40F96B40E940D6D9            2738        DC    C' 9, Z OR * PRECE'                                        25230021
 00453B 405C40D7D9C5C3C5
 004543 C4C5E240C6D3D6C1            2739        DC    C'DES FLOATING STR'                                        25240021
 00454B E3C9D5C740E2E3D9
 004553 C9D5C74B7E                  2740        DC    C'ING.='                                                   25250021
 004558 16                          2741        DC    FL1'22'                                                    25260021
 004559 D5E4D4C5D9C9C340            2742 TX2090   DC    C'NUMERIC EDITED P'                                      25270021
 004561 C5C4C9E3C5C440D7
 004569 C9C3E3E4D9C54060            2743          DC    C'ICTURE -'                                              25280021
 004571 40D740C9D540C9D3            2744        DC    C' P IN ILLEGAL PO'                                        25290021
 004579 D3C5C7C1D340D7D6
 004581 E2C9E3C9D6D54B7E            2745        DC    C'SITION.='                                                25300021
 004589 16                          2746        DC    FL1'22'                                                    25310021
 00458A D5E4D4C5D9C9C340            2747 TX2091   DC    C'NUMERIC EDITED P'                                      25320021
 004592 C5C4C9E3C5C440D7
 00459A C9C3E3E4D9C54060            2748          DC    C'ICTURE -'                                              25330021
1PH70     IKFCBL70                                                                                              PAGE   76
-  LOC  OBJECT CODE    ADDR1 ADDR2  STMT   SOURCE STATEMENT                                       ASM 0201 11.03 02/14/15
00045A2 40E3E6D640C4C9C6            2749        DC    C' TWO DIFFERENT F'                                        25340021
 0045AA C6C5D9C5D5E340C6
 0045B2 D3D6C1E3C9D5C740            2750        DC    C'LOATING STRING C'                                        25350021
 0045BA E2E3D9C9D5C740C3
 0045C2 C8C1D9C1C3E3C5D9            2751        DC    C'HARACTERS.='                                             25360021
 0045CA E24B7E
 0045CD 16                          2752        DC    FL1'22'                                                    25370021
 0045CE D5E4D4C5D9C9C340            2753 TX2092   DC    C'NUMERIC EDITED P'                                      25380021
 0045D6 C5C4C9E3C5C440D7
 0045DE C9C3E3E4D9C54060            2754          DC    C'ICTURE -'                                              25390021
 0045E6 40E940C1D5C4405C            2755        DC    C' Z AND * IN PICT'                                        25400021
 0045EE 40C9D540D7C9C3E3
 0045F6 E4D9C54B7E                  2756        DC    C'URE.='                                                   25410021
 0045FB 16                          2757        DC    FL1'22'                                                    25420021
 0045FC D5E4D4C5D9C9C340            2758 TX2093   DC    C'NUMERIC EDITED P'                                      25430021
 004604 C5C4C9E3C5C440D7
 00460C C9C3E3E4D9C54060            2759          DC    C'ICTURE -'                                              25440021
 004614 40F940D7D9C5C3C5            2760        DC    C' 9 PRECEDES * OR'                                        25450021
 00461C C4C5E2405C40D6D9
 004624 40E94B7E                    2761        DC    C' Z.='                                                    25460021
 004628 16                          2762        DC    FL1'22'                                                    25470021
 004629 D5E4D4C5D9C9C340            2763 TX2094   DC    C'NUMERIC EDITED P'                                      25480021
 004631 C5C4C9E3C5C440D7
 004639 C9C3E3E4D9C54060            2764          DC    C'ICTURE -'                                              25490021
 004641 40C6D3D6C1E3C9D5            2765        DC    C' FLOATING STRING'                                        25500021
 004649 C740E2E3D9C9D5C7
 004651 40D7D9C5C3C5C4C5            2766        DC    C' PRECEDES * OR Z'                                        25510021
 004659 E2405C40D6D940E9
 004661 4B7E                        2767        DC    C'.='                                                      25520021
 004663 16                          2768        DC    FL1'22'                                                    25530021
 004664 D5E4D4C2C5D940D6            2769 TX2095 DC    C'NUMBER OF CHARAC'                                        25540021
 00466C C640C3C8C1D9C1C3
 004674 E3C5D9E240C9D540            2770        DC    C'TERS IN BLOCK CO'                                        25550021
 00467C C2D3D6C3D240C3D6
 004684 D5E3C1C9D5E240C3            2771        DC    C'NTAINS CLAUSE ON'                                        25560021
 00468C D3C1E4E2C540D6D5
 004694 40C6D6D9D4C1E340            2772        DC    C' FORMAT F FILE N'                                        25570021
 00469C C640C6C9D3C540D5
 0046A4 D6E340D4E4D3E3C9            2773        DC    C'OT MULTIPLE OF R'                                        25580021
 0046AC D7D3C540D6C640D9
 0046B4 C5C3D6D9C440D3C5            2774        DC    C'ECORD LENGTH. AS'                                        25590021
 0046BC D5C7E3C84B40C1E2
 0046C4 E2E4D4C9D5C740C2            2775        DC    C'SUMING BLOCK SIZ'                                        25600021
 0046CC D3D6C3D240E2C9E9
 0046D4 C540E3D640C2C540            2776        DC    C'E TO BE CLOSEST '                                        25610021
 0046DC C3D3D6E2C5E2E340
 0046E4 D4E4D3E3C9D7D3C5            2777        DC    C'MULTIPLE/'                                               25620021
 0046EC 61
 0046ED C4C5C3C9D4C1D340            2778 TX2096   DC    C'DECIMAL POINT MAY ONLY APPEAR '                        25630021
 0046F5 D7D6C9D5E340D4C1
 0046FD E840D6D5D3E840C1
 004705 D7D7C5C1D940
 00470B D6D5C3C540C9D540            2779          DC    C'ONCE IN A PICTURE CHARACTER STRING.='                  25640021
 004713 C140D7C9C3E3E4D9
 00471B C540C3C8C1D9C1C3
1PH70     IKFCBL70                                                                                              PAGE   77
-  LOC  OBJECT CODE    ADDR1 ADDR2  STMT   SOURCE STATEMENT                                       ASM 0201 11.03 02/14/15
0004723 E3C5D940E2E3D9C9
 00472B D5C74B7E
 00472F 16                          2780        DC    FL1'22'                                                    25650021
 004730 D5E4D4C5D9C9C340            2781 TX2097   DC    C'NUMERIC EDITED P'                                      25660021
 004738 C5C4C9E3C5C440D7
 004740 C9C3E3E4D9C54060            2782          DC    C'ICTURE -'                                              25670021
 004748 40C4C5C3C9D4C1D3            2783        DC    C' DECIMAL POINT O'                                        25680021
 004750 40D7D6C9D5E340D6
 004758 D940E540C3D6D5E3            2784        DC    C'R V CONTRADICTOR'                                        25690021
 004760 D9C1C4C9C3E3D6D9
 004768 E840E3D640D74B7E            2785        DC    C'Y TO P.='                                                25700021
 004770 16                          2786        DC    FL1'22'                                                    25710021
 004771 C9D5C4C5E7C5C440            2787 TX2098   DC    C'INDEXED BY AND-O'                                      25720021
 004779 C2E840C1D5C460D6
 004781 D940D2C5E840C3D3            2788          DC    C'R KEY CLAUSE IS '                                      25730021
 004789 C1E4E2C540C9E240
 004791 C9D3D3C5C7C1D340            2789          DC    C'ILLEGAL FOR ITEM'                                      25740021
 004799 C6D6D940C9E3C5D4
 0047A1 40E2E4C2D6D9C4C9            2790          DC    C' SUBORDINATE TO '                                      25750021
 0047A9 D5C1E3C540E3D640
 0047B1 C7D9D6E4D740E3C8            2791          DC    C'GROUP THAT HAS O'                                      25760021
 0047B9 C1E340C8C1E240D6
 0047C1 C3C3E4D9E240C2E4            2792          DC    C'CCURS BUT NO IND'                                      25770021
 0047C9 E340D5D640C9D5C4
 0047D1 C5E7C5C440C2E840            2793          DC    C'EXED BY CLAUSE.='                                      25780021
 0047D9 C3D3C1E4E2C54B7E
 0047E1 13                          2794          DC    FL1'19'                                                  25790021
 0047E2 D5E4D4C5D9C9C340            2795 TX2099   DC    C'NUMERIC EDITED P'                                      25800021
 0047EA C5C4C9E3C5C440D7
 0047F2 C9C3E3E4D9C54060            2796          DC    C'ICTURE -'                                              25810021
 0047FA 40C3D940D6D940C4            2797        DC    C' CR OR DB AND SI'                                        25820021
 004802 C240C1D5C440E2C9
 00480A C7D540C2D6E3C840            2798        DC    C'GN BOTH USED.='                                          25830021
 004812 E4E2C5C44B7E
 004818 16                          2799        DC    FL1'22'                                                    25840021
 004819 D5E4D4C5D9C9C340            2800 TX2100   DC    C'NUMERIC EDITED P'                                      25850021
 004821 C5C4C9E3C5C440D7
 004829 C9C3E3E4D9C54060            2801          DC    C'ICTURE -'                                              25860021
 004831 40C3D940D6D940C4            2802        DC    C' CR OR DB NOT LA'                                        25870021
 004839 C240D5D6E340D3C1
 004841 E2E340E3E6D640C3            2803        DC    C'ST TWO CHARACTER'                                        25880021
 004849 C8C1D9C1C3E3C5D9
 004851 E240C9D540D7C9C3            2804        DC    C'S IN PICTURE.='                                          25890021
 004859 E3E4D9C54B7E
 00485F 16                          2805        DC    FL1'22'                                                    25900021
 004860 D5E4D4C5D9C9C340            2806 TX2101   DC    C'NUMERIC EDITED P'                                      25910021
 004868 C5C4C9E3C5C440D7
 004870 C9C3E3E4D9C54060            2807          DC    C'ICTURE -'                                              25920021
 004878 40E2C9C7D540C9E2            2808        DC    C' SIGN IS NOT FIR'                                        25930021
 004880 40D5D6E340C6C9D9
 004888 E2E340D6D940D3C1            2809        DC    C'ST OR LAST CHARA'                                        25940021
 004890 E2E340C3C8C1D9C1
 004898 C3E3C5D940C9D540            2810        DC    C'CTER IN PICTURE.'                                        25950021
 0048A0 D7C9C3E3E4D9C54B
 0048A8 7E                          2811        DC    C'='                                                       25960021
1PH70     IKFCBL70                                                                                              PAGE   78
-  LOC  OBJECT CODE    ADDR1 ADDR2  STMT   SOURCE STATEMENT                                       ASM 0201 11.03 02/14/15
00048A9 16                          2812        DC    FL1'22'                                                    25970021
 0048AA D5E4D4C5D9C9C340            2813 TX2102   DC    C'NUMERIC EDITED P'                                      25980021
 0048B2 C5C4C9E3C5C440D7
 0048BA C9C3E3E4D9C54060            2814          DC    C'ICTURE -'                                              25990021
 0048C2 40D5E4D4C5D9C9C3            2815        DC    C' NUMERIC CHARACT'                                        26000021
 0048CA 40C3C8C1D9C1C3E3
 0048D2 C5D9E240C1C6E3C5            2816        DC    C'ERS AFTER DECIMA'                                        26010021
 0048DA D940C4C5C3C9D4C1
 0048E2 D340D7D6C9D5E340            2817        DC    C'L POINT ARE NOT '                                        26020021
 0048EA C1D9C540D5D6E340
 0048F2 E3C8C540E2C1D4C5            2818        DC    C'THE SAME.='                                              26030021
 0048FA 4B7E
 0048FC 16                          2819        DC    FL1'22'                                                    26040021
 0048FD D5E4D4C5D9C9C340            2820 TX2103   DC    C'NUMERIC EDITED P'                                      26050021
 004905 C5C4C9E3C5C440D7
 00490D C9C3E3E4D9C54060            2821          DC    C'ICTURE -'                                              26060021
 004915 40E3D6E3C1D340D3            2822        DC    C' TOTAL LENGTH GT'                                        26070021
 00491D C5D5C7E3C840C7E3
 004925 40F1F2F74B7E                2823        DC    C' 127.='                                                  26080021
 00492B 16                          2824        DC    FL1'22'                                                    26090021
 00492C D5E4D4C5D9C9C340            2825 TX2104   DC    C'NUMERIC EDITED P'                                      26100021
 004934 C5C4C9E3C5C440D7
 00493C C9C3E3E4D9C54060            2826          DC    C'ICTURE -'                                              26110021
 004944 40D5E4D4C5D9C9C3            2827        DC    C' NUMERIC LENGTH '                                        26120021
 00494C 40D3C5D5C7E3C840
 004954 C7E340F1F84B7E              2828        DC    C'GT 18.='                                                 26130021
 00495B 16                          2829        DC    FL1'22'                                                    26140021
 00495C D6D5D3E840D6D5C5            2830 TX2105   DC    C'ONLY ONE KEY MAY'                                      26150021
 004964 40D2C5E840D4C1E8
 00496C 40                          2831          DC    C' '                                                     26160021
 00496D C2C540E2D7C5C3C9            2832          DC    C'BE SPECIFIED IF'                                       26170021
 004975 C6C9C5C440C9C6
 00497C 40E3C8C540E2E4C2            2833          DC    C' THE SUBJECT OF '                                      26180021
 004984 D1C5C3E340D6C640
 00498C E3C1C2D3C540C9E2            2834          DC    C'TABLE IS A KEY. '                                      26190021
 004994 40C140D2C5E84B40
 00499C D9C5E2E340D6C640            2835          DC    C'REST OF KEYS DIS'                                      26200021
 0049A4 D2C5E8E240C4C9E2
 0049AC C3C1D9C4C5C461              2836          DC    C'CARDED/'                                               26210021
 0049B3 E3C8C540D9C5D5C1            2837 TX2106   DC    C'THE RENAMES CLAU'                                      26220021
 0049BB D4C5E240C3D3C1E4
 0049C3 E2C540D4E4E2E340            2838          DC    C'SE MUST BE THE L'                                      26230021
 0049CB C2C540E3C8C540D3
 0049D3 C1E2E340C5D5E3D9            2839          DC    C'AST ENTRY IN A L'                                      26240021
 0049DB E840C9D540C140D3
 0049E3 D6C7C9C3C1D340D9            2840          DC    C'OGICAL RECORD.='                                       26250021
 0049EB C5C3D6D9C44B7E
 0049F2 22                          2841          DC    FL1'34'                                                  26260021
 0049F3 D5E4D4C5D9C9C340            2842 TX2107   DC    C'NUMERIC EDITED P'                                      26270021
 0049FB C5C4C9E3C5C440D7
 004A03 C9C3E3E4D9C54060            2843          DC    C'ICTURE -'                                              26280021
 004A0B 40E4E2C1C7C540D5            2844          DC    C' USAGE NOT DISPL'                                      26290021
 004A13 D6E340C4C9E2D7D3
 004A1B C1E84B7E                    2845          DC    C'AY.='                                                  26300021
 004A1F 2D                          2846          DC    FL1'45'                                                  26310021
1PH70     IKFCBL70                                                                                              PAGE   79
-  LOC  OBJECT CODE    ADDR1 ADDR2  STMT   SOURCE STATEMENT                                       ASM 0201 11.03 02/14/15
0004A20 D2C5E8E240C9C7D5            2847 TX2108   DC    C'KEYS IGNORED FOR'                                      26320021
 004A28 D6D9C5C440C6D6D9
 004A30 40C9E3C5D440E6C9            2848          DC    C' ITEM WITH NO IN'                                      26330021
 004A38 E3C840D5D640C9D5
 004A40 C4C5E7C5C440C2E8            2849          DC    C'DEXED BY CLAUSE/'                                      26340021
 004A48 40C3D3C1E4E2C561
 004A50 E3D9C1C3D260C1D9            2850 TX2109 DC    C'TRACK-AREA INTEG'                                        26350021
 004A58 C5C140C9D5E3C5C7
 004A60 C5D940D5D6E340D4            2851        DC    C'ER NOT MULTIPLE '                                        26360021
 004A68 E4D3E3C9D7D3C540
 004A70 D6C640F84B40D9D6            2852        DC    C'OF 8. ROUNDED DO'                                        26370021
 004A78 E4D5C4C5C440C4D6
 004A80 E6D540E3D640D4E4            2853        DC    C'WN TO MULTIPLE O'                                        26380021
 004A88 D3E3C9D7D3C540D6
 004A90 C640F861                    2854        DC    C'F 8/'                                                    26390021
 004A94 C1D7D7D3E840E6D9            2855 TX2110 DC    C'APPLY WRITE-ONLY'                                        26400021
 004A9C C9E3C560D6D5D3E8
 004AA4 40C3D3C1E4E2C540            2856        DC    C' CLAUSE ILLEGALL'                                        26410021
 004AAC C9D3D3C5C7C1D3D3
 004AB4 E840E4E2C5C44B7E            2857        DC    C'Y USED.='                                                26420021
 004ABC 02                          2858        DC    FL1'2'                                                     26430021
 004ABD E3D6E3C1D3C9D5C7            2859 TX2111   DC    C'TOTALING AREA SIZE VARIABLE. '                         26440021
 004AC5 40C1D9C5C140E2C9
 004ACD E9C540E5C1D9C9C1
 004AD5 C2D3C54B40
 004ADA D4C1E7C9D4E4D440            2860          DC    C'MAXIMUM SIZE ASSUMED/'                  *X 2ND REL     26450021
 004AE2 E2C9E9C540C1E2E2
 004AEA E4D4C5C461
 004AEF 5BC9D540D2C5E840            2861 TX2112   DC    C'$IN KEY CLAUSE N'                                      26460021
 004AF7 C3D3C1E4E2C540D5
 004AFF D6E340C4C5C6C9D5            2862          DC    C'OT DEFINED/'                                           26470021
 004B07 C5C461
 004B0A C9E3C5D440E6C9E3            2863 TX2113 DC    C'ITEM WITH USAGE '                                        26480021
 004B12 C840E4E2C1C7C540
 004B1A D6C640C3D6D4D7E4            2864        DC    C'OF COMPUTATIONAL'                                        26490021
 004B22 E3C1E3C9D6D5C1D3
 004B2A 60F140D6D940C3D6            2865        DC    C'-1 OR COMPUTATIO'                                        26500021
 004B32 D4D7E4E3C1E3C9D6
 004B3A D5C1D360F240C8C1            2866        DC    C'NAL-2 HAS PICTUR'                                        26510021
 004B42 E240D7C9C3E3E4D9
 004B4A C540C3D3C1E4E2C5            2867        DC    C'E CLAUSE.='                                              26520021
 004B52 4B7E
 004B54 13                          2868        DC    FL1'19'                                                    26530021
 004B55 D6D5D3E840E3C8C5            2869 TX2114   DC    C'ONLY THE SYNCHRO'                                      26540021
 004B5D 40E2E8D5C3C8D9D6
 004B65 D5C9E9C5C440C3D3            2870          DC    C'NIZED CLAUSE IS '                                      26550021
 004B6D C1E4E2C540C9E240
 004B75 C1D3D3D6E6C5C440            2871          DC    C'ALLOWED FOR A US'                                      26560021
 004B7D C6D6D940C140E4E2
 004B85 C1C7C540C9E240C9            2872          DC    C'AGE IS INDEX ITE'                                      26570021
 004B8D D5C4C5E740C9E3C5
 004B95 D44B7E                      2873          DC    C'M.='                                                   26580021
 004B98 13                          2874          DC    FL1'19'                                                  26590021
 004B99 C9E3C5D440E2C9E9            2875 TX2115   DC    C'ITEM SIZE '                                            26600021
 004BA1 C540
1PH70     IKFCBL70                                                                                              PAGE   80
-  LOC  OBJECT CODE    ADDR1 ADDR2  STMT   SOURCE STATEMENT                                       ASM 0201 11.03 02/14/15
0004BA3 C9E240C7E3                  2876        DC    C'IS GT'                                                   26610021
 004BA8 40F3F2D261                  2877        DC    C' 32K/'                                                   26620021
 004BAD C6C9E7C5C440D3C5            2878 TX2116 DC    C'FIXED LENGTH GRO'                                        26630021
 004BB5 D5C7E3C840C7D9D6
 004BBD E4D740C9E3C5D440            2879        DC    C'UP ITEM IN WORKI'                                        26640021
 004BC5 C9D540E6D6D9D2C9
 004BCD D5C760E2E3D6D9C1            2880          DC    C'NG-STORAGE OR LINKAGE '                                26650021
 004BD5 C7C540D6D940D3C9
 004BDD D5D2C1C7C540
 004BE3 E2C5C3E3C9D6D540            2881        DC    C'SECTION IS GT 13'                                        26660021
 004BEB C9E240C7E340F1F3
 004BF3 F1D261                      2882        DC    C'1K/'                                                     26670021
 004BF6 C9D5E5C1D3C9C440            2883 TX2117   DC    C'INVALID REPORT C'                                      26680021
 004BFE D9C5D7D6D9E340C3
 004C06 C8C1D9C1C3E3C5D9            2884          DC    C'HARACTER.='                                            26690021
 004C0E 4B7E
 004C10 2D                          2885          DC    FL1'45'                                                  26700021
 004C11 D3C5D5C7E3C840D6            2886 TX2118 DC    C'LENGTH OF REDEFI'                                        26710021
 004C19 C640D9C5C4C5C6C9
 004C21 D5C5E240E2E4C2D1            2887        DC    C'NES SUBJECT GREA'                                        26720021
 004C29 C5C3E340C7D9C5C1
 004C31 E3C5D940E3C8C1D5            2888        DC    C'TER THAN LENGTH '                                        26730021
 004C39 40D3C5D5C7E3C840
 004C41 D6C640D9C5C4C5C6            2889        DC    C'OF REDEFINES OBJ'                                        26740021
 004C49 C9D5C5E240D6C2D1
 004C51 C5C3E34B40E2E4C2            2890        DC    C'ECT. SUBJECT LEN'                                        26750021
 004C59 D1C5C3E340D3C5D5
 004C61 C7E3C840E4E2C5C4            2891        DC    C'GTH USED/'                                               26760021
 004C69 61
 004C6A E5C1D3E4C540C3D3            2892 TX2119 DC    C'VALUE CLAUSE SPE'                                        26770021
 004C72 C1E4E2C540E2D7C5
 004C7A C3C9C6C9C5C440C6            2893        DC    C'CIFIED FOR AN IT'                                        26780021
 004C82 D6D940C1D540C9E3
 004C8A C5D440C9D540C140            2894        DC    C'EM IN A REDEFINE'                                        26790021
 004C92 D9C5C4C5C6C9D5C5
 004C9A E240C7D9D6E4D74B            2895        DC    C'S GROUP.='                                               26800021
 004CA2 7E
 004CA3 13                          2896        DC    FL1'19'                                                    26810021
 004CA4 D6C2D1C5C3E340D6            2897 TX2120 DC    C'OBJECT OF REDEFI'                                        26820021
 004CAC C640D9C5C4C5C6C9
 004CB4 D5C5E240C3D3C1E4            2898        DC    C'NES CLAUSE UNDEF'                                        26830021
 004CBC E2C540E4D5C4C5C6
 004CC4 C9D5C5C440D6D940            2899        DC    C'INED OR ILLEGAL.'                                        26840021
 004CCC C9D3D3C5C7C1D34B
 004CD4 7E                          2900        DC    C'='                                                       26850021
 004CD5 13                          2901        DC    FL1'19'                                                    26860021
 004CD6 E2E4C2D1C5C3E340            2902 TX2121 DC    C'SUBJECT OF REDEF'                                        26870021
 004CDE D6C640D9C5C4C5C6
 004CE6 C9D5C5E240C9E240            2903        DC    C'INES IS VARIABLE'                                        26880021
 004CEE E5C1D9C9C1C2D3C5
 004CF6 40D3C5D5C7E3C861            2904        DC    C' LENGTH/'                                                26890021
 004CFE D9C5C4C5C6C9D5C5            2905 TX2122 DC    C'REDEFINES SUBJEC'                                        26900021
 004D06 E240E2E4C2D1C5C3
 004D0E E340D3C5E5C5D340            2906        DC    C'T LEVEL NUMBER N'                                        26910021
 004D16 D5E4D4C2C5D940D5
1PH70     IKFCBL70                                                                                              PAGE   81
-  LOC  OBJECT CODE    ADDR1 ADDR2  STMT   SOURCE STATEMENT                                       ASM 0201 11.03 02/14/15
0004D1E D6E340C5D8E4C1D3            2907        DC    C'OT EQUAL TO REDE'                                        26920021
 004D26 40E3D640D9C5C4C5
 004D2E C6C9D5C5E240D6C2            2908        DC    C'FINES OBJECT LEV'                                        26930021
 004D36 D1C5C3E340D3C5E5
 004D3E C5D340D5E4D4C2C5            2909          DC    C'EL NUMBER OR OBJ'                                      26940021
 004D46 D940D6D940D6C2D1
 004D4E C5C3E340D5D6E340            2910          DC    C'ECT NOT IMMEDIAT'                                      26950021
 004D56 C9D4D4C5C4C9C1E3
 004D5E C5D3E840D7D9C5C3            2911          DC    C'ELY PRECEDING SU'                                      26960021
 004D66 C5C4C9D5C740E2E4
 004D6E C2D1C5C3E34B7E              2912          DC    C'BJECT.='                                               26970021
 004D75 13                          2913        DC    FL1'19'                                                    26980021
 004D76 D6C2D1C5C3E340D6            2914 TX2123 DC    C'OBJECT OF REDEFI'                                        26990021
 004D7E C640D9C5C4C5C6C9
 004D86 D5C5E240C9E240E2            2915        DC    C'NES IS SUBSCRIPT'                                        27000021
 004D8E E4C2E2C3D9C9D7E3
 004D96 C5C461                      2916        DC    C'ED/'                                                     27010021
 004D99 D6C2D1C5C3E340D6            2917 TX2124 DC    C'OBJECT OF REDEFI'                                        27020021
 004DA1 C640D9C5C4C5C6C9
 004DA9 D5C5E240C9E240E5            2918        DC    C'NES IS VARIABLE '                                        27030021
 004DB1 C1D9C9C1C2D3C540
 004DB9 D3C5D5C7E3C840C7            2919        DC    C'LENGTH GROUP ITE'                                        27040021
 004DC1 D9D6E4D740C9E3C5
 004DC9 D44B40D9C5C4C5C6            2920          DC    C'M. REDEFINES CLAUSE='                                  27050021
 004DD1 C9D5C5E240C3D3C1
 004DD9 E4E2C57E
 004DDD 02                          2921          DC    FL1'02'                                                  27060021
 004DDE E5C1D3E4C540C3D3            2922 TX2125   DC    C'VALUE CLAUSE TRE'                                      27070021
 004DE6 C1E4E2C540E3D9C5
 004DEE C1E3C5C440C1E240            2923          DC    C'ATED AS COMMENTS FOR I'                                27080021
 004DF6 C3D6D4D4C5D5E3E2
 004DFE 40C6D6D940C9
 004E04 E3C5D4E240C9D540            2924        DC    C'TEMS IN FILE SEC'                                        27090021
 004E0C C6C9D3C540E2C5C3
 004E14 E3C9D6D540C1D5C4            2925        DC    C'TION AND LINKAGE'                                        27100021
 004E1C 40D3C9D5D2C1C7C5
 004E24 40E2C5C3E3C9D6D5            2926          DC    C' SECTION/'                                             27110021
 004E2C 61
 004E2D E5C1D3E4C540C3D3            2927 TX2126 DC    C'VALUE CLAUSE LIT'                                        27120021
 004E35 C1E4E2C540D3C9E3
 004E3D C5D9C1D340E3D6D6            2928        DC    C'ERAL TOO LONG. T'                                        27130021
 004E45 40D3D6D5C74B40E3
 004E4D D9E4D5C3C1E3C5C4            2929        DC    C'RUNCATED TO PICT'                                        27140021
 004E55 40E3D640D7C9C3E3
 004E5D E4D9C540E2C9E9C5            2930        DC    C'URE SIZE/'                                               27150021
 004E65 61
 004E66 D5E4D4C5D9C9C340            2931 TX2127   DC    C'NUMERIC VALUE CL'                                      27160021
 004E6E E5C1D3E4C540C3D3
 004E76 C1E4E2C540E2D7C5            2932          DC    C'AUSE SPE'                                              27170021
 004E7E C3C9C6C9C5C440C6            2933        DC    C'CIFIED FOR GROUP'                                        27180021
 004E86 D6D940C7D9D6E4D7
 004E8E 40C9E3C5D44B7E              2934        DC    C' ITEM.='                                                 27190021
 004E95 13                          2935        DC    FL1'19'                                                    27200021
 004E96 E5C1D3E4C540C3D3            2936 TX2128 DC    C'VALUE CLAUSE LIT'                                        27210021
 004E9E C1E4E2C540D3C9E3
1PH70     IKFCBL70                                                                                              PAGE   82
-  LOC  OBJECT CODE    ADDR1 ADDR2  STMT   SOURCE STATEMENT                                       ASM 0201 11.03 02/14/15
0004EA6 C5D9C1D340C4D6C5            2937        DC    C'ERAL DOES NOT CO'                                        27220021
 004EAE E240D5D6E340C3D6
 004EB6 D5C6D6D9D440E3D6            2938        DC    C'NFORM TO PICTURE'                                        27230021
 004EBE 40D7C9C3E3E4D9C5
 004EC6 4B40C3C8C1D5C7C5            2939        DC    C'. CHANGED TO BLA'                                        27240021
 004ECE C440E3D640C2D3C1
 004ED6 D5D2E261                    2940        DC    C'NKS/'                                                    27250021
 004EE0                             2941 IKF707 CSECT                                                            27260021
 004EE0 E5C1D3E4C540C3D3            2942 TX2129 DC    C'VALUE CLAUSE LIT'                                        27270021
 004EE8 C1E4E2C540D3C9E3
 004EF0 C5D9C1D340C4D6C5            2943        DC    C'ERAL DOES NOT CO'                                        27280021
 004EF8 E240D5D6E340C3D6
 004F00 D5C6D6D9D440E3D6            2944        DC    C'NFORM TO PICTURE'                                        27290021
 004F08 40D7C9C3E3E4D9C5
 004F10 4B7E                        2945        DC    C'.='                                                      27300021
 004F12 14                          2946        DC    FL1'20'                                                    27310021
 004F13 C9E3C5D440C3C1D5            2947 TX2130 DC    C'ITEM CANNOT HAVE'                                        27320021
 004F1B D5D6E340C8C1E5C5
 004F23 40E5C1D3E4C540C3            2948        DC    C' VALUE CLAUSE.='                                         27330021
 004F2B D3C1E4E2C54B7E
 004F32 13                          2949        DC    FL1'19'                                                    27340021
 004F33 D9C5C3D6D9C440D2            2950 TX2131 DC    C'RECORD KEY UNDEF'                                        27350021
 004F3B C5E840E4D5C4C5C6
 004F43 C9D5C5C440D6D940            2951        DC    C'INED OR NON-UNIQ'                                        27360021
 004F4B D5D6D560E4D5C9D8
 004F53 E4C54B7E                    2952        DC    C'UE.='                                                    27370021
 004F57 18                          2953        DC    FL1'24'                                                    27380021
 004F58 D9C5C3D6D9C440D2            2954 TX2132 DC    C'RECORD KEY LENGT'                                        27390021
 004F60 C5E840D3C5D5C7E3
 004F68 C840C7D9C5C1E3C5            2955        DC    C'H GREATER THAN 2'                                        27400021
 004F70 D940E3C8C1D540F2
 004F78 F5F540C2E8E3C5E2            2956        DC    C'55 BYTES. USING '                                        27410021
 004F80 4B40E4E2C9D5C740
 004F88 C6C9D9E2E340F2F5            2957        DC    C'FIRST 255 BYTES/'                                        27420021
 004F90 F540C2E8E3C5E261
 004F98 D3C1C2C5D340D9C5            2958 TX2133 DC    C'LABEL RECORDS CL'                                        27430021
 004FA0 C3D6D9C4E240C3D3
 004FA8 C1E4E2C540D4C9E2            2959          DC    C'AUSE MISSING. DD '                                     27440021
 004FB0 E2C9D5C74B40C4C4
 004FB8 40
 004FB9 C3C1D9C440D6D7E3            2960          DC    C'CARD OPTION WILL BE TAKEN/'                            27450021
 004FC1 C9D6D540E6C9D3D3
 004FC9 40C2C540E3C1D2C5
 004FD1 D561
 004FD3 E5C1D3E4C540C6D6            2961 TX2134 DC    C'VALUE FOR SCALIN'                                        27460021
 004FDB D940E2C3C1D3C9D5
 004FE3 C740C3C8C1D9C1C3            2962        DC    C'G CHARACTER SHOU'                                        27470021
 004FEB E3C5D940E2C8D6E4
 004FF3 D3C440C2C540E9C5            2963        DC    C'LD BE ZERO.='                                            27480021
 004FFB D9D64B7E
 004FFF 14                          2964        DC    FL1'20'                                                    27490021
 005000 D9C5C3D6D9C440C4            2965 TX2135   DC    C'RECORD DESCRIPTI'                                      27500021
 005008 C5E2C3D9C9D7E3C9
 005010 D6D540E5C1D9C9C1            2966          DC    C'ON VARIABLE FOR '                                      27510021
 005018 C2D3C540C6D6D940
1PH70     IKFCBL70                                                                                              PAGE   83
-  LOC  OBJECT CODE    ADDR1 ADDR2  STMT   SOURCE STATEMENT                                       ASM 0201 11.03 02/14/15
0005020 C9D5C4C5E7C5C440            2967          DC    C'INDEXED OR RELAT'                                      27520021
 005028 D6D940D9C5D3C1E3
 005030 C9E5C540C6C9D3C5            2968          DC    C'IVE FILE. ASSUME'                                      27530021
 005038 4B40C1E2E2E4D4C5
 005040 C440C6C9E7C5C440            2969          DC    C'D FIXED SIZE TAK'                                      27540021
 005048 E2C9E9C540E3C1D2
 005050 C5D540C6D9D6D440            2970          DC    C'EN FROM MAXIMUM '                                      27550021
 005058 D4C1E7C9D4E4D440
 005060 D9C5C3D6D9C440E2            2971          DC    C'RECORD SIZE/'                                          27560021
 005068 C9E9C561
 00506C D5D6D4C9D5C1D340            2972 TX2136   DC    C'NOMINAL KEY LENG'                                      27570021
 005074 D2C5E840D3C5D5C7
 00507C E3C840C6D6D940C9            2973          DC    C'TH FOR INDEXED F'                                      27580021
 005084 D5C4C5E7C5C440C6
 00508C C9D3C540C7D9C5C1            2974          DC    C'ILE GREATER THAN'                                      27590021
 005094 E3C5D940E3C8C1D5
 00509C 40                          2975          DC    C' '                                                     27600021
 00509D F2F5F540C2E8E3C5            2976          DC    C'255 BYTES.='                                           27610021
 0050A5 E24B7E
 0050A8 18                          2977          DC    FL1'24'                                                  27620021
 0050A9 C4C1E3C1D5C1D4C5            2978 TX2137   DC    C'DATANAME-3 IS SU'                                      27630021
 0050B1 60F340C9E240E2E4
 0050B9 C2D6D9C4C9D5C1E3            2979          DC    C'BORDINATE TO DAT'                                      27640021
 0050C1 C540E3D640C4C1E3
 0050C9 C1D5C1D4C560F240            2980          DC    C'ANAME-2 IN THE R'                                      27650021
 0050D1 C9D540E3C8C540D9
 0050D9 C5D5C1D4C5E240E3            2981          DC    C'ENAMES THRU CLAU'                                      27660021
 0050E1 C8D9E440C3D3C1E4
 0050E9 E2C54B7E                    2982          DC    C'SE.='                                                  27670021
 0050ED 06                          2983          DC    FL1'06'                                                  27680021
 0050EE C9E3C5D440D3C5D5            2984 TX2138 DC    C'ITEM LENGTH GREA'                                        27690021
 0050F6 C7E3C840C7D9C5C1
 0050FE E3C5D940E3C8C1D5            2985        DC    C'TER THAN 32K. TR'                                        27700021
 005106 40F3F2D24B40E3D9
 00510E E4D5C3C1E3C5C440            2986        DC    C'UNCATED TO 32K/'                                         27710021
 005116 E3D640F3F2D261
 00511D C1D7D7D3E840D6E5            2987 TX2139   DC    C'APPLY OVERFLOW C'                                      27720021
 005125 C5D9C6D3D6E640C3
 00512D D3C1E4E2C540C9D3            2988          DC    C'LAUSE ILLEGAL FO'                                      27730021
 005135 D3C5C7C1D340C6D6
 00513D D940E540D6D940E4            2989          DC    C'R V OR U MODE DI'                                      27740021
 005145 40D4D6C4C540C4C9
 00514D D9C5C3E340C6C9D3            2990          DC    C'RECT FILE.='                                           27750021
 005155 C54B7E
 005158 13                          2991          DC    FL1'19'                                                  27760021
 005159 E5C1D3E4C540C3D3            2992 TX2140   DC    C'VALUE CLAUSE SPE'                                      27770021
 005161 C1E4E2C540E2D7C5
 005169 C3C9C6C9C5C440D6            2993          DC    C'CIFIED ON BOTH G'                                      27780021
 005171 D540C2D6E3C840C7
 005179 D9D6E4D740C1D5C4            2994          DC    C'ROUP AND ELEMENT'                                      27790021
 005181 40C5D3C5D4C5D5E3
 005189 C1D9E840C9E3C5D4            2995          DC    C'ARY ITEM OR ON S'                                      27800021
 005191 40D6D940D6D540E2
 005199 E4C2D6D9C4C9D5C1            2996          DC    C'UBORDINATE GROUP'                                      27810021
 0051A1 E3C540C7D9D6E4D7
1PH70     IKFCBL70                                                                                              PAGE   84
-  LOC  OBJECT CODE    ADDR1 ADDR2  STMT   SOURCE STATEMENT                                       ASM 0201 11.03 02/14/15
00051A9 4B40E2C5C3D6D5C4            2997          DC    C'. SECOND '                                             27820021
 0051B1 40
 0051B2 C9E3C5D47DE240              2998          DC    C'ITEM''S '                                              27830021
 0051B9 E5C1D3E4C57E                2999          DC    C'VALUE='                                                27840021
 0051BF 13                          3000          DC    FL1'19'                                                  27850021
 0051C0 D3C5D5C7E3C840D6            3001 TX2141   DC    C'LENGTH OF LITERA'                                      27860021
 0051C8 C640D3C9E3C5D9C1
 0051D0 D340C9E240D4D6D9            3002          DC    C'L IS MORE OR LES'                                      27870021
 0051D8 C540D6D940D3C5E2
 0051E0 E240E3C8C1D540D3            3003          DC    C'S THAN LENGTH OF'                                      27880021
 0051E8 C5D5C7E3C840D6C6
 0051F0 40C7D9D6E4D74B40            3004          DC    C' GROUP. LENGTH O'                                      27890021
 0051F8 D3C5D5C7E3C840D6
 005200 C640D3C9E3C5D9C1            3005          DC    C'F LITERAL='                                            27900021
 005208 D37E
 00520A 01                          3006          DC    FL1'01'                                                  27910021
 00520B C1D3D7C8C1C2C5E3            3007 TX2142 DC    C'ALPHABETIC OR AL'                                        27920021
 005213 C9C340D6D940C1D3
 00521B D7C8C1D5E4D4C5D9            3008        DC    C'PHANUMERIC ITEM '                                        27930021
 005223 C9C340C9E3C5D440
 00522B C8C1E240C9D3D3C5            3009        DC    C'HAS ILLEGAL USAG'                                        27940021
 005233 C7C1D340E4E2C1C7
 00523B C54B7E                      3010        DC    C'E.='                                                     27950021
 00523E 2D                          3011        DC    FL1'45'                                                    27960021
 00523F E2E3C5D9D3C9D5C7            3012 TX2143 DC    C'STERLING NON-REP'                                        27970021
 005247 40D5D6D560D9C5D7
 00524F D6D9E340D7C9C3E3            3013          DC    C'ORT PICTURE - MORE THAN '                              27980021
 005257 E4D9C5406040D4D6
 00525F D9C540E3C8C1D540
 005267 D6D5C540E540D6D9            3014          DC    C'ONE V OR S.='                                          27990021
 00526F 40E24B7E
 005273 2E                          3015        DC    FL1'46'                                                    28000021
 005274 D5E4D4C5D9C9C340            3016 TX2144 DC    C'NUMERIC PICTURE '                                        28010021
 00527C D7C9C3E3E4D9C540
 005284 6040D4D6D9C540E3            3017          DC    C'- MORE THAN ONE '                                      28020021
 00528C C8C1D540D6D5C540
 005294 E540D6D940E24B7E            3018          DC    C'V OR S.='                                              28030021
 00529C 2E                          3019        DC    FL1'46'                                                    28040021
 00529D C1D3D7C8C1C2C5E3            3020 TX2145 DC    C'ALPHABETIC OR AL'                                        28050021
 0052A5 C9C340D6D940C1D3
 0052AD D7C8C1D5E4D4C5D9            3021        DC    C'PHANUMERIC ITEM '                                        28060021
 0052B5 C9C340C9E3C5D440
 0052BD D3C5D5C7E3C840C7            3022        DC    C'LENGTH GREATER T'                                        28070021
 0052C5 D9C5C1E3C5D940E3
 0052CD C8C1D540F3F2F7F6            3023        DC    C'HAN 32767. TRUNC'                                        28080021
 0052D5 F74B40E3D9E4D5C3
 0052DD C1E3C5C440E3D640            3024        DC    C'ATED TO 32767/'                                          28090021
 0052E5 F3F2F7F6F761
 0052EB D9C5C3D6D9C440E2            3025 TX2146 DC    C'RECORD SIZE IN R'                                        28100021
 0052F3 C9E9C540C9D540D9
 0052FB C5C3D6D9C460C3D6            3026        DC    C'ECORD-CONTAINS C'                                        28110021
 005303 D5E3C1C9D5E240C3
 00530B D3C1E4E2C540C4C9            3027        DC    C'LAUSE DISAGREES '                                        28120021
 005313 E2C1C7D9C5C5E240
 00531B E6C9E3C840C3D6D4            3028        DC    C'WITH COMPUTED RE'                                        28130021
1PH70     IKFCBL70                                                                                              PAGE   85
-  LOC  OBJECT CODE    ADDR1 ADDR2  STMT   SOURCE STATEMENT                                       ASM 0201 11.03 02/14/15
0005323 D7E4E3C5C440D9C5
 00532B C3D6D9C440E2C9E9            3029        DC    C'CORD SIZE. USING'                                        28140021
 005333 C54B40E4E2C9D5C7
 00533B 40D4C1E7C9D4E4D4            3030        DC    C' MAXIMUM COMPUTE'                                        28150021
 005343 40C3D6D4D7E4E3C5
 00534B C440E2C9E9C561              3031        DC    C'D SIZE/'                                                 28160021
 005352 7DD9C5C3D6D9C440            3032 TX2147 DC    C'''RECORD CONTAIN'                                        28170021
 00535A C3D6D5E3C1C9D5
 005361 E240C9D5E3C5C7C5            3033        DC    C'S INTEGER-1'' IS'                                        28180021
 005369 D960F17D40C9E2
 005370 40D5D6E340D4C9D5            3034        DC    C' NOT MINIMUM/'                                           28190021
 005378 C9D4E4D461
 00537D D6D540C1D540F0F1            3035 TX2148 DC    C'ON AN 01(77) COP'                                        28200021
 005385 4DF7F75D40C3D6D7
 00538D E840D3C9C2D9C1D9            3036        DC    C'Y LIBRARY-NAME C'                                        28210021
 005395 E860D5C1D4C540C3
 00539D D3C1E4E2C56B40D3            3037        DC    C'LAUSE, LIBRARY D'                                        28220021
 0053A5 C9C2D9C1D9E840C4
 0053AD C9C440D5D6E340C8            3038        DC    C'ID NOT HAVE AN 0'                                        28230021
 0053B5 C1E5C540C1D540F0
 0053BD F14DF7F75D40C1E2            3039        DC    C'1(77) AS FIRST C'                                        28240021
 0053C5 40C6C9D9E2E340C3
 0053CD C1D9C461                    3040        DC    C'ARD/'                                                    28250021
 0053D1 E5C1D3E4C540C3D3            3041 TX2149 DC    C'VALUE CLAUSE SPE'                                        28260021
 0053D9 C1E4E2C540E2D7C5
 0053E1 C3C9C6C9C5C440C6            3042        DC    C'CIFIED FOR ITEM '                                        28270021
 0053E9 D6D940C9E3C5D440
 0053F1 E6C9E3C840D6C3C3            3043        DC    C'WITH OCCURS OR F'                                        28280021
 0053F9 E4D9E240D6D940C6
 005401 D6D940C9E3C5D440            3044        DC    C'OR ITEM SUBORDIN'                                        28290021
 005409 E2E4C2D6D9C4C9D5
 005411 C1E3C540E3D640C1            3045        DC    C'ATE TO AN ITEM W'                                        28300021
 005419 D540C9E3C5D440E6
 005421 C9E3C840D6C3C3E4            3046        DC    C'ITH OCCURS.='                                            28310021
 005429 D9E24B7E
 00542D 13                          3047        DC    FL1'19'                                                    28320021
 00542E E5C1D3E4C540C3D3            3048 TX2150 DC    C'VALUE CLAUSE SPE'                                        28330021
 005436 C1E4E2C540E2D7C5
 00543E C3C9C6C9C5C440C6            3049        DC    C'CIFIED FOR ITEM '                                        28340021
 005446 D6D940C9E3C5D440
 00544E C9D540E5C1D9C9C1            3050        DC    C'IN VARIABLE LENG'                                        28350021
 005456 C2D3C540D3C5D5C7
 00545E E3C840D7D6D9E3C9            3051        DC    C'TH PORTION OF A '                                        28360021
 005466 D6D540D6C640C140
 00546E E6D6D9D2C9D5C760            3052        DC    C'WORKING-STORAGE '                                        28370021
 005476 E2E3D6D9C1C7C540
 00547E D9C5C3D6D9C44B7E            3053        DC    C'RECORD.='                                                28380021
 005486 13                          3054        DC    FL1'19'                                                    28390021
 005487 C5D3C5D4C5D5E3C1            3055 TX2151 DC    C'ELEMENTARY ITEMS'                                        28400021
 00548F D9E840C9E3C5D4E2
 005497 40D5D6E340C9D5E3            3056        DC    C' NOT INTERNAL FL'                                        28410021
 00549F C5D9D5C1D340C6D3
 0054A7 D6C1E3C9D5C760D7            3057        DC    C'OATING-POINT MUS'                                        28420021
 0054AF D6C9D5E340D4E4E2
 0054B7 E340C8C1E5C540D7            3058        DC    C'T HAVE PICTURE. '                                        28430021
1PH70     IKFCBL70                                                                                              PAGE   86
-  LOC  OBJECT CODE    ADDR1 ADDR2  STMT   SOURCE STATEMENT                                       ASM 0201 11.03 02/14/15
00054BF C9C3E3E4D9C54B40
 0054C7 D7C9C3E3E4D9C540            3059        DC    C'PICTURE ASSUMED '                                        28440021
 0054CF C1E2E2E4D4C5C440
 0054D7 F961                        3060        DC    C'9/'                                                      28450021
 0054D9 7E                          3061 TX2152   DC    C'='                                                     28460021
 0054DA 10                          3062          DC    FL1'16'                                                  28470021
 0054DB C4C1E3C160D5C1D4            3063 TX2153 DC    C'DATA-NAME OF TRA'                                        28480021
 0054E3 C540D6C640E3D9C1
 0054EB C3D260C1D9C5C140            3064        DC    C'CK-AREA CLAUSE I'                                        28490021
 0054F3 C3D3C1E4E2C540C9
 0054FB E240D5D6E340C1D5            3065        DC    C'S NOT AN ITEM OF'                                        28500021
 005503 40C9E3C5D440D6C6
 00550B 40D3C5E5C5D340F0            3066        DC    C' LEVEL 01 OR 77 '                                        28510021
 005513 F140D6D940F7F740
 00551B C9D540E6D6D9D2C9            3067          DC    C'IN WORKING-STORA'                                      28520021
 005523 D5C760E2E3D6D9C1
 00552B C7C54B7E                    3068        DC    C'GE.='                                                    28530021
 00552F 13                          3069        DC    FL1'19'                                                    28540021
 005530 E3C8C540C1D9C5C1            3070 TX2154 DC    C'THE AREA BEING R'                                        28550021
 005538 40C2C5C9D5C740D9
 005540 C5C4C5C6C9D5C5C4            3071        DC    C'EDEFINED IS NOT '                                        28560021
 005548 40C9E240D5D6E340
 005550 C9D4D4C5C4C9C1E3            3072        DC    C'IMMEDIATELY PREC'                                        28570021
 005558 C5D3E840D7D9C5C3
 005560 C5C4C9D5C740E3C8            3073        DC    C'EDING THE ENTRY '                                        28580021
 005568 C540C5D5E3D9E840
 005570 E6C8C9C3C840D9C5            3074        DC    C'WHICH REDEFINES '                                        28590021
 005578 C4C5C6C9D5C5E240
 005580 C9E340D6D940E3C8            3075        DC    C'IT OR THE LEVEL '                                        28600021
 005588 C540D3C5E5C5D340
 005590 D5E4D4C2C5D9E240            3076        DC    C'NUMBERS OF THE S'                                        28610021
 005598 D6C640E3C8C540E2
 0055A0 E4C2D1C5C3E340C1            3077        DC    C'UBJECT AND OBJEC'                                        28620021
 0055A8 D5C440D6C2D1C5C3
 0055B0 E340D6C640E3C8C5            3078        DC    C'T OF THE REDEFIN'                                        28630021
 0055B8 40D9C5C4C5C6C9D5
 0055C0 C5E240C1D9C540D5            3079        DC    C'ES ARE NOT THE S'                                        28640021
 0055C8 D6E340E3C8C540E2
 0055D0 C1D4C54B40E3C8C5            3080        DC    C'AME. THE OBJECT '                                        28650021
 0055D8 40D6C2D1C5C3E340
 0055E0 D6C640E3C8C540D9            3081        DC    C'OF THE REDEFINES'                                        28660021
 0055E8 C5C4C5C6C9D5C5E2
 0055F0 40C9E240C1E2E2E4            3082        DC    C' IS ASSUMED TO B'                                        28670021
 0055F8 D4C5C440E3D640C2
 005600 C540E3C8C540D3C1            3083        DC    C'E THE LAST ENTRY'                                        28680021
 005608 E2E340C5D5E3D9E8
 005610 40E6C9E3C840E2C1            3084        DC    C' WITH SAME LEVEL'                                        28690021
 005618 D4C540D3C5E5C5D3
 005620 40D5E4D4C2C5D940            3085        DC    C' NUMBER AS SUBJE'                                        28700021
 005628 C1E240E2E4C2D1C5
 005630 C3E340D6C640D9C5            3086        DC    C'CT OF REDEFINES/'                                        28710021
 005638 C4C5C6C9D5C5E261
 005640 C9D3D3C5C7C1D340            3087 TX2155 DC    C'ILLEGAL STERLING'                                        28720021
 005648 E2E3C5D9D3C9D5C7
 005650 40D5D6D560D9C5D7            3088        DC    C' NON-REPORT PICT'                                        28730021
1PH70     IKFCBL70                                                                                              PAGE   87
-  LOC  OBJECT CODE    ADDR1 ADDR2  STMT   SOURCE STATEMENT                                       ASM 0201 11.03 02/14/15
0005658 D6D9E340D7C9C3E3
 005660 E4D9C540C3C8C1D9            3089        DC    C'URE CHARACTER.='                                         28740021
 005668 C1C3E3C5D94B7E
 00566F 15                          3090        DC    FL1'21'                                                    28750021
 005670 D7C9C3E3E4D9C540            3091 TX2156 DC    C'PICTURE DOES NOT'                                        28760021
 005678 C4D6C5E240D5D6E3
 005680 40C3D6D5E3C1C9D5            3092        DC    C' CONTAIN A SIGN.'                                        28770021
 005688 40C140E2C9C7D54B
 005690 40E2C9C7D540C4D9            3093        DC    C' SIGN DROPPED FR'                                        28780021
 005698 D6D7D7C5C440C6D9
 0056A0 D6D440E5C1D3E4C5            3094        DC    C'OM VALUE CLAUSE '                                        28790021
 0056A8 40C3D3C1E4E2C540
 0056B0 D3C9E3C5D9C1D361            3095        DC    C'LITERAL/'                                                28800021
 0056B8 D5D6D4C9D5C1D340            3096 TX2157   DC    C'NOMINAL KEY FOR '                                      28810021
 0056C0 D2C5E840C6D6D940
 0056C8 C140D9C5D3C1E3C9            3097          DC    C'A RELATIVE ORGAN'                                      28820021
 0056D0 E5C540D6D9C7C1D5
 0056D8 C9E9C1E3C9D6D540            3098        DC    C'IZATION FILE M'                                          28830021
 0056E0 C6C9D3C540D4
 0056E6 E4E2E340C2C540E2            3099          DC    C'UST BE S9(8) COM'                                      28840021
 0056EE F94DF85D40C3D6D4
 0056F6 D7E4E3C1E3C9D6D5            3100          DC    C'PUTATIONAL/'                                           28850021
 0056FE C1D361
 005701 D6C3C3E4D9E240C4            3101 TX2158 DC    C'OCCURS DEPENDING'                                        28860021
 005709 C5D7C5D5C4C9D5C7
 005711 40D6D540E5C1D9C9            3102        DC    C' ON VARIABLE IS '                                        28870021
 005719 C1C2D3C540C9E240
 005721 C9D540E5C1D9C9C1            3103        DC    C'IN VARIABLE PORT'                                        28880021
 005729 C2D3C540D7D6D9E3
 005731 C9D6D540D6C640C1            3104        DC    C'ION OF A RECORD.'                                        28890021
 005739 40D9C5C3D6D9C44B
 005741 40D7D9D6C7D9C1D4            3105          DC    C' PROGRAM MAY NOT'                                      28900021
 005749 40D4C1E840D5D6E3
 005751 40C5E7C5C3E4E3C5            3106          DC    C' EXECUTE/'                                             28910021
 005759 61
 00575A D6C2D1C5C3E340D6            3107 TX2159   DC    C'OBJECT OF REDEFI'                                      28920021
 005762 C640D9C5C4C5C6C9
 00576A D5C5E240C3D3C1E4            3108          DC    C'NES CLAUSE NOT D'                                      28930021
 005772 E2C540D5D6E340C4
 00577A C5C6C9D5C5C44B40            3109          DC    C'EFINED. PREVIOUS'                                      28940021
 005782 D7D9C5E5C9D6E4E2
 00578A 40F0F140C1E2E2E4            3110          DC    C' 01 ASSUMED TO B'                                      28950021
 005792 D4C5C440E3D640C2
 00579A C540D6C2D1C5C3E3            3111          DC    C'E OBJECT/'                                             28960021
 0057A2 61
 0057A3 E3C8C540D6C2D1C5            3112 TX2160   DC    C'THE OBJECT OF TH'                                      28970021
 0057AB C3E340D6C640E3C8
 0057B3 C540D9C5D5C1D4C5            3113          DC    C'E RENAMES OR REN'                                      28980021
 0057BB E240D6D940D9C5D5
 0057C3 C1D4C5E240E3C8D9            3114          DC    C'AMES THRU CLAUSE'                                      28990021
 0057CB E440C3D3C1E4E2C5
 0057D3 40C3C1D5D5D6E340            3115          DC    C' CANNOT CONTAIN '                                      29000021
 0057DB C3D6D5E3C1C9D540
 0057E3 C1D540D6C3C3E4D9            3116          DC    C'AN OCCURS OR OCC'                                      29010021
 0057EB E240D6D940D6C3C3
1PH70     IKFCBL70                                                                                              PAGE   88
-  LOC  OBJECT CODE    ADDR1 ADDR2  STMT   SOURCE STATEMENT                                       ASM 0201 11.03 02/14/15
00057F3 E4D9E240C4C5D7C5            3117          DC    C'URS DEPENDING ON'                                      29020021
 0057FB D5C4C9D5C740D6D5
 005803 40C3D3C1E4E2C540            3118          DC    C' CLAUSE NOR MAY '                                      29030021
 00580B D5D6D940D4C1E840
 005813 C9E340C2C540E2E4            3119          DC    C'IT BE SUBORDINAT'                                      29040021
 00581B C2D6D9C4C9D5C1E3
 005823 C540E3D640C1D540            3120          DC    C'E TO AN ITEM THA'                                      29050021
 00582B C9E3C5D440E3C8C1
 005833 E340C8C1E240D6D5            3121          DC    C'T HAS ONE OF THE'                                      29060021
 00583B C540D6C640E3C8C5
 005843 E2C540C3D3C1E4E2            3122          DC    C'SE CLAUSES.='                                          29070021
 00584B C5E24B7E
 00584F 06                          3123          DC    FL1'06'                                                  29080021
 005850 D7C9C3E3E4D9C540            3124 TX2161 DC    C'PICTURE INVALID.'                                        29090021
 005858 C9D5E5C1D3C9C44B
 005860 40C1C4D1C1C3C5D5            3125        DC    C' ADJACENT C DELI'                                        29100021
 005868 E340C340C4C5D3C9
 005870 D4C9E3C5D9E24B7E            3126        DC    C'MITERS.='                                                29110021
 005878 19                          3127        DC    FL1'25'                                                    29120021
 005879 D7C9C3E3E4D9C540            3128 TX2162 DC    C'PICTURE INVALID.'                                        29130021
 005881 C9D5E5C1D3C9C44B
 005889 40C1C4D1C1C3C5D5            3129        DC    C' ADJACENT D DELI'                                        29140021
 005891 E340C440C4C5D3C9
 005899 D4C9E3C5D9E24B7E            3130        DC    C'MITERS.='                                                29150021
 0058A1 19                          3131        DC    FL1'25'                                                    29160021
 0058A2 D7C9C3E3E4D9C540            3132 TX2163 DC    C'PICTURE INVALID.'                                        29170021
 0058AA C9D5E5C1D3C9C44B
 0058B2 40D4D6D9C540E3C8            3133        DC    C' MORE THAN 2 DEL'                                        29180021
 0058BA C1D540F240C4C5D3
 0058C2 C9D4C9E3C5D9E24B            3134        DC    C'IMITERS.='                                               29190021
 0058CA 7E
 0058CB 19                          3135        DC    FL1'25'                                                    29200021
 0058CC D7C9C3E3E4D9C540            3136 TX2164 DC    C'PICTURE INVALID.'                                        29210021
 0058D4 C9D5E5C1D3C9C44B
 0058DC 40D5D640E2E3C5D9            3137        DC    C' NO STERLING DEL'                                        29220021
 0058E4 D3C9D5C740C4C5D3
 0058EC C9D4C9E3C5D9E24B            3138        DC    C'IMITERS.='                                               29230021
 0058F4 7E
 0058F5 19                          3139        DC    FL1'25'                                                    29240021
 0058F6 D7C9C3E3E4D9C540            3140 TX2165 DC    C'PICTURE INVALID.'                                        29250021
 0058FE C9D5E5C1D3C9C44B
 005906 40D6D5D3E840F140            3141        DC    C' ONLY 1 STERLING'                                        29260021
 00590E E2E3C5D9D3C9D5C7
 005916 40C4C5D3C9D4C9E3            3142        DC    C' DELIMITER.='                                            29270021
 00591E C5D94B7E
 005922 19                          3143        DC    FL1'25'                                                    29280021
 005923 D7C9C3E3E4D9C540            3144 TX2166 DC    C'PICTURE INVALID.'                                        29290021
 00592B C9D5E5C1D3C9C44B
 005933 40C5D9D9D6D940C9            3145        DC    C' ERROR IN SHILLI'                                        29300021
 00593B D540E2C8C9D3D3C9
 005943 D5C740C6C9C5D3C4            3146        DC    C'NG FIELD. ASSUME'                                        29310021
 00594B 4B40C1E2E2E4D4C5
 005953 C440E2C8C9D3D3C9            3147        DC    C'D SHILLING PICTU'                                        29320021
 00595B D5C740D7C9C3E3E4
 005963 D9C540E9F9C261              3148        DC    C'RE Z9B/'                                                 29330021
1PH70     IKFCBL70                                                                                              PAGE   89
-  LOC  OBJECT CODE    ADDR1 ADDR2  STMT   SOURCE STATEMENT                                       ASM 0201 11.03 02/14/15
000596A D7C9C3E3E4D9C540            3149 TX2167 DC    C'PICTURE INVALID.'                                        29340021
 005972 C9D5E5C1D3C9C44B
 00597A 40D5E4D4C2C5D940            3150        DC    C' NUMBER OF POUND'                                        29350021
 005982 D6C640D7D6E4D5C4
 00598A 40C4C9C7C9E3E240            3151        DC    C' DIGITS EXCEEDS '                                        29360021
 005992 C5E7C3C5C5C4E240
 00599A F1F54B40C1E2E2E4            3152        DC    C'15. ASSUMED PICT'                                        29370021
 0059A2 D4C5C440D7C9C3E3
 0059AA E4D9C540D34DF65D            3153        DC    C'URE L(6)9BD/'                                            29380021
 0059B2 F9C2C461
 0059B6 D7C9C3E3E4D9C540            3154 TX2168 DC    C'PICTURE INVALID.'                                        29390021
 0059BE C9D5E5C1D3C9C44B
 0059C6 40C5D9D9D6D940C9            3155        DC    C' ERROR IN WHOLE '                                        29400021
 0059CE D540E6C8D6D3C540
 0059D6 D7C5D5C3C540C6C9            3156        DC    C'PENCE FIELD. ASS'                                        29410021
 0059DE C5D3C44B40C1E2E2
 0059E6 E4D4C5C440D7C5D5            3157        DC    C'UMED PENCE PICTU'                                        29420021
 0059EE C3C540D7C9C3E3E4
 0059F6 D9C540E9F961                3158        DC    C'RE Z9/'                                                  29430021
 0059FC D7C9C3E3E4D9C540            3159 TX2169 DC    C'PICTURE INVALID.'                                        29440021
 005A04 C9D5E5C1D3C9C44B
 005A0C 40C5D9D9D6D940C9            3160        DC    C' ERROR IN DECIMA'                                        29450021
 005A14 D540C4C5C3C9D4C1
 005A1C D340D7C5D5C3C540            3161        DC    C'L PENCE FIELD.='                                         29460021
 005A24 C6C9C5D3C44B7E
 005A2B 1A                          3162        DC    FL1'26'                                                    29470021
 005A2C D7C9C3E3E4D9C540            3163 TX2170 DC    C'PICTURE INVALID.'                                        29480021
 005A34 C9D5E5C1D3C9C44B
 005A3C 40C5D9D9D6D940C9            3164        DC    C' ERROR IN POUND '                                        29490021
 005A44 D540D7D6E4D5C440
 005A4C C6C9C5D3C44B40C1            3165        DC    C'FIELD. ASSUMED P'                                        29500021
 005A54 E2E2E4D4C5C440D7
 005A5C D6E4D5C440D7C9C3            3166        DC    C'OUND PICTURE L(6'                                        29510021
 005A64 E3E4D9C540D34DF6
 005A6C 5DF9C261                    3167        DC    C')9B/'                                                    29520021
 005A70 D7C9C3E3E4D9C540            3168 TX2171 DC    C'PICTURE INVALID.'                                        29530021
 005A78 C9D5E5C1D3C9C44B
 005A80 40D5E4D4C2C5D940            3169        DC    C' NUMBER OF POUND'                                        29540021
 005A88 D6C640D7D6E4D5C4
 005A90 40C4C9C7C9E3E240            3170        DC    C' DIGITS PLUS NUM'                                        29550021
 005A98 D7D3E4E240D5E4D4
 005AA0 C2C5D940D6C640D7            3171        DC    C'BER OF PENCE DEC'                                        29560021
 005AA8 C5D5C3C540C4C5C3
 005AB0 C9D4C1D340C5E7C3            3172        DC    C'IMAL EXCEEDS 15.'                                        29570021
 005AB8 C5C5C4E240F1F54B
 005AC0 40C4C5C3C9D4C1D3            3173        DC    C' DECIMAL PENCE D'                                        29580021
 005AC8 40D7C5D5C3C540C4
 005AD0 D9D6D7D7C5C461              3174        DC    C'ROPPED/'                                                 29590021
 005AD7 D7C9C3E3E4D9C540            3175 TX2172 DC    C'PICTURE INVALID.'                                        29600021
 005ADF C9D5E5C1D3C9C44B
 005AE7 40E2C9E9C540D6C6            3176        DC    C' SIZE OF REPORT '                                        29610021
 005AEF 40D9C5D7D6D9E340
 005AF7 C6C9C5D3C440C5E7            3177        DC    C'FIELD EXCEEDS 12'                                        29620021
 005AFF C3C5C5C4E240F1F2
 005B07 F740C2E8E3C5E24B            3178        DC    C'7 BYTES. ASSUMED'                                        29630021
1PH70     IKFCBL70                                                                                              PAGE   90
-  LOC  OBJECT CODE    ADDR1 ADDR2  STMT   SOURCE STATEMENT                                       ASM 0201 11.03 02/14/15
0005B0F 40C1E2E2E4D4C5C4
 005B17 40D7C9C3E3E4D9C5            3179        DC    C' PICTURE L(6)BDZ'                                        29640021
 005B1F 40D34DF65DC2C4E9
 005B27 F9C2C4E9F961                3180        DC    C'9BDZ9/'                                                  29650021
 005B2D D7C9C3E3E4D9C540            3181 TX2173 DC    C'PICTURE INVALID.'                                        29660021
 005B35 C9D5E5C1D3C9C44B
 005B3D 40C3D940D6D940C4            3182        DC    C' CR OR DB NOT VA'                                        29670021
 005B45 C240D5D6E340E5C1
 005B4D D3C9C440E6C9E3C8            3183        DC    C'LID WITH LEADING'                                        29680021
 005B55 40D3C5C1C4C9D5C7
 005B5D 40E2C9C7D54B7E              3184        DC    C' SIGN.='                                                 29690021
 005B64 1A                          3185        DC    FL1'26'                                                    29700021
 005B65 D7C9C3E3E4D9C540            3186 TX2174 DC    C'PICTURE INVALID.'                                        29710021
 005B6D C9D5E5C1D3C9C44B
 005B75 40E2C9C7D540C9D5            3187        DC    C' SIGN IN DECIMAL'                                        29720021
 005B7D 40C4C5C3C9D4C1D3
 005B85 40D7C5D5C3C540C6            3188        DC    C' PENCE FIELD NOT'                                        29730021
 005B8D C9C5D3C440D5D6E3
 005B95 40E5C1D3C9C440E6            3189        DC    C' VALID WITH LEAD'                                        29740021
 005B9D C9E3C840D3C5C1C4
 005BA5 C9D5C740E2C9C7D5            3190        DC    C'ING SIGN.='                                              29750021
 005BAD 4B7E
 005BAF 1A                          3191        DC    FL1'26'                                                    29760021
 005BB0 E3D9C1C3D260C1D9            3192 TX2175 DC    C'TRACK-AREA EXCEE'                                        29770021
 005BB8 C5C140C5E7C3C5C5
 005BC0 C4E240C1D5C440C9            3193        DC    C'DS AND IS REDUCE'                                        29780021
 005BC8 E240D9C5C4E4C3C5
 005BD0 C440E3D640F3F26B            3194        DC    C'D TO 32,760 BYTE'                                        29790021
 005BD8 F7F6F040C2E8E3C5
 005BE0 E261                        3195        DC    C'S/'                                                      29800021
 005BE2 C4C1E3C160D5C1D4            3196 TX2176 DC    C'DATA-NAME OF TRA'                                        29810021
 005BEA C540D6C640E3D9C1
 005BF2 C3D260C1D9C5C140            3197        DC    C'CK-AREA CLAUSE E'                                        29820021
 005BFA C3D3C1E4E2C540C5
 005C02 E7C3C5C5C4E240F3            3198        DC    C'XCEEDS 32,767 BY'                                        29830021
 005C0A F26BF7F6F740C2E8
 005C12 E3C5E240C9D540D3            3199        DC    C'TES IN LENGTH.='                                         29840021
 005C1A C5D5C7E3C84B7E
 005C21 13                          3200        DC    FL1'19'                                                    29850021
 005C22 C4C1E3C160D5C1D4            3201 TX2177 DC    C'DATA-NAME OF TRA'                                        29860021
 005C2A C540D6C640E3D9C1
 005C32 C3D260C1D9C5C140            3202        DC    C'CK-AREA CLAUSE I'                                        29870021
 005C3A C3D3C1E4E2C540C9
 005C42 E240D5D6E340C6C9            3203        DC    C'S NOT FIXED-LENG'                                        29880021
 005C4A E7C5C460D3C5D5C7
 005C52 E3C84B7E                    3204        DC    C'TH.='                                                    29890021
 005C56 13                          3205        DC    FL1'19'                                                    29900021
 005C57 D9C5C3D6D9C440D2            3206 TX2178   DC    C'RECORD KEY IS NO'                                      29910021
 005C5F C5E840C9E240D5D6
 005C67 E340E6C9E3C8C9D5            3207          DC    C'T WITHIN FILE RE'                                      29920021
 005C6F 40C6C9D3C540D9C5
 005C77 C3D6D9C461                  3208        DC    C'CORD/'                                                   29930021
 005C7C D9C5C3D6D9C440D2            3209 TX2179   DC    C'RECORD KEY IS NO'                                      29940021
 005C84 C5E840C9E240D5D6
 005C8C E340C6C9E7C5C440            3210          DC    C'T FIXED LENGTH/'                                       29950021
1PH70     IKFCBL70                                                                                              PAGE   91
-  LOC  OBJECT CODE    ADDR1 ADDR2  STMT   SOURCE STATEMENT                                       ASM 0201 11.03 02/14/15
0005C94 D3C5D5C7E3C861
 005C9B D9C5C3D6D9C440D2            3211 TX2180   DC    C'RECORD KEY FOR U'                                      29960021
 005CA3 C5E840C6D6D940E4
 005CAB D5C2D3D6C3D2C5C4            3212        DC    C'NBLOCKED FILE IN'                                        29970021
 005CB3 40C6C9D3C540C9D5
 005CBB C3D3E4C4C5E240C6            3213        DC    C'CLUDES FIRST BYT'                                        29980021
 005CC3 C9D9E2E340C2E8E3
 005CCB C540D6C640D9C5C3            3214        DC    C'E OF RECORD/'                                            29990021
 005CD3 D6D9C461
 005CD7 D5D6D4C9D5C1D340            3215 TX2181   DC    C'NOMINAL OR ACTUA'                                      30000021
 005CDF D6D940C1C3E3E4C1
 005CE7 D340D2C5E840C9E2            3216          DC    C'L KEY IS DEFINED'                                      30010021
 005CEF 40C4C5C6C9D5C5C4
 005CF7 40E6C9E3C8C9D540            3217          DC    C' WITHIN THE FILE'                                      30020021
 005CFF E3C8C540C6C9D3C5
 005D07 61                          3218          DC    C'/'                                                     30030021
 005D08 C1D7D7D3E840E6D9            3219 TX2182   DC    C'APPLY WRITE-ONLY'                                      30040021
 005D10 C9E3C560D6D5D3E8
 005D18 40C9E240D4C5C1D5            3220          DC    C' IS MEANINGLESS '                                      30050021
 005D20 C9D5C7D3C5E2E240
 005D28 E6C8C5D540D9C5C3            3221          DC    C'WHEN RECORDING '                                       30060021
 005D30 D6D9C4C9D5C740
 005D37 D4D6C4C540C9E240            3222          DC    C'MODE IS F OR U.='                                      30070021
 005D3F C640D6D940E44B7E
 005D47 13                          3223          DC    FL1'19'                                                  30080021
 005D48 D5D640D3C5E5C5D3            3224 TX2183 DC    C'NO LEVEL 01 FOR '                                        30090021
 005D50 40F0F140C6D6D940
 005D58 C6C440D6D940E2C4            3225          DC    C'FD OR SD/'                                             30100021
 005D60 61
 005D61 E5C1D3E4C540C3D3            3226 TX2184   DC    C'VALUE CLAUSE LIT'                                      30110021
 005D69 C1E4E2C540D3C9E3
 005D71 C5D9C1D340C4D6C5            3227          DC    C'ERAL DOES NOT CO'                                      30120021
 005D79 E240D5D6E340C3D6
 005D81 D5C6D6D9D440E3D6            3228          DC    C'NFORM TO PICTURE'                                      30130021
 005D89 40D7C9C3E3E4D9C5
 005D91 4B7E                        3229          DC    C'.='                                                    30140021
 005D93 13                          3230          DC    FL1'19'                                                  30150021
 005D94 C4C1E3C160D5C1D4            3231 TX2185   DC    C'DATA-NAME-3 EITHE'                                     30160021
 005D9C C560F340C5C9E3C8
 005DA4 C5
 005DA5 D940D7D9C5C3C5C4            3232          DC    C'R PRECEDES DATA-'                                      30170021
 005DAD C5E240C4C1E3C160
 005DB5 D5C1D4C560F240D6            3233          DC    C'NAME-2 OR IS DATA'                                     30180021
 005DBD D940C9E240C4C1E3
 005DC5 C1
 005DC6 60D5C1D4C560F240            3234          DC    C'-NAME-2 IN THE REN'                                    30190021
 005DCE C9D540E3C8C540D9
 005DD6 C5D5
 005DD8 C1D4C5E240E3C8D9            3235          DC    C'AMES THRU CLAUSE'                                      30200021
 005DE0 E440C3D3C1E4E2C5
 005DE8 4B7E                        3236          DC    C'.='                                                    30210021
 005DEA 06                          3237          DC    FL1'06'                                                  30220021
 005DEB D7C9C3E3E4D9C540            3238 TX2186   DC    C'PICTURE DUPLICAT'                                      30230021
 005DF3 C4E4D7D3C9C3C1E3
 005DFB C9D6D540C6C1C3E3            3239          DC    C'ION FACTOR IS ZE'                                      30240021
1PH70     IKFCBL70                                                                                              PAGE   92
-  LOC  OBJECT CODE    ADDR1 ADDR2  STMT   SOURCE STATEMENT                                       ASM 0201 11.03 02/14/15
0005E03 D6D940C9E240E9C5
 005E0B D9D64B40C1E2E2E4            3240          DC    C'RO. ASSUMING ONE'                                      30250021
 005E13 D4C9D5C740D6D5C5
 005E1B 40D6C3C3E4D9D9C5            3241          DC    C' OCCURRENCE OF P'                                      30260021
 005E23 D5C3C540D6C640D7
 005E2B C9C3E3E4D9C540C3            3242          DC    C'ICTURE CHARACTER'                                      30270021
 005E33 C8C1D9C1C3E3C5D9
 005E3B 61                          3243          DC    C'/'                                                     30280021
 005E3C D6C2D1C5C3E340D6            3244 TX2187   DC    C'OBJECT OF RENAME'                                      30290021
 005E44 C640D9C5D5C1D4C5
 005E4C E240C3D3C1E4E2C5            3245          DC    C'S CLAUSE OR RENA'                                      30300021
 005E54 40D6D940D9C5D5C1
 005E5C D4C5E240E3C8D9E4            3246          DC    C'MES THRU CLAUSE '                                      30310021
 005E64 40C3D3C1E4E2C540
 005E6C C9E240D5D6E340C9            3247          DC    C'IS NOT IN THE SA'                                      30320021
 005E74 D540E3C8C540E2C1
 005E7C D4C540D3D6C7C9C3            3248          DC    C'ME LOGICAL RECOR'                                      30330021
 005E84 C1D340D9C5C3D6D9
 005E8C C44B7E                      3249          DC    C'D.='                                                   30340021
 005E8F 06                          3250          DC    FL1'06'                                                  30350021
 005E90 C5E7E3C5D9D5C1D3            3251 TX2188   DC    C'EXTERNAL FLOATIN'                                      30360021
 005E98 40C6D3D6C1E3C9D5
 005EA0 C760D7D6C9D5E340            3252          DC    C'G-POINT PICTURE '                                      30370021
 005EA8 D7C9C3E3E4D9C540
 005EB0 C9D3D3C5C7C1D340            3253          DC    C'ILLEGAL WHEN CUR'                                      30380021
 005EB8 E6C8C5D540C3E4D9
 005EC0 D9C5D5C3E840E2C9            3254          DC    C'RENCY SIGN IS E.'                                      30390021
 005EC8 C7D540C9E240C54B
 005ED0 7E                          3255          DC    C'='                                                     30400021
 005ED1 2D                          3256          DC    FL1'45'                                                  30410021
 005ED2 7DC2D3D6C3D240C3            3257 TX2189   DC    C'''BLOCK CONTAINS'                                      30420021
 005EDA D6D5E3C1C9D5E2
 005EE1 40F0407D40D6D7E3            3258          DC    C' 0 '' OPTION ILL'                                51301 30430021
 005EE9 C9D6D540C9D3D3
 005EF0 C5C7C1D340C6D6D9            3259          DC    C'EGAL FOR BISAM O'                                51301 30440021
 005EF8 40C2C9E2C1D440D6
 005F00 D940E6C9E3C8407D            3260          DC    C'R WITH ''SAME AR'                                51301 30450021
 005F08 E2C1D4C540C1D9
 005F0F C5C17D40C3D3C1E4            3261          DC    C'EA'' CLAUSE.'                                    51301 30460021
 005F17 E2C54B
 005F1A 407DC2D3D6C3D240            3262          DC    C' ''BLOCK CONTAIN'                                      30470021
 005F22 C3D6D5E3C1C9D5
 005F29 E27D7E                      3263          DC    C'S''='                                                  30480021
 005F2C 13                          3264          DC    FL1'19'                                                  30490021
 005F2D D7C9C3E3E4D9C540            3265 TX2190   DC    C'PICTURE CLAUSE I'                                      30500021
 005F35 C3D3C1E4E2C540C9
 005F3D E240E2C9C7D5C5C4            3266          DC    C'S SIGNED, VALUE C'                                     30510021
 005F45 6B40E5C1D3E4C540
 005F4D C3
 005F4E D3C1E4E2C540E4D5            3267          DC    C'LAUSE UNSIGNED. '                                      30520021
 005F56 E2C9C7D5C5C44B40
 005F5E C1E2E2E4D4C5C440            3268          DC    C'ASSUMED POSITIVE'                                      30530021
 005F66 D7D6E2C9E3C9E5C5
 005F6E 61                          3269          DC    C'/'                                                     30540021
 005F6F E3C8C540E2E8D5C3            3270 TX2191   DC    C'THE SYNCHRONIZED'                                      30550021
1PH70     IKFCBL70                                                                                              PAGE   93
-  LOC  OBJECT CODE    ADDR1 ADDR2  STMT   SOURCE STATEMENT                                       ASM 0201 11.03 02/14/15
0005F77 C8D9D6D5C9E9C5C4
 005F7F 40C3D3C1E4E2C540            3271          DC    C' CLAUSE SHOULD N'                                      30560021
 005F87 E2C8D6E4D3C440D5
 005F8F D6E340C2C540E2D7            3272          DC    C'OT BE SPECIFIED '                                      30570021
 005F97 C5C3C9C6C9C5C440
 005F9F E6C8C5D540F8F87D            3273          DC    C'WHEN 88''S ARE U'                                      30580021
 005FA7 E240C1D9C540E4
 005FAE D5C4C5D940C7D9D6            3274          DC    C'NDER GROUP.='                                          30590021
 005FB6 E4D74B7E
 005FBA 0B                          3275          DC    FL1'11'                                                  30600021
 005FBB D6D5D3E840E4E2C1            3276 TX2192   DC    C'ONLY USAGE IS DI'                                      30610021
 005FC3 C7C540C9E240C4C9
 005FCB E2D7D3C1E840E2C8            3277          DC    C'SPLAY SHOULD BE '                                      30620021
 005FD3 D6E4D3C440C2C540
 005FDB E2D7C5C3C9C6C9C5            3278          DC    C'SPECIFIED WHEN A'                                      30630021
 005FE3 C440E6C8C5D540C1
 005FEB 40E5C1D3E4C540C3            3279          DC    C' VALUE CLAUSE IS '                                     30640021
 005FF3 D3C1E4E2C540C9E2
 005FFB 40
 005FFC C1E2E2D6C3C9C1E3            3280          DC    C'ASSOCIATED WITH '                                      30650021
 006004 C5C440E6C9E3C840
 00600C C140C7D9D6E4D740            3281          DC    C'A GROUP ITEM. VALUE CLAUSE='                           30660021
 006014 C9E3C5D44B40E5C1
 00601C D3E4C540C3D3C1E4
 006024 E2C57E
 006027 03                          3282          DC    FL1'3'                                                   30670021
 006028 D3C9E3C5D9C1D360            3283 TX2193   DC    C'LITERAL-1 IS GRE'                                      30680021
 006030 F140C9E240C7D9C5
 006038 C1E3C5D940E3C8C1            3284          DC    C'ATER THAN OR EQU'                                      30690021
 006040 D540D6D940C5D8E4
 006048 C1D340E3D640D3C9            3285          DC    C'AL TO LITERAL-2 '                                      30700021
 006050 E3C5D9C1D360F240
 006058 C9D540E3C8C540E5            3286          DC    C'IN THE VALUE THR'                                      30710021
 006060 C1D3E4C540E3C8D9
 006068 E440C3D3C1E4E2C5            3287          DC    C'U CLAUSE.='                                            30720021
 006070 4B7E
 006072 0B                          3288          DC    FL1'11'                                                  30730021
 006073 D9C5C3D6D9C440C3            3289 TX2194   DC    C'RECORD CONTAINS '                                      30740021
 00607B D6D5E3C1C9D5E240
 006083 F040C3C8C1D9C1C3            3290          DC    C'0 CHARACTERS OPT'                                      30750021
 00608B E3C5D9E240D6D7E3
 006093 C9D6D540C9C7D5D6            3291          DC    C'ION IGNORED FOR '                                      30760021
 00609B D9C5C440C6D6D940
 0060A3 C6C9D3C540E6C9E3            3292          DC    C'FILE WITH SAME A'                                      30770021
 0060AB C840E2C1D4C540C1
 0060B3 D9C5C140D6D940E2            3293          DC    C'REA OR SAME RECO'                                      30780021
 0060BB C1D4C540D9C5C3D6
 0060C3 D9C440C1D9C5C140            3294          DC    C'RD AREA CLAUSE/'                                       30790021
 0060CB C3D3C1E4E2C561
 0060D2 E4D5C9E340D9C5C3            3295 TX2195   DC    C'UNIT RECORD DEVI'                                      30800021
 0060DA D6D9C440C4C5E5C9
 0060E2 C3C540C9D3D3C5C7            3296          DC    C'CE ILLEGAL FOR R'                                      30810021
 0060EA C1D340C6D6D940D9
 0060F2 C5C3D6D9C4C9D5C7            3297          DC    C'ECORDING MODE S.'                                      30820021
 0060FA 40D4D6C4C540E24B
1PH70     IKFCBL70                                                                                              PAGE   94
-  LOC  OBJECT CODE    ADDR1 ADDR2  STMT   SOURCE STATEMENT                                       ASM 0201 11.03 02/14/15
0006102 40D9C5C3D6D9C4C9            3298          DC    C' RECORDING MODE '                                      30830021
 00610A D5C740D4D6C4C540
 006112 E57E                        3299          DC    C'V='                                                    30840021
 006114 01                          3300          DC    FL1'1'                                                   30850021
 006115 D5D640E5C1D3E4C5            3301 TX2196   DC    C'NO VALUE CLAUSE '                                      30860021
 00611D 40C3D3C1E4E2C540
 006125 C7C9E5C5D540C6D6            3302          DC    C'GIVEN FOR CONDIT'                                      30870021
 00612D D940C3D6D5C4C9E3
 006135 C9D6D540D5C1D4C5            3303          DC    C'ION NAME. VALUE '                                      30880021
 00613D 4B40E5C1D3E4C540
 006145 C1E2E2E4D4C5C440            3304          DC    C'ASSUMED ZERO OR '                                      30890021
 00614D E9C5D9D640D6D940
 006155 E2D7C1C3C5E240C4            3305          DC    C'SPACES DEPENDING'                                      30900021
 00615D C5D7C5D5C4C9D5C7
 006165 40D6D540D7C9C3E3            3306          DC    C' ON PICTURE/'                                          30910021
 00616D E4D9C561
 006171 C9D5C4C5E7C5C440            3307 TX2197   DC    C'INDEXED BY CLAUS'                                      30920021
 006179 C2E840C3D3C1E4E2
 006181 C540D4E4E2E340C2            3308          DC    C'E MUST BE PRESEN'                                      30930021
 006189 C540D7D9C5E2C5D5
 006191 E340E6C8C5D540C9            3309          DC    C'T WHEN ITEM IS U'                                      30940021
 006199 E3C5D440C9E240E4
 0061A1 D5C4C5D940C7D9D6            3310          DC    C'NDER GROUP WITH '                                      30950021
 0061A9 E4D740E6C9E3C840
 0061B1 C9D5C4C5E7C5C440            3311          DC    C'INDEXED BY CLAUS'                                      30960021
 0061B9 C2E840C3D3C1E4E2
 0061C1 C561                        3312          DC    C'E/'                                                    30970021
 0061C3 C9D5C4C5E7C5C440            3313 TX2198   DC    C'INDEXED BY CLAUS'                                      30980021
 0061CB C2E840C3D3C1E4E2
 0061D3 C540C9C7D5D6D9C5            3314          DC    C'E IGNORED FOR IT'                                      30990021
 0061DB C440C6D6D940C9E3
 0061E3 C5D440E4D5C4C5D9            3315          DC    C'EM UNDER GROUP W'                                      31000021
 0061EB 40C7D9D6E4D740E6
 0061F3 C9E3C840D6C3C3E4            3316          DC    C'ITH OCCURS BUT N'                                      31010021
 0061FB D9E240C2E4E340D5
 006203 D640C9D5C4C5E7C5            3317          DC    C'O INDEXED BY CLA'                                      31020021
 00620B C440C2E840C3D3C1
 006213 E4E2C561                    3318          DC    C'USE/'                                                  31030021
 006217 E9C5D9D640E2E4D7            3319 TX2199   DC    C'ZERO SUPRESSION '                                      31040021
 00621F D9C5E2E2C9D6D540
 006227 C3C8C1D9C1C3E3C5            3320          DC    C'CHARACTER WILL O'                                      31050021
 00622F D940E6C9D3D340D6
 006237 E5C5D9D9C9C4C540            3321          DC    C'VERRIDE BLANK WH'                                      31060021
 00623F C2D3C1D5D240E6C8
 006247 C5D540E9C5D9D640            3322          DC    C'EN ZERO CLAUSE.='                                      31070021
 00624F C3D3C1E4E2C54B7E
 006257 13                          3323          DC    FL1'19'                                                  31080021
 006258 C9D5E5C1D3C9C440            3324 TX2200   DC    C'INVALID ALPHANUMERIC'                                  31090021
 006260 C1D3D7C8C1D5E4D4
 006268 C5D9C9C3
 00626C 40C5C4C9E3C5C440            3325          DC    C' EDITED CHARACTER.='                                   31100021
 006274 C3C8C1D9C1C3E3C5
 00627C D94B7E
 00627F 0B                          3326          DC    FL1'11'                                                  31110021
 006280 E2E8D5C3C8D9D6D5            3327 TX2201   DC    C'SYNCHRONIZED ITEM NOT '                                31120021
1PH70     IKFCBL70                                                                                              PAGE   95
-  LOC  OBJECT CODE    ADDR1 ADDR2  STMT   SOURCE STATEMENT                                       ASM 0201 11.03 02/14/15
0006288 C9E9C5C440C9E3C5
 006290 D440D5D6E340
 006296 D6D540D7D9D6D7C5            3328          DC    C'ON PROPER BOUNDARY. NO '                               31130021
 00629E D940C2D6E4D5C4C1
 0062A6 D9E84B40D5D640
 0062AD C1D3C9C7D5D4C5D5            3329          DC    C'ALIGNMENT PERFORMED '                                  31140021
 0062B5 E340D7C5D9C6D6D9
 0062BD D4C5C440
 0062C1 C2C5C3C1E4E2C540            3330          DC    C'BECAUSE STARTING ADDRESS '                             31150021
 0062C9 E2E3C1D9E3C9D5C7
 0062D1 40C1C4C4D9C5E2E2
 0062D9 40
 0062DA D6C640E3C8C540D9            3331          DC    C'OF THE REDEFINING ITEM '                               31160021
 0062E2 C5C4C5C6C9D5C9D5
 0062EA C740C9E3C5D440
 0062F1 E6D6E4D3C440C8C1            3332          DC    C'WOULD HAVE TO BE CHANGED/'                             31170021
 0062F9 E5C540E3D640C2C5
 006301 40C3C8C1D5C7C5C4
 006309 61
 00630A E2E3C5D9D3C9D5C7            3333 TX2202   DC    C'STERLING NON-REPORT PICTURE - '                        31180021
 006312 40D5D6D560D9C5D7
 00631A D6D9E340D7C9C3E3
 006322 E4D9C5406040
 006328 D5D640E2C8C9D3D3            3334          DC    C'NO SHILLING SEPARATOR.='                               31190021
 006330 C9D5C740E2C5D7C1
 006338 D9C1E3D6D94B7E
 00633F 15                          3335          DC    FL1'21'                                                  31200021
 006340 D5E4D4C5D9C9C340            3336 TX2203 DC    C'NUMERIC EDITED PICTURE - '                               31210021
 006348 C5C4C9E3C5C440D7
 006350 C9C3E3E4D9C54060
 006358 40
 006359 D5D640D5E4D4C5D9            3337          DC    C'NO NUMERIC CHARACTERS IN '                             31220021
 006361 C9C340C3C8C1D9C1
 006369 C3E3C5D9E240C9D5
 006371 40
 006372 D7C9C3E3E4D9C54B            3338        DC    C'PICTURE.='                                               31230021
 00637A 7E
 00637B 16                          3339          DC    FL1'22'                                                  31240021
 00637C 61                          3340 TX2204   DC    C'/'                                                     31250021
 00637D 61                          3341 TX2205   DC    C'/'                                                     31260021
 00637E 61                          3342 TX2206   DC    C'/'                                                     31270021
 00637F 61                          3343 TX2207   DC    C'/'                                                     31280021
 006380 61                          3344 TX2208   DC    C'/'                                                     31290021
 006381 61                          3345 TX2209   DC    C'/'                                                     31300021
 006382 61                          3346 TX2210   DC    C'/'                                                     31310021
 006383 E5C1D3E4C540C3D3            3347 TX2211   DC    C'VALUE CLAUSE SPE'                                07762 31320021
 00638B C1E4E2C540E2D7C5
 006393 C3C9C6C9C5C440D6            3348          DC    C'CIFIED ON VARIAB'                                07762 31330021
 00639B D540E5C1D9C9C1C2
 0063A3 D3C540D3C5D5C7E3            3349          DC    C'LE LENGTH GROUP.'                                07762 31340021
 0063AB C840C7D9D6E4D74B
 0063B3 40E5C1D3E4C540C3            3350          DC    C' VALUE CLAUSE='                                  07762 31350021
 0063BB D3C1E4E2C57E
 0063C1 03                          3351          DC    FL1'3'                                             07762 31360021
 0063C2 61                          3352 TX2212   DC    C'/'                                                     31370021
1PH70     IKFCBL70                                                                                              PAGE   96
-  LOC  OBJECT CODE    ADDR1 ADDR2  STMT   SOURCE STATEMENT                                       ASM 0201 11.03 02/14/15
00063C3 61                          3353 TX2213   DC    C'/'                                                     31380021
 0063C4 61                          3354 TX2214   DC    C'/'                                                     31390021
 0063C5 61                          3355 TX2215   DC    C'/'                                                     31400021
 0063C6 61                          3356 TX2216   DC    C'/'                                                     31410021
 0063C7 61                          3357 TX2217   DC    C'/'                                                     31420021
 0063C8 61                          3358 TX2218   DC    C'/'                                                     31430021
 0063C9 61                          3359 TX2219   DC    C'/'                                                     31440021
 0063CA 61                          3360 TX2220   DC    C'/'                                                     31450021
 0063CB 61                          3361 TX2221   DC    C'/'                                                     31460021
 0063CC 61                          3362 TX2222   DC    C'/'                                                     31470021
 0063CD D7C9C3E3E4D9C540            3363 TX2223   DC    C'PICTURE LENGTH WOULD '                                 31480021
 0063D5 D3C5D5C7E3C840E6
 0063DD D6E4D3C440
 0063E2 C3C1E4E2C540D6E5            3364          DC    C'CAUSE OVERFLOW FROM '                                  31490021
 0063EA C5D9C6D3D6E640C6
 0063F2 D9D6D440
 0063F6 D9C5D7D6D9E340D3            3365          DC    C'REPORT LINE AT SPECI'                                  31500021
 0063FE C9D5C540C1E340E2
 006406 D7C5C3C9
 00640A C6C9C5C440C3D6D3            3366          DC    C'FIED COLUMN, TRUNCATED '                               31510021
 006412 E4D4D56B40E3D9E4
 00641A D5C3C1E3C5C440
 006421 E3D640C1E5C1C9D3            3367          DC    C'TO AVAILABLE SIZE/'                                    31520021
 006429 C1C2D3C540E2C9E9
 006431 C561
 006433 7DD6C3C3E4D9E240            3368 TX2224   DC    C'''OCCURS 0 TIMES'                                47955 31530021
 00643B F040E3C9D4C5E2
 006442 7D404DE6C9E3C840            3369          DC    C''' (WITH OR WITH'                                47955 31540021
 00644A D6D940E6C9E3C8
 006451 D6E4E340E3C8C540            3370          DC    C'OUT THE ''DEPEND'                                47955 31550021
 006459 7DC4C5D7C5D5C4
 006460 C9D5C740D6D57D40            3371          DC    C'ING ON'' OPTION)'                                47955 31560021
 006468 D6D7E3C9D6D55D
 00646F 40C9E240C9D3D3C5            3372          DC    C' IS ILLEGAL.  1 '                                47955 31570021
 006477 C7C1D34B4040F140
 00647F D6C3C3E4D9D9C5D5            3373          DC    C'OCCURRENCE ='                                    47955 31580021
 006487 C3C5407E
 00648B 01                          3374          DC    FL1'1'                                             47955 31590021
 00648C C9E3C5D440E2E4C2            3375 TX2225   DC    C'ITEM SUBORDINATE '                               07271 31600021
 006494 D6D9C4C9D5C1E3C5
 00649C 40
 00649D E3D640C9E3C5D440            3376          DC    C'TO ITEM WITH PICT'                               07271 31610021
 0064A5 E6C9E3C840D7C9C3
 0064AD E3
 0064AE E4D9C540C3D3C1E4            3377          DC    C'URE CLAUSE/'                                     07271 31620021
 0064B6 E2C561
 0064B9 E3D6E3C1D3C9D5C7            3378 TX2226   DC    C'TOTALING AREA DA'                                      31630021
 0064C1 40C1D9C5C140C4C1
 0064C9 E3C140D5C1D4C540            3379          DC    C'TA NAME NOT FOUN'                                      31640021
 0064D1 D5D6E340C6D6E4D5
 0064D9 C461                        3380          DC    C'D/'                                                    31650021
 0064DB E3D6E3C1D3C9D5C7            3381 TX2227   DC    C'TOTALING AREA DA'                                      31660021
 0064E3 40C1D9C5C140C4C1
 0064EB E3C140D5C1D4C540            3382          DC    C'TA NAME NOT DEFI'                                      31670021
 0064F3 D5D6E340C4C5C6C9
1PH70     IKFCBL70                                                                                              PAGE   97
-  LOC  OBJECT CODE    ADDR1 ADDR2  STMT   SOURCE STATEMENT                                       ASM 0201 11.03 02/14/15
00064FB D5C5C440C9D540E6            3383          DC    C'NED IN WORKING-S'                                      31680021
 006503 D6D9D2C9D5C760E2
 00650B E3D6D9C1C7C540E2            3384          DC    C'TORAGE SECTION/'                                       31690021
 006513 C5C3E3C9D6D561
 00651A C3D6D4D7C9D3C5D9            3385 TX2228   DC    C'COMPILER ERROR.$'                                51873 31700021
 006522 40C5D9D9D6D94B5B
 00652A D6D7E3C9D6D540C3            3386          DC    C'OPTION CANCELLED/'                               51873 31710021
 006532 C1D5C3C5D3D3C5C4
 00653A 61
 00653B 61                          3387 TX2229   DC    C'/'                                               51873 31720021
 00653C D5D6D4C9D5C1D340            3388 TX2230   DC    C'NOMINAL KEY IS NOT DEFINED '                     51873 31730021
 006544 D2C5E840C9E240D5
 00654C D6E340C4C5C6C9D5
 006554 C5C440
 006557 C9D540E6D6D9D2C9            3389          DC    C'IN WORKING STORAGE/'                             51873 31740021
 00655F D5C740E2E3D6D9C1
 006567 C7C561
 006570                             3390 IKF708 CSECT                                                            31750021
 006570 61                          3391 TX3000 DC    C'/'                                                       31760021
 006571 5BD5D6E340C4C5C6            3392 TX3001 DC      C'$NOT DEFINED.='                                        31770021
 006579 C9D5C5C44B7E
 00657F FF                          3393        DC      XL1'FF'                                                  31780021
 006580 5BD5D6E340E4D5C9            3394 TX3002 DC      C'$NOT UNIQUE.='                                         31790021
 006588 D8E4C54B7E
 00658D FF                          3395        DC      XL1'FF'                                                  31800021
 00658E C8C9C7C8C5E2E340            3396 TX3003   DC    C'HIGHEST LEVEL QU'                                      31810021
 006596 D3C5E5C5D340D8E4
 00659E C1D3C9C6C9C5D95B            3397          DC    C'ALIFIER$NOT DEFI'                                      31820021
 0065A6 D5D6E340C4C5C6C9
 0065AE D5C5C44B7E                  3398        DC      C'NED.='                                                 31830021
 0065B3 FF                          3399        DC      XL1'FF'                                                  31840021
 0065B4 D8E4C1D3C9C6E8C9            3400 TX3004   DC    C'QUALIFYING NAME$'                                      31850021
 0065BC D5C740D5C1D4C55B
 0065C4 D5D6E340E4D5C9D8            3401          DC    C'NOT UNIQUE.='                                          31860021
 0065CC E4C54B7E
 0065D0 03                          3402          DC    FL1'3'                                                   31870021
 0065D1 5BD5D6E340C140E5            3403 TX3005   DC    C'$NOT A VALID QUA'                                      31880021
 0065D9 C1D3C9C440D8E4C1
 0065E1 D3C9C6C9C5D94B7E            3404        DC      C'LIFIER.='                                              31890021
 0065E9 FF                          3405        DC      XL1'FF'                                                  31900021
 0065EA 5BD5D6E340C4C5C6            3406 TX3006   DC    C'$NOT DEFINED AS '                                      31910021
 0065F2 C9D5C5C440C1E240
 0065FA D7C1D9E340D6C640            3407        DC      C'PART OF $.='                                           31920021
 006602 5B4B7E
 006605 FF                          3408        DC      XL1'FF'                                                  31930021
 006606 5BD5D6E340E4D5C9            3409 TX3007   DC    C'$NOT UNIQUELY QU'                                      31940021
 00660E D8E4C5D3E840D8E4
 006616 C1D3C9C6C9C5C440            3410        DC      C'ALIFIED BY$.='                                         31950021
 00661E C2E85B4B7E
 006623 03                          3411        DC    FL1'3'                                                     31960021
 006624 5BD5D6E340E5C1D3            3412 TX3008   DC    C'$NOT VALID AS ID'                                      31970021
 00662C C9C440C1E240C9C4
 006634 C5D5E3C9C6C9C5D9            3413          DC    C'ENTIFIER-1 IN$COR'                                     31980021
 00663C 60F140C9D55BC3D6
 006644 D9
1PH70     IKFCBL70                                                                                              PAGE   98
-  LOC  OBJECT CODE    ADDR1 ADDR2  STMT   SOURCE STATEMENT                                       ASM 0201 11.03 02/14/15
0006645 D9C5E2D7D6D5C4C9            3414          DC    C'RESPONDING STATE'                                      31990021
 00664D D5C740E2E3C1E3C5
 006655 D4C5D5E34B7E                3415        DC      C'MENT.='                                                32000021
 00665B FF                          3416        DC      XL1'FF'                                                  32010021
 00665C 5BD5D6E340E5C1D3            3417 TX3009   DC    C'$NOT VALID AS ID'                                      32020021
 006664 C9C440C1E240C9C4
 00666C C5D5E3C9C6C9C5D9            3418          DC    C'ENTIFIER-2 IN $COR'                                    32030021
 006674 60F240C9D5405BC3
 00667C D6D9
 00667E D9C5E2D7D6D5C4C9            3419          DC    C'RESPONDING STATE'                                      32040021
 006686 D5C740E2E3C1E3C5
 00668E D4C5D5E34B7E                3420        DC      C'MENT.='                                                32050021
 006694 FF                          3421        DC      XL1'FF'                                                  32060021
 006695 E2E4D7C5D9C6D3E4            3422 TX3010 DC    C'SUPERFLUOUS ''TO'                                        32070021
 00669D D6E4E2407DE3D6
 0066A4 7D                          3423        DC    C''''                                                      32080021
 0066A5 40C9C7D5D6D9C5C4            3424          DC    C' IGNORED IN$CORR'                                      32090021
 0066AD 40C9D55BC3D6D9D9
 0066B5 C5E2D7D6D5C4C9D5            3425          DC    C'ESPONDING STATEM'                                      32100021
 0066BD C740E2E3C1E3C5D4
 0066C5 C5D5E361                    3426          DC    C'ENT/'                                                  32110021
 0066C9 D5D640C3D6D9D9C5            3427 TX3011   DC    C'NO CORRESPONDENC'                                      32120021
 0066D1 E2D7D6D5C4C5D5C3
 0066D9 C540C6D6E4D5C440            3428          DC    C'E FOUND BETWEEN '                                      32130021
 0066E1 C2C5E3E6C5C5D540
 0066E9 C9C4C5D5E3C9C6C9            3429          DC    C'IDENTIFIER-1 AND$ '                                    32140021
 0066F1 C5D960F140C1D5C4
 0066F9 5B40
 0066FB 61                          3430          DC    C'/'                                                     32150021
 0066FC 7E                          3431 TX3012   DC    C'='                                                     32160021
 0066FD 10                          3432          DC    FL1'16'                                                  32170021
 0066FE 7E                          3433 TX3013   DC    C'='                                                     32180021
 0066FF 10                          3434          DC    FL1'16'                                                  32190021
 006700 7E                          3435 TX3014   DC    C'='                                                     32200021
 006701 10                          3436          DC    FL1'16'                                                  32210021
 006702 61                          3437 TX3015   DC    C'/'                                                     32220021
 006703 7E                          3438 TX3016   DC    C'='                                                     32230021
 006704 10                          3439          DC    FL1'16'                                                  32240021
 006705 7E                          3440 TX3017   DC    C'='                                                     32250021
 006706 10                          3441          DC    FL1'16'                                                  32260021
 006707 E2D7C5C3C9C1D340            3442 TX3018 DC    C'SPECIAL REGISTER'                                        32270021
 00670F D9C5C7C9E2E3C5D9
 006717 E240E3C9D4C560D6            3443        DC    C'S TIME-OF-DAY OR'                                        32280021
 00671F C660C4C1E840D6D9
 006727 40C3E4D9D9C5D5E3            3444        DC    C' CURRENT-DATE MA'                                        32290021
 00672F 60C4C1E3C540D4C1
 006737 E840D6D5D3E840C2            3445        DC    C'Y ONLY BE USED I'                                        32300021
 00673F C540E4E2C5C440C9
 006747 D540E3C8C540D4D6            3446        DC    C'N THE MOVE STATE'                                        32310021
 00674F E5C540E2E3C1E3C5
 006757 D4C5D5E34B7E                3447        DC    C'MENT.='                                                  32320021
 00675D FF                          3448        DC    XL1'FF'                                                    32330021
 00675E 7E                          3449 TX3019   DC    C'='                                                     32340021
 00675F 10                          3450          DC    FL1'16'                                                  32350021
 006760 D9C5D7D6D9E340D5            3451 TX3020 DC    C'REPORT NAME ILLEGAL AS'                                  32360021
1PH70     IKFCBL70                                                                                              PAGE   99
-  LOC  OBJECT CODE    ADDR1 ADDR2  STMT   SOURCE STATEMENT                                       ASM 0201 11.03 02/14/15
0006768 C1D4C540C9D3D3C5
 006770 C7C1D340C1E2
 006776 40E4E2C5C44B40C4            3452        DC    C' USED. DISCARDED/'                                       32370021
 00677E C9E2C3C1D9C4C5C4
 006786 61
 006787 5BD5D6E340E4D5C9            3453 TX3021   DC    C'$NOT UNIQUE IN I'                                      32380021
 00678F D8E4C540C9D540C9
 006797 E3E240C7D9D6E4D7            3454          DC    C'TS GROUP.='                                            32390021
 00679F 4B7E
 0067A1 03                          3455          DC    FL1'3'                                                   32400021
 0067A2 5BD5D6E340E5C1D3            3456 TX3022   DC    C'$NOT VALID AS ID'                                      32410021
 0067AA C9C440C1E240C9C4
 0067B2 C5D5E3C9C6C9C5D9            3457          DC    C'ENTIFIER-1 IN SE'                                      32420021
 0067BA 60F140C9D540E2C5
 0067C2 C1D9C3C840E2E3C1            3458        DC    C'ARCH STATEMENT.'                                         32430021
 0067CA E3C5D4C5D5E34B
 0067D1 7E                          3459        DC    C'='                                                       32440021
 0067D2 FF                          3460        DC    XL1'FF'                                                    32450021
 0067D3 C9E3C5D4E240C3D6            3461 TX3023   DC    C'ITEMS CONTAINING'                                      32460021
 0067DB D5E3C1C9D5C9D5C7
 0067E3 40E3C8C540E4E2C1            3462          DC    C' THE USAGE IS IN'                                      32470021
 0067EB C7C540C9E240C9D5
 0067F3 C4C5E76B40D9C5C4            3463          DC    C'DEX, REDEFINES, '                                      32480021
 0067FB C5C6C9D5C5E26B40
 006803 D9C5D5C1D4C5E240            3464          DC    C'RENAMES OR OCCUR'                                      32490021
 00680B D6D940D6C3C3E4D9
 006813 E240C3D3C1E4E2C5            3465          DC    C'S CLAUSES DO NOT'                                      32500021
 00681B E240C4D640D5D6E3
 006823 40D8E4C1D3C9C6E8            3466          DC    C' QUALIFY AS CORR'                                      32510021
 00682B 40C1E240C3D6D9D9
 006833 C5E2D7D6D5C4C9D5            3467          DC    C'ESPONDING IDENTI'                                      32520021
 00683B C740C9C4C5D5E3C9
 006843 C6C9C5D9E261                3468          DC    C'FIERS/'                                                32530021
 006849 D5D640D2C5E8E240            3469 TX3024   DC    C'NO KEYS WERE SPE'                                      32540021
 006851 E6C5D9C540E2D7C5
 006859 C3C9C6C9C5C440C6            3470          DC    C'CIFIED FOR$.='                                         32550021
 006861 D6D95B4B7E
 006866 06                          3471          DC    FL1'6'                                                   32560021
 006867 C1D540C5D9D9D6D9            3472 TX3025   DC    C'AN ERROR WAS DET'                                      32570021
 00686F 40E6C1E240C4C5E3
 006877 C5C3E3C5C440D7D9            3473          DC    C'ECTED PROCESSING'                                      32580021
 00687F D6C3C5E2E2C9D5C7
 006887 40E3C8C540D2C5E8            3474          DC    C' THE KEYS FOR$'                                        32590021
 00688F E240C6D6D95B
 006895 4B7E                        3475          DC    C'.='                                                    32600021
 006897 FF                          3476          DC    XL1'FF'                                                  32610021
 006898 C9C4C5D5E3C9C6C9            3477 TX3026   DC    C'IDENTIFIER-2 OMIT'                                     32620021
 0068A0 C5D960F240D6D4C9
 0068A8 E3
 0068A9 E3C5C440C9D55BC3            3478          DC    C'TED IN$CORRESPON'                                      32630021
 0068B1 D6D9D9C5E2D7D6D5
 0068B9 C4C9D5C740E2E3C1            3479          DC    C'DING STATEMENT.='                                      32640021
 0068C1 E3C5D4C5D5E34B7E
 0068C9 FF                          3480          DC    XL1'FF'                                                  32650021
 0068CA C4C1E3C160D5C1D4            3481 TX3027   DC    C'DATA-NAME UNDER '                                      32660021
1PH70     IKFCBL70                                                                                              PAGE  100
-  LOC  OBJECT CODE    ADDR1 ADDR2  STMT   SOURCE STATEMENT                                       ASM 0201 11.03 02/14/15
00068D2 C540E4D5C4C5D940
 0068DA D3C1C2C5D340D9C5            3482          DC    C'LABEL RECORD IS '                                      32670021
 0068E2 C3D6D9C440C9E240
 0068EA D5D6D560E4D5C9D8            3483          DC    C'NON-UNIQUE. LAST'                                      32680021
 0068F2 E4C54B40D3C1E2E3
 0068FA 40C4C1E3C140C4C5            3484          DC    C' DATA DESCRIPTIO'                                      32690021
 006902 E2C3D9C9D7E3C9D6
 00690A D540D6C65BC1E2E2            3485          DC    C'N OF$ASSUMED/'                                         32700021
 006912 E4D4C5C461
 006917 E2D7C5C3C9C1D340            3486 TX3028   DC   C'SPECIAL REGISTERS MAY NOT '                             32710021
 00691F D9C5C7C9E2E3C5D9
 006927 E240D4C1E840D5D6
 00692F E340
 006931 C2C540E4E2C5C440            3487        DC    C'BE USED WITH ACCEPT, DISPLAY OR '                        32720021
 006939 E6C9E3C840C1C3C3
 006941 C5D7E36B40C4C9E2
 006949 D7D3C1E840D6D940
 006951 C5E7C8C9C2C9E340            3488          DC    C'EXHIBIT VERBS.='                                       32730021
 006959 E5C5D9C2E24B7E
 006960 FF                          3489          DC    XL1'FF'                                                  32740021
 006961 D6C3C3E4D9E240C4            3490 TX3029   DC    C'OCCURS DEPENDING'                                34761 32750021
 006969 C5D7C5D5C4C9D5C7
 006971 40D6D540D6C2D1C5            3491          DC    C' ON OBJECT NOT D'                                34761 32760021
 006979 C3E340D5D6E340C4
 006981 C5C6C9D5C5C440C6            3492          DC    C'EFINED FOR$/'                                          32770021
 006989 D6D95B61
 00698D 61                          3493 TX3030   DC    C'/'                                                     32780021
 006990                             3494 IKF709 CSECT                                                            32790021
 006990 61                          3495 TX4000 DC    C'/'                                                       32800021
 006991 D6E4E3C3D6D4C540            3496 TX4001 DC      C'OUTCOME OF A PRE'                                      32810021
 006999 D6C640C140D7D9C5
 0069A1 C3C5C4C9D5C740C3            3497        DC      C'CEDING CONDITIO'                                       32820021
 0069A9 D6D5C4C9E3C9D6
 0069B0 D540D3C5C1C4E240            3498        DC      C'N LEADS TO NON-E'                                      32830021
 0069B8 E3D640D5D6D560C5
 0069C0 E7C9E2E3C5D5E340            3499        DC    C'XISTENT ''NEXT S'                                        32840021
 0069C8 7DD5C5E7E340E2
 0069CF C5D5E3C5D5C3C57D            3500          DC    C'ENTENCE''. ''GOBACK'' '                                32850021
 0069D7 4B407DC7D6C2C1C3
 0069DF D27D40
 0069E2 C9D5E2C5D9E3C5C4            3501          DC    C'INSERTED'                                              32860021
 0069EA 61                          3502        DC    C'/'                                                       32870021
 0069EB 5BE2E3C1E3C5D4C5            3503 TX4002 DC      C'$STATEMENT INCOM'                                      32880021
 0069F3 D5E340C9D5C3D6D4
 0069FB D7D3C5E3C54B7E              3504        DC    C'PLETE.='                                                 32890021
 006A02 06                          3505        DC    FL1'6'                                                     32900021
 006A03 C5E7D7C5C3E3C9D5            3506 TX4003 DC      C'EXPECTING NEW'                                         32910021
 006A0B C740D5C5E6
 006A10 40E2E3C1E3C5D4C5            3507        DC    C' STATEMENT. FOUN'                                        32920021
 006A18 D5E34B40C6D6E4D5
 006A20 C45B4B40C4C5D3C5            3508        DC    C'D$. DELETING TIL'                                        32930021
 006A28 E3C9D5C740E3C9D3
 006A30 D340D5C5E7E340E5            3509        DC    C'L NEXT VERB OR P'                                        32940021
 006A38 C5D9C240D6D940D7
 006A40 D9D6C3C5C4E4D9C5            3510          DC    C'ROCEDURE-NAME/'                                        32950021
1PH70     IKFCBL70                                                                                              PAGE  101
-  LOC  OBJECT CODE    ADDR1 ADDR2  STMT   SOURCE STATEMENT                                       ASM 0201 11.03 02/14/15
0006A48 60D5C1D4C561
 006A4E 5B5BC9E240C9D3D3            3511 TX4004 DC      C'$$IS ILLEGALLY U'                                      32960021
 006A56 C5C7C1D3D3E840E4
 006A5E E2C5C440C9D55BE2            3512        DC      C'SED IN$STATEMENT'                                      32970021
 006A66 E3C1E3C5D4C5D5E3
 006A6E 4B7E                        3513        DC    C'.='                                                      32980021
 006A70 03                          3514        DC    FL1'3'                                                     32990021
 006A71 5BC1D5C45BE5C9D6            3515 TX4005 DC      C'$AND$VIOLATE RU'                                       33000021
 006A79 D3C1E3C540D9E4
 006A80 D3C540C1C2D6E4E3            3516        DC      C'LE ABOUT LENGTH '                                      33010021
 006A88 40D3C5D5C7E3C840
 006A90 D6C640E3D9C1D5E2            3517        DC      C'OF TRANSFORM OPE'                                      33020021
 006A98 C6D6D9D440D6D7C5
 006AA0 D9C1D5C4E24B7E              3518        DC    C'RANDS.='                                                 33030021
 006AA7 06                          3519        DC    FL1'6'                                                     33040021
 006AA8 5BE2E3C1E3C5D4C5            3520 TX4006 DC      C'$STATEMENT CONTA'                                      33050021
 006AB0 D5E340C3D6D5E3C1
 006AB8 C9D5E240E4D5D7C1            3521        DC      C'INS UNPAIRED LEF'                                      33060021
 006AC0 C9D9C5C440D3C5C6
 006AC8 E340D7C1D9C5D5E3            3522        DC      C'T PARENTHESES. O'                                      33070021
 006AD0 C8C5E2C5E24B40D6
 006AD8 E4E3C5D9D4D6E2E3            3523        DC    C'UTERMOST='                                               33080021
 006AE0 7E
 006AE1 02                          3524        DC    FL1'2'                                                     33090021
 006AE2 5BD4C9E2E2C9D5C7            3525 TX4007 DC      C'$MISSING OR MISP'                                      33100021
 006AEA 40D6D940D4C9E2D7
 006AF2 D3C1C3C5C440C9D5            3526        DC      C'LACED IN$STATEM'                                       33110021
 006AFA 5BE2E3C1E3C5D4
 006B01 C5D5E34B40C1E2E2            3527        DC      C'ENT. ASSUMED IN '                                      33120021
 006B09 E4D4C5C440C9D540
 006B11 D9C5D8E4C9D9C5C4            3528        DC      C'REQUIRED POSITIO'                                      33130021
 006B19 40D7D6E2C9E3C9D6
 006B21 D561                        3529        DC      C'N/'                                                    33140021
 006B23 E2E4D7C5D9C6D3E4            3530 TX4008 DC      C'SUPERFLUOUS$FOUN'                                      33150021
 006B2B D6E4E25BC6D6E4D5
 006B33 C440C9D55BE2E3C1            3531        DC    C'D IN$STATEMENT.='                                        33160021
 006B3B E3C5D4C5D5E34B7E
 006B43 02                          3532        DC    FL1'2'                                                     33170021
 006B44 C5E7C1D4C9D5C540            3533 TX4009   DC    C'EXAMINE STATEMEN'                                      33180021
 006B4C E2E3C1E3C5D4C5D5
 006B54 E340D9C5D8E4C9D9            3534          DC    C'T REQUIRES FIGUR'                                      33190021
 006B5C C5E240C6C9C7E4D9
 006B64 C1E3C9E5C540C3D6            3535          DC    C'ATIVE CONSTANT, '                                      33200021
 006B6C D5E2E3C1D5E36B40
 006B74 E2C9D5C7D3C540C1            3536          DC    C'SINGLE ALPHANUME'                                      33210021
 006B7C D3D7C8C1D5E4D4C5
 006B84 D9C9C340C3C8C1D9            3537        DC    C'RIC CHARACTER O'                                         33220021
 006B8C C1C3E3C5D940D6
 006B93 D940                        3538          DC    C'R '                                                    33230021
 006B95 F160C4C9C7C9E340            3539          DC    C'1-DIGIT UNSIGNED'                                      33240021
 006B9D E4D5E2C9C7D5C5C4
 006BA5 40D5E4D4C5D9C9C3            3540          DC    C' NUMERIC INTEGRA'                                      33250021
 006BAD 40C9D5E3C5C7D9C1
 006BB5 D340D3C9E3C5D9C1            3541          DC    C'L LITERAL. FOUND'                                      33260021
 006BBD D34B40C6D6E4D5C4
1PH70     IKFCBL70                                                                                              PAGE  102
-  LOC  OBJECT CODE    ADDR1 ADDR2  STMT   SOURCE STATEMENT                                       ASM 0201 11.03 02/14/15
0006BC5 5B                          3542          DC    C'$'                                                     33270021
 006BC6 4B40E2E3C1E3C5D4            3543          DC    C'. STATEMENT DELE'                                      33280021
 006BCE C5D5E340C4C5D3C5
 006BD6 E3C5C461                    3544          DC    C'TED/'                                                  33290021
 006BDA 5BE2E3C1E3C5D4C5            3545 TX4010 DC      C'$STATEMENT CONTA'                                      33300021
 006BE2 D5E340C3D6D5E3C1
 006BEA C9D5E240E4D5D7C1            3546        DC      C'INS UNPAIRED RIG'                                      33310021
 006BF2 C9D9C5C440D9C9C7
 006BFA C8E340D7C1D9C5D5            3547        DC      C'HT PARENTHESES. '                                      33320021
 006C02 E3C8C5E2C5E24B40
 006C0A D6E4E3C5D9D4D6E2            3548        DC    C'OUTERMOST='                                              33330021
 006C12 E37E
 006C14 02                          3549        DC    FL1'2'                                                     33340021
 006C15 5BC9E240D5D6E340            3550 TX4011 DC      C'$IS NOT AN ALLOW'                                      33350021
 006C1D C1D540C1D3D3D6E6
 006C25 C1C2D3C540C3C8C1            3551        DC      C'ABLE CHARACTER F'                                      33360021
 006C2D D9C1C3E3C5D940C6
 006C35 D6D95B4B7E                  3552        DC    C'OR$.='                                                   33370021
 006C3A 06                          3553        DC    FL1'6'                                                     33380021
 006C3B C3D6D4D7C1D9C9E2            3554 TX4012 DC      C'COMPARISON BETWE'                                      33390021
 006C43 D6D540C2C5E3E6C5
 006C4B C5D540E3E6D640D3            3555        DC      C'EN TWO LITERALS '                                      33400021
 006C53 C9E3C5D9C1D3E240
 006C5B C9E240C9D3D3C5C7            3556        DC    C'IS ILLEGAL.='                                            33410021
 006C63 C1D34B7E
 006C67 04                          3557        DC    FL1'4'                                                     33420021
 006C68 D9C5D3C1E3C9D6D5            3558 TX4013 DC      C'RELATIONAL MISSI'                                      33430021
 006C70 C1D340D4C9E2E2C9
 006C78 D5C740C9D540C9C6            3559          DC    C'NG IN IF OR CONDITIONAL STATEME'                 2651  33440021
 006C80 40D6D940C3D6D5C4
 006C88 C9E3C9D6D5C1D340
 006C90 E2E3C1E3C5D4C5
 006C97 D5E34B407DC5D8E4            3560        DC    C'NT. ''EQUAL''='                                          33450021
 006C9F C1D37D7E
 006CA3 01                          3561        DC    FL1'1'                                                     33460021
 006CA4 C5E7C1D4C9D5C540            3562 TX4014 DC      C'EXAMINE STATEMEN'                                      33470021
 006CAC E2E3C1E3C5D4C5D5
 006CB4 E340D9C5D8E4C9D9            3563          DC    C'T REQUIRES IDENT'                                      33480021
 006CBC C5E240C9C4C5D5E3
 006CC4 C9C6C9C5D940E6C8            3564          DC    C'IFIER WHOSE USAGE'                                     33490021
 006CCC D6E2C540E4E2C1C7
 006CD4 C5
 006CD5 40                          3565        DC    C' '                                                       33500021
 006CD6 C9E240C4C9E2D7D3            3566        DC      C'IS DISPLAY. FOUN'                                      33510021
 006CDE C1E84B40C6D6E4D5
 006CE6 C45B5B4B7E                  3567        DC    C'D$$.='                                                   33520021
 006CEB 06                          3568        DC    FL1'6'                                                     33530021
 006CEC 7DC7D640E3D64B7D            3569 TX4015 DC    C'''GO TO.'' ILLEG'                                        33540021
 006CF4 40C9D3D3C5C7
 006CFA C1D3                        3570        DC    C'AL'                                                      33550021
 006CFC 40E4D5D3C5E2E240            3571        DC    C' UNLESS ALTERED.'                                        33560021
 006D04 C1D3E3C5D9C5C44B
 006D0C 7E                          3572        DC    C'='                                                       33570021
 006D0D 06                          3573        DC    FL1'6'                                                     33580021
 006D0E D6D7C5D9C1D5C440            3574 TX4016 DC    C'OPERAND OF$APPEA'                                        33590021
1PH70     IKFCBL70                                                                                              PAGE  103
-  LOC  OBJECT CODE    ADDR1 ADDR2  STMT   SOURCE STATEMENT                                       ASM 0201 11.03 02/14/15
0006D16 D6C65BC1D7D7C5C1
 006D1E D9E240C9D540E6D9            3575        DC    C'RS IN WRONG SEGM'                                        33600021
 006D26 D6D5C740E2C5C7D4
 006D2E C5D5E340D6C640D7            3576        DC    C'ENT OF PROGRAM.='                                        33610021
 006D36 D9D6C7D9C1D44B7E
 006D3E 0B                          3577        DC    FL1'11'                                                    33620021
 006D3F C5D3E2C540E4D5D4            3578 TX4017 DC      C'ELSE UNMATCHED B'                                      33630021
 006D47 C1E3C3C8C5C440C2
 006D4F E840C3D6D5C4C9E3            3579        DC    C'Y CONDITION IS='                                         33640021
 006D57 C9D6D540C9E27E
 006D5E 03                          3580        DC    FL1'3'                                                     33650021
 006D5F E2C5E340E2E3C1E3            3581 TX4018   DC    C'SET STATEMENT HA'                                      33660021
 006D67 C5D4C5D5E340C8C1
 006D6F E240C1D540C9D3D3            3582          DC    C'S AN ILLEGAL OPE'                                      33670021
 006D77 C5C7C1D340D6D7C5
 006D7F D9C1D5C440C2C5C6            3583          DC    C'RAND BEFORE ''TO'                                      33680021
 006D87 D6D9C5407DE3D6
 006D8E 7D40D6D940C9D5C3            3584          DC    C''' OR INCOMPATIB'                                      33690021
 006D96 D6D4D7C1E3C9C2
 006D9D D3C540D6D7C5D9C1            3585          DC    C'LE OPERANDS. OPE'                                      33700021
 006DA5 D5C4E24B40D6D7C5
 006DAD D9C1D5C440C2C5C6            3586          DC    C'RAND BEFORE ''TO'                                      33710021
 006DB5 D6D9C5407DE3D6
 006DBC 7D7E                        3587          DC    C'''='                                                   33720021
 006DBE 03                          3588          DC    FL1'3'                                                   33730021
 006DBF 5B5BD4C1E840D5D6            3589 TX4019 DC      C'$$MAY NOT BE USE'                                      33740021
 006DC7 E340C2C540E4E2C5
 006DCF C440C1E240C1D9C9            3590        DC      C'D AS ARITHMETIC '                                      33750021
 006DD7 E3C8D4C5E3C9C340
 006DDF D6D7C5D9C1D5C440            3591        DC      C'OPERAND IN$STATE'                                      33760021
 006DE7 C9D55BE2E3C1E3C5
 006DEF D4C5D5E34B40C1D9            3592        DC    C'MENT. ARBITRARIL'                                        33770021
 006DF7 C2C9E3D9C1D9C9D3
 006DFF E87E                        3593        DC    C'Y='                                                      33780021
 006E01 09                          3594        DC    FL1'9'                                                     33790021
 006E02 E2C9C7D540C2C5C6            3595 TX4020 DC    C'SIGN BEFORE$IS='                                         33800021
 006E0A D6D9C55BC9E27E
 006E11 03                          3596        DC    FL1'3'                                                     33810021
 006E12 D4C9D5E4E240E2C9            3597 TX4021 DC      C'MINUS SIGN FOLLO'                                      33820021
 006E1A C7D540C6D6D3D3D6
 006E22 E6C5C440C2E840E2            3598        DC      C'WED BY SPACE ACC'                                      33830021
 006E2A D7C1C3C540C1C3C3
 006E32 C5D7E3C5C440C1E2            3599        DC      C'EPTED AS REVERSI'                                      33840021
 006E3A 40D9C5E5C5D9E2C9
 006E42 D5C740E2C9C7D540            3600        DC      C'NG SIGN OF FOLLO'                                      33850021
 006E4A D6C640C6D6D3D3D6
 006E52 E6C9D5C740D3C9E3            3601        DC      C'WING LITERAL/'                                         33860021
 006E5A C5D9C1D361
 006E5F C5E7C9E340D4E4E2            3602 TX4022 DC      C'EXIT MUST BE SIN'                                      33870021
 006E67 E340C2C540E2C9D5
 006E6F C7D3C560E6D6D9C4            3603        DC      C'GLE-WORD PARAGRA'                                      33880021
 006E77 40D7C1D9C1C7D9C1
 006E7F D7C840D7D9C5C3C5            3604        DC      C'PH PRECEDED BY A'                                      33890021
 006E87 C4C5C440C2E840C1
 006E8F 40D7D9D6C3C5C4E4            3605        DC      C' PROCEDURE-NAME.'                                      33900021
1PH70     IKFCBL70                                                                                              PAGE  104
-  LOC  OBJECT CODE    ADDR1 ADDR2  STMT   SOURCE STATEMENT                                       ASM 0201 11.03 02/14/15
0006E97 D9C560D5C1D4C54B
 006E9F 7E                          3606        DC      C'='                                                     33910021
 006EA0 06                          3607        DC      FL1'6'                                                   33920021
 006EA1 E2E3D6D9C560C6C9            3608 TX4023   DC    C'STORE-FIELD WHEN'                                      33930021
 006EA9 C5D3C440E6C8C5D5
 006EB1 40E4E2C5C440C9D5            3609          DC    C' USED IN COMPUTA'                                      33940021
 006EB9 40C3D6D4D7E4E3C1
 006EC1 E3C9D6D540D4E4E2            3610          DC    C'TION MUST BE NUM'                                      33950021
 006EC9 E340C2C540D5E4D4
 006ED1 C5D9C9C340C9E3C5            3611          DC    C'ERIC ITEM, '                                           33960021
 006ED9 D46B40
 006EDC D6E3C8C5D9E6C9E2            3612          DC    C'OTHERWISE IT MUS'                                      33970021
 006EE4 C540C9E340D4E4E2
 006EEC E340C2C540D9C5D7            3613          DC    C'T BE REPORT ITEM'                                      33980021
 006EF4 D6D9E340C9E3C5D4
 006EFC 40D6D940D5E4D4C5            3614          DC    C' OR NUMERIC'                                           33990021
 006F04 D9C9C3
 006F07 40C9E3C5D44B40C6            3615        DC    C' ITEM. FOUND$.='                                         34000021
 006F0F D6E4D5C45B4B7E
 006F16 06                          3616        DC    FL1'6'                                                     34010021
 006F17 E3E6D640D6D7C5D9            3617 TX4024 DC      C'TWO OPERANDS ARE'                                      34020021
 006F1F C1D5C4E240C1D9C5
 006F27 40                          3618        DC      C' '                                                     34030021
 006F28 D9C5D8E4C9D9C5C4            3619        DC      C'REQUIRED BEFORE '                                      34040021
 006F30 40C2C5C6D6D9C540
 006F38 7DC7C9E5C9D5C77D            3620        DC    C'''GIVING''.='                                            34050021
 006F40 4B7E
 006F42 06                          3621        DC    FL1'6'                                                     34060021
 006F43 61                          3622 TX4025 DC    C'/'                                                       34070021
 006F44 5B5BC9E240C9D3D3            3623 TX4026 DC      C'$$IS ILLEGALLY U'                                      34080021
 006F4C C5C7C1D3D3E840E4
 006F54 E2C5C440C9D55BE3            3624        DC    C'SED IN$TEST.='                                           34090021
 006F5C C5E2E34B7E
 006F61 04                          3625        DC    FL1'4'                                                     34100021
 006F62 D9C9C7C8E340E3C5            3626 TX4027 DC      C'RIGHT TERM OF A '                                      34110021
 006F6A D9D440D6C640C140
 006F72 C3D6D5C4C9E3C9D6            3627        DC      C'CONDITION MAY NO'                                      34120021
 006F7A D540D4C1E840D5D6
 006F82 E340C2C540D5C5C7            3628        DC      C'T BE NEGATED. NE'                                      34130021
 006F8A C1E3C5C44B40D5C5
 006F92 C7C1E3C9D6D540C9            3629        DC      C'GATION IS APPLIE'                                      34140021
 006F9A E240C1D7D7D3C9C5
 006FA2 C440E3D640E3C8C5            3630        DC      C'D TO THE RELATIO'                                      34150021
 006FAA 40D9C5D3C1E3C9D6
 006FB2 D5C1D361                    3631        DC      C'NAL/'                                                  34160021
 006FB6 E3E6D6407DD5D6E3            3632 TX4028 DC    C'TWO ''NOT''S'' I'                                        34170021
 006FBE 7DE27D40C9
 006FC3 D540E2E4C3C3C5E2            3633        DC    C'N SUCCESSION ILL'                                        34180021
 006FCB E2C9D6D540C9D3D3
 006FD3 C5C7C1D34B40C1C3            3634        DC    C'EGAL. ACCEPTED A'                                        34190021
 006FDB C3C5D7E3C5C440C1
 006FE3 E240C3C1D5C3C5D3            3635        DC    C'S CANCELLING EAC'                                        34200021
 006FEB D3C9D5C740C5C1C3
 006FF3 C840D6E3C8C5D961            3636        DC    C'H OTHER/'                                                34210021
 006FFB 5B5BD4C1E840D5D6            3637 TX4029 DC    C'$$MAY NOT BE COM'                                        34220021
1PH70     IKFCBL70                                                                                              PAGE  105
-  LOC  OBJECT CODE    ADDR1 ADDR2  STMT   SOURCE STATEMENT                                       ASM 0201 11.03 02/14/15
0007003 E340C2C540C3D6D4
 00700B D7C1D9C5C440E6C9            3638        DC    C'PARED WITH$$.='                                          34230021
 007013 E3C85B5B4B7E
 007019 04                          3639        DC    FL1'4'                                                     34240021
 00701A C6D6E4D5C4407D5B            3640 TX4030   DC    C'FOUND ''$'' AFTER COND'                                34250021
 007022 7D40C1C6E3C5D940
 00702A C3D6D5C4
 00702E C9E3C9D6D54B40C5            3641        DC    C'ITION. EXPECT '''                                        34260021
 007036 E7D7C5C3E3407D
 00703D D6D97D6B407DC1D5            3642        DC    C'OR'', ''AND'' OR'                                        34270021
 007045 C47D40D6D9
 00704A 40E5C5D9                    3643        DC    C' VER'                                                    34280021
 00704E C240E3D640C9D4D4            3644        DC    C'B TO IMMEDIATELY'                                        34290021
 007056 C5C4C9C1E3C5D3E8
 00705E 40C6D6D3D3D6E640            3645        DC    C' FOLLOW CONDITIO'                                        34300021
 007066 C3D6D5C4C9E3C9D6
 00706E D54B7E                      3646        DC    C'N.='                                                     34310021
 007071 08                          3647        DC    FL1'8'                                                     34320021
 007072 D7D9D6C3C5C4E4D9            3648 TX4031 DC      C'PROCEDURE-NAME N'                                      34330021
 00707A C560D5C1D4C540D5
 007082 D6E340E3C8C1E340            3649        DC      C'OT THAT OF A SIN'                                      34340021
 00708A D6C640C140E2C9D5
 007092 C7D3C540C7D640D7            3650        DC      C'GLE GO PARAGRAPH'                                      34350021
 00709A C1D9C1C7D9C1D7C8
 0070A2 40D4C1E840D5D6E3            3651        DC      C' MAY NOT BE ALTE'                                      34360021
 0070AA 40C2C540C1D3E3C5
 0070B2 D9C5C44B7E                  3652        DC      C'RED.='                                                 34370021
 0070B7 06                          3653        DC    FL1'6'                                                     34380021
 0070B8 D5D640C1C3E3C9D6            3654 TX4032 DC      C'NO ACTION INDICA'                                      34390021
 0070C0 D540C9D5C4C9C3C1
 0070C8 E3C5C440C9C640D7            3655        DC      C'TED IF PRECEDING'                                      34400021
 0070D0 D9C5C3C5C4C9D5C7
 0070D8 40C3D6D5C4C9E3C9            3656        DC      C' CONDITION IS TR'                                      34410021
 0070E0 D6D540C9E240E3D9
 0070E8 E4C54B40D5C5E7E3            3657          DC    C'UE. NEXT SENTEN'                                       34420021
 0070F0 40E2C5D5E3C5D5
 0070F7 C3C540C1E2E2E4D4            3658          DC    C'CE ASSUMED/'                                           34430021
 0070FF C5C461
 007102 D7D9D6C3C5C4E4D9            3659 TX4033 DC      C'PROCEDURE-NAME W'                                      34440021
 00710A C560D5C1D4C540E6
 007112 C8C9C3C840C9E240            3660        DC      C'HICH IS THE END-'                                      34450021
 00711A E3C8C540C5D5C460
 007122 D6C660D9C1D5C7C5            3661        DC      C'OF-RANGE OF A PE'                                      34460021
 00712A 40D6C640C140D7C5
 007132 D9C6D6D9D440E2E3            3662        DC      C'RFORM STATEMENT '                                      34470021
 00713A C1E3C5D4C5D5E340
 007142 D4C1E840D5D6E340            3663        DC      C'MAY NOT BE ALTER'                                      34480021
 00714A C2C540C1D3E3C5D9
 007152 C5C44B7E                    3664        DC      C'ED.='                                                  34490021
 007156 06                          3665        DC      FL1'6'                                                   34500021
 007157 C7D640C4C5D7C5D5            3666 TX4034 DC      C'GO DEPENDING ON '                                      34510021
 00715F C4C9D5C740D6D540
 007167 D4E4E2E340C2C540            3667        DC      C'MUST BE FOLLOWED'                                      34520021
 00716F C6D6D3D3D6E6C5C4
 007177 40                          3668        DC      C' '                                                     34530021
1PH70     IKFCBL70                                                                                              PAGE  106
-  LOC  OBJECT CODE    ADDR1 ADDR2  STMT   SOURCE STATEMENT                                       ASM 0201 11.03 02/14/15
0007178 C2E840C9D5E3C5C7            3669          DC    C'BY INTEGRAL IDENT'                                     34540021
 007180 D9C1D340C9C4C5D5
 007188 E3
 007189 C9C6C9C5D940D3C5            3670          DC    C'IFIER LESS THAN '                                      34550021
 007191 E2E240E3C8C1D540
 007199 D6D940C5D8E4C1D3            3671          DC    C'OR EQUAL TO '                    E                     34560021
 0071A1 40E3D640
 0071A5 F440C4C9C7C9E3E2            3672        DC      C'4 DIGITS IN LENG'                                      34570021
 0071AD 40C9D540D3C5D5C7
 0071B5 E3C84B40C6D6E4D5            3673        DC    C'TH. FOUND$.='                                            34580021
 0071BD C45B4B7E
 0071C1 06                          3674        DC    FL1'6'                                                     34590021
 0071C2 D5D640D4D6D9C540            3675 TX4035   DC    C'NO MORE THAN 3 I'                                      34600021
 0071CA E3C8C1D540F340C9
 0071D2 D5C4C5E740D5C1D4            3676          DC    C'NDEX NAMES OR ID'                                      34610021
 0071DA C5E240D6D940C9C4
 0071E2 C5D5E3C9C6C9C5D9            3677          DC    C'ENTIFIERS SHOULD'                                      34620021
 0071EA E240E2C8D6E4D3C4
 0071F2 40C2C540E5C1D9C9            3678        DC    C' BE VARIED IN PE'                                        34630021
 0071FA C5C440C9D540D7C5
 007202 D9C6D6D9D440E2E3            3679        DC    C'RFORM STATEMENT.'                                        34640021
 00720A C1E3C5D4C5D5E34B
 007212 7E                          3680        DC    C'='                                                       34650021
 007213 0B                          3681        DC    FL1'11'                                                    34660021
 007214 D7C5D9C6D6D9D440            3682 TX4036 DC      C'PERFORM RANGE IS'                                      34670021
 00721C D9C1D5C7C540C9E2
 007224 40                          3683        DC      C' '                                                     34680021
 007225 C6D9D6D45BE3D65B            3684        DC      C'FROM$TO$, WHICH '                                      34690021
 00722D 6B40E6C8C9C3C840
 007235 D7D9C5C3C5C4C5E2            3685        DC    C'PRECEDES IT.='                                           34700021
 00723D 40C9E34B7E
 007242 0B                          3686        DC    FL1'11'                                                    34710021
 007243 E2E8D5E3C1E740D9            3687 TX4037 DC      C'SYNTAX REQUIRES '                                      34720021
 00724B C5D8E4C9D9C5E240
 007253 D7D9D6C3C5C4E4D9            3688        DC      C'PROCEDURE-NAME T'                                      34730021
 00725B C560D5C1D4C540E3
 007263 D640C6D6D3D3D6E6            3689        DC      C'O FOLLOW ''THRU'''                                     34740021
 00726B 407DE3C8D9E47D
 007272 4B40C6D6E4D5C45B            3690        DC      C'. FOUND$.='                                            34750021
 00727A 4B7E
 00727C 05                          3691        DC    FL1'5'                                                     34760021
 00727D E5C1D9E8C9D5C740            3692 TX4038 DC      C'VARYING OPTION R'                                      34770021
 007285 D6D7E3C9D6D540D9
 00728D C5D8E4C9D9C5E240            3693          DC    C'EQUIRES INDEX NA'                                      34780021
 007295 C9D5C4C5E740D5C1
 00729D D4C540D6D940C9C4            3694          DC    C'ME OR IDENTIFIER'                                      34790021
 0072A5 C5D5E3C9C6C9C5D9
 0072AD 4B40C6D6E4D5C4              3695          DC    C'. FOUND'                                               34800021
 0072B4 40D3C9E3C5D9C1D3            3696        DC      C' LITERAL. ARBITR'                                      34810021
 0072BC 4B40C1D9C2C9E3D9
 0072C4 C1D9C9D3E87E                3697        DC    C'ARILY='                                                  34820021
 0072CA 09                          3698        DC    FL1'9'                                                     34830021
 0072CB 5B5BC9D540E5C1D9            3699 TX4039   DC    C'$$IN VARYING OR TIMES OPT'                             34840021
 0072D3 E8C9D5C740D6D940
 0072DB E3C9D4C5E240D6D7
1PH70     IKFCBL70                                                                                              PAGE  107
-  LOC  OBJECT CODE    ADDR1 ADDR2  STMT   SOURCE STATEMENT                                       ASM 0201 11.03 02/14/15
00072E3 E3
 0072E4 C9D6D540C9E240D5            3700        DC      C'ION IS NOT NUMER'                                      34850021
 0072EC D6E340D5E4D4C5D9
 0072F4 C9C34B40C1D9C2C9            3701        DC    C'IC. ARBITRARILY='                                        34860021
 0072FC E3D9C1D9C9D3E87E
 007304 09                          3702        DC    FL1'9'                                                     34870021
 007305 5BC6C9D3C55BD4C1            3703 TX4040 DC      C'$FILE$MAY NOT BE'                                      34880021
 00730D E840D5D6E340C2C5
 007315 40D6D7C5D5C5C45B            3704        DC    C' OPENED$AND IS='                                         34890021
 00731D C1D5C440C9E27E
 007324 03                          3705        DC    FL1'3'                                                     34900021
 007325 E2E8D5E3C1E740D9            3706 TX4041 DC      C'SYNTAX REQUIRES '                                      34910021
 00732D C5D8E4C9D9C5E240
 007335 7DC9D5D7E4E37D6B            3707        DC    C'''INPUT'', ''OUT'                                        34920021
 00733D 407DD6E4E3
 007342 D7E4E37D6B40D6D9            3708        DC    C'PUT'', OR ''I-O'                                         34930021
 00734A 407DC960D6
 00734F 7D40C1C6E3C5D940            3709        DC    C''' AFTER O'                                              34940021
 007357 D6
 007358 D7C5D54B40C6D6E4            3710        DC    C'PEN. FOUND$.='                                           34950021
 007360 D5C45B4B7E
 007365 08                          3711        DC    FL1'8'                                                     34960021
 007366 E2E8D5E3C1E740D9            3712 TX4042 DC      C'SYNTAX REQUIRES '                                      34970021
 00736E C5D8E4C9D9C5E240
 007376 C6C9D3C560D5C1D4            3713        DC      C'FILE-NAME IN$STA'                                      34980021
 00737E C540C9D55BE2E3C1
 007386 E3C5D4C5D5E34B40            3714        DC      C'TEMENT. FOUND$.'                                       34990021
 00738E C6D6E4D5C45B4B
 007395 7E                          3715        DC    C'='                                                       35000021
 007396 07                          3716        DC    FL1'7'                                                     35010021
 007397 D9C5E6D9C9E3C540            3717 TX4043   DC    C'REWRITE STATEMEN'                                      35020021
 00739F E2E3C1E3C5D4C5D5
 0073A7 E340E2C8D6E4D3C4            3718          DC    C'T SHOULD NOT BE '                                      35030021
 0073AF 40D5D6E340C2C540
 0073B7 E4E2C5C440E6C9E3            3719          DC    C'USED WITH A DIRE'                                      35040021
 0073BF C840C140C4C9D9C5
 0073C7 C3E340C2C4C1D460            3720          DC    C'CT BDAM-D FILE.='                                      35050021
 0073CF C440C6C9D3C54B7E
 0073D7 0B                          3721          DC    FL1'11'                                                  35060021
 0073D8 5B5BE2C8D6E4D3C4            3722 TX4044   DC    C'$$SHOULD NOT BE '                                      35070021
 0073E0 40D5D6E340C2C540
 0073E8 D4                          3723          DC    C'M'                                                     35080021
 0073E9 D6E5C5C440E3D640            3724          DC    C'OVED TO NUMERIC '                                      35090021
 0073F1 D5E4D4C5D9C9C340
 0073F9 C6C9C5D3C44B7E              3725          DC    C'FIELD.='                                               35100021
 007400 09                          3726          DC    FL1'9'                                                   35110021
 007401 7DC1C4E5C1D5C3C9            3727 TX4045 DC    C'''ADVANCING'' OP'                                        35120021
 007409 D5C77D40D6D7
 00740F E3C9                        3728        DC    C'TI'                                                      35130021
 007411 D6D540D4E4E2E340            3729        DC    C'ON MUST BE FOLLO'                                        35140021
 007419 C2C540C6D6D3D3D6
 007421 E6C5C440C2E840D4            3730        DC    C'WED BY MNEMONIC '                                        35150021
 007429 D5C5D4D6D5C9C340
 007431 D5C1D4C56B40D5E4            3731        DC    C'NAME, NUMERIC IN'                                        35160021
 007439 D4C5D9C9C340C9D5
1PH70     IKFCBL70                                                                                              PAGE  108
-  LOC  OBJECT CODE    ADDR1 ADDR2  STMT   SOURCE STATEMENT                                       ASM 0201 11.03 02/14/15
0007441 E3C5C7D9C1D340C4            3732        DC    C'TEGRAL DATA-NAME'                                        35170021
 007449 C1E3C160D5C1D4C5
 007451 40D6D940C9D5E3C5            3733        DC    C' OR INTEGER LESS'                                        35180021
 007459 C7C5D940D3C5E2E2
 007461 40E3C8C1D540F1F0            3734        DC    C' THAN 100. FOUND'                                        35190021
 007469 F04B40C6D6E4D5C4
 007471 5B4B7E                      3735        DC    C'$.='                                                     35200021
 007474 09                          3736        DC    FL1'9'                                                     35210021
 007475 C9D3D3C5C7C1D340            3737 TX4046 DC    C'ILLEGAL TO$$FILE'                                        35220021
 00747D E3D65B5BC6C9D3C5
 007485 5B4B7E                      3738        DC    C'$.='                                                     35230021
 007488 06                          3739        DC    FL1'6'                                                     35240021
 007489 D9C5C1C440D6D940            3740 TX4047   DC    C'READ OR WRITE VE'                                      35250021
 007491 E6D9C9E3C540E5C5
 007499 D9C240C9D3D3C5C7            3741          DC    C'RB ILLEGAL FOR L'                                      35260021
 0074A1 C1D340C6D6D940D3
 0074A9 C1C2C5D340D9C5C3            3742          DC    C'ABEL RECORDS.='                                        35270021
 0074B1 D6D9C4E24B7E
 0074B7 06                          3743        DC    FL1'6'                                                     35280021
 0074B8 E4E2C540E5C5D9C2            3744 TX4048 DC      C'USE VERB MAY NOT'                                      35290021
 0074C0 40D4C1E840D5D6E3
 0074C8 40                          3745        DC      C' '                                                     35300021
 0074C9 C1D7D7C5C1D940C5            3746        DC      C'APPEAR EXCEPT IN'                                      35310021
 0074D1 E7C3C5D7E340C9D5
 0074D9 40                          3747        DC      C' '                                                     35320021
 0074DA C4C5C3D3C1D9C1E3            3748        DC      C'DECLARATIVES SEC'                                      35330021
 0074E2 C9E5C5E240E2C5C3
 0074EA E3C9D6D54B7E                3749        DC    C'TION.='                                                  35340021
 0074F0 06                          3750        DC    FL1'6'                                                     35350021
 0074F1 C9D5C1D7D7D9D6D7            3751 TX4049 DC      C'INAPPROPRIATE OP'                                      35360021
 0074F9 D9C9C1E3C540D6D7
 007501 E3C9D6D5C1D340C3            3752        DC      C'TIONAL CO'                                             35370021
 007509 D6
 00750A C2D6D340E6D6D9C4            3753        DC      C'BOL WORDS PRECED'                                      35380021
 007512 E240D7D9C5C3C5C4
 00751A C9D5C75B7E                  3754        DC    C'ING$='                                                   35390021
 00751F 02                          3755        DC    FL1'2'                                                     35400021
 007520 E2E8D5E3C1E740D9            3756 TX4050 DC      C'SYNTAX REQUIRES$'                                      35410021
 007528 C5D8E4C9D9C5E25B
 007530 4B40C6D6E4D5C45B            3757        DC    C'. FOUND$.='                                              35420021
 007538 4B7E
 00753A 06                          3758        DC    FL1'6'                                                     35430021
 00753B 7DC1C6E3C5D940D7            3759 TX4051   DC    C'''AFTER POSITION'                                      35440021
 007543 D6E2C9E3C9D6D5
 00754A C9D5C77D40D9C5D8            3760          DC    C'ING'' REQUIRES 1'                                      35450021
 007552 E4C9D9C5E240F1
 007559 60C3C8C1D9C1C3E3            3761          DC    C'-CHARACTER ALPHA'                                      35460021
 007561 C5D940C1D3D7C8C1
 007569 D5E4D4C5D9C9C340            3762        DC    C'NUMERIC DATA-NAM'                                        35470021
 007571 C4C1E3C160D5C1D4
 007579 C540D6D940C9D5E3            3763          DC    C'E OR INTEGER LES'                                      35480021
 007581 C5C7C5D940D3C5E2
 007589 E240E3C8C1D540F4            3764          DC    C'S THAN 4. FOUND$'                                      35490021
 007591 4B40C6D6E4D5C45B
 007599 4B7E                        3765          DC    C'.='                                                    35500021
1PH70     IKFCBL70                                                                                              PAGE  109
-  LOC  OBJECT CODE    ADDR1 ADDR2  STMT   SOURCE STATEMENT                                       ASM 0201 11.03 02/14/15
000759B 09                          3766          DC    FL1'9'                                                   35510021
 00759C 5B5BD4C1E840D5D6            3767 TX4052 DC      C'$$MAY NOT BE TAR'                                      35520021
 0075A4 E340C2C540E3C1D9
 0075AC C7C5E340C6C9C5D3            3768        DC      C'GET FIELD FOR$$I'                                      35530021
 0075B4 C440C6D6D95B5BC9
 0075BC D55BE2E3C1E3C5D4            3769        DC    C'N$STATEMENT, AND'                                        35540021
 0075C4 C5D5E36B40C1D5C4
 0075CC 40C9E27E                    3770        DC    C' IS='                                                    35550021
 0075D0 03                          3771        DC    FL1'3'                                                     35560021
 0075D1 D7D6E2C9E3C9D6D5            3772 TX4053   DC    C'POSITIONING VALI'                                      35570021
 0075D9 C9D5C740E5C1D3C9
 0075E1 C440C6D6D940C3D3            3773          DC    C'D FOR CLOSE REEL'                                      35580021
 0075E9 D6E2C540D9C5C5D3
 0075F1 40E6C8C9D3C540C4            3774          DC    C' WHILE DISP VALI'                                      35590021
 0075F9 C9E2D740E5C1D3C9
 007601 C440C6D6D940C3D3            3775          DC    C'D FOR CLOSE.$FIL'                                      35600021
 007609 D6E2C54B5BC6C9D3
 007611 C540E2D2C9D7D7C5            3776          DC    C'E SKIPPED/'                                            35610021
 007619 C461
 00761B E2E8D5E3C1E740D9            3777 TX4054 DC      C'SYNTAX REQUIRES '                                      35620021
 007623 C5D8E4C9D9C5E240
 00762B E2D6D9E360C6C9D3            3778        DC      C'SORT-FILE NAME. '                                      35630021
 007633 C540D5C1D4C54B40
 00763B C6D6E4D5C45B4B7E            3779        DC    C'FOUND$.='                                                35640021
 007643 06                          3780        DC    FL1'6'                                                     35650021
 007644 E2D6D9E340E2C5D8            3781 TX4055 DC      C'SORT SEQUENCE NO'                                      35660021
 00764C E4C5D5C3C540D5D6
 007654 E340E2D7C5C3C9C6            3782        DC      C'T SPECIFIED. ASC'                                      35670021
 00765C C9C5C44B40C1E2C3
 007664 C5D5C4C9D5C77E              3783        DC    C'ENDING='                                                 35680021
 00766B 01                          3784        DC    FL1'1'                                                     35690021
 00766C E2E8D5E3C1E740D9            3785 TX4056 DC      C'SYNTAX REQUIRES$'                                      35700021
 007674 C5D8E4C9D9C5E25B
 00767C 4B40C6D6E4D5C45B            3786        DC    C'. FOUND$.='                                              35710021
 007684 4B7E
 007686 03                          3787        DC    FL1'3'                                                     35720021
 007687 D5E4D4C2C5D940D6            3788 TX4057 DC    C'NUMBER OF SORT K'                                        35730021
 00768F C640E2D6D9E340D2
 007697 C5E8E240C5E7C3C5            3789        DC    C'EYS EXCEEDS MAXI'                                        35740021
 00769F C5C4E240D4C1E7C9
 0076A7 D4E4D440D6D940E3            3790        DC    C'MUM OR TOTAL KEY'                                        35750021
 0076AF D6E3C1D340D2C5E8
 0076B7 40D3C5D5C7E3C840            3791        DC    C' LENGTH EXCEEDS '                                        35760021
 0076BF C5E7C3C5C5C4E240
 0076C7 F2F5F640C2E8E3C5            3792        DC    C'256 BYTES.$='                                            35770021
 0076CF E24B5B7E
 0076D3 03                          3793        DC    FL1'3'                                                     35780021
 0076D4 E2E8D5E3C1E740D9            3794 TX4058 DC      C'SYNTAX REQUIRES '                                      35790021
 0076DC C5D8E4C9D9C5E240
 0076E4 7DE4E2C9D5C77D40            3795        DC      C'''USING'' (''GI'                                       35800021
 0076EC 4D7DC7C9
 0076F0 E5C9D5C77D5D40E3            3796        DC      C'VING'') T'                                             35810021
 0076F8 D640C2C540C6D6D3            3797        DC      C'O BE FOLLOWED BY'                                      35820021
 007700 D3D6E6C5C440C2E8
 007708 40E2E3C1D5C4C1D9            3798          DC    C' STANDARD SEQUEN'                                      35830021
1PH70     IKFCBL70                                                                                              PAGE  110
-  LOC  OBJECT CODE    ADDR1 ADDR2  STMT   SOURCE STATEMENT                                       ASM 0201 11.03 02/14/15
0007710 C440E2C5D8E4C5D5
 007718 E3C9C1D340C6C9D3            3799        DC    C'TIAL FILE-NAME DE'                                       35840021
 007720 C560D5C1D4C540C4
 007728 C5
 007729 C6C9D5C5                    3800          DC    C'FINE'                                                  35850021
 00772D C440E4D5C4C5D940            3801        DC      C'D UNDER AN FD. F'                                      35860021
 007735 C1D540C6C44B40C6
 00773D D6E4D5C45B4B7E              3802        DC    C'OUND$.='                                                 35870021
 007744 06                          3803        DC    FL1'6'                                                     35880021
 007745 E2D6D9E360D2C5E8            3804 TX4059   DC    C'SORT-KEY MUST BE'                                      35890021
 00774D 40D4E4E2E340C2C5
 007755 40D5D6D560E2E4C2            3805          DC    C' NON-SUBSCRIPTED'                                      35900021
 00775D E2C3D9C9D7E3C5C4
 007765 40C1D5C440D5D6D5            3806        DC    C' AND NON-INDEXED'                                        35910021
 00776D 60C9D5C4C5E7C5C4
 007775 40C6C9E7C5C460D3            3807          DC    C' FIXED-LENGTH DA'                                      35920021
 00777D C5D5C7E3C840C4C1
 007785 E3C160D5C1D4C540            3808          DC    C'TA-NAME DEFINED '                                      35930021
 00778D C4C5C6C9D5C5C440
 007795 E4D5C4C5D940C1D5            3809          DC    C'UNDER AN SD. FOU'                                      35940021
 00779D 40E2C44B40C6D6E4
 0077A5 D5C45B4B7E                  3810          DC    C'ND$.='                                                 35950021
 0077AA 03                          3811          DC    FL1'3'                                                   35960021
 0077AB 5BC9E240D5D6E340            3812 TX4060 DC      C'$IS NOT A POSITI'                                      35970021
 0077B3 C140D7D6E2C9E3C9
 0077BB E5C540D5E4D4C5D9            3813        DC    C'VE NUMERIC INTEG'                                        35980021
 0077C3 C9C340C9D5E3C5C7
 0077CB D9C1D340D3C9E3C5            3814        DC    C'RAL LITER'                                               35990021
 0077D3 D9
 0077D4 C1D340D6C640D9C5            3815        DC      C'AL OF REQUIRED L'                                      36000021
 0077DC D8E4C9D9C5C440D3
 0077E4 C5D5C7E3C84B7E              3816        DC      C'ENGTH.='                                               36010021
 0077EB 05                          3817        DC    FL1'5'                                                     36020021
 0077EC D5C5C9E3C8C5D940            3818 TX4061 DC      C'NEITHER NAMED NO'                                      36030021
 0077F4 D5C1D4C5C440D5D6
 0077FC D940C3C8C1D5C7C5            3819        DC      C'R CHANGED SPECIF'                                      36040021
 007804 C440E2D7C5C3C9C6
 00780C C9C5C44B40E2E3C1            3820        DC      C'IED. STATEMENT A'                                      36050021
 007814 E3C5D4C5D5E340C1
 00781C C3C3C5D7E3C5C44B            3821        DC      C'CCEPTED. WILL BE'                                      36060021
 007824 40E6C9D3D340C2C5
 00782C 40                          3822        DC      C' '                                                     36070021
 00782D E3D9C5C1E3C5C440            3823        DC      C'TREATED AS FORMA'                                      36080021
 007835 C1E240C6D6D9D4C1
 00783D E3E3C5C440C4C9E2            3824        DC      C'TTED DISPLAY/'                                         36090021
 007845 D7D3C1E861
 00784A 7DD5C1D4C5C440C3            3825 TX4062 DC      C'''NAMED CHANGED'                                       36100021
 007852 C8C1D5C7C5C4
 007858 7D40C1C3C3C5D7E3            3826        DC      C''' ACCEPTED AS '                                       36110021
 007860 C5C440C1E240
 007866 7DC3C8C1D5C7C5C4            3827        DC      C'''CHANGED NAMED'                                       36120021
 00786E 40D5C1D4C5C4
 007874 7D61                        3828        DC      C'''/'                                                   36130021
 007876 D7D9C5E5C9D6E4E2            3829 TX4063 DC      C'PREVIOUS DEBUG P'                                      36140021
 00787E 40C4C5C2E4C740D7
1PH70     IKFCBL70                                                                                              PAGE  111
-  LOC  OBJECT CODE    ADDR1 ADDR2  STMT   SOURCE STATEMENT                                       ASM 0201 11.03 02/14/15
0007886 C1C3D2C5E340D9C5            3830        DC      C'ACKET REFERS TO '                                      36150021
 00788E C6C5D9E240E3D640
 007896 E2C1D4C540D7D9D6            3831        DC      C'SAME PROCEDURE-N'                                      36160021
 00789E C3C5C4E4D9C560D5
 0078A6 C1D4C54B7E                  3832        DC      C'AME.='                                                 36170021
 0078AB 0E                          3833        DC      FL1'14'                                                  36180021
 0078B0                             3834 IKF710 CSECT                                                            36190021
 0078B0 5BC9E240D5D6E340            3835 TX4064 DC      C'$IS NOT A POSITI'                                      36200021
 0078B8 C140D7D6E2C9E3C9
 0078C0 E5C540D5E4D4C5D9            3836        DC    C'VE NUMERIC INTEG'                                        36210021
 0078C8 C9C340C9D5E3C5C7
 0078D0 D9C1D340D3C9E3C5            3837        DC    C'RAL LITER'                                               36220021
 0078D8 D9
 0078D9 C1D340D6C640D9C5            3838        DC      C'AL OF REQUIRED L'                                      36230021
 0078E1 D8E4C9D9C5C440D3
 0078E9 C5D5C7E3C84B7E              3839        DC    C'ENGTH.='                                                 36240021
 0078F0 09                          3840        DC    FL1'9'                                                     36250021
 0078F1 D5E4D4C5D9C9C340            3841 TX4065 DC    C'NUMERIC LITERAL '                                        36260021
 0078F9 D3C9E3C5D9C1D340
 007901 C9D540C5E7C1D4C9            3842        DC    C'IN EXAMINE STATE'                                        36270021
 007909 D5C540E2E3C1E3C5
 007911 D4C5D5E340E2C8D6            3843        DC    C'MENT SHOULD BE U'                                        36280021
 007919 E4D3C440C2C540E4
 007921 D5E2C9C7D5C5C44B            3844        DC    C'NSIGNED. SIGN='                                          36290021
 007929 40E2C9C7D57E
 00792F 02                          3845        DC    FL1'2'                                                     36300021
 007930 E2E8D5E3C1E740D9            3846 TX4066 DC      C'SYNTAX REQUIRES '                                      36310021
 007938 C5D8E4C9D9C5E240
 007940 F0F140D3C5E5C5D3            3847        DC      C'01 LEVEL SD DATA'                                      36320021
 007948 40E2C440C4C1E3C1
 007950 60D5C1D4C540C9D5            3848        DC      C'-NAME IN RELEASE'                                      36330021
 007958 40D9C5D3C5C1E2C5
 007960 40                          3849        DC      C' '                                                     36340021
 007961 E2E3C1E3C5D4C5D5            3850        DC      C'STATEMENT. FOUND'                                      36350021
 007969 E34B40C6D6E4D5C4
 007971 5B4B7E                      3851        DC    C'$.='                                                     36360021
 007974 06                          3852        DC    FL1'6'                                                     36370021
 007975 C1D3D340C3C8C1D9            3853 TX4067 DC    C'ALL CHARACTER SH'                                        36380021
 00797D C1C3E3C5D940E2C8
 007985 D6E4D3C440D5D6E3            3854        DC    C'OULD NOT BE USED'                                        36390021
 00798D 40C2C540E4E2C5C4
 007995 40C1E240D3C9E3C5            3855        DC    C' AS LITERAL IN E'                                        36400021
 00799D D9C1D340C9D540C5
 0079A5 E7C1D4C9D5C540E2            3856        DC    C'XAMINE STATEMENT'                                        36410021
 0079AD E3C1E3C5D4C5D5E3
 0079B5 4B7E                        3857        DC    C'.='                                                      36420021
 0079B7 0B                          3858        DC    FL1'11'                                                    36430021
 0079B8 7E                          3859 TX4068   DC    C'='                                                     36440021
 0079B9 10                          3860          DC    FL1'16'                                                  36450021
 0079BA E2E8D5E3C1E740D9            3861 TX4069 DC      C'SYNTAX REQUIRES '                                      36460021
 0079C2 C5D8E4C9D9C5E240
 0079CA C4C5E5C9C3C560D5            3862        DC      C'DEVICE-NAME. FOU'                                      36470021
 0079D2 C1D4C54B40C6D6E4
 0079DA D5C45BC9D55BE2E3            3863        DC      C'ND$IN$STATEMENT.'                                      36480021
 0079E2 C1E3C5D4C5D5E34B
1PH70     IKFCBL70                                                                                              PAGE  112
-  LOC  OBJECT CODE    ADDR1 ADDR2  STMT   SOURCE STATEMENT                                       ASM 0201 11.03 02/14/15
00079EA 40E2E8E2E3C5D440            3864        DC    C' SYSTEM UNIT='                                           36490021
 0079F2 E4D5C9E37E
 0079F7 01                          3865        DC    FL1'1'                                                     36500021
 0079F8 7DC1E360C5D5C47D            3866 TX4070 DC    C'''AT-END'' CLAUS'                                        36510021
 007A00 40C3D3C1E4E2
 007A06 C540D9C5D8E4C9D9            3867        DC    C'E REQUIRED HERE.'                                        36520021
 007A0E C5C440C8C5D9C54B
 007A16 407DC1E360C5D5C4            3868        DC    C' ''AT-END-NEXT-S'                                        36530021
 007A1E 60D5C5E7E360E2
 007A25 C5D5E3C5D5C3C57D            3869        DC    C'ENTENCE''='                                              36540021
 007A2D 7E
 007A2E 01                          3870        DC    FL1'1'                                                     36550021
 007A2F 5BC5E7C3C5C5C4E2            3871 TX4071 DC      C'$EXCEEDS LEGAL L'                                      36560021
 007A37 40D3C5C7C1D340D3
 007A3F C5D5C7E3C84B7E              3872        DC      C'ENGTH.='                                               36570021
 007A46 03                          3873        DC      FL1'3'                                                   36580021
 007A47 C5E7C9E340C6D9D6            3874 TX4072 DC      C'EXIT FROM$PROCED'                                      36590021
 007A4F D45BD7D9D6C3C5C4
 007A57 E4D9C540C1E2E2E4            3875        DC      C'URE ASSUMED BEFO'                                      36600021
 007A5F D4C5C440C2C5C6D6
 007A67 D9C55B61                    3876        DC      C'RE$/'                                                  36610021
 007A6B 5BE2C8D6E4D3                3877 TX4073 DC    C'$SHOUL'                                                  36620021
 007A71 C440D5D6E340C1D7            3878        DC      C'D NOT APPEAR IN '                                      36630021
 007A79 D7C5C1D940C9D540
 007A81 C4C5C3D3C1D9C1E3            3879        DC      C'DECLARATIVE SECT'                                      36640021
 007A89 C9E5C540E2C5C3E3
 007A91 C9D6D54B7E                  3880        DC    C'ION.='                                                   36650021
 007A96 0B                          3881        DC    FL1'11'                                                    36660021
 007A97 E2E3C1E3C5D4C5D5            3882 TX4074   DC    C'STATEMENT CONTAINS FLOATING '                          36670021
 007A9F E340C3D6D5E3C1C9
 007AA7 D5E240C6D3D6C1E3
 007AAF C9D5C740
 007AB3 D7D6C9D5E340C4C1            3883          DC    C'POINT DATA ITEMS. REMAINDER='                          36680021
 007ABB E3C140C9E3C5D4E2
 007AC3 4B40D9C5D4C1C9D5
 007ACB C4C5D97E
 007ACF 02                          3884          DC    FL1'02'                                                  36690021
 007AD0 7DD5C5E7E340E2C5            3885 TX4075 DC    C'''NEXT SENTENCE'                                         36700021
 007AD8 D5E3C5D5C3C5
 007ADE 7D40                        3886        DC    C''' '                                                     36710021
 007AE0 C9D3D3C5C7C1D340            3887          DC    C'ILLEGAL AND DISC'                                      36720021
 007AE8 C1D5C440C4C9E2C3
 007AF0 C1D9C4C5C44B40C2            3888        DC    C'ARDED. BOTH'                                             36730021
 007AF8 D6E3C8
 007AFB 5BC1D5C440D5                3889        DC    C'$AND N'                                                  36740021
 007B01 D6E35BE6C9D3D340            3890          DC    C'OT$WILL CAUSE EX'                                      36750021
 007B09 C3C1E4E2C540C5E7
 007B11 C5C3E4E3C9D6D540            3891          DC    C'ECUTION OF NEXT '                                      36760021
 007B19 D6C640D5C5E7E340
 007B21 E5C5D9C261                  3892          DC    C'VERB/'                                                 36770021
 007B26 5BD9C5D8E4C9D9C5            3893 TX4076 DC    C'$REQUIRES$LEVELS'                                        36780021
 007B2E E25BD3C5E5C5D3E2
 007B36 40D6C640E2E4C2E2            3894        DC    C' OF SUBSCRIPTING'                                        36790021
 007B3E C3D9C9D7E3C9D5C7
 007B46 40D6D940C9D5C4C5            3895        DC    C' OR INDEXING.='                                          36800021
1PH70     IKFCBL70                                                                                              PAGE  113
-  LOC  OBJECT CODE    ADDR1 ADDR2  STMT   SOURCE STATEMENT                                       ASM 0201 11.03 02/14/15
0007B4E E7C9D5C74B7E
 007B54 0A                          3896        DC    FL1'10'                                                    36810021
 007B55 5BD4C1E840D5D6E3            3897 TX4077 DC      C'$MAY NOT BE USED'                                      36820021
 007B5D 40C2C540E4E2C5C4
 007B65 40                          3898        DC      C' '                                                     36830021
 007B66 C1E240C140E2E4C2            3899        DC      C'AS A SUBSCRIPT S'                                      36840021
 007B6E E2C3D9C9D7E340E2
 007B76 C9D5C3C540C9E340            3900        DC      C'INCE IT REQUIRES'                                      36850021
 007B7E D9C5D8E4C9D9C5E2
 007B86 40                          3901        DC      C' '                                                     36860021
 007B87 E2E4C2E2C3D9C9D7            3902        DC      C'SUBSCRIPTING ITS'                                      36870021
 007B8F E3C9D5C740C9E3E2
 007B97 C5D3C64B7E                  3903        DC    C'ELF.='                                                   36880021
 007B9C 0A                          3904        DC    FL1'10'                                                    36890021
 007B9D E2E4C2E2C3D9C9D7            3905 TX4078 DC      C'SUBSCRIPT MUST B'                                      36900021
 007BA5 E340D4E4E2E340C2
 007BAD C540C9D5E3C5C7D9            3906        DC      C'E INTEGRAL DATA-'                                      36910021
 007BB5 C1D340C4C1E3C160
 007BBD D5C1D4C540D6D940            3907        DC      C'NAME OR LITERAL.'                                      36920021
 007BC5 D3C9E3C5D9C1D34B
 007BCD 40C6D6E4D5C440D5            3908        DC      C' FOUND NON-INTEG'                                      36930021
 007BD5 D6D560C9D5E3C5C7
 007BDD C5D95B4B7E                  3909        DC    C'ER$.='                                                   36940021
 007BE2 0A                          3910        DC    FL1'10'                                                    36950021
 007BE3 5BC6D6E4D5C440C1            3911 TX4079 DC      C'$FOUND AMONG SUB'                                      36960021
 007BEB D4D6D5C740E2E4C2
 007BF3 E2C3D9C9D7E3E24B            3912        DC    C'SCRIPTS.='                                               36970021
 007BFB 7E
 007BFC 0A                          3913        DC    FL1'10'                                                    36980021
 007BFD C4C5C2E4C740C3C1            3914 TX4080 DC    C'DEBUG CARD MAY '                                         36990021
 007C05 D9C440D4C1E840
 007C0C D5D6E340D9C5C6C5            3915        DC      C'NOT REFER TO A P'                                      37000021
 007C14 D940E3D640C140D7
 007C1C D9D6C3C5C4E4D9C5            3916        DC    C'ROCEDURE NAME WH'                                        37010021
 007C24 40D5C1D4C540E6C8
 007C2C C9C3                        3917        DC    C'IC'                                                      37020021
 007C2E C840C9E3E2C5D3C6            3918        DC      C'H ITSELF IS IN A'                                      37030021
 007C36 40C9E240C9D540C1
 007C3E 40C4C5C2E4C740D7            3919        DC      C' DEBUG PACKET.='                                       37040021
 007C46 C1C3D2C5E34B7E
 007C4D 0E                          3920        DC      FL1'14'                                                  37050021
 007C4E 5BC5E7C3C5C5C4E2            3921 TX4081 DC    C'$EXCEEDS$CHARACT'                                        37060021
 007C56 5BC3C8C1D9C1C3E3
 007C5E C5D9E24B40E4D740            3922          DC    C'ERS. UP TO 114 A'                                      37070021
 007C66 E3D640F1F1F440C1
 007C6E C3C3C5D7E3C5C461            3923        DC    C'CCEPTED/'                                                37080021
 007C76 5BC9E240D5D6E340            3924 TX4082 DC    C'$IS NOT DEFINED'                                         37090021
 007C7E C4C5C6C9D5C5C4
 007C85 40C1E240E2E4C2E2            3925        DC    C' AS SUBSCRIPTED '                                        37100021
 007C8D C3D9C9D7E3C5C440
 007C95 D6D940C9D5C4C5E7            3926        DC    C'OR INDEXED. SUBS'                                        37110021
 007C9D C5C44B40E2E4C2E2
 007CA5 C3D9C9D7E3E27E              3927        DC    C'CRIPTS='                                                 37120021
 007CAC 03                          3928        DC    FL1'3'                                                     37130021
 007CAD D6C3C3E4D9E260C4            3929 TX4083 DC    C'OCCURS-DEPENDING'                                        37140021
1PH70     IKFCBL70                                                                                              PAGE  114
-  LOC  OBJECT CODE    ADDR1 ADDR2  STMT   SOURCE STATEMENT                                       ASM 0201 11.03 02/14/15
0007CB5 C5D7C5D5C4C9D5C7
 007CBD 60D6D540E5C1D9C9            3930        DC    C'-ON VARIABLE MUS'                                        37150021
 007CC5 C1C2D3C540D4E4E2
 007CCD E340C2C540C9D5E3            3931        DC    C'T BE INTEGRAL NO'                                        37160021
 007CD5 C5C7D9C1D340D5D6
 007CDD D560E2E4C2E2C3D9            3932        DC    C'N-SUBSCRIPTED DA'                                        37170021
 007CE5 C9D7E3C5C440C4C1
 007CED E3C160D5C1D4C54B            3933        DC    C'TA-NAME. FOUND$.'                                        37180021
 007CF5 40C6D6E4D5C45B4B
 007CFD 40C1D9C2C9E3D9C1            3934        DC    C' ARBITRARILY='                                           37190021
 007D05 D9C9D3E87E
 007D0A 09                          3935        DC    FL1'9'                                                     37200021
 007D0B C9D3D3D6C7C9C3C1            3936 TX4084 DC    C'ILLOGICAL USE OF'                                        37210021
 007D13 D340E4E2C540D6C6
 007D1B 40D7C1D9C5D5E3C8            3937        DC    C' PARENTHESES ACC'                                        37220021
 007D23 C5E2C5E240C1C3C3
 007D2B C5D7E3C5C440E6C9            3938        DC    C'EPTED WITH DOUBT'                                        37230021
 007D33 E3C840C4D6E4C2E3
 007D3B E240C1E240E3D640            3939        DC    C'S AS TO MEANING/'                                        37240021
 007D43 D4C5C1D5C9D5C761
 007D4B D9C5C3D6D9C440C4            3940 TX4085 DC    C'RECORD DESCRIPTI'                                        37250021
 007D53 C5E2C3D9C9D7E3C9
 007D5B D6D540C6D6D940C6            3941        DC    C'ON FOR FILE$MISS'                                        37260021
 007D63 C9D3C55BD4C9E2E2
 007D6B C9D5C740D6D940C9            3942        DC    C'ING OR ILLEGAL.='                                        37270021
 007D73 D3D3C5C7C1D34B7E
 007D7B 06                          3943        DC    FL1'6'                                                     37280021
 007D7C 5BC3D6D5C4C9E3C9            3944 TX4086 DC    C'$CONDITION USED '                                        37290021
 007D84 D6D540E4E2C5C440
 007D8C E6C8C5D9C540D6D5            3945        DC    C'WHERE ONLY IMPER'                                        37300021
 007D94 D3E840C9D4D7C5D9
 007D9C C1E3C9E5C540E2E3            3946        DC    C'ATIVE STATEMENTS'                                        37310021
 007DA4 C1E3C5D4C5D5E3E2
 007DAC 40C1D9C540D3C5C7            3947        DC    C' ARE LEGAL MAY C'                                        37320021
 007DB4 C1D340D4C1E840C3
 007DBC C1E4E2C540C5D9D9            3948        DC    C'AUSE ERRORS IN P'                                        37330021
 007DC4 D6D9E240C9D540D7
 007DCC D9D6C3C5E2E2C9D5            3949        DC    C'ROCESSING/'                                              37340021
 007DD4 C761
 007DD6 7DC5D5C440C4C5C3            3950 TX4087 DC    C'''END DECLARATIV'                                        37350021
 007DDE D3C1D9C1E3C9E5
 007DE5 C5E27D40D4C9E2E2            3951        DC    C'ES'' MISSING OR '                                        37360021
 007DED C9D5C740D6D940
 007DF4 D4C9                        3952        DC    C'MI'                                                      37370021
 007DF6 E2D7D3C1C3C5C44B            3953        DC      C'SPLACED. PROGRAM'                                      37380021
 007DFE 40D7D9D6C7D9C1D4
 007E06 40C3C1D5D5D6E340            3954        DC      C' CANNOT BE EXECU'                                      37390021
 007E0E C2C540C5E7C5C3E4
 007E16 E3C5C461                    3955        DC      C'TED/'                                                  37400021
 007E1A 7E                          3956 TX4088   DC    C'='                                                     37410021
 007E1B 10                          3957          DC    FL1'16'                                                  37420021
 007E1C 5B5BE2C8D6E4D3C4            3958 TX4089 DC    C'$$SHOULD NOT BE '                                        37430021
 007E24 40D5D6E340C2C540
 007E2C E3C1D9C7C5E340C6            3959        DC    C'TARGET FIELD FOR'                                        37440021
 007E34 C9C5D3C440C6D6D9
1PH70     IKFCBL70                                                                                              PAGE  115
-  LOC  OBJECT CODE    ADDR1 ADDR2  STMT   SOURCE STATEMENT                                       ASM 0201 11.03 02/14/15
0007E3C 5B5BC9D55BE2E3C1            3960        DC    C'$$IN$STATEMENT.='                                        37450021
 007E44 E3C5D4C5D5E34B7E
 007E4C 0B                          3961          DC    FL1'11'                                            0321  37460021
 007E4D E2D6D9E360D2C5E8            3962 TX4090 DC    C'SORT-KEY MUST BE'                                        37470021
 007E55 40D4E4E2E340C2C5
 007E5D 40C9D540C6C9E7C5            3963        DC    C' IN FIXED POSITI'                                        37480021
 007E65 C440D7D6E2C9E3C9
 007E6D D6D540D5D6E340D4            3964        DC    C'ON NOT MORE THAN'                                        37490021
 007E75 D6D9C540E3C8C1D5
 007E7D 40F4F0F9F240C2E8            3965        DC    C' 4092 BYTES FROM'                                        37500021
 007E85 E3C5E240C6D9D6D4
 007E8D 40E2E3C1D9E340D6            3966        DC    C' START OF RECORD'                                        37510021
 007E95 C640D9C5C3D6D9C4
 007E9D 4B5B7E                      3967        DC    C'.$='                                                     37520021
 007EA0 03                          3968        DC    FL1'3'                                                     37530021
 007EA1 E2E8D5E3C1E740D9            3969 TX4091 DC    C'SYNTAX REQUIRES '                                        37540021
 007EA9 C5D8E4C9D9C5E240
 007EB1 D6D7C5D9C1D5C44B            3970        DC      C'OPERAND. FOUND$.'                                      37550021
 007EB9 40C6D6E4D5C45B4B
 007EC1 7E                          3971        DC      C'='                                                     37560021
 007EC2 04                          3972        DC    FL1'4'                                                     37570021
 007EC3 C5E7E3C5D9D5C1D3            3973 TX4092 DC      C'EXTERNAL DECIMAL'                                      37580021
 007ECB 40C4C5C3C9D4C1D3
 007ED3 40C9E3C5D440E4E2            3974          DC    C' ITEM USED IN TR'                                      37590021
 007EDB C5C440C9D540E3D9
 007EE3 C1D5E2C6D6D9D440            3975        DC      C'ANSFORM STATEMEN'                                      37600021
 007EEB E2E3C1E3C5D4C5D5
 007EF3 E34B7E                      3976        DC    C'T.='                                                     37610021
 007EF6 0B                          3977        DC    FL1'11'                                                    37620021
 007EF7 C1D3D340E6D9C9E3            3978 TX4093   DC    C'ALL WRITE STATEM'                                      37630021
 007EFF C540E2E3C1E3C5D4
 007F07 C5D5E3E240C6D6D9            3979          DC    C'ENTS FOR$SHOULD '                                      37640021
 007F0F 5BE2C8D6E4D3C440
 007F17 C8C1E5C55BD6D7E3            3980          DC    C'HAVE$OPTION.$$1 '                                      37650021
 007F1F C9D6D54B5B5BF140
 007F27 D3C9D5C57E                  3981          DC    C'LINE='                                                 37660021
 007F2C 01                          3982          DC    FL1'1'                                                   37670021
 007F2D 5BC9E240C9D540C1            3983 TX4094 DC    C'$IS IN A RECORD '                                        37680021
 007F35 40D9C5C3D6D9C440
 007F3D D6C640C1D540C1D7            3984          DC    C'OF AN APPLY WRIT'                                      37690021
 007F45 D7D3E840E6D9C9E3
 007F4D C560D6D5D3E840C6            3985        DC      C'E-ONLY FILE, AND'                                      37700021
 007F55 C9D3C56B40C1D5C4
 007F5D 40D9C5C6C5D9D9C9            3986        DC      C' REFERRING TO IT'                                      37710021
 007F65 D5C740E3D640C9E3
 007F6D 40D4C1E840C3C1E4            3987        DC      C' MAY CAUSE ERROR'                                      37720021
 007F75 E2C540C5D9D9D6D9
 007F7D E240C9C640C6C9D3            3988        DC      C'S IF FILE IS OPE'                                      37730021
 007F85 C540C9E240D6D7C5
 007F8D D5C5C440C1E240D6            3989        DC      C'NED AS OUTPUT WH'                                      37740021
 007F95 E4E3D7E4E340E6C8
 007F9D C5D55BE2E3C1E3C5            3990        DC      C'EN$STATEMENT IS '                                      37750021
 007FA5 D4C5D5E340C9E240
 007FAD C5E7C5C3E4E3C5C4            3991        DC      C'EXECUTED/'                                             37760021
 007FB5 61
1PH70     IKFCBL70                                                                                              PAGE  116
-  LOC  OBJECT CODE    ADDR1 ADDR2  STMT   SOURCE STATEMENT                                       ASM 0201 11.03 02/14/15
0007FB6 E6D9C9E3C540C6D9            3992 TX4095   DC    C'WRITE FROM IDENT'                                      37770021
 007FBE D6D440C9C4C5D5E3
 007FC6 C9C6C9C5D940D9C5            3993          DC    C'IFIER REQUIRED FO'                                     37780021
 007FCE D8E4C9D9C5C440C6
 007FD6 D6
 007FD7 D95B6B40E3D640E6            3994        DC    C'R$, TO WHICH WRI'                                        37790021
 007FDF C8C9C3C840E6D9C9
 007FE7 E3C560D6D5D3E840            3995        DC    C'TE-ONLY IS APPLI'                                        37800021
 007FEF C9E240C1D7D7D3C9
 007FF7 C5C44B7E                    3996        DC    C'ED.='                                                    37810021
 007FFB 06                          3997        DC    FL1'6'                                                     37820021
 007FFC 5BE2E3C1E3C5D4C5            3998 TX4096 DC    C'$STATEMENT WILL '                                        37830021
 008004 D5E340E6C9D3D340
 00800C D5C5E5C5D940C2C5            3999        DC    C'NEVER BE EXECUTE'                                        37840021
 008014 40C5E7C5C3E4E3C5
 00801C C461                        4000        DC    C'D/'                                                      37850021
 00801E E4D5C9E34DD9C5C5            4001 TX4097   DC    C'UNIT(REEL) OPTIO'                                      37860021
 008026 D35D40D6D7E3C9D6
 00802E D540C9D3D3C5C7C1            4002          DC    C'N ILLEGAL FOR$.='                                      37870021
 008036 D340C6D6D95B4B7E
 00803E 03                          4003          DC    FL1'3'                                                   37880021
 00803F 7DC1D3E3C5D97D40            4004 TX4098   DC    C'''ALTER'' STATEM'                                      37890021
 008047 E2E3C1E3C5D4
 00804D C5D5E340E5C9D6D3            4005          DC    C'ENT VIOLATES RUL'                                      37900021
 008055 C1E3C5E240D9E4D3
 00805D C540C1C2D6E4E340            4006          DC    C'E ABOUT REFERENC'                                      37910021
 008065 D9C5C6C5D9C5D5C3
 00806D C5E240E3D640C140            4007          DC    C'ES TO A GO TO IN'                                      37920021
 008075 C7D640E3D640C9D5
 00807D 40C1D540C9D5C4C5            4008          DC    C' AN INDEPENDENT'                                       37930021
 008085 D7C5D5C4C5D5E3
 00808C 40E2C5C7D4C5D5E3            4009          DC    C' SEGMENT.='                                            37940021
 008094 4B7E
 008096 02                          4010          DC    FL1'2'                                                   37950021
 008097 02                          4011        DC    FL1'2'                                                     37960021
 008098 D5D640C5E7C9E340            4012 TX4099 DC    C'NO EXIT SPECIFIE'                                        37970021
 0080A0 E2D7C5C3C9C6C9C5
 0080A8 C440C2C5C6D6D9C5            4013        DC    C'D BEFORE END OF '                                        37980021
 0080B0 40C5D5C440D6C640
 0080B8 E3C8C9E240C4C5C3            4014        DC    C'THIS DECLARATIVE'                                        37990021
 0080C0 D3C1D9C1E3C9E5C5
 0080C8 40E2C5C3E3C9D6D5            4015        DC    C' SECTION. CONTRO'                                        38000021
 0080D0 4B40C3D6D5E3D9D6
 0080D8 D340E6C9D3D340C6            4016        DC    C'L WILL FALL THRO'                                        38010021
 0080E0 C1D3D340E3C8D9D6
 0080E8 E4C7C840E3D640D5            4017        DC    C'UGH TO NEXT SECT'                                        38020021
 0080F0 C5E7E340E2C5C3E3
 0080F8 C9D6D561                    4018        DC    C'ION/'                                                    38030021
 0080FC C9C4C5D5E3C9C6C9            4019 TX4100 DC    C'IDENTIFIER FOLLO'                                        38040021
 008104 C5D940C6D6D3D3D6
 00810C E6C9D5C740C9D5E3            4020        DC    C'WING INTO (FROM)'                                        38050021
 008114 D6404DC6D9D6D45D
 00811C 40C9D540D9C5C1C4            4021        DC    C' IN READ (WRITE)'                                        38060021
 008124 404DE6D9C9E3C55D
 00812C 40E2E3C1E3C5D4C5            4022        DC    C' STATEMENT SHOUL'                                        38070021
1PH70     IKFCBL70                                                                                              PAGE  117
-  LOC  OBJECT CODE    ADDR1 ADDR2  STMT   SOURCE STATEMENT                                       ASM 0201 11.03 02/14/15
0008134 D5E340E2C8D6E4D3
 00813C C440D5D6E340C2C5            4023        DC    C'D NOT BE DEFINED'                                        38080021
 008144 40C4C5C6C9D5C5C4
 00814C 40E4D5C4C5D940E2            4024        DC    C' UNDER SAME FD A'                                        38090021
 008154 C1D4C540C6C440C1
 00815C E240D9C5C3D6D9C4            4025          DC    C'S RECORD-NAME.='                                       38100021
 008164 60D5C1D4C54B7E
 00816B 0B                          4026        DC    FL1'11'                                                    38110021
 00816C E2C5E340E2E3C1E3            4027 TX4101   DC    C'SET STATEMENT RE'                                      38120021
 008174 C5D4C5D5E340D9C5
 00817C D8E4C9D9C5E240D6            4028          DC    C'QUIRES OPERAND A'                                      38130021
 008184 D7C5D9C1D5C440C1
 00818C C6E3C5D9407DE4D7            4029          DC    C'FTER ''UP'' OR '                                       38140021
 008194 7D40D6D940
 008199 7DC4D6E6D57D40E3            4030          DC    C'''DOWN'' TO BE N'                                      38150021
 0081A1 D640C2C540D5
 0081A7 E4D4C5D9C9C340C9            4031          DC    C'UMERIC INTEGRAL '                                      38160021
 0081AF D5E3C5C7D9C1D340
 0081B7 C4C1E3C160D5C1D4            4032          DC    C'DATA-NAME OR POS'                                      38170021
 0081BF C540D6D940D7D6E2
 0081C7 C9E3C9E5C540C9D5            4033          DC    C'ITIVE INTEGRAL N'                                      38180021
 0081CF E3C5C7D9C1D340D5
 0081D7 E4D4C5D9C9C340D3            4034          DC    C'UMERIC LITERAL. '                                      38190021
 0081DF C9E3C5D9C1D34B40
 0081E7 C6D6E4D5C45B4B7E            4035          DC    C'FOUND$.='                                              38200021
 0081EF 06                          4036          DC    FL1'06'                                                  38210021
 0081F0 E2C5E340E2E3C1E3            4037 TX4102   DC    C'SET STATEMENT RE'                                      38220021
 0081F8 C5D4C5D5E340D9C5
 008200 D8E4C9D9C5E240D6            4038          DC    C'QUIRES OPERAND A'                                      38230021
 008208 D7C5D9C1D5C440C1
 008210 C6E3C5D9407DE3D6            4039          DC    C'FTER ''TO'' TO B'                                      38240021
 008218 7D40E3D640C2
 00821E C540C9D5C4C5E740            4040          DC    C'E INDEX NAME, IN'                                      38250021
 008226 D5C1D4C56B40C9D5
 00822E C4C5E740C4C1E3C1            4041          DC    C'DEX DATA ITEM, N'                                      38260021
 008236 40C9E3C5D46B40D5
 00823E E4D4C5D9C9C340C9            4042          DC    C'UMERIC INTEGRAL '                                      38270021
 008246 D5E3C5C7D9C1D340
 00824E C4C1E3C160D5C1D4            4043        DC    C'DATA-NAME OR '                                           38280021
 008256 C540D6D940
 00825B C9D5E3C5C7D9C1D3            4044        DC    C'INTEGRAL N'                                              38290021
 008263 40D5
 008265 E4D4C5D9C9C340D3            4045          DC    C'UMERIC LITERAL. '                                      38300021
 00826D C9E3C5D9C1D34B40
 008275 C6D6E4D5C45B4B7E            4046          DC    C'FOUND$.='                                              38310021
 00827D 06                          4047          DC    FL1'06'                                                  38320021
 00827E C1D3D340D4E4E2E3            4048 TX4103   DC    C'ALL MUST BE FOLL'                                      38330021
 008286 40C2C540C6D6D3D3
 00828E D6E6C5C440C2E840            4049          DC    C'OWED BY ALPHANUM'                                      38340021
 008296 C1D3D7C8C1D5E4D4
 00829E C5D9C9C340D3C9E3            4050          DC    C'ERIC LITERAL. FO'                                      38350021
 0082A6 C5D9C1D34B40C6D6
 0082AE E4D5C45B4B40407D            4051          DC    C'UND$.  ''ALL''='                                       38360021
 0082B6 C1D3D37D7E
 0082BB 03                          4052          DC    FL1'03'                                                  38370021
1PH70     IKFCBL70                                                                                              PAGE  118
-  LOC  OBJECT CODE    ADDR1 ADDR2  STMT   SOURCE STATEMENT                                       ASM 0201 11.03 02/14/15
00082BC E2C5C1D9C3C840D6            4053 TX4104   DC    C'SEARCH OR SEARCH'                                      38380021
 0082C4 D940E2C5C1D9C3C8
 0082CC 40C1D3D340E2E3C1            4054          DC    C' ALL STATEMENT'                                        38390021
 0082D4 E3C5D4C5D5E3
 0082DA 40C8C1E240C5C9E3            4055        DC    C' HAS EITHER SUBS'                                        38400021
 0082E2 C8C5D940E2E4C2E2
 0082EA C3D9C9D7E3C5C440            4056        DC    C'CRIPTED OR INDEX'                                        38410021
 0082F2 D6D940C9D5C4C5E7
 0082FA C5C440C9C4C5D5E3            4057        DC    C'ED IDENTIFIER-1 '                                        38420021
 008302 C9C6C9C5D960F140
 00830A D6D940C9D3D3C5C7            4058        DC    C'OR ILLEGAL OPERA'                                        38430021
 008312 C1D340D6D7C5D9C1
 00831A D5C44B40E2C3C1D5            4059        DC    C'ND. SCANNING TIL'                                        38440021
 008322 D5C9D5C740E3C9D3
 00832A D3407DC1E340C5D5            4060        DC    C'L ''AT END'' OR '                                        38450021
 008332 C47D40D6D940
 008338 7DE6C8C5D57D4B7E            4061        DC    C'''WHEN''.='                                              38460021
 008340 08                          4062        DC    FL1'8'                                                     38470021
 008341 C4C1E3C160D5C1D4            4063 TX4105 DC    C'DATA-NAME CANNOT'                                        38480021
 008349 C540C3C1D5D5D6E3
 008351 40C2C540C2D6E3C8            4064        DC    C' BE BOTH INDEXED'                                        38490021
 008359 40C9D5C4C5E7C5C4
 008361 40C1D5C440E2E4C2            4065        DC    C' AND SUBSCRIPTED'                                        38500021
 008369 E2C3D9C9D7E3C5C4
 008371 40C9D55BE2E3C1E3            4066          DC    C' IN$STATEMENT. '                                       38510021
 008379 C5D4C5D5E34B40
 008380 E2E4C2E2C3D9C9D7            4067        DC    C'SUBSCRIPTS='                                             38520021
 008388 E3E27E
 00838B 03                          4068        DC    FL1'3'                                                     38530021
 00838C C4C1E3C160D5C1D4            4069 TX4106 DC    C'DATA-NAME MUST B'                                        38540021
 008394 C540D4E4E2E340C2
 00839C C540C9D5C4C5E7C5            4070        DC    C'E INDEXED BY IND'                                        38550021
 0083A4 C440C2E840C9D5C4
 0083AC C5E740D5C1D4C540            4071        DC    C'EX NAME OR INDEX'                                        38560021
 0083B4 D6D940C9D5C4C5E7
 0083BC 40D5C1D4C540D7D3            4072        DC    C' NAME PLUS OR MI'                                        38570021
 0083C4 E4E240D6D940D4C9
 0083CC D5E4E240C1D540C9            4073        DC    C'NUS AN INTEGRAL '                                        38580021
 0083D4 D5E3C5C7D9C1D340
 0083DC D5E4D4C5D9C9C340            4074        DC    C'NUMERIC LITERAL.'                                        38590021
 0083E4 D3C9E3C5D9C1D34B
 0083EC 7E                          4075        DC    C'='                                                       38600021
 0083ED 0A                          4076        DC    FL1'10'                                                    38610021
 0083EE 5BC9D3D3C5C7C1D3            4077 TX4107   DC    C'$ILLEGAL FOR SOR'                                      38620021
 0083F6 40C6D6D940E2D6D9
 0083FE E340C6C9D3C54B7E            4078          DC    C'T FILE.='                                              38630021
 008406 06                          4079          DC    FL1'06'                                                  38640021
 008407 C5D5E3D9E840E2E3            4080 TX4108 DC    C'ENTRY STATEMENT '                                        38650021
 00840F C1E3C5D4C5D5E340
 008417 D4C1E840D6D5D3E8            4081        DC    C'MAY ONLY BE CODE'                                        38660021
 00841F 40C2C540C3D6C4C5
 008427 C440C9D540D9D6D6            4082        DC    C'D IN ROOT SEGMEN'                                        38670021
 00842F E340E2C5C7D4C5D5
 008437 E340C9C640D7D9D6            4083        DC   C'T IF PROGRAM IS '                                         38680021
 00843F C7D9C1D440C9E240
1PH70     IKFCBL70                                                                                              PAGE  119
-  LOC  OBJECT CODE    ADDR1 ADDR2  STMT   SOURCE STATEMENT                                       ASM 0201 11.03 02/14/15
0008447 E2C5C7D4C5D5E3C5            4084        DC   C'SEGMENTED. STATE'                                         38690021
 00844F C44B40E2E3C1E3C5
 008457 D4C5D5E37E                  4085        DC    C'MENT='                                                   38700021
 00845C 02                          4086        DC    FL1'02'                                                    38710021
 00845D D2C5E840C9D540E2            4087 TX4109   DC    C'KEY IN SEARCH-AL'                                      38720021
 008465 C5C1D9C3C860C1D3
 00846D D340C6D3D6C1E3C9            4088          DC    C'L FLOATING POINT'                                      38730021
 008475 D5C740D7D6C9D5E3
 00847D 40D6D940E2E3C5D9            4089          DC    C' OR STERLING. ST'                                      38740021
 008485 D3C9D5C74B40E2E3
 00848D C1E3C5D4C5D5E340            4090          DC    C'ATEMENT CHANGED '                                      38750021
 008495 C3C8C1D5C7C5C440
 00849D E3D640E2C5C1D9C3            4091          DC    C'TO SEARCH STATEM'                                      38760021
 0084A5 C840E2E3C1E3C5D4
 0084AD C5D5E361                    4092          DC    C'ENT/'                                                  38770021
 0084B1 C3D6D5C4C9E3C9D6            4093 TX4110   DC    C'CONDITION IN SEA'                                      38780021
 0084B9 D540C9D540E2C5C1
 0084C1 D9C3C840C1D3D340            4094          DC    C'RCH ALL STATEMEN'                                      38790021
 0084C9 E2E3C1E3C5D4C5D5
 0084D1 E340E3C5E2E3E240            4095          DC    C'T TESTS KEY WITH'                                      38800021
 0084D9 D2C5E840E6C9E3C8
 0084E1 D6E4E340E3C5E2E3            4096          DC    C'OUT TESTING ALL '                                      38810021
 0084E9 C9D5C740C1D3D340
 0084F1 D7D9C5C3C5C4C9D5            4097          DC    C'PRECEDING KEYS.='                                      38820021
 0084F9 C740D2C5E8E24B7E
 008501 06                          4098          DC    FL1'06'                                                  38830021
 008502 C9D5E5C1D3C9C440            4099 TX4111   DC    C'INVALID CONDITIO'                                      38840021
 00850A C3D6D5C4C9E3C9D6
 008512 D540D6D940C9D5E5            4100          DC    C'N OR INVALID FOR'                                      38850021
 00851A C1D3C9C440C6D6D9
 008522 D4E4D3C140C9D540            4101          DC    C'MULA IN CONDITIO'                                      38860021
 00852A C3D6D5C4C9E3C9D6
 008532 D540C9D540E2C5C1            4102          DC    C'N IN SEARCH ALL '                                      38870021
 00853A D9C3C840C1D3D340
 008542 E2E3C1E3C5D4C5D5            4103          DC    C'STATEMENT.='                                           38880021
 00854A E34B7E
 00854D 06                          4104          DC    FL1'6'                                                   38890021
 00854E E2C5E340E4D740D6            4105 TX4112   DC    C'SET UP OR DOWN S'                                      38900021
 008556 D940C4D6E6D540E2
 00855E C8D6E4D3C440D5D6            4106          DC    C'HOULD NOT INCREM'                                      38910021
 008566 E340C9D5C3D9C5D4
 00856E C5D5E340C9D5C4C5            4107        DC    C'ENT INDEX NAME BY'                                       38920021
 008576 E740D5C1D4C540C2
 00857E E8
 00857F 40C9D5C4C5E740C4            4108          DC    C' INDEX DATA ITEM'                                      38930021
 008587 C1E3C140C9E3C5D4
 00858F 4B7E                        4109          DC    C'.='                                                    38940021
 008591 0B                          4110          DC    FL1'11'                                                  38950021
 008592 D3C1C2C5D340C4C5            4111 TX4113   DC    C'LABEL DECLARATIV'                                      38960021
 00859A C3D3C1D9C1E3C9E5
 0085A2 C540C9D3D3C5C7C1            4112          DC    C'E ILLEGAL FOR IS'                                      38970021
 0085AA D340C6D6D940C9E2
 0085B2 C1D440C6C9D3C55B            4113          DC    C'AM FILE$. FILE S'                                      38980021
 0085BA 4B40C6C9D3C540E2
 0085C2 D2C9D7D7C5C461              4114          DC    C'KIPPED/'                                               38990021
1PH70     IKFCBL70                                                                                              PAGE  120
-  LOC  OBJECT CODE    ADDR1 ADDR2  STMT   SOURCE STATEMENT                                       ASM 0201 11.03 02/14/15
00085C9 D3C1C2C5D340C4C5            4115 TX4114   DC    C'LABEL DECLARATIV'                                      39000021
 0085D1 C3D3C1D9C1E3C9E5
 0085D9 C540C6D6D940C2C4            4116          DC    C'E FOR BDAM FILE '                                      39010021
 0085E1 C1D440C6C9D3C540
 0085E9 E2C8D6E4D3C440D5            4117          DC    C'SHOULD NOT HAVE '                                      39020021
 0085F1 D6E340C8C1E5C540
 0085F9 E4D5C9E340D6D940            4118          DC    C'UNIT OR REEL OPT'                                      39030021
 008601 D9C5C5D340D6D7E3
 008609 C9D6D54B5BC6C9D3            4119          DC    C'ION.$FILE SKIPPE'                                      39040021
 008611 C540E2D2C9D7D7C5
 008619 C461                        4120          DC    C'D/'                                                    39050021
 00861B 5BE2E3C1E3C5D4C5            4121 TX4115   DC    C'$STATEMENT REQUI'                                      39060021
 008623 D5E340D9C5D8E4C9
 00862B D9C5E240C9C4C5D5            4122          DC    C'RES IDENTIFIER W'                                      39070021
 008633 E3C9C6C9C5D940E6
 00863B C8D6E2C540E4E2C1            4123          DC    C'HOSE USAGE IS DI'                                      39080021
 008643 C7C540C9E240C4C9
 00864B E2D7D3C1E84B40C6            4124        DC    C'SPLAY. FOUND SPEC'                                       39090021
 008653 D6E4D5C440E2D7C5
 00865B C3
 00865C C9C1D340D9C5C7C9            4125          DC    C'IAL REGISTER.='                                        39100021
 008664 E2E3C5D94B7E
 00866A 06                          4126          DC    FL1'6'                                                   39110021
 00866B D5E2E3C460D9C5C5            4127 TX4116   DC    C'NSTD-REELS IS HAN'                                     39120021
 008673 D3E240C9E240C8C1
 00867B D5
 00867C C4D3C5C440C9D540            4128          DC    C'DLED IN OS BY JCL'                                     39130021
 008684 D6E240C2E840D1C3
 00868C D3
 00868D 4B40E2E3C1E3C5D4            4129          DC    C'. STATEMENT TREATE'                                    39140021
 008695 C5D5E340E3D9C5C1
 00869D E3C5
 00869F C440C1E240C3D6D4            4130          DC    C'D AS COMMENT/'                                         39150021
 0086A7 D4C5D5E361
 0086AC 61                          4131 TX4117   DC    C'/'                                               43536 39160021
 0086AD 61                          4132 TX4118   DC    C'/'                                               43536 39170021
 0086AE 61                          4133 TX4119   DC    C'/'                                               43536 39180021
 0086AF 61                          4134 TX4120   DC    C'/'                                               43536 39190021
 0086B0 61                          4135 TX4121   DC    C'/'                                               43536 39200021
 0086B1 61                          4136 TX4122   DC    C'/'                                               43536 39210021
 0086B2 61                          4137 TX4123   DC    C'/'                                               43536 39220021
 0086B3 61                          4138 TX4124   DC    C'/'                                               43536 39230021
 0086B4 61                          4139 TX4125   DC    C'/'                                               43536 39240021
 0086B5 61                          4140 TX4126   DC    C'/'                                               43536 39250021
 0086B6 61                          4141 TX4127   DC    C'/'                                               43536 39260021
 0086B7 61                          4142 TX4128   DC    C'/'                                               43536 39270021
 0086B8 61                          4143 TX4129   DC    C'/'                                               43536 39280021
 0086B9 61                          4144 TX4130   DC    C'/'                                               43536 39290021
 0086BA C5E7D7C5C3E3C9D5            4145 TX4131   DC    C'EXPECTING$. '                                    50782 39300021
 0086C2 C75B4B40
 0086C6 C6D6E4D5C45B4B7E            4146          DC    C'FOUND$.='                                        50782 39310021
 0086CE 0B                          4147          DC    FL1'11'                                            50782 39320021
 0086CF 61                          4148 TX4132   DC    C'/'                                               43536 39330021
 0086D0 61                          4149 TX4133   DC    C'/'                                               43536 39340021
 0086D1 61                          4150 TX4134   DC    C'/'                                               43536 39350021
1PH70     IKFCBL70                                                                                              PAGE  121
-  LOC  OBJECT CODE    ADDR1 ADDR2  STMT   SOURCE STATEMENT                                       ASM 0201 11.03 02/14/15
00086D2 61                          4151 TX4135   DC    C'/'                                               43536 39360021
 0086D3 61                          4152 TX4136   DC    C'/'                                               43536 39370021
 0086D4 61                          4153 TX4137   DC    C'/'                                               43536 39380021
 0086D5 61                          4154 TX4138   DC    C'/'                                               43536 39390021
 0086D6 61                          4155 TX4139   DC    C'/'                                               43536 39400021
 0086D7 61                          4156 TX4140   DC    C'/'                                               43536 39410021
 0086D8 C9D540C140D8E2C1            4157 TX4141   DC    C'IN A QSAM OR QI'                                 43536 39420021
 0086E0 D440D6D940D8C9
 0086E7 E2C1D440D9C5E6D9            4158          DC    C'SAM REWRITE, THE '                               43536 39430021
 0086EF C9E3C56B40E3C8C5
 0086F7 40
 0086F8 C9D5E5C1D3C9C440            4159          DC    C'INVALID KEY CLAU'                                43536 39440021
 008700 D2C5E840C3D3C1E4
 008708 E2C540C8C1E240D5            4160          DC    C'SE HAS NO MEANIN'                                43536 39450021
 008710 D640D4C5C1D5C9D5
 008718 C740C1D5C440C9E2            4161          DC    C'G AND IS IGNORED/'                               43536 39460021
 008720 40C9C7D5D6D9C5C4
 008728 61
 008729 61                          4162 TX4142   DC    C'/'                                               43536 39470021
 00872A 61                          4163 TX4143   DC    C'/'                                               43536 39480021
 00872B 61                          4164 TX4144   DC    C'/'                                               43536 39490021
 00872C 61                          4165 TX4145   DC    C'/'                                               43536 39500021
 00872D 61                          4166 TX4146   DC    C'/'                                               43536 39510021
 00872E 61                          4167 TX4147   DC    C'/'                                               43536 39520021
 00872F 61                          4168 TX4148   DC    C'/'                                               43536 39530021
 008730 61                          4169 TX4149   DC    C'/'                                               43536 39540021
 008731 61                          4170 TX4150   DC    C'/'                                               43536 39550021
 008732 61                          4171 TX5000 DC    C'/'                                                       39560021
 008733 7E                          4172 TX5001   DC    C'='                                                     39570021
 008734 10                          4173          DC    FL1'16'                                                  39580021
 008735 7E                          4174 TX5002   DC    C'='                                                     39590021
 008736 10                          4175          DC    FL1'16'                                                  39600021
 008737 C140C4C9E5C9E2D6            4176 TX5003 DC    C'A DIVISOR IS A Z'                                        39610021
 00873F D940C9E240C140E9
 008747 C5D9D640C3D6D5E2            4177        DC    C'ERO CONSTANT. RE'                                        39620021
 00874F E3C1D5E34B40D9C5
 008757 E2E4D3E340D6C640            4178        DC    C'SULT OF DIVIDE W'                                        39630021
 00875F C4C9E5C9C4C540E6
 008767 C9D3D340C2C540E2            4179        DC    C'ILL BE SET TO AL'                                        39640021
 00876F C5E340E3D640C1D3
 008777 D340F97DE261                4180        DC    C'L 9''S/'                                                 39650021
 00877D E3C8C540C1D3D7C8            4181 TX5004 DC    C'THE ALPHANUMERIC'                                        39660021
 008785 C1D5E4D4C5D9C9C3
 00878D 40E2C5D5C4C9D5C7            4182        DC    C' SENDING FIELD E'                                        39670021
 008795 40C6C9C5D3C440C5
 00879D E7C3C5C5C4E240D4            4183        DC    C'XCEEDS MAXIMUM P'                                        39680021
 0087A5 C1E7C9D4E4D440D7
 0087AD C5D9D4C9E2E2C9C2            4184        DC    C'ERMISSIBLE SIZE.'                                        39690021
 0087B5 D3C540E2C9E9C54B
 0087BD 40F1F840D3D6                4185        DC    C' 18 LO'                                                  39700021
 0087C3 E640D6D9C4C5D940            4186          DC    C'W ORDER BYTES US'                                      39710021
 0087CB C2E8E3C5E240E4E2
 0087D3 C5C461                      4187          DC    C'ED/'                                                   39720021
 0087D6 7E                          4188 TX5005   DC    C'='                                                     39730021
 0087D7 10                          4189          DC    FL1'16'                                                  39740021
1PH70     IKFCBL70                                                                                              PAGE  122
-  LOC  OBJECT CODE    ADDR1 ADDR2  STMT   SOURCE STATEMENT                                       ASM 0201 11.03 02/14/15
00087D8 7E                          4190 TX5006   DC    C'='                                                     39750021
 0087D9 10                          4191          DC    FL1'16'                                                  39760021
 0087DA 7E                          4192 TX5007   DC    C'='                                                     39770021
 0087DB 10                          4193          DC    FL1'16'                                                  39780021
 0087DC 7E                          4194 TX5008   DC    C'='                                                     39790021
 0087DD 10                          4195          DC    FL1'16'                                                  39800021
 0087DE 7E                          4196 TX5009   DC    C'='                                                     39810021
 0087DF 10                          4197          DC    FL1'16'                                                  39820021
 0087E0 C140C3D6D5E2E3C1            4198 TX5010 DC    C'A CONSTANT INTER'                                        39830021
 0087E8 D5E340C9D5E3C5D9
 0087F0 D4C5C4C9C1E3C540            4199        DC    C'MEDIATE RESULT H'                                        39840021
 0087F8 D9C5E2E4D3E340C8
 008800 C1C440E3D67E                4200        DC    C'AD TO='                                                  39850021
 008806 11                          4201        DC      FL1'17'                                                  39860021
 008807 C1D540C9D5E3C5D9            4202 TX5011 DC    C'AN INTERMEDIATE '                                        39870021
 00880F D4C5C4C9C1E3C540
 008817 D9C5E2E4D3E340D6            4203        DC    C'RESULT OR A SEND'                                        39880021
 00881F D940C140E2C5D5C4
 008827 C9D5C740C6C9C5D3            4204        DC    C'ING FIELD MIGHT='                                        39890021
 00882F C440D4C9C7C8E37E
 008837 11                          4205        DC      FL1'17'                                                  39900021
 008838 7E                          4206 TX5012   DC    C'='                                                     39910021
 008839 10                          4207          DC    FL1'16'                                                  39920021
 00883A C9D3D3C5C7C1D340            4208 TX5013 DC    C'ILLEGAL COMPARIS'                                        39930021
 008842 C3D6D4D7C1D9C9E2
 00884A D6D540D6C640E3E6            4209        DC    C'ON OF TWO NUMERI'                                        39940021
 008852 D640D5E4D4C5D9C9
 00885A C340D3C9E3C5D9C1            4210        DC    C'C LITERALS.='                                            39950021
 008862 D3E24B7E
 008866 06                          4211        DC    FL1'6'                                                     39960021
 008867 D2C5E840C9D540E2            4212 TX5014   DC    C'KEY IN SEARCH AL'                                      39970021
 00886F C5C1D9C3C840C1D3
 008877 D340C1E340C9D5E5            4213          DC    C'L AT INVALID OFF'                                      39980021
 00887F C1D3C9C440D6C6C6
 008887 E2C5E34B7E                  4214          DC    C'SET.='                                                 39990021
 00888C 06                          4215          DC    FL1'6'                                                   40000021
 00888D C9D5E5C1D3C9C440            4216 TX5015   DC    C'INVALID USE OF S'                                      40010021
 008895 E4E2C540D6C640E2
 00889D D7C5C3C9C1D340D9            4217          DC    C'PECIAL REGISTER.'                                      40020021
 0088A5 C5C7C9E2E3C5D94B
 0088AD 7E                          4218          DC    C'='                                                     40030021
 0088AE 06                          4219          DC    FL1'6'                                                   40040021
 0088AF D4D6D9C540E3C8C1            4220 TX5016   DC    C'MORE THAN 255 SU'                                      40050021
 0088B7 D540F2F5F540E2E4
 0088BF C2E2C3D9C9D7E340            4221          DC    C'BSCRIPT ADDRESS '                                      40060021
 0088C7 C1C4C4D9C5E2E240
 0088CF C3C5D3D3E240E4E2            4222          DC    C'CELLS USED. PROG'                                      40070021
 0088D7 C5C44B40D7D9D6C7
 0088DF D9C1D440C3C1D5D5            4223          DC    C'RAM CANNOT EXECU'                                      40080021
 0088E7 D6E340C5E7C5C3E4
 0088EF E3C540C3D6D9D9C5            4224          DC    C'TE CORRECTLY/'                                         40090021
 0088F7 C3E3D3E861
 0088FC C5E7C8C9C2C9E340            4225 TX5017   DC    C'EXHIBIT CHANGED OPERAND GREATER THAN 256 BYTES.'       40100021
 008904 C3C8C1D5C7C5C440
 00890C D6D7C5D9C1D5C440
1PH70     IKFCBL70                                                                                              PAGE  123
-  LOC  OBJECT CODE    ADDR1 ADDR2  STMT   SOURCE STATEMENT                                       ASM 0201 11.03 02/14/15
0008914 C7D9C5C1E3C5D940
 00891C E3C8C1D540F2F5F6
 008924 40C2E8E3C5E24B
 00892B 40D3C5D5C7E3C840            4226        DC    C' LENGTH OF 256 ASSUMED/'                                 40110021
 008933 D6C640F2F5F640C1
 00893B E2E2E4D4C5C461
 008942 D5C1D4C540D6C640            4227 TX5018   DC    C'NAME OF IDENTIFIER IN '                                40120021
 00894A C9C4C5D5E3C9C6C9
 008952 C5D940C9D540
 008958 C5E7C8C9C2C9E340            4228          DC    C'EXHIBIT STATEMENT EXCEEDS '                            40130021
 008960 E2E3C1E3C5D4C5D5
 008968 E340C5E7C3C5C5C4
 008970 E240
 008972 D4C1E7C9D4E4D44B            4229          DC    C'MAXIMUM. TRUNCATED TO 120/'                            40140021
 00897A 40E3D9E4D5C3C1E3
 008982 C5C440E3D640F1F2
 00898A F061
                             0898C  4230 TXTEND   EQU   *                                                        40150021
 008990                             4231 IKF711 CSECT                                                            40160021
                                    4232 *=1  ERROR ACTION TABLE                                                 40170021
                                    4233 *                                                                       40180021
 008990 5C5C5C61                    4234 EACT00 DC    C'***/'         UNKNOWN ACTION CODE                        40190021
 008994 C1E2E2E4D4C5C461            4235 EACT01 DC    C'ASSUMED/'                                                40200021
 00899C C9C7D5D6D9C5C461            4236 EACT02 DC    C'IGNORED/'                                                40210021
 0089A4 C4C9E2C3C1D9C4C5            4237 EACT03 DC    C'DISCARDED/'                                              40220021
 0089AC C461
 0089AE E3C5E2E340C4C9E2            4238 EACT04 DC    C'TEST DISCARDED/'                                         40230021
 0089B6 C3C1D9C4C5C461
 0089BD 5BD6D7E3C9D6D540            4239 EACT05 DC      C'$OPTION DISCARDE'                                      40240021
 0089C5 C4C9E2C3C1D9C4C5
 0089CD C461                        4240        DC      C'D/'                                                    40250021
 0089CF E2E3C1E3C5D4C5D5            4241 EACT06 DC    C'STATEMENT DISCAR'                                        40260021
 0089D7 E340C4C9E2C3C1D9
 0089DF C4C5C461                    4242        DC    C'DED/'                                                    40270021
 0089E3 C4C5D3C5E3C9D5C7            4243 EACT07 DC    C'DELETING TILL LE'                                        40280021
 0089EB 40E3C9D3D340D3C5
 0089F3 C7C1D340C5D3C5D4            4244        DC    C'GAL ELEMENT FOUN'                                        40290021
 0089FB C5D5E340C6D6E4D5
 008A03 C461                        4245        DC    C'D/'                                                      40300021
 008A05 C4C5D3C5E3C9D5C7            4246 EACT08 DC    C'DELETING TILL ON'                                        40310021
 008A0D 40E3C9D3D340D6D5
 008A15 C540D6C640E3C8C5            4247        DC    C'E OF THESE IS FO'                                        40320021
 008A1D E2C540C9E240C6D6
 008A25 E4D5C461                    4248        DC    C'UND/'                                                    40330021
 008A29 E2E4C2E2E3C9E3E4            4249 EACT09 DC    C'SUBSTITUTING$/'                                          40340021
 008A31 E3C9D5C75B61
 008A37 E2E4C2E2E3C9E3E4            4250 EACT10 DC    C'SUBSTITUTING FIR'                                        40350021
 008A3F E3C9D5C740C6C9D9
 008A47 E2E340D6C3C3E4D9            4251        DC    C'ST OCCURRENCE OF'                                        40360021
 008A4F D9C5D5C3C540D6C6
 008A57 5B61                        4252        DC    C'$/'                                                      40370021
 008A59 E2E3C1E3C5D4C5D5            4253 EACT11 DC    C'STATEMENT ACCEPT'                                        40380021
 008A61 E340C1C3C3C5D7E3
 008A69 C5C440C1E240E6D9            4254        DC    C'ED AS WRITTEN/'                                          40390021
 008A71 C9E3E3C5D561
1PH70     IKFCBL70                                                                                              PAGE  124
-  LOC  OBJECT CODE    ADDR1 ADDR2  STMT   SOURCE STATEMENT                                       ASM 0201 11.03 02/14/15
0008A77 E2E8E2E3C5D440E4            4255 EACT12 DC      C'SYSTEM UNIT ASSU'                                      40400021
 008A7F D5C9E340C1E2E2E4
 008A87 D4C5C461                    4256        DC      C'MED/'                                                  40410021
 008A8B C5E5C5D540C9C640            4257 EACT13 DC      C'EVEN IF NOT REFE'                                      40420021
 008A93 D5D6E340D9C5C6C5
 008A9B D9C5D5C3C5C46B40            4258        DC      C'RENCED, MAY CAUS'                                      40430021
 008AA3 D4C1E840C3C1E4E2
 008AAB C540E6D9D6D5C740            4259        DC      C'E WRONG CODING T'                                      40440021
 008AB3 C3D6C4C9D5C740E3
 008ABB D640C2C540D7D9D6            4260        DC      C'O BE PRODUCED FO'                                      40450021
 008AC3 C4E4C3C5C440C6D6
 008ACB D940C4C5C3D3C1D9            4261        DC      C'R DECLARATIVES O'                                      40460021
 008AD3 C1E3C9E5C5E240D6
 008ADB D940D7C5D9C6D6D9            4262        DC      C'R PERFORMED PROC'                                      40470021
 008AE3 D4C5C440D7D9D6C3
 008AEB C5C4E4D9C5E240D6            4263        DC      C'EDURES ON EITHER'                                      40480021
 008AF3 D540C5C9E3C8C5D9
 008AFB 40E2C9C4C540D6C6            4264        DC      C' SIDE OF IT/'                                          40490021
 008B03 40C9E361
 008B07 C3C1D9C440C4C5D3            4265 EACT14 DC      C'CARD DELETED AN'                                       40500021
 008B0F C5E3C5C440C1D5
 008B16 C440C6D6D3D3D6E6            4266        DC      C'D FOLLOWING STA'                                       40510021
 008B1E C9D5C740E2E3C1
 008B25 E3C5D4C5D5E3E240            4267        DC      C'TEMENTS ATTACHE'                                       40520021
 008B2D C1E3E3C1C3C8C5
 008B34 C440E3D640C9D4D4            4268        DC      C'D TO IMMEDIATEL'                                       40530021
 008B3C C5C4C9C1E3C5D3
 008B43 E840D7D9C5C3C5C4            4269        DC      C'Y PRECEDING PAC'                                       40540021
 008B4B C9D5C740D7C1C3
 008B52 D2C5E361                    4270        DC      C'KET/'                                                  40550021
 008B56 D7D9D6C7D9C1D440            4271 EACT15 DC    C'PROGRAM INTERRUP'                                        40560021
 008B5E C9D5E3C5D9D9E4D7
 008B66 E340E6C9D3D340D6            4272        DC    C'T WILL OCCUR/'                                           40570021
 008B6E C3C3E4D961
 008B73 C3D6D4D7C9D3C5D9            4273 EACT16   DC    C'COMPILER ERROR. COMPILATION'                           40580021
 008B7B 40C5D9D9D6D94B40
 008B83 C3D6D4D7C9D3C1E3
 008B8B C9D6D5
 008B8E 40E6C9D3D340D5D6            4274          DC    C' WILL NOT BE COMPLETE/'                                40590021
 008B96 E340C2C540C3D6D4
 008B9E D7D3C5E3C561
 008BA4 C8C1E5C540C9E3E2            4275 EACT17 DC      C'HAVE ITS HIGH OR'                                      40600021
 008BAC 40C8C9C7C840D6D9
 008BB4 C4C5D940C4C9C7C9            4276        DC    C'DER DIGIT POSITI'                                        40610021
 008BBC E340D7D6E2C9E3C9
 008BC4 D6D540E3D9E4D5C3            4277        DC    C'ON TRUNCATED/'                                           40620021
 008BCC C1E3C5C461
 008BD1 61                          4278 EACT18   DC    C'/'                                                     40630021
 008BD2 C3D3C1E4E2C540C9            4279 EACT19 DC    C'CLAUSE IGNORED/'                                         40640021
 008BDA C7D5D6D9C5C461
 008BE1 C3C8C1D5C7C5C440            4280 EACT20 DC    C'CHANGED TO ZERO/'                                        40650021
 008BE9 E3D640E9C5D9D661
 008BF1 D7C9C3E3E4D9C540            4281 EACT21 DC    C'PICTURE REPLACED'                                        40660021
 008BF9 D9C5D7D3C1C3C5C4
 008C01 40C2E840F9C4F8C4            4282        DC    C' BY 9D8D7/'                                              40670021
1PH70     IKFCBL70                                                                                              PAGE  125
-  LOC  OBJECT CODE    ADDR1 ADDR2  STMT   SOURCE STATEMENT                                       ASM 0201 11.03 02/14/15
0008C09 F761
 008C0B D7C9C3E3E4D9C540            4283 EACT22 DC    C'PICTURE REPLACED'                                        40680021
 008C13 D9C5D7D3C1C3C5C4
 008C1B 40C2E840F94DF15D            4284        DC    C' BY 9(1)/'                                               40690021
 008C23 61
 008C24 D7C9C3E3E4D9C540            4285 EACT23 DC    C'PICTURE CHANGED '                                        40700021
 008C2C C3C8C1D5C7C5C440
 008C34 E3D6404EF94BC54E            4286        DC    C'TO +9.E+99/'                                             40710021
 008C3C F9F961
 008C3F D2C5E840C9C7D5D6            4287 EACT24 DC    C'KEY IGNORED/'                                            40720021
 008C47 D9C5C461
 008C4B C1E2E2E4D4C5C440            4288 EACT25 DC    C'ASSUMED PICTURE '                                        40730021
 008C53 D7C9C3E3E4D9C540
 008C5B D34DF65DF9C2C4E9            4289        DC    C'L(6)9BDZ9BDZ9/'                                          40740021
 008C63 F9C2C4E9F961
 008C69 C4C5C3C9D4C1D340            4290 EACT26 DC    C'DECIMAL FIELD TR'                                        40750021
 008C71 C6C9C5D3C440E3D9
 008C79 E4D5C3C1E3C5C461            4291        DC    C'UNCATED/'                                                40760021
 008C81 E2D2C9D7D7C9D5C7            4292 EACT27 DC    C'SKIPPING TO NEXT'                                        40770021
 008C89 40E3D640D5C5E7E3
 008C91 40F0F161                    4293        DC    C' 01/'                                                    40780021
 008C95 C1E2E2E4D4C5C440            4294 EACT28 DC    C'ASSUMED PRESENT/'                                        40790021
 008C9D D7D9C5E2C5D5E361
 008CA5 C3D6D5E3C9D5E4C9            4295 EACT29 DC    C'CONTINUING/'                                             40800021
 008CAD D5C761
 008CB0 E2D2C9D7D7C9D5C7            4296 EACT30 DC    C'SKIPPING TO NEXT'                                        40810021
 008CB8 40E3D640D5C5E7E3
 008CC0 40C3D3C1E4E2C561            4297        DC    C' CLAUSE/'                                                40820021
 008CC8 E2D2C9D7D7C9D5C7            4298 EACT31 DC    C'SKIPPING TO NEXT'                                        40830021
 008CD0 40E3D640D5C5E7E3
 008CD8 40C3C1D9C461                4299        DC    C' CARD/'                                                  40840021
 008CDE E2C5D5E3C5D5C3C5            4300 EACT32 DC    C'SENTENCE IGNORED'                                        40850021
 008CE6 40C9C7D5D6D9C5C4
 008CEE 61                          4301        DC    C'/'                                                       40860021
 008CEF E4E2C9D5C740D3D6            4302 EACT33 DC    C'USING LOWEST NAM'                                        40870021
 008CF7 E6C5E2E340D5C1D4
 008CFF C561                        4303        DC    C'E/'                                                      40880021
 008D01 E2D2C9D7D7C9D5C7            4304 EACT34 DC    C'SKIPPING TO NEXT'                                        40890021
 008D09 40E3D640D5C5E7E3
 008D11 40D3C5E5C5D36B40            4305        DC    C' LEVEL, SECTION '                                        40900021
 008D19 E2C5C3E3C9D6D540
 008D21 D6D940C4C9E5C9E2            4306        DC    C'OR DIVISION/'                                            40910021
 008D29 C9D6D561
 008D2D C9C7D5D6D9C9D5C7            4307 EACT35 DC    C'IGNORING COPY/'                                          40920021
 008D35 40C3D6D7E861
 008D3B C4D9D6D7D7C5C461            4308 EACT36 DC    C'DROPPED/'                                                40930021
 008D43 D9C5E2C3C1D5D5C9            4309 EACT37 DC    C'RESCANNING AT E/'                                        40940021
 008D4B D5C740C1E340C561
 008D53 C1E2E2E4D4C540C5            4310 EACT38 DC    C'ASSUME END OF SE'                                        40950021
 008D5B D5C440D6C640E2C5
 008D63 D5E3C5D5C3C561              4311        DC    C'NTENCE/'                                                 40960021
 008D6A E2D2C9D7D7C9D5C7            4312 EACT39 DC    C'SKIPPING TO NEXT'                                        40970021
 008D72 40E3D640D5C5E7E3
 008D7A 40C9D5E2C5D9E340            4313        DC    C' INSERT OR DELET'                                        40980021
 008D82 D6D940C4C5D3C5E3
1PH70     IKFCBL70                                                                                              PAGE  126
-  LOC  OBJECT CODE    ADDR1 ADDR2  STMT   SOURCE STATEMENT                                       ASM 0201 11.03 02/14/15
0008D8A C540D5E4D4C2C5D9            4314        DC    C'E NUMBER.$/'                                             40990021
 008D92 4B5B61
 008D95 E2E3D6D740C9D5E2            4315 EACT40 DC    C'STOP INSERT AND '                                        41000021
 008D9D C5D9E340C1D5C440
 008DA5 C4C5D3C5E3C54B5B            4316        DC    C'DELETE.$/'                                               41010021
 008DAD 61
 008DAE C1E2E2E4D4C540E2            4317 EACT41 DC    C'ASSUME SPACE/'                                           41020021
 008DB6 D7C1C3C561
 008DBB C9D3D3C5C7C1D340            4318 EACT42 DC    C'ILLEGAL FOR THIS'                                        41030021
 008DC3 C6D6D940E3C8C9E2
 008DCB 40C1C3C3C5E2E240            4319        DC    C' ACCESS METHOD. '                                        41040021
 008DD3 D4C5E3C8D6C44B40
 008DDB C3D3C1E4E2C540C9            4320        DC    C'CLAUSE IGNORED/'                                         41050021
 008DE3 C7D5D6D9C5C461
 008DEA C3C8C1D5C7C5C440            4321 EACT43 DC    C'CHANGED TO 01/'                                          41060021
 008DF2 E3D640F0F161
 008DF8 C3D3C1E4E2C540C4            4322 EACT44 DC    C'CLAUSE DELETED/'                                         41070021
 008E00 C5D3C5E3C5C461
 008E07 D7C9C3E3E4D9C540            4323 EACT45 DC    C'PICTURE CHANGED '                                        41080021
 008E0F C3C8C1D5C7C5C440
 008E17 E3D640F961                  4324        DC    C'TO 9/'                                                   41090021
 008E1C C1E2E2E4D4C5C440            4325 EACT46 DC    C'ASSUMED ONE/'                                            41100021
 008E24 D6D5C561
 008E28 C6C9D3C560D5C1D4            4326 EACT47 DC    C'FILE-NAME. USE I'                                        41110021
 008E30 C54B40E4E2C540C9
 008E38 C7D5D6D9C5C461              4327        DC    C'GNORED/'                                                 41120021
 008E3F E2D2C9D7D7C9D5C7            4328 EACT48 DC    C'SKIPPING TO NEXT'                                        41130021
 008E47 40E3D640D5C5E7E3
 008E4F 40D9C5C3D6C7D5C9            4329        DC    C' RECOGNIZABLE WO'                                        41140021
 008E57 E9C1C2D3C540E6D6
 008E5F D9C461                      4330        DC    C'RD/'                                                     41150021
                             08E62  4331 ENDEAC EQU   *                                                          41160021
1PH70     IKFCBL70                                                                                              PAGE  127
-  LOC  OBJECT CODE    ADDR1 ADDR2  STMT   SOURCE STATEMENT                                       ASM 0201 11.03 02/14/15
0008E68                             4333 IKF712 CSECT                                                            41180021
                                    4334 *=1   ERROR PARAMETER TABLE                                             41190021
                                    4335 *=                                                                      41200021
 008E68 61                          4336 PAR000 DC    C'/'                       COBOL WORDS                     41210021
 008E69 C4C1E3C161                  4337 PAR001 DC    C'DATA/'                                                   41220021
 008E6E E2D2C9D7F161                4338 PAR002   DC    C'SKIP1/'                                                41230021
 008E74 E2D2C9D7F261                4339 PAR003   DC    C'SKIP2/'                                                41240021
 008E7A E2D2C9D7F361                4340 PAR004   DC    C'SKIP3/'                                                41250021
 008E80 C5D1C5C3E361                4341 PAR005   DC    C'EJECT/'                                                41260021
 008E86 61                          4342 PAR006 DC    C'/'                                                       41270021
 008E87 E2E4D7D7D9C5E2E2            4343 PAR007   DC    C'SUPPRESS/'                                             41280021
 008E8F 61
 008E90 61                          4344 PAR008 DC    C'/'                                                       41290021
 008E91 61                          4345 PAR009   DC    C'/'                                                     41300021
 008E92 61                          4346 PAR00A   DC    C'/'                                                     41310021
 008E93 61                          4347 PAR00B   DC    C'/'                                                     41320021
 008E94 C3D6D9C560C9D5C4            4348 PAR00C   DC    C'CORE-INDEX/'                                           41330021
 008E9C C5E761
 008E9F D7D9D6C7D9C1D461            4349 PAR00D   DC    C'PROGRAM/'                                              41340021
 008EA7 D9C661                      4350 PAR00E DC    C'RF/'                                                     41350021
 008EAA E6D9C9E3C560D6D5            4351 PAR00F DC    C'WRITE-ONLY/'                                             41360021
 008EB2 D3E861
 008EB5 E3D6E3C1D3C9D5C7            4352 PAR010   DC    C'TOTALING/'                                             41370021
 008EBD 61
 008EBE E3D6E3C1D3C5C461            4353 PAR011   DC    C'TOTALED/'                                              41380021
 008EC6 C3D6D4D4C161                4354 PAR012 DC    C'COMMA/'                                                  41390021
 008ECC C4C5C3C9D4C1D360            4355 PAR013 DC    C'DECIMAL-POINT/'                                          41400021
 008ED4 D7D6C9D5E361
 008EDA C6C9D3C560D3C9D4            4356 PAR014 DC    C'FILE-LIMIT/'                                             41410021
 008EE2 C9E361
 008EE5 D4D6C4C561                  4357 PAR015 DC    C'MODE/'                                                   41420021
 008EEA D9C5C3D6D9C4C9D5            4358 PAR016 DC    C'RECORDING/'                                              41430021
 008EF2 C761
 008EF4 D9C5C5D361                  4359 PAR017 DC    C'REEL/'                                                   41440021
 008EF9 E2E8E2C9D561                4360 PAR018 DC    C'SYSIN/'                                                  41450021
 008EFF E2E8E2D6E4E361              4361 PAR019 DC    C'SYSOUT/'                                                 41460021
 008F06 E3D9C1C3D260C1D9            4362 PAR01A DC    C'TRACK-AREA/'                                             41470021
 008F0E C5C161
 008F11 61                          4363 PAR01B DC    C'/'                                                       41480021
 008F12 E3D9C1C3D260D3C9            4364 PAR01C   DC    C'TRACK-LIMIT/'                                          41490021
 008F1A D4C9E361
 008F1E 61                          4365 PAR01D DC    C'/'                                                       41500021
 008F1F 61                          4366 PAR01E DC    C'/'                                                       41510021
 008F20 61                          4367 PAR01F DC    C'/'                                                       41520021
 008F21 61                          4368 PAR020 DC    C'/'                                                       41530021
 008F22 61                          4369 PAR021 DC    C'/'                                                       41540021
 008F23 61                          4370 PAR022 DC    C'/'                                                       41550021
 008F24 61                          4371 PAR023 DC    C'/'                                                       41560021
 008F25 61                          4372 PAR024 DC    C'/'                                                       41570021
 008F26 D9C5D6D9C760C3D9            4373 PAR025   DC    C'REORG-CRITERIA/'                                       41580021
 008F2E C9E3C5D9C9C161
 008F35 C4C9E2D7D3C1E861            4374 PAR026 DC    C'DISPLAY/'                                                41590021
 008F3D C3D3C1E2E261                4375 PAR027   DC    C'CLASS/'                                                41600021
 008F43 D9C5E2C5E361                4376 PAR028 DC    C'RESET/'                                                  41610021
 008F49 61                          4377 PAR029 DC    C'/'                                                       41620021
1PH70     IKFCBL70                                                                                              PAGE  128
-  LOC  OBJECT CODE    ADDR1 ADDR2  STMT   SOURCE STATEMENT                                       ASM 0201 11.03 02/14/15
0008F4A 61                          4378 PAR02A DC    C'/'                                                       41630021
 008F4B D6D561                      4379 PAR02B DC    C'ON/'                                                     41640021
 008F4E 61                          4380 PAR02C DC    C'/'                                                       41650021
 008F4F 61                          4381 PAR02D DC    C'/'                                                       41660021
 008F50 61                          4382 PAR02E DC    C'/'                                                       41670021
 008F51 61                          4383 PAR02F DC    C'/'                                                       41680021
 008F52 C3E4D9D9C5D5C3E8            4384 PAR030   DC    C'CURRENCY/'                                             41690021
 008F5A 61
 008F5B 61                          4385 PAR031   DC    C'/'                                                     41700021
 008F5C C9D5C4C5E761                4386 PAR032   DC    C'INDEX/'                                                41710021
 008F62 E2E3C1E3E4E261              4387 PAR033   DC    C'STATUS/'                                               41720021
 008F69 D4D6C4E4D3C5E261            4388 PAR034   DC    C'MODULES/'                                              41730021
 008F71 D4C5D4D6D9E861              4389 PAR035   DC    C'MEMORY/'                                               41740021
 008F78 E6D6D9C4E261                4390 PAR036   DC    C'WORDS/'                                                41750021
 008F7E E2E8D5C3C8D9D6D5            4391 PAR037   DC    C'SYNCHRONIZED/'                                         41760021
 008F86 C9E9C5C461
 008F8B D6C6C661                    4392 PAR038   DC    C'OFF/'                                                  41770021
 008F8F D9C5D5C1D4C5E261            4393 PAR039   DC    C'RENAMES/'                                              41780021
 008F97 E4D761                      4394 PAR03A   DC    C'UP/'                                                   41790021
 008F9A C4D6E6D561                  4395 PAR03B   DC    C'DOWN/'                                                 41800021
 008F9F C6C9D3C561                  4396 PAR03C   DC    C'FILE/'                                                 41810021
 008FA4 D6D7E3C9D6D5C1D3            4397 PAR03D   DC    C'OPTIONAL/'                                             41820021
 008FAC 61
 008FAD D9C5D4C1C9D5C4C5            4398 PAR03E   DC    C'REMAINDER/'                                            41830021
 008FB5 D961
 008FB7 D7D6E2C9E3C9D6D5            4399 PAR03F   DC    C'POSITION/'                                             41840021
 008FBF 61
 008FC0 E3C1D7C561                  4400 PAR040   DC    C'TAPE/'                                                 41850021
 008FC5 61                          4401 PAR041   DC    C'/'                                                     41860021
 008FC6 C1C4C4D9C5E2E261            4402 PAR042   DC    C'ADDRESS/'                                              41870021
 008FCE 61                          4403 PAR043   DC    C'/'                                                     41880021
 008FCF D5E4D4C2C5D961              4404 PAR044   DC    C'NUMBER/'                                               41890021
 008FD6 C3E4D9D9C5D5E360            4405 PAR045   DC    C'CURRENT-DATE/'                                         41900021
 008FDE C4C1E3C561
 008FE3 E3C9D4C560D6C660            4406 PAR046   DC    C'TIME-OF-DAY/'                                          41910021
 008FEB C4C1E861
 008FEF C3D6D460D9C5C761            4407 PAR047   DC    C'COM-REG/'                                              41920021
 008FF7 E2D6D9E360D9C5E3            4408 PAR048   DC    C'SORT-RETURN/'                                          41930021
 008FFF E4D9D561
 009003 61                          4409 PAR049 DC    C'/'                                                       41940021
 009004 D3C5C1E5C561                4410 PAR04A DC    C'LEAVE/'                 OS                               41950021
 00900A D9C5D9C5C1C461              4411 PAR04B DC    C'REREAD/'                                                 41960021
 009011 C4C9E2D761                  4412 PAR04C DC    C'DISP/'                                                   41970021
 009016 61                          4413 PAR04D   DC    C'/'                                                     41980021
 009017 61                          4414 PAR04E   DC    C'/'                                                     41990021
 009018 61                          4415 PAR04F   DC    C'/'                                                     42000021
 009019 E3C8C5D561                  4416 PAR050 DC    C'THEN/'                                                   42010021
 00901E C3E8D360C9D5C4C5            4417 PAR051   DC    C'CYL-INDEX/'                                            42020021
 009026 E761
 009028 E6D9C9E3C560E5C5            4418 PAR052   DC    C'WRITE-VERIFY/'                                         42030021
 009030 D9C9C6E861
 009035 E3C8C1D561                  4419 PAR053 DC    C'THAN/'                                                   42040021
 00903A D9C5C3D6D9C460D6            4420 PAR054   DC    C'RECORD-OVERFLOW/'                                      42050021
 009042 E5C5D9C6D3D6E661
 00904A C1D3D7C8C1C2C5E3            4421 PAR055 DC    C'ALPHABETIC/'                                             42060021
1PH70     IKFCBL70                                                                                              PAGE  129
-  LOC  OBJECT CODE    ADDR1 ADDR2  STMT   SOURCE STATEMENT                                       ASM 0201 11.03 02/14/15
0009052 C9C361
 009055 D5E4D4C5D9C9C361            4422 PAR056 DC    C'NUMERIC/'                                                42070021
 00905D D7D6E2C9E3C9E5C5            4423 PAR057 DC    C'POSITIVE/'                                               42080021
 009065 61
 009066 D5C5C7C1E3C9E5C5            4424 PAR058 DC    C'NEGATIVE/'                                               42090021
 00906E 61
 00906F E4D7C4C1E3C561              4425 PAR059   DC    C'UPDATE/'                                               42100021
 009076 C5D5C460D6C660D7            4426 PAR05A   DC    C'END-OF-PAGE/'                                          42110021
 00907E C1C7C561
 009082 D3C1C2C5D360D9C5            4427 PAR05B DC    C'LABEL-RETURN/'                                           42120021
 00908A E3E4D9D561
 00908F D5D6E361                    4428 PAR05C DC    C'NOT/'                                                    42130021
 009093 C1D5C461                    4429 PAR05D DC    C'AND/'                                                    42140021
 009097 D6D961                      4430 PAR05E DC    C'OR/'                                                     42150021
 00909A D3C9D4C9E361                4431 PAR05F DC    C'LIMIT/'                                                  42160021
 0090A0 61                          4432 PAR060 DC    C'/'                                                       42170021
 0090A1 C2C5C7C9D5D5C9D5            4433 PAR061 DC    C'BEGINNING/'                                              42180021
 0090A9 C761
 0090AB C5D5C4C9D5C761              4434 PAR062 DC    C'ENDING/'                                                 42190021
 0090B2 D4D6D9C560D3C1C2            4435 PAR063 DC    C'MORE-LABELS/'                                            42200021
 0090BA C5D3E261
 0090BE D6E4E3D7E4E361              4436 PAR064 DC    C'OUTPUT/'                                                 42210021
 0090C5 61                          4437 PAR065 DC    C'/'                                                       42220021
 0090C6 C9D5D7E4E361                4438 PAR066 DC    C'INPUT/'                                                  42230021
 0090CC D9C1D5C4D6D461              4439 PAR067 DC    C'RANDOM/'                                                 42240021
 0090D3 D7D9D6C3C5E2E2C9            4440 PAR068 DC    C'PROCESSING/'                                             42250021
 0090DB D5C761
 0090DE C2C5C6D6D9C561              4441 PAR069 DC    C'BEFORE/'                                                 42260021
 0090E5 D9C5D7D6D9E3C9D5            4442 PAR06A DC    C'REPORTING/'                                              42270021
 0090ED C761
 0090EF C960D661                    4443 PAR06B DC    C'I-O/'                                                    42280021
 0090F3 E6C9E3C861                  4444 PAR06C DC    C'WITH/'                                                   42290021
 0090F8 D9C5E6C9D5C461              4445 PAR06D DC    C'REWIND/'                                                 42300021
 0090FF D9C5E5C5D9E2C5C4            4446 PAR06E DC    C'REVERSED/'                                               42310021
 009107 61
 009108 C9D5E3D661                  4447 PAR06F DC    C'INTO/'                                                   42320021
 00910D C1E361                      4448 PAR070 DC    C'AT/'                                                     42330021
 009110 C9D5E5C1D3C9C461            4449 PAR071 DC    C'INVALID/'                                                42340021
 009118 C1C6E3C5D961                4450 PAR072 DC    C'AFTER/'                                                  42350021
 00911E C1C4E5C1D5C3C9D5            4451 PAR073 DC    C'ADVANCING/'                                              42360021
 009126 C761
 009128 61                          4452 PAR074 DC    C'/'                                                       42370021
 009129 61                          4453 PAR075 DC    C'/'                                                       42380021
 00912A D3D6C3D261                  4454 PAR076 DC    C'LOCK/'                                                   42390021
 00912F E2E8E2D7E4D5C3C8            4455 PAR077 DC    C'SYSPUNCH/'                                               42400021
 009137 61
 009138 C3D6D5E2D6D3C561            4456 PAR078 DC    C'CONSOLE/'                                                42410021
 009140 C1D3D361                    4457 PAR079 DC    C'ALL/'                                                    42420021
 009144 C3D6D9D9C5E2D7D6            4458 PAR07A DC    C'CORRESPONDING/'                                          42430021
 00914C D5C4C9D5C761
 009152 E3C1D3D3E8C9D5C7            4459 PAR07B DC    C'TALLYING/'                                               42440021
 00915A 61
 00915B D3C5C1C4C9D5C761            4460 PAR07C DC    C'LEADING/'                                                42450021
 009163 E4D5E3C9D361                4461 PAR07D DC    C'UNTIL/'                                                  42460021
 009169 D9C5D7D3C1C3C9D5            4462 PAR07E DC    C'REPLACING/'                                              42470021
1PH70     IKFCBL70                                                                                              PAGE  130
-  LOC  OBJECT CODE    ADDR1 ADDR2  STMT   SOURCE STATEMENT                                       ASM 0201 11.03 02/14/15
0009171 C761
 009173 C2E861                      4463 PAR07F DC    C'BY/'                                                     42480021
 009176 61                          4464 PAR080 DC    C'/'                                                       42490021
 009177 C7C9E5C9D5C761              4465 PAR081 DC    C'GIVING/'                                                 42500021
 00917E D9D6E4D5C4C5C461            4466 PAR082 DC    C'ROUNDED/'                                                42510021
 009186 E2C9E9C561                  4467 PAR083 DC    C'SIZE/'                                                   42520021
 00918B C5D9D9D6D961                4468 PAR084 DC    C'ERROR/'                                                  42530021
 009191 D9E4D561                    4469 PAR085 DC    C'RUN/'                                                    42540021
 009195 D7D9D6C3C5C5C461            4470 PAR086 DC    C'PROCEED/'                                                42550021
 00919D E3C8D9E461                  4471 PAR087 DC    C'THRU/'                                                   42560021
 0091A2 E5C1D9E8C9D5C761            4472 PAR088 DC    C'VARYING/'                                                42570021
 0091AA E4E2C9D5C761                4473 PAR089 DC    C'USING/'                                                  42580021
 0091B0 C3D6C2D6D361                4474 PAR08A DC    C'COBOL/'                                                  42590021
 0091B6 61                          4475 PAR08B   DC    C'/'                                                     42600021
 0091B7 C4C5E2C3C5D5C4C9            4476 PAR08C DC    C'DESCENDING/'                                             42610021
 0091BF D5C761
 0091C2 C1E2C3C5D5C4C9D5            4477 PAR08D DC    C'ASCENDING/'                                              42620021
 0091CA C761
 0091CC E3D9C1C3C561                4478 PAR08E DC    C'TRACE/'                                                  42630021
 0091D2 C3C8C1D5C7C5C461            4479 PAR08F DC    C'CHANGED/'                                                42640021
 0091DA D5C1D4C5C461                4480 PAR090 DC    C'NAMED/'                                                  42650021
 0091E0 D3C9D5D2C1C7C561            4481 PAR091 DC    C'LINKAGE/'                                                42660021
 0091E8 C3C8C1D9C1C3E3C5            4482 PAR092 DC    C'CHARACTER/'                                              42670021
 0091F0 D961
 0091F2 E3C9D4C5E261                4483 PAR093 DC    C'TIMES/'                                                  42680021
 0091F8 C4C5D7C5D5C4C9D5            4484 PAR094 DC    C'DEPENDING/'                                              42690021
 009200 C761
 009202 D3C9D5C5E261                4485 PAR095 DC    C'LINES/'                                                  42700021
 009208 C6C9D9E2E361                4486 PAR096 DC    C'FIRST/'                                                  42710021
 00920E D5C5E7E361                  4487 PAR097 DC    C'NEXT/'                                                   42720021
 009213 E4D7D6D561                  4488 PAR098 DC    C'UPON/'                                                   42730021
 009218 D7D9D6C3C5C4E4D9            4489 PAR099 DC    C'PROCEDURE/'                                              42740021
 009220 C561
 009222 C5E5C5D9E861                4490 PAR09A DC    C'EVERY/'                                                  42750021
 009228 E3D661                      4491 PAR09B DC    C'TO/'                                                     42760021
 00922B C9E261                      4492 PAR09C DC    C'IS/'                                                     42770021
 00922E C6D9D6D461                  4493 PAR09D DC    C'FROM/'                                                   42780021
 009233 D5D661                      4494 PAR09E DC    C'NO/'                                                     42790021
 009236 D2C5E861                    4495 PAR09F DC    C'KEY/'                                                    42800021
 00923A D9C5E3E4D9D560C3            4496 PAR0A0 DC    C'RETURN-CODE/'                                            42810021
 009242 D6C4C561
 009246 C5D5C461                    4497 PAR0A1 DC    C'END/'                                                    42820021
 00924A E4D5C9E361                  4498 PAR0A2 DC    C'UNIT/'                                                   42830021
 00924F C6D6D961                    4499 PAR0A3 DC    C'FOR/'                                                    42840021
 009253 C9D560D6C661                4500 PAR0A4   DC    C'IN-OF/'                                                42850021
 009259 E2C5C3E3C9D6D561            4501 PAR0A5 DC    C'SECTION/'                                                42860021
 009261 D3C1C2C5D360D9C5            4502 PAR0A6   DC    C'LABEL-RETURN/'                                         42870021
 009269 E3E4D9D561
 00926E C4C9E5C9E2C9D6D5            4503 PAR0A7 DC    C'DIVISION/'                                               42880021
 009276 61
 009277 E2D6D9E360C6C9D3            4504 PAR0A8   DC    C'SORT-FILE-SIZE/'                                       42890021
 00927F C560E2C9E9C561
 009286 E2D6D9E360C3D6D9            4505 PAR0A9   DC    C'SORT-CORE-SIZE/'                                       42900021
 00928E C560E2C9E9C561
 009295 E2D6D9E360D4D6C4            4506 PAR0AA   DC    C'SORT-MODE-SIZE/'                                       42910021
1PH70     IKFCBL70                                                                                              PAGE  131
-  LOC  OBJECT CODE    ADDR1 ADDR2  STMT   SOURCE STATEMENT                                       ASM 0201 11.03 02/14/15
000929D C560E2C9E9C561
 0092A4 E2C9C7D561                  4507 PAR0AB   DC    C'SIGN/'                                                 42920021
 0092A9 E2D6D9E361                  4508 PAR0AC   DC    C'SORT/'                                                 42930021
 0092AE D4E4D3E3C9D7D3C5            4509 PAR0AD   DC    C'MULTIPLE/'                                             42940021
 0092B6 61
 0092B7 61                          4510 PAR0AE DC    C'/'                                                       42950021
 0092B8 C6C9D3D3C5D961              4511 PAR0AF DC    C'FILLER/'                                                 42960021
 0092BF 61                          4512 PAR0B0 DC    C'/'                                                       42970021
 0092C0 C1E2E2C9C7D561              4513 PAR0B1 DC    C'ASSIGN/'                                                 42980021
 0092C7 C1C3C3C5E2E261              4514 PAR0B2 DC    C'ACCESS/'                                                 42990021
 0092CE 61                          4515 PAR0B3 DC    C'/'                                                       43000021
 0092CF D9C5E2C5D9E5C561            4516 PAR0B4 DC    C'RESERVE/'                                                43010021
 0092D7 D5D6D4C9D5C1D361            4517 PAR0B5   DC    C'NOMINAL/'                                              43020021
 0092DF C1C3E3E4C1D361              4518 PAR0B6 DC    C'ACTUAL/'                                                 43030021
 0092E6 C2C1E2C9E261                4519 PAR0B7 DC    C'BASIS/'                                            0094  43040021
 0092EC C4C5C2E4C761                4520 PAR0B8 DC    C'DEBUG/'                                            0094  43050021
 0092F2 C4C5D3C5E3C561              4521 PAR0B9 DC    C'DELETE/'                                           0094  43060021
 0092F9 E2C5D8E4C5D5E3C9            4522 PAR0BA DC    C'SEQUENTIAL/'                                             43070021
 009301 C1D361
 009304 C9D5E2C5D9E361              4523 PAR0BB DC    C'INSERT/'                                           0094  43080021
 00930B C9D5C4C5E7C5C461            4524 PAR0BC DC    C'INDEXED/'                                                43090021
 009313 61                          4525 PAR0BD DC    C'/'                                                       43100021
 009314 C1D3E3C5D9D5C1E3            4526 PAR0BE DC    C'ALTERNATE/'                                              43110021
 00931C C561
 00931E C1D9C5C161                  4527 PAR0BF DC    C'AREA/'                                                   43120021
 009323 61                          4528 PAR0C0 DC    C'/'                                                       43130021
 009324 61                          4529 PAR0C1 DC    C'/'                                                       43140021
 009325 61                          4530 PAR0C2 DC    C'/'                                                       43150021
 009326 E2C5C1D9C3C861              4531 PAR0C3 DC    C'SEARCH/'                                                 43160021
 00932D E3D9C1C3D24DE25D            4532 PAR0C4   DC    C'TRACK(S)/'                                             43170021
 009335 61
 009336 61                          4533 PAR0C5 DC    C'/'                                                       43180021
 009337 61                          4534 PAR0C6 DC    C'/'                                                       43190021
 009338 61                          4535 PAR0C7   DC    C'/'                                                     43200021
 009339 D3C9C2D9C1D9E861            4536 PAR0C8 DC    C'LIBRARY/'                                                43210021
 009341 61                          4537 PAR0C9 DC    C'/'                                                       43220021
 009342 E5C1D3E4C561                4538 PAR0CA DC    C'VALUE/'                                                  43230021
 009348 D7D9C9D5E360E2E6            4539 PAR0CB DC    C'PRINT-SWITCH/'                                           43240021
 009350 C9E3C3C861
 009355 C2D3D6C3D261                4540 PAR0CC DC    C'BLOCK/'                                                  43250021
 00935B D9C5C3D6D9C461              4541 PAR0CD DC    C'RECORD/'                                                 43260021
 009362 61                          4542 PAR0CE DC    C'/'                                                       43270021
 009363 D9C5C3D6D9C4E261            4543 PAR0CF DC    C'RECORDS/'                                          50747 43280021
 00936B C3D6D5E3D9D6D361            4544 PAR0D0 DC    C'CONTROL/'                                                43290021
 009373 D3C1C2C5D361                4545 PAR0D1 DC    C'LABEL/'                                                  43300021
 009379 61                          4546 PAR0D2 DC    C'/'                                                       43310021
 00937A C3D6D5E3C1C9D5E2            4547 PAR0D3 DC    C'CONTAINS/'                                               43320021
 009382 61
 009383 D6D4C9E3E3C5C461            4548 PAR0D4 DC    C'OMITTED/'                                                43330021
 00938B E2E3C1D5C4C1D9C4            4549 PAR0D5 DC    C'STANDARD/'                                               43340021
 009393 61
 009394 D9C5D7D6D9E34DE2            4550 PAR0D6 DC    C'REPORT(S)/'                                              43350021
 00939C 5D61
 00939E D9C5C4C5C6C9D5C5            4551 PAR0D7 DC    C'REDEFINES/'                                              43360021
 0093A6 E261
1PH70     IKFCBL70                                                                                              PAGE  132
-  LOC  OBJECT CODE    ADDR1 ADDR2  STMT   SOURCE STATEMENT                                       ASM 0201 11.03 02/14/15
00093A8 D7C9C3E3E4D9C561            4552 PAR0D8 DC    C'PICTURE/'                                                43370021
 0093B0 C2D3C1D5D261                4553 PAR0D9 DC    C'BLANK/'                                                  43380021
 0093B6 D6C3C3E4D9E261              4554 PAR0DA DC    C'OCCURS/'                                                 43390021
 0093BD D1E4E2E3C9C6C9C5            4555 PAR0DB DC    C'JUSTIFIED/'                                              43400021
 0093C5 C461
 0093C7 D7D6E2C9E3C9D6D5            4556 PAR0DC DC    C'POSITIONING/'                                            43410021
 0093CF C9D5C761
 0093D3 E4E2C1C7C561                4557 PAR0DD DC    C'USAGE/'                                                  43420021
 0093D9 C3D6D4D7E4E3C1E3            4558 PAR0DE DC    C'COMPUTATIONAL/'                                          43430021
 0093E1 C9D6D5C1D361
 0093E7 C3D6D4D7E4E3C1E3            4559 PAR0DF DC    C'COMPUTATIONAL-1/'                                        43440021
 0093EF C9D6D5C1D360F161
 0093F7 C3D6D4D7E4E3C1E3            4560 PAR0E0 DC    C'COMPUTATIONAL-2/'                                        43450021
 0093FF C9D6D5C1D360F261
 009407 C3D6D4D7E4E3C1E3            4561 PAR0E1 DC    C'COMPUTATIONAL-3/'                                        43460021
 00940F C9D6D5C1D360F361
 009417 E6C8C5D561                  4562 PAR0E2 DC    C'WHEN/'                                                   43470021
 00941C D9C9C7C8E361                4563 PAR0E3 DC    C'RIGHT/'                                                  43480021
 009422 D3C5C6E361                  4564 PAR0E4 DC    C'LEFT/'                                                   43490021
 009427 C3D6C4C561                  4565 PAR0E5 DC    C'CODE/'                                                   43500021
 00942C D7C1C7C561                  4566 PAR0E6 DC    C'PAGE/'                                                   43510021
 009431 C6C9D5C1D361                4567 PAR0E7 DC    C'FINAL/'                                                  43520021
 009437 C3D6D5E3D9D6D3E2            4568 PAR0E8   DC    C'CONTROLS/'                                             43530021
 00943F 61
 009440 C8C5C1C4C9D5C761            4569 PAR0E9 DC    C'HEADING/'                                                43540021
 009448 C4C5E3C1C9D361              4570 PAR0EA DC    C'DETAIL/'                                                 43550021
 00944F D3C1E2E361                  4571 PAR0EB DC    C'LAST/'                                                   43560021
 009454 C6D6D6E3C9D5C761            4572 PAR0EC DC    C'FOOTING/'                                                43570021
 00945C D3C9D5C561                  4573 PAR0ED   DC    C'LINE/'                                                 43580021
 009461 C7D9D6E4D761                4574 PAR0EE DC    C'GROUP/'                                                  43590021
 009467 E3E8D7C561                  4575 PAR0EF DC    C'TYPE/'                                                   43600021
 00946C D7D3E4E261                  4576 PAR0F0 DC    C'PLUS/'                                                   43610021
 009471 61                          4577 PAR0F1 DC    C'/'                                                       43620021
 009472 C4C9E2D7D3C1E860            4578 PAR0F2 DC    C'DISPLAY-ST/'                                             43630021
 00947A E2E361
 00947D D9C861                      4579 PAR0F3 DC    C'RH/'                                                     43640021
 009480 D7C861                      4580 PAR0F4 DC    C'PH/'                                                     43650021
 009483 61                          4581 PAR0F5   DC    C'/'                                                     43660021
 009484 C3C861                      4582 PAR0F6 DC    C'CH/'                                                     43670021
 009487 C4C561                      4583 PAR0F7   DC    C'DE/'                                                   43680021
 00948A C3C661                      4584 PAR0F8 DC    C'CF/'                                                     43690021
 00948D 61                          4585 PAR0F9 DC    C'/'                                                       43700021
 00948E D7C661                      4586 PAR0FA DC    C'PF/'                                                     43710021
 009491 E2C5D5E3C5D5C3C5            4587 PAR0FB DC    C'SENTENCE/'                                               43720021
 009499 61
 00949A C3D6D3E4D4D561              4588 PAR0FC DC    C'COLUMN/'                                                 43730021
 0094A1 C9D5C4C9C3C1E3C5            4589 PAR0FD DC    C'INDICATE/'                                               43740021
 0094A9 61
 0094AA E2D6E4D9C3C561              4590 PAR0FE DC    C'SOURCE/'                                                 43750021
 0094B1 E2E4D461                    4591 PAR0FF DC    C'SUM/'                                                    43760021
 0094B5 C1C4C461                    4592 PAR100 DC    C'ADD/'                    VERBS                           43770021
 0094B9 E2E4C2E3D9C1C3E3            4593 PAR101 DC    C'SUBTRACT/'                                               43780021
 0094C1 61
 0094C2 D4E4D3E3C9D7D3E8            4594 PAR102 DC    C'MULTIPLY/'                                               43790021
 0094CA 61
1PH70     IKFCBL70                                                                                              PAGE  133
-  LOC  OBJECT CODE    ADDR1 ADDR2  STMT   SOURCE STATEMENT                                       ASM 0201 11.03 02/14/15
00094CB C4C9E5C9C4C561              4595 PAR103 DC    C'DIVIDE/'                                                 43800021
 0094D2 C3D6D4D7E4E3C561            4596 PAR104 DC    C'COMPUTE/'                                                43810021
 0094DA 61                          4597 PAR105 DC    C'/'                                                       43820021
 0094DB C5D5C460D6C660E2            4598 PAR106 DC    C'END-OF-SENT/'                                            43830021
 0094E3 C5D5E361
 0094E7 C9C661                      4599 PAR107 DC    C'IF/'                                                     43840021
 0094EA C5D3E2C561                  4600 PAR108 DC    C'ELSE/'                                                   43850021
 0094EF 61                          4601 PAR109 DC      C'/'                                                     43860021
 0094F0 61                          4602 PAR10A DC      C'/'                                                     43870021
 0094F1 61                          4603 PAR10B DC      C'/'                                                     43880021
 0094F2 61                          4604 PAR10C DC      C'/'                                                     43890021
 0094F3 61                          4605 PAR10D DC      C'/'                                                     43900021
 0094F4 61                          4606 PAR10E DC      C'/'                                                     43910021
 0094F5 61                          4607 PAR10F DC      C'/'                                                     43920021
 0094F6 E2E3D6D761                  4608 PAR110 DC    C'STOP/'                                                   43930021
 0094FB C7D661                      4609 PAR111 DC    C'GO/'                                                     43940021
 0094FE 61                          4610 PAR112 DC    C'/'                                                       43950021
 0094FF 61                          4611 PAR113 DC    C'/'                                                       43960021
 009500 61                          4612 PAR114 DC    C'/'                                                       43970021
 009501 61                          4613 PAR115 DC    C'/'                                                       43980021
 009502 61                          4614 PAR116 DC    C'/'                                                       43990021
 009503 61                          4615 PAR117 DC    C'/'                                                       44000021
 009504 61                          4616 PAR118 DC    C'/'                                                       44010021
 009505 61                          4617 PAR119 DC    C'/'                                                       44020021
 009506 61                          4618 PAR11A DC    C'/'                                                       44030021
 009507 61                          4619 PAR11B DC    C'/'                                                       44040021
 009508 C1D3E3C5D961                4620 PAR11C DC    C'ALTER/'                                                  44050021
 00950E D4D6E5C561                  4621 PAR11D DC    C'MOVE/'                                                   44060021
 009513 C5E7C1D4C9D5C561            4622 PAR11E DC    C'EXAMINE/'                                                44070021
 00951B E3D9C1D5E2C6D6D9            4623 PAR11F DC    C'TRANSFORM/'                                              44080021
 009523 D461
 009525 D9C5C1C461                  4624 PAR120 DC    C'READ/'                                                   44090021
 00952A D6D7C5D561                  4625 PAR121 DC    C'OPEN/'                                                   44100021
 00952F C3D3D6E2C561                4626 PAR122 DC    C'CLOSE/'                                                  44110021
 009535 E6D9C9E3C561                4627 PAR123 DC    C'WRITE/'                                                  44120021
 00953B D9C5E6D9C9E3C561            4628 PAR124 DC    C'REWRITE/'                                                44130021
 009543 C1C3C3C5D7E361              4629 PAR125 DC    C'ACCEPT/'                                                 44140021
 00954A C4C9E2D7D3C1E861            4630 PAR126 DC    C'DISPLAY/'                                                44150021
 009552 C5E7C8C9C2C9E361            4631 PAR127 DC    C'EXHIBIT/'                                                44160021
 00955A D9C5E2C5E361                4632 PAR128 DC    C'RESET/'                                                  44170021
 009560 D9C5C1C4E861                4633 PAR129 DC    C'READY/'                                                  44180021
 009566 D9C5E3E4D9D561              4634 PAR12A DC    C'RETURN/'                                                 44190021
 00956D D6D561                      4635 PAR12B DC    C'ON/'                                                     44200021
 009570 C5D5E3D9E861                4636 PAR12C DC    C'ENTRY/'                                                  44210021
 009576 C3C1D3D361                  4637 PAR12D DC    C'CALL/'                                                   44220021
 00957B C5D5E3C5D961                4638 PAR12E DC    C'ENTER/'                                                  44230021
 009581 61                          4639 PAR12F   DC    C'/'                                                     44240021
 009582 61                          4640 PAR130   DC    C'/'                                                     44250021
 009583 E4E2C561                    4641 PAR131 DC    C'USE/'                                                    44260021
 009587 C5E7C9E361                  4642 PAR132 DC    C'EXIT/'                                                   44270021
 00958C C9D5C9E3C9C1E3C5            4643 PAR133 DC    C'INITIATE/'                                               44280021
 009594 61
 009595 C7C5D5C5D9C1E3C5            4644 PAR134 DC    C'GENERATE/'                                               44290021
 00959D 61
 00959E E3C5D9D4C9D5C1E3            4645 PAR135 DC    C'TERMINATE/'                                              44300021
1PH70     IKFCBL70                                                                                              PAGE  134
-  LOC  OBJECT CODE    ADDR1 ADDR2  STMT   SOURCE STATEMENT                                       ASM 0201 11.03 02/14/15
00095A6 C561
 0095A8 E2D6D9E361                  4646 PAR136 DC    C'SORT/'                                                   44310021
 0095AD D9C5D3C5C1E2C561            4647 PAR137 DC    C'RELEASE/'                                                44320021
 0095B5 D7C5D9C6D6D9D461            4648 PAR138 DC    C'PERFORM/'                                                44330021
 0095BD 61                          4649 PAR139 DC    C'/'                                                       44340021
 0095BE D3C9D5D261                  4650 PAR13A DC    C'LINK/'                                                   44350021
 0095C3 C4C5C2E4C761                4651 PAR13B DC    C'DEBUG/'                                                  44360021
 0095C9 61                          4652 PAR13C DC    C'/'                                                       44370021
 0095CA 61                          4653 PAR13D DC    C'/'                                                       44380021
 0095CB 61                          4654 PAR13E DC    C'/'                                                       44390021
 0095CC 61                          4655 PAR13F DC    C'/'                                                       44400021
 0095CD C9D5C9E361                  4656 PAR140 DC    C'INIT/'                                                   44410021
 0095D2 C9D5C3D9C161                4657 PAR141 DC    C'INCRA/'                                                  44420021
 0095D8 E2E3C5D761                  4658 PAR142 DC    C'STEP/'                                                   44430021
 0095DD E4D7C4C1E3C561              4659 PAR143 DC    C'UPDATE/'                                                 44440021
 0095E4 61                          4660 PAR144 DC    C'/'                                                       44450021
 0095E5 61                          4661 PAR145 DC    C'/'                                                       44460021
 0095E6 61                          4662 PAR146 DC    C'/'                                                       44470021
 0095E7 61                          4663 PAR147 DC    C'/'                                                       44480021
 0095E8 61                          4664 PAR148 DC    C'/'                                                       44490021
 0095E9 61                          4665 PAR149 DC    C'/'                                                       44500021
 0095EA 61                          4666 PAR14A DC    C'/'                                                       44510021
 0095EB 61                          4667 PAR14B DC    C'/'                                                       44520021
 0095EC 61                          4668 PAR14C DC    C'/'                                                       44530021
 0095ED 61                          4669 PAR14D DC    C'/'                                                       44540021
 0095EE 61                          4670 PAR14E DC    C'/'                                                       44550021
 0095EF 61                          4671 PAR14F DC    C'/'                                                       44560021
 0095F0 61                          4672 PAR150 DC    C'/'                                                       44570021
 0095F1 61                          4673 PAR151 DC    C'/'                                                       44580021
 0095F2 61                          4674 PAR152 DC    C'/'                                                       44590021
 0095F3 61                          4675 PAR153 DC    C'/'                                                       44600021
 0095F4 61                          4676 PAR154 DC    C'/'                                                       44610021
 0095F5 61                          4677 PAR155 DC    C'/'                                                       44620021
 0095F6 61                          4678 PAR156 DC    C'/'                                                       44630021
 0095F7 61                          4679 PAR157 DC    C'/'                                                       44640021
 0095F8 61                          4680 PAR158 DC    C'/'                                                       44650021
 0095F9 61                          4681 PAR159 DC    C'/'                                                       44660021
 0095FA 61                          4682 PAR15A DC    C'/'                                                       44670021
 0095FB 61                          4683 PAR15B DC    C'/'                                                       44680021
 0095FC 61                          4684 PAR15C DC    C'/'                                                       44690021
 0095FD 61                          4685 PAR15D DC    C'/'                                                       44700021
 0095FE E2C5C1D9C3C861              4686 PAR15E   DC    C'SEARCH/'                                               44710021
 009605 E2C5C1D9C3C840C1            4687 PAR15F   DC    C'SEARCH ALL/'                                           44720021
 00960D D3D361
 009610 C7D6C2C1C3D261              4688 PAR160   DC    C'GOBACK/'                                               44730021
 009617 E2C5E361                    4689 PAR161   DC    C'SET/'                                                  44740021
 00961B E2C5C7D4C5D5E360            4690 PAR162   DC    C'SEGMENT-LIMIT/'                                  0809  44750021
 009623 D3C9D4C9E361
 009629 E2C5C5D261                  4691 PAR163   DC    C'SEEK/'                                                 44760021
 00962E E2E3C1D9E361                4692 PAR164   DC    C'START/'                                                44770021
 009634 61                          4693 PAR165   DC    C'/'                                                     44780021
 009635 61                          4694 PAR166   DC    C'/'                                                     44790021
 009636 61                          4695 PAR167 DC    C'/'                                                       44800021
 009637 61                          4696 PAR168   DC    C'/'                                                     44810021
 009638 61                          4697 PAR169 DC    C'/'                                                       44820021
1PH70     IKFCBL70                                                                                              PAGE  135
-  LOC  OBJECT CODE    ADDR1 ADDR2  STMT   SOURCE STATEMENT                                       ASM 0201 11.03 02/14/15
0009639 61                          4698 PAR16A DC    C'/'                                                       44830021
 00963A 61                          4699 PAR16B DC    C'/'                                                       44840021
 00963B 61                          4700 PAR16C DC    C'/'                                                       44850021
 00963C 61                          4701 PAR16D DC    C'/'                                                       44860021
 00963D 61                          4702 PAR16E DC    C'/'                                                       44870021
 00963E 61                          4703 PAR16F DC    C'/'                                                       44880021
 00963F 61                          4704 PAR170 DC    C'/'                                                       44890021
 009640 D9C5C1C461                  4705 PAR171   DC    C'READ/'                                                 44900021
 009645 E6D9C9E3C561                4706 PAR172   DC    C'WRITE/'                                                44910021
 00964B C7D6C2C1C3D261              4707 PAR173   DC    C'GOBACK/'                                               44920021
 009652 61                          4708 PAR174 DC    C'/'                                                       44930021
 009653 61                          4709 PAR175   DC    C'/'                                                     44940021
 009654 E2C5E3E5D3C361              4710 PAR176   DC    C'SETVLC/'                                               44950021
 00965B 61                          4711 PAR177 DC    C'/'                                                       44960021
 00965C 61                          4712 PAR178 DC    C'/'                                                       44970021
 00965D 61                          4713 PAR179 DC    C'/'                                                       44980021
 00965E 61                          4714 PAR17A DC    C'/'                                                       44990021
 00965F 61                          4715 PAR17B DC    C'/'                                                       45000021
 009660 61                          4716 PAR17C DC    C'/'                                                       45010021
 009661 61                          4717 PAR17D DC    C'/'                                                       45020021
 009662 61                          4718 PAR17E DC    C'/'                                                       45030021
 009663 61                          4719 PAR17F DC    C'/'                                                       45040021
 009664 61                          4720 PAR180 DC    C'/'                                                       45050021
 009665 E5C9D9E3E4C1D340            4721 PAR181 DC    C'VIRTUAL REFERENC'                                        45060021
 00966D D9C5C6C5D9C5D5C3
 009675 C561                        4722        DC    C'E/'                                                      45070021
 009677 61                          4723 PAR182 DC    C'/'                                                       45080021
 009678 C3C1D9D9C9C1C7C5            4724 PAR183   DC    C'CARRIAGE CONTR'                                        45090021
 009680 40C3D6D5E3D9
 009686 D6D340E6D6D9C461            4725          DC    C'OL WORD/'                                              45100021
 00968E 61                          4726 PAR184 DC    C'/'                                                       45110021
 00968F 61                          4727 PAR185 DC    C'/'                                                       45120021
 009690 C5D8E4C1D361                4728 PAR186 DC    C'EQUAL/'                                                  45130021
 009696 61                          4729 PAR187 DC    C'/'                                                       45140021
 009697 C7D9C5C1E3C5D961            4730 PAR188 DC    C'GREATER/'                                                45150021
 00969F 61                          4731 PAR189 DC    C'/'                                                       45160021
 0096A0 D3C5E2E261                  4732 PAR18A DC    C'LESS/'                                                   45170021
 0096A5 61                          4733 PAR18B DC    C'/'                                                       45180021
 0096A6 61                          4734 PAR18C DC    C'/'                                                       45190021
 0096A7 61                          4735 PAR18D DC    C'/'                                                       45200021
 0096A8 61                          4736 PAR18E DC    C'/'                                                       45210021
 0096A9 61                          4737 PAR18F DC    C'/'                                                       45220021
 0096AA D3C5C6E340D7C1D9            4738 PAR190 DC    C'LEFT PAREN/'                  PARENTHESES                45230021
 0096B2 C5D561
 0096B5 D9C9C7C8E340D7C1            4739 PAR191 DC    C'RIGHT PAREN/'                                            45240021
 0096BD D9C5D561
 0096C1 61                          4740 PAR192 DC    C'/'                                                       45250021
 0096C2 61                          4741 PAR193 DC    C'/'                                                       45260021
 0096C3 61                          4742 PAR194 DC    C'/'                                                       45270021
 0096C4 61                          4743 PAR195 DC    C'/'                                                       45280021
 0096C5 61                          4744 PAR196 DC    C'/'                                                       45290021
 0096C6 61                          4745 PAR197 DC    C'/'                                                       45300021
 0096C7 61                          4746 PAR198 DC    C'/'                                                       45310021
 0096C8 61                          4747 PAR199 DC    C'/'                                                       45320021
 0096C9 61                          4748 PAR19A DC    C'/'                                                       45330021
1PH70     IKFCBL70                                                                                              PAGE  136
-  LOC  OBJECT CODE    ADDR1 ADDR2  STMT   SOURCE STATEMENT                                       ASM 0201 11.03 02/14/15
00096CA 61                          4749 PAR19B DC    C'/'                                                       45340021
 0096CB 61                          4750 PAR19C DC    C'/'                                                       45350021
 0096CC 61                          4751 PAR19D DC    C'/'                                                       45360021
 0096CD 61                          4752 PAR19E DC    C'/'                                                       45370021
 0096CE 61                          4753 PAR19F DC    C'/'                                                       45380021
 0096CF D7D3E4E240E2C9C7            4754 PAR1A0 DC    C'PLUS SIGN/'              ARITHMETIC OPERATORS            45390021
 0096D7 D561
 0096D9 D4C9D5E4E240E2C9            4755 PAR1A1 DC    C'MINUS SIGN/'                                             45400021
 0096E1 C7D561
 0096E4 C1E2E3C5D9C9E2D2            4756 PAR1A2 DC    C'ASTERISK/'                                               45410021
 0096EC 61
 0096ED E2D3C1E2C861                4757 PAR1A3 DC    C'SLASH/'                                                  45420021
 0096F3 5C5C61                      4758 PAR1A4 DC    C'**/'                                                     45430021
 0096F6 61                          4759 PAR1A5 DC    C'/'                                                       45440021
 0096F7 61                          4760 PAR1A6 DC    C'/'                                                       45450021
 0096F8 61                          4761 PAR1A7 DC    C'/'                                                       45460021
 0096F9 61                          4762 PAR1A8 DC    C'/'                                                       45470021
 0096FA 61                          4763 PAR1A9 DC    C'/'                                                       45480021
 0096FB 61                          4764 PAR1AA DC    C'/'                                                       45490021
 0096FC 61                          4765 PAR1AB DC    C'/'                                                       45500021
 0096FD 61                          4766 PAR1AC DC    C'/'                                                       45510021
 0096FE 61                          4767 PAR1AD DC    C'/'                                                       45520021
 0096FF 61                          4768 PAR1AE DC    C'/'                                                       45530021
 009700 61                          4769 PAR1AF DC    C'/'                                                       45540021
 009701 61                          4770 PAR1B0 DC    C'/'                       CRITICAL PROGRAM BREAKS         45550021
 009702 C4C1E3C161                  4771 PAR1B1 DC    C'DATA/'                                                   45560021
 009707 C6C9D3C561                  4772 PAR1B2 DC    C'FILE/'                                                   45570021
 00970C E6D6D9D2C9D5C760            4773 PAR1B3 DC    C'WORKING-STORAGE/'                                        45580021
 009714 E2E3D6D9C1C7C561
 00971C D3C9D5D2C1C7C561            4774 PAR1B4 DC    C'LINKAGE/'                                                45590021
 009724 D9C5D7D6D9E361              4775 PAR1B5 DC    C'REPORT/'                                                 45600021
 00972B D7D9D6C3C5C4E4D9            4776 PAR1B6 DC    C'PROCEDURE/'                                              45610021
 009733 C561
 009735 C4C5C3D3C1D9C1E3            4777 PAR1B7 DC    C'DECLARATIVES/'                                           45620021
 00973D C9E5C5E261
 009742 C5D5C440C4C5C3D3            4778 PAR1B8 DC    C'END DECLARATIVES'                                        45630021
 00974A C1D9C1E3C9E5C5E2
 009752 61                          4779        DC    C'/'                                                       45640021
 009753 C4C5C2E4C740E2C5            4780 PAR1B9 DC    C'DEBUG SECT/'                                             45650021
 00975B C3E361
 00975E 61                          4781 PAR1BA DC    C'/'                                                       45660021
 00975F C2C5C7C9D5D5C9D5            4782 PAR1BB DC    C'BEGINNING OF Q-T'                                        45670021
 009767 C740D6C640D860E3
 00976F C5E7E361                    4783        DC    C'EXT/'                                                    45680021
 009773 C5D5C440D6C640D8            4784 PAR1BC DC    C'END OF Q-TEXT/'                                          45690021
 00977B 60E3C5E7E361
 009781 C2C5C7C9D5D5C9D5            4785 PAR1BD DC    C'BEGINNING OF R-T'                                        45700021
 009789 C740D6C640D960E3
 009791 C5E7E361                    4786        DC    C'EXT/'                                                    45710021
 009795 C5D5C440D6C640D9            4787 PAR1BE DC    C'END OF R-TEXT/'                                          45720021
 00979D 60E3C5E7E361
 0097A3 C4C1E3C560C3D6D4            4788 PAR1BF DC    C'DATE-COMPILED/'                                          45730021
 0097AB D7C9D3C5C461
 0097B1 E2C5C3E4D9C9E3E8            4789 PAR1C0 DC    C'SECURITY/'                                               45740021
 0097B9 61
1PH70     IKFCBL70                                                                                              PAGE  137
-  LOC  OBJECT CODE    ADDR1 ADDR2  STMT   SOURCE STATEMENT                                       ASM 0201 11.03 02/14/15
00097BA C9C4C5D5E3C9C6C9            4790 PAR1C1 DC    C'IDENTIFICATION/'                                         45750021
 0097C2 C3C1E3C9D6D561
 0097C9 D7D9D6C7D9C1D460            4791 PAR1C2 DC    C'PROGRAM-ID/'                                             45760021
 0097D1 C9C461
 0097D4 C1E4E3C8D6D961              4792 PAR1C3 DC    C'AUTHOR/'                                                 45770021
 0097DB 61                          4793 PAR1C4 DC    C'/'                                                       45780021
 0097DC C3D6D5C6C9C7E4D9            4794 PAR1C5 DC    C'CONFIGURATION/'                                          45790021
 0097E4 C1E3C9D6D561
 0097EA E2D6E4D9C3C560C3            4795 PAR1C6 DC    C'SOURCE-COMPUTER/'                                        45800021
 0097F2 D6D4D7E4E3C5D961
 0097FA D6C2D1C5C3E360C3            4796 PAR1C7 DC    C'OBJECT-COMPUTER/'                                        45810021
 009802 D6D4D7E4E3C5D961
 00980A C9D5D7E4E360D6E4            4797 PAR1C8 DC    C'INPUT-OUTPUT/'                                           45820021
 009812 E3D7E4E361
 009817 C6C9D3C560C3D6D5            4798 PAR1C9 DC    C'FILE-CONTROL/'                                           45830021
 00981F E3D9D6D361
 009824 C960D660C3D6D5E3            4799 PAR1CA DC    C'I-O-CONTROL/'                                            45840021
 00982C D9D6D361
 009830 E2D7C5C3C9C1D360            4800 PAR1CB DC    C'SPECIAL-NAMES/'                                          45850021
 009838 D5C1D4C5E261
 00983E C4C1E3C560E6D9C9            4801 PAR1CC DC    C'DATE-WRITTEN/'                                           45860021
 009846 E3E3C5D561
 00984B C9D5E2E3C1D3D3C1            4802 PAR1CD DC    C'INSTALLATION/'                                           45870021
 009853 E3C9D6D561
 009858 D9C5D4C1D9D2E261            4803 PAR1CE DC    C'REMARKS/'                                                45880021
 009860 C5D5C440D6C640D7            4804 PAR1CF DC    C'END OF PROGRAM/'                                         45890021
 009868 D9D6C7D9C1D461
 00986F D3D6E660E5C1D3E4            4805 PAR1D0 DC    C'LOW-VALUE/'              FIGURATIVE CONSTANTS            45900021
 009877 C561
 009879 F7F761                      4806 PAR1D1   DC    C'77/'                   LEVEL NUMBERS                   45910021
 00987C F8F861                      4807 PAR1D2   DC    C'88/'                                                   45920021
 00987F D9C461                      4808 PAR1D3   DC    C'RD/'                                                   45930021
 009882 E2C161                      4809 PAR1D4   DC    C'SA/'                                                   45940021
 009885 E2C461                      4810 PAR1D5   DC    C'SD/'                                                   45950021
 009888 61                          4811 PAR1D6   DC    C'/'                                                     45960021
 009889 C6C461                      4812 PAR1D7   DC    C'FD/'                                                   45970021
 00988C E2D7C1C3C561                4813 PAR1D8 DC    C'SPACE/'                                                  45980021
 009892 61                          4814 PAR1D9 DC    C'/'                                                       45990021
 009893 61                          4815 PAR1DA DC    C'/'                                                       46000021
 009894 61                          4816 PAR1DB DC    C'/'                                                       46010021
 009895 61                          4817 PAR1DC DC    C'/'                                                       46020021
 009896 61                          4818 PAR1DD DC    C'/'                                                       46030021
 009897 61                          4819 PAR1DE DC    C'/'                                                       46040021
 009898 D8E4D6E3C561                4820 PAR1DF DC    C'QUOTE/'                                                  46050021
 00989E 61                          4821 PAR1E0 DC    C'/'                                                       46060021
 00989F 61                          4822 PAR1E1 DC    C'/'                                                       46070021
 0098A0 61                          4823 PAR1E2 DC    C'/'                                                       46080021
 0098A1 61                          4824 PAR1E3 DC    C'/'                                                       46090021
 0098A2 61                          4825 PAR1E4 DC    C'/'                                                       46100021
 0098A3 61                          4826 PAR1E5 DC    C'/'                                                       46110021
 0098A4 61                          4827 PAR1E6 DC    C'/'                                                       46120021
 0098A5 61                          4828 PAR1E7 DC    C'/'                                                       46130021
 0098A6 61                          4829 PAR1E8 DC    C'/'                                                       46140021
 0098A7 61                          4830 PAR1E9 DC    C'/'                                                       46150021
 0098A8 61                          4831 PAR1EA DC    C'/'                                                       46160021
1PH70     IKFCBL70                                                                                              PAGE  138
-  LOC  OBJECT CODE    ADDR1 ADDR2  STMT   SOURCE STATEMENT                                       ASM 0201 11.03 02/14/15
00098A9 61                          4832 PAR1EB DC    C'/'                                                       46170021
 0098AA 61                          4833 PAR1EC DC    C'/'                                                       46180021
 0098AB 61                          4834 PAR1ED DC    C'/'                                                       46190021
 0098AC E9C5D9D661                  4835 PAR1EE DC    C'ZERO/'                                                   46200021
 0098B1 C8C9C7C860E5C1D3            4836 PAR1EF DC    C'HIGH-VALUE/'                                             46210021
 0098B9 E4C561
 0098BC 61                          4837 PAR1F0 DC    C'/'                      ENVIRONMENT DIV. VERBS           46220021
 0098BD E2C5D3C5C3E361              4838 PAR1F1 DC    C'SELECT/'                                                 46230021
 0098C4 D9C5D9E4D561                4839 PAR1F2 DC    C'RERUN/'                                                  46240021
 0098CA E2C1D4C561                  4840 PAR1F3 DC    C'SAME/'                                                   46250021
 0098CF C1D7D7D3E861                4841 PAR1F4 DC    C'APPLY/'                                                  46260021
 0098D5 C3D6D7E861                  4842 PAR1F5 DC    C'COPY/'                                                   46270021
 0098DA C9D5C3D3E4C4C561            4843 PAR1F6 DC    C'INCLUDE/'                                                46280021
 0098E2 D5D6E3C561                  4844 PAR1F7 DC    C'NOTE/'                                                   46290021
 0098E7 61                          4845 PAR1F8 DC    C'/'                      STANDARD DATA NAMES              46300021
 0098E8 D3C9D5C560C3D6E4            4846 PAR1F9 DC    C'LINE-COUNTER/'                                           46310021
 0098F0 D5E3C5D961
 0098F5 D7C1C7C560C3D6E4            4847 PAR1FA DC    C'PAGE-COUNTER/'                                           46320021
 0098FD D5E3C5D961
 009902 61                          4848 PAR1FB DC    C'/'                                                       46330021
 009903 61                          4849 PAR1FC DC    C'/'                                                       46340021
 009904 E3C1D3D3E861                4850 PAR1FD DC    C'TALLY/'                                                  46350021
 00990A 61                          4851 PAR1FE DC    C'/'                                                       46360021
 00990B 61                          4852 PAR1FF DC    C'/'                                                       46370021
                             0990C  4853 PAREND EQU   *                                                          46380021
                                    4854 * TRT TABLE FOR ERROR MESSAGE SCAN                                      46390021
 00990C 0000000000000000            4855 TRTABL DC    64X'00'                                                    46400021
 009914 0000000000000000
 00991C 0000000000000000
 009924 0000000000000000
 00992C 0000000000000000
 009934 0000000000000000
 00993C 0000000000000000
 009944 0000000000000000
 00994C 1F                          4856        DC    X'1F'       BLANK                                          46410021
 00994D 0000000000000000            4857        DC    26X'00'                                                    46420021
 009955 0000000000000000
 00995D 0000000000000000
 009965 0000
 009967 2F                          4858        DC    X'2F'       $ (EPARAM)                                     46430021
 009968 0000000000                  4859        DC    5X'00'                                                     46440021
 00996D 8F                          4860        DC    X'8F'       / (ENTEX)                                      46450021
 00996E 0000000000000000            4861        DC    25X'00'                                                    46460021
 009976 0000000000000000
 00997E 0000000000000000
 009986 00
 009987 4F                          4862        DC    X'4F'       = (ACTION)                                     46470021
 009988 0000                        4863        DC    2X'00'                                                     46480021
 00998A 4F                          4864        DC    X'4F'        EQUAL SAME AS NUMBER  *****                   46490021
 00998B 0000000000000000            4865        DC    129X'00'                                                   46500021
 009993 0000000000000000
 00999B 0000000000000000
 0099A3 0000000000000000
 0099AB 0000000000000000
 0099B3 0000000000000000
1PH70     IKFCBL70                                                                                              PAGE  139
-  LOC  OBJECT CODE    ADDR1 ADDR2  STMT   SOURCE STATEMENT                                       ASM 0201 11.03 02/14/15
00099BB 0000000000000000
 0099C3 0000000000000000
 0099CB 0000000000000000
 0099D3 0000000000000000
 0099DB 0000000000000000
 0099E3 0000000000000000
 0099EB 0000000000000000
 0099F3 0000000000000000
 0099FB 0000000000000000
 009A03 0000000000000000
 009A0B 00
1PH70     IKFCBL70                                                                                              PAGE  140
-  LOC  OBJECT CODE    ADDR1 ADDR2  STMT   SOURCE STATEMENT                                       ASM 0201 11.03 02/14/15
0                                   4867 *                                                                       46520021
 009A10                             4868 IKF713 CSECT                                                            46530021
 009A10                             4869 PH1ERR DS    0F                                                         46540021
 009A10 000ED6                      4870          DC  AL3(TX1000)                                                46550021
 009A13 000ED7                      4871          DC  AL3(TX1001)                                                46560021
 009A16 000F20                      4872          DC  AL3(TX1002)                                                46570021
 009A19 000F3A                      4873          DC  AL3(TX1003)                                                46580021
 009A1C 000F54                      4874          DC  AL3(TX1004)                                                46590021
 009A1F 000F64                      4875          DC  AL3(TX1005)                                                46600021
 009A22 000FA5                      4876          DC  AL3(TX1006)                                                46610021
 009A25 000FEE                      4877          DC  AL3(TX1007)                                                46620021
 009A28 001009                      4878          DC  AL3(TX1008)                                                46630021
 009A2B 001035                      4879          DC  AL3(TX1009)                                                46640021
 009A2E 00105F                      4880 MS1010   DC  AL3(TX1010)                                                46650021
 009A31 00108A                      4881          DC  AL3(TX1011)                                                46660021
 009A34 0010C4                      4882          DC  AL3(TX1012)                                                46670021
 009A37 0010F1                      4883          DC  AL3(TX1013)                                                46680021
 009A3A 00111F                      4884          DC  AL3(TX1014)                                                46690021
 009A3D 00114C                      4885          DC  AL3(TX1015)                                                46700021
 009A40 0011A2                      4886          DC  AL3(TX1016)                                                46710021
 009A43 0011B9                      4887          DC  AL3(TX1017)                                                46720021
 009A46 0011CE                      4888          DC  AL3(TX1018)                                                46730021
 009A49 001212                      4889          DC  AL3(TX1019)                                                46740021
 009A4C 001229                      4890          DC  AL3(TX1020)                                                46750021
 009A4F 001254                      4891 MS1021   DC  AL3(TX1021)                                                46760021
 009A52 001275                      4892 MS1022   DC  AL3(TX1022)                                                46770021
 009A55 0012A3                      4893 MS1023   DC  AL3(TX1023)                                                46780021
 009A58 0012AC                      4894 MS1024   DC  AL3(TX1024)                                                46790021
 009A5B 0012B7                      4895 MS1025   DC  AL3(TX1025)                                                46800021
 009A5E 0012FC                      4896 MS1026   DC  AL3(TX1026)                                                46810021
 009A61 001335                      4897 MS1027   DC  AL3(TX1027)                                                46820021
 009A64 001384                      4898 MS1028   DC  AL3(TX1028)                                                46830021
 009A67 0013A3                      4899 MS1029   DC  AL3(TX1029)                                                46840021
 009A6A 0013D0                      4900 MS1030   DC  AL3(TX1030)                                                46850021
 009A6D 0013EF                      4901 MS1031   DC  AL3(TX1031)                                                46860021
 009A70 001428                      4902 MS1032   DC  AL3(TX1032)                                                46870021
 009A73 00144C                      4903 MS1033   DC  AL3(TX1033)                                                46880021
 009A76 001493                      4904 MS1034   DC  AL3(TX1034)                                                46890021
 009A79 0014CE                      4905 MS1035   DC  AL3(TX1035)                                                46900021
 009A7C 0014FA                      4906 MS1036   DC  AL3(TX1036)                                                46910021
 009A7F 001526                      4907 MS1037   DC  AL3(TX1037)                                                46920021
 009A82 001545                      4908 MS1038   DC  AL3(TX1038)                                                46930021
 009A85 001579                      4909 MS1039   DC  AL3(TX1039)                                                46940021
 009A88 0015A5                      4910 MS1040   DC  AL3(TX1040)                                                46950021
 009A8B 0015CC                      4911 MS1041   DC  AL3(TX1041)                                                46960021
 009A8E 0015EA                      4912 MS1042   DC  AL3(TX1042)                                                46970021
 009A91 00160C                      4913 MS1043   DC  AL3(TX1043)                                                46980021
 009A94 00162E                      4914 MS1044   DC  AL3(TX1044)                                                46990021
 009A97 00163E                      4915 MS1045   DC  AL3(TX1045)                                                47000021
 009A9A 001657                      4916 MS1046   DC  AL3(TX1046)                                                47010021
 009A9D 001675                      4917 MS1047   DC  AL3(TX1047)                                                47020021
 009AA0 001693                      4918 MS1048   DC  AL3(TX1048)                                                47030021
 009AA3 0016C7                      4919 MS1049   DC  AL3(TX1049)                                                47040021
 009AA6 001715                      4920 MS1050   DC  AL3(TX1050)                                                47050021
 009AA9 00174A                      4921 MS1051   DC  AL3(TX1051)                                                47060021
1PH70     IKFCBL70                                                                                              PAGE  141
-  LOC  OBJECT CODE    ADDR1 ADDR2  STMT   SOURCE STATEMENT                                       ASM 0201 11.03 02/14/15
0009AAC 001769                      4922 MS1052   DC  AL3(TX1052)                                                47070021
 009AAF 0017BD                      4923 MS1053   DC  AL3(TX1053)                                                47080021
 009AB2 0017CF                      4924 MS1054   DC  AL3(TX1054)                                                47090021
 009AB5 00180A                      4925 MS1055   DC  AL3(TX1055)                                                47100021
 009AB8 001834                      4926 MS1056   DC  AL3(TX1056)                                                47110021
 009ABB 001864                      4927 MS1057   DC  AL3(TX1057)                                                47120021
 009ABE 00188A                      4928 MS1058   DC  AL3(TX1058)                                                47130021
 009AC1 0018BD                      4929 MS1059   DC  AL3(TX1059)                                                47140021
 009AC4 0018DA                      4930 MS1060   DC  AL3(TX1060)                                                47150021
 009AC7 001904                      4931 MS1061   DC  AL3(TX1061)                                                47160021
 009ACA 001916                      4932 MS1062   DC  AL3(TX1062)                                                47170021
 009ACD 001947                      4933 MS1063   DC  AL3(TX1063)                                                47180021
 009AD0 001968                      4934 MS1064   DC  AL3(TX1064)                                                47190021
 009AD3 001983                      4935 MS1065   DC  AL3(TX1065)                                                47200021
 009AD6 0019AA                      4936 MS1066   DC  AL3(TX1066)                                                47210021
 009AD9 0019C8                      4937 MS1067   DC  AL3(TX1067)                                                47220021
 009ADC 0019D9                      4938 MS1068   DC  AL3(TX1068)                                                47230021
 009ADF 001A01                      4939 MS1069   DC  AL3(TX1069)                                                47240021
 009AE2 001A17                      4940 MS1070   DC  AL3(TX1070)                                                47250021
 009AE5 001A4E                      4941 MS1071   DC  AL3(TX1071)                                                47260021
 009AE8 001A8F                      4942 MS1072   DC  AL3(TX1072)                                                47270021
 009AEB 001AD2                      4943 MS1073   DC  AL3(TX1073)                                                47280021
 009AEE 001AFF                      4944 MS1074   DC  AL3(TX1074)                                                47290021
 009AF1 001B2F                      4945 MS1075   DC  AL3(TX1075)                                                47300021
 009AF4 001B70                      4946 MS1076   DC  AL3(TX1076)                                                47310021
 009AF7 001BAA                      4947 MS1077   DC  AL3(TX1077)                                                47320021
 009AFA 001BE2                      4948 MS1078   DC  AL3(TX1078)                                                47330021
 009AFD 001C19                      4949 MS1079   DC  AL3(TX1079)                                                47340021
 009B00 001C4C                      4950 MS1080   DC  AL3(TX1080)                                                47350021
 009B03 001C67                      4951 MS1081   DC  AL3(TX1081)                                                47360021
 009B06 001C86                      4952 MS1082   DC  AL3(TX1082)                                                47370021
 009B09 001CB5                      4953 MS1083   DC  AL3(TX1083)                                                47380021
 009B0C 001CED                      4954 MS1084   DC  AL3(TX1084)                                                47390021
 009B0F 001D13                      4955 MS1085   DC  AL3(TX1085)                                                47400021
 009B12 001D55                      4956 MS1086   DC  AL3(TX1086)                                                47410021
 009B15 001D6C                      4957 MS1087   DC  AL3(TX1087)                                                47420021
 009B18 001D8A                      4958 MS1088   DC  AL3(TX1088)                                                47430021
 009B1B 001DC8                      4959 MS1089   DC  AL3(TX1089)                                                47440021
 009B1E 001DF2                      4960 MS1090   DC  AL3(TX1090)                                                47450021
 009B21 001E3F                      4961 MS1091   DC  AL3(TX1091)                                                47460021
 009B24 001E72                      4962 MS1092   DC  AL3(TX1092)                                                47470021
 009B27 001EA2                      4963 MS1093   DC  AL3(TX1093)                                                47480021
 009B2A 001ECD                      4964 MS1094   DC  AL3(TX1094)                                                47490021
 009B2D 001F1D                      4965 MS1095   DC  AL3(TX1095)                                                47500021
 009B30 001F44                      4966 MS1096   DC  AL3(TX1096)                                                47510021
 009B33 001FB5                      4967 MS1097   DC  AL3(TX1097)                                                47520021
 009B36 00202C                      4968 MS1098   DC  AL3(TX1098)                                                47530021
 009B39 002078                      4969 MS1099   DC  AL3(TX1099)                                                47540021
 009B3C 002095                      4970 MS1100   DC  AL3(TX1100)                                                47550021
 009B3F 0020B8                      4971 MS1101   DC  AL3(TX1101)                                                47560021
 009B42 0020DD                      4972 MS1102   DC  AL3(TX1102)                                                47570021
 009B45 00210D                      4973 MS1103   DC  AL3(TX1103)                                                47580021
 009B48 00212E                      4974 MS1104   DC  AL3(TX1104)                                                47590021
 009B4B 002151                      4975 MS1105   DC  AL3(TX1105)                                                47600021
 009B4E 00216C                      4976 MS1106   DC  AL3(TX1106)                                                47610021
1PH70     IKFCBL70                                                                                              PAGE  142
-  LOC  OBJECT CODE    ADDR1 ADDR2  STMT   SOURCE STATEMENT                                       ASM 0201 11.03 02/14/15
0009B51 0021A1                      4977 MS1107   DC  AL3(TX1107)                                                47620021
 009B54 0021D8                      4978 MS1108   DC  AL3(TX1108)                                                47630021
 009B57 0021FD                      4979 MS1109   DC  AL3(TX1109)                                                47640021
 009B5A 00221D                      4980 MS1110   DC  AL3(TX1110)                                                47650021
 009B5D 002239                      4981 MS1111   DC  AL3(TX1111)                                                47660021
 009B60 002267                      4982 MS1112   DC  AL3(TX1112)                                                47670021
 009B63 00229D                      4983 MS1113   DC  AL3(TX1113)                                                47680021
 009B66 0022C1                      4984 MS1114   DC  AL3(TX1114)                                                47690021
 009B69 0022ED                      4985 MS1115   DC  AL3(TX1115)                                                47700021
 009B6C 002331                      4986 MS1116   DC  AL3(TX1116)                                                47710021
 009B6F 002384                      4987 MS1117   DC  AL3(TX1117)                                                47720021
 009B72 0023B6                      4988 MS1118   DC  AL3(TX1118)                                                47730021
 009B75 0023E8                      4989 MS1119   DC  AL3(TX1119)                                                47740021
 009B78 002432                      4990 MS1120   DC  AL3(TX1120)                                                47750021
 009B7B 002450                      4991 MS1121   DC  AL3(TX1121)                                                47760021
 009B7E 002482                      4992 MS1122   DC  AL3(TX1122)                                                47770021
 009B81 0024DC                      4993 MS1123   DC  AL3(TX1123)                                                47780021
 009B84 0024F9                      4994 MS1124   DC  AL3(TX1124)                                                47790021
 009B87 002516                      4995 MS1125   DC  AL3(TX1125)                                                47800021
 009B8A 002549                      4996 MS1126   DC  AL3(TX1126)                                                47810021
 009B8D 00258F                      4997 MS1127   DC  AL3(TX1127)                                                47820021
 009B90 0025B7                      4998 MS1128   DC  AL3(TX1128)                                                47830021
 009B93 0025F8                      4999 MS1129   DC  AL3(TX1129)                                                47840021
 009B96 00262E                      5000 MS1130   DC  AL3(TX1130)                                                47850021
 009B99 002666                      5001 MS1131   DC  AL3(TX1131)                                                47860021
 009B9C 002685                      5002 MS1132   DC  AL3(TX1132)                                                47870021
 009B9F 00269B                      5003 MS1133   DC  AL3(TX1133)                                                47880021
 009BA2 0026EA                      5004 MS1134   DC  AL3(TX1134)                                                47890021
 009BA5 002725                      5005 MS1135   DC  AL3(TX1135)                                                47900021
 009BA8 00274D                      5006 MS1136   DC  AL3(TX1136)                                                47910021
 009BAB 0027AC                      5007 MS1137   DC  AL3(TX1137)                                                47920021
 009BAE 0027FA                      5008 MS1138   DC  AL3(TX1138)                                                47930021
 009BB1 00281C                      5009 MS1139   DC  AL3(TX1139)                                                47940021
 009BB4 00284F                      5010 MS1140   DC  AL3(TX1140)                                                47950021
 009BB7 00288F                      5011 MS1141   DC  AL3(TX1141)                                                47960021
 009BBA 0028CC                      5012 MS1142   DC  AL3(TX1142)                                                47970021
 009BBD 002933                      5013 MS1143   DC  AL3(TX1143)                                                47980021
 009BC0 002974                      5014 MS1144   DC  AL3(TX1144)                                                47990021
 009BC3 0029C1                      5015 MS1145   DC  AL3(TX1145)                                                48000021
 009BC6 0029F3                      5016 MS1146   DC  AL3(TX1146)                                                48010021
 009BC9 0029F4                      5017 MS1147   DC  AL3(TX1147)                                                48020021
 009BCC 002A34                      5018 MS1148   DC  AL3(TX1148)                                                48030021
 009BCF 002A52                      5019 MS1149   DC  AL3(TX1149)                                                48040021
 009BD2 002ABE                      5020 MS1150   DC    AL3(TX1150)                                        7075  48050021
 009BD5 002AF3                      5021          DC  AL3(TX1151)                                                48060021
 009BD8 002B2A                      5022          DC  AL3(TX1152)                                                48070021
 009BDB 002B2B                      5023          DC  AL3(TX1153)                                                48080021
 009BDE 002B6F                      5024          DC  AL3(TX1154)                                                48090021
 009BE1 002BC5                      5025          DC  AL3(TX1155)                                                48100021
 009BE4 002C01                      5026          DC  AL3(TX1156)                                                48110021
 009BE7 002C2B                      5027          DC  AL3(TX1157)                                                48120021
 009BEA 002C54                      5028          DC  AL3(TX1158)                                                48130021
 009BED 002C9D                      5029          DC  AL3(TX1159)                                                48140021
 009BF0 002CD8                      5030          DC  AL3(TX1160)                                                48150021
 009BF3 002D01                      5031          DC  AL3(TX1161)                                                48160021
1PH70     IKFCBL70                                                                                              PAGE  143
-  LOC  OBJECT CODE    ADDR1 ADDR2  STMT   SOURCE STATEMENT                                       ASM 0201 11.03 02/14/15
0009BF6 002D19                      5032          DC  AL3(TX1162)                                                48170021
 009BF9 002D4E                      5033          DC  AL3(TX1163)                                                48180021
 009BFC 002D8B                      5034          DC  AL3(TX1164)                                                48190021
 009BFF 002DD4                      5035          DC  AL3(TX1165)                                                48200021
 009C02 002E1E                      5036          DC  AL3(TX1166)                                                48210021
 009C05 002E66                      5037          DC  AL3(TX1167)                                                48220021
 009C08 002EA1                      5038          DC  AL3(TX1168)                                                48230021
 009C0B 002ECB                      5039          DC  AL3(TX1169)                                                48240021
 009C0E 002ECC                      5040          DC  AL3(TX1170)                                                48250021
 009C11 002EFE                      5041          DC  AL3(TX1171)                                                48260021
 009C14 002F33                      5042          DC  AL3(TX1172)                                                48270021
 009C17 002F54                      5043          DC  AL3(TX1173)                                                48280021
 009C1A 002F86                      5044          DC  AL3(TX1174)                                                48290021
 009C1D 002FCE                      5045          DC  AL3(TX1175)                                                48300021
 009C20 003020                      5046 MS1176 DC    AL3(TX1176)                                                48310021
 009C23 003047                      5047          DC  AL3(TX1177)                                                48320021
 009C26 003048                      5048          DC  AL3(TX1178)                                                48330021
 009C29 0030C0                      5049          DC  AL3(TX1179)                                                48340021
 009C2C 0030E7                      5050          DC  AL3(TX1180)                                                48350021
 009C2F 003108                      5051        DC    AL3(TX1181)                                                48360021
 009C32 003109                      5052        DC    AL3(TX1182)                                                48370021
 009C35 00310A                      5053        DC    AL3(TX1183)                                          9321  48380021
 009C38 00310B                      5054        DC    AL3(TX1184)                                          9321  48390021
 009C3B 00310C                      5055        DC    AL3(TX1185)                                          9321  48400021
 009C3E 00310D                      5056        DC    AL3(TX1186)                                          9321  48410021
 009C41 00310E                      5057        DC    AL3(TX1187)                                          9321  48420021
 009C44 00310F                      5058        DC    AL3(TX1188)                                          9321  48430021
 009C47 003110                      5059 MS1189 DC    AL3(TX1189)                                          9321  48440021
 009C4A 003141                      5060 MS1190 DC    AL3(TX1190)                                          9321  48450021
 009C50                             5061 PH2ERR DS    0F                                                         48460021
 009C50 003180                      5062 MS2000   DC  AL3(TX2000)                                                48470021
 009C53 003181                      5063 MS2001   DC  AL3(TX2001)                                                48480021
 009C56 0031AF                      5064 MS2002   DC  AL3(TX2002)                                                48490021
 009C59 0031D9                      5065 MS2003   DC  AL3(TX2003)                                                48500021
 009C5C 00320D                      5066 MS2004   DC  AL3(TX2004)                                                48510021
 009C5F 003244                      5067 MS2005   DC  AL3(TX2005)                                                48520021
 009C62 003284                      5068 MS2006   DC  AL3(TX2006)                                                48530021
 009C65 0032BC                      5069 MS2007   DC  AL3(TX2007)                                                48540021
 009C68 0032FB                      5070 MS2008   DC  AL3(TX2008)                                                48550021
 009C6B 00332D                      5071 MS2009   DC  AL3(TX2009)                                                48560021
 009C6E 003360                      5072 MS2010   DC  AL3(TX2010)                                                48570021
 009C71 0033A6                      5073 MS2011   DC  AL3(TX2011)                                                48580021
 009C74 0033E0                      5074 MS2012   DC  AL3(TX2012)                                                48590021
 009C77 00341F                      5075 MS2013   DC  AL3(TX2013)                                                48600021
 009C7A 003453                      5076 MS2014   DC  AL3(TX2014)                                                48610021
 009C7D 003489                      5077 MS2015   DC  AL3(TX2015)                                                48620021
 009C80 0034D4                      5078 MS2016   DC  AL3(TX2016)                                                48630021
 009C83 00352E                      5079 MS2017   DC  AL3(TX2017)                                                48640021
 009C86 0035BC                      5080 MS2018   DC  AL3(TX2018)                                                48650021
 009C89 003603                      5081 MS2019   DC  AL3(TX2019)                                                48660021
 009C8C 003645                      5082 MS2020   DC  AL3(TX2020)                                                48670021
 009C8F 003658                      5083 MS2021   DC  AL3(TX2021)                                                48680021
 009C92 003695                      5084 MS2022   DC  AL3(TX2022)                                                48690021
 009C95 0036E3                      5085 MS2023   DC  AL3(TX2023)                                                48700021
 009C98 00370D                      5086 MS2024   DC  AL3(TX2024)                                                48710021
1PH70     IKFCBL70                                                                                              PAGE  144
-  LOC  OBJECT CODE    ADDR1 ADDR2  STMT   SOURCE STATEMENT                                       ASM 0201 11.03 02/14/15
0009C9B 003716                      5087 MS2025   DC  AL3(TX2025)                                                48720021
 009C9E 0037C7                      5088 MS2026   DC  AL3(TX2026)                                                48730021
 009CA1 00380A                      5089 MS2027   DC  AL3(TX2027)                                                48740021
 009CA4 00381C                      5090 MS2028   DC  AL3(TX2028)                                                48750021
 009CA7 003850                      5091 MS2029   DC  AL3(TX2029)                                                48760021
 009CAA 00388E                      5092 MS2030   DC  AL3(TX2030)                                                48770021
 009CAD 0038C8                      5093 MS2031   DC  AL3(TX2031)                                                48780021
 009CB0 0038FA                      5094 MS2032   DC  AL3(TX2032)                                                48790021
 009CB3 00392F                      5095 MS2033   DC  AL3(TX2033)                                                48800021
 009CB6 00398B                      5096 MS2034   DC  AL3(TX2034)                                                48810021
 009CB9 0039AB                      5097 MS2035   DC  AL3(TX2035)                                                48820021
 009CBC 0039D3                      5098 MS2036   DC  AL3(TX2036)                                                48830021
 009CBF 0039F5                      5099 MS2037   DC  AL3(TX2037)                                                48840021
 009CC2 003A1F                      5100 MS2038   DC  AL3(TX2038)                                                48850021
 009CC5 003A5A                      5101 MS2039   DC  AL3(TX2039)                                                48860021
 009CC8 003ABE                      5102 MS2040   DC  AL3(TX2040)                                                48870021
 009CCB 003B04                      5103 MS2041   DC  AL3(TX2041)                                                48880021
 009CCE 003B45                      5104 MS2042   DC  AL3(TX2042)                                                48890021
 009CD1 003B99                      5105 MS2043   DC  AL3(TX2043)                                                48900021
 009CD4 003BBF                      5106 MS2044   DC  AL3(TX2044)                                                48910021
 009CD7 003BCE                      5107 MS2045   DC  AL3(TX2045)                                                48920021
 009CDA 003BEC                      5108 MS2046   DC  AL3(TX2046)                                                48930021
 009CDD 003C11                      5109 MS2047   DC  AL3(TX2047)                                                48940021
 009CE0 003C51                      5110 MS2048   DC  AL3(TX2048)                                                48950021
 009CE3 003C86                      5111 MS2049   DC  AL3(TX2049)                                                48960021
 009CE6 003CA4                      5112 MS2050   DC  AL3(TX2050)                                                48970021
 009CE9 003CE3                      5113 MS2051   DC  AL3(TX2051)                                                48980021
 009CEC 003D15                      5114 MS2052   DC  AL3(TX2052)                                                48990021
 009CEF 003D4E                      5115 MS2053   DC  AL3(TX2053)                                                49000021
 009CF2 003D7E                      5116 MS2054   DC  AL3(TX2054)                                                49010021
 009CF5 003DA5                      5117 MS2055   DC  AL3(TX2055)                                                49020021
 009CF8 003DF9                      5118 MS2056   DC  AL3(TX2056)                                                49030021
 009CFB 003E2F                      5119 MS2057   DC  AL3(TX2057)                                                49040021
 009CFE 003E6E                      5120 MS2058   DC  AL3(TX2058)                                                49050021
 009D01 003EA4                      5121 MS2059   DC  AL3(TX2059)                                                49060021
 009D04 003EE0                      5122 MS2060   DC  AL3(TX2060)                                                49070021
 009D07 003F1B                      5123 MS2061   DC  AL3(TX2061)                                                49080021
 009D0A 003F50                      5124 MS2062   DC  AL3(TX2062)                                                49090021
 009D0D 003F86                      5125 MS2063   DC  AL3(TX2063)                                                49100021
 009D10 003FC0                      5126 MS2064   DC  AL3(TX2064)                                                49110021
 009D13 003FF3                      5127 MS2065   DC  AL3(TX2065)                                                49120021
 009D16 004027                      5128 MS2066   DC  AL3(TX2066)                                                49130021
 009D19 004058                      5129 MS2067   DC  AL3(TX2067)                                                49140021
 009D1C 00408B                      5130 MS2068   DC  AL3(TX2068)                                                49150021
 009D1F 0040CB                      5131 MS2069   DC  AL3(TX2069)                                                49160021
 009D22 0040F8                      5132 MS2070   DC  AL3(TX2070)                                                49170021
 009D25 004122                      5133 MS2071   DC  AL3(TX2071)                                                49180021
 009D28 00414C                      5134 MS2072   DC  AL3(TX2072)                                                49190021
 009D2B 004170                      5135 MS2073   DC  AL3(TX2073)                                                49200021
 009D2E 004196                      5136 MS2074   DC  AL3(TX2074)                                                49210021
 009D31 004198                      5137 MS2075   DC  AL3(TX2075)                                                49220021
 009D34 0041BF                      5138 MS2076   DC  AL3(TX2076)                                                49230021
 009D37 0041F3                      5139 MS2077   DC  AL3(TX2077)                                                49240021
 009D3A 004229                      5140 MS2078   DC  AL3(TX2078)                                                49250021
 009D3D 00426A                      5141 MS2079   DC  AL3(TX2079)                                                49260021
1PH70     IKFCBL70                                                                                              PAGE  145
-  LOC  OBJECT CODE    ADDR1 ADDR2  STMT   SOURCE STATEMENT                                       ASM 0201 11.03 02/14/15
0009D40 0042A7                      5142 MS2080   DC  AL3(TX2080)                                                49270021
 009D43 0042E9                      5143 MS2081   DC  AL3(TX2081)                                                49280021
 009D46 004338                      5144 MS2082   DC  AL3(TX2082)                                                49290021
 009D49 004389                      5145 MS2083   DC  AL3(TX2083)                                                49300021
 009D4C 0043C3                      5146 MS2084   DC  AL3(TX2084)                                                49310021
 009D4F 0043FA                      5147 MS2085   DC  AL3(TX2085)                                                49320021
 009D52 00444A                      5148 MS2086   DC  AL3(TX2086)                                                49330021
 009D55 0044A4                      5149 MS2087   DC  AL3(TX2087)                                                49340021
 009D58 0044E0                      5150 MS2088   DC  AL3(TX2088)                                                49350021
 009D5B 00451B                      5151 MS2089   DC  AL3(TX2089)                                                49360021
 009D5E 004559                      5152 MS2090   DC  AL3(TX2090)                                                49370021
 009D61 00458A                      5153 MS2091   DC  AL3(TX2091)                                                49380021
 009D64 0045CE                      5154 MS2092   DC  AL3(TX2092)                                                49390021
 009D67 0045FC                      5155 MS2093   DC  AL3(TX2093)                                                49400021
 009D6A 004629                      5156 MS2094   DC  AL3(TX2094)                                                49410021
 009D6D 004664                      5157 MS2095   DC  AL3(TX2095)                                                49420021
 009D70 0046ED                      5158 MS2096   DC  AL3(TX2096)                                                49430021
 009D73 004730                      5159 MS2097   DC  AL3(TX2097)                                                49440021
 009D76 004771                      5160 MS2098   DC  AL3(TX2098)                                                49450021
 009D79 0047E2                      5161 MS2099   DC  AL3(TX2099)                                                49460021
 009D7C 004819                      5162 MS2100   DC  AL3(TX2100)                                                49470021
 009D7F 004860                      5163 MS2101   DC  AL3(TX2101)                                                49480021
 009D82 0048AA                      5164 MS2102   DC  AL3(TX2102)                                                49490021
 009D85 0048FD                      5165 MS2103   DC  AL3(TX2103)                                                49500021
 009D88 00492C                      5166 MS2104   DC  AL3(TX2104)                                                49510021
 009D8B 00495C                      5167 MS2105   DC  AL3(TX2105)                                                49520021
 009D8E 0049B3                      5168 MS2106   DC  AL3(TX2106)                                                49530021
 009D91 0049F3                      5169 MS2107   DC  AL3(TX2107)                                                49540021
 009D94 004A20                      5170 MS2108   DC  AL3(TX2108)                                                49550021
 009D97 004A50                      5171 MS2109   DC  AL3(TX2109)                                                49560021
 009D9A 004A94                      5172 MS2110   DC  AL3(TX2110)                                                49570021
 009D9D 004ABD                      5173 MS2111   DC  AL3(TX2111)                                                49580021
 009DA0 004AEF                      5174 MS2112   DC  AL3(TX2112)                                                49590021
 009DA3 004B0A                      5175 MS2113   DC  AL3(TX2113)                                                49600021
 009DA6 004B55                      5176 MS2114   DC  AL3(TX2114)                                                49610021
 009DA9 004B99                      5177 MS2115   DC  AL3(TX2115)                                                49620021
 009DAC 004BAD                      5178 MS2116   DC  AL3(TX2116)                                                49630021
 009DAF 004BF6                      5179 MS2117   DC  AL3(TX2117)                                                49640021
 009DB2 004C11                      5180 MS2118   DC  AL3(TX2118)                                                49650021
 009DB5 004C6A                      5181 MS2119   DC  AL3(TX2119)                                                49660021
 009DB8 004CA4                      5182 MS2120   DC  AL3(TX2120)                                                49670021
 009DBB 004CD6                      5183 MS2121   DC  AL3(TX2121)                                                49680021
 009DBE 004CFE                      5184 MS2122   DC  AL3(TX2122)                                                49690021
 009DC1 004D76                      5185 MS2123   DC  AL3(TX2123)                                                49700021
 009DC4 004D99                      5186 MS2124   DC  AL3(TX2124)                                                49710021
 009DC7 004DDE                      5187 MS2125   DC  AL3(TX2125)                                                49720021
 009DCA 004E2D                      5188 MS2126   DC  AL3(TX2126)                                                49730021
 009DCD 004E66                      5189 MS2127   DC  AL3(TX2127)                                                49740021
 009DD0 004E96                      5190 MS2128   DC  AL3(TX2128)                                                49750021
 009DD3 004EE0                      5191 MS2129   DC  AL3(TX2129)                                                49760021
 009DD6 004F13                      5192 MS2130   DC  AL3(TX2130)                                                49770021
 009DD9 004F33                      5193 MS2131   DC  AL3(TX2131)                                                49780021
 009DDC 004F58                      5194 MS2132   DC  AL3(TX2132)                                                49790021
 009DDF 004F98                      5195 MS2133   DC  AL3(TX2133)                                                49800021
 009DE2 004FD3                      5196 MS2134   DC  AL3(TX2134)                                                49810021
1PH70     IKFCBL70                                                                                              PAGE  146
-  LOC  OBJECT CODE    ADDR1 ADDR2  STMT   SOURCE STATEMENT                                       ASM 0201 11.03 02/14/15
0009DE5 005000                      5197 MS2135   DC  AL3(TX2135)                                                49820021
 009DE8 00506C                      5198 MS2136   DC  AL3(TX2136)                                                49830021
 009DEB 0050A9                      5199 MS2137   DC  AL3(TX2137)                                                49840021
 009DEE 0050EE                      5200 MS2138   DC  AL3(TX2138)                                                49850021
 009DF1 00511D                      5201 MS2139   DC  AL3(TX2139)                                                49860021
 009DF4 005159                      5202 MS2140   DC  AL3(TX2140)                                                49870021
 009DF7 0051C0                      5203 MS2141   DC  AL3(TX2141)                                                49880021
 009DFA 00520B                      5204 MS2142   DC  AL3(TX2142)                                                49890021
 009DFD 00523F                      5205 MS2143   DC  AL3(TX2143)                                                49900021
 009E00 005274                      5206 MS2144   DC  AL3(TX2144)                                                49910021
 009E03 00529D                      5207 MS2145   DC  AL3(TX2145)                                                49920021
 009E06 0052EB                      5208 MS2146   DC  AL3(TX2146)                                                49930021
 009E09 005352                      5209 MS2147   DC  AL3(TX2147)                                                49940021
 009E0C 00537D                      5210 MS2148   DC  AL3(TX2148)                                                49950021
 009E0F 0053D1                      5211 MS2149   DC  AL3(TX2149)                                                49960021
 009E12 00542E                      5212 MS2150   DC  AL3(TX2150)                                                49970021
 009E15 005487                      5213 MS2151   DC  AL3(TX2151)                                                49980021
 009E18 0054D9                      5214 MS2152   DC  AL3(TX2152)                                                49990021
 009E1B 0054DB                      5215 MS2153   DC  AL3(TX2153)                                                50000021
 009E1E 005530                      5216 MS2154   DC  AL3(TX2154)                                                50010021
 009E21 005640                      5217 MS2155   DC  AL3(TX2155)                                                50020021
 009E24 005670                      5218 MS2156   DC  AL3(TX2156)                                                50030021
 009E27 0056B8                      5219 MS2157   DC  AL3(TX2157)                                                50040021
 009E2A 005701                      5220 MS2158   DC  AL3(TX2158)                                                50050021
 009E2D 00575A                      5221 MS2159   DC  AL3(TX2159)                                                50060021
 009E30 0057A3                      5222 MS2160   DC  AL3(TX2160)                                                50070021
 009E33 005850                      5223 MS2161   DC  AL3(TX2161)                                                50080021
 009E36 005879                      5224          DC  AL3(TX2162)                                                50090021
 009E39 0058A2                      5225          DC  AL3(TX2163)                                                50100021
 009E3C 0058CC                      5226          DC  AL3(TX2164)                                                50110021
 009E3F 0058F6                      5227          DC  AL3(TX2165)                                                50120021
 009E42 005923                      5228          DC  AL3(TX2166)                                                50130021
 009E45 00596A                      5229          DC  AL3(TX2167)                                                50140021
 009E48 0059B6                      5230          DC  AL3(TX2168)                                                50150021
 009E4B 0059FC                      5231          DC  AL3(TX2169)                                                50160021
 009E4E 005A2C                      5232          DC  AL3(TX2170)                                                50170021
 009E51 005A70                      5233          DC    AL3(TX2171)                                              50180021
 009E54 005AD7                      5234          DC  AL3(TX2172)                                                50190021
 009E57 005B2D                      5235          DC  AL3(TX2173)                                                50200021
 009E5A 005B65                      5236          DC  AL3(TX2174)                                                50210021
 009E5D 005BB0                      5237          DC  AL3(TX2175)                                                50220021
 009E60 005BE2                      5238          DC  AL3(TX2176)                                                50230021
 009E63 005C22                      5239          DC  AL3(TX2177)                                                50240021
 009E66 005C57                      5240          DC  AL3(TX2178)                                                50250021
 009E69 005C7C                      5241          DC  AL3(TX2179)                                                50260021
 009E6C 005C9B                      5242          DC  AL3(TX2180)                                                50270021
 009E6F 005CD7                      5243          DC  AL3(TX2181)                                                50280021
 009E72 005D08                      5244          DC  AL3(TX2182)                                                50290021
 009E75 005D48                      5245          DC  AL3(TX2183)                                                50300021
 009E78 005D61                      5246          DC  AL3(TX2184)                                                50310021
 009E7B 005D94                      5247          DC  AL3(TX2185)                                                50320021
 009E7E 005DEB                      5248          DC  AL3(TX2186)                                                50330021
 009E81 005E3C                      5249          DC  AL3(TX2187)                                                50340021
 009E84 005E90                      5250          DC  AL3(TX2188)                                                50350021
 009E87 005ED2                      5251          DC  AL3(TX2189)                                                50360021
1PH70     IKFCBL70                                                                                              PAGE  147
-  LOC  OBJECT CODE    ADDR1 ADDR2  STMT   SOURCE STATEMENT                                       ASM 0201 11.03 02/14/15
0009E8A 005F2D                      5252          DC  AL3(TX2190)                                                50370021
 009E8D 005F6F                      5253          DC  AL3(TX2191)                                                50380021
 009E90 005FBB                      5254          DC  AL3(TX2192)                                                50390021
 009E93 006028                      5255          DC  AL3(TX2193)                                                50400021
 009E96 006073                      5256          DC  AL3(TX2194)                                                50410021
 009E99 0060D2                      5257          DC  AL3(TX2195)                                                50420021
 009E9C 006115                      5258          DC  AL3(TX2196)                                                50430021
 009E9F 006171                      5259          DC  AL3(TX2197)                                                50440021
 009EA2 0061C3                      5260          DC  AL3(TX2198)                                                50450021
 009EA5 006217                      5261          DC  AL3(TX2199)                                                50460021
 009EA8 006258                      5262          DC  AL3(TX2200)                                                50470021
 009EAB 006280                      5263          DC    AL3(TX2201)                                              50480021
 009EAE 00630A                      5264          DC    AL3(TX2202)                                              50490021
 009EB1 006340                      5265          DC    AL3(TX2203)                                              50500021
 009EB4 00637C                      5266          DC    AL3(TX2204)                                              50510021
 009EB7 00637D                      5267          DC    AL3(TX2205)                                              50520021
 009EBA 00637E                      5268          DC    AL3(TX2206)                                              50530021
 009EBD 00637F                      5269          DC    AL3(TX2207)                                              50540021
 009EC0 006380                      5270          DC    AL3(TX2208)                                              50550021
 009EC3 006381                      5271          DC    AL3(TX2209)                                              50560021
 009EC6 006382                      5272          DC    AL3(TX2210)                                              50570021
 009EC9 006383                      5273 MS2211   DC    AL3(TX2211)                                        07762 50580021
 009ECC 0063C2                      5274          DC    AL3(TX2212)                                              50590021
 009ECF 0063C3                      5275          DC    AL3(TX2213)                                              50600021
 009ED2 0063C4                      5276          DC    AL3(TX2214)                                              50610021
 009ED5 0063C5                      5277          DC    AL3(TX2215)                                              50620021
 009ED8 0063C6                      5278          DC    AL3(TX2216)                                              50630021
 009EDB 0063C7                      5279          DC    AL3(TX2217)                                              50640021
 009EDE 0063C8                      5280          DC    AL3(TX2218)                                              50650021
 009EE1 0063C9                      5281          DC    AL3(TX2219)                                              50660021
 009EE4 0063CA                      5282          DC    AL3(TX2220)                                              50670021
 009EE7 0063CB                      5283          DC    AL3(TX2221)                                              50680021
 009EEA 0063CC                      5284          DC    AL3(TX2222)                                              50690021
 009EED 0063CD                      5285 MS2223   DC    AL3(TX2223)                                              50700021
 009EF0 006433                      5286 MS2224   DC    AL3(TX2224)                                        47955 50710021
 009EF3 00648C                      5287 MS2225   DC    AL3(TX2225)                                        07271 50720021
 009EF6 0064B9                      5288 MS2226   DC    AL3(TX2226)                                              50730021
 009EF9 0064DB                      5289 MS2227   DC    AL3(TX2227)                                              50740021
 009EFC 00651A                      5290 MS2228   DC    AL3(TX2228)                                        51873 50750021
 009EFF 00653B                      5291 MS2229   DC    AL3(TX2229)                                        51873 50760021
 009F02 00653C                      5292 MS2230   DC    AL3(TX2230)                                        51873 50770021
 009F08                             5293 PH3ERR DS    0F                                                         50780021
 009F08 006570                      5294 MS3000   DC  AL3(TX3000)                                                50790021
 009F0B 006571                      5295 MS3001   DC  AL3(TX3001)                                                50800021
 009F0E 006580                      5296 MS3002   DC  AL3(TX3002)                                                50810021
 009F11 00658E                      5297 MS3003   DC  AL3(TX3003)                                                50820021
 009F14 0065B4                      5298 MS3004   DC  AL3(TX3004)                                                50830021
 009F17 0065D1                      5299 MS3005   DC  AL3(TX3005)                                                50840021
 009F1A 0065EA                      5300 MS3006   DC  AL3(TX3006)                                                50850021
 009F1D 006606                      5301 MS3007   DC  AL3(TX3007)                                                50860021
 009F20 006624                      5302 MS3008   DC  AL3(TX3008)                                                50870021
 009F23 00665C                      5303 MS3009   DC  AL3(TX3009)                                                50880021
 009F26 006695                      5304 MS3010   DC  AL3(TX3010)                                                50890021
 009F29 0066C9                      5305 MS3011   DC  AL3(TX3011)                                                50900021
 009F2C 0066FC                      5306        DC    AL3(TX3012)                                                50910021
1PH70     IKFCBL70                                                                                              PAGE  148
-  LOC  OBJECT CODE    ADDR1 ADDR2  STMT   SOURCE STATEMENT                                       ASM 0201 11.03 02/14/15
0009F2F 0066FE                      5307        DC    AL3(TX3013)                                                50920021
 009F32 006700                      5308 MS3014   DC  AL3(TX3014)                                                50930021
 009F35 006702                      5309 MS3015   DC  AL3(TX3015)                                                50940021
 009F38 006703                      5310 MS3016   DC  AL3(TX3016)                                                50950021
 009F3B 006705                      5311 MS3017   DC  AL3(TX3017)                                                50960021
 009F3E 006707                      5312 MS3018   DC  AL3(TX3018)                                                50970021
 009F41 00675E                      5313 MS3019   DC  AL3(TX3019)                                                50980021
 009F44 006760                      5314 MS3020   DC  AL3(TX3020)                                                50990021
 009F47 006787                      5315          DC  AL3(TX3021)                                                51000021
 009F4A 0067A2                      5316          DC  AL3(TX3022)                                                51010021
 009F4D 0067D3                      5317          DC  AL3(TX3023)                                                51020021
 009F50 006849                      5318          DC  AL3(TX3024)                                                51030021
 009F53 006867                      5319          DC  AL3(TX3025)                                                51040021
 009F56 006898                      5320          DC  AL3(TX3026)                                                51050021
 009F59 0068CA                      5321          DC  AL3(TX3027)                                                51060021
 009F5C 006917                      5322          DC  AL3(TX3028)                                                51070021
 009F5F 006961                      5323 MS3029   DC    AL3(TX3029)                                        34761 51080021
 009F62 00698D                      5324          DC  AL3(TX3030)                                                51090021
 009F68                             5325 PH4ERR DS    0F                                                         51100021
 009F68 006990                      5326 MS4000   DC  AL3(TX4000)                                                51110021
 009F6B 006991                      5327 MS4001   DC  AL3(TX4001)                                                51120021
 009F6E 0069EB                      5328 MS4002   DC  AL3(TX4002)                                                51130021
 009F71 006A03                      5329 MS4003   DC  AL3(TX4003)                                                51140021
 009F74 006A4E                      5330 MS4004   DC  AL3(TX4004)                                                51150021
 009F77 006A71                      5331 MS4005   DC  AL3(TX4005)                                                51160021
 009F7A 006AA8                      5332 MS4006   DC  AL3(TX4006)                                                51170021
 009F7D 006AE2                      5333 MS4007   DC  AL3(TX4007)                                                51180021
 009F80 006B23                      5334 MS4008   DC  AL3(TX4008)                                                51190021
 009F83 006B44                      5335 MS4009   DC  AL3(TX4009)                                                51200021
 009F86 006BDA                      5336 MS4010   DC  AL3(TX4010)                                                51210021
 009F89 006C15                      5337 MS4011   DC  AL3(TX4011)                                                51220021
 009F8C 006C3B                      5338 MS4012   DC  AL3(TX4012)                                                51230021
 009F8F 006C68                      5339 MS4013   DC  AL3(TX4013)                                                51240021
 009F92 006CA4                      5340 MS4014   DC  AL3(TX4014)                                                51250021
 009F95 006CEC                      5341 MS4015   DC  AL3(TX4015)                                                51260021
 009F98 006D0E                      5342 MS4016   DC  AL3(TX4016)                                                51270021
 009F9B 006D3F                      5343 MS4017   DC  AL3(TX4017)                                                51280021
 009F9E 006D5F                      5344 MS4018   DC  AL3(TX4018)                                                51290021
 009FA1 006DBF                      5345 MS4019   DC  AL3(TX4019)                                                51300021
 009FA4 006E02                      5346 MS4020   DC  AL3(TX4020)                                                51310021
 009FA7 006E12                      5347 MS4021   DC  AL3(TX4021)                                                51320021
 009FAA 006E5F                      5348 MS4022   DC  AL3(TX4022)                                                51330021
 009FAD 006EA1                      5349 MS4023   DC  AL3(TX4023)                                                51340021
 009FB0 006F17                      5350 MS4024   DC  AL3(TX4024)                                                51350021
 009FB3 006F43                      5351 MS4025   DC  AL3(TX4025)                                                51360021
 009FB6 006F44                      5352 MS4026   DC  AL3(TX4026)                                                51370021
 009FB9 006F62                      5353 MS4027   DC  AL3(TX4027)                                                51380021
 009FBC 006FB6                      5354 MS4028   DC  AL3(TX4028)                                                51390021
 009FBF 006FFB                      5355 MS4029   DC  AL3(TX4029)                                                51400021
 009FC2 00701A                      5356 MS4030   DC  AL3(TX4030)                                                51410021
 009FC5 007072                      5357 MS4031   DC  AL3(TX4031)                                                51420021
 009FC8 0070B8                      5358 MS4032   DC  AL3(TX4032)                                                51430021
 009FCB 007102                      5359 MS4033   DC  AL3(TX4033)                                                51440021
 009FCE 007157                      5360 MS4034   DC  AL3(TX4034)                                                51450021
 009FD1 0071C2                      5361 MS4035   DC  AL3(TX4035)                                                51460021
1PH70     IKFCBL70                                                                                              PAGE  149
-  LOC  OBJECT CODE    ADDR1 ADDR2  STMT   SOURCE STATEMENT                                       ASM 0201 11.03 02/14/15
0009FD4 007214                      5362 MS4036   DC  AL3(TX4036)                                                51470021
 009FD7 007243                      5363 MS4037   DC  AL3(TX4037)                                                51480021
 009FDA 00727D                      5364 MS4038   DC  AL3(TX4038)                                                51490021
 009FDD 0072CB                      5365 MS4039   DC  AL3(TX4039)                                                51500021
 009FE0 007305                      5366 MS4040   DC  AL3(TX4040)                                                51510021
 009FE3 007325                      5367 MS4041   DC  AL3(TX4041)                                                51520021
 009FE6 007366                      5368 MS4042   DC  AL3(TX4042)                                                51530021
 009FE9 007397                      5369 MS4043   DC  AL3(TX4043)                                                51540021
 009FEC 0073D8                      5370 MS4044   DC  AL3(TX4044)                                                51550021
 009FEF 007401                      5371 MS4045   DC  AL3(TX4045)                                                51560021
 009FF2 007475                      5372 MS4046   DC  AL3(TX4046)                                                51570021
 009FF5 007489                      5373 MS4047   DC  AL3(TX4047)                                                51580021
 009FF8 0074B8                      5374 MS4048   DC  AL3(TX4048)                                                51590021
 009FFB 0074F1                      5375 MS4049   DC  AL3(TX4049)                                                51600021
 009FFE 007520                      5376 MS4050   DC  AL3(TX4050)                                                51610021
 00A001 00753B                      5377 MS4051   DC  AL3(TX4051)                                                51620021
 00A004 00759C                      5378 MS4052   DC  AL3(TX4052)                                                51630021
 00A007 0075D1                      5379 MS4053   DC  AL3(TX4053)                                                51640021
 00A00A 00761B                      5380 MS4054   DC  AL3(TX4054)                                                51650021
 00A00D 007644                      5381 MS4055   DC  AL3(TX4055)                                                51660021
 00A010 00766C                      5382 MS4056   DC  AL3(TX4056)                                                51670021
 00A013 007687                      5383 MS4057   DC  AL3(TX4057)                                                51680021
 00A016 0076D4                      5384 MS4058   DC  AL3(TX4058)                                                51690021
 00A019 007745                      5385 MS4059   DC  AL3(TX4059)                                                51700021
 00A01C 0077AB                      5386 MS4060   DC  AL3(TX4060)                                                51710021
 00A01F 0077EC                      5387 MS4061   DC  AL3(TX4061)                                                51720021
 00A022 00784A                      5388 MS4062   DC  AL3(TX4062)                                                51730021
 00A025 007876                      5389 MS4063   DC  AL3(TX4063)                                                51740021
 00A028 0078B0                      5390 MS4064   DC  AL3(TX4064)                                                51750021
 00A02B 0078F1                      5391 MS4065   DC  AL3(TX4065)                                                51760021
 00A02E 007930                      5392 MS4066   DC  AL3(TX4066)                                                51770021
 00A031 007975                      5393 MS4067   DC  AL3(TX4067)                                                51780021
 00A034 0079B8                      5394 MS4068   DC  AL3(TX4068)                                                51790021
 00A037 0079BA                      5395 MS4069   DC  AL3(TX4069)                                                51800021
 00A03A 0079F8                      5396 MS4070   DC  AL3(TX4070)                                                51810021
 00A03D 007A2F                      5397 MS4071   DC  AL3(TX4071)                                                51820021
 00A040 007A47                      5398 MS4072   DC  AL3(TX4072)                                                51830021
 00A043 007A6B                      5399 MS4073   DC  AL3(TX4073)                                                51840021
 00A046 007A97                      5400 MS4074   DC  AL3(TX4074)                                                51850021
 00A049 007AD0                      5401 MS4075   DC  AL3(TX4075)                                                51860021
 00A04C 007B26                      5402 MS4076   DC  AL3(TX4076)                                                51870021
 00A04F 007B55                      5403 MS4077   DC  AL3(TX4077)                                                51880021
 00A052 007B9D                      5404 MS4078   DC  AL3(TX4078)                                                51890021
 00A055 007BE3                      5405 MS4079   DC  AL3(TX4079)                                                51900021
 00A058 007BFD                      5406 MS4080   DC  AL3(TX4080)                                                51910021
 00A05B 007C4E                      5407 MS4081   DC  AL3(TX4081)                                                51920021
 00A05E 007C76                      5408 MS4082   DC  AL3(TX4082)                                                51930021
 00A061 007CAD                      5409 MS4083   DC  AL3(TX4083)                                                51940021
 00A064 007D0B                      5410 MS4084   DC  AL3(TX4084)                                                51950021
 00A067 007D4B                      5411 MS4085   DC  AL3(TX4085)                                                51960021
 00A06A 007D7C                      5412 MS4086   DC  AL3(TX4086)                                                51970021
 00A06D 007DD6                      5413 MS4087   DC  AL3(TX4087)                                                51980021
 00A070 007E1A                      5414 MS4088   DC  AL3(TX4088)                                                51990021
 00A073 007E1C                      5415 MS4089   DC  AL3(TX4089)                                                52000021
 00A076 007E4D                      5416 MS4090   DC  AL3(TX4090)                                                52010021
1PH70     IKFCBL70                                                                                              PAGE  150
-  LOC  OBJECT CODE    ADDR1 ADDR2  STMT   SOURCE STATEMENT                                       ASM 0201 11.03 02/14/15
000A079 007EA1                      5417 MS4091   DC  AL3(TX4091)                                                52020021
 00A07C 007EC3                      5418 MS4092   DC  AL3(TX4092)                                                52030021
 00A07F 007EF7                      5419 MS4093   DC  AL3(TX4093)                                                52040021
 00A082 007F2D                      5420 MS4094   DC  AL3(TX4094)                                                52050021
 00A085 007FB6                      5421 MS4095   DC  AL3(TX4095)                                                52060021
 00A088 007FFC                      5422 MS4096   DC  AL3(TX4096)                                                52070021
 00A08B 00801E                      5423 MS4097   DC  AL3(TX4097)                                                52080021
 00A08E 00803F                      5424 MS4098   DC  AL3(TX4098)                                                52090021
 00A091 008098                      5425 MS4099   DC  AL3(TX4099)                                                52100021
 00A094 0080FC                      5426          DC  AL3(TX4100)                                                52110021
 00A097 00816C                      5427          DC   AL3(TX4101)                                               52120021
 00A09A 0081F0                      5428          DC  AL3(TX4102)                                                52130021
 00A09D 00827E                      5429          DC  AL3(TX4103)                                                52140021
 00A0A0 0082BC                      5430          DC  AL3(TX4104)                                                52150021
 00A0A3 008341                      5431          DC  AL3(TX4105)                                                52160021
 00A0A6 00838C                      5432          DC  AL3(TX4106)                                                52170021
 00A0A9 0083EE                      5433          DC  AL3(TX4107)                                                52180021
 00A0AC 008407                      5434 MS4108 DC    AL3(TX4108)                                                52190021
 00A0AF 00845D                      5435          DC  AL3(TX4109)                                                52200021
 00A0B2 0084B1                      5436          DC  AL3(TX4110)                                                52210021
 00A0B5 008502                      5437          DC  AL3(TX4111)                                                52220021
 00A0B8 00854E                      5438          DC  AL3(TX4112)                                                52230021
 00A0BB 008592                      5439          DC  AL3(TX4113)                                                52240021
 00A0BE 0085C9                      5440          DC  AL3(TX4114)                                                52250021
 00A0C1 00861B                      5441          DC  AL3(TX4115)                                                52260021
 00A0C4 00866B                      5442 MS4116 DC    AL3(TX4116)                                                52270021
 00A0C7 0086AC                      5443          DC    AL3(TX4117)                                        43536 52280021
 00A0CA 0086AD                      5444          DC    AL3(TX4118)                                        43536 52290021
 00A0CD 0086AE                      5445          DC    AL3(TX4119)                                        43536 52300021
 00A0D0 0086AF                      5446          DC    AL3(TX4120)                                        43536 52310021
 00A0D3 0086B0                      5447          DC    AL3(TX4121)                                        43536 52320021
 00A0D6 0086B1                      5448          DC    AL3(TX4122)                                        43536 52330021
 00A0D9 0086B2                      5449          DC    AL3(TX4123)                                        43536 52340021
 00A0DC 0086B3                      5450          DC    AL3(TX4124)                                        43536 52350021
 00A0DF 0086B4                      5451          DC    AL3(TX4125)                                        43536 52360021
 00A0E2 0086B5                      5452          DC    AL3(TX4126)                                        43536 52370021
 00A0E5 0086B6                      5453          DC    AL3(TX4127)                                        43536 52380021
 00A0E8 0086B7                      5454          DC    AL3(TX4128)                                        43536 52390021
 00A0EB 0086B8                      5455          DC    AL3(TX4129)                                        43536 52400021
 00A0EE 0086B9                      5456          DC    AL3(TX4130)                                        43536 52410021
 00A0F1 0086BA                      5457 MS4131   DC    AL3(TX4131)                                        50782 52420021
 00A0F4 0086CF                      5458          DC    AL3(TX4132)                                        43536 52430021
 00A0F7 0086D0                      5459          DC    AL3(TX4133)                                        43536 52440021
 00A0FA 0086D1                      5460          DC    AL3(TX4134)                                        43536 52450021
 00A0FD 0086D2                      5461          DC    AL3(TX4135)                                        43536 52460021
 00A100 0086D3                      5462          DC    AL3(TX4136)                                        43536 52470021
 00A103 0086D4                      5463          DC    AL3(TX4137)                                        43536 52480021
 00A106 0086D5                      5464          DC    AL3(TX4138)                                        43536 52490021
 00A109 0086D6                      5465          DC    AL3(TX4139)                                        43536 52500021
 00A10C 0086D7                      5466          DC    AL3(TX4140)                                        43536 52510021
 00A10F 0086D8                      5467 MS4141   DC    AL3(TX4141)                                        43536 52520021
 00A112 008729                      5468          DC    AL3(TX4142)                                        43536 52530021
 00A115 00872A                      5469          DC    AL3(TX4143)                                        43536 52540021
 00A118 00872B                      5470          DC    AL3(TX4144)                                        43536 52550021
 00A11B 00872C                      5471          DC    AL3(TX4145)                                        43536 52560021
1PH70     IKFCBL70                                                                                              PAGE  151
-  LOC  OBJECT CODE    ADDR1 ADDR2  STMT   SOURCE STATEMENT                                       ASM 0201 11.03 02/14/15
000A11E 00872D                      5472          DC    AL3(TX4146)                                        43536 52570021
 00A121 00872E                      5473          DC    AL3(TX4147)                                        43536 52580021
 00A124 00872F                      5474          DC    AL3(TX4148)                                        43536 52590021
 00A127 008730                      5475          DC    AL3(TX4149)                                        43536 52600021
 00A12A 008731                      5476          DC    AL3(TX4150)                                        43536 52610021
 00A130                             5477 PH5ERR DS    0F                                                         52620021
 00A130 008732                      5478        DC    AL3(TX5000)                                                52630021
 00A133 008733                      5479 MS5001   DC  AL3(TX5001)                                                52640021
 00A136 008735                      5480 MS5002   DC  AL3(TX5002)                                                52650021
 00A139 008737                      5481 MS5003   DC  AL3(TX5003)                                                52660021
 00A13C 00877D                      5482 MS5004   DC  AL3(TX5004)                                                52670021
 00A13F 0087D6                      5483 MS5005   DC  AL3(TX5005)                                                52680021
 00A142 0087D8                      5484 MS5006   DC  AL3(TX5006)                                                52690021
 00A145 0087DA                      5485 MS5007   DC  AL3(TX5007)                                                52700021
 00A148 0087DC                      5486 MS5008   DC  AL3(TX5008)                                                52710021
 00A14B 0087DE                      5487 MS5009   DC  AL3(TX5009)                                                52720021
 00A14E 0087E0                      5488 MS5010   DC  AL3(TX5010)                                                52730021
 00A151 008807                      5489 MS5011   DC  AL3(TX5011)                                                52740021
 00A154 008838                      5490 MS5012   DC  AL3(TX5012)                                                52750021
 00A157 00883A                      5491 MS5013   DC  AL3(TX5013)                                                52760021
 00A15A 008867                      5492 MS5014   DC  AL3(TX5014)                                                52770021
 00A15D 00888D                      5493          DC  AL3(TX5015)                                                52780021
 00A160 0088AF                      5494          DC  AL3(TX5016)                                                52790021
 00A163 0088FC                      5495          DC  AL3(TX5017)                                                52800021
 00A166 008942                      5496          DC  AL3(TX5018)                                                52810021
 00A16C                             5497 EACTAB DS    0F                                                         52820021
 00A16C 008990                      5498          DC  AL3(EACT00)                                                52830021
 00A16F 008994                      5499        DC    AL3(EACT01)                                                52840021
 00A172 00899C                      5500        DC    AL3(EACT02)                                                52850021
 00A175 0089A4                      5501        DC    AL3(EACT03)                                                52860021
 00A178 0089AE                      5502        DC    AL3(EACT04)                                                52870021
 00A17B 0089BD                      5503        DC    AL3(EACT05)                                                52880021
 00A17E 0089CF                      5504        DC    AL3(EACT06)                                                52890021
 00A181 0089E3                      5505        DC    AL3(EACT07)                                                52900021
 00A184 008A05                      5506        DC    AL3(EACT08)                                                52910021
 00A187 008A29                      5507        DC    AL3(EACT09)                                                52920021
 00A18A 008A37                      5508        DC    AL3(EACT10)                                                52930021
 00A18D 008A59                      5509        DC    AL3(EACT11)                                                52940021
 00A190 008A77                      5510        DC    AL3(EACT12)                                                52950021
 00A193 008A8B                      5511        DC    AL3(EACT13)                                                52960021
 00A196 008B07                      5512        DC    AL3(EACT14)                                                52970021
 00A199 008B56                      5513        DC    AL3(EACT15)                                                52980021
 00A19C 008B73                      5514        DC    AL3(EACT16)                                                52990021
 00A19F 008BA4                      5515        DC    AL3(EACT17)                                                53000021
 00A1A2 008BD1                      5516        DC    AL3(EACT18)                                                53010021
 00A1A5 008BD2                      5517        DC    AL3(EACT19)                                                53020021
 00A1A8 008BE1                      5518        DC    AL3(EACT20)                                                53030021
 00A1AB 008BF1                      5519        DC    AL3(EACT21)                                                53040021
 00A1AE 008C0B                      5520        DC    AL3(EACT22)                                                53050021
 00A1B1 008C24                      5521        DC    AL3(EACT23)                                                53060021
 00A1B4 008C3F                      5522        DC    AL3(EACT24)                                                53070021
 00A1B7 008C4B                      5523        DC    AL3(EACT25)                                                53080021
 00A1BA 008C69                      5524        DC    AL3(EACT26)                                                53090021
 00A1BD 008C81                      5525        DC    AL3(EACT27)                                                53100021
 00A1C0 008C95                      5526        DC    AL3(EACT28)                                                53110021
1PH70     IKFCBL70                                                                                              PAGE  152
-  LOC  OBJECT CODE    ADDR1 ADDR2  STMT   SOURCE STATEMENT                                       ASM 0201 11.03 02/14/15
000A1C3 008CA5                      5527        DC    AL3(EACT29)                                                53120021
 00A1C6 008CB0                      5528        DC    AL3(EACT30)                                                53130021
 00A1C9 008CC8                      5529        DC    AL3(EACT31)                                                53140021
 00A1CC 008CDE                      5530        DC    AL3(EACT32)                                                53150021
 00A1CF 008CEF                      5531        DC    AL3(EACT33)                                                53160021
 00A1D2 008D01                      5532        DC    AL3(EACT34)                                                53170021
 00A1D5 008D2D                      5533        DC    AL3(EACT35)                                                53180021
 00A1D8 008D3B                      5534        DC    AL3(EACT36)                                                53190021
 00A1DB 008D43                      5535        DC    AL3(EACT37)                                                53200021
 00A1DE 008D53                      5536        DC    AL3(EACT38)                                                53210021
 00A1E1 008D6A                      5537        DC    AL3(EACT39)                                                53220021
 00A1E4 008D95                      5538        DC    AL3(EACT40)                                                53230021
 00A1E7 008DAE                      5539        DC    AL3(EACT41)                                                53240021
 00A1EA 008DBB                      5540        DC    AL3(EACT42)                                                53250021
 00A1ED 008DEA                      5541        DC    AL3(EACT43)                                                53260021
 00A1F0 008DF8                      5542        DC    AL3(EACT44)                                                53270021
 00A1F3 008E07                      5543        DC    AL3(EACT45)                                                53280021
 00A1F6 008E1C                      5544        DC    AL3(EACT46)                                                53290021
 00A1F9 008E28                      5545        DC    AL3(EACT47)                                                53300021
 00A1FC 008E3F                      5546        DC    AL3(EACT48)                                                53310021
 00A200                             5547 PARTAB DS    0F                                                         53320021
 00A200 008E68                      5548        DC  AL3(PAR000)                                                  53330021
 00A203 008E69                      5549        DC  AL3(PAR001)                                                  53340021
 00A206 008E6E                      5550        DC  AL3(PAR002)                                                  53350021
 00A209 008E74                      5551        DC  AL3(PAR003)                                                  53360021
 00A20C 008E7A                      5552        DC  AL3(PAR004)                                                  53370021
 00A20F 008E80                      5553        DC  AL3(PAR005)                                                  53380021
 00A212 008E86                      5554        DC  AL3(PAR006)                                                  53390021
 00A215 008E87                      5555        DC  AL3(PAR007)                                                  53400021
 00A218 008E90                      5556        DC  AL3(PAR008)                                                  53410021
 00A21B 008E91                      5557        DC  AL3(PAR009)                                                  53420021
 00A21E 008E92                      5558        DC  AL3(PAR00A)                                                  53430021
 00A221 008E93                      5559        DC  AL3(PAR00B)                                                  53440021
 00A224 008E94                      5560        DC  AL3(PAR00C)                                                  53450021
 00A227 008E9F                      5561        DC  AL3(PAR00D)                                                  53460021
 00A22A 008EA7                      5562        DC  AL3(PAR00E)                                                  53470021
 00A22D 008EAA                      5563        DC  AL3(PAR00F)                                                  53480021
 00A230 008EB5                      5564        DC  AL3(PAR010)                                                  53490021
 00A233 008EBE                      5565        DC  AL3(PAR011)                                                  53500021
 00A236 008EC6                      5566        DC  AL3(PAR012)                                                  53510021
 00A239 008ECC                      5567        DC  AL3(PAR013)                                                  53520021
 00A23C 008EDA                      5568        DC  AL3(PAR014)                                                  53530021
 00A23F 008EE5                      5569        DC  AL3(PAR015)                                                  53540021
 00A242 008EEA                      5570        DC  AL3(PAR016)                                                  53550021
 00A245 008EF4                      5571        DC  AL3(PAR017)                                                  53560021
 00A248 008EF9                      5572        DC  AL3(PAR018)                                                  53570021
 00A24B 008EFF                      5573        DC  AL3(PAR019)                                                  53580021
 00A24E 008F06                      5574        DC  AL3(PAR01A)                                                  53590021
 00A251 008F11                      5575        DC  AL3(PAR01B)                                                  53600021
 00A254 008F12                      5576        DC  AL3(PAR01C)                                                  53610021
 00A257 008F1E                      5577        DC  AL3(PAR01D)                                                  53620021
 00A25A 008F1F                      5578        DC  AL3(PAR01E)                                                  53630021
 00A25D 008F20                      5579        DC  AL3(PAR01F)                                                  53640021
 00A260 008F21                      5580        DC  AL3(PAR020)                                                  53650021
 00A263 008F22                      5581        DC  AL3(PAR021)                                                  53660021
1PH70     IKFCBL70                                                                                              PAGE  153
-  LOC  OBJECT CODE    ADDR1 ADDR2  STMT   SOURCE STATEMENT                                       ASM 0201 11.03 02/14/15
000A266 008F23                      5582        DC  AL3(PAR022)                                                  53670021
 00A269 008F24                      5583        DC  AL3(PAR023)                                                  53680021
 00A26C 008F25                      5584        DC  AL3(PAR024)                                                  53690021
 00A26F 008F26                      5585        DC  AL3(PAR025)                                                  53700021
 00A272 008F35                      5586        DC  AL3(PAR026)                                                  53710021
 00A275 008F3D                      5587        DC  AL3(PAR027)                                                  53720021
 00A278 008F43                      5588        DC  AL3(PAR028)                                                  53730021
 00A27B 008F49                      5589        DC  AL3(PAR029)                                                  53740021
 00A27E 008F4A                      5590          DC  AL3(PAR02A)                                                53750021
 00A281 008F4B                      5591          DC  AL3(PAR02B)                                                53760021
 00A284 008F4E                      5592          DC  AL3(PAR02C)                                                53770021
 00A287 008F4F                      5593          DC  AL3(PAR02D)                                                53780021
 00A28A 008F50                      5594          DC  AL3(PAR02E)                                                53790021
 00A28D 008F51                      5595          DC  AL3(PAR02F)                                                53800021
 00A290 008F52                      5596        DC  AL3(PAR030)                                                  53810021
 00A293 008F5B                      5597        DC  AL3(PAR031)                                                  53820021
 00A296 008F5C                      5598        DC  AL3(PAR032)                                                  53830021
 00A299 008F62                      5599        DC  AL3(PAR033)                                                  53840021
 00A29C 008F69                      5600        DC  AL3(PAR034)                                                  53850021
 00A29F 008F71                      5601        DC  AL3(PAR035)                                                  53860021
 00A2A2 008F78                      5602        DC  AL3(PAR036)                                                  53870021
 00A2A5 008F7E                      5603        DC  AL3(PAR037)                                                  53880021
 00A2A8 008F8B                      5604        DC  AL3(PAR038)                                                  53890021
 00A2AB 008F8F                      5605        DC  AL3(PAR039)                                                  53900021
 00A2AE 008F97                      5606        DC  AL3(PAR03A)                                                  53910021
 00A2B1 008F9A                      5607        DC  AL3(PAR03B)                                                  53920021
 00A2B4 008F9F                      5608        DC  AL3(PAR03C)                                                  53930021
 00A2B7 008FA4                      5609        DC  AL3(PAR03D)                                                  53940021
 00A2BA 008FAD                      5610        DC  AL3(PAR03E)                                                  53950021
 00A2BD 008FB7                      5611        DC  AL3(PAR03F)                                                  53960021
 00A2C0 008FC0                      5612        DC  AL3(PAR040)                                                  53970021
 00A2C3 008FC5                      5613        DC  AL3(PAR041)                                                  53980021
 00A2C6 008FC6                      5614        DC  AL3(PAR042)                                                  53990021
 00A2C9 008FCE                      5615        DC  AL3(PAR043)                                                  54000021
 00A2CC 008FCF                      5616        DC  AL3(PAR044)                                                  54010021
 00A2CF 008FD6                      5617        DC  AL3(PAR045)                                                  54020021
 00A2D2 008FE3                      5618        DC  AL3(PAR046)                                                  54030021
 00A2D5 008FEF                      5619        DC  AL3(PAR047)                                                  54040021
 00A2D8 008FF7                      5620        DC  AL3(PAR048)                                                  54050021
 00A2DB 009003                      5621        DC  AL3(PAR049)                                                  54060021
 00A2DE 009004                      5622        DC  AL3(PAR04A)                                                  54070021
 00A2E1 00900A                      5623        DC  AL3(PAR04B)                                                  54080021
 00A2E4 009011                      5624        DC  AL3(PAR04C)                                                  54090021
 00A2E7 009016                      5625        DC  AL3(PAR04D)                                                  54100021
 00A2EA 009017                      5626        DC  AL3(PAR04E)                                                  54110021
 00A2ED 009018                      5627        DC  AL3(PAR04F)                                                  54120021
 00A2F0 009019                      5628        DC  AL3(PAR050)                                                  54130021
 00A2F3 00901E                      5629        DC  AL3(PAR051)                                                  54140021
 00A2F6 009028                      5630        DC  AL3(PAR052)                                                  54150021
 00A2F9 009035                      5631        DC  AL3(PAR053)                                                  54160021
 00A2FC 00903A                      5632        DC  AL3(PAR054)                                                  54170021
 00A2FF 00904A                      5633        DC  AL3(PAR055)                                                  54180021
 00A302 009055                      5634        DC  AL3(PAR056)                                                  54190021
 00A305 00905D                      5635        DC  AL3(PAR057)                                                  54200021
 00A308 009066                      5636        DC  AL3(PAR058)                                                  54210021
1PH70     IKFCBL70                                                                                              PAGE  154
-  LOC  OBJECT CODE    ADDR1 ADDR2  STMT   SOURCE STATEMENT                                       ASM 0201 11.03 02/14/15
000A30B 00906F                      5637        DC  AL3(PAR059)                                                  54220021
 00A30E 009076                      5638        DC  AL3(PAR05A)                                                  54230021
 00A311 009082                      5639        DC  AL3(PAR05B)                                                  54240021
 00A314 00908F                      5640        DC  AL3(PAR05C)                                                  54250021
 00A317 009093                      5641        DC  AL3(PAR05D)                                                  54260021
 00A31A 009097                      5642        DC  AL3(PAR05E)                                                  54270021
 00A31D 00909A                      5643        DC  AL3(PAR05F)                                                  54280021
 00A320 0090A0                      5644        DC  AL3(PAR060)                                                  54290021
 00A323 0090A1                      5645        DC  AL3(PAR061)                                                  54300021
 00A326 0090AB                      5646        DC  AL3(PAR062)                                                  54310021
 00A329 0090B2                      5647        DC  AL3(PAR063)                                                  54320021
 00A32C 0090BE                      5648        DC  AL3(PAR064)                                                  54330021
 00A32F 0090C5                      5649        DC  AL3(PAR065)                                                  54340021
 00A332 0090C6                      5650        DC  AL3(PAR066)                                                  54350021
 00A335 0090CC                      5651        DC  AL3(PAR067)                                                  54360021
 00A338 0090D3                      5652        DC  AL3(PAR068)                                                  54370021
 00A33B 0090DE                      5653        DC  AL3(PAR069)                                                  54380021
 00A33E 0090E5                      5654        DC  AL3(PAR06A)                                                  54390021
 00A341 0090EF                      5655        DC  AL3(PAR06B)                                                  54400021
 00A344 0090F3                      5656        DC  AL3(PAR06C)                                                  54410021
 00A347 0090F8                      5657        DC  AL3(PAR06D)                                                  54420021
 00A34A 0090FF                      5658        DC  AL3(PAR06E)                                                  54430021
 00A34D 009108                      5659        DC  AL3(PAR06F)                                                  54440021
 00A350 00910D                      5660        DC  AL3(PAR070)                                                  54450021
 00A353 009110                      5661        DC  AL3(PAR071)                                                  54460021
 00A356 009118                      5662        DC  AL3(PAR072)                                                  54470021
 00A359 00911E                      5663        DC  AL3(PAR073)                                                  54480021
 00A35C 009128                      5664        DC  AL3(PAR074)                                                  54490021
 00A35F 009129                      5665        DC  AL3(PAR075)                                                  54500021
 00A362 00912A                      5666        DC  AL3(PAR076)                                                  54510021
 00A365 00912F                      5667        DC  AL3(PAR077)                                                  54520021
 00A368 009138                      5668        DC  AL3(PAR078)                                                  54530021
 00A36B 009140                      5669        DC  AL3(PAR079)                                                  54540021
 00A36E 009144                      5670        DC  AL3(PAR07A)                                                  54550021
 00A371 009152                      5671        DC  AL3(PAR07B)                                                  54560021
 00A374 00915B                      5672        DC  AL3(PAR07C)                                                  54570021
 00A377 009163                      5673        DC  AL3(PAR07D)                                                  54580021
 00A37A 009169                      5674        DC  AL3(PAR07E)                                                  54590021
 00A37D 009173                      5675        DC  AL3(PAR07F)                                                  54600021
 00A380 009176                      5676        DC  AL3(PAR080)                                                  54610021
 00A383 009177                      5677        DC  AL3(PAR081)                                                  54620021
 00A386 00917E                      5678        DC  AL3(PAR082)                                                  54630021
 00A389 009186                      5679        DC  AL3(PAR083)                                                  54640021
 00A38C 00918B                      5680        DC  AL3(PAR084)                                                  54650021
 00A38F 009191                      5681        DC  AL3(PAR085)                                                  54660021
 00A392 009195                      5682        DC  AL3(PAR086)                                                  54670021
 00A395 00919D                      5683        DC  AL3(PAR087)                                                  54680021
 00A398 0091A2                      5684        DC  AL3(PAR088)                                                  54690021
 00A39B 0091AA                      5685        DC  AL3(PAR089)                                                  54700021
 00A39E 0091B0                      5686        DC  AL3(PAR08A)                                                  54710021
 00A3A1 0091B6                      5687        DC  AL3(PAR08B)                                                  54720021
 00A3A4 0091B7                      5688        DC  AL3(PAR08C)                                                  54730021
 00A3A7 0091C2                      5689        DC  AL3(PAR08D)                                                  54740021
 00A3AA 0091CC                      5690        DC  AL3(PAR08E)                                                  54750021
 00A3AD 0091D2                      5691        DC  AL3(PAR08F)                                                  54760021
1PH70     IKFCBL70                                                                                              PAGE  155
-  LOC  OBJECT CODE    ADDR1 ADDR2  STMT   SOURCE STATEMENT                                       ASM 0201 11.03 02/14/15
000A3B0 0091DA                      5692        DC  AL3(PAR090)                                                  54770021
 00A3B3 0091E0                      5693        DC  AL3(PAR091)                                                  54780021
 00A3B6 0091E8                      5694        DC  AL3(PAR092)                                                  54790021
 00A3B9 0091F2                      5695        DC  AL3(PAR093)                                                  54800021
 00A3BC 0091F8                      5696        DC  AL3(PAR094)                                                  54810021
 00A3BF 009202                      5697        DC  AL3(PAR095)                                                  54820021
 00A3C2 009208                      5698        DC  AL3(PAR096)                                                  54830021
 00A3C5 00920E                      5699        DC  AL3(PAR097)                                                  54840021
 00A3C8 009213                      5700        DC  AL3(PAR098)                                                  54850021
 00A3CB 009218                      5701        DC  AL3(PAR099)                                                  54860021
 00A3CE 009222                      5702        DC  AL3(PAR09A)                                                  54870021
 00A3D1 009228                      5703        DC  AL3(PAR09B)                                                  54880021
 00A3D4 00922B                      5704        DC  AL3(PAR09C)                                                  54890021
 00A3D7 00922E                      5705        DC  AL3(PAR09D)                                                  54900021
 00A3DA 009233                      5706        DC  AL3(PAR09E)                                                  54910021
 00A3DD 009236                      5707        DC  AL3(PAR09F)                                                  54920021
 00A3E0 00923A                      5708        DC  AL3(PAR0A0)                                                  54930021
 00A3E3 009246                      5709        DC  AL3(PAR0A1)                                                  54940021
 00A3E6 00924A                      5710        DC  AL3(PAR0A2)                                                  54950021
 00A3E9 00924F                      5711        DC  AL3(PAR0A3)                                                  54960021
 00A3EC 009253                      5712        DC  AL3(PAR0A4)                                                  54970021
 00A3EF 009259                      5713        DC  AL3(PAR0A5)                                                  54980021
 00A3F2 009261                      5714        DC  AL3(PAR0A6)                                                  54990021
 00A3F5 00926E                      5715        DC  AL3(PAR0A7)                                                  55000021
 00A3F8 009277                      5716        DC  AL3(PAR0A8)                                                  55010021
 00A3FB 009286                      5717        DC  AL3(PAR0A9)                                                  55020021
 00A3FE 009295                      5718        DC  AL3(PAR0AA)                                                  55030021
 00A401 0092A4                      5719        DC  AL3(PAR0AB)                                                  55040021
 00A404 0092A9                      5720        DC  AL3(PAR0AC)                                                  55050021
 00A407 0092AE                      5721        DC  AL3(PAR0AD)                                                  55060021
 00A40A 0092B7                      5722        DC  AL3(PAR0AE)                                                  55070021
 00A40D 0092B8                      5723        DC  AL3(PAR0AF)                                                  55080021
 00A410 0092BF                      5724        DC  AL3(PAR0B0)                                                  55090021
 00A413 0092C0                      5725        DC  AL3(PAR0B1)                                                  55100021
 00A416 0092C7                      5726        DC  AL3(PAR0B2)                                                  55110021
 00A419 0092CE                      5727        DC  AL3(PAR0B3)                                                  55120021
 00A41C 0092CF                      5728        DC  AL3(PAR0B4)                                                  55130021
 00A41F 0092D7                      5729        DC  AL3(PAR0B5)                                                  55140021
 00A422 0092DF                      5730        DC  AL3(PAR0B6)                                                  55150021
 00A425 0092E6                      5731        DC  AL3(PAR0B7)                                                  55160021
 00A428 0092EC                      5732        DC  AL3(PAR0B8)                                                  55170021
 00A42B 0092F2                      5733        DC  AL3(PAR0B9)                                                  55180021
 00A42E 0092F9                      5734        DC  AL3(PAR0BA)                                                  55190021
 00A431 009304                      5735        DC  AL3(PAR0BB)                                                  55200021
 00A434 00930B                      5736        DC  AL3(PAR0BC)                                                  55210021
 00A437 009313                      5737        DC  AL3(PAR0BD)                                                  55220021
 00A43A 009314                      5738        DC  AL3(PAR0BE)                                                  55230021
 00A43D 00931E                      5739        DC  AL3(PAR0BF)                                                  55240021
 00A440 009323                      5740        DC  AL3(PAR0C0)                                                  55250021
 00A443 009324                      5741        DC  AL3(PAR0C1)                                                  55260021
 00A446 009325                      5742        DC  AL3(PAR0C2)                                                  55270021
 00A449 009326                      5743        DC  AL3(PAR0C3)                                                  55280021
 00A44C 00932D                      5744        DC  AL3(PAR0C4)                                                  55290021
 00A44F 009336                      5745        DC  AL3(PAR0C5)                                                  55300021
 00A452 009337                      5746        DC  AL3(PAR0C6)                                                  55310021
1PH70     IKFCBL70                                                                                              PAGE  156
-  LOC  OBJECT CODE    ADDR1 ADDR2  STMT   SOURCE STATEMENT                                       ASM 0201 11.03 02/14/15
000A455 009338                      5747        DC  AL3(PAR0C7)                                                  55320021
 00A458 009339                      5748        DC  AL3(PAR0C8)                                                  55330021
 00A45B 009341                      5749        DC  AL3(PAR0C9)                                                  55340021
 00A45E 009342                      5750        DC  AL3(PAR0CA)                                                  55350021
 00A461 009348                      5751        DC  AL3(PAR0CB)                                                  55360021
 00A464 009355                      5752        DC  AL3(PAR0CC)                                                  55370021
 00A467 00935B                      5753        DC  AL3(PAR0CD)                                                  55380021
 00A46A 009362                      5754        DC  AL3(PAR0CE)                                                  55390021
 00A46D 009363                      5755        DC  AL3(PAR0CF)                                                  55400021
 00A470 00936B                      5756        DC  AL3(PAR0D0)                                                  55410021
 00A473 009373                      5757        DC  AL3(PAR0D1)                                                  55420021
 00A476 009379                      5758        DC  AL3(PAR0D2)                                                  55430021
 00A479 00937A                      5759        DC  AL3(PAR0D3)                                                  55440021
 00A47C 009383                      5760        DC  AL3(PAR0D4)                                                  55450021
 00A47F 00938B                      5761        DC  AL3(PAR0D5)                                                  55460021
 00A482 009394                      5762        DC  AL3(PAR0D6)                                                  55470021
 00A485 00939E                      5763        DC  AL3(PAR0D7)                                                  55480021
 00A488 0093A8                      5764        DC  AL3(PAR0D8)                                                  55490021
 00A48B 0093B0                      5765        DC  AL3(PAR0D9)                                                  55500021
 00A48E 0093B6                      5766        DC  AL3(PAR0DA)                                                  55510021
 00A491 0093BD                      5767        DC  AL3(PAR0DB)                                                  55520021
 00A494 0093C7                      5768        DC  AL3(PAR0DC)                                                  55530021
 00A497 0093D3                      5769        DC  AL3(PAR0DD)                                                  55540021
 00A49A 0093D9                      5770        DC  AL3(PAR0DE)                                                  55550021
 00A49D 0093E7                      5771        DC  AL3(PAR0DF)                                                  55560021
 00A4A0 0093F7                      5772        DC  AL3(PAR0E0)                                                  55570021
 00A4A3 009407                      5773        DC  AL3(PAR0E1)                                                  55580021
 00A4A6 009417                      5774        DC  AL3(PAR0E2)                                                  55590021
 00A4A9 00941C                      5775        DC  AL3(PAR0E3)                                                  55600021
 00A4AC 009422                      5776        DC  AL3(PAR0E4)                                                  55610021
 00A4AF 009427                      5777        DC  AL3(PAR0E5)                                                  55620021
 00A4B2 00942C                      5778        DC  AL3(PAR0E6)                                                  55630021
 00A4B5 009431                      5779        DC  AL3(PAR0E7)                                                  55640021
 00A4B8 009437                      5780        DC  AL3(PAR0E8)                                                  55650021
 00A4BB 009440                      5781        DC  AL3(PAR0E9)                                                  55660021
 00A4BE 009448                      5782        DC  AL3(PAR0EA)                                                  55670021
 00A4C1 00944F                      5783        DC  AL3(PAR0EB)                                                  55680021
 00A4C4 009454                      5784        DC  AL3(PAR0EC)                                                  55690021
 00A4C7 00945C                      5785        DC  AL3(PAR0ED)                                                  55700021
 00A4CA 009461                      5786        DC  AL3(PAR0EE)                                                  55710021
 00A4CD 009467                      5787        DC  AL3(PAR0EF)                                                  55720021
 00A4D0 00946C                      5788        DC  AL3(PAR0F0)                                                  55730021
 00A4D3 009471                      5789        DC  AL3(PAR0F1)                                                  55740021
 00A4D6 009472                      5790        DC  AL3(PAR0F2)                                                  55750021
 00A4D9 00947D                      5791        DC  AL3(PAR0F3)                                                  55760021
 00A4DC 009480                      5792        DC  AL3(PAR0F4)                                                  55770021
 00A4DF 009483                      5793        DC  AL3(PAR0F5)                                                  55780021
 00A4E2 009484                      5794        DC  AL3(PAR0F6)                                                  55790021
 00A4E5 009487                      5795        DC  AL3(PAR0F7)                                                  55800021
 00A4E8 00948A                      5796        DC  AL3(PAR0F8)                                                  55810021
 00A4EB 00948D                      5797        DC  AL3(PAR0F9)                                                  55820021
 00A4EE 00948E                      5798        DC  AL3(PAR0FA)                                                  55830021
 00A4F1 009491                      5799        DC  AL3(PAR0FB)                                                  55840021
 00A4F4 00949A                      5800        DC  AL3(PAR0FC)                                                  55850021
 00A4F7 0094A1                      5801        DC  AL3(PAR0FD)                                                  55860021
1PH70     IKFCBL70                                                                                              PAGE  157
-  LOC  OBJECT CODE    ADDR1 ADDR2  STMT   SOURCE STATEMENT                                       ASM 0201 11.03 02/14/15
000A4FA 0094AA                      5802        DC  AL3(PAR0FE)                                                  55870021
 00A4FD 0094B1                      5803        DC  AL3(PAR0FF)                                                  55880021
 00A500 0094B5                      5804        DC  AL3(PAR100)                                                  55890021
 00A503 0094B9                      5805        DC  AL3(PAR101)                                                  55900021
 00A506 0094C2                      5806        DC  AL3(PAR102)                                                  55910021
 00A509 0094CB                      5807        DC  AL3(PAR103)                                                  55920021
 00A50C 0094D2                      5808        DC  AL3(PAR104)                                                  55930021
 00A50F 0094DA                      5809        DC  AL3(PAR105)                                                  55940021
 00A512 0094DB                      5810        DC  AL3(PAR106)                                                  55950021
 00A515 0094E7                      5811        DC  AL3(PAR107)                                                  55960021
 00A518 0094EA                      5812        DC  AL3(PAR108)                                                  55970021
 00A51B 0094EF                      5813        DC  AL3(PAR109)                                                  55980021
 00A51E 0094F0                      5814        DC  AL3(PAR10A)                                                  55990021
 00A521 0094F1                      5815        DC  AL3(PAR10B)                                                  56000021
 00A524 0094F2                      5816        DC  AL3(PAR10C)                                                  56010021
 00A527 0094F3                      5817        DC  AL3(PAR10D)                                                  56020021
 00A52A 0094F4                      5818        DC  AL3(PAR10E)                                                  56030021
 00A52D 0094F5                      5819        DC  AL3(PAR10F)                                                  56040021
 00A530 0094F6                      5820        DC  AL3(PAR110)                                                  56050021
 00A533 0094FB                      5821        DC  AL3(PAR111)                                                  56060021
 00A536 0094FE                      5822        DC  AL3(PAR112)                                                  56070021
 00A539 0094FF                      5823        DC  AL3(PAR113)                                                  56080021
 00A53C 009500                      5824        DC  AL3(PAR114)                                                  56090021
 00A53F 009501                      5825        DC  AL3(PAR115)                                                  56100021
 00A542 009502                      5826        DC  AL3(PAR116)                                                  56110021
 00A545 009503                      5827        DC  AL3(PAR117)                                                  56120021
 00A548 009504                      5828        DC  AL3(PAR118)                                                  56130021
 00A54B 009505                      5829        DC  AL3(PAR119)                                                  56140021
 00A54E 009506                      5830        DC  AL3(PAR11A)                                                  56150021
 00A551 009507                      5831        DC  AL3(PAR11B)                                                  56160021
 00A554 009508                      5832        DC  AL3(PAR11C)                                                  56170021
 00A557 00950E                      5833        DC  AL3(PAR11D)                                                  56180021
 00A55A 009513                      5834        DC  AL3(PAR11E)                                                  56190021
 00A55D 00951B                      5835        DC  AL3(PAR11F)                                                  56200021
 00A560 009525                      5836        DC  AL3(PAR120)                                                  56210021
 00A563 00952A                      5837        DC  AL3(PAR121)                                                  56220021
 00A566 00952F                      5838        DC  AL3(PAR122)                                                  56230021
 00A569 009535                      5839        DC  AL3(PAR123)                                                  56240021
 00A56C 00953B                      5840        DC  AL3(PAR124)                                                  56250021
 00A56F 009543                      5841        DC  AL3(PAR125)                                                  56260021
 00A572 00954A                      5842        DC  AL3(PAR126)                                                  56270021
 00A575 009552                      5843        DC  AL3(PAR127)                                                  56280021
 00A578 00955A                      5844        DC  AL3(PAR128)                                                  56290021
 00A57B 009560                      5845        DC  AL3(PAR129)                                                  56300021
 00A57E 009566                      5846          DC  AL3(PAR12A)                                                56310021
 00A581 00956D                      5847          DC  AL3(PAR12B)                                                56320021
 00A584 009570                      5848          DC  AL3(PAR12C)                                                56330021
 00A587 009576                      5849          DC  AL3(PAR12D)                                                56340021
 00A58A 00957B                      5850          DC  AL3(PAR12E)                                                56350021
 00A58D 009581                      5851          DC  AL3(PAR12F)                                                56360021
 00A590 009582                      5852        DC  AL3(PAR130)                                                  56370021
 00A593 009583                      5853        DC  AL3(PAR131)                                                  56380021
 00A596 009587                      5854        DC  AL3(PAR132)                                                  56390021
 00A599 00958C                      5855        DC  AL3(PAR133)                                                  56400021
 00A59C 009595                      5856        DC  AL3(PAR134)                                                  56410021
1PH70     IKFCBL70                                                                                              PAGE  158
-  LOC  OBJECT CODE    ADDR1 ADDR2  STMT   SOURCE STATEMENT                                       ASM 0201 11.03 02/14/15
000A59F 00959E                      5857        DC  AL3(PAR135)                                                  56420021
 00A5A2 0095A8                      5858        DC  AL3(PAR136)                                                  56430021
 00A5A5 0095AD                      5859        DC  AL3(PAR137)                                                  56440021
 00A5A8 0095B5                      5860        DC  AL3(PAR138)                                                  56450021
 00A5AB 0095BD                      5861        DC  AL3(PAR139)                                                  56460021
 00A5AE 0095BE                      5862        DC  AL3(PAR13A)                                                  56470021
 00A5B1 0095C3                      5863        DC  AL3(PAR13B)                                                  56480021
 00A5B4 0095C9                      5864        DC  AL3(PAR13C)                                                  56490021
 00A5B7 0095CA                      5865        DC  AL3(PAR13D)                                                  56500021
 00A5BA 0095CB                      5866        DC  AL3(PAR13E)                                                  56510021
 00A5BD 0095CC                      5867        DC  AL3(PAR13F)                                                  56520021
 00A5C0 0095CD                      5868        DC  AL3(PAR140)                                                  56530021
 00A5C3 0095D2                      5869        DC  AL3(PAR141)                                                  56540021
 00A5C6 0095D8                      5870        DC  AL3(PAR142)                                                  56550021
 00A5C9 0095DD                      5871        DC  AL3(PAR143)                                                  56560021
 00A5CC 0095E4                      5872        DC  AL3(PAR144)                                                  56570021
 00A5CF 0095E5                      5873        DC  AL3(PAR145)                                                  56580021
 00A5D2 0095E6                      5874        DC  AL3(PAR146)                                                  56590021
 00A5D5 0095E7                      5875        DC  AL3(PAR147)                                                  56600021
 00A5D8 0095E8                      5876        DC  AL3(PAR148)                                                  56610021
 00A5DB 0095E9                      5877        DC  AL3(PAR149)                                                  56620021
 00A5DE 0095EA                      5878        DC  AL3(PAR14A)                                                  56630021
 00A5E1 0095EB                      5879        DC  AL3(PAR14B)                                                  56640021
 00A5E4 0095EC                      5880        DC  AL3(PAR14C)                                                  56650021
 00A5E7 0095ED                      5881        DC  AL3(PAR14D)                                                  56660021
 00A5EA 0095EE                      5882        DC  AL3(PAR14E)                                                  56670021
 00A5ED 0095EF                      5883        DC  AL3(PAR14F)                                                  56680021
 00A5F0 0095F0                      5884        DC  AL3(PAR150)                                                  56690021
 00A5F3 0095F1                      5885        DC  AL3(PAR151)                                                  56700021
 00A5F6 0095F2                      5886        DC  AL3(PAR152)                                                  56710021
 00A5F9 0095F3                      5887        DC  AL3(PAR153)                                                  56720021
 00A5FC 0095F4                      5888        DC  AL3(PAR154)                                                  56730021
 00A5FF 0095F5                      5889        DC  AL3(PAR155)                                                  56740021
 00A602 0095F6                      5890        DC  AL3(PAR156)                                                  56750021
 00A605 0095F7                      5891        DC  AL3(PAR157)                                                  56760021
 00A608 0095F8                      5892        DC  AL3(PAR158)                                                  56770021
 00A60B 0095F9                      5893        DC  AL3(PAR159)                                                  56780021
 00A60E 0095FA                      5894        DC  AL3(PAR15A)                                                  56790021
 00A611 0095FB                      5895        DC  AL3(PAR15B)                                                  56800021
 00A614 0095FC                      5896        DC  AL3(PAR15C)                                                  56810021
 00A617 0095FD                      5897        DC  AL3(PAR15D)                                                  56820021
 00A61A 0095FE                      5898        DC  AL3(PAR15E)                                                  56830021
 00A61D 009605                      5899        DC  AL3(PAR15F)                                                  56840021
 00A620 009610                      5900        DC  AL3(PAR160)                                                  56850021
 00A623 009617                      5901        DC  AL3(PAR161)                                                  56860021
 00A626 00961B                      5902        DC  AL3(PAR162)                                                  56870021
 00A629 009629                      5903        DC  AL3(PAR163)                                                  56880021
 00A62C 00962E                      5904        DC  AL3(PAR164)                                                  56890021
 00A62F 009634                      5905        DC  AL3(PAR165)                                                  56900021
 00A632 009635                      5906        DC  AL3(PAR166)                                                  56910021
 00A635 009636                      5907        DC  AL3(PAR167)                                                  56920021
 00A638 009637                      5908        DC  AL3(PAR168)                                                  56930021
 00A63B 009638                      5909        DC  AL3(PAR169)                                                  56940021
 00A63E 009639                      5910        DC  AL3(PAR16A)                                                  56950021
 00A641 00963A                      5911        DC  AL3(PAR16B)                                                  56960021
1PH70     IKFCBL70                                                                                              PAGE  159
-  LOC  OBJECT CODE    ADDR1 ADDR2  STMT   SOURCE STATEMENT                                       ASM 0201 11.03 02/14/15
000A644 00963B                      5912        DC  AL3(PAR16C)                                                  56970021
 00A647 00963C                      5913        DC  AL3(PAR16D)                                                  56980021
 00A64A 00963D                      5914        DC  AL3(PAR16E)                                                  56990021
 00A64D 00963E                      5915        DC  AL3(PAR16F)                                                  57000021
 00A650 00963F                      5916        DC  AL3(PAR170)                                                  57010021
 00A653 009640                      5917        DC  AL3(PAR171)                                                  57020021
 00A656 009645                      5918        DC  AL3(PAR172)                                                  57030021
 00A659 00964B                      5919        DC  AL3(PAR173)                                                  57040021
 00A65C 009652                      5920        DC  AL3(PAR174)                                                  57050021
 00A65F 009653                      5921        DC  AL3(PAR175)                                                  57060021
 00A662 009654                      5922        DC  AL3(PAR176)                                                  57070021
 00A665 00965B                      5923        DC  AL3(PAR177)                                                  57080021
 00A668 00965C                      5924        DC  AL3(PAR178)                                                  57090021
 00A66B 00965D                      5925        DC  AL3(PAR179)                                                  57100021
 00A66E 00965E                      5926        DC  AL3(PAR17A)                                                  57110021
 00A671 00965F                      5927        DC  AL3(PAR17B)                                                  57120021
 00A674 009660                      5928        DC  AL3(PAR17C)                                                  57130021
 00A677 009661                      5929        DC  AL3(PAR17D)                                                  57140021
 00A67A 009662                      5930        DC  AL3(PAR17E)                                                  57150021
 00A67D 009663                      5931        DC  AL3(PAR17F)                                                  57160021
 00A680 009664                      5932        DC  AL3(PAR180)                                                  57170021
 00A683 009665                      5933        DC  AL3(PAR181)                                                  57180021
 00A686 009677                      5934        DC  AL3(PAR182)                                                  57190021
 00A689 009678                      5935        DC  AL3(PAR183)                                                  57200021
 00A68C 00968E                      5936        DC  AL3(PAR184)                                                  57210021
 00A68F 00968F                      5937        DC  AL3(PAR185)                                                  57220021
 00A692 009690                      5938        DC  AL3(PAR186)                                                  57230021
 00A695 009696                      5939        DC  AL3(PAR187)                                                  57240021
 00A698 009697                      5940        DC  AL3(PAR188)                                                  57250021
 00A69B 00969F                      5941        DC  AL3(PAR189)                                                  57260021
 00A69E 0096A0                      5942        DC  AL3(PAR18A)                                                  57270021
 00A6A1 0096A5                      5943        DC  AL3(PAR18B)                                                  57280021
 00A6A4 0096A6                      5944        DC  AL3(PAR18C)                                                  57290021
 00A6A7 0096A7                      5945        DC  AL3(PAR18D)                                                  57300021
 00A6AA 0096A8                      5946        DC  AL3(PAR18E)                                                  57310021
 00A6AD 0096A9                      5947        DC  AL3(PAR18F)                                                  57320021
 00A6B0 0096AA                      5948        DC  AL3(PAR190)                                                  57330021
 00A6B3 0096B5                      5949        DC  AL3(PAR191)                                                  57340021
 00A6B6 0096C1                      5950        DC  AL3(PAR192)                                                  57350021
 00A6B9 0096C2                      5951        DC  AL3(PAR193)                                                  57360021
 00A6BC 0096C3                      5952        DC  AL3(PAR194)                                                  57370021
 00A6BF 0096C4                      5953        DC  AL3(PAR195)                                                  57380021
 00A6C2 0096C5                      5954        DC  AL3(PAR196)                                                  57390021
 00A6C5 0096C6                      5955        DC  AL3(PAR197)                                                  57400021
 00A6C8 0096C7                      5956        DC  AL3(PAR198)                                                  57410021
 00A6CB 0096C8                      5957        DC  AL3(PAR199)                                                  57420021
 00A6CE 0096C9                      5958        DC  AL3(PAR19A)                                                  57430021
 00A6D1 0096CA                      5959        DC  AL3(PAR19B)                                                  57440021
 00A6D4 0096CB                      5960        DC  AL3(PAR19C)                                                  57450021
 00A6D7 0096CC                      5961        DC  AL3(PAR19D)                                                  57460021
 00A6DA 0096CD                      5962        DC  AL3(PAR19E)                                                  57470021
 00A6DD 0096CE                      5963        DC  AL3(PAR19F)                                                  57480021
 00A6E0 0096CF                      5964        DC  AL3(PAR1A0)                                                  57490021
 00A6E3 0096D9                      5965        DC  AL3(PAR1A1)                                                  57500021
 00A6E6 0096E4                      5966        DC  AL3(PAR1A2)                                                  57510021
1PH70     IKFCBL70                                                                                              PAGE  160
-  LOC  OBJECT CODE    ADDR1 ADDR2  STMT   SOURCE STATEMENT                                       ASM 0201 11.03 02/14/15
000A6E9 0096ED                      5967        DC  AL3(PAR1A3)                                                  57520021
 00A6EC 0096F3                      5968        DC  AL3(PAR1A4)                                                  57530021
 00A6EF 0096F6                      5969        DC  AL3(PAR1A5)                                                  57540021
 00A6F2 0096F7                      5970        DC  AL3(PAR1A6)                                                  57550021
 00A6F5 0096F8                      5971        DC  AL3(PAR1A7)                                                  57560021
 00A6F8 0096F9                      5972        DC  AL3(PAR1A8)                                                  57570021
 00A6FB 0096FA                      5973        DC  AL3(PAR1A9)                                                  57580021
 00A6FE 0096FB                      5974        DC  AL3(PAR1AA)                                                  57590021
 00A701 0096FC                      5975        DC  AL3(PAR1AB)                                                  57600021
 00A704 0096FD                      5976        DC  AL3(PAR1AC)                                                  57610021
 00A707 0096FE                      5977        DC  AL3(PAR1AD)                                                  57620021
 00A70A 0096FF                      5978        DC  AL3(PAR1AE)                                                  57630021
 00A70D 009700                      5979        DC  AL3(PAR1AF)                                                  57640021
 00A710 009701                      5980        DC  AL3(PAR1B0)                                                  57650021
 00A713 009702                      5981        DC  AL3(PAR1B1)                                                  57660021
 00A716 009707                      5982        DC  AL3(PAR1B2)                                                  57670021
 00A719 00970C                      5983        DC  AL3(PAR1B3)                                                  57680021
 00A71C 00971C                      5984        DC  AL3(PAR1B4)                                                  57690021
 00A71F 009724                      5985        DC  AL3(PAR1B5)                                                  57700021
 00A722 00972B                      5986        DC  AL3(PAR1B6)                                                  57710021
 00A725 009735                      5987        DC  AL3(PAR1B7)                                                  57720021
 00A728 009742                      5988        DC  AL3(PAR1B8)                                                  57730021
 00A72B 009753                      5989        DC  AL3(PAR1B9)                                                  57740021
 00A72E 00975E                      5990        DC  AL3(PAR1BA)                                                  57750021
 00A731 00975F                      5991        DC  AL3(PAR1BB)                                                  57760021
 00A734 009773                      5992        DC  AL3(PAR1BC)                                                  57770021
 00A737 009781                      5993        DC  AL3(PAR1BD)                                                  57780021
 00A73A 009795                      5994        DC  AL3(PAR1BE)                                                  57790021
 00A73D 0097A3                      5995        DC  AL3(PAR1BF)                                                  57800021
 00A740 0097B1                      5996        DC  AL3(PAR1C0)                                                  57810021
 00A743 0097BA                      5997        DC  AL3(PAR1C1)                                                  57820021
 00A746 0097C9                      5998        DC  AL3(PAR1C2)                                                  57830021
 00A749 0097D4                      5999        DC  AL3(PAR1C3)                                                  57840021
 00A74C 0097DB                      6000        DC  AL3(PAR1C4)                                                  57850021
 00A74F 0097DC                      6001        DC  AL3(PAR1C5)                                                  57860021
 00A752 0097EA                      6002        DC  AL3(PAR1C6)                                                  57870021
 00A755 0097FA                      6003        DC  AL3(PAR1C7)                                                  57880021
 00A758 00980A                      6004        DC  AL3(PAR1C8)                                                  57890021
 00A75B 009817                      6005        DC  AL3(PAR1C9)                                                  57900021
 00A75E 009824                      6006        DC  AL3(PAR1CA)                                                  57910021
 00A761 009830                      6007        DC  AL3(PAR1CB)                                                  57920021
 00A764 00983E                      6008        DC  AL3(PAR1CC)                                                  57930021
 00A767 00984B                      6009        DC  AL3(PAR1CD)                                                  57940021
 00A76A 009858                      6010        DC  AL3(PAR1CE)                                                  57950021
 00A76D 009860                      6011        DC  AL3(PAR1CF)                                                  57960021
 00A770 00986F                      6012        DC  AL3(PAR1D0)                                                  57970021
 00A773 009879                      6013        DC  AL3(PAR1D1)                                                  57980021
 00A776 00987C                      6014        DC  AL3(PAR1D2)                                                  57990021
 00A779 00987F                      6015        DC  AL3(PAR1D3)                                                  58000021
 00A77C 009882                      6016        DC  AL3(PAR1D4)                                                  58010021
 00A77F 009885                      6017        DC  AL3(PAR1D5)                                                  58020021
 00A782 009888                      6018        DC  AL3(PAR1D6)                                                  58030021
 00A785 009889                      6019        DC  AL3(PAR1D7)                                                  58040021
 00A788 00988C                      6020        DC  AL3(PAR1D8)                                                  58050021
 00A78B 009892                      6021        DC  AL3(PAR1D9)                                                  58060021
1PH70     IKFCBL70                                                                                              PAGE  161
-  LOC  OBJECT CODE    ADDR1 ADDR2  STMT   SOURCE STATEMENT                                       ASM 0201 11.03 02/14/15
000A78E 009893                      6022        DC  AL3(PAR1DA)                                                  58070021
 00A791 009894                      6023        DC  AL3(PAR1DB)                                                  58080021
 00A794 009895                      6024        DC  AL3(PAR1DC)                                                  58090021
 00A797 009896                      6025        DC  AL3(PAR1DD)                                                  58100021
 00A79A 009897                      6026        DC  AL3(PAR1DE)                                                  58110021
 00A79D 009898                      6027        DC  AL3(PAR1DF)                                                  58120021
 00A7A0 00989E                      6028        DC  AL3(PAR1E0)                                                  58130021
 00A7A3 00989F                      6029        DC  AL3(PAR1E1)                                                  58140021
 00A7A6 0098A0                      6030        DC  AL3(PAR1E2)                                                  58150021
 00A7A9 0098A1                      6031        DC  AL3(PAR1E3)                                                  58160021
 00A7AC 0098A2                      6032        DC  AL3(PAR1E4)                                                  58170021
 00A7AF 0098A3                      6033        DC  AL3(PAR1E5)                                                  58180021
 00A7B2 0098A4                      6034        DC  AL3(PAR1E6)                                                  58190021
 00A7B5 0098A5                      6035        DC  AL3(PAR1E7)                                                  58200021
 00A7B8 0098A6                      6036        DC  AL3(PAR1E8)                                                  58210021
 00A7BB 0098A7                      6037        DC  AL3(PAR1E9)                                                  58220021
 00A7BE 0098A8                      6038        DC  AL3(PAR1EA)                                                  58230021
 00A7C1 0098A9                      6039        DC  AL3(PAR1EB)                                                  58240021
 00A7C4 0098AA                      6040        DC  AL3(PAR1EC)                                                  58250021
 00A7C7 0098AB                      6041        DC  AL3(PAR1ED)                                                  58260021
 00A7CA 0098AC                      6042        DC  AL3(PAR1EE)                                                  58270021
 00A7CD 0098B1                      6043        DC  AL3(PAR1EF)                                                  58280021
 00A7D0 0098BC                      6044        DC  AL3(PAR1F0)                                                  58290021
 00A7D3 0098BD                      6045        DC  AL3(PAR1F1)                                                  58300021
 00A7D6 0098C4                      6046        DC  AL3(PAR1F2)                                                  58310021
 00A7D9 0098CA                      6047        DC  AL3(PAR1F3)                                                  58320021
 00A7DC 0098CF                      6048        DC  AL3(PAR1F4)                                                  58330021
 00A7DF 0098D5                      6049        DC  AL3(PAR1F5)                                                  58340021
 00A7E2 0098DA                      6050        DC  AL3(PAR1F6)                                                  58350021
 00A7E5 0098E2                      6051        DC  AL3(PAR1F7)                                                  58360021
 00A7E8 0098E7                      6052        DC  AL3(PAR1F8)                                                  58370021
 00A7EB 0098E8                      6053        DC  AL3(PAR1F9)                                                  58380021
 00A7EE 0098F5                      6054        DC  AL3(PAR1FA)                                                  58390021
 00A7F1 009902                      6055        DC  AL3(PAR1FB)                                                  58400021
 00A7F4 009903                      6056        DC  AL3(PAR1FC)                                                  58410021
 00A7F7 009904                      6057        DC  AL3(PAR1FD)                                                  58420021
 00A7FA 00990A                      6058        DC  AL3(PAR1FE)                                                  58430021
 00A7FD 00990B                      6059        DC  AL3(PAR1FF)                                                  58440021
                                    6060 *=1    SYMBOLIC OPERAND TABLE                                           58450021
                                    6061 *                                                                       58460021
                             0A800  6062 XSYMC  EQU     *                                                        58470021
 00A800 C4D5D47E                    6063 XDNC   DC      C'DNM='      SOURCE DATA NAME                            58480021
                                    6064 *      THIS GROUP MUST BE IN ORDER                                      58490021
 00A804 E2C1E54E                    6065 XSAVC  DC      C'SAV+'      SAVE AREA CELL                              58500021
 00A808 E2E6E34E                    6066        DC      C'SWT+'      SWITCH CELL                                 58510021
 00A80C E3D3E84E                    6067        DC      C'TLY+'      TALLY CELL                                  58520021
 00A810 C4C2C74E                    6068        DC      C'DBG+'      DEBUG SAVE CELL                             58530021
 00A814 C5C3C24E                    6069        DC      C'ECB+'      ECB CELL                                    58540021
 00A818 D9D7C54E                    6070        DC      C'RPE+'      RANDOM PROCESSING ECB CELL                  58550021
 00A81C D9D7C84E                    6071        DC      C'RPH+'      RANDOM PROCESSING HOLD CELL                 58560021
                                    6072 *      THIS GROUP MUST BE IN ORDER                                      58570021
                             0A820  6073 XDCBC  EQU     *                                                        58580021
 00A820 C4C3C27E                    6074        DC      C'DCB='      DCB ADDR                                    58590021
 00A824 E5D3C37E                    6075        DC      C'VLC='      VARIABLE LENGTH CELL                        58600021
 00A828 D6D57EF0                    6076        DC      C'ON=0'      ON COUNTER                                  58610021
1PH70     IKFCBL70                                                                                              PAGE  162
-  LOC  OBJECT CODE    ADDR1 ADDR2  STMT   SOURCE STATEMENT                                       ASM 0201 11.03 02/14/15
000A82C D7C6D47E                    6077        DC      C'PFM='      PERFORM COUNTER                             58620021
 00A830 D7E2E57E                    6078        DC      C'PSV='      PERFORM SAVE                                58630021
 00A834 C4C5C37E                    6079        DC      C'DEC='      DECB ADDR                                   58640021
 00A838 E7E2C17E                    6080        DC      C'XSA='      EXHIBIT SAVE AREA                           58650021
 00A83C D7D9D47E                    6081        DC      C'PRM='      PARAMETER                                   58660021
 00A840 E6C37EF0                    6082        DC    C'WC=0'     WORKING CELL                                   58670021
 00A844 E3E27EF0                    6083        DC    C'TS=0'     TEMPORARY STORAGE CELL                         58680021
 00A848 E7E2E67E                    6084        DC      C'XSW='      EXHIBIT SWITCH                              58690021
 00A84C E2C2E27E                    6085        DC    C'SBS='      SUBSCRIPT CELL (LATER ON ALSO)                58700021
 00A850 E3E2F27E                    6086        DC    C'TS2='     TEMPORARY STORAGE (NON-ARITH)                  58710021
 00A854 D9D7C97E                    6087          DC    C'RPI='     RANDOM PROCESSING INFO FOR SPECIFIED RPD     58720021
 00A858 E5D3C37E                    6088        DC    C'VLC='          VLC (OUT-OF-LINE HERE)                    58730021
 00A85C E2C1E5F2                    6089        DC    C'SAV2'                                                    58740021
 00A860 E2C1E5F3                    6090        DC    C'SAV3'                                                    58750021
                                    6091 *      THIS GROUP MUST BE IN ORDER                                      58760021
 00A864 C2D3C97E                    6092 XBLIC  DC    C'BLI='     BASE LOCATOR FOR INLINE FILE OR W-S            58770021
 00A868 C2D3D67E                    6093 XBLOC  DC    C'BLO='     BASE LOCATOR FOR OUT-OF-LINE FILE              58780021
                             0A86C  6094 XBLLC  EQU     *                                                        58790021
 00A86C C2D3D37E                    6095        DC      C'BLL='      BL FOR LINKAGE SECTION                      58800021
                             0A870  6096 XBLSC  EQU     *                                                        58810021
 00A870 C2D3E27E                    6097        DC      C'BLS='      BL FOR SA                                   58820021
                             0A874  6098 XSBLC  EQU     *                                                        58830021
 00A874 E2C2D37E                    6099        DC      C'SBL='      2RY BASE LOCATOR CELL                       58840021
                             0A878  6100 XSBSC  EQU     *                                                        58850021
 00A878 E2C2E27E                    6101        DC      C'SBS='      SUBSCRIPT CELL                              58860021
                             0A87C  6102 XRPIC  EQU     *                                                        58870021
 00A87C D9D7C97E                    6103          DC    C'RPI='     RANDOM PROCESSING INFO FOR SPECIFIED RPD     58880021
1PH70     IKFCBL70                                                                                              PAGE  163
-  LOC  OBJECT CODE    ADDR1 ADDR2  STMT   SOURCE STATEMENT                                       ASM 0201 11.03 02/14/15
0                                   6105 * DESCRIPTION OF PHASE 7 TABLES                                         58900021
0
                                    6107 *      PH1ERR                                                           58920021
                                    6108 *      TIB= 15                                                          58930021
                                    6109 *      PRIMING VALUE IS VARIABLE                                        58940021
                                    6110 *      ENTRY LENGTH IS 3 BYTES                                          58950021
                                    6111 *      GROW FACTOR IS VARIABLE                                          58960021
                                    6112 *      FORMAT  // PTR //                                                58970021
                                    6113 *            PTR IS A 3-BYTE ADDRESS OF ERROR MESSAGE TEXT.             58980021
                                    6114 *            PH1ERR HAS A POINTER TO THE TEXT OF EACH                   58990021
                                    6115 *            PHASE 1 ERROR MESSAGE.                                     59000021
0
                                    6117 *      PH2ERR                                                           59020021
                                    6118 *      TIB= 16                                                          59030021
                                    6119 *      PRIMING VALUE IS VARIABLE                                        59040021
                                    6120 *      ENTRY LENGTH IS 3 BYTES                                          59050021
                                    6121 *      GROW FACTOR IS VARIABLE                                          59060021
                                    6122 *      FORMAT  // PTR //                                                59070021
                                    6123 *            PTR IS A 3-BYTE ADDRESS OF ERROR MESSAGE TEXT.             59080021
                                    6124 *            PH2ERR HAS A POINTER TO THE TEXT OF EACH                   59090021
                                    6125 *            PHASE 2 ERROR MESSAGE.                                     59100021
0
                                    6127 *      PH3ERR                                                           59120021
                                    6128 *      TIB= 9                                                           59130021
                                    6129 *      PRIMING VALUE IS VARIABLE                                        59140021
                                    6130 *      ENTRY LENGTH IS 3 BYTES                                          59150021
                                    6131 *      GROW FACTOR IS VARIABLE                                          59160021
                                    6132 *      FORMAT  // PTR //                                                59170021
                                    6133 *            PTR IS A 3-BYTE ADDRESS OF ERROR MESSAGE TEXT.             59180021
                                    6134 *            PH3ERR HAS A POINTER TO THE TEXT OF EACH                   59190021
                                    6135 *            PHASE 3 ERROR MESSAGE.                                     59200021
0
                                    6137 *      PH4ERR                                                           59220021
                                    6138 *      TIB= 13                                                          59230021
                                    6139 *      PRIMING VALUE IS VARIABLE                                        59240021
                                    6140 *      ENTRY LENGTH IS 3 BYTES                                          59250021
                                    6141 *      GROW FACTOR IS VARIABLE                                          59260021
                                    6142 *      FORMAT  // PTR //                                                59270021
                                    6143 *            PTR IS A 3-BYTE ADDRESS OF ERROR MESSAGE TEXT.             59280021
                                    6144 *            PH4ERR HAS A POINTER TO THE TEXT OF EACH                   59290021
                                    6145 *            PHASE 4 ERROR MESSAGE.                                     59300021
0
                                    6147 *      PH5ERR                                                           59320021
                                    6148 *      TIB= 17                                                          59330021
                                    6149 *      PRIMING VALUE IS VARIABLE                                        59340021
                                    6150 *      ENTRY LENGTH IS 3 BYTES                                          59350021
                                    6151 *      GROW FACTOR IS VARIABLE                                          59360021
                                    6152 *      FORMAT  // PTR //                                                59370021
                                    6153 *            PTR IS A 3-BYTE ADDRESS OF ERROR MESSAGE TEXT.             59380021
                                    6154 *            PH5ERR HAS A POINTER TO THE TEXT OF EACH                   59390021
1PH70     IKFCBL70                                                                                              PAGE  164
-  LOC  OBJECT CODE    ADDR1 ADDR2  STMT   SOURCE STATEMENT                                       ASM 0201 11.03 02/14/15
0                                   6155 *            PHASE 5 ERROR MESSAGE.                                     59400021
0
                                    6157 *      PARTBL                                                           59420021
                                    6158 *      TIB= 14                                                          59430021
                                    6159 *      PRIMING VALUE IS 1536 BYTES                                      59440021
                                    6160 *      ENTRY LENGTH IS 3 BYTES                                          59450021
                                    6161 *      GROW FACTOR IS 192 BYTES                                         59460021
                                    6162 *      FORMAT  // PTR //                                                59470021
                                    6163 *            PTR IS A 3-BYTE ADDRESS OF ERROR PARAMETER TEXT.           59480021
                                    6164 *            PARTBL CONTAINS POINTERS TO CERTAIN WORDS THAT MAY         59490021
                                    6165 *            BE USED AS ERROR MESSAGE PARAMETERS.                       59500021
0
                                    6167 *      EACTBL                                                           59520021
                                    6168 *      TIB= 18                                                          59530021
                                    6169 *      PRIMING VALUE IS VARIABLE                                        59540021
                                    6170 *      ENTRY LENGTH IS 3 BYTES                                          59550021
                                    6171 *      GROW FACTOR IS VARIABLE                                          59560021
                                    6172 *      FORMAT  // PTR //                                                59570021
                                    6173 *            PTR IS A 3-BYTE ADDRESS OF ERROR MESSAGE TEXT.             59580021
                                    6174 *            EACTBL HAS POINTERS TO ALL STANDARD ACTION CODES THAT      59590021
                                    6175 *            AN ERROR MESSAGE MAY REFER TO.                             59600021
1PH70     IKFCBL70                                                                                              PAGE  165
-  LOC  OBJECT CODE    ADDR1 ADDR2  STMT   SOURCE STATEMENT                                       ASM 0201 11.03 02/14/15
0                                   6177 *=1    EVERYTHING PAST THIS POINT EITHER DSECT OR TEMPORARY             59620021
                                    6178 *=1    COMMON AREA DEFINITION                                           59630021
                                    6179 *                                                                       59640021
1PH70     IKFCBL70                                                                                              PAGE  166
-  LOC  OBJECT CODE    ADDR1 ADDR2  STMT   SOURCE STATEMENT                                       ASM 0201 11.03 02/14/15
0                                   6181 *=1    6.  INPUT AREA--A-TEXT ELEMENT DEFINITIONS                       59660021
                                    6182 *                                                                       59670021
 000000                             6183 A6TEXT DSECT                                                            59680021
 000000                             6184        DS    0CL125                                                     59690021
 000000                      00000  6185        ORG   A6TEXT                    A-TEXT ELEMENT DEF               59700021
 000000                             6186 A6COND DS    CL1         CONDEF                                         59710021
 000001                             6187 A6CONL DS    CL3         RELLOC                                         59720021
 000004                             6188 A6CONT DS    CL1         TYPE                                           59730021
 000005                             6189 A6CONS DS    CL2         SIZE                                           59740021
 000007                             6190 A6CONLV  DS    CL1                 LENGTH OF VALUE FOR ALL TYPE         59750021
 000008                             6191 A6CONV DS    CL1         * VALUE                                        59760021
 000009                      00000  6192        ORG   A6TEXT                    A-TEXT ELEMENT DEF               59770021
 000000                             6193 A6ACON DS    CL1         ACONDEF                                        59780021
 000001                             6194 A6ACOL DS    CL3         RELLOC                                         59790021
 000004                             6195 A6ACOS DS    CL1         SIZE OF ACON                                   59800021
 000005                             6196 A6ACOA DS    CL3         RELADR                                         59810021
 000008                      00000  6197        ORG   A6TEXT                    A-TEXT ELEMENT DEF               59820021
 000000                             6198 A6IAD  DS    CL1         IACONDEF                                       59830021
 000001                             6199 A6IAL  DS    CL3         RELLOC                                         59840021
 000004                             6200 A6IAS  DS    CL1         SIZE OF ADCON                                  59850021
 000005                             6201 A6IAT  DS    CL1         TYPE OF CELL TO FETCH                          59860021
 000006                             6202 A6IAN  DS    CL2         NO OF CELL OF ABOVE TYPE                       59870021
 000008                      00000  6203        ORG   A6TEXT                    A-TEXT ELEMENT DEF               59880021
 000000                             6204 A6QD   DS    CL1         QDEF                                           59890021
 000001                             6205 A6QGN  DS    CL2         GN= OF QRTNE                                   59900021
 000003                      00000  6206        ORG   A6TEXT                    A-TEXT ELEMENT DEF               59910021
 000000                             6207 A6PNCD DS    CL1         PN EQU CODE                                    59920021
 000001                             6208 A6PNCT DS    CL1                COUNT                                   59930021
 000002                             6209 A6PNL  DS    CL2                PN=                                     59940021
 000004                             6210 A6GNR  DS    CL2                GN=                                     59950021
 000006                      00000  6211        ORG   A6TEXT                    A-TEXT ELEMENT DEF               59960021
 000000                             6212 A6GNCD DS    CL1         GN EQU CODE                                    59970021
 000001                             6213 A6GNCT DS    CL1                COUNT                                   59980021
 000002                             6214 A6GNL  DS    CL2                GN=                                     59990021
 000004                             6215 A6GNRR DS    CL2                        GN=                             60000021
 000006                      00000  6216        ORG   A6TEXT                    A-TEXT ELEMENT DEF               60010021
 000000                             6217 A6CKPT DS    CL1         CKPTDEF                                        60020021
 000001                             6218 A6CKPD DS    CL2         DCB=                                           60030021
 000003                      00000  6219        ORG   A6TEXT                    A-TEXT ELEMENT DEF               60040021
 000000                             6220 A6MSGD DS    CL1         MSGDEF                                         60050021
 000001                             6221 A6MSGN DS    CL1         LENGTH OF ELT                                  60060021
 000002                             6222 A6MSGZ DS    CL1              ZERO                                      60070021
 000003                             6223 A6MSGM DS    CL2         MSG NUMBER                                     60080021
 000005                             6224 A6MSGC DS    CL2         REC NO OF SOURCE CARD                          60090021
 000007                             6225 A6MSGS DS    CL1         HIGH 4 BITS= SEVERITY                          60100021
 000008                      00007  6226        ORG   A6MSGS                    PHASE # & SEV BYTE               60110021
 000007                             6227 A6MSGP DS    CL1         LOW  4 BITS= PHASE NO                          60120021
 000008                      00000  6228        ORG   A6TEXT                    A-TEXT ELEMENT DEF               60130021
 000000                             6229 A6PARD DS    CL1         MSGPAR                                         60140021
 000001                             6230 A6PARN DS    CL1         LENGTH OF PARAM                                60150021
 000002                             6231 A6PAR  DS    CL1         * PARAM                                        60160021
 000003                      00000  6232        ORG   A6TEXT                    A-TEXT ELEMENT DEF               60170021
 000000                             6233 A6CODE DS    CL1                        HEX VALUE FOR ATEXT CODES       60180021
 000001                             6234        DS    CL124                      FOR MAX ATEXT REC               60190021
 00007D                      00000  6235        ORG   A6TEXT                    A-TEXT ELEMENT DEF               60200021
1PH70     IKFCBL70                                                                                              PAGE  167
-  LOC  OBJECT CODE    ADDR1 ADDR2  STMT   SOURCE STATEMENT                                       ASM 0201 11.03 02/14/15
0000000                             6236 A7DNDEF  DS    CL6                                                      60210021
 000006                             6237 A7DNLN   DS    CL1                                                      60220021
 000007                      00000  6238        ORG   A6TEXT                    A-TEXT ELEMENT DEF               60230021
 000000                             6239 A7PNDEF  DS    CL5                                                      60240021
 000005                             6240 A7PNLN   DS    CL1                                                      60250021
 00A880                             6241 IKF714 CSECT                                                            60260021
                             00000  6242 DX0      EQU   0                                                        60270021
                             00001  6243 DX1      EQU   1                                                        60280021
                             00001  6244 NX1      EQU   1                                                        60290021
                             00002  6245 DX2      EQU   2                                                        60300021
                             00002  6246 NX2      EQU   2                                                        60310021
                             00002  6247 LX2      EQU   2                                                        60320021
                             00003  6248 DX3      EQU   3                                                        60330021
                             00003  6249 LX3      EQU   3                                                        60340021
                             00004  6250 DX4      EQU   4                                                        60350021
                             00004  6251 NX4      EQU   4                                                        60360021
                             00005  6252 NX5      EQU   5                                                        60370021
                             00005  6253 LX5      EQU   5                                                        60380021
                             00006  6254 DX6      EQU   6                                                        60390021
                             00006  6255 NX6      EQU   6                                                        60400021
                             00007  6256 DX7      EQU   7                                                        60410021
                             00007  6257 NX7      EQU   7                                                        60420021
                             00008  6258 DX8      EQU   8                                                        60430021
                             00008  6259 NX8      EQU   8                                                        60440021
                             00009  6260 NX9      EQU   9                                                        60450021
                             00009  6261 LX9      EQU   9                                                        60460021
                             0000B  6262 NX11     EQU   11                                                       60470021
                             0000C  6263 DX12     EQU   12                                                       60480021
                             0000C  6264 NX12     EQU   12                                                       60490021
                             0000E  6265 NX14     EQU   14                                                       60500021
                             0000F  6266 NX15     EQU   15                                                       60510021
                             00010  6267 NX16     EQU   16                                                       60520021
                             00011  6268 NX17     EQU   17                                                       60530021
                             00016  6269 NX22     EQU   22                                                       60540021
                             00017  6270 NX23     EQU   23                                                       60550021
                             00022  6271 DX34     EQU   34                                                       60560021
                             00026  6272 NX38     EQU   38                                                       60570021
                             00027  6273 NX39     EQU   39                                                       60580021
                             00028  6274 NX40     EQU   40                                                       60590021
                             00078  6275 DX120    EQU   120                                                      60600021
                             00100  6276 DX256    EQU   256                                                      60610021
                             00000  6277 XX0      EQU   X'00'                                                    60620021
                             00040  6278 XX40     EQU   X'40'                                                    60630021
                             000F0  6279 XXF0     EQU   X'F0'                                                    60640021
                             000FF  6280 XXFF     EQU   X'FF'                                                    60650021
                             0004B  6281 XX4B     EQU   X'4B'                                                    60660021
                             00000  6282 XX00     EQU   X'00'                                                    60670021
                             000C0  6283 XXC0     EQU   X'C0'                                                    60680021
                             00004  6284 XX04     EQU   X'04'                                                    60690021
                             00060  6285 XX60     EQU   X'60'                                                    60700021
                             0007F  6286 XX7F     EQU   X'7F'                                                    60710021
                             0005B  6287 XX5B     EQU   X'5B'                                                    60720021
                             00005  6288 XX05     EQU   X'05'                                                    60730021
                             00022  6289 XX22     EQU   X'22'                                                    60740021
                             00023  6290 XX23     EQU   X'23'                                                    60750021
1PH70     IKFCBL70                                                                                              PAGE  168
-  LOC  OBJECT CODE    ADDR1 ADDR2  STMT   SOURCE STATEMENT                                       ASM 0201 11.03 02/14/15
0                            00034  6291 XX34     EQU   X'34'                                                    60760021
                             00042  6292 XX42     EQU   X'42'                                                    60770021
                             00043  6293 XX43     EQU   X'43'                                                    60780021
                             00044  6294 XX44     EQU   X'44'                                                    60790021
                             00050  6295 XX50     EQU   X'50'                                                    60800021
                             00052  6296 XX52     EQU   X'52'                                                    60810021
                             00053  6297 XX53     EQU   X'53'                                                    60820021
                             00054  6298 XX54     EQU   X'54'                                                    60830021
                             00055  6299 XX55     EQU   X'55'                                                    60840021
                             00075  6300 XX75     EQU   X'75'                                                    60850021
                             00079  6301 XX79     EQU   X'79'                                                    60860021
                             000F9  6302 XXF9     EQU   X'F9'                                                    60870021
                             000FA  6303 XXFA     EQU   X'FA'                                                    60880021
                             000FE  6304 XXFE     EQU   X'FE'                                                    60890021
                             00008  6305 XX08     EQU   X'08'                                                    60900021
                             00010  6306 XX10     EQU   X'10'                                                    60910021
                             000FB  6307 XXFB     EQU   X'FB'                                                    60920021
                             00080  6308 XX80     EQU   X'80'                                                    60930021
                             00077  6309 XX77     EQU   X'77'                                                    60940021
                             00020  6310 XX20     EQU   X'20'                                                    60950021
                             00001  6311 XX01     EQU   X'01'                                                    60960021
                             00003  6312 XX03     EQU   X'03'                                                    60970021
                             000F0  6313 XC0      EQU   C'0'                                                     60980021
                             000F1  6314 XC1      EQU   C'1'                                                     60990021
                             00000  6315 ZER0   EQU   0                                                          61000021
                             000F1  6316 ONE      EQU   C'1'                                                     61010021
                             00001  6317 ONE1     EQU   1                                                        61020021
                             00002  6318 TWO      EQU   2                                                        61030021
                             00003  6319 THREE    EQU   3                                                        61040021
                             00004  6320 FOUR     EQU   4                                                        61050021
                             00007  6321 SEVEN  EQU   7                                                          61060021
                             00008  6322 EIGHT    EQU   8                                                        61070021
                             0000C  6323 TWELVE   EQU   12                                                       61080021
                             00010  6324 SIXTEEN  EQU   16                                                       61090021
                             00014  6325 TWENTY   EQU   20                                                       61100021
                             00022  6326 THIRTY4  EQU   34                                                       61110021
                             00040  6327 BLANK    EQU   C' '                                                     61120021
                             00077  6328 TOTAL    EQU   119                                                      61130021
                             000F0  6329 MASKF0   EQU   X'F0'                                                    61140021
                             00183  6330 SWITC1   EQU   SWITCH+1                                                 61150021
                             00100  6331 MAX      EQU   256                                                      61160021
                             000FF  6332 MASKFF   EQU   255                                                      61170021
                             00A39  6333 XXADD1   EQU   XXADDR+1                                                 61180021
                             0004B  6334 PERIOD   EQU   C'.'                                                     61190021
                             000F0  6335 XF0      EQU   X'F0'                                                    61200021
                             00040  6336 X40      EQU   X'40'                                                    61210021
                             00A62  6337 XU6RC1   EQU   XU6REC+1                                                 61220021
                             00A63  6338 XU6RC2   EQU   XU6REC+2                                                 61230021
                             00A66  6339 XU6RC5   EQU   XU6REC+5                                                 61240021
                             00A67  6340 XU6RC6   EQU   XU6REC+6                                                 61250021
                             00A68  6341 XU6RC7   EQU   XU6REC+7                                                 61260021
                             00A69  6342 XU6RC8   EQU   XU6REC+8                                                 61270021
                             00A6A  6343 XU6RC9   EQU   XU6REC+9                                                 61280021
                             00A6C  6344 XU6R11   EQU   XU6REC+11                                                61290021
                             00A70  6345 XU6R15   EQU   XU6REC+15                                                61300021
1PH70     IKFCBL70                                                                                              PAGE  169
-  LOC  OBJECT CODE    ADDR1 ADDR2  STMT   SOURCE STATEMENT                                       ASM 0201 11.03 02/14/15
0                            00A78  6346 XU6R23   EQU   XU6REC+23                                                61310021
                             00A88  6347 XU6R39   EQU   XU6REC+39                                                61320021
                             00A89  6348 XU6R40   EQU   XU6REC+40                                                61330021
                             00000  6349 LX0      EQU   0                                                        61340021
                             00001  6350 LX1      EQU   1                                                        61350021
                             00004  6351 LX4      EQU   4                                                        61360021
                             00017  6352 LX23     EQU   23                                                       61370021
                             00018  6353 LX24     EQU   24                                                       61380021
                             0001B  6354 LX27     EQU   27                                                       61390021
                             00024  6355 LX36     EQU   36                                                       61400021
                             00029  6356 LX41     EQU   41                                                       61410021
                             00077  6357 LX119    EQU   119                                                      61420021
                             00100  6358 LX256    EQU   256                                                      61430021
 00000C                             6359          END   PH7                                                      61440021
1PH70                                              RELOCATION DICTIONARY                                        PAGE  170
-POS.ID   REL.ID   FLAGS   ADDRESS                                                                ASM 0201 11.03 02/14/15
0 0001     0001      0C     000018
  0001     0001      0C     000200
  0001     0001      0C     0007C8
  0001     0001      0C     000884
  0001     0001      0C     000888
  0001     0001      0C     00089C
  0001     0001      0C     00091C
  0001     0002      0C     000890
  0001     0002      0C     000894
  0001     0002      0C     000898
  0001     0002      0C     0008A0
  0001     0002      0C     0008C8
  0001     0003      0C     000908
  0001     0004      0C     00090C
  0001     0005      0C     0008D4
  0001     0006      0C     000910
  0001     0007      0C     000914
  0001     0008      0C     0008E0
  0001     0009      0C     0008EC
  0001     000A      0C     0008F8
  0001     000A      0C     000904
  0001     000A      0C     000918
  0001     000B      0C     0008B8
  0001     000B      0C     0008BC
  0001     000C      0C     0008AC
  0001     000C      0C     0008B0
  0001     000C      0C     0008B4
  0001     000D      0C     00088C
  0001     000D      0C     0008A4
  0001     000D      0C     0008A8
  0001     000D      0C     0008CC
  0001     000D      0C     0008D8
  0001     000D      0C     0008E4
  0001     000D      0C     0008F0
  0001     000D      0C     0008FC
  0001     000D      0C     00092C
  0001     000D      0C     000934
  000D     0002      08     009A10
  000D     0002      08     009A13
  000D     0002      08     009A16
  000D     0002      08     009A19
  000D     0002      08     009A1C
  000D     0002      08     009A1F
  000D     0002      08     009A22
  000D     0002      08     009A25
  000D     0002      08     009A28
  000D     0002      08     009A2B
  000D     0002      08     009A2E
  000D     0002      08     009A31
  000D     0002      08     009A34
  000D     0002      08     009A37
  000D     0002      08     009A3A
  000D     0002      08     009A3D
  000D     0002      08     009A40
  000D     0002      08     009A43
1PH70                                              RELOCATION DICTIONARY                                        PAGE  171
-POS.ID   REL.ID   FLAGS   ADDRESS                                                                ASM 0201 11.03 02/14/15
0 000D     0002      08     009A46
  000D     0002      08     009A49
  000D     0002      08     009A4C
  000D     0002      08     009A4F
  000D     0002      08     009A52
  000D     0002      08     009A55
  000D     0002      08     009A58
  000D     0002      08     009A5B
  000D     0002      08     009A5E
  000D     0002      08     009A61
  000D     0002      08     009A64
  000D     0002      08     009A67
  000D     0002      08     009A6A
  000D     0002      08     009A6D
  000D     0002      08     009A70
  000D     0002      08     009A73
  000D     0002      08     009A76
  000D     0002      08     009A79
  000D     0002      08     009A7C
  000D     0002      08     009A7F
  000D     0002      08     009A82
  000D     0002      08     009A85
  000D     0002      08     009A88
  000D     0002      08     009A8B
  000D     0002      08     009A8E
  000D     0002      08     009A91
  000D     0002      08     009A94
  000D     0002      08     009A97
  000D     0002      08     009A9A
  000D     0002      08     009A9D
  000D     0002      08     009AA0
  000D     0002      08     009AA3
  000D     0002      08     009AA6
  000D     0002      08     009AA9
  000D     0002      08     009AAC
  000D     0002      08     009AAF
  000D     0002      08     009AB2
  000D     0002      08     009AB5
  000D     0002      08     009AB8
  000D     0002      08     009ABB
  000D     0002      08     009ABE
  000D     0002      08     009AC1
  000D     0002      08     009AC4
  000D     0002      08     009AC7
  000D     0002      08     009ACA
  000D     0002      08     009ACD
  000D     0003      08     009AD0
  000D     0003      08     009AD3
  000D     0003      08     009AD6
  000D     0003      08     009AD9
  000D     0003      08     009ADC
  000D     0003      08     009ADF
  000D     0003      08     009AE2
  000D     0003      08     009AE5
  000D     0003      08     009AE8
1PH70                                              RELOCATION DICTIONARY                                        PAGE  172
-POS.ID   REL.ID   FLAGS   ADDRESS                                                                ASM 0201 11.03 02/14/15
0 000D     0003      08     009AEB
  000D     0003      08     009AEE
  000D     0003      08     009AF1
  000D     0003      08     009AF4
  000D     0003      08     009AF7
  000D     0003      08     009AFA
  000D     0003      08     009AFD
  000D     0003      08     009B00
  000D     0003      08     009B03
  000D     0003      08     009B06
  000D     0003      08     009B09
  000D     0003      08     009B0C
  000D     0003      08     009B0F
  000D     0003      08     009B12
  000D     0003      08     009B15
  000D     0003      08     009B18
  000D     0003      08     009B1B
  000D     0003      08     009B1E
  000D     0003      08     009B21
  000D     0003      08     009B24
  000D     0003      08     009B27
  000D     0003      08     009B2A
  000D     0003      08     009B2D
  000D     0003      08     009B30
  000D     0003      08     009B33
  000D     0003      08     009B36
  000D     0003      08     009B39
  000D     0003      08     009B3C
  000D     0003      08     009B3F
  000D     0003      08     009B42
  000D     0003      08     009B45
  000D     0003      08     009B48
  000D     0003      08     009B4B
  000D     0003      08     009B4E
  000D     0003      08     009B51
  000D     0003      08     009B54
  000D     0003      08     009B57
  000D     0003      08     009B5A
  000D     0003      08     009B5D
  000D     0003      08     009B60
  000D     0003      08     009B63
  000D     0003      08     009B66
  000D     0003      08     009B69
  000D     0003      08     009B6C
  000D     0003      08     009B6F
  000D     0003      08     009B72
  000D     0003      08     009B75
  000D     0003      08     009B78
  000D     0003      08     009B7B
  000D     0003      08     009B7E
  000D     0003      08     009B81
  000D     0003      08     009B84
  000D     0003      08     009B87
  000D     0003      08     009B8A
  000D     0003      08     009B8D
1PH70                                              RELOCATION DICTIONARY                                        PAGE  173
-POS.ID   REL.ID   FLAGS   ADDRESS                                                                ASM 0201 11.03 02/14/15
0 000D     0003      08     009B90
  000D     0004      08     009B93
  000D     0004      08     009B96
  000D     0004      08     009B99
  000D     0004      08     009B9C
  000D     0004      08     009B9F
  000D     0004      08     009BA2
  000D     0004      08     009BA5
  000D     0004      08     009BA8
  000D     0004      08     009BAB
  000D     0004      08     009BAE
  000D     0004      08     009BB1
  000D     0004      08     009BB4
  000D     0004      08     009BB7
  000D     0004      08     009BBA
  000D     0004      08     009BBD
  000D     0004      08     009BC0
  000D     0004      08     009BC3
  000D     0004      08     009BC6
  000D     0004      08     009BC9
  000D     0004      08     009BCC
  000D     0004      08     009BCF
  000D     0004      08     009BD2
  000D     0004      08     009BD5
  000D     0004      08     009BD8
  000D     0004      08     009BDB
  000D     0004      08     009BDE
  000D     0004      08     009BE1
  000D     0004      08     009BE4
  000D     0004      08     009BE7
  000D     0004      08     009BEA
  000D     0004      08     009BED
  000D     0004      08     009BF0
  000D     0004      08     009BF3
  000D     0004      08     009BF6
  000D     0004      08     009BF9
  000D     0004      08     009BFC
  000D     0004      08     009BFF
  000D     0004      08     009C02
  000D     0004      08     009C05
  000D     0004      08     009C08
  000D     0004      08     009C0B
  000D     0004      08     009C0E
  000D     0004      08     009C11
  000D     0004      08     009C14
  000D     0004      08     009C17
  000D     0004      08     009C1A
  000D     0004      08     009C1D
  000D     0004      08     009C20
  000D     0004      08     009C23
  000D     0004      08     009C26
  000D     0004      08     009C29
  000D     0004      08     009C2C
  000D     0004      08     009C2F
  000D     0004      08     009C32
1PH70                                              RELOCATION DICTIONARY                                        PAGE  174
-POS.ID   REL.ID   FLAGS   ADDRESS                                                                ASM 0201 11.03 02/14/15
0 000D     0004      08     009C35
  000D     0004      08     009C38
  000D     0004      08     009C3B
  000D     0004      08     009C3E
  000D     0004      08     009C41
  000D     0004      08     009C44
  000D     0004      08     009C47
  000D     0004      08     009C4A
  000D     0005      08     009C50
  000D     0005      08     009C53
  000D     0005      08     009C56
  000D     0005      08     009C59
  000D     0005      08     009C5C
  000D     0005      08     009C5F
  000D     0005      08     009C62
  000D     0005      08     009C65
  000D     0005      08     009C68
  000D     0005      08     009C6B
  000D     0005      08     009C6E
  000D     0005      08     009C71
  000D     0005      08     009C74
  000D     0005      08     009C77
  000D     0005      08     009C7A
  000D     0005      08     009C7D
  000D     0005      08     009C80
  000D     0005      08     009C83
  000D     0005      08     009C86
  000D     0005      08     009C89
  000D     0005      08     009C8C
  000D     0005      08     009C8F
  000D     0005      08     009C92
  000D     0005      08     009C95
  000D     0005      08     009C98
  000D     0005      08     009C9B
  000D     0005      08     009C9E
  000D     0005      08     009CA1
  000D     0005      08     009CA4
  000D     0005      08     009CA7
  000D     0005      08     009CAA
  000D     0005      08     009CAD
  000D     0005      08     009CB0
  000D     0005      08     009CB3
  000D     0005      08     009CB6
  000D     0005      08     009CB9
  000D     0005      08     009CBC
  000D     0005      08     009CBF
  000D     0005      08     009CC2
  000D     0005      08     009CC5
  000D     0005      08     009CC8
  000D     0005      08     009CCB
  000D     0005      08     009CCE
  000D     0005      08     009CD1
  000D     0005      08     009CD4
  000D     0005      08     009CD7
  000D     0005      08     009CDA
1PH70                                              RELOCATION DICTIONARY                                        PAGE  175
-POS.ID   REL.ID   FLAGS   ADDRESS                                                                ASM 0201 11.03 02/14/15
0 000D     0005      08     009CDD
  000D     0005      08     009CE0
  000D     0005      08     009CE3
  000D     0005      08     009CE6
  000D     0005      08     009CE9
  000D     0005      08     009CEC
  000D     0005      08     009CEF
  000D     0005      08     009CF2
  000D     0005      08     009CF5
  000D     0005      08     009CF8
  000D     0005      08     009CFB
  000D     0005      08     009CFE
  000D     0005      08     009D01
  000D     0005      08     009D04
  000D     0005      08     009D07
  000D     0005      08     009D0A
  000D     0005      08     009D0D
  000D     0006      08     009D10
  000D     0006      08     009D13
  000D     0006      08     009D16
  000D     0006      08     009D19
  000D     0006      08     009D1C
  000D     0006      08     009D1F
  000D     0006      08     009D22
  000D     0006      08     009D25
  000D     0006      08     009D28
  000D     0006      08     009D2B
  000D     0006      08     009D2E
  000D     0006      08     009D31
  000D     0006      08     009D34
  000D     0006      08     009D37
  000D     0006      08     009D3A
  000D     0006      08     009D3D
  000D     0006      08     009D40
  000D     0006      08     009D43
  000D     0006      08     009D46
  000D     0006      08     009D49
  000D     0006      08     009D4C
  000D     0006      08     009D4F
  000D     0006      08     009D52
  000D     0006      08     009D55
  000D     0006      08     009D58
  000D     0006      08     009D5B
  000D     0006      08     009D5E
  000D     0006      08     009D61
  000D     0006      08     009D64
  000D     0006      08     009D67
  000D     0006      08     009D6A
  000D     0006      08     009D6D
  000D     0006      08     009D70
  000D     0006      08     009D73
  000D     0006      08     009D76
  000D     0006      08     009D79
  000D     0006      08     009D7C
  000D     0006      08     009D7F
1PH70                                              RELOCATION DICTIONARY                                        PAGE  176
-POS.ID   REL.ID   FLAGS   ADDRESS                                                                ASM 0201 11.03 02/14/15
0 000D     0006      08     009D82
  000D     0006      08     009D85
  000D     0006      08     009D88
  000D     0006      08     009D8B
  000D     0006      08     009D8E
  000D     0006      08     009D91
  000D     0006      08     009D94
  000D     0006      08     009D97
  000D     0006      08     009D9A
  000D     0006      08     009D9D
  000D     0006      08     009DA0
  000D     0006      08     009DA3
  000D     0006      08     009DA6
  000D     0006      08     009DA9
  000D     0006      08     009DAC
  000D     0006      08     009DAF
  000D     0006      08     009DB2
  000D     0006      08     009DB5
  000D     0006      08     009DB8
  000D     0006      08     009DBB
  000D     0006      08     009DBE
  000D     0006      08     009DC1
  000D     0006      08     009DC4
  000D     0006      08     009DC7
  000D     0006      08     009DCA
  000D     0006      08     009DCD
  000D     0006      08     009DD0
  000D     0007      08     009DD3
  000D     0007      08     009DD6
  000D     0007      08     009DD9
  000D     0007      08     009DDC
  000D     0007      08     009DDF
  000D     0007      08     009DE2
  000D     0007      08     009DE5
  000D     0007      08     009DE8
  000D     0007      08     009DEB
  000D     0007      08     009DEE
  000D     0007      08     009DF1
  000D     0007      08     009DF4
  000D     0007      08     009DF7
  000D     0007      08     009DFA
  000D     0007      08     009DFD
  000D     0007      08     009E00
  000D     0007      08     009E03
  000D     0007      08     009E06
  000D     0007      08     009E09
  000D     0007      08     009E0C
  000D     0007      08     009E0F
  000D     0007      08     009E12
  000D     0007      08     009E15
  000D     0007      08     009E18
  000D     0007      08     009E1B
  000D     0007      08     009E1E
  000D     0007      08     009E21
  000D     0007      08     009E24
1PH70                                              RELOCATION DICTIONARY                                        PAGE  177
-POS.ID   REL.ID   FLAGS   ADDRESS                                                                ASM 0201 11.03 02/14/15
0 000D     0007      08     009E27
  000D     0007      08     009E2A
  000D     0007      08     009E2D
  000D     0007      08     009E30
  000D     0007      08     009E33
  000D     0007      08     009E36
  000D     0007      08     009E39
  000D     0007      08     009E3C
  000D     0007      08     009E3F
  000D     0007      08     009E42
  000D     0007      08     009E45
  000D     0007      08     009E48
  000D     0007      08     009E4B
  000D     0007      08     009E4E
  000D     0007      08     009E51
  000D     0007      08     009E54
  000D     0007      08     009E57
  000D     0007      08     009E5A
  000D     0007      08     009E5D
  000D     0007      08     009E60
  000D     0007      08     009E63
  000D     0007      08     009E66
  000D     0007      08     009E69
  000D     0007      08     009E6C
  000D     0007      08     009E6F
  000D     0007      08     009E72
  000D     0007      08     009E75
  000D     0007      08     009E78
  000D     0007      08     009E7B
  000D     0007      08     009E7E
  000D     0007      08     009E81
  000D     0007      08     009E84
  000D     0007      08     009E87
  000D     0007      08     009E8A
  000D     0007      08     009E8D
  000D     0007      08     009E90
  000D     0007      08     009E93
  000D     0007      08     009E96
  000D     0007      08     009E99
  000D     0007      08     009E9C
  000D     0007      08     009E9F
  000D     0007      08     009EA2
  000D     0007      08     009EA5
  000D     0007      08     009EA8
  000D     0007      08     009EAB
  000D     0007      08     009EAE
  000D     0007      08     009EB1
  000D     0007      08     009EB4
  000D     0007      08     009EB7
  000D     0007      08     009EBA
  000D     0007      08     009EBD
  000D     0007      08     009EC0
  000D     0007      08     009EC3
  000D     0007      08     009EC6
  000D     0007      08     009EC9
1PH70                                              RELOCATION DICTIONARY                                        PAGE  178
-POS.ID   REL.ID   FLAGS   ADDRESS                                                                ASM 0201 11.03 02/14/15
0 000D     0007      08     009ECC
  000D     0007      08     009ECF
  000D     0007      08     009ED2
  000D     0007      08     009ED5
  000D     0007      08     009ED8
  000D     0007      08     009EDB
  000D     0007      08     009EDE
  000D     0007      08     009EE1
  000D     0007      08     009EE4
  000D     0007      08     009EE7
  000D     0007      08     009EEA
  000D     0007      08     009EED
  000D     0007      08     009EF0
  000D     0007      08     009EF3
  000D     0007      08     009EF6
  000D     0007      08     009EF9
  000D     0007      08     009EFC
  000D     0007      08     009EFF
  000D     0007      08     009F02
  000D     0008      08     009F08
  000D     0008      08     009F0B
  000D     0008      08     009F0E
  000D     0008      08     009F11
  000D     0008      08     009F14
  000D     0008      08     009F17
  000D     0008      08     009F1A
  000D     0008      08     009F1D
  000D     0008      08     009F20
  000D     0008      08     009F23
  000D     0008      08     009F26
  000D     0008      08     009F29
  000D     0008      08     009F2C
  000D     0008      08     009F2F
  000D     0008      08     009F32
  000D     0008      08     009F35
  000D     0008      08     009F38
  000D     0008      08     009F3B
  000D     0008      08     009F3E
  000D     0008      08     009F41
  000D     0008      08     009F44
  000D     0008      08     009F47
  000D     0008      08     009F4A
  000D     0008      08     009F4D
  000D     0008      08     009F50
  000D     0008      08     009F53
  000D     0008      08     009F56
  000D     0008      08     009F59
  000D     0008      08     009F5C
  000D     0008      08     009F5F
  000D     0008      08     009F62
  000D     0009      08     009F68
  000D     0009      08     009F6B
  000D     0009      08     009F6E
  000D     0009      08     009F71
  000D     0009      08     009F74
1PH70                                              RELOCATION DICTIONARY                                        PAGE  179
-POS.ID   REL.ID   FLAGS   ADDRESS                                                                ASM 0201 11.03 02/14/15
0 000D     0009      08     009F77
  000D     0009      08     009F7A
  000D     0009      08     009F7D
  000D     0009      08     009F80
  000D     0009      08     009F83
  000D     0009      08     009F86
  000D     0009      08     009F89
  000D     0009      08     009F8C
  000D     0009      08     009F8F
  000D     0009      08     009F92
  000D     0009      08     009F95
  000D     0009      08     009F98
  000D     0009      08     009F9B
  000D     0009      08     009F9E
  000D     0009      08     009FA1
  000D     0009      08     009FA4
  000D     0009      08     009FA7
  000D     0009      08     009FAA
  000D     0009      08     009FAD
  000D     0009      08     009FB0
  000D     0009      08     009FB3
  000D     0009      08     009FB6
  000D     0009      08     009FB9
  000D     0009      08     009FBC
  000D     0009      08     009FBF
  000D     0009      08     009FC2
  000D     0009      08     009FC5
  000D     0009      08     009FC8
  000D     0009      08     009FCB
  000D     0009      08     009FCE
  000D     0009      08     009FD1
  000D     0009      08     009FD4
  000D     0009      08     009FD7
  000D     0009      08     009FDA
  000D     0009      08     009FDD
  000D     0009      08     009FE0
  000D     0009      08     009FE3
  000D     0009      08     009FE6
  000D     0009      08     009FE9
  000D     0009      08     009FEC
  000D     0009      08     009FEF
  000D     0009      08     009FF2
  000D     0009      08     009FF5
  000D     0009      08     009FF8
  000D     0009      08     009FFB
  000D     0009      08     009FFE
  000D     0009      08     00A001
  000D     0009      08     00A004
  000D     0009      08     00A007
  000D     0009      08     00A00A
  000D     0009      08     00A00D
  000D     0009      08     00A010
  000D     0009      08     00A013
  000D     0009      08     00A016
  000D     0009      08     00A019
1PH70                                              RELOCATION DICTIONARY                                        PAGE  180
-POS.ID   REL.ID   FLAGS   ADDRESS                                                                ASM 0201 11.03 02/14/15
0 000D     0009      08     00A01C
  000D     0009      08     00A01F
  000D     0009      08     00A022
  000D     0009      08     00A025
  000D     000A      08     00A028
  000D     000A      08     00A02B
  000D     000A      08     00A02E
  000D     000A      08     00A031
  000D     000A      08     00A034
  000D     000A      08     00A037
  000D     000A      08     00A03A
  000D     000A      08     00A03D
  000D     000A      08     00A040
  000D     000A      08     00A043
  000D     000A      08     00A046
  000D     000A      08     00A049
  000D     000A      08     00A04C
  000D     000A      08     00A04F
  000D     000A      08     00A052
  000D     000A      08     00A055
  000D     000A      08     00A058
  000D     000A      08     00A05B
  000D     000A      08     00A05E
  000D     000A      08     00A061
  000D     000A      08     00A064
  000D     000A      08     00A067
  000D     000A      08     00A06A
  000D     000A      08     00A06D
  000D     000A      08     00A070
  000D     000A      08     00A073
  000D     000A      08     00A076
  000D     000A      08     00A079
  000D     000A      08     00A07C
  000D     000A      08     00A07F
  000D     000A      08     00A082
  000D     000A      08     00A085
  000D     000A      08     00A088
  000D     000A      08     00A08B
  000D     000A      08     00A08E
  000D     000A      08     00A091
  000D     000A      08     00A094
  000D     000A      08     00A097
  000D     000A      08     00A09A
  000D     000A      08     00A09D
  000D     000A      08     00A0A0
  000D     000A      08     00A0A3
  000D     000A      08     00A0A6
  000D     000A      08     00A0A9
  000D     000A      08     00A0AC
  000D     000A      08     00A0AF
  000D     000A      08     00A0B2
  000D     000A      08     00A0B5
  000D     000A      08     00A0B8
  000D     000A      08     00A0BB
  000D     000A      08     00A0BE
1PH70                                              RELOCATION DICTIONARY                                        PAGE  181
-POS.ID   REL.ID   FLAGS   ADDRESS                                                                ASM 0201 11.03 02/14/15
0 000D     000A      08     00A0C1
  000D     000A      08     00A0C4
  000D     000A      08     00A0C7
  000D     000A      08     00A0CA
  000D     000A      08     00A0CD
  000D     000A      08     00A0D0
  000D     000A      08     00A0D3
  000D     000A      08     00A0D6
  000D     000A      08     00A0D9
  000D     000A      08     00A0DC
  000D     000A      08     00A0DF
  000D     000A      08     00A0E2
  000D     000A      08     00A0E5
  000D     000A      08     00A0E8
  000D     000A      08     00A0EB
  000D     000A      08     00A0EE
  000D     000A      08     00A0F1
  000D     000A      08     00A0F4
  000D     000A      08     00A0F7
  000D     000A      08     00A0FA
  000D     000A      08     00A0FD
  000D     000A      08     00A100
  000D     000A      08     00A103
  000D     000A      08     00A106
  000D     000A      08     00A109
  000D     000A      08     00A10C
  000D     000A      08     00A10F
  000D     000A      08     00A112
  000D     000A      08     00A115
  000D     000A      08     00A118
  000D     000A      08     00A11B
  000D     000A      08     00A11E
  000D     000A      08     00A121
  000D     000A      08     00A124
  000D     000A      08     00A127
  000D     000A      08     00A12A
  000D     000A      08     00A130
  000D     000A      08     00A133
  000D     000A      08     00A136
  000D     000A      08     00A139
  000D     000A      08     00A13C
  000D     000A      08     00A13F
  000D     000A      08     00A142
  000D     000A      08     00A145
  000D     000A      08     00A148
  000D     000A      08     00A14B
  000D     000A      08     00A14E
  000D     000A      08     00A151
  000D     000A      08     00A154
  000D     000A      08     00A157
  000D     000A      08     00A15A
  000D     000A      08     00A15D
  000D     000A      08     00A160
  000D     000A      08     00A163
  000D     000A      08     00A166
1PH70                                              RELOCATION DICTIONARY                                        PAGE  182
-POS.ID   REL.ID   FLAGS   ADDRESS                                                                ASM 0201 11.03 02/14/15
0 000D     000B      08     00A16C
  000D     000B      08     00A16F
  000D     000B      08     00A172
  000D     000B      08     00A175
  000D     000B      08     00A178
  000D     000B      08     00A17B
  000D     000B      08     00A17E
  000D     000B      08     00A181
  000D     000B      08     00A184
  000D     000B      08     00A187
  000D     000B      08     00A18A
  000D     000B      08     00A18D
  000D     000B      08     00A190
  000D     000B      08     00A193
  000D     000B      08     00A196
  000D     000B      08     00A199
  000D     000B      08     00A19C
  000D     000B      08     00A19F
  000D     000B      08     00A1A2
  000D     000B      08     00A1A5
  000D     000B      08     00A1A8
  000D     000B      08     00A1AB
  000D     000B      08     00A1AE
  000D     000B      08     00A1B1
  000D     000B      08     00A1B4
  000D     000B      08     00A1B7
  000D     000B      08     00A1BA
  000D     000B      08     00A1BD
  000D     000B      08     00A1C0
  000D     000B      08     00A1C3
  000D     000B      08     00A1C6
  000D     000B      08     00A1C9
  000D     000B      08     00A1CC
  000D     000B      08     00A1CF
  000D     000B      08     00A1D2
  000D     000B      08     00A1D5
  000D     000B      08     00A1D8
  000D     000B      08     00A1DB
  000D     000B      08     00A1DE
  000D     000B      08     00A1E1
  000D     000B      08     00A1E4
  000D     000B      08     00A1E7
  000D     000B      08     00A1EA
  000D     000B      08     00A1ED
  000D     000B      08     00A1F0
  000D     000B      08     00A1F3
  000D     000B      08     00A1F6
  000D     000B      08     00A1F9
  000D     000B      08     00A1FC
  000D     000C      08     00A200
  000D     000C      08     00A203
  000D     000C      08     00A206
  000D     000C      08     00A209
  000D     000C      08     00A20C
  000D     000C      08     00A20F
1PH70                                              RELOCATION DICTIONARY                                        PAGE  183
-POS.ID   REL.ID   FLAGS   ADDRESS                                                                ASM 0201 11.03 02/14/15
0 000D     000C      08     00A212
  000D     000C      08     00A215
  000D     000C      08     00A218
  000D     000C      08     00A21B
  000D     000C      08     00A21E
  000D     000C      08     00A221
  000D     000C      08     00A224
  000D     000C      08     00A227
  000D     000C      08     00A22A
  000D     000C      08     00A22D
  000D     000C      08     00A230
  000D     000C      08     00A233
  000D     000C      08     00A236
  000D     000C      08     00A239
  000D     000C      08     00A23C
  000D     000C      08     00A23F
  000D     000C      08     00A242
  000D     000C      08     00A245
  000D     000C      08     00A248
  000D     000C      08     00A24B
  000D     000C      08     00A24E
  000D     000C      08     00A251
  000D     000C      08     00A254
  000D     000C      08     00A257
  000D     000C      08     00A25A
  000D     000C      08     00A25D
  000D     000C      08     00A260
  000D     000C      08     00A263
  000D     000C      08     00A266
  000D     000C      08     00A269
  000D     000C      08     00A26C
  000D     000C      08     00A26F
  000D     000C      08     00A272
  000D     000C      08     00A275
  000D     000C      08     00A278
  000D     000C      08     00A27B
  000D     000C      08     00A27E
  000D     000C      08     00A281
  000D     000C      08     00A284
  000D     000C      08     00A287
  000D     000C      08     00A28A
  000D     000C      08     00A28D
  000D     000C      08     00A290
  000D     000C      08     00A293
  000D     000C      08     00A296
  000D     000C      08     00A299
  000D     000C      08     00A29C
  000D     000C      08     00A29F
  000D     000C      08     00A2A2
  000D     000C      08     00A2A5
  000D     000C      08     00A2A8
  000D     000C      08     00A2AB
  000D     000C      08     00A2AE
  000D     000C      08     00A2B1
  000D     000C      08     00A2B4
1PH70                                              RELOCATION DICTIONARY                                        PAGE  184
-POS.ID   REL.ID   FLAGS   ADDRESS                                                                ASM 0201 11.03 02/14/15
0 000D     000C      08     00A2B7
  000D     000C      08     00A2BA
  000D     000C      08     00A2BD
  000D     000C      08     00A2C0
  000D     000C      08     00A2C3
  000D     000C      08     00A2C6
  000D     000C      08     00A2C9
  000D     000C      08     00A2CC
  000D     000C      08     00A2CF
  000D     000C      08     00A2D2
  000D     000C      08     00A2D5
  000D     000C      08     00A2D8
  000D     000C      08     00A2DB
  000D     000C      08     00A2DE
  000D     000C      08     00A2E1
  000D     000C      08     00A2E4
  000D     000C      08     00A2E7
  000D     000C      08     00A2EA
  000D     000C      08     00A2ED
  000D     000C      08     00A2F0
  000D     000C      08     00A2F3
  000D     000C      08     00A2F6
  000D     000C      08     00A2F9
  000D     000C      08     00A2FC
  000D     000C      08     00A2FF
  000D     000C      08     00A302
  000D     000C      08     00A305
  000D     000C      08     00A308
  000D     000C      08     00A30B
  000D     000C      08     00A30E
  000D     000C      08     00A311
  000D     000C      08     00A314
  000D     000C      08     00A317
  000D     000C      08     00A31A
  000D     000C      08     00A31D
  000D     000C      08     00A320
  000D     000C      08     00A323
  000D     000C      08     00A326
  000D     000C      08     00A329
  000D     000C      08     00A32C
  000D     000C      08     00A32F
  000D     000C      08     00A332
  000D     000C      08     00A335
  000D     000C      08     00A338
  000D     000C      08     00A33B
  000D     000C      08     00A33E
  000D     000C      08     00A341
  000D     000C      08     00A344
  000D     000C      08     00A347
  000D     000C      08     00A34A
  000D     000C      08     00A34D
  000D     000C      08     00A350
  000D     000C      08     00A353
  000D     000C      08     00A356
  000D     000C      08     00A359
1PH70                                              RELOCATION DICTIONARY                                        PAGE  185
-POS.ID   REL.ID   FLAGS   ADDRESS                                                                ASM 0201 11.03 02/14/15
0 000D     000C      08     00A35C
  000D     000C      08     00A35F
  000D     000C      08     00A362
  000D     000C      08     00A365
  000D     000C      08     00A368
  000D     000C      08     00A36B
  000D     000C      08     00A36E
  000D     000C      08     00A371
  000D     000C      08     00A374
  000D     000C      08     00A377
  000D     000C      08     00A37A
  000D     000C      08     00A37D
  000D     000C      08     00A380
  000D     000C      08     00A383
  000D     000C      08     00A386
  000D     000C      08     00A389
  000D     000C      08     00A38C
  000D     000C      08     00A38F
  000D     000C      08     00A392
  000D     000C      08     00A395
  000D     000C      08     00A398
  000D     000C      08     00A39B
  000D     000C      08     00A39E
  000D     000C      08     00A3A1
  000D     000C      08     00A3A4
  000D     000C      08     00A3A7
  000D     000C      08     00A3AA
  000D     000C      08     00A3AD
  000D     000C      08     00A3B0
  000D     000C      08     00A3B3
  000D     000C      08     00A3B6
  000D     000C      08     00A3B9
  000D     000C      08     00A3BC
  000D     000C      08     00A3BF
  000D     000C      08     00A3C2
  000D     000C      08     00A3C5
  000D     000C      08     00A3C8
  000D     000C      08     00A3CB
  000D     000C      08     00A3CE
  000D     000C      08     00A3D1
  000D     000C      08     00A3D4
  000D     000C      08     00A3D7
  000D     000C      08     00A3DA
  000D     000C      08     00A3DD
  000D     000C      08     00A3E0
  000D     000C      08     00A3E3
  000D     000C      08     00A3E6
  000D     000C      08     00A3E9
  000D     000C      08     00A3EC
  000D     000C      08     00A3EF
  000D     000C      08     00A3F2
  000D     000C      08     00A3F5
  000D     000C      08     00A3F8
  000D     000C      08     00A3FB
  000D     000C      08     00A3FE
1PH70                                              RELOCATION DICTIONARY                                        PAGE  186
-POS.ID   REL.ID   FLAGS   ADDRESS                                                                ASM 0201 11.03 02/14/15
0 000D     000C      08     00A401
  000D     000C      08     00A404
  000D     000C      08     00A407
  000D     000C      08     00A40A
  000D     000C      08     00A40D
  000D     000C      08     00A410
  000D     000C      08     00A413
  000D     000C      08     00A416
  000D     000C      08     00A419
  000D     000C      08     00A41C
  000D     000C      08     00A41F
  000D     000C      08     00A422
  000D     000C      08     00A425
  000D     000C      08     00A428
  000D     000C      08     00A42B
  000D     000C      08     00A42E
  000D     000C      08     00A431
  000D     000C      08     00A434
  000D     000C      08     00A437
  000D     000C      08     00A43A
  000D     000C      08     00A43D
  000D     000C      08     00A440
  000D     000C      08     00A443
  000D     000C      08     00A446
  000D     000C      08     00A449
  000D     000C      08     00A44C
  000D     000C      08     00A44F
  000D     000C      08     00A452
  000D     000C      08     00A455
  000D     000C      08     00A458
  000D     000C      08     00A45B
  000D     000C      08     00A45E
  000D     000C      08     00A461
  000D     000C      08     00A464
  000D     000C      08     00A467
  000D     000C      08     00A46A
  000D     000C      08     00A46D
  000D     000C      08     00A470
  000D     000C      08     00A473
  000D     000C      08     00A476
  000D     000C      08     00A479
  000D     000C      08     00A47C
  000D     000C      08     00A47F
  000D     000C      08     00A482
  000D     000C      08     00A485
  000D     000C      08     00A488
  000D     000C      08     00A48B
  000D     000C      08     00A48E
  000D     000C      08     00A491
  000D     000C      08     00A494
  000D     000C      08     00A497
  000D     000C      08     00A49A
  000D     000C      08     00A49D
  000D     000C      08     00A4A0
  000D     000C      08     00A4A3
1PH70                                              RELOCATION DICTIONARY                                        PAGE  187
-POS.ID   REL.ID   FLAGS   ADDRESS                                                                ASM 0201 11.03 02/14/15
0 000D     000C      08     00A4A6
  000D     000C      08     00A4A9
  000D     000C      08     00A4AC
  000D     000C      08     00A4AF
  000D     000C      08     00A4B2
  000D     000C      08     00A4B5
  000D     000C      08     00A4B8
  000D     000C      08     00A4BB
  000D     000C      08     00A4BE
  000D     000C      08     00A4C1
  000D     000C      08     00A4C4
  000D     000C      08     00A4C7
  000D     000C      08     00A4CA
  000D     000C      08     00A4CD
  000D     000C      08     00A4D0
  000D     000C      08     00A4D3
  000D     000C      08     00A4D6
  000D     000C      08     00A4D9
  000D     000C      08     00A4DC
  000D     000C      08     00A4DF
  000D     000C      08     00A4E2
  000D     000C      08     00A4E5
  000D     000C      08     00A4E8
  000D     000C      08     00A4EB
  000D     000C      08     00A4EE
  000D     000C      08     00A4F1
  000D     000C      08     00A4F4
  000D     000C      08     00A4F7
  000D     000C      08     00A4FA
  000D     000C      08     00A4FD
  000D     000C      08     00A500
  000D     000C      08     00A503
  000D     000C      08     00A506
  000D     000C      08     00A509
  000D     000C      08     00A50C
  000D     000C      08     00A50F
  000D     000C      08     00A512
  000D     000C      08     00A515
  000D     000C      08     00A518
  000D     000C      08     00A51B
  000D     000C      08     00A51E
  000D     000C      08     00A521
  000D     000C      08     00A524
  000D     000C      08     00A527
  000D     000C      08     00A52A
  000D     000C      08     00A52D
  000D     000C      08     00A530
  000D     000C      08     00A533
  000D     000C      08     00A536
  000D     000C      08     00A539
  000D     000C      08     00A53C
  000D     000C      08     00A53F
  000D     000C      08     00A542
  000D     000C      08     00A545
  000D     000C      08     00A548
1PH70                                              RELOCATION DICTIONARY                                        PAGE  188
-POS.ID   REL.ID   FLAGS   ADDRESS                                                                ASM 0201 11.03 02/14/15
0 000D     000C      08     00A54B
  000D     000C      08     00A54E
  000D     000C      08     00A551
  000D     000C      08     00A554
  000D     000C      08     00A557
  000D     000C      08     00A55A
  000D     000C      08     00A55D
  000D     000C      08     00A560
  000D     000C      08     00A563
  000D     000C      08     00A566
  000D     000C      08     00A569
  000D     000C      08     00A56C
  000D     000C      08     00A56F
  000D     000C      08     00A572
  000D     000C      08     00A575
  000D     000C      08     00A578
  000D     000C      08     00A57B
  000D     000C      08     00A57E
  000D     000C      08     00A581
  000D     000C      08     00A584
  000D     000C      08     00A587
  000D     000C      08     00A58A
  000D     000C      08     00A58D
  000D     000C      08     00A590
  000D     000C      08     00A593
  000D     000C      08     00A596
  000D     000C      08     00A599
  000D     000C      08     00A59C
  000D     000C      08     00A59F
  000D     000C      08     00A5A2
  000D     000C      08     00A5A5
  000D     000C      08     00A5A8
  000D     000C      08     00A5AB
  000D     000C      08     00A5AE
  000D     000C      08     00A5B1
  000D     000C      08     00A5B4
  000D     000C      08     00A5B7
  000D     000C      08     00A5BA
  000D     000C      08     00A5BD
  000D     000C      08     00A5C0
  000D     000C      08     00A5C3
  000D     000C      08     00A5C6
  000D     000C      08     00A5C9
  000D     000C      08     00A5CC
  000D     000C      08     00A5CF
  000D     000C      08     00A5D2
  000D     000C      08     00A5D5
  000D     000C      08     00A5D8
  000D     000C      08     00A5DB
  000D     000C      08     00A5DE
  000D     000C      08     00A5E1
  000D     000C      08     00A5E4
  000D     000C      08     00A5E7
  000D     000C      08     00A5EA
  000D     000C      08     00A5ED
1PH70                                              RELOCATION DICTIONARY                                        PAGE  189
-POS.ID   REL.ID   FLAGS   ADDRESS                                                                ASM 0201 11.03 02/14/15
0 000D     000C      08     00A5F0
  000D     000C      08     00A5F3
  000D     000C      08     00A5F6
  000D     000C      08     00A5F9
  000D     000C      08     00A5FC
  000D     000C      08     00A5FF
  000D     000C      08     00A602
  000D     000C      08     00A605
  000D     000C      08     00A608
  000D     000C      08     00A60B
  000D     000C      08     00A60E
  000D     000C      08     00A611
  000D     000C      08     00A614
  000D     000C      08     00A617
  000D     000C      08     00A61A
  000D     000C      08     00A61D
  000D     000C      08     00A620
  000D     000C      08     00A623
  000D     000C      08     00A626
  000D     000C      08     00A629
  000D     000C      08     00A62C
  000D     000C      08     00A62F
  000D     000C      08     00A632
  000D     000C      08     00A635
  000D     000C      08     00A638
  000D     000C      08     00A63B
  000D     000C      08     00A63E
  000D     000C      08     00A641
  000D     000C      08     00A644
  000D     000C      08     00A647
  000D     000C      08     00A64A
  000D     000C      08     00A64D
  000D     000C      08     00A650
  000D     000C      08     00A653
  000D     000C      08     00A656
  000D     000C      08     00A659
  000D     000C      08     00A65C
  000D     000C      08     00A65F
  000D     000C      08     00A662
  000D     000C      08     00A665
  000D     000C      08     00A668
  000D     000C      08     00A66B
  000D     000C      08     00A66E
  000D     000C      08     00A671
  000D     000C      08     00A674
  000D     000C      08     00A677
  000D     000C      08     00A67A
  000D     000C      08     00A67D
  000D     000C      08     00A680
  000D     000C      08     00A683
  000D     000C      08     00A686
  000D     000C      08     00A689
  000D     000C      08     00A68C
  000D     000C      08     00A68F
  000D     000C      08     00A692
1PH70                                              RELOCATION DICTIONARY                                        PAGE  190
-POS.ID   REL.ID   FLAGS   ADDRESS                                                                ASM 0201 11.03 02/14/15
0 000D     000C      08     00A695
  000D     000C      08     00A698
  000D     000C      08     00A69B
  000D     000C      08     00A69E
  000D     000C      08     00A6A1
  000D     000C      08     00A6A4
  000D     000C      08     00A6A7
  000D     000C      08     00A6AA
  000D     000C      08     00A6AD
  000D     000C      08     00A6B0
  000D     000C      08     00A6B3
  000D     000C      08     00A6B6
  000D     000C      08     00A6B9
  000D     000C      08     00A6BC
  000D     000C      08     00A6BF
  000D     000C      08     00A6C2
  000D     000C      08     00A6C5
  000D     000C      08     00A6C8
  000D     000C      08     00A6CB
  000D     000C      08     00A6CE
  000D     000C      08     00A6D1
  000D     000C      08     00A6D4
  000D     000C      08     00A6D7
  000D     000C      08     00A6DA
  000D     000C      08     00A6DD
  000D     000C      08     00A6E0
  000D     000C      08     00A6E3
  000D     000C      08     00A6E6
  000D     000C      08     00A6E9
  000D     000C      08     00A6EC
  000D     000C      08     00A6EF
  000D     000C      08     00A6F2
  000D     000C      08     00A6F5
  000D     000C      08     00A6F8
  000D     000C      08     00A6FB
  000D     000C      08     00A6FE
  000D     000C      08     00A701
  000D     000C      08     00A704
  000D     000C      08     00A707
  000D     000C      08     00A70A
  000D     000C      08     00A70D
  000D     000C      08     00A710
  000D     000C      08     00A713
  000D     000C      08     00A716
  000D     000C      08     00A719
  000D     000C      08     00A71C
  000D     000C      08     00A71F
  000D     000C      08     00A722
  000D     000C      08     00A725
  000D     000C      08     00A728
  000D     000C      08     00A72B
  000D     000C      08     00A72E
  000D     000C      08     00A731
  000D     000C      08     00A734
  000D     000C      08     00A737
1PH70                                              RELOCATION DICTIONARY                                        PAGE  191
-POS.ID   REL.ID   FLAGS   ADDRESS                                                                ASM 0201 11.03 02/14/15
0 000D     000C      08     00A73A
  000D     000C      08     00A73D
  000D     000C      08     00A740
  000D     000C      08     00A743
  000D     000C      08     00A746
  000D     000C      08     00A749
  000D     000C      08     00A74C
  000D     000C      08     00A74F
  000D     000C      08     00A752
  000D     000C      08     00A755
  000D     000C      08     00A758
  000D     000C      08     00A75B
  000D     000C      08     00A75E
  000D     000C      08     00A761
  000D     000C      08     00A764
  000D     000C      08     00A767
  000D     000C      08     00A76A
  000D     000C      08     00A76D
  000D     000C      08     00A770
  000D     000C      08     00A773
  000D     000C      08     00A776
  000D     000C      08     00A779
  000D     000C      08     00A77C
  000D     000C      08     00A77F
  000D     000C      08     00A782
  000D     000C      08     00A785
  000D     000C      08     00A788
  000D     000C      08     00A78B
  000D     000C      08     00A78E
  000D     000C      08     00A791
  000D     000C      08     00A794
  000D     000C      08     00A797
  000D     000C      08     00A79A
  000D     000C      08     00A79D
  000D     000C      08     00A7A0
  000D     000C      08     00A7A3
  000D     000C      08     00A7A6
  000D     000C      08     00A7A9
  000D     000C      08     00A7AC
  000D     000C      08     00A7AF
  000D     000C      08     00A7B2
  000D     000C      08     00A7B5
  000D     000C      08     00A7B8
  000D     000C      08     00A7BB
  000D     000C      08     00A7BE
  000D     000C      08     00A7C1
  000D     000C      08     00A7C4
  000D     000C      08     00A7C7
  000D     000C      08     00A7CA
  000D     000C      08     00A7CD
  000D     000C      08     00A7D0
  000D     000C      08     00A7D3
  000D     000C      08     00A7D6
  000D     000C      08     00A7D9
  000D     000C      08     00A7DC
1PH70                                              RELOCATION DICTIONARY                                        PAGE  192
-POS.ID   REL.ID   FLAGS   ADDRESS                                                                ASM 0201 11.03 02/14/15
0 000D     000C      08     00A7DF
  000D     000C      08     00A7E2
  000D     000C      08     00A7E5
  000D     000C      08     00A7E8
  000D     000C      08     00A7EB
  000D     000C      08     00A7EE
  000D     000C      08     00A7F1
  000D     000C      08     00A7F4
  000D     000C      08     00A7F7
  000D     000C      08     00A7FA
  000D     000C      08     00A7FD

1PH70                                              ASSEMBLER DIAGNOSTICS AND STATISTICS                         PAGE  193
-                                                                                                 ASM 0201 11.03 02/14/15
0NO STATEMENTS FLAGGED IN THIS ASSEMBLY
 HIGHEST SEVERITY WAS    0
 OPTIONS FOR THIS ASSEMBLY
   ALIGN, ALOGIC, BUFSIZE(STD), DECK, ESD, FLAG(0), LINECOUNT(55), LIST, NOMCALL, YFLAG, WORKSIZE(2097152)
   NOMLOGIC, NONUMBER, NOOBJECT, NORENT, RLD, NOSTMT, NOLIBMAC, NOTERMINAL, NOTEST, NOXREF(SHORT)
   SYSPARM()
 WORK FILE BUFFER SIZE/NUMBER = 2558/ 1
 TOTAL RECORDS READ FROM SYSTEM INPUT       6144
 TOTAL RECORDS READ FROM SYSTEM LIBRARY      218
 TOTAL RECORDS PUNCHED                       876
 TOTAL RECORDS PRINTED                     10257
