1DTE0                                           EXTERNAL SYMBOL DICTIONARY                                      PAGE    1
-SYMBOL   TYPE  ID   ADDR  LENGTH LDID                                                            ASM 0201 11.03 02/14/15
0ILBODTE0  SD  0001 000000 00012A
 ILBODTE1  LD       00000A        0001
1DTE0                                                                                                           PAGE    2
-  LOC  OBJECT CODE    ADDR1 ADDR2  STMT   SOURCE STATEMENT                                       ASM 0201 11.03 02/14/15
0                                      1 *$MODULE       ILBODTE0                                                 00600020
                                       2 *//    ILBODTE0                                                         01200020
1DTE0     ILBODTE0                                                                                              PAGE    3
-  LOC  OBJECT CODE    ADDR1 ADDR2  STMT   SOURCE STATEMENT                                       ASM 0201 11.03 02/14/15
0000000                                4 ILBODTE0 CSECT                                                          02400020
                                       5          ENTRY ILBODTE1                                                 03000020
-
                                       7 **                                                                   ** 04200020
                                       8 **  CALLING SEQUENCE     LA    0,RECFLD                              ** 04800020
                                       9 **                       L     15,V(ILBODTEX)  X=0=CURRENT-DATE      ** 05400020
                                      10 **                       BALR  14,15           X=1=TIME-OF-DAY       ** 06000020
1DTE0     ILBODTE0                                                                                              PAGE    4
-  LOC  OBJECT CODE    ADDR1 ADDR2  STMT   SOURCE STATEMENT                                       ASM 0201 11.03 02/14/15
0                            00000    12 R0       EQU   0                                                        07200020
                             00001    13 R1       EQU   1                                                        07800020
                             00002    14 R2       EQU   2                                                        08400020
                             00003    15 R3       EQU   3                                                        09000020
                             00004    16 R4       EQU   4                                                        09600020
                             00005    17 R5       EQU   5                                                        10200020
                             00006    18 R6       EQU   6                                                        10800020
                             00007    19 R7       EQU   7                                                        11400020
                             00008    20 R8       EQU   8                                                        12000020
                             00009    21 R9       EQU   9                                                        12600020
                             0000A    22 R10      EQU   10                                                       13200020
                             0000B    23 R11      EQU   11                                                       13800020
                             0000C    24 R12      EQU   12                                                       14400020
                             0000D    25 R13      EQU   13                                                       15000020
                             0000E    26 R14      EQU   14                                                       15600020
                             0000F    27 R15      EQU   15                                                       16200020
                             00060    28 SAVE     EQU   96                                                       16800020
                             00000    29 DX0      EQU   0                                                        17400020
                             00001    30 DX1      EQU   1                                                        18000020
                             00002    31 DX2      EQU   2                                                        18600020
                             00004    32 DX4      EQU   4                                                        19200020
                             00005    33 DX5      EQU   5                                                        19800020
                             00006    34 DX6      EQU   6                                                        20400020
                             00007    35 DX7      EQU   7                                                        21000020
                             00008    36 DX8      EQU   8                                                        21600020
                             00010    37 DX16     EQU   16                                                       22200020
                             00001    38 LX1      EQU   1                                                        22800020
                             00002    39 LX2      EQU   2                                                        23400020
                             00001    40 XX01     EQU   X'01'                                                    24000020
                             00002    41 XX02     EQU   X'02'                                                    24600020
                             00061    42 SLASH    EQU   X'61'                                                    25200020
                             00000    43          USING *,R15                                                    25800020
 000000 90EC D060      00060          44          STM   R14,R12,SAVE(R13)                                        26400020
 000004 1B33                          45          SR    R3,R3                                                    27000020
 000006 45F0 F012      00012          46          BAL   R15,COMMON          SET UP ADDRESSABILITY                27600020

                             0000A    48          USING *,R15                                                    28800020
 00000A                               49 ILBODTE1 DS    0H                                                       29400020
 00000A 90EC D060      00060          50          STM   R14,R12,SAVE(R13)                                        30000020
 00000E 4130 0001      00001          51          LA    R3,DX1                                                   30600020

 000012                               53 COMMON   DS    0H                                                       31800020
 000012 1820                          54          LR    R2,R0                                                    32400020
 000014 186F                          55        LR      R6,R15              SAVE R15(BASE) OVER AN SVC           33000020
                                      56          TIME  DEC                                                      33600020
 000016 4110 0002      00002          57+         LA    1,2(0,0)                          LOAD 1 TO SPECIFY UNIT 00200000
 00001A 0A0B                          58+         SVC   11                                ISSUE TIME SVC         00280000
 00001C 18F6                          59          LR    R15,R6              RESTORE R15 DESTROYED BY SVC         34200020
 00001E 1233                          60          LTR   R3,R3               IS DATE REQUESTED                    34800020
 000020 4770 F0DC      000E6          61          BNZ   NODATE              TIME-OF-DAY ONLY                     35400020
                                      62 *                                                                       36000020
                                      63 *    GENERATE DATE : MM/DD/YY                                           36600020
                                      64 *                                                                       37200020
 000024 4162 0007      00007          65          LA    R6,DX7(R2)                                               37800020
 000028 1B00                          66          SR    R0,R0                                                    38400020
1DTE0     ILBODTE0                                                                                              PAGE    5
-  LOC  OBJECT CODE    ADDR1 ADDR2  STMT   SOURCE STATEMENT                                       ASM 0201 11.03 02/14/15
000002A 8D00 0010      00010          67          SLDL  R0,DX16                                                  39000020
 00002E 4580 F0F6      00100          68          BAL   R8,UNPACK           CONVERT YEAR                         39600020
 000032 4580 F0F6      00100          69          BAL   R8,UNPACK                                                40200020
 000036 0660                          70          BCTR  R6,0                REDUCE POINTER(FROM LEFT TO RIGHT)   40800020
 000038 8810 0014      00014          71          SRL   R1,20                                                    41400020
 00003C 9101 2007      00007          72          TM    DX7(R2),XX01        IS THIS A LEAP YEAR                  42000020
 000040 4710 F05A      00064          73          BO    NOLEAP              NO,BR                                42600020
 000044 9101 2006      00006          74          TM    DX6(R2),XX01        IS THIS DECADE ODD                   43200020
 000048 4710 F04E      00058          75          BO    DECODD              YES,BR                               43800020
 00004C 9102 2007      00007          76          TM    DX7(R2),XX02        IS THIS A LEAP YEAR                  44400020
 000050 4710 F05A      00064          77          BO    NOLEAP              NO,BR                                45000020
 000054 47F0 F056      00060          78          B     LEAP                YES,BR                               45600020
 000058                               79 DECODD   DS    0H                                                       46200020
 000058 9102 2007      00007          80          TM    DX7(R2),XX02        IS THIS A LEAP YEAR                  46800020
 00005C 4780 F05A      00064          81          BZ    NOLEAP              NO,BR                                47400020
 000060                               82 LEAP     DS    0H                                                       48000020
 000060 4130 0001      00001          83          LA    R3,DX1                                                   48600020
 000064 8910 0004      00004          84 NOLEAP   SLL   R1,4                                                     49200020
 000068 4111 000C      0000C          85          LA    R1,12(R1)           GENERATE SIGN                        49800020
 00006C 4012 0002      00002          86          STH   R1,DX2(R2)                                               50400020
 000070 F810 2000 F106 00000 00110    87          ZAP   DX0(LX2,R2),ONE(LX1)                                     51000020
 000076 4190 F108      00112          88          LA    R9,TABLE            INITIALIZE POINTER                   51600020
 00007A 41A0 000C      0000C          89          LA    R10,12              INITIALIZE LOOP CTRL REG             52200020
 00007E                               90 DATEA    DS    0H                                                       52800020
 00007E D201 2004 9000 00004 00000    91          MVC   DX4(LX2,R2),DX0(R9)                                      53400020
 000084 F910 2000 F107 00000 00111    92          CP    DX0(LX2,R2),TWO(LX1)     IS THIS FEBRUARY                54000020
 00008A 4770 F090      0009A          93          BNE   DATEC                    NO                              54600020
 00008E 1233                          94          LTR   R3,R3                    YES, IS THIS A LEAP YEAR        55200020
 000090 4780 F090      0009A          95          BZ    DATEC                    NO                              55800020
 000094 FA10 2004 F106 00004 00110    96          AP    DX4(LX2,R2),ONE(LX1)                                     56400020
 00009A                               97 DATEC    DS    0H                                                       57000020
 00009A F911 2002 2004 00002 00004    98          CP    DX2(LX2,R2),DX4(LX2,R2)  IS THIS CORRECT MONTH           57600020
 0000A0 47D0 F0AE      000B8          99          BNH   DATEB               YES,BR                               58200020
 0000A4 FB11 2002 2004 00002 00004   100          SP    DX2(LX2,R2),DX4(LX2,R2)                                  58800020
 0000AA FA10 2000 F106 00000 00110   101          AP    DX0(LX2,R2),ONE(LX1)                                     59400020
 0000B0 4199 0002      00002         102          LA    R9,2(R9)            BUMP POINTER                         60000020
 0000B4 46A0 F074      0007E         103          BCT   R10,DATEA           LOOP                                 60600020
 0000B8                              104 DATEB    DS    0H                                                       61200020
 0000B8 4802 0002      00002         105          LH    R0,DX2(R2)                                               61800020
 0000BC 8800 0004      00004         106          SRL   R0,DX4                                                   62400020
 0000C0 4580 F0F6      00100         107          BAL   R8,UNPACK           CONVERT DAY                          63000020
 0000C4 4580 F0F6      00100         108          BAL   R8,UNPACK                                                63600020
 0000C8 0660                         109          BCTR  R6,0                REDUCE POINTER                       64200020
 0000CA 4802 0000      00000         110          LH    R0,DX0(R2)                                               64800020
 0000CE 8800 0004      00004         111          SRL   R0,DX4                                                   65400020
 0000D2 4580 F0F6      00100         112          BAL   R8,UNPACK           CONVERT MONTH                        66000020
 0000D6 4580 F0F6      00100         113          BAL   R8,UNPACK                                                66600020
 0000DA 9261 2005      00005         114          MVI   DX5(R2),SLASH                                            67200020
 0000DE 9261 2002      00002         115          MVI   DX2(R2),SLASH                                            67800020
 0000E2 47F0 F0F0      000FA         116          B     EXIT                RETURN TO CALLER                     68400020
                                     117 *                                                                       69000020
                                     118 *    GENERATE TIME OF DAY                                               69600020
                                     119 *                                                                       70200020
 0000E6                              120 NODATE   DS    0H                                                       70800020
 0000E6 8800 0008      00008         121          SRL   R0,DX8                                                   71400020
1DTE0     ILBODTE0                                                                                              PAGE    6
-  LOC  OBJECT CODE    ADDR1 ADDR2  STMT   SOURCE STATEMENT                                       ASM 0201 11.03 02/14/15
00000EA 4162 0005      00005         122          LA    R6,DX5(R2)                                               72000020
 0000EE 41A0 0006      00006         123          LA    R10,6               LOOP CTRL REG                        72600020
 0000F2 4580 F0F6      00100         124 TLOOP    BAL   R8,UNPACK           UNPACK TIME OF DAY                   73200020
 0000F6 46A0 F0E8      000F2         125          BCT   R10,TLOOP                                                73800020
                                     126 ********************************************************************    74400020
 0000FA                              127 EXIT     DS    0H                                                       75000020
 0000FA 98EC D060      00060         128          LM    14,12,96(13)        RESTORE                              75600020
 0000FE 07FE                         129          BR    R14                 RETURN TO CALLER                     76200020
                                     130 ********************************************************************    76800020
 000100                              131 UNPACK   DS    0H                                                       77400020
 000100 4206 0000      00000         132          STC   R0,DX0(R6)                                               78000020
 000104 8800 0004      00004         133          SRL   R0,DX4                                                   78600020
 000108 96F0 6000      00000         134          OI    0(R6),X'F0'         GENERATE ZONE                        79200020
 00010C 0660                         135          BCTR  R6,0                REDUCE POINTER                       79800020
 00010E 07F8                         136          BR    R8                  RETURN TO CALLER                     80400020
                                     137 *********************************************************************** 81000020
 000110 1C                           138 ONE      DC    X'1C'                                                    81600020
 000111 2C                           139 TWO      DC    X'2C'                                                    82200020
 000112 031C                         140 TABLE    DC    X'031C'             JAN                                  82800020
 000114 028C                         141          DC    X'028C'             FEB                                  83400020
 000116 031C                         142          DC    X'031C'             MAR                                  84000020
 000118 030C                         143          DC    X'030C'             APR                                  84600020
 00011A 031C                         144          DC    X'031C'             MAY                                  85200020
 00011C 030C                         145          DC    X'030C'             JUNE                                 85800020
 00011E 031C                         146          DC    X'031C'             JULY                                 86400020
 000120 031C                         147          DC    X'031C'             AUG                                  87000020
 000122 030C                         148          DC    X'030C'             SEPT                                 87600020
 000124 031C                         149          DC    X'031C'             OCT                                  88200020
 000126 030C                         150          DC    X'030C'             NOV                                  88800020
 000128 031C                         151          DC    X'031C'             DEC                                  89400020
                                     152          END                                                            90000020
1DTE0                                              ASSEMBLER DIAGNOSTICS AND STATISTICS                         PAGE    7
-                                                                                                 ASM 0201 11.03 02/14/15
0NO STATEMENTS FLAGGED IN THIS ASSEMBLY
 HIGHEST SEVERITY WAS    0
 OPTIONS FOR THIS ASSEMBLY
   ALIGN, ALOGIC, BUFSIZE(STD), DECK, ESD, FLAG(0), LINECOUNT(55), LIST, NOMCALL, YFLAG, WORKSIZE(2097152)
   NOMLOGIC, NONUMBER, NOOBJECT, NORENT, RLD, NOSTMT, NOLIBMAC, NOTERMINAL, NOTEST, NOXREF(SHORT)
   SYSPARM()
 WORK FILE BUFFER SIZE/NUMBER =19066/ 1
 TOTAL RECORDS READ FROM SYSTEM INPUT        150
 TOTAL RECORDS READ FROM SYSTEM LIBRARY      514
 TOTAL RECORDS PUNCHED                         8
 TOTAL RECORDS PRINTED                       177
