1ITB0                                           EXTERNAL SYMBOL DICTIONARY                                      PAGE    1
-SYMBOL   TYPE  ID   ADDR  LENGTH LDID                                                            ASM 0201 11.03 02/14/15
0ILBOITB0  SD  0001 000000 000100
1ITB0                                                                                                           PAGE    2
-  LOC  OBJECT CODE    ADDR1 ADDR2  STMT   SOURCE STATEMENT                                       ASM 0201 11.03 02/14/15
0                                      1 *$MODULE       ILBOITB0                                                 01000020
                                       2 *//    ILBOITB0                                                         02000020
1ITB0     ILBOITB0                                                                                              PAGE    3
-  LOC  OBJECT CODE    ADDR1 ADDR2  STMT   SOURCE STATEMENT                                       ASM 0201 11.03 02/14/15
0                                      4 *        ILBOITB0   CALLING SEQ... L    15,V(ILBOITB0)                  04000020
                                       5 *FUNCTION 0 INTERNAL DECIMAL TABLE FOR CLASS TEST.                      05000020
                                       6 *INPUT 0 N/A                                                            06000020
                                       7 *OUTPUT 0 N/A                                                           07000020
                                       8 *EXTERNAL ROUTINES 0 N/A                                                08000020
                                       9 *EXITS 0 N/A                                                            09000020
                                      10 *ATTRIBUTES 0 N/A                                                       10000020
 000000                               11 ILBOITB0 START 0                                                        11000020
 000000 0101010101010101              12 ITBL   DC    16X'01010101010101010101010101010101'                      12000020
                                      13 *                                                                       13000020
                                      14 *      OVERLAY AREAS OF TABLE CORRESPONDING TO VALID BYTES OF PACKED    14000020
                                      15 *            DECIMAL WITH 00                                            15000020
                                      16 *                                                                       16000020
 000100                      00000    17        ORG   ITBL                                                       17000020
 000000 0000000000000000              18        DC    10X'00'                    00 THRU 09                      18000020
 00000A                      00010    19        ORG   ITBL+16                                                    19000020
 000010 0000000000000000              20        DC    10X'00'                    10 THRU 19                      20000020
 00001A                      00020    21        ORG   ITBL+32                                                    21000020
 000020 0000000000000000              22        DC    10X'00'                    20 THRU 29                      22000020
 00002A                      00030    23        ORG   ITBL+48                                                    23000020
 000030 0000000000000000              24        DC    10X'00'                    30 THRU 39                      24000020
 00003A                      00040    25        ORG   ITBL+64                                                    25000020
 000040 0000000000000000              26        DC    10X'00'                    40 THRU 49                      26000020
 00004A                      00050    27        ORG   ITBL+80                                                    27000020
 000050 0000000000000000              28        DC    10X'00'                    50 THRU 59                      28000020
 00005A                      00060    29        ORG   ITBL+96                                                    29000020
 000060 0000000000000000              30        DC    10X'00'                    60 THRU 69                      30000020
 00006A                      00070    31        ORG   ITBL+112                                                   31000020
 000070 0000000000000000              32        DC    10X'00'                    70 THRU 79                      32000020
 00007A                      00080    33        ORG   ITBL+128                                                   33000020
 000080 0000000000000000              34        DC    10X'00'                    80 THRU 89                      34000020
 00008A                      00090    35        ORG   ITBL+144                                                   35000020
 000090 0000000000000000              36        DC    10X'00'                    90 THRU 99                      36000020
                                      37 *                                                                       37000020
                                      38 *      OVERLAY AREAS OF TABLE  CORRESPONDING TO VALID BYTES  OF SIGNED  38000020
                                      39 *            PACKED DECIMAL WITH 80                                     39000020
                                      40 *                                                                       40000020
 00009A                      0000C    41        ORG   ITBL+X'0C'            0C  0D                               41000020
 00000C 80800180                      42        DC    X'80800180'           0C  0D  0F                           42000020
 000010                      0001C    43        ORG   ITBL+X'1C'            1C  1D                               43000020
 00001C 80800180                      44        DC    X'80800180'           0C  0D  0F                           44000020
 000020                      0002C    45        ORG   ITBL+X'2C'            2C  2D                               45000020
 00002C 80800180                      46        DC    X'80800180'           0C  0D  0F                           46000020
 000030                      0003C    47        ORG   ITBL+X'3C'            3C  3D                               47000020
 00003C 80800180                      48        DC    X'80800180'           0C  0D  0F                           48000020
 000040                      0004C    49        ORG   ITBL+X'4C'            4C  4D                               49000020
 00004C 80800180                      50        DC    X'80800180'           0C  0D  0F                           50000020
 000050                      0005C    51        ORG   ITBL+X'5C'            5C  5D                               51000020
 00005C 80800180                      52        DC    X'80800180'           0C  0D  0F                           52000020
 000060                      0006C    53        ORG   ITBL+X'6C'            6C  6D                               53000020
 00006C 80800180                      54        DC    X'80800180'           0C  0D  0F                           54000020
 000070                      0007C    55        ORG   ITBL+X'7C'            7C  7D                               55000020
 00007C 80800180                      56        DC    X'80800180'           0C  0D  0F                           56000020
 000080                      0008C    57        ORG   ITBL+X'8C'            8C  8D                               57000020
 00008C 80800180                      58        DC    X'80800180'           0C  0D  0F                           58000020
1ITB0     ILBOITB0                                                                                              PAGE    4
-  LOC  OBJECT CODE    ADDR1 ADDR2  STMT   SOURCE STATEMENT                                       ASM 0201 11.03 02/14/15
0000090                      0009C    59        ORG   ITBL+X'9C'            9C  9D                               59000020
 00009C 80800180                      60        DC    X'80800180'           0C  0D  0F                           60000020
                                      61        END                                                              61000020
1ITB0                                              ASSEMBLER DIAGNOSTICS AND STATISTICS                         PAGE    5
-                                                                                                 ASM 0201 11.03 02/14/15
0NO STATEMENTS FLAGGED IN THIS ASSEMBLY
 HIGHEST SEVERITY WAS    0
 OPTIONS FOR THIS ASSEMBLY
   ALIGN, ALOGIC, BUFSIZE(STD), DECK, ESD, FLAG(0), LINECOUNT(55), LIST, NOMCALL, YFLAG, WORKSIZE(2097152)
   NOMLOGIC, NONUMBER, NOOBJECT, NORENT, RLD, NOSTMT, NOLIBMAC, NOTERMINAL, NOTEST, NOXREF(SHORT)
   SYSPARM()
 WORK FILE BUFFER SIZE/NUMBER =19066/ 1
 TOTAL RECORDS READ FROM SYSTEM INPUT         62
 TOTAL RECORDS READ FROM SYSTEM LIBRARY        0
 TOTAL RECORDS PUNCHED                        27
 TOTAL RECORDS PRINTED                        82
