1UTB0                                           EXTERNAL SYMBOL DICTIONARY                                      PAGE    1
-SYMBOL   TYPE  ID   ADDR  LENGTH LDID                                                            ASM 0201 11.03 02/14/15
0ILBOUTB0  SD  0001 000000 000100
1UTB0                                                                                                           PAGE    2
-  LOC  OBJECT CODE    ADDR1 ADDR2  STMT   SOURCE STATEMENT                                       ASM 0201 11.03 02/14/15
0                                      1 *//    ILBOUTB0                                                         01000018
1UTB0     ILBOUTB0                                                                                              PAGE    3
-  LOC  OBJECT CODE    ADDR1 ADDR2  STMT   SOURCE STATEMENT                                       ASM 0201 11.03 02/14/15
0                                      3 *        ILBOUTB0   CALLING SEQ... L    15,V(ILBOUTB0)                  03000018
                                       4 *                                                                       04000018
                                       5 * FUNCTION--ID UNSIGNED TABLE FOR CLASS TEST                            05000018
                                       6 *                                                                       06000018
 000000                                7 ILBOUTB0 START 0                                                        07000018
                             00000     8 UTBL     EQU   *                                                        08000018
 000000 0101010101010101               9          DC    16X'01010101010101010101010101010101'                    09000018
                                      10 *                                                                       10000018
                                      11 *        OVERLAY AREAS OF TABLE CORRESPONDING TO VALID BYTES            11000018
                                      12 *        OF PACKED DECIMAL WITH X'00'                                   12000018
                                      13 *                                                                       13000018
                                      14 *                                                                       14000018
                                      15 *                                                                       15000018
 000100                      00000    16          ORG   UTBL                                                     16000018
 000000 0000000000000000              17          DC    10X'00'        00 THRU 09                                17000018
 00000A                      00010    18          ORG   UTBL+16                                                  18000018
 000010 0000000000000000              19          DC    10X'00'        10 THRU 19                                19000018
 00001A                      00020    20          ORG   UTBL+32                                                  20000018
 000020 0000000000000000              21          DC    10X'00'        20 THRU 29                                21000018
 00002A                      00030    22          ORG   UTBL+48                                                  22000018
 000030 0000000000000000              23          DC    10X'00'        30 THRU 39                                23000018
 00003A                      00040    24          ORG   UTBL+64                                                  24000018
 000040 0000000000000000              25          DC    10X'00'        40 THRU 49                                25000018
 00004A                      00050    26          ORG   UTBL+80                                                  26000018
 000050 0000000000000000              27          DC    10X'00'        50 THRU 59                                27000018
 00005A                      00060    28          ORG   UTBL+96                                                  28000018
 000060 0000000000000000              29          DC    10X'00'        60 THRU 69                                29000018
 00006A                      00070    30          ORG   UTBL+112                                                 30000018
 000070 0000000000000000              31          DC    10X'00'        70 THRU 79                                31000018
 00007A                      00080    32          ORG   UTBL+128                                                 32000018
 000080 0000000000000000              33          DC    10X'00'        80 THRU 89                                33000018
 00008A                      00090    34          ORG   UTBL+144                                                 34000018
 000090 0000000000000000              35          DC    10X'00'        90 THRU 99                                35000018
                                      36 *                                                                       36000018
                                      37 *        OVERLAY AREAS OF TABLE CORRESPONDING TO VALID LOW-ORDER        37000018
                                      38 *        UNSIGNED BYTE  WITH X'80'                                      38000018
                                      39 *                                                                       39000018
 00009A                      0000F    40          ORG   UTBL+X'0F'                                               40000018
 00000F 80                            41          DC    X'80'                                                    41000018
 000010                      0001F    42          ORG   UTBL+X'1F'                                               42000018
 00001F 80                            43          DC    X'80'                                                    43000018
 000020                      0002F    44          ORG   UTBL+X'2F'                                               44000018
 00002F 80                            45          DC    X'80'                                                    45000018
 000030                      0003F    46          ORG   UTBL+X'3F'                                               46000018
 00003F 80                            47          DC    X'80'                                                    47000018
 000040                      0004F    48          ORG   UTBL+X'4F'                                               48000018
 00004F 80                            49          DC    X'80'                                                    49000018
 000050                      0005F    50          ORG   UTBL+X'5F'                                               50000018
 00005F 80                            51          DC    X'80'                                                    51000018
 000060                      0006F    52          ORG   UTBL+X'6F'                                               52000018
 00006F 80                            53          DC    X'80'                                                    53000018
 000070                      0007F    54          ORG   UTBL+X'7F'                                               54000018
 00007F 80                            55          DC    X'80'                                                    55000018
 000080                      0008F    56          ORG   UTBL+X'8F'                                               56000018
 00008F 80                            57          DC    X'80'                                                    57000018
1UTB0     ILBOUTB0                                                                                              PAGE    4
-  LOC  OBJECT CODE    ADDR1 ADDR2  STMT   SOURCE STATEMENT                                       ASM 0201 11.03 02/14/15
0000090                      0009F    58          ORG   UTBL+X'9F'                                               58000018
 00009F 80                            59          DC    X'80'                                                    59000018
                                      60          END                                                            60000018
1UTB0                                              ASSEMBLER DIAGNOSTICS AND STATISTICS                         PAGE    5
-                                                                                                 ASM 0201 11.03 02/14/15
0NO STATEMENTS FLAGGED IN THIS ASSEMBLY
 HIGHEST SEVERITY WAS    0
 OPTIONS FOR THIS ASSEMBLY
   ALIGN, ALOGIC, BUFSIZE(STD), DECK, ESD, FLAG(0), LINECOUNT(55), LIST, NOMCALL, YFLAG, WORKSIZE(2097152)
   NOMLOGIC, NONUMBER, NOOBJECT, NORENT, RLD, NOSTMT, NOLIBMAC, NOTERMINAL, NOTEST, NOXREF(SHORT)
   SYSPARM()
 WORK FILE BUFFER SIZE/NUMBER =19066/ 1
 TOTAL RECORDS READ FROM SYSTEM INPUT         60
 TOTAL RECORDS READ FROM SYSTEM LIBRARY        0
 TOTAL RECORDS PUNCHED                        27
 TOTAL RECORDS PRINTED                        81
